{
  "abi": [
    {
      "inputs": [],
      "stateMutability": "nonpayable",
      "type": "constructor"
    },
    {
      "anonymous": false,
      "inputs": [
        {
          "indexed": true,
          "internalType": "address",
          "name": "previousOwner",
          "type": "address"
        },
        {
          "indexed": true,
          "internalType": "address",
          "name": "newOwner",
          "type": "address"
        }
      ],
      "name": "OwnershipTransferred",
      "type": "event"
    },
    {
      "inputs": [
        {
          "internalType": "bytes",
          "name": "creationCode",
          "type": "bytes"
        },
        {
          "internalType": "bytes",
          "name": "context",
          "type": "bytes"
        }
      ],
      "name": "_executeSafeView",
      "outputs": [],
      "stateMutability": "nonpayable",
      "type": "function"
    },
    {
      "inputs": [
        {
          "internalType": "bytes",
          "name": "consData",
          "type": "bytes"
        }
      ],
      "name": "cloneConstructor",
      "outputs": [],
      "stateMutability": "nonpayable",
      "type": "function"
    },
    {
      "inputs": [
        {
          "internalType": "bytes32",
          "name": "salt",
          "type": "bytes32"
        }
      ],
      "name": "computeProxyAddress",
      "outputs": [
        {
          "internalType": "address",
          "name": "",
          "type": "address"
        }
      ],
      "stateMutability": "view",
      "type": "function"
    },
    {
      "inputs": [
        {
          "internalType": "bytes32",
          "name": "salt",
          "type": "bytes32"
        }
      ],
      "name": "deployAssetForwarderClone",
      "outputs": [
        {
          "internalType": "address",
          "name": "created",
          "type": "address"
        }
      ],
      "stateMutability": "nonpayable",
      "type": "function"
    },
    {
      "inputs": [],
      "name": "deployAssetForwarderImplementation",
      "outputs": [],
      "stateMutability": "nonpayable",
      "type": "function"
    },
    {
      "inputs": [],
      "name": "deployBorrowProxyImplementation",
      "outputs": [],
      "stateMutability": "nonpayable",
      "type": "function"
    },
    {
      "inputs": [
        {
          "components": [
            {
              "components": [
                {
                  "internalType": "address payable",
                  "name": "borrower",
                  "type": "address"
                },
                {
                  "internalType": "address",
                  "name": "token",
                  "type": "address"
                },
                {
                  "internalType": "bytes32",
                  "name": "nonce",
                  "type": "bytes32"
                },
                {
                  "internalType": "uint256",
                  "name": "amount",
                  "type": "uint256"
                },
                {
                  "internalType": "bool",
                  "name": "forbidLoan",
                  "type": "bool"
                },
                {
                  "components": [
                    {
                      "internalType": "address",
                      "name": "to",
                      "type": "address"
                    },
                    {
                      "internalType": "bytes",
                      "name": "txData",
                      "type": "bytes"
                    }
                  ],
                  "internalType": "struct ShifterBorrowProxyLib.InitializationAction[]",
                  "name": "actions",
                  "type": "tuple[]"
                }
              ],
              "internalType": "struct ShifterBorrowProxyLib.LiquidityRequest",
              "name": "request",
              "type": "tuple"
            },
            {
              "internalType": "uint256",
              "name": "gasRequested",
              "type": "uint256"
            },
            {
              "internalType": "bytes",
              "name": "signature",
              "type": "bytes"
            }
          ],
          "internalType": "struct ShifterBorrowProxyLib.LiquidityRequestParcel",
          "name": "liquidityRequestParcel",
          "type": "tuple"
        },
        {
          "internalType": "uint256",
          "name": "bond",
          "type": "uint256"
        },
        {
          "internalType": "uint256",
          "name": "timeoutExpiry",
          "type": "uint256"
        }
      ],
      "name": "executeBorrow",
      "outputs": [],
      "stateMutability": "payable",
      "type": "function"
    },
    {
      "inputs": [
        {
          "components": [
            {
              "components": [
                {
                  "components": [
                    {
                      "internalType": "address payable",
                      "name": "borrower",
                      "type": "address"
                    },
                    {
                      "internalType": "address",
                      "name": "token",
                      "type": "address"
                    },
                    {
                      "internalType": "bytes32",
                      "name": "nonce",
                      "type": "bytes32"
                    },
                    {
                      "internalType": "uint256",
                      "name": "amount",
                      "type": "uint256"
                    },
                    {
                      "internalType": "bool",
                      "name": "forbidLoan",
                      "type": "bool"
                    },
                    {
                      "components": [
                        {
                          "internalType": "address",
                          "name": "to",
                          "type": "address"
                        },
                        {
                          "internalType": "bytes",
                          "name": "txData",
                          "type": "bytes"
                        }
                      ],
                      "internalType": "struct ShifterBorrowProxyLib.InitializationAction[]",
                      "name": "actions",
                      "type": "tuple[]"
                    }
                  ],
                  "internalType": "struct ShifterBorrowProxyLib.LiquidityRequest",
                  "name": "request",
                  "type": "tuple"
                },
                {
                  "internalType": "uint256",
                  "name": "gasRequested",
                  "type": "uint256"
                },
                {
                  "internalType": "bytes",
                  "name": "signature",
                  "type": "bytes"
                }
              ],
              "internalType": "struct ShifterBorrowProxyLib.LiquidityRequestParcel",
              "name": "liquidityRequestParcel",
              "type": "tuple"
            },
            {
              "components": [
                {
                  "internalType": "bytes32",
                  "name": "txhash",
                  "type": "bytes32"
                },
                {
                  "internalType": "uint256",
                  "name": "vout",
                  "type": "uint256"
                },
                {
                  "internalType": "bytes32",
                  "name": "pHash",
                  "type": "bytes32"
                },
                {
                  "internalType": "uint256",
                  "name": "amount",
                  "type": "uint256"
                },
                {
                  "internalType": "bytes",
                  "name": "darknodeSignature",
                  "type": "bytes"
                }
              ],
              "internalType": "struct ShifterBorrowProxyLib.ShiftParameters",
              "name": "shiftParameters",
              "type": "tuple"
            },
            {
              "components": [
                {
                  "internalType": "address",
                  "name": "to",
                  "type": "address"
                },
                {
                  "internalType": "bytes",
                  "name": "txData",
                  "type": "bytes"
                }
              ],
              "internalType": "struct ShifterBorrowProxyLib.InitializationAction[]",
              "name": "actions",
              "type": "tuple[]"
            }
          ],
          "internalType": "struct ShifterBorrowProxyLib.SansBorrowShiftParcel",
          "name": "parcel",
          "type": "tuple"
        }
      ],
      "name": "executeShiftSansBorrow",
      "outputs": [],
      "stateMutability": "payable",
      "type": "function"
    },
    {
      "inputs": [
        {
          "internalType": "address",
          "name": "to",
          "type": "address"
        },
        {
          "internalType": "bytes4",
          "name": "sig",
          "type": "bytes4"
        }
      ],
      "name": "fetchModuleHandler",
      "outputs": [
        {
          "components": [
            {
              "internalType": "bool",
              "name": "isPrecompiled",
              "type": "bool"
            },
            {
              "internalType": "address",
              "name": "assetSubmodule",
              "type": "address"
            },
            {
              "internalType": "address",
              "name": "liquidationSubmodule",
              "type": "address"
            },
            {
              "internalType": "address",
              "name": "repaymentSubmodule",
              "type": "address"
            }
          ],
          "internalType": "struct BorrowProxyLib.Module",
          "name": "",
          "type": "tuple"
        }
      ],
      "stateMutability": "view",
      "type": "function"
    },
    {
      "inputs": [],
      "name": "getAssetForwarderImplementationHandler",
      "outputs": [
        {
          "internalType": "address",
          "name": "implementation",
          "type": "address"
        }
      ],
      "stateMutability": "view",
      "type": "function"
    },
    {
      "inputs": [
        {
          "internalType": "address",
          "name": "proxyAddress",
          "type": "address"
        }
      ],
      "name": "getGasReserved",
      "outputs": [
        {
          "internalType": "uint256",
          "name": "",
          "type": "uint256"
        }
      ],
      "stateMutability": "view",
      "type": "function"
    },
    {
      "inputs": [
        {
          "internalType": "address",
          "name": "token",
          "type": "address"
        }
      ],
      "name": "getLiquidityTokenForTokenHandler",
      "outputs": [
        {
          "internalType": "address",
          "name": "",
          "type": "address"
        }
      ],
      "stateMutability": "view",
      "type": "function"
    },
    {
      "inputs": [
        {
          "internalType": "address",
          "name": "token",
          "type": "address"
        }
      ],
      "name": "getLiquidityTokenHandler",
      "outputs": [
        {
          "internalType": "contract LiquidityToken",
          "name": "",
          "type": "address"
        }
      ],
      "stateMutability": "view",
      "type": "function"
    },
    {
      "inputs": [
        {
          "internalType": "address",
          "name": "user",
          "type": "address"
        }
      ],
      "name": "getProxyOwnerHandler",
      "outputs": [
        {
          "internalType": "address",
          "name": "",
          "type": "address"
        }
      ],
      "stateMutability": "view",
      "type": "function"
    },
    {
      "inputs": [
        {
          "internalType": "address",
          "name": "proxyAddress",
          "type": "address"
        }
      ],
      "name": "getProxyTokenHandler",
      "outputs": [
        {
          "internalType": "address",
          "name": "",
          "type": "address"
        }
      ],
      "stateMutability": "view",
      "type": "function"
    },
    {
      "inputs": [
        {
          "internalType": "address",
          "name": "token",
          "type": "address"
        }
      ],
      "name": "getShifterHandler",
      "outputs": [
        {
          "internalType": "contract IShifter",
          "name": "",
          "type": "address"
        }
      ],
      "stateMutability": "view",
      "type": "function"
    },
    {
      "inputs": [],
      "name": "owner",
      "outputs": [
        {
          "internalType": "address",
          "name": "",
          "type": "address"
        }
      ],
      "stateMutability": "view",
      "type": "function"
    },
    {
      "inputs": [
        {
          "internalType": "address payable",
          "name": "borrower",
          "type": "address"
        },
        {
          "internalType": "uint256",
          "name": "amountBorrower",
          "type": "uint256"
        },
        {
          "internalType": "uint256",
          "name": "amountOrigin",
          "type": "uint256"
        }
      ],
      "name": "payoutCallbackGas",
      "outputs": [],
      "stateMutability": "nonpayable",
      "type": "function"
    },
    {
      "inputs": [
        {
          "internalType": "bytes",
          "name": "creationCode",
          "type": "bytes"
        },
        {
          "internalType": "bytes",
          "name": "context",
          "type": "bytes"
        }
      ],
      "name": "query",
      "outputs": [
        {
          "components": [
            {
              "internalType": "bool",
              "name": "success",
              "type": "bool"
            },
            {
              "internalType": "bytes",
              "name": "data",
              "type": "bytes"
            }
          ],
          "internalType": "struct SafeViewLib.SafeViewResult",
          "name": "",
          "type": "tuple"
        }
      ],
      "stateMutability": "nonpayable",
      "type": "function"
    },
    {
      "inputs": [
        {
          "internalType": "address",
          "name": "token",
          "type": "address"
        },
        {
          "internalType": "address",
          "name": "liquidityToken",
          "type": "address"
        },
        {
          "internalType": "address",
          "name": "keeper",
          "type": "address"
        },
        {
          "internalType": "uint256",
          "name": "bond",
          "type": "uint256"
        },
        {
          "internalType": "uint256",
          "name": "repay",
          "type": "uint256"
        },
        {
          "internalType": "uint256",
          "name": "originalAmount",
          "type": "uint256"
        }
      ],
      "name": "relayResolveLoan",
      "outputs": [
        {
          "internalType": "bool",
          "name": "",
          "type": "bool"
        }
      ],
      "stateMutability": "nonpayable",
      "type": "function"
    },
    {
      "inputs": [],
      "name": "renounceOwnership",
      "outputs": [],
      "stateMutability": "nonpayable",
      "type": "function"
    },
    {
      "inputs": [
        {
          "internalType": "address",
          "name": "user",
          "type": "address"
        },
        {
          "internalType": "bool",
          "name": "isKeeper",
          "type": "bool"
        }
      ],
      "name": "setKeeper",
      "outputs": [],
      "stateMutability": "nonpayable",
      "type": "function"
    },
    {
      "inputs": [
        {
          "components": [
            {
              "internalType": "address",
              "name": "shifterRegistry",
              "type": "address"
            },
            {
              "internalType": "uint256",
              "name": "minTimeout",
              "type": "uint256"
            },
            {
              "internalType": "uint256",
              "name": "poolFee",
              "type": "uint256"
            },
            {
              "internalType": "uint256",
              "name": "daoFee",
              "type": "uint256"
            },
            {
              "internalType": "uint256",
              "name": "maxLoan",
              "type": "uint256"
            },
            {
              "internalType": "uint256",
              "name": "gasEstimate",
              "type": "uint256"
            },
            {
              "internalType": "uint256",
              "name": "maxGasPriceForRefund",
              "type": "uint256"
            }
          ],
          "internalType": "struct ShifterPoolLib.SetupParams",
          "name": "params",
          "type": "tuple"
        },
        {
          "components": [
            {
              "internalType": "enum BorrowProxyLib.ModuleRegistrationType",
              "name": "moduleType",
              "type": "uint8"
            },
            {
              "internalType": "address",
              "name": "target",
              "type": "address"
            },
            {
              "internalType": "bytes4[]",
              "name": "sigs",
              "type": "bytes4[]"
            }
          ],
          "internalType": "struct BorrowProxyLib.ModuleDetails[]",
          "name": "moduleDetails",
          "type": "tuple[]"
        },
        {
          "components": [
            {
              "internalType": "bool",
              "name": "isPrecompiled",
              "type": "bool"
            },
            {
              "internalType": "address",
              "name": "assetSubmodule",
              "type": "address"
            },
            {
              "internalType": "address",
              "name": "liquidationSubmodule",
              "type": "address"
            },
            {
              "internalType": "address",
              "name": "repaymentSubmodule",
              "type": "address"
            }
          ],
          "internalType": "struct BorrowProxyLib.Module[]",
          "name": "modules",
          "type": "tuple[]"
        },
        {
          "components": [
            {
              "internalType": "address",
              "name": "token",
              "type": "address"
            },
            {
              "internalType": "address",
              "name": "liqToken",
              "type": "address"
            }
          ],
          "internalType": "struct ShifterPoolLib.LiquidityTokenLaunch[]",
          "name": "tokenLaunches",
          "type": "tuple[]"
        }
      ],
      "name": "setup",
      "outputs": [],
      "stateMutability": "nonpayable",
      "type": "function"
    },
    {
      "inputs": [
        {
          "internalType": "address",
          "name": "newOwner",
          "type": "address"
        }
      ],
      "name": "transferOwnership",
      "outputs": [],
      "stateMutability": "nonpayable",
      "type": "function"
    },
    {
      "inputs": [
        {
          "internalType": "bytes",
          "name": "proxyRecord",
          "type": "bytes"
        }
      ],
      "name": "validateProxyRecordHandler",
      "outputs": [
        {
          "internalType": "bool",
          "name": "",
          "type": "bool"
        }
      ],
      "stateMutability": "view",
      "type": "function"
    },
    {
      "stateMutability": "payable",
      "type": "receive"
    }
  ],
  "address": "0x8858eeB3DfffA017D4BCE9801D340D36Cf895CCf",
  "args": [],
  "bytecode": "0x60806040523480156200001157600080fd5b506000620000276001600160e01b036200007b16565b600080546001600160a01b0319166001600160a01b0383169081178255604051929350917f8be0079c531659141344cd1fd0a4f28419497f9722a3daafe3b4186f6b6457e0908290a350436001556200007f565b3390565b61470c806200008f6000396000f3fe60806040526004361061016a5760003560e01c8063715018a6116100d1578063d0a80e311161008a578063dd38f6a811610064578063dd38f6a814610404578063e6c1f07414610431578063f2fde38b14610451578063f7a94ce21461047157610171565b8063d0a80e31146103b1578063d1b9e853146103d1578063dc74245e146103f157610171565b8063715018a61461031f578063798aada0146103345780638da5cb5b1461035457806393e93abe14610369578063abee1fc91461037e578063b41b62a81461039157610171565b80634411236011610123578063441123601461026857806352e831dd1461029557806354fd9cd6146102b55780635f7d2b57146102d557806363091aa3146102f557806365ba837a1461030a57610171565b806308f60495146101765780631fbc78dc146101ac5780632593b053146101d957806329658b02146101f957806334686eaf146102195780633d21f7f21461024657610171565b3661017157005b600080fd5b34801561018257600080fd5b5061019661019136600461322a565b610491565b6040516101a39190613957565b60405180910390f35b3480156101b857600080fd5b506101cc6101c73660046130c1565b6104ab565b6040516101a39190613810565b3480156101e557600080fd5b506101cc6101f4366004613212565b6104be565b34801561020557600080fd5b506101cc6102143660046130c1565b61050b565b34801561022557600080fd5b5061023961023436600461325c565b61051e565b6040516101a391906142b8565b34801561025257600080fd5b506102666102613660046130f9565b61053d565b005b34801561027457600080fd5b506102886102833660046131c9565b610591565b6040516101a3919061419f565b3480156102a157600080fd5b506102666102b036600461322a565b6105ab565b3480156102c157600080fd5b506101cc6102d0366004613212565b6105ae565b3480156102e157600080fd5b506102666102f036600461325c565b6105cd565b34801561030157600080fd5b50610266610618565b34801561031657600080fd5b506101cc61066b565b34801561032b57600080fd5b5061026661067a565b34801561034057600080fd5b506101cc61034f3660046130c1565b610702565b34801561036057600080fd5b506101cc610715565b34801561037557600080fd5b50610266610724565b61026661038c3660046133bb565b61074e565b34801561039d57600080fd5b506102666103ac36600461346d565b610781565b3480156103bd57600080fd5b506101cc6103cc3660046130c1565b61095a565b3480156103dd57600080fd5b506102666103ec366004613191565b610978565b6102666103ff3660046132bc565b6109d8565b34801561041057600080fd5b5061042461041f3660046130c1565b610b24565b6040516101a39190613807565b34801561043d57600080fd5b506101cc61044c3660046130c1565b610b3f565b34801561045d57600080fd5b5061026661046c3660046130c1565b610b52565b34801561047d57600080fd5b5061019661048c36600461312d565b610c08565b60006104a5600f338463ffffffff610dd516565b92915050565b60006104a560018363ffffffff610dfb16565b6003546000906104a5906001600160a01b03166104d9610e7e565b33856040516020016104ed93929190613769565b6040516020818303038152906040528051906020012060001c610ea2565b60006104a5600f8363ffffffff610ef216565b610526612a04565b610536838363ffffffff610f1516565b9392505050565b801561056057604051329082156108fc029083906000818181858888f150505050505b811561058c576040516001600160a01b0384169083156108fc029084906000818181858888f150505050505b505050565b610599612a1c565b6105366013848463ffffffff610f8e16565b50565b6002546000906104a5906001600160a01b03168363ffffffff61107c16565b60006105e260006105dc611088565b856110ac565b905060606106076106026001600160a01b0384168563ffffffff61111e16565b6111a8565b9050610612816111d1565b50505050565b61064960017ffe1e3164ba4910db3c9afd049cd8feb4552390569c846692e6df4ac68aeaa90e63ffffffff6111d916565b600280546001600160a01b0319166001600160a01b0392909216919091179055565b6003546001600160a01b031690565b610682611241565b6000546001600160a01b039081169116146106b85760405162461bcd60e51b81526004016106af90613eb5565b60405180910390fd5b600080546040516001600160a01b03909116907f8be0079c531659141344cd1fd0a4f28419497f9722a3daafe3b4186f6b6457e0908390a3600080546001600160a01b0319169055565b60006104a560018363ffffffff61124516565b6000546001600160a01b031690565b61072c611281565b600380546001600160a01b0319166001600160a01b0392909216919091179055565b6000606061075b836112d9565b91509150805160001461058c5761058c6001600160a01b0383168263ffffffff6115f016565b610789611241565b6000546001600160a01b039081169116146107b65760405162461bcd60e51b81526004016106af90613eb5565b82518251146107d75760405162461bcd60e51b81526004016106af90613f8b565b8351600480546001600160a01b0319166001600160a01b03909216919091179055608084015160085560208401516005556040840151600655606084015160075560a084015160095560c0840151600a5560005b82518110156108e75761083c612a43565b604051806080016040528086848151811061085357fe5b602002602001015160000151600281111561086a57fe5b815260200186848151811061087b57fe5b6020026020010151602001516001600160a01b031681526020018684815181106108a157fe5b60200260200101516040015181526020018584815181106108be57fe5b6020908102919091010151905290506108de60138263ffffffff61165216565b5060010161082b565b5060005b8151811015610953576108fc612a71565b82828151811061090857fe5b6020908102919091018101518082015190516001600160a01b039081166000908152600e909352604090922080546001600160a01b03191692909116919091179055506001016108eb565b5050505050565b6001600160a01b039081166000908152600e60205260409020541690565b610980611241565b6000546001600160a01b039081169116146109ad5760405162461bcd60e51b81526004016106af90613eb5565b6001600160a01b03919091166000908152600c60205260409020805460ff1916911515919091179055565b6109e0612a88565b60405180606001604052805a8152602001610a006001600901543a61170c565b8152600060209182018190526009548383015102604080850191909152338252600c909252205490915060ff16610a495760405162461bcd60e51b81526004016106af90613cb5565b835160a00151610a5885611722565b506000610a6783878787611804565b86518051602090910151919250610a91916001600160a01b0384169190600063ffffffff6119f616565b610aaa6001600160a01b0382168363ffffffff6115f016565b610ac8836040015184602001515a866000015103612198010261170c565b808452604051329180156108fc02916000818181858888f19350505050158015610af6573d6000803e3d6000fd5b5082516040938401516001600160a01b039092166000908152600b6020529390932092900390915550505050565b6001600160a01b03166000908152600b602052604090205490565b60006104a5600f8363ffffffff611a9416565b610b5a611241565b6000546001600160a01b03908116911614610b875760405162461bcd60e51b81526004016106af90613eb5565b6001600160a01b038116610bad5760405162461bcd60e51b81526004016106af90613ad4565b600080546040516001600160a01b03808516939216917f8be0079c531659141344cd1fd0a4f28419497f9722a3daafe3b4186f6b6457e091a3600080546001600160a01b0319166001600160a01b0392909216919091179055565b336000908152600f6020526040812054610c345760405162461bcd60e51b81526004016106af90613cec565b81831015610c5e57818484011015610c53576000939290920191610c5e565b828203840393508192505b8315610c9a57610c7e6001600160a01b038816868663ffffffff611ab716565b610c9a5760405162461bcd60e51b81526004016106af90613df9565b8215610d2e57600080610cb285600160060154611b29565b9092509050610cd16001600160a01b038a16898463ffffffff611ab716565b610ced5760405162461bcd60e51b81526004016106af90613bcb565b610d0f610cf8610715565b6001600160a01b038b16908363ffffffff611ab716565b610d2b5760405162461bcd60e51b81526004016106af90614062565b50505b60405163c3275c7960e01b81526001600160a01b0387169063c3275c7990610d5a903390600401613810565b602060405180830381600087803b158015610d7457600080fd5b505af1158015610d88573d6000803e3d6000fd5b505050506040513d601f19601f82011682018060405250810190610dac91906131f6565b610dc85760405162461bcd60e51b81526004016106af9061402b565b5060019695505050505050565b80516020918201206001600160a01b039290921660009081529290526040909120541490565b6003820154604051631b95e30560e01b81526000916001600160a01b031690631b95e30590610e2e908590600401613810565b60206040518083038186803b158015610e4657600080fd5b505afa158015610e5a573d6000803e3d6000fd5b505050506040513d601f19601f8201168201806040525081019061053691906130dd565b7f6b6f6b75258f8f4cdb6ef275682bc2be3e8b970e5e4417113bd1ea53622d907e90565b60006060610eaf84611b72565b80519091508390602083018282826000f5945050506001600160a01b038316610eea5760405162461bcd60e51b81526004016106af90613f63565b505092915050565b6001600160a01b0380821660009081526002840160205260409020541692915050565b610f1d612a04565b606030610f2a8585611b7e565b604051610f3791906137ba565b6000604051808303816000865af19150503d8060008114610f74576040519150601f19603f3d011682016040523d82523d6000602084013e610f79565b606091505b50915050610f8681611bd4565b949350505050565b610f96612a1c565b610f9e612a1c565b846000610fab8686611bf0565b815260208082019290925260409081016000208151608081018352815460ff8116151582526001600160a01b036101009091048116948201949094526001820154841692810192909252600201549091166060820152905061100c81611c18565b610f865784600061101d8686611c2a565b815260208082019290925260409081016000208151608081018352815460ff81161515825261010090046001600160a01b0390811694820194909452600182015484169281019290925260020154909116606082015295945050505050565b60006105368383611c45565b7fad53495153c7c363e98a26920ec679e0e687636458f6908c91cf6deadb19080190565b600080844710156110cf5760405162461bcd60e51b81526004016106af9061412c565b82516110ed5760405162461bcd60e51b81526004016106af90613a3a565b8383516020850187f590506001600160a01b038116610f865760405162461bcd60e51b81526004016106af90613dc2565b611126612a04565b60006060846001600160a01b031661113d85611c60565b60405161114a91906137ba565b600060405180830381855af49150503d8060008114611185576040519150601f19603f3d011682016040523d82523d6000602084013e61118a565b606091505b50604080518082019091529115158252602082015295945050505050565b6060816040516020016111bb91906142b8565b6040516020818303038152906040529050919050565b805160208201fd5b60405163dd678a0760e01b815260009073__$63bcb1a864e5f3c83b35ceb0ce459b5367$__9063dd678a07906112159086908690600401614191565b60206040518083038186803b15801561122d57600080fd5b505af4158015610e5a573d6000803e3d6000fd5b3390565b6001600160a01b038082166000908152600d84016020526040812054909116806105365760405162461bcd60e51b81526004016106af90613ff6565b60006112d460007f6b6f6b75258f8f4cdb6ef275682bc2be3e8b970e5e4417113bd1ea53622d907e60001b604051806020016112bc90612aa9565b601f1982820381018352601f909101166040526110ac565b905090565b600060606112e5612ab6565b6040805160a08101825285515181830190815282518084019093523383528651516060908101519293849391840191602082019061132c90600190600a81046103e8611cb3565b905281528751516060908101516020928301529183526040805160a08101825289830180515182528051840151828501528051830151928201929092528151840151938101939093525160809081015190830152919091015284519091506113a59061139790611da7565b85519063ffffffff611dc016565b6113c15760405162461bcd60e51b81526004016106af90613e71565b8351516000906113d090611df1565b6002549091506113ef906001600160a01b03168263ffffffff61107c16565b9350611403846001600160a01b0316611dfc565b156114205760405162461bcd60e51b81526004016106af906139f8565b6114558460016040516020016114369190613807565b60408051601f19818403018152919052600f919063ffffffff611e0216565b6020850151606001518251600091611473919063ffffffff611e2516565b905061147e82611e52565b5085515180516020909101516114a6916001600160a01b03881691600163ffffffff6119f616565b855151516001600160a01b031633148015906114c6575085516020015134145b1561158057855151516040516001600160a01b03909116903480156108fc02916000818181858888f19350505050158015611505573d6000803e3d6000fd5b50855151602001516115359086906115259060019063ffffffff610dfb16565b8861152f87611e6b565b85611e76565b85515160200151611556906001600160a01b0316338363ffffffff611ab716565b6115725760405162461bcd60e51b81526004016106af90613b1a565b85515160a0015193506115e8565b855151516001600160a01b03163314156115d057855151602001516115c49086906115b39060019063ffffffff610dfb16565b886115bd87611e6b565b6000611e76565b856040015193506115e8565b60405162461bcd60e51b81526004016106af90613eea565b505050915091565b604051630bfceb2b60e31b81526001600160a01b03831690635fe759589061161c9084906004016138f7565b600060405180830381600087803b15801561163657600080fd5b505af115801561164a573d6000803e3d6000fd5b505050505050565b60018151600281111561166157fe5b14156116b05760005b8160400151518110156116aa576116a28383602001518460400151848151811061169057fe5b60200260200101518560600151611f18565b60010161166a565b50611708565b6002815160028111156116bf57fe5b14156117085760005b81604001515181101561058c57611700838360200151846040015184815181106116ee57fe5b60200260200101518560600151611fa2565b6001016116c8565b5050565b600081831061171b5781610536565b5090919050565b6000808260000151602001516001600160a01b031663313ce5676040518163ffffffff1660e01b815260040160206040518083038186803b15801561176657600080fd5b505afa15801561177a573d6000803e3d6000fd5b505050506040513d601f19601f8201168201806040525081019061179e9190613598565b905060128160ff1611156117c45760405162461bcd60e51b81526004016106af906140cf565b60085483516060015160ff8316601203600a0a90816117df57fe5b0411156117fe5760405162461bcd60e51b81526004016106af90614163565b50919050565b8251608001516000901561182a5760405162461bcd60e51b81526004016106af90613d23565b3484602001511461184d5760405162461bcd60e51b81526004016106af90613b7f565b61186661185985611da7565b859063ffffffff611dc016565b6118825760405162461bcd60e51b81526004016106af90613e71565b61188a612ad6565b508351600061189882611df1565b604080516000808252602082019092529192506118cb565b6118b8612a04565b8152602001906001900390816118b05790505b5060a08301526118d9612b0d565b60405180606001604052808481526020016040518060400160405280336001600160a01b0316815260200161192087606001518b8b6001611cb3909392919063ffffffff16565b815250815260200161196c6188b861196061194988602001516001610dfb90919063ffffffff16565b602089015160608a0151919063ffffffff611fb016565b9063ffffffff61200116565b9052905061197982611e52565b935061198760018583612043565b6119af836020015185611999846120e2565b60408c015160019392919063ffffffff61211916565b60208301516119cf906001600160a01b031633308963ffffffff6121c016565b6119eb5760405162461bcd60e51b81526004016106af90613f33565b505050949350505050565b6040516329c8702d60e01b81526001600160a01b038516906329c8702d90611a2690869086908690600401613845565b602060405180830381600087803b158015611a4057600080fd5b505af1158015611a54573d6000803e3d6000fd5b505050506040513d601f19601f82011682018060405250810190611a7891906131f6565b6106125760405162461bcd60e51b81526004016106af90613c02565b6001600160a01b0380821660009081526001840160205260409020541692915050565b600080846001600160a01b0316611ace8585612234565b604051611adb91906137ba565b6000604051808303816000865af19150503d8060008114611b18576040519150601f19603f3d011682016040523d82523d6000602084013e611b1d565b606091505b50909695505050505050565b600080611b54670de0b6b3a7640000611b48868663ffffffff61225116565b9063ffffffff61228b16565b905083811015611b68578084039150611b6b565b50825b9250929050565b60606104a530836122cd565b6060635f7d2b5760e01b8383604051602401611b9b929190613993565b60408051601f198184030181529190526020810180516001600160e01b03166001600160e01b0319909316929092179091529392505050565b611bdc612a04565b818060200190518101906104a59190613307565b600080611bfc8461242c565b9050611c088184612430565b8051906020012091505092915050565b602001516001600160a01b0316151590565b6000611c36838361245c565b80519060200120905092915050565b600061053682611c5485611b72565b80519060200120612471565b60606309c5eabe60e01b82604051602401611c7b9190613980565b60408051601f198184030181529190526020810180516001600160e01b03166001600160e01b03199093169290921790915292915050565b611cbb612b3a565b8460040154821015611cdf5760405162461bcd60e51b81526004016106af90613a6f565b6000611cfa670de0b6b3a7640000606463ffffffff61228b16565b9050611d15670de0b6b3a7640000606463ffffffff61228b16565b611d3186611b4887670de0b6b3a764000063ffffffff61225116565b11611d4e5760405162461bcd60e51b81526004016106af906140a3565b6000848610611d7057611d6b86611b48848863ffffffff61225116565b611d72565b815b905060405180608001604052808543018152602001868152602001886005015481526020018281525092505050949350505050565b6000611db28261247e565b805190602001209050919050565b6000611dd8611dce8361249e565b84604001516124ce565b8351516001600160a01b03908116911614905092915050565b6000611db2826125fc565b3b151590565b80516020918201206001600160a01b039092166000908152929052604090912055565b6000610536670de0b6b3a7640000611b48856020015160200151606001518561225190919063ffffffff16565b6002546000906104a5906001600160a01b031683610ea2565b6000611db282612618565b8251516020908101519084015160408082015160608301516080909301519151637bf1bc5b60e11b81526001600160a01b038a169463f7e378b694611ec6948b9492938a91908a90600401613869565b602060405180830381600087803b158015611ee057600080fd5b505af1158015611ef4573d6000803e3d6000fd5b505050506040513d601f19601f8201168201806040525081019061164a91906131f6565b80846000611f268686611bf0565b81526020808201929092526040908101600020835181549385015160ff1990941690151517610100600160a81b0319166101006001600160a01b0394851602178155908301516001820180546001600160a01b031990811692851692909217905560609093015160029091018054909316911617905550505050565b80846000611f268686611c2a565b600080611fbc8461263f565b90506000611fca84876126bc565b90506000611fe4612710611b48848663ffffffff61225116565b9050611ff6828263ffffffff61200116565b979650505050505050565b600061053683836040518060400160405280601e81526020017f536166654d6174683a207375627472616374696f6e206f766572666c6f77000081525061273d565b606061204e82612769565b82516020015190915061206d90600e860190859063ffffffff61277c16565b81515161208690600e860190859063ffffffff6127b016565b8151516040516001600160a01b03909116903480156108fc02916000818181858888f193505050501580156120bf573d6000803e3d6000fd5b506120d4600e8501848363ffffffff611e0216565b8151516106129084836127e4565b60006104a56121086120f384612834565b6120fc85612865565b9063ffffffff61289616565b60408401519063ffffffff61200116565b6121238585611245565b6001600160a01b0316631f9efb208484846040518463ffffffff1660e01b815260040161215293929190613824565b602060405180830381600087803b15801561216c57600080fd5b505af1158015612180573d6000803e3d6000fd5b505050506040513d601f19601f820116820180604052508101906121a491906131f6565b6109535760405162461bcd60e51b81526004016106af90613c71565b600080856001600160a01b03166121d88686866128bb565b6040516121e591906137ba565b6000604051808303816000865af19150503d8060008114612222576040519150601f19603f3d011682016040523d82523d6000602084013e612227565b606091505b5090979650505050505050565b606063a9059cbb60e01b8383604051602401611b9b9291906138de565b600082612260575060006104a5565b8282028284828161226d57fe5b04146105365760405162461bcd60e51b81526004016106af90613e30565b600061053683836040518060400160405280601a81526020017f536166654d6174683a206469766973696f6e206279207a65726f000000000000815250612914565b60408051600081526020810190915260609081906122ee9060448101613980565b60408051601f198184030181529190526020810180516001600160e01b03166352e831dd60e01b17905280519091506063016001600160401b038111801561233557600080fd5b506040519080825280601f01601f191660200182016040528015612360576020820181803683370190505b507f3d3d606380380380913d393d73bebebebebebebebebebebebebebebebebebebe6020820152600160601b858102602d8301527f5af4602a57600080fd5b602d8060366000396000f3363d3d373d3d3d363d73be6041830152840260608201526e5af43d82803e903d91602b57fd5bf360881b6074820152915060005b8151811015610eea578181815181106123f357fe5b602001015160f81c60f81b83826063018151811061240d57fe5b60200101906001600160f81b031916908160001a9053506001016123de565b3f90565b606082826040516020016124459291906137a2565b604051602081830303815290604052905092915050565b6060828260405160200161244592919061370e565b600061053683833061294b565b606080612492836000015160a0015161298a565b9050610536838261299d565b6000816040516020016124b191906137d6565b604051602081830303815290604052805190602001209050919050565b600081516041146124f15760405162461bcd60e51b81526004016106af90613a9d565b60208201516040830151606084015160001a7f7fffffffffffffffffffffffffffffff5d576e7357a4501ddfe92f46681b20a08211156125435760405162461bcd60e51b81526004016106af90613c2f565b8060ff16601b1415801561255b57508060ff16601c14155b156125785760405162461bcd60e51b81526004016106af90613d80565b60006001878386866040516000815260200160405260405161259d9493929190613962565b6020604051602081039080840390855afa1580156125bf573d6000803e3d6000fd5b5050604051601f1901519150506001600160a01b0381166125f25760405162461bcd60e51b81526004016106af906139c1565b9695505050505050565b60608061260c8360a0015161298a565b905061053683826129d3565b80515160409081015160208084015180519082015193516060946111bb949390910161378c565b6000816001600160a01b03166313966db56040518163ffffffff1660e01b815260040160206040518083038186803b15801561267a57600080fd5b505afa15801561268e573d6000803e3d6000fd5b505050506040513d601f19601f820116820180604052508101906126b2919061355e565b61ffff1692915050565b6040516350b9d97b60e11b81526000906001600160a01b0384169063a173b2f6906126eb908590600401613807565b602060405180830381600087803b15801561270557600080fd5b505af1158015612719573d6000803e3d6000fd5b505050506040513d601f19601f820116820180604052508101906105369190613580565b600081848411156127615760405162461bcd60e51b81526004016106af9190613980565b505050900390565b6060816040516020016111bb91906141dd565b6001600160a01b039182166000908152600290930160205260409092208054919092166001600160a01b0319909116179055565b6001600160a01b039182166000908152600190930160205260409092208054919092166001600160a01b0319909116179055565b816001600160a01b0316836001600160a01b03167f9ae84ac2ad8f721c2e62d211eca0ae34951726f8834913af6c5ebb81610bb1f8836040516128279190613980565b60405180910390a3505050565b60006104a5670de0b6b3a7640000611b4884602001516020015160600151856040015161225190919063ffffffff16565b60006104a5670de0b6b3a7640000611b4884602001516020015160400151856040015161225190919063ffffffff16565b6000828201838110156105365760405162461bcd60e51b81526004016106af90613b48565b60606323b872dd60e01b8484846040516024016128da939291906138ba565b60408051601f198184030181529190526020810180516001600160e01b03166001600160e01b031990931692909217909152949350505050565b600081836129355760405162461bcd60e51b81526004016106af9190613980565b50600083858161294157fe5b0495945050505050565b60008060ff60f81b8386866040516020016129699493929190613735565b60408051808303601f19018152919052805160209091012095945050505050565b6060816040516020016111bb91906138f7565b815160208082015160408084015160608581015185890151608090970151935191966124459630969592939192918a91016136a7565b6060826000015183602001518460400151856060015186608001518660405160200161244596959493929190613647565b60408051808201909152600081526060602082015290565b60408051608081018252600080825260208201819052918101829052606081019190915290565b604080516080810190915280600081526000602082015260606040820181905201612a6c612a1c565b905290565b604080518082019091526000808252602082015290565b60405180606001604052806000815260200160008152602001600081525090565b61032a806143ad83390190565b6040518060400160405280612ac9612b0d565b8152602001612a6c612b62565b6040805160c0810182526000808252602082018190529181018290526060808201839052608082019290925260a081019190915290565b6040518060600160405280612b20612ad6565b8152602001612b2d612b97565b8152602001600081525090565b6040518060800160405280600081526020016000815260200160008152602001600081525090565b6040518060a0016040528060008019168152602001600081526020016000801916815260200160008152602001606081525090565b604051806040016040528060006001600160a01b03168152602001612a6c612b3a565b80356104a581614373565b600082601f830112612bd5578081fd5b8135612be8612be382614305565b6142df565b818152915060208083019084810181840286018201871015612c0957600080fd5b60005b84811015612c31578135612c1f81614396565b84529282019290820190600101612c0c565b505050505092915050565b600082601f830112612c4c578081fd5b8135612c5a612be382614305565b818152915060208083019084810160005b84811015612c315781358701604080601f19838c03011215612c8c57600080fd5b612c95816142df565b85830135612ca281614373565b8152828201356001600160401b03811115612cbc57600080fd5b612cca8c8883870101612efe565b8288015250865250509282019290820190600101612c6b565b600082601f830112612cf3578081fd5b8135612d01612be382614305565b8181529150602080830190848101604080850287018301881015612d2457600080fd5b6000805b86811015612d755782848b031215612d3e578182fd5b612d47836142df565b612d518b86612bba565b8152612d5f8b878701612bba565b8187015286529484019492820192600101612d28565b5050505050505092915050565b600082601f830112612d92578081fd5b8135612da0612be382614305565b818152915060208083019084810160005b84811015612c315781358701606080601f19838c03011215612dd257600080fd5b612ddb816142df565b612de78b878501612f4c565b81526040612df78c828601612bba565b87830152828401356001600160401b03811115612e1357600080fd5b612e218d8983880101612bc5565b9183019190915250865250509282019290820190600101612db1565b600082601f830112612e4d578081fd5b8135612e5b612be382614305565b8181529150602080830190848101608080850287018301881015612e7e57600080fd5b6000805b86811015612d755782848b031215612e98578182fd5b612ea1836142df565b612eab8b86612ef3565b8152612eb98b878701612bba565b868201526040612ecb8c828801612bba565b908201526060612edd8c878301612bba565b9082015286529484019492820192600101612e82565b80356104a581614388565b600082601f830112612f0e578081fd5b8135612f1c612be382614324565b9150808252836020828501011115612f3357600080fd5b8060208401602084013760009082016020015292915050565b8035600381106104a557600080fd5b600060608284031215612f6c578081fd5b612f7660606142df565b905081356001600160401b0380821115612f8f57600080fd5b81840160c08187031215612fa257600080fd5b612fac60c06142df565b9250612fb88682612bba565b8352612fc78660208301612bba565b60208401526040810135604084015260608101356060840152612fed8660808301612ef3565b608084015260a08101358281111561300457600080fd5b61301087828401612c3c565b60a0850152505081835260208401356020840152604084013591508082111561303857600080fd5b5061304584828501612efe565b60408301525092915050565b600060a08284031215613062578081fd5b61306c60a06142df565b90508135815260208201356020820152604082013560408201526060820135606082015260808201356001600160401b038111156130a957600080fd5b6130b584828501612efe565b60808301525092915050565b6000602082840312156130d2578081fd5b813561053681614373565b6000602082840312156130ee578081fd5b815161053681614373565b60008060006060848603121561310d578182fd5b833561311881614373565b95602085013595506040909401359392505050565b60008060008060008060c08789031215613145578384fd5b863561315081614373565b9550602087013561316081614373565b9450604087013561317081614373565b959894975094956060810135955060808101359460a0909101359350915050565b600080604083850312156131a3578182fd5b82356131ae81614373565b915060208301356131be81614388565b809150509250929050565b600080604083850312156131db578182fd5b82356131e681614373565b915060208301356131be81614396565b600060208284031215613207578081fd5b815161053681614388565b600060208284031215613223578081fd5b5035919050565b60006020828403121561323b578081fd5b81356001600160401b03811115613250578182fd5b610f8684828501612efe565b6000806040838503121561326e578182fd5b82356001600160401b0380821115613284578384fd5b61329086838701612efe565b935060208501359150808211156132a5578283fd5b506132b285828601612efe565b9150509250929050565b6000806000606084860312156132d0578081fd5b83356001600160401b038111156132e5578182fd5b6132f186828701612f5b565b9660208601359650604090950135949350505050565b60006020808385031215613319578182fd5b82516001600160401b038082111561332f578384fd5b81850160408188031215613341578485fd5b61334b60406142df565b9250805161335881614388565b8352808401518281111561336a578586fd5b019050601f8101861361337b578384fd5b8051613389612be382614324565b818152878583850101111561339c578586fd5b6133ab82868301878601614347565b9383019390935250949350505050565b6000602082840312156133cc578081fd5b81356001600160401b03808211156133e2578283fd5b818401606081870312156133f4578384fd5b6133fe60606142df565b925080358281111561340e578485fd5b61341a87828401612f5b565b84525060208101358281111561342e578485fd5b61343a87828401613051565b602085015250604081013582811115613451578485fd5b61345d87828401612c3c565b6040850152509195945050505050565b600080600080848603610140811215613484578283fd5b60e0811215613491578283fd5b5061349c60e06142df565b6134a68787612bba565b81526020860135602082015260408601356040820152606086013560608201526080860135608082015260a086013560a082015260c086013560c08201528094505060e08501356001600160401b0380821115613501578384fd5b61350d88838901612d82565b9450610100870135915080821115613523578384fd5b61352f88838901612e3d565b9350610120870135915080821115613545578283fd5b5061355287828801612ce3565b91505092959194509250565b60006020828403121561356f578081fd5b815161ffff81168114610536578182fd5b600060208284031215613591578081fd5b5051919050565b6000602082840312156135a9578081fd5b815160ff81168114610536578182fd5b600081518084526135d1816020860160208601614347565b601f01601f19169290920160200192915050565b600060018060a01b038251168352602082015160406020850152610f8660408501826135b9565b60018060a01b038151168252602081015180516020840152602081015160408401526040810151606084015260608101516080840152505050565b60006bffffffffffffffffffffffff19808960601b168352808860601b1660148401525085602883015284604883015283151560f81b60688301528251613695816069850160208701614347565b91909101606901979650505050505050565b60006bffffffffffffffffffffffff19808a60601b168352808960601b1660148401525086602883015285604883015284606883015283151560f81b608883015282516136fb816089850160208701614347565b9190910160890198975050505050505050565b60609290921b6001600160601b03191682526001600160e01b031916601482015260180190565b6001600160f81b031994909416845260609290921b6001600160601b03191660018401526015830152603582015260550190565b92835260609190911b6001600160601b0319166020830152603482015260540190565b9283526020830191909152604082015260600190565b9182526001600160e01b031916602082015260240190565b600082516137cc818460208701614347565b9190910192915050565b7f19457468657265756d205369676e6564204d6573736167653a0a3332000000008152601c810191909152603c0190565b90815260200190565b6001600160a01b0391909116815260200190565b6001600160a01b039390931683526020830191909152604082015260600190565b6001600160a01b039384168152919092166020820152901515604082015260600190565b600060018060a01b03808a16835280891660208401525086604083015285606083015284608083015260e060a08301526138a660e08301856135b9565b90508260c083015298975050505050505050565b6001600160a01b039384168152919092166020820152604081019190915260600190565b6001600160a01b03929092168252602082015260400190565b6000602080830181845280855180835260408601915060408482028701019250838701855b8281101561394a57603f198886030184526139388583516135e5565b9450928501929085019060010161391c565b5092979650505050505050565b901515815260200190565b93845260ff9290921660208401526040830152606082015260800190565b60006020825261053660208301846135b9565b6000604082526139a660408301856135b9565b82810360208401526139b881856135b9565b95945050505050565b60208082526018908201527f45434453413a20696e76616c6964207369676e61747572650000000000000000604082015260600190565b60208082526022908201527f70726f78792068617320616c7265616479206265656e20696e697469616c697a604082015261195960f21b606082015260800190565b6020808252818101527f437265617465323a2062797465636f6465206c656e677468206973207a65726f604082015260600190565b6020808252601490820152731d1a5b595bdd5d081a5b9cdd59999a58da595b9d60621b604082015260600190565b6020808252601f908201527f45434453413a20696e76616c6964207369676e6174757265206c656e67746800604082015260600190565b60208082526026908201527f4f776e61626c653a206e6577206f776e657220697320746865207a65726f206160408201526564647265737360d01b606082015260800190565b6020808252601490820152731ad9595c195c881c185e5bdd5d0819985a5b195960621b604082015260600190565b6020808252601b908201527f536166654d6174683a206164646974696f6e206f766572666c6f770000000000604082015260600190565b6020808252602c908201527f737570706c696564206574686572206973206e6f7420657175616c20746f206760408201526b185cc81c995c5d595cdd195960a21b606082015260800190565b6020808252601a908201527f6661696c656420746f207265706179206c6f73742066756e6473000000000000604082015260600190565b6020808252601390820152727365747570207068617365206661696c75726560681b604082015260600190565b60208082526022908201527f45434453413a20696e76616c6964207369676e6174757265202773272076616c604082015261756560f01b606082015260800190565b60208082526024908201527f696e73756666696369656e742066756e647320696e206c6971756964697479206040820152631c1bdbdb60e21b606082015260800190565b6020808252601c908201527f6f6e6c792063616e2062652063616c6c6564206279206b656570657200000000604082015260600190565b6020808252601d908201527f6e6f742061207265676973746572656420626f72726f772070726f7879000000604082015260600190565b60208082526037908201527f6973206e6f742061206c6f616e20726571756573742c20747279207573696e6760408201527f2065786563757465536869667453616e73426f72726f77000000000000000000606082015260800190565b60208082526022908201527f45434453413a20696e76616c6964207369676e6174757265202776272076616c604082015261756560f01b606082015260800190565b60208082526019908201527f437265617465323a204661696c6564206f6e206465706c6f7900000000000000604082015260600190565b6020808252601f908201527f6661696c656420746f2072657475726e20626f6e6420746f206b656570657200604082015260600190565b60208082526021908201527f536166654d6174683a206d756c7469706c69636174696f6e206f766572666c6f6040820152607760f81b606082015260800190565b60208082526024908201527f6c69717569646974792072657175657374207369676e61747572652072656a6560408201526318dd195960e21b606082015260800190565b6020808252818101527f4f776e61626c653a2063616c6c6572206973206e6f7420746865206f776e6572604082015260600190565b60208082526029908201527f696e636f72726563742067617320737570706c696564207769746820676173206040820152681c995c5d595cdd195960ba1b606082015260800190565b602080825260169082015275189bdb99081cdd589b5a5cdcda5bdb8819985a5b195960521b604082015260600190565b6020808252600e908201526d18dc99585d194c8819985a5b195960921b604082015260600190565b60208082526045908201527f63616e2774207a6970206d6f64756c65207265676973746174696f6e733a206d60408201527f6f64756c65732e6c656e67746820213d206d6f64756c6544657461696c732e6c6060820152640cadccee8d60db1b608082015260a00190565b6020808252818101527f6e6f7420612072656769737465726564206c697175696469747920746f6b656e604082015260600190565b60208082526017908201527f6c6f616e207265736f6c7574696f6e206661696c757265000000000000000000604082015260600190565b60208082526021908201527f6661696c656420746f2072657061792074686520676f7665726e696e672044416040820152604f60f81b606082015260800190565b602080825260129082015271626f6e642062656c6f77206d696e696d756d60701b604082015260600190565b6020808252603e908201527f74686520746f6b656e20737570706c696564206973206e6f742061207368696660408201527f74657220746f6b656e202d2d20646563696d616c7320746f6f20686967680000606082015260800190565b6020808252601d908201527f437265617465323a20696e73756666696369656e742062616c616e6365000000604082015260600190565b6020808252601490820152736c6f616e2065786365656473206d6178696d756d60601b604082015260600190565b918252602082015260400190565b8151151581526020808301516001600160a01b0390811691830191909152604080840151821690830152606092830151169181019190915260800190565b6020808252825160e08383015280516001600160a01b039081166101008501528183015116610120840152604081015161014084015260608101516101608401526080810151151561018084015260a0015160c06101a084015280516101c08401819052600092916101e0808601929184019185918186028801015b8183101561428c576101df198882030185526142768185516135e5565b9486019493860193600193909301929050614259565b85890151945061429f604089018661360c565b604089015160e089015280965050505050505092915050565b6000602082528251151560208301526020830151604080840152610f8660608401826135b9565b6040518181016001600160401b03811182821017156142fd57600080fd5b604052919050565b60006001600160401b0382111561431a578081fd5b5060209081020190565b60006001600160401b03821115614339578081fd5b50601f01601f191660200190565b60005b8381101561436257818101518382015260200161434a565b838111156106125750506000910152565b6001600160a01b03811681146105ab57600080fd5b80151581146105ab57600080fd5b6001600160e01b0319811681146105ab57600080fdfe608060405234801561001057600080fd5b5061030a806100206000396000f3fe60806040526004361061001e5760003560e01c80638e03e6cd14610023575b600080fd5b6100366100313660046101d7565b610038565b005b6001600160a01b03811615610103576100de82826001600160a01b03166370a08231306040518263ffffffff1660e01b81526004016100779190610260565b60206040518083038186803b15801561008f57600080fd5b505afa1580156100a3573d6000803e3d6000fd5b505050506040513d601f19601f820116820180604052508101906100c7919061020f565b6001600160a01b038416919063ffffffff61010f16565b6101035760405162461bcd60e51b81526004016100fa9061028d565b60405180910390fd5b816001600160a01b0316ff5b600080846001600160a01b03166101268585610181565b6040516101339190610227565b6000604051808303816000865af19150503d8060008114610170576040519150601f19603f3d011682016040523d82523d6000602084013e610175565b606091505b50909695505050505050565b606063a9059cbb60e01b838360405160240161019e929190610274565b60408051601f198184030181529190526020810180516001600160e01b03166001600160e01b0319909316929092179091529392505050565b600080604083850312156101e9578182fd5b82356101f4816102bc565b91506020830135610204816102bc565b809150509250929050565b600060208284031215610220578081fd5b5051919050565b60008251815b81811015610247576020818601810151858301520161022d565b818111156102555782828501525b509190910192915050565b6001600160a01b0391909116815260200190565b6001600160a01b03929092168252602082015260400190565b602080825260159082015274657263323020666f7277617264206661696c75726560581b604082015260600190565b6001600160a01b03811681146102d157600080fd5b5056fea26469706673582212208eabe80dd2d1248fbe2109b46c39e1d1f7929ab753b0fafedec48c7c6f9cf58e64736f6c634300060a0033a264697066735822122028b1606bd3cf96a36f5c9d8570352ab78dbe944db2f38ce386b8a4d4149b0dff64736f6c634300060a0033",
  "userdoc": {
    "methods": {}
  },
  "devdoc": {
    "methods": {
      "owner()": {
        "details": "Returns the address of the current owner."
      },
      "renounceOwnership()": {
        "details": "Leaves the contract without owner. It will not be possible to call `onlyOwner` functions anymore. Can only be called by the current owner. NOTE: Renouncing ownership will leave the contract without an owner, thereby removing any functionality that is only available to the owner."
      },
      "transferOwnership(address)": {
        "details": "Transfers ownership of the contract to a new account (`newOwner`). Can only be called by the current owner."
      }
    }
  },
  "storageLayout": {
    "storage": [
      {
        "astId": 8108,
        "contract": "contracts/ShifterPool.sol:ShifterPool",
        "label": "_owner",
        "offset": 0,
        "slot": "0",
        "type": "t_address"
      },
      {
        "astId": 13296,
        "contract": "contracts/ShifterPool.sol:ShifterPool",
        "label": "isolate",
        "offset": 0,
        "slot": "1",
        "type": "t_struct(Isolate)14576_storage"
      }
    ],
    "types": {
      "t_address": {
        "encoding": "inplace",
        "label": "address",
        "numberOfBytes": "20"
      },
      "t_bool": {
        "encoding": "inplace",
        "label": "bool",
        "numberOfBytes": "1"
      },
      "t_bytes32": {
        "encoding": "inplace",
        "label": "bytes32",
        "numberOfBytes": "32"
      },
      "t_mapping(t_address,t_address)": {
        "encoding": "mapping",
        "key": "t_address",
        "label": "mapping(address => address)",
        "numberOfBytes": "32",
        "value": "t_address"
      },
      "t_mapping(t_address,t_bool)": {
        "encoding": "mapping",
        "key": "t_address",
        "label": "mapping(address => bool)",
        "numberOfBytes": "32",
        "value": "t_bool"
      },
      "t_mapping(t_address,t_bytes32)": {
        "encoding": "mapping",
        "key": "t_address",
        "label": "mapping(address => bytes32)",
        "numberOfBytes": "32",
        "value": "t_bytes32"
      },
      "t_mapping(t_address,t_uint256)": {
        "encoding": "mapping",
        "key": "t_address",
        "label": "mapping(address => uint256)",
        "numberOfBytes": "32",
        "value": "t_uint256"
      },
      "t_mapping(t_bytes32,t_bool)": {
        "encoding": "mapping",
        "key": "t_bytes32",
        "label": "mapping(bytes32 => bool)",
        "numberOfBytes": "32",
        "value": "t_bool"
      },
      "t_mapping(t_bytes32,t_struct(Module)10434_storage)": {
        "encoding": "mapping",
        "key": "t_bytes32",
        "label": "mapping(bytes32 => struct BorrowProxyLib.Module)",
        "numberOfBytes": "32",
        "value": "t_struct(Module)10434_storage"
      },
      "t_struct(ControllerIsolate)10425_storage": {
        "encoding": "inplace",
        "label": "struct BorrowProxyLib.ControllerIsolate",
        "members": [
          {
            "astId": 10412,
            "contract": "contracts/ShifterPool.sol:ShifterPool",
            "label": "proxyInitializerRecord",
            "offset": 0,
            "slot": "0",
            "type": "t_mapping(t_address,t_bytes32)"
          },
          {
            "astId": 10416,
            "contract": "contracts/ShifterPool.sol:ShifterPool",
            "label": "ownerByProxy",
            "offset": 0,
            "slot": "1",
            "type": "t_mapping(t_address,t_address)"
          },
          {
            "astId": 10420,
            "contract": "contracts/ShifterPool.sol:ShifterPool",
            "label": "tokenByProxy",
            "offset": 0,
            "slot": "2",
            "type": "t_mapping(t_address,t_address)"
          },
          {
            "astId": 10424,
            "contract": "contracts/ShifterPool.sol:ShifterPool",
            "label": "isKeeper",
            "offset": 0,
            "slot": "3",
            "type": "t_mapping(t_address,t_bool)"
          }
        ],
        "numberOfBytes": "128"
      },
      "t_struct(Isolate)14576_storage": {
        "encoding": "inplace",
        "label": "struct ShifterPoolLib.Isolate",
        "members": [
          {
            "astId": 14537,
            "contract": "contracts/ShifterPool.sol:ShifterPool",
            "label": "genesis",
            "offset": 0,
            "slot": "0",
            "type": "t_uint256"
          },
          {
            "astId": 14539,
            "contract": "contracts/ShifterPool.sol:ShifterPool",
            "label": "borrowProxyImplementation",
            "offset": 0,
            "slot": "1",
            "type": "t_address"
          },
          {
            "astId": 14541,
            "contract": "contracts/ShifterPool.sol:ShifterPool",
            "label": "assetForwarderImplementation",
            "offset": 0,
            "slot": "2",
            "type": "t_address"
          },
          {
            "astId": 14543,
            "contract": "contracts/ShifterPool.sol:ShifterPool",
            "label": "shifterRegistry",
            "offset": 0,
            "slot": "3",
            "type": "t_address"
          },
          {
            "astId": 14545,
            "contract": "contracts/ShifterPool.sol:ShifterPool",
            "label": "minTimeout",
            "offset": 0,
            "slot": "4",
            "type": "t_uint256"
          },
          {
            "astId": 14547,
            "contract": "contracts/ShifterPool.sol:ShifterPool",
            "label": "poolFee",
            "offset": 0,
            "slot": "5",
            "type": "t_uint256"
          },
          {
            "astId": 14549,
            "contract": "contracts/ShifterPool.sol:ShifterPool",
            "label": "daoFee",
            "offset": 0,
            "slot": "6",
            "type": "t_uint256"
          },
          {
            "astId": 14551,
            "contract": "contracts/ShifterPool.sol:ShifterPool",
            "label": "maxLoan",
            "offset": 0,
            "slot": "7",
            "type": "t_uint256"
          },
          {
            "astId": 14553,
            "contract": "contracts/ShifterPool.sol:ShifterPool",
            "label": "gasEstimate",
            "offset": 0,
            "slot": "8",
            "type": "t_uint256"
          },
          {
            "astId": 14555,
            "contract": "contracts/ShifterPool.sol:ShifterPool",
            "label": "maxGasPriceForRefund",
            "offset": 0,
            "slot": "9",
            "type": "t_uint256"
          },
          {
            "astId": 14559,
            "contract": "contracts/ShifterPool.sol:ShifterPool",
            "label": "gasReserved",
            "offset": 0,
            "slot": "10",
            "type": "t_mapping(t_address,t_uint256)"
          },
          {
            "astId": 14563,
            "contract": "contracts/ShifterPool.sol:ShifterPool",
            "label": "isKeeper",
            "offset": 0,
            "slot": "11",
            "type": "t_mapping(t_address,t_bool)"
          },
          {
            "astId": 14567,
            "contract": "contracts/ShifterPool.sol:ShifterPool",
            "label": "provisionExecuted",
            "offset": 0,
            "slot": "12",
            "type": "t_mapping(t_bytes32,t_bool)"
          },
          {
            "astId": 14571,
            "contract": "contracts/ShifterPool.sol:ShifterPool",
            "label": "tokenToLiquidityToken",
            "offset": 0,
            "slot": "13",
            "type": "t_mapping(t_address,t_address)"
          },
          {
            "astId": 14573,
            "contract": "contracts/ShifterPool.sol:ShifterPool",
            "label": "borrowProxyController",
            "offset": 0,
            "slot": "14",
            "type": "t_struct(ControllerIsolate)10425_storage"
          },
          {
            "astId": 14575,
            "contract": "contracts/ShifterPool.sol:ShifterPool",
            "label": "registry",
            "offset": 0,
            "slot": "18",
            "type": "t_struct(ModuleRegistry)10808_storage"
          }
        ],
        "numberOfBytes": "608"
      },
      "t_struct(Module)10434_storage": {
        "encoding": "inplace",
        "label": "struct BorrowProxyLib.Module",
        "members": [
          {
            "astId": 10427,
            "contract": "contracts/ShifterPool.sol:ShifterPool",
            "label": "isPrecompiled",
            "offset": 0,
            "slot": "0",
            "type": "t_bool"
          },
          {
            "astId": 10429,
            "contract": "contracts/ShifterPool.sol:ShifterPool",
            "label": "assetSubmodule",
            "offset": 1,
            "slot": "0",
            "type": "t_address"
          },
          {
            "astId": 10431,
            "contract": "contracts/ShifterPool.sol:ShifterPool",
            "label": "liquidationSubmodule",
            "offset": 0,
            "slot": "1",
            "type": "t_address"
          },
          {
            "astId": 10433,
            "contract": "contracts/ShifterPool.sol:ShifterPool",
            "label": "repaymentSubmodule",
            "offset": 0,
            "slot": "2",
            "type": "t_address"
          }
        ],
        "numberOfBytes": "96"
      },
      "t_struct(ModuleRegistry)10808_storage": {
        "encoding": "inplace",
        "label": "struct BorrowProxyLib.ModuleRegistry",
        "members": [
          {
            "astId": 10807,
            "contract": "contracts/ShifterPool.sol:ShifterPool",
            "label": "modules",
            "offset": 0,
            "slot": "0",
            "type": "t_mapping(t_bytes32,t_struct(Module)10434_storage)"
          }
        ],
        "numberOfBytes": "32"
      },
      "t_uint256": {
        "encoding": "inplace",
        "label": "uint256",
        "numberOfBytes": "32"
      }
    }
  }
}