{
  "abi": [
    {
      "inputs": [],
      "stateMutability": "nonpayable",
      "type": "constructor"
    },
    {
      "anonymous": false,
      "inputs": [
        {
          "indexed": true,
          "internalType": "address",
          "name": "previousOwner",
          "type": "address"
        },
        {
          "indexed": true,
          "internalType": "address",
          "name": "newOwner",
          "type": "address"
        }
      ],
      "name": "OwnershipTransferred",
      "type": "event"
    },
    {
      "inputs": [
        {
          "internalType": "bytes",
          "name": "creationCode",
          "type": "bytes"
        },
        {
          "internalType": "bytes",
          "name": "context",
          "type": "bytes"
        }
      ],
      "name": "_executeSafeView",
      "outputs": [],
      "stateMutability": "nonpayable",
      "type": "function"
    },
    {
      "inputs": [
        {
          "internalType": "bytes",
          "name": "consData",
          "type": "bytes"
        }
      ],
      "name": "cloneConstructor",
      "outputs": [],
      "stateMutability": "nonpayable",
      "type": "function"
    },
    {
      "inputs": [
        {
          "internalType": "bytes32",
          "name": "salt",
          "type": "bytes32"
        }
      ],
      "name": "computeProxyAddress",
      "outputs": [
        {
          "internalType": "address",
          "name": "",
          "type": "address"
        }
      ],
      "stateMutability": "view",
      "type": "function"
    },
    {
      "inputs": [
        {
          "internalType": "bytes32",
          "name": "salt",
          "type": "bytes32"
        }
      ],
      "name": "deployAssetForwarderClone",
      "outputs": [
        {
          "internalType": "address",
          "name": "created",
          "type": "address"
        }
      ],
      "stateMutability": "nonpayable",
      "type": "function"
    },
    {
      "inputs": [],
      "name": "deployAssetForwarderImplementation",
      "outputs": [],
      "stateMutability": "nonpayable",
      "type": "function"
    },
    {
      "inputs": [],
      "name": "deployBorrowProxyImplementation",
      "outputs": [],
      "stateMutability": "nonpayable",
      "type": "function"
    },
    {
      "inputs": [
        {
          "components": [
            {
              "components": [
                {
                  "internalType": "address payable",
                  "name": "borrower",
                  "type": "address"
                },
                {
                  "internalType": "address",
                  "name": "token",
                  "type": "address"
                },
                {
                  "internalType": "bytes32",
                  "name": "nonce",
                  "type": "bytes32"
                },
                {
                  "internalType": "uint256",
                  "name": "amount",
                  "type": "uint256"
                },
                {
                  "internalType": "bool",
                  "name": "forbidLoan",
                  "type": "bool"
                },
                {
                  "components": [
                    {
                      "internalType": "address",
                      "name": "to",
                      "type": "address"
                    },
                    {
                      "internalType": "bytes",
                      "name": "txData",
                      "type": "bytes"
                    }
                  ],
                  "internalType": "struct ShifterBorrowProxyLib.InitializationAction[]",
                  "name": "actions",
                  "type": "tuple[]"
                }
              ],
              "internalType": "struct ShifterBorrowProxyLib.LiquidityRequest",
              "name": "request",
              "type": "tuple"
            },
            {
              "internalType": "uint256",
              "name": "gasRequested",
              "type": "uint256"
            },
            {
              "internalType": "bytes",
              "name": "signature",
              "type": "bytes"
            }
          ],
          "internalType": "struct ShifterBorrowProxyLib.LiquidityRequestParcel",
          "name": "liquidityRequestParcel",
          "type": "tuple"
        },
        {
          "internalType": "uint256",
          "name": "bond",
          "type": "uint256"
        },
        {
          "internalType": "uint256",
          "name": "timeoutExpiry",
          "type": "uint256"
        }
      ],
      "name": "executeBorrow",
      "outputs": [],
      "stateMutability": "payable",
      "type": "function"
    },
    {
      "inputs": [
        {
          "components": [
            {
              "components": [
                {
                  "components": [
                    {
                      "internalType": "address payable",
                      "name": "borrower",
                      "type": "address"
                    },
                    {
                      "internalType": "address",
                      "name": "token",
                      "type": "address"
                    },
                    {
                      "internalType": "bytes32",
                      "name": "nonce",
                      "type": "bytes32"
                    },
                    {
                      "internalType": "uint256",
                      "name": "amount",
                      "type": "uint256"
                    },
                    {
                      "internalType": "bool",
                      "name": "forbidLoan",
                      "type": "bool"
                    },
                    {
                      "components": [
                        {
                          "internalType": "address",
                          "name": "to",
                          "type": "address"
                        },
                        {
                          "internalType": "bytes",
                          "name": "txData",
                          "type": "bytes"
                        }
                      ],
                      "internalType": "struct ShifterBorrowProxyLib.InitializationAction[]",
                      "name": "actions",
                      "type": "tuple[]"
                    }
                  ],
                  "internalType": "struct ShifterBorrowProxyLib.LiquidityRequest",
                  "name": "request",
                  "type": "tuple"
                },
                {
                  "internalType": "uint256",
                  "name": "gasRequested",
                  "type": "uint256"
                },
                {
                  "internalType": "bytes",
                  "name": "signature",
                  "type": "bytes"
                }
              ],
              "internalType": "struct ShifterBorrowProxyLib.LiquidityRequestParcel",
              "name": "liquidityRequestParcel",
              "type": "tuple"
            },
            {
              "components": [
                {
                  "internalType": "bytes32",
                  "name": "txhash",
                  "type": "bytes32"
                },
                {
                  "internalType": "uint256",
                  "name": "vout",
                  "type": "uint256"
                },
                {
                  "internalType": "bytes32",
                  "name": "pHash",
                  "type": "bytes32"
                },
                {
                  "internalType": "uint256",
                  "name": "amount",
                  "type": "uint256"
                },
                {
                  "internalType": "bytes",
                  "name": "darknodeSignature",
                  "type": "bytes"
                }
              ],
              "internalType": "struct ShifterBorrowProxyLib.ShiftParameters",
              "name": "shiftParameters",
              "type": "tuple"
            },
            {
              "components": [
                {
                  "internalType": "address",
                  "name": "to",
                  "type": "address"
                },
                {
                  "internalType": "bytes",
                  "name": "txData",
                  "type": "bytes"
                }
              ],
              "internalType": "struct ShifterBorrowProxyLib.InitializationAction[]",
              "name": "actions",
              "type": "tuple[]"
            }
          ],
          "internalType": "struct ShifterBorrowProxyLib.SansBorrowShiftParcel",
          "name": "parcel",
          "type": "tuple"
        }
      ],
      "name": "executeShiftSansBorrow",
      "outputs": [],
      "stateMutability": "payable",
      "type": "function"
    },
    {
      "inputs": [
        {
          "internalType": "address",
          "name": "to",
          "type": "address"
        },
        {
          "internalType": "bytes4",
          "name": "sig",
          "type": "bytes4"
        }
      ],
      "name": "fetchModuleHandler",
      "outputs": [
        {
          "components": [
            {
              "internalType": "bool",
              "name": "isPrecompiled",
              "type": "bool"
            },
            {
              "internalType": "address",
              "name": "assetSubmodule",
              "type": "address"
            },
            {
              "internalType": "address",
              "name": "liquidationSubmodule",
              "type": "address"
            },
            {
              "internalType": "address",
              "name": "repaymentSubmodule",
              "type": "address"
            }
          ],
          "internalType": "struct BorrowProxyLib.Module",
          "name": "",
          "type": "tuple"
        }
      ],
      "stateMutability": "view",
      "type": "function"
    },
    {
      "inputs": [],
      "name": "getAssetForwarderImplementationHandler",
      "outputs": [
        {
          "internalType": "address",
          "name": "implementation",
          "type": "address"
        }
      ],
      "stateMutability": "view",
      "type": "function"
    },
    {
      "inputs": [
        {
          "internalType": "address",
          "name": "token",
          "type": "address"
        }
      ],
      "name": "getLiquidityTokenForTokenHandler",
      "outputs": [
        {
          "internalType": "address",
          "name": "",
          "type": "address"
        }
      ],
      "stateMutability": "view",
      "type": "function"
    },
    {
      "inputs": [
        {
          "internalType": "address",
          "name": "token",
          "type": "address"
        }
      ],
      "name": "getLiquidityTokenHandler",
      "outputs": [
        {
          "internalType": "contract LiquidityToken",
          "name": "",
          "type": "address"
        }
      ],
      "stateMutability": "view",
      "type": "function"
    },
    {
      "inputs": [
        {
          "internalType": "address",
          "name": "user",
          "type": "address"
        }
      ],
      "name": "getProxyOwnerHandler",
      "outputs": [
        {
          "internalType": "address",
          "name": "",
          "type": "address"
        }
      ],
      "stateMutability": "view",
      "type": "function"
    },
    {
      "inputs": [
        {
          "internalType": "address",
          "name": "proxyAddress",
          "type": "address"
        }
      ],
      "name": "getProxyTokenHandler",
      "outputs": [
        {
          "internalType": "address",
          "name": "",
          "type": "address"
        }
      ],
      "stateMutability": "view",
      "type": "function"
    },
    {
      "inputs": [
        {
          "internalType": "address",
          "name": "token",
          "type": "address"
        }
      ],
      "name": "getShifterHandler",
      "outputs": [
        {
          "internalType": "contract IShifter",
          "name": "",
          "type": "address"
        }
      ],
      "stateMutability": "view",
      "type": "function"
    },
    {
      "inputs": [],
      "name": "owner",
      "outputs": [
        {
          "internalType": "address",
          "name": "",
          "type": "address"
        }
      ],
      "stateMutability": "view",
      "type": "function"
    },
    {
      "inputs": [
        {
          "internalType": "bytes",
          "name": "creationCode",
          "type": "bytes"
        },
        {
          "internalType": "bytes",
          "name": "context",
          "type": "bytes"
        }
      ],
      "name": "query",
      "outputs": [
        {
          "components": [
            {
              "internalType": "bool",
              "name": "success",
              "type": "bool"
            },
            {
              "internalType": "bytes",
              "name": "data",
              "type": "bytes"
            }
          ],
          "internalType": "struct SafeViewLib.SafeViewResult",
          "name": "",
          "type": "tuple"
        }
      ],
      "stateMutability": "nonpayable",
      "type": "function"
    },
    {
      "inputs": [
        {
          "internalType": "address",
          "name": "token",
          "type": "address"
        },
        {
          "internalType": "address",
          "name": "liquidityToken",
          "type": "address"
        },
        {
          "internalType": "address",
          "name": "keeper",
          "type": "address"
        },
        {
          "internalType": "uint256",
          "name": "bond",
          "type": "uint256"
        },
        {
          "internalType": "uint256",
          "name": "repay",
          "type": "uint256"
        },
        {
          "internalType": "uint256",
          "name": "originalAmount",
          "type": "uint256"
        }
      ],
      "name": "relayResolveLoan",
      "outputs": [
        {
          "internalType": "bool",
          "name": "",
          "type": "bool"
        }
      ],
      "stateMutability": "nonpayable",
      "type": "function"
    },
    {
      "inputs": [],
      "name": "renounceOwnership",
      "outputs": [],
      "stateMutability": "nonpayable",
      "type": "function"
    },
    {
      "inputs": [
        {
          "internalType": "address",
          "name": "user",
          "type": "address"
        },
        {
          "internalType": "bool",
          "name": "isKeeper",
          "type": "bool"
        }
      ],
      "name": "setKeeper",
      "outputs": [],
      "stateMutability": "nonpayable",
      "type": "function"
    },
    {
      "inputs": [
        {
          "components": [
            {
              "internalType": "address",
              "name": "shifterRegistry",
              "type": "address"
            },
            {
              "internalType": "uint256",
              "name": "minTimeout",
              "type": "uint256"
            },
            {
              "internalType": "uint256",
              "name": "poolFee",
              "type": "uint256"
            },
            {
              "internalType": "uint256",
              "name": "daoFee",
              "type": "uint256"
            },
            {
              "internalType": "uint256",
              "name": "maxLoan",
              "type": "uint256"
            }
          ],
          "internalType": "struct ShifterPoolLib.SetupParams",
          "name": "params",
          "type": "tuple"
        },
        {
          "components": [
            {
              "internalType": "enum BorrowProxyLib.ModuleRegistrationType",
              "name": "moduleType",
              "type": "uint8"
            },
            {
              "internalType": "address",
              "name": "target",
              "type": "address"
            },
            {
              "internalType": "bytes4[]",
              "name": "sigs",
              "type": "bytes4[]"
            }
          ],
          "internalType": "struct BorrowProxyLib.ModuleDetails[]",
          "name": "moduleDetails",
          "type": "tuple[]"
        },
        {
          "components": [
            {
              "internalType": "bool",
              "name": "isPrecompiled",
              "type": "bool"
            },
            {
              "internalType": "address",
              "name": "assetSubmodule",
              "type": "address"
            },
            {
              "internalType": "address",
              "name": "liquidationSubmodule",
              "type": "address"
            },
            {
              "internalType": "address",
              "name": "repaymentSubmodule",
              "type": "address"
            }
          ],
          "internalType": "struct BorrowProxyLib.Module[]",
          "name": "modules",
          "type": "tuple[]"
        },
        {
          "components": [
            {
              "internalType": "address",
              "name": "token",
              "type": "address"
            },
            {
              "internalType": "address",
              "name": "liqToken",
              "type": "address"
            }
          ],
          "internalType": "struct ShifterPoolLib.LiquidityTokenLaunch[]",
          "name": "tokenLaunches",
          "type": "tuple[]"
        }
      ],
      "name": "setup",
      "outputs": [],
      "stateMutability": "nonpayable",
      "type": "function"
    },
    {
      "inputs": [
        {
          "internalType": "address",
          "name": "newOwner",
          "type": "address"
        }
      ],
      "name": "transferOwnership",
      "outputs": [],
      "stateMutability": "nonpayable",
      "type": "function"
    },
    {
      "inputs": [
        {
          "internalType": "bytes",
          "name": "proxyRecord",
          "type": "bytes"
        }
      ],
      "name": "validateProxyRecordHandler",
      "outputs": [
        {
          "internalType": "bool",
          "name": "",
          "type": "bool"
        }
      ],
      "stateMutability": "view",
      "type": "function"
    }
  ],
  "address": "0x8858eeB3DfffA017D4BCE9801D340D36Cf895CCf",
  "args": [],
  "bytecode": "0x60806040523480156200001157600080fd5b506000620000276001600160e01b036200007b16565b600080546001600160a01b0319166001600160a01b0383169081178255604051929350917f8be0079c531659141344cd1fd0a4f28419497f9722a3daafe3b4186f6b6457e0908290a350436001556200007f565b3390565b6144b2806200008f6000396000f3fe6080604052600436106101405760003560e01c8063715018a6116100b6578063d0a80e311161006f578063d0a80e3114610360578063d1b9e85314610380578063dc74245e146103a0578063e6c1f074146103b3578063f2fde38b146103d3578063f7a94ce2146103f357610140565b8063715018a6146102ce578063798aada0146102e35780638da5cb5b1461030357806393e93abe14610318578063abee1fc91461032d578063c2006b621461034057610140565b80634411236011610108578063441123601461021557806352e831dd1461024257806354fd9cd6146102645780635f7d2b571461028457806363091aa3146102a457806365ba837a146102b957610140565b806308f60495146101455780631fbc78dc1461017b5780632593b053146101a857806329658b02146101c857806334686eaf146101e8575b600080fd5b34801561015157600080fd5b50610165610160366004613013565b610413565b6040516101729190613705565b60405180910390f35b34801561018757600080fd5b5061019b610196366004612ed2565b61042d565b60405161017291906135df565b3480156101b457600080fd5b5061019b6101c3366004612ffb565b610440565b3480156101d457600080fd5b5061019b6101e3366004612ed2565b61048d565b3480156101f457600080fd5b50610208610203366004613045565b6104a0565b6040516101729190614067565b34801561022157600080fd5b50610235610230366004612fa6565b6104bf565b6040516101729190613f4d565b34801561024e57600080fd5b5061026261025d366004613013565b6104d9565b005b34801561027057600080fd5b5061019b61027f366004612ffb565b6104dc565b34801561029057600080fd5b5061026261029f366004613045565b6104fb565b3480156102b057600080fd5b50610262610546565b3480156102c557600080fd5b5061019b610599565b3480156102da57600080fd5b506102626105a8565b3480156102ef57600080fd5b5061019b6102fe366004612ed2565b610630565b34801561030f57600080fd5b5061019b610643565b34801561032457600080fd5b50610262610652565b61026261033b3660046131a4565b61067c565b34801561034c57600080fd5b5061026261035b366004613256565b6106b4565b34801561036c57600080fd5b5061019b61037b366004612ed2565b61087d565b34801561038c57600080fd5b5061026261039b366004612f6e565b61089b565b6102626103ae3660046130a5565b6108fb565b3480156103bf57600080fd5b5061019b6103ce366004612ed2565b61098a565b3480156103df57600080fd5b506102626103ee366004612ed2565b61099d565b3480156103ff57600080fd5b5061016561040e366004612f0a565b610a53565b6000610427600c338463ffffffff610c2016565b92915050565b600061042760018363ffffffff610c4616565b600354600090610427906001600160a01b031661045b610cc9565b338560405160200161046f93929190613538565b6040516020818303038152906040528051906020012060001c610ced565b6000610427600c8363ffffffff610d3d16565b6104a8612830565b6104b8838363ffffffff610d6016565b9392505050565b6104c7612848565b6104b86010848463ffffffff610dd916565b50565b600254600090610427906001600160a01b03168363ffffffff610ec716565b6000610510600061050a610ed3565b85610ef7565b905060606105356105306001600160a01b0384168563ffffffff610f6916565b610ff3565b90506105408161101c565b50505050565b61057760017ffe1e3164ba4910db3c9afd049cd8feb4552390569c846692e6df4ac68aeaa90e63ffffffff61102416565b600280546001600160a01b0319166001600160a01b0392909216919091179055565b6003546001600160a01b031690565b6105b061108c565b6000546001600160a01b039081169116146105e65760405162461bcd60e51b81526004016105dd90613c63565b60405180910390fd5b600080546040516001600160a01b03909116907f8be0079c531659141344cd1fd0a4f28419497f9722a3daafe3b4186f6b6457e0908390a3600080546001600160a01b0319169055565b600061042760018363ffffffff61109016565b6000546001600160a01b031690565b61065a6110cc565b600380546001600160a01b0319166001600160a01b0392909216919091179055565b6000606061068983611124565b9150915080516000146106af576106af6001600160a01b0383168263ffffffff61143b16565b505050565b6106bc61108c565b6000546001600160a01b039081169116146106e95760405162461bcd60e51b81526004016105dd90613c63565b825182511461070a5760405162461bcd60e51b81526004016105dd90613d39565b8351600480546001600160a01b0319166001600160a01b03909216919091179055608084015160085560208401516005556040840151600655606084015160075560005b825181101561080a5761075f61286f565b604051806080016040528086848151811061077657fe5b602002602001015160000151600281111561078d57fe5b815260200186848151811061079e57fe5b6020026020010151602001516001600160a01b031681526020018684815181106107c457fe5b60200260200101516040015181526020018584815181106107e157fe5b60209081029190910101519052905061080160108263ffffffff61149d16565b5060010161074e565b5060005b81518110156108765761081f61289d565b82828151811061082b57fe5b6020908102919091018101518082015190516001600160a01b039081166000908152600b909352604090922080546001600160a01b031916929091169190911790555060010161080e565b5050505050565b6001600160a01b039081166000908152600b60205260409020541690565b6108a361108c565b6000546001600160a01b039081169116146108d05760405162461bcd60e51b81526004016105dd90613c63565b6001600160a01b03919091166000908152600960205260409020805460ff1916911515919091179055565b3360009081526009602052604090205460ff1661092a5760405162461bcd60e51b81526004016105dd90613a63565b825160a0015161093984611557565b506000610947858585611639565b85518051602090910151919250610971916001600160a01b0384169190600063ffffffff61182416565b6108766001600160a01b0382168363ffffffff61143b16565b6000610427600c8363ffffffff6118c216565b6109a561108c565b6000546001600160a01b039081169116146109d25760405162461bcd60e51b81526004016105dd90613c63565b6001600160a01b0381166109f85760405162461bcd60e51b81526004016105dd90613882565b600080546040516001600160a01b03808516939216917f8be0079c531659141344cd1fd0a4f28419497f9722a3daafe3b4186f6b6457e091a3600080546001600160a01b0319166001600160a01b0392909216919091179055565b336000908152600c6020526040812054610a7f5760405162461bcd60e51b81526004016105dd90613a9a565b81831015610aa957818484011015610a9e576000939290920191610aa9565b828203840393508192505b8315610ae557610ac96001600160a01b038816868663ffffffff6118e516565b610ae55760405162461bcd60e51b81526004016105dd90613ba7565b8215610b7957600080610afd85600160060154611957565b9092509050610b1c6001600160a01b038a16898463ffffffff6118e516565b610b385760405162461bcd60e51b81526004016105dd90613979565b610b5a610b43610643565b6001600160a01b038b16908363ffffffff6118e516565b610b765760405162461bcd60e51b81526004016105dd90613e10565b50505b60405163c3275c7960e01b81526001600160a01b0387169063c3275c7990610ba59033906004016135df565b602060405180830381600087803b158015610bbf57600080fd5b505af1158015610bd3573d6000803e3d6000fd5b505050506040513d601f19601f82011682018060405250810190610bf79190612fdf565b610c135760405162461bcd60e51b81526004016105dd90613dd9565b5060019695505050505050565b80516020918201206001600160a01b039290921660009081529290526040909120541490565b6003820154604051631b95e30560e01b81526000916001600160a01b031690631b95e30590610c799085906004016135df565b60206040518083038186803b158015610c9157600080fd5b505afa158015610ca5573d6000803e3d6000fd5b505050506040513d601f19601f820116820180604052508101906104b89190612eee565b7f6b6f6b75258f8f4cdb6ef275682bc2be3e8b970e5e4417113bd1ea53622d907e90565b60006060610cfa846119a0565b80519091508390602083018282826000f5945050506001600160a01b038316610d355760405162461bcd60e51b81526004016105dd90613d11565b505092915050565b6001600160a01b0380821660009081526002840160205260409020541692915050565b610d68612830565b606030610d7585856119ac565b604051610d829190613589565b6000604051808303816000865af19150503d8060008114610dbf576040519150601f19603f3d011682016040523d82523d6000602084013e610dc4565b606091505b50915050610dd181611a02565b949350505050565b610de1612848565b610de9612848565b846000610df68686611a1e565b815260208082019290925260409081016000208151608081018352815460ff8116151582526001600160a01b0361010090910481169482019490945260018201548416928101929092526002015490911660608201529050610e5781611a46565b610dd157846000610e688686611a58565b815260208082019290925260409081016000208151608081018352815460ff81161515825261010090046001600160a01b0390811694820194909452600182015484169281019290925260020154909116606082015295945050505050565b60006104b88383611a73565b7fad53495153c7c363e98a26920ec679e0e687636458f6908c91cf6deadb19080190565b60008084471015610f1a5760405162461bcd60e51b81526004016105dd90613eda565b8251610f385760405162461bcd60e51b81526004016105dd906137e8565b8383516020850187f590506001600160a01b038116610dd15760405162461bcd60e51b81526004016105dd90613b70565b610f71612830565b60006060846001600160a01b0316610f8885611a8e565b604051610f959190613589565b600060405180830381855af49150503d8060008114610fd0576040519150601f19603f3d011682016040523d82523d6000602084013e610fd5565b606091505b50604080518082019091529115158252602082015295945050505050565b6060816040516020016110069190614067565b6040516020818303038152906040529050919050565b805160208201fd5b60405163dd678a0760e01b815260009073__$63bcb1a864e5f3c83b35ceb0ce459b5367$__9063dd678a07906110609086908690600401613f3f565b60206040518083038186803b15801561107857600080fd5b505af4158015610ca5573d6000803e3d6000fd5b3390565b6001600160a01b038082166000908152600a84016020526040812054909116806104b85760405162461bcd60e51b81526004016105dd90613da4565b600061111f60007f6b6f6b75258f8f4cdb6ef275682bc2be3e8b970e5e4417113bd1ea53622d907e60001b60405180602001611107906128b4565b601f1982820381018352601f90910116604052610ef7565b905090565b600060606111306128c1565b6040805160a08101825285515181830190815282518084019093523383528651516060908101519293849391840191602082019061117790600190600a81046103e8611ae1565b905281528751516060908101516020928301529183526040805160a08101825289830180515182528051840151828501528051830151928201929092528151840151938101939093525160809081015190830152919091015284519091506111f0906111e290611bd5565b85519063ffffffff611bee16565b61120c5760405162461bcd60e51b81526004016105dd90613c1f565b83515160009061121b90611c1f565b60025490915061123a906001600160a01b03168263ffffffff610ec716565b935061124e846001600160a01b0316611c2a565b1561126b5760405162461bcd60e51b81526004016105dd906137a6565b6112a084600160405160200161128191906135d6565b60408051601f19818403018152919052600c919063ffffffff611c3016565b60208501516060015182516000916112be919063ffffffff611c5316565b90506112c982611c80565b5085515180516020909101516112f1916001600160a01b03881691600163ffffffff61182416565b855151516001600160a01b03163314801590611311575085516020015134145b156113cb57855151516040516001600160a01b03909116903480156108fc02916000818181858888f19350505050158015611350573d6000803e3d6000fd5b50855151602001516113809086906113709060019063ffffffff610c4616565b8861137a87611c99565b85611ca4565b855151602001516113a1906001600160a01b0316338363ffffffff6118e516565b6113bd5760405162461bcd60e51b81526004016105dd906138c8565b85515160a001519350611433565b855151516001600160a01b031633141561141b578551516020015161140f9086906113fe9060019063ffffffff610c4616565b8861140887611c99565b6000611ca4565b85604001519350611433565b60405162461bcd60e51b81526004016105dd90613c98565b505050915091565b604051630bfceb2b60e31b81526001600160a01b03831690635fe75958906114679084906004016136a5565b600060405180830381600087803b15801561148157600080fd5b505af1158015611495573d6000803e3d6000fd5b505050505050565b6001815160028111156114ac57fe5b14156114fb5760005b8160400151518110156114f5576114ed838360200151846040015184815181106114db57fe5b60200260200101518560600151611d46565b6001016114b5565b50611553565b60028151600281111561150a57fe5b14156115535760005b8160400151518110156106af5761154b8383602001518460400151848151811061153957fe5b60200260200101518560600151611dd0565b600101611513565b5050565b6000808260000151602001516001600160a01b031663313ce5676040518163ffffffff1660e01b815260040160206040518083038186803b15801561159b57600080fd5b505afa1580156115af573d6000803e3d6000fd5b505050506040513d601f19601f820116820180604052508101906115d3919061336b565b905060128160ff1611156115f95760405162461bcd60e51b81526004016105dd90613e7d565b60085483516060015160ff8316601203600a0a908161161457fe5b0411156116335760405162461bcd60e51b81526004016105dd90613f11565b50919050565b8251608001516000901561165f5760405162461bcd60e51b81526004016105dd90613ad1565b348460200151146116825760405162461bcd60e51b81526004016105dd9061392d565b61169b61168e85611bd5565b859063ffffffff611bee16565b6116b75760405162461bcd60e51b81526004016105dd90613c1f565b6116bf6128e1565b50835160006116cd82611c1f565b60408051600080825260208201909252919250611700565b6116ed612830565b8152602001906001900390816116e55790505b5060a083015261170e612918565b60405180606001604052808481526020016040518060400160405280336001600160a01b0316815260200161175587606001518b8b6001611ae1909392919063ffffffff16565b81525081526020016117a16188b861179561177e88602001516001610c4690919063ffffffff16565b602089015160608a0151919063ffffffff611dde16565b9063ffffffff611e2f16565b905290506117ae82611c80565b93506117bc60018583611e71565b6117de8360200151856117ce84611f10565b600192919063ffffffff611f4716565b60208301516117fe906001600160a01b031633308963ffffffff611fec16565b61181a5760405162461bcd60e51b81526004016105dd90613ce1565b5050509392505050565b6040516329c8702d60e01b81526001600160a01b038516906329c8702d906118549086908690869060040161360c565b602060405180830381600087803b15801561186e57600080fd5b505af1158015611882573d6000803e3d6000fd5b505050506040513d601f19601f820116820180604052508101906118a69190612fdf565b6105405760405162461bcd60e51b81526004016105dd906139b0565b6001600160a01b0380821660009081526001840160205260409020541692915050565b600080846001600160a01b03166118fc8585612060565b6040516119099190613589565b6000604051808303816000865af19150503d8060008114611946576040519150601f19603f3d011682016040523d82523d6000602084013e61194b565b606091505b50909695505050505050565b600080611982670de0b6b3a7640000611976868663ffffffff61207d16565b9063ffffffff6120b716565b905083811015611996578084039150611999565b50825b9250929050565b606061042730836120f9565b6060635f7d2b5760e01b83836040516024016119c9929190613741565b60408051601f198184030181529190526020810180516001600160e01b03166001600160e01b0319909316929092179091529392505050565b611a0a612830565b8180602001905181019061042791906130f0565b600080611a2a84612258565b9050611a36818461225c565b8051906020012091505092915050565b602001516001600160a01b0316151590565b6000611a648383612288565b80519060200120905092915050565b60006104b882611a82856119a0565b8051906020012061229d565b60606309c5eabe60e01b82604051602401611aa9919061372e565b60408051601f198184030181529190526020810180516001600160e01b03166001600160e01b03199093169290921790915292915050565b611ae9612945565b8460040154821015611b0d5760405162461bcd60e51b81526004016105dd9061381d565b6000611b28670de0b6b3a7640000606463ffffffff6120b716565b9050611b43670de0b6b3a7640000606463ffffffff6120b716565b611b5f8661197687670de0b6b3a764000063ffffffff61207d16565b11611b7c5760405162461bcd60e51b81526004016105dd90613e51565b6000848610611b9e57611b9986611976848863ffffffff61207d16565b611ba0565b815b905060405180608001604052808543018152602001868152602001886005015481526020018281525092505050949350505050565b6000611be0826122aa565b805190602001209050919050565b6000611c06611bfc836122ca565b84604001516122fa565b8351516001600160a01b03908116911614905092915050565b6000611be082612428565b3b151590565b80516020918201206001600160a01b039092166000908152929052604090912055565b60006104b8670de0b6b3a7640000611976856020015160200151606001518561207d90919063ffffffff16565b600254600090610427906001600160a01b031683610ced565b6000611be082612444565b8251516020908101519084015160408082015160608301516080909301519151637bf1bc5b60e11b81526001600160a01b038a169463f7e378b694611cf4948b9492938a91908a90600401613630565b602060405180830381600087803b158015611d0e57600080fd5b505af1158015611d22573d6000803e3d6000fd5b505050506040513d601f19601f820116820180604052508101906114959190612fdf565b80846000611d548686611a1e565b81526020808201929092526040908101600020835181549385015160ff1990941690151517610100600160a81b0319166101006001600160a01b0394851602178155908301516001820180546001600160a01b031990811692851692909217905560609093015160029091018054909316911617905550505050565b80846000611d548686611a58565b600080611dea8461246b565b90506000611df884876124e8565b90506000611e12612710611976848663ffffffff61207d16565b9050611e24828263ffffffff611e2f16565b979650505050505050565b60006104b883836040518060400160405280601e81526020017f536166654d6174683a207375627472616374696f6e206f766572666c6f770000815250612569565b6060611e7c82612595565b825160200151909150611e9b90600b860190859063ffffffff6125a816565b815151611eb490600b860190859063ffffffff6125dc16565b8151516040516001600160a01b03909116903480156108fc02916000818181858888f19350505050158015611eed573d6000803e3d6000fd5b50611f02600b8501848363ffffffff611c3016565b815151610540908483612610565b6000610427611f36611f2184612660565b611f2a85612691565b9063ffffffff6126c216565b60408401519063ffffffff611e2f16565b611f518484611090565b6001600160a01b031663185cc75183836040518363ffffffff1660e01b8152600401611f7e9291906135f3565b602060405180830381600087803b158015611f9857600080fd5b505af1158015611fac573d6000803e3d6000fd5b505050506040513d601f19601f82011682018060405250810190611fd09190612fdf565b6105405760405162461bcd60e51b81526004016105dd90613a1f565b600080856001600160a01b03166120048686866126e7565b6040516120119190613589565b6000604051808303816000865af19150503d806000811461204e576040519150601f19603f3d011682016040523d82523d6000602084013e612053565b606091505b5090979650505050505050565b606063a9059cbb60e01b83836040516024016119c99291906135f3565b60008261208c57506000610427565b8282028284828161209957fe5b04146104b85760405162461bcd60e51b81526004016105dd90613bde565b60006104b883836040518060400160405280601a81526020017f536166654d6174683a206469766973696f6e206279207a65726f000000000000815250612740565b604080516000815260208101909152606090819061211a906044810161372e565b60408051601f198184030181529190526020810180516001600160e01b03166352e831dd60e01b17905280519091506063016001600160401b038111801561216157600080fd5b506040519080825280601f01601f19166020018201604052801561218c576020820181803683370190505b507f3d3d606380380380913d393d73bebebebebebebebebebebebebebebebebebebe6020820152600160601b858102602d8301527f5af4602a57600080fd5b602d8060366000396000f3363d3d373d3d3d363d73be6041830152840260608201526e5af43d82803e903d91602b57fd5bf360881b6074820152915060005b8151811015610d355781818151811061221f57fe5b602001015160f81c60f81b83826063018151811061223957fe5b60200101906001600160f81b031916908160001a90535060010161220a565b3f90565b60608282604051602001612271929190613571565b604051602081830303815290604052905092915050565b606082826040516020016122719291906134dd565b60006104b8838330612777565b6060806122be836000015160a001516127b6565b90506104b883826127c9565b6000816040516020016122dd91906135a5565b604051602081830303815290604052805190602001209050919050565b6000815160411461231d5760405162461bcd60e51b81526004016105dd9061384b565b60208201516040830151606084015160001a7f7fffffffffffffffffffffffffffffff5d576e7357a4501ddfe92f46681b20a082111561236f5760405162461bcd60e51b81526004016105dd906139dd565b8060ff16601b1415801561238757508060ff16601c14155b156123a45760405162461bcd60e51b81526004016105dd90613b2e565b6000600187838686604051600081526020016040526040516123c99493929190613710565b6020604051602081039080840390855afa1580156123eb573d6000803e3d6000fd5b5050604051601f1901519150506001600160a01b03811661241e5760405162461bcd60e51b81526004016105dd9061376f565b9695505050505050565b6060806124388360a001516127b6565b90506104b883826127ff565b8051516040908101516020808401518051908201519351606094611006949390910161355b565b6000816001600160a01b03166313966db56040518163ffffffff1660e01b815260040160206040518083038186803b1580156124a657600080fd5b505afa1580156124ba573d6000803e3d6000fd5b505050506040513d601f19601f820116820180604052508101906124de9190613331565b61ffff1692915050565b6040516350b9d97b60e11b81526000906001600160a01b0384169063a173b2f6906125179085906004016135d6565b602060405180830381600087803b15801561253157600080fd5b505af1158015612545573d6000803e3d6000fd5b505050506040513d601f19601f820116820180604052508101906104b89190613353565b6000818484111561258d5760405162461bcd60e51b81526004016105dd919061372e565b505050900390565b6060816040516020016110069190613f8b565b6001600160a01b039182166000908152600290930160205260409092208054919092166001600160a01b0319909116179055565b6001600160a01b039182166000908152600190930160205260409092208054919092166001600160a01b0319909116179055565b816001600160a01b0316836001600160a01b03167f9ae84ac2ad8f721c2e62d211eca0ae34951726f8834913af6c5ebb81610bb1f883604051612653919061372e565b60405180910390a3505050565b6000610427670de0b6b3a764000061197684602001516020015160600151856040015161207d90919063ffffffff16565b6000610427670de0b6b3a764000061197684602001516020015160400151856040015161207d90919063ffffffff16565b6000828201838110156104b85760405162461bcd60e51b81526004016105dd906138f6565b60606323b872dd60e01b84848460405160240161270693929190613681565b60408051601f198184030181529190526020810180516001600160e01b03166001600160e01b031990931692909217909152949350505050565b600081836127615760405162461bcd60e51b81526004016105dd919061372e565b50600083858161276d57fe5b0495945050505050565b60008060ff60f81b8386866040516020016127959493929190613504565b60408051808303601f19018152919052805160209091012095945050505050565b60608160405160200161100691906136a5565b815160208082015160408084015160608581015185890151608090970151935191966122719630969592939192918a9101613476565b6060826000015183602001518460400151856060015186608001518660405160200161227196959493929190613416565b60408051808201909152600081526060602082015290565b60408051608081018252600080825260208201819052918101829052606081019190915290565b604080516080810190915280600081526000602082015260606040820181905201612898612848565b905290565b604080518082019091526000808252602082015290565b61032a8061415383390190565b60405180604001604052806128d4612918565b815260200161289861296d565b6040805160c0810182526000808252602082018190529181018290526060808201839052608082019290925260a081019190915290565b604051806060016040528061292b6128e1565b81526020016129386129a2565b8152602001600081525090565b6040518060800160405280600081526020016000815260200160008152602001600081525090565b6040518060a0016040528060008019168152602001600081526020016000801916815260200160008152602001606081525090565b604051806040016040528060006001600160a01b03168152602001612898612945565b803561042781614122565b600082601f8301126129e0578081fd5b81356129f36129ee826140b4565b61408e565b818152915060208083019084810160005b84811015612a7c5781358701604080601f19838c03011215612a2557600080fd5b612a2e8161408e565b85830135612a3b81614122565b8152828201356001600160401b03811115612a5557600080fd5b612a638c8883870101612d1e565b8288015250865250509282019290820190600101612a04565b505050505092915050565b600082601f830112612a97578081fd5b8135612aa56129ee826140b4565b8181529150602080830190848101604080850287018301881015612ac857600080fd5b6000805b86811015612b1b5782848b031215612ae2578182fd5b612aeb8361408e565b8435612af681614122565b815284860135612b0581614122565b8187015286529484019492820192600101612acc565b5050505050505092915050565b600082601f830112612b38578081fd5b8135612b466129ee826140b4565b818152915060208083019084810160005b84811015612a7c5781358701606080601f19838c03011215612b7857600080fd5b612b818161408e565b85830135612b8e81614145565b8152604083810135612b9f81614122565b82880152838301356001600160401b03811115612bbb57600080fd5b84019250603f83018c13612bce57600080fd5b868301359350612be06129ee856140b4565b84815287810190848301898702860184018f1015612bfd57600080fd5b600095505b86861015612c2857612c148f82612d06565b835260019590950194918901918901612c02565b509183019190915250865250509282019290820190600101612b57565b600082601f830112612c55578081fd5b8135612c636129ee826140b4565b8181529150602080830190848101608080850287018301881015612c8657600080fd5b6000805b86811015612b1b5782848b031215612ca0578182fd5b612ca98361408e565b612cb38b86612cfb565b8152612cc18b8787016129c5565b868201526040612cd38c8288016129c5565b908201526060612ce58c8783016129c5565b9082015286529484019492820192600101612c8a565b803561042781614137565b80356001600160e01b03198116811461042757600080fd5b600082601f830112612d2e578081fd5b8135612d3c6129ee826140d3565b9150808252836020828501011115612d5357600080fd5b8060208401602084013760009082016020015292915050565b600060608284031215612d7d578081fd5b612d87606061408e565b905081356001600160401b0380821115612da057600080fd5b81840160c08187031215612db357600080fd5b612dbd60c061408e565b9250612dc986826129c5565b8352612dd886602083016129c5565b60208401526040810135604084015260608101356060840152612dfe8660808301612cfb565b608084015260a081013582811115612e1557600080fd5b612e21878284016129d0565b60a08501525050818352602084013560208401526040840135915080821115612e4957600080fd5b50612e5684828501612d1e565b60408301525092915050565b600060a08284031215612e73578081fd5b612e7d60a061408e565b90508135815260208201356020820152604082013560408201526060820135606082015260808201356001600160401b03811115612eba57600080fd5b612ec684828501612d1e565b60808301525092915050565b600060208284031215612ee3578081fd5b81356104b881614122565b600060208284031215612eff578081fd5b81516104b881614122565b60008060008060008060c08789031215612f22578182fd5b8635612f2d81614122565b95506020870135612f3d81614122565b94506040870135612f4d81614122565b959894975094956060810135955060808101359460a0909101359350915050565b60008060408385031215612f80578182fd5b8235612f8b81614122565b91506020830135612f9b81614137565b809150509250929050565b60008060408385031215612fb8578182fd5b8235612fc381614122565b915060208301356001600160e01b031981168114612f9b578182fd5b600060208284031215612ff0578081fd5b81516104b881614137565b60006020828403121561300c578081fd5b5035919050565b600060208284031215613024578081fd5b81356001600160401b03811115613039578182fd5b610dd184828501612d1e565b60008060408385031215613057578182fd5b82356001600160401b038082111561306d578384fd5b61307986838701612d1e565b9350602085013591508082111561308e578283fd5b5061309b85828601612d1e565b9150509250929050565b6000806000606084860312156130b9578081fd5b83356001600160401b038111156130ce578182fd5b6130da86828701612d6c565b9660208601359650604090950135949350505050565b60006020808385031215613102578182fd5b82516001600160401b0380821115613118578384fd5b8185016040818803121561312a578485fd5b613134604061408e565b9250805161314181614137565b83528084015182811115613153578586fd5b019050601f81018613613164578384fd5b80516131726129ee826140d3565b8181528785838501011115613185578586fd5b613194828683018786016140f6565b9383019390935250949350505050565b6000602082840312156131b5578081fd5b81356001600160401b03808211156131cb578283fd5b818401606081870312156131dd578384fd5b6131e7606061408e565b92508035828111156131f7578485fd5b61320387828401612d6c565b845250602081013582811115613217578485fd5b61322387828401612e62565b60208501525060408101358281111561323a578485fd5b613246878284016129d0565b6040850152509195945050505050565b60008060008084860361010081121561326d578283fd5b60a081121561327a578283fd5b5061328560a061408e565b61328f87876129c5565b8152602086013560208201526040860135604082015260608601356060820152608086013560808201528094505060a08501356001600160401b03808211156132d6578384fd5b6132e288838901612b28565b945060c08701359150808211156132f7578384fd5b61330388838901612c45565b935060e0870135915080821115613318578283fd5b5061332587828801612a87565b91505092959194509250565b600060208284031215613342578081fd5b815161ffff811681146104b8578182fd5b600060208284031215613364578081fd5b5051919050565b60006020828403121561337c578081fd5b815160ff811681146104b8578182fd5b600060018060a01b038251168352602082015160406020850152610dd160408501825b600081518084526133c78160208601602086016140f6565b601f01601f19169290920160200192915050565b60018060a01b038151168252602081015180516020840152602081015160408401526040810151606084015260608101516080840152505050565b60006bffffffffffffffffffffffff19808960601b168352808860601b1660148401525085602883015284604883015283151560f81b606883015282516134648160698501602087016140f6565b91909101606901979650505050505050565b60006bffffffffffffffffffffffff19808a60601b168352808960601b1660148401525086602883015285604883015284606883015283151560f81b608883015282516134ca8160898501602087016140f6565b9190910160890198975050505050505050565b60609290921b6001600160601b03191682526001600160e01b031916601482015260180190565b6001600160f81b031994909416845260609290921b6001600160601b03191660018401526015830152603582015260550190565b92835260609190911b6001600160601b0319166020830152603482015260540190565b9283526020830191909152604082015260600190565b9182526001600160e01b031916602082015260240190565b6000825161359b8184602087016140f6565b9190910192915050565b7f19457468657265756d205369676e6564204d6573736167653a0a3332000000008152601c810191909152603c0190565b90815260200190565b6001600160a01b0391909116815260200190565b6001600160a01b03929092168252602082015260400190565b6001600160a01b039384168152919092166020820152901515604082015260600190565b600060018060a01b03808a16835280891660208401525086604083015285606083015284608083015260e060a083015261366d60e08301856133af565b90508260c083015298975050505050505050565b6001600160a01b039384168152919092166020820152604081019190915260600190565b6000602080830181845280855180835260408601915060408482028701019250838701855b828110156136f857603f198886030184526136e685835161338c565b945092850192908501906001016136ca565b5092979650505050505050565b901515815260200190565b93845260ff9290921660208401526040830152606082015260800190565b6000602082526104b860208301846133af565b60006040825261375460408301856133af565b828103602084015261376681856133af565b95945050505050565b60208082526018908201527f45434453413a20696e76616c6964207369676e61747572650000000000000000604082015260600190565b60208082526022908201527f70726f78792068617320616c7265616479206265656e20696e697469616c697a604082015261195960f21b606082015260800190565b6020808252818101527f437265617465323a2062797465636f6465206c656e677468206973207a65726f604082015260600190565b6020808252601490820152731d1a5b595bdd5d081a5b9cdd59999a58da595b9d60621b604082015260600190565b6020808252601f908201527f45434453413a20696e76616c6964207369676e6174757265206c656e67746800604082015260600190565b60208082526026908201527f4f776e61626c653a206e6577206f776e657220697320746865207a65726f206160408201526564647265737360d01b606082015260800190565b6020808252601490820152731ad9595c195c881c185e5bdd5d0819985a5b195960621b604082015260600190565b6020808252601b908201527f536166654d6174683a206164646974696f6e206f766572666c6f770000000000604082015260600190565b6020808252602c908201527f737570706c696564206574686572206973206e6f7420657175616c20746f206760408201526b185cc81c995c5d595cdd195960a21b606082015260800190565b6020808252601a908201527f6661696c656420746f207265706179206c6f73742066756e6473000000000000604082015260600190565b6020808252601390820152727365747570207068617365206661696c75726560681b604082015260600190565b60208082526022908201527f45434453413a20696e76616c6964207369676e6174757265202773272076616c604082015261756560f01b606082015260800190565b60208082526024908201527f696e73756666696369656e742066756e647320696e206c6971756964697479206040820152631c1bdbdb60e21b606082015260800190565b6020808252601c908201527f6f6e6c792063616e2062652063616c6c6564206279206b656570657200000000604082015260600190565b6020808252601d908201527f6e6f742061207265676973746572656420626f72726f772070726f7879000000604082015260600190565b60208082526037908201527f6973206e6f742061206c6f616e20726571756573742c20747279207573696e6760408201527f2065786563757465536869667453616e73426f72726f77000000000000000000606082015260800190565b60208082526022908201527f45434453413a20696e76616c6964207369676e6174757265202776272076616c604082015261756560f01b606082015260800190565b60208082526019908201527f437265617465323a204661696c6564206f6e206465706c6f7900000000000000604082015260600190565b6020808252601f908201527f6661696c656420746f2072657475726e20626f6e6420746f206b656570657200604082015260600190565b60208082526021908201527f536166654d6174683a206d756c7469706c69636174696f6e206f766572666c6f6040820152607760f81b606082015260800190565b60208082526024908201527f6c69717569646974792072657175657374207369676e61747572652072656a6560408201526318dd195960e21b606082015260800190565b6020808252818101527f4f776e61626c653a2063616c6c6572206973206e6f7420746865206f776e6572604082015260600190565b60208082526029908201527f696e636f72726563742067617320737570706c696564207769746820676173206040820152681c995c5d595cdd195960ba1b606082015260800190565b602080825260169082015275189bdb99081cdd589b5a5cdcda5bdb8819985a5b195960521b604082015260600190565b6020808252600e908201526d18dc99585d194c8819985a5b195960921b604082015260600190565b60208082526045908201527f63616e2774207a6970206d6f64756c65207265676973746174696f6e733a206d60408201527f6f64756c65732e6c656e67746820213d206d6f64756c6544657461696c732e6c6060820152640cadccee8d60db1b608082015260a00190565b6020808252818101527f6e6f7420612072656769737465726564206c697175696469747920746f6b656e604082015260600190565b60208082526017908201527f6c6f616e207265736f6c7574696f6e206661696c757265000000000000000000604082015260600190565b60208082526021908201527f6661696c656420746f2072657061792074686520676f7665726e696e672044416040820152604f60f81b606082015260800190565b602080825260129082015271626f6e642062656c6f77206d696e696d756d60701b604082015260600190565b6020808252603e908201527f74686520746f6b656e20737570706c696564206973206e6f742061207368696660408201527f74657220746f6b656e202d2d20646563696d616c7320746f6f20686967680000606082015260800190565b6020808252601d908201527f437265617465323a20696e73756666696369656e742062616c616e6365000000604082015260600190565b6020808252601490820152736c6f616e2065786365656473206d6178696d756d60601b604082015260600190565b918252602082015260400190565b8151151581526020808301516001600160a01b0390811691830191909152604080840151821690830152606092830151169181019190915260800190565b6020808252825160e08383015280516001600160a01b039081166101008501528183015116610120840152604081015161014084015260608101516101608401526080810151151561018084015260a0015160c06101a08401528051600092916101c0850191829190613ffe81846135d6565b9350839250859181860284019086015b8284101561403a57848203865261402682825161338c565b95870195600194909401939150860161400e565b5085890151945061404e60408901866133db565b604089015160e089015280965050505050505092915050565b6000602082528251151560208301526020830151604080840152610dd160608401826133af565b6040518181016001600160401b03811182821017156140ac57600080fd5b604052919050565b60006001600160401b038211156140c9578081fd5b5060209081020190565b60006001600160401b038211156140e8578081fd5b50601f01601f191660200190565b60005b838110156141115781810151838201526020016140f9565b838111156105405750506000910152565b6001600160a01b03811681146104d957600080fd5b80151581146104d957600080fd5b600381106104d957600080fdfe608060405234801561001057600080fd5b5061030a806100206000396000f3fe60806040526004361061001e5760003560e01c80638e03e6cd14610023575b600080fd5b6100366100313660046101d7565b610038565b005b6001600160a01b03811615610103576100de82826001600160a01b03166370a08231306040518263ffffffff1660e01b81526004016100779190610260565b60206040518083038186803b15801561008f57600080fd5b505afa1580156100a3573d6000803e3d6000fd5b505050506040513d601f19601f820116820180604052508101906100c7919061020f565b6001600160a01b038416919063ffffffff61010f16565b6101035760405162461bcd60e51b81526004016100fa9061028d565b60405180910390fd5b816001600160a01b0316ff5b600080846001600160a01b03166101268585610181565b6040516101339190610227565b6000604051808303816000865af19150503d8060008114610170576040519150601f19603f3d011682016040523d82523d6000602084013e610175565b606091505b50909695505050505050565b606063a9059cbb60e01b838360405160240161019e929190610274565b60408051601f198184030181529190526020810180516001600160e01b03166001600160e01b0319909316929092179091529392505050565b600080604083850312156101e9578182fd5b82356101f4816102bc565b91506020830135610204816102bc565b809150509250929050565b600060208284031215610220578081fd5b5051919050565b60008251815b81811015610247576020818601810151858301520161022d565b818111156102555782828501525b509190910192915050565b6001600160a01b0391909116815260200190565b6001600160a01b03929092168252602082015260400190565b602080825260159082015274657263323020666f7277617264206661696c75726560581b604082015260600190565b6001600160a01b03811681146102d157600080fd5b5056fea26469706673582212208eabe80dd2d1248fbe2109b46c39e1d1f7929ab753b0fafedec48c7c6f9cf58e64736f6c634300060a0033a2646970667358221220bfb9cf6a3ab5b8c229d37f416d1a3c933a3ec48548eb61fa7456eed255d9d5be64736f6c634300060a0033",
  "userdoc": {
    "methods": {}
  },
  "devdoc": {
    "methods": {
      "owner()": {
        "details": "Returns the address of the current owner."
      },
      "renounceOwnership()": {
        "details": "Leaves the contract without owner. It will not be possible to call `onlyOwner` functions anymore. Can only be called by the current owner. NOTE: Renouncing ownership will leave the contract without an owner, thereby removing any functionality that is only available to the owner."
      },
      "transferOwnership(address)": {
        "details": "Transfers ownership of the contract to a new account (`newOwner`). Can only be called by the current owner."
      }
    }
  },
  "storageLayout": {
    "storage": [
      {
        "astId": 9994,
        "contract": "contracts/ShifterPool.sol:ShifterPool",
        "label": "_owner",
        "offset": 0,
        "slot": "0",
        "type": "t_address"
      },
      {
        "astId": 14933,
        "contract": "contracts/ShifterPool.sol:ShifterPool",
        "label": "isolate",
        "offset": 0,
        "slot": "1",
        "type": "t_struct(Isolate)16056_storage"
      }
    ],
    "types": {
      "t_address": {
        "encoding": "inplace",
        "label": "address",
        "numberOfBytes": "20"
      },
      "t_bool": {
        "encoding": "inplace",
        "label": "bool",
        "numberOfBytes": "1"
      },
      "t_bytes32": {
        "encoding": "inplace",
        "label": "bytes32",
        "numberOfBytes": "32"
      },
      "t_mapping(t_address,t_address)": {
        "encoding": "mapping",
        "key": "t_address",
        "label": "mapping(address => address)",
        "numberOfBytes": "32",
        "value": "t_address"
      },
      "t_mapping(t_address,t_bool)": {
        "encoding": "mapping",
        "key": "t_address",
        "label": "mapping(address => bool)",
        "numberOfBytes": "32",
        "value": "t_bool"
      },
      "t_mapping(t_address,t_bytes32)": {
        "encoding": "mapping",
        "key": "t_address",
        "label": "mapping(address => bytes32)",
        "numberOfBytes": "32",
        "value": "t_bytes32"
      },
      "t_mapping(t_bytes32,t_bool)": {
        "encoding": "mapping",
        "key": "t_bytes32",
        "label": "mapping(bytes32 => bool)",
        "numberOfBytes": "32",
        "value": "t_bool"
      },
      "t_mapping(t_bytes32,t_struct(Module)12247_storage)": {
        "encoding": "mapping",
        "key": "t_bytes32",
        "label": "mapping(bytes32 => struct BorrowProxyLib.Module)",
        "numberOfBytes": "32",
        "value": "t_struct(Module)12247_storage"
      },
      "t_struct(ControllerIsolate)12238_storage": {
        "encoding": "inplace",
        "label": "struct BorrowProxyLib.ControllerIsolate",
        "members": [
          {
            "astId": 12225,
            "contract": "contracts/ShifterPool.sol:ShifterPool",
            "label": "proxyInitializerRecord",
            "offset": 0,
            "slot": "0",
            "type": "t_mapping(t_address,t_bytes32)"
          },
          {
            "astId": 12229,
            "contract": "contracts/ShifterPool.sol:ShifterPool",
            "label": "ownerByProxy",
            "offset": 0,
            "slot": "1",
            "type": "t_mapping(t_address,t_address)"
          },
          {
            "astId": 12233,
            "contract": "contracts/ShifterPool.sol:ShifterPool",
            "label": "tokenByProxy",
            "offset": 0,
            "slot": "2",
            "type": "t_mapping(t_address,t_address)"
          },
          {
            "astId": 12237,
            "contract": "contracts/ShifterPool.sol:ShifterPool",
            "label": "isKeeper",
            "offset": 0,
            "slot": "3",
            "type": "t_mapping(t_address,t_bool)"
          }
        ],
        "numberOfBytes": "128"
      },
      "t_struct(Isolate)16056_storage": {
        "encoding": "inplace",
        "label": "struct ShifterPoolLib.Isolate",
        "members": [
          {
            "astId": 16025,
            "contract": "contracts/ShifterPool.sol:ShifterPool",
            "label": "genesis",
            "offset": 0,
            "slot": "0",
            "type": "t_uint256"
          },
          {
            "astId": 16027,
            "contract": "contracts/ShifterPool.sol:ShifterPool",
            "label": "borrowProxyImplementation",
            "offset": 0,
            "slot": "1",
            "type": "t_address"
          },
          {
            "astId": 16029,
            "contract": "contracts/ShifterPool.sol:ShifterPool",
            "label": "assetForwarderImplementation",
            "offset": 0,
            "slot": "2",
            "type": "t_address"
          },
          {
            "astId": 16031,
            "contract": "contracts/ShifterPool.sol:ShifterPool",
            "label": "shifterRegistry",
            "offset": 0,
            "slot": "3",
            "type": "t_address"
          },
          {
            "astId": 16033,
            "contract": "contracts/ShifterPool.sol:ShifterPool",
            "label": "minTimeout",
            "offset": 0,
            "slot": "4",
            "type": "t_uint256"
          },
          {
            "astId": 16035,
            "contract": "contracts/ShifterPool.sol:ShifterPool",
            "label": "poolFee",
            "offset": 0,
            "slot": "5",
            "type": "t_uint256"
          },
          {
            "astId": 16037,
            "contract": "contracts/ShifterPool.sol:ShifterPool",
            "label": "daoFee",
            "offset": 0,
            "slot": "6",
            "type": "t_uint256"
          },
          {
            "astId": 16039,
            "contract": "contracts/ShifterPool.sol:ShifterPool",
            "label": "maxLoan",
            "offset": 0,
            "slot": "7",
            "type": "t_uint256"
          },
          {
            "astId": 16043,
            "contract": "contracts/ShifterPool.sol:ShifterPool",
            "label": "isKeeper",
            "offset": 0,
            "slot": "8",
            "type": "t_mapping(t_address,t_bool)"
          },
          {
            "astId": 16047,
            "contract": "contracts/ShifterPool.sol:ShifterPool",
            "label": "provisionExecuted",
            "offset": 0,
            "slot": "9",
            "type": "t_mapping(t_bytes32,t_bool)"
          },
          {
            "astId": 16051,
            "contract": "contracts/ShifterPool.sol:ShifterPool",
            "label": "tokenToLiquidityToken",
            "offset": 0,
            "slot": "10",
            "type": "t_mapping(t_address,t_address)"
          },
          {
            "astId": 16053,
            "contract": "contracts/ShifterPool.sol:ShifterPool",
            "label": "borrowProxyController",
            "offset": 0,
            "slot": "11",
            "type": "t_struct(ControllerIsolate)12238_storage"
          },
          {
            "astId": 16055,
            "contract": "contracts/ShifterPool.sol:ShifterPool",
            "label": "registry",
            "offset": 0,
            "slot": "15",
            "type": "t_struct(ModuleRegistry)12621_storage"
          }
        ],
        "numberOfBytes": "512"
      },
      "t_struct(Module)12247_storage": {
        "encoding": "inplace",
        "label": "struct BorrowProxyLib.Module",
        "members": [
          {
            "astId": 12240,
            "contract": "contracts/ShifterPool.sol:ShifterPool",
            "label": "isPrecompiled",
            "offset": 0,
            "slot": "0",
            "type": "t_bool"
          },
          {
            "astId": 12242,
            "contract": "contracts/ShifterPool.sol:ShifterPool",
            "label": "assetSubmodule",
            "offset": 1,
            "slot": "0",
            "type": "t_address"
          },
          {
            "astId": 12244,
            "contract": "contracts/ShifterPool.sol:ShifterPool",
            "label": "liquidationSubmodule",
            "offset": 0,
            "slot": "1",
            "type": "t_address"
          },
          {
            "astId": 12246,
            "contract": "contracts/ShifterPool.sol:ShifterPool",
            "label": "repaymentSubmodule",
            "offset": 0,
            "slot": "2",
            "type": "t_address"
          }
        ],
        "numberOfBytes": "96"
      },
      "t_struct(ModuleRegistry)12621_storage": {
        "encoding": "inplace",
        "label": "struct BorrowProxyLib.ModuleRegistry",
        "members": [
          {
            "astId": 12620,
            "contract": "contracts/ShifterPool.sol:ShifterPool",
            "label": "modules",
            "offset": 0,
            "slot": "0",
            "type": "t_mapping(t_bytes32,t_struct(Module)12247_storage)"
          }
        ],
        "numberOfBytes": "32"
      },
      "t_uint256": {
        "encoding": "inplace",
        "label": "uint256",
        "numberOfBytes": "32"
      }
    }
  }
}