{
  "abi": [
    {
      "inputs": [
        {
          "internalType": "bytes",
          "name": "data",
          "type": "bytes"
        }
      ],
      "name": "execute",
      "outputs": [
        {
          "components": [
            {
              "internalType": "address",
              "name": "to",
              "type": "address"
            },
            {
              "internalType": "bytes",
              "name": "txData",
              "type": "bytes"
            }
          ],
          "internalType": "struct ShifterBorrowProxyLib.InitializationAction[]",
          "name": "",
          "type": "tuple[]"
        }
      ],
      "stateMutability": "view",
      "type": "function"
    },
    {
      "inputs": [
        {
          "internalType": "bytes",
          "name": "consData",
          "type": "bytes"
        }
      ],
      "name": "setup",
      "outputs": [],
      "stateMutability": "nonpayable",
      "type": "function"
    },
    {
      "inputs": [],
      "name": "target",
      "outputs": [
        {
          "internalType": "address",
          "name": "",
          "type": "address"
        }
      ],
      "stateMutability": "view",
      "type": "function"
    }
  ],
  "address": "0xf784709d2317D872237C4bC22f867d1BAe2913AB",
  "args": [],
  "bytecode": "0x608060405234801561001057600080fd5b5061070d806100206000396000f3fe608060405234801561001057600080fd5b50600436106100415760003560e01c806309c5eabe146100465780639ded06df1461006f578063d4b8399214610084575b600080fd5b6100596100543660046103ed565b610099565b60405161006691906105a0565b60405180910390f35b61008261007d3660046103ed565b61021c565b005b61008c610253565b6040516100669190610573565b60606100a3610316565b6100ac83610262565b60025460208083015160408051636a5c1cc960e11b815290519495506001600160a01b03938416946102149463a9059cbb60e01b9493169263d4b839929260048082019391829003018186803b15801561010557600080fd5b505afa158015610119573d6000803e3d6000fd5b505050506040513d601f19601f8201168201806040525081019061013d91906103d1565b6040516370a0823160e01b81526001600160a01b038516906370a0823190610169903090600401610573565b60206040518083038186803b15801561018157600080fd5b505afa158015610195573d6000803e3d6000fd5b505050506040513d601f19601f820116820180604052508101906101b9919061055b565b6040516024016101ca929190610587565b60408051601f198184030181529190526020810180516001600160e01b03166001600160e01b0319909316929092179091526002546001600160a01b03169063ffffffff61027916565b949350505050565b8080602001905181019061023091906103d1565b600b80546001600160a01b0319166001600160a01b039290921691909117905550565b600b546001600160a01b031681565b61026a610316565b610273826102a8565b92915050565b60606102a16040518060400160405280856001600160a01b03168152602001848152506102c4565b9392505050565b6102b0610316565b818060200190518101906102739190610464565b604080516001808252818301909252606091816020015b6102e3610336565b8152602001906001900390816102db579050509050818160008151811061030657fe5b6020026020010181905250919050565b604051806040016040528061032961034e565b8152600060209091015290565b60408051808201909152600081526060602082015290565b604080516080810182526000808252606060208301819052928201528181019190915290565b8051610273816106b1565b600082601f83011261038f578081fd5b81516103a261039d8261065d565b610636565b91508082528360208285010111156103b957600080fd5b6103ca816020840160208601610681565b5092915050565b6000602082840312156103e2578081fd5b81516102a1816106b1565b6000602082840312156103fe578081fd5b813567ffffffffffffffff811115610414578182fd5b80830184601f820112610425578283fd5b8035915061043561039d8361065d565b828152856020848401011115610449578384fd5b82602083016020830137918201602001929092529392505050565b600060208284031215610475578081fd5b815167ffffffffffffffff8082111561048c578283fd5b8184016040818703121561049e578384fd5b6104a86040610636565b92508051828111156104b8578485fd5b808201608081890312156104ca578586fd5b6104d46080610636565b915080516104e1816106b1565b82526020810151848111156104f4578687fd5b6105008982840161037f565b6020840152506040810151610514816106c9565b604083015260608101518481111561052a578687fd5b6105368982840161037f565b60608401525050835261054c8660208301610374565b60208401525090949350505050565b60006020828403121561056c578081fd5b5051919050565b6001600160a01b0391909116815260200190565b6001600160a01b03929092168252602082015260400190565b60208082528251828201819052600091906040908185019080840286018301878501865b8381101561062857888303603f19018552815180516001600160a01b03168452870151878401879052805187850181905290606061060783828801848d01610681565b96890196601f92909201601f191694909401019250908601906001016105c4565b509098975050505050505050565b60405181810167ffffffffffffffff8111828210171561065557600080fd5b604052919050565b600067ffffffffffffffff821115610673578081fd5b50601f01601f191660200190565b60005b8381101561069c578181015183820152602001610684565b838111156106ab576000848401525b50505050565b6001600160a01b03811681146106c657600080fd5b50565b80151581146106c657600080fdfea264697066735822122039782851b2607e13ce582a15e540a1051e09df0892bcd953e284a96ac12173bc64736f6c634300060a0033",
  "userdoc": {
    "methods": {}
  },
  "devdoc": {
    "methods": {}
  },
  "storageLayout": {
    "storage": [
      {
        "astId": 20869,
        "contract": "contracts/preprocessors/TransferAll.sol:TransferAll",
        "label": "isolate",
        "offset": 0,
        "slot": "0",
        "type": "t_struct(ProxyIsolate)12221_storage"
      },
      {
        "astId": 20871,
        "contract": "contracts/preprocessors/TransferAll.sol:TransferAll",
        "label": "target",
        "offset": 0,
        "slot": "11",
        "type": "t_address"
      }
    ],
    "types": {
      "t_address": {
        "encoding": "inplace",
        "label": "address",
        "numberOfBytes": "20"
      },
      "t_array(t_address)dyn_storage": {
        "base": "t_address",
        "encoding": "dynamic_array",
        "label": "address[]",
        "numberOfBytes": "32"
      },
      "t_bool": {
        "encoding": "inplace",
        "label": "bool",
        "numberOfBytes": "1"
      },
      "t_mapping(t_address,t_bool)": {
        "encoding": "mapping",
        "key": "t_address",
        "label": "mapping(address => bool)",
        "numberOfBytes": "32",
        "value": "t_bool"
      },
      "t_struct(AddressSet)21803_storage": {
        "encoding": "inplace",
        "label": "struct AddressSetLib.AddressSet",
        "members": [
          {
            "astId": 21799,
            "contract": "contracts/preprocessors/TransferAll.sol:TransferAll",
            "label": "uniq",
            "offset": 0,
            "slot": "0",
            "type": "t_mapping(t_address,t_bool)"
          },
          {
            "astId": 21802,
            "contract": "contracts/preprocessors/TransferAll.sol:TransferAll",
            "label": "set",
            "offset": 0,
            "slot": "1",
            "type": "t_array(t_address)dyn_storage"
          }
        ],
        "numberOfBytes": "64"
      },
      "t_struct(ProxyIsolate)12221_storage": {
        "encoding": "inplace",
        "label": "struct BorrowProxyLib.ProxyIsolate",
        "members": [
          {
            "astId": 12200,
            "contract": "contracts/preprocessors/TransferAll.sol:TransferAll",
            "label": "masterAddress",
            "offset": 0,
            "slot": "0",
            "type": "t_address"
          },
          {
            "astId": 12202,
            "contract": "contracts/preprocessors/TransferAll.sol:TransferAll",
            "label": "unbound",
            "offset": 20,
            "slot": "0",
            "type": "t_bool"
          },
          {
            "astId": 12204,
            "contract": "contracts/preprocessors/TransferAll.sol:TransferAll",
            "label": "owner",
            "offset": 0,
            "slot": "1",
            "type": "t_address"
          },
          {
            "astId": 12206,
            "contract": "contracts/preprocessors/TransferAll.sol:TransferAll",
            "label": "token",
            "offset": 0,
            "slot": "2",
            "type": "t_address"
          },
          {
            "astId": 12208,
            "contract": "contracts/preprocessors/TransferAll.sol:TransferAll",
            "label": "actualizedShift",
            "offset": 0,
            "slot": "3",
            "type": "t_uint256"
          },
          {
            "astId": 12210,
            "contract": "contracts/preprocessors/TransferAll.sol:TransferAll",
            "label": "liquidationIndex",
            "offset": 0,
            "slot": "4",
            "type": "t_uint256"
          },
          {
            "astId": 12212,
            "contract": "contracts/preprocessors/TransferAll.sol:TransferAll",
            "label": "repaymentIndex",
            "offset": 0,
            "slot": "5",
            "type": "t_uint256"
          },
          {
            "astId": 12214,
            "contract": "contracts/preprocessors/TransferAll.sol:TransferAll",
            "label": "isRepaying",
            "offset": 0,
            "slot": "6",
            "type": "t_bool"
          },
          {
            "astId": 12216,
            "contract": "contracts/preprocessors/TransferAll.sol:TransferAll",
            "label": "isLiquidating",
            "offset": 1,
            "slot": "6",
            "type": "t_bool"
          },
          {
            "astId": 12218,
            "contract": "contracts/preprocessors/TransferAll.sol:TransferAll",
            "label": "liquidationSet",
            "offset": 0,
            "slot": "7",
            "type": "t_struct(AddressSet)21803_storage"
          },
          {
            "astId": 12220,
            "contract": "contracts/preprocessors/TransferAll.sol:TransferAll",
            "label": "repaymentSet",
            "offset": 0,
            "slot": "9",
            "type": "t_struct(AddressSet)21803_storage"
          }
        ],
        "numberOfBytes": "352"
      },
      "t_uint256": {
        "encoding": "inplace",
        "label": "uint256",
        "numberOfBytes": "32"
      }
    }
  }
}