{
  "abi": [
    {
      "inputs": [
        {
          "internalType": "bytes",
          "name": "data",
          "type": "bytes"
        }
      ],
      "name": "execute",
      "outputs": [
        {
          "components": [
            {
              "internalType": "address",
              "name": "to",
              "type": "address"
            },
            {
              "internalType": "bytes",
              "name": "txData",
              "type": "bytes"
            }
          ],
          "internalType": "struct ShifterBorrowProxyLib.InitializationAction[]",
          "name": "result",
          "type": "tuple[]"
        }
      ],
      "stateMutability": "view",
      "type": "function"
    },
    {
      "inputs": [],
      "name": "recipient",
      "outputs": [
        {
          "internalType": "address",
          "name": "",
          "type": "address"
        }
      ],
      "stateMutability": "view",
      "type": "function"
    },
    {
      "inputs": [],
      "name": "router",
      "outputs": [
        {
          "internalType": "address",
          "name": "",
          "type": "address"
        }
      ],
      "stateMutability": "view",
      "type": "function"
    },
    {
      "inputs": [
        {
          "internalType": "bytes",
          "name": "consData",
          "type": "bytes"
        }
      ],
      "name": "setup",
      "outputs": [],
      "stateMutability": "nonpayable",
      "type": "function"
    },
    {
      "inputs": [],
      "name": "token",
      "outputs": [
        {
          "internalType": "address",
          "name": "",
          "type": "address"
        }
      ],
      "stateMutability": "view",
      "type": "function"
    }
  ],
  "address": "0xf4e77E5Da47AC3125140c470c71cBca77B5c638c",
  "args": [],
  "bytecode": "0x608060405234801561001057600080fd5b50610a99806100206000396000f3fe608060405234801561001057600080fd5b50600436106100575760003560e01c806309c5eabe1461005c57806366d003ac146100855780639ded06df1461009a578063f887ea40146100af578063fc0c546a146100b7575b600080fd5b61006f61006a366004610732565b6100bf565b60405161007c91906108ca565b60405180910390f35b61008d6103a8565b60405161007c91906108b6565b6100ad6100a8366004610732565b6103b7565b005b61008d61040b565b61008d61041a565b60606100c96105ff565b6100d283610429565b90506000816020015190506000816001600160a01b031663f887ea406040518163ffffffff1660e01b815260040160206040518083038186803b15801561011857600080fd5b505afa15801561012c573d6000803e3d6000fd5b505050506040513d601f19601f8201168201806040525081019061015091906106ca565b905060008060020160009054906101000a90046001600160a01b03169050606061025b82846001600160a01b031663ad5c46486040518163ffffffff1660e01b815260040160206040518083038186803b1580156101ad57600080fd5b505afa1580156101c1573d6000803e3d6000fd5b505050506040513d601f19601f820116820180604052508101906101e591906106ca565b866001600160a01b031663fc0c546a6040518163ffffffff1660e01b815260040160206040518083038186803b15801561021e57600080fd5b505afa158015610232573d6000803e3d6000fd5b505050506040513d601f19601f8201168201806040525081019061025691906106ca565b610440565b905061039d6103876040518060a00160405280856001600160a01b03166370a08231306040518263ffffffff1660e01b815260040161029a91906108b6565b60206040518083038186803b1580156102b257600080fd5b505afa1580156102c6573d6000803e3d6000fd5b505050506040513d601f19601f820116820180604052508101906102ea919061089e565b815260200160018152602001848152602001876001600160a01b03166366d003ac6040518163ffffffff1660e01b815260040160206040518083038186803b15801561033557600080fd5b505afa158015610349573d6000803e3d6000fd5b505050506040513d601f19601f8201168201806040525081019061036d91906106ca565b6001600160a01b03168152602001426001018152506104f3565b6001600160a01b0385169063ffffffff61056216565b979650505050505050565b600d546001600160a01b031681565b808060200190518101906103cb91906106e6565b600d80546001600160a01b039283166001600160a01b031991821617909155600c805493831693821693909317909255600b805491909316911617905550565b600b546001600160a01b031681565b600c546001600160a01b031681565b6104316105ff565b61043a82610591565b92915050565b60408051600380825260808201909252606091602082018380368337019050509050838160008151811061047057fe5b60200260200101906001600160a01b031690816001600160a01b031681525050828160018151811061049e57fe5b60200260200101906001600160a01b031690816001600160a01b03168152505081816002815181106104cc57fe5b60200260200101906001600160a01b031690816001600160a01b0316815250509392505050565b60606338ed173960e01b8260000151836020015184604001518560600151866080015160405160240161052a959493929190610960565b60408051601f198184030181529190526020810180516001600160e01b03166001600160e01b03199093169290921790915292915050565b606061058a6040518060400160405280856001600160a01b03168152602001848152506105ad565b9392505050565b6105996105ff565b8180602001905181019061043a91906107a9565b604080516001808252818301909252606091816020015b6105cc61061f565b8152602001906001900390816105c457905050905081816000815181106105ef57fe5b6020026020010181905250919050565b6040518060400160405280610612610637565b8152600060209091015290565b60408051808201909152600081526060602082015290565b604080516080810182526000808252606060208301819052928201528181019190915290565b805161043a81610a4b565b8051801515811461043a57600080fd5b600082601f830112610688578081fd5b815161069b610696826109f7565b6109d0565b91508082528360208285010111156106b257600080fd5b6106c3816020840160208601610a1b565b5092915050565b6000602082840312156106db578081fd5b815161058a81610a4b565b6000806000606084860312156106fa578182fd5b835161070581610a4b565b602085015190935061071681610a4b565b604085015190925061072781610a4b565b809150509250925092565b600060208284031215610743578081fd5b813567ffffffffffffffff811115610759578182fd5b80830184601f82011261076a578283fd5b8035915061077a610696836109f7565b82815285602084840101111561078e578384fd5b82602083016020830137918201602001929092529392505050565b6000602082840312156107ba578081fd5b815167ffffffffffffffff808211156107d1578283fd5b818401604081870312156107e3578384fd5b6107ed60406109d0565b92508051828111156107fd578485fd5b8082016080818903121561080f578586fd5b61081960806109d0565b9150610825888261065d565b8252602081015184811115610838578687fd5b61084489828401610678565b6020840152506108578860408301610668565b604083015260608101518481111561086d578687fd5b61087989828401610678565b60608401525050835261088f866020830161065d565b60208401525090949350505050565b6000602082840312156108af578081fd5b5051919050565b6001600160a01b0391909116815260200190565b60208082528251828201819052600091906040908185019080840286018301878501865b8381101561095257888303603f19018552815180516001600160a01b03168452870151878401879052805187850181905290606061093183828801848d01610a1b565b96890196601f92909201601f191694909401019250908601906001016108ee565b509098975050505050505050565b600060a082018783526020878185015260a0604085015281875180845260c0860191508289019350845b818110156109af5784516001600160a01b03168352938301939183019160010161098a565b50506001600160a01b03969096166060850152505050608001529392505050565b60405181810167ffffffffffffffff811182821017156109ef57600080fd5b604052919050565b600067ffffffffffffffff821115610a0d578081fd5b50601f01601f191660200190565b60005b83811015610a36578181015183820152602001610a1e565b83811115610a45576000848401525b50505050565b6001600160a01b0381168114610a6057600080fd5b5056fea2646970667358221220f773eb3a8fb89551e59015eca28e6c777fa6e49a146a8b924d79c6f6ccd8a39e64736f6c634300060a0033",
  "userdoc": {
    "methods": {}
  },
  "devdoc": {
    "methods": {}
  },
  "storageLayout": {
    "storage": [
      {
        "astId": 19362,
        "contract": "contracts/preprocessors/V2SwapAndDrop.sol:V2SwapAndDrop",
        "label": "isolate",
        "offset": 0,
        "slot": "0",
        "type": "t_struct(ProxyIsolate)10408_storage"
      },
      {
        "astId": 19364,
        "contract": "contracts/preprocessors/V2SwapAndDrop.sol:V2SwapAndDrop",
        "label": "router",
        "offset": 0,
        "slot": "11",
        "type": "t_address"
      },
      {
        "astId": 19366,
        "contract": "contracts/preprocessors/V2SwapAndDrop.sol:V2SwapAndDrop",
        "label": "token",
        "offset": 0,
        "slot": "12",
        "type": "t_address"
      },
      {
        "astId": 19368,
        "contract": "contracts/preprocessors/V2SwapAndDrop.sol:V2SwapAndDrop",
        "label": "recipient",
        "offset": 0,
        "slot": "13",
        "type": "t_address"
      }
    ],
    "types": {
      "t_address": {
        "encoding": "inplace",
        "label": "address",
        "numberOfBytes": "20"
      },
      "t_address_payable": {
        "encoding": "inplace",
        "label": "address payable",
        "numberOfBytes": "20"
      },
      "t_array(t_address)dyn_storage": {
        "base": "t_address",
        "encoding": "dynamic_array",
        "label": "address[]",
        "numberOfBytes": "32"
      },
      "t_bool": {
        "encoding": "inplace",
        "label": "bool",
        "numberOfBytes": "1"
      },
      "t_mapping(t_address,t_bool)": {
        "encoding": "mapping",
        "key": "t_address",
        "label": "mapping(address => bool)",
        "numberOfBytes": "32",
        "value": "t_bool"
      },
      "t_struct(AddressSet)19844_storage": {
        "encoding": "inplace",
        "label": "struct AddressSetLib.AddressSet",
        "members": [
          {
            "astId": 19840,
            "contract": "contracts/preprocessors/V2SwapAndDrop.sol:V2SwapAndDrop",
            "label": "uniq",
            "offset": 0,
            "slot": "0",
            "type": "t_mapping(t_address,t_bool)"
          },
          {
            "astId": 19843,
            "contract": "contracts/preprocessors/V2SwapAndDrop.sol:V2SwapAndDrop",
            "label": "set",
            "offset": 0,
            "slot": "1",
            "type": "t_array(t_address)dyn_storage"
          }
        ],
        "numberOfBytes": "64"
      },
      "t_struct(ProxyIsolate)10408_storage": {
        "encoding": "inplace",
        "label": "struct BorrowProxyLib.ProxyIsolate",
        "members": [
          {
            "astId": 10387,
            "contract": "contracts/preprocessors/V2SwapAndDrop.sol:V2SwapAndDrop",
            "label": "masterAddress",
            "offset": 0,
            "slot": "0",
            "type": "t_address_payable"
          },
          {
            "astId": 10389,
            "contract": "contracts/preprocessors/V2SwapAndDrop.sol:V2SwapAndDrop",
            "label": "unbound",
            "offset": 20,
            "slot": "0",
            "type": "t_bool"
          },
          {
            "astId": 10391,
            "contract": "contracts/preprocessors/V2SwapAndDrop.sol:V2SwapAndDrop",
            "label": "owner",
            "offset": 0,
            "slot": "1",
            "type": "t_address"
          },
          {
            "astId": 10393,
            "contract": "contracts/preprocessors/V2SwapAndDrop.sol:V2SwapAndDrop",
            "label": "token",
            "offset": 0,
            "slot": "2",
            "type": "t_address"
          },
          {
            "astId": 10395,
            "contract": "contracts/preprocessors/V2SwapAndDrop.sol:V2SwapAndDrop",
            "label": "actualizedShift",
            "offset": 0,
            "slot": "3",
            "type": "t_uint256"
          },
          {
            "astId": 10397,
            "contract": "contracts/preprocessors/V2SwapAndDrop.sol:V2SwapAndDrop",
            "label": "liquidationIndex",
            "offset": 0,
            "slot": "4",
            "type": "t_uint256"
          },
          {
            "astId": 10399,
            "contract": "contracts/preprocessors/V2SwapAndDrop.sol:V2SwapAndDrop",
            "label": "repaymentIndex",
            "offset": 0,
            "slot": "5",
            "type": "t_uint256"
          },
          {
            "astId": 10401,
            "contract": "contracts/preprocessors/V2SwapAndDrop.sol:V2SwapAndDrop",
            "label": "isRepaying",
            "offset": 0,
            "slot": "6",
            "type": "t_bool"
          },
          {
            "astId": 10403,
            "contract": "contracts/preprocessors/V2SwapAndDrop.sol:V2SwapAndDrop",
            "label": "isLiquidating",
            "offset": 1,
            "slot": "6",
            "type": "t_bool"
          },
          {
            "astId": 10405,
            "contract": "contracts/preprocessors/V2SwapAndDrop.sol:V2SwapAndDrop",
            "label": "liquidationSet",
            "offset": 0,
            "slot": "7",
            "type": "t_struct(AddressSet)19844_storage"
          },
          {
            "astId": 10407,
            "contract": "contracts/preprocessors/V2SwapAndDrop.sol:V2SwapAndDrop",
            "label": "repaymentSet",
            "offset": 0,
            "slot": "9",
            "type": "t_struct(AddressSet)19844_storage"
          }
        ],
        "numberOfBytes": "352"
      },
      "t_uint256": {
        "encoding": "inplace",
        "label": "uint256",
        "numberOfBytes": "32"
      }
    }
  }
}