{
  "contractName": "Absorb",
  "abi": [
    {
      "stateMutability": "payable",
      "type": "fallback"
    },
    {
      "stateMutability": "payable",
      "type": "receive"
    },
    {
      "inputs": [
        {
          "internalType": "address payable",
          "name": "target",
          "type": "address"
        }
      ],
      "name": "absorb",
      "outputs": [
        {
          "internalType": "bool",
          "name": "",
          "type": "bool"
        }
      ],
      "stateMutability": "nonpayable",
      "type": "function"
    }
  ],
  "bytecode": "0x608060405234801561001057600080fd5b50610a85806100206000396000f3fe6080604052600436106100225760003560e01c8063ba1b24471461010a57610029565b3661002957005b6100316106cd565b6100716000368080601f01602080910402602001604051908101604052809392919081815260200183838082843760009201919091525061014092505050565b9050600060606100848360e001516101c9565b90925090506001600160e01b0319821663ba1b244760e01b14156100ed576100aa610713565b6100b382610201565b90506100c2816000015161023f565b6100e75760405162461bcd60e51b81526004016100de906109e0565b60405180910390fd5b50610105565b60405162461bcd60e51b81526004016100de90610972565b505050005b34801561011657600080fd5b5061012a610125366004610746565b61023f565b6040516101379190610967565b60405180910390f35b6101486106cd565b6000806000806000806000606089806020019051810190610169919061077e565b60408051610100810182526001600160a01b03998a1681529789166020890152958816958701959095529286166060860152908516608085015290931660a083015260c082019290925260e08101919091529a9950505050505050505050565b600060606101e26101dd8460006004610257565b610280565b60e01b91506101fa6101f584600461029d565b6102c8565b9050915091565b610209610713565b60008280602001905181019061021f9190610762565b60408051602081019091526001600160a01b039091168152915050919050565b6000610251818363ffffffff61033816565b92915050565b61025f610725565b6102698484610482565b815260208101919091526040810191909152919050565b80516020820151600091906102958282610489565b949350505050565b6102a5610725565b81835110156102b357825191505b6102c1838384865103610257565b9392505050565b60208101516060908067ffffffffffffffff811180156102e757600080fd5b506040519080825280601f01601f191660200182016040528015610312576020820181803683370190505b5083519092506000610323846104a6565b90506103308183856104ac565b505050919050565b6000806103436104ea565b90506060816002016001018054806020026020016040519081016040528092919081815260200182805480156103a257602002820191906000526020600020905b81546001600160a01b03168152600190910190602001808311610384575b505050506002870154919250506001600160a01b03166103c28186610501565b6103de5760405162461bcd60e51b81526004016100de906109a9565b60005b825181101561042b576104078382815181106103f957fe5b602002602001015187610501565b6104235760405162461bcd60e51b81526004016100de906109a9565b6001016103e1565b5060006104378661067b565b905080610475576040516001600160a01b038716904780156108fc02916000818181858888f19350505050158015610473573d6000803e3d6000fd5b505b5060019695505050505050565b0160200190565b6000600180600884021b0380836020038503511691505092915050565b60200190565b5b602081106104cc578151835260209283019290910190601f19016104ad565b600180600883602003021b0380845116811984511617845250505050565b60006104fc6104f761067f565b6106ae565b905090565b600080306001600160a01b0316632692f25a60e01b85600063a9059cbb60e01b87896001600160a01b03166370a08231306040518263ffffffff1660e01b815260040161054e91906108ee565b60206040518083038186803b15801561056657600080fd5b505afa15801561057a573d6000803e3d6000fd5b505050506040513d601f19601f8201168201806040525081019061059e919061089b565b6040516024016105af92919061094e565b60408051601f198184030181529181526020820180516001600160e01b03166001600160e01b03199094169390931790925290516105f293929190602401610902565b60408051601f198184030181529181526020820180516001600160e01b03166001600160e01b031990941693909317909252905161063091906108b3565b600060405180830381855af49150503d806000811461066b576040519150601f19603f3d011682016040523d82523d6000602084013e610670565b606091505b509095945050505050565b3b90565b6000604051602001610690906108cf565b6040516020818303038152906040528051906020012060001c905090565b6000610251826106bc6106c4565b63ffffffff16565b6106ca90565b90565b604080516101008101825260008082526020820181905291810182905260608082018390526080820183905260a0820183905260c082019290925260e081019190915290565b60408051602081019091526000815290565b60405180606001604052806000815260200160008152602001600081525090565b600060208284031215610757578081fd5b81356102c181610a37565b600060208284031215610773578081fd5b81516102c181610a37565b600080600080600080600080610100898b03121561079a578384fd5b88516107a581610a37565b60208a01519098506107b681610a37565b60408a01519097506107c781610a37565b60608a01519096506107d881610a37565b60808a01519095506107e981610a37565b60a08a01519094506107fa81610a37565b60c08a015160e08b0151919450925067ffffffffffffffff8082111561081e578283fd5b818b018c601f82011261082f578384fd5b805192508183111561083f578384fd5b604051601f8401601f19168101602001838111828210171561085f578586fd5b6040528381528184016020018e1015610876578485fd5b610887846020830160208501610a07565b809450505050509295985092959890939650565b6000602082840312156108ac578081fd5b5051919050565b600082516108c5818460208701610a07565b9190910192915050565b7234b9b7b630ba329739b4b6b8363296b13ab93760691b815260130190565b6001600160a01b0391909116815260200190565b600060018060a01b038516825260ff84166020830152606060408301528251806060840152610938816080850160208701610a07565b601f01601f191691909101608001949350505050565b6001600160a01b03929092168252602082015260400190565b901515815260200190565b60208082526019908201527f756e737570706f7274656420636f6e74726163742063616c6c00000000000000604082015260600190565b60208082526017908201527f6661696c656420746f20666f727761726420746f6b656e000000000000000000604082015260600190565b6020808252600d908201526c18589cdbdc988819985a5b1959609a1b604082015260600190565b60005b83811015610a22578181015183820152602001610a0a565b83811115610a31576000848401525b50505050565b6001600160a01b0381168114610a4c57600080fd5b5056fea26469706673582212202bbc4de92a05768dd745586431775f371df52d40dd2c2cc500e9d0c60a48a6a464736f6c63430006050033",
  "source": "pragma solidity ^0.6.0;\npragma experimental ABIEncoderV2;\n\nimport { BorrowProxyLib } from \"../../BorrowProxyLib.sol\";\nimport { ModuleLib } from \"../lib/ModuleLib.sol\";\nimport { AbsorbLib } from \"./AbsorbLib.sol\";\nimport { IAbsorb } from \"./IAbsorb.sol\";\n\ncontract Absorb {\n  using ModuleLib for *;\n  using AbsorbLib for *;\n  BorrowProxyLib.ProxyIsolate isolate;\n  receive() external payable {\n    // no-op\n  }\n  struct AbsorbInputs {\n    address payable target;\n  }\n  function decodeAbsorbInputs(bytes memory args) internal pure returns (AbsorbInputs memory) {\n    (address payable target) = abi.decode(args, (address));\n    return AbsorbInputs({\n      target: target\n    });\n  }\n  function absorb(address payable target) public returns (bool) {\n    return isolate.absorbImpl(target);\n  }\n  fallback() external payable {\n    ModuleLib.AssetSubmodulePayload memory payload = msg.data.decodeAssetSubmodulePayload();\n    (bytes4 sig, bytes memory args) = payload.callData.splitPayload();\n    if (sig == IAbsorb.absorb.selector) {\n      AbsorbInputs memory inputs = decodeAbsorbInputs(args);  \n      require(absorb(inputs.target), \"absorb failed\");\n    } else revert(\"unsupported contract call\");\n  }\n}\n",
  "sourcePath": "/home/ray/0confirmation/packages/0confirmation-sol/contracts/adapters/precompiled/Absorb.sol",
  "compiler": {
    "name": "solc",
    "version": "0.6.5+commit.f956cc89.Emscripten.clang"
  },
  "schemaVersion": "3.0.23",
  "updatedAt": "2020-04-24T06:53:32.935Z",
  "devdoc": {
    "methods": {}
  },
  "userdoc": {
    "methods": {}
  }
}