{
  "contractName": "AssetForwarder",
  "abi": [
    {
      "inputs": [
        {
          "internalType": "address payable",
          "name": "target",
          "type": "address"
        },
        {
          "internalType": "address",
          "name": "token",
          "type": "address"
        }
      ],
      "name": "forwardAsset",
      "outputs": [],
      "stateMutability": "payable",
      "type": "function"
    }
  ],
  "bytecode": "0x608060405234801561001057600080fd5b506102f3806100206000396000f3fe60806040526004361061001e5760003560e01c80638e03e6cd14610023575b600080fd5b6100366100313660046101c0565b610038565b005b6100cf82826001600160a01b03166370a08231306040518263ffffffff1660e01b81526004016100689190610249565b60206040518083038186803b15801561008057600080fd5b505afa158015610094573d6000803e3d6000fd5b505050506040513d601f19601f820116820180604052508101906100b891906101f8565b6001600160a01b038416919063ffffffff6100f816565b6100f45760405162461bcd60e51b81526004016100eb90610276565b60405180910390fd5b5050565b600080846001600160a01b031661010f858561016a565b60405161011c9190610210565b6000604051808303816000865af19150503d8060008114610159576040519150601f19603f3d011682016040523d82523d6000602084013e61015e565b606091505b50909695505050505050565b606063a9059cbb60e01b838360405160240161018792919061025d565b60408051601f198184030181529190526020810180516001600160e01b03166001600160e01b0319909316929092179091529392505050565b600080604083850312156101d2578182fd5b82356101dd816102a5565b915060208301356101ed816102a5565b809150509250929050565b600060208284031215610209578081fd5b5051919050565b60008251815b818110156102305760208186018101518583015201610216565b8181111561023e5782828501525b509190910192915050565b6001600160a01b0391909116815260200190565b6001600160a01b03929092168252602082015260400190565b602080825260159082015274657263323020666f7277617264206661696c75726560581b604082015260600190565b6001600160a01b03811681146102ba57600080fd5b5056fea264697066735822122060150896cebba72618edc7f2afc30c600a9c48a5ebb9b1ebc21fc9471728695364736f6c63430006060033",
  "immutableReferences": {},
  "source": "pragma solidity ^0.6.0;\npragma experimental ABIEncoderV2;\n\nimport { IERC20 } from \"openzeppelin-solidity/contracts/token/ERC20/IERC20.sol\";\nimport { TokenUtils } from \"../../utils/TokenUtils.sol\";\n\ncontract AssetForwarder {\n  using TokenUtils for *;\n  function forwardAsset(address payable target, address token) public payable {\n    require(token.sendToken(target, IERC20(token).balanceOf(address(this))), \"erc20 forward failure\");\n  }\n}\n",
  "sourcePath": "/home/ray/0confirmation/packages/0confirmation-sol/contracts/adapters/lib/AssetForwarder.sol",
  "compiler": {
    "name": "solc",
    "version": "0.6.6+commit.6c089d02.Emscripten.clang"
  },
  "schemaVersion": "3.1.0",
  "updatedAt": "2020-04-27T00:04:33.953Z",
  "devdoc": {
    "methods": {}
  },
  "userdoc": {
    "methods": {}
  }
}