{
  "contractName": "AssetForwarder",
  "abi": [
    {
      "inputs": [
        {
          "internalType": "address payable",
          "name": "target",
          "type": "address"
        },
        {
          "internalType": "address",
          "name": "token",
          "type": "address"
        }
      ],
      "name": "forwardAsset",
      "outputs": [],
      "stateMutability": "nonpayable",
      "type": "function"
    }
  ],
  "bytecode": "0x608060405234801561001057600080fd5b50610337806100206000396000f3fe608060405234801561001057600080fd5b506004361061002b5760003560e01c80638e03e6cd14610030575b600080fd5b61005e6004803603604081101561004657600080fd5b506001600160a01b0381358116916020013516610060565b005b4715610109576000826001600160a01b0316475a6040519091906000818181858888f193505050503d80600081146100b4576040519150601f19603f3d011682016040523d82523d6000602084013e6100b9565b606091505b5050905080610107576040805162461bcd60e51b8152602060048201526015602482015274657468657220666f7277617264206661696c75726560581b604482015290519081900360640190fd5b505b6001600160a01b038116156101f057604080516370a0823160e01b815230600482015290516101a79184916001600160a01b038516916370a08231916024808301926020929190829003018186803b15801561016457600080fd5b505afa158015610178573d6000803e3d6000fd5b505050506040513d602081101561018e57600080fd5b50516001600160a01b038416919063ffffffff6101fc16565b6101f0576040805162461bcd60e51b8152602060048201526015602482015274657263323020666f7277617264206661696c75726560581b604482015290519081900360640190fd5b816001600160a01b0316ff5b600080846001600160a01b031661021385856102b5565b6040518082805190602001908083835b602083106102425780518252601f199092019160209182019101610223565b6001836020036101000a0380198251168184511680821785525050505050509050019150506000604051808303816000865af19150503d80600081146102a4576040519150601f19603f3d011682016040523d82523d6000602084013e6102a9565b606091505b50909695505050505050565b604080516001600160a01b0390931660248401526044808401929092528051808403909201825260649092019091526020810180516001600160e01b031663a9059cbb60e01b1790529056fea2646970667358221220221ed0699c7539b1da9ba0a765631abcd2eeb62aca101a0296df91f937ae902164736f6c63430006050033",
  "source": "pragma solidity ^0.6.0;\n\nimport { IERC20 } from \"openzeppelin-solidity/contracts/token/ERC20/IERC20.sol\";\nimport { TokenUtils } from \"../../utils/TokenUtils.sol\";\n\ncontract AssetForwarder {\n  using TokenUtils for *;\n  function forwardAsset(address payable target, address token) public {\n    if (address(this).balance != 0) {\n      (bool success, ) = target.call{ value: address(this).balance, gas: gasleft() }(\"\");\n      require(success, \"ether forward failure\");\n    }\n    if (token != address(0x0)) require(token.sendToken(target, IERC20(token).balanceOf(address(this))), \"erc20 forward failure\");\n    selfdestruct(target);\n  }\n}\n",
  "sourcePath": "/home/ray/0confirmation/packages/0confirmation-sol/contracts/adapters/lib/AssetForwarder.sol",
  "compiler": {
    "name": "solc",
    "version": "0.6.5+commit.f956cc89.Emscripten.clang"
  },
  "schemaVersion": "3.0.23",
  "updatedAt": "2020-04-22T10:43:36.672Z",
  "devdoc": {
    "methods": {}
  },
  "userdoc": {
    "methods": {}
  }
}