{
  "contractName": "BCHShifter",
  "abi": [
    {
      "inputs": [
        {
          "internalType": "contract ERC20Shifted",
          "name": "_token",
          "type": "address"
        },
        {
          "internalType": "address",
          "name": "_feeRecipient",
          "type": "address"
        },
        {
          "internalType": "address",
          "name": "_mintAuthority",
          "type": "address"
        },
        {
          "internalType": "uint16",
          "name": "_shiftInFee",
          "type": "uint16"
        },
        {
          "internalType": "uint16",
          "name": "_shiftOutFee",
          "type": "uint16"
        },
        {
          "internalType": "uint256",
          "name": "_minShiftOutAmount",
          "type": "uint256"
        }
      ],
      "payable": false,
      "stateMutability": "nonpayable",
      "type": "constructor"
    },
    {
      "anonymous": false,
      "inputs": [
        {
          "indexed": true,
          "internalType": "address",
          "name": "_to",
          "type": "address"
        },
        {
          "indexed": false,
          "internalType": "uint256",
          "name": "_amount",
          "type": "uint256"
        },
        {
          "indexed": true,
          "internalType": "uint256",
          "name": "_shiftID",
          "type": "uint256"
        },
        {
          "indexed": true,
          "internalType": "bytes32",
          "name": "_signedMessageHash",
          "type": "bytes32"
        }
      ],
      "name": "LogShiftIn",
      "type": "event"
    },
    {
      "anonymous": false,
      "inputs": [
        {
          "indexed": false,
          "internalType": "bytes",
          "name": "_to",
          "type": "bytes"
        },
        {
          "indexed": false,
          "internalType": "uint256",
          "name": "_amount",
          "type": "uint256"
        },
        {
          "indexed": true,
          "internalType": "uint256",
          "name": "_shiftID",
          "type": "uint256"
        },
        {
          "indexed": true,
          "internalType": "bytes",
          "name": "_indexedTo",
          "type": "bytes"
        }
      ],
      "name": "LogShiftOut",
      "type": "event"
    },
    {
      "anonymous": false,
      "inputs": [
        {
          "indexed": true,
          "internalType": "address",
          "name": "previousOwner",
          "type": "address"
        },
        {
          "indexed": true,
          "internalType": "address",
          "name": "newOwner",
          "type": "address"
        }
      ],
      "name": "OwnershipTransferred",
      "type": "event"
    },
    {
      "constant": false,
      "inputs": [
        {
          "internalType": "address",
          "name": "_token",
          "type": "address"
        }
      ],
      "name": "blacklistRecoverableToken",
      "outputs": [],
      "payable": false,
      "stateMutability": "nonpayable",
      "type": "function"
    },
    {
      "constant": false,
      "inputs": [],
      "name": "claimOwnership",
      "outputs": [],
      "payable": false,
      "stateMutability": "nonpayable",
      "type": "function"
    },
    {
      "constant": false,
      "inputs": [],
      "name": "claimTokenOwnership",
      "outputs": [],
      "payable": false,
      "stateMutability": "nonpayable",
      "type": "function"
    },
    {
      "constant": true,
      "inputs": [],
      "name": "feeRecipient",
      "outputs": [
        {
          "internalType": "address",
          "name": "",
          "type": "address"
        }
      ],
      "payable": false,
      "stateMutability": "view",
      "type": "function"
    },
    {
      "constant": true,
      "inputs": [
        {
          "internalType": "bytes32",
          "name": "_pHash",
          "type": "bytes32"
        },
        {
          "internalType": "uint256",
          "name": "_amount",
          "type": "uint256"
        },
        {
          "internalType": "address",
          "name": "_to",
          "type": "address"
        },
        {
          "internalType": "bytes32",
          "name": "_nHash",
          "type": "bytes32"
        }
      ],
      "name": "hashForSignature",
      "outputs": [
        {
          "internalType": "bytes32",
          "name": "",
          "type": "bytes32"
        }
      ],
      "payable": false,
      "stateMutability": "view",
      "type": "function"
    },
    {
      "constant": true,
      "inputs": [],
      "name": "isOwner",
      "outputs": [
        {
          "internalType": "bool",
          "name": "",
          "type": "bool"
        }
      ],
      "payable": false,
      "stateMutability": "view",
      "type": "function"
    },
    {
      "constant": true,
      "inputs": [],
      "name": "minShiftAmount",
      "outputs": [
        {
          "internalType": "uint256",
          "name": "",
          "type": "uint256"
        }
      ],
      "payable": false,
      "stateMutability": "view",
      "type": "function"
    },
    {
      "constant": true,
      "inputs": [],
      "name": "mintAuthority",
      "outputs": [
        {
          "internalType": "address",
          "name": "",
          "type": "address"
        }
      ],
      "payable": false,
      "stateMutability": "view",
      "type": "function"
    },
    {
      "constant": true,
      "inputs": [],
      "name": "nextShiftID",
      "outputs": [
        {
          "internalType": "uint256",
          "name": "",
          "type": "uint256"
        }
      ],
      "payable": false,
      "stateMutability": "view",
      "type": "function"
    },
    {
      "constant": true,
      "inputs": [],
      "name": "owner",
      "outputs": [
        {
          "internalType": "address",
          "name": "",
          "type": "address"
        }
      ],
      "payable": false,
      "stateMutability": "view",
      "type": "function"
    },
    {
      "constant": true,
      "inputs": [],
      "name": "pendingOwner",
      "outputs": [
        {
          "internalType": "address",
          "name": "",
          "type": "address"
        }
      ],
      "payable": false,
      "stateMutability": "view",
      "type": "function"
    },
    {
      "constant": false,
      "inputs": [
        {
          "internalType": "address",
          "name": "_token",
          "type": "address"
        }
      ],
      "name": "recoverTokens",
      "outputs": [],
      "payable": false,
      "stateMutability": "nonpayable",
      "type": "function"
    },
    {
      "constant": false,
      "inputs": [],
      "name": "renounceOwnership",
      "outputs": [],
      "payable": false,
      "stateMutability": "nonpayable",
      "type": "function"
    },
    {
      "constant": false,
      "inputs": [
        {
          "internalType": "bytes32",
          "name": "_pHash",
          "type": "bytes32"
        },
        {
          "internalType": "uint256",
          "name": "_amount",
          "type": "uint256"
        },
        {
          "internalType": "bytes32",
          "name": "_nHash",
          "type": "bytes32"
        },
        {
          "internalType": "bytes",
          "name": "_sig",
          "type": "bytes"
        }
      ],
      "name": "shiftIn",
      "outputs": [
        {
          "internalType": "uint256",
          "name": "",
          "type": "uint256"
        }
      ],
      "payable": false,
      "stateMutability": "nonpayable",
      "type": "function"
    },
    {
      "constant": true,
      "inputs": [],
      "name": "shiftInFee",
      "outputs": [
        {
          "internalType": "uint16",
          "name": "",
          "type": "uint16"
        }
      ],
      "payable": false,
      "stateMutability": "view",
      "type": "function"
    },
    {
      "constant": false,
      "inputs": [
        {
          "internalType": "bytes",
          "name": "_to",
          "type": "bytes"
        },
        {
          "internalType": "uint256",
          "name": "_amount",
          "type": "uint256"
        }
      ],
      "name": "shiftOut",
      "outputs": [
        {
          "internalType": "uint256",
          "name": "",
          "type": "uint256"
        }
      ],
      "payable": false,
      "stateMutability": "nonpayable",
      "type": "function"
    },
    {
      "constant": true,
      "inputs": [],
      "name": "shiftOutFee",
      "outputs": [
        {
          "internalType": "uint16",
          "name": "",
          "type": "uint16"
        }
      ],
      "payable": false,
      "stateMutability": "view",
      "type": "function"
    },
    {
      "constant": true,
      "inputs": [
        {
          "internalType": "bytes32",
          "name": "",
          "type": "bytes32"
        }
      ],
      "name": "status",
      "outputs": [
        {
          "internalType": "bool",
          "name": "",
          "type": "bool"
        }
      ],
      "payable": false,
      "stateMutability": "view",
      "type": "function"
    },
    {
      "constant": true,
      "inputs": [],
      "name": "token",
      "outputs": [
        {
          "internalType": "contract ERC20Shifted",
          "name": "",
          "type": "address"
        }
      ],
      "payable": false,
      "stateMutability": "view",
      "type": "function"
    },
    {
      "constant": false,
      "inputs": [
        {
          "internalType": "address",
          "name": "newOwner",
          "type": "address"
        }
      ],
      "name": "transferOwnership",
      "outputs": [],
      "payable": false,
      "stateMutability": "nonpayable",
      "type": "function"
    },
    {
      "constant": false,
      "inputs": [
        {
          "internalType": "contract Shifter",
          "name": "_nextTokenOwner",
          "type": "address"
        }
      ],
      "name": "transferTokenOwnership",
      "outputs": [],
      "payable": false,
      "stateMutability": "nonpayable",
      "type": "function"
    },
    {
      "constant": false,
      "inputs": [
        {
          "internalType": "address",
          "name": "_nextFeeRecipient",
          "type": "address"
        }
      ],
      "name": "updateFeeRecipient",
      "outputs": [],
      "payable": false,
      "stateMutability": "nonpayable",
      "type": "function"
    },
    {
      "constant": false,
      "inputs": [
        {
          "internalType": "uint256",
          "name": "_minShiftOutAmount",
          "type": "uint256"
        }
      ],
      "name": "updateMinimumShiftOutAmount",
      "outputs": [],
      "payable": false,
      "stateMutability": "nonpayable",
      "type": "function"
    },
    {
      "constant": false,
      "inputs": [
        {
          "internalType": "address",
          "name": "_nextMintAuthority",
          "type": "address"
        }
      ],
      "name": "updateMintAuthority",
      "outputs": [],
      "payable": false,
      "stateMutability": "nonpayable",
      "type": "function"
    },
    {
      "constant": false,
      "inputs": [
        {
          "internalType": "uint16",
          "name": "_nextFee",
          "type": "uint16"
        }
      ],
      "name": "updateShiftInFee",
      "outputs": [],
      "payable": false,
      "stateMutability": "nonpayable",
      "type": "function"
    },
    {
      "constant": false,
      "inputs": [
        {
          "internalType": "uint16",
          "name": "_nextFee",
          "type": "uint16"
        }
      ],
      "name": "updateShiftOutFee",
      "outputs": [],
      "payable": false,
      "stateMutability": "nonpayable",
      "type": "function"
    },
    {
      "constant": true,
      "inputs": [
        {
          "internalType": "bytes32",
          "name": "_signedMessageHash",
          "type": "bytes32"
        },
        {
          "internalType": "bytes",
          "name": "_sig",
          "type": "bytes"
        }
      ],
      "name": "verifySignature",
      "outputs": [
        {
          "internalType": "bool",
          "name": "",
          "type": "bool"
        }
      ],
      "payable": false,
      "stateMutability": "view",
      "type": "function"
    },
    {
      "constant": true,
      "inputs": [],
      "name": "version",
      "outputs": [
        {
          "internalType": "uint8",
          "name": "",
          "type": "uint8"
        }
      ],
      "payable": false,
      "stateMutability": "view",
      "type": "function"
    }
  ],
  "bytecode": "0x60806040526002600360006101000a81548160ff021916908360ff16021790555060006009553480156200003257600080fd5b506040516200384e3803806200384e833981810160405260c08110156200005857600080fd5b810190808051906020019092919080519060200190929190805190602001909291908051906020019092919080519060200190929190805190602001909291905050508585858585856000620000b36200020760201b60201c565b9050806000806101000a81548173ffffffffffffffffffffffffffffffffffffffff021916908373ffffffffffffffffffffffffffffffffffffffff1602179055508073ffffffffffffffffffffffffffffffffffffffff16600073ffffffffffffffffffffffffffffffffffffffff167f8be0079c531659141344cd1fd0a4f28419497f9722a3daafe3b4186f6b6457e060405160405180910390a3508060048190555085600560006101000a81548173ffffffffffffffffffffffffffffffffffffffff021916908373ffffffffffffffffffffffffffffffffffffffff16021790555082600760146101000a81548161ffff021916908361ffff16021790555081600760166101000a81548161ffff021916908361ffff160217905550620001e4846200020f60201b60201c565b620001f5856200035e60201b60201c565b50505050505050505050505062000513565b600033905090565b6200021f620004ad60201b60201c565b62000292576040517f08c379a00000000000000000000000000000000000000000000000000000000081526004018080602001828103825260208152602001807f4f776e61626c653a2063616c6c6572206973206e6f7420746865206f776e657281525060200191505060405180910390fd5b600073ffffffffffffffffffffffffffffffffffffffff168173ffffffffffffffffffffffffffffffffffffffff1614156200031a576040517f08c379a0000000000000000000000000000000000000000000000000000000008152600401808060200182810382526034815260200180620037f66034913960400191505060405180910390fd5b80600660006101000a81548173ffffffffffffffffffffffffffffffffffffffff021916908373ffffffffffffffffffffffffffffffffffffffff16021790555050565b6200036e620004ad60201b60201c565b620003e1576040517f08c379a00000000000000000000000000000000000000000000000000000000081526004018080602001828103825260208152602001807f4f776e61626c653a2063616c6c6572206973206e6f7420746865206f776e657281525060200191505060405180910390fd5b600073ffffffffffffffffffffffffffffffffffffffff168173ffffffffffffffffffffffffffffffffffffffff16141562000469576040517f08c379a00000000000000000000000000000000000000000000000000000000081526004018080602001828103825260248152602001806200382a6024913960400191505060405180910390fd5b80600760006101000a81548173ffffffffffffffffffffffffffffffffffffffff021916908373ffffffffffffffffffffffffffffffffffffffff16021790555050565b60008060009054906101000a900473ffffffffffffffffffffffffffffffffffffffff1673ffffffffffffffffffffffffffffffffffffffff16620004f76200020760201b60201c565b73ffffffffffffffffffffffffffffffffffffffff1614905090565b6132d380620005236000396000f3fe608060405234801561001057600080fd5b50600436106101c45760003560e01c80638f32d59b116100f9578063dfe03d3211610097578063f160d36911610071578063f160d3691461089a578063f2fde38b146108de578063f65d901c14610922578063fc0c546a14610966576101c4565b8063dfe03d32146107fc578063e30c397814610822578063e58732a71461086c576101c4565b8063a2f6ed8c116100d3578063a2f6ed8c146105e2578063ab595e0c14610614578063bb4a1d8c14610632578063daca6f781461071f576101c4565b80638f32d59b146105505780639340b21e146105725780639d5d4cd8146105bc576101c4565b80635219a56611610166578063715018a611610140578063715018a6146104055780638723c3771461040f57806387c0b881146104e85780638da5cb5b14610506576101c4565b80635219a5661461032557806352ad0d5e1461039b57806354fd4d50146103e1576101c4565b806321e6b53d116101a257806321e6b53d1461025b57806324a5309e1461029f57806346904840146102d15780634e71e0c81461031b576101c4565b80630130a33b146101c957806310731a651461020d57806316114acd14610217575b600080fd5b61020b600480360360208110156101df57600080fd5b81019080803573ffffffffffffffffffffffffffffffffffffffff1690602001909291905050506109b0565b005b610215610af4565b005b6102596004803603602081101561022d57600080fd5b81019080803573ffffffffffffffffffffffffffffffffffffffff169060200190929190505050610b78565b005b61029d6004803603602081101561027157600080fd5b81019080803573ffffffffffffffffffffffffffffffffffffffff169060200190929190505050610e13565b005b6102cf600480360360208110156102b557600080fd5b81019080803561ffff169060200190929190505050610fa9565b005b6102d9611043565b604051808273ffffffffffffffffffffffffffffffffffffffff1673ffffffffffffffffffffffffffffffffffffffff16815260200191505060405180910390f35b610323611069565b005b6103856004803603608081101561033b57600080fd5b810190808035906020019092919080359060200190929190803573ffffffffffffffffffffffffffffffffffffffff16906020019092919080359060200190929190505050611168565b6040518082815260200191505060405180910390f35b6103c7600480360360208110156103b157600080fd5b8101908080359060200190929190505050611235565b604051808215151515815260200191505060405180910390f35b6103e9611255565b604051808260ff1660ff16815260200191505060405180910390f35b61040d611268565b005b6104d26004803603604081101561042557600080fd5b810190808035906020019064010000000081111561044257600080fd5b82018360208201111561045457600080fd5b8035906020019184600183028401116401000000008311171561047657600080fd5b91908080601f016020809104026020016040519081016040528093929190818152602001838380828437600081840152601f19601f820116905080830192505050505050509192919290803590602001909291905050506113a1565b6040518082815260200191505060405180910390f35b6104f0611793565b6040518082815260200191505060405180910390f35b61050e611799565b604051808273ffffffffffffffffffffffffffffffffffffffff1673ffffffffffffffffffffffffffffffffffffffff16815260200191505060405180910390f35b6105586117c2565b604051808215151515815260200191505060405180910390f35b61057a611820565b604051808273ffffffffffffffffffffffffffffffffffffffff1673ffffffffffffffffffffffffffffffffffffffff16815260200191505060405180910390f35b6105c4611846565b604051808261ffff1661ffff16815260200191505060405180910390f35b610612600480360360208110156105f857600080fd5b81019080803561ffff16906020019092919050505061185a565b005b61061c6118f4565b6040518082815260200191505060405180910390f35b6107096004803603608081101561064857600080fd5b810190808035906020019092919080359060200190929190803590602001909291908035906020019064010000000081111561068357600080fd5b82018360208201111561069557600080fd5b803590602001918460018302840111640100000000831117156106b757600080fd5b91908080601f016020809104026020016040519081016040528093929190818152602001838380828437600081840152601f19601f8201169050808301925050505050505091929192905050506118fa565b6040518082815260200191505060405180910390f35b6107e26004803603604081101561073557600080fd5b81019080803590602001909291908035906020019064010000000081111561075c57600080fd5b82018360208201111561076e57600080fd5b8035906020019184600183028401116401000000008311171561079057600080fd5b91908080601f016020809104026020016040519081016040528093929190818152602001838380828437600081840152601f19601f820116905080830192505050505050509192919290505050611d40565b604051808215151515815260200191505060405180910390f35b610804611da4565b604051808261ffff1661ffff16815260200191505060405180910390f35b61082a611db8565b604051808273ffffffffffffffffffffffffffffffffffffffff1673ffffffffffffffffffffffffffffffffffffffff16815260200191505060405180910390f35b6108986004803603602081101561088257600080fd5b8101908080359060200190929190505050611dde565b005b6108dc600480360360208110156108b057600080fd5b81019080803573ffffffffffffffffffffffffffffffffffffffff169060200190929190505050611e62565b005b610920600480360360208110156108f457600080fd5b81019080803573ffffffffffffffffffffffffffffffffffffffff169060200190929190505050611fa6565b005b6109646004803603602081101561093857600080fd5b81019080803573ffffffffffffffffffffffffffffffffffffffff169060200190929190505050612167565b005b61096e61223c565b604051808273ffffffffffffffffffffffffffffffffffffffff1673ffffffffffffffffffffffffffffffffffffffff16815260200191505060405180910390f35b6109b86117c2565b610a2a576040517f08c379a00000000000000000000000000000000000000000000000000000000081526004018080602001828103825260208152602001807f4f776e61626c653a2063616c6c6572206973206e6f7420746865206f776e657281525060200191505060405180910390fd5b600073ffffffffffffffffffffffffffffffffffffffff168173ffffffffffffffffffffffffffffffffffffffff161415610ab0576040517f08c379a00000000000000000000000000000000000000000000000000000000081526004018080602001828103825260348152602001806131296034913960400191505060405180910390fd5b80600660006101000a81548173ffffffffffffffffffffffffffffffffffffffff021916908373ffffffffffffffffffffffffffffffffffffffff16021790555050565b600560009054906101000a900473ffffffffffffffffffffffffffffffffffffffff1673ffffffffffffffffffffffffffffffffffffffff16634e71e0c86040518163ffffffff1660e01b8152600401600060405180830381600087803b158015610b5e57600080fd5b505af1158015610b72573d6000803e3d6000fd5b50505050565b610b806117c2565b610bf2576040517f08c379a00000000000000000000000000000000000000000000000000000000081526004018080602001828103825260208152602001807f4f776e61626c653a2063616c6c6572206973206e6f7420746865206f776e657281525060200191505060405180910390fd5b600260008273ffffffffffffffffffffffffffffffffffffffff1673ffffffffffffffffffffffffffffffffffffffff16815260200190815260200160002060009054906101000a900460ff1615610c95576040517f08c379a000000000000000000000000000000000000000000000000000000000815260040180806020018281038252602a815260200180613183602a913960400191505060405180910390fd5b600073ffffffffffffffffffffffffffffffffffffffff168173ffffffffffffffffffffffffffffffffffffffff161415610d2d573373ffffffffffffffffffffffffffffffffffffffff166108fc3073ffffffffffffffffffffffffffffffffffffffff16319081150290604051600060405180830381858888f19350505050158015610d27573d6000803e3d6000fd5b50610e10565b610e0f338273ffffffffffffffffffffffffffffffffffffffff166370a08231306040518263ffffffff1660e01b8152600401808273ffffffffffffffffffffffffffffffffffffffff1673ffffffffffffffffffffffffffffffffffffffff16815260200191505060206040518083038186803b158015610dae57600080fd5b505afa158015610dc2573d6000803e3d6000fd5b505050506040513d6020811015610dd857600080fd5b81019080805190602001909291905050508373ffffffffffffffffffffffffffffffffffffffff166122629092919063ffffffff16565b5b50565b610e1b6117c2565b610e8d576040517f08c379a00000000000000000000000000000000000000000000000000000000081526004018080602001828103825260208152602001807f4f776e61626c653a2063616c6c6572206973206e6f7420746865206f776e657281525060200191505060405180910390fd5b600560009054906101000a900473ffffffffffffffffffffffffffffffffffffffff1673ffffffffffffffffffffffffffffffffffffffff1663f2fde38b826040518263ffffffff1660e01b8152600401808273ffffffffffffffffffffffffffffffffffffffff1673ffffffffffffffffffffffffffffffffffffffff168152602001915050600060405180830381600087803b158015610f2e57600080fd5b505af1158015610f42573d6000803e3d6000fd5b505050508073ffffffffffffffffffffffffffffffffffffffff166310731a656040518163ffffffff1660e01b8152600401600060405180830381600087803b158015610f8e57600080fd5b505af1158015610fa2573d6000803e3d6000fd5b5050505050565b610fb16117c2565b611023576040517f08c379a00000000000000000000000000000000000000000000000000000000081526004018080602001828103825260208152602001807f4f776e61626c653a2063616c6c6572206973206e6f7420746865206f776e657281525060200191505060405180910390fd5b80600760146101000a81548161ffff021916908361ffff16021790555050565b600760009054906101000a900473ffffffffffffffffffffffffffffffffffffffff1681565b600160009054906101000a900473ffffffffffffffffffffffffffffffffffffffff1673ffffffffffffffffffffffffffffffffffffffff166110aa612333565b73ffffffffffffffffffffffffffffffffffffffff1614611116576040517f08c379a000000000000000000000000000000000000000000000000000000000815260040180806020018281038252602a815260200180613206602a913960400191505060405180910390fd5b611141600160009054906101000a900473ffffffffffffffffffffffffffffffffffffffff1661233b565b600160006101000a81549073ffffffffffffffffffffffffffffffffffffffff0219169055565b60008484600560009054906101000a900473ffffffffffffffffffffffffffffffffffffffff168585604051602001808681526020018581526020018473ffffffffffffffffffffffffffffffffffffffff1673ffffffffffffffffffffffffffffffffffffffff1681526020018373ffffffffffffffffffffffffffffffffffffffff1673ffffffffffffffffffffffffffffffffffffffff16815260200182815260200195505050505050604051602081830303815290604052805190602001209050949350505050565b60086020528060005260406000206000915054906101000a900460ff1681565b600360009054906101000a900460ff1681565b6112706117c2565b6112e2576040517f08c379a00000000000000000000000000000000000000000000000000000000081526004018080602001828103825260208152602001807f4f776e61626c653a2063616c6c6572206973206e6f7420746865206f776e657281525060200191505060405180910390fd5b600073ffffffffffffffffffffffffffffffffffffffff166000809054906101000a900473ffffffffffffffffffffffffffffffffffffffff1673ffffffffffffffffffffffffffffffffffffffff167f8be0079c531659141344cd1fd0a4f28419497f9722a3daafe3b4186f6b6457e060405160405180910390a360008060006101000a81548173ffffffffffffffffffffffffffffffffffffffff021916908373ffffffffffffffffffffffffffffffffffffffff160217905550565b6000808351141561141a576040517f08c379a000000000000000000000000000000000000000000000000000000000815260040180806020018281038252601c8152602001807f536869667465723a20746f206164647265737320697320656d7074790000000081525060200191505060405180910390fd5b600454821015611475576040517f08c379a00000000000000000000000000000000000000000000000000000000081526004018080602001828103825260388152602001806131ad6038913960400191505060405180910390fd5b60006114b26127106114a4600760169054906101000a900461ffff1661ffff168661247f90919063ffffffff16565b61250590919063ffffffff16565b9050600560009054906101000a900473ffffffffffffffffffffffffffffffffffffffff1673ffffffffffffffffffffffffffffffffffffffff16639dc29fac33856040518363ffffffff1660e01b8152600401808373ffffffffffffffffffffffffffffffffffffffff1673ffffffffffffffffffffffffffffffffffffffff16815260200182815260200192505050600060405180830381600087803b15801561155d57600080fd5b505af1158015611571573d6000803e3d6000fd5b50505050600560009054906101000a900473ffffffffffffffffffffffffffffffffffffffff1673ffffffffffffffffffffffffffffffffffffffff166340c10f19600760009054906101000a900473ffffffffffffffffffffffffffffffffffffffff16836040518363ffffffff1660e01b8152600401808373ffffffffffffffffffffffffffffffffffffffff1673ffffffffffffffffffffffffffffffffffffffff16815260200182815260200192505050600060405180830381600087803b15801561164057600080fd5b505af1158015611654573d6000803e3d6000fd5b50505050600061166d828561254f90919063ffffffff16565b9050846040518082805190602001908083835b602083106116a35780518252602082019150602081019050602083039250611680565b6001836020036101000a03801982511681845116808217855250505050505090500191505060405180910390206009547f2275318eaeb892d338c6737eebf5f31747c1eab22b63ccbc00cd93d4e785c11687846040518080602001838152602001828103825284818151815260200191508051906020019080838360005b8381101561173c578082015181840152602081019050611721565b50505050905090810190601f1680156117695780820380516001836020036101000a031916815260200191505b50935050505060405180910390a36001600960008282540192505081905550809250505092915050565b60045481565b60008060009054906101000a900473ffffffffffffffffffffffffffffffffffffffff16905090565b60008060009054906101000a900473ffffffffffffffffffffffffffffffffffffffff1673ffffffffffffffffffffffffffffffffffffffff16611804612333565b73ffffffffffffffffffffffffffffffffffffffff1614905090565b600660009054906101000a900473ffffffffffffffffffffffffffffffffffffffff1681565b600760169054906101000a900461ffff1681565b6118626117c2565b6118d4576040517f08c379a00000000000000000000000000000000000000000000000000000000081526004018080602001828103825260208152602001807f4f776e61626c653a2063616c6c6572206973206e6f7420746865206f776e657281525060200191505060405180910390fd5b80600760166101000a81548161ffff021916908361ffff16021790555050565b60095481565b60008061190986863387611168565b9050600015156008600083815260200190815260200160002060009054906101000a900460ff16151514611988576040517f08c379a000000000000000000000000000000000000000000000000000000000815260040180806020018281038252602181526020018061327e6021913960400191505060405180910390fd5b6119928184611d40565b611aa957611a08604051806060016040528060238152602001613106602391396119bb83612599565b6040518060400160405280600a81526020017f2c207369676e65723a2000000000000000000000000000000000000000000000815250611a036119fe86896127f4565b6128f8565b612b79565b6040517f08c379a00000000000000000000000000000000000000000000000000000000081526004018080602001828103825283818151815260200191508051906020019080838360005b83811015611a6e578082015181840152602081019050611a53565b50505050905090810190601f168015611a9b5780820380516001836020036101000a031916815260200191505b509250505060405180910390fd5b60016008600083815260200190815260200160002060006101000a81548160ff0219169083151502179055506000611b12612710611b04600760149054906101000a900461ffff1661ffff168961247f90919063ffffffff16565b61250590919063ffffffff16565b90506000611b29828861254f90919063ffffffff16565b9050600560009054906101000a900473ffffffffffffffffffffffffffffffffffffffff1673ffffffffffffffffffffffffffffffffffffffff166340c10f1933836040518363ffffffff1660e01b8152600401808373ffffffffffffffffffffffffffffffffffffffff1673ffffffffffffffffffffffffffffffffffffffff16815260200182815260200192505050600060405180830381600087803b158015611bd457600080fd5b505af1158015611be8573d6000803e3d6000fd5b50505050600560009054906101000a900473ffffffffffffffffffffffffffffffffffffffff1673ffffffffffffffffffffffffffffffffffffffff166340c10f19600760009054906101000a900473ffffffffffffffffffffffffffffffffffffffff16846040518363ffffffff1660e01b8152600401808373ffffffffffffffffffffffffffffffffffffffff1673ffffffffffffffffffffffffffffffffffffffff16815260200182815260200192505050600060405180830381600087803b158015611cb757600080fd5b505af1158015611ccb573d6000803e3d6000fd5b50505050826009543373ffffffffffffffffffffffffffffffffffffffff167f66519073cf8fb3a91e4ee5a511c26928b523e9641f0aed760af126159fb37502846040518082815260200191505060405180910390a46001600960008282540192505081905550809350505050949350505050565b6000611d4c83836127f4565b73ffffffffffffffffffffffffffffffffffffffff16600660009054906101000a900473ffffffffffffffffffffffffffffffffffffffff1673ffffffffffffffffffffffffffffffffffffffff1614905092915050565b600760149054906101000a900461ffff1681565b600160009054906101000a900473ffffffffffffffffffffffffffffffffffffffff1681565b611de66117c2565b611e58576040517f08c379a00000000000000000000000000000000000000000000000000000000081526004018080602001828103825260208152602001807f4f776e61626c653a2063616c6c6572206973206e6f7420746865206f776e657281525060200191505060405180910390fd5b8060048190555050565b611e6a6117c2565b611edc576040517f08c379a00000000000000000000000000000000000000000000000000000000081526004018080602001828103825260208152602001807f4f776e61626c653a2063616c6c6572206973206e6f7420746865206f776e657281525060200191505060405180910390fd5b600073ffffffffffffffffffffffffffffffffffffffff168173ffffffffffffffffffffffffffffffffffffffff161415611f62576040517f08c379a00000000000000000000000000000000000000000000000000000000081526004018080602001828103825260248152602001806132306024913960400191505060405180910390fd5b80600760006101000a81548173ffffffffffffffffffffffffffffffffffffffff021916908373ffffffffffffffffffffffffffffffffffffffff16021790555050565b611fae6117c2565b612020576040517f08c379a00000000000000000000000000000000000000000000000000000000081526004018080602001828103825260208152602001807f4f776e61626c653a2063616c6c6572206973206e6f7420746865206f776e657281525060200191505060405180910390fd5b612028611799565b73ffffffffffffffffffffffffffffffffffffffff168173ffffffffffffffffffffffffffffffffffffffff16141580156120b15750600160009054906101000a900473ffffffffffffffffffffffffffffffffffffffff1673ffffffffffffffffffffffffffffffffffffffff168173ffffffffffffffffffffffffffffffffffffffff1614155b612123576040517f08c379a000000000000000000000000000000000000000000000000000000000815260040180806020018281038252601c8152602001807f436c61696d61626c653a20696e76616c6964206e6577206f776e65720000000081525060200191505060405180910390fd5b80600160006101000a81548173ffffffffffffffffffffffffffffffffffffffff021916908373ffffffffffffffffffffffffffffffffffffffff16021790555050565b61216f6117c2565b6121e1576040517f08c379a00000000000000000000000000000000000000000000000000000000081526004018080602001828103825260208152602001807f4f776e61626c653a2063616c6c6572206973206e6f7420746865206f776e657281525060200191505060405180910390fd5b6001600260008373ffffffffffffffffffffffffffffffffffffffff1673ffffffffffffffffffffffffffffffffffffffff16815260200190815260200160002060006101000a81548160ff02191690831515021790555050565b600560009054906101000a900473ffffffffffffffffffffffffffffffffffffffff1681565b61232e838473ffffffffffffffffffffffffffffffffffffffff1663a9059cbb905060e01b8484604051602401808373ffffffffffffffffffffffffffffffffffffffff1673ffffffffffffffffffffffffffffffffffffffff16815260200182815260200192505050604051602081830303815290604052907bffffffffffffffffffffffffffffffffffffffffffffffffffffffff19166020820180517bffffffffffffffffffffffffffffffffffffffffffffffffffffffff8381831617835250505050612ce9565b505050565b600033905090565b600073ffffffffffffffffffffffffffffffffffffffff168173ffffffffffffffffffffffffffffffffffffffff1614156123c1576040517f08c379a000000000000000000000000000000000000000000000000000000000815260040180806020018281038252602681526020018061315d6026913960400191505060405180910390fd5b8073ffffffffffffffffffffffffffffffffffffffff166000809054906101000a900473ffffffffffffffffffffffffffffffffffffffff1673ffffffffffffffffffffffffffffffffffffffff167f8be0079c531659141344cd1fd0a4f28419497f9722a3daafe3b4186f6b6457e060405160405180910390a3806000806101000a81548173ffffffffffffffffffffffffffffffffffffffff021916908373ffffffffffffffffffffffffffffffffffffffff16021790555050565b60008083141561249257600090506124ff565b60008284029050828482816124a357fe5b04146124fa576040517f08c379a00000000000000000000000000000000000000000000000000000000081526004018080602001828103825260218152602001806131e56021913960400191505060405180910390fd5b809150505b92915050565b600061254783836040518060400160405280601a81526020017f536166654d6174683a206469766973696f6e206279207a65726f000000000000815250612f34565b905092915050565b600061259183836040518060400160405280601e81526020017f536166654d6174683a207375627472616374696f6e206f766572666c6f770000815250612ffa565b905092915050565b6060806040518060400160405280601081526020017f30313233343536373839616263646566000000000000000000000000000000008152509050606060426040519080825280601f01601f19166020018201604052801561260a5781602001600182028038833980820191505090505b5090507f30000000000000000000000000000000000000000000000000000000000000008160008151811061263b57fe5b60200101907effffffffffffffffffffffffffffffffffffffffffffffffffffffffffffff1916908160001a9053507f78000000000000000000000000000000000000000000000000000000000000008160018151811061269857fe5b60200101907effffffffffffffffffffffffffffffffffffffffffffffffffffffffffffff1916908160001a90535060008090505b60208110156127e9578260048683602081106126e557fe5b1a60f81b7effffffffffffffffffffffffffffffffffffffffffffffffffffffffffffff1916901c60f81c60ff168151811061271d57fe5b602001015160f81c60f81b82600283026002018151811061273a57fe5b60200101907effffffffffffffffffffffffffffffffffffffffffffffffffffffffffffff1916908160001a90535082600f60f81b86836020811061277b57fe5b1a60f81b1660f81c60ff168151811061279057fe5b602001015160f81c60f81b8260028302600301815181106127ad57fe5b60200101907effffffffffffffffffffffffffffffffffffffffffffffffffffffffffffff1916908160001a90535080806001019150506126cd565b508092505050919050565b6000604182511461280857600090506128f2565b60008060006020850151925060408501519150606085015160001a90507f7fffffffffffffffffffffffffffffff5d576e7357a4501ddfe92f46681b20a08260001c111561285c57600093505050506128f2565b601b8160ff16141580156128745750601c8160ff1614155b1561288557600093505050506128f2565b60018682858560405160008152602001604052604051808581526020018460ff1660ff1681526020018381526020018281526020019450505050506020604051602081039080840390855afa1580156128e2573d6000803e3d6000fd5b5050506020604051035193505050505b92915050565b606060008273ffffffffffffffffffffffffffffffffffffffff1660001b905060606040518060400160405280601081526020017f303132333435363738396162636465660000000000000000000000000000000081525090506060602a6040519080825280601f01601f1916602001820160405280156129885781602001600182028038833980820191505090505b5090507f3000000000000000000000000000000000000000000000000000000000000000816000815181106129b957fe5b60200101907effffffffffffffffffffffffffffffffffffffffffffffffffffffffffffff1916908160001a9053507f780000000000000000000000000000000000000000000000000000000000000081600181518110612a1657fe5b60200101907effffffffffffffffffffffffffffffffffffffffffffffffffffffffffffff1916908160001a90535060008090505b6014811015612b6d5782600485600c840160208110612a6657fe5b1a60f81b7effffffffffffffffffffffffffffffffffffffffffffffffffffffffffffff1916901c60f81c60ff1681518110612a9e57fe5b602001015160f81c60f81b826002830260020181518110612abb57fe5b60200101907effffffffffffffffffffffffffffffffffffffffffffffffffffffffffffff1916908160001a90535082600f60f81b85600c840160208110612aff57fe5b1a60f81b1660f81c60ff1681518110612b1457fe5b602001015160f81c60f81b826002830260030181518110612b3157fe5b60200101907effffffffffffffffffffffffffffffffffffffffffffffffffffffffffffff1916908160001a9053508080600101915050612a4b565b50809350505050919050565b6060848484846040516020018085805190602001908083835b60208310612bb55780518252602082019150602081019050602083039250612b92565b6001836020036101000a03801982511681845116808217855250505050505090500184805190602001908083835b60208310612c065780518252602082019150602081019050602083039250612be3565b6001836020036101000a03801982511681845116808217855250505050505090500183805190602001908083835b60208310612c575780518252602082019150602081019050602083039250612c34565b6001836020036101000a03801982511681845116808217855250505050505090500182805190602001908083835b60208310612ca85780518252602082019150602081019050602083039250612c85565b6001836020036101000a0380198251168184511680821785525050505050509050019450505050506040516020818303038152906040529050949350505050565b612d088273ffffffffffffffffffffffffffffffffffffffff166130ba565b612d7a576040517f08c379a000000000000000000000000000000000000000000000000000000000815260040180806020018281038252601f8152602001807f5361666545524332303a2063616c6c20746f206e6f6e2d636f6e74726163740081525060200191505060405180910390fd5b600060608373ffffffffffffffffffffffffffffffffffffffff16836040518082805190602001908083835b60208310612dc95780518252602082019150602081019050602083039250612da6565b6001836020036101000a0380198251168184511680821785525050505050509050019150506000604051808303816000865af19150503d8060008114612e2b576040519150601f19603f3d011682016040523d82523d6000602084013e612e30565b606091505b509150915081612ea8576040517f08c379a00000000000000000000000000000000000000000000000000000000081526004018080602001828103825260208152602001807f5361666545524332303a206c6f772d6c6576656c2063616c6c206661696c656481525060200191505060405180910390fd5b600081511115612f2e57808060200190516020811015612ec757600080fd5b8101908080519060200190929190505050612f2d576040517f08c379a000000000000000000000000000000000000000000000000000000000815260040180806020018281038252602a815260200180613254602a913960400191505060405180910390fd5b5b50505050565b60008083118290612fe0576040517f08c379a00000000000000000000000000000000000000000000000000000000081526004018080602001828103825283818151815260200191508051906020019080838360005b83811015612fa5578082015181840152602081019050612f8a565b50505050905090810190601f168015612fd25780820380516001836020036101000a031916815260200191505b509250505060405180910390fd5b506000838581612fec57fe5b049050809150509392505050565b60008383111582906130a7576040517f08c379a00000000000000000000000000000000000000000000000000000000081526004018080602001828103825283818151815260200191508051906020019080838360005b8381101561306c578082015181840152602081019050613051565b50505050905090810190601f1680156130995780820380516001836020036101000a031916815260200191505b509250505060405180910390fd5b5060008385039050809150509392505050565b60008060007fc5d2460186f7233c927e7db2dcc703c0e500b653ca82273b7bfad8045d85a47060001b9050833f91508082141580156130fc57506000801b8214155b9250505091905056fe536869667465723a20696e76616c6964207369676e6174757265202d20686173683a20536869667465723a206d696e74417574686f726974792063616e6e6f742062652073657420746f2061646472657373207a65726f4f776e61626c653a206e6577206f776e657220697320746865207a65726f206164647265737343616e5265636c61696d546f6b656e733a20746f6b656e206973206e6f74207265636f76657261626c65536869667465723a20616d6f756e74206973206c657373207468616e20746865206d696e696d756d2073686966744f757420616d6f756e74536166654d6174683a206d756c7469706c69636174696f6e206f766572666c6f77436c61696d61626c653a2063616c6c6572206973206e6f74207468652070656e64696e67206f776e6572536869667465723a2066656520726563697069656e742063616e6e6f74206265203078305361666545524332303a204552433230206f7065726174696f6e20646964206e6f742073756363656564536869667465723a206e6f6e6365206861736820616c7265616479207370656e74a265627a7a723158207dd4b464c25bf828d05336c57f9e3fef685679ea2472fe37f714720dfaa5878264736f6c634300050c0032536869667465723a206d696e74417574686f726974792063616e6e6f742062652073657420746f2061646472657373207a65726f536869667465723a2066656520726563697069656e742063616e6e6f7420626520307830",
  "source": "pragma solidity 0.5.12;\n\nimport \"openzeppelin-solidity/contracts/math/SafeMath.sol\";\nimport \"openzeppelin-solidity/contracts/ownership/Ownable.sol\";\nimport \"openzeppelin-solidity/contracts/cryptography/ECDSA.sol\";\n\nimport \"../libraries/Claimable.sol\";\nimport \"../libraries/String.sol\";\nimport \"./ERC20Shifted.sol\";\nimport \"./IShifter.sol\";\nimport \"../libraries/CanReclaimTokens.sol\";\n\n/// @notice Shifter handles verifying mint and burn requests. A mintAuthority\n/// approves new assets to be minted by providing a digital signature. An owner\n/// of an asset can request for it to be burnt.\ncontract Shifter is IShifter, Claimable, CanReclaimTokens {\n    using SafeMath for uint256;\n\n    uint8 public version = 2;\n\n    uint256 constant BIPS_DENOMINATOR = 10000;\n    uint256 public minShiftAmount;\n\n    /// @notice Each Shifter token is tied to a specific shifted token.\n    ERC20Shifted public token;\n\n    /// @notice The mintAuthority is an address that can sign mint requests.\n    address public mintAuthority;\n\n    /// @dev feeRecipient is assumed to be an address (or a contract) that can\n    /// accept erc20 payments it cannot be 0x0.\n    /// @notice When tokens are mint or burnt, a portion of the tokens are\n    /// forwarded to a fee recipient.\n    address public feeRecipient;\n\n    /// @notice The shiftIn fee in bips.\n    uint16 public shiftInFee;\n\n    /// @notice The shiftOut fee in bips.\n    uint16 public shiftOutFee;\n\n    /// @notice Each nHash can only be seen once.\n    mapping (bytes32=>bool) public status;\n\n    // LogShiftIn and LogShiftOut contain a unique `shiftID` that identifies\n    // the mint or burn event.\n    uint256 public nextShiftID = 0;\n\n    event LogShiftIn(\n        address indexed _to,\n        uint256 _amount,\n        uint256 indexed _shiftID,\n        bytes32 indexed _signedMessageHash\n    );\n    event LogShiftOut(\n        bytes _to,\n        uint256 _amount,\n        uint256 indexed _shiftID,\n        bytes indexed _indexedTo\n    );\n\n    /// @param _token The ERC20Shifted this Shifter is responsible for.\n    /// @param _feeRecipient The recipient of burning and minting fees.\n    /// @param _mintAuthority The address of the key that can sign mint\n    ///        requests.\n    /// @param _shiftInFee The amount subtracted each shiftIn request and\n    ///        forwarded to the feeRecipient. In BIPS.\n    /// @param _shiftOutFee The amount subtracted each shiftOut request and\n    ///        forwarded to the feeRecipient. In BIPS.\n    constructor(ERC20Shifted _token, address _feeRecipient, address _mintAuthority, uint16 _shiftInFee, uint16 _shiftOutFee, uint256 _minShiftOutAmount) public {\n        minShiftAmount = _minShiftOutAmount;\n        token = _token;\n        shiftInFee = _shiftInFee;\n        shiftOutFee = _shiftOutFee;\n        updateMintAuthority(_mintAuthority);\n        updateFeeRecipient(_feeRecipient);\n    }\n\n    // Public functions ////////////////////////////////////////////////////////\n\n    /// @notice Claims ownership of the token passed in to the constructor.\n    /// `transferStoreOwnership` must have previously been called.\n    /// Anyone can call this function.\n    function claimTokenOwnership() public {\n        token.claimOwnership();\n    }\n\n    /// @notice Allow the owner to update the owner of the ERC20Shifted token.\n    function transferTokenOwnership(Shifter _nextTokenOwner) public onlyOwner {\n        token.transferOwnership(address(_nextTokenOwner));\n        _nextTokenOwner.claimTokenOwnership();\n    }\n\n    /// @notice Allow the owner to update the fee recipient.\n    ///\n    /// @param _nextMintAuthority The address to start paying fees to.\n    function updateMintAuthority(address _nextMintAuthority) public onlyOwner {\n        require(_nextMintAuthority != address(0), \"Shifter: mintAuthority cannot be set to address zero\");\n        mintAuthority = _nextMintAuthority;\n    }\n\n    /// @notice Allow the owner to update the minimum shiftOut amount.\n    ///\n    /// @param _minShiftOutAmount The new min shiftOut amount.\n    function updateMinimumShiftOutAmount(uint256 _minShiftOutAmount) public onlyOwner {\n        minShiftAmount = _minShiftOutAmount;\n    }\n\n    /// @notice Allow the owner to update the fee recipient.\n    ///\n    /// @param _nextFeeRecipient The address to start paying fees to.\n    function updateFeeRecipient(address _nextFeeRecipient) public onlyOwner {\n        // ShiftIn and ShiftOut will fail if the feeRecipient is 0x0\n        require(_nextFeeRecipient != address(0x0), \"Shifter: fee recipient cannot be 0x0\");\n\n        feeRecipient = _nextFeeRecipient;\n    }\n\n    /// @notice Allow the owner to update the shiftIn fee.\n    ///\n    /// @param _nextFee The new fee for minting and burning.\n    function updateShiftInFee(uint16 _nextFee) public onlyOwner {\n        shiftInFee = _nextFee;\n    }\n\n    /// @notice Allow the owner to update the shiftOut fee.\n    ///\n    /// @param _nextFee The new fee for minting and burning.\n    function updateShiftOutFee(uint16 _nextFee) public onlyOwner {\n        shiftOutFee = _nextFee;\n    }\n\n    /// @notice shiftIn mints tokens after taking a fee for the `_feeRecipient`.\n    ///\n    /// @param _pHash (payload hash) The hash of the payload associated with the\n    ///        shift.\n    /// @param _amount The amount of the token being shifted int, in its\n    ///        smallest value. (e.g. satoshis for BTC)\n    /// @param _nHash (nonce hash) The hash of the nonce, amount and pHash.\n    /// @param _sig The signature of the hash of the following values:\n    ///        (pHash, amount, msg.sender, nHash), signed by the mintAuthority.\n    function shiftIn(bytes32 _pHash, uint256 _amount, bytes32 _nHash, bytes memory _sig) public returns (uint256) {\n        // Verify signature\n        bytes32 signedMessageHash = hashForSignature(_pHash, _amount, msg.sender, _nHash);\n        require(status[signedMessageHash] == false, \"Shifter: nonce hash already spent\");\n        if (!verifySignature(signedMessageHash, _sig)) {\n            // Return a detailed string containing the hash and recovered\n            // signer. This is somewhat costly but is only run in the revert\n            // branch.\n            revert(\n                String.add4(\n                    \"Shifter: invalid signature - hash: \",\n                    String.fromBytes32(signedMessageHash),\n                    \", signer: \",\n                    String.fromAddress(ECDSA.recover(signedMessageHash, _sig))\n                )\n            );\n        }\n        status[signedMessageHash] = true;\n\n        // Mint `amount - fee` for the recipient and mint `fee` for the minter\n        uint256 absoluteFee = _amount.mul(shiftInFee).div(BIPS_DENOMINATOR);\n        uint256 receivedAmount = _amount.sub(absoluteFee);\n        token.mint(msg.sender, receivedAmount);\n        token.mint(feeRecipient, absoluteFee);\n\n        // Emit a log with a unique shift ID\n        emit LogShiftIn(msg.sender, receivedAmount, nextShiftID, signedMessageHash);\n        nextShiftID += 1;\n\n        return receivedAmount;\n    }\n\n    /// @notice shiftOut burns tokens after taking a fee for the `_feeRecipient`.\n    ///\n    /// @param _to The address to receive the unshifted digital asset. The\n    ///        format of this address should be of the destination chain.\n    ///        For example, when shifting out to Bitcoin, _to should be a\n    ///        Bitcoin address.\n    /// @param _amount The amount of the token being shifted out, in its\n    ///        smallest value. (e.g. satoshis for BTC)\n    function shiftOut(bytes memory _to, uint256 _amount) public returns (uint256) {\n        // The recipient must not be empty. Better validation is possible,\n        // but would need to be customized for each destination ledger.\n        require(_to.length != 0, \"Shifter: to address is empty\");\n        require(_amount >= minShiftAmount, \"Shifter: amount is less than the minimum shiftOut amount\");\n\n        // Burn full amount and mint fee\n        uint256 absoluteFee = _amount.mul(shiftOutFee).div(BIPS_DENOMINATOR);\n        token.burn(msg.sender, _amount);\n        token.mint(feeRecipient, absoluteFee);\n\n        // Emit a log with a unique shift ID\n        uint256 receivedValue = _amount.sub(absoluteFee);\n        emit LogShiftOut(_to, receivedValue, nextShiftID, _to);\n        nextShiftID += 1;\n\n        return receivedValue;\n    }\n\n    /// @notice verifySignature checks the the provided signature matches the provided\n    /// parameters.\n    function verifySignature(bytes32 _signedMessageHash, bytes memory _sig) public view returns (bool) {\n        return mintAuthority == ECDSA.recover(_signedMessageHash, _sig);\n    }\n\n    /// @notice hashForSignature hashes the parameters so that they can be signed.\n    function hashForSignature(bytes32 _pHash, uint256 _amount, address _to, bytes32 _nHash) public view returns (bytes32) {\n        return keccak256(abi.encode(_pHash, _amount, address(token), _to, _nHash));\n    }\n}\n\n/// @dev The following are not necessary for deploying BTCShifter or ZECShifter\n/// contracts, but are used to track deployments.\ncontract BTCShifter is Shifter {\n    constructor(ERC20Shifted _token, address _feeRecipient, address _mintAuthority, uint16 _shiftInFee, uint16 _shiftOutFee, uint256 _minShiftOutAmount)\n        Shifter(_token, _feeRecipient, _mintAuthority, _shiftInFee, _shiftOutFee, _minShiftOutAmount) public {\n        }\n}\n\ncontract ZECShifter is Shifter {\n    constructor(ERC20Shifted _token, address _feeRecipient, address _mintAuthority, uint16 _shiftInFee, uint16 _shiftOutFee, uint256 _minShiftOutAmount)\n        Shifter(_token, _feeRecipient, _mintAuthority, _shiftInFee, _shiftOutFee, _minShiftOutAmount) public {\n        }\n}\n\ncontract BCHShifter is Shifter {\n    constructor(ERC20Shifted _token, address _feeRecipient, address _mintAuthority, uint16 _shiftInFee, uint16 _shiftOutFee, uint256 _minShiftOutAmount)\n        Shifter(_token, _feeRecipient, _mintAuthority, _shiftInFee, _shiftOutFee, _minShiftOutAmount) public {\n        }\n}",
  "sourcePath": "/home/ray/0confirmation-mono/node_modules/darknode-sol/contracts/Shifter/Shifter.sol",
  "compiler": {
    "name": "solc",
    "version": "0.5.12+commit.7709ece9.Linux.g++"
  },
  "schemaVersion": "3.0.23",
  "updatedAt": "2020-03-08T19:15:48.069Z",
  "devdoc": {
    "methods": {
      "isOwner()": {
        "details": "Returns true if the caller is the current owner."
      },
      "owner()": {
        "details": "Returns the address of the current owner."
      },
      "renounceOwnership()": {
        "details": "Leaves the contract without owner. It will not be possible to call `onlyOwner` functions anymore. Can only be called by the current owner.     * NOTE: Renouncing ownership will leave the contract without an owner, thereby removing any functionality that is only available to the owner."
      },
      "shiftIn(bytes32,uint256,bytes32,bytes)": {
        "params": {
          "_amount": "The amount of the token being shifted int, in its        smallest value. (e.g. satoshis for BTC)",
          "_nHash": "(nonce hash) The hash of the nonce, amount and pHash.",
          "_pHash": "(payload hash) The hash of the payload associated with the        shift.",
          "_sig": "The signature of the hash of the following values:        (pHash, amount, msg.sender, nHash), signed by the mintAuthority."
        }
      },
      "shiftOut(bytes,uint256)": {
        "params": {
          "_amount": "The amount of the token being shifted out, in its        smallest value. (e.g. satoshis for BTC)",
          "_to": "The address to receive the unshifted digital asset. The        format of this address should be of the destination chain.        For example, when shifting out to Bitcoin, _to should be a        Bitcoin address."
        }
      },
      "updateFeeRecipient(address)": {
        "params": {
          "_nextFeeRecipient": "The address to start paying fees to."
        }
      },
      "updateMinimumShiftOutAmount(uint256)": {
        "params": {
          "_minShiftOutAmount": "The new min shiftOut amount."
        }
      },
      "updateMintAuthority(address)": {
        "params": {
          "_nextMintAuthority": "The address to start paying fees to."
        }
      },
      "updateShiftInFee(uint16)": {
        "params": {
          "_nextFee": "The new fee for minting and burning."
        }
      },
      "updateShiftOutFee(uint16)": {
        "params": {
          "_nextFee": "The new fee for minting and burning."
        }
      }
    }
  },
  "userdoc": {
    "methods": {
      "claimTokenOwnership()": {
        "notice": "Claims ownership of the token passed in to the constructor. `transferStoreOwnership` must have previously been called. Anyone can call this function."
      },
      "hashForSignature(bytes32,uint256,address,bytes32)": {
        "notice": "hashForSignature hashes the parameters so that they can be signed."
      },
      "recoverTokens(address)": {
        "notice": "Allow the owner of the contract to recover funds accidentally sent to the contract. To withdraw ETH, the token should be set to `0x0`."
      },
      "shiftIn(bytes32,uint256,bytes32,bytes)": {
        "notice": "shiftIn mints tokens after taking a fee for the `_feeRecipient`. "
      },
      "shiftOut(bytes,uint256)": {
        "notice": "shiftOut burns tokens after taking a fee for the `_feeRecipient`. "
      },
      "transferTokenOwnership(address)": {
        "notice": "Allow the owner to update the owner of the ERC20Shifted token."
      },
      "updateFeeRecipient(address)": {
        "notice": "Allow the owner to update the fee recipient. "
      },
      "updateMinimumShiftOutAmount(uint256)": {
        "notice": "Allow the owner to update the minimum shiftOut amount. "
      },
      "updateMintAuthority(address)": {
        "notice": "Allow the owner to update the fee recipient. "
      },
      "updateShiftInFee(uint16)": {
        "notice": "Allow the owner to update the shiftIn fee. "
      },
      "updateShiftOutFee(uint16)": {
        "notice": "Allow the owner to update the shiftOut fee. "
      },
      "verifySignature(bytes32,bytes)": {
        "notice": "verifySignature checks the the provided signature matches the provided parameters."
      }
    }
  }
}