{
  "contractName": "BorrowProxy",
  "abi": [
    {
      "inputs": [],
      "stateMutability": "nonpayable",
      "type": "constructor"
    },
    {
      "inputs": [
        {
          "internalType": "address",
          "name": "to",
          "type": "address"
        },
        {
          "internalType": "uint256",
          "name": "value",
          "type": "uint256"
        },
        {
          "internalType": "bytes",
          "name": "payload",
          "type": "bytes"
        }
      ],
      "name": "proxy",
      "outputs": [],
      "stateMutability": "nonpayable",
      "type": "function"
    }
  ],
  "bytecode": "0x608060405234801561001057600080fd5b50336000800160006101000a81548173ffffffffffffffffffffffffffffffffffffffff021916908373ffffffffffffffffffffffffffffffffffffffff1602179055506000800160009054906101000a900473ffffffffffffffffffffffffffffffffffffffff1673ffffffffffffffffffffffffffffffffffffffff16637b3b00be6040518163ffffffff1660e01b8152600401602060405180830381600087803b1580156100c057600080fd5b505af11580156100d4573d6000803e3d6000fd5b505050506040513d601f19601f820116820180604052506100f89190810190610155565b600060010160006101000a81548173ffffffffffffffffffffffffffffffffffffffff021916908373ffffffffffffffffffffffffffffffffffffffff1602179055506101c7565b60008151905061014f816101b0565b92915050565b60006020828403121561016757600080fd5b600061017584828501610140565b91505092915050565b600061018982610190565b9050919050565b600073ffffffffffffffffffffffffffffffffffffffff82169050919050565b6101b98161017e565b81146101c457600080fd5b50565b610c36806101d66000396000f3fe608060405234801561001057600080fd5b506004361061002b5760003560e01c80632692f25a14610030575b600080fd5b61004a6004803603610045919081019061066a565b61004c565b005b600060010160009054906101000a900473ffffffffffffffffffffffffffffffffffffffff1673ffffffffffffffffffffffffffffffffffffffff163373ffffffffffffffffffffffffffffffffffffffff16146100df576040517f08c379a00000000000000000000000000000000000000000000000000000000081526004016100d690610a06565b60405180910390fd5b6000800160149054906101000a900460ff16156101b357600060608473ffffffffffffffffffffffffffffffffffffffff168484604051610120919061090a565b60006040518083038185875af1925050503d806000811461015d576040519150601f19603f3d011682016040523d82523d6000602084013e610162565b606091505b50915091508181906101aa576040517f08c379a00000000000000000000000000000000000000000000000000000000081526004016101a191906109a4565b60405180910390fd5b50805160208201f35b60006101d46101cf60006004856102dc9092919063ffffffff16565b610314565b60001c60e01b90506101e46104a2565b600073__BorrowProxyLib________________________632f1a48af909187856040518463ffffffff1660e01b815260040161022293929190610a26565b60606040518083038186803b15801561023a57600080fd5b505af415801561024e573d6000803e3d6000fd5b505050506040513d601f19601f8201168201806040525061027291908101906106d1565b90506102818160200151610343565b6102c0576040517f08c379a00000000000000000000000000000000000000000000000000000000081526004016102b7906109e6565b60405180910390fd5b6102d58385836103809092919063ffffffff16565b5050505050565b6102e46104d8565b60006020850184019050808260000181815250508282602001818152505083826040018181525050509392505050565b60008082600001519050600083602001519050600180600883021b038082602003840351169350505050919050565b60008073ffffffffffffffffffffffffffffffffffffffff16826000015173ffffffffffffffffffffffffffffffffffffffff1614159050919050565b600083602001516000015173ffffffffffffffffffffffffffffffffffffffff1684602001516000015185602001516020015132876000015186886040516020016103d096959493929190610921565b6040516020818303038152906040526040516103ec919061090a565b600060405180830381855af49150503d8060008114610427576040519150601f19603f3d011682016040523d82523d6000602084013e61042c565b606091505b505090507fd4d735e6fca37f665167e8c0726859b3dd898e339b366d2367d88b38de12a07c8160405161045f9190610989565b60405180910390a16040517f08c379a0000000000000000000000000000000000000000000000000000000008152600401610499906109c6565b60405180910390fd5b6040518060400160405280600073ffffffffffffffffffffffffffffffffffffffff1681526020016104d26104f9565b81525090565b60405180606001604052806000815260200160008152602001600081525090565b6040518060400160405280600073ffffffffffffffffffffffffffffffffffffffff168152602001600073ffffffffffffffffffffffffffffffffffffffff1681525090565b60008135905061054e81610bd2565b92915050565b60008151905061056381610bd2565b92915050565b600082601f83011261057a57600080fd5b813561058d61058882610a8a565b610a5d565b915080825260208301602083018583830111156105a957600080fd5b6105b4838284610b7f565b50505092915050565b6000606082840312156105cf57600080fd5b6105d96040610a5d565b905060006105e984828501610554565b60008301525060206105fd84828501610609565b60208301525092915050565b60006040828403121561061b57600080fd5b6106256040610a5d565b9050600061063584828501610554565b600083015250602061064984828501610554565b60208301525092915050565b60008135905061066481610be9565b92915050565b60008060006060848603121561067f57600080fd5b600061068d8682870161053f565b935050602061069e86828701610655565b925050604084013567ffffffffffffffff8111156106bb57600080fd5b6106c786828701610569565b9150509250925092565b6000606082840312156106e357600080fd5b60006106f1848285016105bd565b91505092915050565b61070381610b0b565b82525050565b61071281610af9565b82525050565b61072181610af9565b82525050565b61073081610b1d565b82525050565b61073f81610b29565b82525050565b600061075082610ab6565b61075a8185610acc565b935061076a818560208601610b8e565b61077381610bc1565b840191505092915050565b600061078982610ab6565b6107938185610add565b93506107a3818560208601610b8e565b80840191505092915050565b60006107ba82610ac1565b6107c48185610ae8565b93506107d4818560208601610b8e565b6107dd81610bc1565b840191505092915050565b60006107f5602783610ae8565b91507f6d6f64756c6520646964206e6f74207265736f6c766520696e2061207465726d60008301527f696e6174696f6e000000000000000000000000000000000000000000000000006020830152604082019050919050565b600061085b601f83610ae8565b91507f66756e6374696f6e2068616e646c6572206e6f742072656769737465726564006000830152602082019050919050565b600061089b602983610ae8565b91507f626f72726f772070726f78792063616e206f6e6c79206265207573656420627960008301527f20626f72726f77657200000000000000000000000000000000000000000000006020830152604082019050919050565b8082525050565b61090481610b75565b82525050565b6000610916828461077e565b915081905092915050565b600060c0820190506109366000830189610709565b6109436020830188610709565b61095060408301876106fa565b61095d6060830186610709565b61096a60808301856108fb565b81810360a083015261097c8184610745565b9050979650505050505050565b600060208201905061099e6000830184610727565b92915050565b600060208201905081810360008301526109be81846107af565b905092915050565b600060208201905081810360008301526109df816107e8565b9050919050565b600060208201905081810360008301526109ff8161084e565b9050919050565b60006020820190508181036000830152610a1f8161088e565b9050919050565b6000606082019050610a3b60008301866108f4565b610a486020830185610718565b610a556040830184610736565b949350505050565b6000604051905081810181811067ffffffffffffffff82111715610a8057600080fd5b8060405250919050565b600067ffffffffffffffff821115610aa157600080fd5b601f19601f8301169050602081019050919050565b600081519050919050565b600081519050919050565b600082825260208201905092915050565b600081905092915050565b600082825260208201905092915050565b6000610b0482610b55565b9050919050565b6000610b1682610b55565b9050919050565b60008115159050919050565b60007fffffffff0000000000000000000000000000000000000000000000000000000082169050919050565b600073ffffffffffffffffffffffffffffffffffffffff82169050919050565b6000819050919050565b82818337600083830152505050565b60005b83811015610bac578082015181840152602081019050610b91565b83811115610bbb576000848401525b50505050565b6000601f19601f8301169050919050565b610bdb81610af9565b8114610be657600080fd5b50565b610bf281610b75565b8114610bfd57600080fd5b5056fea26469706673582212206b0b9a69f402120d31f208b3c589ec8210e14edef7673927a9605e1b2f27d30364736f6c63430006030033",
  "source": "pragma solidity ^0.6.2;\npragma experimental ABIEncoderV2;\n\nimport { BorrowProxyLib } from \"./BorrowProxyLib.sol\";\nimport { SliceLib } from \"./utils/SliceLib.sol\";\nimport { IShifter } from \"./interfaces/IShifter.sol\";\nimport { IBorrowProxyController } from \"./interfaces/IBorrowProxyController.sol\";\n\ncontract BorrowProxy {\n  using SliceLib for *;\n  using BorrowProxyLib for *;\n  BorrowProxyLib.ProxyIsolate isolate;\n  modifier onlyOwner {\n   require(msg.sender == isolate.owner, \"borrow proxy can only be used by borrower\");\n    _;\n  }\n  constructor() public {\n    isolate.masterAddress = msg.sender;\n    isolate.owner = IBorrowProxyController(isolate.masterAddress).getProxyOwnerHandler();\n  } \n  function validateProxyRecord(bytes memory record) internal returns (bool) {\n    return IBorrowProxyController(isolate.masterAddress).validateProxyRecordHandler(record);\n  }\n  function proxy(address to, uint256 value, bytes memory payload) public onlyOwner {\n    if (isolate.unbound) {\n      (bool success, bytes memory retval) = to.call.value(value)(payload);\n      require(success, string(retval));\n      assembly {\n        return(add(retval, 0x20), mload(retval))\n      }\n    }\n    bytes4 sig = bytes4(uint32(uint256(payload.toSlice(0, 4).asWord())));\n    BorrowProxyLib.ModuleExecution memory module = isolate.fetchModule(to, sig);\n    require(module.encapsulated.isDefined(), \"function handler not registered\");\n    module.delegate(payload, value);\n  }\n}\n",
  "sourcePath": "/home/ray/0confirmation-mono/packages/0confirmation-sol/contracts/BorrowProxy.sol",
  "compiler": {
    "name": "solc",
    "version": "0.6.3+commit.8dda9521.Linux.g++"
  },
  "schemaVersion": "3.0.23",
  "updatedAt": "2020-03-02T07:04:26.455Z",
  "devdoc": {
    "methods": {}
  },
  "userdoc": {
    "methods": {}
  }
}