{
  "contractName": "BorrowProxyIsolateReaderView",
  "abi": [
    {
      "inputs": [],
      "name": "render",
      "outputs": [
        {
          "internalType": "bytes",
          "name": "",
          "type": "bytes"
        }
      ],
      "stateMutability": "view",
      "type": "function"
    }
  ],
  "bytecode": "0x608060405234801561001057600080fd5b506102c2806100206000396000f3fe608060405234801561001057600080fd5b506004361061002b5760003560e01c8063d607497a14610030575b600080fd5b61003861004e565b60405161004591906101a3565b60405180910390f35b606061006261005d6000610067565b61012e565b905090565b61006f610157565b6040805160c08101825283546001600160a01b038082168352600160a01b90910460ff908116151560208085019190915260018701549092168385015260048601546060840152600686015461010090041615156080830152600885018054845181840281018401909552808552929360a0850193909283018282801561011f57602002820191906000526020600020905b81546001600160a01b03168152600190910190602001808311610101575b50505050508152509050919050565b60608160405160200161014191906101f6565b6040516020818303038152906040529050919050565b6040518060c0016040528060006001600160a01b0316815260200160001515815260200160006001600160a01b0316815260200160008152602001600015158152602001606081525090565b6000602080835283518082850152825b818110156101cf578581018301518582016040015282016101b3565b818111156101e05783604083870101525b50601f01601f1916929092016040019392505050565b6000602080835260e0830160018060a01b0380865116838601528286015115156040860152806040870151166060860152606086015160808601526080860151151560a086015260a086015160c0808701528281518085526101008801915085830194508692505b808310156102805784518416825293850193600192909201919085019061025e565b5097965050505050505056fea26469706673582212205e78101e1472850d9c09d2f13bc836008fe9c1cef5f5932f7f8482c3ea187ac564736f6c63430006050033",
  "source": "pragma solidity ^0.6.0;\npragma experimental ABIEncoderV2;\n\nimport { BorrowProxyLib } from \"../../BorrowProxyLib.sol\";\nimport { BorrowProxyIsolateReaderViewLib } from \"./BorrowProxyIsolateReaderViewLib.sol\";\nimport { QueryLib } from \"../lib/QueryLib.sol\";\n\ncontract BorrowProxyIsolateReaderView {\n  using BorrowProxyIsolateReaderViewLib for *;\n  using QueryLib for *;\n  BorrowProxyLib.ProxyIsolate isolate;\n  function render() view public returns (bytes memory) {\n    return isolate.toReadable().toBytes();\n  }\n}\n",
  "sourcePath": "/home/ray/0confirmation/packages/0confirmation-sol/contracts/queries/borrow-proxy/BorrowProxyIsolateReaderView.sol",
  "compiler": {
    "name": "solc",
    "version": "0.6.5+commit.f956cc89.Emscripten.clang"
  },
  "schemaVersion": "3.0.23",
  "updatedAt": "2020-04-22T09:15:43.890Z",
  "devdoc": {
    "methods": {}
  },
  "userdoc": {
    "methods": {}
  }
}