{
  "contractName": "BorrowProxy",
  "abi": [
    {
      "stateMutability": "payable",
      "type": "fallback"
    },
    {
      "stateMutability": "payable",
      "type": "receive"
    },
    {
      "inputs": [
        {
          "internalType": "address",
          "name": "owner",
          "type": "address"
        },
        {
          "internalType": "address",
          "name": "token",
          "type": "address"
        },
        {
          "internalType": "bool",
          "name": "unbound",
          "type": "bool"
        }
      ],
      "name": "setup",
      "outputs": [
        {
          "internalType": "bool",
          "name": "",
          "type": "bool"
        }
      ],
      "stateMutability": "nonpayable",
      "type": "function"
    },
    {
      "inputs": [
        {
          "internalType": "address",
          "name": "to",
          "type": "address"
        },
        {
          "internalType": "uint256",
          "name": "value",
          "type": "uint256"
        },
        {
          "internalType": "bytes",
          "name": "payload",
          "type": "bytes"
        }
      ],
      "name": "proxy",
      "outputs": [],
      "stateMutability": "nonpayable",
      "type": "function"
    }
  ],
  "bytecode": "0x608060405234801561001057600080fd5b50610d4e806100206000396000f3fe60806040526004361061002d5760003560e01c80632692f25a1461003657806329c8702d1461005657610034565b3661003457005b005b34801561004257600080fd5b506100346100513660046108dd565b61008c565b34801561006257600080fd5b50610076610071366004610893565b6102b2565b6040516100839190610acd565b60405180910390f35b6001546001600160a01b03163314806100af57506000546001600160a01b031633145b806100b957503330145b6100de5760405162461bcd60e51b81526004016100d590610b52565b60405180910390fd5b60006100fa6100f58383600463ffffffff61033616565b61035f565b60e01b9050610107610827565b6101196000868463ffffffff61037e16565b6002546001600160a01b03166020820152600054909150600160a01b900460ff1680156101495750604081015151155b156101ec5760006060866001600160a01b0316868660405161016b9190610a8e565b60006040518083038185875af1925050503d80600081146101a8576040519150601f19603f3d011682016040523d82523d6000602084013e6101ad565b606091505b5091509150816101d9576101c081610431565b60405162461bcd60e51b81526004016100d59190610ad8565b6101e38282610524565b505050506102ad565b6101f98160400151610539565b6102155760405162461bcd60e51b81526004016100d590610b1b565b6000606061022a83868863ffffffff61054b16565b915091508161023c576101c081610431565b60408084015101516001600160a01b03161561026c57604080840151015161026c9060079063ffffffff61065b16565b6040830151606001516001600160a01b03161561029e5760408301516060015161029e9060099063ffffffff61065b16565b6102a88282610524565b505050505b505050565b6001546000906001600160a01b0316156102de5760405162461bcd60e51b81526004016100d590610aeb565b5060008054600180546001600160a01b039687166001600160a01b0319918216178255931515600160a01b0260ff60a01b19928516331792909216919091179091556002805493909416929091169190911790915590565b61033e61084b565b61034884846106b5565b815260208101919091526040810191909152919050565b805160208201516000919061037482826106bc565b925050505b919050565b610386610827565b604080516060810182526001600160a01b03808616825260028701548116602083015286548351630220891b60e51b815292938401929116906344112360906103d59088908890600401610aaa565b608060405180830381600087803b1580156103ef57600080fd5b505af1158015610403573d6000803e3d6000fd5b505050506040513d601f19601f8201168201806040525081019061042791906109ed565b9052949350505050565b6060815160001415610477575060408051808201909152601c81527f636170747572656420656d7074792072657665727420627566666572000000006020820152610379565b6308c379a061048c6100f58460006004610336565b63ffffffff16146104b7576040518060600160405280603f8152602001610cda603f91399050610379565b60606104d26104cd84600463ffffffff6106d916565b610704565b905080516000141561051957505060408051808201909152601d81527f636170747572656420656d70747920726576657274206d6573736167650000006020820152610379565b606061037482610774565b8161053157805181602001fd5b805181602001f35b602001516001600160a01b0316151590565b60006060600060608660400151602001516001600160a01b03165a6105fe6040518061010001604052808b60400151602001516001600160a01b031681526020018b60400151604001516001600160a01b031681526020018b60400151606001516001600160a01b031681526020018b602001516001600160a01b03168152602001326001600160a01b031681526020018b600001516001600160a01b031681526020018981526020018a815250610790565b60405161060b9190610a8e565b6000604051808303818686f4925050503d8060008114610647576040519150601f19603f3d011682016040523d82523d6000602084013e61064c565b606091505b50909890975095505050505050565b6001600160a01b03811660009081526020839052604090205460ff1615610681576106b1565b6001828101805491820181556000908152602090200180546001600160a01b0319166001600160a01b0383161790555b5050565b0160200190565b6000600180600884021b0380836020038503511691505092915050565b6106e161084b565b81835110156106ef57825191505b6106fd838384865103610336565b9392505050565b60208101516060908067ffffffffffffffff8111801561072357600080fd5b506040519080825280601f01601f19166020018201604052801561074e576020820181803683370190505b508351909250600061075f846107e3565b905061076c8183856107e9565b505050919050565b60608180602001905181019061078a9190610977565b92915050565b6060633c52e5a160e01b826040516024016107ab9190610b9b565b60408051601f198184030181529190526020810180516001600160e01b03166001600160e01b03199093169290921790915292915050565b60200190565b5b60208110610809578151835260209283019290910190601f19016107ea565b600180600883602003021b0380845116811984511617845250505050565b604080516060810182526000808252602082015290810161084661086c565b905290565b60405180606001604052806000815260200160008152602001600081525090565b60408051608081018252600080825260208201819052918101829052606081019190915290565b6000806000606084860312156108a7578283fd5b83356108b281610cb3565b925060208401356108c281610cb3565b915060408401356108d281610ccb565b809150509250925092565b6000806000606084860312156108f1578283fd5b83356108fc81610cb3565b925060208401359150604084013567ffffffffffffffff81111561091e578182fd5b80850186601f82011261092f578283fd5b8035915061094461093f83610c5f565b610c38565b828152876020848401011115610958578384fd5b8260208301602083013783602084830101528093505050509250925092565b600060208284031215610988578081fd5b815167ffffffffffffffff81111561099e578182fd5b80830184601f8201126109af578283fd5b805191506109bf61093f83610c5f565b8281528560208484010111156109d3578384fd5b6109e4836020830160208501610c83565b95945050505050565b6000608082840312156109fe578081fd5b610a086080610c38565b8251610a1381610ccb565b81526020830151610a2381610cb3565b60208201526040830151610a3681610cb3565b60408201526060830151610a4981610cb3565b60608201529392505050565b6001600160a01b03169052565b60008151808452610a7a816020860160208601610c83565b601f01601f19169290920160200192915050565b60008251610aa0818460208701610c83565b9190910192915050565b6001600160a01b039290921682526001600160e01b031916602082015260400190565b901515815260200190565b6000602082526106fd6020830184610a62565b60208082526016908201527563616e277420696e697469616c697a6520747769636560501b604082015260600190565b6020808252601f908201527f66756e6374696f6e2068616e646c6572206e6f74207265676973746572656400604082015260600190565b60208082526029908201527f626f72726f772070726f78792063616e206f6e6c792062652075736564206279604082015268103137b93937bbb2b960b91b606082015260800190565b60006020825260018060a01b03808451166020840152806020850151166040840152506040830151610bd06060840182610a55565b506060830151610be36080840182610a55565b506080830151610bf660a0840182610a55565b5060a0830151610c0960c0840182610a55565b5060c083015160e083015260e0830151610100808185015250610c30610120840182610a62565b949350505050565b60405181810167ffffffffffffffff81118282101715610c5757600080fd5b604052919050565b600067ffffffffffffffff821115610c75578081fd5b50601f01601f191660200190565b60005b83811015610c9e578181015183820152602001610c86565b83811115610cad576000848401525b50505050565b6001600160a01b0381168114610cc857600080fd5b50565b8015158114610cc857600080fdfe6361707475726564206120726576657274206572726f722c2062757420697420646f65736e277420636f6e666f726d20746f20746865207374616e64617264a264697066735822122094a73cb82cd32416ba3d75659fdaca4845f588d3711b1e8221075b197b30adf364736f6c63430006080033",
  "immutableReferences": {},
  "source": "// SPDX-License-Identifier: MIT\npragma solidity ^0.6.0;\npragma experimental ABIEncoderV2;\n\nimport { BorrowProxyLib } from \"./BorrowProxyLib.sol\";\nimport { RevertCaptureLib } from \"./utils/RevertCaptureLib.sol\";\nimport { SliceLib } from \"./utils/SliceLib.sol\";\nimport { IShifter } from \"./interfaces/IShifter.sol\";\nimport { IBorrowProxyController } from \"./interfaces/IBorrowProxyController.sol\";\nimport { AddressSetLib } from \"./utils/AddressSetLib.sol\";\nimport { ModuleLib } from \"./adapters/lib/ModuleLib.sol\";\n\ncontract BorrowProxy {\n  using SliceLib for *;\n  using BorrowProxyLib for *;\n  using AddressSetLib for *;\n  BorrowProxyLib.ProxyIsolate isolate;\n  modifier onlyOwnerOrPool {\n   require(msg.sender == isolate.owner || msg.sender == isolate.masterAddress || msg.sender == address(this), \"borrow proxy can only be used by borrower\");\n    _;\n  }\n  function setup(address owner, address token, bool unbound) public returns (bool) {\n    require(isolate.owner == address(0x0), \"can't initialize twice\");\n    isolate.masterAddress = msg.sender;\n    isolate.owner = owner;\n    isolate.unbound = unbound;\n    isolate.token = token;\n    return true;\n  }\n  function validateProxyRecord(bytes memory record) internal returns (bool) {\n    return IBorrowProxyController(isolate.masterAddress).validateProxyRecordHandler(record);\n  }\n  function proxy(address to, uint256 value, bytes memory payload) public onlyOwnerOrPool {\n    bytes4 sig = bytes4(uint32(uint256(payload.toSlice(0, 4).asWord())));\n    BorrowProxyLib.ModuleExecution memory module = isolate.fetchModule(to, sig);\n    module.token = isolate.token;\n    if (isolate.unbound && !module.encapsulated.isPrecompiled) {\n      (bool success, bytes memory retval) = to.call{\n        value: value\n      }(payload);\n      if (!success) revert(RevertCaptureLib.decodeError(retval));\n      ModuleLib.bubbleResult(success, retval);\n      return;\n    }\n    require(module.encapsulated.isDefined(), \"function handler not registered\");\n    (bool success, bytes memory retval) = module.delegate(payload, value);\n    if (!success) revert(RevertCaptureLib.decodeError(retval));\n    if (module.encapsulated.liquidationSubmodule != address(0x0)) isolate.liquidationSet.insert(module.encapsulated.liquidationSubmodule);\n    if (module.encapsulated.repaymentSubmodule != address(0x0)) {\n      isolate.repaymentSet.insert(module.encapsulated.repaymentSubmodule);\n    }\n    ModuleLib.bubbleResult(success, retval);\n  }\n  receive() external payable virtual {\n    // just receive ether, do nothing\n  } \n  fallback() external payable virtual {}\n}\n",
  "sourcePath": "/home/ray/0cf-mation/packages/0confirmation-sol/contracts/BorrowProxy.sol",
  "compiler": {
    "name": "solc",
    "version": "0.6.8+commit.0bbfe453.Emscripten.clang"
  },
  "schemaVersion": "3.2.0",
  "updatedAt": "2020-05-26T02:26:27.560Z",
  "devdoc": {
    "methods": {}
  },
  "userdoc": {
    "methods": {}
  }
}