{
  "contractName": "BorrowProxy",
  "abi": [
    {
      "stateMutability": "payable",
      "type": "fallback"
    },
    {
      "stateMutability": "payable",
      "type": "receive"
    },
    {
      "inputs": [
        {
          "internalType": "address",
          "name": "owner",
          "type": "address"
        },
        {
          "internalType": "address",
          "name": "token",
          "type": "address"
        }
      ],
      "name": "setup",
      "outputs": [
        {
          "internalType": "bool",
          "name": "",
          "type": "bool"
        }
      ],
      "stateMutability": "nonpayable",
      "type": "function"
    },
    {
      "inputs": [
        {
          "internalType": "address",
          "name": "to",
          "type": "address"
        },
        {
          "internalType": "uint256",
          "name": "value",
          "type": "uint256"
        },
        {
          "internalType": "bytes",
          "name": "payload",
          "type": "bytes"
        }
      ],
      "name": "proxy",
      "outputs": [],
      "stateMutability": "nonpayable",
      "type": "function"
    }
  ],
  "bytecode": "0x608060405234801561001057600080fd5b50610d18806100206000396000f3fe60806040526004361061002d5760003560e01c80632692f25a146100365780632d34ba791461005657610034565b3661003457005b005b34801561004257600080fd5b506100346100513660046108b1565b61008c565b34801561006257600080fd5b50610076610071366004610879565b6102b2565b6040516100839190610aa5565b60405180910390f35b6001546001600160a01b03163314806100af57506000546001600160a01b031633145b806100b957503330145b6100de5760405162461bcd60e51b81526004016100d590610b2a565b60405180910390fd5b60006100fa6100f58383600463ffffffff61031c16565b610345565b60e01b905061010761080d565b6101196000868463ffffffff61036416565b6002546001600160a01b03166020820152600054909150600160a01b900460ff1680156101495750604081015151155b156101ec5760006060866001600160a01b0316868660405161016b9190610a66565b60006040518083038185875af1925050503d80600081146101a8576040519150601f19603f3d011682016040523d82523d6000602084013e6101ad565b606091505b5091509150816101d9576101c081610417565b60405162461bcd60e51b81526004016100d59190610ab0565b6101e3828261050a565b505050506102ad565b6101f9816040015161051f565b6102155760405162461bcd60e51b81526004016100d590610af3565b6000606061022a83868863ffffffff61053116565b915091508161023c576101c081610417565b60408084015101516001600160a01b03161561026c57604080840151015161026c9060079063ffffffff61064116565b6040830151606001516001600160a01b03161561029e5760408301516060015161029e9060099063ffffffff61064116565b6102a8828261050a565b505050505b505050565b6001546000906001600160a01b0316156102de5760405162461bcd60e51b81526004016100d590610ac3565b5060008054336001600160a01b0319918216179091556001805482166001600160a01b03948516178155600280549092169290931691909117905590565b610324610831565b61032e848461069b565b815260208101919091526040810191909152919050565b805160208201516000919061035a82826106a2565b925050505b919050565b61036c61080d565b604080516060810182526001600160a01b03808616825260028701548116602083015286548351630220891b60e51b815292938401929116906344112360906103bb9088908890600401610a82565b608060405180830381600087803b1580156103d557600080fd5b505af11580156103e9573d6000803e3d6000fd5b505050506040513d601f19601f8201168201806040525081019061040d91906109c1565b9052949350505050565b606081516000141561045d575060408051808201909152601c81527f636170747572656420656d707479207265766572742062756666657200000000602082015261035f565b6308c379a06104726100f5846000600461031c565b63ffffffff161461049d576040518060600160405280603f8152602001610ca4603f9139905061035f565b60606104b86104b384600463ffffffff6106bf16565b6106ea565b90508051600014156104ff57505060408051808201909152601d81527f636170747572656420656d70747920726576657274206d657373616765000000602082015261035f565b606061035a8261075a565b8161051757805181602001fd5b805181602001f35b602001516001600160a01b0316151590565b60006060600060608660400151602001516001600160a01b03165a6105e46040518061010001604052808b60400151602001516001600160a01b031681526020018b60400151604001516001600160a01b031681526020018b60400151606001516001600160a01b031681526020018b602001516001600160a01b03168152602001326001600160a01b031681526020018b600001516001600160a01b031681526020018981526020018a815250610776565b6040516105f19190610a66565b6000604051808303818686f4925050503d806000811461062d576040519150601f19603f3d011682016040523d82523d6000602084013e610632565b606091505b50909890975095505050505050565b6001600160a01b03811660009081526020839052604090205460ff161561066757610697565b6001828101805491820181556000908152602090200180546001600160a01b0319166001600160a01b0383161790555b5050565b0160200190565b6000600180600884021b0380836020038503511691505092915050565b6106c7610831565b81835110156106d557825191505b6106e383838486510361031c565b9392505050565b60208101516060908067ffffffffffffffff8111801561070957600080fd5b506040519080825280601f01601f191660200182016040528015610734576020820181803683370190505b5083519092506000610745846107c9565b90506107528183856107cf565b505050919050565b606081806020019051810190610770919061094b565b92915050565b6060633c52e5a160e01b826040516024016107919190610b73565b60408051601f198184030181529190526020810180516001600160e01b03166001600160e01b03199093169290921790915292915050565b60200190565b5b602081106107ef578151835260209283019290910190601f19016107d0565b600180600883602003021b0380845116811984511617845250505050565b604080516060810182526000808252602082015290810161082c610852565b905290565b60405180606001604052806000815260200160008152602001600081525090565b60408051608081018252600080825260208201819052918101829052606081019190915290565b6000806040838503121561088b578182fd5b823561089681610c8b565b915060208301356108a681610c8b565b809150509250929050565b6000806000606084860312156108c5578081fd5b83356108d081610c8b565b925060208401359150604084013567ffffffffffffffff8111156108f2578182fd5b80850186601f820112610903578283fd5b8035915061091861091383610c37565b610c10565b82815287602084840101111561092c578384fd5b8260208301602083013783602084830101528093505050509250925092565b60006020828403121561095c578081fd5b815167ffffffffffffffff811115610972578182fd5b80830184601f820112610983578283fd5b8051915061099361091383610c37565b8281528560208484010111156109a7578384fd5b6109b8836020830160208501610c5b565b95945050505050565b6000608082840312156109d2578081fd5b6109dc6080610c10565b825180151581146109eb578283fd5b815260208301516109fb81610c8b565b60208201526040830151610a0e81610c8b565b60408201526060830151610a2181610c8b565b60608201529392505050565b6001600160a01b03169052565b60008151808452610a52816020860160208601610c5b565b601f01601f19169290920160200192915050565b60008251610a78818460208701610c5b565b9190910192915050565b6001600160a01b039290921682526001600160e01b031916602082015260400190565b901515815260200190565b6000602082526106e36020830184610a3a565b60208082526016908201527563616e277420696e697469616c697a6520747769636560501b604082015260600190565b6020808252601f908201527f66756e6374696f6e2068616e646c6572206e6f74207265676973746572656400604082015260600190565b60208082526029908201527f626f72726f772070726f78792063616e206f6e6c792062652075736564206279604082015268103137b93937bbb2b960b91b606082015260800190565b60006020825260018060a01b03808451166020840152806020850151166040840152506040830151610ba86060840182610a2d565b506060830151610bbb6080840182610a2d565b506080830151610bce60a0840182610a2d565b5060a0830151610be160c0840182610a2d565b5060c083015160e083015260e0830151610100808185015250610c08610120840182610a3a565b949350505050565b60405181810167ffffffffffffffff81118282101715610c2f57600080fd5b604052919050565b600067ffffffffffffffff821115610c4d578081fd5b50601f01601f191660200190565b60005b83811015610c76578181015183820152602001610c5e565b83811115610c85576000848401525b50505050565b6001600160a01b0381168114610ca057600080fd5b5056fe6361707475726564206120726576657274206572726f722c2062757420697420646f65736e277420636f6e666f726d20746f20746865207374616e64617264a2646970667358221220c89a8d6cfacd28d1f621411ad64a05e16c371dd66c9dfb30f916a99dbb04067b64736f6c63430006060033",
  "immutableReferences": {},
  "source": "pragma solidity ^0.6.0;\npragma experimental ABIEncoderV2;\n\nimport { BorrowProxyLib } from \"./BorrowProxyLib.sol\";\nimport { RevertCaptureLib } from \"./utils/RevertCaptureLib.sol\";\nimport { SliceLib } from \"./utils/SliceLib.sol\";\nimport { ViewExecutor } from \"./utils/ViewExecutor.sol\";\nimport { IShifter } from \"./interfaces/IShifter.sol\";\nimport { IBorrowProxyController } from \"./interfaces/IBorrowProxyController.sol\";\nimport { AddressSetLib } from \"./utils/AddressSetLib.sol\";\nimport { ModuleLib } from \"./adapters/lib/ModuleLib.sol\";\n\ncontract BorrowProxy {\n  using SliceLib for *;\n  using BorrowProxyLib for *;\n  using AddressSetLib for *;\n  BorrowProxyLib.ProxyIsolate isolate;\n  modifier onlyOwnerOrPool {\n   require(msg.sender == isolate.owner || msg.sender == isolate.masterAddress || msg.sender == address(this), \"borrow proxy can only be used by borrower\");\n    _;\n  }\n  function setup(address owner, address token) public returns (bool) {\n    require(isolate.owner == address(0x0), \"can't initialize twice\");\n    isolate.masterAddress = msg.sender;\n    isolate.owner = owner;\n    isolate.token = token;\n    return true;\n  }\n  function validateProxyRecord(bytes memory record) internal returns (bool) {\n    return IBorrowProxyController(isolate.masterAddress).validateProxyRecordHandler(record);\n  }\n  function proxy(address to, uint256 value, bytes memory payload) public onlyOwnerOrPool {\n    bytes4 sig = bytes4(uint32(uint256(payload.toSlice(0, 4).asWord())));\n    BorrowProxyLib.ModuleExecution memory module = isolate.fetchModule(to, sig);\n    module.token = isolate.token;\n    if (isolate.unbound && !module.encapsulated.isPrecompiled) {\n      (bool success, bytes memory retval) = to.call{\n        value: value\n      }(payload);\n      if (!success) revert(RevertCaptureLib.decodeError(retval));\n      ModuleLib.bubbleResult(success, retval);\n      return;\n    }\n    require(module.encapsulated.isDefined(), \"function handler not registered\");\n    (bool success, bytes memory retval) = module.delegate(payload, value);\n    if (!success) revert(RevertCaptureLib.decodeError(retval));\n    if (module.encapsulated.liquidationSubmodule != address(0x0)) isolate.liquidationSet.insert(module.encapsulated.liquidationSubmodule);\n    if (module.encapsulated.repaymentSubmodule != address(0x0)) {\n      isolate.repaymentSet.insert(module.encapsulated.repaymentSubmodule);\n    }\n    ModuleLib.bubbleResult(success, retval);\n  }\n  receive() external payable virtual {\n    // just receive ether, do nothing\n  } \n  fallback() external payable virtual {}\n}\n",
  "sourcePath": "/Users/ray/0confirmation/packages/0confirmation-sol/contracts/BorrowProxy.sol",
  "compiler": {
    "name": "solc",
    "version": "0.6.6+commit.6c089d02.Emscripten.clang"
  },
  "schemaVersion": "3.1.0",
  "updatedAt": "2020-04-27T14:05:18.174Z",
  "devdoc": {
    "methods": {}
  },
  "userdoc": {
    "methods": {}
  }
}