{
  "contractName": "BorrowProxy",
  "abi": [
    {
      "inputs": [
        {
          "internalType": "address",
          "name": "delegateTo",
          "type": "address"
        },
        {
          "internalType": "bytes",
          "name": "callData",
          "type": "bytes"
        }
      ],
      "name": "_executeQuery",
      "outputs": [
        {
          "internalType": "bytes",
          "name": "",
          "type": "bytes"
        }
      ],
      "stateMutability": "nonpayable",
      "type": "function"
    },
    {
      "inputs": [
        {
          "internalType": "address",
          "name": "viewLogic",
          "type": "address"
        },
        {
          "internalType": "bytes",
          "name": "payload",
          "type": "bytes"
        }
      ],
      "name": "query",
      "outputs": [
        {
          "internalType": "bytes",
          "name": "",
          "type": "bytes"
        }
      ],
      "stateMutability": "view",
      "type": "function"
    },
    {
      "inputs": [
        {
          "internalType": "address",
          "name": "owner",
          "type": "address"
        }
      ],
      "name": "setup",
      "outputs": [
        {
          "internalType": "bool",
          "name": "",
          "type": "bool"
        }
      ],
      "stateMutability": "nonpayable",
      "type": "function"
    },
    {
      "inputs": [
        {
          "internalType": "address",
          "name": "to",
          "type": "address"
        },
        {
          "internalType": "uint256",
          "name": "value",
          "type": "uint256"
        },
        {
          "internalType": "bytes",
          "name": "payload",
          "type": "bytes"
        }
      ],
      "name": "proxy",
      "outputs": [],
      "stateMutability": "nonpayable",
      "type": "function"
    }
  ],
  "bytecode": "0x608060405234801561001057600080fd5b50610c95806100206000396000f3fe608060405234801561001057600080fd5b506004361061004c5760003560e01c806323e3b730146100515780632692f25a1461007a57806366d382031461008f578063fd00430c146100af575b600080fd5b61006461005f366004610804565b6100c2565b6040516100719190610a5f565b60405180910390f35b61008d610088366004610852565b61015f565b005b6100a261009d3660046107e8565b610335565b6040516100719190610a54565b6100646100bd366004610804565b610391565b60603330146100ec5760405162461bcd60e51b81526004016100e390610ad9565b60405180910390fd5b60006060846001600160a01b03168460405161010891906109c5565b600060405180830381855af49150503d8060008114610143576040519150601f19603f3d011682016040523d82523d6000602084013e610148565b606091505b50915091508161015757600080fd5b949350505050565b6001546001600160a01b031633146101895760405162461bcd60e51b81526004016100e390610b1b565b600054600160a01b900460ff161561022e5760006060846001600160a01b031684846040516101b891906109c5565b60006040518083038185875af1925050503d80600081146101f5576040519150601f19603f3d011682016040523d82523d6000602084013e6101fa565b606091505b5091509150816102265761020d81610457565b60405162461bcd60e51b81526004016100e39190610a5f565b805160208201f35b600061024a6102458383600463ffffffff61055516565b610572565b60e01b9050610257610735565b604051632f1a48af60e01b815273__BorrowProxyLib________________________90632f1a48af906102939060009089908790600401610b64565b60606040518083038186803b1580156102ab57600080fd5b505af41580156102bf573d6000803e3d6000fd5b505050506040513d601f19601f820116820180604052506102e3919081019061091f565b90506102f28160200151610594565b61030e5760405162461bcd60e51b81526004016100e390610aa2565b6000606061032383868863ffffffff6105a316565b91509150816102265761020d81610457565b6001546000906001600160a01b0316156103615760405162461bcd60e51b81526004016100e390610a72565b5060008054336001600160a01b031991821617909155600180549091166001600160a01b0383161781555b919050565b606060006060846001600160a01b031685856040516024016103b4929190610a30565b60408051601f198184030181529181526020820180516001600160e01b031663023e3b7360e41b179052516103e991906109c5565b600060405180830381855afa9150503d8060008114610424576040519150601f19603f3d011682016040523d82523d6000602084013e610429565b606091505b509150915081819061044e5760405162461bcd60e51b81526004016100e39190610a5f565b50949350505050565b606081516000141561049d575060408051808201909152601c81527f636170747572656420656d707479207265766572742062756666657200000000602082015261038c565b6308c379a06104b26102458460006004610555565b63ffffffff16146104dd576040518060600160405280603f8152602001610c21603f9139905061038c565b60606104f86104f384600463ffffffff61067c16565b6106a7565b905080516000141561053f57505060408051808201909152601d81527f636170747572656420656d70747920726576657274206d657373616765000000602082015261038c565b60608180602001905161015791908101906108a9565b61055d61075d565b92820160209081018452830152604082015290565b805160209182015191829003900351600160089092029190911b600019011690565b516001600160a01b0316151590565b6020808401518051908201518551604051600094606094869486946001600160a01b038316946105da943292918c918e91016109e1565b60408051601f19818403018152908290526105f4916109c5565b600060405180830381855af49150503d806000811461062f576040519150601f19603f3d011682016040523d82523d6000602084013e610634565b606091505b50915091507f1b9f3768cbe72e841e624814d886be188a27ee82b1477e16b88834a3ba535c16826040516106689190610a54565b60405180910390a190969095509350505050565b61068461075d565b818351101561069257825191505b6106a0838384865103610555565b9392505050565b60208082015160408051828152601f19601f840116810190930190526060918180156106da576020820181803883390190505b508351909250602083016106ef8183856106f7565b505050919050565b5b60208110610717578151835260209283019290910190601f19016106f8565b600180600883602003021b0380845116811984511617845250505050565b604051806040016040528060006001600160a01b0316815260200161075861077e565b905290565b60405180606001604052806000815260200160008152602001600081525090565b604080518082019091526000808252602082015290565b600082601f8301126107a5578081fd5b81356107b86107b382610bb4565b610b8d565b91508082528360208285010111156107cf57600080fd5b8060208401602084013760009082016020015292915050565b6000602082840312156107f9578081fd5b81356106a081610c08565b60008060408385031215610816578081fd5b823561082181610c08565b9150602083013567ffffffffffffffff81111561083c578182fd5b61084885828601610795565b9150509250929050565b600080600060608486031215610866578081fd5b833561087181610c08565b925060208401359150604084013567ffffffffffffffff811115610893578182fd5b61089f86828701610795565b9150509250925092565b6000602082840312156108ba578081fd5b815167ffffffffffffffff8111156108d0578182fd5b80830184601f8201126108e1578283fd5b805191506108f16107b383610bb4565b828152856020848401011115610905578384fd5b610916836020830160208501610bd8565b95945050505050565b60008183036060811215610931578182fd5b61093b6040610b8d565b835161094681610c08565b81526040601f1983011215610959578283fd5b6109636040610b8d565b9150602084015161097381610c08565b8252604084015161098381610c08565b6020838101919091528101919091529392505050565b600081518084526109b1816020860160208601610bd8565b601f01601f19169290920160200192915050565b600082516109d7818460208701610bd8565b9190910192915050565b6001600160a01b03878116825286811660208301528581166040830152841660608201526080810183905260c060a08201819052600090610a2490830184610999565b98975050505050505050565b6001600160a01b038316815260406020820181905260009061015790830184610999565b901515815260200190565b6000602082526106a06020830184610999565b60208082526016908201527563616e277420696e697469616c697a6520747769636560501b604082015260600190565b6020808252601f908201527f66756e6374696f6e2068616e646c6572206e6f74207265676973746572656400604082015260600190565b60208082526022908201527f756e617574686f72697a65642076696577206c617965722064656c656761746960408201526137b760f11b606082015260800190565b60208082526029908201527f626f72726f772070726f78792063616e206f6e6c792062652075736564206279604082015268103137b93937bbb2b960b91b606082015260800190565b9283526001600160a01b039190911660208301526001600160e01b031916604082015260600190565b60405181810167ffffffffffffffff81118282101715610bac57600080fd5b604052919050565b600067ffffffffffffffff821115610bca578081fd5b50601f01601f191660200190565b60005b83811015610bf3578181015183820152602001610bdb565b83811115610c02576000848401525b50505050565b6001600160a01b0381168114610c1d57600080fd5b5056fe6361707475726564206120726576657274206572726f722c2062757420697420646f65736e277420636f6e666f726d20746f20746865207374616e64617264a264697066735822122020acb37067f18b53efdd1b43454821c271645f2bdb8dd29132e74f548d731fb064736f6c63430006020033",
  "source": "pragma solidity ^0.6.0;\npragma experimental ABIEncoderV2;\n\nimport { BorrowProxyLib } from \"./BorrowProxyLib.sol\";\nimport { RevertCaptureLib } from \"./utils/RevertCaptureLib.sol\";\nimport { SliceLib } from \"./utils/SliceLib.sol\";\nimport { ViewExecutor } from \"./utils/ViewExecutor.sol\";\nimport { IShifter } from \"./interfaces/IShifter.sol\";\nimport { IBorrowProxyController } from \"./interfaces/IBorrowProxyController.sol\";\n\ncontract BorrowProxy is ViewExecutor {\n  using SliceLib for *;\n  using BorrowProxyLib for *;\n  BorrowProxyLib.ProxyIsolate isolate;\n  modifier onlyOwner {\n   require(msg.sender == isolate.owner, \"borrow proxy can only be used by borrower\");\n    _;\n  }\n  function setup(address owner) public returns (bool) {\n    require(isolate.owner == address(0x0), \"can't initialize twice\");\n    isolate.masterAddress = msg.sender;\n    isolate.owner = owner;\n    return true;\n  }\n  function validateProxyRecord(bytes memory record) internal returns (bool) {\n    return IBorrowProxyController(isolate.masterAddress).validateProxyRecordHandler(record);\n  }\n  function proxy(address to, uint256 value, bytes memory payload) public onlyOwner {\n    if (isolate.unbound) {\n      (bool success, bytes memory retval) = to.call.value(value)(payload);\n      if (!success) revert(RevertCaptureLib.decodeError(retval));\n      assembly {\n        return(add(retval, 0x20), mload(retval))\n      }\n    }\n    bytes4 sig = bytes4(uint32(uint256(payload.toSlice(0, 4).asWord())));\n    BorrowProxyLib.ModuleExecution memory module = isolate.fetchModule(to, sig);\n    require(module.encapsulated.isDefined(), \"function handler not registered\");\n    (bool success, bytes memory retval) = module.delegate(payload, value);\n    if (!success) revert(RevertCaptureLib.decodeError(retval));\n    assembly {\n      return(add(retval, 0x20), mload(retval))\n    }\n  }\n}\n",
  "sourcePath": "/home/ray/0confirmation/packages/0confirmation-sol/contracts/BorrowProxy.sol",
  "compiler": {
    "name": "solc",
    "version": "0.6.2+commit.bacdbe57.Emscripten.clang"
  },
  "schemaVersion": "3.0.23",
  "updatedAt": "2020-04-03T22:51:59.687Z",
  "devdoc": {
    "methods": {}
  },
  "userdoc": {
    "methods": {}
  }
}