{
  "contractName": "BorrowProxy",
  "abi": [
    {
      "inputs": [],
      "stateMutability": "nonpayable",
      "type": "constructor"
    },
    {
      "inputs": [
        {
          "internalType": "address",
          "name": "delegateTo",
          "type": "address"
        },
        {
          "internalType": "bytes",
          "name": "callData",
          "type": "bytes"
        }
      ],
      "name": "_executeQuery",
      "outputs": [
        {
          "internalType": "bytes",
          "name": "",
          "type": "bytes"
        }
      ],
      "stateMutability": "nonpayable",
      "type": "function"
    },
    {
      "inputs": [
        {
          "internalType": "address",
          "name": "viewLogic",
          "type": "address"
        },
        {
          "internalType": "bytes",
          "name": "payload",
          "type": "bytes"
        }
      ],
      "name": "query",
      "outputs": [
        {
          "internalType": "bytes",
          "name": "",
          "type": "bytes"
        }
      ],
      "stateMutability": "view",
      "type": "function"
    },
    {
      "inputs": [
        {
          "internalType": "address",
          "name": "to",
          "type": "address"
        },
        {
          "internalType": "uint256",
          "name": "value",
          "type": "uint256"
        },
        {
          "internalType": "bytes",
          "name": "payload",
          "type": "bytes"
        }
      ],
      "name": "proxy",
      "outputs": [],
      "stateMutability": "nonpayable",
      "type": "function"
    }
  ],
  "bytecode": "0x608060405234801561001057600080fd5b50600080546001600160a01b031916331780825560408051633d9d805f60e11b815290516001600160a01b039290921692637b3b00be926004808401936020939083900390910190829087803b15801561006957600080fd5b505af115801561007d573d6000803e3d6000fd5b505050506040513d601f19601f820116820180604052506100a191908101906100c6565b600180546001600160a01b0319166001600160a01b03929092169190911790556100f4565b6000602082840312156100d7578081fd5b81516001600160a01b03811681146100ed578182fd5b9392505050565b610915806101036000396000f3fe608060405234801561001057600080fd5b50600436106100415760003560e01c806323e3b730146100465780632692f25a1461006f578063fd00430c14610084575b600080fd5b6100596100543660046105aa565b610097565b6040516100669190610781565b60405180910390f35b61008261007d3660046105f8565b610118565b005b6100596100923660046105aa565b610311565b60603330146100a557600080fd5b60006060846001600160a01b0316846040516100c191906106f5565b600060405180830381855af49150503d80600081146100fc576040519150601f19603f3d011682016040523d82523d6000602084013e610101565b606091505b50915091508161011057600080fd5b949350505050565b6001546001600160a01b0316331461014b5760405162461bcd60e51b8152600401610142906107d2565b60405180910390fd5b60005474010000000000000000000000000000000000000000900460ff16156101fb5760006060846001600160a01b0316848460405161018b91906106f5565b60006040518083038185875af1925050503d80600081146101c8576040519150601f19603f3d011682016040523d82523d6000602084013e6101cd565b606091505b50915091508181906101f25760405162461bcd60e51b81526004016101429190610781565b50805160208201f35b60006102176102128383600463ffffffff6103d216565b6103ef565b60e01b90506102246104e1565b6040517f2f1a48af00000000000000000000000000000000000000000000000000000000815273__BorrowProxyLib________________________90632f1a48af90610279906000908990879060040161082f565b60606040518083038186803b15801561029157600080fd5b505af41580156102a5573d6000803e3d6000fd5b505050506040513d601f19601f820116820180604052506102c9919081019061064f565b90506102d88160200151610411565b6102f45760405162461bcd60e51b81526004016101429061079b565b606061030782858763ffffffff61042016565b9050805160208201f35b606060006060846001600160a01b0316858560405160240161033492919061075f565b60408051601f198184030181529181526020820180517bffffffffffffffffffffffffffffffffffffffffffffffffffffffff167f23e3b730000000000000000000000000000000000000000000000000000000001790525161039791906106f5565b600060405180830381855afa9150503d80600081146100fc576040519150601f19603f3d011682016040523d82523d6000602084013e610101565b6103da610509565b92820160209081018452830152604082015290565b805160209182015191829003900351600160089092029190911b600019011690565b516001600160a01b0316151590565b602080840151805190820151855160405160609460009486946001600160a01b03821694610458949293919232928b918d9101610711565b60408051601f1981840301815290829052610472916106f5565b600060405180830381855af49150503d80600081146104ad576040519150601f19603f3d011682016040523d82523d6000602084013e6104b2565b606091505b50915091508181906104d75760405162461bcd60e51b81526004016101429190610781565b5095945050505050565b604051806040016040528060006001600160a01b0316815260200161050461052a565b905290565b60405180606001604052806000815260200160008152602001600081525090565b604080518082019091526000808252602082015290565b600082601f830112610551578081fd5b813567ffffffffffffffff811115610567578182fd5b61057a601f8201601f1916602001610870565b915080825283602082850101111561059157600080fd5b8060208401602084013760009082016020015292915050565b600080604083850312156105bc578182fd5b82356105c7816108c7565b9150602083013567ffffffffffffffff8111156105e2578182fd5b6105ee85828601610541565b9150509250929050565b60008060006060848603121561060c578081fd5b8335610617816108c7565b925060208401359150604084013567ffffffffffffffff811115610639578182fd5b61064586828701610541565b9150509250925092565b60008183036060811215610661578182fd5b61066b6040610870565b8351610676816108c7565b81526040601f1983011215610689578283fd5b6106936040610870565b915060208401516106a3816108c7565b825260408401516106b3816108c7565b6020838101919091528101919091529392505050565b600081518084526106e1816020860160208601610897565b601f01601f19169290920160200192915050565b60008251610707818460208701610897565b9190910192915050565b60006001600160a01b0380891683528088166020840152808716604084015280861660608401525083608083015260c060a083015261075360c08301846106c9565b98975050505050505050565b60006001600160a01b03841682526040602083015261011060408301846106c9565b60006020825261079460208301846106c9565b9392505050565b6020808252601f908201527f66756e6374696f6e2068616e646c6572206e6f74207265676973746572656400604082015260600190565b60208082526029908201527f626f72726f772070726f78792063616e206f6e6c79206265207573656420627960408201527f20626f72726f7765720000000000000000000000000000000000000000000000606082015260800190565b9283526001600160a01b039190911660208301527fffffffff0000000000000000000000000000000000000000000000000000000016604082015260600190565b60405181810167ffffffffffffffff8111828210171561088f57600080fd5b604052919050565b60005b838110156108b257818101518382015260200161089a565b838111156108c1576000848401525b50505050565b6001600160a01b03811681146108dc57600080fd5b5056fea264697066735822122004327a57faee31fa16441d7154a3c1ba3d35538857c85e8cf6847cd632ceaa2364736f6c63430006030033",
  "source": "pragma solidity ^0.6.2;\npragma experimental ABIEncoderV2;\n\nimport { BorrowProxyLib } from \"./BorrowProxyLib.sol\";\nimport { SliceLib } from \"./utils/SliceLib.sol\";\nimport { ViewExecutor } from \"./utils/ViewExecutor.sol\";\nimport { IShifter } from \"./interfaces/IShifter.sol\";\nimport { IBorrowProxyController } from \"./interfaces/IBorrowProxyController.sol\";\n\ncontract BorrowProxy is ViewExecutor {\n  using SliceLib for *;\n  using BorrowProxyLib for *;\n  BorrowProxyLib.ProxyIsolate isolate;\n  modifier onlyOwner {\n   require(msg.sender == isolate.owner, \"borrow proxy can only be used by borrower\");\n    _;\n  }\n  constructor() public {\n    isolate.masterAddress = msg.sender;\n    isolate.owner = IBorrowProxyController(isolate.masterAddress).getProxyOwnerHandler();\n  } \n  function validateProxyRecord(bytes memory record) internal returns (bool) {\n    return IBorrowProxyController(isolate.masterAddress).validateProxyRecordHandler(record);\n  }\n  function proxy(address to, uint256 value, bytes memory payload) public onlyOwner {\n    if (isolate.unbound) {\n      (bool success, bytes memory retval) = to.call.value(value)(payload);\n      require(success, string(retval));\n      assembly {\n        return(add(retval, 0x20), mload(retval))\n      }\n    }\n    bytes4 sig = bytes4(uint32(uint256(payload.toSlice(0, 4).asWord())));\n    BorrowProxyLib.ModuleExecution memory module = isolate.fetchModule(to, sig);\n    require(module.encapsulated.isDefined(), \"function handler not registered\");\n    bytes memory retval = module.delegate(payload, value);\n    assembly {\n      return(add(retval, 0x20), mload(retval))\n    }\n  }\n}\n",
  "sourcePath": "/home/ray/0confirmation/packages/0confirmation-sol/contracts/BorrowProxy.sol",
  "compiler": {
    "name": "solc",
    "version": "0.6.3+commit.8dda9521.Emscripten.clang"
  },
  "schemaVersion": "3.0.23",
  "updatedAt": "2020-04-03T03:35:12.804Z",
  "devdoc": {
    "methods": {}
  },
  "userdoc": {
    "methods": {}
  }
}