{
  "contractName": "BorrowProxy",
  "abi": [
    {
      "stateMutability": "payable",
      "type": "fallback"
    },
    {
      "stateMutability": "payable",
      "type": "receive"
    },
    {
      "inputs": [
        {
          "internalType": "address",
          "name": "owner",
          "type": "address"
        },
        {
          "internalType": "address",
          "name": "token",
          "type": "address"
        }
      ],
      "name": "setup",
      "outputs": [
        {
          "internalType": "bool",
          "name": "",
          "type": "bool"
        }
      ],
      "stateMutability": "nonpayable",
      "type": "function"
    },
    {
      "inputs": [
        {
          "internalType": "address",
          "name": "to",
          "type": "address"
        },
        {
          "internalType": "uint256",
          "name": "value",
          "type": "uint256"
        },
        {
          "internalType": "bytes",
          "name": "payload",
          "type": "bytes"
        }
      ],
      "name": "proxy",
      "outputs": [],
      "stateMutability": "nonpayable",
      "type": "function"
    }
  ],
  "bytecode": "0x608060405234801561001057600080fd5b50610d2e806100206000396000f3fe60806040526004361061002d5760003560e01c80632692f25a146100365780632d34ba791461005657610034565b3661003457005b005b34801561004257600080fd5b50610034610051366004610878565b61008c565b34801561006257600080fd5b50610076610071366004610840565b61032c565b6040516100839190610a92565b60405180910390f35b6001546001600160a01b03163314806100af57506000546001600160a01b031633145b806100b957503330145b6100de5760405162461bcd60e51b81526004016100d590610b17565b60405180910390fd5b60006100fa6100f58383600463ffffffff61039616565b6103bf565b60e01b90506101076107d4565b604051632f1a48af60e01b815273__BorrowProxyLib________________________90632f1a48af906101439060009089908790600401610bfd565b60c06040518083038186803b15801561015b57600080fd5b505af415801561016f573d6000803e3d6000fd5b505050506040513d601f19601f820116820180604052508101906101939190610988565b6002546001600160a01b03166020820152600054909150600160a01b900460ff1680156101c35750604081015151155b156102665760006060866001600160a01b031686866040516101e59190610a76565b60006040518083038185875af1925050503d8060008114610222576040519150601f19603f3d011682016040523d82523d6000602084013e610227565b606091505b5091509150816102535761023a816103de565b60405162461bcd60e51b81526004016100d59190610a9d565b61025d82826104d1565b50505050610327565b61027381604001516104e6565b61028f5760405162461bcd60e51b81526004016100d590610ae0565b600060606102a483868863ffffffff6104f816565b91509150816102b65761023a816103de565b60408084015101516001600160a01b0316156102e65760408084015101516102e69060079063ffffffff61060816565b6040830151606001516001600160a01b031615610318576040830151606001516103189060099063ffffffff61060816565b61032282826104d1565b505050505b505050565b6001546000906001600160a01b0316156103585760405162461bcd60e51b81526004016100d590610ab0565b5060008054336001600160a01b0319918216179091556001805482166001600160a01b03948516178155600280549092169290931691909117905590565b61039e6107f8565b6103a88484610662565b815260208101919091526040810191909152919050565b80516020820151600091906103d48282610669565b925050505b919050565b6060815160001415610424575060408051808201909152601c81527f636170747572656420656d70747920726576657274206275666665720000000060208201526103d9565b6308c379a06104396100f58460006004610396565b63ffffffff1614610464576040518060600160405280603f8152602001610cba603f913990506103d9565b606061047f61047a84600463ffffffff61068616565b6106b1565b90508051600014156104c657505060408051808201909152601d81527f636170747572656420656d70747920726576657274206d65737361676500000060208201526103d9565b60606103d482610721565b816104de57805181602001fd5b805181602001f35b602001516001600160a01b0316151590565b60006060600060608660400151602001516001600160a01b03165a6105ab6040518061010001604052808b60400151602001516001600160a01b031681526020018b60400151604001516001600160a01b031681526020018b60400151606001516001600160a01b031681526020018b602001516001600160a01b03168152602001326001600160a01b031681526020018b600001516001600160a01b031681526020018981526020018a81525061073d565b6040516105b89190610a76565b6000604051808303818686f4925050503d80600081146105f4576040519150601f19603f3d011682016040523d82523d6000602084013e6105f9565b606091505b50909890975095505050505050565b6001600160a01b03811660009081526020839052604090205460ff161561062e5761065e565b6001828101805491820181556000908152602090200180546001600160a01b0319166001600160a01b0383161790555b5050565b0160200190565b6000600180600884021b0380836020038503511691505092915050565b61068e6107f8565b818351101561069c57825191505b6106aa838384865103610396565b9392505050565b60208101516060908067ffffffffffffffff811180156106d057600080fd5b506040519080825280601f01601f1916602001820160405280156106fb576020820181803683370190505b508351909250600061070c84610790565b9050610719818385610796565b505050919050565b6060818060200190518101906107379190610912565b92915050565b6060633c52e5a160e01b826040516024016107589190610b60565b60408051601f198184030181529190526020810180516001600160e01b03166001600160e01b03199093169290921790915292915050565b60200190565b5b602081106107b6578151835260209283019290910190601f1901610797565b600180600883602003021b0380845116811984511617845250505050565b60408051606081018252600080825260208201529081016107f3610819565b905290565b60405180606001604052806000815260200160008152602001600081525090565b60408051608081018252600080825260208201819052918101829052606081019190915290565b60008060408385031215610852578182fd5b823561085d81610ca1565b9150602083013561086d81610ca1565b809150509250929050565b60008060006060848603121561088c578081fd5b833561089781610ca1565b925060208401359150604084013567ffffffffffffffff8111156108b9578182fd5b80850186601f8201126108ca578283fd5b803591506108df6108da83610c4d565b610c26565b8281528760208484010111156108f3578384fd5b8260208301602083013783602084830101528093505050509250925092565b600060208284031215610923578081fd5b815167ffffffffffffffff811115610939578182fd5b80830184601f82011261094a578283fd5b8051915061095a6108da83610c4d565b82815285602084840101111561096e578384fd5b61097f836020830160208501610c71565b95945050505050565b600081830360c081121561099a578182fd5b6109a46060610c26565b83516109af81610ca1565b815260208401516109bf81610ca1565b60208201526080603f19830112156109d5578283fd5b6109df6080610c26565b9150604084015180151581146109f3578384fd5b82526060840151610a0381610ca1565b60208301526080840151610a1681610ca1565b604083015260a0840151610a2981610ca1565b606083015260408101919091529392505050565b6001600160a01b03169052565b60008151808452610a62816020860160208601610c71565b601f01601f19169290920160200192915050565b60008251610a88818460208701610c71565b9190910192915050565b901515815260200190565b6000602082526106aa6020830184610a4a565b60208082526016908201527563616e277420696e697469616c697a6520747769636560501b604082015260600190565b6020808252601f908201527f66756e6374696f6e2068616e646c6572206e6f74207265676973746572656400604082015260600190565b60208082526029908201527f626f72726f772070726f78792063616e206f6e6c792062652075736564206279604082015268103137b93937bbb2b960b91b606082015260800190565b60006020825260018060a01b03808451166020840152806020850151166040840152506040830151610b956060840182610a3d565b506060830151610ba86080840182610a3d565b506080830151610bbb60a0840182610a3d565b5060a0830151610bce60c0840182610a3d565b5060c083015160e083015260e0830151610100808185015250610bf5610120840182610a4a565b949350505050565b9283526001600160a01b039190911660208301526001600160e01b031916604082015260600190565b60405181810167ffffffffffffffff81118282101715610c4557600080fd5b604052919050565b600067ffffffffffffffff821115610c63578081fd5b50601f01601f191660200190565b60005b83811015610c8c578181015183820152602001610c74565b83811115610c9b576000848401525b50505050565b6001600160a01b0381168114610cb657600080fd5b5056fe6361707475726564206120726576657274206572726f722c2062757420697420646f65736e277420636f6e666f726d20746f20746865207374616e64617264a2646970667358221220aa56e48ea205f990626b424b0b78f316879c50acaf4e2e49d54dd7a11fca2d0564736f6c63430006060033",
  "source": "pragma solidity ^0.6.0;\npragma experimental ABIEncoderV2;\n\nimport { BorrowProxyLib } from \"./BorrowProxyLib.sol\";\nimport { RevertCaptureLib } from \"./utils/RevertCaptureLib.sol\";\nimport { SliceLib } from \"./utils/SliceLib.sol\";\nimport { ViewExecutor } from \"./utils/ViewExecutor.sol\";\nimport { IShifter } from \"./interfaces/IShifter.sol\";\nimport { IBorrowProxyController } from \"./interfaces/IBorrowProxyController.sol\";\nimport { AddressSetLib } from \"./utils/AddressSetLib.sol\";\nimport { ModuleLib } from \"./adapters/lib/ModuleLib.sol\";\n\ncontract BorrowProxy {\n  using SliceLib for *;\n  using BorrowProxyLib for *;\n  using AddressSetLib for *;\n  BorrowProxyLib.ProxyIsolate isolate;\n  modifier onlyOwnerOrPool {\n   require(msg.sender == isolate.owner || msg.sender == isolate.masterAddress || msg.sender == address(this), \"borrow proxy can only be used by borrower\");\n    _;\n  }\n  function setup(address owner, address token) public returns (bool) {\n    require(isolate.owner == address(0x0), \"can't initialize twice\");\n    isolate.masterAddress = msg.sender;\n    isolate.owner = owner;\n    isolate.token = token;\n    return true;\n  }\n  function validateProxyRecord(bytes memory record) internal returns (bool) {\n    return IBorrowProxyController(isolate.masterAddress).validateProxyRecordHandler(record);\n  }\n  function proxy(address to, uint256 value, bytes memory payload) public onlyOwnerOrPool {\n    bytes4 sig = bytes4(uint32(uint256(payload.toSlice(0, 4).asWord())));\n    BorrowProxyLib.ModuleExecution memory module = isolate.fetchModule(to, sig);\n    module.token = isolate.token;\n    if (isolate.unbound && !module.encapsulated.isPrecompiled) {\n      (bool success, bytes memory retval) = to.call{\n        value: value\n      }(payload);\n      if (!success) revert(RevertCaptureLib.decodeError(retval));\n      ModuleLib.bubbleResult(success, retval);\n      return;\n    }\n    require(module.encapsulated.isDefined(), \"function handler not registered\");\n    (bool success, bytes memory retval) = module.delegate(payload, value);\n    if (!success) revert(RevertCaptureLib.decodeError(retval));\n    if (module.encapsulated.liquidationSubmodule != address(0x0)) isolate.liquidationSet.insert(module.encapsulated.liquidationSubmodule);\n    if (module.encapsulated.repaymentSubmodule != address(0x0)) isolate.repaymentSet.insert(module.encapsulated.repaymentSubmodule);\n    ModuleLib.bubbleResult(success, retval);\n  }\n  receive() external payable virtual {\n    // just receive ether, do nothing\n  } \n  fallback() external payable virtual {}\n}\n",
  "sourcePath": "/home/ray/0confirmation/packages/0confirmation-sol/contracts/BorrowProxy.sol",
  "compiler": {
    "name": "solc",
    "version": "0.6.6+commit.6c089d02.Emscripten.clang"
  },
  "schemaVersion": "3.0.23",
  "updatedAt": "2020-04-23T09:11:10.053Z",
  "devdoc": {
    "methods": {}
  },
  "userdoc": {
    "methods": {}
  }
}