{
  "contractName": "BorrowProxy",
  "abi": [
    {
      "inputs": [],
      "stateMutability": "nonpayable",
      "type": "constructor"
    },
    {
      "inputs": [
        {
          "internalType": "address",
          "name": "to",
          "type": "address"
        },
        {
          "internalType": "uint256",
          "name": "value",
          "type": "uint256"
        },
        {
          "internalType": "bytes",
          "name": "payload",
          "type": "bytes"
        }
      ],
      "name": "proxy",
      "outputs": [],
      "stateMutability": "nonpayable",
      "type": "function"
    }
  ],
  "bytecode": "0x608060405234801561001057600080fd5b50336000800160006101000a81548173ffffffffffffffffffffffffffffffffffffffff021916908373ffffffffffffffffffffffffffffffffffffffff1602179055506000800160009054906101000a900473ffffffffffffffffffffffffffffffffffffffff1673ffffffffffffffffffffffffffffffffffffffff16637b3b00be6040518163ffffffff1660e01b8152600401602060405180830381600087803b1580156100c057600080fd5b505af11580156100d4573d6000803e3d6000fd5b505050506040513d601f19601f820116820180604052506100f89190810190610155565b600060010160006101000a81548173ffffffffffffffffffffffffffffffffffffffff021916908373ffffffffffffffffffffffffffffffffffffffff1602179055506101c7565b60008151905061014f816101b0565b92915050565b60006020828403121561016757600080fd5b600061017584828501610140565b91505092915050565b600061018982610190565b9050919050565b600073ffffffffffffffffffffffffffffffffffffffff82169050919050565b6101b98161017e565b81146101c457600080fd5b50565b610b56806101d66000396000f3fe608060405234801561001057600080fd5b506004361061002b5760003560e01c80632692f25a14610030575b600080fd5b61004a60048036036100459190810190610646565b61004c565b005b600060010160009054906101000a900473ffffffffffffffffffffffffffffffffffffffff1673ffffffffffffffffffffffffffffffffffffffff163373ffffffffffffffffffffffffffffffffffffffff16146100df576040517f08c379a00000000000000000000000000000000000000000000000000000000081526004016100d690610932565b60405180910390fd5b6000800160149054906101000a900460ff16156101b357600060608473ffffffffffffffffffffffffffffffffffffffff1684846040516101209190610871565b60006040518083038185875af1925050503d806000811461015d576040519150601f19603f3d011682016040523d82523d6000602084013e610162565b606091505b50915091508181906101aa576040517f08c379a00000000000000000000000000000000000000000000000000000000081526004016101a191906108f0565b60405180910390fd5b50805160208201f35b60006101d46101cf60006004856102dc9092919063ffffffff16565b610314565b60001c60e01b90506101e461047e565b600073__BorrowProxyLib________________________632f1a48af909187856040518463ffffffff1660e01b815260040161022293929190610952565b60606040518083038186803b15801561023a57600080fd5b505af415801561024e573d6000803e3d6000fd5b505050506040513d601f19601f8201168201806040525061027291908101906106ad565b90506102818160200151610343565b6102c0576040517f08c379a00000000000000000000000000000000000000000000000000000000081526004016102b790610912565b60405180910390fd5b6102d58385836103809092919063ffffffff16565b5050505050565b6102e46104b4565b60006020850184019050808260000181815250508282602001818152505083826040018181525050509392505050565b60008082600001519050600083602001519050600180600883021b038082602003840351169350505050919050565b60008073ffffffffffffffffffffffffffffffffffffffff16826000015173ffffffffffffffffffffffffffffffffffffffff1614159050919050565b6000606084602001516000015173ffffffffffffffffffffffffffffffffffffffff1685602001516000015186602001516020015132886000015187896040516020016103d296959493929190610888565b6040516020818303038152906040526040516103ee9190610871565b600060405180830381855af49150503d8060008114610429576040519150601f19603f3d011682016040523d82523d6000602084013e61042e565b606091505b5091509150818190610476576040517f08c379a000000000000000000000000000000000000000000000000000000000815260040161046d91906108f0565b60405180910390fd5b505050505050565b6040518060400160405280600073ffffffffffffffffffffffffffffffffffffffff1681526020016104ae6104d5565b81525090565b60405180606001604052806000815260200160008152602001600081525090565b6040518060400160405280600073ffffffffffffffffffffffffffffffffffffffff168152602001600073ffffffffffffffffffffffffffffffffffffffff1681525090565b60008135905061052a81610af2565b92915050565b60008151905061053f81610af2565b92915050565b600082601f83011261055657600080fd5b8135610569610564826109b6565b610989565b9150808252602083016020830185838301111561058557600080fd5b610590838284610a9f565b50505092915050565b6000606082840312156105ab57600080fd5b6105b56040610989565b905060006105c584828501610530565b60008301525060206105d9848285016105e5565b60208301525092915050565b6000604082840312156105f757600080fd5b6106016040610989565b9050600061061184828501610530565b600083015250602061062584828501610530565b60208301525092915050565b60008135905061064081610b09565b92915050565b60008060006060848603121561065b57600080fd5b60006106698682870161051b565b935050602061067a86828701610631565b925050604084013567ffffffffffffffff81111561069757600080fd5b6106a386828701610545565b9150509250925092565b6000606082840312156106bf57600080fd5b60006106cd84828501610599565b91505092915050565b6106df81610a37565b82525050565b6106ee81610a25565b82525050565b6106fd81610a25565b82525050565b61070c81610a49565b82525050565b600061071d826109e2565b61072781856109f8565b9350610737818560208601610aae565b61074081610ae1565b840191505092915050565b6000610756826109e2565b6107608185610a09565b9350610770818560208601610aae565b80840191505092915050565b6000610787826109ed565b6107918185610a14565b93506107a1818560208601610aae565b6107aa81610ae1565b840191505092915050565b60006107c2601f83610a14565b91507f66756e6374696f6e2068616e646c6572206e6f742072656769737465726564006000830152602082019050919050565b6000610802602983610a14565b91507f626f72726f772070726f78792063616e206f6e6c79206265207573656420627960008301527f20626f72726f77657200000000000000000000000000000000000000000000006020830152604082019050919050565b8082525050565b61086b81610a95565b82525050565b600061087d828461074b565b915081905092915050565b600060c08201905061089d60008301896106e5565b6108aa60208301886106e5565b6108b760408301876106d6565b6108c460608301866106e5565b6108d16080830185610862565b81810360a08301526108e38184610712565b9050979650505050505050565b6000602082019050818103600083015261090a818461077c565b905092915050565b6000602082019050818103600083015261092b816107b5565b9050919050565b6000602082019050818103600083015261094b816107f5565b9050919050565b6000606082019050610967600083018661085b565b61097460208301856106f4565b6109816040830184610703565b949350505050565b6000604051905081810181811067ffffffffffffffff821117156109ac57600080fd5b8060405250919050565b600067ffffffffffffffff8211156109cd57600080fd5b601f19601f8301169050602081019050919050565b600081519050919050565b600081519050919050565b600082825260208201905092915050565b600081905092915050565b600082825260208201905092915050565b6000610a3082610a75565b9050919050565b6000610a4282610a75565b9050919050565b60007fffffffff0000000000000000000000000000000000000000000000000000000082169050919050565b600073ffffffffffffffffffffffffffffffffffffffff82169050919050565b6000819050919050565b82818337600083830152505050565b60005b83811015610acc578082015181840152602081019050610ab1565b83811115610adb576000848401525b50505050565b6000601f19601f8301169050919050565b610afb81610a25565b8114610b0657600080fd5b50565b610b1281610a95565b8114610b1d57600080fd5b5056fea26469706673582212207cf410ef307ab245135b4eeba00fb6d1e52a26db59c927e529a384191cddb2ee64736f6c63430006030033",
  "source": "pragma solidity ^0.6.2;\npragma experimental ABIEncoderV2;\n\nimport { BorrowProxyLib } from \"./BorrowProxyLib.sol\";\nimport { SliceLib } from \"./utils/SliceLib.sol\";\nimport { IShifter } from \"./interfaces/IShifter.sol\";\nimport { IBorrowProxyController } from \"./interfaces/IBorrowProxyController.sol\";\n\ncontract BorrowProxy {\n  using SliceLib for *;\n  using BorrowProxyLib for *;\n  BorrowProxyLib.ProxyIsolate isolate;\n  modifier onlyOwner {\n   require(msg.sender == isolate.owner, \"borrow proxy can only be used by borrower\");\n    _;\n  }\n  constructor() public {\n    isolate.masterAddress = msg.sender;\n    isolate.owner = IBorrowProxyController(isolate.masterAddress).getProxyOwnerHandler();\n  } \n  function validateProxyRecord(bytes memory record) internal returns (bool) {\n    return IBorrowProxyController(isolate.masterAddress).validateProxyRecordHandler(record);\n  }\n  function proxy(address to, uint256 value, bytes memory payload) public onlyOwner {\n    if (isolate.unbound) {\n      (bool success, bytes memory retval) = to.call.value(value)(payload);\n      require(success, string(retval));\n      assembly {\n        return(add(retval, 0x20), mload(retval))\n      }\n    }\n    bytes4 sig = bytes4(uint32(uint256(payload.toSlice(0, 4).asWord())));\n    BorrowProxyLib.ModuleExecution memory module = isolate.fetchModule(to, sig);\n    require(module.encapsulated.isDefined(), \"function handler not registered\");\n    module.delegate(payload, value);\n  }\n}\n",
  "sourcePath": "/home/ray/0confirmation-mono/packages/0confirmation-sol/contracts/BorrowProxy.sol",
  "compiler": {
    "name": "solc",
    "version": "0.6.3+commit.8dda9521.Linux.g++"
  },
  "schemaVersion": "3.0.23",
  "updatedAt": "2020-03-08T19:18:55.424Z",
  "devdoc": {
    "methods": {}
  },
  "userdoc": {
    "methods": {}
  }
}