{
  "contractName": "BorrowProxy",
  "abi": [
    {
      "stateMutability": "payable",
      "type": "fallback"
    },
    {
      "inputs": [
        {
          "internalType": "address",
          "name": "delegateTo",
          "type": "address"
        },
        {
          "internalType": "bytes",
          "name": "callData",
          "type": "bytes"
        }
      ],
      "name": "_executeQuery",
      "outputs": [
        {
          "internalType": "bytes",
          "name": "",
          "type": "bytes"
        }
      ],
      "stateMutability": "nonpayable",
      "type": "function"
    },
    {
      "inputs": [
        {
          "internalType": "address",
          "name": "viewLogic",
          "type": "address"
        },
        {
          "internalType": "bytes",
          "name": "payload",
          "type": "bytes"
        }
      ],
      "name": "query",
      "outputs": [
        {
          "internalType": "bytes",
          "name": "",
          "type": "bytes"
        }
      ],
      "stateMutability": "view",
      "type": "function"
    },
    {
      "stateMutability": "payable",
      "type": "receive"
    },
    {
      "inputs": [
        {
          "internalType": "address",
          "name": "owner",
          "type": "address"
        }
      ],
      "name": "setup",
      "outputs": [
        {
          "internalType": "bool",
          "name": "",
          "type": "bool"
        }
      ],
      "stateMutability": "nonpayable",
      "type": "function"
    },
    {
      "inputs": [
        {
          "internalType": "address",
          "name": "to",
          "type": "address"
        },
        {
          "internalType": "uint256",
          "name": "value",
          "type": "uint256"
        },
        {
          "internalType": "bytes",
          "name": "payload",
          "type": "bytes"
        }
      ],
      "name": "proxy",
      "outputs": [],
      "stateMutability": "nonpayable",
      "type": "function"
    }
  ],
  "bytecode": "0x608060405234801561001057600080fd5b50610e4b806100206000396000f3fe6080604052600436106100435760003560e01c806323e3b7301461004c5780632692f25a1461008257806366d38203146100a2578063fd00430c146100cf5761004a565b3661004a57005b005b34801561005857600080fd5b5061006c610067366004610989565b6100ef565b6040516100799190610c15565b60405180910390f35b34801561008e57600080fd5b5061004a61009d3660046109d7565b61018c565b3480156100ae57600080fd5b506100c26100bd36600461096d565b61040a565b6040516100799190610c0a565b3480156100db57600080fd5b5061006c6100ea366004610989565b610466565b60603330146101195760405162461bcd60e51b815260040161011090610c8f565b60405180910390fd5b60006060846001600160a01b0316846040516101359190610b72565b600060405180830381855af49150503d8060008114610170576040519150601f19603f3d011682016040523d82523d6000602084013e610175565b606091505b50915091508161018457600080fd5b949350505050565b6001546001600160a01b03163314806101af57506000546001600160a01b031633145b6101cb5760405162461bcd60e51b815260040161011090610cd1565b60006101e76101e28383600463ffffffff61052c16565b610555565b60e01b90506101f46108aa565b604051632f1a48af60e01b815273__BorrowProxyLib________________________90632f1a48af906102309060009089908790600401610d1a565b60a06040518083038186803b15801561024857600080fd5b505af415801561025c573d6000803e3d6000fd5b505050506040513d601f19601f820116820180604052508101906102809190610aa4565b600054909150600160a01b900460ff16801561029f5750602081015151155b156103425760006060866001600160a01b031686866040516102c19190610b72565b60006040518083038185875af1925050503d80600081146102fe576040519150601f19603f3d011682016040523d82523d6000602084013e610303565b606091505b50915091508161032f576103168161056a565b60405162461bcd60e51b81526004016101109190610c15565b6103398282610668565b50505050610405565b61034f816020015161067d565b61036b5760405162461bcd60e51b815260040161011090610c58565b6000606061038083868863ffffffff61068f16565b9150915081610392576103168161056a565b6020830151604001516001600160a01b0316156103c4576020830151604001516103c49060069063ffffffff61074d16565b6020830151606001516001600160a01b0316156103f6576020830151606001516103f69060089063ffffffff61074d16565b6104008282610668565b505050505b505050565b6001546000906001600160a01b0316156104365760405162461bcd60e51b815260040161011090610c28565b5060008054336001600160a01b031991821617909155600180549091166001600160a01b0383161781555b919050565b606060006060846001600160a01b03168585604051602401610489929190610be6565b60408051601f198184030181529181526020820180516001600160e01b031663023e3b7360e41b179052516104be9190610b72565b600060405180830381855afa9150503d80600081146104f9576040519150601f19603f3d011682016040523d82523d6000602084013e6104fe565b606091505b50915091508181906105235760405162461bcd60e51b81526004016101109190610c15565b50949350505050565b6105346108d2565b61053e84846107a7565b815260208101919091526040810191909152919050565b805160208201516000919061018482826107ae565b60608151600014156105b0575060408051808201909152601c81527f636170747572656420656d7074792072657665727420627566666572000000006020820152610461565b6308c379a06105c56101e2846000600461052c565b63ffffffff16146105f0576040518060600160405280603f8152602001610dd7603f91399050610461565b606061060b61060684600463ffffffff6107cb16565b6107f6565b905080516000141561065257505060408051808201909152601d81527f636170747572656420656d70747920726576657274206d6573736167650000006020820152610461565b6060818060200190518101906101849190610a2e565b8161067557805181602001fd5b805181602001f35b602001516001600160a01b0316151590565b60006060600060608660200151602001516001600160a01b03165a8860200151602001518960200151604001518a6020015160600151328c600001518b8d6040516020016106e39796959493929190610b8e565b60408051601f19818403018152908290526106fd91610b72565b6000604051808303818686f4925050503d8060008114610739576040519150601f19603f3d011682016040523d82523d6000602084013e61073e565b606091505b50909890975095505050505050565b6001600160a01b03811660009081526020839052604090205460ff1615610773576107a3565b6001828101805491820181556000908152602090200180546001600160a01b0319166001600160a01b0383161790555b5050565b0160200190565b6000600180600884021b0380836020038503511691505092915050565b6107d36108d2565b81835110156107e157825191505b6107ef83838486510361052c565b9392505050565b60208101516060908067ffffffffffffffff8111801561081557600080fd5b506040519080825280601f01601f191660200182016040528015610840576020820181803683370190505b508351909250600061085184610866565b905061085e81838561086c565b505050919050565b60200190565b5b6020811061088c578151835260209283019290910190601f190161086d565b600180600883602003021b0380845116811984511617845250505050565b604051806040016040528060006001600160a01b031681526020016108cd6108f3565b905290565b60405180606001604052806000815260200160008152602001600081525090565b60408051608081018252600080825260208201819052918101829052606081019190915290565b600082601f83011261092a578081fd5b813561093d61093882610d6a565b610d43565b915080825283602082850101111561095457600080fd5b8060208401602084013760009082016020015292915050565b60006020828403121561097e578081fd5b81356107ef81610dbe565b6000806040838503121561099b578081fd5b82356109a681610dbe565b9150602083013567ffffffffffffffff8111156109c1578182fd5b6109cd8582860161091a565b9150509250929050565b6000806000606084860312156109eb578081fd5b83356109f681610dbe565b925060208401359150604084013567ffffffffffffffff811115610a18578182fd5b610a248682870161091a565b9150509250925092565b600060208284031215610a3f578081fd5b815167ffffffffffffffff811115610a55578182fd5b80830184601f820112610a66578283fd5b80519150610a7661093883610d6a565b828152856020848401011115610a8a578384fd5b610a9b836020830160208501610d8e565b95945050505050565b600081830360a0811215610ab6578182fd5b610ac06040610d43565b8351610acb81610dbe565b81526080601f1983011215610ade578283fd5b610ae86080610d43565b915060208401518015158114610afc578384fd5b82526040840151610b0c81610dbe565b60208301526060840151610b1f81610dbe565b60408301526080840151610b3281610dbe565b606083015260208101919091529392505050565b60008151808452610b5e816020860160208601610d8e565b601f01601f19169290920160200192915050565b60008251610b84818460208701610d8e565b9190910192915050565b6001600160a01b0388811682528781166020830152868116604083015285811660608301528416608082015260a0810183905260e060c08201819052600090610bd990830184610b46565b9998505050505050505050565b6001600160a01b038316815260406020820181905260009061018490830184610b46565b901515815260200190565b6000602082526107ef6020830184610b46565b60208082526016908201527563616e277420696e697469616c697a6520747769636560501b604082015260600190565b6020808252601f908201527f66756e6374696f6e2068616e646c6572206e6f74207265676973746572656400604082015260600190565b60208082526022908201527f756e617574686f72697a65642076696577206c617965722064656c656761746960408201526137b760f11b606082015260800190565b60208082526029908201527f626f72726f772070726f78792063616e206f6e6c792062652075736564206279604082015268103137b93937bbb2b960b91b606082015260800190565b9283526001600160a01b039190911660208301526001600160e01b031916604082015260600190565b60405181810167ffffffffffffffff81118282101715610d6257600080fd5b604052919050565b600067ffffffffffffffff821115610d80578081fd5b50601f01601f191660200190565b60005b83811015610da9578181015183820152602001610d91565b83811115610db8576000848401525b50505050565b6001600160a01b0381168114610dd357600080fd5b5056fe6361707475726564206120726576657274206572726f722c2062757420697420646f65736e277420636f6e666f726d20746f20746865207374616e64617264a2646970667358221220e346d2dd21fd97a19bd8ff1abe2a12d0e515dca56cac81610f66aea7af17051764736f6c63430006050033",
  "source": "pragma solidity ^0.6.0;\npragma experimental ABIEncoderV2;\n\nimport { BorrowProxyLib } from \"./BorrowProxyLib.sol\";\nimport { RevertCaptureLib } from \"./utils/RevertCaptureLib.sol\";\nimport { SliceLib } from \"./utils/SliceLib.sol\";\nimport { ViewExecutor } from \"./utils/ViewExecutor.sol\";\nimport { IShifter } from \"./interfaces/IShifter.sol\";\nimport { IBorrowProxyController } from \"./interfaces/IBorrowProxyController.sol\";\nimport { AddressSetLib } from \"./utils/AddressSetLib.sol\";\nimport { ModuleLib } from \"./adapters/lib/ModuleLib.sol\";\n\ncontract BorrowProxy is ViewExecutor {\n  using SliceLib for *;\n  using BorrowProxyLib for *;\n  using AddressSetLib for *;\n  BorrowProxyLib.ProxyIsolate isolate;\n  modifier onlyOwnerOrPool {\n   require(msg.sender == isolate.owner || msg.sender == isolate.masterAddress, \"borrow proxy can only be used by borrower\");\n    _;\n  }\n  function setup(address owner) public returns (bool) {\n    require(isolate.owner == address(0x0), \"can't initialize twice\");\n    isolate.masterAddress = msg.sender;\n    isolate.owner = owner;\n    return true;\n  }\n  function validateProxyRecord(bytes memory record) internal returns (bool) {\n    return IBorrowProxyController(isolate.masterAddress).validateProxyRecordHandler(record);\n  }\n  function proxy(address to, uint256 value, bytes memory payload) public onlyOwnerOrPool {\n    bytes4 sig = bytes4(uint32(uint256(payload.toSlice(0, 4).asWord())));\n    BorrowProxyLib.ModuleExecution memory module = isolate.fetchModule(to, sig);\n    if (isolate.unbound && !module.encapsulated.isPrecompiled) {\n      (bool success, bytes memory retval) = to.call{\n        value: value\n      }(payload);\n      if (!success) revert(RevertCaptureLib.decodeError(retval));\n      ModuleLib.bubbleResult(success, retval);\n      return;\n    }\n    require(module.encapsulated.isDefined(), \"function handler not registered\");\n    (bool success, bytes memory retval) = module.delegate(payload, value);\n    if (!success) revert(RevertCaptureLib.decodeError(retval));\n    if (module.encapsulated.liquidationSubmodule != address(0x0)) isolate.liquidationSet.insert(module.encapsulated.liquidationSubmodule);\n    if (module.encapsulated.repaymentSubmodule != address(0x0)) isolate.repaymentSet.insert(module.encapsulated.repaymentSubmodule);\n    ModuleLib.bubbleResult(success, retval);\n  }\n  receive() external payable virtual {\n    // just receive ether, do nothing\n  } \n  fallback() external payable virtual {}\n}\n",
  "sourcePath": "/home/ray/0confirmation/packages/0confirmation-sol/contracts/BorrowProxy.sol",
  "compiler": {
    "name": "solc",
    "version": "0.6.5+commit.f956cc89.Emscripten.clang"
  },
  "schemaVersion": "3.0.23",
  "updatedAt": "2020-04-07T22:29:13.766Z",
  "devdoc": {
    "methods": {}
  },
  "userdoc": {
    "methods": {}
  }
}