{
  "contractName": "BorrowProxy",
  "abi": [
    {
      "inputs": [],
      "stateMutability": "nonpayable",
      "type": "constructor"
    },
    {
      "inputs": [
        {
          "internalType": "address",
          "name": "delegateTo",
          "type": "address"
        },
        {
          "internalType": "bytes",
          "name": "callData",
          "type": "bytes"
        }
      ],
      "name": "_executeQuery",
      "outputs": [
        {
          "internalType": "bytes",
          "name": "",
          "type": "bytes"
        }
      ],
      "stateMutability": "nonpayable",
      "type": "function"
    },
    {
      "inputs": [
        {
          "internalType": "address",
          "name": "viewLogic",
          "type": "address"
        },
        {
          "internalType": "bytes",
          "name": "payload",
          "type": "bytes"
        }
      ],
      "name": "query",
      "outputs": [
        {
          "internalType": "bytes",
          "name": "",
          "type": "bytes"
        }
      ],
      "stateMutability": "view",
      "type": "function"
    },
    {
      "inputs": [
        {
          "internalType": "address",
          "name": "to",
          "type": "address"
        },
        {
          "internalType": "uint256",
          "name": "value",
          "type": "uint256"
        },
        {
          "internalType": "bytes",
          "name": "payload",
          "type": "bytes"
        }
      ],
      "name": "proxy",
      "outputs": [],
      "stateMutability": "nonpayable",
      "type": "function"
    }
  ],
  "bytecode": "0x608060405234801561001057600080fd5b50336000800160006101000a81548173ffffffffffffffffffffffffffffffffffffffff021916908373ffffffffffffffffffffffffffffffffffffffff1602179055506000800160009054906101000a900473ffffffffffffffffffffffffffffffffffffffff1673ffffffffffffffffffffffffffffffffffffffff16637b3b00be6040518163ffffffff1660e01b8152600401602060405180830381600087803b1580156100c057600080fd5b505af11580156100d4573d6000803e3d6000fd5b505050506040513d601f19601f820116820180604052506100f89190810190610155565b600060010160006101000a81548173ffffffffffffffffffffffffffffffffffffffff021916908373ffffffffffffffffffffffffffffffffffffffff1602179055506101c7565b60008151905061014f816101b0565b92915050565b60006020828403121561016757600080fd5b600061017584828501610140565b91505092915050565b600061018982610190565b9050919050565b600073ffffffffffffffffffffffffffffffffffffffff82169050919050565b6101b98161017e565b81146101c457600080fd5b50565b610e43806101d66000396000f3fe608060405234801561001057600080fd5b50600436106100415760003560e01c806323e3b730146100465780632692f25a14610076578063fd00430c14610092575b600080fd5b610060600480360361005b919081019061088d565b6100c2565b60405161006d9190610bbb565b60405180910390f35b610090600480360361008b91908101906108e1565b61017f565b005b6100ac60048036036100a7919081019061088d565b61040f565b6040516100b99190610bbb565b60405180910390f35b60603073ffffffffffffffffffffffffffffffffffffffff163373ffffffffffffffffffffffffffffffffffffffff16146100fc57600080fd5b600060608473ffffffffffffffffffffffffffffffffffffffff16846040516101259190610b0c565b600060405180830381855af49150503d8060008114610160576040519150601f19603f3d011682016040523d82523d6000602084013e610165565b606091505b50915091508161017457600080fd5b809250505092915050565b600060010160009054906101000a900473ffffffffffffffffffffffffffffffffffffffff1673ffffffffffffffffffffffffffffffffffffffff163373ffffffffffffffffffffffffffffffffffffffff1614610212576040517f08c379a000000000000000000000000000000000000000000000000000000000815260040161020990610c1f565b60405180910390fd5b6000800160149054906101000a900460ff16156102e657600060608473ffffffffffffffffffffffffffffffffffffffff1684846040516102539190610b0c565b60006040518083038185875af1925050503d8060008114610290576040519150601f19603f3d011682016040523d82523d6000602084013e610295565b606091505b50915091508181906102dd576040517f08c379a00000000000000000000000000000000000000000000000000000000081526004016102d49190610bdd565b60405180910390fd5b50805160208201f35b600061030761030260006004856105239092919063ffffffff16565b61055b565b60001c60e01b90506103176106c5565b600073__BorrowProxyLib________________________632f1a48af909187856040518463ffffffff1660e01b815260040161035593929190610c3f565b60606040518083038186803b15801561036d57600080fd5b505af4158015610381573d6000803e3d6000fd5b505050506040513d601f19601f820116820180604052506103a59190810190610948565b90506103b4816020015161058a565b6103f3576040517f08c379a00000000000000000000000000000000000000000000000000000000081526004016103ea90610bff565b60405180910390fd5b6104088385836105c79092919063ffffffff16565b5050505050565b6060600060608473ffffffffffffffffffffffffffffffffffffffff16858560405160240161043f929190610b8b565b6040516020818303038152906040527f23e3b730000000000000000000000000000000000000000000000000000000007bffffffffffffffffffffffffffffffffffffffffffffffffffffffff19166020820180517bffffffffffffffffffffffffffffffffffffffffffffffffffffffff83818316178352505050506040516104c99190610b0c565b600060405180830381855afa9150503d8060008114610504576040519150601f19603f3d011682016040523d82523d6000602084013e610509565b606091505b50915091508161051857600080fd5b809250505092915050565b61052b6106fb565b60006020850184019050808260000181815250508282602001818152505083826040018181525050509392505050565b60008082600001519050600083602001519050600180600883021b038082602003840351169350505050919050565b60008073ffffffffffffffffffffffffffffffffffffffff16826000015173ffffffffffffffffffffffffffffffffffffffff1614159050919050565b6000606084602001516000015173ffffffffffffffffffffffffffffffffffffffff16856020015160000151866020015160200151328860000151878960405160200161061996959493929190610b23565b6040516020818303038152906040526040516106359190610b0c565b600060405180830381855af49150503d8060008114610670576040519150601f19603f3d011682016040523d82523d6000602084013e610675565b606091505b50915091508181906106bd576040517f08c379a00000000000000000000000000000000000000000000000000000000081526004016106b49190610bdd565b60405180910390fd5b505050505050565b6040518060400160405280600073ffffffffffffffffffffffffffffffffffffffff1681526020016106f561071c565b81525090565b60405180606001604052806000815260200160008152602001600081525090565b6040518060400160405280600073ffffffffffffffffffffffffffffffffffffffff168152602001600073ffffffffffffffffffffffffffffffffffffffff1681525090565b60008135905061077181610ddf565b92915050565b60008151905061078681610ddf565b92915050565b600082601f83011261079d57600080fd5b81356107b06107ab82610ca3565b610c76565b915080825260208301602083018583830111156107cc57600080fd5b6107d7838284610d8c565b50505092915050565b6000606082840312156107f257600080fd5b6107fc6040610c76565b9050600061080c84828501610777565b60008301525060206108208482850161082c565b60208301525092915050565b60006040828403121561083e57600080fd5b6108486040610c76565b9050600061085884828501610777565b600083015250602061086c84828501610777565b60208301525092915050565b60008135905061088781610df6565b92915050565b600080604083850312156108a057600080fd5b60006108ae85828601610762565b925050602083013567ffffffffffffffff8111156108cb57600080fd5b6108d78582860161078c565b9150509250929050565b6000806000606084860312156108f657600080fd5b600061090486828701610762565b935050602061091586828701610878565b925050604084013567ffffffffffffffff81111561093257600080fd5b61093e8682870161078c565b9150509250925092565b60006060828403121561095a57600080fd5b6000610968848285016107e0565b91505092915050565b61097a81610d24565b82525050565b61098981610d12565b82525050565b61099881610d12565b82525050565b6109a781610d36565b82525050565b60006109b882610ccf565b6109c28185610ce5565b93506109d2818560208601610d9b565b6109db81610dce565b840191505092915050565b60006109f182610ccf565b6109fb8185610cf6565b9350610a0b818560208601610d9b565b80840191505092915050565b6000610a2282610cda565b610a2c8185610d01565b9350610a3c818560208601610d9b565b610a4581610dce565b840191505092915050565b6000610a5d601f83610d01565b91507f66756e6374696f6e2068616e646c6572206e6f742072656769737465726564006000830152602082019050919050565b6000610a9d602983610d01565b91507f626f72726f772070726f78792063616e206f6e6c79206265207573656420627960008301527f20626f72726f77657200000000000000000000000000000000000000000000006020830152604082019050919050565b8082525050565b610b0681610d82565b82525050565b6000610b1882846109e6565b915081905092915050565b600060c082019050610b386000830189610980565b610b456020830188610980565b610b526040830187610971565b610b5f6060830186610980565b610b6c6080830185610afd565b81810360a0830152610b7e81846109ad565b9050979650505050505050565b6000604082019050610ba06000830185610980565b8181036020830152610bb281846109ad565b90509392505050565b60006020820190508181036000830152610bd581846109ad565b905092915050565b60006020820190508181036000830152610bf78184610a17565b905092915050565b60006020820190508181036000830152610c1881610a50565b9050919050565b60006020820190508181036000830152610c3881610a90565b9050919050565b6000606082019050610c546000830186610af6565b610c61602083018561098f565b610c6e604083018461099e565b949350505050565b6000604051905081810181811067ffffffffffffffff82111715610c9957600080fd5b8060405250919050565b600067ffffffffffffffff821115610cba57600080fd5b601f19601f8301169050602081019050919050565b600081519050919050565b600081519050919050565b600082825260208201905092915050565b600081905092915050565b600082825260208201905092915050565b6000610d1d82610d62565b9050919050565b6000610d2f82610d62565b9050919050565b60007fffffffff0000000000000000000000000000000000000000000000000000000082169050919050565b600073ffffffffffffffffffffffffffffffffffffffff82169050919050565b6000819050919050565b82818337600083830152505050565b60005b83811015610db9578082015181840152602081019050610d9e565b83811115610dc8576000848401525b50505050565b6000601f19601f8301169050919050565b610de881610d12565b8114610df357600080fd5b50565b610dff81610d82565b8114610e0a57600080fd5b5056fea26469706673582212206a12b04f1e0bfbce81c6519657ae8f1fabed232dca860fa914147d617c05c79a64736f6c63430006030033",
  "source": "pragma solidity ^0.6.2;\npragma experimental ABIEncoderV2;\n\nimport { BorrowProxyLib } from \"./BorrowProxyLib.sol\";\nimport { SliceLib } from \"./utils/SliceLib.sol\";\nimport { ViewExecutor } from \"./utils/ViewExecutor.sol\";\nimport { IShifter } from \"./interfaces/IShifter.sol\";\nimport { IBorrowProxyController } from \"./interfaces/IBorrowProxyController.sol\";\n\ncontract BorrowProxy is ViewExecutor {\n  using SliceLib for *;\n  using BorrowProxyLib for *;\n  BorrowProxyLib.ProxyIsolate isolate;\n  modifier onlyOwner {\n   require(msg.sender == isolate.owner, \"borrow proxy can only be used by borrower\");\n    _;\n  }\n  constructor() public {\n    isolate.masterAddress = msg.sender;\n    isolate.owner = IBorrowProxyController(isolate.masterAddress).getProxyOwnerHandler();\n  } \n  function validateProxyRecord(bytes memory record) internal returns (bool) {\n    return IBorrowProxyController(isolate.masterAddress).validateProxyRecordHandler(record);\n  }\n  function proxy(address to, uint256 value, bytes memory payload) public onlyOwner {\n    if (isolate.unbound) {\n      (bool success, bytes memory retval) = to.call.value(value)(payload);\n      require(success, string(retval));\n      assembly {\n        return(add(retval, 0x20), mload(retval))\n      }\n    }\n    bytes4 sig = bytes4(uint32(uint256(payload.toSlice(0, 4).asWord())));\n    BorrowProxyLib.ModuleExecution memory module = isolate.fetchModule(to, sig);\n    require(module.encapsulated.isDefined(), \"function handler not registered\");\n    module.delegate(payload, value);\n  }\n}\n",
  "sourcePath": "/home/ray/0confirmation/packages/0confirmation-sol/contracts/BorrowProxy.sol",
  "compiler": {
    "name": "solc",
    "version": "0.6.3+commit.8dda9521.Emscripten.clang"
  },
  "schemaVersion": "3.0.23",
  "updatedAt": "2020-03-20T18:48:13.812Z",
  "devdoc": {
    "methods": {}
  },
  "userdoc": {
    "methods": {}
  }
}