{
  "contractName": "BorrowProxy",
  "abi": [
    {
      "stateMutability": "payable",
      "type": "fallback"
    },
    {
      "inputs": [
        {
          "internalType": "address",
          "name": "delegateTo",
          "type": "address"
        },
        {
          "internalType": "bytes",
          "name": "callData",
          "type": "bytes"
        }
      ],
      "name": "_executeQuery",
      "outputs": [
        {
          "internalType": "bytes",
          "name": "",
          "type": "bytes"
        }
      ],
      "stateMutability": "nonpayable",
      "type": "function"
    },
    {
      "inputs": [
        {
          "internalType": "address",
          "name": "viewLogic",
          "type": "address"
        },
        {
          "internalType": "bytes",
          "name": "payload",
          "type": "bytes"
        }
      ],
      "name": "query",
      "outputs": [
        {
          "internalType": "bytes",
          "name": "",
          "type": "bytes"
        }
      ],
      "stateMutability": "view",
      "type": "function"
    },
    {
      "stateMutability": "payable",
      "type": "receive"
    },
    {
      "inputs": [
        {
          "internalType": "address",
          "name": "owner",
          "type": "address"
        },
        {
          "internalType": "address",
          "name": "token",
          "type": "address"
        }
      ],
      "name": "setup",
      "outputs": [
        {
          "internalType": "bool",
          "name": "",
          "type": "bool"
        }
      ],
      "stateMutability": "nonpayable",
      "type": "function"
    },
    {
      "inputs": [
        {
          "internalType": "address",
          "name": "to",
          "type": "address"
        },
        {
          "internalType": "uint256",
          "name": "value",
          "type": "uint256"
        },
        {
          "internalType": "bytes",
          "name": "payload",
          "type": "bytes"
        }
      ],
      "name": "proxy",
      "outputs": [],
      "stateMutability": "nonpayable",
      "type": "function"
    }
  ],
  "bytecode": "0x608060405234801561001057600080fd5b50610fbc806100206000396000f3fe6080604052600436106100435760003560e01c806323e3b7301461004c5780632692f25a146100825780632d34ba79146100a2578063fd00430c146100cf5761004a565b3661004a57005b005b34801561005857600080fd5b5061006c610067366004610a93565b6100ef565b6040516100799190610ce3565b60405180910390f35b34801561008e57600080fd5b5061004a61009d366004610ae1565b61018c565b3480156100ae57600080fd5b506100c26100bd366004610a5b565b610419565b6040516100799190610cd8565b3480156100db57600080fd5b5061006c6100ea366004610a93565b610483565b60603330146101195760405162461bcd60e51b815260040161011090610d5d565b60405180910390fd5b60006060846001600160a01b0316846040516101359190610c98565b600060405180830381855af49150503d8060008114610170576040519150601f19603f3d011682016040523d82523d6000602084013e610175565b606091505b50915091508161018457600080fd5b949350505050565b6001546001600160a01b03163314806101af57506000546001600160a01b031633145b6101cb5760405162461bcd60e51b815260040161011090610d9f565b60006101e76101e28383600463ffffffff61051816565b610541565b60e01b90506101f461099c565b604051632f1a48af60e01b815273__BorrowProxyLib________________________90632f1a48af906102309060009089908790600401610e7d565b60c06040518083038186803b15801561024857600080fd5b505af415801561025c573d6000803e3d6000fd5b505050506040513d601f19601f820116820180604052508101906102809190610bae565b6002546001600160a01b03166020820152600054909150600160a01b900460ff1680156102b05750604081015151155b156103535760006060866001600160a01b031686866040516102d29190610c98565b60006040518083038185875af1925050503d806000811461030f576040519150601f19603f3d011682016040523d82523d6000602084013e610314565b606091505b5091509150816103405761032781610560565b60405162461bcd60e51b81526004016101109190610ce3565b61034a8282610653565b50505050610414565b6103608160400151610668565b61037c5760405162461bcd60e51b815260040161011090610d26565b6000606061039183868863ffffffff61067a16565b91509150816103a35761032781610560565b60408084015101516001600160a01b0316156103d35760408084015101516103d39060079063ffffffff61078a16565b6040830151606001516001600160a01b031615610405576040830151606001516104059060099063ffffffff61078a16565b61040f8282610653565b505050505b505050565b6001546000906001600160a01b0316156104455760405162461bcd60e51b815260040161011090610cf6565b5060008054336001600160a01b0319918216179091556001805482166001600160a01b03948516178155600280549092169290931691909117905590565b606060006060846001600160a01b031661049d86866107e4565b6040516104aa9190610c98565b600060405180830381855afa9150503d80600081146104e5576040519150601f19603f3d011682016040523d82523d6000602084013e6104ea565b606091505b509150915081819061050f5760405162461bcd60e51b81526004016101109190610ce3565b50949350505050565b6105206109c0565b61052a848461082a565b815260208101919091526040810191909152919050565b80516020820151600091906105568282610831565b925050505b919050565b60608151600014156105a6575060408051808201909152601c81527f636170747572656420656d707479207265766572742062756666657200000000602082015261055b565b6308c379a06105bb6101e28460006004610518565b63ffffffff16146105e6576040518060600160405280603f8152602001610f48603f9139905061055b565b60606106016105fc84600463ffffffff61084e16565b610879565b905080516000141561064857505060408051808201909152601d81527f636170747572656420656d70747920726576657274206d657373616765000000602082015261055b565b6060610556826108e9565b8161066057805181602001fd5b805181602001f35b602001516001600160a01b0316151590565b60006060600060608660400151602001516001600160a01b03165a61072d6040518061010001604052808b60400151602001516001600160a01b031681526020018b60400151604001516001600160a01b031681526020018b60400151606001516001600160a01b031681526020018b602001516001600160a01b03168152602001326001600160a01b031681526020018b600001516001600160a01b031681526020018981526020018a815250610905565b60405161073a9190610c98565b6000604051808303818686f4925050503d8060008114610776576040519150601f19603f3d011682016040523d82523d6000602084013e61077b565b606091505b50909890975095505050505050565b6001600160a01b03811660009081526020839052604090205460ff16156107b0576107e0565b6001828101805491820181556000908152602090200180546001600160a01b0319166001600160a01b0383161790555b5050565b606082826040516024016107f9929190610cb4565b60408051601f198184030181529190526020810180516001600160e01b031663023e3b7360e41b1790529392505050565b0160200190565b6000600180600884021b0380836020038503511691505092915050565b6108566109c0565b818351101561086457825191505b610872838384865103610518565b9392505050565b60208101516060908067ffffffffffffffff8111801561089857600080fd5b506040519080825280601f01601f1916602001820160405280156108c3576020820181803683370190505b50835190925060006108d484610958565b90506108e181838561095e565b505050919050565b6060818060200190518101906108ff9190610b38565b92915050565b6060633c52e5a160e01b826040516024016109209190610de8565b60408051601f198184030181529190526020810180516001600160e01b03166001600160e01b03199093169290921790915292915050565b60200190565b5b6020811061097e578151835260209283019290910190601f190161095f565b600180600883602003021b0380845116811984511617845250505050565b60408051606081018252600080825260208201529081016109bb6109e1565b905290565b60405180606001604052806000815260200160008152602001600081525090565b60408051608081018252600080825260208201819052918101829052606081019190915290565b600082601f830112610a18578081fd5b8135610a2b610a2682610ecd565b610ea6565b9150808252836020828501011115610a4257600080fd5b8060208401602084013760009082016020015292915050565b60008060408385031215610a6d578182fd5b8235610a7881610f21565b91506020830135610a8881610f21565b809150509250929050565b60008060408385031215610aa5578182fd5b8235610ab081610f21565b9150602083013567ffffffffffffffff811115610acb578182fd5b610ad785828601610a08565b9150509250929050565b600080600060608486031215610af5578081fd5b8335610b0081610f21565b925060208401359150604084013567ffffffffffffffff811115610b22578182fd5b610b2e86828701610a08565b9150509250925092565b600060208284031215610b49578081fd5b815167ffffffffffffffff811115610b5f578182fd5b80830184601f820112610b70578283fd5b80519150610b80610a2683610ecd565b828152856020848401011115610b94578384fd5b610ba5836020830160208501610ef1565b95945050505050565b600081830360c0811215610bc0578182fd5b610bca6060610ea6565b8351610bd581610f21565b81526020840151610be581610f21565b60208201526080603f1983011215610bfb578283fd5b610c056080610ea6565b91506040840151610c1581610f39565b82526060840151610c2581610f21565b60208301526080840151610c3881610f21565b604083015260a0840151610c4b81610f21565b606083015260408101919091529392505050565b6001600160a01b03169052565b60008151808452610c84816020860160208601610ef1565b601f01601f19169290920160200192915050565b60008251610caa818460208701610ef1565b9190910192915050565b6001600160a01b038316815260406020820181905260009061018490830184610c6c565b901515815260200190565b6000602082526108726020830184610c6c565b60208082526016908201527563616e277420696e697469616c697a6520747769636560501b604082015260600190565b6020808252601f908201527f66756e6374696f6e2068616e646c6572206e6f74207265676973746572656400604082015260600190565b60208082526022908201527f756e617574686f72697a65642076696577206c617965722064656c656761746960408201526137b760f11b606082015260800190565b60208082526029908201527f626f72726f772070726f78792063616e206f6e6c792062652075736564206279604082015268103137b93937bbb2b960b91b606082015260800190565b60006020825260018060a01b03808451166020840152806020850151166040840152506040830151610e1d6060840182610c5f565b506060830151610e306080840182610c5f565b506080830151610e4360a0840182610c5f565b5060a0830151610e5660c0840182610c5f565b5060c083015160e083015260e0830151610100808185015250610184610120840182610c6c565b9283526001600160a01b039190911660208301526001600160e01b031916604082015260600190565b60405181810167ffffffffffffffff81118282101715610ec557600080fd5b604052919050565b600067ffffffffffffffff821115610ee3578081fd5b50601f01601f191660200190565b60005b83811015610f0c578181015183820152602001610ef4565b83811115610f1b576000848401525b50505050565b6001600160a01b0381168114610f3657600080fd5b50565b8015158114610f3657600080fdfe6361707475726564206120726576657274206572726f722c2062757420697420646f65736e277420636f6e666f726d20746f20746865207374616e64617264a2646970667358221220c9602e81a88c7cd1753d48ef286b9a63535d5994121da590019264b6056b58a464736f6c63430006060033",
  "source": "pragma solidity ^0.6.0;\npragma experimental ABIEncoderV2;\n\nimport { BorrowProxyLib } from \"./BorrowProxyLib.sol\";\nimport { RevertCaptureLib } from \"./utils/RevertCaptureLib.sol\";\nimport { SliceLib } from \"./utils/SliceLib.sol\";\nimport { ViewExecutor } from \"./utils/ViewExecutor.sol\";\nimport { IShifter } from \"./interfaces/IShifter.sol\";\nimport { IBorrowProxyController } from \"./interfaces/IBorrowProxyController.sol\";\nimport { AddressSetLib } from \"./utils/AddressSetLib.sol\";\nimport { ModuleLib } from \"./adapters/lib/ModuleLib.sol\";\n\ncontract BorrowProxy is ViewExecutor {\n  using SliceLib for *;\n  using BorrowProxyLib for *;\n  using AddressSetLib for *;\n  BorrowProxyLib.ProxyIsolate isolate;\n  modifier onlyOwnerOrPool {\n   require(msg.sender == isolate.owner || msg.sender == isolate.masterAddress, \"borrow proxy can only be used by borrower\");\n    _;\n  }\n  function setup(address owner, address token) public returns (bool) {\n    require(isolate.owner == address(0x0), \"can't initialize twice\");\n    isolate.masterAddress = msg.sender;\n    isolate.owner = owner;\n    isolate.token = token;\n    return true;\n  }\n  function validateProxyRecord(bytes memory record) internal returns (bool) {\n    return IBorrowProxyController(isolate.masterAddress).validateProxyRecordHandler(record);\n  }\n  function proxy(address to, uint256 value, bytes memory payload) public onlyOwnerOrPool {\n    bytes4 sig = bytes4(uint32(uint256(payload.toSlice(0, 4).asWord())));\n    BorrowProxyLib.ModuleExecution memory module = isolate.fetchModule(to, sig);\n    module.token = isolate.token;\n    if (isolate.unbound && !module.encapsulated.isPrecompiled) {\n      (bool success, bytes memory retval) = to.call{\n        value: value\n      }(payload);\n      if (!success) revert(RevertCaptureLib.decodeError(retval));\n      ModuleLib.bubbleResult(success, retval);\n      return;\n    }\n    require(module.encapsulated.isDefined(), \"function handler not registered\");\n    (bool success, bytes memory retval) = module.delegate(payload, value);\n    if (!success) revert(RevertCaptureLib.decodeError(retval));\n    if (module.encapsulated.liquidationSubmodule != address(0x0)) isolate.liquidationSet.insert(module.encapsulated.liquidationSubmodule);\n    if (module.encapsulated.repaymentSubmodule != address(0x0)) isolate.repaymentSet.insert(module.encapsulated.repaymentSubmodule);\n    ModuleLib.bubbleResult(success, retval);\n  }\n  receive() external payable virtual {\n    // just receive ether, do nothing\n  } \n  fallback() external payable virtual {}\n}\n",
  "sourcePath": "/home/ray/0confirmation/packages/0confirmation-sol/contracts/BorrowProxy.sol",
  "compiler": {
    "name": "solc",
    "version": "0.6.6+commit.6c089d02.Emscripten.clang"
  },
  "schemaVersion": "3.0.23",
  "updatedAt": "2020-04-23T03:22:45.162Z",
  "devdoc": {
    "methods": {}
  },
  "userdoc": {
    "methods": {}
  }
}