{
  "contractName": "DarknodeRegistryStore",
  "abi": [
    {
      "inputs": [
        {
          "internalType": "string",
          "name": "_VERSION",
          "type": "string"
        },
        {
          "internalType": "contract RenToken",
          "name": "_ren",
          "type": "address"
        }
      ],
      "payable": false,
      "stateMutability": "nonpayable",
      "type": "constructor"
    },
    {
      "anonymous": false,
      "inputs": [
        {
          "indexed": true,
          "internalType": "address",
          "name": "previousOwner",
          "type": "address"
        },
        {
          "indexed": true,
          "internalType": "address",
          "name": "newOwner",
          "type": "address"
        }
      ],
      "name": "OwnershipTransferred",
      "type": "event"
    },
    {
      "constant": true,
      "inputs": [],
      "name": "VERSION",
      "outputs": [
        {
          "internalType": "string",
          "name": "",
          "type": "string"
        }
      ],
      "payable": false,
      "stateMutability": "view",
      "type": "function"
    },
    {
      "constant": false,
      "inputs": [
        {
          "internalType": "address",
          "name": "_token",
          "type": "address"
        }
      ],
      "name": "blacklistRecoverableToken",
      "outputs": [],
      "payable": false,
      "stateMutability": "nonpayable",
      "type": "function"
    },
    {
      "constant": false,
      "inputs": [],
      "name": "claimOwnership",
      "outputs": [],
      "payable": false,
      "stateMutability": "nonpayable",
      "type": "function"
    },
    {
      "constant": true,
      "inputs": [],
      "name": "isOwner",
      "outputs": [
        {
          "internalType": "bool",
          "name": "",
          "type": "bool"
        }
      ],
      "payable": false,
      "stateMutability": "view",
      "type": "function"
    },
    {
      "constant": true,
      "inputs": [],
      "name": "owner",
      "outputs": [
        {
          "internalType": "address",
          "name": "",
          "type": "address"
        }
      ],
      "payable": false,
      "stateMutability": "view",
      "type": "function"
    },
    {
      "constant": true,
      "inputs": [],
      "name": "pendingOwner",
      "outputs": [
        {
          "internalType": "address",
          "name": "",
          "type": "address"
        }
      ],
      "payable": false,
      "stateMutability": "view",
      "type": "function"
    },
    {
      "constant": false,
      "inputs": [
        {
          "internalType": "address",
          "name": "_token",
          "type": "address"
        }
      ],
      "name": "recoverTokens",
      "outputs": [],
      "payable": false,
      "stateMutability": "nonpayable",
      "type": "function"
    },
    {
      "constant": true,
      "inputs": [],
      "name": "ren",
      "outputs": [
        {
          "internalType": "contract RenToken",
          "name": "",
          "type": "address"
        }
      ],
      "payable": false,
      "stateMutability": "view",
      "type": "function"
    },
    {
      "constant": false,
      "inputs": [],
      "name": "renounceOwnership",
      "outputs": [],
      "payable": false,
      "stateMutability": "nonpayable",
      "type": "function"
    },
    {
      "constant": false,
      "inputs": [
        {
          "internalType": "address",
          "name": "newOwner",
          "type": "address"
        }
      ],
      "name": "transferOwnership",
      "outputs": [],
      "payable": false,
      "stateMutability": "nonpayable",
      "type": "function"
    },
    {
      "constant": false,
      "inputs": [
        {
          "internalType": "address",
          "name": "_darknodeID",
          "type": "address"
        },
        {
          "internalType": "address payable",
          "name": "_darknodeOwner",
          "type": "address"
        },
        {
          "internalType": "uint256",
          "name": "_bond",
          "type": "uint256"
        },
        {
          "internalType": "bytes",
          "name": "_publicKey",
          "type": "bytes"
        },
        {
          "internalType": "uint256",
          "name": "_registeredAt",
          "type": "uint256"
        },
        {
          "internalType": "uint256",
          "name": "_deregisteredAt",
          "type": "uint256"
        }
      ],
      "name": "appendDarknode",
      "outputs": [],
      "payable": false,
      "stateMutability": "nonpayable",
      "type": "function"
    },
    {
      "constant": true,
      "inputs": [],
      "name": "begin",
      "outputs": [
        {
          "internalType": "address",
          "name": "",
          "type": "address"
        }
      ],
      "payable": false,
      "stateMutability": "view",
      "type": "function"
    },
    {
      "constant": true,
      "inputs": [
        {
          "internalType": "address",
          "name": "darknodeID",
          "type": "address"
        }
      ],
      "name": "next",
      "outputs": [
        {
          "internalType": "address",
          "name": "",
          "type": "address"
        }
      ],
      "payable": false,
      "stateMutability": "view",
      "type": "function"
    },
    {
      "constant": false,
      "inputs": [
        {
          "internalType": "address",
          "name": "darknodeID",
          "type": "address"
        }
      ],
      "name": "removeDarknode",
      "outputs": [],
      "payable": false,
      "stateMutability": "nonpayable",
      "type": "function"
    },
    {
      "constant": false,
      "inputs": [
        {
          "internalType": "address",
          "name": "darknodeID",
          "type": "address"
        },
        {
          "internalType": "uint256",
          "name": "decreasedBond",
          "type": "uint256"
        }
      ],
      "name": "updateDarknodeBond",
      "outputs": [],
      "payable": false,
      "stateMutability": "nonpayable",
      "type": "function"
    },
    {
      "constant": false,
      "inputs": [
        {
          "internalType": "address",
          "name": "darknodeID",
          "type": "address"
        },
        {
          "internalType": "uint256",
          "name": "deregisteredAt",
          "type": "uint256"
        }
      ],
      "name": "updateDarknodeDeregisteredAt",
      "outputs": [],
      "payable": false,
      "stateMutability": "nonpayable",
      "type": "function"
    },
    {
      "constant": true,
      "inputs": [
        {
          "internalType": "address",
          "name": "darknodeID",
          "type": "address"
        }
      ],
      "name": "darknodeOwner",
      "outputs": [
        {
          "internalType": "address payable",
          "name": "",
          "type": "address"
        }
      ],
      "payable": false,
      "stateMutability": "view",
      "type": "function"
    },
    {
      "constant": true,
      "inputs": [
        {
          "internalType": "address",
          "name": "darknodeID",
          "type": "address"
        }
      ],
      "name": "darknodeBond",
      "outputs": [
        {
          "internalType": "uint256",
          "name": "",
          "type": "uint256"
        }
      ],
      "payable": false,
      "stateMutability": "view",
      "type": "function"
    },
    {
      "constant": true,
      "inputs": [
        {
          "internalType": "address",
          "name": "darknodeID",
          "type": "address"
        }
      ],
      "name": "darknodeRegisteredAt",
      "outputs": [
        {
          "internalType": "uint256",
          "name": "",
          "type": "uint256"
        }
      ],
      "payable": false,
      "stateMutability": "view",
      "type": "function"
    },
    {
      "constant": true,
      "inputs": [
        {
          "internalType": "address",
          "name": "darknodeID",
          "type": "address"
        }
      ],
      "name": "darknodeDeregisteredAt",
      "outputs": [
        {
          "internalType": "uint256",
          "name": "",
          "type": "uint256"
        }
      ],
      "payable": false,
      "stateMutability": "view",
      "type": "function"
    },
    {
      "constant": true,
      "inputs": [
        {
          "internalType": "address",
          "name": "darknodeID",
          "type": "address"
        }
      ],
      "name": "darknodePublicKey",
      "outputs": [
        {
          "internalType": "bytes",
          "name": "",
          "type": "bytes"
        }
      ],
      "payable": false,
      "stateMutability": "view",
      "type": "function"
    }
  ],
  "bytecode": "0x60806040523480156200001157600080fd5b50604051620035a5380380620035a5833981810160405260408110156200003757600080fd5b81019080805160405193929190846401000000008211156200005857600080fd5b838201915060208201858111156200006f57600080fd5b82518660018202830111640100000000821117156200008d57600080fd5b8083526020830192505050908051906020019080838360005b83811015620000c3578082015181840152602081019050620000a6565b50505050905090810190601f168015620000f15780820380516001836020036101000a031916815260200191505b50604052602001805190602001909291905050506000620001176200024a60201b60201c565b9050806000806101000a81548173ffffffffffffffffffffffffffffffffffffffff021916908373ffffffffffffffffffffffffffffffffffffffff1602179055508073ffffffffffffffffffffffffffffffffffffffff16600073ffffffffffffffffffffffffffffffffffffffff167f8be0079c531659141344cd1fd0a4f28419497f9722a3daafe3b4186f6b6457e060405160405180910390a3508160039080519060200190620001cd92919062000396565b5080600660006101000a81548173ffffffffffffffffffffffffffffffffffffffff021916908373ffffffffffffffffffffffffffffffffffffffff16021790555062000242600660009054906101000a900473ffffffffffffffffffffffffffffffffffffffff166200025260201b60201c565b505062000445565b600033905090565b620002626200033060201b60201c565b620002d5576040517f08c379a00000000000000000000000000000000000000000000000000000000081526004018080602001828103825260208152602001807f4f776e61626c653a2063616c6c6572206973206e6f7420746865206f776e657281525060200191505060405180910390fd5b6001600260008373ffffffffffffffffffffffffffffffffffffffff1673ffffffffffffffffffffffffffffffffffffffff16815260200190815260200160002060006101000a81548160ff02191690831515021790555050565b60008060009054906101000a900473ffffffffffffffffffffffffffffffffffffffff1673ffffffffffffffffffffffffffffffffffffffff166200037a6200024a60201b60201c565b73ffffffffffffffffffffffffffffffffffffffff1614905090565b828054600181600116156101000203166002900490600052602060002090601f016020900481019282601f10620003d957805160ff19168380011785556200040a565b828001600101855582156200040a579182015b8281111562000409578251825591602001919060010190620003ec565b5b5090506200041991906200041d565b5090565b6200044291905b808211156200043e57600081600090555060010162000424565b5090565b90565b61315080620004556000396000f3fe608060405234801561001057600080fd5b50600436106101375760003560e01c8063a3078815116100b8578063e30c39781161007c578063e30c39781461060d578063ee594a5014610657578063f2fde38b14610714578063f65d901c14610758578063fbc402fc1461079c578063ffa1ad74146107ea57610137565b8063a30788151461037e578063a85ef57914610402578063ab73e316146104d9578063cad413571461055d578063e2d7c64c146105b557610137565b80634e71e0c8116100ff5780634e71e0c8146102b4578063715018a6146102be5780638a9b4067146102c85780638da5cb5b146103125780638f32d59b1461035c57610137565b806301930b6e1461013c57806316114acd146101945780631bce6ff3146101d85780633ac39d4b1461022257806341b4439214610270575b600080fd5b61017e6004803603602081101561015257600080fd5b81019080803573ffffffffffffffffffffffffffffffffffffffff16906020019092919050505061086d565b6040518082815260200191505060405180910390f35b6101d6600480360360208110156101aa57600080fd5b81019080803573ffffffffffffffffffffffffffffffffffffffff169060200190929190505050610933565b005b6101e0610bce565b604051808273ffffffffffffffffffffffffffffffffffffffff1673ffffffffffffffffffffffffffffffffffffffff16815260200191505060405180910390f35b61026e6004803603604081101561023857600080fd5b81019080803573ffffffffffffffffffffffffffffffffffffffff16906020019092919080359060200190929190505050610c59565b005b6102b26004803603602081101561028657600080fd5b81019080803573ffffffffffffffffffffffffffffffffffffffff169060200190929190505050610d1e565b005b6102bc610fbf565b005b6102c66110be565b005b6102d06111f7565b604051808273ffffffffffffffffffffffffffffffffffffffff1673ffffffffffffffffffffffffffffffffffffffff16815260200191505060405180910390f35b61031a61121d565b604051808273ffffffffffffffffffffffffffffffffffffffff1673ffffffffffffffffffffffffffffffffffffffff16815260200191505060405180910390f35b610364611246565b604051808215151515815260200191505060405180910390f35b6103c06004803603602081101561039457600080fd5b81019080803573ffffffffffffffffffffffffffffffffffffffff1690602001909291905050506112a4565b604051808273ffffffffffffffffffffffffffffffffffffffff1673ffffffffffffffffffffffffffffffffffffffff16815260200191505060405180910390f35b6104d7600480360360c081101561041857600080fd5b81019080803573ffffffffffffffffffffffffffffffffffffffff169060200190929190803573ffffffffffffffffffffffffffffffffffffffff169060200190929190803590602001909291908035906020019064010000000081111561047f57600080fd5b82018360208201111561049157600080fd5b803590602001918460018302840111640100000000831117156104b357600080fd5b9091929391929390803590602001909291908035906020019092919050505061138a565b005b61051b600480360360208110156104ef57600080fd5b81019080803573ffffffffffffffffffffffffffffffffffffffff169060200190929190505050611569565b604051808273ffffffffffffffffffffffffffffffffffffffff1673ffffffffffffffffffffffffffffffffffffffff16815260200191505060405180910390f35b61059f6004803603602081101561057357600080fd5b81019080803573ffffffffffffffffffffffffffffffffffffffff1690602001909291905050506115f7565b6040518082815260200191505060405180910390f35b6105f7600480360360208110156105cb57600080fd5b81019080803573ffffffffffffffffffffffffffffffffffffffff1690602001909291905050506116bd565b6040518082815260200191505060405180910390f35b610615611783565b604051808273ffffffffffffffffffffffffffffffffffffffff1673ffffffffffffffffffffffffffffffffffffffff16815260200191505060405180910390f35b6106996004803603602081101561066d57600080fd5b81019080803573ffffffffffffffffffffffffffffffffffffffff1690602001909291905050506117a9565b6040518080602001828103825283818151815260200191508051906020019080838360005b838110156106d95780820151818401526020810190506106be565b50505050905090810190601f1680156107065780820380516001836020036101000a031916815260200191505b509250505060405180910390f35b6107566004803603602081101561072a57600080fd5b81019080803573ffffffffffffffffffffffffffffffffffffffff169060200190929190505050611907565b005b61079a6004803603602081101561076e57600080fd5b81019080803573ffffffffffffffffffffffffffffffffffffffff169060200190929190505050611ac8565b005b6107e8600480360360408110156107b257600080fd5b81019080803573ffffffffffffffffffffffffffffffffffffffff16906020019092919080359060200190929190505050611b9d565b005b6107f2611e54565b6040518080602001828103825283818151815260200191508051906020019080838360005b83811015610832578082015181840152602081019050610817565b50505050905090810190601f16801561085f5780820380516001836020036101000a031916815260200191505b509250505060405180910390f35b6000610877611246565b6108e9576040517f08c379a00000000000000000000000000000000000000000000000000000000081526004018080602001828103825260208152602001807f4f776e61626c653a2063616c6c6572206973206e6f7420746865206f776e657281525060200191505060405180910390fd5b600460008373ffffffffffffffffffffffffffffffffffffffff1673ffffffffffffffffffffffffffffffffffffffff168152602001908152602001600020600301549050919050565b61093b611246565b6109ad576040517f08c379a00000000000000000000000000000000000000000000000000000000081526004018080602001828103825260208152602001807f4f776e61626c653a2063616c6c6572206973206e6f7420746865206f776e657281525060200191505060405180910390fd5b600260008273ffffffffffffffffffffffffffffffffffffffff1673ffffffffffffffffffffffffffffffffffffffff16815260200190815260200160002060009054906101000a900460ff1615610a50576040517f08c379a000000000000000000000000000000000000000000000000000000000815260040180806020018281038252602a81526020018061304a602a913960400191505060405180910390fd5b600073ffffffffffffffffffffffffffffffffffffffff168173ffffffffffffffffffffffffffffffffffffffff161415610ae8573373ffffffffffffffffffffffffffffffffffffffff166108fc3073ffffffffffffffffffffffffffffffffffffffff16319081150290604051600060405180830381858888f19350505050158015610ae2573d6000803e3d6000fd5b50610bcb565b610bca338273ffffffffffffffffffffffffffffffffffffffff166370a08231306040518263ffffffff1660e01b8152600401808273ffffffffffffffffffffffffffffffffffffffff1673ffffffffffffffffffffffffffffffffffffffff16815260200191505060206040518083038186803b158015610b6957600080fd5b505afa158015610b7d573d6000803e3d6000fd5b505050506040513d6020811015610b9357600080fd5b81019080805190602001909291905050508373ffffffffffffffffffffffffffffffffffffffff16611ef29092919063ffffffff16565b5b50565b6000610bd8611246565b610c4a576040517f08c379a00000000000000000000000000000000000000000000000000000000081526004018080602001828103825260208152602001807f4f776e61626c653a2063616c6c6572206973206e6f7420746865206f776e657281525060200191505060405180910390fd5b610c546005611fc3565b905090565b610c61611246565b610cd3576040517f08c379a00000000000000000000000000000000000000000000000000000000081526004018080602001828103825260208152602001807f4f776e61626c653a2063616c6c6572206973206e6f7420746865206f776e657281525060200191505060405180910390fd5b80600460008473ffffffffffffffffffffffffffffffffffffffff1673ffffffffffffffffffffffffffffffffffffffff168152602001908152602001600020600301819055505050565b610d26611246565b610d98576040517f08c379a00000000000000000000000000000000000000000000000000000000081526004018080602001828103825260208152602001807f4f776e61626c653a2063616c6c6572206973206e6f7420746865206f776e657281525060200191505060405180910390fd5b6000600460008373ffffffffffffffffffffffffffffffffffffffff1673ffffffffffffffffffffffffffffffffffffffff168152602001908152602001600020600101549050600460008373ffffffffffffffffffffffffffffffffffffffff1673ffffffffffffffffffffffffffffffffffffffff168152602001908152602001600020600080820160006101000a81549073ffffffffffffffffffffffffffffffffffffffff0219169055600182016000905560028201600090556003820160009055600482016000610e6e9190612ef1565b5050610e7b600583612031565b600660009054906101000a900473ffffffffffffffffffffffffffffffffffffffff1673ffffffffffffffffffffffffffffffffffffffff1663a9059cbb610ec161121d565b836040518363ffffffff1660e01b8152600401808373ffffffffffffffffffffffffffffffffffffffff1673ffffffffffffffffffffffffffffffffffffffff16815260200182815260200192505050602060405180830381600087803b158015610f2b57600080fd5b505af1158015610f3f573d6000803e3d6000fd5b505050506040513d6020811015610f5557600080fd5b8101908080519060200190929190505050610fbb576040517f08c379a000000000000000000000000000000000000000000000000000000000815260040180806020018281038252602b815260200180613074602b913960400191505060405180910390fd5b5050565b600160009054906101000a900473ffffffffffffffffffffffffffffffffffffffff1673ffffffffffffffffffffffffffffffffffffffff1661100061238e565b73ffffffffffffffffffffffffffffffffffffffff161461106c576040517f08c379a000000000000000000000000000000000000000000000000000000000815260040180806020018281038252602a81526020018061309f602a913960400191505060405180910390fd5b611097600160009054906101000a900473ffffffffffffffffffffffffffffffffffffffff16612396565b600160006101000a81549073ffffffffffffffffffffffffffffffffffffffff0219169055565b6110c6611246565b611138576040517f08c379a00000000000000000000000000000000000000000000000000000000081526004018080602001828103825260208152602001807f4f776e61626c653a2063616c6c6572206973206e6f7420746865206f776e657281525060200191505060405180910390fd5b600073ffffffffffffffffffffffffffffffffffffffff166000809054906101000a900473ffffffffffffffffffffffffffffffffffffffff1673ffffffffffffffffffffffffffffffffffffffff167f8be0079c531659141344cd1fd0a4f28419497f9722a3daafe3b4186f6b6457e060405160405180910390a360008060006101000a81548173ffffffffffffffffffffffffffffffffffffffff021916908373ffffffffffffffffffffffffffffffffffffffff160217905550565b600660009054906101000a900473ffffffffffffffffffffffffffffffffffffffff1681565b60008060009054906101000a900473ffffffffffffffffffffffffffffffffffffffff16905090565b60008060009054906101000a900473ffffffffffffffffffffffffffffffffffffffff1673ffffffffffffffffffffffffffffffffffffffff1661128861238e565b73ffffffffffffffffffffffffffffffffffffffff1614905090565b60006112ae611246565b611320576040517f08c379a00000000000000000000000000000000000000000000000000000000081526004018080602001828103825260208152602001807f4f776e61626c653a2063616c6c6572206973206e6f7420746865206f776e657281525060200191505060405180910390fd5b600460008373ffffffffffffffffffffffffffffffffffffffff1673ffffffffffffffffffffffffffffffffffffffff16815260200190815260200160002060000160009054906101000a900473ffffffffffffffffffffffffffffffffffffffff169050919050565b611392611246565b611404576040517f08c379a00000000000000000000000000000000000000000000000000000000081526004018080602001828103825260208152602001807f4f776e61626c653a2063616c6c6572206973206e6f7420746865206f776e657281525060200191505060405180910390fd5b61140c612f39565b6040518060a001604052808873ffffffffffffffffffffffffffffffffffffffff16815260200187815260200184815260200183815260200186868080601f016020809104026020016040519081016040528093929190818152602001838380828437600081840152601f19601f82011690508083019250505050505050815250905080600460008a73ffffffffffffffffffffffffffffffffffffffff1673ffffffffffffffffffffffffffffffffffffffff16815260200190815260200160002060008201518160000160006101000a81548173ffffffffffffffffffffffffffffffffffffffff021916908373ffffffffffffffffffffffffffffffffffffffff1602179055506020820151816001015560408201518160020155606082015181600301556080820151816004019080519060200190611550929190612f7e565b5090505061155f6005896124da565b5050505050505050565b6000611573611246565b6115e5576040517f08c379a00000000000000000000000000000000000000000000000000000000081526004018080602001828103825260208152602001807f4f776e61626c653a2063616c6c6572206973206e6f7420746865206f776e657281525060200191505060405180910390fd5b6115f06005836124f1565b9050919050565b6000611601611246565b611673576040517f08c379a00000000000000000000000000000000000000000000000000000000081526004018080602001828103825260208152602001807f4f776e61626c653a2063616c6c6572206973206e6f7420746865206f776e657281525060200191505060405180910390fd5b600460008373ffffffffffffffffffffffffffffffffffffffff1673ffffffffffffffffffffffffffffffffffffffff168152602001908152602001600020600101549050919050565b60006116c7611246565b611739576040517f08c379a00000000000000000000000000000000000000000000000000000000081526004018080602001828103825260208152602001807f4f776e61626c653a2063616c6c6572206973206e6f7420746865206f776e657281525060200191505060405180910390fd5b600460008373ffffffffffffffffffffffffffffffffffffffff1673ffffffffffffffffffffffffffffffffffffffff168152602001908152602001600020600201549050919050565b600160009054906101000a900473ffffffffffffffffffffffffffffffffffffffff1681565b60606117b3611246565b611825576040517f08c379a00000000000000000000000000000000000000000000000000000000081526004018080602001828103825260208152602001807f4f776e61626c653a2063616c6c6572206973206e6f7420746865206f776e657281525060200191505060405180910390fd5b600460008373ffffffffffffffffffffffffffffffffffffffff1673ffffffffffffffffffffffffffffffffffffffff1681526020019081526020016000206004018054600181600116156101000203166002900480601f0160208091040260200160405190810160405280929190818152602001828054600181600116156101000203166002900480156118fb5780601f106118d0576101008083540402835291602001916118fb565b820191906000526020600020905b8154815290600101906020018083116118de57829003601f168201915b50505050509050919050565b61190f611246565b611981576040517f08c379a00000000000000000000000000000000000000000000000000000000081526004018080602001828103825260208152602001807f4f776e61626c653a2063616c6c6572206973206e6f7420746865206f776e657281525060200191505060405180910390fd5b61198961121d565b73ffffffffffffffffffffffffffffffffffffffff168173ffffffffffffffffffffffffffffffffffffffff1614158015611a125750600160009054906101000a900473ffffffffffffffffffffffffffffffffffffffff1673ffffffffffffffffffffffffffffffffffffffff168173ffffffffffffffffffffffffffffffffffffffff1614155b611a84576040517f08c379a000000000000000000000000000000000000000000000000000000000815260040180806020018281038252601c8152602001807f436c61696d61626c653a20696e76616c6964206e6577206f776e65720000000081525060200191505060405180910390fd5b80600160006101000a81548173ffffffffffffffffffffffffffffffffffffffff021916908373ffffffffffffffffffffffffffffffffffffffff16021790555050565b611ad0611246565b611b42576040517f08c379a00000000000000000000000000000000000000000000000000000000081526004018080602001828103825260208152602001807f4f776e61626c653a2063616c6c6572206973206e6f7420746865206f776e657281525060200191505060405180910390fd5b6001600260008373ffffffffffffffffffffffffffffffffffffffff1673ffffffffffffffffffffffffffffffffffffffff16815260200190815260200160002060006101000a81548160ff02191690831515021790555050565b611ba5611246565b611c17576040517f08c379a00000000000000000000000000000000000000000000000000000000081526004018080602001828103825260208152602001807f4f776e61626c653a2063616c6c6572206973206e6f7420746865206f776e657281525060200191505060405180910390fd5b6000600460008473ffffffffffffffffffffffffffffffffffffffff1673ffffffffffffffffffffffffffffffffffffffff168152602001908152602001600020600101549050808210611cb6576040517f08c379a00000000000000000000000000000000000000000000000000000000081526004018080602001828103825260298152602001806130f36029913960400191505060405180910390fd5b81600460008573ffffffffffffffffffffffffffffffffffffffff1673ffffffffffffffffffffffffffffffffffffffff16815260200190815260200160002060010181905550600660009054906101000a900473ffffffffffffffffffffffffffffffffffffffff1673ffffffffffffffffffffffffffffffffffffffff1663a9059cbb611d4361121d565b611d5685856125dc90919063ffffffff16565b6040518363ffffffff1660e01b8152600401808373ffffffffffffffffffffffffffffffffffffffff1673ffffffffffffffffffffffffffffffffffffffff16815260200182815260200192505050602060405180830381600087803b158015611dbf57600080fd5b505af1158015611dd3573d6000803e3d6000fd5b505050506040513d6020811015611de957600080fd5b8101908080519060200190929190505050611e4f576040517f08c379a000000000000000000000000000000000000000000000000000000000815260040180806020018281038252602b815260200180613074602b913960400191505060405180910390fd5b505050565b60038054600181600116156101000203166002900480601f016020809104026020016040519081016040528092919081815260200182805460018160011615610100020316600290048015611eea5780601f10611ebf57610100808354040283529160200191611eea565b820191906000526020600020905b815481529060010190602001808311611ecd57829003601f168201915b505050505081565b611fbe838473ffffffffffffffffffffffffffffffffffffffff1663a9059cbb905060e01b8484604051602401808373ffffffffffffffffffffffffffffffffffffffff1673ffffffffffffffffffffffffffffffffffffffff16815260200182815260200192505050604051602081830303815290604052907bffffffffffffffffffffffffffffffffffffffffffffffffffffffff19166020820180517bffffffffffffffffffffffffffffffffffffffffffffffffffffffff8381831617835250505050612626565b505050565b60008160000160008073ffffffffffffffffffffffffffffffffffffffff1673ffffffffffffffffffffffffffffffffffffffff16815260200190815260200160002060010160009054906101000a900473ffffffffffffffffffffffffffffffffffffffff169050919050565b61203b8282612871565b6120ad576040517f08c379a00000000000000000000000000000000000000000000000000000000081526004018080602001828103825260178152602001807f4c696e6b65644c6973743a206e6f7420696e206c69737400000000000000000081525060200191505060405180910390fd5b60008260000160008373ffffffffffffffffffffffffffffffffffffffff1673ffffffffffffffffffffffffffffffffffffffff16815260200190815260200160002060000160019054906101000a900473ffffffffffffffffffffffffffffffffffffffff16905060008360000160008473ffffffffffffffffffffffffffffffffffffffff1673ffffffffffffffffffffffffffffffffffffffff16815260200190815260200160002060010160009054906101000a900473ffffffffffffffffffffffffffffffffffffffff169050808460000160008473ffffffffffffffffffffffffffffffffffffffff1673ffffffffffffffffffffffffffffffffffffffff16815260200190815260200160002060010160006101000a81548173ffffffffffffffffffffffffffffffffffffffff021916908373ffffffffffffffffffffffffffffffffffffffff160217905550818460000160008373ffffffffffffffffffffffffffffffffffffffff1673ffffffffffffffffffffffffffffffffffffffff16815260200190815260200160002060000160016101000a81548173ffffffffffffffffffffffffffffffffffffffff021916908373ffffffffffffffffffffffffffffffffffffffff16021790555060008460000160008573ffffffffffffffffffffffffffffffffffffffff1673ffffffffffffffffffffffffffffffffffffffff16815260200190815260200160002060000160006101000a81548160ff0219169083151502179055508360000160008473ffffffffffffffffffffffffffffffffffffffff1673ffffffffffffffffffffffffffffffffffffffff168152602001908152602001600020600080820160006101000a81549060ff02191690556000820160016101000a81549073ffffffffffffffffffffffffffffffffffffffff02191690556001820160006101000a81549073ffffffffffffffffffffffffffffffffffffffff0219169055505050505050565b600033905090565b600073ffffffffffffffffffffffffffffffffffffffff168173ffffffffffffffffffffffffffffffffffffffff16141561241c576040517f08c379a00000000000000000000000000000000000000000000000000000000081526004018080602001828103825260268152602001806130246026913960400191505060405180910390fd5b8073ffffffffffffffffffffffffffffffffffffffff166000809054906101000a900473ffffffffffffffffffffffffffffffffffffffff1673ffffffffffffffffffffffffffffffffffffffff167f8be0079c531659141344cd1fd0a4f28419497f9722a3daafe3b4186f6b6457e060405160405180910390a3806000806101000a81548173ffffffffffffffffffffffffffffffffffffffff021916908373ffffffffffffffffffffffffffffffffffffffff16021790555050565b6124ed826124e7846128cd565b8361293b565b5050565b60006124fd8383612871565b61256f576040517f08c379a00000000000000000000000000000000000000000000000000000000081526004018080602001828103825260178152602001807f4c696e6b65644c6973743a206e6f7420696e206c69737400000000000000000081525060200191505060405180910390fd5b8260000160008373ffffffffffffffffffffffffffffffffffffffff1673ffffffffffffffffffffffffffffffffffffffff16815260200190815260200160002060010160009054906101000a900473ffffffffffffffffffffffffffffffffffffffff16905092915050565b600061261e83836040518060400160405280601e81526020017f536166654d6174683a207375627472616374696f6e206f766572666c6f770000815250612de6565b905092915050565b6126458273ffffffffffffffffffffffffffffffffffffffff16612ea6565b6126b7576040517f08c379a000000000000000000000000000000000000000000000000000000000815260040180806020018281038252601f8152602001807f5361666545524332303a2063616c6c20746f206e6f6e2d636f6e74726163740081525060200191505060405180910390fd5b600060608373ffffffffffffffffffffffffffffffffffffffff16836040518082805190602001908083835b6020831061270657805182526020820191506020810190506020830392506126e3565b6001836020036101000a0380198251168184511680821785525050505050509050019150506000604051808303816000865af19150503d8060008114612768576040519150601f19603f3d011682016040523d82523d6000602084013e61276d565b606091505b5091509150816127e5576040517f08c379a00000000000000000000000000000000000000000000000000000000081526004018080602001828103825260208152602001807f5361666545524332303a206c6f772d6c6576656c2063616c6c206661696c656481525060200191505060405180910390fd5b60008151111561286b5780806020019051602081101561280457600080fd5b810190808051906020019092919050505061286a576040517f08c379a000000000000000000000000000000000000000000000000000000000815260040180806020018281038252602a8152602001806130c9602a913960400191505060405180910390fd5b5b50505050565b60008260000160008373ffffffffffffffffffffffffffffffffffffffff1673ffffffffffffffffffffffffffffffffffffffff16815260200190815260200160002060000160009054906101000a900460ff16905092915050565b60008160000160008073ffffffffffffffffffffffffffffffffffffffff1673ffffffffffffffffffffffffffffffffffffffff16815260200190815260200160002060000160019054906101000a900473ffffffffffffffffffffffffffffffffffffffff169050919050565b600073ffffffffffffffffffffffffffffffffffffffff168173ffffffffffffffffffffffffffffffffffffffff1614156129de576040517f08c379a000000000000000000000000000000000000000000000000000000000815260040180806020018281038252601b8152602001807f4c696e6b65644c6973743a20696e76616c69642061646472657373000000000081525060200191505060405180910390fd5b6129e88382612871565b15612a5b576040517f08c379a000000000000000000000000000000000000000000000000000000000815260040180806020018281038252601b8152602001807f4c696e6b65644c6973743a20616c726561647920696e206c697374000000000081525060200191505060405180910390fd5b612a658383612871565b80612a9c5750600073ffffffffffffffffffffffffffffffffffffffff168273ffffffffffffffffffffffffffffffffffffffff16145b612b0e576040517f08c379a00000000000000000000000000000000000000000000000000000000081526004018080602001828103825260178152602001807f4c696e6b65644c6973743a206e6f7420696e206c69737400000000000000000081525060200191505060405180910390fd5b60008360000160008473ffffffffffffffffffffffffffffffffffffffff1673ffffffffffffffffffffffffffffffffffffffff16815260200190815260200160002060010160009054906101000a900473ffffffffffffffffffffffffffffffffffffffff169050828460000160008473ffffffffffffffffffffffffffffffffffffffff1673ffffffffffffffffffffffffffffffffffffffff16815260200190815260200160002060000160016101000a81548173ffffffffffffffffffffffffffffffffffffffff021916908373ffffffffffffffffffffffffffffffffffffffff160217905550808460000160008473ffffffffffffffffffffffffffffffffffffffff1673ffffffffffffffffffffffffffffffffffffffff16815260200190815260200160002060010160006101000a81548173ffffffffffffffffffffffffffffffffffffffff021916908373ffffffffffffffffffffffffffffffffffffffff160217905550818460000160008573ffffffffffffffffffffffffffffffffffffffff1673ffffffffffffffffffffffffffffffffffffffff16815260200190815260200160002060010160006101000a81548173ffffffffffffffffffffffffffffffffffffffff021916908373ffffffffffffffffffffffffffffffffffffffff160217905550818460000160008373ffffffffffffffffffffffffffffffffffffffff1673ffffffffffffffffffffffffffffffffffffffff16815260200190815260200160002060000160016101000a81548173ffffffffffffffffffffffffffffffffffffffff021916908373ffffffffffffffffffffffffffffffffffffffff16021790555060018460000160008473ffffffffffffffffffffffffffffffffffffffff1673ffffffffffffffffffffffffffffffffffffffff16815260200190815260200160002060000160006101000a81548160ff02191690831515021790555050505050565b6000838311158290612e93576040517f08c379a00000000000000000000000000000000000000000000000000000000081526004018080602001828103825283818151815260200191508051906020019080838360005b83811015612e58578082015181840152602081019050612e3d565b50505050905090810190601f168015612e855780820380516001836020036101000a031916815260200191505b509250505060405180910390fd5b5060008385039050809150509392505050565b60008060007fc5d2460186f7233c927e7db2dcc703c0e500b653ca82273b7bfad8045d85a47060001b9050833f9150808214158015612ee857506000801b8214155b92505050919050565b50805460018160011615610100020316600290046000825580601f10612f175750612f36565b601f016020900490600052602060002090810190612f359190612ffe565b5b50565b6040518060a00160405280600073ffffffffffffffffffffffffffffffffffffffff168152602001600081526020016000815260200160008152602001606081525090565b828054600181600116156101000203166002900490600052602060002090601f016020900481019282601f10612fbf57805160ff1916838001178555612fed565b82800160010185558215612fed579182015b82811115612fec578251825591602001919060010190612fd1565b5b509050612ffa9190612ffe565b5090565b61302091905b8082111561301c576000816000905550600101613004565b5090565b9056fe4f776e61626c653a206e6577206f776e657220697320746865207a65726f206164647265737343616e5265636c61696d546f6b656e733a20746f6b656e206973206e6f74207265636f76657261626c654461726b6e6f6465526567697374727953746f72653a20626f6e64207472616e73666572206661696c6564436c61696d61626c653a2063616c6c6572206973206e6f74207468652070656e64696e67206f776e65725361666545524332303a204552433230206f7065726174696f6e20646964206e6f7420737563636565644461726b6e6f6465526567697374727953746f72653a20626f6e64206e6f7420646563726561736564a265627a7a72315820b7c9f8218b3460d953ae661c7d49b9c8c46ed0c12da8fb0df2dd40c4fc8f69b664736f6c634300050c0032",
  "source": "pragma solidity 0.5.12;\n\nimport \"openzeppelin-solidity/contracts/math/SafeMath.sol\";\n\nimport \"../libraries/Claimable.sol\";\nimport \"../libraries/LinkedList.sol\";\nimport \"../RenToken/RenToken.sol\";\nimport \"../libraries/CanReclaimTokens.sol\";\n\n/// @notice This contract stores data and funds for the DarknodeRegistry\n/// contract. The data / fund logic and storage have been separated to improve\n/// upgradability.\ncontract DarknodeRegistryStore is Claimable, CanReclaimTokens {\n    using SafeMath for uint256;\n\n    string public VERSION; // Passed in as a constructor parameter.\n\n    /// @notice Darknodes are stored in the darknode struct. The owner is the\n    /// address that registered the darknode, the bond is the amount of REN that\n    /// was transferred during registration, and the public key is the\n    /// encryption key that should be used when sending sensitive information to\n    /// the darknode.\n    struct Darknode {\n        // The owner of a Darknode is the address that called the register\n        // function. The owner is the only address that is allowed to\n        // deregister the Darknode, unless the Darknode is slashed for\n        // malicious behavior.\n        address payable owner;\n\n        // The bond is the amount of REN submitted as a bond by the Darknode.\n        // This amount is reduced when the Darknode is slashed for malicious\n        // behavior.\n        uint256 bond;\n\n        // The block number at which the Darknode is considered registered.\n        uint256 registeredAt;\n\n        // The block number at which the Darknode is considered deregistered.\n        uint256 deregisteredAt;\n\n        // The public key used by this Darknode for encrypting sensitive data\n        // off chain. It is assumed that the Darknode has access to the\n        // respective private key, and that there is an agreement on the format\n        // of the public key.\n        bytes publicKey;\n    }\n\n    /// Registry data.\n    mapping(address => Darknode) private darknodeRegistry;\n    LinkedList.List private darknodes;\n\n    // RenToken.\n    RenToken public ren;\n\n    /// @notice The contract constructor.\n    ///\n    /// @param _VERSION A string defining the contract version.\n    /// @param _ren The address of the RenToken contract.\n    constructor(\n        string memory _VERSION,\n        RenToken _ren\n    ) public {\n        VERSION = _VERSION;\n        ren = _ren;\n        blacklistRecoverableToken(address(ren));\n    }\n\n    /// @notice Instantiates a darknode and appends it to the darknodes\n    /// linked-list.\n    ///\n    /// @param _darknodeID The darknode's ID.\n    /// @param _darknodeOwner The darknode's owner's address\n    /// @param _bond The darknode's bond value\n    /// @param _publicKey The darknode's public key\n    /// @param _registeredAt The time stamp when the darknode is registered.\n    /// @param _deregisteredAt The time stamp when the darknode is deregistered.\n    function appendDarknode(\n        address _darknodeID,\n        address payable _darknodeOwner,\n        uint256 _bond,\n        bytes calldata _publicKey,\n        uint256 _registeredAt,\n        uint256 _deregisteredAt\n    ) external onlyOwner {\n        Darknode memory darknode = Darknode({\n            owner: _darknodeOwner,\n            bond: _bond,\n            publicKey: _publicKey,\n            registeredAt: _registeredAt,\n            deregisteredAt: _deregisteredAt\n        });\n        darknodeRegistry[_darknodeID] = darknode;\n        LinkedList.append(darknodes, _darknodeID);\n    }\n\n    /// @notice Returns the address of the first darknode in the store\n    function begin() external view onlyOwner returns(address) {\n        return LinkedList.begin(darknodes);\n    }\n\n    /// @notice Returns the address of the next darknode in the store after the\n    /// given address.\n    function next(address darknodeID) external view onlyOwner returns(address) {\n        return LinkedList.next(darknodes, darknodeID);\n    }\n\n    /// @notice Removes a darknode from the store and transfers its bond to the\n    /// owner of this contract.\n    function removeDarknode(address darknodeID) external onlyOwner {\n        uint256 bond = darknodeRegistry[darknodeID].bond;\n        delete darknodeRegistry[darknodeID];\n        LinkedList.remove(darknodes, darknodeID);\n        require(ren.transfer(owner(), bond), \"DarknodeRegistryStore: bond transfer failed\");\n    }\n\n    /// @notice Updates the bond of a darknode. The new bond must be smaller\n    /// than the previous bond of the darknode.\n    function updateDarknodeBond(address darknodeID, uint256 decreasedBond) external onlyOwner {\n        uint256 previousBond = darknodeRegistry[darknodeID].bond;\n        require(decreasedBond < previousBond, \"DarknodeRegistryStore: bond not decreased\");\n        darknodeRegistry[darknodeID].bond = decreasedBond;\n        require(ren.transfer(owner(), previousBond.sub(decreasedBond)), \"DarknodeRegistryStore: bond transfer failed\");\n    }\n\n    /// @notice Updates the deregistration timestamp of a darknode.\n    function updateDarknodeDeregisteredAt(address darknodeID, uint256 deregisteredAt) external onlyOwner {\n        darknodeRegistry[darknodeID].deregisteredAt = deregisteredAt;\n    }\n\n    /// @notice Returns the owner of a given darknode.\n    function darknodeOwner(address darknodeID) external view onlyOwner returns (address payable) {\n        return darknodeRegistry[darknodeID].owner;\n    }\n\n    /// @notice Returns the bond of a given darknode.\n    function darknodeBond(address darknodeID) external view onlyOwner returns (uint256) {\n        return darknodeRegistry[darknodeID].bond;\n    }\n\n    /// @notice Returns the registration time of a given darknode.\n    function darknodeRegisteredAt(address darknodeID) external view onlyOwner returns (uint256) {\n        return darknodeRegistry[darknodeID].registeredAt;\n    }\n\n    /// @notice Returns the deregistration time of a given darknode.\n    function darknodeDeregisteredAt(address darknodeID) external view onlyOwner returns (uint256) {\n        return darknodeRegistry[darknodeID].deregisteredAt;\n    }\n\n    /// @notice Returns the encryption public key of a given darknode.\n    function darknodePublicKey(address darknodeID) external view onlyOwner returns (bytes memory) {\n        return darknodeRegistry[darknodeID].publicKey;\n    }\n}",
  "sourcePath": "/home/ray/0confirmation-mono/node_modules/darknode-sol/contracts/DarknodeRegistry/DarknodeRegistryStore.sol",
  "compiler": {
    "name": "solc",
    "version": "0.5.12+commit.7709ece9.Linux.g++"
  },
  "schemaVersion": "3.0.23",
  "updatedAt": "2020-03-08T19:15:48.059Z",
  "devdoc": {
    "methods": {
      "appendDarknode(address,address,uint256,bytes,uint256,uint256)": {
        "params": {
          "_bond": "The darknode's bond value",
          "_darknodeID": "The darknode's ID.",
          "_darknodeOwner": "The darknode's owner's address",
          "_deregisteredAt": "The time stamp when the darknode is deregistered.",
          "_publicKey": "The darknode's public key",
          "_registeredAt": "The time stamp when the darknode is registered."
        }
      },
      "constructor": {
        "params": {
          "_VERSION": "A string defining the contract version.",
          "_ren": "The address of the RenToken contract."
        }
      },
      "isOwner()": {
        "details": "Returns true if the caller is the current owner."
      },
      "owner()": {
        "details": "Returns the address of the current owner."
      },
      "renounceOwnership()": {
        "details": "Leaves the contract without owner. It will not be possible to call `onlyOwner` functions anymore. Can only be called by the current owner.     * NOTE: Renouncing ownership will leave the contract without an owner, thereby removing any functionality that is only available to the owner."
      }
    }
  },
  "userdoc": {
    "methods": {
      "appendDarknode(address,address,uint256,bytes,uint256,uint256)": {
        "notice": "Instantiates a darknode and appends it to the darknodes linked-list. "
      },
      "begin()": {
        "notice": "Returns the address of the first darknode in the store"
      },
      "constructor": "The contract constructor. ",
      "darknodeBond(address)": {
        "notice": "Returns the bond of a given darknode."
      },
      "darknodeDeregisteredAt(address)": {
        "notice": "Returns the deregistration time of a given darknode."
      },
      "darknodeOwner(address)": {
        "notice": "Returns the owner of a given darknode."
      },
      "darknodePublicKey(address)": {
        "notice": "Returns the encryption public key of a given darknode."
      },
      "darknodeRegisteredAt(address)": {
        "notice": "Returns the registration time of a given darknode."
      },
      "next(address)": {
        "notice": "Returns the address of the next darknode in the store after the given address."
      },
      "recoverTokens(address)": {
        "notice": "Allow the owner of the contract to recover funds accidentally sent to the contract. To withdraw ETH, the token should be set to `0x0`."
      },
      "removeDarknode(address)": {
        "notice": "Removes a darknode from the store and transfers its bond to the owner of this contract."
      },
      "updateDarknodeBond(address,uint256)": {
        "notice": "Updates the bond of a darknode. The new bond must be smaller than the previous bond of the darknode."
      },
      "updateDarknodeDeregisteredAt(address,uint256)": {
        "notice": "Updates the deregistration timestamp of a darknode."
      }
    },
    "notice": "This contract stores data and funds for the DarknodeRegistry contract. The data / fund logic and storage have been separated to improve upgradability."
  }
}