{
  "contractName": "DarknodeSlasher",
  "abi": [
    {
      "inputs": [
        {
          "internalType": "contract DarknodeRegistry",
          "name": "_darknodeRegistry",
          "type": "address"
        }
      ],
      "payable": false,
      "stateMutability": "nonpayable",
      "type": "constructor"
    },
    {
      "anonymous": false,
      "inputs": [
        {
          "indexed": false,
          "internalType": "contract DarknodeRegistry",
          "name": "_previousDarknodeRegistry",
          "type": "address"
        },
        {
          "indexed": false,
          "internalType": "contract DarknodeRegistry",
          "name": "_nextDarknodeRegistry",
          "type": "address"
        }
      ],
      "name": "LogDarknodeRegistryUpdated",
      "type": "event"
    },
    {
      "anonymous": false,
      "inputs": [
        {
          "indexed": true,
          "internalType": "address",
          "name": "previousOwner",
          "type": "address"
        },
        {
          "indexed": true,
          "internalType": "address",
          "name": "newOwner",
          "type": "address"
        }
      ],
      "name": "OwnershipTransferred",
      "type": "event"
    },
    {
      "constant": true,
      "inputs": [],
      "name": "blacklistSlashPercent",
      "outputs": [
        {
          "internalType": "uint256",
          "name": "",
          "type": "uint256"
        }
      ],
      "payable": false,
      "stateMutability": "view",
      "type": "function"
    },
    {
      "constant": true,
      "inputs": [
        {
          "internalType": "address",
          "name": "",
          "type": "address"
        }
      ],
      "name": "blacklisted",
      "outputs": [
        {
          "internalType": "bool",
          "name": "",
          "type": "bool"
        }
      ],
      "payable": false,
      "stateMutability": "view",
      "type": "function"
    },
    {
      "constant": false,
      "inputs": [],
      "name": "claimOwnership",
      "outputs": [],
      "payable": false,
      "stateMutability": "nonpayable",
      "type": "function"
    },
    {
      "constant": true,
      "inputs": [],
      "name": "darknodeRegistry",
      "outputs": [
        {
          "internalType": "contract DarknodeRegistry",
          "name": "",
          "type": "address"
        }
      ],
      "payable": false,
      "stateMutability": "view",
      "type": "function"
    },
    {
      "constant": true,
      "inputs": [],
      "name": "isOwner",
      "outputs": [
        {
          "internalType": "bool",
          "name": "",
          "type": "bool"
        }
      ],
      "payable": false,
      "stateMutability": "view",
      "type": "function"
    },
    {
      "constant": true,
      "inputs": [],
      "name": "maliciousSlashPercent",
      "outputs": [
        {
          "internalType": "uint256",
          "name": "",
          "type": "uint256"
        }
      ],
      "payable": false,
      "stateMutability": "view",
      "type": "function"
    },
    {
      "constant": true,
      "inputs": [],
      "name": "owner",
      "outputs": [
        {
          "internalType": "address",
          "name": "",
          "type": "address"
        }
      ],
      "payable": false,
      "stateMutability": "view",
      "type": "function"
    },
    {
      "constant": true,
      "inputs": [],
      "name": "pendingOwner",
      "outputs": [
        {
          "internalType": "address",
          "name": "",
          "type": "address"
        }
      ],
      "payable": false,
      "stateMutability": "view",
      "type": "function"
    },
    {
      "constant": false,
      "inputs": [],
      "name": "renounceOwnership",
      "outputs": [],
      "payable": false,
      "stateMutability": "nonpayable",
      "type": "function"
    },
    {
      "constant": true,
      "inputs": [],
      "name": "secretRevealSlashPercent",
      "outputs": [
        {
          "internalType": "uint256",
          "name": "",
          "type": "uint256"
        }
      ],
      "payable": false,
      "stateMutability": "view",
      "type": "function"
    },
    {
      "constant": true,
      "inputs": [
        {
          "internalType": "address",
          "name": "",
          "type": "address"
        }
      ],
      "name": "secretRevealed",
      "outputs": [
        {
          "internalType": "bool",
          "name": "",
          "type": "bool"
        }
      ],
      "payable": false,
      "stateMutability": "view",
      "type": "function"
    },
    {
      "constant": true,
      "inputs": [
        {
          "internalType": "uint256",
          "name": "",
          "type": "uint256"
        },
        {
          "internalType": "uint256",
          "name": "",
          "type": "uint256"
        },
        {
          "internalType": "address",
          "name": "",
          "type": "address"
        }
      ],
      "name": "slashed",
      "outputs": [
        {
          "internalType": "bool",
          "name": "",
          "type": "bool"
        }
      ],
      "payable": false,
      "stateMutability": "view",
      "type": "function"
    },
    {
      "constant": false,
      "inputs": [
        {
          "internalType": "address",
          "name": "newOwner",
          "type": "address"
        }
      ],
      "name": "transferOwnership",
      "outputs": [],
      "payable": false,
      "stateMutability": "nonpayable",
      "type": "function"
    },
    {
      "constant": false,
      "inputs": [
        {
          "internalType": "contract DarknodeRegistry",
          "name": "_darknodeRegistry",
          "type": "address"
        }
      ],
      "name": "updateDarknodeRegistry",
      "outputs": [],
      "payable": false,
      "stateMutability": "nonpayable",
      "type": "function"
    },
    {
      "constant": false,
      "inputs": [
        {
          "internalType": "uint256",
          "name": "_percentage",
          "type": "uint256"
        }
      ],
      "name": "setBlacklistSlashPercent",
      "outputs": [],
      "payable": false,
      "stateMutability": "nonpayable",
      "type": "function"
    },
    {
      "constant": false,
      "inputs": [
        {
          "internalType": "uint256",
          "name": "_percentage",
          "type": "uint256"
        }
      ],
      "name": "setMaliciousSlashPercent",
      "outputs": [],
      "payable": false,
      "stateMutability": "nonpayable",
      "type": "function"
    },
    {
      "constant": false,
      "inputs": [
        {
          "internalType": "uint256",
          "name": "_percentage",
          "type": "uint256"
        }
      ],
      "name": "setSecretRevealSlashPercent",
      "outputs": [],
      "payable": false,
      "stateMutability": "nonpayable",
      "type": "function"
    },
    {
      "constant": false,
      "inputs": [
        {
          "internalType": "address",
          "name": "_guilty",
          "type": "address"
        },
        {
          "internalType": "address",
          "name": "_challenger",
          "type": "address"
        },
        {
          "internalType": "uint256",
          "name": "_percentage",
          "type": "uint256"
        }
      ],
      "name": "slash",
      "outputs": [],
      "payable": false,
      "stateMutability": "nonpayable",
      "type": "function"
    },
    {
      "constant": false,
      "inputs": [
        {
          "internalType": "address",
          "name": "_guilty",
          "type": "address"
        }
      ],
      "name": "blacklist",
      "outputs": [],
      "payable": false,
      "stateMutability": "nonpayable",
      "type": "function"
    },
    {
      "constant": false,
      "inputs": [
        {
          "internalType": "uint256",
          "name": "_height",
          "type": "uint256"
        },
        {
          "internalType": "uint256",
          "name": "_round",
          "type": "uint256"
        },
        {
          "internalType": "bytes",
          "name": "_blockhash1",
          "type": "bytes"
        },
        {
          "internalType": "uint256",
          "name": "_validRound1",
          "type": "uint256"
        },
        {
          "internalType": "bytes",
          "name": "_signature1",
          "type": "bytes"
        },
        {
          "internalType": "bytes",
          "name": "_blockhash2",
          "type": "bytes"
        },
        {
          "internalType": "uint256",
          "name": "_validRound2",
          "type": "uint256"
        },
        {
          "internalType": "bytes",
          "name": "_signature2",
          "type": "bytes"
        }
      ],
      "name": "slashDuplicatePropose",
      "outputs": [],
      "payable": false,
      "stateMutability": "nonpayable",
      "type": "function"
    },
    {
      "constant": false,
      "inputs": [
        {
          "internalType": "uint256",
          "name": "_height",
          "type": "uint256"
        },
        {
          "internalType": "uint256",
          "name": "_round",
          "type": "uint256"
        },
        {
          "internalType": "bytes",
          "name": "_blockhash1",
          "type": "bytes"
        },
        {
          "internalType": "bytes",
          "name": "_signature1",
          "type": "bytes"
        },
        {
          "internalType": "bytes",
          "name": "_blockhash2",
          "type": "bytes"
        },
        {
          "internalType": "bytes",
          "name": "_signature2",
          "type": "bytes"
        }
      ],
      "name": "slashDuplicatePrevote",
      "outputs": [],
      "payable": false,
      "stateMutability": "nonpayable",
      "type": "function"
    },
    {
      "constant": false,
      "inputs": [
        {
          "internalType": "uint256",
          "name": "_height",
          "type": "uint256"
        },
        {
          "internalType": "uint256",
          "name": "_round",
          "type": "uint256"
        },
        {
          "internalType": "bytes",
          "name": "_blockhash1",
          "type": "bytes"
        },
        {
          "internalType": "bytes",
          "name": "_signature1",
          "type": "bytes"
        },
        {
          "internalType": "bytes",
          "name": "_blockhash2",
          "type": "bytes"
        },
        {
          "internalType": "bytes",
          "name": "_signature2",
          "type": "bytes"
        }
      ],
      "name": "slashDuplicatePrecommit",
      "outputs": [],
      "payable": false,
      "stateMutability": "nonpayable",
      "type": "function"
    },
    {
      "constant": false,
      "inputs": [
        {
          "internalType": "uint256",
          "name": "_a",
          "type": "uint256"
        },
        {
          "internalType": "uint256",
          "name": "_b",
          "type": "uint256"
        },
        {
          "internalType": "uint256",
          "name": "_c",
          "type": "uint256"
        },
        {
          "internalType": "uint256",
          "name": "_d",
          "type": "uint256"
        },
        {
          "internalType": "uint256",
          "name": "_e",
          "type": "uint256"
        },
        {
          "internalType": "uint256",
          "name": "_f",
          "type": "uint256"
        },
        {
          "internalType": "bytes",
          "name": "_signature",
          "type": "bytes"
        }
      ],
      "name": "slashSecretReveal",
      "outputs": [],
      "payable": false,
      "stateMutability": "nonpayable",
      "type": "function"
    }
  ],
  "bytecode": "0x60806040523480156200001157600080fd5b5060405162003e2338038062003e23833981810160405260208110156200003757600080fd5b810190808051906020019092919050505060006200005a6200014060201b60201c565b9050806000806101000a81548173ffffffffffffffffffffffffffffffffffffffff021916908373ffffffffffffffffffffffffffffffffffffffff1602179055508073ffffffffffffffffffffffffffffffffffffffff16600073ffffffffffffffffffffffffffffffffffffffff167f8be0079c531659141344cd1fd0a4f28419497f9722a3daafe3b4186f6b6457e060405160405180910390a35080600260006101000a81548173ffffffffffffffffffffffffffffffffffffffff021916908373ffffffffffffffffffffffffffffffffffffffff1602179055505062000148565b600033905090565b613ccb80620001586000396000f3fe608060405234801561001057600080fd5b506004361061014d5760003560e01c80638f32d59b116100c3578063cf6dbf771161007c578063cf6dbf7714610950578063dbac26e91461097e578063e30c3978146109da578063e74f823914610a24578063f2fde38b14610a92578063f9f92be414610ad65761014d565b80638f32d59b146106855780639e2095a6146106a75780639e45e0d0146106c5578063aaff096d1461070f578063be0e5c7514610753578063c9a8e48e146108f45761014d565b806337db17771161011557806337db17771461057b5780634e71e0c814610599578063633bb522146105a3578063715018a61461061357806382b684d41461061d5780638da5cb5b1461063b5761014d565b806307732af614610152578063094ab1621461020757806315b7ecc8146103935780631dc7da011461051f578063261db2ad1461054d575b600080fd5b610205600480360360e081101561016857600080fd5b81019080803590602001909291908035906020019092919080359060200190929190803590602001909291908035906020019092919080359060200190929190803590602001906401000000008111156101c157600080fd5b8201836020820111156101d357600080fd5b803590602001918460018302840111640100000000831117156101f557600080fd5b9091929391929390505050610b1a565b005b610391600480360360c081101561021d57600080fd5b8101908080359060200190929190803590602001909291908035906020019064010000000081111561024e57600080fd5b82018360208201111561026057600080fd5b8035906020019184600183028401116401000000008311171561028257600080fd5b9091929391929390803590602001906401000000008111156102a357600080fd5b8201836020820111156102b557600080fd5b803590602001918460018302840111640100000000831117156102d757600080fd5b9091929391929390803590602001906401000000008111156102f857600080fd5b82018360208201111561030a57600080fd5b8035906020019184600183028401116401000000008311171561032c57600080fd5b90919293919293908035906020019064010000000081111561034d57600080fd5b82018360208201111561035f57600080fd5b8035906020019184600183028401116401000000008311171561038157600080fd5b9091929391929390505050610d8b565b005b61051d600480360360c08110156103a957600080fd5b810190808035906020019092919080359060200190929190803590602001906401000000008111156103da57600080fd5b8201836020820111156103ec57600080fd5b8035906020019184600183028401116401000000008311171561040e57600080fd5b90919293919293908035906020019064010000000081111561042f57600080fd5b82018360208201111561044157600080fd5b8035906020019184600183028401116401000000008311171561046357600080fd5b90919293919293908035906020019064010000000081111561048457600080fd5b82018360208201111561049657600080fd5b803590602001918460018302840111640100000000831117156104b857600080fd5b9091929391929390803590602001906401000000008111156104d957600080fd5b8201836020820111156104eb57600080fd5b8035906020019184600183028401116401000000008311171561050d57600080fd5b909192939192939050505061110d565b005b61054b6004803603602081101561053557600080fd5b810190808035906020019092919050505061148f565b005b6105796004803603602081101561056357600080fd5b810190808035906020019092919050505061156f565b005b61058361164f565b6040518082815260200191505060405180910390f35b6105a1611655565b005b6105f9600480360360608110156105b957600080fd5b810190808035906020019092919080359060200190929190803573ffffffffffffffffffffffffffffffffffffffff169060200190929190505050611754565b604051808215151515815260200191505060405180910390f35b61061b611790565b005b6106256118c9565b6040518082815260200191505060405180910390f35b6106436118cf565b604051808273ffffffffffffffffffffffffffffffffffffffff1673ffffffffffffffffffffffffffffffffffffffff16815260200191505060405180910390f35b61068d6118f8565b604051808215151515815260200191505060405180910390f35b6106af611956565b6040518082815260200191505060405180910390f35b6106cd61195c565b604051808273ffffffffffffffffffffffffffffffffffffffff1673ffffffffffffffffffffffffffffffffffffffff16815260200191505060405180910390f35b6107516004803603602081101561072557600080fd5b81019080803573ffffffffffffffffffffffffffffffffffffffff169060200190929190505050611982565b005b6108f2600480360361010081101561076a57600080fd5b8101908080359060200190929190803590602001909291908035906020019064010000000081111561079b57600080fd5b8201836020820111156107ad57600080fd5b803590602001918460018302840111640100000000831117156107cf57600080fd5b909192939192939080359060200190929190803590602001906401000000008111156107fa57600080fd5b82018360208201111561080c57600080fd5b8035906020019184600183028401116401000000008311171561082e57600080fd5b90919293919293908035906020019064010000000081111561084f57600080fd5b82018360208201111561086157600080fd5b8035906020019184600183028401116401000000008311171561088357600080fd5b909192939192939080359060200190929190803590602001906401000000008111156108ae57600080fd5b8201836020820111156108c057600080fd5b803590602001918460018302840111640100000000831117156108e257600080fd5b9091929391929390505050611ba7565b005b6109366004803603602081101561090a57600080fd5b81019080803573ffffffffffffffffffffffffffffffffffffffff169060200190929190505050611f2d565b604051808215151515815260200191505060405180910390f35b61097c6004803603602081101561096657600080fd5b8101908080359060200190929190505050611f4d565b005b6109c06004803603602081101561099457600080fd5b81019080803573ffffffffffffffffffffffffffffffffffffffff16906020019092919050505061202d565b604051808215151515815260200191505060405180910390f35b6109e261204d565b604051808273ffffffffffffffffffffffffffffffffffffffff1673ffffffffffffffffffffffffffffffffffffffff16815260200191505060405180910390f35b610a9060048036036060811015610a3a57600080fd5b81019080803573ffffffffffffffffffffffffffffffffffffffff169060200190929190803573ffffffffffffffffffffffffffffffffffffffff16906020019092919080359060200190929190505050612073565b005b610ad460048036036020811015610aa857600080fd5b81019080803573ffffffffffffffffffffffffffffffffffffffff1690602001909291905050506121e7565b005b610b1860048036036020811015610aec57600080fd5b81019080803573ffffffffffffffffffffffffffffffffffffffff1690602001909291905050506123a8565b005b6000610b6f89898989898989898080601f016020809104026020016040519081016040528093929190818152602001838380828437600081840152601f19601f8201169050808301925050505050505061261e565b9050600760008273ffffffffffffffffffffffffffffffffffffffff1673ffffffffffffffffffffffffffffffffffffffff16815260200190815260200160002060009054906101000a900460ff1615610c31576040517f08c379a00000000000000000000000000000000000000000000000000000000081526004018080602001828103825260208152602001807f4461726b6e6f6465536c61736865723a20616c726561647920736c617368656481525060200191505060405180910390fd5b6001600760008373ffffffffffffffffffffffffffffffffffffffff1673ffffffffffffffffffffffffffffffffffffffff16815260200190815260200160002060006101000a81548160ff021916908315150217905550600260009054906101000a900473ffffffffffffffffffffffffffffffffffffffff1673ffffffffffffffffffffffffffffffffffffffff1663e74f823982336005546040518463ffffffff1660e01b8152600401808473ffffffffffffffffffffffffffffffffffffffff1673ffffffffffffffffffffffffffffffffffffffff1681526020018373ffffffffffffffffffffffffffffffffffffffff1673ffffffffffffffffffffffffffffffffffffffff1681526020018281526020019350505050600060405180830381600087803b158015610d6857600080fd5b505af1158015610d7c573d6000803e3d6000fd5b50505050505050505050505050565b6000610eab8b8b8b8b8080601f016020809104026020016040519081016040528093929190818152602001838380828437600081840152601f19601f820116905080830192505050505050508a8a8080601f016020809104026020016040519081016040528093929190818152602001838380828437600081840152601f19601f8201169050808301925050505050505089898080601f016020809104026020016040519081016040528093929190818152602001838380828437600081840152601f19601f8201169050808301925050505050505088888080601f016020809104026020016040519081016040528093929190818152602001838380828437600081840152601f19601f820116905080830192505050505050506126e1565b9050600660008c815260200190815260200160002060008b815260200190815260200160002060008273ffffffffffffffffffffffffffffffffffffffff1673ffffffffffffffffffffffffffffffffffffffff16815260200190815260200160002060009054906101000a900460ff1615610f8f576040517f08c379a00000000000000000000000000000000000000000000000000000000081526004018080602001828103825260208152602001807f4461726b6e6f6465536c61736865723a20616c726561647920736c617368656481525060200191505060405180910390fd5b6001600660008d815260200190815260200160002060008c815260200190815260200160002060008373ffffffffffffffffffffffffffffffffffffffff1673ffffffffffffffffffffffffffffffffffffffff16815260200190815260200160002060006101000a81548160ff021916908315150217905550600260009054906101000a900473ffffffffffffffffffffffffffffffffffffffff1673ffffffffffffffffffffffffffffffffffffffff1663e74f823982336004546040518463ffffffff1660e01b8152600401808473ffffffffffffffffffffffffffffffffffffffff1673ffffffffffffffffffffffffffffffffffffffff1681526020018373ffffffffffffffffffffffffffffffffffffffff1673ffffffffffffffffffffffffffffffffffffffff1681526020018281526020019350505050600060405180830381600087803b1580156110e857600080fd5b505af11580156110fc573d6000803e3d6000fd5b505050505050505050505050505050565b600061122d8b8b8b8b8080601f016020809104026020016040519081016040528093929190818152602001838380828437600081840152601f19601f820116905080830192505050505050508a8a8080601f016020809104026020016040519081016040528093929190818152602001838380828437600081840152601f19601f8201169050808301925050505050505089898080601f016020809104026020016040519081016040528093929190818152602001838380828437600081840152601f19601f8201169050808301925050505050505088888080601f016020809104026020016040519081016040528093929190818152602001838380828437600081840152601f19601f82011690508083019250505050505050612830565b9050600660008c815260200190815260200160002060008b815260200190815260200160002060008273ffffffffffffffffffffffffffffffffffffffff1673ffffffffffffffffffffffffffffffffffffffff16815260200190815260200160002060009054906101000a900460ff1615611311576040517f08c379a00000000000000000000000000000000000000000000000000000000081526004018080602001828103825260208152602001807f4461726b6e6f6465536c61736865723a20616c726561647920736c617368656481525060200191505060405180910390fd5b6001600660008d815260200190815260200160002060008c815260200190815260200160002060008373ffffffffffffffffffffffffffffffffffffffff1673ffffffffffffffffffffffffffffffffffffffff16815260200190815260200160002060006101000a81548160ff021916908315150217905550600260009054906101000a900473ffffffffffffffffffffffffffffffffffffffff1673ffffffffffffffffffffffffffffffffffffffff1663e74f823982336004546040518463ffffffff1660e01b8152600401808473ffffffffffffffffffffffffffffffffffffffff1673ffffffffffffffffffffffffffffffffffffffff1681526020018373ffffffffffffffffffffffffffffffffffffffff1673ffffffffffffffffffffffffffffffffffffffff1681526020018281526020019350505050600060405180830381600087803b15801561146a57600080fd5b505af115801561147e573d6000803e3d6000fd5b505050505050505050505050505050565b8060648111156114ea576040517f08c379a0000000000000000000000000000000000000000000000000000000008152600401808060200182810382526023815260200180613c266023913960400191505060405180910390fd5b6114f26118f8565b611564576040517f08c379a00000000000000000000000000000000000000000000000000000000081526004018080602001828103825260208152602001807f4f776e61626c653a2063616c6c6572206973206e6f7420746865206f776e657281525060200191505060405180910390fd5b816003819055505050565b8060648111156115ca576040517f08c379a0000000000000000000000000000000000000000000000000000000008152600401808060200182810382526023815260200180613c266023913960400191505060405180910390fd5b6115d26118f8565b611644576040517f08c379a00000000000000000000000000000000000000000000000000000000081526004018080602001828103825260208152602001807f4f776e61626c653a2063616c6c6572206973206e6f7420746865206f776e657281525060200191505060405180910390fd5b816004819055505050565b60055481565b600160009054906101000a900473ffffffffffffffffffffffffffffffffffffffff1673ffffffffffffffffffffffffffffffffffffffff1661169661297f565b73ffffffffffffffffffffffffffffffffffffffff1614611702576040517f08c379a000000000000000000000000000000000000000000000000000000000815260040180806020018281038252602a815260200180613c6d602a913960400191505060405180910390fd5b61172d600160009054906101000a900473ffffffffffffffffffffffffffffffffffffffff16612987565b600160006101000a81549073ffffffffffffffffffffffffffffffffffffffff0219169055565b6006602052826000526040600020602052816000526040600020602052806000526040600020600092509250509054906101000a900460ff1681565b6117986118f8565b61180a576040517f08c379a00000000000000000000000000000000000000000000000000000000081526004018080602001828103825260208152602001807f4f776e61626c653a2063616c6c6572206973206e6f7420746865206f776e657281525060200191505060405180910390fd5b600073ffffffffffffffffffffffffffffffffffffffff166000809054906101000a900473ffffffffffffffffffffffffffffffffffffffff1673ffffffffffffffffffffffffffffffffffffffff167f8be0079c531659141344cd1fd0a4f28419497f9722a3daafe3b4186f6b6457e060405160405180910390a360008060006101000a81548173ffffffffffffffffffffffffffffffffffffffff021916908373ffffffffffffffffffffffffffffffffffffffff160217905550565b60035481565b60008060009054906101000a900473ffffffffffffffffffffffffffffffffffffffff16905090565b60008060009054906101000a900473ffffffffffffffffffffffffffffffffffffffff1673ffffffffffffffffffffffffffffffffffffffff1661193a61297f565b73ffffffffffffffffffffffffffffffffffffffff1614905090565b60045481565b600260009054906101000a900473ffffffffffffffffffffffffffffffffffffffff1681565b61198a6118f8565b6119fc576040517f08c379a00000000000000000000000000000000000000000000000000000000081526004018080602001828103825260208152602001807f4f776e61626c653a2063616c6c6572206973206e6f7420746865206f776e657281525060200191505060405180910390fd5b600073ffffffffffffffffffffffffffffffffffffffff168173ffffffffffffffffffffffffffffffffffffffff161415611a82576040517f08c379a0000000000000000000000000000000000000000000000000000000008152600401808060200182810382526032815260200180613bce6032913960400191505060405180910390fd5b6000600260009054906101000a900473ffffffffffffffffffffffffffffffffffffffff16905081600260006101000a81548173ffffffffffffffffffffffffffffffffffffffff021916908373ffffffffffffffffffffffffffffffffffffffff1602179055507ff9f6dd5c784f63cc27c1079c73574a73485a6c2e7f7e2181c5eb2be8c693cfb781600260009054906101000a900473ffffffffffffffffffffffffffffffffffffffff16604051808373ffffffffffffffffffffffffffffffffffffffff1673ffffffffffffffffffffffffffffffffffffffff1681526020018273ffffffffffffffffffffffffffffffffffffffff1673ffffffffffffffffffffffffffffffffffffffff1681526020019250505060405180910390a15050565b6000611cc98d8d8d8d8080601f016020809104026020016040519081016040528093929190818152602001838380828437600081840152601f19601f820116905080830192505050505050508c8c8c8080601f016020809104026020016040519081016040528093929190818152602001838380828437600081840152601f19601f820116905080830192505050505050508b8b8080601f016020809104026020016040519081016040528093929190818152602001838380828437600081840152601f19601f820116905080830192505050505050508a8a8a8080601f016020809104026020016040519081016040528093929190818152602001838380828437600081840152601f19601f82011690508083019250505050505050612acb565b9050600660008e815260200190815260200160002060008d815260200190815260200160002060008273ffffffffffffffffffffffffffffffffffffffff1673ffffffffffffffffffffffffffffffffffffffff16815260200190815260200160002060009054906101000a900460ff1615611dad576040517f08c379a00000000000000000000000000000000000000000000000000000000081526004018080602001828103825260208152602001807f4461726b6e6f6465536c61736865723a20616c726561647920736c617368656481525060200191505060405180910390fd5b6001600660008f815260200190815260200160002060008e815260200190815260200160002060008373ffffffffffffffffffffffffffffffffffffffff1673ffffffffffffffffffffffffffffffffffffffff16815260200190815260200160002060006101000a81548160ff021916908315150217905550600260009054906101000a900473ffffffffffffffffffffffffffffffffffffffff1673ffffffffffffffffffffffffffffffffffffffff1663e74f823982336004546040518463ffffffff1660e01b8152600401808473ffffffffffffffffffffffffffffffffffffffff1673ffffffffffffffffffffffffffffffffffffffff1681526020018373ffffffffffffffffffffffffffffffffffffffff1673ffffffffffffffffffffffffffffffffffffffff1681526020018281526020019350505050600060405180830381600087803b158015611f0657600080fd5b505af1158015611f1a573d6000803e3d6000fd5b5050505050505050505050505050505050565b60076020528060005260406000206000915054906101000a900460ff1681565b806064811115611fa8576040517f08c379a0000000000000000000000000000000000000000000000000000000008152600401808060200182810382526023815260200180613c266023913960400191505060405180910390fd5b611fb06118f8565b612022576040517f08c379a00000000000000000000000000000000000000000000000000000000081526004018080602001828103825260208152602001807f4f776e61626c653a2063616c6c6572206973206e6f7420746865206f776e657281525060200191505060405180910390fd5b816005819055505050565b60086020528060005260406000206000915054906101000a900460ff1681565b600160009054906101000a900473ffffffffffffffffffffffffffffffffffffffff1681565b61207b6118f8565b6120ed576040517f08c379a00000000000000000000000000000000000000000000000000000000081526004018080602001828103825260208152602001807f4f776e61626c653a2063616c6c6572206973206e6f7420746865206f776e657281525060200191505060405180910390fd5b600260009054906101000a900473ffffffffffffffffffffffffffffffffffffffff1673ffffffffffffffffffffffffffffffffffffffff1663e74f82398484846040518463ffffffff1660e01b8152600401808473ffffffffffffffffffffffffffffffffffffffff1673ffffffffffffffffffffffffffffffffffffffff1681526020018373ffffffffffffffffffffffffffffffffffffffff1673ffffffffffffffffffffffffffffffffffffffff1681526020018281526020019350505050600060405180830381600087803b1580156121ca57600080fd5b505af11580156121de573d6000803e3d6000fd5b50505050505050565b6121ef6118f8565b612261576040517f08c379a00000000000000000000000000000000000000000000000000000000081526004018080602001828103825260208152602001807f4f776e61626c653a2063616c6c6572206973206e6f7420746865206f776e657281525060200191505060405180910390fd5b6122696118cf565b73ffffffffffffffffffffffffffffffffffffffff168173ffffffffffffffffffffffffffffffffffffffff16141580156122f25750600160009054906101000a900473ffffffffffffffffffffffffffffffffffffffff1673ffffffffffffffffffffffffffffffffffffffff168173ffffffffffffffffffffffffffffffffffffffff1614155b612364576040517f08c379a000000000000000000000000000000000000000000000000000000000815260040180806020018281038252601c8152602001807f436c61696d61626c653a20696e76616c6964206e6577206f776e65720000000081525060200191505060405180910390fd5b80600160006101000a81548173ffffffffffffffffffffffffffffffffffffffff021916908373ffffffffffffffffffffffffffffffffffffffff16021790555050565b6123b06118f8565b612422576040517f08c379a00000000000000000000000000000000000000000000000000000000081526004018080602001828103825260208152602001807f4f776e61626c653a2063616c6c6572206973206e6f7420746865206f776e657281525060200191505060405180910390fd5b600860008273ffffffffffffffffffffffffffffffffffffffff1673ffffffffffffffffffffffffffffffffffffffff16815260200190815260200160002060009054906101000a900460ff16156124c5576040517f08c379a0000000000000000000000000000000000000000000000000000000008152600401808060200182810382526024815260200180613c496024913960400191505060405180910390fd5b6001600860008373ffffffffffffffffffffffffffffffffffffffff1673ffffffffffffffffffffffffffffffffffffffff16815260200190815260200160002060006101000a81548160ff021916908315150217905550600260009054906101000a900473ffffffffffffffffffffffffffffffffffffffff1673ffffffffffffffffffffffffffffffffffffffff1663e74f8239826125646118cf565b6003546040518463ffffffff1660e01b8152600401808473ffffffffffffffffffffffffffffffffffffffff1673ffffffffffffffffffffffffffffffffffffffff1681526020018373ffffffffffffffffffffffffffffffffffffffff1673ffffffffffffffffffffffffffffffffffffffff1681526020018281526020019350505050600060405180830381600087803b15801561260357600080fd5b505af1158015612617573d6000803e3d6000fd5b5050505050565b60006126d460026126338a8a8a8a8a8a612c1e565b6040518082805190602001908083835b602083106126665780518252602082019150602081019050602083039250612643565b6001836020036101000a038019825116818451168082178552505050505050905001915050602060405180830381855afa1580156126a8573d6000803e3d6000fd5b5050506040513d60208110156126bd57600080fd5b8101908080519060200190929190505050836130be565b9050979650505050505050565b60006126ed84836131c2565b15612760576040517f08c379a00000000000000000000000000000000000000000000000000000000081526004018080602001828103825260188152602001807f56616c69646174653a2073616d65207369676e6174757265000000000000000081525060200191505060405180910390fd5b600061276e8888888861327f565b9050600061277e8989878761327f565b90508073ffffffffffffffffffffffffffffffffffffffff168273ffffffffffffffffffffffffffffffffffffffff1614612821576040517f08c379a000000000000000000000000000000000000000000000000000000000815260040180806020018281038252601a8152602001807f56616c69646174653a20646966666572656e74207369676e657200000000000081525060200191505060405180910390fd5b81925050509695505050505050565b600061283c84836131c2565b156128af576040517f08c379a00000000000000000000000000000000000000000000000000000000081526004018080602001828103825260188152602001807f56616c69646174653a2073616d65207369676e6174757265000000000000000081525060200191505060405180910390fd5b60006128bd8888888861333c565b905060006128cd8989878761333c565b90508073ffffffffffffffffffffffffffffffffffffffff168273ffffffffffffffffffffffffffffffffffffffff1614612970576040517f08c379a000000000000000000000000000000000000000000000000000000000815260040180806020018281038252601a8152602001807f56616c69646174653a20646966666572656e74207369676e657200000000000081525060200191505060405180910390fd5b81925050509695505050505050565b600033905090565b600073ffffffffffffffffffffffffffffffffffffffff168173ffffffffffffffffffffffffffffffffffffffff161415612a0d576040517f08c379a0000000000000000000000000000000000000000000000000000000008152600401808060200182810382526026815260200180613c006026913960400191505060405180910390fd5b8073ffffffffffffffffffffffffffffffffffffffff166000809054906101000a900473ffffffffffffffffffffffffffffffffffffffff1673ffffffffffffffffffffffffffffffffffffffff167f8be0079c531659141344cd1fd0a4f28419497f9722a3daafe3b4186f6b6457e060405160405180910390a3806000806101000a81548173ffffffffffffffffffffffffffffffffffffffff021916908373ffffffffffffffffffffffffffffffffffffffff16021790555050565b6000612ad785836131c2565b15612b4a576040517f08c379a00000000000000000000000000000000000000000000000000000000081526004018080602001828103825260188152602001807f56616c69646174653a2073616d65207369676e6174757265000000000000000081525060200191505060405180910390fd5b6000612b598a8a8a8a8a6133f9565b90506000612b6a8b8b8888886133f9565b90508073ffffffffffffffffffffffffffffffffffffffff168273ffffffffffffffffffffffffffffffffffffffff1614612c0d576040517f08c379a000000000000000000000000000000000000000000000000000000000815260040180806020018281038252601a8152602001807f56616c69646174653a20646966666572656e74207369676e657200000000000081525060200191505060405180910390fd5b819250505098975050505050505050565b6060612c29876134b8565b612c32876134b8565b612c3b876134b8565b612c44876134b8565b612c4d876134b8565b612c56876134b8565b60405160200180807f5365637265742800000000000000000000000000000000000000000000000000815250600701807f5368616d69725368617265280000000000000000000000000000000000000000815250600c0187805190602001908083835b60208310612cdc5780518252602082019150602081019050602083039250612cb9565b6001836020036101000a038019825116818451168082178552505050505050905001807f2c0000000000000000000000000000000000000000000000000000000000000081525060010186805190602001908083835b60208310612d555780518252602082019150602081019050602083039250612d32565b6001836020036101000a038019825116818451168082178552505050505050905001807f2c533235364e280000000000000000000000000000000000000000000000000081525060070185805190602001908083835b60208310612dce5780518252602082019150602081019050602083039250612dab565b6001836020036101000a038019825116818451168082178552505050505050905001807f292c000000000000000000000000000000000000000000000000000000000000815250600201807f53323536507269764b6579280000000000000000000000000000000000000000815250600c01807f533235364e28000000000000000000000000000000000000000000000000000081525060060184805190602001908083835b60208310612e975780518252602082019150602081019050602083039250612e74565b6001836020036101000a038019825116818451168082178552505050505050905001807f292c000000000000000000000000000000000000000000000000000000000000815250600201807f533235365028000000000000000000000000000000000000000000000000000081525060060183805190602001908083835b60208310612f385780518252602082019150602081019050602083039250612f15565b6001836020036101000a038019825116818451168082178552505050505050905001807f292c000000000000000000000000000000000000000000000000000000000000815250600201807f533235365028000000000000000000000000000000000000000000000000000081525060060182805190602001908083835b60208310612fd95780518252602082019150602081019050602083039250612fb6565b6001836020036101000a038019825116818451168082178552505050505050905001807f2900000000000000000000000000000000000000000000000000000000000000815250600101807f2900000000000000000000000000000000000000000000000000000000000000815250600101807f2900000000000000000000000000000000000000000000000000000000000000815250600101807f2900000000000000000000000000000000000000000000000000000000000000815250600101965050505050505060405160208183030381529060405290509695505050505050565b600060418251146130d257600090506131bc565b60008060006020850151925060408501519150606085015160001a90507f7fffffffffffffffffffffffffffffff5d576e7357a4501ddfe92f46681b20a08260001c111561312657600093505050506131bc565b601b8160ff161415801561313e5750601c8160ff1614155b1561314f57600093505050506131bc565b60018682858560405160008152602001604052604051808581526020018460ff1660ff1681526020018381526020018281526020019450505050506020604051602081039080840390855afa1580156131ac573d6000803e3d6000fd5b5050506020604051035193505050505b92915050565b600081518351146131d65760009050613279565b60008090505b8351811015613273578281815181106131f157fe5b602001015160f81c60f81b7effffffffffffffffffffffffffffffffffffffffffffffffffffffffffffff191684828151811061322a57fe5b602001015160f81c60f81b7effffffffffffffffffffffffffffffffffffffffffffffffffffffffffffff191614613266576000915050613279565b80806001019150506131dc565b50600190505b92915050565b600061333260026132918787876135e5565b6040518082805190602001908083835b602083106132c457805182526020820191506020810190506020830392506132a1565b6001836020036101000a038019825116818451168082178552505050505050905001915050602060405180830381855afa158015613306573d6000803e3d6000fd5b5050506040513d602081101561331b57600080fd5b8101908080519060200190929190505050836130be565b9050949350505050565b60006133ef600261334e8787876137b1565b6040518082805190602001908083835b60208310613381578051825260208201915060208101905060208303925061335e565b6001836020036101000a038019825116818451168082178552505050505050905001915050602060405180830381855afa1580156133c3573d6000803e3d6000fd5b5050506040513d60208110156133d857600080fd5b8101908080519060200190929190505050836130be565b9050949350505050565b60006134ad600261340c8888888861397d565b6040518082805190602001908083835b6020831061343f578051825260208201915060208101905060208303925061341c565b6001836020036101000a038019825116818451168082178552505050505050905001915050602060405180830381855afa158015613481573d6000803e3d6000fd5b5050506040513d602081101561349657600080fd5b8101908080519060200190929190505050836130be565b905095945050505050565b60606000821415613500576040518060400160405280600181526020017f300000000000000000000000000000000000000000000000000000000000000081525090506135e0565b600082905060005b6000821461352a578080600101915050600a828161352257fe5b049150613508565b6060816040519080825280601f01601f19166020018201604052801561355f5781602001600182028038833980820191505090505b50905060006001830390505b600086146135d857600a868161357d57fe5b0660300160f81b8282806001900393508151811061359757fe5b60200101907effffffffffffffffffffffffffffffffffffffffffffffffffffffffffffff1916908160001a905350600a86816135d057fe5b04955061356b565b819450505050505b919050565b60606135f0846134b8565b6135f9846134b8565b8360405160200180807f507265636f6d6d6974284865696768743d00000000000000000000000000000081525060110184805190602001908083835b602083106136585780518252602082019150602081019050602083039250613635565b6001836020036101000a038019825116818451168082178552505050505050905001807f2c526f756e643d0000000000000000000000000000000000000000000000000081525060070183805190602001908083835b602083106136d157805182526020820191506020810190506020830392506136ae565b6001836020036101000a038019825116818451168082178552505050505050905001807f2c426c6f636b486173683d000000000000000000000000000000000000000000815250600b0182805190602001908083835b6020831061374a5780518252602082019150602081019050602083039250613727565b6001836020036101000a038019825116818451168082178552505050505050905001807f2900000000000000000000000000000000000000000000000000000000000000815250600101935050505060405160208183030381529060405290509392505050565b60606137bc846134b8565b6137c5846134b8565b8360405160200180807f507265766f7465284865696768743d0000000000000000000000000000000000815250600f0184805190602001908083835b602083106138245780518252602082019150602081019050602083039250613801565b6001836020036101000a038019825116818451168082178552505050505050905001807f2c526f756e643d0000000000000000000000000000000000000000000000000081525060070183805190602001908083835b6020831061389d578051825260208201915060208101905060208303925061387a565b6001836020036101000a038019825116818451168082178552505050505050905001807f2c426c6f636b486173683d000000000000000000000000000000000000000000815250600b0182805190602001908083835b6020831061391657805182526020820191506020810190506020830392506138f3565b6001836020036101000a038019825116818451168082178552505050505050905001807f2900000000000000000000000000000000000000000000000000000000000000815250600101935050505060405160208183030381529060405290509392505050565b6060613988856134b8565b613991856134b8565b8461399b856134b8565b60405160200180807f50726f706f7365284865696768743d0000000000000000000000000000000000815250600f0185805190602001908083835b602083106139f957805182526020820191506020810190506020830392506139d6565b6001836020036101000a038019825116818451168082178552505050505050905001807f2c526f756e643d0000000000000000000000000000000000000000000000000081525060070184805190602001908083835b60208310613a725780518252602082019150602081019050602083039250613a4f565b6001836020036101000a038019825116818451168082178552505050505050905001807f2c426c6f636b486173683d000000000000000000000000000000000000000000815250600b0183805190602001908083835b60208310613aeb5780518252602082019150602081019050602083039250613ac8565b6001836020036101000a038019825116818451168082178552505050505050905001807f2c56616c6964526f756e643d0000000000000000000000000000000000000000815250600c0182805190602001908083835b60208310613b645780518252602082019150602081019050602083039250613b41565b6001836020036101000a038019825116818451168082178552505050505050905001807f2900000000000000000000000000000000000000000000000000000000000000815250600101945050505050604051602081830303815290604052905094935050505056fe4461726b6e6f6465536c61736865723a20696e76616c6964204461726b6e6f646520526567697374727920616464726573734f776e61626c653a206e6577206f776e657220697320746865207a65726f20616464726573734461726b6e6f6465536c61736865723a20696e76616c69642070657263656e746167654461726b6e6f6465536c61736865723a20616c726561647920626c61636b6c6973746564436c61696d61626c653a2063616c6c6572206973206e6f74207468652070656e64696e67206f776e6572a265627a7a72315820ddb3dd02c9eb62d3fd34659297d6dedcd99627fe682e52257119788910be8ece64736f6c634300050c0032",
  "source": "pragma solidity 0.5.12;\n\nimport \"../libraries/Claimable.sol\";\nimport \"../libraries/Validate.sol\";\nimport \"../DarknodeRegistry/DarknodeRegistry.sol\";\n\n/// @notice DarknodeSlasher will become a voting system for darknodes to\n/// deregister other misbehaving darknodes.\n/// Right now, it is a placeholder.\ncontract DarknodeSlasher is Claimable {\n\n    DarknodeRegistry public darknodeRegistry;\n\n    uint256 public blacklistSlashPercent;\n    uint256 public maliciousSlashPercent;\n    uint256 public secretRevealSlashPercent;\n\n    // Malicious Darknodes can be slashed for each height and round\n    // mapping of height -> round -> guilty address -> slashed\n    mapping(uint256 => mapping(uint256 => mapping(address => bool))) public slashed;\n\n    // mapping of darknodes which have revealed their secret\n    mapping(address => bool) public secretRevealed;\n\n    // mapping of address to whether the darknode has been blacklisted\n    mapping(address => bool) public blacklisted;\n\n    /// @notice Emitted when the DarknodeRegistry is updated.\n    /// @param _previousDarknodeRegistry The address of the old registry.\n    /// @param _nextDarknodeRegistry The address of the new registry.\n    event LogDarknodeRegistryUpdated(DarknodeRegistry _previousDarknodeRegistry, DarknodeRegistry _nextDarknodeRegistry);\n\n    /// @notice Restrict a function to have a valid percentage\n    modifier validPercent(uint256 _percent) {\n        require(_percent <= 100, \"DarknodeSlasher: invalid percentage\");\n        _;\n    }\n\n    constructor(\n        DarknodeRegistry _darknodeRegistry\n    ) public {\n        darknodeRegistry = _darknodeRegistry;\n    }\n\n    /// @notice Allows the contract owner to update the address of the\n    /// darknode registry contract.\n    /// @param _darknodeRegistry The address of the Darknode Registry\n    /// contract.\n    function updateDarknodeRegistry(DarknodeRegistry _darknodeRegistry) external onlyOwner {\n        require(address(_darknodeRegistry) != address(0x0), \"DarknodeSlasher: invalid Darknode Registry address\");\n        DarknodeRegistry previousDarknodeRegistry = darknodeRegistry;\n        darknodeRegistry = _darknodeRegistry;\n        emit LogDarknodeRegistryUpdated(previousDarknodeRegistry, darknodeRegistry);\n    }\n\n    function setBlacklistSlashPercent(uint256 _percentage) public validPercent(_percentage) onlyOwner {\n        blacklistSlashPercent = _percentage;\n    }\n\n    function setMaliciousSlashPercent(uint256 _percentage) public validPercent(_percentage) onlyOwner {\n        maliciousSlashPercent = _percentage;\n    }\n\n    function setSecretRevealSlashPercent(uint256 _percentage) public validPercent(_percentage) onlyOwner {\n        secretRevealSlashPercent = _percentage;\n    }\n\n    function slash(address _guilty, address _challenger, uint256 _percentage)\n        external\n        onlyOwner\n    {\n        darknodeRegistry.slash(_guilty, _challenger, _percentage);\n    }\n\n    function blacklist(address _guilty) external onlyOwner {\n        require(!blacklisted[_guilty], \"DarknodeSlasher: already blacklisted\");\n        blacklisted[_guilty] = true;\n        darknodeRegistry.slash(_guilty, owner(), blacklistSlashPercent);\n    }\n\n    function slashDuplicatePropose(\n        uint256 _height,\n        uint256 _round,\n        bytes calldata _blockhash1,\n        uint256 _validRound1,\n        bytes calldata _signature1,\n        bytes calldata _blockhash2,\n        uint256 _validRound2,\n        bytes calldata _signature2\n    ) external {\n        address signer = Validate.duplicatePropose(\n            _height,\n            _round,\n            _blockhash1,\n            _validRound1,\n            _signature1,\n            _blockhash2,\n            _validRound2,\n            _signature2\n        );\n        require(!slashed[_height][_round][signer], \"DarknodeSlasher: already slashed\");\n        slashed[_height][_round][signer] = true;\n        darknodeRegistry.slash(signer, msg.sender, maliciousSlashPercent);\n    }\n\n    function slashDuplicatePrevote(\n        uint256 _height,\n        uint256 _round,\n        bytes calldata _blockhash1,\n        bytes calldata _signature1,\n        bytes calldata _blockhash2,\n        bytes calldata _signature2\n    ) external {\n        address signer = Validate.duplicatePrevote(\n            _height,\n            _round,\n            _blockhash1,\n            _signature1,\n            _blockhash2,\n            _signature2\n        );\n        require(!slashed[_height][_round][signer], \"DarknodeSlasher: already slashed\");\n        slashed[_height][_round][signer] = true;\n        darknodeRegistry.slash(signer, msg.sender, maliciousSlashPercent);\n    }\n\n    function slashDuplicatePrecommit(\n        uint256 _height,\n        uint256 _round,\n        bytes calldata _blockhash1,\n        bytes calldata _signature1,\n        bytes calldata _blockhash2,\n        bytes calldata _signature2\n    ) external {\n        address signer = Validate.duplicatePrecommit(\n            _height,\n            _round,\n            _blockhash1,\n            _signature1,\n            _blockhash2,\n            _signature2\n        );\n        require(!slashed[_height][_round][signer], \"DarknodeSlasher: already slashed\");\n        slashed[_height][_round][signer] = true;\n        darknodeRegistry.slash(signer, msg.sender, maliciousSlashPercent);\n    }\n\n    function slashSecretReveal(\n        uint256 _a,\n        uint256 _b,\n        uint256 _c,\n        uint256 _d,\n        uint256 _e,\n        uint256 _f,\n        bytes calldata _signature\n    ) external {\n        address signer = Validate.recoverSecret(\n            _a,\n            _b,\n            _c,\n            _d,\n            _e,\n            _f,\n            _signature\n        );\n        require(!secretRevealed[signer], \"DarknodeSlasher: already slashed\");\n        secretRevealed[signer] = true;\n        darknodeRegistry.slash(signer, msg.sender, secretRevealSlashPercent);\n    }\n}\n",
  "sourcePath": "/home/ray/0confirmation-mono/node_modules/darknode-sol/contracts/DarknodeSlasher/DarknodeSlasher.sol",
  "compiler": {
    "name": "solc",
    "version": "0.5.12+commit.7709ece9.Linux.g++"
  },
  "schemaVersion": "3.0.23",
  "updatedAt": "2020-03-08T19:15:48.061Z",
  "devdoc": {
    "methods": {
      "isOwner()": {
        "details": "Returns true if the caller is the current owner."
      },
      "owner()": {
        "details": "Returns the address of the current owner."
      },
      "renounceOwnership()": {
        "details": "Leaves the contract without owner. It will not be possible to call `onlyOwner` functions anymore. Can only be called by the current owner.     * NOTE: Renouncing ownership will leave the contract without an owner, thereby removing any functionality that is only available to the owner."
      },
      "updateDarknodeRegistry(address)": {
        "params": {
          "_darknodeRegistry": "The address of the Darknode Registry contract."
        }
      }
    }
  },
  "userdoc": {
    "methods": {
      "updateDarknodeRegistry(address)": {
        "notice": "Allows the contract owner to update the address of the darknode registry contract."
      }
    },
    "notice": "DarknodeSlasher will become a voting system for darknodes to deregister other misbehaving darknodes. Right now, it is a placeholder."
  }
}