{
  "contractName": "Dump",
  "abi": [
    {
      "stateMutability": "payable",
      "type": "fallback"
    },
    {
      "stateMutability": "payable",
      "type": "receive"
    },
    {
      "inputs": [
        {
          "internalType": "address payable",
          "name": "exchangeAddress",
          "type": "address"
        },
        {
          "internalType": "address payable",
          "name": "target",
          "type": "address"
        }
      ],
      "name": "dump",
      "outputs": [
        {
          "internalType": "bool",
          "name": "",
          "type": "bool"
        }
      ],
      "stateMutability": "nonpayable",
      "type": "function"
    }
  ],
  "bytecode": "0x608060405234801561001057600080fd5b50610b42806100206000396000f3fe6080604052600436106100225760003560e01c8063d13693ac1461010f57610029565b3661002957005b6100316106ba565b6100716000368080601f01602080910402602001604051908101604052809392919081815260200183838082843760009201919091525061014592505050565b9050600060606100848360e001516101d0565b90925090506001600160e01b0319821663344da4eb60e21b14156100f2576100aa610700565b6100b382610208565b90506100c78160000151826020015161024d565b6100ec5760405162461bcd60e51b81526004016100e390610a23565b60405180910390fd5b5061010a565b60405162461bcd60e51b81526004016100e3906109ec565b505050005b34801561011b57600080fd5b5061012f61012a3660046107d0565b61024d565b60405161013c91906109ce565b60405180910390f35b61014d6106ba565b600080600080600080600060608980602001905181019061016e9190610836565b60408051610100810182526001600160a01b03998a1681529789166020890152958816958701959095529286166060860152908516608085015290931660a083015260c082019290925260e0810191909152985050505050505050505b919050565b600060606101e96101e48460006004610260565b610289565b60e01b91506102016101fc8460046102a6565b6102ca565b9050915091565b610210610700565b600080838060200190518101906102279190610808565b604080518082019091526001600160a01b03928316815291166020820152949350505050565b6000610259838361033a565b9392505050565b610268610717565b6102728484610559565b815260208101919091526040810191909152919050565b805160208201516000919061029e8282610560565b949350505050565b6102ae610717565b81835110156102bc57825191505b610259838384865103610260565b60208101516060908067ffffffffffffffff811180156102e957600080fd5b506040519080825280601f01601f191660200182016040528015610314576020820181803683370190505b50835190925060006103258461057d565b9050610332818385610583565b505050919050565b6000806060306001600160a01b0316632692f25a60e01b86600063ddf7e1a760e01b896001600160a01b0316639d76ea586040518163ffffffff1660e01b815260040160206040518083038186803b15801561039557600080fd5b505afa1580156103a9573d6000803e3d6000fd5b505050506040513d601f19601f820116820180604052508101906103cd91906107b4565b6001600160a01b03166370a08231306040518263ffffffff1660e01b81526004016103f89190610984565b60206040518083038186803b15801561041057600080fd5b505afa158015610424573d6000803e3d6000fd5b505050506040513d601f19601f820116820180604052508101906104489190610924565b600180436001018c604051602401610464959493929190610a53565b60408051601f198184030181529181526020820180516001600160e01b03166001600160e01b03199094169390931790925290516104a793929190602401610998565b60408051601f198184030181529181526020820180516001600160e01b03166001600160e01b03199094169390931790925290516104e59190610968565b600060405180830381855af49150503d8060008114610520576040519150601f19603f3d011682016040523d82523d6000602084013e610525565b606091505b50915091508161055157610538816105c1565b60405162461bcd60e51b81526004016100e391906109d9565b509392505050565b0160200190565b6000600180600884021b0380836020038503511691505092915050565b60200190565b5b602081106105a3578151835260209283019290910190601f1901610584565b600180600883602003021b0380845116811984511617845250505050565b6060815160001415610607575060408051808201909152601c81527f636170747572656420656d70747920726576657274206275666665720000000060208201526101cb565b6308c379a061061c6101e48460006004610260565b63ffffffff1614610647576040518060600160405280603f8152602001610ace603f913990506101cb565b606061065d6101fc84600463ffffffff6102a616565b90508051600014156106a457505060408051808201909152601d81527f636170747572656420656d70747920726576657274206d65737361676500000060208201526101cb565b60608180602001905181019061029e91906108f1565b604080516101008101825260008082526020820181905291810182905260608082018390526080820183905260a0820183905260c082019290925260e081019190915290565b604080518082019091526000808252602082015290565b60405180606001604052806000815260200160008152602001600081525090565b600082601f830112610748578081fd5b815167ffffffffffffffff8082111561075f578283fd5b604051601f8301601f19168101602001828111828210171561077f578485fd5b60405282815292508284830160200186101561079a57600080fd5b6107ab836020830160208801610a85565b50505092915050565b6000602082840312156107c5578081fd5b815161025981610ab5565b600080604083850312156107e2578081fd5b82356107ed81610ab5565b915060208301356107fd81610ab5565b809150509250929050565b6000806040838503121561081a578182fd5b825161082581610ab5565b60208401519092506107fd81610ab5565b600080600080600080600080610100898b031215610852578384fd5b885161085d81610ab5565b60208a015190985061086e81610ab5565b60408a015190975061087f81610ab5565b60608a015190965061089081610ab5565b60808a01519095506108a181610ab5565b60a08a01519094506108b281610ab5565b60c08a015160e08b0151919450925067ffffffffffffffff8111156108d5578182fd5b6108e18b828c01610738565b9150509295985092959890939650565b600060208284031215610902578081fd5b815167ffffffffffffffff811115610918578182fd5b61029e84828501610738565b600060208284031215610935578081fd5b5051919050565b60008151808452610954816020860160208601610a85565b601f01601f19169290920160200192915050565b6000825161097a818460208701610a85565b9190910192915050565b6001600160a01b0391909116815260200190565b6001600160a01b038416815260ff831660208201526060604082018190526000906109c59083018461093c565b95945050505050565b901515815260200190565b600060208252610259602083018461093c565b60208082526019908201527f756e737570706f7274656420636f6e74726163742063616c6c00000000000000604082015260600190565b602080825260169082015275191d5b5c081bdb881d5b9a5cddd85c0819985a5b195960521b604082015260600190565b94855260ff938416602086015291909216604084015260608301919091526001600160a01b0316608082015260a00190565b60005b83811015610aa0578181015183820152602001610a88565b83811115610aaf576000848401525b50505050565b6001600160a01b0381168114610aca57600080fd5b5056fe6361707475726564206120726576657274206572726f722c2062757420697420646f65736e277420636f6e666f726d20746f20746865207374616e64617264a26469706673582212204459750cf40667af9c1de138c5dac0e58e10bb2f923062b35acdf07e3f00179364736f6c63430006050033",
  "source": "pragma solidity ^0.6.0;\npragma experimental ABIEncoderV2;\n\nimport { ModuleLib } from \"../lib/ModuleLib.sol\";\nimport { DumpLib } from \"./DumpLib.sol\";\nimport { IDump } from \"./IDump.sol\";\n\ncontract Dump {\n  using ModuleLib for *;\n  using DumpLib for *;\n  function dump(address payable exchangeAddress, address payable target) public returns (bool) {\n    return DumpLib.dumpImpl(exchangeAddress, target);\n  }\n  receive() external payable {\n    // no-op\n  }\n  fallback() external payable {\n    ModuleLib.AssetSubmodulePayload memory payload = msg.data.decodeAssetSubmodulePayload();\n    (bytes4 sig, bytes memory args) = payload.callData.splitPayload();\n    if (sig == IDump.dump.selector) {\n      DumpLib.DumpInputs memory inputs = args.decodeDumpInputs();\n      require(dump(inputs.exchangeAddress, inputs.target), \"dump on uniswap failed\");\n    } else revert(\"unsupported contract call\");\n  }\n}\n",
  "sourcePath": "/home/ray/0confirmation/packages/0confirmation-sol/contracts/adapters/precompiled/Dump.sol",
  "compiler": {
    "name": "solc",
    "version": "0.6.5+commit.f956cc89.Emscripten.clang"
  },
  "schemaVersion": "3.0.23",
  "updatedAt": "2020-04-24T06:53:32.937Z",
  "devdoc": {
    "methods": {}
  },
  "userdoc": {
    "methods": {}
  }
}