{
  "contractName": "ERC20AdapterLib",
  "abi": [
    {
      "inputs": [],
      "name": "computeIsolatePointer",
      "outputs": [
        {
          "internalType": "uint256",
          "name": "",
          "type": "uint256"
        }
      ],
      "stateMutability": "pure",
      "type": "function"
    }
  ],
  "bytecode": "0x60cc610025600b82828239805160001a60731461001857fe5b30600052607381538281f3fe730000000000000000000000000000000000000000301460806040526004361060335760003560e01c8063d7885a06146038575b600080fd5b603e6052565b60405160499190608d565b60405180910390f35b6000604051605e90606c565b604051908190039020905090565b7434b9b7b630ba329732b931991816b0b230b83a32b960591b815260150190565b9081526020019056fea26469706673582212202061d9d621308594cb0e7b136a0b424ed865fa1310017a1b29ae23f3f1c1d16464736f6c63430006060033",
  "immutableReferences": {},
  "source": "pragma solidity ^0.6.0;\npragma experimental ABIEncoderV2;\n\nimport { Create2 } from \"openzeppelin-solidity/contracts/utils/Create2.sol\";\nimport { IERC20 } from \"openzeppelin-solidity/contracts/token/ERC20/IERC20.sol\";\nimport { ModuleLib } from \"../../lib/ModuleLib.sol\";\nimport { AssetForwarder } from \"../../lib/AssetForwarder.sol\";\nimport { AssetForwarderLib } from \"../../lib/AssetForwarderLib.sol\";\nimport { ERC20Adapter } from \"./ERC20Adapter.sol\";\n\nlibrary ERC20AdapterLib {\n  struct EscrowRecord {\n    address recipient;\n    address token;\n  }\n  struct Isolate {\n    EscrowRecord[] payments;\n    bool isProcessing;\n    uint256 processed;\n    address assetForwarderImplementation;\n  }\n  struct ExternalIsolate {\n    address assetForwarderImplementation;\n  }\n  function toExternal(Isolate storage isolate) internal view returns (ExternalIsolate memory result) {\n    result = ExternalIsolate({\n      assetForwarderImplementation: isolate.assetForwarderImplementation\n    });\n  }\n  function isDone(Isolate storage isolate) internal view returns (bool) {\n    return !isolate.isProcessing && isolate.payments.length == isolate.processed;\n  }\n  function computeIsolatePointer() public pure returns (uint256) {\n    return uint256(keccak256(\"isolate.erc20-adapter\"));\n  }\n  function computeForwarderSalt(uint256 index) internal pure returns (bytes32) {\n    return keccak256(abi.encodePacked(index));\n  }\n  function computeForwarderAddress(address moduleAddress, uint256 index) internal view returns (address) {\n    return AssetForwarderLib.deriveAssetForwarderAddress(ERC20Adapter(moduleAddress).getExternalIsolateHandler().assetForwarderImplementation, computeForwarderSalt(index));\n  }\n  function liquidate(address moduleAddress) internal returns (bool) {\n    ERC20AdapterLib.Isolate storage isolate = getIsolatePointer();\n    return processEscrowReturns(isolate, moduleAddress);\n  }\n  struct TransferInputs {\n    address recipient;\n    uint256 amount;\n  }\n  function decodeTransferInputs(bytes memory args) internal pure returns (TransferInputs memory) {\n    (address recipient, uint256 amount) = abi.decode(args, (address, uint256));\n    return TransferInputs({\n      recipient: recipient,\n      amount: amount\n    });\n  }\n  function forwardEscrow(address moduleAddress, EscrowRecord memory record, uint256 index) internal {\n    address forwarder = AssetForwarderLib.deployAssetForwarderClone(ERC20Adapter(moduleAddress).getExternalIsolateHandler().assetForwarderImplementation, computeForwarderSalt(index));\n    AssetForwarder(forwarder).forwardAsset(address(uint160(record.recipient)), record.token);\n  }\n  function returnEscrow(address moduleAddress, EscrowRecord memory record, uint256 index) internal {\n    address forwarder = AssetForwarderLib.deployAssetForwarderClone(ERC20Adapter(moduleAddress).getExternalIsolateHandler().assetForwarderImplementation, computeForwarderSalt(index));\n    AssetForwarder(forwarder).forwardAsset(address(uint160(address(this))), record.token);\n  }\n  uint256 constant MINIMUM_GAS_TO_PROCESS = 5e5;\n  uint256 constant MAX_RECORDS = 100;\n  function processEscrowForwards(Isolate storage isolate, address moduleAddress) internal returns (bool) {\n    if (!isolate.isProcessing) isolate.isProcessing = true;\n    for (uint256 i = isolate.processed; i < isolate.payments.length; i++) {\n      if (gasleft() < MINIMUM_GAS_TO_PROCESS) {\n        isolate.processed = i;\n        return false;\n      } else {\n        forwardEscrow(moduleAddress, isolate.payments[i], i);\n      }\n    }\n    return true;\n  }\n  function processEscrowReturns(Isolate storage isolate, address moduleAddress) internal returns (bool) {\n    if (!isolate.isProcessing) isolate.isProcessing = true;\n    for (uint256 i = isolate.processed; i < isolate.payments.length; i++) {\n      if (gasleft() < MINIMUM_GAS_TO_PROCESS) {\n        isolate.processed = i;\n        return false;\n      } else {\n        returnEscrow(moduleAddress, isolate.payments[i], i);\n      }\n    }\n    return true;\n  }\n  function getCastStorageType() internal pure returns (function (uint256) internal pure returns (Isolate storage) swap) {\n    function (uint256) internal returns (uint256) cast = ModuleLib.cast;\n    assembly {\n      swap := cast\n    }\n  }\n  function toIsolatePointer(uint256 key) internal pure returns (Isolate storage) {\n    return getCastStorageType()(key);\n  }\n  function getIsolatePointer() internal pure returns (Isolate storage) {\n    return toIsolatePointer(computeIsolatePointer());\n  }\n}\n",
  "sourcePath": "/home/ray/0confirmation/packages/0confirmation-sol/contracts/adapters/assets/erc20/ERC20AdapterLib.sol",
  "compiler": {
    "name": "solc",
    "version": "0.6.6+commit.6c089d02.Emscripten.clang"
  },
  "schemaVersion": "3.1.0",
  "updatedAt": "2020-05-11T04:32:39.931Z",
  "devdoc": {
    "methods": {}
  },
  "userdoc": {
    "methods": {}
  }
}