{
  "contractName": "ERC20Adapter",
  "abi": [
    {
      "stateMutability": "nonpayable",
      "type": "fallback"
    },
    {
      "stateMutability": "payable",
      "type": "receive"
    },
    {
      "inputs": [
        {
          "internalType": "address",
          "name": "",
          "type": "address"
        }
      ],
      "name": "repay",
      "outputs": [
        {
          "internalType": "bool",
          "name": "",
          "type": "bool"
        }
      ],
      "stateMutability": "nonpayable",
      "type": "function"
    }
  ],
  "bytecode": "0x608060405234801561001057600080fd5b50610eb9806100206000396000f3fe6080604052600436106100225760003560e01c80639f7c73e9146101cf57610029565b3661002957005b34801561003557600080fd5b5061003e6107a7565b61007e6000368080601f01602080910402602001604051908101604052809392919081815260200183838082843760009201919091525061020592505050565b9050600061008a610290565b90506000606061009d8460e001516102a7565b90925090506001600160e01b0319821663a9059cbb60e01b1415610193576100c36107ed565b6100cc826102df565b84549091506000906100dd90610323565b6040805180820190915283516001600160a01b03908116825260a089018051821660208085019182528a5460018181018d5560008d81528390209651600290920290960180549186166001600160a01b031992831617815592519290950180549285169290951691909117909355918501519151929350610167921690839063ffffffff61036616565b61018c5760405162461bcd60e51b815260040161018390610abc565b60405180910390fd5b50506101c9565b6001600160e01b0319821663095ea7b360e01b14156101b1576101c9565b60405162461bcd60e51b815260040161018390610a55565b50505050005b3480156101db57600080fd5b506101ef6101ea366004610832565b610409565b6040516101fc9190610a4a565b60405180910390f35b61020d6107a7565b600080600080600080600060608980602001905181019061022e919061084e565b60408051610100810182526001600160a01b03998a1681529789166020890152958816958701959095529286166060860152908516608085015290931660a083015260c082019290925260e0810191909152985050505050505050505b919050565b60006102a261029d610426565b610442565b905090565b600060606102c06102bb8460006004610458565b610481565b60e01b91506102d86102d384600461049e565b6104c2565b9050915091565b6102e76107ed565b600080838060200190518101906102fe919061096b565b604080518082019091526001600160a01b039092168252602082015292505050919050565b600061036061033183610532565b60405161034060208201610804565b6020820181038252601f19601f8201166040525080519060200120610562565b92915050565b600080846001600160a01b03168484604051602401610386929190610a31565b60408051601f198184030181529181526020820180516001600160e01b031663a9059cbb60e01b179052516103bb91906109d1565b6000604051808303816000865af19150503d80600081146103f8576040519150601f19603f3d011682016040523d82523d6000602084013e6103fd565b606091505b50909695505050505050565b600080610414610290565b905061041f8161056f565b9392505050565b6000604051610434906109ed565b604051908190039020905090565b600061036082610450610617565b63ffffffff16565b610460610811565b61046a848461061d565b815260208101919091526040810191909152919050565b80516020820151600091906104968282610624565b949350505050565b6104a6610811565b81835110156104b457825191505b61041f838384865103610458565b60208101516060908067ffffffffffffffff811180156104e157600080fd5b506040519080825280601f01601f19166020018201604052801561050c576020820181803683370190505b508351909250600061051d84610641565b905061052a818385610647565b505050919050565b6000816040516020016105459190610a0e565b604051602081830303815290604052805190602001209050919050565b600061041f838330610685565b600181015460009060ff1661058f576001828101805460ff191690911790555b60028201545b825481101561060e576207a1205a10156105b657600283015550600061028b565b6106068360000182815481106105c857fe5b60009182526020918290206040805180820190915260029092020180546001600160a01b0390811683526001909101541691810191909152826106cd565b600101610595565b50600192915050565b61076f90565b0160200190565b6000600180600884021b0380836020038503511691505092915050565b60200190565b5b60208110610667578151835260209283019290910190601f1901610648565b600180600883602003021b0380845116811984511617845250505050565b60008060ff60f81b8386866040516020016106a39493929190610998565b60408051808303601f1901815291905280516020909101206001600160a01b031695945050505050565b60006107026106db83610532565b6040516106ea60208201610804565b601f1982820381018352601f90910116604052610772565b83516020850151604051638e03e6cd60e01b81529293506001600160a01b03841692638e03e6cd92610738929091600401610a17565b600060405180830381600087803b15801561075257600080fd5b505af1158015610766573d6000803e3d6000fd5b50505050505050565b90565b600080838351602085016000f590506001600160a01b03811661041f5760405162461bcd60e51b815260040161018390610a85565b604080516101008101825260008082526020820181905291810182905260608082018390526080820183905260a0820183905260c082019290925260e081019190915290565b604080518082019091526000808252602082015290565b61033980610b4b83390190565b60405180606001604052806000815260200160008152602001600081525090565b600060208284031215610843578081fd5b813561041f81610b32565b600080600080600080600080610100898b03121561086a578384fd5b885161087581610b32565b60208a015190985061088681610b32565b60408a015190975061089781610b32565b60608a01519096506108a881610b32565b60808a01519095506108b981610b32565b60a08a01519094506108ca81610b32565b60c08a015160e08b0151919450925067ffffffffffffffff808211156108ee578283fd5b818b018c601f8201126108ff578384fd5b805192508183111561090f578384fd5b604051601f8401601f19168101602001838111828210171561092f578586fd5b6040528381528184016020018e1015610946578485fd5b610957846020830160208501610b02565b809450505050509295985092959890939650565b6000806040838503121561097d578182fd5b825161098881610b32565b6020939093015192949293505050565b6001600160f81b031994909416845260609290921b6bffffffffffffffffffffffff191660018401526015830152603582015260550190565b600082516109e3818460208701610b02565b9190910192915050565b7434b9b7b630ba329732b931991816b0b230b83a32b960591b815260150190565b90815260200190565b6001600160a01b0392831681529116602082015260400190565b6001600160a01b03929092168252602082015260400190565b901515815260200190565b6020808252601690820152751d5b9cdd5c1c1bdc9d1959081d1bdad95b8818d85b1b60521b604082015260600190565b60208082526019908201527f437265617465323a204661696c6564206f6e206465706c6f7900000000000000604082015260600190565b60208082526026908201527f746f6b656e207472616e7366657220746f20657363726f772077616c6c65742060408201526519985a5b195960d21b606082015260800190565b60005b83811015610b1d578181015183820152602001610b05565b83811115610b2c576000848401525b50505050565b6001600160a01b0381168114610b4757600080fd5b5056fe608060405234801561001057600080fd5b50610319806100206000396000f3fe608060405234801561001057600080fd5b506004361061002b5760003560e01c80638e03e6cd14610030575b600080fd5b61005e6004803603604081101561004657600080fd5b506001600160a01b0381358116916020013516610060565b005b6000826001600160a01b0316475a6040519091906000818181858888f193505050503d80600081146100ae576040519150601f19603f3d011682016040523d82523d6000602084013e6100b3565b606091505b5050905080610101576040805162461bcd60e51b8152602060048201526015602482015274657468657220666f7277617264206661696c75726560581b604482015290519081900360640190fd5b6001600160a01b038216156101e857604080516370a0823160e01b8152306004820152905161019f9185916001600160a01b038616916370a08231916024808301926020929190829003018186803b15801561015c57600080fd5b505afa158015610170573d6000803e3d6000fd5b505050506040513d602081101561018657600080fd5b50516001600160a01b038516919063ffffffff6101f416565b6101e8576040805162461bcd60e51b8152602060048201526015602482015274657263323020666f7277617264206661696c75726560581b604482015290519081900360640190fd5b826001600160a01b0316ff5b604080516001600160a01b038481166024830152604480830185905283518084039091018152606490920183526020820180516001600160e01b031663a9059cbb60e01b1781529251825160009485949389169392918291908083835b602083106102705780518252601f199092019160209182019101610251565b6001836020036101000a0380198251168184511680821785525050505050509050019150506000604051808303816000865af19150503d80600081146102d2576040519150601f19603f3d011682016040523d82523d6000602084013e6102d7565b606091505b5090969550505050505056fea2646970667358221220b25fb974c85a5cc0d728e78faab00365627ffb782a1cadea46eede02ef3a469064736f6c63430006050033a2646970667358221220489b9fa8ccb68e36c8e7170e05456de74737124e351cfa6698f6650314ea41ee64736f6c63430006050033",
  "source": "pragma solidity ^0.6.0;\npragma experimental ABIEncoderV2;\n\nimport { ModuleLib } from \"../../lib/ModuleLib.sol\";\nimport { IERC20 } from \"openzeppelin-solidity/contracts/token/ERC20/IERC20.sol\";\nimport { ERC20AdapterLib } from \"./ERC20AdapterLib.sol\";\nimport { TokenUtils } from \"../../../utils/TokenUtils.sol\";\n\ncontract ERC20Adapter {\n  using ERC20AdapterLib for *;\n  using ModuleLib for *;\n  using TokenUtils for *;\n  function repay(address /* moduleAddress */) public returns (bool) {\n    ERC20AdapterLib.Isolate storage isolate = ERC20AdapterLib.getIsolatePointer();\n    return isolate.processEscrowForwards();\n  }\n  receive() external payable {\n    // no op\n  }\n  fallback() external {\n    ModuleLib.AssetSubmodulePayload memory payload = msg.data.decodeAssetSubmodulePayload();\n    ERC20AdapterLib.Isolate storage isolate = ERC20AdapterLib.getIsolatePointer();\n    (bytes4 sig, bytes memory args) = payload.callData.splitPayload();\n    if (sig == IERC20.transfer.selector) {\n       ERC20AdapterLib.TransferInputs memory inputs = args.decodeTransferInputs();\n       address escrowWallet = ERC20AdapterLib.computeForwarderAddress(isolate.payments.length);\n       isolate.payments.push(ERC20AdapterLib.EscrowRecord({\n         recipient: inputs.recipient,\n         token: payload.to\n       }));\n       require(payload.to.sendToken(escrowWallet, inputs.amount), \"token transfer to escrow wallet failed\");\n    } else if (sig == IERC20.approve.selector) {\n      // do nothing\n    } else revert(\"unsupported token call\");\n  }\n}\n",
  "sourcePath": "/home/ray/0confirmation/packages/0confirmation-sol/contracts/adapters/assets/erc20/ERC20Adapter.sol",
  "compiler": {
    "name": "solc",
    "version": "0.6.5+commit.f956cc89.Emscripten.clang"
  },
  "schemaVersion": "3.0.23",
  "updatedAt": "2020-04-24T06:53:32.911Z",
  "devdoc": {
    "methods": {}
  },
  "userdoc": {
    "methods": {}
  }
}