{
  "contractName": "ERC20Adapter",
  "abi": [
    {
      "stateMutability": "nonpayable",
      "type": "fallback"
    },
    {
      "stateMutability": "payable",
      "type": "receive"
    },
    {
      "inputs": [
        {
          "internalType": "address",
          "name": "",
          "type": "address"
        }
      ],
      "name": "repay",
      "outputs": [
        {
          "internalType": "bool",
          "name": "",
          "type": "bool"
        }
      ],
      "stateMutability": "nonpayable",
      "type": "function"
    }
  ],
  "bytecode": "0x608060405234801561001057600080fd5b50610ee4806100206000396000f3fe6080604052600436106100225760003560e01c80639f7c73e9146101cf57610029565b3661002957005b34801561003557600080fd5b5061003e6107bc565b61007e6000368080601f01602080910402602001604051908101604052809392919081815260200183838082843760009201919091525061020592505050565b9050600061008a610290565b90506000606061009d8460e001516102a7565b90925090506001600160e01b0319821663a9059cbb60e01b1415610193576100c3610802565b6100cc826102df565b84549091506000906100dd90610323565b6040805180820190915283516001600160a01b03908116825260a089018051821660208085019182528a5460018181018d5560008d81528390209651600290920290960180549186166001600160a01b031992831617815592519290950180549285169290951691909117909355918501519151929350610167921690839063ffffffff61036616565b61018c5760405162461bcd60e51b815260040161018390610ad1565b60405180910390fd5b50506101c9565b6001600160e01b0319821663095ea7b360e01b14156101b1576101c9565b60405162461bcd60e51b815260040161018390610a6a565b50505050005b3480156101db57600080fd5b506101ef6101ea366004610847565b6103d8565b6040516101fc9190610a5f565b60405180910390f35b61020d6107bc565b600080600080600080600060608980602001905181019061022e9190610863565b60408051610100810182526001600160a01b03998a1681529789166020890152958816958701959095529286166060860152908516608085015290931660a083015260c082019290925260e0810191909152985050505050505050505b919050565b60006102a261029d6103f5565b610411565b905090565b600060606102c06102bb8460006004610427565b610450565b60e01b91506102d86102d384600461046d565b610491565b9050915091565b6102e7610802565b600080838060200190518101906102fe9190610980565b604080518082019091526001600160a01b039092168252602082015292505050919050565b600061036061033183610501565b60405161034060208201610819565b6020820181038252601f19601f8201166040525080519060200120610531565b92915050565b600080846001600160a01b031661037d858561053e565b60405161038a91906109e6565b6000604051808303816000865af19150503d80600081146103c7576040519150601f19603f3d011682016040523d82523d6000602084013e6103cc565b606091505b50909695505050505050565b6000806103e3610290565b90506103ee81610584565b9392505050565b600060405161040390610a02565b604051908190039020905090565b60006103608261041f61062c565b63ffffffff16565b61042f610826565b6104398484610632565b815260208101919091526040810191909152919050565b80516020820151600091906104658282610639565b949350505050565b610475610826565b818351101561048357825191505b6103ee838384865103610427565b60208101516060908067ffffffffffffffff811180156104b057600080fd5b506040519080825280601f01601f1916602001820160405280156104db576020820181803683370190505b50835190925060006104ec84610656565b90506104f981838561065c565b505050919050565b6000816040516020016105149190610a23565b604051602081830303815290604052805190602001209050919050565b60006103ee83833061069a565b60608282604051602401610553929190610a46565b60408051601f198184030181529190526020810180516001600160e01b031663a9059cbb60e01b1790529392505050565b600181015460009060ff166105a4576001828101805460ff191690911790555b60028201545b8254811015610623576207a1205a10156105cb57600283015550600061028b565b61061b8360000182815481106105dd57fe5b60009182526020918290206040805180820190915260029092020180546001600160a01b0390811683526001909101541691810191909152826106e2565b6001016105aa565b50600192915050565b61078490565b0160200190565b6000600180600884021b0380836020038503511691505092915050565b60200190565b5b6020811061067c578151835260209283019290910190601f190161065d565b600180600883602003021b0380845116811984511617845250505050565b60008060ff60f81b8386866040516020016106b894939291906109ad565b60408051808303601f1901815291905280516020909101206001600160a01b031695945050505050565b60006107176106f083610501565b6040516106ff60208201610819565b601f1982820381018352601f90910116604052610787565b83516020850151604051638e03e6cd60e01b81529293506001600160a01b03841692638e03e6cd9261074d929091600401610a2c565b600060405180830381600087803b15801561076757600080fd5b505af115801561077b573d6000803e3d6000fd5b50505050505050565b90565b600080838351602085016000f590506001600160a01b0381166103ee5760405162461bcd60e51b815260040161018390610a9a565b604080516101008101825260008082526020820181905291810182905260608082018390526080820183905260a0820183905260c082019290925260e081019190915290565b604080518082019091526000808252602082015290565b61034f80610b6083390190565b60405180606001604052806000815260200160008152602001600081525090565b600060208284031215610858578081fd5b81356103ee81610b47565b600080600080600080600080610100898b03121561087f578384fd5b885161088a81610b47565b60208a015190985061089b81610b47565b60408a01519097506108ac81610b47565b60608a01519096506108bd81610b47565b60808a01519095506108ce81610b47565b60a08a01519094506108df81610b47565b60c08a015160e08b0151919450925067ffffffffffffffff80821115610903578283fd5b818b018c601f820112610914578384fd5b8051925081831115610924578384fd5b604051601f8401601f191681016020018381118282101715610944578586fd5b6040528381528184016020018e101561095b578485fd5b61096c846020830160208501610b17565b809450505050509295985092959890939650565b60008060408385031215610992578182fd5b825161099d81610b47565b6020939093015192949293505050565b6001600160f81b031994909416845260609290921b6bffffffffffffffffffffffff191660018401526015830152603582015260550190565b600082516109f8818460208701610b17565b9190910192915050565b7434b9b7b630ba329732b931991816b0b230b83a32b960591b815260150190565b90815260200190565b6001600160a01b0392831681529116602082015260400190565b6001600160a01b03929092168252602082015260400190565b901515815260200190565b6020808252601690820152751d5b9cdd5c1c1bdc9d1959081d1bdad95b8818d85b1b60521b604082015260600190565b60208082526019908201527f437265617465323a204661696c6564206f6e206465706c6f7900000000000000604082015260600190565b60208082526026908201527f746f6b656e207472616e7366657220746f20657363726f772077616c6c65742060408201526519985a5b195960d21b606082015260800190565b60005b83811015610b32578181015183820152602001610b1a565b83811115610b41576000848401525b50505050565b6001600160a01b0381168114610b5c57600080fd5b5056fe608060405234801561001057600080fd5b5061032f806100206000396000f3fe608060405234801561001057600080fd5b506004361061002b5760003560e01c80638e03e6cd14610030575b600080fd5b61005e6004803603604081101561004657600080fd5b506001600160a01b0381358116916020013516610060565b005b6000826001600160a01b0316475a6040519091906000818181858888f193505050503d80600081146100ae576040519150601f19603f3d011682016040523d82523d6000602084013e6100b3565b606091505b5050905080610101576040805162461bcd60e51b8152602060048201526015602482015274657468657220666f7277617264206661696c75726560581b604482015290519081900360640190fd5b6001600160a01b038216156101e857604080516370a0823160e01b8152306004820152905161019f9185916001600160a01b038616916370a08231916024808301926020929190829003018186803b15801561015c57600080fd5b505afa158015610170573d6000803e3d6000fd5b505050506040513d602081101561018657600080fd5b50516001600160a01b038516919063ffffffff6101f416565b6101e8576040805162461bcd60e51b8152602060048201526015602482015274657263323020666f7277617264206661696c75726560581b604482015290519081900360640190fd5b826001600160a01b0316ff5b600080846001600160a01b031661020b85856102ad565b6040518082805190602001908083835b6020831061023a5780518252601f19909201916020918201910161021b565b6001836020036101000a0380198251168184511680821785525050505050509050019150506000604051808303816000865af19150503d806000811461029c576040519150601f19603f3d011682016040523d82523d6000602084013e6102a1565b606091505b50909695505050505050565b604080516001600160a01b0390931660248401526044808401929092528051808403909201825260649092019091526020810180516001600160e01b031663a9059cbb60e01b1790529056fea2646970667358221220ca063405f41f5bae36742c878b52d418a46293953e76660d001934cecefd11a664736f6c63430006050033a2646970667358221220dfc5745de14223b0653790fbdf93921498a4d6660e6d94b60e074e110f85918d64736f6c63430006050033",
  "source": "pragma solidity ^0.6.0;\npragma experimental ABIEncoderV2;\n\nimport { ModuleLib } from \"../../lib/ModuleLib.sol\";\nimport { IERC20 } from \"openzeppelin-solidity/contracts/token/ERC20/IERC20.sol\";\nimport { ERC20AdapterLib } from \"./ERC20AdapterLib.sol\";\nimport { TokenUtils } from \"../../../utils/TokenUtils.sol\";\n\ncontract ERC20Adapter {\n  using ERC20AdapterLib for *;\n  using ModuleLib for *;\n  using TokenUtils for *;\n  function repay(address /* moduleAddress */) public returns (bool) {\n    ERC20AdapterLib.Isolate storage isolate = ERC20AdapterLib.getIsolatePointer();\n    return isolate.processEscrowForwards();\n  }\n  receive() external payable {\n    // no op\n  }\n  fallback() external {\n    ModuleLib.AssetSubmodulePayload memory payload = msg.data.decodeAssetSubmodulePayload();\n    ERC20AdapterLib.Isolate storage isolate = ERC20AdapterLib.getIsolatePointer();\n    (bytes4 sig, bytes memory args) = payload.callData.splitPayload();\n    if (sig == IERC20.transfer.selector) {\n       ERC20AdapterLib.TransferInputs memory inputs = args.decodeTransferInputs();\n       address escrowWallet = ERC20AdapterLib.computeForwarderAddress(isolate.payments.length);\n       isolate.payments.push(ERC20AdapterLib.EscrowRecord({\n         recipient: inputs.recipient,\n         token: payload.to\n       }));\n       require(payload.to.sendToken(escrowWallet, inputs.amount), \"token transfer to escrow wallet failed\");\n    } else if (sig == IERC20.approve.selector) {\n      // do nothing\n    } else revert(\"unsupported token call\");\n  }\n}\n",
  "sourcePath": "/home/ray/0confirmation/packages/0confirmation-sol/contracts/adapters/assets/erc20/ERC20Adapter.sol",
  "compiler": {
    "name": "solc",
    "version": "0.6.5+commit.f956cc89.Emscripten.clang"
  },
  "schemaVersion": "3.0.23",
  "updatedAt": "2020-04-22T09:15:43.821Z",
  "devdoc": {
    "methods": {}
  },
  "userdoc": {
    "methods": {}
  }
}