{
  "contractName": "ERC20AdapterLib",
  "abi": [
    {
      "inputs": [],
      "name": "computeIsolatePointer",
      "outputs": [
        {
          "internalType": "uint256",
          "name": "",
          "type": "uint256"
        }
      ],
      "stateMutability": "pure",
      "type": "function"
    }
  ],
  "bytecode": "0x60cc610025600b82828239805160001a60731461001857fe5b30600052607381538281f3fe730000000000000000000000000000000000000000301460806040526004361060335760003560e01c8063d7885a06146038575b600080fd5b603e6052565b60405160499190608d565b60405180910390f35b6000604051605e90606c565b604051908190039020905090565b7434b9b7b630ba329732b931991816b0b230b83a32b960591b815260150190565b9081526020019056fea26469706673582212206406f5c6c08ae57ff1d71373dbd6eeca74f2c6d0d489280662f89aeb15f8ffdf64736f6c63430006040033",
  "source": "pragma solidity ^0.6.0;\npragma experimental ABIEncoderV2;\n\nimport { Create2 } from \"openzeppelin-solidity/contracts/utils/Create2.sol\";\nimport { IERC20 } from \"openzeppelin-solidity/contracts/token/ERC20/IERC20.sol\";\nimport { ModuleLib } from \"../../lib/ModuleLib.sol\";\nimport { ERC20Forwarder } from \"./ERC20Forwarder.sol\";\n\nlibrary ERC20AdapterLib {\n  struct EscrowRecord {\n    address recipient;\n    address token;\n  }\n  struct Isolate {\n    EscrowRecord[] payments;\n    bool isProcessing;\n    uint256 processed;\n  }\n  function isDone(Isolate storage isolate) internal view returns (bool) {\n    return !isolate.isProcessing && isolate.payments.length == isolate.processed;\n  }\n  function computeIsolatePointer() public pure returns (uint256) {\n    return uint256(keccak256(\"isolate.erc20-adapter\"));\n  }\n  function computeForwarderSalt(uint256 index) internal pure returns (bytes32) {\n    return keccak256(abi.encodePacked(index));\n  }\n  function computeForwarderAddress(uint256 index) internal view returns (address) {\n    return Create2.computeAddress(computeForwarderSalt(index), keccak256(type(ERC20Forwarder).creationCode));\n  }\n  function liquidate() internal returns (bool) {\n    ERC20AdapterLib.Isolate storage isolate = getIsolatePointer();\n    return processEscrowReturns(isolate);\n  }\n  function forwardEscrow(EscrowRecord memory record, uint256 index) internal {\n    address forwarder = Create2.deploy(computeForwarderSalt(index), type(ERC20Forwarder).creationCode);\n    require(ERC20Forwarder(forwarder).forwardToken(record), \"uh oh, escrowed token wouldn't transfer, try again\"); // token is trusted to not have lock conditions, if it does, use another module (this should always succeed\n  }\n  function returnEscrow(EscrowRecord memory record, uint256 index) internal {\n    address forwarder = Create2.deploy(computeForwarderSalt(index), type(ERC20Forwarder).creationCode);\n    require(ERC20Forwarder(forwarder).returnToken(record), \"uh oh, escrowed token wouldn't return to borrow proxy, try again\");\n  }\n  uint256 constant MINIMUM_GAS_TO_PROCESS = 5e5;\n  uint256 constant MAX_RECORDS = 100;\n  function processEscrowForwards(Isolate storage isolate) internal returns (bool) {\n    if (!isolate.isProcessing) isolate.isProcessing = true;\n    for (uint256 i = isolate.processed; i < isolate.payments.length; i++) {\n      if (gasleft() < MINIMUM_GAS_TO_PROCESS) {\n        forwardEscrow(isolate.payments[i], i);\n      } else {\n        isolate.processed = i;\n        return false;\n      }\n    }\n    return true;\n  }\n  function processEscrowReturns(Isolate storage isolate) internal returns (bool) {\n    if (!isolate.isProcessing) isolate.isProcessing = true;\n    for (uint256 i = isolate.processed; i < isolate.payments.length; i++) {\n      if (gasleft() < MINIMUM_GAS_TO_PROCESS) {\n        returnEscrow(isolate.payments[i], i);\n      } else {\n        isolate.processed = i;\n        return false;\n      }\n    }\n    return true;\n  }\n  function toIsolatePointer(uint256 key) internal returns (Isolate storage) {\n    function (uint256) internal returns (Isolate storage) swap;\n    function (uint256) internal returns (uint256) real = ModuleLib.cast;\n    assembly {\n      swap := real\n    }\n    return swap(key);\n  }\n  function getIsolatePointer() internal returns (Isolate storage) {\n    return toIsolatePointer(computeIsolatePointer());\n  }\n}\n",
  "sourcePath": "/home/ray/0confirmation/packages/0confirmation-sol/contracts/adapters/assets/erc20/ERC20AdapterLib.sol",
  "compiler": {
    "name": "solc",
    "version": "0.6.4+commit.1dca32f3.Emscripten.clang"
  },
  "schemaVersion": "3.0.23",
  "updatedAt": "2020-04-06T03:54:46.608Z",
  "devdoc": {
    "methods": {}
  },
  "userdoc": {
    "methods": {}
  }
}