{
  "contractName": "ERC20AdapterLib",
  "abi": [
    {
      "anonymous": false,
      "inputs": [
        {
          "indexed": true,
          "internalType": "address",
          "name": "data",
          "type": "address"
        }
      ],
      "name": "Log",
      "type": "event"
    },
    {
      "inputs": [],
      "name": "computeIsolatePointer",
      "outputs": [
        {
          "internalType": "uint256",
          "name": "",
          "type": "uint256"
        }
      ],
      "stateMutability": "pure",
      "type": "function"
    }
  ],
  "bytecode": "0x60cc610025600b82828239805160001a60731461001857fe5b30600052607381538281f3fe730000000000000000000000000000000000000000301460806040526004361060335760003560e01c8063d7885a06146038575b600080fd5b603e6052565b60405160499190608d565b60405180910390f35b6000604051605e90606c565b604051908190039020905090565b7434b9b7b630ba329732b931991816b0b230b83a32b960591b815260150190565b9081526020019056fea2646970667358221220bde6a8d2960bcc179d5b2fd19a9f03b77ba0cb6dd8d59caa401ae33a648470ed64736f6c63430006080033",
  "immutableReferences": {},
  "source": "// SPDX-License-Identifier: MIT\npragma solidity ^0.6.0;\npragma experimental ABIEncoderV2;\n\nimport { Create2 } from \"@openzeppelin/contracts/utils/Create2.sol\";\nimport { IERC20 } from \"@openzeppelin/contracts/token/ERC20/IERC20.sol\";\nimport { ModuleLib } from \"../../lib/ModuleLib.sol\";\nimport { AssetForwarder } from \"../../lib/AssetForwarder.sol\";\nimport { AssetForwarderLib } from \"../../lib/AssetForwarderLib.sol\";\nimport { ERC20Adapter } from \"./ERC20Adapter.sol\";\nimport { BorrowProxyLib } from \"../../../BorrowProxyLib.sol\";\nimport { StringLib } from \"../../../utils/StringLib.sol\";\nimport { ShifterPoolLib } from \"../../../ShifterPoolLib.sol\";\nimport { TokenUtils } from \"../../../utils/TokenUtils.sol\";\nimport { FactoryLib } from \"../../../FactoryLib.sol\";\nimport { ShifterPool } from \"../../../ShifterPool.sol\";\n\nlibrary ERC20AdapterLib {\n  using ShifterPoolLib for *;\n  using TokenUtils for *;\n  using StringLib for *;\n  struct EscrowRecord {\n    address recipient;\n    address token;\n  }\n  struct Isolate {\n    EscrowRecord[] payments;\n    bool isProcessing;\n    uint256 processed;\n  }\n  function isDone(Isolate storage isolate) internal view returns (bool) {\n    return !isolate.isProcessing && isolate.payments.length == isolate.processed;\n  }\n  function computeIsolatePointer() public pure returns (uint256) {\n    return uint256(keccak256(\"isolate.erc20-adapter\"));\n  }\n  function computeForwarderSalt(uint256 index) internal pure returns (bytes32) {\n    return keccak256(abi.encodePacked(index));\n  }\n  function computeForwarderAddress(BorrowProxyLib.ProxyIsolate storage proxyIsolate, uint256 index) internal view returns (address) {\n    return FactoryLib.deriveInstanceAddress(proxyIsolate.masterAddress, ShifterPool(proxyIsolate.masterAddress).getAssetForwarderImplementationHandler(), keccak256(abi.encodePacked(AssetForwarderLib.GET_ASSET_FORWARDER_IMPLEMENTATION_SALT(), address(this), computeForwarderSalt(index))));\n  }\n  function liquidate(BorrowProxyLib.ProxyIsolate storage proxyIsolate) internal returns (bool) {\n    return processEscrowReturns(proxyIsolate);\n  }\n  struct TransferInputs {\n    address recipient;\n    uint256 amount;\n  }\n  function decodeTransferInputs(bytes memory args) internal pure returns (TransferInputs memory) {\n    (address recipient, uint256 amount) = abi.decode(args, (address, uint256));\n    return TransferInputs({\n      recipient: recipient,\n      amount: amount\n    });\n  }\n  event Log(address indexed data);\n  function forwardEscrow(BorrowProxyLib.ProxyIsolate storage proxyIsolate, EscrowRecord memory record, uint256 index) internal {\n    address forwarder = proxyIsolate.deployAssetForwarder(computeForwarderSalt(index));\n    emit Log(forwarder);\n    emit Log(computeForwarderAddress(proxyIsolate, index));\n    AssetForwarder(forwarder).forwardAsset(address(uint160(record.recipient)), record.token);\n  }\n  function returnEscrow(BorrowProxyLib.ProxyIsolate storage proxyIsolate, EscrowRecord memory record, uint256 index) internal {\n    address forwarder = proxyIsolate.deployAssetForwarder(computeForwarderSalt(index));\n    AssetForwarder(forwarder).forwardAsset(address(uint160(address(this))), record.token);\n  }\n  uint256 constant MINIMUM_GAS_TO_PROCESS = 5e5;\n  uint256 constant MAX_RECORDS = 100;\n  function processEscrowForwards(BorrowProxyLib.ProxyIsolate storage proxyIsolate) internal returns (bool) {\n    Isolate storage isolate = getIsolatePointer();\n    if (!isolate.isProcessing) isolate.isProcessing = true;\n    for (uint256 i = isolate.processed; i < isolate.payments.length; i++) {\n      if (gasleft() < MINIMUM_GAS_TO_PROCESS) {\n        isolate.processed = i;\n        return false;\n      } else {\n        forwardEscrow(proxyIsolate, isolate.payments[i], i);\n      }\n    }\n    return true;\n  }\n  function processEscrowReturns(BorrowProxyLib.ProxyIsolate storage proxyIsolate) internal returns (bool) {\n    Isolate storage isolate = getIsolatePointer();\n    if (!isolate.isProcessing) isolate.isProcessing = true;\n    for (uint256 i = isolate.processed; i < isolate.payments.length; i++) {\n      if (gasleft() < MINIMUM_GAS_TO_PROCESS) {\n        isolate.processed = i;\n        return false;\n      } else {\n        returnEscrow(proxyIsolate, isolate.payments[i], i);\n      }\n    }\n    return true;\n  }\n  function sendToEscrow(BorrowProxyLib.ProxyIsolate storage proxyIsolate, address recipient, address token, uint256 amount) internal returns (bool) {\n     Isolate storage isolate = getIsolatePointer();\n     address escrowWallet = computeForwarderAddress(proxyIsolate, isolate.payments.length);\n     installEscrowRecord(recipient, token);\n     return token.sendToken(escrowWallet, amount);\n  }\n  function installEscrowRecord(address recipient, address token) internal {\n    Isolate storage isolate = getIsolatePointer();\n    isolate.payments.push(EscrowRecord({\n      recipient: recipient,\n      token: token\n    }));\n  }\n  function deriveNextForwarderAddress(BorrowProxyLib.ProxyIsolate storage proxyIsolate) internal view returns (address) {\n    Isolate storage isolate = getIsolatePointer();\n    return computeForwarderAddress(proxyIsolate, isolate.payments.length);\n  }\n  function getCastStorageType() internal pure returns (function (uint256) internal pure returns (Isolate storage) swap) {\n    function (uint256) internal returns (uint256) cast = ModuleLib.cast;\n    assembly {\n      swap := cast\n    }\n  }\n  function toIsolatePointer(uint256 key) internal pure returns (Isolate storage) {\n    return getCastStorageType()(key);\n  }\n  function getIsolatePointer() internal pure returns (Isolate storage) {\n    return toIsolatePointer(computeIsolatePointer());\n  }\n}\n",
  "sourcePath": "/home/ray/0confirmation/packages/0confirmation-sol/contracts/adapters/assets/erc20/ERC20AdapterLib.sol",
  "compiler": {
    "name": "solc",
    "version": "0.6.8+commit.0bbfe453.Emscripten.clang"
  },
  "schemaVersion": "3.2.0",
  "updatedAt": "2020-05-29T16:46:33.235Z",
  "devdoc": {
    "methods": {}
  },
  "userdoc": {
    "methods": {}
  }
}