{
  "contractName": "ERC20Adapter",
  "abi": [
    {
      "inputs": [
        {
          "internalType": "address",
          "name": "",
          "type": "address"
        }
      ],
      "name": "repay",
      "outputs": [
        {
          "internalType": "bool",
          "name": "",
          "type": "bool"
        }
      ],
      "stateMutability": "nonpayable",
      "type": "function"
    },
    {
      "inputs": [
        {
          "components": [
            {
              "internalType": "address payable",
              "name": "moduleAddress",
              "type": "address"
            },
            {
              "internalType": "address",
              "name": "liquidationSubmodule",
              "type": "address"
            },
            {
              "internalType": "address",
              "name": "repaymentSubmodule",
              "type": "address"
            },
            {
              "internalType": "address payable",
              "name": "token",
              "type": "address"
            },
            {
              "internalType": "address payable",
              "name": "txOrigin",
              "type": "address"
            },
            {
              "internalType": "address payable",
              "name": "to",
              "type": "address"
            },
            {
              "internalType": "uint256",
              "name": "value",
              "type": "uint256"
            },
            {
              "internalType": "bytes",
              "name": "callData",
              "type": "bytes"
            }
          ],
          "internalType": "struct ModuleLib.AssetSubmodulePayload",
          "name": "payload",
          "type": "tuple"
        }
      ],
      "name": "handle",
      "outputs": [],
      "stateMutability": "payable",
      "type": "function",
      "payable": true
    }
  ],
  "bytecode": "0x608060405234801561001057600080fd5b50610ec3806100206000396000f3fe6080604052600436106100295760003560e01c80633c52e5a11461002e5780639f7c73e914610043575b600080fd5b61004161003c36600461084e565b610079565b005b34801561004f57600080fd5b5061006361005e366004610805565b6101c8565b6040516100709190610a00565b60405180910390f35b60006100836101e7565b9050600060606100968460e001516101fe565b90925090506001600160e01b0319821663a9059cbb60e01b141561018c576100bc61074c565b6100c582610236565b84549091506000906100d69061027a565b6040805180820190915283516001600160a01b03908116825260a089018051821660208085019182528a5460018181018d5560008d81528390209651600290920290960180549186166001600160a01b031992831617815592519290950180549285169290951691909117909355918501519151929350610160921690839063ffffffff6102bd16565b6101855760405162461bcd60e51b815260040161017c90610aa7565b60405180910390fd5b50506101c2565b6001600160e01b0319821663095ea7b360e01b14156101aa576101c2565b60405162461bcd60e51b815260040161017c90610a40565b50505050565b6000806101d36101e7565b90506101de8161032f565b9150505b919050565b60006101f96101f46103d7565b6103f3565b905090565b600060606102176102128460006004610409565b610432565b60e01b915061022f61022a84600461044f565b61047a565b9050915091565b61023e61074c565b600080838060200190518101906102559190610821565b604080518082019091526001600160a01b039092168252602082015292505050919050565b60006102b7610288836104ea565b60405161029760208201610763565b6020820181038252601f19601f820116604052508051906020012061051a565b92915050565b600080846001600160a01b03166102d48585610527565b6040516102e1919061096a565b6000604051808303816000865af19150503d806000811461031e576040519150601f19603f3d011682016040523d82523d6000602084013e610323565b606091505b50909695505050505050565b600181015460009060ff1661034f576001828101805460ff191690911790555b60028201545b82548110156103ce576207a1205a10156103765760028301555060006101e2565b6103c683600001828154811061038857fe5b60009182526020918290206040805180820190915260029092020180546001600160a01b03908116835260019091015416918101919091528261057d565b600101610355565b50600192915050565b60006040516103e5906109a3565b604051908190039020905090565b60006102b782610401610621565b63ffffffff16565b610411610770565b61041b8484610627565b815260208101919091526040810191909152919050565b8051602082015160009190610447828261062e565b949350505050565b610457610770565b818351101561046557825191505b610473838384865103610409565b9392505050565b60208101516060908067ffffffffffffffff8111801561049957600080fd5b506040519080825280601f01601f1916602001820160405280156104c4576020820181803683370190505b50835190925060006104d58461064b565b90506104e2818385610651565b505050919050565b6000816040516020016104fd91906109c4565b604051602081830303815290604052805190602001209050919050565b600061047383833061068f565b606063a9059cbb60e01b83836040516024016105449291906109e7565b60408051601f198184030181529190526020810180516001600160e01b03166001600160e01b0319909316929092179091529392505050565b60006105b4600061058d846104ea565b60405161059c60208201610763565b601f1982820381018352601f909101166040526106d7565b83516020850151604051638e03e6cd60e01b81529293506001600160a01b03841692638e03e6cd926105ea9290916004016109cd565b600060405180830381600087803b15801561060457600080fd5b505af1158015610618573d6000803e3d6000fd5b50505050505050565b61074990565b0160200190565b6000600180600884021b0380836020038503511691505092915050565b60200190565b5b60208110610671578151835260209283019290910190601f1901610652565b600180600883602003021b0380845116811984511617845250505050565b60008060ff60f81b8386866040516020016106ad9493929190610931565b60408051808303601f1901815291905280516020909101206001600160a01b031695945050505050565b600080844710156106fa5760405162461bcd60e51b815260040161017c90610aed565b82516107185760405162461bcd60e51b815260040161017c90610a0b565b8383516020850187f590506001600160a01b0381166104475760405162461bcd60e51b815260040161017c90610a70565b90565b604080518082019091526000808252602082015290565b61032a80610b6483390190565b60405180606001604052806000815260200160008152602001600081525090565b80356102b781610b4b565b600082601f8301126107ac578081fd5b813567ffffffffffffffff8111156107c2578182fd5b6107d5601f8201601f1916602001610b24565b91508082528360208285010111156107ec57600080fd5b8060208401602084013760009082016020015292915050565b600060208284031215610816578081fd5b813561047381610b4b565b60008060408385031215610833578081fd5b825161083e81610b4b565b6020939093015192949293505050565b60006020828403121561085f578081fd5b813567ffffffffffffffff80821115610876578283fd5b61010091840180860383131561088a578384fd5b61089383610b24565b61089d8783610791565b81526108ac8760208401610791565b60208201526108be8760408401610791565b60408201526108d08760608401610791565b60608201526108e28760808401610791565b60808201526108f48760a08401610791565b60a082015260c082013560c082015260e0820135935082841115610916578485fd5b6109228785840161079c565b60e08201529695505050505050565b6001600160f81b031994909416845260609290921b6bffffffffffffffffffffffff191660018401526015830152603582015260550190565b60008251815b8181101561098a5760208186018101518583015201610970565b818111156109985782828501525b509190910192915050565b7434b9b7b630ba329732b931991816b0b230b83a32b960591b815260150190565b90815260200190565b6001600160a01b0392831681529116602082015260400190565b6001600160a01b03929092168252602082015260400190565b901515815260200190565b6020808252818101527f437265617465323a2062797465636f6465206c656e677468206973207a65726f604082015260600190565b6020808252601690820152751d5b9cdd5c1c1bdc9d1959081d1bdad95b8818d85b1b60521b604082015260600190565b60208082526019908201527f437265617465323a204661696c6564206f6e206465706c6f7900000000000000604082015260600190565b60208082526026908201527f746f6b656e207472616e7366657220746f20657363726f772077616c6c65742060408201526519985a5b195960d21b606082015260800190565b6020808252601d908201527f437265617465323a20696e73756666696369656e742062616c616e6365000000604082015260600190565b60405181810167ffffffffffffffff81118282101715610b4357600080fd5b604052919050565b6001600160a01b0381168114610b6057600080fd5b5056fe608060405234801561001057600080fd5b5061030a806100206000396000f3fe60806040526004361061001e5760003560e01c80638e03e6cd14610023575b600080fd5b6100366100313660046101d7565b610038565b005b6001600160a01b03811615610103576100de82826001600160a01b03166370a08231306040518263ffffffff1660e01b81526004016100779190610260565b60206040518083038186803b15801561008f57600080fd5b505afa1580156100a3573d6000803e3d6000fd5b505050506040513d601f19601f820116820180604052508101906100c7919061020f565b6001600160a01b038416919063ffffffff61010f16565b6101035760405162461bcd60e51b81526004016100fa9061028d565b60405180910390fd5b816001600160a01b0316ff5b600080846001600160a01b03166101268585610181565b6040516101339190610227565b6000604051808303816000865af19150503d8060008114610170576040519150601f19603f3d011682016040523d82523d6000602084013e610175565b606091505b50909695505050505050565b606063a9059cbb60e01b838360405160240161019e929190610274565b60408051601f198184030181529190526020810180516001600160e01b03166001600160e01b0319909316929092179091529392505050565b600080604083850312156101e9578182fd5b82356101f4816102bc565b91506020830135610204816102bc565b809150509250929050565b600060208284031215610220578081fd5b5051919050565b60008251815b81811015610247576020818601810151858301520161022d565b818111156102555782828501525b509190910192915050565b6001600160a01b0391909116815260200190565b6001600160a01b03929092168252602082015260400190565b602080825260159082015274657263323020666f7277617264206661696c75726560581b604082015260600190565b6001600160a01b03811681146102d157600080fd5b5056fea26469706673582212205a29bd63220656063667a03321557826f48155036f2ec5c8d663f44f2ff77d9a64736f6c63430006060033a26469706673582212207a73482478b40b255c9d038a1dab7d3585c202c44d0f2f01bf4761085aaff7d364736f6c63430006060033",
  "immutableReferences": {},
  "source": "pragma solidity ^0.6.0;\npragma experimental ABIEncoderV2;\n\nimport { ModuleLib } from \"../../lib/ModuleLib.sol\";\nimport { ERC20 } from \"openzeppelin-solidity/contracts/token/ERC20/ERC20.sol\";\nimport { ERC20AdapterLib } from \"./ERC20AdapterLib.sol\";\nimport { TokenUtils } from \"../../../utils/TokenUtils.sol\";\n\ncontract ERC20Adapter {\n  using ERC20AdapterLib for *;\n  using ModuleLib for *;\n  using TokenUtils for *;\n  function repay(address /* moduleAddress */) public returns (bool) {\n    ERC20AdapterLib.Isolate storage isolate = ERC20AdapterLib.getIsolatePointer();\n    return isolate.processEscrowForwards();\n  }\n  function handle(ModuleLib.AssetSubmodulePayload memory payload) public payable {\n    ERC20AdapterLib.Isolate storage isolate = ERC20AdapterLib.getIsolatePointer();\n    (bytes4 sig, bytes memory args) = payload.callData.splitPayload();\n    if (sig == ERC20.transfer.selector) {\n       ERC20AdapterLib.TransferInputs memory inputs = args.decodeTransferInputs();\n       address escrowWallet = ERC20AdapterLib.computeForwarderAddress(isolate.payments.length);\n       isolate.payments.push(ERC20AdapterLib.EscrowRecord({\n         recipient: inputs.recipient,\n         token: payload.to\n       }));\n       require(payload.to.sendToken(escrowWallet, inputs.amount), \"token transfer to escrow wallet failed\");\n    } else if (sig == ERC20.approve.selector) {\n      // do nothing\n    } else revert(\"unsupported token call\");\n  }\n}\n",
  "sourcePath": "/Users/ray/0confirmation/packages/0confirmation-sol/contracts/adapters/assets/erc20/ERC20Adapter.sol",
  "compiler": {
    "name": "solc",
    "version": "0.6.6+commit.6c089d02.Emscripten.clang"
  },
  "schemaVersion": "3.1.0",
  "updatedAt": "2020-04-27T12:23:36.961Z",
  "networkType": "ethereum",
  "devdoc": {
    "methods": {}
  },
  "userdoc": {
    "methods": {}
  }
}