{
  "contractName": "ERC20Forwarder",
  "abi": [
    {
      "inputs": [
        {
          "components": [
            {
              "internalType": "address",
              "name": "recipient",
              "type": "address"
            },
            {
              "internalType": "address",
              "name": "token",
              "type": "address"
            }
          ],
          "internalType": "struct ERC20AdapterLib.EscrowRecord",
          "name": "record",
          "type": "tuple"
        }
      ],
      "name": "forwardToken",
      "outputs": [
        {
          "internalType": "bool",
          "name": "",
          "type": "bool"
        }
      ],
      "stateMutability": "nonpayable",
      "type": "function"
    },
    {
      "inputs": [
        {
          "components": [
            {
              "internalType": "address",
              "name": "recipient",
              "type": "address"
            },
            {
              "internalType": "address",
              "name": "token",
              "type": "address"
            }
          ],
          "internalType": "struct ERC20AdapterLib.EscrowRecord",
          "name": "record",
          "type": "tuple"
        }
      ],
      "name": "returnToken",
      "outputs": [
        {
          "internalType": "bool",
          "name": "",
          "type": "bool"
        }
      ],
      "stateMutability": "nonpayable",
      "type": "function"
    }
  ],
  "bytecode": "0x608060405234801561001057600080fd5b50610330806100206000396000f3fe608060405234801561001057600080fd5b50600436106100365760003560e01c80636582a3bc1461003b57806389dc052514610064575b600080fd5b61004e610049366004610219565b610077565b60405161005b91906102ef565b60405180910390f35b61004e610072366004610219565b610122565b60008061011d836000015184602001516001600160a01b03166370a08231306040518263ffffffff1660e01b81526004016100b291906102c2565b60206040518083038186803b1580156100ca57600080fd5b505afa1580156100de573d6000803e3d6000fd5b505050506040513d601f19601f820116820180604052508101906101029190610271565b60208601516001600160a01b0316919063ffffffff61015916565b905033ff5b60008061011d3384602001516001600160a01b03166370a08231306040518263ffffffff1660e01b81526004016100b291906102c2565b600080846001600160a01b031684846040516024016101799291906102d6565b60408051601f198184030181529181526020820180516001600160e01b031663a9059cbb60e01b179052516101ae9190610289565b6000604051808303816000865af19150503d80600081146101eb576040519150601f19603f3d011682016040523d82523d6000602084013e6101f0565b606091505b50909695505050505050565b80356001600160a01b038116811461021357600080fd5b92915050565b60006040828403121561022a578081fd5b6040516040810181811067ffffffffffffffff82111715610249578283fd5b60405261025684846101fc565b815261026584602085016101fc565b60208201529392505050565b600060208284031215610282578081fd5b5051919050565b60008251815b818110156102a9576020818601810151858301520161028f565b818111156102b75782828501525b509190910192915050565b6001600160a01b0391909116815260200190565b6001600160a01b03929092168252602082015260400190565b90151581526020019056fea264697066735822122089c87a290800fc72c01a9eab45502180c7c23d729a6d8a46c67648c73e9c1aa564736f6c63430006040033",
  "source": "pragma solidity ^0.6.0;\npragma experimental ABIEncoderV2;\n\nimport { IERC20 } from \"openzeppelin-solidity/contracts/token/ERC20/IERC20.sol\";\nimport { ERC20AdapterLib } from \"./ERC20AdapterLib.sol\";\nimport { TokenUtils } from \"../../../utils/TokenUtils.sol\";\n\ncontract ERC20Forwarder {\n  using TokenUtils for *;\n  function forwardToken(ERC20AdapterLib.EscrowRecord memory record) public returns (bool) {\n    bool success = record.token.sendToken(record.recipient, IERC20(record.token).balanceOf(address(this)));\n    selfdestruct(msg.sender);\n    return success;\n  \n  }\n  function returnToken(ERC20AdapterLib.EscrowRecord memory record) public returns (bool) {\n    bool success = record.token.sendToken(msg.sender, IERC20(record.token).balanceOf(address(this)));\n    selfdestruct(msg.sender);\n    return success;\n  }\n}\n",
  "sourcePath": "/home/ray/0confirmation/packages/0confirmation-sol/contracts/adapters/assets/erc20/ERC20Forwarder.sol",
  "compiler": {
    "name": "solc",
    "version": "0.6.4+commit.1dca32f3.Emscripten.clang"
  },
  "schemaVersion": "3.0.23",
  "updatedAt": "2020-04-06T01:53:48.829Z",
  "devdoc": {
    "methods": {}
  },
  "userdoc": {
    "methods": {}
  }
}