{
  "contractName": "ERC20Forwarder",
  "abi": [
    {
      "inputs": [
        {
          "components": [
            {
              "internalType": "address",
              "name": "recipient",
              "type": "address"
            },
            {
              "internalType": "address",
              "name": "token",
              "type": "address"
            }
          ],
          "internalType": "struct ERC20AdapterLib.EscrowRecord",
          "name": "record",
          "type": "tuple"
        }
      ],
      "name": "forwardToken",
      "outputs": [
        {
          "internalType": "bool",
          "name": "",
          "type": "bool"
        }
      ],
      "stateMutability": "nonpayable",
      "type": "function"
    },
    {
      "inputs": [
        {
          "components": [
            {
              "internalType": "address",
              "name": "recipient",
              "type": "address"
            },
            {
              "internalType": "address",
              "name": "token",
              "type": "address"
            }
          ],
          "internalType": "struct ERC20AdapterLib.EscrowRecord",
          "name": "record",
          "type": "tuple"
        }
      ],
      "name": "returnToken",
      "outputs": [
        {
          "internalType": "bool",
          "name": "",
          "type": "bool"
        }
      ],
      "stateMutability": "nonpayable",
      "type": "function"
    }
  ],
  "bytecode": "0x608060405234801561001057600080fd5b5061032d806100206000396000f3fe608060405234801561001057600080fd5b50600436106100365760003560e01c80636582a3bc1461003b57806389dc052514610064575b600080fd5b61004e6100493660046101fc565b610077565b60405161005b91906102d4565b60405180910390f35b61004e6100723660046101fc565b610122565b60008061011d836000015184602001516001600160a01b03166370a08231306040518263ffffffff1660e01b81526004016100b291906102a7565b60206040518083038186803b1580156100ca57600080fd5b505afa1580156100de573d6000803e3d6000fd5b505050506040513d601f19601f820116820180604052506101029190810190610256565b60208601516001600160a01b0316919063ffffffff61015916565b905033ff5b60008061011d3384602001516001600160a01b03166370a08231306040518263ffffffff1660e01b81526004016100b291906102a7565b600080846001600160a01b031684846040516024016101799291906102bb565b60408051601f198184030181529181526020820180516001600160e01b031663a9059cbb60e01b179052516101ae919061026e565b6000604051808303816000865af19150503d80600081146101eb576040519150601f19603f3d011682016040523d82523d6000602084013e6101f0565b606091505b50909695505050505050565b60006040828403121561020d578081fd5b6040516040810181811067ffffffffffffffff8211171561022c578283fd5b604052823561023a816102df565b8152602083013561024a816102df565b60208201529392505050565b600060208284031215610267578081fd5b5051919050565b60008251815b8181101561028e5760208186018101518583015201610274565b8181111561029c5782828501525b509190910192915050565b6001600160a01b0391909116815260200190565b6001600160a01b03929092168252602082015260400190565b901515815260200190565b6001600160a01b03811681146102f457600080fd5b5056fea26469706673582212204bc67b94c8f73f148c121f1302f4ee6ad96ec1537bff656ea0a2d2bc8600313264736f6c63430006020033",
  "source": "pragma solidity ^0.6.0;\npragma experimental ABIEncoderV2;\n\nimport { IERC20 } from \"openzeppelin-solidity/contracts/token/ERC20/IERC20.sol\";\nimport { ERC20AdapterLib } from \"./ERC20AdapterLib.sol\";\nimport { TokenUtils } from \"../../../utils/TokenUtils.sol\";\n\ncontract ERC20Forwarder {\n  using TokenUtils for *;\n  function forwardToken(ERC20AdapterLib.EscrowRecord memory record) public returns (bool) {\n    bool success = record.token.sendToken(record.recipient, IERC20(record.token).balanceOf(address(this)));\n    selfdestruct(msg.sender);\n    return success;\n  \n  }\n  function returnToken(ERC20AdapterLib.EscrowRecord memory record) public returns (bool) {\n    bool success = record.token.sendToken(msg.sender, IERC20(record.token).balanceOf(address(this)));\n    selfdestruct(msg.sender);\n    return success;\n  }\n}\n",
  "sourcePath": "/home/ray/0confirmation/packages/0confirmation-sol/contracts/adapters/assets/erc20/ERC20Forwarder.sol",
  "compiler": {
    "name": "solc",
    "version": "0.6.2+commit.bacdbe57.Emscripten.clang"
  },
  "schemaVersion": "3.0.23",
  "updatedAt": "2020-04-06T00:31:40.742Z",
  "devdoc": {
    "methods": {}
  },
  "userdoc": {
    "methods": {}
  }
}