{
  "contractName": "ERC20Adapter",
  "abi": [
    {
      "inputs": [
        {
          "internalType": "address",
          "name": "",
          "type": "address"
        }
      ],
      "name": "repay",
      "outputs": [
        {
          "internalType": "bool",
          "name": "",
          "type": "bool"
        }
      ],
      "stateMutability": "nonpayable",
      "type": "function"
    },
    {
      "inputs": [
        {
          "components": [
            {
              "internalType": "address payable",
              "name": "moduleAddress",
              "type": "address"
            },
            {
              "internalType": "address",
              "name": "liquidationSubmodule",
              "type": "address"
            },
            {
              "internalType": "address",
              "name": "repaymentSubmodule",
              "type": "address"
            },
            {
              "internalType": "address payable",
              "name": "token",
              "type": "address"
            },
            {
              "internalType": "address payable",
              "name": "txOrigin",
              "type": "address"
            },
            {
              "internalType": "address payable",
              "name": "to",
              "type": "address"
            },
            {
              "internalType": "uint256",
              "name": "value",
              "type": "uint256"
            },
            {
              "internalType": "bytes",
              "name": "callData",
              "type": "bytes"
            }
          ],
          "internalType": "struct ModuleLib.AssetSubmodulePayload",
          "name": "payload",
          "type": "tuple"
        }
      ],
      "name": "handle",
      "outputs": [],
      "stateMutability": "payable",
      "type": "function"
    }
  ],
  "bytecode": "0x608060405234801561001057600080fd5b50610996806100206000396000f3fe6080604052600436106100295760003560e01c80633c52e5a11461002e5780639f7c73e914610043575b600080fd5b61004161003c3660046103e8565b610079565b005b34801561004f57600080fd5b5061006361005e3660046103cc565b61009a565b6040516100709190610542565b60405180910390f35b60405162461bcd60e51b81526004016100919061054d565b60405180910390fd5b6000806100a56100b9565b90506100b0816100d6565b9150505b919050565b60006100cb6100c661017e565b61019a565b905090565b92915050565b600181015460009060ff166100f6576001828101805460ff191690911790555b60028201545b8254811015610175576207a1205a101561011d5760028301555060006100b4565b61016d83600001828154811061012f57fe5b60009182526020918290206040805180820190915260029092020180546001600160a01b0390811683526001909101541691810191909152826101ef565b6001016100fc565b50600192915050565b600060405161018c906104fe565b604051908190039020905090565b60006100d0826101a8610293565b63ffffffff16565b949350505050565b9392505050565b6000816040516020016101d2919061051f565b604051602081830303815290604052805190602001209050919050565b600061022660006101ff846101bf565b60405161020e6020820161034b565b601f1982820381018352601f909101166040526102d6565b83516020850151604051638e03e6cd60e01b81529293506001600160a01b03841692638e03e6cd9261025c929091600401610528565b600060405180830381600087803b15801561027657600080fd5b505af115801561028a573d6000803e3d6000fd5b50505050505050565b61034890565b602081106102b8578151835260209283019290910190601f1901610299565b600180600883602003021b0380845116811984511617845250505050565b600080844710156102f95760405162461bcd60e51b8152600401610091906105d7565b82516103175760405162461bcd60e51b81526004016100919061056b565b8383516020850187f590506001600160a01b0381166101b05760405162461bcd60e51b8152600401610091906105a0565b90565b6103138061064e83390190565b80356100d081610635565b600082601f830112610373578081fd5b813567ffffffffffffffff811115610389578182fd5b61039c601f8201601f191660200161060e565b91508082528360208285010111156103b357600080fd5b8060208401602084013760009082016020015292915050565b6000602082840312156103dd578081fd5b81356101b881610635565b6000602082840312156103f9578081fd5b813567ffffffffffffffff80821115610410578283fd5b610100918401808603831315610424578384fd5b61042d8361060e565b6104378783610358565b81526104468760208401610358565b60208201526104588760408401610358565b604082015261046a8760608401610358565b606082015261047c8760808401610358565b608082015261048e8760a08401610358565b60a082015260c082013560c082015260e08201359350828411156104b0578485fd5b6104bc87858401610363565b60e08201529695505050505050565b818110156104e557602081860181015185830152016104cb565b818111156104f35782828501525b509190910192915050565b7434b9b7b630ba329732b931991816b0b230b83a32b960591b815260150190565b90815260200190565b6001600160a01b0392831681529116602082015260400190565b901515815260200190565b6020808252600490820152630776f6f760e41b604082015260600190565b6020808252818101527f437265617465323a2062797465636f6465206c656e677468206973207a65726f604082015260600190565b60208082526019908201527f437265617465323a204661696c6564206f6e206465706c6f7900000000000000604082015260600190565b6020808252601d908201527f437265617465323a20696e73756666696369656e742062616c616e6365000000604082015260600190565b60405181810167ffffffffffffffff8111828210171561062d57600080fd5b604052919050565b6001600160a01b038116811461064a57600080fd5b5056fe608060405234801561001057600080fd5b506102f3806100206000396000f3fe60806040526004361061001e5760003560e01c80638e03e6cd14610023575b600080fd5b6100366100313660046101c0565b610038565b005b6100cf82826001600160a01b03166370a08231306040518263ffffffff1660e01b81526004016100689190610249565b60206040518083038186803b15801561008057600080fd5b505afa158015610094573d6000803e3d6000fd5b505050506040513d601f19601f820116820180604052508101906100b891906101f8565b6001600160a01b038416919063ffffffff6100f816565b6100f45760405162461bcd60e51b81526004016100eb90610276565b60405180910390fd5b5050565b600080846001600160a01b031661010f858561016a565b60405161011c9190610210565b6000604051808303816000865af19150503d8060008114610159576040519150601f19603f3d011682016040523d82523d6000602084013e61015e565b606091505b50909695505050505050565b606063a9059cbb60e01b838360405160240161018792919061025d565b60408051601f198184030181529190526020810180516001600160e01b03166001600160e01b0319909316929092179091529392505050565b600080604083850312156101d2578182fd5b82356101dd816102a5565b915060208301356101ed816102a5565b809150509250929050565b600060208284031215610209578081fd5b5051919050565b60008251815b818110156102305760208186018101518583015201610216565b8181111561023e5782828501525b509190910192915050565b6001600160a01b0391909116815260200190565b6001600160a01b03929092168252602082015260400190565b602080825260159082015274657263323020666f7277617264206661696c75726560581b604082015260600190565b6001600160a01b03811681146102ba57600080fd5b5056fea264697066735822122060150896cebba72618edc7f2afc30c600a9c48a5ebb9b1ebc21fc9471728695364736f6c63430006060033a26469706673582212204a3f3a39ab0221249731e037478a037ae4c42636a0085da662c92ef2cfcdee9664736f6c63430006060033",
  "immutableReferences": {},
  "source": "pragma solidity ^0.6.0;\npragma experimental ABIEncoderV2;\n\nimport { ModuleLib } from \"../../lib/ModuleLib.sol\";\nimport { ERC20 } from \"openzeppelin-solidity/contracts/token/ERC20/ERC20.sol\";\nimport { ERC20AdapterLib } from \"./ERC20AdapterLib.sol\";\nimport { TokenUtils } from \"../../../utils/TokenUtils.sol\";\n\ncontract ERC20Adapter {\n  using ERC20AdapterLib for *;\n  using ModuleLib for *;\n  using TokenUtils for *;\n  function repay(address /* moduleAddress */) public returns (bool) {\n    ERC20AdapterLib.Isolate storage isolate = ERC20AdapterLib.getIsolatePointer();\n    return isolate.processEscrowForwards();\n  }\n  function handle(ModuleLib.AssetSubmodulePayload memory payload) public payable {\n    if (true) revert(\"woop\");\n    ERC20AdapterLib.Isolate storage isolate = ERC20AdapterLib.getIsolatePointer();\n    (bytes4 sig, bytes memory args) = payload.callData.splitPayload();\n    if (sig == ERC20.transfer.selector) {\n       ERC20AdapterLib.TransferInputs memory inputs = args.decodeTransferInputs();\n       address escrowWallet = ERC20AdapterLib.computeForwarderAddress(isolate.payments.length);\n       isolate.payments.push(ERC20AdapterLib.EscrowRecord({\n         recipient: inputs.recipient,\n         token: payload.to\n       }));\n       require(payload.to.sendToken(escrowWallet, inputs.amount), \"token transfer to escrow wallet failed\");\n    } else if (sig == ERC20.approve.selector) {\n      // do nothing\n    } else revert(\"unsupported token call\");\n  }\n}\n",
  "sourcePath": "/home/ray/0confirmation/packages/0confirmation-sol/contracts/adapters/assets/erc20/ERC20Adapter.sol",
  "compiler": {
    "name": "solc",
    "version": "0.6.6+commit.6c089d02.Emscripten.clang"
  },
  "schemaVersion": "3.1.0",
  "updatedAt": "2020-04-27T00:04:33.914Z",
  "devdoc": {
    "methods": {}
  },
  "userdoc": {
    "methods": {}
  }
}