{
  "contractName": "EtherForwarder",
  "abi": [
    {
      "inputs": [
        {
          "internalType": "address payable",
          "name": "target",
          "type": "address"
        }
      ],
      "name": "forward",
      "outputs": [
        {
          "internalType": "bool",
          "name": "",
          "type": "bool"
        }
      ],
      "stateMutability": "payable",
      "type": "function"
    }
  ],
  "bytecode": "0x6080604052348015600f57600080fd5b50609c8061001e6000396000f3fe608060405260043610601c5760003560e01c8063101e8952146021575b600080fd5b604460048036036020811015603557600080fd5b50356001600160a01b03166058565b604080519115158252519081900360200190f35b6000816001600160a01b0316fffea2646970667358221220d6099ee8a409e1b30fc8cd3f14b4015e5435ff74b291361bb9995c2043b50c1c64736f6c63430006040033",
  "source": "pragma solidity ^0.6.0;\n\ncontract EtherForwarder {\n  function forward(address payable target) public payable returns (bool) {\n    selfdestruct(target);\n    return true;\n  }\n}\n",
  "sourcePath": "/home/ray/0confirmation/packages/0confirmation-sol/contracts/adapters/assets/uniswap/EtherForwarder.sol",
  "compiler": {
    "name": "solc",
    "version": "0.6.4+commit.1dca32f3.Emscripten.clang"
  },
  "schemaVersion": "3.0.23",
  "updatedAt": "2020-04-06T01:59:57.717Z",
  "devdoc": {
    "methods": {}
  },
  "userdoc": {
    "methods": {}
  }
}