{
  "contractName": "EtherForwarder",
  "abi": [
    {
      "inputs": [
        {
          "internalType": "address payable",
          "name": "target",
          "type": "address"
        }
      ],
      "name": "forward",
      "outputs": [],
      "stateMutability": "nonpayable",
      "type": "function"
    }
  ],
  "bytecode": "0x608060405234801561001057600080fd5b5060e68061001f6000396000f3fe6080604052348015600f57600080fd5b506004361060285760003560e01c8063101e895214602d575b600080fd5b605060048036036020811015604157600080fd5b50356001600160a01b03166052565b005b806001600160a01b0316475a6040519091906000818181858888f193505050503d8060008114609c576040519150601f19603f3d011682016040523d82523d6000602084013e60a1565b606091505b505050806001600160a01b0316fffea2646970667358221220d518af077d6068511767d56df4a97545715a1507f3eec4e317312e72101900db64736f6c63430006020033",
  "source": "pragma solidity ^0.6.0;\n\ncontract EtherForwarder {\n  function forward(address payable target) external {\n    target.call.value(address(this).balance).gas(gasleft())(\"\");\n    selfdestruct(target);\n  }\n}\n",
  "sourcePath": "/home/ray/0confirmation/packages/0confirmation-sol/contracts/adapters/assets/uniswap/EtherForwarder.sol",
  "compiler": {
    "name": "solc",
    "version": "0.6.2+commit.bacdbe57.Emscripten.clang"
  },
  "schemaVersion": "3.0.23",
  "updatedAt": "2020-04-04T05:15:19.993Z",
  "devdoc": {
    "methods": {}
  },
  "userdoc": {
    "methods": {}
  }
}