{
  "contractName": "EtherForwarder",
  "abi": [
    {
      "anonymous": false,
      "inputs": [],
      "name": "EtherForwardFailure",
      "type": "event"
    },
    {
      "inputs": [
        {
          "internalType": "address payable",
          "name": "target",
          "type": "address"
        },
        {
          "internalType": "address",
          "name": "token",
          "type": "address"
        }
      ],
      "name": "forward",
      "outputs": [],
      "stateMutability": "nonpayable",
      "type": "function"
    }
  ],
  "bytecode": "0x608060405234801561001057600080fd5b50610295806100206000396000f3fe608060405234801561001057600080fd5b506004361061002b5760003560e01c806395ccf8bf14610030575b600080fd5b61005e6004803603604081101561004657600080fd5b506001600160a01b0381358116916020013516610060565b005b6000826001600160a01b0316475a6040519091906000818181858888f193505050503d80600081146100ae576040519150601f19603f3d011682016040523d82523d6000602084013e6100b3565b606091505b5050905080610102576040805162461bcd60e51b81526020600482015260166024820152756574686572207472616e73666572206661696c75726560501b604482015290519081900360640190fd5b6001600160a01b0382161561025357604080516370a0823160e01b815230600482015290516001600160a01b0384169163a9059cbb91869184916370a0823191602480820192602092909190829003018186803b15801561016257600080fd5b505afa158015610176573d6000803e3d6000fd5b505050506040513d602081101561018c57600080fd5b5051604080516001600160e01b031960e086901b1681526001600160a01b03909316600484015260248301919091525160448083019260209291908290030181600087803b1580156101dd57600080fd5b505af11580156101f1573d6000803e3d6000fd5b505050506040513d602081101561020757600080fd5b5051610253576040805162461bcd60e51b81526020600482015260166024820152756572633230207472616e73666572206661696c75726560501b604482015290519081900360640190fd5b826001600160a01b0316fffea26469706673582212207bda2fd1f4ccbb08b600359973bdc15fbf5abbce94e7034b0b75a311a64b083364736f6c63430006050033",
  "source": "pragma solidity ^0.6.0;\n\nimport { IERC20 } from \"openzeppelin-solidity/contracts/token/ERC20/IERC20.sol\";\nimport { TokenUtils } from \"../../../utils/TokenUtils.sol\";\n\ncontract EtherForwarder {\n  using TokenUtils for *;\n  event EtherForwardFailure();\n  function forward(address payable target, address token) public {\n    (bool success, ) = target.call{ value: address(this).balance, gas: gasleft() }(\"\");\n    require(success, \"ether transfer failure\");\n    if (token != address(0x0)) {\n      require(IERC20(token).transfer(target, IERC20(token).balanceOf(address(this))), \"erc20 transfer failure\");\n    } \n    selfdestruct(target);\n  }\n}\n",
  "sourcePath": "/home/ray/0confirmation/packages/0confirmation-sol/contracts/adapters/assets/uniswap/EtherForwarder.sol",
  "compiler": {
    "name": "solc",
    "version": "0.6.5+commit.f956cc89.Emscripten.clang"
  },
  "schemaVersion": "3.0.23",
  "updatedAt": "2020-04-07T22:29:13.813Z",
  "devdoc": {
    "methods": {}
  },
  "userdoc": {
    "methods": {}
  }
}