{
  "contractName": "ISafeViewExecutor",
  "abi": [
    {
      "inputs": [
        {
          "internalType": "bytes",
          "name": "",
          "type": "bytes"
        },
        {
          "internalType": "bytes",
          "name": "",
          "type": "bytes"
        }
      ],
      "name": "query",
      "outputs": [
        {
          "components": [
            {
              "internalType": "bool",
              "name": "success",
              "type": "bool"
            },
            {
              "internalType": "bytes",
              "name": "data",
              "type": "bytes"
            }
          ],
          "internalType": "struct SafeViewLib.SafeViewResult",
          "name": "",
          "type": "tuple"
        }
      ],
      "stateMutability": "view",
      "type": "function"
    }
  ],
  "bytecode": "0x608060405234801561001057600080fd5b506101fb806100206000396000f3fe608060405234801561001057600080fd5b506004361061002b5760003560e01c806334686eaf14610030575b600080fd5b61004361003e3660046100fd565b610059565b604051610050919061015e565b60405180910390f35b610061610067565b92915050565b60408051808201909152600081526060602082015290565b600082601f83011261008f578081fd5b813567ffffffffffffffff808211156100a6578283fd5b604051601f8301601f1916810160200182811182821017156100c6578485fd5b6040528281529250828483016020018610156100e157600080fd5b8260208601602083013760006020848301015250505092915050565b6000806040838503121561010f578182fd5b823567ffffffffffffffff80821115610126578384fd5b6101328683870161007f565b93506020850135915080821115610147578283fd5b506101548582860161007f565b9150509250929050565b600060208083528351151581840152808401516040808501528051806060860152835b8181101561019d57828101840151868201608001528301610181565b818111156101ae5784608083880101525b50601f01601f19169390930160800194935050505056fea26469706673582212204c3d80bc519a42259b914db3bf0adc5d5a57accbc3efc4e2da6214a6d4966b6264736f6c63430006060033",
  "immutableReferences": {},
  "source": "pragma solidity ^0.6.0;\npragma experimental ABIEncoderV2;\n\nimport { SafeViewLib } from \"./SafeViewLib.sol\";\n\ncontract ISafeViewExecutor {\n  function query(bytes memory /* creationCode */, bytes memory /* context */) public view returns (SafeViewLib.SafeViewResult memory) {\n   // stub\n  }\n}\n",
  "sourcePath": "/home/ray/0confirmation/packages/0confirmation-sol/contracts/utils/sandbox/ISafeViewExecutor.sol",
  "compiler": {
    "name": "solc",
    "version": "0.6.6+commit.6c089d02.Emscripten.clang"
  },
  "schemaVersion": "3.1.0",
  "updatedAt": "2020-05-03T06:45:27.563Z",
  "devdoc": {
    "methods": {}
  },
  "userdoc": {
    "methods": {}
  }
}