{
  "contractName": "LinkedListTest",
  "abi": [
    {
      "constant": true,
      "inputs": [
        {
          "internalType": "address",
          "name": "node",
          "type": "address"
        }
      ],
      "name": "isInList",
      "outputs": [
        {
          "internalType": "bool",
          "name": "",
          "type": "bool"
        }
      ],
      "payable": false,
      "stateMutability": "view",
      "type": "function"
    },
    {
      "constant": true,
      "inputs": [
        {
          "internalType": "address",
          "name": "node",
          "type": "address"
        }
      ],
      "name": "next",
      "outputs": [
        {
          "internalType": "address",
          "name": "",
          "type": "address"
        }
      ],
      "payable": false,
      "stateMutability": "view",
      "type": "function"
    },
    {
      "constant": true,
      "inputs": [
        {
          "internalType": "address",
          "name": "node",
          "type": "address"
        }
      ],
      "name": "previous",
      "outputs": [
        {
          "internalType": "address",
          "name": "",
          "type": "address"
        }
      ],
      "payable": false,
      "stateMutability": "view",
      "type": "function"
    },
    {
      "constant": true,
      "inputs": [],
      "name": "begin",
      "outputs": [
        {
          "internalType": "address",
          "name": "",
          "type": "address"
        }
      ],
      "payable": false,
      "stateMutability": "view",
      "type": "function"
    },
    {
      "constant": true,
      "inputs": [],
      "name": "end",
      "outputs": [
        {
          "internalType": "address",
          "name": "",
          "type": "address"
        }
      ],
      "payable": false,
      "stateMutability": "view",
      "type": "function"
    },
    {
      "constant": false,
      "inputs": [
        {
          "internalType": "address",
          "name": "target",
          "type": "address"
        },
        {
          "internalType": "address",
          "name": "newNode",
          "type": "address"
        }
      ],
      "name": "insertBefore",
      "outputs": [],
      "payable": false,
      "stateMutability": "nonpayable",
      "type": "function"
    },
    {
      "constant": false,
      "inputs": [
        {
          "internalType": "address",
          "name": "target",
          "type": "address"
        },
        {
          "internalType": "address",
          "name": "newNode",
          "type": "address"
        }
      ],
      "name": "insertAfter",
      "outputs": [],
      "payable": false,
      "stateMutability": "nonpayable",
      "type": "function"
    },
    {
      "constant": false,
      "inputs": [
        {
          "internalType": "address",
          "name": "node",
          "type": "address"
        }
      ],
      "name": "remove",
      "outputs": [],
      "payable": false,
      "stateMutability": "nonpayable",
      "type": "function"
    },
    {
      "constant": false,
      "inputs": [
        {
          "internalType": "address",
          "name": "newNode",
          "type": "address"
        }
      ],
      "name": "prepend",
      "outputs": [],
      "payable": false,
      "stateMutability": "nonpayable",
      "type": "function"
    },
    {
      "constant": false,
      "inputs": [
        {
          "internalType": "address",
          "name": "newNode",
          "type": "address"
        }
      ],
      "name": "append",
      "outputs": [],
      "payable": false,
      "stateMutability": "nonpayable",
      "type": "function"
    },
    {
      "constant": false,
      "inputs": [
        {
          "internalType": "address",
          "name": "node1",
          "type": "address"
        },
        {
          "internalType": "address",
          "name": "node2",
          "type": "address"
        }
      ],
      "name": "swap",
      "outputs": [],
      "payable": false,
      "stateMutability": "nonpayable",
      "type": "function"
    },
    {
      "constant": true,
      "inputs": [
        {
          "internalType": "address",
          "name": "_start",
          "type": "address"
        },
        {
          "internalType": "uint256",
          "name": "_count",
          "type": "uint256"
        }
      ],
      "name": "elements",
      "outputs": [
        {
          "internalType": "address[]",
          "name": "",
          "type": "address[]"
        }
      ],
      "payable": false,
      "stateMutability": "view",
      "type": "function"
    }
  ],
  "bytecode": "0x608060405234801561001057600080fd5b5061198d806100206000396000f3fe608060405234801561001057600080fd5b50600436106100b45760003560e01c806380cea48a1161007157806380cea48a14610336578063ab73e3161461039a578063ac04f5a71461041e578063e6c1beb414610462578063efbe1c1c146104a6578063fa33bcf3146104f0576100b4565b806301a18289146100b95780631bce6ff31461015c57806329092d0e146101a657806330d28aca146101ea578063622d77fb1461026e5780636b76484e146102d2575b600080fd5b610105600480360360408110156100cf57600080fd5b81019080803573ffffffffffffffffffffffffffffffffffffffff1690602001909291908035906020019092919050505061054c565b6040518080602001828103825283818151815260200191508051906020019060200280838360005b8381101561014857808201518184015260208101905061012d565b505050509050019250505060405180910390f35b61016461056c565b604051808273ffffffffffffffffffffffffffffffffffffffff1673ffffffffffffffffffffffffffffffffffffffff16815260200191505060405180910390f35b6101e8600480360360208110156101bc57600080fd5b81019080803573ffffffffffffffffffffffffffffffffffffffff16906020019092919050505061057d565b005b61022c6004803603602081101561020057600080fd5b81019080803573ffffffffffffffffffffffffffffffffffffffff169060200190929190505050610594565b604051808273ffffffffffffffffffffffffffffffffffffffff1673ffffffffffffffffffffffffffffffffffffffff16815260200191505060405180910390f35b6102d06004803603604081101561028457600080fd5b81019080803573ffffffffffffffffffffffffffffffffffffffff169060200190929190803573ffffffffffffffffffffffffffffffffffffffff1690602001909291905050506105b1565b005b610334600480360360408110156102e857600080fd5b81019080803573ffffffffffffffffffffffffffffffffffffffff169060200190929190803573ffffffffffffffffffffffffffffffffffffffff1690602001909291905050506105cb565b005b6103986004803603604081101561034c57600080fd5b81019080803573ffffffffffffffffffffffffffffffffffffffff169060200190929190803573ffffffffffffffffffffffffffffffffffffffff1690602001909291905050506105e5565b005b6103dc600480360360208110156103b057600080fd5b81019080803573ffffffffffffffffffffffffffffffffffffffff1690602001909291905050506105ff565b604051808273ffffffffffffffffffffffffffffffffffffffff1673ffffffffffffffffffffffffffffffffffffffff16815260200191505060405180910390f35b6104606004803603602081101561043457600080fd5b81019080803573ffffffffffffffffffffffffffffffffffffffff16906020019092919050505061061c565b005b6104a46004803603602081101561047857600080fd5b81019080803573ffffffffffffffffffffffffffffffffffffffff169060200190929190505050610633565b005b6104ae61064a565b604051808273ffffffffffffffffffffffffffffffffffffffff1673ffffffffffffffffffffffffffffffffffffffff16815260200191505060405180910390f35b6105326004803603602081101561050657600080fd5b81019080803573ffffffffffffffffffffffffffffffffffffffff16906020019092919050505061065b565b604051808215151515815260200191505060405180910390f35b6060610564838360006106789092919063ffffffff16565b905092915050565b600061057860006108d0565b905090565b61059181600061093e90919063ffffffff16565b50565b60006105aa826000610c9b90919063ffffffff16565b9050919050565b6105c782826000610d869092919063ffffffff16565b5050565b6105e1828260006112319092919063ffffffff16565b5050565b6105fb828260006112ca9092919063ffffffff16565b5050565b600061061582600061177590919063ffffffff16565b9050919050565b61063081600061186090919063ffffffff16565b50565b61064781600061187790919063ffffffff16565b50565b6000610656600061188e565b905090565b60006106718260006118fc90919063ffffffff16565b9050919050565b6060600082116106f0576040517f08c379a00000000000000000000000000000000000000000000000000000000081526004018080602001828103825260198152602001807f4c696e6b65644c6973743a20696e76616c696420636f756e740000000000000081525060200191505060405180910390fd5b6106fa84846118fc565b806107315750600073ffffffffffffffffffffffffffffffffffffffff168373ffffffffffffffffffffffffffffffffffffffff16145b6107a3576040517f08c379a00000000000000000000000000000000000000000000000000000000081526004018080602001828103825260178152602001807f4c696e6b65644c6973743a206e6f7420696e206c69737400000000000000000081525060200191505060405180910390fd5b6060826040519080825280602002602001820160405280156107d45781602001602082028038833980820191505090505b50905060008090506000859050600073ffffffffffffffffffffffffffffffffffffffff168173ffffffffffffffffffffffffffffffffffffffff1614156108225761081f876108d0565b90505b5b848210156108c357600073ffffffffffffffffffffffffffffffffffffffff168173ffffffffffffffffffffffffffffffffffffffff161415610865576108c3565b8083838151811061087257fe5b602002602001019073ffffffffffffffffffffffffffffffffffffffff16908173ffffffffffffffffffffffffffffffffffffffff16815250506108b68782611775565b9050600182019150610823565b8293505050509392505050565b60008160000160008073ffffffffffffffffffffffffffffffffffffffff1673ffffffffffffffffffffffffffffffffffffffff16815260200190815260200160002060010160009054906101000a900473ffffffffffffffffffffffffffffffffffffffff169050919050565b61094882826118fc565b6109ba576040517f08c379a00000000000000000000000000000000000000000000000000000000081526004018080602001828103825260178152602001807f4c696e6b65644c6973743a206e6f7420696e206c69737400000000000000000081525060200191505060405180910390fd5b60008260000160008373ffffffffffffffffffffffffffffffffffffffff1673ffffffffffffffffffffffffffffffffffffffff16815260200190815260200160002060000160019054906101000a900473ffffffffffffffffffffffffffffffffffffffff16905060008360000160008473ffffffffffffffffffffffffffffffffffffffff1673ffffffffffffffffffffffffffffffffffffffff16815260200190815260200160002060010160009054906101000a900473ffffffffffffffffffffffffffffffffffffffff169050808460000160008473ffffffffffffffffffffffffffffffffffffffff1673ffffffffffffffffffffffffffffffffffffffff16815260200190815260200160002060010160006101000a81548173ffffffffffffffffffffffffffffffffffffffff021916908373ffffffffffffffffffffffffffffffffffffffff160217905550818460000160008373ffffffffffffffffffffffffffffffffffffffff1673ffffffffffffffffffffffffffffffffffffffff16815260200190815260200160002060000160016101000a81548173ffffffffffffffffffffffffffffffffffffffff021916908373ffffffffffffffffffffffffffffffffffffffff16021790555060008460000160008573ffffffffffffffffffffffffffffffffffffffff1673ffffffffffffffffffffffffffffffffffffffff16815260200190815260200160002060000160006101000a81548160ff0219169083151502179055508360000160008473ffffffffffffffffffffffffffffffffffffffff1673ffffffffffffffffffffffffffffffffffffffff168152602001908152602001600020600080820160006101000a81549060ff02191690556000820160016101000a81549073ffffffffffffffffffffffffffffffffffffffff02191690556001820160006101000a81549073ffffffffffffffffffffffffffffffffffffffff0219169055505050505050565b6000610ca783836118fc565b610d19576040517f08c379a00000000000000000000000000000000000000000000000000000000081526004018080602001828103825260178152602001807f4c696e6b65644c6973743a206e6f7420696e206c69737400000000000000000081525060200191505060405180910390fd5b8260000160008373ffffffffffffffffffffffffffffffffffffffff1673ffffffffffffffffffffffffffffffffffffffff16815260200190815260200160002060000160019054906101000a900473ffffffffffffffffffffffffffffffffffffffff16905092915050565b600073ffffffffffffffffffffffffffffffffffffffff168173ffffffffffffffffffffffffffffffffffffffff161415610e29576040517f08c379a000000000000000000000000000000000000000000000000000000000815260040180806020018281038252601b8152602001807f4c696e6b65644c6973743a20696e76616c69642061646472657373000000000081525060200191505060405180910390fd5b610e3383826118fc565b15610ea6576040517f08c379a000000000000000000000000000000000000000000000000000000000815260040180806020018281038252601b8152602001807f4c696e6b65644c6973743a20616c726561647920696e206c697374000000000081525060200191505060405180910390fd5b610eb083836118fc565b80610ee75750600073ffffffffffffffffffffffffffffffffffffffff168273ffffffffffffffffffffffffffffffffffffffff16145b610f59576040517f08c379a00000000000000000000000000000000000000000000000000000000081526004018080602001828103825260178152602001807f4c696e6b65644c6973743a206e6f7420696e206c69737400000000000000000081525060200191505060405180910390fd5b60008360000160008473ffffffffffffffffffffffffffffffffffffffff1673ffffffffffffffffffffffffffffffffffffffff16815260200190815260200160002060000160019054906101000a900473ffffffffffffffffffffffffffffffffffffffff169050828460000160008473ffffffffffffffffffffffffffffffffffffffff1673ffffffffffffffffffffffffffffffffffffffff16815260200190815260200160002060010160006101000a81548173ffffffffffffffffffffffffffffffffffffffff021916908373ffffffffffffffffffffffffffffffffffffffff160217905550808460000160008473ffffffffffffffffffffffffffffffffffffffff1673ffffffffffffffffffffffffffffffffffffffff16815260200190815260200160002060000160016101000a81548173ffffffffffffffffffffffffffffffffffffffff021916908373ffffffffffffffffffffffffffffffffffffffff160217905550818460000160008573ffffffffffffffffffffffffffffffffffffffff1673ffffffffffffffffffffffffffffffffffffffff16815260200190815260200160002060000160016101000a81548173ffffffffffffffffffffffffffffffffffffffff021916908373ffffffffffffffffffffffffffffffffffffffff160217905550818460000160008373ffffffffffffffffffffffffffffffffffffffff1673ffffffffffffffffffffffffffffffffffffffff16815260200190815260200160002060010160006101000a81548173ffffffffffffffffffffffffffffffffffffffff021916908373ffffffffffffffffffffffffffffffffffffffff16021790555060018460000160008473ffffffffffffffffffffffffffffffffffffffff1673ffffffffffffffffffffffffffffffffffffffff16815260200190815260200160002060000160006101000a81548160ff02191690831515021790555050505050565b60008360000160008373ffffffffffffffffffffffffffffffffffffffff1673ffffffffffffffffffffffffffffffffffffffff16815260200190815260200160002060000160019054906101000a900473ffffffffffffffffffffffffffffffffffffffff1690506112a4848361093e565b6112af8484846112ca565b6112b9848461093e565b6112c48482856112ca565b50505050565b600073ffffffffffffffffffffffffffffffffffffffff168173ffffffffffffffffffffffffffffffffffffffff16141561136d576040517f08c379a000000000000000000000000000000000000000000000000000000000815260040180806020018281038252601b8152602001807f4c696e6b65644c6973743a20696e76616c69642061646472657373000000000081525060200191505060405180910390fd5b61137783826118fc565b156113ea576040517f08c379a000000000000000000000000000000000000000000000000000000000815260040180806020018281038252601b8152602001807f4c696e6b65644c6973743a20616c726561647920696e206c697374000000000081525060200191505060405180910390fd5b6113f483836118fc565b8061142b5750600073ffffffffffffffffffffffffffffffffffffffff168273ffffffffffffffffffffffffffffffffffffffff16145b61149d576040517f08c379a00000000000000000000000000000000000000000000000000000000081526004018080602001828103825260178152602001807f4c696e6b65644c6973743a206e6f7420696e206c69737400000000000000000081525060200191505060405180910390fd5b60008360000160008473ffffffffffffffffffffffffffffffffffffffff1673ffffffffffffffffffffffffffffffffffffffff16815260200190815260200160002060010160009054906101000a900473ffffffffffffffffffffffffffffffffffffffff169050828460000160008473ffffffffffffffffffffffffffffffffffffffff1673ffffffffffffffffffffffffffffffffffffffff16815260200190815260200160002060000160016101000a81548173ffffffffffffffffffffffffffffffffffffffff021916908373ffffffffffffffffffffffffffffffffffffffff160217905550808460000160008473ffffffffffffffffffffffffffffffffffffffff1673ffffffffffffffffffffffffffffffffffffffff16815260200190815260200160002060010160006101000a81548173ffffffffffffffffffffffffffffffffffffffff021916908373ffffffffffffffffffffffffffffffffffffffff160217905550818460000160008573ffffffffffffffffffffffffffffffffffffffff1673ffffffffffffffffffffffffffffffffffffffff16815260200190815260200160002060010160006101000a81548173ffffffffffffffffffffffffffffffffffffffff021916908373ffffffffffffffffffffffffffffffffffffffff160217905550818460000160008373ffffffffffffffffffffffffffffffffffffffff1673ffffffffffffffffffffffffffffffffffffffff16815260200190815260200160002060000160016101000a81548173ffffffffffffffffffffffffffffffffffffffff021916908373ffffffffffffffffffffffffffffffffffffffff16021790555060018460000160008473ffffffffffffffffffffffffffffffffffffffff1673ffffffffffffffffffffffffffffffffffffffff16815260200190815260200160002060000160006101000a81548160ff02191690831515021790555050505050565b600061178183836118fc565b6117f3576040517f08c379a00000000000000000000000000000000000000000000000000000000081526004018080602001828103825260178152602001807f4c696e6b65644c6973743a206e6f7420696e206c69737400000000000000000081525060200191505060405180910390fd5b8260000160008373ffffffffffffffffffffffffffffffffffffffff1673ffffffffffffffffffffffffffffffffffffffff16815260200190815260200160002060010160009054906101000a900473ffffffffffffffffffffffffffffffffffffffff16905092915050565b6118738261186d8461188e565b836112ca565b5050565b61188a82611884846108d0565b83610d86565b5050565b60008160000160008073ffffffffffffffffffffffffffffffffffffffff1673ffffffffffffffffffffffffffffffffffffffff16815260200190815260200160002060000160019054906101000a900473ffffffffffffffffffffffffffffffffffffffff169050919050565b60008260000160008373ffffffffffffffffffffffffffffffffffffffff1673ffffffffffffffffffffffffffffffffffffffff16815260200190815260200160002060000160009054906101000a900460ff1690509291505056fea265627a7a7231582062f7748bde46fae6a9f7345c690a19e2f5f90e0a044b646df6035e6bd458b2a364736f6c634300050c0032",
  "source": "pragma solidity 0.5.12;\n\nimport \"../libraries/LinkedList.sol\";\n\n/// @notice A token that exposes the LinkedList library for testing.\ncontract LinkedListTest {\n    using LinkedList for LinkedList.List;\n\n    LinkedList.List private ll;\n\n    function isInList(address node) public view returns (bool) {\n        return ll.isInList(node);\n    }\n\n    function next(address node) public view returns (address) {\n        return ll.next(node);\n    }\n\n    function previous(address node) public view returns (address) {\n        return ll.previous(node);\n    }\n\n    function begin() public view returns (address) {\n        return ll.begin();\n    }\n\n    function end() public view returns (address) {\n        return ll.end();\n    }\n\n    function insertBefore(address target, address newNode) public {\n        ll.insertBefore(target, newNode);\n    }\n\n    function insertAfter(address target, address newNode) public {\n        ll.insertAfter(target, newNode);\n    }\n\n    function remove(address node) public {\n        ll.remove(node);\n    }\n\n    function prepend(address newNode) public {\n        ll.prepend(newNode);\n    }\n\n    function append(address newNode) public {\n        ll.append(newNode);\n    }\n\n    function swap(address node1, address node2) public {\n        ll.swap(node1, node2);\n    }\n\n    function elements(address _start, uint256 _count) public view returns(address[] memory) {\n        return ll.elements(_start, _count);\n    }\n}",
  "sourcePath": "/home/ray/0confirmation-mono/node_modules/darknode-sol/contracts/test/LinkedListTest.sol",
  "compiler": {
    "name": "solc",
    "version": "0.5.12+commit.7709ece9.Linux.g++"
  },
  "schemaVersion": "3.0.23",
  "updatedAt": "2020-03-08T19:15:48.095Z",
  "devdoc": {
    "methods": {}
  },
  "userdoc": {
    "methods": {},
    "notice": "A token that exposes the LinkedList library for testing."
  }
}