{
  "contractName": "LiquidityToken",
  "abi": [
    {
      "inputs": [
        {
          "internalType": "address",
          "name": "shifterPool",
          "type": "address"
        },
        {
          "internalType": "address",
          "name": "underlyingAsset",
          "type": "address"
        },
        {
          "internalType": "string",
          "name": "name",
          "type": "string"
        },
        {
          "internalType": "string",
          "name": "symbol",
          "type": "string"
        },
        {
          "internalType": "uint8",
          "name": "decimals",
          "type": "uint8"
        }
      ],
      "stateMutability": "nonpayable",
      "type": "constructor"
    },
    {
      "anonymous": false,
      "inputs": [
        {
          "indexed": true,
          "internalType": "address",
          "name": "owner",
          "type": "address"
        },
        {
          "indexed": true,
          "internalType": "address",
          "name": "spender",
          "type": "address"
        },
        {
          "indexed": false,
          "internalType": "uint256",
          "name": "value",
          "type": "uint256"
        }
      ],
      "name": "Approval",
      "type": "event"
    },
    {
      "anonymous": false,
      "inputs": [
        {
          "indexed": true,
          "internalType": "address",
          "name": "from",
          "type": "address"
        },
        {
          "indexed": true,
          "internalType": "address",
          "name": "to",
          "type": "address"
        },
        {
          "indexed": false,
          "internalType": "uint256",
          "name": "value",
          "type": "uint256"
        }
      ],
      "name": "Transfer",
      "type": "event"
    },
    {
      "inputs": [
        {
          "internalType": "address",
          "name": "owner",
          "type": "address"
        },
        {
          "internalType": "address",
          "name": "spender",
          "type": "address"
        }
      ],
      "name": "allowance",
      "outputs": [
        {
          "internalType": "uint256",
          "name": "",
          "type": "uint256"
        }
      ],
      "stateMutability": "view",
      "type": "function"
    },
    {
      "inputs": [
        {
          "internalType": "address",
          "name": "spender",
          "type": "address"
        },
        {
          "internalType": "uint256",
          "name": "amount",
          "type": "uint256"
        }
      ],
      "name": "approve",
      "outputs": [
        {
          "internalType": "bool",
          "name": "",
          "type": "bool"
        }
      ],
      "stateMutability": "nonpayable",
      "type": "function"
    },
    {
      "inputs": [],
      "name": "asset",
      "outputs": [
        {
          "internalType": "address",
          "name": "",
          "type": "address"
        }
      ],
      "stateMutability": "view",
      "type": "function"
    },
    {
      "inputs": [
        {
          "internalType": "address",
          "name": "account",
          "type": "address"
        }
      ],
      "name": "balanceOf",
      "outputs": [
        {
          "internalType": "uint256",
          "name": "",
          "type": "uint256"
        }
      ],
      "stateMutability": "view",
      "type": "function"
    },
    {
      "inputs": [
        {
          "internalType": "uint256",
          "name": "amount",
          "type": "uint256"
        }
      ],
      "name": "burn",
      "outputs": [],
      "stateMutability": "nonpayable",
      "type": "function"
    },
    {
      "inputs": [
        {
          "internalType": "address",
          "name": "account",
          "type": "address"
        },
        {
          "internalType": "uint256",
          "name": "amount",
          "type": "uint256"
        }
      ],
      "name": "burnFrom",
      "outputs": [],
      "stateMutability": "nonpayable",
      "type": "function"
    },
    {
      "inputs": [],
      "name": "decimals",
      "outputs": [
        {
          "internalType": "uint8",
          "name": "",
          "type": "uint8"
        }
      ],
      "stateMutability": "view",
      "type": "function"
    },
    {
      "inputs": [
        {
          "internalType": "address",
          "name": "spender",
          "type": "address"
        },
        {
          "internalType": "uint256",
          "name": "subtractedValue",
          "type": "uint256"
        }
      ],
      "name": "decreaseAllowance",
      "outputs": [
        {
          "internalType": "bool",
          "name": "",
          "type": "bool"
        }
      ],
      "stateMutability": "nonpayable",
      "type": "function"
    },
    {
      "inputs": [
        {
          "internalType": "address",
          "name": "spender",
          "type": "address"
        },
        {
          "internalType": "uint256",
          "name": "addedValue",
          "type": "uint256"
        }
      ],
      "name": "increaseAllowance",
      "outputs": [
        {
          "internalType": "bool",
          "name": "",
          "type": "bool"
        }
      ],
      "stateMutability": "nonpayable",
      "type": "function"
    },
    {
      "inputs": [],
      "name": "name",
      "outputs": [
        {
          "internalType": "string",
          "name": "",
          "type": "string"
        }
      ],
      "stateMutability": "view",
      "type": "function"
    },
    {
      "inputs": [],
      "name": "offset",
      "outputs": [
        {
          "internalType": "uint256",
          "name": "",
          "type": "uint256"
        }
      ],
      "stateMutability": "view",
      "type": "function"
    },
    {
      "inputs": [
        {
          "internalType": "address",
          "name": "",
          "type": "address"
        }
      ],
      "name": "outstandingLoans",
      "outputs": [
        {
          "internalType": "uint256",
          "name": "",
          "type": "uint256"
        }
      ],
      "stateMutability": "view",
      "type": "function"
    },
    {
      "inputs": [],
      "name": "pool",
      "outputs": [
        {
          "internalType": "address",
          "name": "",
          "type": "address"
        }
      ],
      "stateMutability": "view",
      "type": "function"
    },
    {
      "inputs": [],
      "name": "symbol",
      "outputs": [
        {
          "internalType": "string",
          "name": "",
          "type": "string"
        }
      ],
      "stateMutability": "view",
      "type": "function"
    },
    {
      "inputs": [],
      "name": "totalSupply",
      "outputs": [
        {
          "internalType": "uint256",
          "name": "",
          "type": "uint256"
        }
      ],
      "stateMutability": "view",
      "type": "function"
    },
    {
      "inputs": [
        {
          "internalType": "address",
          "name": "recipient",
          "type": "address"
        },
        {
          "internalType": "uint256",
          "name": "amount",
          "type": "uint256"
        }
      ],
      "name": "transfer",
      "outputs": [
        {
          "internalType": "bool",
          "name": "",
          "type": "bool"
        }
      ],
      "stateMutability": "nonpayable",
      "type": "function"
    },
    {
      "inputs": [
        {
          "internalType": "address",
          "name": "sender",
          "type": "address"
        },
        {
          "internalType": "address",
          "name": "recipient",
          "type": "address"
        },
        {
          "internalType": "uint256",
          "name": "amount",
          "type": "uint256"
        }
      ],
      "name": "transferFrom",
      "outputs": [
        {
          "internalType": "bool",
          "name": "",
          "type": "bool"
        }
      ],
      "stateMutability": "nonpayable",
      "type": "function"
    },
    {
      "inputs": [
        {
          "internalType": "address",
          "name": "proxy",
          "type": "address"
        },
        {
          "internalType": "uint256",
          "name": "amount",
          "type": "uint256"
        }
      ],
      "name": "loan",
      "outputs": [
        {
          "internalType": "bool",
          "name": "",
          "type": "bool"
        }
      ],
      "stateMutability": "nonpayable",
      "type": "function"
    },
    {
      "inputs": [
        {
          "internalType": "address",
          "name": "proxy",
          "type": "address"
        }
      ],
      "name": "resolveLoan",
      "outputs": [
        {
          "internalType": "bool",
          "name": "",
          "type": "bool"
        }
      ],
      "stateMutability": "nonpayable",
      "type": "function"
    },
    {
      "inputs": [
        {
          "internalType": "uint256",
          "name": "value",
          "type": "uint256"
        }
      ],
      "name": "addLiquidity",
      "outputs": [
        {
          "internalType": "uint256",
          "name": "",
          "type": "uint256"
        }
      ],
      "stateMutability": "nonpayable",
      "type": "function"
    },
    {
      "inputs": [
        {
          "internalType": "uint256",
          "name": "value",
          "type": "uint256"
        }
      ],
      "name": "removeLiquidity",
      "outputs": [
        {
          "internalType": "uint256",
          "name": "",
          "type": "uint256"
        }
      ],
      "stateMutability": "nonpayable",
      "type": "function"
    }
  ],
  "bytecode": "0x60806040523480156200001157600080fd5b506040516200170338038062001703833981016040819052620000349162000244565b8251839083906200004d906003906020850190620000da565b50805162000063906004906020840190620000da565b505060058054601260ff1990911617610100600160a81b0319166101006001600160a01b038981169190910291909117909155600680546001600160a01b03191691871691909117905550620000b981620000c4565b5050505050620002ee565b6005805460ff191660ff92909216919091179055565b828054600181600116156101000203166002900490600052602060002090601f016020900481019282601f106200011d57805160ff19168380011785556200014d565b828001600101855582156200014d579182015b828111156200014d57825182559160200191906001019062000130565b506200015b9291506200015f565b5090565b6200017c91905b808211156200015b576000815560010162000166565b90565b80516001600160a01b03811681146200019757600080fd5b92915050565b600082601f830112620001ae578081fd5b81516001600160401b0380821115620001c5578283fd5b6040516020601f8401601f1916820181018381118382101715620001e7578586fd5b806040525081945083825286818588010111156200020457600080fd5b600092505b8383101562000228578583018101518284018201529182019162000209565b838311156200023a5760008185840101525b5050505092915050565b600080600080600060a086880312156200025c578081fd5b6200026887876200017f565b94506200027987602088016200017f565b60408701519094506001600160401b038082111562000296578283fd5b620002a489838a016200019d565b94506060880151915080821115620002ba578283fd5b50620002c9888289016200019d565b925050608086015160ff81168114620002e0578182fd5b809150509295509295909350565b61140580620002fe6000396000f3fe608060405234801561001057600080fd5b50600436106101375760003560e01c806351c6590a116100b85780639c8f9f231161007c5780639c8f9f2314610263578063a457c2d714610276578063a9059cbb14610289578063c3275c791461029c578063d5556544146102af578063dd62ed3e146102b757610137565b806351c6590a1461020f57806370a082311461022257806379cc6790146102355780638ee13af21461024857806395d89b411461025b57610137565b806323b872dd116100ff57806323b872dd146101b7578063313ce567146101ca57806338d52e0f146101df57806339509351146101e757806342966c68146101fa57610137565b806306fdde031461013c578063095ea7b31461015a57806316f0115b1461017a57806318160ddd1461018f578063185cc751146101a4575b600080fd5b6101446102ca565b6040516101519190610fff565b60405180910390f35b61016d610168366004610f2d565b610360565b6040516101519190610ff4565b61018261037e565b6040516101519190610fa3565b610197610392565b60405161015191906112ba565b61016d6101b2366004610f2d565b610398565b61016d6101c5366004610eed565b610435565b6101d26104c2565b60405161015191906112c3565b6101826104cb565b61016d6101f5366004610f2d565b6104da565b61020d610208366004610f57565b61052e565b005b61019761021d366004610f57565b610542565b610197610230366004610e9e565b6105ca565b61020d610243366004610f2d565b6105e5565b610197610256366004610e9e565b610640565b610144610652565b610197610271366004610f57565b6106b3565b61016d610284366004610f2d565b610738565b61016d610297366004610f2d565b6107a6565b61016d6102aa366004610e9e565b6107ba565b610197610816565b6101976102c5366004610eb9565b61081c565b60038054604080516020601f60026000196101006001881615020190951694909404938401819004810282018101909252828152606093909290918301828280156103565780601f1061032b57610100808354040283529160200191610356565b820191906000526020600020905b81548152906001019060200180831161033957829003601f168201915b5050505050905090565b600061037461036d610847565b848461084b565b5060015b92915050565b60055461010090046001600160a01b031681565b60025490565b60055460009061010090046001600160a01b031633146103d35760405162461bcd60e51b81526004016103ca90611154565b60405180910390fd5b6006546103f0906001600160a01b0316848463ffffffff6108ff16565b61040c5760405162461bcd60e51b81526004016103ca90611255565b5060078054820190556001600160a01b0391909116600090815260086020526040902055600190565b6000610442848484610971565b6104b88461044e610847565b6104b38560405180606001604052806028815260200161135f602891396001600160a01b038a1660009081526001602052604081209061048c610847565b6001600160a01b03168152602081019190915260400160002054919063ffffffff610a9216565b61084b565b5060019392505050565b60055460ff1690565b6006546001600160a01b031681565b60006103746104e7610847565b846104b385600160006104f8610847565b6001600160a01b03908116825260208083019390935260409182016000908120918c16815292529020549063ffffffff610abe16565b61053f610539610847565b82610aea565b50565b60008061054d610392565b90506000610559610bd8565b9050600060018201831561056d5783610570565b60015b86028161057957fe5b600654919004915061059c906001600160a01b031633308863ffffffff610c6216565b6105b85760405162461bcd60e51b81526004016103ca90611075565b6105c23382610cd6565b949350505050565b6001600160a01b031660009081526020819052604090205490565b600061061d8260405180606001604052806024815260200161138760249139610610866102c5610847565b919063ffffffff610a9216565b90506106318361062b610847565b8361084b565b61063b8383610aea565b505050565b60086020526000908152604090205481565b60048054604080516020601f60026000196101006001881615020190951694909404938401819004810282018101909252828152606093909290918301828280156103565780601f1061032b57610100808354040283529160200191610356565b6000806106be610392565b905060006106ca610bd8565b9050600082156106da57826106dd565b60015b826001018602816106ea57fe5b0490506106f73386610aea565b600654610714906001600160a01b0316338363ffffffff6108ff16565b6107305760405162461bcd60e51b81526004016103ca9061111d565b505050919050565b6000610374610745610847565b846104b3856040518060600160405280602581526020016113ab602591396001600061076f610847565b6001600160a01b03908116825260208083019390935260409182016000908120918d1681529252902054919063ffffffff610a9216565b60006103746107b3610847565b8484610971565b60055460009061010090046001600160a01b031633146107ec5760405162461bcd60e51b81526004016103ca90611154565b506001600160a01b0316600090815260086020526040812080546007805491909103905555600190565b60075481565b6001600160a01b03918216600090815260016020908152604080832093909416825291909152205490565b3390565b6001600160a01b0383166108715760405162461bcd60e51b81526004016103ca90611211565b6001600160a01b0382166108975760405162461bcd60e51b81526004016103ca906110a4565b6001600160a01b0380841660008181526001602090815260408083209487168084529490915290819020849055517f8c5be1e5ebec7d5bd14f71427d1e84f3dd0314c0f7b2291e5b200ac8c7c3b925906108f29085906112ba565b60405180910390a3505050565b600080846001600160a01b03166109168585610d96565b6040516109239190610f87565b6000604051808303816000865af19150503d8060008114610960576040519150601f19603f3d011682016040523d82523d6000602084013e610965565b606091505b50909695505050505050565b6001600160a01b0383166109975760405162461bcd60e51b81526004016103ca906111cc565b6001600160a01b0382166109bd5760405162461bcd60e51b81526004016103ca90611032565b6109c883838361063b565b610a0b81604051806060016040528060268152602001611339602691396001600160a01b038616600090815260208190526040902054919063ffffffff610a9216565b6001600160a01b038085166000908152602081905260408082209390935590841681522054610a40908263ffffffff610abe16565b6001600160a01b0380841660008181526020819052604090819020939093559151908516907fddf252ad1be2c89b69c2b068fc378daa952ba7f163c4a11628f55a4df523b3ef906108f29085906112ba565b60008184841115610ab65760405162461bcd60e51b81526004016103ca9190610fff565b505050900390565b600082820183811015610ae35760405162461bcd60e51b81526004016103ca906110e6565b9392505050565b6001600160a01b038216610b105760405162461bcd60e51b81526004016103ca9061118b565b610b1c8260008361063b565b610b5f81604051806060016040528060228152602001611317602291396001600160a01b038516600090815260208190526040902054919063ffffffff610a9216565b6001600160a01b038316600090815260208190526040902055600254610b8b908263ffffffff610dec16565b6002556040516000906001600160a01b038416907fddf252ad1be2c89b69c2b068fc378daa952ba7f163c4a11628f55a4df523b3ef90610bcc9085906112ba565b60405180910390a35050565b6006546040516370a0823160e01b81526000916001600160a01b0316906370a0823190610c09903090600401610fa3565b60206040518083038186803b158015610c2157600080fd5b505afa158015610c35573d6000803e3d6000fd5b505050506040513d601f19601f82011682018060405250810190610c599190610f6f565b60075401905090565b600080856001600160a01b0316610c7a868686610e2e565b604051610c879190610f87565b6000604051808303816000865af19150503d8060008114610cc4576040519150601f19603f3d011682016040523d82523d6000602084013e610cc9565b606091505b5090979650505050505050565b6001600160a01b038216610cfc5760405162461bcd60e51b81526004016103ca90611283565b610d086000838361063b565b600254610d1b908263ffffffff610abe16565b6002556001600160a01b038216600090815260208190526040902054610d47908263ffffffff610abe16565b6001600160a01b0383166000818152602081905260408082209390935591519091907fddf252ad1be2c89b69c2b068fc378daa952ba7f163c4a11628f55a4df523b3ef90610bcc9085906112ba565b606063a9059cbb60e01b8383604051602401610db3929190610fdb565b60408051601f198184030181529190526020810180516001600160e01b03166001600160e01b0319909316929092179091529392505050565b6000610ae383836040518060400160405280601e81526020017f536166654d6174683a207375627472616374696f6e206f766572666c6f770000815250610a92565b60606323b872dd60e01b848484604051602401610e4d93929190610fb7565b60408051601f198184030181529190526020810180516001600160e01b03166001600160e01b031990931692909217909152949350505050565b80356001600160a01b038116811461037857600080fd5b600060208284031215610eaf578081fd5b610ae38383610e87565b60008060408385031215610ecb578081fd5b610ed58484610e87565b9150610ee48460208501610e87565b90509250929050565b600080600060608486031215610f01578081fd5b8335610f0c81611301565b92506020840135610f1c81611301565b929592945050506040919091013590565b60008060408385031215610f3f578182fd5b610f498484610e87565b946020939093013593505050565b600060208284031215610f68578081fd5b5035919050565b600060208284031215610f80578081fd5b5051919050565b60008251610f998184602087016112d1565b9190910192915050565b6001600160a01b0391909116815260200190565b6001600160a01b039384168152919092166020820152604081019190915260600190565b6001600160a01b03929092168252602082015260400190565b901515815260200190565b600060208252825180602084015261101e8160408501602087016112d1565b601f01601f19169190910160400192915050565b60208082526023908201527f45524332303a207472616e7366657220746f20746865207a65726f206164647260408201526265737360e81b606082015260800190565b6020808252601590820152741d1c985b9cd9995c881d1bdad95b8819985a5b1959605a1b604082015260600190565b60208082526022908201527f45524332303a20617070726f766520746f20746865207a65726f206164647265604082015261737360f01b606082015260800190565b6020808252601b908201527f536166654d6174683a206164646974696f6e206f766572666c6f770000000000604082015260600190565b60208082526019908201527f6661696c656420746f2073656e64206261636b20746f6b656e00000000000000604082015260600190565b6020808252601e908201527f6d7573742062652063616c6c656420627920706f6f6c206d616e616765720000604082015260600190565b60208082526021908201527f45524332303a206275726e2066726f6d20746865207a65726f206164647265736040820152607360f81b606082015260800190565b60208082526025908201527f45524332303a207472616e736665722066726f6d20746865207a65726f206164604082015264647265737360d81b606082015260800190565b60208082526024908201527f45524332303a20617070726f76652066726f6d20746865207a65726f206164646040820152637265737360e01b606082015260800190565b6020808252601490820152731b1bd85b881d1c985b9cd9995c8819985a5b195960621b604082015260600190565b6020808252601f908201527f45524332303a206d696e7420746f20746865207a65726f206164647265737300604082015260600190565b90815260200190565b60ff91909116815260200190565b60005b838110156112ec5781810151838201526020016112d4565b838111156112fb576000848401525b50505050565b6001600160a01b038116811461053f57600080fdfe45524332303a206275726e20616d6f756e7420657863656564732062616c616e636545524332303a207472616e7366657220616d6f756e7420657863656564732062616c616e636545524332303a207472616e7366657220616d6f756e74206578636565647320616c6c6f77616e636545524332303a206275726e20616d6f756e74206578636565647320616c6c6f77616e636545524332303a2064656372656173656420616c6c6f77616e63652062656c6f77207a65726fa2646970667358221220b0032517bfe76c994f6175de8669ab19785600712ef4f1cdd8d969812c68beee64736f6c63430006080033",
  "immutableReferences": {},
  "source": "pragma experimental ABIEncoderV2;\n// SPDX-License-Identifier: MIT\npragma solidity ^0.6.0;\n\nimport { ERC20 } from \"@openzeppelin/contracts/token/ERC20/ERC20.sol\";\nimport { IERC20 } from \"@openzeppelin/contracts/token/ERC20/IERC20.sol\";\nimport { ERC20Burnable } from \"@openzeppelin/contracts/token/ERC20/ERC20Burnable.sol\";\nimport { TokenUtils } from \"./utils/TokenUtils.sol\";\n\ncontract LiquidityToken is ERC20, ERC20Burnable {\n  using TokenUtils for *;\n  address public pool;\n  address public asset;\n  uint256 public offset;\n  mapping (address => uint256) public outstandingLoans;\n  constructor(address shifterPool, address underlyingAsset, string memory name, string memory symbol, uint8 decimals) ERC20(name, symbol) public {\n    pool = shifterPool;\n    asset = underlyingAsset;\n    _setupDecimals(decimals);\n  }\n  modifier onlyPool {\n    require(msg.sender == pool, \"must be called by pool manager\");\n    _;\n  }\n  function loan(address proxy, uint256 amount) public onlyPool returns (bool) {\n    require(asset.sendToken(proxy, amount), \"loan transfer failed\");\n    offset += amount;\n    outstandingLoans[proxy] = amount;\n    return true;\n  }\n  function resolveLoan(address proxy) public onlyPool returns (bool) {\n    offset -= outstandingLoans[proxy];\n    outstandingLoans[proxy] = 0;\n    return true;\n  }\n  function getReserve() internal view returns (uint256) {\n    return offset + IERC20(asset).balanceOf(address(this));\n  }\n  function addLiquidity(uint256 value) public returns (uint256) {\n    uint256 totalLiquidity = totalSupply();\n    uint256 reserve = getReserve();\n    uint256 totalMinted = value * (totalLiquidity == 0 ? 1 : totalLiquidity) / (reserve + 1);\n    require(asset.transferTokenFrom(msg.sender, address(this), value), \"transfer token failed\");\n    _mint(msg.sender, totalMinted);\n    return totalMinted;\n  }\n  function removeLiquidity(uint256 value) public returns (uint256) {\n    uint256 totalLiquidity = totalSupply();\n    uint256 reserve = getReserve();\n    uint256 totalReturned = value * (reserve + 1) / (totalLiquidity == 0 ? 1 : totalLiquidity);\n    _burn(msg.sender, value);\n    require(asset.sendToken(msg.sender, totalReturned), \"failed to send back token\");\n  }\n}\n",
  "sourcePath": "/home/ray/0confirmation/packages/0confirmation-sol/contracts/LiquidityToken.sol",
  "compiler": {
    "name": "solc",
    "version": "0.6.8+commit.0bbfe453.Emscripten.clang"
  },
  "schemaVersion": "3.2.0",
  "updatedAt": "2020-05-31T21:42:05.367Z",
  "devdoc": {
    "methods": {
      "allowance(address,address)": {
        "details": "See {IERC20-allowance}."
      },
      "approve(address,uint256)": {
        "details": "See {IERC20-approve}.     * Requirements:     * - `spender` cannot be the zero address."
      },
      "balanceOf(address)": {
        "details": "See {IERC20-balanceOf}."
      },
      "burn(uint256)": {
        "details": "Destroys `amount` tokens from the caller.     * See {ERC20-_burn}."
      },
      "burnFrom(address,uint256)": {
        "details": "Destroys `amount` tokens from `account`, deducting from the caller's allowance.     * See {ERC20-_burn} and {ERC20-allowance}.     * Requirements:     * - the caller must have allowance for ``accounts``'s tokens of at least `amount`."
      },
      "decimals()": {
        "details": "Returns the number of decimals used to get its user representation. For example, if `decimals` equals `2`, a balance of `505` tokens should be displayed to a user as `5,05` (`505 / 10 ** 2`).     * Tokens usually opt for a value of 18, imitating the relationship between Ether and Wei. This is the value {ERC20} uses, unless {_setupDecimals} is called.     * NOTE: This information is only used for _display_ purposes: it in no way affects any of the arithmetic of the contract, including {IERC20-balanceOf} and {IERC20-transfer}."
      },
      "decreaseAllowance(address,uint256)": {
        "details": "Atomically decreases the allowance granted to `spender` by the caller.     * This is an alternative to {approve} that can be used as a mitigation for problems described in {IERC20-approve}.     * Emits an {Approval} event indicating the updated allowance.     * Requirements:     * - `spender` cannot be the zero address. - `spender` must have allowance for the caller of at least `subtractedValue`."
      },
      "increaseAllowance(address,uint256)": {
        "details": "Atomically increases the allowance granted to `spender` by the caller.     * This is an alternative to {approve} that can be used as a mitigation for problems described in {IERC20-approve}.     * Emits an {Approval} event indicating the updated allowance.     * Requirements:     * - `spender` cannot be the zero address."
      },
      "name()": {
        "details": "Returns the name of the token."
      },
      "symbol()": {
        "details": "Returns the symbol of the token, usually a shorter version of the name."
      },
      "totalSupply()": {
        "details": "See {IERC20-totalSupply}."
      },
      "transfer(address,uint256)": {
        "details": "See {IERC20-transfer}.     * Requirements:     * - `recipient` cannot be the zero address. - the caller must have a balance of at least `amount`."
      },
      "transferFrom(address,address,uint256)": {
        "details": "See {IERC20-transferFrom}.     * Emits an {Approval} event indicating the updated allowance. This is not required by the EIP. See the note at the beginning of {ERC20};     * Requirements: - `sender` and `recipient` cannot be the zero address. - `sender` must have a balance of at least `amount`. - the caller must have allowance for ``sender``'s tokens of at least `amount`."
      }
    }
  },
  "userdoc": {
    "methods": {}
  }
}