{
  "contractName": "LiquidityToken",
  "abi": [
    {
      "inputs": [
        {
          "internalType": "address",
          "name": "shifterPool",
          "type": "address"
        },
        {
          "internalType": "address",
          "name": "underlyingAsset",
          "type": "address"
        },
        {
          "internalType": "string",
          "name": "name",
          "type": "string"
        },
        {
          "internalType": "string",
          "name": "symbol",
          "type": "string"
        }
      ],
      "stateMutability": "nonpayable",
      "type": "constructor"
    },
    {
      "anonymous": false,
      "inputs": [
        {
          "indexed": true,
          "internalType": "address",
          "name": "owner",
          "type": "address"
        },
        {
          "indexed": true,
          "internalType": "address",
          "name": "spender",
          "type": "address"
        },
        {
          "indexed": false,
          "internalType": "uint256",
          "name": "value",
          "type": "uint256"
        }
      ],
      "name": "Approval",
      "type": "event"
    },
    {
      "anonymous": false,
      "inputs": [
        {
          "indexed": true,
          "internalType": "address",
          "name": "from",
          "type": "address"
        },
        {
          "indexed": true,
          "internalType": "address",
          "name": "to",
          "type": "address"
        },
        {
          "indexed": false,
          "internalType": "uint256",
          "name": "value",
          "type": "uint256"
        }
      ],
      "name": "Transfer",
      "type": "event"
    },
    {
      "inputs": [
        {
          "internalType": "address",
          "name": "owner",
          "type": "address"
        },
        {
          "internalType": "address",
          "name": "spender",
          "type": "address"
        }
      ],
      "name": "allowance",
      "outputs": [
        {
          "internalType": "uint256",
          "name": "",
          "type": "uint256"
        }
      ],
      "stateMutability": "view",
      "type": "function"
    },
    {
      "inputs": [
        {
          "internalType": "address",
          "name": "spender",
          "type": "address"
        },
        {
          "internalType": "uint256",
          "name": "amount",
          "type": "uint256"
        }
      ],
      "name": "approve",
      "outputs": [
        {
          "internalType": "bool",
          "name": "",
          "type": "bool"
        }
      ],
      "stateMutability": "nonpayable",
      "type": "function"
    },
    {
      "inputs": [],
      "name": "asset",
      "outputs": [
        {
          "internalType": "address",
          "name": "",
          "type": "address"
        }
      ],
      "stateMutability": "view",
      "type": "function"
    },
    {
      "inputs": [
        {
          "internalType": "address",
          "name": "account",
          "type": "address"
        }
      ],
      "name": "balanceOf",
      "outputs": [
        {
          "internalType": "uint256",
          "name": "",
          "type": "uint256"
        }
      ],
      "stateMutability": "view",
      "type": "function"
    },
    {
      "inputs": [],
      "name": "decimals",
      "outputs": [
        {
          "internalType": "uint8",
          "name": "",
          "type": "uint8"
        }
      ],
      "stateMutability": "view",
      "type": "function"
    },
    {
      "inputs": [
        {
          "internalType": "address",
          "name": "spender",
          "type": "address"
        },
        {
          "internalType": "uint256",
          "name": "subtractedValue",
          "type": "uint256"
        }
      ],
      "name": "decreaseAllowance",
      "outputs": [
        {
          "internalType": "bool",
          "name": "",
          "type": "bool"
        }
      ],
      "stateMutability": "nonpayable",
      "type": "function"
    },
    {
      "inputs": [
        {
          "internalType": "address",
          "name": "spender",
          "type": "address"
        },
        {
          "internalType": "uint256",
          "name": "addedValue",
          "type": "uint256"
        }
      ],
      "name": "increaseAllowance",
      "outputs": [
        {
          "internalType": "bool",
          "name": "",
          "type": "bool"
        }
      ],
      "stateMutability": "nonpayable",
      "type": "function"
    },
    {
      "inputs": [],
      "name": "name",
      "outputs": [
        {
          "internalType": "string",
          "name": "",
          "type": "string"
        }
      ],
      "stateMutability": "view",
      "type": "function"
    },
    {
      "inputs": [],
      "name": "offset",
      "outputs": [
        {
          "internalType": "uint256",
          "name": "",
          "type": "uint256"
        }
      ],
      "stateMutability": "view",
      "type": "function"
    },
    {
      "inputs": [
        {
          "internalType": "address",
          "name": "",
          "type": "address"
        }
      ],
      "name": "outstandingLoans",
      "outputs": [
        {
          "internalType": "uint256",
          "name": "",
          "type": "uint256"
        }
      ],
      "stateMutability": "view",
      "type": "function"
    },
    {
      "inputs": [],
      "name": "pool",
      "outputs": [
        {
          "internalType": "address",
          "name": "",
          "type": "address"
        }
      ],
      "stateMutability": "view",
      "type": "function"
    },
    {
      "inputs": [],
      "name": "symbol",
      "outputs": [
        {
          "internalType": "string",
          "name": "",
          "type": "string"
        }
      ],
      "stateMutability": "view",
      "type": "function"
    },
    {
      "inputs": [],
      "name": "totalSupply",
      "outputs": [
        {
          "internalType": "uint256",
          "name": "",
          "type": "uint256"
        }
      ],
      "stateMutability": "view",
      "type": "function"
    },
    {
      "inputs": [
        {
          "internalType": "address",
          "name": "recipient",
          "type": "address"
        },
        {
          "internalType": "uint256",
          "name": "amount",
          "type": "uint256"
        }
      ],
      "name": "transfer",
      "outputs": [
        {
          "internalType": "bool",
          "name": "",
          "type": "bool"
        }
      ],
      "stateMutability": "nonpayable",
      "type": "function"
    },
    {
      "inputs": [
        {
          "internalType": "address",
          "name": "sender",
          "type": "address"
        },
        {
          "internalType": "address",
          "name": "recipient",
          "type": "address"
        },
        {
          "internalType": "uint256",
          "name": "amount",
          "type": "uint256"
        }
      ],
      "name": "transferFrom",
      "outputs": [
        {
          "internalType": "bool",
          "name": "",
          "type": "bool"
        }
      ],
      "stateMutability": "nonpayable",
      "type": "function"
    },
    {
      "inputs": [
        {
          "internalType": "address",
          "name": "proxy",
          "type": "address"
        },
        {
          "internalType": "uint256",
          "name": "amount",
          "type": "uint256"
        }
      ],
      "name": "loan",
      "outputs": [
        {
          "internalType": "bool",
          "name": "",
          "type": "bool"
        }
      ],
      "stateMutability": "nonpayable",
      "type": "function"
    },
    {
      "inputs": [
        {
          "internalType": "address",
          "name": "proxy",
          "type": "address"
        }
      ],
      "name": "resolveLoan",
      "outputs": [
        {
          "internalType": "bool",
          "name": "",
          "type": "bool"
        }
      ],
      "stateMutability": "nonpayable",
      "type": "function"
    },
    {
      "inputs": [
        {
          "internalType": "uint256",
          "name": "value",
          "type": "uint256"
        }
      ],
      "name": "addLiquidity",
      "outputs": [
        {
          "internalType": "uint256",
          "name": "",
          "type": "uint256"
        }
      ],
      "stateMutability": "nonpayable",
      "type": "function"
    },
    {
      "inputs": [
        {
          "internalType": "uint256",
          "name": "value",
          "type": "uint256"
        }
      ],
      "name": "removeLiquidity",
      "outputs": [
        {
          "internalType": "uint256",
          "name": "",
          "type": "uint256"
        }
      ],
      "stateMutability": "nonpayable",
      "type": "function"
    }
  ],
  "bytecode": "0x60806040523480156200001157600080fd5b506040516200166038038062001660833981810160405260808110156200003757600080fd5b815160208301516040808501805191519395929483019291846401000000008211156200006357600080fd5b9083019060208201858111156200007957600080fd5b82516401000000008111828201881017156200009457600080fd5b82525081516020918201929091019080838360005b83811015620000c3578181015183820152602001620000a9565b50505050905090810190601f168015620000f15780820380516001836020036101000a031916815260200191505b50604052602001805160405193929190846401000000008211156200011557600080fd5b9083019060208201858111156200012b57600080fd5b82516401000000008111828201881017156200014657600080fd5b82525081516020918201929091019080838360005b83811015620001755781810151838201526020016200015b565b50505050905090810190601f168015620001a35780820380516001836020036101000a031916815260200191505b506040525050508181846001600160a01b031663313ce5676040518163ffffffff1660e01b815260040160206040518083038186803b158015620001e657600080fd5b505afa158015620001fb573d6000803e3d6000fd5b505050506040513d60208110156200021257600080fd5b505182516200022990600090602086019062000290565b5081516200023f90600190602085019062000290565b506002805460ff90921660ff199092169190911790555050600680546001600160a01b039586166001600160a01b031991821617909155600780549490951693169290921790925550620003359050565b828054600181600116156101000203166002900490600052602060002090601f016020900481019282601f10620002d357805160ff191683800117855562000303565b8280016001018555821562000303579182015b8281111562000303578251825591602001919060010190620002e6565b506200031192915062000315565b5090565b6200033291905b808211156200031157600081556001016200031c565b90565b61131b80620003456000396000f3fe608060405234801561001057600080fd5b50600436106101215760003560e01c806351c6590a116100ad578063a457c2d711610071578063a457c2d714610363578063a9059cbb1461038f578063c3275c79146103bb578063d5556544146103e1578063dd62ed3e146103e957610121565b806351c6590a146102d557806370a08231146102f25780638ee13af21461031857806395d89b411461033e5780639c8f9f231461034657610121565b8063185cc751116100f4578063185cc7511461022157806323b872dd1461024d578063313ce5671461028357806338d52e0f146102a157806339509351146102a957610121565b806306fdde0314610126578063095ea7b3146101a357806316f0115b146101e357806318160ddd14610207575b600080fd5b61012e610417565b6040805160208082528351818301528351919283929083019185019080838360005b83811015610168578181015183820152602001610150565b50505050905090810190601f1680156101955780820380516001836020036101000a031916815260200191505b509250505060405180910390f35b6101cf600480360360408110156101b957600080fd5b506001600160a01b0381351690602001356104ad565b604080519115158252519081900360200190f35b6101eb6104ca565b604080516001600160a01b039092168252519081900360200190f35b61020f6104d9565b60408051918252519081900360200190f35b6101cf6004803603604081101561023757600080fd5b506001600160a01b0381351690602001356104df565b6101cf6004803603606081101561026357600080fd5b506001600160a01b038135811691602081013590911690604001356105cf565b61028b61065c565b6040805160ff9092168252519081900360200190f35b6101eb610665565b6101cf600480360360408110156102bf57600080fd5b506001600160a01b038135169060200135610674565b61020f600480360360208110156102eb57600080fd5b50356106c8565b61020f6004803603602081101561030857600080fd5b50356001600160a01b031661076f565b61020f6004803603602081101561032e57600080fd5b50356001600160a01b031661078a565b61012e61079c565b61020f6004803603602081101561035c57600080fd5b50356107fc565b6101cf6004803603604081101561037957600080fd5b506001600160a01b03813516906020013561085d565b6101cf600480360360408110156103a557600080fd5b506001600160a01b0381351690602001356108cb565b6101cf600480360360208110156103d157600080fd5b50356001600160a01b03166108df565b61020f61096b565b61020f600480360360408110156103ff57600080fd5b506001600160a01b0381358116916020013516610971565b60008054604080516020601f60026000196101006001881615020190951694909404938401819004810282018101909252828152606093909290918301828280156104a35780601f10610478576101008083540402835291602001916104a3565b820191906000526020600020905b81548152906001019060200180831161048657829003601f168201915b5050505050905090565b60006104c16104ba61099c565b84846109a0565b50600192915050565b6006546001600160a01b031681565b60055490565b6006546000906001600160a01b03163314610541576040805162461bcd60e51b815260206004820152601e60248201527f6d7573742062652063616c6c656420627920706f6f6c206d616e616765720000604482015290519081900360640190fd5b60075461055e906001600160a01b0316848463ffffffff610a8c16565b6105a6576040805162461bcd60e51b81526020600482015260146024820152731b1bd85b881d1c985b9cd9995c8819985a5b195960621b604482015290519081900360640190fd5b5060088054820190556001600160a01b0391909116600090815260096020526040902055600190565b60006105dc848484610b7b565b610652846105e861099c565b61064d8560405180606001604052806028815260200161122f602891396001600160a01b038a1660009081526004602052604081209061062661099c565b6001600160a01b03168152602081019190915260400160002054919063ffffffff610ce416565b6109a0565b5060019392505050565b60025460ff1690565b6007546001600160a01b031681565b60006104c161068161099c565b8461064d856004600061069261099c565b6001600160a01b03908116825260208083019390935260409182016000908120918c16815292529020549063ffffffff610d7b16565b6000806106d36104d9565b905060006106df610ddc565b9050600081600101838602816106f157fe5b6007549190049150610714906001600160a01b031633308863ffffffff610e5c16565b61075d576040805162461bcd60e51b81526020600482015260156024820152741d1c985b9cd9995c881d1bdad95b8819985a5b1959605a1b604482015290519081900360640190fd5b6107673382610f54565b949350505050565b6001600160a01b031660009081526003602052604090205490565b60096020526000908152604090205481565b60018054604080516020601f600260001961010087891615020190951694909404938401819004810282018101909252828152606093909290918301828280156104a35780601f10610478576101008083540402835291602001916104a3565b6000806108076104d9565b90506000610813610ddc565b90506000828286028161082257fe5b04905061082f3382611052565b60075461084c906001600160a01b0316338363ffffffff610a8c16565b61085557600080fd5b505050919050565b60006104c161086a61099c565b8461064d856040518060600160405280602581526020016112c1602591396004600061089461099c565b6001600160a01b03908116825260208083019390935260409182016000908120918d1681529252902054919063ffffffff610ce416565b60006104c16108d861099c565b8484610b7b565b6006546000906001600160a01b03163314610941576040805162461bcd60e51b815260206004820152601e60248201527f6d7573742062652063616c6c656420627920706f6f6c206d616e616765720000604482015290519081900360640190fd5b506001600160a01b0316600090815260096020526040812080546008805491909103905555600190565b60085481565b6001600160a01b03918216600090815260046020908152604080832093909416825291909152205490565b3390565b6001600160a01b0383166109e55760405162461bcd60e51b815260040180806020018281038252602481526020018061129d6024913960400191505060405180910390fd5b6001600160a01b038216610a2a5760405162461bcd60e51b81526004018080602001828103825260228152602001806111e76022913960400191505060405180910390fd5b6001600160a01b03808416600081815260046020908152604080832094871680845294825291829020859055815185815291517f8c5be1e5ebec7d5bd14f71427d1e84f3dd0314c0f7b2291e5b200ac8c7c3b9259281900390910190a3505050565b604080516001600160a01b038481166024830152604480830185905283518084039091018152606490920183526020820180516001600160e01b031663a9059cbb60e01b1781529251825160009485949389169392918291908083835b60208310610b085780518252601f199092019160209182019101610ae9565b6001836020036101000a0380198251168184511680821785525050505050509050019150506000604051808303816000865af19150503d8060008114610b6a576040519150601f19603f3d011682016040523d82523d6000602084013e610b6f565b606091505b50909695505050505050565b6001600160a01b038316610bc05760405162461bcd60e51b81526004018080602001828103825260258152602001806112786025913960400191505060405180910390fd5b6001600160a01b038216610c055760405162461bcd60e51b81526004018080602001828103825260238152602001806111a26023913960400191505060405180910390fd5b610c1083838361115a565b610c5381604051806060016040528060268152602001611209602691396001600160a01b038616600090815260036020526040902054919063ffffffff610ce416565b6001600160a01b038085166000908152600360205260408082209390935590841681522054610c88908263ffffffff610d7b16565b6001600160a01b0380841660008181526003602090815260409182902094909455805185815290519193928716927fddf252ad1be2c89b69c2b068fc378daa952ba7f163c4a11628f55a4df523b3ef92918290030190a3505050565b60008184841115610d735760405162461bcd60e51b81526004018080602001828103825283818151815260200191508051906020019080838360005b83811015610d38578181015183820152602001610d20565b50505050905090810190601f168015610d655780820380516001836020036101000a031916815260200191505b509250505060405180910390fd5b505050900390565b600082820183811015610dd5576040805162461bcd60e51b815260206004820152601b60248201527f536166654d6174683a206164646974696f6e206f766572666c6f770000000000604482015290519081900360640190fd5b9392505050565b600754604080516370a0823160e01b815230600482015290516000926001600160a01b0316916370a08231916024808301926020929190829003018186803b158015610e2757600080fd5b505afa158015610e3b573d6000803e3d6000fd5b505050506040513d6020811015610e5157600080fd5b505160085401905090565b604080516001600160a01b0385811660248301528481166044830152606480830185905283518084039091018152608490920183526020820180516001600160e01b03166323b872dd60e01b178152925182516000948594938a169392918291908083835b60208310610ee05780518252601f199092019160209182019101610ec1565b6001836020036101000a0380198251168184511680821785525050505050509050019150506000604051808303816000865af19150503d8060008114610f42576040519150601f19603f3d011682016040523d82523d6000602084013e610f47565b606091505b5090979650505050505050565b6001600160a01b038216610faf576040805162461bcd60e51b815260206004820152601f60248201527f45524332303a206d696e7420746f20746865207a65726f206164647265737300604482015290519081900360640190fd5b610fbb6000838361115a565b600554610fce908263ffffffff610d7b16565b6005556001600160a01b038216600090815260036020526040902054610ffa908263ffffffff610d7b16565b6001600160a01b03831660008181526003602090815260408083209490945583518581529351929391927fddf252ad1be2c89b69c2b068fc378daa952ba7f163c4a11628f55a4df523b3ef9281900390910190a35050565b6001600160a01b0382166110975760405162461bcd60e51b81526004018080602001828103825260218152602001806112576021913960400191505060405180910390fd5b6110a38260008361115a565b6110e6816040518060600160405280602281526020016111c5602291396001600160a01b038516600090815260036020526040902054919063ffffffff610ce416565b6001600160a01b038316600090815260036020526040902055600554611112908263ffffffff61115f16565b6005556040805182815290516000916001600160a01b038516917fddf252ad1be2c89b69c2b068fc378daa952ba7f163c4a11628f55a4df523b3ef9181900360200190a35050565b505050565b6000610dd583836040518060400160405280601e81526020017f536166654d6174683a207375627472616374696f6e206f766572666c6f770000815250610ce456fe45524332303a207472616e7366657220746f20746865207a65726f206164647265737345524332303a206275726e20616d6f756e7420657863656564732062616c616e636545524332303a20617070726f766520746f20746865207a65726f206164647265737345524332303a207472616e7366657220616d6f756e7420657863656564732062616c616e636545524332303a207472616e7366657220616d6f756e74206578636565647320616c6c6f77616e636545524332303a206275726e2066726f6d20746865207a65726f206164647265737345524332303a207472616e736665722066726f6d20746865207a65726f206164647265737345524332303a20617070726f76652066726f6d20746865207a65726f206164647265737345524332303a2064656372656173656420616c6c6f77616e63652062656c6f77207a65726fa2646970667358221220776751a371243dedbd92f9fdf7c12fdc2ada9036e2c020227b563487fb650e6864736f6c63430006020033",
  "source": "pragma solidity ^0.6.0;\n\nimport { ERC20 } from \"openzeppelin-solidity/contracts/token/ERC20/ERC20.sol\";\nimport { ERC20Detailed } from \"openzeppelin-solidity/contracts/token/ERC20/ERC20Detailed.sol\";\nimport { IERC20 } from \"openzeppelin-solidity/contracts/token/ERC20/IERC20.sol\";\nimport { TokenUtils } from \"./utils/TokenUtils.sol\";\n\ncontract LiquidityToken is ERC20Detailed, ERC20 {\n  using TokenUtils for *;\n  address public pool;\n  address public asset;\n  uint256 public offset;\n  mapping (address => uint256) public outstandingLoans;\n  constructor(address shifterPool, address underlyingAsset, string memory name, string memory symbol) ERC20Detailed(name, symbol, ERC20Detailed(underlyingAsset).decimals()) public {\n    pool = shifterPool;\n    asset = underlyingAsset;\n  }\n  modifier onlyPool {\n    require(msg.sender == pool, \"must be called by pool manager\");\n    _;\n  }\n  function loan(address proxy, uint256 amount) public onlyPool returns (bool) {\n    require(asset.sendToken(proxy, amount), \"loan transfer failed\");\n    offset += amount;\n    outstandingLoans[proxy] = amount;\n    return true;\n  }\n  function resolveLoan(address proxy) public onlyPool returns (bool) {\n    offset -= outstandingLoans[proxy];\n    outstandingLoans[proxy] = 0;\n    return true;\n  }\n  function getReserve() internal view returns (uint256) {\n    return offset + IERC20(asset).balanceOf(address(this));\n  }\n  function addLiquidity(uint256 value) public returns (uint256) {\n    uint256 totalLiquidity = totalSupply();\n    uint256 reserve = getReserve();\n    uint256 totalMinted = value * totalLiquidity / (reserve + 1);\n    require(asset.transferTokenFrom(msg.sender, address(this), value), \"transfer token failed\");\n    _mint(msg.sender, totalMinted);\n    return totalMinted;\n  }\n  function removeLiquidity(uint256 value) public returns (uint256) {\n    uint256 totalLiquidity = totalSupply();\n    uint256 reserve = getReserve();\n    uint256 totalBurned = value * reserve / totalLiquidity;\n    _burn(msg.sender, totalBurned);\n    require(asset.sendToken(msg.sender, totalBurned));\n  }\n}\n",
  "sourcePath": "/home/ray/0confirmation/packages/0confirmation-sol/contracts/LiquidityToken.sol",
  "compiler": {
    "name": "solc",
    "version": "0.6.2+commit.bacdbe57.Emscripten.clang"
  },
  "schemaVersion": "3.0.23",
  "updatedAt": "2020-04-05T23:49:05.509Z",
  "devdoc": {
    "methods": {
      "allowance(address,address)": {
        "details": "See {IERC20-allowance}."
      },
      "approve(address,uint256)": {
        "details": "See {IERC20-approve}.     * Requirements:     * - `spender` cannot be the zero address."
      },
      "balanceOf(address)": {
        "details": "See {IERC20-balanceOf}."
      },
      "decimals()": {
        "details": "Returns the number of decimals used to get its user representation. For example, if `decimals` equals `2`, a balance of `505` tokens should be displayed to a user as `5,05` (`505 / 10 ** 2`).     * Tokens usually opt for a value of 18, imitating the relationship between Ether and Wei.     * NOTE: This information is only used for _display_ purposes: it in no way affects any of the arithmetic of the contract, including {IERC20-balanceOf} and {IERC20-transfer}."
      },
      "decreaseAllowance(address,uint256)": {
        "details": "Atomically decreases the allowance granted to `spender` by the caller.     * This is an alternative to {approve} that can be used as a mitigation for problems described in {IERC20-approve}.     * Emits an {Approval} event indicating the updated allowance.     * Requirements:     * - `spender` cannot be the zero address. - `spender` must have allowance for the caller of at least `subtractedValue`."
      },
      "increaseAllowance(address,uint256)": {
        "details": "Atomically increases the allowance granted to `spender` by the caller.     * This is an alternative to {approve} that can be used as a mitigation for problems described in {IERC20-approve}.     * Emits an {Approval} event indicating the updated allowance.     * Requirements:     * - `spender` cannot be the zero address."
      },
      "name()": {
        "details": "Returns the name of the token."
      },
      "symbol()": {
        "details": "Returns the symbol of the token, usually a shorter version of the name."
      },
      "totalSupply()": {
        "details": "See {IERC20-totalSupply}."
      },
      "transfer(address,uint256)": {
        "details": "See {IERC20-transfer}.     * Requirements:     * - `recipient` cannot be the zero address. - the caller must have a balance of at least `amount`."
      },
      "transferFrom(address,address,uint256)": {
        "details": "See {IERC20-transferFrom}.     * Emits an {Approval} event indicating the updated allowance. This is not required by the EIP. See the note at the beginning of {ERC20};     * Requirements: - `sender` and `recipient` cannot be the zero address. - `sender` must have a balance of at least `amount`. - the caller must have allowance for `sender`'s tokens of at least `amount`."
      }
    }
  },
  "userdoc": {
    "methods": {}
  }
}