{
  "contractName": "LiquidityToken",
  "abi": [
    {
      "inputs": [
        {
          "internalType": "address",
          "name": "shifterPool",
          "type": "address"
        },
        {
          "internalType": "address",
          "name": "underlyingAsset",
          "type": "address"
        },
        {
          "internalType": "string",
          "name": "name",
          "type": "string"
        },
        {
          "internalType": "string",
          "name": "symbol",
          "type": "string"
        },
        {
          "internalType": "uint8",
          "name": "decimals",
          "type": "uint8"
        }
      ],
      "stateMutability": "nonpayable",
      "type": "constructor"
    },
    {
      "anonymous": false,
      "inputs": [
        {
          "indexed": true,
          "internalType": "address",
          "name": "owner",
          "type": "address"
        },
        {
          "indexed": true,
          "internalType": "address",
          "name": "spender",
          "type": "address"
        },
        {
          "indexed": false,
          "internalType": "uint256",
          "name": "value",
          "type": "uint256"
        }
      ],
      "name": "Approval",
      "type": "event"
    },
    {
      "anonymous": false,
      "inputs": [
        {
          "indexed": true,
          "internalType": "address",
          "name": "from",
          "type": "address"
        },
        {
          "indexed": true,
          "internalType": "address",
          "name": "to",
          "type": "address"
        },
        {
          "indexed": false,
          "internalType": "uint256",
          "name": "value",
          "type": "uint256"
        }
      ],
      "name": "Transfer",
      "type": "event"
    },
    {
      "inputs": [
        {
          "internalType": "address",
          "name": "owner",
          "type": "address"
        },
        {
          "internalType": "address",
          "name": "spender",
          "type": "address"
        }
      ],
      "name": "allowance",
      "outputs": [
        {
          "internalType": "uint256",
          "name": "",
          "type": "uint256"
        }
      ],
      "stateMutability": "view",
      "type": "function"
    },
    {
      "inputs": [
        {
          "internalType": "address",
          "name": "spender",
          "type": "address"
        },
        {
          "internalType": "uint256",
          "name": "amount",
          "type": "uint256"
        }
      ],
      "name": "approve",
      "outputs": [
        {
          "internalType": "bool",
          "name": "",
          "type": "bool"
        }
      ],
      "stateMutability": "nonpayable",
      "type": "function"
    },
    {
      "inputs": [],
      "name": "asset",
      "outputs": [
        {
          "internalType": "address",
          "name": "",
          "type": "address"
        }
      ],
      "stateMutability": "view",
      "type": "function"
    },
    {
      "inputs": [
        {
          "internalType": "address",
          "name": "account",
          "type": "address"
        }
      ],
      "name": "balanceOf",
      "outputs": [
        {
          "internalType": "uint256",
          "name": "",
          "type": "uint256"
        }
      ],
      "stateMutability": "view",
      "type": "function"
    },
    {
      "inputs": [
        {
          "internalType": "uint256",
          "name": "amount",
          "type": "uint256"
        }
      ],
      "name": "burn",
      "outputs": [],
      "stateMutability": "nonpayable",
      "type": "function"
    },
    {
      "inputs": [
        {
          "internalType": "address",
          "name": "account",
          "type": "address"
        },
        {
          "internalType": "uint256",
          "name": "amount",
          "type": "uint256"
        }
      ],
      "name": "burnFrom",
      "outputs": [],
      "stateMutability": "nonpayable",
      "type": "function"
    },
    {
      "inputs": [],
      "name": "decimals",
      "outputs": [
        {
          "internalType": "uint8",
          "name": "",
          "type": "uint8"
        }
      ],
      "stateMutability": "view",
      "type": "function"
    },
    {
      "inputs": [
        {
          "internalType": "address",
          "name": "spender",
          "type": "address"
        },
        {
          "internalType": "uint256",
          "name": "subtractedValue",
          "type": "uint256"
        }
      ],
      "name": "decreaseAllowance",
      "outputs": [
        {
          "internalType": "bool",
          "name": "",
          "type": "bool"
        }
      ],
      "stateMutability": "nonpayable",
      "type": "function"
    },
    {
      "inputs": [
        {
          "internalType": "address",
          "name": "spender",
          "type": "address"
        },
        {
          "internalType": "uint256",
          "name": "addedValue",
          "type": "uint256"
        }
      ],
      "name": "increaseAllowance",
      "outputs": [
        {
          "internalType": "bool",
          "name": "",
          "type": "bool"
        }
      ],
      "stateMutability": "nonpayable",
      "type": "function"
    },
    {
      "inputs": [],
      "name": "name",
      "outputs": [
        {
          "internalType": "string",
          "name": "",
          "type": "string"
        }
      ],
      "stateMutability": "view",
      "type": "function"
    },
    {
      "inputs": [],
      "name": "offset",
      "outputs": [
        {
          "internalType": "uint256",
          "name": "",
          "type": "uint256"
        }
      ],
      "stateMutability": "view",
      "type": "function"
    },
    {
      "inputs": [
        {
          "internalType": "address",
          "name": "",
          "type": "address"
        }
      ],
      "name": "outstandingLoans",
      "outputs": [
        {
          "internalType": "uint256",
          "name": "",
          "type": "uint256"
        }
      ],
      "stateMutability": "view",
      "type": "function"
    },
    {
      "inputs": [],
      "name": "pool",
      "outputs": [
        {
          "internalType": "address",
          "name": "",
          "type": "address"
        }
      ],
      "stateMutability": "view",
      "type": "function"
    },
    {
      "inputs": [],
      "name": "symbol",
      "outputs": [
        {
          "internalType": "string",
          "name": "",
          "type": "string"
        }
      ],
      "stateMutability": "view",
      "type": "function"
    },
    {
      "inputs": [],
      "name": "totalSupply",
      "outputs": [
        {
          "internalType": "uint256",
          "name": "",
          "type": "uint256"
        }
      ],
      "stateMutability": "view",
      "type": "function"
    },
    {
      "inputs": [
        {
          "internalType": "address",
          "name": "recipient",
          "type": "address"
        },
        {
          "internalType": "uint256",
          "name": "amount",
          "type": "uint256"
        }
      ],
      "name": "transfer",
      "outputs": [
        {
          "internalType": "bool",
          "name": "",
          "type": "bool"
        }
      ],
      "stateMutability": "nonpayable",
      "type": "function"
    },
    {
      "inputs": [
        {
          "internalType": "address",
          "name": "sender",
          "type": "address"
        },
        {
          "internalType": "address",
          "name": "recipient",
          "type": "address"
        },
        {
          "internalType": "uint256",
          "name": "amount",
          "type": "uint256"
        }
      ],
      "name": "transferFrom",
      "outputs": [
        {
          "internalType": "bool",
          "name": "",
          "type": "bool"
        }
      ],
      "stateMutability": "nonpayable",
      "type": "function"
    },
    {
      "inputs": [
        {
          "internalType": "address",
          "name": "proxy",
          "type": "address"
        },
        {
          "internalType": "uint256",
          "name": "amount",
          "type": "uint256"
        }
      ],
      "name": "loan",
      "outputs": [
        {
          "internalType": "bool",
          "name": "",
          "type": "bool"
        }
      ],
      "stateMutability": "nonpayable",
      "type": "function"
    },
    {
      "inputs": [
        {
          "internalType": "address",
          "name": "proxy",
          "type": "address"
        }
      ],
      "name": "resolveLoan",
      "outputs": [
        {
          "internalType": "bool",
          "name": "",
          "type": "bool"
        }
      ],
      "stateMutability": "nonpayable",
      "type": "function"
    },
    {
      "inputs": [
        {
          "internalType": "uint256",
          "name": "value",
          "type": "uint256"
        }
      ],
      "name": "addLiquidity",
      "outputs": [
        {
          "internalType": "uint256",
          "name": "",
          "type": "uint256"
        }
      ],
      "stateMutability": "nonpayable",
      "type": "function"
    },
    {
      "inputs": [
        {
          "internalType": "uint256",
          "name": "value",
          "type": "uint256"
        }
      ],
      "name": "removeLiquidity",
      "outputs": [
        {
          "internalType": "uint256",
          "name": "",
          "type": "uint256"
        }
      ],
      "stateMutability": "nonpayable",
      "type": "function"
    }
  ],
  "bytecode": "0x60806040523480156200001157600080fd5b50604051620017b5380380620017b58339810160408190526200003491620002c9565b8251839083906200004d9060039060208501906200015f565b508051620000639060049060208401906200015f565b505060058054601260ff1990911617610100600160a81b0319166101006001600160a01b038981169190910291909117909155600680546001600160a01b03191691871691909117905550620000b981620000c4565b5050505050620003d0565b620000e3306001600160a01b03166200012260201b620008151760201c565b156200010c5760405162461bcd60e51b8152600401620001039062000373565b60405180910390fd5b6005805460ff191660ff92909216919091179055565b6000813f7fc5d2460186f7233c927e7db2dcc703c0e500b653ca82273b7bfad8045d85a4708181148015906200015757508115155b949350505050565b828054600181600116156101000203166002900490600052602060002090601f016020900481019282601f10620001a257805160ff1916838001178555620001d2565b82800160010185558215620001d2579182015b82811115620001d2578251825591602001919060010190620001b5565b50620001e0929150620001e4565b5090565b6200020191905b80821115620001e05760008155600101620001eb565b90565b80516001600160a01b03811681146200021c57600080fd5b92915050565b600082601f83011262000233578081fd5b81516001600160401b03808211156200024a578283fd5b6040516020601f8401601f19168201810183811183821017156200026c578586fd5b806040525081945083825286818588010111156200028957600080fd5b600092505b83831015620002ad57858301810151828401820152918201916200028e565b83831115620002bf5760008185840101525b5050505092915050565b600080600080600060a08688031215620002e1578081fd5b620002ed878762000204565b9450620002fe876020880162000204565b60408701519094506001600160401b03808211156200031b578283fd5b6200032989838a0162000222565b945060608801519150808211156200033f578283fd5b506200034e8882890162000222565b925050608086015160ff8116811462000365578182fd5b809150509295509295909350565b60208082526034908201527f45524332303a20646563696d616c732063616e6e6f74206265206368616e676560408201527f6420616674657220636f6e737472756374696f6e000000000000000000000000606082015260800190565b6113d580620003e06000396000f3fe608060405234801561001057600080fd5b50600436106101375760003560e01c806351c6590a116100b85780639c8f9f231161007c5780639c8f9f2314610263578063a457c2d714610276578063a9059cbb14610289578063c3275c791461029c578063d5556544146102af578063dd62ed3e146102b757610137565b806351c6590a1461020f57806370a082311461022257806379cc6790146102355780638ee13af21461024857806395d89b411461025b57610137565b806323b872dd116100ff57806323b872dd146101b7578063313ce567146101ca57806338d52e0f146101df57806339509351146101e757806342966c68146101fa57610137565b806306fdde031461013c578063095ea7b31461015a57806316f0115b1461017a57806318160ddd1461018f578063185cc751146101a4575b600080fd5b6101446102ca565b6040516101519190611006565b60405180910390f35b61016d610168366004610f34565b610360565b6040516101519190610ffb565b61018261037e565b6040516101519190610faa565b610197610392565b604051610151919061128a565b61016d6101b2366004610f34565b610398565b61016d6101c5366004610ef4565b610435565b6101d26104c2565b6040516101519190611293565b6101826104cb565b61016d6101f5366004610f34565b6104da565b61020d610208366004610f5e565b61052e565b005b61019761021d366004610f5e565b610542565b610197610230366004610ea5565b6105bc565b61020d610243366004610f34565b6105d7565b610197610256366004610ea5565b610632565b610144610644565b610197610271366004610f5e565b6106a5565b61016d610284366004610f34565b610706565b61016d610297366004610f34565b610774565b61016d6102aa366004610ea5565b610788565b6101976107e4565b6101976102c5366004610ec0565b6107ea565b60038054604080516020601f60026000196101006001881615020190951694909404938401819004810282018101909252828152606093909290918301828280156103565780601f1061032b57610100808354040283529160200191610356565b820191906000526020600020905b81548152906001019060200180831161033957829003601f168201915b5050505050905090565b600061037461036d61084e565b8484610852565b5060015b92915050565b60055461010090046001600160a01b031681565b60025490565b60055460009061010090046001600160a01b031633146103d35760405162461bcd60e51b81526004016103ca90611124565b60405180910390fd5b6006546103f0906001600160a01b0316848463ffffffff61090616565b61040c5760405162461bcd60e51b81526004016103ca90611225565b5060078054820190556001600160a01b0391909116600090815260086020526040902055600190565b6000610442848484610978565b6104b88461044e61084e565b6104b38560405180606001604052806028815260200161132f602891396001600160a01b038a1660009081526001602052604081209061048c61084e565b6001600160a01b03168152602081019190915260400160002054919063ffffffff610a9916565b610852565b5060019392505050565b60055460ff1690565b6006546001600160a01b031681565b60006103746104e761084e565b846104b385600160006104f861084e565b6001600160a01b03908116825260208083019390935260409182016000908120918c16815292529020549063ffffffff610ac516565b61053f61053961084e565b82610af1565b50565b60008061054d610392565b90506000610559610bdf565b90506000816001018386028161056b57fe5b600654919004915061058e906001600160a01b031633308863ffffffff610c6916565b6105aa5760405162461bcd60e51b81526004016103ca9061107c565b6105b43382610cdd565b949350505050565b6001600160a01b031660009081526020819052604090205490565b600061060f8260405180606001604052806024815260200161135760249139610602866102c561084e565b919063ffffffff610a9916565b90506106238361061d61084e565b83610852565b61062d8383610af1565b505050565b60086020526000908152604090205481565b60048054604080516020601f60026000196101006001881615020190951694909404938401819004810282018101909252828152606093909290918301828280156103565780601f1061032b57610100808354040283529160200191610356565b6000806106b0610392565b905060006106bc610bdf565b9050600082828602816106cb57fe5b0490506106d83382610af1565b6006546106f5906001600160a01b0316338363ffffffff61090616565b6106fe57600080fd5b505050919050565b600061037461071361084e565b846104b38560405180606001604052806025815260200161137b602591396001600061073d61084e565b6001600160a01b03908116825260208083019390935260409182016000908120918d1681529252902054919063ffffffff610a9916565b600061037461078161084e565b8484610978565b60055460009061010090046001600160a01b031633146107ba5760405162461bcd60e51b81526004016103ca90611124565b506001600160a01b0316600090815260086020526040812080546007805491909103905555600190565b60075481565b6001600160a01b03918216600090815260016020908152604080832093909416825291909152205490565b6000813f7fc5d2460186f7233c927e7db2dcc703c0e500b653ca82273b7bfad8045d85a4708181148015906105b4575050151592915050565b3390565b6001600160a01b0383166108785760405162461bcd60e51b81526004016103ca906111e1565b6001600160a01b03821661089e5760405162461bcd60e51b81526004016103ca906110ab565b6001600160a01b0380841660008181526001602090815260408083209487168084529490915290819020849055517f8c5be1e5ebec7d5bd14f71427d1e84f3dd0314c0f7b2291e5b200ac8c7c3b925906108f990859061128a565b60405180910390a3505050565b600080846001600160a01b031661091d8585610d9d565b60405161092a9190610f8e565b6000604051808303816000865af19150503d8060008114610967576040519150601f19603f3d011682016040523d82523d6000602084013e61096c565b606091505b50909695505050505050565b6001600160a01b03831661099e5760405162461bcd60e51b81526004016103ca9061119c565b6001600160a01b0382166109c45760405162461bcd60e51b81526004016103ca90611039565b6109cf83838361062d565b610a1281604051806060016040528060268152602001611309602691396001600160a01b038616600090815260208190526040902054919063ffffffff610a9916565b6001600160a01b038085166000908152602081905260408082209390935590841681522054610a47908263ffffffff610ac516565b6001600160a01b0380841660008181526020819052604090819020939093559151908516907fddf252ad1be2c89b69c2b068fc378daa952ba7f163c4a11628f55a4df523b3ef906108f990859061128a565b60008184841115610abd5760405162461bcd60e51b81526004016103ca9190611006565b505050900390565b600082820183811015610aea5760405162461bcd60e51b81526004016103ca906110ed565b9392505050565b6001600160a01b038216610b175760405162461bcd60e51b81526004016103ca9061115b565b610b238260008361062d565b610b66816040518060600160405280602281526020016112e7602291396001600160a01b038516600090815260208190526040902054919063ffffffff610a9916565b6001600160a01b038316600090815260208190526040902055600254610b92908263ffffffff610df316565b6002556040516000906001600160a01b038416907fddf252ad1be2c89b69c2b068fc378daa952ba7f163c4a11628f55a4df523b3ef90610bd390859061128a565b60405180910390a35050565b6006546040516370a0823160e01b81526000916001600160a01b0316906370a0823190610c10903090600401610faa565b60206040518083038186803b158015610c2857600080fd5b505afa158015610c3c573d6000803e3d6000fd5b505050506040513d601f19601f82011682018060405250810190610c609190610f76565b60075401905090565b600080856001600160a01b0316610c81868686610e35565b604051610c8e9190610f8e565b6000604051808303816000865af19150503d8060008114610ccb576040519150601f19603f3d011682016040523d82523d6000602084013e610cd0565b606091505b5090979650505050505050565b6001600160a01b038216610d035760405162461bcd60e51b81526004016103ca90611253565b610d0f6000838361062d565b600254610d22908263ffffffff610ac516565b6002556001600160a01b038216600090815260208190526040902054610d4e908263ffffffff610ac516565b6001600160a01b0383166000818152602081905260408082209390935591519091907fddf252ad1be2c89b69c2b068fc378daa952ba7f163c4a11628f55a4df523b3ef90610bd390859061128a565b606063a9059cbb60e01b8383604051602401610dba929190610fe2565b60408051601f198184030181529190526020810180516001600160e01b03166001600160e01b0319909316929092179091529392505050565b6000610aea83836040518060400160405280601e81526020017f536166654d6174683a207375627472616374696f6e206f766572666c6f770000815250610a99565b60606323b872dd60e01b848484604051602401610e5493929190610fbe565b60408051601f198184030181529190526020810180516001600160e01b03166001600160e01b031990931692909217909152949350505050565b80356001600160a01b038116811461037857600080fd5b600060208284031215610eb6578081fd5b610aea8383610e8e565b60008060408385031215610ed2578081fd5b610edc8484610e8e565b9150610eeb8460208501610e8e565b90509250929050565b600080600060608486031215610f08578081fd5b8335610f13816112d1565b92506020840135610f23816112d1565b929592945050506040919091013590565b60008060408385031215610f46578182fd5b610f508484610e8e565b946020939093013593505050565b600060208284031215610f6f578081fd5b5035919050565b600060208284031215610f87578081fd5b5051919050565b60008251610fa08184602087016112a1565b9190910192915050565b6001600160a01b0391909116815260200190565b6001600160a01b039384168152919092166020820152604081019190915260600190565b6001600160a01b03929092168252602082015260400190565b901515815260200190565b60006020825282518060208401526110258160408501602087016112a1565b601f01601f19169190910160400192915050565b60208082526023908201527f45524332303a207472616e7366657220746f20746865207a65726f206164647260408201526265737360e81b606082015260800190565b6020808252601590820152741d1c985b9cd9995c881d1bdad95b8819985a5b1959605a1b604082015260600190565b60208082526022908201527f45524332303a20617070726f766520746f20746865207a65726f206164647265604082015261737360f01b606082015260800190565b6020808252601b908201527f536166654d6174683a206164646974696f6e206f766572666c6f770000000000604082015260600190565b6020808252601e908201527f6d7573742062652063616c6c656420627920706f6f6c206d616e616765720000604082015260600190565b60208082526021908201527f45524332303a206275726e2066726f6d20746865207a65726f206164647265736040820152607360f81b606082015260800190565b60208082526025908201527f45524332303a207472616e736665722066726f6d20746865207a65726f206164604082015264647265737360d81b606082015260800190565b60208082526024908201527f45524332303a20617070726f76652066726f6d20746865207a65726f206164646040820152637265737360e01b606082015260800190565b6020808252601490820152731b1bd85b881d1c985b9cd9995c8819985a5b195960621b604082015260600190565b6020808252601f908201527f45524332303a206d696e7420746f20746865207a65726f206164647265737300604082015260600190565b90815260200190565b60ff91909116815260200190565b60005b838110156112bc5781810151838201526020016112a4565b838111156112cb576000848401525b50505050565b6001600160a01b038116811461053f57600080fdfe45524332303a206275726e20616d6f756e7420657863656564732062616c616e636545524332303a207472616e7366657220616d6f756e7420657863656564732062616c616e636545524332303a207472616e7366657220616d6f756e74206578636565647320616c6c6f77616e636545524332303a206275726e20616d6f756e74206578636565647320616c6c6f77616e636545524332303a2064656372656173656420616c6c6f77616e63652062656c6f77207a65726fa2646970667358221220f88896a4bf786bb0a60f474361b6da0883425191e46888faabcf2a8cf993f9f864736f6c63430006080033",
  "immutableReferences": {},
  "source": "pragma solidity ^0.6.0;\npragma experimental ABIEncoderV2;\n\nimport { ERC20 } from \"openzeppelin-solidity/contracts/token/ERC20/ERC20.sol\";\nimport { IERC20 } from \"openzeppelin-solidity/contracts/token/ERC20/IERC20.sol\";\nimport { ERC20Detailed } from \"openzeppelin-solidity/contracts/token/ERC20/ERC20Detailed.sol\";\nimport { ERC20Burnable } from \"openzeppelin-solidity/contracts/token/ERC20/ERC20Burnable.sol\";\nimport { TokenUtils } from \"./utils/TokenUtils.sol\";\n\ncontract LiquidityToken is ERC20, ERC20Burnable {\n  using TokenUtils for *;\n  address public pool;\n  address public asset;\n  uint256 public offset;\n  mapping (address => uint256) public outstandingLoans;\n  constructor(address shifterPool, address underlyingAsset, string memory name, string memory symbol, uint8 decimals) ERC20(name, symbol) public {\n    pool = shifterPool;\n    asset = underlyingAsset;\n    _setupDecimals(decimals);\n  }\n  modifier onlyPool {\n    require(msg.sender == pool, \"must be called by pool manager\");\n    _;\n  }\n  function loan(address proxy, uint256 amount) public onlyPool returns (bool) {\n    require(asset.sendToken(proxy, amount), \"loan transfer failed\");\n    offset += amount;\n    outstandingLoans[proxy] = amount;\n    return true;\n  }\n  function resolveLoan(address proxy) public onlyPool returns (bool) {\n    offset -= outstandingLoans[proxy];\n    outstandingLoans[proxy] = 0;\n    return true;\n  }\n  function getReserve() internal view returns (uint256) {\n    return offset + IERC20(asset).balanceOf(address(this));\n  }\n  function addLiquidity(uint256 value) public returns (uint256) {\n    uint256 totalLiquidity = totalSupply();\n    uint256 reserve = getReserve();\n    uint256 totalMinted = value * totalLiquidity / (reserve + 1);\n    require(asset.transferTokenFrom(msg.sender, address(this), value), \"transfer token failed\");\n    _mint(msg.sender, totalMinted);\n    return totalMinted;\n  }\n  function removeLiquidity(uint256 value) public returns (uint256) {\n    uint256 totalLiquidity = totalSupply();\n    uint256 reserve = getReserve();\n    uint256 totalBurned = value * reserve / totalLiquidity;\n    _burn(msg.sender, totalBurned);\n    require(asset.sendToken(msg.sender, totalBurned));\n  }\n}\n",
  "sourcePath": "/home/ray/0confirmation/packages/0confirmation-sol/contracts/LiquidityToken.sol",
  "compiler": {
    "name": "solc",
    "version": "0.6.8+commit.0bbfe453.Emscripten.clang"
  },
  "schemaVersion": "3.2.0",
  "updatedAt": "2020-05-24T16:14:30.460Z",
  "devdoc": {
    "methods": {
      "allowance(address,address)": {
        "details": "See {IERC20-allowance}."
      },
      "approve(address,uint256)": {
        "details": "See {IERC20-approve}.     * Requirements:     * - `spender` cannot be the zero address."
      },
      "balanceOf(address)": {
        "details": "See {IERC20-balanceOf}."
      },
      "burn(uint256)": {
        "details": "Destroys `amount` tokens from the caller.     * See {ERC20-_burn}."
      },
      "burnFrom(address,uint256)": {
        "details": "Destroys `amount` tokens from `account`, deducting from the caller's allowance.     * See {ERC20-_burn} and {ERC20-allowance}.     * Requirements:     * - the caller must have allowance for `accounts`'s tokens of at least `amount`."
      },
      "decimals()": {
        "details": "Returns the number of decimals used to get its user representation. For example, if `decimals` equals `2`, a balance of `505` tokens should be displayed to a user as `5,05` (`505 / 10 ** 2`).     * Tokens usually opt for a value of 18, imitating the relationship between Ether and Wei. This is the value {ERC20} uses, unless {_setupDecimals} is called.     * NOTE: This information is only used for _display_ purposes: it in no way affects any of the arithmetic of the contract, including {IERC20-balanceOf} and {IERC20-transfer}."
      },
      "decreaseAllowance(address,uint256)": {
        "details": "Atomically decreases the allowance granted to `spender` by the caller.     * This is an alternative to {approve} that can be used as a mitigation for problems described in {IERC20-approve}.     * Emits an {Approval} event indicating the updated allowance.     * Requirements:     * - `spender` cannot be the zero address. - `spender` must have allowance for the caller of at least `subtractedValue`."
      },
      "increaseAllowance(address,uint256)": {
        "details": "Atomically increases the allowance granted to `spender` by the caller.     * This is an alternative to {approve} that can be used as a mitigation for problems described in {IERC20-approve}.     * Emits an {Approval} event indicating the updated allowance.     * Requirements:     * - `spender` cannot be the zero address."
      },
      "name()": {
        "details": "Returns the name of the token."
      },
      "symbol()": {
        "details": "Returns the symbol of the token, usually a shorter version of the name."
      },
      "totalSupply()": {
        "details": "See {IERC20-totalSupply}."
      },
      "transfer(address,uint256)": {
        "details": "See {IERC20-transfer}.     * Requirements:     * - `recipient` cannot be the zero address. - the caller must have a balance of at least `amount`."
      },
      "transferFrom(address,address,uint256)": {
        "details": "See {IERC20-transferFrom}.     * Emits an {Approval} event indicating the updated allowance. This is not required by the EIP. See the note at the beginning of {ERC20};     * Requirements: - `sender` and `recipient` cannot be the zero address. - `sender` must have a balance of at least `amount`. - the caller must have allowance for `sender`'s tokens of at least `amount`."
      }
    }
  },
  "userdoc": {
    "methods": {}
  }
}