{
  "contractName": "LiquidityToken",
  "abi": [
    {
      "inputs": [
        {
          "internalType": "address",
          "name": "shifterPool",
          "type": "address"
        },
        {
          "internalType": "address",
          "name": "underlyingAsset",
          "type": "address"
        },
        {
          "internalType": "string",
          "name": "name",
          "type": "string"
        },
        {
          "internalType": "string",
          "name": "symbol",
          "type": "string"
        },
        {
          "internalType": "uint8",
          "name": "decimals",
          "type": "uint8"
        }
      ],
      "stateMutability": "nonpayable",
      "type": "constructor"
    },
    {
      "anonymous": false,
      "inputs": [
        {
          "indexed": true,
          "internalType": "address",
          "name": "owner",
          "type": "address"
        },
        {
          "indexed": true,
          "internalType": "address",
          "name": "spender",
          "type": "address"
        },
        {
          "indexed": false,
          "internalType": "uint256",
          "name": "value",
          "type": "uint256"
        }
      ],
      "name": "Approval",
      "type": "event"
    },
    {
      "anonymous": false,
      "inputs": [
        {
          "indexed": true,
          "internalType": "address",
          "name": "from",
          "type": "address"
        },
        {
          "indexed": true,
          "internalType": "address",
          "name": "to",
          "type": "address"
        },
        {
          "indexed": false,
          "internalType": "uint256",
          "name": "value",
          "type": "uint256"
        }
      ],
      "name": "Transfer",
      "type": "event"
    },
    {
      "inputs": [
        {
          "internalType": "address",
          "name": "owner",
          "type": "address"
        },
        {
          "internalType": "address",
          "name": "spender",
          "type": "address"
        }
      ],
      "name": "allowance",
      "outputs": [
        {
          "internalType": "uint256",
          "name": "",
          "type": "uint256"
        }
      ],
      "stateMutability": "view",
      "type": "function",
      "constant": true
    },
    {
      "inputs": [
        {
          "internalType": "address",
          "name": "spender",
          "type": "address"
        },
        {
          "internalType": "uint256",
          "name": "amount",
          "type": "uint256"
        }
      ],
      "name": "approve",
      "outputs": [
        {
          "internalType": "bool",
          "name": "",
          "type": "bool"
        }
      ],
      "stateMutability": "nonpayable",
      "type": "function"
    },
    {
      "inputs": [],
      "name": "asset",
      "outputs": [
        {
          "internalType": "address",
          "name": "",
          "type": "address"
        }
      ],
      "stateMutability": "view",
      "type": "function",
      "constant": true
    },
    {
      "inputs": [
        {
          "internalType": "address",
          "name": "account",
          "type": "address"
        }
      ],
      "name": "balanceOf",
      "outputs": [
        {
          "internalType": "uint256",
          "name": "",
          "type": "uint256"
        }
      ],
      "stateMutability": "view",
      "type": "function",
      "constant": true
    },
    {
      "inputs": [],
      "name": "decimals",
      "outputs": [
        {
          "internalType": "uint8",
          "name": "",
          "type": "uint8"
        }
      ],
      "stateMutability": "view",
      "type": "function",
      "constant": true
    },
    {
      "inputs": [
        {
          "internalType": "address",
          "name": "spender",
          "type": "address"
        },
        {
          "internalType": "uint256",
          "name": "subtractedValue",
          "type": "uint256"
        }
      ],
      "name": "decreaseAllowance",
      "outputs": [
        {
          "internalType": "bool",
          "name": "",
          "type": "bool"
        }
      ],
      "stateMutability": "nonpayable",
      "type": "function"
    },
    {
      "inputs": [
        {
          "internalType": "address",
          "name": "spender",
          "type": "address"
        },
        {
          "internalType": "uint256",
          "name": "addedValue",
          "type": "uint256"
        }
      ],
      "name": "increaseAllowance",
      "outputs": [
        {
          "internalType": "bool",
          "name": "",
          "type": "bool"
        }
      ],
      "stateMutability": "nonpayable",
      "type": "function"
    },
    {
      "inputs": [],
      "name": "name",
      "outputs": [
        {
          "internalType": "string",
          "name": "",
          "type": "string"
        }
      ],
      "stateMutability": "view",
      "type": "function",
      "constant": true
    },
    {
      "inputs": [],
      "name": "offset",
      "outputs": [
        {
          "internalType": "uint256",
          "name": "",
          "type": "uint256"
        }
      ],
      "stateMutability": "view",
      "type": "function",
      "constant": true
    },
    {
      "inputs": [
        {
          "internalType": "address",
          "name": "",
          "type": "address"
        }
      ],
      "name": "outstandingLoans",
      "outputs": [
        {
          "internalType": "uint256",
          "name": "",
          "type": "uint256"
        }
      ],
      "stateMutability": "view",
      "type": "function",
      "constant": true
    },
    {
      "inputs": [],
      "name": "pool",
      "outputs": [
        {
          "internalType": "address",
          "name": "",
          "type": "address"
        }
      ],
      "stateMutability": "view",
      "type": "function",
      "constant": true
    },
    {
      "inputs": [],
      "name": "symbol",
      "outputs": [
        {
          "internalType": "string",
          "name": "",
          "type": "string"
        }
      ],
      "stateMutability": "view",
      "type": "function",
      "constant": true
    },
    {
      "inputs": [],
      "name": "totalSupply",
      "outputs": [
        {
          "internalType": "uint256",
          "name": "",
          "type": "uint256"
        }
      ],
      "stateMutability": "view",
      "type": "function",
      "constant": true
    },
    {
      "inputs": [
        {
          "internalType": "address",
          "name": "recipient",
          "type": "address"
        },
        {
          "internalType": "uint256",
          "name": "amount",
          "type": "uint256"
        }
      ],
      "name": "transfer",
      "outputs": [
        {
          "internalType": "bool",
          "name": "",
          "type": "bool"
        }
      ],
      "stateMutability": "nonpayable",
      "type": "function"
    },
    {
      "inputs": [
        {
          "internalType": "address",
          "name": "sender",
          "type": "address"
        },
        {
          "internalType": "address",
          "name": "recipient",
          "type": "address"
        },
        {
          "internalType": "uint256",
          "name": "amount",
          "type": "uint256"
        }
      ],
      "name": "transferFrom",
      "outputs": [
        {
          "internalType": "bool",
          "name": "",
          "type": "bool"
        }
      ],
      "stateMutability": "nonpayable",
      "type": "function"
    },
    {
      "inputs": [
        {
          "internalType": "address",
          "name": "proxy",
          "type": "address"
        },
        {
          "internalType": "uint256",
          "name": "amount",
          "type": "uint256"
        }
      ],
      "name": "loan",
      "outputs": [
        {
          "internalType": "bool",
          "name": "",
          "type": "bool"
        }
      ],
      "stateMutability": "nonpayable",
      "type": "function"
    },
    {
      "inputs": [
        {
          "internalType": "address",
          "name": "proxy",
          "type": "address"
        }
      ],
      "name": "resolveLoan",
      "outputs": [
        {
          "internalType": "bool",
          "name": "",
          "type": "bool"
        }
      ],
      "stateMutability": "nonpayable",
      "type": "function"
    },
    {
      "inputs": [
        {
          "internalType": "uint256",
          "name": "value",
          "type": "uint256"
        }
      ],
      "name": "addLiquidity",
      "outputs": [
        {
          "internalType": "uint256",
          "name": "",
          "type": "uint256"
        }
      ],
      "stateMutability": "nonpayable",
      "type": "function"
    },
    {
      "inputs": [
        {
          "internalType": "uint256",
          "name": "value",
          "type": "uint256"
        }
      ],
      "name": "removeLiquidity",
      "outputs": [
        {
          "internalType": "uint256",
          "name": "",
          "type": "uint256"
        }
      ],
      "stateMutability": "nonpayable",
      "type": "function"
    }
  ],
  "bytecode": "0x60806040523480156200001157600080fd5b506040516200163038038062001630833981810160405260a08110156200003757600080fd5b815160208301516040808501805191519395929483019291846401000000008211156200006357600080fd5b9083019060208201858111156200007957600080fd5b82516401000000008111828201881017156200009457600080fd5b82525081516020918201929091019080838360005b83811015620000c3578181015183820152602001620000a9565b50505050905090810190601f168015620000f15780820380516001836020036101000a031916815260200191505b50604052602001805160405193929190846401000000008211156200011557600080fd5b9083019060208201858111156200012b57600080fd5b82516401000000008111828201881017156200014657600080fd5b82525081516020918201929091019080838360005b83811015620001755781810151838201526020016200015b565b50505050905090810190601f168015620001a35780820380516001836020036101000a031916815260200191505b50604052602090810151855190935085925084918491620001cb916000919086019062000233565b508151620001e190600190602085019062000233565b506002805460ff90921660ff199092169190911790555050600680546001600160a01b039687166001600160a01b031991821617909155600780549590961694169390931790935550620002d8915050565b828054600181600116156101000203166002900490600052602060002090601f016020900481019282601f106200027657805160ff1916838001178555620002a6565b82800160010185558215620002a6579182015b82811115620002a657825182559160200191906001019062000289565b50620002b4929150620002b8565b5090565b620002d591905b80821115620002b45760008155600101620002bf565b90565b61134880620002e86000396000f3fe608060405234801561001057600080fd5b50600436106101215760003560e01c806351c6590a116100ad578063a457c2d711610071578063a457c2d714610363578063a9059cbb1461038f578063c3275c79146103bb578063d5556544146103e1578063dd62ed3e146103e957610121565b806351c6590a146102d557806370a08231146102f25780638ee13af21461031857806395d89b411461033e5780639c8f9f231461034657610121565b8063185cc751116100f4578063185cc7511461022157806323b872dd1461024d578063313ce5671461028357806338d52e0f146102a157806339509351146102a957610121565b806306fdde0314610126578063095ea7b3146101a357806316f0115b146101e357806318160ddd14610207575b600080fd5b61012e610417565b6040805160208082528351818301528351919283929083019185019080838360005b83811015610168578181015183820152602001610150565b50505050905090810190601f1680156101955780820380516001836020036101000a031916815260200191505b509250505060405180910390f35b6101cf600480360360408110156101b957600080fd5b506001600160a01b0381351690602001356104ad565b604080519115158252519081900360200190f35b6101eb6104ca565b604080516001600160a01b039092168252519081900360200190f35b61020f6104d9565b60408051918252519081900360200190f35b6101cf6004803603604081101561023757600080fd5b506001600160a01b0381351690602001356104df565b6101cf6004803603606081101561026357600080fd5b506001600160a01b038135811691602081013590911690604001356105cf565b61028b61065c565b6040805160ff9092168252519081900360200190f35b6101eb610665565b6101cf600480360360408110156102bf57600080fd5b506001600160a01b038135169060200135610674565b61020f600480360360208110156102eb57600080fd5b50356106c8565b61020f6004803603602081101561030857600080fd5b50356001600160a01b031661076f565b61020f6004803603602081101561032e57600080fd5b50356001600160a01b031661078a565b61012e61079c565b61020f6004803603602081101561035c57600080fd5b50356107fc565b6101cf6004803603604081101561037957600080fd5b506001600160a01b03813516906020013561085d565b6101cf600480360360408110156103a557600080fd5b506001600160a01b0381351690602001356108cb565b6101cf600480360360208110156103d157600080fd5b50356001600160a01b03166108df565b61020f61096b565b61020f600480360360408110156103ff57600080fd5b506001600160a01b0381358116916020013516610971565b60008054604080516020601f60026000196101006001881615020190951694909404938401819004810282018101909252828152606093909290918301828280156104a35780601f10610478576101008083540402835291602001916104a3565b820191906000526020600020905b81548152906001019060200180831161048657829003601f168201915b5050505050905090565b60006104c16104ba61099c565b84846109a0565b50600192915050565b6006546001600160a01b031681565b60055490565b6006546000906001600160a01b03163314610541576040805162461bcd60e51b815260206004820152601e60248201527f6d7573742062652063616c6c656420627920706f6f6c206d616e616765720000604482015290519081900360640190fd5b60075461055e906001600160a01b0316848463ffffffff610a8c16565b6105a6576040805162461bcd60e51b81526020600482015260146024820152731b1bd85b881d1c985b9cd9995c8819985a5b195960621b604482015290519081900360640190fd5b5060088054820190556001600160a01b0391909116600090815260096020526040902055600190565b60006105dc848484610b45565b610652846105e861099c565b61064d8560405180606001604052806028815260200161125c602891396001600160a01b038a1660009081526004602052604081209061062661099c565b6001600160a01b03168152602081019190915260400160002054919063ffffffff610cae16565b6109a0565b5060019392505050565b60025460ff1690565b6007546001600160a01b031681565b60006104c161068161099c565b8461064d856004600061069261099c565b6001600160a01b03908116825260208083019390935260409182016000908120918c16815292529020549063ffffffff610d4516565b6000806106d36104d9565b905060006106df610da6565b9050600081600101838602816106f157fe5b6007549190049150610714906001600160a01b031633308863ffffffff610e2616565b61075d576040805162461bcd60e51b81526020600482015260156024820152741d1c985b9cd9995c881d1bdad95b8819985a5b1959605a1b604482015290519081900360640190fd5b6107673382610ee1565b949350505050565b6001600160a01b031660009081526003602052604090205490565b60096020526000908152604090205481565b60018054604080516020601f600260001961010087891615020190951694909404938401819004810282018101909252828152606093909290918301828280156104a35780601f10610478576101008083540402835291602001916104a3565b6000806108076104d9565b90506000610813610da6565b90506000828286028161082257fe5b04905061082f3382610fdf565b60075461084c906001600160a01b0316338363ffffffff610a8c16565b61085557600080fd5b505050919050565b60006104c161086a61099c565b8461064d856040518060600160405280602581526020016112ee602591396004600061089461099c565b6001600160a01b03908116825260208083019390935260409182016000908120918d1681529252902054919063ffffffff610cae16565b60006104c16108d861099c565b8484610b45565b6006546000906001600160a01b03163314610941576040805162461bcd60e51b815260206004820152601e60248201527f6d7573742062652063616c6c656420627920706f6f6c206d616e616765720000604482015290519081900360640190fd5b506001600160a01b0316600090815260096020526040812080546008805491909103905555600190565b60085481565b6001600160a01b03918216600090815260046020908152604080832093909416825291909152205490565b3390565b6001600160a01b0383166109e55760405162461bcd60e51b81526004018080602001828103825260248152602001806112ca6024913960400191505060405180910390fd5b6001600160a01b038216610a2a5760405162461bcd60e51b81526004018080602001828103825260228152602001806112146022913960400191505060405180910390fd5b6001600160a01b03808416600081815260046020908152604080832094871680845294825291829020859055815185815291517f8c5be1e5ebec7d5bd14f71427d1e84f3dd0314c0f7b2291e5b200ac8c7c3b9259281900390910190a3505050565b600080846001600160a01b0316610aa385856110e7565b6040518082805190602001908083835b60208310610ad25780518252601f199092019160209182019101610ab3565b6001836020036101000a0380198251168184511680821785525050505050509050019150506000604051808303816000865af19150503d8060008114610b34576040519150601f19603f3d011682016040523d82523d6000602084013e610b39565b606091505b50909695505050505050565b6001600160a01b038316610b8a5760405162461bcd60e51b81526004018080602001828103825260258152602001806112a56025913960400191505060405180910390fd5b6001600160a01b038216610bcf5760405162461bcd60e51b81526004018080602001828103825260238152602001806111cf6023913960400191505060405180910390fd5b610bda838383611133565b610c1d81604051806060016040528060268152602001611236602691396001600160a01b038616600090815260036020526040902054919063ffffffff610cae16565b6001600160a01b038085166000908152600360205260408082209390935590841681522054610c52908263ffffffff610d4516565b6001600160a01b0380841660008181526003602090815260409182902094909455805185815290519193928716927fddf252ad1be2c89b69c2b068fc378daa952ba7f163c4a11628f55a4df523b3ef92918290030190a3505050565b60008184841115610d3d5760405162461bcd60e51b81526004018080602001828103825283818151815260200191508051906020019080838360005b83811015610d02578181015183820152602001610cea565b50505050905090810190601f168015610d2f5780820380516001836020036101000a031916815260200191505b509250505060405180910390fd5b505050900390565b600082820183811015610d9f576040805162461bcd60e51b815260206004820152601b60248201527f536166654d6174683a206164646974696f6e206f766572666c6f770000000000604482015290519081900360640190fd5b9392505050565b600754604080516370a0823160e01b815230600482015290516000926001600160a01b0316916370a08231916024808301926020929190829003018186803b158015610df157600080fd5b505afa158015610e05573d6000803e3d6000fd5b505050506040513d6020811015610e1b57600080fd5b505160085401905090565b600080856001600160a01b0316610e3e868686611138565b6040518082805190602001908083835b60208310610e6d5780518252601f199092019160209182019101610e4e565b6001836020036101000a0380198251168184511680821785525050505050509050019150506000604051808303816000865af19150503d8060008114610ecf576040519150601f19603f3d011682016040523d82523d6000602084013e610ed4565b606091505b5090979650505050505050565b6001600160a01b038216610f3c576040805162461bcd60e51b815260206004820152601f60248201527f45524332303a206d696e7420746f20746865207a65726f206164647265737300604482015290519081900360640190fd5b610f4860008383611133565b600554610f5b908263ffffffff610d4516565b6005556001600160a01b038216600090815260036020526040902054610f87908263ffffffff610d4516565b6001600160a01b03831660008181526003602090815260408083209490945583518581529351929391927fddf252ad1be2c89b69c2b068fc378daa952ba7f163c4a11628f55a4df523b3ef9281900390910190a35050565b6001600160a01b0382166110245760405162461bcd60e51b81526004018080602001828103825260218152602001806112846021913960400191505060405180910390fd5b61103082600083611133565b611073816040518060600160405280602281526020016111f2602291396001600160a01b038516600090815260036020526040902054919063ffffffff610cae16565b6001600160a01b03831660009081526003602052604090205560055461109f908263ffffffff61118c16565b6005556040805182815290516000916001600160a01b038516917fddf252ad1be2c89b69c2b068fc378daa952ba7f163c4a11628f55a4df523b3ef9181900360200190a35050565b604080516001600160a01b0390931660248401526044808401929092528051808403909201825260649092019091526020810180516001600160e01b031663a9059cbb60e01b17905290565b505050565b604080516001600160a01b03948516602482015293909216604484015260648084019190915281518084039091018152608490920190526020810180516001600160e01b03166323b872dd60e01b17905290565b6000610d9f83836040518060400160405280601e81526020017f536166654d6174683a207375627472616374696f6e206f766572666c6f770000815250610cae56fe45524332303a207472616e7366657220746f20746865207a65726f206164647265737345524332303a206275726e20616d6f756e7420657863656564732062616c616e636545524332303a20617070726f766520746f20746865207a65726f206164647265737345524332303a207472616e7366657220616d6f756e7420657863656564732062616c616e636545524332303a207472616e7366657220616d6f756e74206578636565647320616c6c6f77616e636545524332303a206275726e2066726f6d20746865207a65726f206164647265737345524332303a207472616e736665722066726f6d20746865207a65726f206164647265737345524332303a20617070726f76652066726f6d20746865207a65726f206164647265737345524332303a2064656372656173656420616c6c6f77616e63652062656c6f77207a65726fa2646970667358221220136378179013447ae76799d83445830a00827801b3e3dd82912966b243cfc82a64736f6c63430006060033",
  "source": "pragma solidity ^0.6.0;\n\nimport { ERC20 } from \"openzeppelin-solidity/contracts/token/ERC20/ERC20.sol\";\nimport { ERC20Detailed } from \"openzeppelin-solidity/contracts/token/ERC20/ERC20Detailed.sol\";\nimport { IERC20 } from \"openzeppelin-solidity/contracts/token/ERC20/IERC20.sol\";\nimport { TokenUtils } from \"./utils/TokenUtils.sol\";\n\ncontract LiquidityToken is ERC20Detailed, ERC20 {\n  using TokenUtils for *;\n  address public pool;\n  address public asset;\n  uint256 public offset;\n  mapping (address => uint256) public outstandingLoans;\n  constructor(address shifterPool, address underlyingAsset, string memory name, string memory symbol, uint8 decimals) ERC20Detailed(name, symbol, decimals) public {\n    pool = shifterPool;\n    asset = underlyingAsset;\n  }\n  modifier onlyPool {\n    require(msg.sender == pool, \"must be called by pool manager\");\n    _;\n  }\n  function loan(address proxy, uint256 amount) public onlyPool returns (bool) {\n    require(asset.sendToken(proxy, amount), \"loan transfer failed\");\n    offset += amount;\n    outstandingLoans[proxy] = amount;\n    return true;\n  }\n  function resolveLoan(address proxy) public onlyPool returns (bool) {\n    offset -= outstandingLoans[proxy];\n    outstandingLoans[proxy] = 0;\n    return true;\n  }\n  function getReserve() internal view returns (uint256) {\n    return offset + IERC20(asset).balanceOf(address(this));\n  }\n  function addLiquidity(uint256 value) public returns (uint256) {\n    uint256 totalLiquidity = totalSupply();\n    uint256 reserve = getReserve();\n    uint256 totalMinted = value * totalLiquidity / (reserve + 1);\n    require(asset.transferTokenFrom(msg.sender, address(this), value), \"transfer token failed\");\n    _mint(msg.sender, totalMinted);\n    return totalMinted;\n  }\n  function removeLiquidity(uint256 value) public returns (uint256) {\n    uint256 totalLiquidity = totalSupply();\n    uint256 reserve = getReserve();\n    uint256 totalBurned = value * reserve / totalLiquidity;\n    _burn(msg.sender, totalBurned);\n    require(asset.sendToken(msg.sender, totalBurned));\n  }\n}\n",
  "sourcePath": "/home/ray/0confirmation/packages/0confirmation-sol/contracts/LiquidityToken.sol",
  "compiler": {
    "name": "solc",
    "version": "0.6.6+commit.6c089d02.Emscripten.clang"
  },
  "schemaVersion": "3.0.23",
  "updatedAt": "2020-04-23T09:31:16.663Z",
  "networkType": "ethereum",
  "devdoc": {
    "methods": {
      "allowance(address,address)": {
        "details": "See {IERC20-allowance}."
      },
      "approve(address,uint256)": {
        "details": "See {IERC20-approve}.     * Requirements:     * - `spender` cannot be the zero address."
      },
      "balanceOf(address)": {
        "details": "See {IERC20-balanceOf}."
      },
      "decimals()": {
        "details": "Returns the number of decimals used to get its user representation. For example, if `decimals` equals `2`, a balance of `505` tokens should be displayed to a user as `5,05` (`505 / 10 ** 2`).     * Tokens usually opt for a value of 18, imitating the relationship between Ether and Wei.     * NOTE: This information is only used for _display_ purposes: it in no way affects any of the arithmetic of the contract, including {IERC20-balanceOf} and {IERC20-transfer}."
      },
      "decreaseAllowance(address,uint256)": {
        "details": "Atomically decreases the allowance granted to `spender` by the caller.     * This is an alternative to {approve} that can be used as a mitigation for problems described in {IERC20-approve}.     * Emits an {Approval} event indicating the updated allowance.     * Requirements:     * - `spender` cannot be the zero address. - `spender` must have allowance for the caller of at least `subtractedValue`."
      },
      "increaseAllowance(address,uint256)": {
        "details": "Atomically increases the allowance granted to `spender` by the caller.     * This is an alternative to {approve} that can be used as a mitigation for problems described in {IERC20-approve}.     * Emits an {Approval} event indicating the updated allowance.     * Requirements:     * - `spender` cannot be the zero address."
      },
      "name()": {
        "details": "Returns the name of the token."
      },
      "symbol()": {
        "details": "Returns the symbol of the token, usually a shorter version of the name."
      },
      "totalSupply()": {
        "details": "See {IERC20-totalSupply}."
      },
      "transfer(address,uint256)": {
        "details": "See {IERC20-transfer}.     * Requirements:     * - `recipient` cannot be the zero address. - the caller must have a balance of at least `amount`."
      },
      "transferFrom(address,address,uint256)": {
        "details": "See {IERC20-transferFrom}.     * Emits an {Approval} event indicating the updated allowance. This is not required by the EIP. See the note at the beginning of {ERC20};     * Requirements: - `sender` and `recipient` cannot be the zero address. - `sender` must have a balance of at least `amount`. - the caller must have allowance for `sender`'s tokens of at least `amount`."
      }
    }
  },
  "userdoc": {
    "methods": {}
  }
}