{
  "contractName": "NullCloneConstructor",
  "abi": [
    {
      "inputs": [
        {
          "internalType": "bytes",
          "name": "consData",
          "type": "bytes"
        }
      ],
      "name": "cloneConstructor",
      "outputs": [],
      "stateMutability": "nonpayable",
      "type": "function"
    }
  ],
  "bytecode": "0x608060405234801561001057600080fd5b50610108806100206000396000f3fe6080604052348015600f57600080fd5b506004361060285760003560e01c806352e831dd14602d575b600080fd5b60cd60048036036020811015604157600080fd5b810190602081018135640100000000811115605b57600080fd5b820183602082011115606c57600080fd5b80359060200191846001830284011164010000000083111715608d57600080fd5b91908080601f01602080910402602001604051908101604052809392919081815260200183838082843760009201919091525092955060cf945050505050565b005b5056fea26469706673582212201013eaad18fe61f3e3ec2393242cc153647b1faddb761d7fbd008ed57cd65d6664736f6c63430006080033",
  "immutableReferences": {},
  "source": "// SPDX-License-Identifier: MIT\npragma solidity ^0.6.0;\n\ncontract NullCloneConstructor {\n  function cloneConstructor(bytes memory consData) public {\n    // do nothing\n  }\n}\n",
  "sourcePath": "/home/ray/0cf-mation/packages/0confirmation-sol/contracts/NullCloneConstructor.sol",
  "compiler": {
    "name": "solc",
    "version": "0.6.8+commit.0bbfe453.Emscripten.clang"
  },
  "schemaVersion": "3.2.0",
  "updatedAt": "2020-05-26T03:09:58.973Z",
  "devdoc": {
    "methods": {}
  },
  "userdoc": {
    "methods": {}
  }
}