{
  "contractName": "PortfolioReaderView",
  "abi": [
    {
      "inputs": [
        {
          "internalType": "address",
          "name": "moduleAddress",
          "type": "address"
        },
        {
          "components": [
            {
              "internalType": "address payable",
              "name": "token",
              "type": "address"
            },
            {
              "internalType": "address[]",
              "name": "balanceQueries",
              "type": "address[]"
            },
            {
              "components": [
                {
                  "internalType": "address payable",
                  "name": "sourceAddress",
                  "type": "address"
                },
                {
                  "internalType": "address payable",
                  "name": "targetAddress",
                  "type": "address"
                }
              ],
              "internalType": "struct TokenQueryLib.ApprovalQueryPayload[]",
              "name": "approvalQueries",
              "type": "tuple[]"
            }
          ],
          "internalType": "struct TokenQueryLib.TokenQueryPayload",
          "name": "query",
          "type": "tuple"
        }
      ],
      "name": "render",
      "outputs": [
        {
          "components": [
            {
              "internalType": "address payable",
              "name": "token",
              "type": "address"
            },
            {
              "components": [
                {
                  "components": [
                    {
                      "internalType": "bool",
                      "name": "success",
                      "type": "bool"
                    },
                    {
                      "internalType": "bytes",
                      "name": "value",
                      "type": "bytes"
                    }
                  ],
                  "internalType": "struct TokenQueryLib.DataResult",
                  "name": "name",
                  "type": "tuple"
                },
                {
                  "components": [
                    {
                      "internalType": "bool",
                      "name": "success",
                      "type": "bool"
                    },
                    {
                      "internalType": "bytes",
                      "name": "value",
                      "type": "bytes"
                    }
                  ],
                  "internalType": "struct TokenQueryLib.DataResult",
                  "name": "symbol",
                  "type": "tuple"
                },
                {
                  "components": [
                    {
                      "internalType": "bool",
                      "name": "success",
                      "type": "bool"
                    },
                    {
                      "internalType": "bytes",
                      "name": "value",
                      "type": "bytes"
                    }
                  ],
                  "internalType": "struct TokenQueryLib.DataResult",
                  "name": "decimals",
                  "type": "tuple"
                },
                {
                  "components": [
                    {
                      "internalType": "bool",
                      "name": "success",
                      "type": "bool"
                    },
                    {
                      "internalType": "bytes",
                      "name": "value",
                      "type": "bytes"
                    }
                  ],
                  "internalType": "struct TokenQueryLib.DataResult[]",
                  "name": "balanceQueryResults",
                  "type": "tuple[]"
                },
                {
                  "components": [
                    {
                      "internalType": "bool",
                      "name": "success",
                      "type": "bool"
                    },
                    {
                      "internalType": "bytes",
                      "name": "value",
                      "type": "bytes"
                    }
                  ],
                  "internalType": "struct TokenQueryLib.DataResult[]",
                  "name": "approvalQueryResults",
                  "type": "tuple[]"
                }
              ],
              "internalType": "struct TokenQueryLib.TokenQueryResult",
              "name": "data",
              "type": "tuple"
            }
          ],
          "internalType": "struct PortfolioReaderViewLib.PortfolioEntry[]",
          "name": "",
          "type": "tuple[]"
        }
      ],
      "stateMutability": "nonpayable",
      "type": "function"
    }
  ],
  "bytecode": "0x608060405234801561001057600080fd5b50610afb806100206000396000f3fe608060405234801561001057600080fd5b506004361061002b5760003560e01c8063796876da14610030575b600080fd5b61004361003e366004610706565b610059565b6040516100509190610939565b60405180910390f35b60606100746001600160a01b0384168363ffffffff61007d16565b90505b92915050565b6060600061008a84610224565b90506060816003016001018054806020026020016040519081016040528092919081815260200182805480156100e957602002820191906000526020600020905b81546001600160a01b031681526001909101906020018083116100cb575b505050505090506060815160010160405190808252806020026020018201604052801561013057816020015b61011d6105d6565b8152602001906001900390816101155790505b50905084600001518160008151811061014557fe5b60209081029190910101516001600160a01b03909116905261016685610237565b8160008151811061017357fe5b602090810291909101810151015260005b825181101561021a5782818151811061019957fe5b60200260200101518282600101815181106101b057fe5b60209081029190910101516001600160a01b03909116905282518390829081106101d657fe5b60209081029190910101516001600160a01b031686526101f586610237565b82826001018151811061020457fe5b6020908102919091018101510152600101610184565b5095945050505050565b6000610077610232836103b0565b6103e1565b61023f6105fe565b815161024a906103fc565b8152815161025790610438565b6020820152815161026790610474565b81604001819052508160200151516040519080825280602002602001820160405280156102ae57816020015b61029b61063f565b8152602001906001900390816102935790505b50606082015260005b81606001515181101561030c576102e98360000151846020015183815181106102dc57fe5b60200260200101516104b0565b826060015182815181106102f957fe5b60209081029190910101526001016102b7565b5081604001515160405190808252806020026020018201604052801561034c57816020015b61033961063f565b8152602001906001900390816103315790505b50608082015260005b8160800151518110156103aa576103878360400151828151811061037557fe5b602002602001015184600001516104fc565b8260800151828151811061039757fe5b6020908102919091010152600101610355565b50919050565b6000816040516020016103c391906108d2565b60408051601f19818403018152919052805160209091012092915050565b600061054f806103f48463ffffffff8316565b949350505050565b61040461063f565b6040805160048152602481019091526020810180516001600160e01b03166306fdde0360e01b179052610077908390610552565b61044061063f565b6040805160048152602481019091526020810180516001600160e01b03166395d89b4160e01b179052610077908390610552565b61047c61063f565b6040805160048152602481019091526020810180516001600160e01b031663313ce56760e01b179052610077908390610552565b6104b861063f565b61007483836040516024016104cd919061090b565b60408051601f198184030181529190526020810180516001600160e01b03166370a0823160e01b179052610552565b61050461063f565b825160208401516040516100749285926105209260240161091f565b60408051601f198184030181529190526020810180516001600160e01b031663f4b1604560e01b179052610552565b90565b61055a61063f565b60006060846001600160a01b03168460405161057691906108b6565b6000604051808303816000865af19150503d80600081146105b3576040519150601f19603f3d011682016040523d82523d6000602084013e6105b8565b606091505b50604080518082019091529115158252602082015295945050505050565b604051806040016040528060006001600160a01b031681526020016105f96105fe565b905290565b6040518060a0016040528061061161063f565b815260200161061e61063f565b815260200161062b61063f565b815260200160608152602001606081525090565b60408051808201909152600081526060602082015290565b803561007781610aad565b600082601f830112610672578081fd5b813561068561068082610a5d565b610a36565b81815291506020808301908481016040808502870183018810156106a857600080fd5b6000805b868110156106f95782848b0312156106c2578182fd5b6106cb83610a36565b6106d58b86610657565b81526106e38b878701610657565b81870152865294840194928201926001016106ac565b5050505050505092915050565b60008060408385031215610718578182fd5b823561072381610aad565b915060208381013567ffffffffffffffff80821115610740578384fd5b81860160608189031215610752578485fd5b61075c6060610a36565b9250803561076981610aad565b8352808401358281111561077b578586fd5b80820189601f82011261078c578687fd5b8035915061079c61068083610a5d565b82815286810190828801888502840189018d10156107b857898afd5b8993505b848410156107e35780356107cf81610aad565b8352600193909301929188019188016107bc565b508088880152505050506040810135935081841115610800578485fd5b61080c88858301610662565b60408401525093969095509350505050565b60008282518085526020808601955080818302840101818601855b8481101561086757601f19868403018952610855838351610874565b98840198925090830190600101610839565b5090979650505050505050565b600081511515835260208201516040602085015280518060408601526108a1816060870160208501610a7d565b601f01601f1916939093016060019392505050565b600082516108c8818460208701610a7d565b9190910192915050565b7234b9b7b630ba329739b4b6b8363296b13ab93760691b815260609190911b6bffffffffffffffffffffffff1916601382015260270190565b6001600160a01b0391909116815260200190565b6001600160a01b0392831681529116602082015260400190565b60208082528251828201819052600091906040908185019080840286018301878501865b83811015610a2857603f1989840381018652825180516001600160a01b03168552880151888501889052805160a08987018190529091906109a160e0880184610874565b8b830151935060608589830301818a01526109bc8286610874565b8c850151955060809250868a820301838b01526109d98187610874565b828601519650878b820301858c01526109f2818861081e565b945050505080830151935050838782030160c0880152610a12818461081e565b988b01989650505092880192505060010161095d565b509098975050505050505050565b60405181810167ffffffffffffffff81118282101715610a5557600080fd5b604052919050565b600067ffffffffffffffff821115610a73578081fd5b5060209081020190565b60005b83811015610a98578181015183820152602001610a80565b83811115610aa7576000848401525b50505050565b6001600160a01b0381168114610ac257600080fd5b5056fea264697066735822122066274ff6aed3981b4d9d52f025ac313333da215d3504e3ef32e4c1bbd862328964736f6c63430006020033",
  "source": "pragma solidity ^0.6.0;\npragma experimental ABIEncoderV2;\n\nimport { PortfolioReaderViewLib } from \"./PortfolioReaderViewLib.sol\";\nimport { TokenQueryLib } from \"../token/TokenQueryLib.sol\";\n\ncontract PortfolioReaderView {\n  using PortfolioReaderViewLib for *;\n  function render(address moduleAddress, TokenQueryLib.TokenQueryPayload memory query) public returns (PortfolioReaderViewLib.PortfolioEntry[] memory) {\n    return moduleAddress.executePortfolioReaderViewLogic(query);\n  }\n}\n",
  "sourcePath": "/home/ray/0confirmation/packages/0confirmation-sol/contracts/queries/portfolio/PortfolioReaderView.sol",
  "compiler": {
    "name": "solc",
    "version": "0.6.2+commit.bacdbe57.Emscripten.clang"
  },
  "schemaVersion": "3.0.23",
  "updatedAt": "2020-04-04T04:47:51.051Z",
  "devdoc": {
    "methods": {}
  },
  "userdoc": {
    "methods": {}
  }
}