{
  "contractName": "PortfolioReaderView",
  "abi": [
    {
      "inputs": [
        {
          "components": [
            {
              "internalType": "address payable",
              "name": "token",
              "type": "address"
            },
            {
              "internalType": "address[]",
              "name": "balanceQueries",
              "type": "address[]"
            },
            {
              "components": [
                {
                  "internalType": "address payable",
                  "name": "sourceAddress",
                  "type": "address"
                },
                {
                  "internalType": "address payable",
                  "name": "targetAddress",
                  "type": "address"
                }
              ],
              "internalType": "struct TokenQueryLib.ApprovalQueryPayload[]",
              "name": "approvalQueries",
              "type": "tuple[]"
            }
          ],
          "internalType": "struct TokenQueryLib.TokenQueryPayload",
          "name": "query",
          "type": "tuple"
        }
      ],
      "name": "render",
      "outputs": [
        {
          "components": [
            {
              "internalType": "address payable",
              "name": "token",
              "type": "address"
            },
            {
              "components": [
                {
                  "components": [
                    {
                      "internalType": "bool",
                      "name": "success",
                      "type": "bool"
                    },
                    {
                      "internalType": "bytes",
                      "name": "value",
                      "type": "bytes"
                    }
                  ],
                  "internalType": "struct TokenQueryLib.DataResult",
                  "name": "name",
                  "type": "tuple"
                },
                {
                  "components": [
                    {
                      "internalType": "bool",
                      "name": "success",
                      "type": "bool"
                    },
                    {
                      "internalType": "bytes",
                      "name": "value",
                      "type": "bytes"
                    }
                  ],
                  "internalType": "struct TokenQueryLib.DataResult",
                  "name": "symbol",
                  "type": "tuple"
                },
                {
                  "components": [
                    {
                      "internalType": "bool",
                      "name": "success",
                      "type": "bool"
                    },
                    {
                      "internalType": "bytes",
                      "name": "value",
                      "type": "bytes"
                    }
                  ],
                  "internalType": "struct TokenQueryLib.DataResult",
                  "name": "decimals",
                  "type": "tuple"
                },
                {
                  "components": [
                    {
                      "internalType": "bool",
                      "name": "success",
                      "type": "bool"
                    },
                    {
                      "internalType": "bytes",
                      "name": "value",
                      "type": "bytes"
                    }
                  ],
                  "internalType": "struct TokenQueryLib.DataResult[]",
                  "name": "balanceQueryResults",
                  "type": "tuple[]"
                },
                {
                  "components": [
                    {
                      "internalType": "bool",
                      "name": "success",
                      "type": "bool"
                    },
                    {
                      "internalType": "bytes",
                      "name": "value",
                      "type": "bytes"
                    }
                  ],
                  "internalType": "struct TokenQueryLib.DataResult[]",
                  "name": "approvalQueryResults",
                  "type": "tuple[]"
                }
              ],
              "internalType": "struct TokenQueryLib.TokenQueryResult",
              "name": "data",
              "type": "tuple"
            }
          ],
          "internalType": "struct PortfolioReaderViewLib.PortfolioEntry[]",
          "name": "",
          "type": "tuple[]"
        }
      ],
      "stateMutability": "nonpayable",
      "type": "function"
    }
  ],
  "bytecode": "0x608060405234801561001057600080fd5b50610b0d806100206000396000f3fe608060405234801561001057600080fd5b506004361061002b5760003560e01c80639e2ba4e514610030575b600080fd5b61004361003e366004610734565b610059565b604051610050919061094f565b60405180910390f35b60606100648261006a565b92915050565b60606000610076610226565b90506060816002016001018054806020026020016040519081016040528092919081815260200182805480156100d557602002820191906000526020600020905b81546001600160a01b031681526001909101906020018083116100b7575b505050505090506060815160010167ffffffffffffffff811180156100f957600080fd5b5060405190808252806020026020018201604052801561013357816020015b61012061060d565b8152602001906001900390816101185790505b50905084600001518160008151811061014857fe5b60209081029190910101516001600160a01b0390911690526101698561023d565b8160008151811061017657fe5b602090810291909101810151015260005b825181101561021d5782818151811061019c57fe5b60200260200101518282600101815181106101b357fe5b60209081029190910101516001600160a01b03909116905282518390829081106101d957fe5b60209081029190910101516001600160a01b031686526101f88661023d565b82826001018151811061020757fe5b6020908102919091018101510152600101610187565b50949350505050565b60006102386102336103e1565b610410565b905090565b610245610635565b815161025090610426565b8152815161025d90610426565b6020820152815161026d9061043f565b604082015260208201515167ffffffffffffffff8111801561028e57600080fd5b506040519080825280602002602001820160405280156102c857816020015b6102b5610676565b8152602001906001900390816102ad5790505b50606082015260005b816060015151811015610326576103038360000151846020015183815181106102f657fe5b6020026020010151610453565b8260600151828151811061031357fe5b60209081029190910101526001016102d1565b5081604001515167ffffffffffffffff8111801561034357600080fd5b5060405190808252806020026020018201604052801561037d57816020015b61036a610676565b8152602001906001900390816103625790505b50608082015260005b8160800151518110156103db576103b8836040015182815181106103a657fe5b6020026020010151846000015161046f565b826080015182815181106103c857fe5b6020908102919091010152600101610386565b50919050565b60006040516020016103f290610902565b6040516020818303038152906040528051906020012060001c905090565b60006100648261041e61048d565b63ffffffff16565b61042e610676565b6100648261043a610493565b6104c2565b610447610676565b6100648261043a610546565b61045b610676565b6104688361043a84610561565b9392505050565b610477610676565b6104688261043a856000015186602001516105b4565b61060a90565b6040516060906104ae906395d89b4160e01b906020016108d1565b604051602081830303815290604052905090565b6104ca610676565b60006060846001600160a01b0316846040516104e691906108e6565b6000604051808303816000865af19150503d8060008114610523576040519150601f19603f3d011682016040523d82523d6000602084013e610528565b606091505b50604080518082019091529115158252602082015295945050505050565b6040516060906104ae9063313ce56760e01b906020016108d1565b60606370a0823160e01b8260405160240161057c9190610921565b60408051601f198184030181529190526020810180516001600160e01b03166001600160e01b03199093169290921790915292915050565b606063dd62ed3e60e01b83836040516024016105d1929190610935565b60408051601f198184030181529190526020810180516001600160e01b03166001600160e01b0319909316929092179091529392505050565b90565b604051806040016040528060006001600160a01b03168152602001610630610635565b905290565b6040518060a00160405280610648610676565b8152602001610655610676565b8152602001610662610676565b815260200160608152602001606081525090565b60408051808201909152600081526060602082015290565b600082601f83011261069e578081fd5b81356106b16106ac82610a6f565b610a48565b81815291506020808301908481016040808502870183018810156106d457600080fd5b6000805b868110156107275782848b0312156106ee578182fd5b6106f783610a48565b843561070281610abf565b81528486013561071181610abf565b81870152865294840194928201926001016106d8565b5050505050505092915050565b60006020808385031215610746578182fd5b823567ffffffffffffffff8082111561075d578384fd5b8185016060818803121561076f578485fd5b6107796060610a48565b9250803561078681610abf565b83528084013582811115610798578586fd5b80820188601f8201126107a9578687fd5b803591506107b96106ac83610a6f565b82815286810190828801888502840189018c10156107d557898afd5b8993505b848410156108005780356107ec81610abf565b8352600193909301929188019188016107d9565b50808888015250505050604081013593508184111561081d578485fd5b6108298785830161068e565b6040840152509095945050505050565b60008282518085526020808601955080818302840101818601855b8481101561088257601f1986840301895261087083835161088f565b98840198925090830190600101610854565b5090979650505050505050565b600081511515835260208201516040602085015280518060408601526108bc816060870160208501610a8f565b601f01601f1916939093016060019392505050565b6001600160e01b031991909116815260040190565b600082516108f8818460208701610a8f565b9190910192915050565b7234b9b7b630ba329739b4b6b8363296b13ab93760691b815260130190565b6001600160a01b0391909116815260200190565b6001600160a01b0392831681529116602082015260400190565b60208082528251828201819052600091906040908185019080840286018301878501865b83811015610a3a57603f1989840381018652825180516001600160a01b03168552880151888501889052805160a089870181905291906109b660e088018261088f565b8b8301519150848882030160608901526109d0818361088f565b8b8401519250858982030160808a01526109ea818461088f565b91505060608301519150848882030184890152610a078183610839565b935050506080810151838784030160c0880152610a248382610839565b988b019896505050928801925050600101610973565b509098975050505050505050565b60405181810167ffffffffffffffff81118282101715610a6757600080fd5b604052919050565b600067ffffffffffffffff821115610a85578081fd5b5060209081020190565b60005b83811015610aaa578181015183820152602001610a92565b83811115610ab9576000848401525b50505050565b6001600160a01b0381168114610ad457600080fd5b5056fea26469706673582212204ea4006e1d9aa46ee43af439f124129d15a1c25246c1e96e249f1df8d2c0893764736f6c63430006060033",
  "source": "pragma solidity ^0.6.0;\npragma experimental ABIEncoderV2;\n\nimport { TokenQueryLib } from \"../token/TokenQueryLib.sol\";\nimport { PortfolioReaderViewLib } from \"./PortfolioReaderViewLib.sol\";\n\ncontract PortfolioReaderView {\n  using PortfolioReaderViewLib for *;\n  function render(TokenQueryLib.TokenQueryPayload memory query) public returns (PortfolioReaderViewLib.PortfolioEntry[] memory) {\n    return query.executePortfolioReaderViewLogic();\n  }\n}\n",
  "sourcePath": "/home/ray/0confirmation/packages/0confirmation-sol/contracts/queries/portfolio/PortfolioReaderView.sol",
  "compiler": {
    "name": "solc",
    "version": "0.6.6+commit.6c089d02.Emscripten.clang"
  },
  "schemaVersion": "3.0.23",
  "updatedAt": "2020-04-23T03:22:45.323Z",
  "devdoc": {
    "methods": {}
  },
  "userdoc": {
    "methods": {}
  }
}