{
  "contractName": "PortfolioReaderView",
  "abi": [
    {
      "inputs": [
        {
          "internalType": "address",
          "name": "moduleAddress",
          "type": "address"
        },
        {
          "components": [
            {
              "internalType": "address payable",
              "name": "token",
              "type": "address"
            },
            {
              "internalType": "address[]",
              "name": "balanceQueries",
              "type": "address[]"
            },
            {
              "components": [
                {
                  "internalType": "address payable",
                  "name": "sourceAddress",
                  "type": "address"
                },
                {
                  "internalType": "address payable",
                  "name": "targetAddress",
                  "type": "address"
                }
              ],
              "internalType": "struct TokenQueryLib.ApprovalQueryPayload[]",
              "name": "approvalQueries",
              "type": "tuple[]"
            }
          ],
          "internalType": "struct TokenQueryLib.TokenQueryPayload",
          "name": "query",
          "type": "tuple"
        }
      ],
      "name": "render",
      "outputs": [
        {
          "components": [
            {
              "internalType": "address payable",
              "name": "token",
              "type": "address"
            },
            {
              "components": [
                {
                  "components": [
                    {
                      "internalType": "bool",
                      "name": "success",
                      "type": "bool"
                    },
                    {
                      "internalType": "bytes",
                      "name": "value",
                      "type": "bytes"
                    }
                  ],
                  "internalType": "struct TokenQueryLib.DataResult",
                  "name": "name",
                  "type": "tuple"
                },
                {
                  "components": [
                    {
                      "internalType": "bool",
                      "name": "success",
                      "type": "bool"
                    },
                    {
                      "internalType": "bytes",
                      "name": "value",
                      "type": "bytes"
                    }
                  ],
                  "internalType": "struct TokenQueryLib.DataResult",
                  "name": "symbol",
                  "type": "tuple"
                },
                {
                  "components": [
                    {
                      "internalType": "bool",
                      "name": "success",
                      "type": "bool"
                    },
                    {
                      "internalType": "bytes",
                      "name": "value",
                      "type": "bytes"
                    }
                  ],
                  "internalType": "struct TokenQueryLib.DataResult",
                  "name": "decimals",
                  "type": "tuple"
                },
                {
                  "components": [
                    {
                      "internalType": "bool",
                      "name": "success",
                      "type": "bool"
                    },
                    {
                      "internalType": "bytes",
                      "name": "value",
                      "type": "bytes"
                    }
                  ],
                  "internalType": "struct TokenQueryLib.DataResult[]",
                  "name": "balanceQueryResults",
                  "type": "tuple[]"
                },
                {
                  "components": [
                    {
                      "internalType": "bool",
                      "name": "success",
                      "type": "bool"
                    },
                    {
                      "internalType": "bytes",
                      "name": "value",
                      "type": "bytes"
                    }
                  ],
                  "internalType": "struct TokenQueryLib.DataResult[]",
                  "name": "approvalQueryResults",
                  "type": "tuple[]"
                }
              ],
              "internalType": "struct TokenQueryLib.TokenQueryResult",
              "name": "data",
              "type": "tuple"
            }
          ],
          "internalType": "struct PortfolioReaderViewLib.PortfolioEntry[]",
          "name": "",
          "type": "tuple[]"
        }
      ],
      "stateMutability": "nonpayable",
      "type": "function"
    }
  ],
  "bytecode": "0x608060405234801561001057600080fd5b50610b8e806100206000396000f3fe608060405234801561001057600080fd5b506004361061002b5760003560e01c8063796876da14610030575b600080fd5b61004361003e36600461077e565b610059565b60405161005091906109ce565b60405180910390f35b60606100746001600160a01b0384168363ffffffff61007b16565b9392505050565b6060600061008884610222565b90506060816003016001018054806020026020016040519081016040528092919081815260200182805480156100e757602002820191906000526020600020905b81546001600160a01b031681526001909101906020018083116100c9575b505050505090506060815160010160405190808252806020026020018201604052801561012e57816020015b61011b610657565b8152602001906001900390816101135790505b50905084600001518160008151811061014357fe5b60209081029190910101516001600160a01b0390911690526101648561023b565b8160008151811061017157fe5b602090810291909101810151015260005b82518110156102185782818151811061019757fe5b60200260200101518282600101815181106101ae57fe5b60209081029190910101516001600160a01b03909116905282518390829081106101d457fe5b60209081029190910101516001600160a01b031686526101f38661023b565b82826001018151811061020257fe5b6020908102919091018101510152600101610182565b5095945050505050565b6000610235610230836103b4565b6103e5565b92915050565b61024361067f565b815161024e90610400565b8152815161025b90610455565b6020820152815161026b906104aa565b81604001819052508160200151516040519080825280602002602001820160405280156102b257816020015b61029f6106c0565b8152602001906001900390816102975790505b50606082015260005b816060015151811015610310576102ed8360000151846020015183815181106102e057fe5b60200260200101516104ff565b826060015182815181106102fd57fe5b60209081029190910101526001016102bb565b5081604001515160405190808252806020026020018201604052801561035057816020015b61033d6106c0565b8152602001906001900390816103355790505b50608082015260005b8160800151518110156103ae5761038b8360400151828151811061037957fe5b60200260200101518460000151610564565b8260800151828151811061039b57fe5b6020908102919091010152600101610359565b50919050565b6000816040516020016103c7919061094a565b60408051601f19818403018152919052805160209091012092915050565b60006105d0806103f88463ffffffff8316565b949350505050565b6104086106c0565b6040805160048152602481019091526020810180516001600160e01b03167f06fdde03000000000000000000000000000000000000000000000000000000001790526102359083906105d3565b61045d6106c0565b6040805160048152602481019091526020810180516001600160e01b03167f95d89b41000000000000000000000000000000000000000000000000000000001790526102359083906105d3565b6104b26106c0565b6040805160048152602481019091526020810180516001600160e01b03167f313ce567000000000000000000000000000000000000000000000000000000001790526102359083906105d3565b6105076106c0565b610074838360405160240161051c91906109a0565b60408051601f198184030181529190526020810180516001600160e01b03167f70a08231000000000000000000000000000000000000000000000000000000001790526105d3565b61056c6106c0565b82516020840151604051610074928592610588926024016109b4565b60408051601f198184030181529190526020810180516001600160e01b03167ff4b16045000000000000000000000000000000000000000000000000000000001790526105d3565b90565b6105db6106c0565b60006060846001600160a01b0316846040516105f7919061092e565b6000604051808303816000865af19150503d8060008114610634576040519150601f19603f3d011682016040523d82523d6000602084013e610639565b606091505b50604080518082019091529115158252602082015295945050505050565b604051806040016040528060006001600160a01b0316815260200161067a61067f565b905290565b6040518060a001604052806106926106c0565b815260200161069f6106c0565b81526020016106ac6106c0565b815260200160608152602001606081525090565b60408051808201909152600081526060602082015290565b600082601f8301126106e8578081fd5b81356106fb6106f682610af0565b610ac9565b818152915060208083019084810160408085028701830188101561071e57600080fd5b6000805b868110156107715782848b031215610738578182fd5b61074183610ac9565b843561074c81610b40565b81528486013561075b81610b40565b8187015286529484019492820192600101610722565b5050505050505092915050565b60008060408385031215610790578182fd5b823561079b81610b40565b915060208381013567ffffffffffffffff808211156107b8578384fd5b818601606081890312156107ca578485fd5b6107d46060610ac9565b925080356107e181610b40565b835280840135828111156107f3578586fd5b80820189601f820112610804578687fd5b803591506108146106f683610af0565b82815286810190828801888502840189018d101561083057898afd5b8993505b8484101561085b57803561084781610b40565b835260019390930192918801918801610834565b508088880152505050506040810135935081841115610878578485fd5b610884888583016106d8565b60408401525093969095509350505050565b60008282518085526020808601955080818302840101818601855b848110156108df57601f198684030189526108cd8383516108ec565b988401989250908301906001016108b1565b5090979650505050505050565b60008151151583526020820151604060208501528051806040860152610919816060870160208501610b10565b601f01601f1916939093016060019392505050565b60008251610940818460208701610b10565b9190910192915050565b7f69736f6c6174652e73696d706c652d6275726e00000000000000000000000000815260609190911b7fffffffffffffffffffffffffffffffffffffffff00000000000000000000000016601382015260270190565b6001600160a01b0391909116815260200190565b6001600160a01b0392831681529116602082015260400190565b60208082528251828201819052600091906040908185019080840286018301878501865b83811015610abb57603f19808a850301865282516001600160a01b03815116855288810151888a8701528051915060a0808a880152610a3460e08801846108ec565b8b830151935060608589830301818a0152610a4f82866108ec565b8c850151955060809250868a820301838b0152610a6c81876108ec565b828601519650878b820301858c0152610a858188610896565b945050505080830151935050838782030160c0880152610aa58184610896565b988b0198965050509288019250506001016109f2565b509098975050505050505050565b60405181810167ffffffffffffffff81118282101715610ae857600080fd5b604052919050565b600067ffffffffffffffff821115610b06578081fd5b5060209081020190565b60005b83811015610b2b578181015183820152602001610b13565b83811115610b3a576000848401525b50505050565b6001600160a01b0381168114610b5557600080fd5b5056fea26469706673582212207335fd01869fd7a6134d32f1c105bb5c9b25d0d770ceaff63966231d7b95959764736f6c63430006030033",
  "source": "pragma solidity ^0.6.3;\npragma experimental ABIEncoderV2;\n\nimport { PortfolioReaderViewLib } from \"./PortfolioReaderViewLib.sol\";\nimport { TokenQueryLib } from \"../token/TokenQueryLib.sol\";\n\ncontract PortfolioReaderView {\n  using PortfolioReaderViewLib for *;\n  function render(address moduleAddress, TokenQueryLib.TokenQueryPayload memory query) public returns (PortfolioReaderViewLib.PortfolioEntry[] memory) {\n    return moduleAddress.executePortfolioReaderViewLogic(query);\n  }\n}\n",
  "sourcePath": "/home/ray/0confirmation/packages/0confirmation-sol/contracts/queries/portfolio/PortfolioReaderView.sol",
  "compiler": {
    "name": "solc",
    "version": "0.6.3+commit.8dda9521.Emscripten.clang"
  },
  "schemaVersion": "3.0.23",
  "updatedAt": "2020-04-03T03:35:12.875Z",
  "devdoc": {
    "methods": {}
  },
  "userdoc": {
    "methods": {}
  }
}