{
  "contractName": "PortfolioReaderView",
  "abi": [
    {
      "inputs": [
        {
          "components": [
            {
              "internalType": "address payable",
              "name": "token",
              "type": "address"
            },
            {
              "internalType": "address[]",
              "name": "balanceQueries",
              "type": "address[]"
            },
            {
              "components": [
                {
                  "internalType": "address payable",
                  "name": "sourceAddress",
                  "type": "address"
                },
                {
                  "internalType": "address payable",
                  "name": "targetAddress",
                  "type": "address"
                }
              ],
              "internalType": "struct TokenQueryLib.ApprovalQueryPayload[]",
              "name": "approvalQueries",
              "type": "tuple[]"
            }
          ],
          "internalType": "struct TokenQueryLib.TokenQueryPayload",
          "name": "query",
          "type": "tuple"
        }
      ],
      "name": "render",
      "outputs": [
        {
          "components": [
            {
              "internalType": "address payable",
              "name": "token",
              "type": "address"
            },
            {
              "components": [
                {
                  "components": [
                    {
                      "internalType": "bool",
                      "name": "success",
                      "type": "bool"
                    },
                    {
                      "internalType": "bytes",
                      "name": "value",
                      "type": "bytes"
                    }
                  ],
                  "internalType": "struct TokenQueryLib.DataResult",
                  "name": "name",
                  "type": "tuple"
                },
                {
                  "components": [
                    {
                      "internalType": "bool",
                      "name": "success",
                      "type": "bool"
                    },
                    {
                      "internalType": "bytes",
                      "name": "value",
                      "type": "bytes"
                    }
                  ],
                  "internalType": "struct TokenQueryLib.DataResult",
                  "name": "symbol",
                  "type": "tuple"
                },
                {
                  "components": [
                    {
                      "internalType": "bool",
                      "name": "success",
                      "type": "bool"
                    },
                    {
                      "internalType": "bytes",
                      "name": "value",
                      "type": "bytes"
                    }
                  ],
                  "internalType": "struct TokenQueryLib.DataResult",
                  "name": "decimals",
                  "type": "tuple"
                },
                {
                  "components": [
                    {
                      "internalType": "bool",
                      "name": "success",
                      "type": "bool"
                    },
                    {
                      "internalType": "bytes",
                      "name": "value",
                      "type": "bytes"
                    }
                  ],
                  "internalType": "struct TokenQueryLib.DataResult[]",
                  "name": "balanceQueryResults",
                  "type": "tuple[]"
                },
                {
                  "components": [
                    {
                      "internalType": "bool",
                      "name": "success",
                      "type": "bool"
                    },
                    {
                      "internalType": "bytes",
                      "name": "value",
                      "type": "bytes"
                    }
                  ],
                  "internalType": "struct TokenQueryLib.DataResult[]",
                  "name": "approvalQueryResults",
                  "type": "tuple[]"
                }
              ],
              "internalType": "struct TokenQueryLib.TokenQueryResult",
              "name": "data",
              "type": "tuple"
            }
          ],
          "internalType": "struct PortfolioReaderViewLib.PortfolioEntry[]",
          "name": "",
          "type": "tuple[]"
        }
      ],
      "stateMutability": "nonpayable",
      "type": "function"
    }
  ],
  "bytecode": "0x608060405234801561001057600080fd5b50610b04806100206000396000f3fe608060405234801561001057600080fd5b506004361061002b5760003560e01c80639e2ba4e514610030575b600080fd5b61004361003e36600461073d565b610059565b6040516100509190610942565b60405180910390f35b60606100648261006a565b92915050565b60606000610076610226565b90506060816002016001018054806020026020016040519081016040528092919081815260200182805480156100d557602002820191906000526020600020905b81546001600160a01b031681526001909101906020018083116100b7575b505050505090506060815160010167ffffffffffffffff811180156100f957600080fd5b5060405190808252806020026020018201604052801561013357816020015b61012061060d565b8152602001906001900390816101185790505b50905084600001518160008151811061014857fe5b60209081029190910101516001600160a01b0390911690526101698561023d565b8160008151811061017657fe5b602090810291909101810151015260005b825181101561021d5782818151811061019c57fe5b60200260200101518282600101815181106101b357fe5b60209081029190910101516001600160a01b03909116905282518390829081106101d957fe5b60209081029190910101516001600160a01b031686526101f88661023d565b82826001018151811061020757fe5b6020908102919091018101510152600101610187565b50949350505050565b60006102386102336103e1565b610410565b905090565b610245610635565b815161025090610426565b8152815161025d90610462565b6020820152815161026d9061049e565b604082015260208201515167ffffffffffffffff8111801561028e57600080fd5b506040519080825280602002602001820160405280156102c857816020015b6102b5610676565b8152602001906001900390816102ad5790505b50606082015260005b816060015151811015610326576103038360000151846020015183815181106102f657fe5b60200260200101516104da565b8260600151828151811061031357fe5b60209081029190910101526001016102d1565b5081604001515167ffffffffffffffff8111801561034357600080fd5b5060405190808252806020026020018201604052801561037d57816020015b61036a610676565b8152602001906001900390816103625790505b50608082015260005b8160800151518110156103db576103b8836040015182815181106103a657fe5b6020026020010151846000015161052d565b826080015182815181106103c857fe5b6020908102919091010152600101610386565b50919050565b60006040516020016103f2906108f5565b6040516020818303038152906040528051906020012060001c905090565b60006100648261041e610580565b63ffffffff16565b61042e610676565b6040805160048152602481019091526020810180516001600160e01b03166306fdde0360e01b179052610064908390610586565b61046a610676565b6040805160048152602481019091526020810180516001600160e01b03166395d89b4160e01b179052610064908390610586565b6104a6610676565b6040805160048152602481019091526020810180516001600160e01b031663313ce56760e01b179052610064908390610586565b6104e2610676565b61052683836040516024016104f79190610914565b60408051601f198184030181529190526020810180516001600160e01b03166370a0823160e01b179052610586565b9392505050565b610535610676565b8251602084015160405161052692859261055192602401610928565b60408051601f198184030181529190526020810180516001600160e01b031663f4b1604560e01b179052610586565b61060a90565b61058e610676565b60006060846001600160a01b0316846040516105aa91906108d9565b6000604051808303816000865af19150503d80600081146105e7576040519150601f19603f3d011682016040523d82523d6000602084013e6105ec565b606091505b50604080518082019091529115158252602082015295945050505050565b90565b604051806040016040528060006001600160a01b03168152602001610630610635565b905290565b6040518060a00160405280610648610676565b8152602001610655610676565b8152602001610662610676565b815260200160608152602001606081525090565b60408051808201909152600081526060602082015290565b803561006481610ab6565b600082601f8301126106a9578081fd5b81356106bc6106b782610a66565b610a3f565b81815291506020808301908481016040808502870183018810156106df57600080fd5b6000805b868110156107305782848b0312156106f9578182fd5b61070283610a3f565b61070c8b8661068e565b815261071a8b87870161068e565b81870152865294840194928201926001016106e3565b5050505050505092915050565b6000602080838503121561074f578182fd5b823567ffffffffffffffff80821115610766578384fd5b81850160608188031215610778578485fd5b6107826060610a3f565b9250803561078f81610ab6565b835280840135828111156107a1578586fd5b80820188601f8201126107b2578687fd5b803591506107c26106b783610a66565b82815286810190828801888502840189018c10156107de57898afd5b8993505b84841015610808576107f48c8261068e565b8352600193909301929188019188016107e2565b508088880152505050506040810135935081841115610825578485fd5b61083187858301610699565b6040840152509095945050505050565b60008282518085526020808601955080818302840101818601855b8481101561088a57601f19868403018952610878838351610897565b9884019892509083019060010161085c565b5090979650505050505050565b600081511515835260208201516040602085015280518060408601526108c4816060870160208501610a86565b601f01601f1916939093016060019392505050565b600082516108eb818460208701610a86565b9190910192915050565b7234b9b7b630ba329739b4b6b8363296b13ab93760691b815260130190565b6001600160a01b0391909116815260200190565b6001600160a01b0392831681529116602082015260400190565b60208082528251828201819052600091906040908185019080840286018301878501865b83811015610a3157603f1989840381018652825180516001600160a01b03168552880151888501889052805160a08987018190529091906109aa60e0880184610897565b8b830151935060608589830301818a01526109c58286610897565b8c850151955060809250868a820301838b01526109e28187610897565b828601519650878b820301858c01526109fb8188610841565b945050505080830151935050838782030160c0880152610a1b8184610841565b988b019896505050928801925050600101610966565b509098975050505050505050565b60405181810167ffffffffffffffff81118282101715610a5e57600080fd5b604052919050565b600067ffffffffffffffff821115610a7c578081fd5b5060209081020190565b60005b83811015610aa1578181015183820152602001610a89565b83811115610ab0576000848401525b50505050565b6001600160a01b0381168114610acb57600080fd5b5056fea26469706673582212207fdab23ba887586e697250870191fe8d16b68cb884e977566eb5eb05b992132464736f6c63430006050033",
  "source": "pragma solidity ^0.6.0;\npragma experimental ABIEncoderV2;\n\nimport { TokenQueryLib } from \"../token/TokenQueryLib.sol\";\nimport { PortfolioReaderViewLib } from \"./PortfolioReaderViewLib.sol\";\n\ncontract PortfolioReaderView {\n  using PortfolioReaderViewLib for *;\n  function render(TokenQueryLib.TokenQueryPayload memory query) public returns (PortfolioReaderViewLib.PortfolioEntry[] memory) {\n    return query.executePortfolioReaderViewLogic();\n  }\n}\n",
  "sourcePath": "/home/ray/0confirmation/packages/0confirmation-sol/contracts/queries/portfolio/PortfolioReaderView.sol",
  "compiler": {
    "name": "solc",
    "version": "0.6.5+commit.f956cc89.Emscripten.clang"
  },
  "schemaVersion": "3.0.23",
  "updatedAt": "2020-04-22T09:15:43.893Z",
  "devdoc": {
    "methods": {}
  },
  "userdoc": {
    "methods": {}
  }
}