{
  "contractName": "Preprocessor",
  "abi": [
    {
      "inputs": [],
      "name": "destroy",
      "outputs": [],
      "stateMutability": "nonpayable",
      "type": "function"
    }
  ],
  "bytecode": "0x6080604052348015600f57600080fd5b50606e80601d6000396000f3fe6080604052348015600f57600080fd5b506004361060285760003560e01c806383197ef014602d575b600080fd5b60336035565b005b33fffea264697066735822122058020c59292e1db57a32dfbe41202aee544fe66c116fc59c37d044581951d81264736f6c63430006060033",
  "source": "pragma solidity ^0.6.0;\n\nimport { PreprocessorLib } from \"./PreprocessorLib.sol\";\n\ncontract Preprocessor {\n  using PreprocessorLib for *;\n  function destroy() external {\n    selfdestruct(msg.sender);\n  }\n}\n",
  "sourcePath": "/home/ray/0confirmation/packages/0confirmation-sol/contracts/preprocessors/lib/Preprocessor.sol",
  "compiler": {
    "name": "solc",
    "version": "0.6.6+commit.6c089d02.Emscripten.clang"
  },
  "schemaVersion": "3.0.23",
  "updatedAt": "2020-04-23T03:22:45.320Z",
  "devdoc": {
    "methods": {}
  },
  "userdoc": {
    "methods": {}
  }
}