{
  "contractName": "ProtocolStorage",
  "abi": [
    {
      "constant": true,
      "inputs": [],
      "name": "owner",
      "outputs": [
        {
          "internalType": "address",
          "name": "",
          "type": "address"
        }
      ],
      "payable": false,
      "stateMutability": "view",
      "type": "function"
    }
  ],
  "bytecode": "0x608060405234801561001057600080fd5b5060cf8061001f6000396000f3fe6080604052348015600f57600080fd5b506004361060285760003560e01c80638da5cb5b14602d575b600080fd5b60336075565b604051808273ffffffffffffffffffffffffffffffffffffffff1673ffffffffffffffffffffffffffffffffffffffff16815260200191505060405180910390f35b6000809054906101000a900473ffffffffffffffffffffffffffffffffffffffff168156fea265627a7a723158207477eb9e0822aab39e08b3198f870c48822e1529fb7475903b8dae621287813564736f6c634300050c0032",
  "source": "pragma solidity 0.5.12;\n\nimport \"../DarknodeRegistry/DarknodeRegistry.sol\";\nimport \"../Shifter/ShifterRegistry.sol\";\n\n/// @notice ProtocolStorage stores the values used by ProtocolLogic as a\n/// separate contract to reduce the risk of memory slots being moved.\ncontract ProtocolStorage {\n\n    address public owner;\n\n    // NEW STORAGE VALUES SHOULD ONLY BE ADDED TO THE END OF THIS CONTRACT.\n\n    // These are all private so that the getter interfaced can be changed\n    // if necessary.\n\n    // DarknodeRegistry also points to RenToken, DarknodeRegistryStore and\n    // DarknodePayment, which in turn points to DarknodePaymentStore.\n    DarknodeRegistry internal _darknodeRegistry;\n\n    // ShifterRegistry is used to access the Shifters and the shifted tokens.\n    ShifterRegistry internal _shifterRegistry;\n\n}\n",
  "sourcePath": "/home/ray/0confirmation-mono/node_modules/darknode-sol/contracts/Protocol/ProtocolStorage.sol",
  "compiler": {
    "name": "solc",
    "version": "0.5.12+commit.7709ece9.Linux.g++"
  },
  "schemaVersion": "3.0.23",
  "updatedAt": "2020-03-08T19:15:48.064Z",
  "devdoc": {
    "methods": {}
  },
  "userdoc": {
    "methods": {},
    "notice": "ProtocolStorage stores the values used by ProtocolLogic as a separate contract to reduce the risk of memory slots being moved."
  }
}