{
  "contractName": "ProtocolLogic",
  "abi": [
    {
      "constant": true,
      "inputs": [],
      "name": "owner",
      "outputs": [
        {
          "internalType": "address",
          "name": "",
          "type": "address"
        }
      ],
      "payable": false,
      "stateMutability": "view",
      "type": "function"
    },
    {
      "constant": false,
      "inputs": [
        {
          "internalType": "address",
          "name": "_owner",
          "type": "address"
        }
      ],
      "name": "initialize",
      "outputs": [],
      "payable": false,
      "stateMutability": "nonpayable",
      "type": "function"
    },
    {
      "constant": false,
      "inputs": [
        {
          "internalType": "address",
          "name": "_newOwner",
          "type": "address"
        }
      ],
      "name": "transferOwnership",
      "outputs": [],
      "payable": false,
      "stateMutability": "nonpayable",
      "type": "function"
    },
    {
      "constant": true,
      "inputs": [],
      "name": "darknodeRegistry",
      "outputs": [
        {
          "internalType": "contract DarknodeRegistry",
          "name": "",
          "type": "address"
        }
      ],
      "payable": false,
      "stateMutability": "view",
      "type": "function"
    },
    {
      "constant": true,
      "inputs": [],
      "name": "darknodeRegistryStore",
      "outputs": [
        {
          "internalType": "contract DarknodeRegistryStore",
          "name": "",
          "type": "address"
        }
      ],
      "payable": false,
      "stateMutability": "view",
      "type": "function"
    },
    {
      "constant": true,
      "inputs": [],
      "name": "renToken",
      "outputs": [
        {
          "internalType": "contract RenToken",
          "name": "",
          "type": "address"
        }
      ],
      "payable": false,
      "stateMutability": "view",
      "type": "function"
    },
    {
      "constant": true,
      "inputs": [],
      "name": "darknodePayment",
      "outputs": [
        {
          "internalType": "contract DarknodePayment",
          "name": "",
          "type": "address"
        }
      ],
      "payable": false,
      "stateMutability": "view",
      "type": "function"
    },
    {
      "constant": true,
      "inputs": [],
      "name": "darknodePaymentStore",
      "outputs": [
        {
          "internalType": "contract DarknodePaymentStore",
          "name": "",
          "type": "address"
        }
      ],
      "payable": false,
      "stateMutability": "view",
      "type": "function"
    },
    {
      "constant": true,
      "inputs": [],
      "name": "darknodeSlasher",
      "outputs": [
        {
          "internalType": "contract DarknodeSlasher",
          "name": "",
          "type": "address"
        }
      ],
      "payable": false,
      "stateMutability": "view",
      "type": "function"
    },
    {
      "constant": true,
      "inputs": [],
      "name": "shifterRegistry",
      "outputs": [
        {
          "internalType": "contract ShifterRegistry",
          "name": "",
          "type": "address"
        }
      ],
      "payable": false,
      "stateMutability": "view",
      "type": "function"
    },
    {
      "constant": true,
      "inputs": [
        {
          "internalType": "address",
          "name": "_start",
          "type": "address"
        },
        {
          "internalType": "uint256",
          "name": "_count",
          "type": "uint256"
        }
      ],
      "name": "getShifters",
      "outputs": [
        {
          "internalType": "address[]",
          "name": "",
          "type": "address[]"
        }
      ],
      "payable": false,
      "stateMutability": "view",
      "type": "function"
    },
    {
      "constant": true,
      "inputs": [
        {
          "internalType": "address",
          "name": "_start",
          "type": "address"
        },
        {
          "internalType": "uint256",
          "name": "_count",
          "type": "uint256"
        }
      ],
      "name": "getShiftedTokens",
      "outputs": [
        {
          "internalType": "address[]",
          "name": "",
          "type": "address[]"
        }
      ],
      "payable": false,
      "stateMutability": "view",
      "type": "function"
    },
    {
      "constant": true,
      "inputs": [
        {
          "internalType": "address",
          "name": "_tokenAddress",
          "type": "address"
        }
      ],
      "name": "getShifterByToken",
      "outputs": [
        {
          "internalType": "contract IShifter",
          "name": "",
          "type": "address"
        }
      ],
      "payable": false,
      "stateMutability": "view",
      "type": "function"
    },
    {
      "constant": true,
      "inputs": [
        {
          "internalType": "string",
          "name": "_tokenSymbol",
          "type": "string"
        }
      ],
      "name": "getShifterBySymbol",
      "outputs": [
        {
          "internalType": "contract IShifter",
          "name": "",
          "type": "address"
        }
      ],
      "payable": false,
      "stateMutability": "view",
      "type": "function"
    },
    {
      "constant": true,
      "inputs": [
        {
          "internalType": "string",
          "name": "_tokenSymbol",
          "type": "string"
        }
      ],
      "name": "getTokenBySymbol",
      "outputs": [
        {
          "internalType": "address",
          "name": "",
          "type": "address"
        }
      ],
      "payable": false,
      "stateMutability": "view",
      "type": "function"
    },
    {
      "constant": false,
      "inputs": [
        {
          "internalType": "contract DarknodeRegistry",
          "name": "_newDarknodeRegistry",
          "type": "address"
        }
      ],
      "name": "_updateDarknodeRegistry",
      "outputs": [],
      "payable": false,
      "stateMutability": "nonpayable",
      "type": "function"
    },
    {
      "constant": false,
      "inputs": [
        {
          "internalType": "contract ShifterRegistry",
          "name": "_newShifterRegistry",
          "type": "address"
        }
      ],
      "name": "_updateShifterRegistry",
      "outputs": [],
      "payable": false,
      "stateMutability": "nonpayable",
      "type": "function"
    }
  ],
  "bytecode": "0x608060405234801561001057600080fd5b5061150b806100206000396000f3fe608060405234801561001057600080fd5b506004361061010b5760003560e01c8063a47c84bd116100a2578063c4d66de811610071578063c4d66de81461057e578063deeb2efe146105c2578063e6a12ca914610665578063efa74f1f146106af578063f2fde38b146107685761010b565b8063a47c84bd146103fd578063b6b34c67146104a0578063bcfe9fe5146104ea578063c4259606146105345761010b565b80638da5cb5b116100de5780638da5cb5b1461026657806392a29e30146102b0578063981a58e9146103695780639e45e0d0146103b35761010b565b8063179091a41461011057806328c4f4101461015457806334246f9b146101d8578063715a613214610222575b600080fd5b6101526004803603602081101561012657600080fd5b81019080803573ffffffffffffffffffffffffffffffffffffffff1690602001909291905050506107ac565b005b6101966004803603602081101561016a57600080fd5b81019080803573ffffffffffffffffffffffffffffffffffffffff1690602001909291905050506108b3565b604051808273ffffffffffffffffffffffffffffffffffffffff1673ffffffffffffffffffffffffffffffffffffffff16815260200191505060405180910390f35b6101e061097b565b604051808273ffffffffffffffffffffffffffffffffffffffff1673ffffffffffffffffffffffffffffffffffffffff16815260200191505060405180910390f35b6102646004803603602081101561023857600080fd5b81019080803573ffffffffffffffffffffffffffffffffffffffff169060200190929190505050610a0a565b005b61026e610b11565b604051808273ffffffffffffffffffffffffffffffffffffffff1673ffffffffffffffffffffffffffffffffffffffff16815260200191505060405180910390f35b610327600480360360208110156102c657600080fd5b81019080803590602001906401000000008111156102e357600080fd5b8201836020820111156102f557600080fd5b8035906020019184600183028401116401000000008311171561031757600080fd5b9091929391929390505050610b37565b604051808273ffffffffffffffffffffffffffffffffffffffff1673ffffffffffffffffffffffffffffffffffffffff16815260200191505060405180910390f35b610371610c00565b604051808273ffffffffffffffffffffffffffffffffffffffff1673ffffffffffffffffffffffffffffffffffffffff16815260200191505060405180910390f35b6103bb610c8f565b604051808273ffffffffffffffffffffffffffffffffffffffff1673ffffffffffffffffffffffffffffffffffffffff16815260200191505060405180910390f35b6104496004803603604081101561041357600080fd5b81019080803573ffffffffffffffffffffffffffffffffffffffff16906020019092919080359060200190929190505050610cb9565b6040518080602001828103825283818151815260200191508051906020019060200280838360005b8381101561048c578082015181840152602081019050610471565b505050509050019250505060405180910390f35b6104a8610e24565b604051808273ffffffffffffffffffffffffffffffffffffffff1673ffffffffffffffffffffffffffffffffffffffff16815260200191505060405180910390f35b6104f2610ebb565b604051808273ffffffffffffffffffffffffffffffffffffffff1673ffffffffffffffffffffffffffffffffffffffff16815260200191505060405180910390f35b61053c610f4a565b604051808273ffffffffffffffffffffffffffffffffffffffff1673ffffffffffffffffffffffffffffffffffffffff16815260200191505060405180910390f35b6105c06004803603602081101561059457600080fd5b81019080803573ffffffffffffffffffffffffffffffffffffffff169060200190929190505050610fe1565b005b61060e600480360360408110156105d857600080fd5b81019080803573ffffffffffffffffffffffffffffffffffffffff16906020019092919080359060200190929190505050611122565b6040518080602001828103825283818151815260200191508051906020019060200280838360005b83811015610651578082015181840152602081019050610636565b505050509050019250505060405180910390f35b61066d61128d565b604051808273ffffffffffffffffffffffffffffffffffffffff1673ffffffffffffffffffffffffffffffffffffffff16815260200191505060405180910390f35b610726600480360360208110156106c557600080fd5b81019080803590602001906401000000008111156106e257600080fd5b8201836020820111156106f457600080fd5b8035906020019184600183028401116401000000008311171561071657600080fd5b90919293919293905050506112b7565b604051808273ffffffffffffffffffffffffffffffffffffffff1673ffffffffffffffffffffffffffffffffffffffff16815260200191505060405180910390f35b6107aa6004803603602081101561077e57600080fd5b81019080803573ffffffffffffffffffffffffffffffffffffffff169060200190929190505050611380565b005b603360009054906101000a900473ffffffffffffffffffffffffffffffffffffffff1673ffffffffffffffffffffffffffffffffffffffff163373ffffffffffffffffffffffffffffffffffffffff161461086f576040517f08c379a00000000000000000000000000000000000000000000000000000000081526004018080602001828103825260208152602001807f4f776e61626c653a2063616c6c6572206973206e6f7420746865206f776e657281525060200191505060405180910390fd5b80603460006101000a81548173ffffffffffffffffffffffffffffffffffffffff021916908373ffffffffffffffffffffffffffffffffffffffff16021790555050565b60006108bd61128d565b73ffffffffffffffffffffffffffffffffffffffff166328c4f410836040518263ffffffff1660e01b8152600401808273ffffffffffffffffffffffffffffffffffffffff1673ffffffffffffffffffffffffffffffffffffffff16815260200191505060206040518083038186803b15801561093957600080fd5b505afa15801561094d573d6000803e3d6000fd5b505050506040513d602081101561096357600080fd5b81019080805190602001909291905050509050919050565b6000610985610c8f565b73ffffffffffffffffffffffffffffffffffffffff16638a9b40676040518163ffffffff1660e01b815260040160206040518083038186803b1580156109ca57600080fd5b505afa1580156109de573d6000803e3d6000fd5b505050506040513d60208110156109f457600080fd5b8101908080519060200190929190505050905090565b603360009054906101000a900473ffffffffffffffffffffffffffffffffffffffff1673ffffffffffffffffffffffffffffffffffffffff163373ffffffffffffffffffffffffffffffffffffffff1614610acd576040517f08c379a00000000000000000000000000000000000000000000000000000000081526004018080602001828103825260208152602001807f4f776e61626c653a2063616c6c6572206973206e6f7420746865206f776e657281525060200191505060405180910390fd5b80603560006101000a81548173ffffffffffffffffffffffffffffffffffffffff021916908373ffffffffffffffffffffffffffffffffffffffff16021790555050565b603360009054906101000a900473ffffffffffffffffffffffffffffffffffffffff1681565b6000610b4161128d565b73ffffffffffffffffffffffffffffffffffffffff166392a29e3084846040518363ffffffff1660e01b815260040180806020018281038252848482818152602001925080828437600081840152601f19601f820116905080830192505050935050505060206040518083038186803b158015610bbd57600080fd5b505afa158015610bd1573d6000803e3d6000fd5b505050506040513d6020811015610be757600080fd5b8101908080519060200190929190505050905092915050565b6000610c0a610c8f565b73ffffffffffffffffffffffffffffffffffffffff1663975057e76040518163ffffffff1660e01b815260040160206040518083038186803b158015610c4f57600080fd5b505afa158015610c63573d6000803e3d6000fd5b505050506040513d6020811015610c7957600080fd5b8101908080519060200190929190505050905090565b6000603460009054906101000a900473ffffffffffffffffffffffffffffffffffffffff16905090565b6060610cc361128d565b73ffffffffffffffffffffffffffffffffffffffff1663a47c84bd84846040518363ffffffff1660e01b8152600401808373ffffffffffffffffffffffffffffffffffffffff1673ffffffffffffffffffffffffffffffffffffffff1681526020018281526020019250505060006040518083038186803b158015610d4757600080fd5b505afa158015610d5b573d6000803e3d6000fd5b505050506040513d6000823e3d601f19601f820116820180604052506020811015610d8557600080fd5b8101908080516040519392919084640100000000821115610da557600080fd5b83820191506020820185811115610dbb57600080fd5b8251866020820283011164010000000082111715610dd857600080fd5b8083526020830192505050908051906020019060200280838360005b83811015610e0f578082015181840152602081019050610df4565b50505050905001604052505050905092915050565b6000610eb6610e31610c8f565b73ffffffffffffffffffffffffffffffffffffffff1663b6b34c676040518163ffffffff1660e01b815260040160206040518083038186803b158015610e7657600080fd5b505afa158015610e8a573d6000803e3d6000fd5b505050506040513d6020811015610ea057600080fd5b8101908080519060200190929190505050611487565b905090565b6000610ec5610e24565b73ffffffffffffffffffffffffffffffffffffffff1663975057e76040518163ffffffff1660e01b815260040160206040518083038186803b158015610f0a57600080fd5b505afa158015610f1e573d6000803e3d6000fd5b505050506040513d6020811015610f3457600080fd5b8101908080519060200190929190505050905090565b6000610fdc610f57610c8f565b73ffffffffffffffffffffffffffffffffffffffff1663b13442716040518163ffffffff1660e01b815260040160206040518083038186803b158015610f9c57600080fd5b505afa158015610fb0573d6000803e3d6000fd5b505050506040513d6020811015610fc657600080fd5b8101908080519060200190929190505050611487565b905090565b600060019054906101000a900460ff16806110005750610fff611491565b5b8061101757506000809054906101000a900460ff16155b61106c576040517f08c379a000000000000000000000000000000000000000000000000000000000815260040180806020018281038252602e8152602001806114a9602e913960400191505060405180910390fd5b60008060019054906101000a900460ff1615905080156110bc576001600060016101000a81548160ff02191690831515021790555060016000806101000a81548160ff0219169083151502179055505b81603360006101000a81548173ffffffffffffffffffffffffffffffffffffffff021916908373ffffffffffffffffffffffffffffffffffffffff160217905550801561111e5760008060016101000a81548160ff0219169083151502179055505b5050565b606061112c61128d565b73ffffffffffffffffffffffffffffffffffffffff1663deeb2efe84846040518363ffffffff1660e01b8152600401808373ffffffffffffffffffffffffffffffffffffffff1673ffffffffffffffffffffffffffffffffffffffff1681526020018281526020019250505060006040518083038186803b1580156111b057600080fd5b505afa1580156111c4573d6000803e3d6000fd5b505050506040513d6000823e3d601f19601f8201168201806040525060208110156111ee57600080fd5b810190808051604051939291908464010000000082111561120e57600080fd5b8382019150602082018581111561122457600080fd5b825186602082028301116401000000008211171561124157600080fd5b8083526020830192505050908051906020019060200280838360005b8381101561127857808201518184015260208101905061125d565b50505050905001604052505050905092915050565b6000603560009054906101000a900473ffffffffffffffffffffffffffffffffffffffff16905090565b60006112c161128d565b73ffffffffffffffffffffffffffffffffffffffff1663efa74f1f84846040518363ffffffff1660e01b815260040180806020018281038252848482818152602001925080828437600081840152601f19601f820116905080830192505050935050505060206040518083038186803b15801561133d57600080fd5b505afa158015611351573d6000803e3d6000fd5b505050506040513d602081101561136757600080fd5b8101908080519060200190929190505050905092915050565b603360009054906101000a900473ffffffffffffffffffffffffffffffffffffffff1673ffffffffffffffffffffffffffffffffffffffff163373ffffffffffffffffffffffffffffffffffffffff1614611443576040517f08c379a00000000000000000000000000000000000000000000000000000000081526004018080602001828103825260208152602001807f4f776e61626c653a2063616c6c6572206973206e6f7420746865206f776e657281525060200191505060405180910390fd5b80603360006101000a81548173ffffffffffffffffffffffffffffffffffffffff021916908373ffffffffffffffffffffffffffffffffffffffff16021790555050565b6000819050919050565b6000803090506000813b905060008114925050509056fe436f6e747261637420696e7374616e63652068617320616c7265616479206265656e20696e697469616c697a6564a265627a7a72315820fc3c67e7e1e36744208fbb271a551e8a49bb67a470789e7b6c25139f5355811464736f6c634300050c0032",
  "source": "pragma solidity 0.5.12;\n\nimport \"@openzeppelin/upgrades/contracts/Initializable.sol\";\n\nimport \"../DarknodePayment/DarknodePayment.sol\";\nimport \"../DarknodePayment/DarknodePaymentStore.sol\";\nimport \"../DarknodeRegistry/DarknodeRegistry.sol\";\nimport \"../DarknodeRegistry/DarknodeRegistryStore.sol\";\nimport \"../DarknodeSlasher/DarknodeSlasher.sol\";\nimport \"../RenToken/RenToken.sol\";\nimport \"../Shifter/Shifter.sol\";\nimport \"../Shifter/ShifterRegistry.sol\";\nimport \"./ProtocolStorage.sol\";\n\n/// @notice ProtocolLogic implements the getter functions for the Protocol proxy\n/// as well as onlyOwner functions for updating the values in ProtocolStorage.\ncontract ProtocolLogic is Initializable, ProtocolStorage {\n\n    modifier onlyOwner() {\n         require(msg.sender == owner, \"Ownable: caller is not the owner\");\n        _;\n    }\n\n    function initialize(address _owner) public initializer {\n        owner = _owner;\n    }\n\n    function transferOwnership(address _newOwner) public onlyOwner {\n        owner = _newOwner;\n    }\n\n    // Darknode contracts\n\n    function darknodeRegistry() public view returns (DarknodeRegistry) {\n        return ProtocolStorage._darknodeRegistry;\n    }\n\n    function darknodeRegistryStore() public view returns (DarknodeRegistryStore) {\n        return darknodeRegistry().store();\n    }\n\n    function renToken() public view returns (RenToken) {\n        return darknodeRegistry().ren();\n    }\n\n    function darknodePayment() public view returns (DarknodePayment) {\n        return DarknodePayment(_payableAddress(address(darknodeRegistry().darknodePayment())));\n    }\n\n    function darknodePaymentStore() public view returns (DarknodePaymentStore) {\n        return darknodePayment().store();\n    }\n\n    function darknodeSlasher() public view returns (DarknodeSlasher) {\n        return DarknodeSlasher(_payableAddress(address(darknodeRegistry().slasher())));\n    }\n\n    // Shifter contracts\n\n    function shifterRegistry() public view returns (ShifterRegistry) {\n        return ProtocolStorage._shifterRegistry;\n    }\n\n    function getShifters(address _start, uint256 _count) external view returns (address[] memory) {\n        return shifterRegistry().getShifters(_start, _count);\n    }\n\n    function getShiftedTokens(address _start, uint256 _count) external view returns (address[] memory) {\n        return shifterRegistry().getShiftedTokens(_start, _count);\n    }\n\n    function getShifterByToken(address _tokenAddress) external view returns (IShifter) {\n        return shifterRegistry().getShifterByToken(_tokenAddress);\n    }\n\n    function getShifterBySymbol(string calldata _tokenSymbol) external view returns (IShifter) {\n        return shifterRegistry().getShifterBySymbol(_tokenSymbol);\n    }\n\n    function getTokenBySymbol(string calldata _tokenSymbol) external view returns (address) {\n        return shifterRegistry().getTokenBySymbol(_tokenSymbol);\n    }\n\n    // Only owner //////////////////////////////////////////////////////////////\n\n    /// @notice Update the address of DarknodeRegistry. This could affect the\n    /// addresses of DarknodeRegistryStore, DarknodePayment,\n    /// DarknodePaymentStore and DarknodeSlasher.\n    function _updateDarknodeRegistry(DarknodeRegistry _newDarknodeRegistry) public onlyOwner {\n        ProtocolStorage._darknodeRegistry = _newDarknodeRegistry;\n    }\n\n    /// @notice Update the address of ShifterRegistry. This could affect the\n    /// addresses of all of the shifters and shifted tokens.\n    function _updateShifterRegistry(ShifterRegistry _newShifterRegistry) public onlyOwner {\n        ProtocolStorage._shifterRegistry = _newShifterRegistry;\n    }\n\n    // Internal functions //////////////////////////////////////////////////////\n\n    // Cast an address to a payable address\n    function _payableAddress(address a) internal pure returns (address payable) {\n        return address(uint160(address(a)));\n    }\n}\n",
  "sourcePath": "/home/ray/0confirmation-mono/node_modules/darknode-sol/contracts/Protocol/ProtocolLogic.sol",
  "compiler": {
    "name": "solc",
    "version": "0.5.12+commit.7709ece9.Linux.g++"
  },
  "schemaVersion": "3.0.23",
  "updatedAt": "2020-03-08T19:15:48.063Z",
  "devdoc": {
    "methods": {}
  },
  "userdoc": {
    "methods": {
      "_updateDarknodeRegistry(address)": {
        "notice": "Update the address of DarknodeRegistry. This could affect the addresses of DarknodeRegistryStore, DarknodePayment, DarknodePaymentStore and DarknodeSlasher."
      },
      "_updateShifterRegistry(address)": {
        "notice": "Update the address of ShifterRegistry. This could affect the addresses of all of the shifters and shifted tokens."
      }
    },
    "notice": "ProtocolLogic implements the getter functions for the Protocol proxy as well as onlyOwner functions for updating the values in ProtocolStorage."
  }
}