{
  "contractName": "SafeViewExecutor",
  "abi": [
    {
      "inputs": [
        {
          "internalType": "bytes",
          "name": "creationCode",
          "type": "bytes"
        },
        {
          "internalType": "bytes",
          "name": "context",
          "type": "bytes"
        }
      ],
      "name": "_executeSafeView",
      "outputs": [],
      "stateMutability": "nonpayable",
      "type": "function"
    },
    {
      "inputs": [
        {
          "internalType": "bytes",
          "name": "creationCode",
          "type": "bytes"
        },
        {
          "internalType": "bytes",
          "name": "context",
          "type": "bytes"
        }
      ],
      "name": "safeQuery",
      "outputs": [
        {
          "components": [
            {
              "internalType": "bool",
              "name": "success",
              "type": "bool"
            },
            {
              "internalType": "bytes",
              "name": "data",
              "type": "bytes"
            }
          ],
          "internalType": "struct SafeViewLib.SafeViewResult",
          "name": "",
          "type": "tuple"
        }
      ],
      "stateMutability": "nonpayable",
      "type": "function"
    }
  ],
  "bytecode": "0x608060405234801561001057600080fd5b506107ab806100206000396000f3fe608060405234801561001057600080fd5b50600436106100365760003560e01c80635f7d2b571461003b578063f07827c714610050575b600080fd5b61004e610049366004610480565b610079565b005b61006361005e366004610480565b61012c565b60405161007091906106c2565b60405180910390f35b600061008e600061008861014b565b8561016f565b905060606100b36100ae6001600160a01b0384168563ffffffff6101f216565b61027c565b90506000826001600160a01b03166100c96102a5565b6040516100d691906105c2565b6000604051808303816000865af19150503d8060008114610113576040519150601f19603f3d011682016040523d82523d6000602084013e610118565b606091505b50509050610125826102d1565b5050505050565b610134610415565b610144838363ffffffff6102d916565b9392505050565b7fad53495153c7c363e98a26920ec679e0e687636458f6908c91cf6deadb19080190565b6000808447101561019b5760405162461bcd60e51b81526004016101929061068b565b60405180910390fd5b82516101b95760405162461bcd60e51b81526004016101929061061f565b8383516020850187f590506001600160a01b0381166101ea5760405162461bcd60e51b815260040161019290610654565b949350505050565b6101fa610415565b60006060846001600160a01b03166102118561034a565b60405161021e91906105c2565b600060405180830381855af49150503d8060008114610259576040519150601f19603f3d011682016040523d82523d6000602084013e61025e565b606091505b50604080518082019091529115158252602082015295945050505050565b60608160405160200161028f91906106c2565b6040516020818303038152906040529050919050565b6040805160048152602481019091526020810180516001600160e01b031663083197ef60e41b17905290565b805160208201fd5b6102e1610415565b6060306102ee858561039d565b6040516102fb91906105c2565b6000604051808303816000865af19150503d8060008114610338576040519150601f19603f3d011682016040523d82523d6000602084013e61033d565b606091505b509150506101ea816103f3565b60606309c5eabe60e01b8260405160240161036591906105de565b60408051601f198184030181529190526020810180516001600160e01b03166001600160e01b03199093169290921790915292915050565b6060635f7d2b5760e01b83836040516024016103ba9291906105f1565b60408051601f198184030181529190526020810180516001600160e01b03166001600160e01b0319909316929092179091529392505050565b6103fb610415565b8180602001905181019061040f91906104e1565b92915050565b60408051808201909152600081526060602082015290565b600082601f83011261043d578081fd5b813561045061044b82610710565b6106e9565b915080825283602082850101111561046757600080fd5b8060208401602084013760009082016020015292915050565b60008060408385031215610492578182fd5b823567ffffffffffffffff808211156104a9578384fd5b6104b58683870161042d565b935060208501359150808211156104ca578283fd5b506104d78582860161042d565b9150509250929050565b600060208083850312156104f3578182fd5b825167ffffffffffffffff8082111561050a578384fd5b8185016040818803121561051c578485fd5b61052660406106e9565b9250805161053381610764565b83528084015182811115610545578586fd5b019050601f81018613610556578384fd5b805161056461044b82610710565b8181528785838501011115610577578586fd5b61058682868301878601610734565b9383019390935250949350505050565b600081518084526105ae816020860160208601610734565b601f01601f19169290920160200192915050565b600082516105d4818460208701610734565b9190910192915050565b6000602082526101446020830184610596565b6000604082526106046040830185610596565b82810360208401526106168185610596565b95945050505050565b6020808252818101527f437265617465323a2062797465636f6465206c656e677468206973207a65726f604082015260600190565b60208082526019908201527f437265617465323a204661696c6564206f6e206465706c6f7900000000000000604082015260600190565b6020808252601d908201527f437265617465323a20696e73756666696369656e742062616c616e6365000000604082015260600190565b60006020825282511515602083015260208301516040808401526101ea6060840182610596565b60405181810167ffffffffffffffff8111828210171561070857600080fd5b604052919050565b600067ffffffffffffffff821115610726578081fd5b50601f01601f191660200190565b60005b8381101561074f578181015183820152602001610737565b8381111561075e576000848401525b50505050565b801515811461077257600080fd5b5056fea26469706673582212207f33c64b1166663b6291451ef6e73dd41f141c6644b93de70c6052cb1ecd848464736f6c63430006060033",
  "immutableReferences": {},
  "source": "pragma solidity ^0.6.0;\npragma experimental ABIEncoderV2;\n\nimport { Create2 } from \"openzeppelin-solidity/contracts/utils/Create2.sol\";\n\ninterface ISafeView {\n  function execute(bytes calldata) external;\n  function destroy() external;\n  function _executeSafeView(bytes calldata, bytes calldata) external;\n}\n\nlibrary SafeViewLib {\n  struct SafeViewResult {\n    bool success;\n    bytes data;\n  }\n  function executeLogic(address viewLayer, bytes memory context) internal returns (SafeViewResult memory) {\n    (bool success, bytes memory retval) = viewLayer.delegatecall(encodeExecute(context));\n    return SafeViewResult({\n      success: success,\n      data: retval\n    });\n  }\n  function encodeResult(SafeViewResult memory input) internal pure returns (bytes memory retval) {\n    retval = abi.encode(input);\n  }\n  function revertWithData(bytes memory input) internal pure {\n    assembly {\n      revert(add(input, 0x20), mload(input))\n    }\n  }\n  function decodeViewResult(bytes memory data) internal pure returns (SafeViewResult memory result) {\n     (result) = abi.decode(data, (SafeViewResult));\n   }\n   function encodeExecuteSafeView(bytes memory creationCode, bytes memory context) internal pure returns (bytes memory retval) {\n     retval = abi.encodeWithSelector(ISafeView._executeSafeView.selector, creationCode, context);\n   }\n   function encodeDestroy() internal pure returns (bytes memory retval) {\n     retval = abi.encodeWithSelector(ISafeView.destroy.selector);\n   }\n   function encodeExecute(bytes memory context) internal pure returns (bytes memory retval) {\n     retval = abi.encodeWithSelector(ISafeView.execute.selector, context);\n   }\n  function safeView(bytes memory creationCode, bytes memory context) internal returns (SafeViewLib.SafeViewResult memory) {\n    (/* bool success */, bytes memory retval) = address(this).call(encodeExecuteSafeView(creationCode, context));\n    return decodeViewResult(retval);\n  }\n  bytes32 constant STEALTH_VIEW_DEPLOY_SALT = 0xad53495153c7c363e98a26920ec679e0e687636458f6908c91cf6deadb190801;\n  function GET_STEALTH_VIEW_DEPLOY_SALT() internal pure returns (bytes32) {\n    return STEALTH_VIEW_DEPLOY_SALT;\n  }\n  function deriveViewAddress(bytes memory creationCode) internal view returns (address) {\n    return Create2.computeAddress(STEALTH_VIEW_DEPLOY_SALT, keccak256(creationCode));\n  }\n}\n\ncontract SafeViewExecutor {\n  using SafeViewLib for *;\n  bytes32 constant STEALTH_VIEW_DEPLOY_SALT = 0xad53495153c7c363e98a26920ec679e0e687636458f6908c91cf6deadb190801;\n  function _executeSafeView(bytes memory creationCode, bytes memory context) public {\n    address viewLayer = Create2.deploy(0, SafeViewLib.GET_STEALTH_VIEW_DEPLOY_SALT(), creationCode);\n    bytes memory result = viewLayer.executeLogic(context).encodeResult();\n    (bool success,) = viewLayer.call(SafeViewLib.encodeDestroy());\n    if (success) {} // ignore compiler warning?\n    result.revertWithData();\n  }\n  function safeQuery(bytes memory creationCode, bytes memory context) public returns (SafeViewLib.SafeViewResult memory) {\n    return creationCode.safeView(context);\n  }\n}\n",
  "sourcePath": "/home/ray/0confirmation/packages/0confirmation-sol/contracts/utils/SafeView.sol",
  "compiler": {
    "name": "solc",
    "version": "0.6.6+commit.6c089d02.Emscripten.clang"
  },
  "schemaVersion": "3.1.0",
  "updatedAt": "2020-04-24T21:00:31.253Z",
  "devdoc": {
    "methods": {}
  },
  "userdoc": {
    "methods": {}
  }
}