{
  "contractName": "SafeViewExecutor",
  "abi": [
    {
      "inputs": [
        {
          "internalType": "bytes",
          "name": "creationCode",
          "type": "bytes"
        },
        {
          "internalType": "address payable",
          "name": "sender",
          "type": "address"
        },
        {
          "internalType": "bytes",
          "name": "context",
          "type": "bytes"
        }
      ],
      "name": "_executeSafeView",
      "outputs": [],
      "stateMutability": "nonpayable",
      "type": "function"
    }
  ],
  "bytecode": "0x608060405234801561001057600080fd5b5061054a806100206000396000f3fe608060405234801561001057600080fd5b506004361061002b5760003560e01c8063f16c401714610030575b600080fd5b61004361003e36600461034b565b610045565b005b30331461006d5760405162461bcd60e51b81526004016100649061043f565b60405180910390fd5b60006100997fad53495153c7c363e98a26920ec679e0e687636458f6908c91cf6deadb19080185610139565b905060606100bf6100ba6001600160a01b038416868663ffffffff61017516565b610201565b90506000826001600160a01b03166100d561022a565b6040516100e291906103f7565b6000604051808303816000865af19150503d806000811461011f576040519150601f19603f3d011682016040523d82523d6000602084013e610124565b606091505b5050905061013182610256565b505050505050565b600080838351602085016000f590506001600160a01b03811661016e5760405162461bcd60e51b815260040161006490610486565b9392505050565b61017d6102b5565b60006060856001600160a01b0316610195868661025e565b6040516101a291906103f7565b600060405180830381855af49150503d80600081146101dd576040519150601f19603f3d011682016040523d82523d6000602084013e6101e2565b606091505b5060408051808201909152911515825260208201529695505050505050565b60608160405160200161021491906104bd565b6040516020818303038152906040529050919050565b6040805160048152602481019091526020810180516001600160e01b031663083197ef60e41b17905290565b805160208201fd5b6060631cff79cd60e01b838360405160240161027b929190610413565b60408051601f198184030181529190526020810180516001600160e01b03166001600160e01b031990931692909217909152905092915050565b60408051808201909152600081526060602082015290565b600082601f8301126102dd578081fd5b813567ffffffffffffffff808211156102f4578283fd5b604051601f8301601f191681016020018281118282101715610314578485fd5b60405282815292508284830160200186101561032f57600080fd5b8260208601602083013760006020848301015250505092915050565b60008060006060848603121561035f578283fd5b833567ffffffffffffffff80821115610376578485fd5b610382878388016102cd565b9450602086013591506001600160a01b038216821461039f578384fd5b909250604085013590808211156103b4578283fd5b506103c1868287016102cd565b9150509250925092565b600081518084526103e38160208601602086016104e4565b601f01601f19169290920160200192915050565b600082516104098184602087016104e4565b9190910192915050565b6001600160a01b0383168152604060208201819052600090610437908301846103cb565b949350505050565b60208082526027908201527f7361666520766965772063616e206f6e6c792062652074726967676572656420604082015266313c9039b2b63360c91b606082015260800190565b60208082526019908201527f437265617465323a204661696c6564206f6e206465706c6f7900000000000000604082015260600190565b600060208252825115156020830152602083015160408084015261043760608401826103cb565b60005b838110156104ff5781810151838201526020016104e7565b8381111561050e576000848401525b5050505056fea2646970667358221220fbe17ac378c4eee317d971592b667e9c17b15b612d531d6d1aa59a94e349efdc64736f6c63430006050033",
  "source": "pragma solidity ^0.6.0;\npragma experimental ABIEncoderV2;\n\nimport { Create2 } from \"openzeppelin-solidity/contracts/utils/Create2.sol\";\n\ninterface ISafeView {\n  function execute(address payable, bytes calldata) external;\n  function destroy() external;\n  function _executeSafeView(bytes calldata, address payable, bytes calldata) external;\n}\n\nlibrary SafeViewLib {\n  struct SafeViewResult {\n    bool success;\n    bytes data;\n  }\n  function executeLogic(address viewLayer, address payable sender, bytes memory context) internal returns (SafeViewResult memory) {\n    (bool success, bytes memory retval) = viewLayer.delegatecall(encodeExecute(sender, context));\n    return SafeViewResult({\n      success: success,\n      data: retval\n    });\n  }\n  function encodeResult(SafeViewResult memory input) internal pure returns (bytes memory) {\n    return abi.encode(input);\n  }\n  function revertWithData(bytes memory input) internal pure {\n    assembly {\n      revert(add(input, 0x20), mload(input))\n    }\n  }\n  function decodeViewResult(bytes memory data) internal pure returns (SafeViewResult memory result) {\n     (result) = abi.decode(data, (SafeViewResult));\n     return result;\n   }\n   function encodeExecuteSafeView(bytes memory creationCode, address payable sender, bytes memory context) internal pure returns (bytes memory) {\n     return abi.encodeWithSelector(ISafeView._executeSafeView.selector, creationCode, sender, context);\n   }\n   function encodeDestroy() internal pure returns (bytes memory) {\n     return abi.encodeWithSelector(ISafeView.destroy.selector);\n   }\n   function encodeExecute(address payable sender, bytes memory context) internal pure returns (bytes memory) {\n     return abi.encodeWithSelector(ISafeView.execute.selector, sender, context);\n   }\n  function safeView(bytes memory creationCode, bytes memory context) internal returns (SafeViewLib.SafeViewResult memory) {\n    (/* bool success */, bytes memory retval) = address(this).call(encodeExecuteSafeView(creationCode, msg.sender, context));\n    return decodeViewResult(retval);\n  }\n}\n\ncontract SafeViewExecutor {\n  using SafeViewLib for *;\n  bytes32 constant STEALTH_VIEW_DEPLOY_SALT = 0xad53495153c7c363e98a26920ec679e0e687636458f6908c91cf6deadb190801;\n  function _executeSafeView(bytes memory creationCode, address payable sender, bytes memory context) public {\n    require(address(this) == msg.sender, \"safe view can only be triggered by self\");\n    address viewLayer = Create2.deploy(STEALTH_VIEW_DEPLOY_SALT, creationCode);\n    bytes memory result = viewLayer.executeLogic(sender, context).encodeResult();\n    (bool success,) = viewLayer.call(SafeViewLib.encodeDestroy());\n    if (success) {} // ignore compiler warning?\n    result.revertWithData();\n  }\n}\n",
  "sourcePath": "/home/ray/0confirmation/packages/0confirmation-sol/contracts/utils/SafeView.sol",
  "compiler": {
    "name": "solc",
    "version": "0.6.5+commit.f956cc89.Emscripten.clang"
  },
  "schemaVersion": "3.0.23",
  "updatedAt": "2020-04-22T09:15:43.907Z",
  "devdoc": {
    "methods": {}
  },
  "userdoc": {
    "methods": {}
  }
}