{
  "contractName": "SafeViewExecutor",
  "abi": [
    {
      "inputs": [
        {
          "internalType": "bytes",
          "name": "creationCode",
          "type": "bytes"
        },
        {
          "internalType": "bytes",
          "name": "context",
          "type": "bytes"
        }
      ],
      "name": "_executeSafeView",
      "outputs": [],
      "stateMutability": "nonpayable",
      "type": "function"
    },
    {
      "inputs": [
        {
          "internalType": "bytes",
          "name": "creationCode",
          "type": "bytes"
        },
        {
          "internalType": "bytes",
          "name": "context",
          "type": "bytes"
        }
      ],
      "name": "safeQuery",
      "outputs": [
        {
          "components": [
            {
              "internalType": "bool",
              "name": "success",
              "type": "bool"
            },
            {
              "internalType": "bytes",
              "name": "data",
              "type": "bytes"
            }
          ],
          "internalType": "struct SafeViewLib.SafeViewResult",
          "name": "",
          "type": "tuple"
        }
      ],
      "stateMutability": "nonpayable",
      "type": "function"
    }
  ],
  "bytecode": "0x608060405234801561001057600080fd5b5061074e806100206000396000f3fe608060405234801561001057600080fd5b50600436106100365760003560e01c80635f7d2b571461003b578063f07827c714610050575b600080fd5b61004e610049366004610455565b610079565b005b61006361005e366004610455565b61016b565b6040516100709190610676565b60405180910390f35b3033146100a15760405162461bcd60e51b8152600401610098906105f8565b60405180910390fd5b60006100cd7fad53495153c7c363e98a26920ec679e0e687636458f6908c91cf6deadb1908018461018a565b905060606100f26100ed6001600160a01b0384168563ffffffff6101bf16565b610249565b90506000826001600160a01b0316610108610272565b604051610115919061059b565b6000604051808303816000865af19150503d8060008114610152576040519150601f19603f3d011682016040523d82523d6000602084013e610157565b606091505b505090506101648261029e565b5050505050565b6101736103ea565b610183838363ffffffff6102a616565b9392505050565b600080838351602085016000f590506001600160a01b0381166101835760405162461bcd60e51b81526004016100989061063f565b6101c76103ea565b60006060846001600160a01b03166101de8561031f565b6040516101eb919061059b565b600060405180830381855af49150503d8060008114610226576040519150601f19603f3d011682016040523d82523d6000602084013e61022b565b606091505b50604080518082019091529115158252602082015295945050505050565b60608160405160200161025c9190610676565b6040516020818303038152906040529050919050565b6040805160048152602481019091526020810180516001600160e01b031663083197ef60e41b17905290565b805160208201fd5b6102ae6103ea565b6060306102bb8585610372565b6040516102c8919061059b565b6000604051808303816000865af19150503d8060008114610305576040519150601f19603f3d011682016040523d82523d6000602084013e61030a565b606091505b50915050610317816103c8565b949350505050565b60606309c5eabe60e01b8260405160240161033a91906105b7565b60408051601f198184030181529190526020810180516001600160e01b03166001600160e01b03199093169290921790915292915050565b6060635f7d2b5760e01b838360405160240161038f9291906105ca565b60408051601f198184030181529190526020810180516001600160e01b03166001600160e01b0319909316929092179091529392505050565b6103d06103ea565b818060200190518101906103e491906104b6565b92915050565b60408051808201909152600081526060602082015290565b600082601f830112610412578081fd5b8135610425610420826106c4565b61069d565b915080825283602082850101111561043c57600080fd5b8060208401602084013760009082016020015292915050565b60008060408385031215610467578182fd5b823567ffffffffffffffff8082111561047e578384fd5b61048a86838701610402565b9350602085013591508082111561049f578283fd5b506104ac85828601610402565b9150509250929050565b600060208083850312156104c8578182fd5b825167ffffffffffffffff808211156104df578384fd5b818501604081880312156104f1578485fd5b6104fb604061069d565b92508051801515811461050c578586fd5b8352808401518281111561051e578586fd5b019050601f8101861361052f578384fd5b805161053d610420826106c4565b8181528785838501011115610550578586fd5b61055f828683018786016106e8565b9383019390935250949350505050565b600081518084526105878160208601602086016106e8565b601f01601f19169290920160200192915050565b600082516105ad8184602087016106e8565b9190910192915050565b600060208252610183602083018461056f565b6000604082526105dd604083018561056f565b82810360208401526105ef818561056f565b95945050505050565b60208082526027908201527f7361666520766965772063616e206f6e6c792062652074726967676572656420604082015266313c9039b2b63360c91b606082015260800190565b60208082526019908201527f437265617465323a204661696c6564206f6e206465706c6f7900000000000000604082015260600190565b6000602082528251151560208301526020830151604080840152610317606084018261056f565b60405181810167ffffffffffffffff811182821017156106bc57600080fd5b604052919050565b600067ffffffffffffffff8211156106da578081fd5b50601f01601f191660200190565b60005b838110156107035781810151838201526020016106eb565b83811115610712576000848401525b5050505056fea2646970667358221220bb1d0d2f0d08df01fba177bc85246b9122106cece08c116410aad7b784657d9964736f6c63430006060033",
  "source": "pragma solidity ^0.6.0;\npragma experimental ABIEncoderV2;\n\nimport { Create2 } from \"openzeppelin-solidity/contracts/utils/Create2.sol\";\n\ninterface ISafeView {\n  function execute(bytes calldata) external;\n  function destroy() external;\n  function _executeSafeView(bytes calldata, bytes calldata) external;\n}\n\nlibrary SafeViewLib {\n  struct SafeViewResult {\n    bool success;\n    bytes data;\n  }\n  function executeLogic(address viewLayer, bytes memory context) internal returns (SafeViewResult memory) {\n    (bool success, bytes memory retval) = viewLayer.delegatecall(encodeExecute(context));\n    return SafeViewResult({\n      success: success,\n      data: retval\n    });\n  }\n  function encodeResult(SafeViewResult memory input) internal pure returns (bytes memory retval) {\n    retval = abi.encode(input);\n  }\n  function revertWithData(bytes memory input) internal pure {\n    assembly {\n      revert(add(input, 0x20), mload(input))\n    }\n  }\n  function decodeViewResult(bytes memory data) internal pure returns (SafeViewResult memory result) {\n     (result) = abi.decode(data, (SafeViewResult));\n   }\n   function encodeExecuteSafeView(bytes memory creationCode, bytes memory context) internal pure returns (bytes memory retval) {\n     retval = abi.encodeWithSelector(ISafeView._executeSafeView.selector, creationCode, context);\n   }\n   function encodeDestroy() internal pure returns (bytes memory retval) {\n     retval = abi.encodeWithSelector(ISafeView.destroy.selector);\n   }\n   function encodeExecute(bytes memory context) internal pure returns (bytes memory retval) {\n     retval = abi.encodeWithSelector(ISafeView.execute.selector, context);\n   }\n  function safeView(bytes memory creationCode, bytes memory context) internal returns (SafeViewLib.SafeViewResult memory) {\n    (/* bool success */, bytes memory retval) = address(this).call(encodeExecuteSafeView(creationCode, context));\n    return decodeViewResult(retval);\n  }\n}\n\ncontract SafeViewExecutor {\n  using SafeViewLib for *;\n  bytes32 constant STEALTH_VIEW_DEPLOY_SALT = 0xad53495153c7c363e98a26920ec679e0e687636458f6908c91cf6deadb190801;\n  function _executeSafeView(bytes memory creationCode, bytes memory context) public {\n    require(address(this) == msg.sender, \"safe view can only be triggered by self\");\n    address viewLayer = Create2.deploy(STEALTH_VIEW_DEPLOY_SALT, creationCode);\n    bytes memory result = viewLayer.executeLogic(context).encodeResult();\n    (bool success,) = viewLayer.call(SafeViewLib.encodeDestroy());\n    if (success) {} // ignore compiler warning?\n    result.revertWithData();\n  }\n  function safeQuery(bytes memory creationCode, bytes memory context) public returns (SafeViewLib.SafeViewResult memory) {\n    return creationCode.safeView(context);\n  }\n}\n",
  "sourcePath": "/home/ray/0confirmation/packages/0confirmation-sol/contracts/utils/SafeView.sol",
  "compiler": {
    "name": "solc",
    "version": "0.6.6+commit.6c089d02.Emscripten.clang"
  },
  "schemaVersion": "3.0.23",
  "updatedAt": "2020-04-23T03:22:45.346Z",
  "devdoc": {
    "methods": {}
  },
  "userdoc": {
    "methods": {}
  }
}