{
  "contractName": "SafeViewExecutor",
  "abi": [
    {
      "inputs": [
        {
          "internalType": "bytes",
          "name": "creationCode",
          "type": "bytes"
        },
        {
          "internalType": "bytes",
          "name": "context",
          "type": "bytes"
        }
      ],
      "name": "_executeSafeView",
      "outputs": [],
      "stateMutability": "nonpayable",
      "type": "function"
    }
  ],
  "bytecode": "0x608060405234801561001057600080fd5b506104ca806100206000396000f3fe608060405234801561001057600080fd5b506004361061002b5760003560e01c80635f7d2b5714610030575b600080fd5b61004361003e3660046102db565b610045565b005b600061005a6000610054610090565b856100b4565b9050606061007f61007a6001600160a01b0384168563ffffffff61013716565b6101c1565b905061008a816101ea565b50505050565b7fad53495153c7c363e98a26920ec679e0e687636458f6908c91cf6deadb19080190565b600080844710156100e05760405162461bcd60e51b81526004016100d79061040a565b60405180910390fd5b82516100fe5760405162461bcd60e51b81526004016100d79061039e565b8383516020850187f590506001600160a01b03811661012f5760405162461bcd60e51b81526004016100d7906103d3565b949350505050565b61013f610245565b60006060846001600160a01b0316610156856101f2565b6040516101639190610368565b600060405180830381855af49150503d806000811461019e576040519150601f19603f3d011682016040523d82523d6000602084013e6101a3565b606091505b50604080518082019091529115158252602082015295945050505050565b6060816040516020016101d49190610441565b6040516020818303038152906040529050919050565b805160208201fd5b60606309c5eabe60e01b8260405160240161020d9190610384565b60408051601f198184030181529190526020810180516001600160e01b03166001600160e01b03199093169290921790915292915050565b60408051808201909152600081526060602082015290565b600082601f83011261026d578081fd5b813567ffffffffffffffff80821115610284578283fd5b604051601f8301601f1916810160200182811182821017156102a4578485fd5b6040528281529250828483016020018610156102bf57600080fd5b8260208601602083013760006020848301015250505092915050565b600080604083850312156102ed578182fd5b823567ffffffffffffffff80821115610304578384fd5b6103108683870161025d565b93506020850135915080821115610325578283fd5b506103328582860161025d565b9150509250929050565b60008151808452610354816020860160208601610468565b601f01601f19169290920160200192915050565b6000825161037a818460208701610468565b9190910192915050565b600060208252610397602083018461033c565b9392505050565b6020808252818101527f437265617465323a2062797465636f6465206c656e677468206973207a65726f604082015260600190565b60208082526019908201527f437265617465323a204661696c6564206f6e206465706c6f7900000000000000604082015260600190565b6020808252601d908201527f437265617465323a20696e73756666696369656e742062616c616e6365000000604082015260600190565b600060208252825115156020830152602083015160408084015261012f606084018261033c565b60005b8381101561048357818101518382015260200161046b565b8381111561008a575050600091015256fea2646970667358221220030f89c390fcb04044950920508eecbdc73476c558131fef4f8b1738cbd43d2564736f6c63430006060033",
  "immutableReferences": {},
  "source": "pragma solidity ^0.6.0;\npragma experimental ABIEncoderV2;\n\nimport { SafeViewLib } from \"./SafeViewLib.sol\";\nimport { Create2 } from \"openzeppelin-solidity/contracts/utils/Create2.sol\";\n\ncontract SafeViewExecutor {\n  using SafeViewLib for *;\n  bytes32 constant STEALTH_VIEW_DEPLOY_SALT = 0xad53495153c7c363e98a26920ec679e0e687636458f6908c91cf6deadb190801;\n  function _executeSafeView(bytes memory creationCode, bytes memory context) public {\n    address viewLayer = Create2.deploy(0, SafeViewLib.GET_STEALTH_VIEW_DEPLOY_SALT(), creationCode);\n    bytes memory result = viewLayer.executeLogic(context).encodeResult();\n    result.revertWithData();\n  }\n}\n",
  "sourcePath": "/home/ray/0confirmation/packages/0confirmation-sol/contracts/utils/sandbox/SafeViewExecutor.sol",
  "compiler": {
    "name": "solc",
    "version": "0.6.6+commit.6c089d02.Emscripten.clang"
  },
  "schemaVersion": "3.1.0",
  "updatedAt": "2020-04-26T05:25:59.890Z",
  "devdoc": {
    "methods": {}
  },
  "userdoc": {
    "methods": {}
  }
}