{
  "contractName": "ShifterPool",
  "abi": [
    {
      "inputs": [],
      "stateMutability": "nonpayable",
      "type": "constructor"
    },
    {
      "anonymous": false,
      "inputs": [
        {
          "indexed": true,
          "internalType": "address",
          "name": "previousOwner",
          "type": "address"
        },
        {
          "indexed": true,
          "internalType": "address",
          "name": "newOwner",
          "type": "address"
        }
      ],
      "name": "OwnershipTransferred",
      "type": "event"
    },
    {
      "inputs": [
        {
          "internalType": "bytes",
          "name": "creationCode",
          "type": "bytes"
        },
        {
          "internalType": "bytes",
          "name": "context",
          "type": "bytes"
        }
      ],
      "name": "_executeSafeView",
      "outputs": [],
      "stateMutability": "nonpayable",
      "type": "function"
    },
    {
      "inputs": [
        {
          "internalType": "bytes",
          "name": "consData",
          "type": "bytes"
        }
      ],
      "name": "cloneConstructor",
      "outputs": [],
      "stateMutability": "nonpayable",
      "type": "function"
    },
    {
      "inputs": [],
      "name": "owner",
      "outputs": [
        {
          "internalType": "address",
          "name": "",
          "type": "address"
        }
      ],
      "stateMutability": "view",
      "type": "function"
    },
    {
      "inputs": [
        {
          "internalType": "bytes",
          "name": "creationCode",
          "type": "bytes"
        },
        {
          "internalType": "bytes",
          "name": "context",
          "type": "bytes"
        }
      ],
      "name": "query",
      "outputs": [
        {
          "components": [
            {
              "internalType": "bool",
              "name": "success",
              "type": "bool"
            },
            {
              "internalType": "bytes",
              "name": "data",
              "type": "bytes"
            }
          ],
          "internalType": "struct SafeViewLib.SafeViewResult",
          "name": "",
          "type": "tuple"
        }
      ],
      "stateMutability": "nonpayable",
      "type": "function"
    },
    {
      "inputs": [],
      "name": "renounceOwnership",
      "outputs": [],
      "stateMutability": "nonpayable",
      "type": "function"
    },
    {
      "inputs": [
        {
          "internalType": "address",
          "name": "newOwner",
          "type": "address"
        }
      ],
      "name": "transferOwnership",
      "outputs": [],
      "stateMutability": "nonpayable",
      "type": "function"
    },
    {
      "inputs": [
        {
          "components": [
            {
              "internalType": "address",
              "name": "shifterRegistry",
              "type": "address"
            },
            {
              "internalType": "uint256",
              "name": "minTimeout",
              "type": "uint256"
            },
            {
              "internalType": "uint256",
              "name": "poolFee",
              "type": "uint256"
            },
            {
              "internalType": "uint256",
              "name": "daoFee",
              "type": "uint256"
            },
            {
              "internalType": "uint256",
              "name": "maxLoan",
              "type": "uint256"
            }
          ],
          "internalType": "struct ShifterPoolLib.SetupParams",
          "name": "params",
          "type": "tuple"
        },
        {
          "components": [
            {
              "internalType": "enum BorrowProxyLib.ModuleRegistrationType",
              "name": "moduleType",
              "type": "uint8"
            },
            {
              "internalType": "address",
              "name": "target",
              "type": "address"
            },
            {
              "internalType": "bytes4[]",
              "name": "sigs",
              "type": "bytes4[]"
            }
          ],
          "internalType": "struct BorrowProxyLib.ModuleDetails[]",
          "name": "moduleDetails",
          "type": "tuple[]"
        },
        {
          "components": [
            {
              "internalType": "bool",
              "name": "isPrecompiled",
              "type": "bool"
            },
            {
              "internalType": "address",
              "name": "assetSubmodule",
              "type": "address"
            },
            {
              "internalType": "address",
              "name": "liquidationSubmodule",
              "type": "address"
            },
            {
              "internalType": "address",
              "name": "repaymentSubmodule",
              "type": "address"
            }
          ],
          "internalType": "struct BorrowProxyLib.Module[]",
          "name": "modules",
          "type": "tuple[]"
        },
        {
          "components": [
            {
              "internalType": "address",
              "name": "token",
              "type": "address"
            },
            {
              "internalType": "address",
              "name": "liqToken",
              "type": "address"
            }
          ],
          "internalType": "struct ShifterPoolLib.LiquidityTokenLaunch[]",
          "name": "tokenLaunches",
          "type": "tuple[]"
        }
      ],
      "name": "setup",
      "outputs": [],
      "stateMutability": "nonpayable",
      "type": "function"
    },
    {
      "inputs": [
        {
          "internalType": "address",
          "name": "token",
          "type": "address"
        }
      ],
      "name": "getLiquidityTokenForTokenHandler",
      "outputs": [
        {
          "internalType": "address",
          "name": "",
          "type": "address"
        }
      ],
      "stateMutability": "view",
      "type": "function"
    },
    {
      "inputs": [],
      "name": "deployBorrowProxyImplementation",
      "outputs": [],
      "stateMutability": "nonpayable",
      "type": "function"
    },
    {
      "inputs": [],
      "name": "deployAssetForwarderImplementation",
      "outputs": [],
      "stateMutability": "nonpayable",
      "type": "function"
    },
    {
      "inputs": [
        {
          "internalType": "bytes32",
          "name": "salt",
          "type": "bytes32"
        }
      ],
      "name": "deployAssetForwarderClone",
      "outputs": [
        {
          "internalType": "address",
          "name": "created",
          "type": "address"
        }
      ],
      "stateMutability": "nonpayable",
      "type": "function"
    },
    {
      "inputs": [],
      "name": "getAssetForwarderImplementationHandler",
      "outputs": [
        {
          "internalType": "address",
          "name": "implementation",
          "type": "address"
        }
      ],
      "stateMutability": "view",
      "type": "function"
    },
    {
      "inputs": [
        {
          "components": [
            {
              "components": [
                {
                  "internalType": "address payable",
                  "name": "borrower",
                  "type": "address"
                },
                {
                  "internalType": "address",
                  "name": "token",
                  "type": "address"
                },
                {
                  "internalType": "bytes32",
                  "name": "nonce",
                  "type": "bytes32"
                },
                {
                  "internalType": "uint256",
                  "name": "amount",
                  "type": "uint256"
                },
                {
                  "internalType": "bool",
                  "name": "forbidLoan",
                  "type": "bool"
                },
                {
                  "components": [
                    {
                      "internalType": "address",
                      "name": "to",
                      "type": "address"
                    },
                    {
                      "internalType": "bytes",
                      "name": "txData",
                      "type": "bytes"
                    }
                  ],
                  "internalType": "struct ShifterBorrowProxyLib.InitializationAction[]",
                  "name": "actions",
                  "type": "tuple[]"
                }
              ],
              "internalType": "struct ShifterBorrowProxyLib.LiquidityRequest",
              "name": "request",
              "type": "tuple"
            },
            {
              "internalType": "uint256",
              "name": "gasRequested",
              "type": "uint256"
            },
            {
              "internalType": "bytes",
              "name": "signature",
              "type": "bytes"
            }
          ],
          "internalType": "struct ShifterBorrowProxyLib.LiquidityRequestParcel",
          "name": "liquidityRequestParcel",
          "type": "tuple"
        },
        {
          "internalType": "uint256",
          "name": "bond",
          "type": "uint256"
        },
        {
          "internalType": "uint256",
          "name": "timeoutExpiry",
          "type": "uint256"
        }
      ],
      "name": "executeBorrow",
      "outputs": [],
      "stateMutability": "payable",
      "type": "function"
    },
    {
      "inputs": [
        {
          "components": [
            {
              "components": [
                {
                  "components": [
                    {
                      "internalType": "address payable",
                      "name": "borrower",
                      "type": "address"
                    },
                    {
                      "internalType": "address",
                      "name": "token",
                      "type": "address"
                    },
                    {
                      "internalType": "bytes32",
                      "name": "nonce",
                      "type": "bytes32"
                    },
                    {
                      "internalType": "uint256",
                      "name": "amount",
                      "type": "uint256"
                    },
                    {
                      "internalType": "bool",
                      "name": "forbidLoan",
                      "type": "bool"
                    },
                    {
                      "components": [
                        {
                          "internalType": "address",
                          "name": "to",
                          "type": "address"
                        },
                        {
                          "internalType": "bytes",
                          "name": "txData",
                          "type": "bytes"
                        }
                      ],
                      "internalType": "struct ShifterBorrowProxyLib.InitializationAction[]",
                      "name": "actions",
                      "type": "tuple[]"
                    }
                  ],
                  "internalType": "struct ShifterBorrowProxyLib.LiquidityRequest",
                  "name": "request",
                  "type": "tuple"
                },
                {
                  "internalType": "uint256",
                  "name": "gasRequested",
                  "type": "uint256"
                },
                {
                  "internalType": "bytes",
                  "name": "signature",
                  "type": "bytes"
                }
              ],
              "internalType": "struct ShifterBorrowProxyLib.LiquidityRequestParcel",
              "name": "liquidityRequestParcel",
              "type": "tuple"
            },
            {
              "components": [
                {
                  "internalType": "bytes32",
                  "name": "txhash",
                  "type": "bytes32"
                },
                {
                  "internalType": "uint256",
                  "name": "vout",
                  "type": "uint256"
                },
                {
                  "internalType": "bytes32",
                  "name": "pHash",
                  "type": "bytes32"
                },
                {
                  "internalType": "bytes",
                  "name": "darknodeSignature",
                  "type": "bytes"
                }
              ],
              "internalType": "struct ShifterBorrowProxyLib.ShiftParameters",
              "name": "shiftParameters",
              "type": "tuple"
            },
            {
              "components": [
                {
                  "internalType": "address",
                  "name": "to",
                  "type": "address"
                },
                {
                  "internalType": "bytes",
                  "name": "txData",
                  "type": "bytes"
                }
              ],
              "internalType": "struct ShifterBorrowProxyLib.InitializationAction[]",
              "name": "actions",
              "type": "tuple[]"
            }
          ],
          "internalType": "struct ShifterBorrowProxyLib.SansBorrowShiftParcel",
          "name": "parcel",
          "type": "tuple"
        }
      ],
      "name": "executeShiftSansBorrow",
      "outputs": [],
      "stateMutability": "payable",
      "type": "function"
    },
    {
      "inputs": [
        {
          "internalType": "bytes",
          "name": "proxyRecord",
          "type": "bytes"
        }
      ],
      "name": "validateProxyRecordHandler",
      "outputs": [
        {
          "internalType": "bool",
          "name": "",
          "type": "bool"
        }
      ],
      "stateMutability": "view",
      "type": "function"
    },
    {
      "inputs": [
        {
          "internalType": "address",
          "name": "proxyAddress",
          "type": "address"
        }
      ],
      "name": "getProxyTokenHandler",
      "outputs": [
        {
          "internalType": "address",
          "name": "",
          "type": "address"
        }
      ],
      "stateMutability": "view",
      "type": "function"
    },
    {
      "inputs": [
        {
          "internalType": "address",
          "name": "user",
          "type": "address"
        }
      ],
      "name": "getProxyOwnerHandler",
      "outputs": [
        {
          "internalType": "address",
          "name": "",
          "type": "address"
        }
      ],
      "stateMutability": "view",
      "type": "function"
    },
    {
      "inputs": [
        {
          "internalType": "address",
          "name": "token",
          "type": "address"
        }
      ],
      "name": "getShifterHandler",
      "outputs": [
        {
          "internalType": "contract IShifter",
          "name": "",
          "type": "address"
        }
      ],
      "stateMutability": "view",
      "type": "function"
    },
    {
      "inputs": [
        {
          "internalType": "address",
          "name": "token",
          "type": "address"
        }
      ],
      "name": "getLiquidityTokenHandler",
      "outputs": [
        {
          "internalType": "contract LiquidityToken",
          "name": "",
          "type": "address"
        }
      ],
      "stateMutability": "view",
      "type": "function"
    },
    {
      "inputs": [
        {
          "internalType": "address",
          "name": "to",
          "type": "address"
        },
        {
          "internalType": "bytes4",
          "name": "sig",
          "type": "bytes4"
        }
      ],
      "name": "fetchModuleHandler",
      "outputs": [
        {
          "components": [
            {
              "internalType": "bool",
              "name": "isPrecompiled",
              "type": "bool"
            },
            {
              "internalType": "address",
              "name": "assetSubmodule",
              "type": "address"
            },
            {
              "internalType": "address",
              "name": "liquidationSubmodule",
              "type": "address"
            },
            {
              "internalType": "address",
              "name": "repaymentSubmodule",
              "type": "address"
            }
          ],
          "internalType": "struct BorrowProxyLib.Module",
          "name": "",
          "type": "tuple"
        }
      ],
      "stateMutability": "view",
      "type": "function"
    },
    {
      "inputs": [
        {
          "internalType": "address",
          "name": "token",
          "type": "address"
        },
        {
          "internalType": "address",
          "name": "liquidityToken",
          "type": "address"
        },
        {
          "internalType": "address",
          "name": "keeper",
          "type": "address"
        },
        {
          "internalType": "uint256",
          "name": "bond",
          "type": "uint256"
        },
        {
          "internalType": "uint256",
          "name": "repay",
          "type": "uint256"
        }
      ],
      "name": "relayResolveLoan",
      "outputs": [
        {
          "internalType": "bool",
          "name": "",
          "type": "bool"
        }
      ],
      "stateMutability": "nonpayable",
      "type": "function"
    }
  ],
  "bytecode": "0x60806040523480156200001157600080fd5b506000620000276001600160e01b036200007b16565b600080546001600160a01b0319166001600160a01b0383169081178255604051929350917f8be0079c531659141344cd1fd0a4f28419497f9722a3daafe3b4186f6b6457e0908290a350436001556200007f565b3390565b6140b2806200008f6000396000f3fe60806040526004361061012a5760003560e01c806365ba837a116100ab57806393e93abe1161006f57806393e93abe14610315578063c2006b621461032a578063d0a80e311461034a578063dc74245e1461036a578063e6c1f0741461037d578063f2fde38b1461039d5761012a565b806365ba837a14610296578063715018a6146102ab578063798aada0146102c0578063801874ec146102e05780638da5cb5b146103005761012a565b806334686eaf116100f257806334686eaf146101e7578063441123601461021457806352e831dd146102415780635f7d2b571461026157806363091aa3146102815761012a565b806308f604951461012f5780631fbc78dc146101655780632593b0531461019257806329658b02146101b25780632b19a598146101d2575b600080fd5b34801561013b57600080fd5b5061014f61014a366004612c48565b6103bd565b60405161015c9190613318565b60405180910390f35b34801561017157600080fd5b50610185610180366004612b4a565b6103d7565b60405161015c9190613243565b34801561019e57600080fd5b506101856101ad366004612c30565b6103ea565b3480156101be57600080fd5b506101856101cd366004612b4a565b610437565b6101e56101e0366004612dd9565b61044a565b005b3480156101f357600080fd5b50610207610202366004612c7a565b610482565b60405161015c9190613c5e565b34801561022057600080fd5b5061023461022f366004612bdc565b6104a1565b60405161015c9190613b4e565b34801561024d57600080fd5b506101e561025c366004612c48565b6104bb565b34801561026d57600080fd5b506101e561027c366004612c7a565b6104be565b34801561028d57600080fd5b506101e5610509565b3480156102a257600080fd5b5061018561055c565b3480156102b757600080fd5b506101e561056b565b3480156102cc57600080fd5b506101856102db366004612b4a565b6105f3565b3480156102ec57600080fd5b5061014f6102fb366004612b82565b610606565b34801561030c57600080fd5b506101856107ad565b34801561032157600080fd5b506101e56107bc565b34801561033657600080fd5b506101e5610345366004612ed8565b6107e6565b34801561035657600080fd5b50610185610365366004612b4a565b6109af565b6101e5610378366004612cda565b6109cd565b34801561038957600080fd5b50610185610398366004612b4a565b610a2d565b3480156103a957600080fd5b506101e56103b8366004612b4a565b610a40565b60006103d1600c338463ffffffff610af616565b92915050565b60006103d160018363ffffffff610b1c16565b6003546000906103d1906001600160a01b0316610405610b9f565b33856040516020016104199392919061319c565b6040516020818303038152906040528051906020012060001c610bc3565b60006103d1600c8363ffffffff610c1316565b6000606061045783610c36565b91509150805160001461047d5761047d6001600160a01b0383168263ffffffff610f9116565b505050565b61048a612539565b61049a838363ffffffff610ff316565b9392505050565b6104a9612551565b61049a6010848463ffffffff61106c16565b50565b60006104d360006104cd61115a565b8561117e565b905060606104f86104f36001600160a01b0384168563ffffffff6111f016565b61127a565b9050610503816112a3565b50505050565b61053a60017ffe1e3164ba4910db3c9afd049cd8feb4552390569c846692e6df4ac68aeaa90e63ffffffff6112ab16565b600280546001600160a01b0319166001600160a01b0392909216919091179055565b6003546001600160a01b031690565b610573611313565b6000546001600160a01b039081169116146105a95760405162461bcd60e51b81526004016105a090613864565b60405180910390fd5b600080546040516001600160a01b03909116907f8be0079c531659141344cd1fd0a4f28419497f9722a3daafe3b4186f6b6457e0908390a3600080546001600160a01b0319169055565b60006103d160018363ffffffff61131716565b336000908152600c60205260408120546106325760405162461bcd60e51b81526004016105a09061369b565b821561066e576106526001600160a01b038716858563ffffffff61135316565b61066e5760405162461bcd60e51b81526004016105a0906137a8565b8115610707576000806106888585036001600601546113c5565b90925090506106a86001600160a01b03891633898563ffffffff61140e16565b6106c45760405162461bcd60e51b81526004016105a0906135b1565b6106e8336106d06107ad565b6001600160a01b038b1691908463ffffffff61140e16565b6107045760405162461bcd60e51b81526004016105a090613a11565b50505b60405163c3275c7960e01b81526001600160a01b0386169063c3275c7990610733903390600401613243565b602060405180830381600087803b15801561074d57600080fd5b505af1158015610761573d6000803e3d6000fd5b505050506040513d601f19601f820116820180604052508101906107859190612c14565b6107a15760405162461bcd60e51b81526004016105a0906139da565b50600195945050505050565b6000546001600160a01b031690565b6107c4611482565b600380546001600160a01b0319166001600160a01b0392909216919091179055565b6107ee611313565b6000546001600160a01b0390811691161461081b5760405162461bcd60e51b81526004016105a090613864565b825182511461083c5760405162461bcd60e51b81526004016105a09061393a565b8351600480546001600160a01b0319166001600160a01b03909216919091179055608084015160085560208401516005556040840151600655606084015160075560005b825181101561093c57610891612578565b60405180608001604052808684815181106108a857fe5b60200260200101516000015160028111156108bf57fe5b81526020018684815181106108d057fe5b6020026020010151602001516001600160a01b031681526020018684815181106108f657fe5b602002602001015160400151815260200185848151811061091357fe5b60209081029190910101519052905061093360108263ffffffff6114da16565b50600101610880565b5060005b81518110156109a8576109516125a6565b82828151811061095d57fe5b6020908102919091018101518082015190516001600160a01b039081166000908152600b909352604090922080546001600160a01b0319169290911691909117905550600101610940565b5050505050565b6001600160a01b039081166000908152600b60205260409020541690565b825160a001516109dc84611594565b5060006109ea858585611676565b85518051602090910151919250610a14916001600160a01b0384169190600063ffffffff61181716565b6109a86001600160a01b0382168363ffffffff610f9116565b60006103d1600c8363ffffffff6118b516565b610a48611313565b6000546001600160a01b03908116911614610a755760405162461bcd60e51b81526004016105a090613864565b6001600160a01b038116610a9b5760405162461bcd60e51b81526004016105a0906134ba565b600080546040516001600160a01b03808516939216917f8be0079c531659141344cd1fd0a4f28419497f9722a3daafe3b4186f6b6457e091a3600080546001600160a01b0319166001600160a01b0392909216919091179055565b80516020918201206001600160a01b039290921660009081529290526040909120541490565b600382015460405163028c4f4160e41b81526000916001600160a01b0316906328c4f41090610b4f908590600401613243565b60206040518083038186803b158015610b6757600080fd5b505afa158015610b7b573d6000803e3d6000fd5b505050506040513d601f19601f8201168201806040525081019061049a9190612b66565b7f6b6f6b75258f8f4cdb6ef275682bc2be3e8b970e5e4417113bd1ea53622d907e90565b60006060610bd0846118d8565b80519091508390602083018282826000f5945050506001600160a01b038316610c0b5760405162461bcd60e51b81526004016105a090613912565b505092915050565b6001600160a01b0380821660009081526002840160205260409020541692915050565b60006060610c426125bd565b60408051608081018252855151818301908152825180840190935233835286515160609081015192938493918401916020820190610c8990600190600a81046103e86118e4565b90529052815260408051608081018252602088810180515183528051820151838301528051840151938301939093529151606090810151908201529101528451909150610ce790610cd9906119d8565b85519063ffffffff6119f116565b610d035760405162461bcd60e51b81526004016105a090613820565b835151600090610d1290611a22565b600254909150610d31906001600160a01b03168263ffffffff611a2d16565b9350610d44600c8563ffffffff611a3916565b15610d615760405162461bcd60e51b81526004016105a0906133de565b610d96846001604051602001610d77919061323a565b60408051601f19818403018152919052600c919063ffffffff611a5716565b84515160200151610daf9060019063ffffffff610b1c16565b6001600160a01b031663159ab14d86602001516040015187600001516000015160600151610ddc86611a7a565b8960200151606001516040518563ffffffff1660e01b8152600401610e049493929190613323565b602060405180830381600087803b158015610e1e57600080fd5b505af1158015610e32573d6000803e3d6000fd5b505050506040513d601f19601f82011682018060405250810190610e569190612fb3565b50845151606001518251600091610e73919063ffffffff611a8516565b9050610e7e82611ab2565b508551518051602090910151610ea6916001600160a01b03881691600163ffffffff61181716565b855151516001600160a01b03163314801590610ec6575085516020015134145b15610f5157855151516040516001600160a01b03909116903480156108fc02916000818181858888f19350505050158015610f05573d6000803e3d6000fd5b5085515160200151610f27906001600160a01b0316338363ffffffff61135316565b610f435760405162461bcd60e51b81526004016105a090613500565b85515160a001519350610f89565b855151516001600160a01b0316331415610f715785604001519350610f89565b60405162461bcd60e51b81526004016105a090613899565b505050915091565b604051630bfceb2b60e31b81526001600160a01b03831690635fe7595890610fbd9084906004016132b8565b600060405180830381600087803b158015610fd757600080fd5b505af1158015610feb573d6000803e3d6000fd5b505050505050565b610ffb612539565b6060306110088585611acb565b60405161101591906131ed565b6000604051808303816000865af19150503d8060008114611052576040519150601f19603f3d011682016040523d82523d6000602084013e611057565b606091505b5091505061106481611b21565b949350505050565b611074612551565b61107c612551565b8460006110898686611b3d565b815260208082019290925260409081016000208151608081018352815460ff8116151582526001600160a01b03610100909104811694820194909452600182015484169281019290925260020154909116606082015290506110ea81611b65565b611064578460006110fb8686611b77565b815260208082019290925260409081016000208151608081018352815460ff81161515825261010090046001600160a01b0390811694820194909452600182015484169281019290925260020154909116606082015295945050505050565b7fad53495153c7c363e98a26920ec679e0e687636458f6908c91cf6deadb19080190565b600080844710156111a15760405162461bcd60e51b81526004016105a090613adb565b82516111bf5760405162461bcd60e51b81526004016105a090613420565b8383516020850187f590506001600160a01b0381166110645760405162461bcd60e51b81526004016105a090613771565b6111f8612539565b60006060846001600160a01b031661120f85611b92565b60405161121c91906131ed565b600060405180830381855af49150503d8060008114611257576040519150601f19603f3d011682016040523d82523d6000602084013e61125c565b606091505b50604080518082019091529115158252602082015295945050505050565b60608160405160200161128d9190613c5e565b6040516020818303038152906040529050919050565b805160208201fd5b60405163dd678a0760e01b815260009073__ShifterBorrowProxyFactoryLib__________9063dd678a07906112e79086908690600401613b40565b60206040518083038186803b1580156112ff57600080fd5b505af4158015610b7b573d6000803e3d6000fd5b3390565b6001600160a01b038082166000908152600a840160205260408120549091168061049a5760405162461bcd60e51b81526004016105a0906139a5565b600080846001600160a01b031661136a8585611be5565b60405161137791906131ed565b6000604051808303816000865af19150503d80600081146113b4576040519150601f19603f3d011682016040523d82523d6000602084013e6113b9565b606091505b50909695505050505050565b6000806113f0670de0b6b3a76400006113e4868663ffffffff611c0216565b9063ffffffff611c3c16565b905083811015611404578084039150611407565b50825b9250929050565b600080856001600160a01b0316611426868686611c7e565b60405161143391906131ed565b6000604051808303816000865af19150503d8060008114611470576040519150601f19603f3d011682016040523d82523d6000602084013e611475565b606091505b5090979650505050505050565b60006114d560007f6b6f6b75258f8f4cdb6ef275682bc2be3e8b970e5e4417113bd1ea53622d907e60001b604051806020016114bd906125dd565b601f1982820381018352601f9091011660405261117e565b905090565b6001815160028111156114e957fe5b14156115385760005b8160400151518110156115325761152a8383602001518460400151848151811061151857fe5b60200260200101518560600151611cd7565b6001016114f2565b50611590565b60028151600281111561154757fe5b14156115905760005b81604001515181101561047d576115888383602001518460400151848151811061157657fe5b60200260200101518560600151611d61565b600101611550565b5050565b6000808260000151602001516001600160a01b031663313ce5676040518163ffffffff1660e01b815260040160206040518083038186803b1580156115d857600080fd5b505afa1580156115ec573d6000803e3d6000fd5b505050506040513d601f19601f820116820180604052508101906116109190612fcb565b905060128160ff1611156116365760405162461bcd60e51b81526004016105a090613a7e565b60085483516060015160ff8316601203600a0a908161165157fe5b0411156116705760405162461bcd60e51b81526004016105a090613b12565b50919050565b8251608001516000901561169c5760405162461bcd60e51b81526004016105a0906136d2565b348460200151146116bf5760405162461bcd60e51b81526004016105a090613565565b6116d86116cb856119d8565b859063ffffffff6119f116565b6116f45760405162461bcd60e51b81526004016105a090613820565b6116fc6125ea565b508351600061170a82611a22565b6040805160008082526020820190925291925061173d565b61172a612539565b8152602001906001900390816117225790505b5060a083015261174b612621565b60405180604001604052808481526020016040518060400160405280336001600160a01b0316815260200161179287606001518b8b60016118e4909392919063ffffffff16565b9052905290506117a182611ab2565b93506117af60018583611d6f565b6117d18360200151856117c184611e0e565b600192919063ffffffff611e4616565b60208301516117f1906001600160a01b031633308963ffffffff61140e16565b61180d5760405162461bcd60e51b81526004016105a0906138e2565b5050509392505050565b6040516329c8702d60e01b81526001600160a01b038516906329c8702d9061184790869086908690600401613270565b602060405180830381600087803b15801561186157600080fd5b505af1158015611875573d6000803e3d6000fd5b505050506040513d601f19601f820116820180604052508101906118999190612c14565b6105035760405162461bcd60e51b81526004016105a0906135e8565b6001600160a01b0380821660009081526001840160205260409020541692915050565b60606103d13083611eeb565b6118ec612641565b84600401548210156119105760405162461bcd60e51b81526004016105a090613455565b600061192b670de0b6b3a7640000606463ffffffff611c3c16565b9050611946670de0b6b3a7640000606463ffffffff611c3c16565b611962866113e487670de0b6b3a764000063ffffffff611c0216565b1161197f5760405162461bcd60e51b81526004016105a090613a52565b60008486106119a15761199c866113e4848863ffffffff611c0216565b6119a3565b815b905060405180608001604052808543018152602001868152602001886005015481526020018281525092505050949350505050565b60006119e38261204a565b805190602001209050919050565b6000611a096119ff8361206a565b846040015161209a565b8351516001600160a01b03908116911614905092915050565b60006119e3826121c8565b600061049a83836121e4565b6001600160a01b031660009081526020919091526040902054151590565b80516020918201206001600160a01b039092166000908152929052604090912055565b60006119e3826121ff565b600061049a670de0b6b3a76400006113e48560200151602001516060015185611c0290919063ffffffff16565b6002546000906103d1906001600160a01b031683610bc3565b6060635f7d2b5760e01b8383604051602401611ae8929190613379565b60408051601f198184030181529190526020810180516001600160e01b03166001600160e01b0319909316929092179091529392505050565b611b29612539565b818060200190518101906103d19190612d25565b600080611b4984612226565b9050611b55818461222a565b8051906020012091505092915050565b602001516001600160a01b0316151590565b6000611b838383612256565b80519060200120905092915050565b60606309c5eabe60e01b82604051602401611bad9190613366565b60408051601f198184030181529190526020810180516001600160e01b03166001600160e01b03199093169290921790915292915050565b606063a9059cbb60e01b8383604051602401611ae8929190613257565b600082611c11575060006103d1565b82820282848281611c1e57fe5b041461049a5760405162461bcd60e51b81526004016105a0906137df565b600061049a83836040518060400160405280601a81526020017f536166654d6174683a206469766973696f6e206279207a65726f00000000000081525061226b565b60606323b872dd60e01b848484604051602401611c9d93929190613294565b60408051601f198184030181529190526020810180516001600160e01b03166001600160e01b031990931692909217909152949350505050565b80846000611ce58686611b3d565b81526020808201929092526040908101600020835181549385015160ff1990941690151517610100600160a81b0319166101006001600160a01b0394851602178155908301516001820180546001600160a01b031990811692851692909217905560609093015160029091018054909316911617905550505050565b80846000611ce58686611b77565b6060611d7a826122a2565b825160200151909150611d9990600b860190859063ffffffff6122b516565b815151611db290600b860190859063ffffffff6122e916565b8151516040516001600160a01b03909116903480156108fc02916000818181858888f19350505050158015611deb573d6000803e3d6000fd5b50611e00600b8501848363ffffffff611a5716565b81515161050390848361231d565b60006103d1611e34611e1f8461236d565b611e28856123a2565b9063ffffffff6123d716565b8351606001519063ffffffff6123fc16565b611e508484611317565b6001600160a01b031663185cc75183836040518363ffffffff1660e01b8152600401611e7d929190613257565b602060405180830381600087803b158015611e9757600080fd5b505af1158015611eab573d6000803e3d6000fd5b505050506040513d601f19601f82011682018060405250810190611ecf9190612c14565b6105035760405162461bcd60e51b81526004016105a090613657565b6040805160008152602081019091526060908190611f0c9060448101613366565b60408051601f198184030181529190526020810180516001600160e01b03166352e831dd60e01b17905280519091506063016001600160401b0381118015611f5357600080fd5b506040519080825280601f01601f191660200182016040528015611f7e576020820181803683370190505b507f3d3d606380380380913d393d73bebebebebebebebebebebebebebebebebebebe6020820152600160601b858102602d8301527f5af4602a57600080fd5b602d8060366000396000f3363d3d373d3d3d363d73be6041830152840260608201526e5af43d82803e903d91602b57fd5bf360881b6074820152915060005b8151811015610c0b5781818151811061201157fe5b602001015160f81c60f81b83826063018151811061202b57fe5b60200101906001600160f81b031916908160001a905350600101611ffc565b60608061205e836000015160a0015161243e565b905061049a8382612451565b60008160405160200161207d9190613209565b604051602081830303815290604052805190602001209050919050565b600081516041146120bd5760405162461bcd60e51b81526004016105a090613483565b60208201516040830151606084015160001a7f7fffffffffffffffffffffffffffffff5d576e7357a4501ddfe92f46681b20a082111561210f5760405162461bcd60e51b81526004016105a090613615565b8060ff16601b1415801561212757508060ff16601c14155b156121445760405162461bcd60e51b81526004016105a09061372f565b6000600187838686604051600081526020016040526040516121699493929190613348565b6020604051602081039080840390855afa15801561218b573d6000803e3d6000fd5b5050604051601f1901519150506001600160a01b0381166121be5760405162461bcd60e51b81526004016105a0906133a7565b9695505050505050565b6060806121d88360a0015161243e565b905061049a8382612487565b600061049a826121f3856118d8565b805190602001206124b8565b805151604090810151602080840151805190820151935160609461128d94939091016131bf565b3f90565b6060828260405160200161223f9291906131d5565b604051602081830303815290604052905092915050565b6060828260405160200161223f929190613141565b6000818361228c5760405162461bcd60e51b81526004016105a09190613366565b50600083858161229857fe5b0495945050505050565b60608160405160200161128d9190613b8c565b6001600160a01b039182166000908152600290930160205260409092208054919092166001600160a01b0319909116179055565b6001600160a01b039182166000908152600190930160205260409092208054919092166001600160a01b0319909116179055565b816001600160a01b0316836001600160a01b03167f9ae84ac2ad8f721c2e62d211eca0ae34951726f8834913af6c5ebb81610bb1f8836040516123609190613366565b60405180910390a3505050565b60006103d1670de0b6b3a76400006113e484602001516020015160600151856000015160600151611c0290919063ffffffff16565b60006103d1670de0b6b3a76400006113e484602001516020015160400151856000015160600151611c0290919063ffffffff16565b60008282018381101561049a5760405162461bcd60e51b81526004016105a09061352e565b600061049a83836040518060400160405280601e81526020017f536166654d6174683a207375627472616374696f6e206f766572666c6f7700008152506124c5565b60608160405160200161128d91906132b8565b8151602080820151604080840151606085810151858901516080909701519351919661223f9630969592939192918a91016130da565b6060826000015183602001518460400151856060015186608001518660405160200161223f9695949392919061307a565b600061049a8383306124f1565b600081848411156124e95760405162461bcd60e51b81526004016105a09190613366565b505050900390565b60008060ff60f81b83868660405160200161250f9493929190613168565b60408051808303601f1901815291905280516020909101206001600160a01b031695945050505050565b60408051808201909152600081526060602082015290565b60408051608081018252600080825260208201819052918101829052606081019190915290565b6040805160808101909152806000815260006020820152606060408201819052016125a1612551565b905290565b604080518082019091526000808252602082015290565b60405180604001604052806125d0612621565b81526020016125a1612669565b61032a80613d5383390190565b6040805160c0810182526000808252602082018190529181018290526060808201839052608082019290925260a081019190915290565b60405180604001604052806126346125ea565b81526020016125a161268f565b6040518060800160405280600081526020016000815260200160008152602001600081525090565b604080516080810182526000808252602082018190529181019190915260608082015290565b604051806040016040528060006001600160a01b031681526020016125a1612641565b80356103d181613d19565b600082601f8301126126cd578081fd5b81356126e06126db82613cab565b613c85565b81815291506020808301908481018184028601820187101561270157600080fd5b60005b8481101561272957813561271781613d3c565b84529282019290820190600101612704565b505050505092915050565b600082601f830112612744578081fd5b81356127526126db82613cab565b818152915060208083019084810160005b848110156127295781358701604080601f19838c0301121561278457600080fd5b61278d81613c85565b6127998b8785016126b2565b8152818301356001600160401b038111156127b357600080fd5b6127c18c88838701016129f7565b8288015250865250509282019290820190600101612763565b600082601f8301126127ea578081fd5b81356127f86126db82613cab565b818152915060208083019084810160408085028701830188101561281b57600080fd5b6000805b8681101561286e5782848b031215612835578182fd5b61283e83613c85565b843561284981613d19565b81528486013561285881613d19565b818701528652948401949282019260010161281f565b5050505050505092915050565b600082601f83011261288b578081fd5b81356128996126db82613cab565b818152915060208083019084810160005b848110156127295781358701606080601f19838c030112156128cb57600080fd5b6128d481613c85565b6128e08b878501612a45565b815260406128f08c8286016126b2565b87830152828401356001600160401b0381111561290c57600080fd5b61291a8d89838801016126bd565b91830191909152508652505092820192908201906001016128aa565b600082601f830112612946578081fd5b81356129546126db82613cab565b818152915060208083019084810160808085028701830188101561297757600080fd5b6000805b8681101561286e5782848b031215612991578182fd5b61299a83613c85565b6129a48b866129ec565b81526129b28b8787016126b2565b8682015260406129c48c8288016126b2565b9082015260606129d68c8783016126b2565b908201528652948401949282019260010161297b565b80356103d181613d2e565b600082601f830112612a07578081fd5b8135612a156126db82613cca565b9150808252836020828501011115612a2c57600080fd5b8060208401602084013760009082016020015292915050565b8035600381106103d157600080fd5b600060608284031215612a65578081fd5b612a6f6060613c85565b905081356001600160401b0380821115612a8857600080fd5b81840160c08187031215612a9b57600080fd5b612aa560c0613c85565b9250612ab186826126b2565b8352612ac086602083016126b2565b60208401526040810135604084015260608101356060840152612ae686608083016129ec565b608084015260a081013582811115612afd57600080fd5b612b0987828401612734565b60a08501525050818352602084013560208401526040840135915080821115612b3157600080fd5b50612b3e848285016129f7565b60408301525092915050565b600060208284031215612b5b578081fd5b813561049a81613d19565b600060208284031215612b77578081fd5b815161049a81613d19565b600080600080600060a08688031215612b99578081fd5b8535612ba481613d19565b94506020860135612bb481613d19565b93506040860135612bc481613d19565b94979396509394606081013594506080013592915050565b60008060408385031215612bee578182fd5b8235612bf981613d19565b91506020830135612c0981613d3c565b809150509250929050565b600060208284031215612c25578081fd5b815161049a81613d2e565b600060208284031215612c41578081fd5b5035919050565b600060208284031215612c59578081fd5b81356001600160401b03811115612c6e578182fd5b611064848285016129f7565b60008060408385031215612c8c578182fd5b82356001600160401b0380821115612ca2578384fd5b612cae868387016129f7565b93506020850135915080821115612cc3578283fd5b50612cd0858286016129f7565b9150509250929050565b600080600060608486031215612cee578081fd5b83356001600160401b03811115612d03578182fd5b612d0f86828701612a54565b9660208601359650604090950135949350505050565b60006020808385031215612d37578182fd5b82516001600160401b0380821115612d4d578384fd5b81850160408188031215612d5f578485fd5b612d696040613c85565b92508051612d7681613d2e565b83528084015182811115612d88578586fd5b019050601f81018613612d99578384fd5b8051612da76126db82613cca565b8181528785838501011115612dba578586fd5b612dc982868301878601613ced565b9383019390935250949350505050565b600060208284031215612dea578081fd5b81356001600160401b0380821115612e00578283fd5b81840160608187031215612e12578384fd5b612e1c6060613c85565b9250803582811115612e2c578485fd5b612e3887828401612a54565b845250602081013582811115612e4c578485fd5b80820160808189031215612e5e578586fd5b612e686080613c85565b9150803582526020810135602083015260408101356040830152606081013584811115612e93578687fd5b612e9f898284016129f7565b606084015250506020840152604081013582811115612ebc578485fd5b612ec887828401612734565b6040850152509195945050505050565b600080600080848603610100811215612eef578283fd5b60a0811215612efc578283fd5b50612f0760a0613c85565b612f1187876126b2565b8152602086013560208201526040860135604082015260608601356060820152608086013560808201528094505060a08501356001600160401b0380821115612f58578384fd5b612f648883890161287b565b945060c0870135915080821115612f79578384fd5b612f8588838901612936565b935060e0870135915080821115612f9a578283fd5b50612fa7878288016127da565b91505092959194509250565b600060208284031215612fc4578081fd5b5051919050565b600060208284031215612fdc578081fd5b815160ff8116811461049a578182fd5b60008151808452613004816020860160208601613ced565b601f01601f19169290920160200192915050565b600060018060a01b0382511683526020820151604060208501526110646040850182612fec565b60018060a01b038151168252602081015180516020840152602081015160408401526040810151606084015260608101516080840152505050565b60006bffffffffffffffffffffffff19808960601b168352808860601b1660148401525085602883015284604883015283151560f81b606883015282516130c8816069850160208701613ced565b91909101606901979650505050505050565b60006bffffffffffffffffffffffff19808a60601b168352808960601b1660148401525086602883015285604883015284606883015283151560f81b6088830152825161312e816089850160208701613ced565b9190910160890198975050505050505050565b60609290921b6001600160601b03191682526001600160e01b031916601482015260180190565b6001600160f81b031994909416845260609290921b6001600160601b03191660018401526015830152603582015260550190565b92835260609190911b6001600160601b0319166020830152603482015260540190565b9283526020830191909152604082015260600190565b9182526001600160e01b031916602082015260240190565b600082516131ff818460208701613ced565b9190910192915050565b7f19457468657265756d205369676e6564204d6573736167653a0a3332000000008152601c810191909152603c0190565b90815260200190565b6001600160a01b0391909116815260200190565b6001600160a01b03929092168252602082015260400190565b6001600160a01b039384168152919092166020820152901515604082015260600190565b6001600160a01b039384168152919092166020820152604081019190915260600190565b6000602080830181845280855180835260408601915060408482028701019250838701855b8281101561330b57603f198886030184526132f9858351613018565b945092850192908501906001016132dd565b5092979650505050505050565b901515815260200190565b6000858252846020830152836040830152608060608301526121be6080830184612fec565b93845260ff9290921660208401526040830152606082015260800190565b60006020825261049a6020830184612fec565b60006040825261338c6040830185612fec565b828103602084015261339e8185612fec565b95945050505050565b60208082526018908201527f45434453413a20696e76616c6964207369676e61747572650000000000000000604082015260600190565b60208082526022908201527f70726f78792068617320616c7265616479206265656e20696e697469616c697a604082015261195960f21b606082015260800190565b6020808252818101527f437265617465323a2062797465636f6465206c656e677468206973207a65726f604082015260600190565b6020808252601490820152731d1a5b595bdd5d081a5b9cdd59999a58da595b9d60621b604082015260600190565b6020808252601f908201527f45434453413a20696e76616c6964207369676e6174757265206c656e67746800604082015260600190565b60208082526026908201527f4f776e61626c653a206e6577206f776e657220697320746865207a65726f206160408201526564647265737360d01b606082015260800190565b6020808252601490820152731ad9595c195c881c185e5bdd5d0819985a5b195960621b604082015260600190565b6020808252601b908201527f536166654d6174683a206164646974696f6e206f766572666c6f770000000000604082015260600190565b6020808252602c908201527f737570706c696564206574686572206973206e6f7420657175616c20746f206760408201526b185cc81c995c5d595cdd195960a21b606082015260800190565b6020808252601a908201527f6661696c656420746f207265706179206c6f73742066756e6473000000000000604082015260600190565b6020808252601390820152727365747570207068617365206661696c75726560681b604082015260600190565b60208082526022908201527f45434453413a20696e76616c6964207369676e6174757265202773272076616c604082015261756560f01b606082015260800190565b60208082526024908201527f696e73756666696369656e742066756e647320696e206c6971756964697479206040820152631c1bdbdb60e21b606082015260800190565b6020808252601d908201527f6e6f742061207265676973746572656420626f72726f772070726f7879000000604082015260600190565b60208082526037908201527f6973206e6f742061206c6f616e20726571756573742c20747279207573696e6760408201527f2065786563757465536869667453616e73426f72726f77000000000000000000606082015260800190565b60208082526022908201527f45434453413a20696e76616c6964207369676e6174757265202776272076616c604082015261756560f01b606082015260800190565b60208082526019908201527f437265617465323a204661696c6564206f6e206465706c6f7900000000000000604082015260600190565b6020808252601f908201527f6661696c656420746f2072657475726e20626f6e6420746f206b656570657200604082015260600190565b60208082526021908201527f536166654d6174683a206d756c7469706c69636174696f6e206f766572666c6f6040820152607760f81b606082015260800190565b60208082526024908201527f6c69717569646974792072657175657374207369676e61747572652072656a6560408201526318dd195960e21b606082015260800190565b6020808252818101527f4f776e61626c653a2063616c6c6572206973206e6f7420746865206f776e6572604082015260600190565b60208082526029908201527f696e636f72726563742067617320737570706c696564207769746820676173206040820152681c995c5d595cdd195960ba1b606082015260800190565b602080825260169082015275189bdb99081cdd589b5a5cdcda5bdb8819985a5b195960521b604082015260600190565b6020808252600e908201526d18dc99585d194c8819985a5b195960921b604082015260600190565b60208082526045908201527f63616e2774207a6970206d6f64756c65207265676973746174696f6e733a206d60408201527f6f64756c65732e6c656e67746820213d206d6f64756c6544657461696c732e6c6060820152640cadccee8d60db1b608082015260a00190565b6020808252818101527f6e6f7420612072656769737465726564206c697175696469747920746f6b656e604082015260600190565b60208082526017908201527f6c6f616e207265736f6c7574696f6e206661696c757265000000000000000000604082015260600190565b60208082526021908201527f6661696c656420746f2072657061792074686520676f7665726e696e672044416040820152604f60f81b606082015260800190565b602080825260129082015271626f6e642062656c6f77206d696e696d756d60701b604082015260600190565b6020808252603e908201527f74686520746f6b656e20737570706c696564206973206e6f742061207368696660408201527f74657220746f6b656e202d2d20646563696d616c7320746f6f20686967680000606082015260800190565b6020808252601d908201527f437265617465323a20696e73756666696369656e742062616c616e6365000000604082015260600190565b6020808252601490820152736c6f616e2065786365656473206d6178696d756d60601b604082015260600190565b918252602082015260400190565b8151151581526020808301516001600160a01b0390811691830191909152604080840151821690830152606092830151169181019190915260800190565b6020808252825160c083830181905281516001600160a01b0390811660e08601528284015116610100850152604082015161012085015260608201516101408501526080820151151561016085015260a09091015161018084019190915280516101a08401819052600092916101c0808601929184019185918186028801015b81831015613c3f576101bf19888203018552613c29818551613018565b9486019493860193600193909301929050613c0c565b858901519450613c52604089018661303f565b98975050505050505050565b60006020825282511515602083015260208301516040808401526110646060840182612fec565b6040518181016001600160401b0381118282101715613ca357600080fd5b604052919050565b60006001600160401b03821115613cc0578081fd5b5060209081020190565b60006001600160401b03821115613cdf578081fd5b50601f01601f191660200190565b60005b83811015613d08578181015183820152602001613cf0565b838111156105035750506000910152565b6001600160a01b03811681146104bb57600080fd5b80151581146104bb57600080fd5b6001600160e01b0319811681146104bb57600080fdfe608060405234801561001057600080fd5b5061030a806100206000396000f3fe60806040526004361061001e5760003560e01c80638e03e6cd14610023575b600080fd5b6100366100313660046101d7565b610038565b005b6001600160a01b03811615610103576100de82826001600160a01b03166370a08231306040518263ffffffff1660e01b81526004016100779190610260565b60206040518083038186803b15801561008f57600080fd5b505afa1580156100a3573d6000803e3d6000fd5b505050506040513d601f19601f820116820180604052508101906100c7919061020f565b6001600160a01b038416919063ffffffff61010f16565b6101035760405162461bcd60e51b81526004016100fa9061028d565b60405180910390fd5b816001600160a01b0316ff5b600080846001600160a01b03166101268585610181565b6040516101339190610227565b6000604051808303816000865af19150503d8060008114610170576040519150601f19603f3d011682016040523d82523d6000602084013e610175565b606091505b50909695505050505050565b606063a9059cbb60e01b838360405160240161019e929190610274565b60408051601f198184030181529190526020810180516001600160e01b03166001600160e01b0319909316929092179091529392505050565b600080604083850312156101e9578182fd5b82356101f4816102bc565b91506020830135610204816102bc565b809150509250929050565b600060208284031215610220578081fd5b5051919050565b60008251815b81811015610247576020818601810151858301520161022d565b818111156102555782828501525b509190910192915050565b6001600160a01b0391909116815260200190565b6001600160a01b03929092168252602082015260400190565b602080825260159082015274657263323020666f7277617264206661696c75726560581b604082015260600190565b6001600160a01b03811681146102d157600080fd5b5056fea2646970667358221220718542a2af22fd262c218154d0ca9d1d244e81f20df3cd582bcd50873ea5a97764736f6c63430006080033a2646970667358221220eade5b78b76db21b58c65213e40bff53a02fcd1fa1ef0b541f70b38bc4b0acd564736f6c63430006080033",
  "immutableReferences": {},
  "source": "// SPDX-License-Identifier: MIT\npragma solidity ^0.6.0;\npragma experimental ABIEncoderV2;\n\nimport { Ownable } from \"@openzeppelin/contracts/access/Ownable.sol\";\nimport { IShifterRegistry } from \"./interfaces/IShifterRegistry.sol\";\nimport { IShifter } from \"./interfaces/IShifter.sol\";\nimport { ShifterPoolLib } from \"./ShifterPoolLib.sol\";\nimport { ShifterBorrowProxyLib } from \"./ShifterBorrowProxyLib.sol\";\nimport { ShifterBorrowProxyFactoryLib } from \"./ShifterBorrowProxyFactoryLib.sol\";\nimport { ShifterBorrowProxy } from \"./ShifterBorrowProxy.sol\";\nimport { BorrowProxy } from \"./BorrowProxy.sol\";\nimport { BorrowProxyLib } from \"./BorrowProxyLib.sol\";\nimport { TokenUtils } from \"./utils/TokenUtils.sol\";\nimport { ViewExecutor } from \"./utils/ViewExecutor.sol\";\nimport { LiquidityToken } from \"./LiquidityToken.sol\";\nimport { SandboxLib } from \"./utils/sandbox/SandboxLib.sol\";\nimport { SafeViewExecutor } from \"./utils/sandbox/SafeViewExecutor.sol\";\nimport { FactoryLib } from \"./FactoryLib.sol\";\nimport { NullCloneConstructor } from \"./NullCloneConstructor.sol\";\nimport { AssetForwarderLib } from \"./adapters/lib/AssetForwarderLib.sol\";\nimport { AssetForwarder } from \"./adapters/lib/AssetForwarder.sol\";\nimport { ERC20 } from \"@openzeppelin/contracts/token/ERC20/ERC20.sol\";\nimport { StringLib } from \"./utils/StringLib.sol\";\n\ncontract ShifterPool is Ownable, SafeViewExecutor, NullCloneConstructor {\n  using SandboxLib for *;\n  using ShifterPoolLib for *;\n  using TokenUtils for *;\n  using StringLib for *;\n  using ShifterBorrowProxyLib for *;\n  using ShifterBorrowProxyFactoryLib for *;\n  using BorrowProxyLib for *;\n  ShifterPoolLib.Isolate isolate;\n  constructor() Ownable() public {\n    isolate.genesis = block.number;\n  }\n  function setup(ShifterPoolLib.SetupParams memory params, BorrowProxyLib.ModuleDetails[] memory moduleDetails, BorrowProxyLib.Module[] memory modules, ShifterPoolLib.LiquidityTokenLaunch[] memory tokenLaunches) public onlyOwner {\n    require(modules.length == moduleDetails.length, \"can't zip module registations: modules.length != moduleDetails.length\");\n    isolate.shifterRegistry = params.shifterRegistry;\n    isolate.maxLoan = params.maxLoan;\n    isolate.minTimeout = params.minTimeout;\n    isolate.poolFee = params.poolFee;\n    isolate.daoFee = params.daoFee;\n    for (uint256 i = 0; i < modules.length; i++) {\n      BorrowProxyLib.ModuleRegistration memory registration = BorrowProxyLib.ModuleRegistration({\n        module: modules[i],\n        target: moduleDetails[i].target,\n        sigs: moduleDetails[i].sigs,\n        moduleType: moduleDetails[i].moduleType\n      });\n      isolate.registry.registryRegisterModule(registration);\n    }\n    for (uint256 i = 0; i < tokenLaunches.length; i++) {\n      ShifterPoolLib.LiquidityTokenLaunch memory launch = tokenLaunches[i];\n      isolate.tokenToLiquidityToken[launch.token] = launch.liqToken;\n    }\n  }\n  function getLiquidityTokenForTokenHandler(address token) public view returns (address) {\n    return isolate.tokenToLiquidityToken[token];\n  }\n  bytes32 constant BORROW_PROXY_IMPLEMENTATION_SALT = 0xfe1e3164ba4910db3c9afd049cd8feb4552390569c846692e6df4ac68aeaa90e;\n  function deployBorrowProxyImplementation() public {\n    isolate.borrowProxyImplementation = isolate.makeBorrowProxy(BORROW_PROXY_IMPLEMENTATION_SALT);\n  }\n  function deployAssetForwarderImplementation() public {\n    isolate.assetForwarderImplementation = AssetForwarderLib.deployAssetForwarder();\n  }\n\n  function deployAssetForwarderClone(bytes32 salt) public returns (address created) {\n\n    created = FactoryLib.create2Clone(isolate.assetForwarderImplementation, uint256(keccak256(abi.encodePacked(AssetForwarderLib.GET_ASSET_FORWARDER_IMPLEMENTATION_SALT(), msg.sender, salt))));\n\n  }\n  function getAssetForwarderImplementationHandler() public view returns (address implementation) {\n    return isolate.assetForwarderImplementation;\n  }\n  function deployBorrowProxyClone(bytes32 salt) internal returns (address payable created) {\n    created = address(uint160(FactoryLib.create2Clone(isolate.borrowProxyImplementation, uint256(salt))));\n  }\n  function validateUnderMaxLoan(ShifterBorrowProxyLib.LiquidityRequestParcel memory parcel) internal view returns (bool) {\n    uint8 decimals = ERC20(parcel.request.token).decimals();\n    require(decimals <= 18, \"the token supplied is not a shifter token -- decimals too high\");\n    require(parcel.request.amount / 10**(18 - uint256(decimals)) <= isolate.maxLoan, \"loan exceeds maximum\");\n  }\n  function _executeBorrow(ShifterBorrowProxyLib.LiquidityRequestParcel memory liquidityRequestParcel, uint256 bond, uint256 timeoutExpiry) internal returns (address payable proxyAddress) {\n    require(liquidityRequestParcel.request.forbidLoan == false, \"is not a loan request, try using executeShiftSansBorrow\");\n    require(\n      liquidityRequestParcel.gasRequested == msg.value,\n      \"supplied ether is not equal to gas requested\"\n  \n    );\n    require(\n      liquidityRequestParcel.validateSignature(\n        liquidityRequestParcel.computeLiquidityRequestHash()\n      ),\n      \"liquidity request signature rejected\"\n    );\n    ShifterBorrowProxyLib.LiquidityRequest memory liquidityRequest = liquidityRequestParcel.request;\n    bytes32 borrowerSalt = liquidityRequest.computeBorrowerSalt();\n    liquidityRequest.actions = new ShifterBorrowProxyLib.InitializationAction[](0);\n    ShifterBorrowProxyLib.ProxyRecord memory proxyRecord = ShifterBorrowProxyLib.ProxyRecord({\n      request: liquidityRequest,\n      loan: ShifterBorrowProxyLib.LenderRecord(\n        msg.sender,\n        isolate.computeLoanParams(liquidityRequest.amount, bond, timeoutExpiry)\n      )\n    });\n    proxyAddress = address(uint160(deployBorrowProxyClone(borrowerSalt)));\n    ShifterPoolLib.mapBorrowProxy(isolate, proxyAddress, proxyRecord);\n    isolate.issueLoan(liquidityRequest.token, proxyAddress, proxyRecord.computePostFee());\n    require(liquidityRequest.token.transferTokenFrom(msg.sender, address(this), bond), \"bond submission failed\");\n  }\n  function executeBorrow(ShifterBorrowProxyLib.LiquidityRequestParcel memory liquidityRequestParcel, uint256 bond, uint256 timeoutExpiry) public payable {\n    ShifterBorrowProxyLib.InitializationAction[] memory actions = liquidityRequestParcel.request.actions;\n    validateUnderMaxLoan(liquidityRequestParcel);\n    address payable proxyAddress = _executeBorrow(liquidityRequestParcel, bond, timeoutExpiry);\n    proxyAddress.setupBorrowProxy(liquidityRequestParcel.request.borrower, liquidityRequestParcel.request.token, false);\n    proxyAddress.sendInitializationActions(actions);\n  }\n  function executeShiftSansBorrow(ShifterBorrowProxyLib.SansBorrowShiftParcel memory parcel) public payable {\n    (address payable proxyAddress, ShifterBorrowProxyLib.InitializationAction[] memory actions) = _executeShiftSansBorrow(parcel);\n    if (actions.length != 0) proxyAddress.sendInitializationActions(actions);\n  }\n  function _executeShiftSansBorrow(ShifterBorrowProxyLib.SansBorrowShiftParcel memory parcel) internal returns (address payable proxyAddress, ShifterBorrowProxyLib.InitializationAction[] memory actions) {\n    ShifterBorrowProxyLib.TriggerParcel memory triggerParcel = ShifterBorrowProxyLib.TriggerParcel({\n      record: ShifterBorrowProxyLib.ProxyRecord({\n        request: parcel.liquidityRequestParcel.request,\n        loan: ShifterBorrowProxyLib.LenderRecord({\n          keeper: msg.sender,\n          params: isolate.computeLoanParams(parcel.liquidityRequestParcel.request.amount, parcel.liquidityRequestParcel.request.amount / 10, 1000)\n        })\n      }),\n      shiftParameters: ShifterBorrowProxyLib.ShiftParameters({\n        txhash: parcel.shiftParameters.txhash,\n        vout: parcel.shiftParameters.vout,\n        pHash: parcel.shiftParameters.pHash,\n        darknodeSignature: parcel.shiftParameters.darknodeSignature\n      })\n    });\n    require(\n      parcel.liquidityRequestParcel.validateSignature(\n        parcel.liquidityRequestParcel.computeLiquidityRequestHash()\n      ),\n      \"liquidity request signature rejected\"\n    );\n    bytes32 borrowerSalt = parcel.liquidityRequestParcel.request.computeBorrowerSalt();\n    proxyAddress = address(uint160(isolate.borrowProxyImplementation.deriveBorrowerAddress(borrowerSalt)));\n    require(!isolate.borrowProxyController.isInitialized(proxyAddress), \"proxy has already been initialized\");\n    isolate.borrowProxyController.mapProxyRecord(proxyAddress, abi.encodePacked(uint256(1)));\n    isolate.getShifter(parcel.liquidityRequestParcel.request.token).mint(parcel.shiftParameters.pHash, parcel.liquidityRequestParcel.request.amount, triggerParcel.computeNHash(), parcel.shiftParameters.darknodeSignature);\n    uint256 fee = triggerParcel.record.computeAdjustedKeeperFee(parcel.liquidityRequestParcel.request.amount);\n    deployBorrowProxyClone(borrowerSalt);\n    proxyAddress.setupBorrowProxy(parcel.liquidityRequestParcel.request.borrower, parcel.liquidityRequestParcel.request.token, true);\n    if (parcel.liquidityRequestParcel.request.borrower != msg.sender && msg.value == parcel.liquidityRequestParcel.gasRequested) {\n      parcel.liquidityRequestParcel.request.borrower.transfer(msg.value);\n      require(parcel.liquidityRequestParcel.request.token.sendToken(msg.sender, fee), \"keeper payout failed\");\n      actions = parcel.liquidityRequestParcel.request.actions;\n    } else if (parcel.liquidityRequestParcel.request.borrower == msg.sender) actions = parcel.actions;\n    else revert(\"incorrect gas supplied with gas requested\");\n  }\n  function validateProxyRecordHandler(bytes memory proxyRecord) public view returns (bool) {\n    return isolate.borrowProxyController.validateProxyRecord(msg.sender, proxyRecord);\n  }\n  function getProxyTokenHandler(address proxyAddress) public view returns (address) {\n    return isolate.borrowProxyController.getProxyToken(proxyAddress);\n  }\n  function getProxyOwnerHandler(address user) public view returns (address) {\n    return isolate.borrowProxyController.getProxyOwner(user);\n  }\n  function getShifterHandler(address token) public view returns (IShifter) {\n    return isolate.getShifter(token);\n  }\n  function getLiquidityTokenHandler(address token) public view returns (LiquidityToken) {\n    return LiquidityToken(isolate.getLiquidityToken(token));\n  }\n  function fetchModuleHandler(address to, bytes4 sig) public view returns (BorrowProxyLib.Module memory) {\n    return isolate.registry.resolveModule(to, sig);\n  }\n  function relayResolveLoan(address token, address liquidityToken, address keeper, uint256 bond, uint256 repay) public returns (bool) {\n    require(isolate.borrowProxyController.proxyInitializerRecord[msg.sender] != bytes32(0x0), \"not a registered borrow proxy\");\n    if (bond != 0) require(token.sendToken(keeper, bond), \"failed to return bond to keeper\");\n    if (repay != 0) {\n       (uint256 amount, uint256 daoAmount) = ShifterPoolLib.splitForDAO(repay - bond, isolate.daoFee);\n       require(token.transferTokenFrom(msg.sender, liquidityToken, amount), \"failed to repay lost funds\");\n       require(token.transferTokenFrom(msg.sender, owner(), daoAmount), \"failed to repay the governing DAO\");\n    }\n    require(LiquidityToken(liquidityToken).resolveLoan(msg.sender), \"loan resolution failure\");\n    return true;\n  }\n}\n",
  "sourcePath": "/home/ray/0confirmation/packages/0confirmation-sol/contracts/ShifterPool.sol",
  "compiler": {
    "name": "solc",
    "version": "0.6.8+commit.0bbfe453.Emscripten.clang"
  },
  "schemaVersion": "3.2.0",
  "updatedAt": "2020-05-30T00:45:45.797Z",
  "devdoc": {
    "methods": {
      "owner()": {
        "details": "Returns the address of the current owner."
      },
      "renounceOwnership()": {
        "details": "Leaves the contract without owner. It will not be possible to call `onlyOwner` functions anymore. Can only be called by the current owner.     * NOTE: Renouncing ownership will leave the contract without an owner, thereby removing any functionality that is only available to the owner."
      },
      "transferOwnership(address)": {
        "details": "Transfers ownership of the contract to a new account (`newOwner`). Can only be called by the current owner."
      }
    }
  },
  "userdoc": {
    "methods": {}
  }
}