{
  "contractName": "ShifterBorrowProxy",
  "abi": [
    {
      "inputs": [],
      "stateMutability": "nonpayable",
      "type": "constructor"
    },
    {
      "inputs": [
        {
          "internalType": "address",
          "name": "delegateTo",
          "type": "address"
        },
        {
          "internalType": "bytes",
          "name": "callData",
          "type": "bytes"
        }
      ],
      "name": "_executeQuery",
      "outputs": [
        {
          "internalType": "bytes",
          "name": "",
          "type": "bytes"
        }
      ],
      "stateMutability": "nonpayable",
      "type": "function"
    },
    {
      "inputs": [
        {
          "internalType": "address",
          "name": "to",
          "type": "address"
        },
        {
          "internalType": "uint256",
          "name": "value",
          "type": "uint256"
        },
        {
          "internalType": "bytes",
          "name": "payload",
          "type": "bytes"
        }
      ],
      "name": "proxy",
      "outputs": [],
      "stateMutability": "nonpayable",
      "type": "function"
    },
    {
      "inputs": [
        {
          "internalType": "address",
          "name": "viewLogic",
          "type": "address"
        },
        {
          "internalType": "bytes",
          "name": "payload",
          "type": "bytes"
        }
      ],
      "name": "query",
      "outputs": [
        {
          "internalType": "bytes",
          "name": "",
          "type": "bytes"
        }
      ],
      "stateMutability": "view",
      "type": "function"
    },
    {
      "inputs": [
        {
          "internalType": "bytes",
          "name": "data",
          "type": "bytes"
        }
      ],
      "name": "repayLoan",
      "outputs": [
        {
          "internalType": "bool",
          "name": "",
          "type": "bool"
        }
      ],
      "stateMutability": "nonpayable",
      "type": "function"
    },
    {
      "inputs": [
        {
          "internalType": "bytes",
          "name": "data",
          "type": "bytes"
        }
      ],
      "name": "defaultLoan",
      "outputs": [
        {
          "internalType": "bool",
          "name": "",
          "type": "bool"
        }
      ],
      "stateMutability": "nonpayable",
      "type": "function"
    }
  ],
  "bytecode": "0x608060405234801561001057600080fd5b50600080546001600160a01b031916331780825560408051633d9d805f60e11b815290516001600160a01b039290921692637b3b00be926004808401936020939083900390910190829087803b15801561006957600080fd5b505af115801561007d573d6000803e3d6000fd5b505050506040513d601f19601f820116820180604052506100a191908101906100c6565b600180546001600160a01b0319166001600160a01b03929092169190911790556100f4565b6000602082840312156100d7578081fd5b81516001600160a01b03811681146100ed578182fd5b9392505050565b611a0a80620001046000396000f3fe608060405234801561001057600080fd5b50600436106100675760003560e01c806356b8e1461161005057806356b8e146146100aa578063c4ddf363146100ca578063fd00430c146100dd57610067565b806323e3b7301461006c5780632692f25a14610095575b600080fd5b61007f61007a36600461135c565b6100f0565b60405161008c9190611731565b60405180910390f35b6100a86100a33660046113aa565b610173565b005b6100bd6100b8366004611421565b61036c565b60405161008c91906116f7565b6100bd6100d8366004611421565b610714565b61007f6100eb36600461135c565b610b1e565b60603330146100fe57600080fd5b60006060846001600160a01b03168460405161011a919061160a565b600060405180830381855af49150503d8060008114610155576040519150601f19603f3d011682016040523d82523d6000602084013e61015a565b606091505b50915091508161016957600080fd5b9150505b92915050565b6001546001600160a01b031633146101a65760405162461bcd60e51b815260040161019d9061177b565b60405180910390fd5b60005474010000000000000000000000000000000000000000900460ff16156102565760006060846001600160a01b031684846040516101e6919061160a565b60006040518083038185875af1925050503d8060008114610223576040519150601f19603f3d011682016040523d82523d6000602084013e610228565b606091505b509150915081819061024d5760405162461bcd60e51b815260040161019d9190611731565b50805160208201f35b600061027261026d8383600463ffffffff610bdf16565b610bfc565b60e01b905061027f611092565b6040517f2f1a48af00000000000000000000000000000000000000000000000000000000815273__BorrowProxyLib________________________90632f1a48af906102d49060009089908790600401611892565b60606040518083038186803b1580156102ec57600080fd5b505af4158015610300573d6000803e3d6000fd5b505050506040513d601f19601f820116820180604052506103249190810190611478565b90506103338160200151610c1e565b61034f5760405162461bcd60e51b815260040161019d90611744565b606061036282858763ffffffff610c2d16565b9050805160208201f35b600061037782610cee565b61038057600080fd5b6103886110ba565b8280602001905161039c91908101906114f2565b60068054604080516020808402820181019092528281529394506060939291908301828280156103f557602002820191906000526020600020905b81546001600160a01b031681526001909101906020018083116103d7575b505050505090504382602001516020015160000151106107085760035460ff166104a0578151602001516040516370a0823160e01b81526001600160a01b03909116906370a082319061044c903090600401611626565b60206040518083038186803b15801561046457600080fd5b505afa158015610478573d6000803e3d6000fd5b505050506040513d601f19601f8201168201806040525061049c91908101906115b0565b6004555b6003805460ff191660011790556002545b815181101561050957620493e05a10806104ed57506104eb8282815181106104d557fe5b60200260200101516001600160a01b0316610d8a565b155b1561050157600255506000915061070f9050565b6001016104b1565b50805160025560008054600480548551602001516040516370a0823160e01b81526001600160a01b03948516959294929391909216916370a082319161055191309101611626565b60206040518083038186803b15801561056957600080fd5b505afa15801561057d573d6000803e3d6000fd5b505050506040513d601f19601f820116820180604052506105a191908101906115b0565b905081810360008082126105b557816105b8565b60005b875160608101516020909101516040516303cc556d60e51b81529290910392506001600160a01b0387169163801874ec9190839063798aada090610600908490600401611626565b60206040518083038186803b15801561061857600080fd5b505afa15801561062c573d6000803e3d6000fd5b505050506040513d601f19601f82011682018060405250610650919081019061145c565b60208b0151518b51606001516040517fffffffff0000000000000000000000000000000000000000000000000000000060e087901b16815261069d94939291889003908890600401611688565b602060405180830381600087803b1580156106b757600080fd5b505af11580156106cb573d6000803e3d6000fd5b505050506040513d601f19601f820116820180604052506106ef9190810190611401565b6106f857600080fd5b600197505050505050505061070f565b6000925050505b919050565b600061071e6110da565b82806020019051610732919081019061150e565b9050610760816000015160405160200161074c91906118d3565b604051602081830303815290604052610cee565b61076957600080fd5b60035460ff161561077957600080fd5b60008054825151602001516040517f1fbc78dc0000000000000000000000000000000000000000000000000000000081526001600160a01b0390921691631fbc78dc916107c891600401611626565b60206040518083038186803b1580156107e057600080fd5b505afa1580156107f4573d6000803e3d6000fd5b505050506040513d601f19601f82011682018060405250610818919081019061145c565b6001600160a01b031663bb4a1d8c83606001518460000151600001516060015161084186610e91565b86608001516040518563ffffffff1660e01b81526004016108659493929190611702565b602060405180830381600087803b15801561087f57600080fd5b505af1158015610893573d6000803e3d6000fd5b505050506040513d601f19601f820116820180604052506108b791908101906115b0565b82519091506000906108cf908363ffffffff610ed316565b600080547fffffffffffffffffffffff00ffffffffffffffffffffffffffffffffffffffff167401000000000000000000000000000000000000000017808255855151602001516040516303cc556d60e51b815293945091926001600160a01b039091169163798aada0916109479190600401611626565b60206040518083038186803b15801561095f57600080fd5b505afa158015610973573d6000803e3d6000fd5b505050506040513d601f19601f82011682018060405250610997919081019061145c565b845151602001519091506109bd906001600160a01b03168284860363ffffffff610f1316565b6109c657600080fd5b835160208082015151915101516109ef916001600160a01b03909116908463ffffffff610f1316565b6109f857600080fd5b600080548551805160209081015191810151805190820151909101516040517f801874ec0000000000000000000000000000000000000000000000000000000081526001600160a01b039094169463801874ec94610a5f9493889390929091600401611688565b602060405180830381600087803b158015610a7957600080fd5b505af1158015610a8d573d6000803e3d6000fd5b505050506040513d601f19601f82011682018060405250610ab19190810190611401565b610acd5760405162461bcd60e51b815260040161019d90611835565b83518051516040516001600160a01b03909116917f8118f0dfd16240978600a1121acd44dd113e1071790496f111043c87672720bf91610b0d91906118d3565b60405180910390a250505050919050565b606060006060846001600160a01b03168585604051602401610b419291906116bc565b60408051601f198184030181529181526020820180517bffffffffffffffffffffffffffffffffffffffffffffffffffffffff167f23e3b7300000000000000000000000000000000000000000000000000000000017905251610ba4919061160a565b600060405180830381855afa9150503d8060008114610155576040519150601f19603f3d011682016040523d82523d6000602084013e61015a565b610be7611111565b92820160209081018452830152604082015290565b805160209182015191829003900351600160089092029190911b600019011690565b516001600160a01b0316151590565b602080840151805190820151855160405160609460009486946001600160a01b03821694610c65949293919232928b918d910161163a565b60408051601f1981840301815290829052610c7f9161160a565b600060405180830381855af49150503d8060008114610cba576040519150601f19603f3d011682016040523d82523d6000602084013e610cbf565b606091505b5091509150818190610ce45760405162461bcd60e51b815260040161019d9190611731565b5095945050505050565b600080546040517f08f604950000000000000000000000000000000000000000000000000000000081526001600160a01b03909116906308f6049590610d38908590600401611731565b602060405180830381600087803b158015610d5257600080fd5b505af1158015610d66573d6000803e3d6000fd5b505050506040513d601f19601f8201168201806040525061016d9190810190611401565b6000806060836001600160a01b031684604051602401610daa9190611626565b60408051601f198184030181529181526020820180517bffffffffffffffffffffffffffffffffffffffffffffffffffffffff167f2f8655680000000000000000000000000000000000000000000000000000000017905251610e0d919061160a565b600060405180830381855af49150503d8060008114610e48576040519150601f19603f3d011682016040523d82523d6000602084013e610e4d565b606091505b50915091508051602014610e665760009250505061070f565b600081806020019051610e7c9190810190611401565b9050828015610e885750805b95945050505050565b805151604090810151602080840151838501519351600094610eb694939091016115f4565b604051602081830303815290604052805190602001209050919050565b6000610f0c670de0b6b3a7640000610f008560200151602001516060015185610fe490919063ffffffff16565b9063ffffffff61101e16565b9392505050565b600080846001600160a01b03168484604051602401610f339291906116de565b60408051601f198184030181529181526020820180517bffffffffffffffffffffffffffffffffffffffffffffffffffffffff167fa9059cbb0000000000000000000000000000000000000000000000000000000017905251610f96919061160a565b6000604051808303816000865af19150503d8060008114610fd3576040519150601f19603f3d011682016040523d82523d6000602084013e610fd8565b606091505b50909695505050505050565b600082610ff35750600061016d565b8282028284828161100057fe5b0414610f0c5760405162461bcd60e51b815260040161019d906117d8565b6000610f0c83836040518060400160405280601a81526020017f536166654d6174683a206469766973696f6e206279207a65726f0000000000008152506000818361107c5760405162461bcd60e51b815260040161019d9190611731565b50600083858161108857fe5b0495945050505050565b604051806040016040528060006001600160a01b031681526020016110b5611132565b905290565b60405180604001604052806110cd611149565b81526020016110b5611170565b6040518060a001604052806110ed6110ba565b81526000602082018190526040820181905260608083019190915260809091015290565b60405180606001604052806000815260200160008152602001600081525090565b604080518082019091526000808252602082015290565b60408051608081018252600080825260208201819052918101829052606081019190915290565b604051806040016040528060006001600160a01b031681526020016110b56040518060800160405280600081526020016000815260200160008152602001600081525090565b805161016d816119bc565b600082601f8301126111d1578081fd5b81516111e46111df82611968565b611941565b91508082528360208285010111156111fb57600080fd5b61120c81602084016020860161198c565b5092915050565b600082601f830112611223578081fd5b81356112316111df82611968565b915080825283602082850101111561124857600080fd5b8060208401602084013760009082016020015292915050565b600060808284031215611272578081fd5b61127c6080611941565b90508151815260208201516020820152604082015160408201526060820151606082015292915050565b60008183036101208112156112b9578182fd5b6112c36040611941565b915060808112156112d357600080fd5b6112dd6080611941565b6112e785856111b6565b81526112f685602086016111b6565b60208201526040848101519082015260608085015190820152825260a0607f198201121561132357600080fd5b5061132e6040611941565b61133b84608085016111b6565b815261134a8460a08501611261565b60208201528060208301525092915050565b6000806040838503121561136e578182fd5b8235611379816119bc565b9150602083013567ffffffffffffffff811115611394578182fd5b6113a085828601611213565b9150509250929050565b6000806000606084860312156113be578081fd5b83356113c9816119bc565b925060208401359150604084013567ffffffffffffffff8111156113eb578182fd5b6113f786828701611213565b9150509250925092565b600060208284031215611412578081fd5b81518015158114610f0c578182fd5b600060208284031215611432578081fd5b813567ffffffffffffffff811115611448578182fd5b61145484828501611213565b949350505050565b60006020828403121561146d578081fd5b8151610f0c816119bc565b6000818303606081121561148a578182fd5b6114946040611941565b835161149f816119bc565b81526040601f19830112156114b2578283fd5b6114bc6040611941565b915060208401516114cc816119bc565b825260408401516114dc816119bc565b6020838101919091528101919091529392505050565b60006101208284031215611504578081fd5b610f0c83836112a6565b60006020828403121561151f578081fd5b815167ffffffffffffffff80821115611536578283fd5b8184016101a08187031215611549578384fd5b61155360a0611941565b925061155f86826112a6565b835261012081015160208401526101408101516040840152610160810151606084015261018081015182811115611594578485fd5b6115a0878284016111c1565b6080850152509195945050505050565b6000602082840312156115c1578081fd5b5051919050565b600081518084526115e081602086016020860161198c565b601f01601f19169290920160200192915050565b9283526020830191909152604082015260600190565b6000825161161c81846020870161198c565b9190910192915050565b6001600160a01b0391909116815260200190565b60006001600160a01b0380891683528088166020840152808716604084015280861660608401525083608083015260c060a083015261167c60c08301846115c8565b98975050505050505050565b6001600160a01b03958616815293851660208501529190931660408301526060820192909252608081019190915260a00190565b60006001600160a01b03841682526040602083015261145460408301846115c8565b6001600160a01b03929092168252602082015260400190565b901515815260200190565b60008582528460208301528360408301526080606083015261172760808301846115c8565b9695505050505050565b600060208252610f0c60208301846115c8565b6020808252601f908201527f66756e6374696f6e2068616e646c6572206e6f74207265676973746572656400604082015260600190565b60208082526029908201527f626f72726f772070726f78792063616e206f6e6c79206265207573656420627960408201527f20626f72726f7765720000000000000000000000000000000000000000000000606082015260800190565b60208082526021908201527f536166654d6174683a206d756c7469706c69636174696f6e206f766572666c6f60408201527f7700000000000000000000000000000000000000000000000000000000000000606082015260800190565b60208082526023908201527f6c6f616e207265736f6c7574696f6e206e6f74696669636174696f6e2066616960408201527f6c65640000000000000000000000000000000000000000000000000000000000606082015260800190565b9283526001600160a01b039190911660208301527fffffffff0000000000000000000000000000000000000000000000000000000016604082015260600190565b815180516001600160a01b0390811683526020808301518216818501526040808401518186015260609384015184860152948101518051909216608085015290810151805160a08501529081015160c08401529283015160e083015291909101516101008201526101200190565b60405181810167ffffffffffffffff8111828210171561196057600080fd5b604052919050565b600067ffffffffffffffff82111561197e578081fd5b50601f01601f191660200190565b60005b838110156119a757818101518382015260200161198f565b838111156119b6576000848401525b50505050565b6001600160a01b03811681146119d157600080fd5b5056fea264697066735822122026c37004a866b449f6c1651c0651601997985f25dc80233045dbc4e59e2e42df64736f6c63430006030033",
  "source": "pragma solidity ^0.6.2;\npragma experimental ABIEncoderV2;\n\nimport { BorrowProxy } from \"./BorrowProxy.sol\";\nimport { ShifterPool } from \"./ShifterPool.sol\";\nimport { ShifterBorrowProxyLib } from \"./ShifterBorrowProxyLib.sol\";\nimport { ILiquidationModule } from \"./interfaces/ILiquidationModule.sol\";\nimport { TokenUtils } from \"./utils/TokenUtils.sol\";\nimport { LiquidityToken } from \"./LiquidityToken.sol\";\nimport { IERC20 } from \"openzeppelin-solidity/contracts/token/ERC20/IERC20.sol\";\n\ncontract ShifterBorrowProxy is BorrowProxy {\n  using ShifterBorrowProxyLib for *;\n  using TokenUtils for *;\n  constructor() BorrowProxy() public {}\n  function repayLoan(bytes memory data) public returns (bool) {\n    (ShifterBorrowProxyLib.TriggerParcel memory parcel) = abi.decode(data, (ShifterBorrowProxyLib.TriggerParcel));\n    require(validateProxyRecord(abi.encode(parcel.record)));\n    require(!isolate.isLiquidating);\n    uint256 amount = ShifterPool(isolate.masterAddress).getShifterHandler(parcel.record.request.token).shiftIn(parcel.pHash, parcel.record.request.amount, parcel.computeNHash(), parcel.darknodeSignature);\n    uint256 fee = parcel.record.computeAdjustedKeeperFee(amount);\n    isolate.unbound = true;\n    LiquidityToken liquidityToken = ShifterPool(isolate.masterAddress).getLiquidityTokenHandler(parcel.record.request.token);\n    require(parcel.record.request.token.sendToken(address(liquidityToken), amount - fee));\n    require(parcel.record.request.token.sendToken(parcel.record.loan.keeper, fee));\n    require(ShifterPool(isolate.masterAddress).relayResolveLoan(parcel.record.request.token, address(liquidityToken), parcel.record.loan.keeper, parcel.record.loan.params.bond, 0), \"loan resolution notification failed\");\n    emit ShifterBorrowProxyLib.ShifterBorrowProxyRepaid(parcel.record.request.borrower, parcel.record);\n  }\n  function defaultLoan(bytes memory data) public returns (bool) {\n    require(validateProxyRecord(data));\n    (ShifterBorrowProxyLib.ProxyRecord memory record) = abi.decode(data, (ShifterBorrowProxyLib.ProxyRecord));\n    address[] memory set = isolate.liquidationSet.set;\n    if (record.loan.params.timeoutExpiry >= block.number) {\n      if (!isolate.isLiquidating) isolate.preBalance = IERC20(record.request.token).balanceOf(address(this));\n      isolate.isLiquidating = true;\n      for (uint256 i = isolate.liquidationIndex; i < set.length; i++) {\n        if (gasleft() < 3e5 || !set[i].delegateLiquidate()) {\n          isolate.liquidationIndex = i;\n          return false;\n        }\n      }\n      isolate.liquidationIndex = set.length;\n      ShifterPool pool = ShifterPool(isolate.masterAddress);\n      uint256 preBalance = isolate.preBalance;\n      uint256 postBalance = IERC20(record.request.token).balanceOf(address(this));\n      int256 reclaimed = int256(postBalance) - int256(preBalance);\n      uint256 repay = uint256(int256(record.request.amount) - (reclaimed < 0 ? 0 : reclaimed));\n      require(pool.relayResolveLoan(record.request.token, address(pool.getLiquidityTokenHandler(record.request.token)), record.loan.keeper, record.request.amount - repay, repay));\n      return true;\n    }\n    return false;\n  }\n}\n",
  "sourcePath": "/home/ray/0confirmation/packages/0confirmation-sol/contracts/ShifterBorrowProxy.sol",
  "compiler": {
    "name": "solc",
    "version": "0.6.3+commit.8dda9521.Emscripten.clang"
  },
  "schemaVersion": "3.0.23",
  "updatedAt": "2020-04-03T03:35:12.819Z",
  "devdoc": {
    "methods": {}
  },
  "userdoc": {
    "methods": {}
  }
}