{
  "contractName": "ShifterPool",
  "abi": [
    {
      "inputs": [],
      "stateMutability": "nonpayable",
      "type": "constructor"
    },
    {
      "anonymous": false,
      "inputs": [
        {
          "indexed": true,
          "internalType": "address",
          "name": "previousOwner",
          "type": "address"
        },
        {
          "indexed": true,
          "internalType": "address",
          "name": "newOwner",
          "type": "address"
        }
      ],
      "name": "OwnershipTransferred",
      "type": "event"
    },
    {
      "inputs": [
        {
          "internalType": "bytes",
          "name": "creationCode",
          "type": "bytes"
        },
        {
          "internalType": "bytes",
          "name": "context",
          "type": "bytes"
        }
      ],
      "name": "_executeSafeView",
      "outputs": [],
      "stateMutability": "nonpayable",
      "type": "function"
    },
    {
      "inputs": [
        {
          "internalType": "bytes",
          "name": "consData",
          "type": "bytes"
        }
      ],
      "name": "cloneConstructor",
      "outputs": [],
      "stateMutability": "nonpayable",
      "type": "function"
    },
    {
      "inputs": [],
      "name": "owner",
      "outputs": [
        {
          "internalType": "address",
          "name": "",
          "type": "address"
        }
      ],
      "stateMutability": "view",
      "type": "function"
    },
    {
      "inputs": [
        {
          "internalType": "bytes",
          "name": "creationCode",
          "type": "bytes"
        },
        {
          "internalType": "bytes",
          "name": "context",
          "type": "bytes"
        }
      ],
      "name": "query",
      "outputs": [
        {
          "components": [
            {
              "internalType": "bool",
              "name": "success",
              "type": "bool"
            },
            {
              "internalType": "bytes",
              "name": "data",
              "type": "bytes"
            }
          ],
          "internalType": "struct SafeViewLib.SafeViewResult",
          "name": "",
          "type": "tuple"
        }
      ],
      "stateMutability": "nonpayable",
      "type": "function"
    },
    {
      "inputs": [],
      "name": "renounceOwnership",
      "outputs": [],
      "stateMutability": "nonpayable",
      "type": "function"
    },
    {
      "inputs": [
        {
          "internalType": "address",
          "name": "newOwner",
          "type": "address"
        }
      ],
      "name": "transferOwnership",
      "outputs": [],
      "stateMutability": "nonpayable",
      "type": "function"
    },
    {
      "inputs": [
        {
          "internalType": "address",
          "name": "shifterRegistry",
          "type": "address"
        },
        {
          "internalType": "uint256",
          "name": "minTimeout",
          "type": "uint256"
        },
        {
          "internalType": "uint256",
          "name": "poolFee",
          "type": "uint256"
        },
        {
          "components": [
            {
              "internalType": "enum BorrowProxyLib.ModuleRegistrationType",
              "name": "moduleType",
              "type": "uint8"
            },
            {
              "internalType": "address",
              "name": "target",
              "type": "address"
            },
            {
              "internalType": "bytes4[]",
              "name": "sigs",
              "type": "bytes4[]"
            }
          ],
          "internalType": "struct BorrowProxyLib.ModuleDetails[]",
          "name": "moduleDetails",
          "type": "tuple[]"
        },
        {
          "components": [
            {
              "internalType": "bool",
              "name": "isPrecompiled",
              "type": "bool"
            },
            {
              "internalType": "address",
              "name": "assetSubmodule",
              "type": "address"
            },
            {
              "internalType": "address",
              "name": "liquidationSubmodule",
              "type": "address"
            },
            {
              "internalType": "address",
              "name": "repaymentSubmodule",
              "type": "address"
            }
          ],
          "internalType": "struct BorrowProxyLib.Module[]",
          "name": "modules",
          "type": "tuple[]"
        },
        {
          "components": [
            {
              "internalType": "address",
              "name": "token",
              "type": "address"
            },
            {
              "internalType": "address",
              "name": "liqToken",
              "type": "address"
            }
          ],
          "internalType": "struct ShifterPoolLib.LiquidityTokenLaunch[]",
          "name": "tokenLaunches",
          "type": "tuple[]"
        }
      ],
      "name": "setup",
      "outputs": [],
      "stateMutability": "nonpayable",
      "type": "function"
    },
    {
      "inputs": [
        {
          "internalType": "address",
          "name": "token",
          "type": "address"
        }
      ],
      "name": "getLiquidityTokenForTokenHandler",
      "outputs": [
        {
          "internalType": "address",
          "name": "",
          "type": "address"
        }
      ],
      "stateMutability": "view",
      "type": "function"
    },
    {
      "inputs": [],
      "name": "deployBorrowProxyImplementation",
      "outputs": [],
      "stateMutability": "nonpayable",
      "type": "function"
    },
    {
      "inputs": [],
      "name": "deployAssetForwarderImplementation",
      "outputs": [],
      "stateMutability": "nonpayable",
      "type": "function"
    },
    {
      "inputs": [
        {
          "internalType": "bytes32",
          "name": "salt",
          "type": "bytes32"
        }
      ],
      "name": "deployAssetForwarderClone",
      "outputs": [
        {
          "internalType": "address",
          "name": "created",
          "type": "address"
        }
      ],
      "stateMutability": "nonpayable",
      "type": "function"
    },
    {
      "inputs": [],
      "name": "getAssetForwarderImplementationHandler",
      "outputs": [
        {
          "internalType": "address",
          "name": "implementation",
          "type": "address"
        }
      ],
      "stateMutability": "view",
      "type": "function"
    },
    {
      "inputs": [
        {
          "components": [
            {
              "components": [
                {
                  "internalType": "address payable",
                  "name": "borrower",
                  "type": "address"
                },
                {
                  "internalType": "address",
                  "name": "token",
                  "type": "address"
                },
                {
                  "internalType": "bytes32",
                  "name": "nonce",
                  "type": "bytes32"
                },
                {
                  "internalType": "uint256",
                  "name": "amount",
                  "type": "uint256"
                },
                {
                  "internalType": "bool",
                  "name": "forbidLoan",
                  "type": "bool"
                },
                {
                  "components": [
                    {
                      "internalType": "address",
                      "name": "to",
                      "type": "address"
                    },
                    {
                      "internalType": "bytes",
                      "name": "txData",
                      "type": "bytes"
                    }
                  ],
                  "internalType": "struct ShifterBorrowProxyLib.InitializationAction[]",
                  "name": "actions",
                  "type": "tuple[]"
                }
              ],
              "internalType": "struct ShifterBorrowProxyLib.LiquidityRequest",
              "name": "request",
              "type": "tuple"
            },
            {
              "internalType": "uint256",
              "name": "gasRequested",
              "type": "uint256"
            },
            {
              "internalType": "bytes",
              "name": "signature",
              "type": "bytes"
            }
          ],
          "internalType": "struct ShifterBorrowProxyLib.LiquidityRequestParcel",
          "name": "liquidityRequestParcel",
          "type": "tuple"
        },
        {
          "internalType": "uint256",
          "name": "bond",
          "type": "uint256"
        },
        {
          "internalType": "uint256",
          "name": "timeoutExpiry",
          "type": "uint256"
        }
      ],
      "name": "executeBorrow",
      "outputs": [],
      "stateMutability": "payable",
      "type": "function"
    },
    {
      "inputs": [
        {
          "components": [
            {
              "components": [
                {
                  "components": [
                    {
                      "internalType": "address payable",
                      "name": "borrower",
                      "type": "address"
                    },
                    {
                      "internalType": "address",
                      "name": "token",
                      "type": "address"
                    },
                    {
                      "internalType": "bytes32",
                      "name": "nonce",
                      "type": "bytes32"
                    },
                    {
                      "internalType": "uint256",
                      "name": "amount",
                      "type": "uint256"
                    },
                    {
                      "internalType": "bool",
                      "name": "forbidLoan",
                      "type": "bool"
                    },
                    {
                      "components": [
                        {
                          "internalType": "address",
                          "name": "to",
                          "type": "address"
                        },
                        {
                          "internalType": "bytes",
                          "name": "txData",
                          "type": "bytes"
                        }
                      ],
                      "internalType": "struct ShifterBorrowProxyLib.InitializationAction[]",
                      "name": "actions",
                      "type": "tuple[]"
                    }
                  ],
                  "internalType": "struct ShifterBorrowProxyLib.LiquidityRequest",
                  "name": "request",
                  "type": "tuple"
                },
                {
                  "internalType": "uint256",
                  "name": "gasRequested",
                  "type": "uint256"
                },
                {
                  "internalType": "bytes",
                  "name": "signature",
                  "type": "bytes"
                }
              ],
              "internalType": "struct ShifterBorrowProxyLib.LiquidityRequestParcel",
              "name": "liquidityRequestParcel",
              "type": "tuple"
            },
            {
              "components": [
                {
                  "internalType": "bytes32",
                  "name": "txhash",
                  "type": "bytes32"
                },
                {
                  "internalType": "uint256",
                  "name": "vout",
                  "type": "uint256"
                },
                {
                  "internalType": "bytes32",
                  "name": "pHash",
                  "type": "bytes32"
                },
                {
                  "internalType": "bytes",
                  "name": "darknodeSignature",
                  "type": "bytes"
                }
              ],
              "internalType": "struct ShifterBorrowProxyLib.ShiftParameters",
              "name": "shiftParameters",
              "type": "tuple"
            },
            {
              "components": [
                {
                  "internalType": "address",
                  "name": "to",
                  "type": "address"
                },
                {
                  "internalType": "bytes",
                  "name": "txData",
                  "type": "bytes"
                }
              ],
              "internalType": "struct ShifterBorrowProxyLib.InitializationAction[]",
              "name": "actions",
              "type": "tuple[]"
            }
          ],
          "internalType": "struct ShifterBorrowProxyLib.SansBorrowShiftParcel",
          "name": "parcel",
          "type": "tuple"
        }
      ],
      "name": "executeShiftSansBorrow",
      "outputs": [],
      "stateMutability": "payable",
      "type": "function"
    },
    {
      "inputs": [
        {
          "internalType": "bytes",
          "name": "proxyRecord",
          "type": "bytes"
        }
      ],
      "name": "validateProxyRecordHandler",
      "outputs": [
        {
          "internalType": "bool",
          "name": "",
          "type": "bool"
        }
      ],
      "stateMutability": "view",
      "type": "function"
    },
    {
      "inputs": [
        {
          "internalType": "address",
          "name": "proxyAddress",
          "type": "address"
        }
      ],
      "name": "getProxyTokenHandler",
      "outputs": [
        {
          "internalType": "address",
          "name": "",
          "type": "address"
        }
      ],
      "stateMutability": "view",
      "type": "function"
    },
    {
      "inputs": [
        {
          "internalType": "address",
          "name": "user",
          "type": "address"
        }
      ],
      "name": "getProxyOwnerHandler",
      "outputs": [
        {
          "internalType": "address",
          "name": "",
          "type": "address"
        }
      ],
      "stateMutability": "view",
      "type": "function"
    },
    {
      "inputs": [
        {
          "internalType": "address",
          "name": "token",
          "type": "address"
        }
      ],
      "name": "getShifterHandler",
      "outputs": [
        {
          "internalType": "contract IShifter",
          "name": "",
          "type": "address"
        }
      ],
      "stateMutability": "view",
      "type": "function"
    },
    {
      "inputs": [
        {
          "internalType": "address",
          "name": "token",
          "type": "address"
        }
      ],
      "name": "getLiquidityTokenHandler",
      "outputs": [
        {
          "internalType": "contract LiquidityToken",
          "name": "",
          "type": "address"
        }
      ],
      "stateMutability": "view",
      "type": "function"
    },
    {
      "inputs": [
        {
          "internalType": "address",
          "name": "to",
          "type": "address"
        },
        {
          "internalType": "bytes4",
          "name": "sig",
          "type": "bytes4"
        }
      ],
      "name": "fetchModuleHandler",
      "outputs": [
        {
          "components": [
            {
              "internalType": "bool",
              "name": "isPrecompiled",
              "type": "bool"
            },
            {
              "internalType": "address",
              "name": "assetSubmodule",
              "type": "address"
            },
            {
              "internalType": "address",
              "name": "liquidationSubmodule",
              "type": "address"
            },
            {
              "internalType": "address",
              "name": "repaymentSubmodule",
              "type": "address"
            }
          ],
          "internalType": "struct BorrowProxyLib.Module",
          "name": "",
          "type": "tuple"
        }
      ],
      "stateMutability": "view",
      "type": "function"
    },
    {
      "inputs": [
        {
          "internalType": "address",
          "name": "token",
          "type": "address"
        },
        {
          "internalType": "address",
          "name": "liquidityToken",
          "type": "address"
        },
        {
          "internalType": "address",
          "name": "keeper",
          "type": "address"
        },
        {
          "internalType": "uint256",
          "name": "bond",
          "type": "uint256"
        },
        {
          "internalType": "uint256",
          "name": "repay",
          "type": "uint256"
        }
      ],
      "name": "relayResolveLoan",
      "outputs": [
        {
          "internalType": "bool",
          "name": "",
          "type": "bool"
        }
      ],
      "stateMutability": "nonpayable",
      "type": "function"
    }
  ],
  "bytecode": "0x60806040523480156200001157600080fd5b506000620000276001600160e01b036200007b16565b600080546001600160a01b0319166001600160a01b0383169081178255604051929350917f8be0079c531659141344cd1fd0a4f28419497f9722a3daafe3b4186f6b6457e0908290a350436001556200007f565b3390565b613e38806200008f6000396000f3fe60806040526004361061012a5760003560e01c806365ba837a116100ab57806393e93abe1161006f57806393e93abe1461031557806397e4da5a1461032a578063d0a80e311461034a578063dc74245e1461036a578063e6c1f0741461037d578063f2fde38b1461039d5761012a565b806365ba837a14610296578063715018a6146102ab578063798aada0146102c0578063801874ec146102e05780638da5cb5b146103005761012a565b806334686eaf116100f257806334686eaf146101e7578063441123601461021457806352e831dd146102415780635f7d2b571461026157806363091aa3146102815761012a565b806308f604951461012f5780631fbc78dc146101655780632593b0531461019257806329658b02146101b25780632b19a598146101d2575b600080fd5b34801561013b57600080fd5b5061014f61014a366004612b72565b6103bd565b60405161015c919061315e565b60405180910390f35b34801561017157600080fd5b506101856101803660046128fa565b6103d7565b60405161015c919061306d565b34801561019e57600080fd5b506101856101ad366004612b5a565b6103ea565b3480156101be57600080fd5b506101856101cd3660046128fa565b610437565b6101e56101e0366004612d03565b61044a565b005b3480156101f357600080fd5b50610207610202366004612ba4565b610482565b60405161015c91906139d8565b34801561022057600080fd5b5061023461022f36600461298c565b6104a1565b60405161015c91906138c8565b34801561024d57600080fd5b506101e561025c366004612b72565b6104bb565b34801561026d57600080fd5b506101e561027c366004612ba4565b6104be565b34801561028d57600080fd5b506101e5610509565b3480156102a257600080fd5b5061018561055c565b3480156102b757600080fd5b506101e561056b565b3480156102cc57600080fd5b506101856102db3660046128fa565b6105f3565b3480156102ec57600080fd5b5061014f6102fb366004612932565b610606565b34801561030c57600080fd5b50610185610750565b34801561032157600080fd5b506101e561075f565b34801561033657600080fd5b506101e56103453660046129c4565b610789565b34801561035657600080fd5b506101856103653660046128fa565b610938565b6101e5610378366004612c04565b610956565b34801561038957600080fd5b506101856103983660046128fa565b6109b3565b3480156103a957600080fd5b506101e56103b83660046128fa565b6109c6565b60006103d1600a338463ffffffff610a7c16565b92915050565b60006103d160018363ffffffff610aa216565b6003546000906103d1906001600160a01b0316610405610b25565b338560405160200161041993929190612fc6565b6040516020818303038152906040528051906020012060001c610b49565b60006103d1600a8363ffffffff610b9916565b6000606061045783610bbc565b91509150805160001461047d5761047d6001600160a01b0383168263ffffffff610f1716565b505050565b61048a6123a0565b61049a838363ffffffff610f7916565b9392505050565b6104a96123b8565b61049a600e848463ffffffff610ff216565b50565b60006104d360006104cd6110e0565b85611104565b905060606104f86104f36001600160a01b0384168563ffffffff61117616565b611200565b905061050381611229565b50505050565b61053a60017ffe1e3164ba4910db3c9afd049cd8feb4552390569c846692e6df4ac68aeaa90e63ffffffff61123116565b600280546001600160a01b0319166001600160a01b0392909216919091179055565b6003546001600160a01b031690565b610573611299565b6000546001600160a01b039081169116146105a95760405162461bcd60e51b81526004016105a0906136aa565b60405180910390fd5b600080546040516001600160a01b03909116907f8be0079c531659141344cd1fd0a4f28419497f9722a3daafe3b4186f6b6457e0908390a3600080546001600160a01b0319169055565b60006103d160018363ffffffff61129d16565b336000908152600a60205260408120546106325760405162461bcd60e51b81526004016105a0906134e1565b821561066e576106526001600160a01b038716858563ffffffff6112d916565b61066e5760405162461bcd60e51b81526004016105a0906135ee565b81156106aa5761068e6001600160a01b038716868463ffffffff6112d916565b6106aa5760405162461bcd60e51b81526004016105a0906133f7565b60405163c3275c7960e01b81526001600160a01b0386169063c3275c79906106d690339060040161306d565b602060405180830381600087803b1580156106f057600080fd5b505af1158015610704573d6000803e3d6000fd5b505050506040513d601f19601f820116820180604052508101906107289190612b3e565b6107445760405162461bcd60e51b81526004016105a090613820565b50600195945050505050565b6000546001600160a01b031690565b61076761134b565b600380546001600160a01b0319166001600160a01b0392909216919091179055565b610791611299565b6000546001600160a01b039081169116146107be5760405162461bcd60e51b81526004016105a0906136aa565b82518251146107df5760405162461bcd60e51b81526004016105a090613780565b600480546001600160a01b0319166001600160a01b0388161790556005859055600684905560005b82518110156108c3576108186123df565b604051806080016040528086848151811061082f57fe5b602002602001015160000151600281111561084657fe5b815260200186848151811061085757fe5b6020026020010151602001516001600160a01b0316815260200186848151811061087d57fe5b602002602001015160400151815260200185848151811061089a57fe5b6020908102919091010151905290506108ba600e8263ffffffff6113a316565b50600101610807565b5060005b815181101561092f576108d861240d565b8282815181106108e457fe5b6020908102919091018101518082015190516001600160a01b0390811660009081526009909352604090922080546001600160a01b03191692909116919091179055506001016108c7565b50505050505050565b6001600160a01b039081166000908152600960205260409020541690565b825160a00151600061096985858561145d565b85518051602090910151919250610993916001600160a01b0384169190600063ffffffff6115fe16565b6109ac6001600160a01b0382168363ffffffff610f1716565b5050505050565b60006103d1600a8363ffffffff61169c16565b6109ce611299565b6000546001600160a01b039081169116146109fb5760405162461bcd60e51b81526004016105a0906136aa565b6001600160a01b038116610a215760405162461bcd60e51b81526004016105a090613300565b600080546040516001600160a01b03808516939216917f8be0079c531659141344cd1fd0a4f28419497f9722a3daafe3b4186f6b6457e091a3600080546001600160a01b0319166001600160a01b0392909216919091179055565b80516020918201206001600160a01b039290921660009081529290526040909120541490565b600382015460405163028c4f4160e41b81526000916001600160a01b0316906328c4f41090610ad590859060040161306d565b60206040518083038186803b158015610aed57600080fd5b505afa158015610b01573d6000803e3d6000fd5b505050506040513d601f19601f8201168201806040525081019061049a9190612916565b7f6b6f6b75258f8f4cdb6ef275682bc2be3e8b970e5e4417113bd1ea53622d907e90565b60006060610b56846116bf565b80519091508390602083018282826000f5945050506001600160a01b038316610b915760405162461bcd60e51b81526004016105a090613758565b505092915050565b6001600160a01b0380821660009081526002840160205260409020541692915050565b60006060610bc8612424565b60408051608081018252855151818301908152825180840190935233835286515160609081015192938493918401916020820190610c0f90600190600a81046103e86116cb565b90529052815260408051608081018252602088810180515183528051820151838301528051840151938301939093529151606090810151908201529101528451909150610c6d90610c5f906117cb565b85519063ffffffff6117e416565b610c895760405162461bcd60e51b81526004016105a090613666565b835151600090610c9890611815565b600254909150610cb7906001600160a01b03168263ffffffff61182016565b9350610cca600a8563ffffffff61182c16565b15610ce75760405162461bcd60e51b81526004016105a090613224565b610d1c846001604051602001610cfd9190613064565b60408051601f19818403018152919052600a919063ffffffff61184a16565b84515160200151610d359060019063ffffffff610aa216565b6001600160a01b031663159ab14d86602001516040015187600001516000015160600151610d628661186d565b8960200151606001516040518563ffffffff1660e01b8152600401610d8a9493929190613169565b602060405180830381600087803b158015610da457600080fd5b505af1158015610db8573d6000803e3d6000fd5b505050506040513d601f19601f82011682018060405250810190610ddc9190612e02565b50845151606001518251600091610df9919063ffffffff61187816565b9050610e04826118a5565b508551518051602090910151610e2c916001600160a01b03881691600163ffffffff6115fe16565b855151516001600160a01b03163314801590610e4c575085516020015134145b15610ed757855151516040516001600160a01b03909116903480156108fc02916000818181858888f19350505050158015610e8b573d6000803e3d6000fd5b5085515160200151610ead906001600160a01b0316338363ffffffff6112d916565b610ec95760405162461bcd60e51b81526004016105a090613346565b85515160a001519350610f0f565b855151516001600160a01b0316331415610ef75785604001519350610f0f565b60405162461bcd60e51b81526004016105a0906136df565b505050915091565b604051630bfceb2b60e31b81526001600160a01b03831690635fe7595890610f439084906004016130e2565b600060405180830381600087803b158015610f5d57600080fd5b505af1158015610f71573d6000803e3d6000fd5b505050505050565b610f816123a0565b606030610f8e85856118be565b604051610f9b9190613017565b6000604051808303816000865af19150503d8060008114610fd8576040519150601f19603f3d011682016040523d82523d6000602084013e610fdd565b606091505b50915050610fea81611914565b949350505050565b610ffa6123b8565b6110026123b8565b84600061100f8686611930565b815260208082019290925260409081016000208151608081018352815460ff8116151582526001600160a01b036101009091048116948201949094526001820154841692810192909252600201549091166060820152905061107081611958565b610fea57846000611081868661196a565b815260208082019290925260409081016000208151608081018352815460ff81161515825261010090046001600160a01b0390811694820194909452600182015484169281019290925260020154909116606082015295945050505050565b7fad53495153c7c363e98a26920ec679e0e687636458f6908c91cf6deadb19080190565b600080844710156111275760405162461bcd60e51b81526004016105a090613883565b82516111455760405162461bcd60e51b81526004016105a090613266565b8383516020850187f590506001600160a01b038116610fea5760405162461bcd60e51b81526004016105a0906135b7565b61117e6123a0565b60006060846001600160a01b031661119585611985565b6040516111a29190613017565b600060405180830381855af49150503d80600081146111dd576040519150601f19603f3d011682016040523d82523d6000602084013e6111e2565b606091505b50604080518082019091529115158252602082015295945050505050565b60608160405160200161121391906139d8565b6040516020818303038152906040529050919050565b805160208201fd5b60405163dd678a0760e01b815260009073__ShifterBorrowProxyFactoryLib__________9063dd678a079061126d90869086906004016138ba565b60206040518083038186803b15801561128557600080fd5b505af4158015610b01573d6000803e3d6000fd5b3390565b6001600160a01b0380821660009081526008840160205260408120549091168061049a5760405162461bcd60e51b81526004016105a0906137eb565b600080846001600160a01b03166112f085856119d8565b6040516112fd9190613017565b6000604051808303816000865af19150503d806000811461133a576040519150601f19603f3d011682016040523d82523d6000602084013e61133f565b606091505b50909695505050505050565b600061139e60007f6b6f6b75258f8f4cdb6ef275682bc2be3e8b970e5e4417113bd1ea53622d907e60001b6040518060200161138690612444565b601f1982820381018352601f90910116604052611104565b905090565b6001815160028111156113b257fe5b14156114015760005b8160400151518110156113fb576113f3838360200151846040015184815181106113e157fe5b602002602001015185606001516119f5565b6001016113bb565b50611459565b60028151600281111561141057fe5b14156114595760005b81604001515181101561047d576114518383602001518460400151848151811061143f57fe5b60200260200101518560600151611a7f565b600101611419565b5050565b825160800151600090156114835760405162461bcd60e51b81526004016105a090613518565b348460200151146114a65760405162461bcd60e51b81526004016105a0906133ab565b6114bf6114b2856117cb565b859063ffffffff6117e416565b6114db5760405162461bcd60e51b81526004016105a090613666565b6114e3612451565b50835160006114f182611815565b60408051600080825260208201909252919250611524565b6115116123a0565b8152602001906001900390816115095790505b5060a0830152611532612488565b60405180604001604052808481526020016040518060400160405280336001600160a01b0316815260200161157987606001518b8b60016116cb909392919063ffffffff16565b905290529050611588826118a5565b935061159660018583611a8d565b6115b88360200151856115a884611b2c565b600192919063ffffffff611b6416565b60208301516115d8906001600160a01b031633308963ffffffff611c0916565b6115f45760405162461bcd60e51b81526004016105a090613728565b5050509392505050565b6040516329c8702d60e01b81526001600160a01b038516906329c8702d9061162e9086908690869060040161309a565b602060405180830381600087803b15801561164857600080fd5b505af115801561165c573d6000803e3d6000fd5b505050506040513d601f19601f820116820180604052508101906116809190612b3e565b6105035760405162461bcd60e51b81526004016105a09061342e565b6001600160a01b0380821660009081526001840160205260409020541692915050565b60606103d13083611c7d565b6116d36124a8565b84600401548210156116f75760405162461bcd60e51b81526004016105a09061329b565b6000611712670de0b6b3a7640000606463ffffffff611ddc16565b905061172d670de0b6b3a7640000606463ffffffff611ddc16565b6117558661174987670de0b6b3a764000063ffffffff611e1e16565b9063ffffffff611ddc16565b116117725760405162461bcd60e51b81526004016105a090613857565b60008486106117945761178f86611749848863ffffffff611e1e16565b611796565b815b905060405180608001604052808543018152602001868152602001886005015481526020018281525092505050949350505050565b60006117d682611e58565b805190602001209050919050565b60006117fc6117f283611e78565b8460400151611ea8565b8351516001600160a01b03908116911614905092915050565b60006117d682611fd6565b600061049a8383611ff2565b6001600160a01b031660009081526020919091526040902054151590565b80516020918201206001600160a01b039092166000908152929052604090912055565b60006117d68261200d565b600061049a670de0b6b3a76400006117498560200151602001516060015185611e1e90919063ffffffff16565b6002546000906103d1906001600160a01b031683610b49565b6060635f7d2b5760e01b83836040516024016118db9291906131bf565b60408051601f198184030181529190526020810180516001600160e01b03166001600160e01b0319909316929092179091529392505050565b61191c6123a0565b818060200190518101906103d19190612c4f565b60008061193c84612034565b90506119488184612038565b8051906020012091505092915050565b602001516001600160a01b0316151590565b60006119768383612064565b80519060200120905092915050565b60606309c5eabe60e01b826040516024016119a091906131ac565b60408051601f198184030181529190526020810180516001600160e01b03166001600160e01b03199093169290921790915292915050565b606063a9059cbb60e01b83836040516024016118db929190613081565b80846000611a038686611930565b81526020808201929092526040908101600020835181549385015160ff1990941690151517610100600160a81b0319166101006001600160a01b0394851602178155908301516001820180546001600160a01b031990811692851692909217905560609093015160029091018054909316911617905550505050565b80846000611a03868661196a565b6060611a9882612079565b825160200151909150611ab7906009860190859063ffffffff61208c16565b815151611ad0906009860190859063ffffffff6120c016565b8151516040516001600160a01b03909116903480156108fc02916000818181858888f19350505050158015611b09573d6000803e3d6000fd5b50611b1e60098501848363ffffffff61184a16565b8151516105039084836120f4565b60006103d1611b52611b3d84612144565b611b4685612179565b9063ffffffff6121ae16565b8351606001519063ffffffff6121d316565b611b6e848461129d565b6001600160a01b031663185cc75183836040518363ffffffff1660e01b8152600401611b9b929190613081565b602060405180830381600087803b158015611bb557600080fd5b505af1158015611bc9573d6000803e3d6000fd5b505050506040513d601f19601f82011682018060405250810190611bed9190612b3e565b6105035760405162461bcd60e51b81526004016105a09061349d565b600080856001600160a01b0316611c21868686612215565b604051611c2e9190613017565b6000604051808303816000865af19150503d8060008114611c6b576040519150601f19603f3d011682016040523d82523d6000602084013e611c70565b606091505b5090979650505050505050565b6040805160008152602081019091526060908190611c9e90604481016131ac565b60408051601f198184030181529190526020810180516001600160e01b03166352e831dd60e01b17905280519091506063016001600160401b0381118015611ce557600080fd5b506040519080825280601f01601f191660200182016040528015611d10576020820181803683370190505b507f3d3d606380380380913d393d73bebebebebebebebebebebebebebebebebebebe6020820152600160601b858102602d8301527f5af4602a57600080fd5b602d8060366000396000f3363d3d373d3d3d363d73be6041830152840260608201526e5af43d82803e903d91602b57fd5bf360881b6074820152915060005b8151811015610b9157818181518110611da357fe5b602001015160f81c60f81b838260630181518110611dbd57fe5b60200101906001600160f81b031916908160001a905350600101611d8e565b600061049a83836040518060400160405280601a81526020017f536166654d6174683a206469766973696f6e206279207a65726f00000000000081525061226e565b600082611e2d575060006103d1565b82820282848281611e3a57fe5b041461049a5760405162461bcd60e51b81526004016105a090613625565b606080611e6c836000015160a001516122a5565b905061049a83826122b8565b600081604051602001611e8b9190613033565b604051602081830303815290604052805190602001209050919050565b60008151604114611ecb5760405162461bcd60e51b81526004016105a0906132c9565b60208201516040830151606084015160001a7f7fffffffffffffffffffffffffffffff5d576e7357a4501ddfe92f46681b20a0821115611f1d5760405162461bcd60e51b81526004016105a09061345b565b8060ff16601b14158015611f3557508060ff16601c14155b15611f525760405162461bcd60e51b81526004016105a090613575565b600060018783868660405160008152602001604052604051611f77949392919061318e565b6020604051602081039080840390855afa158015611f99573d6000803e3d6000fd5b5050604051601f1901519150506001600160a01b038116611fcc5760405162461bcd60e51b81526004016105a0906131ed565b9695505050505050565b606080611fe68360a001516122a5565b905061049a83826122ee565b600061049a82612001856116bf565b8051906020012061231f565b80515160409081015160208084015180519082015193516060946112139493909101612fe9565b3f90565b6060828260405160200161204d929190612fff565b604051602081830303815290604052905092915050565b6060828260405160200161204d929190612f6b565b6060816040516020016112139190613906565b6001600160a01b039182166000908152600290930160205260409092208054919092166001600160a01b0319909116179055565b6001600160a01b039182166000908152600190930160205260409092208054919092166001600160a01b0319909116179055565b816001600160a01b0316836001600160a01b03167f9ae84ac2ad8f721c2e62d211eca0ae34951726f8834913af6c5ebb81610bb1f88360405161213791906131ac565b60405180910390a3505050565b60006103d1670de0b6b3a764000061174984602001516020015160600151856000015160600151611e1e90919063ffffffff16565b60006103d1670de0b6b3a764000061174984602001516020015160400151856000015160600151611e1e90919063ffffffff16565b60008282018381101561049a5760405162461bcd60e51b81526004016105a090613374565b600061049a83836040518060400160405280601e81526020017f536166654d6174683a207375627472616374696f6e206f766572666c6f77000081525061232c565b60606323b872dd60e01b848484604051602401612234939291906130be565b60408051601f198184030181529190526020810180516001600160e01b03166001600160e01b031990931692909217909152949350505050565b6000818361228f5760405162461bcd60e51b81526004016105a091906131ac565b50600083858161229b57fe5b0495945050505050565b60608160405160200161121391906130e2565b8151602080820151604080840151606085810151858901516080909701519351919661204d9630969592939192918a9101612f04565b6060826000015183602001518460400151856060015186608001518660405160200161204d96959493929190612ea4565b600061049a838330612358565b600081848411156123505760405162461bcd60e51b81526004016105a091906131ac565b505050900390565b60008060ff60f81b8386866040516020016123769493929190612f92565b60408051808303601f1901815291905280516020909101206001600160a01b031695945050505050565b60408051808201909152600081526060602082015290565b60408051608081018252600080825260208201819052918101829052606081019190915290565b6040805160808101909152806000815260006020820152606060408201819052016124086123b8565b905290565b604080518082019091526000808252602082015290565b6040518060400160405280612437612488565b81526020016124086124d0565b61032a80613ad983390190565b6040805160c0810182526000808252602082018190529181018290526060808201839052608082019290925260a081019190915290565b604051806040016040528061249b612451565b81526020016124086124f6565b6040518060800160405280600081526020016000815260200160008152602001600081525090565b604080516080810182526000808252602082018190529181019190915260608082015290565b604051806040016040528060006001600160a01b031681526020016124086124a8565b80356103d181613a9f565b600082601f830112612534578081fd5b813561254761254282613a25565b6139ff565b81815291506020808301908481018184028601820187101561256857600080fd5b60005b8481101561259057813561257e81613ac2565b8452928201929082019060010161256b565b505050505092915050565b600082601f8301126125ab578081fd5b81356125b961254282613a25565b818152915060208083019084810160005b848110156125905781358701604080601f19838c030112156125eb57600080fd5b6125f4816139ff565b6126008b878501612519565b8152818301356001600160401b0381111561261a57600080fd5b6126288c88838701016127a3565b82880152508652505092820192908201906001016125ca565b600082601f830112612651578081fd5b813561265f61254282613a25565b818152915060208083019084810160408085028701830188101561268257600080fd5b6000805b868110156126d55782848b03121561269c578182fd5b6126a5836139ff565b84356126b081613a9f565b8152848601356126bf81613a9f565b8187015286529484019492820192600101612686565b5050505050505092915050565b600082601f8301126126f2578081fd5b813561270061254282613a25565b818152915060208083019084810160808085028701830188101561272357600080fd5b6000805b868110156126d55782848b03121561273d578182fd5b612746836139ff565b6127508b86612798565b815261275e8b878701612519565b8682015260406127708c828801612519565b9082015260606127828c878301612519565b9082015286529484019492820192600101612727565b80356103d181613ab4565b600082601f8301126127b3578081fd5b81356127c161254282613a44565b91508082528360208285010111156127d857600080fd5b8060208401602084013760009082016020015292915050565b8035600381106103d157600080fd5b600060608284031215612811578081fd5b61281b60606139ff565b905081356001600160401b038082111561283457600080fd5b81840160c0818703121561284757600080fd5b61285160c06139ff565b9250803561285e81613a9f565b8352602081013561286e81613a9f565b8060208501525060408101356040840152606081013560608401526128968660808301612798565b608084015260a0810135828111156128ad57600080fd5b6128b98782840161259b565b60a085015250508183526020840135602084015260408401359150808211156128e157600080fd5b506128ee848285016127a3565b60408301525092915050565b60006020828403121561290b578081fd5b813561049a81613a9f565b600060208284031215612927578081fd5b815161049a81613a9f565b600080600080600060a08688031215612949578081fd5b853561295481613a9f565b9450602086013561296481613a9f565b9350604086013561297481613a9f565b94979396509394606081013594506080013592915050565b6000806040838503121561299e578182fd5b82356129a981613a9f565b915060208301356129b981613ac2565b809150509250929050565b60008060008060008060c087890312156129dc578384fd5b6129e68735613a9f565b8635955060208701359450604087013593506001600160401b0360608801351115612a0f578081fd5b6060870135870188601f820112612a24578182fd5b612a316125428235613a25565b81358152602080820191908301845b8435811015612ada576060823586018e03601f19011215612a5f578586fd5b612a6960606139ff565b612a798e602085358901016127f1565b8152612a8b8e60408535890101612519565b60208201526001600160401b0360608435880101351115612aaa578687fd5b612ac08e84358801606081013501602001612524565b604082015284526020938401939190910190600101612a40565b50508095505050506001600160401b0360808801351115612af9578081fd5b612b0988608089013589016126e2565b91506001600160401b0360a08801351115612b22578081fd5b612b328860a08901358901612641565b90509295509295509295565b600060208284031215612b4f578081fd5b815161049a81613ab4565b600060208284031215612b6b578081fd5b5035919050565b600060208284031215612b83578081fd5b81356001600160401b03811115612b98578182fd5b610fea848285016127a3565b60008060408385031215612bb6578182fd5b82356001600160401b0380821115612bcc578384fd5b612bd8868387016127a3565b93506020850135915080821115612bed578283fd5b50612bfa858286016127a3565b9150509250929050565b600080600060608486031215612c18578081fd5b83356001600160401b03811115612c2d578182fd5b612c3986828701612800565b9660208601359650604090950135949350505050565b60006020808385031215612c61578182fd5b82516001600160401b0380821115612c77578384fd5b81850160408188031215612c89578485fd5b612c9360406139ff565b92508051612ca081613ab4565b83528084015182811115612cb2578586fd5b019050601f81018613612cc3578384fd5b8051612cd161254282613a44565b8181528785838501011115612ce4578586fd5b612cf382868301878601613a73565b9383019390935250949350505050565b600060208284031215612d14578081fd5b81356001600160401b0380821115612d2a578283fd5b81840160608187031215612d3c578384fd5b612d4660606139ff565b9250803582811115612d56578485fd5b612d6287828401612800565b845250602081013582811115612d76578485fd5b80820160808189031215612d88578586fd5b612d9260806139ff565b9150803582526020810135602083015260408101356040830152606081013584811115612dbd578687fd5b612dc9898284016127a3565b606084015250506020840152604081013582811115612de6578485fd5b612df28782840161259b565b6040850152509195945050505050565b600060208284031215612e13578081fd5b5051919050565b600060018060a01b038251168352602082015160406020850152610fea60408501825b60008151808452612e55816020860160208601613a73565b601f01601f19169290920160200192915050565b60018060a01b038151168252602081015180516020840152602081015160408401526040810151606084015260608101516080840152505050565b60006bffffffffffffffffffffffff19808960601b168352808860601b1660148401525085602883015284604883015283151560f81b60688301528251612ef2816069850160208701613a73565b91909101606901979650505050505050565b60006bffffffffffffffffffffffff19808a60601b168352808960601b1660148401525086602883015285604883015284606883015283151560f81b60888301528251612f58816089850160208701613a73565b9190910160890198975050505050505050565b60609290921b6001600160601b03191682526001600160e01b031916601482015260180190565b6001600160f81b031994909416845260609290921b6001600160601b03191660018401526015830152603582015260550190565b92835260609190911b6001600160601b0319166020830152603482015260540190565b9283526020830191909152604082015260600190565b9182526001600160e01b031916602082015260240190565b60008251613029818460208701613a73565b9190910192915050565b7f19457468657265756d205369676e6564204d6573736167653a0a3332000000008152601c810191909152603c0190565b90815260200190565b6001600160a01b0391909116815260200190565b6001600160a01b03929092168252602082015260400190565b6001600160a01b039384168152919092166020820152901515604082015260600190565b6001600160a01b039384168152919092166020820152604081019190915260600190565b60208082528251828201819052600091906040908185019080840286018301878501865b8381101561315057888303603f19018552815180516001600160a01b031684528781015188850188905261313c88860182612e3d565b968901969450505090860190600101613106565b509098975050505050505050565b901515815260200190565b600085825284602083015283604083015260806060830152611fcc6080830184612e3d565b93845260ff9290921660208401526040830152606082015260800190565b60006020825261049a6020830184612e3d565b6000604082526131d26040830185612e3d565b82810360208401526131e48185612e3d565b95945050505050565b60208082526018908201527f45434453413a20696e76616c6964207369676e61747572650000000000000000604082015260600190565b60208082526022908201527f70726f78792068617320616c7265616479206265656e20696e697469616c697a604082015261195960f21b606082015260800190565b6020808252818101527f437265617465323a2062797465636f6465206c656e677468206973207a65726f604082015260600190565b6020808252601490820152731d1a5b595bdd5d081a5b9cdd59999a58da595b9d60621b604082015260600190565b6020808252601f908201527f45434453413a20696e76616c6964207369676e6174757265206c656e67746800604082015260600190565b60208082526026908201527f4f776e61626c653a206e6577206f776e657220697320746865207a65726f206160408201526564647265737360d01b606082015260800190565b6020808252601490820152731ad9595c195c881c185e5bdd5d0819985a5b195960621b604082015260600190565b6020808252601b908201527f536166654d6174683a206164646974696f6e206f766572666c6f770000000000604082015260600190565b6020808252602c908201527f737570706c696564206574686572206973206e6f7420657175616c20746f206760408201526b185cc81c995c5d595cdd195960a21b606082015260800190565b6020808252601a908201527f6661696c656420746f207265706179206c6f73742066756e6473000000000000604082015260600190565b6020808252601390820152727365747570207068617365206661696c75726560681b604082015260600190565b60208082526022908201527f45434453413a20696e76616c6964207369676e6174757265202773272076616c604082015261756560f01b606082015260800190565b60208082526024908201527f696e73756666696369656e742066756e647320696e206c6971756964697479206040820152631c1bdbdb60e21b606082015260800190565b6020808252601d908201527f6e6f742061207265676973746572656420626f72726f772070726f7879000000604082015260600190565b60208082526037908201527f6973206e6f742061206c6f616e20726571756573742c20747279207573696e6760408201527f2065786563757465536869667453616e73426f72726f77000000000000000000606082015260800190565b60208082526022908201527f45434453413a20696e76616c6964207369676e6174757265202776272076616c604082015261756560f01b606082015260800190565b60208082526019908201527f437265617465323a204661696c6564206f6e206465706c6f7900000000000000604082015260600190565b6020808252601f908201527f6661696c656420746f2072657475726e20626f6e6420746f206b656570657200604082015260600190565b60208082526021908201527f536166654d6174683a206d756c7469706c69636174696f6e206f766572666c6f6040820152607760f81b606082015260800190565b60208082526024908201527f6c69717569646974792072657175657374207369676e61747572652072656a6560408201526318dd195960e21b606082015260800190565b6020808252818101527f4f776e61626c653a2063616c6c6572206973206e6f7420746865206f776e6572604082015260600190565b60208082526029908201527f696e636f72726563742067617320737570706c696564207769746820676173206040820152681c995c5d595cdd195960ba1b606082015260800190565b602080825260169082015275189bdb99081cdd589b5a5cdcda5bdb8819985a5b195960521b604082015260600190565b6020808252600e908201526d18dc99585d194c8819985a5b195960921b604082015260600190565b60208082526045908201527f63616e2774207a6970206d6f64756c65207265676973746174696f6e733a206d60408201527f6f64756c65732e6c656e67746820213d206d6f64756c6544657461696c732e6c6060820152640cadccee8d60db1b608082015260a00190565b6020808252818101527f6e6f7420612072656769737465726564206c697175696469747920746f6b656e604082015260600190565b60208082526017908201527f6c6f616e207265736f6c7574696f6e206661696c757265000000000000000000604082015260600190565b602080825260129082015271626f6e642062656c6f77206d696e696d756d60701b604082015260600190565b6020808252601d908201527f437265617465323a20696e73756666696369656e742062616c616e6365000000604082015260600190565b918252602082015260400190565b8151151581526020808301516001600160a01b0390811691830191909152604080840151821690830152606092830151169181019190915260800190565b60006020808352835160c0828501526101a084016139248251613a67565b60e0860152828201516001600160a01b0316610100860152604082015161012086015260608201516101408601526080820151151561016086015260a09091015160c0610180860152805182919061397c8184613064565b9350839250859181860284019086015b828410156139b85784820386526139a4828251612e1a565b95870195600194909401939150860161398c565b508589015194506139cc6040890186612e69565b98975050505050505050565b6000602082528251151560208301526020830151604080840152610fea6060840182612e3d565b6040518181016001600160401b0381118282101715613a1d57600080fd5b604052919050565b60006001600160401b03821115613a3a578081fd5b5060209081020190565b60006001600160401b03821115613a59578081fd5b50601f01601f191660200190565b6001600160a01b031690565b60005b83811015613a8e578181015183820152602001613a76565b838111156105035750506000910152565b6001600160a01b03811681146104bb57600080fd5b80151581146104bb57600080fd5b6001600160e01b0319811681146104bb57600080fdfe608060405234801561001057600080fd5b5061030a806100206000396000f3fe60806040526004361061001e5760003560e01c80638e03e6cd14610023575b600080fd5b6100366100313660046101d7565b610038565b005b6001600160a01b03811615610103576100de82826001600160a01b03166370a08231306040518263ffffffff1660e01b81526004016100779190610260565b60206040518083038186803b15801561008f57600080fd5b505afa1580156100a3573d6000803e3d6000fd5b505050506040513d601f19601f820116820180604052508101906100c7919061020f565b6001600160a01b038416919063ffffffff61010f16565b6101035760405162461bcd60e51b81526004016100fa9061028d565b60405180910390fd5b816001600160a01b0316ff5b600080846001600160a01b03166101268585610181565b6040516101339190610227565b6000604051808303816000865af19150503d8060008114610170576040519150601f19603f3d011682016040523d82523d6000602084013e610175565b606091505b50909695505050505050565b606063a9059cbb60e01b838360405160240161019e929190610274565b60408051601f198184030181529190526020810180516001600160e01b03166001600160e01b0319909316929092179091529392505050565b600080604083850312156101e9578182fd5b82356101f4816102bc565b91506020830135610204816102bc565b809150509250929050565b600060208284031215610220578081fd5b5051919050565b60008251815b81811015610247576020818601810151858301520161022d565b818111156102555782828501525b509190910192915050565b6001600160a01b0391909116815260200190565b6001600160a01b03929092168252602082015260400190565b602080825260159082015274657263323020666f7277617264206661696c75726560581b604082015260600190565b6001600160a01b03811681146102d157600080fd5b5056fea2646970667358221220c133bbfd0dc92bd496d1c513197385acc1ee7f5cfae844e97374a9e24c31fc1264736f6c63430006080033a2646970667358221220ee054b3d7455975a6b80c9bf8b696919b6b55236f88afff89af5d83d3efd25ee64736f6c63430006080033",
  "immutableReferences": {},
  "source": "// SPDX-License-Identifier: MIT\npragma solidity ^0.6.0;\npragma experimental ABIEncoderV2;\n\nimport { Ownable } from \"openzeppelin-solidity/contracts/access/Ownable.sol\";\nimport { IShifterRegistry } from \"./interfaces/IShifterRegistry.sol\";\nimport { IShifter } from \"./interfaces/IShifter.sol\";\nimport { ShifterPoolLib } from \"./ShifterPoolLib.sol\";\nimport { ShifterBorrowProxyLib } from \"./ShifterBorrowProxyLib.sol\";\nimport { ShifterBorrowProxyFactoryLib } from \"./ShifterBorrowProxyFactoryLib.sol\";\nimport { ShifterBorrowProxy } from \"./ShifterBorrowProxy.sol\";\nimport { BorrowProxy } from \"./BorrowProxy.sol\";\nimport { BorrowProxyLib } from \"./BorrowProxyLib.sol\";\nimport { TokenUtils } from \"./utils/TokenUtils.sol\";\nimport { ViewExecutor } from \"./utils/ViewExecutor.sol\";\nimport { LiquidityToken } from \"./LiquidityToken.sol\";\nimport { SandboxLib } from \"./utils/sandbox/SandboxLib.sol\";\nimport { SafeViewExecutor } from \"./utils/sandbox/SafeViewExecutor.sol\";\nimport { FactoryLib } from \"./FactoryLib.sol\";\nimport { NullCloneConstructor } from \"./NullCloneConstructor.sol\";\nimport { AssetForwarderLib } from \"./adapters/lib/AssetForwarderLib.sol\";\nimport { AssetForwarder } from \"./adapters/lib/AssetForwarder.sol\";\n\ncontract ShifterPool is Ownable, SafeViewExecutor, NullCloneConstructor {\n  using SandboxLib for *;\n  using ShifterPoolLib for *;\n  using TokenUtils for *;\n  using ShifterBorrowProxyLib for *;\n  using ShifterBorrowProxyFactoryLib for *;\n  using BorrowProxyLib for *;\n  ShifterPoolLib.Isolate isolate;\n  constructor() Ownable() public {\n    isolate.genesis = block.number;\n  }\n  function setup(address shifterRegistry, uint256 minTimeout, uint256 poolFee, BorrowProxyLib.ModuleDetails[] memory moduleDetails, BorrowProxyLib.Module[] memory modules, ShifterPoolLib.LiquidityTokenLaunch[] memory tokenLaunches) public onlyOwner {\n    require(modules.length == moduleDetails.length, \"can't zip module registations: modules.length != moduleDetails.length\");\n    isolate.shifterRegistry = shifterRegistry;\n    isolate.minTimeout = minTimeout;\n    isolate.poolFee = poolFee;\n    for (uint256 i = 0; i < modules.length; i++) {\n      BorrowProxyLib.ModuleRegistration memory registration = BorrowProxyLib.ModuleRegistration({\n        module: modules[i],\n        target: moduleDetails[i].target,\n        sigs: moduleDetails[i].sigs,\n        moduleType: moduleDetails[i].moduleType\n      });\n      isolate.registry.registryRegisterModule(registration);\n    }\n    for (uint256 i = 0; i < tokenLaunches.length; i++) {\n      ShifterPoolLib.LiquidityTokenLaunch memory launch = tokenLaunches[i];\n      isolate.tokenToLiquidityToken[launch.token] = launch.liqToken;\n    }\n  }\n  function getLiquidityTokenForTokenHandler(address token) public view returns (address) {\n    return isolate.tokenToLiquidityToken[token];\n  }\n  bytes32 constant BORROW_PROXY_IMPLEMENTATION_SALT = 0xfe1e3164ba4910db3c9afd049cd8feb4552390569c846692e6df4ac68aeaa90e;\n  function deployBorrowProxyImplementation() public {\n    isolate.borrowProxyImplementation = isolate.makeBorrowProxy(BORROW_PROXY_IMPLEMENTATION_SALT);\n  }\n  function deployAssetForwarderImplementation() public {\n    isolate.assetForwarderImplementation = AssetForwarderLib.deployAssetForwarder();\n  }\n\n  function deployAssetForwarderClone(bytes32 salt) public returns (address created) {\n\n    created = FactoryLib.create2Clone(isolate.assetForwarderImplementation, uint256(keccak256(abi.encodePacked(AssetForwarderLib.GET_ASSET_FORWARDER_IMPLEMENTATION_SALT(), msg.sender, salt))));\n\n  }\n  function getAssetForwarderImplementationHandler() public view returns (address implementation) {\n    return isolate.assetForwarderImplementation;\n  }\n  function deployBorrowProxyClone(bytes32 salt) internal returns (address payable created) {\n    created = address(uint160(FactoryLib.create2Clone(isolate.borrowProxyImplementation, uint256(salt))));\n  }\n  function _executeBorrow(ShifterBorrowProxyLib.LiquidityRequestParcel memory liquidityRequestParcel, uint256 bond, uint256 timeoutExpiry) internal returns (address payable proxyAddress) {\n    require(liquidityRequestParcel.request.forbidLoan == false, \"is not a loan request, try using executeShiftSansBorrow\");\n    require(\n      liquidityRequestParcel.gasRequested == msg.value,\n      \"supplied ether is not equal to gas requested\"\n    );\n    require(\n      liquidityRequestParcel.validateSignature(\n        liquidityRequestParcel.computeLiquidityRequestHash()\n      ),\n      \"liquidity request signature rejected\"\n    );\n    ShifterBorrowProxyLib.LiquidityRequest memory liquidityRequest = liquidityRequestParcel.request;\n    bytes32 borrowerSalt = liquidityRequest.computeBorrowerSalt();\n    liquidityRequest.actions = new ShifterBorrowProxyLib.InitializationAction[](0);\n    ShifterBorrowProxyLib.ProxyRecord memory proxyRecord = ShifterBorrowProxyLib.ProxyRecord({\n      request: liquidityRequest,\n      loan: ShifterBorrowProxyLib.LenderRecord(\n        msg.sender,\n        isolate.computeLoanParams(liquidityRequest.amount, bond, timeoutExpiry)\n      )\n    });\n    proxyAddress = address(uint160(deployBorrowProxyClone(borrowerSalt)));\n    ShifterPoolLib.mapBorrowProxy(isolate, proxyAddress, proxyRecord);\n    isolate.issueLoan(liquidityRequest.token, proxyAddress, proxyRecord.computePostFee());\n    require(liquidityRequest.token.transferTokenFrom(msg.sender, address(this), bond), \"bond submission failed\");\n  }\n  function executeBorrow(ShifterBorrowProxyLib.LiquidityRequestParcel memory liquidityRequestParcel, uint256 bond, uint256 timeoutExpiry) public payable {\n    ShifterBorrowProxyLib.InitializationAction[] memory actions = liquidityRequestParcel.request.actions;\n    address payable proxyAddress = _executeBorrow(liquidityRequestParcel, bond, timeoutExpiry);\n    proxyAddress.setupBorrowProxy(liquidityRequestParcel.request.borrower, liquidityRequestParcel.request.token, false);\n    proxyAddress.sendInitializationActions(actions);\n  }\n  function executeShiftSansBorrow(ShifterBorrowProxyLib.SansBorrowShiftParcel memory parcel) public payable {\n    (address payable proxyAddress, ShifterBorrowProxyLib.InitializationAction[] memory actions) = _executeShiftSansBorrow(parcel);\n    if (actions.length != 0) proxyAddress.sendInitializationActions(actions);\n  }\n  function _executeShiftSansBorrow(ShifterBorrowProxyLib.SansBorrowShiftParcel memory parcel) internal returns (address payable proxyAddress, ShifterBorrowProxyLib.InitializationAction[] memory actions) {\n    ShifterBorrowProxyLib.TriggerParcel memory triggerParcel = ShifterBorrowProxyLib.TriggerParcel({\n      record: ShifterBorrowProxyLib.ProxyRecord({\n        request: parcel.liquidityRequestParcel.request,\n        loan: ShifterBorrowProxyLib.LenderRecord({\n          keeper: msg.sender,\n          params: isolate.computeLoanParams(parcel.liquidityRequestParcel.request.amount, parcel.liquidityRequestParcel.request.amount / 10, 1000)\n        })\n      }),\n      shiftParameters: ShifterBorrowProxyLib.ShiftParameters({\n        txhash: parcel.shiftParameters.txhash,\n        vout: parcel.shiftParameters.vout,\n        pHash: parcel.shiftParameters.pHash,\n        darknodeSignature: parcel.shiftParameters.darknodeSignature\n      })\n    });\n    require(\n      parcel.liquidityRequestParcel.validateSignature(\n        parcel.liquidityRequestParcel.computeLiquidityRequestHash()\n      ),\n      \"liquidity request signature rejected\"\n    );\n    bytes32 borrowerSalt = parcel.liquidityRequestParcel.request.computeBorrowerSalt();\n    proxyAddress = address(uint160(isolate.borrowProxyImplementation.deriveBorrowerAddress(borrowerSalt)));\n    require(!isolate.borrowProxyController.isInitialized(proxyAddress), \"proxy has already been initialized\");\n    isolate.borrowProxyController.mapProxyRecord(proxyAddress, abi.encodePacked(uint256(1)));\n    isolate.getShifter(parcel.liquidityRequestParcel.request.token).mint(parcel.shiftParameters.pHash, parcel.liquidityRequestParcel.request.amount, triggerParcel.computeNHash(), parcel.shiftParameters.darknodeSignature);\n    uint256 fee = triggerParcel.record.computeAdjustedKeeperFee(parcel.liquidityRequestParcel.request.amount);\n    deployBorrowProxyClone(borrowerSalt);\n    proxyAddress.setupBorrowProxy(parcel.liquidityRequestParcel.request.borrower, parcel.liquidityRequestParcel.request.token, true);\n    if (parcel.liquidityRequestParcel.request.borrower != msg.sender && msg.value == parcel.liquidityRequestParcel.gasRequested) {\n      parcel.liquidityRequestParcel.request.borrower.transfer(msg.value);\n      require(parcel.liquidityRequestParcel.request.token.sendToken(msg.sender, fee), \"keeper payout failed\");\n      actions = parcel.liquidityRequestParcel.request.actions;\n    } else if (parcel.liquidityRequestParcel.request.borrower == msg.sender) actions = parcel.actions;\n    else revert(\"incorrect gas supplied with gas requested\");\n  }\n  function validateProxyRecordHandler(bytes memory proxyRecord) public view returns (bool) {\n    return isolate.borrowProxyController.validateProxyRecord(msg.sender, proxyRecord);\n  }\n  function getProxyTokenHandler(address proxyAddress) public view returns (address) {\n    return isolate.borrowProxyController.getProxyToken(proxyAddress);\n  }\n  function getProxyOwnerHandler(address user) public view returns (address) {\n    return isolate.borrowProxyController.getProxyOwner(user);\n  }\n  function getShifterHandler(address token) public view returns (IShifter) {\n    return isolate.getShifter(token);\n  }\n  function getLiquidityTokenHandler(address token) public view returns (LiquidityToken) {\n    return LiquidityToken(isolate.getLiquidityToken(token));\n  }\n  function fetchModuleHandler(address to, bytes4 sig) public view returns (BorrowProxyLib.Module memory) {\n    return isolate.registry.resolveModule(to, sig);\n  }\n  function relayResolveLoan(address token, address liquidityToken, address keeper, uint256 bond, uint256 repay) public returns (bool) {\n    require(isolate.borrowProxyController.proxyInitializerRecord[msg.sender] != bytes32(0x0), \"not a registered borrow proxy\");\n    if (bond != 0) require(token.sendToken(keeper, bond), \"failed to return bond to keeper\");\n    if (repay != 0) require(token.sendToken(liquidityToken, repay), \"failed to repay lost funds\");\n    require(LiquidityToken(liquidityToken).resolveLoan(msg.sender), \"loan resolution failure\");\n    return true;\n  }\n}\n",
  "sourcePath": "/home/ray/0confirmation/packages/0confirmation-sol/contracts/ShifterPool.sol",
  "compiler": {
    "name": "solc",
    "version": "0.6.8+commit.0bbfe453.Emscripten.clang"
  },
  "schemaVersion": "3.2.0",
  "updatedAt": "2020-05-24T20:54:40.427Z",
  "devdoc": {
    "methods": {
      "owner()": {
        "details": "Returns the address of the current owner."
      },
      "renounceOwnership()": {
        "details": "Leaves the contract without owner. It will not be possible to call `onlyOwner` functions anymore. Can only be called by the current owner.     * NOTE: Renouncing ownership will leave the contract without an owner, thereby removing any functionality that is only available to the owner."
      },
      "transferOwnership(address)": {
        "details": "Transfers ownership of the contract to a new account (`newOwner`). Can only be called by the current owner."
      }
    }
  },
  "userdoc": {
    "methods": {}
  }
}