{
  "contractName": "ShifterPool",
  "abi": [
    {
      "inputs": [
        {
          "internalType": "address",
          "name": "shifterRegistry",
          "type": "address"
        },
        {
          "internalType": "uint256",
          "name": "poolFee",
          "type": "uint256"
        },
        {
          "components": [
            {
              "internalType": "address",
              "name": "target",
              "type": "address"
            },
            {
              "internalType": "bytes4[]",
              "name": "sigs",
              "type": "bytes4[]"
            },
            {
              "components": [
                {
                  "internalType": "address",
                  "name": "assetHandler",
                  "type": "address"
                },
                {
                  "internalType": "address",
                  "name": "liquidationModule",
                  "type": "address"
                }
              ],
              "internalType": "struct BorrowProxyLib.Module",
              "name": "module",
              "type": "tuple"
            }
          ],
          "internalType": "struct BorrowProxyLib.ModuleRegistration[]",
          "name": "modulesByCode",
          "type": "tuple[]"
        },
        {
          "components": [
            {
              "internalType": "address",
              "name": "target",
              "type": "address"
            },
            {
              "internalType": "bytes4[]",
              "name": "sigs",
              "type": "bytes4[]"
            },
            {
              "components": [
                {
                  "internalType": "address",
                  "name": "assetHandler",
                  "type": "address"
                },
                {
                  "internalType": "address",
                  "name": "liquidationModule",
                  "type": "address"
                }
              ],
              "internalType": "struct BorrowProxyLib.Module",
              "name": "module",
              "type": "tuple"
            }
          ],
          "internalType": "struct BorrowProxyLib.ModuleRegistration[]",
          "name": "modulesByAddress",
          "type": "tuple[]"
        },
        {
          "components": [
            {
              "internalType": "address",
              "name": "token",
              "type": "address"
            },
            {
              "internalType": "address",
              "name": "liqToken",
              "type": "address"
            }
          ],
          "internalType": "struct ShifterPoolLib.LiquidityTokenLaunch[]",
          "name": "tokenLaunches",
          "type": "tuple[]"
        }
      ],
      "name": "setup",
      "outputs": [],
      "stateMutability": "nonpayable",
      "type": "function"
    },
    {
      "inputs": [
        {
          "internalType": "address",
          "name": "token",
          "type": "address"
        },
        {
          "components": [
            {
              "internalType": "bytes32",
              "name": "pHash",
              "type": "bytes32"
            },
            {
              "internalType": "uint256",
              "name": "amount",
              "type": "uint256"
            },
            {
              "internalType": "bytes32",
              "name": "nHash",
              "type": "bytes32"
            }
          ],
          "internalType": "struct RenVMShiftMessageLib.RenVMShiftMessage",
          "name": "shiftMessage",
          "type": "tuple"
        },
        {
          "components": [
            {
              "internalType": "uint256",
              "name": "amount",
              "type": "uint256"
            },
            {
              "internalType": "uint256",
              "name": "nonce",
              "type": "uint256"
            },
            {
              "internalType": "uint256",
              "name": "keeperFee",
              "type": "uint256"
            },
            {
              "internalType": "uint256",
              "name": "timeoutExpiry",
              "type": "uint256"
            },
            {
              "internalType": "bytes",
              "name": "signature",
              "type": "bytes"
            }
          ],
          "internalType": "struct ShifterPoolLib.LiquidityProvisionMessage",
          "name": "liquidityProvision",
          "type": "tuple"
        }
      ],
      "name": "borrow",
      "outputs": [],
      "stateMutability": "nonpayable",
      "type": "function"
    },
    {
      "inputs": [
        {
          "internalType": "bytes",
          "name": "proxyRecord",
          "type": "bytes"
        }
      ],
      "name": "validateProxyRecordHandler",
      "outputs": [
        {
          "internalType": "bool",
          "name": "",
          "type": "bool"
        }
      ],
      "stateMutability": "view",
      "type": "function"
    },
    {
      "inputs": [],
      "name": "getProxyOwnerHandler",
      "outputs": [
        {
          "internalType": "address",
          "name": "",
          "type": "address"
        }
      ],
      "stateMutability": "view",
      "type": "function"
    },
    {
      "inputs": [
        {
          "internalType": "address",
          "name": "token",
          "type": "address"
        }
      ],
      "name": "getShifterHandler",
      "outputs": [
        {
          "internalType": "contract IShifter",
          "name": "",
          "type": "address"
        }
      ],
      "stateMutability": "view",
      "type": "function"
    },
    {
      "inputs": [
        {
          "internalType": "address",
          "name": "token",
          "type": "address"
        }
      ],
      "name": "getLiquidityTokenHandler",
      "outputs": [
        {
          "internalType": "contract LiquidityToken",
          "name": "",
          "type": "address"
        }
      ],
      "stateMutability": "view",
      "type": "function"
    },
    {
      "inputs": [
        {
          "internalType": "address",
          "name": "liquidityToken",
          "type": "address"
        }
      ],
      "name": "relayResolveLoan",
      "outputs": [
        {
          "internalType": "bool",
          "name": "",
          "type": "bool"
        }
      ],
      "stateMutability": "nonpayable",
      "type": "function"
    }
  ],
  "bytecode": "0x608060405234801561001057600080fd5b506135f4806100206000396000f3fe60806040523480156200001157600080fd5b5060043610620000885760003560e01c80631fbc78dc11620000635780631fbc78dc1462000119578063798aada0146200014f5780637b3b00be1462000185578063c24f12da14620001a75762000088565b80630290af5d146200008d57806308f6049514620000c357806312d8cc7b14620000f9575b600080fd5b620000ab6004803603620000a5919081019062001aa6565b620001c7565b604051620000ba9190620022ed565b60405180910390f35b620000e16004803603620000db919081019062001c3a565b620002fb565b604051620000f09190620022ed565b60405180910390f35b62000117600480360362000111919081019062001b41565b6200031f565b005b62000137600480360362000131919081019062001aa6565b6200057f565b6040516200014691906200237b565b60405180910390f35b6200016d600480360362000167919081019062001aa6565b6200059e565b6040516200017c919062002398565b60405180910390f35b6200018f620005bd565b6040516200019e919062002286565b60405180910390f35b620001c56004803603620001bf919081019062001ad2565b620005dd565b005b60008060001b600060050160000160003373ffffffffffffffffffffffffffffffffffffffff1673ffffffffffffffffffffffffffffffffffffffff16815260200190815260200160002054141562000257576040517f08c379a00000000000000000000000000000000000000000000000000000000081526004016200024e906200243f565b60405180910390fd5b8173ffffffffffffffffffffffffffffffffffffffff1663c3275c79336040518263ffffffff1660e01b8152600401620002929190620022a3565b602060405180830381600087803b158015620002ad57600080fd5b505af1158015620002c2573d6000803e3d6000fd5b505050506040513d601f19601f82011682018060405250620002e8919081019062001c0e565b620002f257600080fd5b60019050919050565b600062000318338360006005016200096c9092919063ffffffff16565b9050919050565b846000800160006101000a81548173ffffffffffffffffffffffffffffffffffffffff021916908373ffffffffffffffffffffffffffffffffffffffff1602179055508360006001018190555060008090505b83518110156200040c5762000386620013c4565b8482815181106200039357fe5b6020026020010151905060008090505b816020015151811015620003fc57620003ee826000015183602001518581518110620003cb57fe5b602002602001015184604001516000600801620009c2909392919063ffffffff16565b8080600101915050620003a3565b5050808060010191505062000372565b5060008090505b8251811015620004ad5762000427620013c4565b8382815181106200043457fe5b6020026020010151905060008090505b8160200151518110156200049d576200048f8260000151836020015185815181106200046c57fe5b602002602001015184604001516000600801620009c2909392919063ffffffff16565b808060010191505062000444565b5050808060010191505062000413565b5060008090505b81518110156200057757620004c862001403565b828281518110620004d557fe5b60200260200101519050806020015160006004016000836000015173ffffffffffffffffffffffffffffffffffffffff1673ffffffffffffffffffffffffffffffffffffffff16815260200190815260200160002060006101000a81548173ffffffffffffffffffffffffffffffffffffffff021916908373ffffffffffffffffffffffffffffffffffffffff160217905550508080600101915050620004b4565b505050505050565b60006200059782600062000a7a90919063ffffffff16565b9050919050565b6000620005b682600062000b3790919063ffffffff16565b9050919050565b6000620005d833600060050162000c1b90919063ffffffff16565b905090565b6000620005f684338562000c879092919063ffffffff16565b90506000620006058262000ccf565b90506200062081600060050162000db190919063ffffffff16565b1562000663576040517f08c379a00000000000000000000000000000000000000000000000000000000081526004016200065a90620023fb565b60405180910390fd5b6200066d62001449565b6200067762001487565b60405180608001604052808873ffffffffffffffffffffffffffffffffffffffff168152602001866060015181526020018781526020018381525090506000620006cb858762000e0390919063ffffffff16565b9050620006e381600062000e4890919063ffffffff16565b62000725576040517f08c379a00000000000000000000000000000000000000000000000000000000081526004016200071c9062002461565b60405180910390fd5b60006200074087608001518362000e7590919063ffffffff16565b90506040518060800160405280886000015181526020018273ffffffffffffffffffffffffffffffffffffffff168152602001600060010154815260200188604001518152508360600181905250620007a489600062000b3790919063ffffffff16565b73ffffffffffffffffffffffffffffffffffffffff1663185cc75186620007cf866060015162000e8b565b6040518363ffffffff1660e01b8152600401620007ee929190620022c0565b602060405180830381600087803b1580156200080957600080fd5b505af11580156200081e573d6000803e3d6000fd5b505050506040513d601f19601f8201168201806040525062000844919081019062001c0e565b62000886576040517f08c379a00000000000000000000000000000000000000000000000000000000081526004016200087d906200241d565b60405180910390fd5b6200089c82600062000ed590919063ffffffff16565b50606083604051602001620008b29190620024c7565b6040516020818303038152906040529050620008de8682600060050162000f0f9092919063ffffffff16565b620008f98633600060050162000f619092919063ffffffff16565b8573ffffffffffffffffffffffffffffffffffffffff163373ffffffffffffffffffffffffffffffffffffffff167f9ae84ac2ad8f721c2e62d211eca0ae34951726f8834913af6c5ebb81610bb1f88360405162000958919062002357565b60405180910390a350505050505050505050565b600081805190602001208460000160008573ffffffffffffffffffffffffffffffffffffffff1673ffffffffffffffffffffffffffffffffffffffff168152602001908152602001600020541490509392505050565b80846000016000620009d5868662000fe6565b815260200190815260200160002060008201518160000160006101000a81548173ffffffffffffffffffffffffffffffffffffffff021916908373ffffffffffffffffffffffffffffffffffffffff16021790555060208201518160010160006101000a81548173ffffffffffffffffffffffffffffffffffffffff021916908373ffffffffffffffffffffffffffffffffffffffff16021790555090505050505050565b60008260000160009054906101000a900473ffffffffffffffffffffffffffffffffffffffff1673ffffffffffffffffffffffffffffffffffffffff166328c4f410836040518263ffffffff1660e01b815260040162000adb919062002286565b60206040518083038186803b15801562000af457600080fd5b505afa15801562000b09573d6000803e3d6000fd5b505050506040513d601f19601f8201168201806040525062000b2f919081019062001c7f565b905092915050565b6000808360040160008473ffffffffffffffffffffffffffffffffffffffff1673ffffffffffffffffffffffffffffffffffffffff16815260200190815260200160002060009054906101000a900473ffffffffffffffffffffffffffffffffffffffff169050600073ffffffffffffffffffffffffffffffffffffffff168173ffffffffffffffffffffffffffffffffffffffff16141562000c11576040517f08c379a000000000000000000000000000000000000000000000000000000000815260040162000c0890620024a5565b60405180910390fd5b8091505092915050565b60008260010160008373ffffffffffffffffffffffffffffffffffffffff1673ffffffffffffffffffffffffffffffffffffffff16815260200190815260200160002060009054906101000a900473ffffffffffffffffffffffffffffffffffffffff16905092915050565b6000828285600001518660200151876040015160405160200162000cb095949392919062002197565b6040516020818303038152906040528051906020012090509392505050565b6000606060156040519080825280601f01601f19166020018201604052801562000d085781602001600182028036833780820191505090505b50905060606040518060200162000d1f90620014d5565b6020820181038252601f19601f82011660405250905060008151905060ff60f81b8360008151811062000d4e57fe5b60200101907effffffffffffffffffffffffffffffffffffffffffffffffffffffffffffff1916908160001a905350606085835230602084035260ff6021840353603583039050603582018152808051906020012060001c945050505050919050565b60008060001b8360000160008473ffffffffffffffffffffffffffffffffffffffff1673ffffffffffffffffffffffffffffffffffffffff168152602001908152602001600020541415905092915050565b60008260000151836060015184602001518460405160200162000e2a949392919062002230565b60405160208183030381529060405280519060200120905092915050565b600082600301600083815260200190815260200160002060009054906101000a900460ff16905092915050565b600062000e83838362001021565b905092915050565b600062000ece62000eba62000ea08462001117565b62000eab8562001159565b6200119b90919063ffffffff16565b8360000151620011f390919063ffffffff16565b9050919050565b6000600183600301600084815260200190815260200160002060006101000a81548160ff0219169083151502179055506001905092915050565b80805190602001208360000160008473ffffffffffffffffffffffffffffffffffffffff1673ffffffffffffffffffffffffffffffffffffffff16815260200190815260200160002081905550505050565b808360010160008473ffffffffffffffffffffffffffffffffffffffff1673ffffffffffffffffffffffffffffffffffffffff16815260200190815260200160002060006101000a81548173ffffffffffffffffffffffffffffffffffffffff021916908373ffffffffffffffffffffffffffffffffffffffff160217905550505050565b600080833f905080836040516020016200100292919062002200565b6040516020818303038152906040528051906020012091505092915050565b6000604182511462001037576000905062001111565b60008060006020850151925060408501519150606085015160001a90507f7fffffffffffffffffffffffffffffff5d576e7357a4501ddfe92f46681b20a08260001c11156200108d576000935050505062001111565b601b8160ff1614158015620010a65750601c8160ff1614155b15620010b9576000935050505062001111565b60018682858560405160008152602001604052604051620010de94939291906200230a565b6020604051602081039080840390855afa15801562001101573d6000803e3d6000fd5b5050506020604051035193505050505b92915050565b600062001152670de0b6b3a764000062001143846060015185600001516200123f90919063ffffffff16565b620012b590919063ffffffff16565b9050919050565b600062001194670de0b6b3a764000062001185846040015185600001516200123f90919063ffffffff16565b620012b590919063ffffffff16565b9050919050565b600080828401905083811015620011e9576040517f08c379a0000000000000000000000000000000000000000000000000000000008152600401620011e090620023d9565b60405180910390fd5b8091505092915050565b60006200123783836040518060400160405280601e81526020017f536166654d6174683a207375627472616374696f6e206f766572666c6f77000081525062001301565b905092915050565b600080831415620012545760009050620012af565b60008284029050828482816200126657fe5b0414620012aa576040517f08c379a0000000000000000000000000000000000000000000000000000000008152600401620012a19062002483565b60405180910390fd5b809150505b92915050565b6000620012f983836040518060400160405280601a81526020017f536166654d6174683a206469766973696f6e206279207a65726f0000000000008152506200135f565b905092915050565b60008383111582906200134c576040517f08c379a0000000000000000000000000000000000000000000000000000000008152600401620013439190620023b5565b60405180910390fd5b5060008385039050809150509392505050565b60008083118290620013a9576040517f08c379a0000000000000000000000000000000000000000000000000000000008152600401620013a09190620023b5565b60405180910390fd5b506000838581620013b657fe5b049050809150509392505050565b6040518060600160405280600073ffffffffffffffffffffffffffffffffffffffff16815260200160608152602001620013fd620014e3565b81525090565b6040518060400160405280600073ffffffffffffffffffffffffffffffffffffffff168152602001600073ffffffffffffffffffffffffffffffffffffffff1681525090565b604051806080016040528060008152602001600073ffffffffffffffffffffffffffffffffffffffff16815260200160008152602001600081525090565b6040518060800160405280600073ffffffffffffffffffffffffffffffffffffffff16815260200160008152602001620014c062001529565b8152602001620014cf62001550565b81525090565b610d2c806200289383390190565b6040518060400160405280600073ffffffffffffffffffffffffffffffffffffffff168152602001600073ffffffffffffffffffffffffffffffffffffffff1681525090565b60405180606001604052806000801916815260200160008152602001600080191681525090565b604051806080016040528060008152602001600073ffffffffffffffffffffffffffffffffffffffff16815260200160008152602001600081525090565b6000813590506200159f81620027f6565b92915050565b600082601f830112620015b757600080fd5b8135620015ce620015c88262002513565b620024e5565b91508181835260208401935060208101905083856020840282011115620015f457600080fd5b60005b838110156200162857816200160d88826200176a565b845260208401935060208301925050600181019050620015f7565b5050505092915050565b600082601f8301126200164457600080fd5b81356200165b62001655826200253c565b620024e5565b915081818352602084019350602081019050838560408402820111156200168157600080fd5b60005b83811015620016b557816200169a8882620018fe565b84526020840193506040830192505060018101905062001684565b5050505092915050565b600082601f830112620016d157600080fd5b8135620016e8620016e28262002565565b620024e5565b9150818183526020840193506020810190508360005b8381101562001732578135860162001717888262001951565b845260208401935060208301925050600181019050620016fe565b5050505092915050565b6000815190506200174d8162002810565b92915050565b60008135905062001764816200282a565b92915050565b6000813590506200177b8162002844565b92915050565b600082601f8301126200179357600080fd5b8135620017aa620017a4826200258e565b620024e5565b91508082526020830160208301858383011115620017c757600080fd5b620017d48382846200274d565b50505092915050565b600082601f830112620017ef57600080fd5b8135620018066200180082620025bb565b620024e5565b915080825260208301602083018583830111156200182357600080fd5b620018308382846200274d565b50505092915050565b6000815190506200184a816200285e565b92915050565b600060a082840312156200186357600080fd5b6200186f60a0620024e5565b90506000620018818482850162001a8f565b6000830152506020620018978482850162001a8f565b6020830152506040620018ad8482850162001a8f565b6040830152506060620018c38482850162001a8f565b606083015250608082013567ffffffffffffffff811115620018e457600080fd5b620018f28482850162001781565b60808301525092915050565b6000604082840312156200191157600080fd5b6200191d6040620024e5565b905060006200192f848285016200158e565b600083015250602062001945848285016200158e565b60208301525092915050565b6000608082840312156200196457600080fd5b620019706060620024e5565b9050600062001982848285016200158e565b600083015250602082013567ffffffffffffffff811115620019a357600080fd5b620019b184828501620015a5565b6020830152506040620019c784828501620019d3565b60408301525092915050565b600060408284031215620019e657600080fd5b620019f26040620024e5565b9050600062001a04848285016200158e565b600083015250602062001a1a848285016200158e565b60208301525092915050565b60006060828403121562001a3957600080fd5b62001a456060620024e5565b9050600062001a578482850162001753565b600083015250602062001a6d8482850162001a8f565b602083015250604062001a838482850162001753565b60408301525092915050565b60008135905062001aa08162002878565b92915050565b60006020828403121562001ab957600080fd5b600062001ac9848285016200158e565b91505092915050565b600080600060a0848603121562001ae857600080fd5b600062001af8868287016200158e565b935050602062001b0b8682870162001a26565b925050608084013567ffffffffffffffff81111562001b2957600080fd5b62001b378682870162001850565b9150509250925092565b600080600080600060a0868803121562001b5a57600080fd5b600062001b6a888289016200158e565b955050602062001b7d8882890162001a8f565b945050604086013567ffffffffffffffff81111562001b9b57600080fd5b62001ba988828901620016bf565b935050606086013567ffffffffffffffff81111562001bc757600080fd5b62001bd588828901620016bf565b925050608086013567ffffffffffffffff81111562001bf357600080fd5b62001c018882890162001632565b9150509295509295909350565b60006020828403121562001c2157600080fd5b600062001c31848285016200173c565b91505092915050565b60006020828403121562001c4d57600080fd5b600082013567ffffffffffffffff81111562001c6857600080fd5b62001c7684828501620017dd565b91505092915050565b60006020828403121562001c9257600080fd5b600062001ca28482850162001839565b91505092915050565b62001cb681620026c1565b82525050565b62001cc78162002620565b82525050565b62001cd88162002620565b82525050565b62001cf362001ced8262002620565b62002792565b82525050565b62001d048162002634565b82525050565b62001d158162002640565b82525050565b62001d268162002640565b82525050565b62001d4162001d3b8262002640565b620027a6565b82525050565b62001d5c62001d56826200264a565b620027b0565b82525050565b600062001d6f82620025e8565b62001d7b8185620025fe565b935062001d8d8185602086016200275c565b62001d9881620027d8565b840191505092915050565b62001dae81620026d5565b82525050565b62001dbf81620026fd565b82525050565b600062001dd282620025f3565b62001dde81856200260f565b935062001df08185602086016200275c565b62001dfb81620027d8565b840191505092915050565b600062001e15601b836200260f565b91507f536166654d6174683a206164646974696f6e206f766572666c6f7700000000006000830152602082019050919050565b600062001e57601a836200260f565b91507f7368696674206d65737361676520616c726561647920757365640000000000006000830152602082019050919050565b600062001e996024836200260f565b91507f696e73756666696369656e742066756e647320696e206c69717569646974792060008301527f706f6f6c000000000000000000000000000000000000000000000000000000006020830152604082019050919050565b600062001f01601d836200260f565b91507f6e6f742061207265676973746572656420626f72726f772070726f78790000006000830152602082019050919050565b600062001f436028836200260f565b91507f6c69717569646974792070726f766973696f6e206d65737361676520616c726560008301527f61647920757365640000000000000000000000000000000000000000000000006020830152604082019050919050565b600062001fab6021836200260f565b91507f536166654d6174683a206d756c7469706c69636174696f6e206f766572666c6f60008301527f77000000000000000000000000000000000000000000000000000000000000006020830152604082019050919050565b6000620020136020836200260f565b91507f6e6f7420612072656769737465726564206c697175696469747920746f6b656e6000830152602082019050919050565b6080820160008201516200205e600085018262002149565b50602082015162002073602085018262001cbc565b50604082015162002088604085018262002149565b5060608201516200209d606085018262002149565b50505050565b61012082016000820151620020bc600085018262001cbc565b506020820151620020d1602085018262002149565b506040820151620020e6604085018262002101565b506060820151620020fb60a085018262002046565b50505050565b60608201600082015162002119600085018262001d0a565b5060208201516200212e602085018262002149565b50604082015162002143604085018262001d0a565b50505050565b6200215481620026aa565b82525050565b6200216581620026aa565b82525050565b620021806200217a82620026aa565b620027ce565b82525050565b6200219181620026b4565b82525050565b6000620021a5828862001cde565b601482019150620021b7828762001cde565b601482019150620021c9828662001d2c565b602082019150620021db82856200216b565b602082019150620021ed828462001d2c565b6020820191508190509695505050505050565b60006200220e828562001d2c565b60208201915062002220828462001d47565b6004820191508190509392505050565b60006200223e82876200216b565b6020820191506200225082866200216b565b6020820191506200226282856200216b565b60208201915062002274828462001d2c565b60208201915081905095945050505050565b60006020820190506200229d600083018462001ccd565b92915050565b6000602082019050620022ba600083018462001cab565b92915050565b6000604082019050620022d7600083018562001ccd565b620022e660208301846200215a565b9392505050565b600060208201905062002304600083018462001cf9565b92915050565b600060808201905062002321600083018762001d1b565b62002330602083018662002186565b6200233f604083018562001d1b565b6200234e606083018462001d1b565b95945050505050565b6000602082019050818103600083015262002373818462001d62565b905092915050565b600060208201905062002392600083018462001da3565b92915050565b6000602082019050620023af600083018462001db4565b92915050565b60006020820190508181036000830152620023d1818462001dc5565b905092915050565b60006020820190508181036000830152620023f48162001e06565b9050919050565b60006020820190508181036000830152620024168162001e48565b9050919050565b60006020820190508181036000830152620024388162001e8a565b9050919050565b600060208201905081810360008301526200245a8162001ef2565b9050919050565b600060208201905081810360008301526200247c8162001f34565b9050919050565b600060208201905081810360008301526200249e8162001f9c565b9050919050565b60006020820190508181036000830152620024c08162002004565b9050919050565b600061012082019050620024df6000830184620020a3565b92915050565b6000604051905081810181811067ffffffffffffffff821117156200250957600080fd5b8060405250919050565b600067ffffffffffffffff8211156200252b57600080fd5b602082029050602081019050919050565b600067ffffffffffffffff8211156200255457600080fd5b602082029050602081019050919050565b600067ffffffffffffffff8211156200257d57600080fd5b602082029050602081019050919050565b600067ffffffffffffffff821115620025a657600080fd5b601f19601f8301169050602081019050919050565b600067ffffffffffffffff821115620025d357600080fd5b601f19601f8301169050602081019050919050565b600081519050919050565b600081519050919050565b600082825260208201905092915050565b600082825260208201905092915050565b60006200262d826200268a565b9050919050565b60008115159050919050565b6000819050919050565b60007fffffffff0000000000000000000000000000000000000000000000000000000082169050919050565b6000620026838262002620565b9050919050565b600073ffffffffffffffffffffffffffffffffffffffff82169050919050565b6000819050919050565b600060ff82169050919050565b6000620026ce8262002725565b9050919050565b6000620026e282620026e9565b9050919050565b6000620026f6826200268a565b9050919050565b60006200270a8262002711565b9050919050565b60006200271e826200268a565b9050919050565b6000620027328262002739565b9050919050565b600062002746826200268a565b9050919050565b82818337600083830152505050565b60005b838110156200277c5780820151818401526020810190506200275f565b838111156200278c576000848401525b50505050565b60006200279f82620027ba565b9050919050565b6000819050919050565b6000819050919050565b6000620027c782620027e9565b9050919050565b6000819050919050565b6000601f19601f8301169050919050565b60008160601b9050919050565b620028018162002620565b81146200280d57600080fd5b50565b6200281b8162002634565b81146200282757600080fd5b50565b620028358162002640565b81146200284157600080fd5b50565b6200284f816200264a565b81146200285b57600080fd5b50565b620028698162002676565b81146200287557600080fd5b50565b6200288381620026aa565b81146200288f57600080fd5b5056fe608060405234801561001057600080fd5b50336000800160006101000a81548173ffffffffffffffffffffffffffffffffffffffff021916908373ffffffffffffffffffffffffffffffffffffffff1602179055506000800160009054906101000a900473ffffffffffffffffffffffffffffffffffffffff1673ffffffffffffffffffffffffffffffffffffffff16637b3b00be6040518163ffffffff1660e01b8152600401602060405180830381600087803b1580156100c057600080fd5b505af11580156100d4573d6000803e3d6000fd5b505050506040513d601f19601f820116820180604052506100f89190810190610155565b600060010160006101000a81548173ffffffffffffffffffffffffffffffffffffffff021916908373ffffffffffffffffffffffffffffffffffffffff1602179055506101c7565b60008151905061014f816101b0565b92915050565b60006020828403121561016757600080fd5b600061017584828501610140565b91505092915050565b600061018982610190565b9050919050565b600073ffffffffffffffffffffffffffffffffffffffff82169050919050565b6101b98161017e565b81146101c457600080fd5b50565b610b56806101d66000396000f3fe608060405234801561001057600080fd5b506004361061002b5760003560e01c80632692f25a14610030575b600080fd5b61004a60048036036100459190810190610646565b61004c565b005b600060010160009054906101000a900473ffffffffffffffffffffffffffffffffffffffff1673ffffffffffffffffffffffffffffffffffffffff163373ffffffffffffffffffffffffffffffffffffffff16146100df576040517f08c379a00000000000000000000000000000000000000000000000000000000081526004016100d690610932565b60405180910390fd5b6000800160149054906101000a900460ff16156101b357600060608473ffffffffffffffffffffffffffffffffffffffff1684846040516101209190610871565b60006040518083038185875af1925050503d806000811461015d576040519150601f19603f3d011682016040523d82523d6000602084013e610162565b606091505b50915091508181906101aa576040517f08c379a00000000000000000000000000000000000000000000000000000000081526004016101a191906108f0565b60405180910390fd5b50805160208201f35b60006101d46101cf60006004856102dc9092919063ffffffff16565b610314565b60001c60e01b90506101e461047e565b600073__BorrowProxyLib________________________632f1a48af909187856040518463ffffffff1660e01b815260040161022293929190610952565b60606040518083038186803b15801561023a57600080fd5b505af415801561024e573d6000803e3d6000fd5b505050506040513d601f19601f8201168201806040525061027291908101906106ad565b90506102818160200151610343565b6102c0576040517f08c379a00000000000000000000000000000000000000000000000000000000081526004016102b790610912565b60405180910390fd5b6102d58385836103809092919063ffffffff16565b5050505050565b6102e46104b4565b60006020850184019050808260000181815250508282602001818152505083826040018181525050509392505050565b60008082600001519050600083602001519050600180600883021b038082602003840351169350505050919050565b60008073ffffffffffffffffffffffffffffffffffffffff16826000015173ffffffffffffffffffffffffffffffffffffffff1614159050919050565b6000606084602001516000015173ffffffffffffffffffffffffffffffffffffffff1685602001516000015186602001516020015132886000015187896040516020016103d296959493929190610888565b6040516020818303038152906040526040516103ee9190610871565b600060405180830381855af49150503d8060008114610429576040519150601f19603f3d011682016040523d82523d6000602084013e61042e565b606091505b5091509150818190610476576040517f08c379a000000000000000000000000000000000000000000000000000000000815260040161046d91906108f0565b60405180910390fd5b505050505050565b6040518060400160405280600073ffffffffffffffffffffffffffffffffffffffff1681526020016104ae6104d5565b81525090565b60405180606001604052806000815260200160008152602001600081525090565b6040518060400160405280600073ffffffffffffffffffffffffffffffffffffffff168152602001600073ffffffffffffffffffffffffffffffffffffffff1681525090565b60008135905061052a81610af2565b92915050565b60008151905061053f81610af2565b92915050565b600082601f83011261055657600080fd5b8135610569610564826109b6565b610989565b9150808252602083016020830185838301111561058557600080fd5b610590838284610a9f565b50505092915050565b6000606082840312156105ab57600080fd5b6105b56040610989565b905060006105c584828501610530565b60008301525060206105d9848285016105e5565b60208301525092915050565b6000604082840312156105f757600080fd5b6106016040610989565b9050600061061184828501610530565b600083015250602061062584828501610530565b60208301525092915050565b60008135905061064081610b09565b92915050565b60008060006060848603121561065b57600080fd5b60006106698682870161051b565b935050602061067a86828701610631565b925050604084013567ffffffffffffffff81111561069757600080fd5b6106a386828701610545565b9150509250925092565b6000606082840312156106bf57600080fd5b60006106cd84828501610599565b91505092915050565b6106df81610a37565b82525050565b6106ee81610a25565b82525050565b6106fd81610a25565b82525050565b61070c81610a49565b82525050565b600061071d826109e2565b61072781856109f8565b9350610737818560208601610aae565b61074081610ae1565b840191505092915050565b6000610756826109e2565b6107608185610a09565b9350610770818560208601610aae565b80840191505092915050565b6000610787826109ed565b6107918185610a14565b93506107a1818560208601610aae565b6107aa81610ae1565b840191505092915050565b60006107c2601f83610a14565b91507f66756e6374696f6e2068616e646c6572206e6f742072656769737465726564006000830152602082019050919050565b6000610802602983610a14565b91507f626f72726f772070726f78792063616e206f6e6c79206265207573656420627960008301527f20626f72726f77657200000000000000000000000000000000000000000000006020830152604082019050919050565b8082525050565b61086b81610a95565b82525050565b600061087d828461074b565b915081905092915050565b600060c08201905061089d60008301896106e5565b6108aa60208301886106e5565b6108b760408301876106d6565b6108c460608301866106e5565b6108d16080830185610862565b81810360a08301526108e38184610712565b9050979650505050505050565b6000602082019050818103600083015261090a818461077c565b905092915050565b6000602082019050818103600083015261092b816107b5565b9050919050565b6000602082019050818103600083015261094b816107f5565b9050919050565b6000606082019050610967600083018661085b565b61097460208301856106f4565b6109816040830184610703565b949350505050565b6000604051905081810181811067ffffffffffffffff821117156109ac57600080fd5b8060405250919050565b600067ffffffffffffffff8211156109cd57600080fd5b601f19601f8301169050602081019050919050565b600081519050919050565b600081519050919050565b600082825260208201905092915050565b600081905092915050565b600082825260208201905092915050565b6000610a3082610a75565b9050919050565b6000610a4282610a75565b9050919050565b60007fffffffff0000000000000000000000000000000000000000000000000000000082169050919050565b600073ffffffffffffffffffffffffffffffffffffffff82169050919050565b6000819050919050565b82818337600083830152505050565b60005b83811015610acc578082015181840152602081019050610ab1565b83811115610adb576000848401525b50505050565b6000601f19601f8301169050919050565b610afb81610a25565b8114610b0657600080fd5b50565b610b1281610a95565b8114610b1d57600080fd5b5056fea26469706673582212208bc798cb3daa03eb223594b35e272090608669fe5cad5f7fb6a98ac5cdc35ab064736f6c63430006030033a2646970667358221220a5550d100a94c48112e3a668eebb877c1c92f6c7db8556da7e114dbf6719982d64736f6c63430006030033",
  "source": "pragma solidity ^0.6.2;\npragma experimental ABIEncoderV2;\n\nimport { Ownable } from \"openzeppelin-solidity/contracts/ownership/Ownable.sol\";\nimport { IShifterRegistry } from \"./interfaces/IShifterRegistry.sol\";\nimport { IShifter } from \"./interfaces/IShifter.sol\";\nimport { ShifterPoolLib } from \"./ShifterPoolLib.sol\";\nimport { ShifterBorrowProxyLib } from \"./ShifterBorrowProxyLib.sol\";\nimport { RenVMShiftMessageLib } from \"./RenVMShiftMessageLib.sol\";\nimport { BorrowProxy } from \"./BorrowProxy.sol\";\nimport { BorrowProxyLib } from \"./BorrowProxyLib.sol\";\nimport { TokenUtils } from \"./utils/TokenUtils.sol\";\nimport { LiquidityToken } from \"./LiquidityToken.sol\";\n\ncontract ShifterPool {\n  using ShifterPoolLib for *;\n  using TokenUtils for *;\n  using ShifterBorrowProxyLib for *;\n  using BorrowProxyLib for *;\n  using RenVMShiftMessageLib for *;\n  ShifterPoolLib.Isolate isolate;\n  function setup(address shifterRegistry, uint256 poolFee, BorrowProxyLib.ModuleRegistration[] memory modulesByCode, BorrowProxyLib.ModuleRegistration[] memory modulesByAddress, ShifterPoolLib.LiquidityTokenLaunch[] memory tokenLaunches) public {\n    isolate.shifterRegistry = shifterRegistry;\n    isolate.poolFee = poolFee;\n    for (uint256 i = 0; i < modulesByCode.length; i++) {\n      BorrowProxyLib.ModuleRegistration memory registration = modulesByCode[i];\n      for (uint256 j = 0; j < registration.sigs.length; j++) {\n        isolate.registry.registerModuleByCodeHash(registration.target, registration.sigs[i], registration.module);\n      }\n    }\n    for (uint256 i = 0; i < modulesByAddress.length; i++) {\n      BorrowProxyLib.ModuleRegistration memory registration = modulesByAddress[i];\n      for (uint256 j = 0; j < registration.sigs.length; j++) {\n        isolate.registry.registerModuleByCodeHash(registration.target, registration.sigs[i], registration.module);\n      }\n    }\n    for (uint256 i = 0; i < tokenLaunches.length; i++) {\n      ShifterPoolLib.LiquidityTokenLaunch memory launch = tokenLaunches[i];\n      isolate.tokenToLiquidityToken[launch.token] = launch.liqToken;\n    }\n  }\n  function borrow(address token, RenVMShiftMessageLib.RenVMShiftMessage memory shiftMessage, ShifterPoolLib.LiquidityProvisionMessage memory liquidityProvision) public {\n    bytes32 borrowerSalt = shiftMessage.computeBorrowerSalt(token, msg.sender);\n    address proxyAddress = borrowerSalt.deriveBorrowerAddress();\n    require(!isolate.borrowProxyController.isInitialized(proxyAddress), \"shift message already used\");\n    ShifterBorrowProxyLib.LenderRecord memory loan;\n    ShifterBorrowProxyLib.ProxyRecord memory proxyRecord = ShifterBorrowProxyLib.ProxyRecord({\n      token: token,\n      timeoutExpiry: liquidityProvision.timeoutExpiry,\n      message: shiftMessage,\n      loan: loan\n    });\n    bytes32 provisionHash = liquidityProvision.deriveProvisionHash(borrowerSalt);\n    require(isolate.provisionHashAlreadyUsed(provisionHash), \"liquidity provision message already used\");\n    address keeper = provisionHash.recoverAddressFromHash(liquidityProvision.signature);\n    proxyRecord.loan = ShifterBorrowProxyLib.LenderRecord({\n      keeper: keeper,\n      amount: liquidityProvision.amount,\n      keeperFee: liquidityProvision.keeperFee,\n      poolFee: isolate.poolFee\n    });\n    require(LiquidityToken(isolate.getLiquidityToken(token)).loan(proxyAddress, proxyRecord.loan.computePostFee()), \"insufficient funds in liquidity pool\");\n    isolate.preventProvisionReplay(provisionHash);\n    bytes memory data = abi.encode(proxyRecord);\n    isolate.borrowProxyController.mapProxyRecord(proxyAddress, data);\n    isolate.borrowProxyController.setProxyOwner(proxyAddress, msg.sender);\n    emit BorrowProxyLib.BorrowProxyMade(msg.sender, proxyAddress, data);\n  }\n  function validateProxyRecordHandler(bytes memory proxyRecord) public view returns (bool) {\n    return isolate.borrowProxyController.validateProxyRecord(msg.sender, proxyRecord);\n  }\n  function getProxyOwnerHandler() public view returns (address) {\n    return isolate.borrowProxyController.getProxyOwner(msg.sender);\n  }\n  function getShifterHandler(address token) public view returns (IShifter) {\n    return isolate.getShifter(token);\n  }\n  function getLiquidityTokenHandler(address token) public view returns (LiquidityToken) {\n    return LiquidityToken(isolate.getLiquidityToken(token));\n  }\n  function relayResolveLoan(address liquidityToken) public returns (bool) {\n    require(isolate.borrowProxyController.proxyInitializerRecord[msg.sender] != bytes32(0x0), \"not a registered borrow proxy\");\n    require(LiquidityToken(liquidityToken).resolveLoan(msg.sender));\n    return true;\n  }\n}\n",
  "sourcePath": "/home/ray/0confirmation-mono/packages/0confirmation-sol/contracts/ShifterPool.sol",
  "compiler": {
    "name": "solc",
    "version": "0.6.3+commit.8dda9521.Linux.g++"
  },
  "schemaVersion": "3.0.23",
  "updatedAt": "2020-03-03T01:21:52.880Z",
  "devdoc": {
    "methods": {}
  },
  "userdoc": {
    "methods": {}
  }
}