{
  "contractName": "ShifterBorrowProxy",
  "abi": [
    {
      "stateMutability": "payable",
      "type": "fallback"
    },
    {
      "inputs": [
        {
          "internalType": "bytes",
          "name": "creationCode",
          "type": "bytes"
        },
        {
          "internalType": "bytes",
          "name": "context",
          "type": "bytes"
        }
      ],
      "name": "_executeSafeView",
      "outputs": [],
      "stateMutability": "nonpayable",
      "type": "function"
    },
    {
      "inputs": [
        {
          "internalType": "bytes",
          "name": "consData",
          "type": "bytes"
        }
      ],
      "name": "cloneConstructor",
      "outputs": [],
      "stateMutability": "nonpayable",
      "type": "function"
    },
    {
      "inputs": [
        {
          "internalType": "address",
          "name": "to",
          "type": "address"
        },
        {
          "internalType": "uint256",
          "name": "value",
          "type": "uint256"
        },
        {
          "internalType": "bytes",
          "name": "payload",
          "type": "bytes"
        }
      ],
      "name": "proxy",
      "outputs": [],
      "stateMutability": "nonpayable",
      "type": "function"
    },
    {
      "inputs": [
        {
          "internalType": "bytes",
          "name": "creationCode",
          "type": "bytes"
        },
        {
          "internalType": "bytes",
          "name": "context",
          "type": "bytes"
        }
      ],
      "name": "query",
      "outputs": [
        {
          "components": [
            {
              "internalType": "bool",
              "name": "success",
              "type": "bool"
            },
            {
              "internalType": "bytes",
              "name": "data",
              "type": "bytes"
            }
          ],
          "internalType": "struct SafeViewLib.SafeViewResult",
          "name": "",
          "type": "tuple"
        }
      ],
      "stateMutability": "nonpayable",
      "type": "function"
    },
    {
      "inputs": [
        {
          "internalType": "address",
          "name": "owner",
          "type": "address"
        },
        {
          "internalType": "address",
          "name": "token",
          "type": "address"
        },
        {
          "internalType": "bool",
          "name": "unbound",
          "type": "bool"
        }
      ],
      "name": "setup",
      "outputs": [
        {
          "internalType": "bool",
          "name": "",
          "type": "bool"
        }
      ],
      "stateMutability": "nonpayable",
      "type": "function"
    },
    {
      "stateMutability": "payable",
      "type": "receive"
    },
    {
      "inputs": [
        {
          "internalType": "bytes",
          "name": "data",
          "type": "bytes"
        }
      ],
      "name": "repayLoan",
      "outputs": [
        {
          "internalType": "bool",
          "name": "",
          "type": "bool"
        }
      ],
      "stateMutability": "nonpayable",
      "type": "function"
    },
    {
      "inputs": [
        {
          "components": [
            {
              "internalType": "address",
              "name": "to",
              "type": "address"
            },
            {
              "internalType": "bytes",
              "name": "txData",
              "type": "bytes"
            }
          ],
          "internalType": "struct ShifterBorrowProxyLib.InitializationAction[]",
          "name": "actions",
          "type": "tuple[]"
        }
      ],
      "name": "receiveInitializationActions",
      "outputs": [],
      "stateMutability": "nonpayable",
      "type": "function"
    }
  ],
  "bytecode": "0x608060405234801561001057600080fd5b50612d9b806100206000396000f3fe6080604052600436106100745760003560e01c806352e831dd1161004e57806352e831dd146101005780635f7d2b57146101205780635fe7595814610140578063c4ddf363146101605761007b565b80632692f25a1461007d57806329c8702d1461009d57806334686eaf146100d35761007b565b3661007b57005b005b34801561008957600080fd5b5061007b610098366004612151565b610180565b3480156100a957600080fd5b506100bd6100b8366004612107565b6103a6565b6040516100ca919061275c565b60405180910390f35b3480156100df57600080fd5b506100f36100ee3660046122f9565b61042a565b6040516100ca9190612c48565b34801561010c57600080fd5b5061007b61011b3660046122c7565b61044b565b34801561012c57600080fd5b5061007b61013b3660046122f9565b61044e565b34801561014c57600080fd5b5061007b61015b3660046121a7565b610499565b34801561016c57600080fd5b506100bd61017b3660046122c7565b6104d0565b6001546001600160a01b03163314806101a357506000546001600160a01b031633145b806101ad57503330145b6101d25760405162461bcd60e51b81526004016101c99061292a565b60405180910390fd5b60006101ee6101e98383600463ffffffff61053716565b610560565b60e01b90506101fb611c81565b61020d6000868463ffffffff61057d16565b6002546001600160a01b03166020820152600054909150600160a01b900460ff16801561023d5750604081015151155b156102e05760006060866001600160a01b0316868660405161025f919061268f565b60006040518083038185875af1925050503d806000811461029c576040519150601f19603f3d011682016040523d82523d6000602084013e6102a1565b606091505b5091509150816102cd576102b481610630565b60405162461bcd60e51b81526004016101c99190612796565b6102d78282610723565b505050506103a1565b6102ed8160400151610738565b6103095760405162461bcd60e51b81526004016101c990612861565b6000606061031e83868863ffffffff61074a16565b9150915081610330576102b481610630565b60408084015101516001600160a01b0316156103605760408084015101516103609060079063ffffffff61085a16565b6040830151606001516001600160a01b031615610392576040830151606001516103929060099063ffffffff61085a16565b61039c8282610723565b505050505b505050565b6001546000906001600160a01b0316156103d25760405162461bcd60e51b81526004016101c990612803565b5060008054600180546001600160a01b039687166001600160a01b0319918216178255931515600160a01b0260ff60a01b19928516331792909216919091179091556002805493909416929091169190911790915590565b610432611ca5565b610442838363ffffffff6108b516565b90505b92915050565b50565b6000610463600061045d610926565b8561094a565b905060606104886104836001600160a01b0384168563ffffffff6109bc16565b610a46565b905061049381610a6f565b50505050565b6000546001600160a01b031633146104c35760405162461bcd60e51b81526004016101c9906128f5565b6104cc81610a77565b5050565b6000806104db611cbd565b60006104e685610d01565b92509250925061050483838385602001516020015160200151610f97565b15610522578151516105169083611080565b60019350505050610532565b60009350505050610532565b5050505b919050565b61053f611cdd565b61054984846110c5565b815260208101919091526040810191909152919050565b805160208201516000919061057582826110cc565b949350505050565b610585611c81565b604080516060810182526001600160a01b03808616825260028701548116602083015286548351630220891b60e51b815292938401929116906344112360906105d490889088906004016126f3565b608060405180830381600087803b1580156105ee57600080fd5b505af1158015610602573d6000803e3d6000fd5b505050506040513d601f19601f8201168201806040525081019061062691906123a7565b9052949350505050565b6060815160001415610676575060408051808201909152601c81527f636170747572656420656d7074792072657665727420627566666572000000006020820152610532565b6308c379a061068b6101e98460006004610537565b63ffffffff16146106b6576040518060600160405280603f8152602001612d27603f91399050610532565b60606106d16106cc84600463ffffffff6110e916565b61110d565b905080516000141561071857505060408051808201909152601d81527f636170747572656420656d70747920726576657274206d6573736167650000006020820152610532565b606061057582611174565b8161073057805181602001fd5b805181602001f35b602001516001600160a01b0316151590565b60006060600060608660400151602001516001600160a01b03165a6107fd6040518061010001604052808b60400151602001516001600160a01b031681526020018b60400151604001516001600160a01b031681526020018b60400151606001516001600160a01b031681526020018b602001516001600160a01b03168152602001326001600160a01b031681526020018b600001516001600160a01b031681526020018981526020018a81525061118a565b60405161080a919061268f565b6000604051808303818686f4925050503d8060008114610846576040519150601f19603f3d011682016040523d82523d6000602084013e61084b565b606091505b50909890975095505050505050565b6001600160a01b03811660009081526020839052604090205460ff1615610880576104cc565b6001808301805491820181556000908152602090200180546001600160a01b0383166001600160a01b03199091161790555050565b6108bd611ca5565b6060306108ca85856111dd565b6040516108d7919061268f565b6000604051808303816000865af19150503d8060008114610914576040519150601f19603f3d011682016040523d82523d6000602084013e610919565b606091505b5091505061057581611233565b7fad53495153c7c363e98a26920ec679e0e687636458f6908c91cf6deadb19080190565b6000808447101561096d5760405162461bcd60e51b81526004016101c990612a59565b825161098b5760405162461bcd60e51b81526004016101c9906127ce565b8383516020850187f590506001600160a01b0381166105755760405162461bcd60e51b81526004016101c990612973565b6109c4611ca5565b60006060846001600160a01b03166109db8561124f565b6040516109e8919061268f565b600060405180830381855af49150503d8060008114610a23576040519150601f19603f3d011682016040523d82523d6000602084013e610a28565b606091505b50604080518082019091529115158252602082015295945050505050565b606081604051602001610a599190612c48565b6040516020818303038152906040529050919050565b805160208201fd5b6060610a81611ca5565b610a8a8361126a565b905060005b8351811015610cec57606082602001518281518110610aaa57fe5b6020026020010151905060006001600160a01b031681600081518110610acc57fe5b6020026020010151600001516001600160a01b03161415610bf157610b0881600081518110610af757fe5b6020026020010151602001516113d2565b6001600160a01b03168352610b1b611ca5565b610b3e82600081518110610b2b57fe5b6020026020010151602001518486611408565b604080516000808252602082019092529192505082600081518110610b5f57fe5b6020908102919091018101510152805115610b9f57610b8f846020015184610b8a8460200151611495565b6114ab565b610b9a575050610cec565b610bef565b806020015182600081518110610bb157fe5b602002602001015160600181905250806000015182600081518110610bd257fe5b602002602001015160400190151590811515815250505050610ce4565b505b82602001518281518110610c0157fe5b6020026020010151905060008090505b8151811015610ce15760006060306001600160a01b0316610c44858581518110610c3757fe5b60200260200101516115aa565b604051610c51919061268f565b6000604051808303816000865af19150503d8060008114610c8e576040519150601f19603f3d011682016040523d82523d6000602084013e610c93565b606091505b509150915081848481518110610ca557fe5b6020026020010151604001901515908115158152505080848481518110610cc857fe5b6020908102919091010151606001525050600101610c11565b50505b600101610a8f565b50610cfa81602001516115d0565b9392505050565b6000610d0b611cbd565b6000610d15611cfe565b610d1e856116d4565b80516040805160008082526020820190925291955091925090610d57565b610d44611ca5565b815260200190600190039081610d3c5790505b5081515160a001528051610d7390610d6e906116f0565b611703565b610d8f5760405162461bcd60e51b81526004016101c9906128c7565b600654610100900460ff1615610db75760405162461bcd60e51b81526004016101c9906129eb565b8051805160600151600091610dd19163ffffffff61178616565b60008054845151602001516001600160a01b03909116955091925090610df89085906117bf565b60065490915060009060ff16610e6a576006805460ff19166001179055610e1e8461183e565b600381905584515160200151909150610e49906001600160a01b03168385840363ffffffff6118f816565b610e655760405162461bcd60e51b81526004016101c990612898565b610e6f565b506003545b600a80546040805160208084028201810190925282815260609390929091830182828015610ec657602002820191906000526020600020905b81546001600160a01b03168152600190910190602001808311610ea8575b50506005549394505050505b8151811015610f2d576207a1205a1080610f0e5750610f0c828281518110610ef657fe5b60200260200101516001600160a01b031661196a565b155b15610f25576005555060009650610f909350505050565b600101610ed2565b506000805460ff60a01b1916600160a01b17905584516020808201515191510151610f6a916001600160a01b03909116908663ffffffff6118f816565b610f865760405162461bcd60e51b81526004016101c990612833565b6001975050505050505b9193909250565b60008415611075576000610fb3848660000151602001516117bf565b855160209081015181880151805190830151909201516040516320061d3b60e21b81529394506001600160a01b0388169363801874ec93610ffd93928792818b03906004016126bf565b602060405180830381600087803b15801561101757600080fd5b505af115801561102b573d6000803e3d6000fd5b505050506040513d601f19601f8201168201806040525081019061104f91906122ab565b61106b5760405162461bcd60e51b81526004016101c990612a22565b6001915050610575565b506000949350505050565b816001600160a01b03167fde947e8b6051ad11f984637f1fd1be5fc4b62225fcbf933475f7783ac5e2bd5f826040516110b99190612ba0565b60405180910390a25050565b0160200190565b6000600180600884021b0380836020038503511691505092915050565b6110f1611cdd565b81835110156110ff57825191505b610442838384865103610537565b6020810151606090806001600160401b038111801561112b57600080fd5b506040519080825280601f01601f191660200182016040528015611156576020820181803683370190505b5083519092506000611167846119eb565b905061052e8183856119f1565b6060818060200190518101906104459190612375565b6060633c52e5a160e01b826040516024016111a59190612a90565b60408051601f198184030181529190526020810180516001600160e01b03166001600160e01b03199093169290921790915292915050565b6060635f7d2b5760e01b83836040516024016111fa9291906127a9565b60408051601f198184030181529190526020810180516001600160e01b03166001600160e01b0319909316929092179091529392505050565b61123b611ca5565b81806020019051810190610445919061240f565b60606309c5eabe60e01b826040516024016111a59190612796565b611272611ca5565b606082516001600160401b038111801561128b57600080fd5b506040519080825280602002602001820160405280156112bf57816020015b60608152602001906001900390816112aa5790505b50905060005b83518110156113b55760408051600180825281830190925290816020015b6112eb611d1e565b8152602001906001900390816112e35790505082828151811061130a57fe5b602002602001018190525083818151811061132157fe5b60200260200101516000015182828151811061133957fe5b602002602001015160008151811061134d57fe5b60209081029190910101516001600160a01b039091169052835184908290811061137357fe5b60200260200101516020015182828151811061138b57fe5b602002602001015160008151811061139f57fe5b60209081029190910181015101526001016112c5565b506040805180820190915260008152602081019190915292915050565b60006104457fad53495153c7c363e98a26920ec679e0e687636458f6908c91cf6deadb19080160001b8380519060200120611a2f565b611410611ca5565b611418611d44565b82516001600160a01b0316602082015283156114735760608360200151858151811061144057fe5b602002602001015190508051600014611471578060018251038151811061146357fe5b602090810291909101015182525b505b61148c61147f82611a3c565b869063ffffffff6108b516565b95945050505050565b6060818060200190518101906104459190612279565b6000606082516001600160401b03811180156114c657600080fd5b5060405190808252806020026020018201604052801561150057816020015b6114ed611d1e565b8152602001906001900390816114e55790505b50905060005b81518110156115865783818151811061151b57fe5b60200260200101516020015182828151811061153357fe5b60200260200101516020018190525083818151811061154e57fe5b60200260200101516000015182828151811061156657fe5b60209081029190910101516001600160a01b039091169052600101611506565b508085858151811061159457fe5b6020908102919091010152511515949350505050565b80516020820151604051606092631349792d60e11b926111a59260009190602401612716565b60606000805b8351811015611605578381815181106115eb57fe5b6020026020010151518201915080806001019150506115d6565b50806001600160401b038111801561161c57600080fd5b5060405190808252806020026020018201604052801561165657816020015b611643611d1e565b81526020019060019003908161163b5790505b5091506000805b845181101561052e5760005b85828151811061167557fe5b6020026020010151518110156116cb5785828151811061169157fe5b602002602001015181815181106116a457fe5b60200260200101518584815181106116b857fe5b6020908102919091010152600101611669565b5060010161165d565b6116dc611cfe565b81806020019051810190610445919061248e565b606081604051602001610a599190612ba0565b600080546040516308f6049560e01b81526001600160a01b03909116906308f6049590611734908590600401612796565b602060405180830381600087803b15801561174e57600080fd5b505af1158015611762573d6000803e3d6000fd5b505050506040513d601f19601f8201168201806040525081019061044591906122ab565b6000610442670de0b6b3a76400006117b38560200151602001516060015185611a4f90919063ffffffff16565b9063ffffffff611a8916565b6040516303cc556d60e51b81526000906001600160a01b0384169063798aada0906117ee9085906004016126ab565b60206040518083038186803b15801561180657600080fd5b505afa15801561181a573d6000803e3d6000fd5b505050506040513d601f19601f820116820180604052508101906104429190612359565b8051516020015160009061185190611acb565b6001600160a01b031663159ab14d8360200151604001518460000151600001516060015161187e86611b4c565b8660200151606001516040518563ffffffff1660e01b81526004016118a69493929190612767565b602060405180830381600087803b1580156118c057600080fd5b505af11580156118d4573d6000803e3d6000fd5b505050506040513d601f19601f820116820180604052508101906104459190612550565b600080846001600160a01b031661190f8585611b65565b60405161191c919061268f565b6000604051808303816000865af19150503d8060008114611959576040519150601f19603f3d011682016040523d82523d6000602084013e61195e565b606091505b50909695505050505050565b6000806060836001600160a01b031661198285611b82565b60405161198f919061268f565b600060405180830381855af49150503d80600081146119ca576040519150601f19603f3d011682016040523d82523d6000602084013e6119cf565b606091505b5091509150816119e2576102b481610630565b61057581611bc5565b60200190565b5b60208110611a11578151835260209283019290910190601f19016119f2565b600180600883602003021b0380845116811984511617845250505050565b6000610442838330611bdb565b606081604051602001610a599190612b25565b600082611a5e57506000610445565b82820282848281611a6b57fe5b04146104425760405162461bcd60e51b81526004016101c9906129aa565b600061044283836040518060400160405280601a81526020017f536166654d6174683a206469766973696f6e206279207a65726f000000000000815250611c23565b600080546040516307ef1e3760e21b81526001600160a01b0390911690631fbc78dc90611afc9085906004016126ab565b60206040518083038186803b158015611b1457600080fd5b505afa158015611b28573d6000803e3d6000fd5b505050506040513d601f19601f820116820180604052508101906104459190612359565b6000611b5782611c5a565b805190602001209050919050565b606063a9059cbb60e01b83836040516024016111fa929190612743565b606081604051602401611b9591906126ab565b60408051601f198184030181529190526020810180516001600160e01b0316639f7c73e960e01b17905292915050565b60008180602001905181019061044591906122ab565b60008060ff60f81b838686604051602001611bf99493929190612640565b60408051808303601f1901815291905280516020909101206001600160a01b031695945050505050565b60008183611c445760405162461bcd60e51b81526004016101c99190612796565b506000838581611c5057fe5b0495945050505050565b8051516040908101516020808401518051908201519351606094610a599493909101612679565b6040805160608101825260008082526020820152908101611ca0611d64565b905290565b60408051808201909152600081526060602082015290565b6040518060400160405280611cd0611d8b565b8152602001611ca0611dc2565b60405180606001604052806000815260200160008152602001600081525090565b6040518060400160405280611d11611cbd565b8152602001611ca0611de5565b604080516080810182526000808252606060208301819052928201528181019190915290565b6040518060400160405280611d57611d1e565b8152600060209091015290565b60408051608081018252600080825260208201819052918101829052606081019190915290565b6040805160c0810182526000808252602082018190529181018290526060808201839052608082019290925260a081019190915290565b604051806040016040528060006001600160a01b03168152602001611ca0611e0b565b604080516080810182526000808252602082018190529181019190915260608082015290565b6040518060800160405280600081526020016000815260200160008152602001600081525090565b803561044581612d03565b600082601f830112611e4e578081fd5b8151611e61611e5c82612c95565b612c6f565b818152915060208083019084810160005b84811015611eea5781518701604080601f19838c03011215611e9357600080fd5b611e9c81612c6f565b85830151611ea981612d03565b8152828201516001600160401b03811115611ec357600080fd5b611ed18c8883870101611f43565b8288015250865250509282019290820190600101611e72565b505050505092915050565b600082601f830112611f05578081fd5b8135611f13611e5c82612cb4565b9150808252836020828501011115611f2a57600080fd5b8060208401602084013760009082016020015292915050565b600082601f830112611f53578081fd5b8151611f61611e5c82612cb4565b9150808252836020828501011115611f7857600080fd5b611f89816020840160208601612cd7565b5092915050565b600081830360a0811215611fa2578182fd5b611fac6040612c6f565b91508251611fb981612d03565b82526080601f1982011215611fcd57600080fd5b50611fd86080612c6f565b602083015181526040830151602082015260608301516040820152608083015160608201528060208301525092915050565b600060c0828403121561201b578081fd5b61202560c0612c6f565b9050815161203281612d03565b8152602082015161204281612d03565b806020830152506040820151604082015260608201516060820152608082015161206b81612d18565b608082015260a08201516001600160401b0381111561208957600080fd5b61209584828501611e3e565b60a08301525092915050565b6000608082840312156120b2578081fd5b6120bc6080612c6f565b905081518152602082015160208201526040820151604082015260608201516001600160401b038111156120ef57600080fd5b6120fb84828501611f43565b60608301525092915050565b60008060006060848603121561211b578283fd5b833561212681612d03565b9250602084013561213681612d03565b9150604084013561214681612d18565b809150509250925092565b600080600060608486031215612165578081fd5b833561217081612d03565b92506020840135915060408401356001600160401b03811115612191578182fd5b61219d86828701611ef5565b9150509250925092565b600060208083850312156121b9578182fd5b82356001600160401b03808211156121cf578384fd5b81850186601f8201126121e0578485fd5b803592506121f0611e5c84612c95565b83815284810190828601875b8681101561226a5781358501604080601f19838f0301121561221c578a8bfd5b61222581612c6f565b6122318e8c8501611e33565b81528183013589811115612243578c8dfd5b6122518f8d83870101611ef5565b828d0152508652505092870192908701906001016121fc565b50909998505050505050505050565b60006020828403121561228a578081fd5b81516001600160401b0381111561229f578182fd5b61057584828501611e3e565b6000602082840312156122bc578081fd5b815161044281612d18565b6000602082840312156122d8578081fd5b81356001600160401b038111156122ed578182fd5b61057584828501611ef5565b6000806040838503121561230b578182fd5b82356001600160401b0380821115612321578384fd5b61232d86838701611ef5565b93506020850135915080821115612342578283fd5b5061234f85828601611ef5565b9150509250929050565b60006020828403121561236a578081fd5b815161044281612d03565b600060208284031215612386578081fd5b81516001600160401b0381111561239b578182fd5b61057584828501611f43565b6000608082840312156123b8578081fd5b6123c26080612c6f565b82516123cd81612d18565b815260208301516123dd81612d03565b602082015260408301516123f081612d03565b6040820152606083015161240381612d03565b60608201529392505050565b600060208284031215612420578081fd5b81516001600160401b0380821115612436578283fd5b81840160408187031215612448578384fd5b6124526040612c6f565b9250805161245f81612d18565b8352602081015182811115612472578485fd5b61247e87828401611f43565b6020850152509195945050505050565b60006020828403121561249f578081fd5b81516001600160401b03808211156124b5578283fd5b818401604081870312156124c7578384fd5b6124d16040612c6f565b92508051828111156124e1578485fd5b80820160c081890312156124f3578586fd5b6124fd6040612c6f565b915080518481111561250d578687fd5b6125198982840161200a565b8352506125298860208301611f90565b60208301525080845250602081015182811115612544578485fd5b61247e878284016120a1565b600060208284031215612561578081fd5b5051919050565b6001600160a01b03169052565b6000815180845260208085018081965082840281019150828601855b858110156125db578284038952815180516001600160a01b03168552858101516040878701819052906125c6828801826125ee565b9b88019b965050509185019150600101612591565b5091979650505050505050565b15159052565b60008151808452612606816020860160208601612cd7565b601f01601f19169290920160200192915050565b805182526020810151602083015260408101516040830152606081015160608301525050565b6001600160f81b031994909416845260609290921b6bffffffffffffffffffffffff191660018401526015830152603582015260550190565b9283526020830191909152604082015260600190565b600082516126a1818460208701612cd7565b9190910192915050565b6001600160a01b0391909116815260200190565b6001600160a01b03958616815293851660208501529190931660408301526060820192909252608081019190915260a00190565b6001600160a01b039290921682526001600160e01b031916602082015260400190565b6001600160a01b038416815260ff8316602082015260606040820181905260009061148c908301846125ee565b6001600160a01b03929092168252602082015260400190565b901515815260200190565b60008582528460208301528360408301526080606083015261278c60808301846125ee565b9695505050505050565b60006020825261044260208301846125ee565b6000604082526127bc60408301856125ee565b828103602084015261148c81856125ee565b6020808252818101527f437265617465323a2062797465636f6465206c656e677468206973207a65726f604082015260600190565b60208082526016908201527563616e277420696e697469616c697a6520747769636560501b604082015260600190565b6020808252601490820152731ad9595c195c881c185e5bdd5d0819985a5b195960621b604082015260600190565b6020808252601f908201527f66756e6374696f6e2068616e646c6572206e6f74207265676973746572656400604082015260600190565b6020808252601590820152741d1bdad95b881d1c985b9cd9995c8819985a5b1959605a1b604082015260600190565b6020808252601490820152731c1c9bde1e481c9958dbdc99081a5b9d985b1a5960621b604082015260600190565b6020808252818101527f6d7573742062652063616c6c65642066726f6d207368696674657220706f6f6c604082015260600190565b60208082526029908201527f626f72726f772070726f78792063616e206f6e6c792062652075736564206279604082015268103137b93937bbb2b960b91b606082015260800190565b60208082526019908201527f437265617465323a204661696c6564206f6e206465706c6f7900000000000000604082015260600190565b60208082526021908201527f536166654d6174683a206d756c7469706c69636174696f6e206f766572666c6f6040820152607760f81b606082015260800190565b60208082526019908201527f70726f7879206973206265696e67206c69717569646174656400000000000000604082015260600190565b60208082526017908201527f6c6f616e207265736f6c7574696f6e206661696c757265000000000000000000604082015260600190565b6020808252601d908201527f437265617465323a20696e73756666696369656e742062616c616e6365000000604082015260600190565b60006020825260018060a01b03808451166020840152806020850151166040840152506040830151612ac56060840182612568565b506060830151612ad86080840182612568565b506080830151612aeb60a0840182612568565b5060a0830151612afe60c0840182612568565b5060c083015160e083015260e08301516101008081850152506105756101208401826125ee565b60006020825282516040602084015260018060a01b038082511660608501526020820151608080860152612b5c60e08601826125ee565b6040840151151560a08701526060840151868203605f190160c08801529150612b8581836125ee565b93505050806020860151166040850152508091505092915050565b600060208252825160c06020840152612bbd60e084018251612568565b6020810151612bd0610100850182612568565b50604081015161012084015260608101516101408401526080810151612bfa6101608501826125e8565b5060a081015160c0610180850152612c166101a0850182612575565b9150506020840151612c2c604085018251612568565b6020810151612c3e606086018261261a565b5090949350505050565b600060208252825115156020830152602083015160408084015261057560608401826125ee565b6040518181016001600160401b0381118282101715612c8d57600080fd5b604052919050565b60006001600160401b03821115612caa578081fd5b5060209081020190565b60006001600160401b03821115612cc9578081fd5b50601f01601f191660200190565b60005b83811015612cf2578181015183820152602001612cda565b838111156104935750506000910152565b6001600160a01b038116811461044b57600080fd5b801515811461044b57600080fdfe6361707475726564206120726576657274206572726f722c2062757420697420646f65736e277420636f6e666f726d20746f20746865207374616e64617264a2646970667358221220f7467cd1c20744ecac622c2c5357e950b370c160fbfccde7fa726d0fd83b8b6064736f6c63430006080033",
  "immutableReferences": {},
  "source": "pragma solidity ^0.6.0;\npragma experimental ABIEncoderV2;\n\nimport { TokenUtils } from \"./utils/TokenUtils.sol\";\nimport { LiquidityToken } from \"./LiquidityToken.sol\";\nimport { IERC20 } from \"openzeppelin-solidity/contracts/token/ERC20/IERC20.sol\";\nimport { SafeViewExecutor } from \"./utils/sandbox/SafeViewExecutor.sol\";\nimport { SandboxLib } from \"./utils/sandbox/SandboxLib.sol\";\nimport { StringLib } from \"./utils/StringLib.sol\";\nimport { NullCloneConstructor } from \"./NullCloneConstructor.sol\";\nimport { BorrowProxy } from \"./BorrowProxy.sol\";\nimport { ShifterBorrowProxyLib } from \"./ShifterBorrowProxyLib.sol\";\nimport { ShifterPool } from \"./ShifterPool.sol\";\nimport { IShifter } from \"./interfaces/IShifter.sol\";\n\ncontract ShifterBorrowProxy is BorrowProxy, SafeViewExecutor, NullCloneConstructor {\n  using ShifterBorrowProxyLib for *;\n  using StringLib for *;\n  using SandboxLib for *;\n  using TokenUtils for *;\n  uint256 constant MINIMUM_GAS_CONTINUE = 5e5;\n  function getShifter(address token) internal view returns (IShifter shifter) {\n    shifter = ShifterPool(isolate.masterAddress).getShifterHandler(token);\n  }\n  function mint(ShifterBorrowProxyLib.TriggerParcel memory parcel) internal returns (uint256 amount) {\n    amount = getShifter(parcel.record.request.token).mint(parcel.shiftParameters.pHash, parcel.record.request.amount, parcel.computeNHash(), parcel.shiftParameters.darknodeSignature);\n  }\n  function repayLoan(bytes memory data) public returns (bool) {\n    (bool success, ShifterBorrowProxyLib.ProxyRecord memory record, address pool) = _repayLoan(data);\n    if (maybeRelayResolveLoan(success, record, pool, record.loan.params.bond)) {\n      ShifterBorrowProxyLib.emitShifterBorrowProxyRepaid(record.request.borrower, record);\n      return true;\n    } else return false;\n  }\n  function _repayLoan(bytes memory data) internal returns (bool success, ShifterBorrowProxyLib.ProxyRecord memory record, address pool) {\n    (ShifterBorrowProxyLib.TriggerParcel memory parcel) = data.decodeTriggerParcel();\n    record = parcel.record;\n    parcel.record.request.actions = new ShifterBorrowProxyLib.InitializationAction[](0);\n    require(validateProxyRecord(parcel.record.encodeProxyRecord()), \"proxy record invalid\");\n    require(!isolate.isLiquidating, \"proxy is being liquidated\");\n    uint256 fee = parcel.record.computeAdjustedKeeperFee(parcel.record.request.amount);\n    pool = isolate.masterAddress;\n    address liquidityToken = getLiquidityToken(pool, parcel.record.request.token);\n    uint256 amount;\n    if (!isolate.isRepaying) {\n      isolate.isRepaying = true;\n      isolate.actualizedShift = amount = mint(parcel);\n      require(parcel.record.request.token.sendToken(liquidityToken, amount - fee), \"token transfer failed\");\n    } else amount = isolate.actualizedShift;\n    address[] memory set = isolate.repaymentSet.set;\n    for (uint256 i = isolate.repaymentIndex; i < set.length; i++) {\n      if (gasleft() < MINIMUM_GAS_CONTINUE || !set[i].delegateRepay()) {\n        isolate.repaymentIndex = i;\n        return (false, record, pool);\n      }\n    }\n    isolate.unbound = true;\n    require(parcel.record.request.token.sendToken(parcel.record.loan.keeper, fee), \"keeper payout failed\");\n    success = true;\n  }\n  function getBalanceOf(address token, address user) internal view returns (uint256) {\n    return IERC20(token).balanceOf(user);\n  }\n  function getLiquidityToken(address pool, address token) internal view returns (address liqToken) {\n    liqToken = address(ShifterPool(pool).getLiquidityTokenHandler(token));\n  }\n  function maybeRelayResolveLoan(bool success, ShifterBorrowProxyLib.ProxyRecord memory record, address pool, uint256 postBalance) internal returns (bool) {\n    if (success) {\n      address liqToken = getLiquidityToken(pool, record.request.token);\n      require(ShifterPool(pool).relayResolveLoan(record.request.token, liqToken, record.loan.keeper, record.loan.params.bond, postBalance - record.loan.params.bond), \"loan resolution failure\");\n      return true;\n    }\n    return false;\n  }\n/*\n  function defaultLoan(bytes memory data) public returns (bool) {\n    (bool success, ShifterBorrowProxyLib.ProxyRecord memory record, address pool, uint256 postBalance) = _defaultLoan(data);\n    return maybeRelayResolveLoan(success, record, pool, postBalance);\n  }\n  function _defaultLoan(bytes memory data) internal returns (bool success, ShifterBorrowProxyLib.ProxyRecord memory record, address pool, uint256 postBalance) {\n    require(!isolate.isRepaying, \"loan being repaid\");\n    require(!isolate.unbound, \"loan already repaid\");\n    require(validateProxyRecord(data), \"proxy record invalid\");\n    ShifterBorrowProxyLib.ProxyRecord memory record; // = data.decodeProxyRecord();\n    address[] memory set = isolate.liquidationSet.set;\n    if (record.loan.params.timeoutExpiry >= block.number) {\n      isolate.isLiquidating = true;\n      for (uint256 i = isolate.liquidationIndex; i < set.length; i++) {\n        if (gasleft() < MINIMUM_GAS_CONTINUE) { //|| !set[i].delegateLiquidate()) {\n          isolate.liquidationIndex = i;\n          return (false, record, pool, postBalance); //|| !set[i].delegateLiquidate()) \n        }\n      }\n      isolate.liquidationIndex = set.length;\n      pool = isolate.masterAddress;\n      postBalance = getBalanceOf(record.request.token, pool);\n      require(record.request.token.sendToken(pool, postBalance), \"failed to transfer reclaimed funds to pool\");\n      if (postBalance < record.request.amount) {\n        if (record.loan.params.bond > postBalance - record.request.amount) {\n          record.loan.params.bond -= (postBalance - record.request.amount);\n        } else {\n          record.loan.params.bond = 0;\n        }\n      }\n      success = true;\n    } else {\n      success = false;\n    }\n  }\n*/\n  function receiveInitializationActions(ShifterBorrowProxyLib.InitializationAction[] memory actions) public {\n    require(msg.sender == address(isolate.masterAddress), \"must be called from shifter pool\");\n    actions.processActions();\n  }\n  fallback() external payable override {}\n  receive() external payable override {}\n}\n",
  "sourcePath": "/home/ray/0confirmation/packages/0confirmation-sol/contracts/ShifterBorrowProxy.sol",
  "compiler": {
    "name": "solc",
    "version": "0.6.8+commit.0bbfe453.Emscripten.clang"
  },
  "schemaVersion": "3.2.0",
  "updatedAt": "2020-05-24T16:14:30.464Z",
  "devdoc": {
    "methods": {}
  },
  "userdoc": {
    "methods": {}
  }
}