{
  "contractName": "ShifterBorrowProxy",
  "abi": [
    {
      "inputs": [],
      "stateMutability": "nonpayable",
      "type": "constructor"
    },
    {
      "stateMutability": "payable",
      "type": "fallback"
    },
    {
      "inputs": [
        {
          "internalType": "bytes",
          "name": "creationCode",
          "type": "bytes"
        },
        {
          "internalType": "bytes",
          "name": "context",
          "type": "bytes"
        }
      ],
      "name": "_executeSafeView",
      "outputs": [],
      "stateMutability": "nonpayable",
      "type": "function"
    },
    {
      "inputs": [
        {
          "internalType": "bytes",
          "name": "consData",
          "type": "bytes"
        }
      ],
      "name": "cloneConstructor",
      "outputs": [],
      "stateMutability": "nonpayable",
      "type": "function"
    },
    {
      "inputs": [
        {
          "internalType": "address",
          "name": "to",
          "type": "address"
        },
        {
          "internalType": "uint256",
          "name": "value",
          "type": "uint256"
        },
        {
          "internalType": "bytes",
          "name": "payload",
          "type": "bytes"
        }
      ],
      "name": "proxy",
      "outputs": [],
      "stateMutability": "nonpayable",
      "type": "function"
    },
    {
      "inputs": [
        {
          "internalType": "bytes",
          "name": "creationCode",
          "type": "bytes"
        },
        {
          "internalType": "bytes",
          "name": "context",
          "type": "bytes"
        }
      ],
      "name": "query",
      "outputs": [
        {
          "components": [
            {
              "internalType": "bool",
              "name": "success",
              "type": "bool"
            },
            {
              "internalType": "bytes",
              "name": "data",
              "type": "bytes"
            }
          ],
          "internalType": "struct SafeViewLib.SafeViewResult",
          "name": "",
          "type": "tuple"
        }
      ],
      "stateMutability": "nonpayable",
      "type": "function"
    },
    {
      "inputs": [
        {
          "internalType": "address",
          "name": "owner",
          "type": "address"
        },
        {
          "internalType": "address",
          "name": "token",
          "type": "address"
        }
      ],
      "name": "setup",
      "outputs": [
        {
          "internalType": "bool",
          "name": "",
          "type": "bool"
        }
      ],
      "stateMutability": "nonpayable",
      "type": "function"
    },
    {
      "stateMutability": "payable",
      "type": "receive"
    },
    {
      "inputs": [
        {
          "internalType": "bytes",
          "name": "data",
          "type": "bytes"
        }
      ],
      "name": "repayLoan",
      "outputs": [
        {
          "internalType": "bool",
          "name": "",
          "type": "bool"
        }
      ],
      "stateMutability": "nonpayable",
      "type": "function"
    },
    {
      "inputs": [
        {
          "internalType": "bytes",
          "name": "data",
          "type": "bytes"
        }
      ],
      "name": "defaultLoan",
      "outputs": [
        {
          "internalType": "bool",
          "name": "",
          "type": "bool"
        }
      ],
      "stateMutability": "nonpayable",
      "type": "function"
    },
    {
      "inputs": [
        {
          "components": [
            {
              "internalType": "address",
              "name": "to",
              "type": "address"
            },
            {
              "internalType": "bytes",
              "name": "txData",
              "type": "bytes"
            }
          ],
          "internalType": "struct ShifterBorrowProxyLib.InitializationAction[]",
          "name": "actions",
          "type": "tuple[]"
        }
      ],
      "name": "receiveInitializationActions",
      "outputs": [],
      "stateMutability": "nonpayable",
      "type": "function"
    }
  ],
  "bytecode": "0x608060405234801561001057600080fd5b5061317f806100206000396000f3fe60806040526004361061007f5760003560e01c806356b8e1461161004e57806356b8e1461461012b5780635f7d2b571461014b5780635fe759581461016b578063c4ddf3631461018b57610086565b80632692f25a146100885780632d34ba79146100a857806334686eaf146100de57806352e831dd1461010b57610086565b3661008657005b005b34801561009457600080fd5b506100866100a3366004612447565b6101ab565b3480156100b457600080fd5b506100c86100c336600461240f565b6103d1565b6040516100d59190612a31565b60405180910390f35b3480156100ea57600080fd5b506100fe6100f93660046125ef565b61043f565b6040516100d5919061302c565b34801561011757600080fd5b506100866101263660046125bd565b61045e565b34801561013757600080fd5b506100c86101463660046125bd565b610461565b34801561015757600080fd5b506100866101663660046125ef565b610815565b34801561017757600080fd5b5061008661018636600461249d565b610860565b34801561019757600080fd5b506100c86101a63660046125bd565b610895565b6001546001600160a01b03163314806101ce57506000546001600160a01b031633145b806101d857503330145b6101fd5760405162461bcd60e51b81526004016101f490612c2a565b60405180910390fd5b60006102196102148383600463ffffffff610d2916565b610d52565b60e01b9050610226611faf565b6102386000868463ffffffff610d6f16565b6002546001600160a01b03166020820152600054909150600160a01b900460ff1680156102685750604081015151155b1561030b5760006060866001600160a01b0316868660405161028a9190612964565b60006040518083038185875af1925050503d80600081146102c7576040519150601f19603f3d011682016040523d82523d6000602084013e6102cc565b606091505b5091509150816102f8576102df81610e22565b60405162461bcd60e51b81526004016101f49190612a6b565b6103028282610f15565b505050506103cc565b6103188160400151610f2a565b6103345760405162461bcd60e51b81526004016101f490612b61565b6000606061034983868863ffffffff610f3c16565b915091508161035b576102df81610e22565b60408084015101516001600160a01b03161561038b57604080840151015161038b9060079063ffffffff61104c16565b6040830151606001516001600160a01b0316156103bd576040830151606001516103bd9060099063ffffffff61104c16565b6103c78282610f15565b505050505b505050565b6001546000906001600160a01b0316156103fd5760405162461bcd60e51b81526004016101f490612ad8565b5060008054336001600160a01b0319918216179091556001805482166001600160a01b0385811691909117825560028054909316908416179091555b92915050565b610447611fd3565b610457838363ffffffff6110a616565b9392505050565b50565b60065460009060ff16156104875760405162461bcd60e51b81526004016101f490612b36565b600054600160a01b900460ff16156104b15760405162461bcd60e51b81526004016101f490612caa565b6104ba82611117565b6104d65760405162461bcd60e51b81526004016101f490612bc7565b6104de611feb565b6104e78361119a565b600880546040805160208084028201810190925282815293945060609392919083018282801561054057602002820191906000526020600020905b81546001600160a01b03168152600190910190602001808311610522575b50505050509050438260200151602001516000015110610809576006805461ff0019166101001790556004545b81518110156105c5576207a1205a10806105a957506105a782828151811061059157fe5b60200260200101516001600160a01b03166111b6565b155b156105bd5760045550600091506108109050565b60010161056d565b5080516004908155600080548451602001516040516370a0823160e01b81526001600160a01b039283169491909216916370a082319161060791309101612980565b60206040518083038186803b15801561061f57600080fd5b505afa158015610633573d6000803e3d6000fd5b505050506040513d601f19601f820116820180604052508101906106579190612862565b84516020015190915061067a906001600160a01b0316838363ffffffff61123716565b6106965760405162461bcd60e51b81526004016101f490612dc9565b60208085015181015101518451606001518210156106d05784516060015182038111156106cc57845160600151820390036106d0565b5060005b8451602001516040516303cc556d60e51b8152828403916001600160a01b0386169163801874ec9190839063798aada09061070f908490600401612980565b60206040518083038186803b15801561072757600080fd5b505afa15801561073b573d6000803e3d6000fd5b505050506040513d601f19601f8201168201806040525081019061075f919061264f565b60208a0151516040516001600160e01b031960e086901b16815261078c9392919088908890600401612994565b602060405180830381600087803b1580156107a657600080fd5b505af11580156107ba573d6000803e3d6000fd5b505050506040513d601f19601f820116820180604052508101906107de91906125a1565b6107fa5760405162461bcd60e51b81526004016101f490612d92565b60019650505050505050610810565b6000925050505b919050565b600061082a60006108246112a9565b856112cd565b9050606061084f61084a6001600160a01b0384168563ffffffff61133f16565b6113c9565b905061085a816113f2565b50505050565b6000546001600160a01b0316331461088a5760405162461bcd60e51b81526004016101f490612bf5565b60606103cc826113fa565b600061089f61200b565b6108a88361167d565b90506108bf6108ba8260000151611699565b611117565b6108db5760405162461bcd60e51b81526004016101f490612bc7565b600654610100900460ff16156109035760405162461bcd60e51b81526004016101f490612d5b565b805180516060015160009161091d9163ffffffff6116ac16565b60008054845151602001516040516303cc556d60e51b815293945091926001600160a01b039091169163798aada0916109599190600401612980565b60206040518083038186803b15801561097157600080fd5b505afa158015610985573d6000803e3d6000fd5b505050506040513d601f19601f820116820180604052508101906109a9919061264f565b60065490915060009060ff16610b36576006805460ff19166001179055600054845151602001516040516307ef1e3760e21b81526001600160a01b0390921691631fbc78dc916109fb91600401612980565b60206040518083038186803b158015610a1357600080fd5b505afa158015610a27573d6000803e3d6000fd5b505050506040513d601f19601f82011682018060405250810190610a4b919061264f565b6001600160a01b031663159ab14d856060015186600001516000015160600151610a74886116e5565b88608001516040518563ffffffff1660e01b8152600401610a989493929190612a3c565b602060405180830381600087803b158015610ab257600080fd5b505af1158015610ac6573d6000803e3d6000fd5b505050506040513d601f19601f82011682018060405250810190610aea9190612862565b600381905584515160200151909150610b15906001600160a01b03168385840363ffffffff61123716565b610b315760405162461bcd60e51b81526004016101f490612b98565b610b3b565b506003545b600a80546040805160208084028201810190925282815260609390929091830182828015610b9257602002820191906000526020600020905b81546001600160a01b03168152600190910190602001808311610b74575b50506005549394505050505b8151811015610bf9576207a1205a1080610bda5750610bd8828281518110610bc257fe5b60200260200101516001600160a01b03166116fe565b155b15610bf15760055550600094506108109350505050565b600101610b9e565b506000805460ff60a01b1916600160a01b17905584516020808201515191510151610c36916001600160a01b03909116908663ffffffff61123716565b610c525760405162461bcd60e51b81526004016101f490612b08565b600080548651805160209081015191810151805190820151909101516040516320061d3b60e21b81526001600160a01b039094169463801874ec94610ca094938a9390929091600401612994565b602060405180830381600087803b158015610cba57600080fd5b505af1158015610cce573d6000803e3d6000fd5b505050506040513d601f19601f82011682018060405250810190610cf291906125a1565b610d0e5760405162461bcd60e51b81526004016101f490612d18565b8451805151610d1c91611716565b5060019695505050505050565b610d31612042565b610d3b848461175b565b815260208101919091526040810191909152919050565b8051602082015160009190610d678282611762565b949350505050565b610d77611faf565b604080516060810182526001600160a01b03808616825260028701548116602083015286548351630220891b60e51b81529293840192911690634411236090610dc690889088906004016129c8565b608060405180830381600087803b158015610de057600080fd5b505af1158015610df4573d6000803e3d6000fd5b505050506040513d601f19601f82011682018060405250810190610e18919061269d565b9052949350505050565b6060815160001415610e68575060408051808201909152601c81527f636170747572656420656d7074792072657665727420627566666572000000006020820152610810565b6308c379a0610e7d6102148460006004610d29565b63ffffffff1614610ea8576040518060600160405280603f815260200161310b603f91399050610810565b6060610ec3610ebe84600463ffffffff61177f16565b6117a3565b9050805160001415610f0a57505060408051808201909152601d81527f636170747572656420656d70747920726576657274206d6573736167650000006020820152610810565b6060610d6782611812565b81610f2257805181602001fd5b805181602001f35b602001516001600160a01b0316151590565b60006060600060608660400151602001516001600160a01b03165a610fef6040518061010001604052808b60400151602001516001600160a01b031681526020018b60400151604001516001600160a01b031681526020018b60400151606001516001600160a01b031681526020018b602001516001600160a01b03168152602001326001600160a01b031681526020018b600001516001600160a01b031681526020018981526020018a815250611828565b604051610ffc9190612964565b6000604051808303818686f4925050503d8060008114611038576040519150601f19603f3d011682016040523d82523d6000602084013e61103d565b606091505b50909890975095505050505050565b6001600160a01b03811660009081526020839052604090205460ff1615611072576110a2565b6001828101805491820181556000908152602090200180546001600160a01b0319166001600160a01b0383161790555b5050565b6110ae611fd3565b6060306110bb858561187b565b6040516110c89190612964565b6000604051808303816000865af19150503d8060008114611105576040519150601f19603f3d011682016040523d82523d6000602084013e61110a565b606091505b50915050610d67816118d1565b600080546040516308f6049560e01b81526001600160a01b03909116906308f6049590611148908590600401612a6b565b602060405180830381600087803b15801561116257600080fd5b505af1158015611176573d6000803e3d6000fd5b505050506040513d601f19601f8201168201806040525081019061043991906125a1565b6111a2611feb565b818060200190518101906104399190612705565b6000806060836001600160a01b03166111ce856118ed565b6040516111db9190612964565b600060405180830381855af49150503d8060008114611216576040519150601f19603f3d011682016040523d82523d6000602084013e61121b565b606091505b50915091508161122e576102df81610e22565b610d6781611930565b600080846001600160a01b031661124e8585611946565b60405161125b9190612964565b6000604051808303816000865af19150503d8060008114611298576040519150601f19603f3d011682016040523d82523d6000602084013e61129d565b606091505b50909695505050505050565b7fad53495153c7c363e98a26920ec679e0e687636458f6908c91cf6deadb19080190565b600080844710156112f05760405162461bcd60e51b81526004016101f490612e13565b825161130e5760405162461bcd60e51b81526004016101f490612aa3565b8383516020850187f590506001600160a01b038116610d675760405162461bcd60e51b81526004016101f490612c73565b611347611fd3565b60006060846001600160a01b031661135e85611963565b60405161136b9190612964565b600060405180830381855af49150503d80600081146113a6576040519150601f19603f3d011682016040523d82523d6000602084013e6113ab565b606091505b50604080518082019091529115158252602082015295945050505050565b6060816040516020016113dc919061302c565b6040516020818303038152906040529050919050565b805160208201fd5b6060611404611fd3565b61140d8361197e565b905060005b835181101561166f5760608260200151828151811061142d57fe5b6020026020010151905060006001600160a01b03168160008151811061144f57fe5b6020026020010151600001516001600160a01b031614156115745761148b8160008151811061147a57fe5b602002602001015160200151611ae6565b6001600160a01b0316835261149e611fd3565b6114c1826000815181106114ae57fe5b6020026020010151602001518486611b1c565b6040805160008082526020820190925291925050826000815181106114e257fe5b60209081029190910181015101528051156115225761151284602001518461150d8460200151611ba9565b611bbf565b61151d57505061166f565b611572565b80602001518260008151811061153457fe5b60200260200101516060018190525080600001518260008151811061155557fe5b602002602001015160400190151590811515815250505050611667565b505b8260200151828151811061158457fe5b6020026020010151905060008090505b81518110156116645760006060306001600160a01b03166115c78585815181106115ba57fe5b6020026020010151611cbe565b6040516115d49190612964565b6000604051808303816000865af19150503d8060008114611611576040519150601f19603f3d011682016040523d82523d6000602084013e611616565b606091505b50915091508184848151811061162857fe5b602002602001015160400190151590811515815250508084848151811061164b57fe5b6020908102919091010151606001525050600101611594565b50505b600101611412565b506104578160200151611ce4565b61168561200b565b8180602001905181019061043991906127b5565b6060816040516020016113dc9190612f5a565b6000610457670de0b6b3a76400006116d98560200151602001516060015185611de890919063ffffffff16565b9063ffffffff611e2216565b60006116f082611e64565b805190602001209050919050565b6000806060836001600160a01b03166111ce85611e89565b816001600160a01b03167fde947e8b6051ad11f984637f1fd1be5fc4b62225fcbf933475f7783ac5e2bd5f8260405161174f9190612f5a565b60405180910390a25050565b0160200190565b6000600180600884021b0380836020038503511691505092915050565b611787612042565b818351101561179557825191505b610457838384865103610d29565b6020810151606090806001600160401b03811180156117c157600080fd5b506040519080825280601f01601f1916602001820160405280156117ec576020820181803683370190505b50835190925060006117fd84611ecc565b905061180a818385611ed2565b505050919050565b606081806020019051810190610439919061266b565b6060633c52e5a160e01b826040516024016118439190612e4a565b60408051601f198184030181529190526020810180516001600160e01b03166001600160e01b03199093169290921790915292915050565b6060635f7d2b5760e01b8383604051602401611898929190612a7e565b60408051601f198184030181529190526020810180516001600160e01b03166001600160e01b0319909316929092179091529392505050565b6118d9611fd3565b818060200190518101906104399190612737565b6060816040516024016119009190612980565b60408051601f198184030181529190526020810180516001600160e01b03166305f0caad60e31b17905292915050565b60008180602001905181019061043991906125a1565b606063a9059cbb60e01b8383604051602401611898929190612a18565b60606309c5eabe60e01b826040516024016118439190612a6b565b611986611fd3565b606082516001600160401b038111801561199f57600080fd5b506040519080825280602002602001820160405280156119d357816020015b60608152602001906001900390816119be5790505b50905060005b8351811015611ac95760408051600180825281830190925290816020015b6119ff612063565b8152602001906001900390816119f757905050828281518110611a1e57fe5b6020026020010181905250838181518110611a3557fe5b602002602001015160000151828281518110611a4d57fe5b6020026020010151600081518110611a6157fe5b60209081029190910101516001600160a01b0390911690528351849082908110611a8757fe5b602002602001015160200151828281518110611a9f57fe5b6020026020010151600081518110611ab357fe5b60209081029190910181015101526001016119d9565b506040805180820190915260008152602081019190915292915050565b60006104397fad53495153c7c363e98a26920ec679e0e687636458f6908c91cf6deadb19080160001b8380519060200120611f10565b611b24611fd3565b611b2c612089565b82516001600160a01b031660208201528315611b8757606083602001518581518110611b5457fe5b602002602001015190508051600014611b855780600182510381518110611b7757fe5b602090810291909101015182525b505b611ba0611b9382611f1d565b869063ffffffff6110a616565b95945050505050565b606081806020019051810190610439919061256f565b6000606082516001600160401b0381118015611bda57600080fd5b50604051908082528060200260200182016040528015611c1457816020015b611c01612063565b815260200190600190039081611bf95790505b50905060005b8151811015611c9a57838181518110611c2f57fe5b602002602001015160200151828281518110611c4757fe5b602002602001015160200181905250838181518110611c6257fe5b602002602001015160000151828281518110611c7a57fe5b60209081029190910101516001600160a01b039091169052600101611c1a565b5080858581518110611ca857fe5b6020908102919091010152511515949350505050565b80516020820151604051606092631349792d60e11b9261184392600091906024016129eb565b60606000805b8351811015611d1957838181518110611cff57fe5b602002602001015151820191508080600101915050611cea565b50806001600160401b0381118015611d3057600080fd5b50604051908082528060200260200182016040528015611d6a57816020015b611d57612063565b815260200190600190039081611d4f5790505b5091506000805b845181101561180a5760005b858281518110611d8957fe5b602002602001015151811015611ddf57858281518110611da557fe5b60200260200101518181518110611db857fe5b6020026020010151858481518110611dcc57fe5b6020908102919091010152600101611d7d565b50600101611d71565b600082611df757506000610439565b82820282848281611e0457fe5b04146104575760405162461bcd60e51b81526004016101f490612cd7565b600061045783836040518060400160405280601a81526020017f536166654d6174683a206469766973696f6e206279207a65726f000000000000815250611f30565b8051516040908101516020808401518385015193516060946113dc949390910161294e565b606081604051602401611e9c9190612980565b60408051601f198184030181529190526020810180516001600160e01b0316639f7c73e960e01b17905292915050565b60200190565b5b60208110611ef2578151835260209283019290910190601f1901611ed3565b600180600883602003021b0380845116811984511617845250505050565b6000610457838330611f67565b6060816040516020016113dc9190612edf565b60008183611f515760405162461bcd60e51b81526004016101f49190612a6b565b506000838581611f5d57fe5b0495945050505050565b60008060ff60f81b838686604051602001611f859493929190612915565b60408051808303601f1901815291905280516020909101206001600160a01b031695945050505050565b6040805160608101825260008082526020820152908101611fce6120a9565b905290565b60408051808201909152600081526060602082015290565b6040518060400160405280611ffe6120d0565b8152602001611fce612107565b6040518060a0016040528061201e611feb565b81526000602082018190526040820181905260608083019190915260809091015290565b60405180606001604052806000815260200160008152602001600081525090565b604080516080810182526000808252606060208301819052928201528181019190915290565b604051806040016040528061209c612063565b8152600060209091015290565b60408051608081018252600080825260208201819052918101829052606081019190915290565b6040805160c0810182526000808252602082018190529181018290526060808201839052608082019290925260a081019190915290565b604051806040016040528060006001600160a01b03168152602001611fce6040518060800160405280600081526020016000815260200160008152602001600081525090565b8035610439816130e7565b600082601f830112612168578081fd5b815161217b61217682613079565b613053565b818152915060208083019084810160005b848110156122045781518701604080601f19838c030112156121ad57600080fd5b6121b681613053565b858301516121c3816130e7565b8152828201516001600160401b038111156121dd57600080fd5b6121eb8c888387010161226d565b828801525086525050928201929082019060010161218c565b505050505092915050565b8051801515811461043957600080fd5b600082601f83011261222f578081fd5b813561223d61217682613098565b915080825283602082850101111561225457600080fd5b8060208401602084013760009082016020015292915050565b600082601f83011261227d578081fd5b815161228b61217682613098565b91508082528360208285010111156122a257600080fd5b6122b38160208401602086016130bb565b5092915050565b600081830360a08112156122cc578182fd5b6122d66040613053565b915082516122e3816130e7565b82526080601f19820112156122f757600080fd5b506123026080613053565b602083015181526040830151602082015260608301516040820152608083015160608201528060208301525092915050565b600060c08284031215612345578081fd5b61234f6040613053565b905081516001600160401b038082111561236857600080fd5b81840160c0818703121561237b57600080fd5b61238560c0613053565b92508051612392816130e7565b835260208101516123a2816130e7565b8060208501525060408101516040840152606081015160608401526123ca866080830161220f565b608084015260a0810151828111156123e157600080fd5b6123ed87828401612158565b60a0850152505050815261240483602084016122ba565b602082015292915050565b60008060408385031215612421578182fd5b823561242c816130e7565b9150602083013561243c816130e7565b809150509250929050565b60008060006060848603121561245b578081fd5b8335612466816130e7565b92506020840135915060408401356001600160401b03811115612487578182fd5b6124938682870161221f565b9150509250925092565b600060208083850312156124af578182fd5b82356001600160401b03808211156124c5578384fd5b81850186601f8201126124d6578485fd5b803592506124e661217684613079565b83815284810190828601875b868110156125605781358501604080601f19838f03011215612512578a8bfd5b61251b81613053565b6125278e8c850161214d565b81528183013589811115612539578c8dfd5b6125478f8d8387010161221f565b828d0152508652505092870192908701906001016124f2565b50909998505050505050505050565b600060208284031215612580578081fd5b81516001600160401b03811115612595578182fd5b610d6784828501612158565b6000602082840312156125b2578081fd5b8151610457816130fc565b6000602082840312156125ce578081fd5b81356001600160401b038111156125e3578182fd5b610d678482850161221f565b60008060408385031215612601578182fd5b82356001600160401b0380821115612617578384fd5b6126238683870161221f565b93506020850135915080821115612638578283fd5b506126458582860161221f565b9150509250929050565b600060208284031215612660578081fd5b8151610457816130e7565b60006020828403121561267c578081fd5b81516001600160401b03811115612691578182fd5b610d678482850161226d565b6000608082840312156126ae578081fd5b6126b86080613053565b82516126c3816130fc565b815260208301516126d3816130e7565b602082015260408301516126e6816130e7565b604082015260608301516126f9816130e7565b60608201529392505050565b600060208284031215612716578081fd5b81516001600160401b0381111561272b578182fd5b610d6784828501612334565b600060208284031215612748578081fd5b81516001600160401b038082111561275e578283fd5b81840160408187031215612770578384fd5b61277a6040613053565b9250612786868261220f565b8352602081015182811115612799578485fd5b6127a58782840161226d565b6020850152509195945050505050565b6000602082840312156127c6578081fd5b81516001600160401b03808211156127dc578283fd5b81840160a081870312156127ee578384fd5b6127f860a0613053565b9250805182811115612808578485fd5b61281487828401612334565b845250602081015160208401526040810151604084015260608101516060840152608081015182811115612846578485fd5b6128528782840161226d565b6080850152509195945050505050565b600060208284031215612873578081fd5b5051919050565b6001600160a01b03169052565b6000815180845261289f8160208601602086016130bb565b601f01601f19169290920160200192915050565b600060018060a01b038251168352602082015160406020850152610d676040850182612887565b60018060a01b038151168252602081015180516020840152602081015160408401526040810151606084015260608101516080840152505050565b6001600160f81b031994909416845260609290921b6bffffffffffffffffffffffff191660018401526015830152603582015260550190565b9283526020830191909152604082015260600190565b600082516129768184602087016130bb565b9190910192915050565b6001600160a01b0391909116815260200190565b6001600160a01b03958616815293851660208501529190931660408301526060820192909252608081019190915260a00190565b6001600160a01b039290921682526001600160e01b031916602082015260400190565b6001600160a01b038416815260ff83166020820152606060408201819052600090611ba090830184612887565b6001600160a01b03929092168252602082015260400190565b901515815260200190565b600085825284602083015283604083015260806060830152612a616080830184612887565b9695505050505050565b6000602082526104576020830184612887565b600060408252612a916040830185612887565b8281036020840152611ba08185612887565b6020808252818101527f437265617465323a2062797465636f6465206c656e677468206973207a65726f604082015260600190565b60208082526016908201527563616e277420696e697469616c697a6520747769636560501b604082015260600190565b6020808252601490820152731ad9595c195c881c185e5bdd5d0819985a5b195960621b604082015260600190565b6020808252601190820152701b1bd85b8818995a5b99c81c995c185a59607a1b604082015260600190565b6020808252601f908201527f66756e6374696f6e2068616e646c6572206e6f74207265676973746572656400604082015260600190565b6020808252601590820152741d1bdad95b881d1c985b9cd9995c8819985a5b1959605a1b604082015260600190565b6020808252601490820152731c1c9bde1e481c9958dbdc99081a5b9d985b1a5960621b604082015260600190565b6020808252818101527f6d7573742062652063616c6c65642066726f6d207368696674657220706f6f6c604082015260600190565b60208082526029908201527f626f72726f772070726f78792063616e206f6e6c792062652075736564206279604082015268103137b93937bbb2b960b91b606082015260800190565b60208082526019908201527f437265617465323a204661696c6564206f6e206465706c6f7900000000000000604082015260600190565b6020808252601390820152721b1bd85b88185b1c9958591e481c995c185a59606a1b604082015260600190565b60208082526021908201527f536166654d6174683a206d756c7469706c69636174696f6e206f766572666c6f6040820152607760f81b606082015260800190565b60208082526023908201527f6c6f616e207265736f6c7574696f6e206e6f74696669636174696f6e206661696040820152621b195960ea1b606082015260800190565b60208082526019908201527f70726f7879206973206265696e67206c69717569646174656400000000000000604082015260600190565b60208082526017908201527f6c6f616e207265736f6c7574696f6e206661696c757265000000000000000000604082015260600190565b6020808252602a908201527f6661696c656420746f207472616e73666572207265636c61696d65642066756e604082015269191cc81d1bc81c1bdbdb60b21b606082015260800190565b6020808252601d908201527f437265617465323a20696e73756666696369656e742062616c616e6365000000604082015260600190565b60006020825260018060a01b03808451166020840152806020850151166040840152506040830151612e7f606084018261287a565b506060830151612e92608084018261287a565b506080830151612ea560a084018261287a565b5060a0830151612eb860c084018261287a565b5060c083015160e083015260e0830151610100808185015250610d67610120840182612887565b60006020825282516040602084015260018060a01b038082511660608501526020820151608080860152612f1660e0860182612887565b6040840151151560a08701526060840151868203605f190160c08801529150612f3f8183612887565b93505050806020860151166040850152508091505092915050565b6020808252825160c083830181905281516001600160a01b0390811660e08601528284015116610100850152604082015161012085015260608201516101408501526080820151151561016085015260a09091015161018084019190915280516101a08401819052600092916101c0808601929184019185918186028801015b8183101561300d576101bf19888203018552612ff78185516128b3565b9486019493860193600193909301929050612fda565b85890151945061302060408901866128da565b98975050505050505050565b6000602082528251151560208301526020830151604080840152610d676060840182612887565b6040518181016001600160401b038111828210171561307157600080fd5b604052919050565b60006001600160401b0382111561308e578081fd5b5060209081020190565b60006001600160401b038211156130ad578081fd5b50601f01601f191660200190565b60005b838110156130d65781810151838201526020016130be565b8381111561085a5750506000910152565b6001600160a01b038116811461045e57600080fd5b801515811461045e57600080fdfe6361707475726564206120726576657274206572726f722c2062757420697420646f65736e277420636f6e666f726d20746f20746865207374616e64617264a26469706673582212203b1ac1d08345b6156977c10470b22e8de56ebf7ec13be45a3f37edfd551c1e3d64736f6c63430006060033",
  "immutableReferences": {},
  "source": "pragma solidity ^0.6.0;\npragma experimental ABIEncoderV2;\n\nimport { BorrowProxy } from \"./BorrowProxy.sol\";\nimport { ShifterPool } from \"./ShifterPool.sol\";\nimport { ShifterBorrowProxyLib } from \"./ShifterBorrowProxyLib.sol\";\nimport { ILiquidationModule } from \"./interfaces/ILiquidationModule.sol\";\nimport { TokenUtils } from \"./utils/TokenUtils.sol\";\nimport { LiquidityToken } from \"./LiquidityToken.sol\";\nimport { IERC20 } from \"openzeppelin-solidity/contracts/token/ERC20/IERC20.sol\";\nimport { SafeViewExecutor } from \"./utils/sandbox/SafeViewExecutor.sol\";\nimport { SandboxLib } from \"./utils/sandbox/SandboxLib.sol\";\nimport { StringLib } from \"./utils/StringLib.sol\";\nimport { NullCloneConstructor } from \"./NullCloneConstructor.sol\";\n\ncontract ShifterBorrowProxy is BorrowProxy, SafeViewExecutor, NullCloneConstructor {\n  using ShifterBorrowProxyLib for *;\n  using StringLib for *;\n  using SandboxLib for *;\n  using TokenUtils for *;\n  constructor() BorrowProxy() public {}\n  uint256 constant MINIMUM_GAS_CONTINUE = 5e5;\n  function repayLoan(bytes memory data) public returns (bool) {\n    (ShifterBorrowProxyLib.TriggerParcel memory parcel) = data.decodeTriggerParcel();\n    require(validateProxyRecord(parcel.record.encodeProxyRecord()), \"proxy record invalid\");\n    require(!isolate.isLiquidating, \"proxy is being liquidated\");\n    uint256 fee = parcel.record.computeAdjustedKeeperFee(parcel.record.request.amount);\n    LiquidityToken liquidityToken = ShifterPool(isolate.masterAddress).getLiquidityTokenHandler(parcel.record.request.token);\n    uint256 amount;\n    if (!isolate.isRepaying) {\n      isolate.isRepaying = true;\n      isolate.actualizedShift = amount = ShifterPool(isolate.masterAddress).getShifterHandler(parcel.record.request.token).mint(parcel.pHash, parcel.record.request.amount, parcel.computeNHash(), parcel.darknodeSignature);\n      require(parcel.record.request.token.sendToken(address(liquidityToken), amount - fee), \"token transfer failed\");\n    } else amount = isolate.actualizedShift;\n    address[] memory set = isolate.repaymentSet.set;\n    for (uint256 i = isolate.repaymentIndex; i < set.length; i++) {\n      if (gasleft() < MINIMUM_GAS_CONTINUE || !set[i].delegateRepay()) {\n        isolate.repaymentIndex = i;\n        return false;\n      }\n    }\n    isolate.unbound = true;\n    require(parcel.record.request.token.sendToken(parcel.record.loan.keeper, fee), \"keeper payout failed\");\n    require(ShifterPool(isolate.masterAddress).relayResolveLoan(parcel.record.request.token, address(liquidityToken), parcel.record.loan.keeper, parcel.record.loan.params.bond, 0), \"loan resolution notification failed\");\n    ShifterBorrowProxyLib.emitShifterBorrowProxyRepaid(parcel.record.request.borrower, parcel.record);\n    return true;\n  }\n  function defaultLoan(bytes memory data) public returns (bool) {\n    require(!isolate.isRepaying, \"loan being repaid\");\n    require(!isolate.unbound, \"loan already repaid\");\n    require(validateProxyRecord(data), \"proxy record invalid\");\n    ShifterBorrowProxyLib.ProxyRecord memory record = data.decodeProxyRecord();\n    address[] memory set = isolate.liquidationSet.set;\n    if (record.loan.params.timeoutExpiry >= block.number) {\n      isolate.isLiquidating = true;\n      for (uint256 i = isolate.liquidationIndex; i < set.length; i++) {\n        if (gasleft() < MINIMUM_GAS_CONTINUE || !set[i].delegateLiquidate()) {\n          isolate.liquidationIndex = i;\n          return false;\n        }\n      }\n      isolate.liquidationIndex = set.length;\n      ShifterPool pool = ShifterPool(isolate.masterAddress);\n      uint256 postBalance = IERC20(record.request.token).balanceOf(address(this));\n      require(record.request.token.sendToken(address(pool), postBalance), \"failed to transfer reclaimed funds to pool\");\n      uint256 bond = record.loan.params.bond;\n      if (postBalance < record.request.amount) {\n        if (bond > postBalance - record.request.amount) {\n          bond -= (postBalance - record.request.amount);\n        } else {\n          bond = 0;\n        }\n      }\n      uint256 repay = postBalance - bond;\n      require(pool.relayResolveLoan(record.request.token, address(pool.getLiquidityTokenHandler(record.request.token)), record.loan.keeper, bond, repay), \"loan resolution failure\");\n      return true;\n    }\n    return false;\n  }\n  function receiveInitializationActions(ShifterBorrowProxyLib.InitializationAction[] memory actions) public {\n    require(msg.sender == address(isolate.masterAddress), \"must be called from shifter pool\");\n    SandboxLib.ProtectedExecution[] memory trace = actions.processActions();\n//    require(trace.length >= 0);\n//    ShifterBorrowProxyLib.emitBorrowProxyInitialization(address(this), trace);\n  }\n  fallback() external payable override {}\n  receive() external payable override {}\n}\n",
  "sourcePath": "/home/ray/0confirmation/packages/0confirmation-sol/contracts/ShifterBorrowProxy.sol",
  "compiler": {
    "name": "solc",
    "version": "0.6.6+commit.6c089d02.Emscripten.clang"
  },
  "schemaVersion": "3.1.0",
  "updatedAt": "2020-05-11T04:32:39.890Z",
  "devdoc": {
    "methods": {}
  },
  "userdoc": {
    "methods": {}
  }
}