{
  "contractName": "ShifterBorrowProxy",
  "abi": [
    {
      "inputs": [],
      "stateMutability": "nonpayable",
      "type": "constructor"
    },
    {
      "stateMutability": "payable",
      "type": "fallback"
    },
    {
      "inputs": [
        {
          "internalType": "address",
          "name": "delegateTo",
          "type": "address"
        },
        {
          "internalType": "bytes",
          "name": "callData",
          "type": "bytes"
        }
      ],
      "name": "_executeQuery",
      "outputs": [
        {
          "internalType": "bytes",
          "name": "",
          "type": "bytes"
        }
      ],
      "stateMutability": "nonpayable",
      "type": "function"
    },
    {
      "inputs": [
        {
          "internalType": "address",
          "name": "to",
          "type": "address"
        },
        {
          "internalType": "uint256",
          "name": "value",
          "type": "uint256"
        },
        {
          "internalType": "bytes",
          "name": "payload",
          "type": "bytes"
        }
      ],
      "name": "proxy",
      "outputs": [],
      "stateMutability": "nonpayable",
      "type": "function"
    },
    {
      "inputs": [
        {
          "internalType": "address",
          "name": "viewLogic",
          "type": "address"
        },
        {
          "internalType": "bytes",
          "name": "payload",
          "type": "bytes"
        }
      ],
      "name": "query",
      "outputs": [
        {
          "internalType": "bytes",
          "name": "",
          "type": "bytes"
        }
      ],
      "stateMutability": "view",
      "type": "function"
    },
    {
      "inputs": [
        {
          "internalType": "address",
          "name": "owner",
          "type": "address"
        },
        {
          "internalType": "address",
          "name": "token",
          "type": "address"
        }
      ],
      "name": "setup",
      "outputs": [
        {
          "internalType": "bool",
          "name": "",
          "type": "bool"
        }
      ],
      "stateMutability": "nonpayable",
      "type": "function"
    },
    {
      "stateMutability": "payable",
      "type": "receive"
    },
    {
      "inputs": [
        {
          "internalType": "bytes",
          "name": "data",
          "type": "bytes"
        }
      ],
      "name": "repayLoan",
      "outputs": [
        {
          "internalType": "bool",
          "name": "",
          "type": "bool"
        }
      ],
      "stateMutability": "nonpayable",
      "type": "function"
    },
    {
      "inputs": [
        {
          "internalType": "bytes",
          "name": "data",
          "type": "bytes"
        }
      ],
      "name": "defaultLoan",
      "outputs": [
        {
          "internalType": "bool",
          "name": "",
          "type": "bool"
        }
      ],
      "stateMutability": "nonpayable",
      "type": "function"
    }
  ],
  "bytecode": "0x608060405234801561001057600080fd5b5061243f806100206000396000f3fe6080604052600436106100595760003560e01c806323e3b730146100625780632692f25a146100985780632d34ba79146100b857806356b8e146146100e5578063c4ddf36314610105578063fd00430c1461012557610060565b3661006057005b005b34801561006e57600080fd5b5061008261007d366004611a3b565b610145565b60405161008f9190611f0a565b60405180910390f35b3480156100a457600080fd5b506100606100b3366004611a89565b6101e4565b3480156100c457600080fd5b506100d86100d3366004611a03565b610471565b60405161008f9190611ed0565b3480156100f157600080fd5b506100d8610100366004611afc565b6104db565b34801561011157600080fd5b506100d8610120366004611afc565b61088f565b34801561013157600080fd5b50610082610140366004611a3b565b610d23565b606033301461016f5760405162461bcd60e51b815260040161016690611fdd565b60405180910390fd5b60006060846001600160a01b03168460405161018b9190611dcc565b600060405180830381855af49150503d80600081146101c6576040519150601f19603f3d011682016040523d82523d6000602084013e6101cb565b606091505b5091509150816101da57600080fd5b9150505b92915050565b6001546001600160a01b031633148061020757506000546001600160a01b031633145b6102235760405162461bcd60e51b81526004016101669061207c565b600061023f61023a8383600463ffffffff610db816565b610de1565b60e01b905061024c6115f2565b604051632f1a48af60e01b815273__BorrowProxyLib________________________90632f1a48af90610288906000908990879060040161222e565b60c06040518083038186803b1580156102a057600080fd5b505af41580156102b4573d6000803e3d6000fd5b505050506040513d601f19601f820116820180604052508101906102d89190611b7e565b6002546001600160a01b03166020820152600054909150600160a01b900460ff1680156103085750604081015151155b156103ab5760006060866001600160a01b0316868660405161032a9190611dcc565b60006040518083038185875af1925050503d8060008114610367576040519150601f19603f3d011682016040523d82523d6000602084013e61036c565b606091505b5091509150816103985761037f81610dfe565b60405162461bcd60e51b81526004016101669190611f0a565b6103a28282610ef1565b5050505061046c565b6103b88160400151610f06565b6103d45760405162461bcd60e51b815260040161016690611fa6565b600060606103e983868863ffffffff610f1816565b91509150816103fb5761037f81610dfe565b60408084015101516001600160a01b03161561042b57604080840151015161042b9060079063ffffffff610fc016565b6040830151606001516001600160a01b03161561045d5760408301516060015161045d9060099063ffffffff610fc016565b6104678282610ef1565b505050505b505050565b6001546000906001600160a01b03161561049d5760405162461bcd60e51b815260040161016690611f1d565b5060008054336001600160a01b0319918216179091556001805482166001600160a01b03948516178155600280549092169290931691909117905590565b60065460009060ff16156105015760405162461bcd60e51b815260040161016690611f7b565b600054600160a01b900460ff161561052b5760405162461bcd60e51b8152600401610166906120c5565b6105348261101a565b6105505760405162461bcd60e51b81526004016101669061204e565b610558611616565b6105618361109d565b60088054604080516020808402820181019092528281529394506060939291908301828280156105ba57602002820191906000526020600020905b81546001600160a01b0316815260019091019060200180831161059c575b50505050509050438260200151602001516000015110610883576006805461ff0019166101001790556004545b815181101561063f576207a1205a1080610623575061062182828151811061060b57fe5b60200260200101516001600160a01b03166110b9565b155b1561063757600455506000915061088a9050565b6001016105e7565b5080516004908155600080548451602001516040516370a0823160e01b81526001600160a01b039283169491909216916370a082319161068191309101611de8565b60206040518083038186803b15801561069957600080fd5b505afa1580156106ad573d6000803e3d6000fd5b505050506040513d601f19601f820116820180604052508101906106d19190611d10565b8451602001519091506106f4906001600160a01b0316838363ffffffff61118016565b6107105760405162461bcd60e51b8152600401610166906121e4565b602080850151810151015184516060015182101561074a578451606001518203811115610746578451606001518203900361074a565b5060005b8451602001516040516303cc556d60e51b8152828403916001600160a01b0386169163801874ec9190839063798aada090610789908490600401611de8565b60206040518083038186803b1580156107a157600080fd5b505afa1580156107b5573d6000803e3d6000fd5b505050506040513d601f19601f820116820180604052508101906107d99190611b2f565b60208a0151516040516001600160e01b031960e086901b1681526108069392919088908890600401611e5f565b602060405180830381600087803b15801561082057600080fd5b505af1158015610834573d6000803e3d6000fd5b505050506040513d601f19601f820116820180604052508101906108589190611ae0565b6108745760405162461bcd60e51b8152600401610166906121ad565b6001965050505050505061088a565b6000925050505b919050565b6000610899611636565b6108a2836111f2565b90506108b96108b4826000015161120e565b61101a565b6108d55760405162461bcd60e51b81526004016101669061204e565b600654610100900460ff16156108fd5760405162461bcd60e51b815260040161016690612176565b80518051606001516000916109179163ffffffff61123716565b60008054845151602001516040516303cc556d60e51b815293945091926001600160a01b039091169163798aada0916109539190600401611de8565b60206040518083038186803b15801561096b57600080fd5b505afa15801561097f573d6000803e3d6000fd5b505050506040513d601f19601f820116820180604052508101906109a39190611b2f565b60065490915060009060ff16610b30576006805460ff19166001179055600054845151602001516040516307ef1e3760e21b81526001600160a01b0390921691631fbc78dc916109f591600401611de8565b60206040518083038186803b158015610a0d57600080fd5b505afa158015610a21573d6000803e3d6000fd5b505050506040513d601f19601f82011682018060405250810190610a459190611b2f565b6001600160a01b031663159ab14d856060015186600001516000015160600151610a6e88611277565b88608001516040518563ffffffff1660e01b8152600401610a929493929190611edb565b602060405180830381600087803b158015610aac57600080fd5b505af1158015610ac0573d6000803e3d6000fd5b505050506040513d601f19601f82011682018060405250810190610ae49190611d10565b600381905584515160200151909150610b0f906001600160a01b03168385840363ffffffff61118016565b610b2b5760405162461bcd60e51b81526004016101669061201f565b610b35565b506003545b600a80546040805160208084028201810190925282815260609390929091830182828015610b8c57602002820191906000526020600020905b81546001600160a01b03168152600190910190602001808311610b6e575b50506005549394505050505b8151811015610bf3576207a1205a1080610bd45750610bd2828281518110610bbc57fe5b60200260200101516001600160a01b03166112b9565b155b15610beb57600555506000945061088a9350505050565b600101610b98565b506000805460ff60a01b1916600160a01b17905584516020808201515191510151610c30916001600160a01b03909116908663ffffffff61118016565b610c4c5760405162461bcd60e51b815260040161016690611f4d565b600080548651805160209081015191810151805190820151909101516040516320061d3b60e21b81526001600160a01b039094169463801874ec94610c9a94938a9390929091600401611e5f565b602060405180830381600087803b158015610cb457600080fd5b505af1158015610cc8573d6000803e3d6000fd5b505050506040513d601f19601f82011682018060405250810190610cec9190611ae0565b610d085760405162461bcd60e51b815260040161016690612133565b8451805151610d169161130e565b5060019695505050505050565b606060006060846001600160a01b0316610d3d8686611353565b604051610d4a9190611dcc565b600060405180830381855afa9150503d8060008114610d85576040519150601f19603f3d011682016040523d82523d6000602084013e610d8a565b606091505b5091509150818190610daf5760405162461bcd60e51b81526004016101669190611f0a565b50949350505050565b610dc061166d565b610dca8484611399565b815260208101919091526040810191909152919050565b8051602082015160009190610df682826113a0565b949350505050565b6060815160001415610e44575060408051808201909152601c81527f636170747572656420656d707479207265766572742062756666657200000000602082015261088a565b6308c379a0610e5961023a8460006004610db8565b63ffffffff1614610e84576040518060600160405280603f81526020016123cb603f9139905061088a565b6060610e9f610e9a84600463ffffffff6113bd16565b6113e1565b9050805160001415610ee657505060408051808201909152601d81527f636170747572656420656d70747920726576657274206d657373616765000000602082015261088a565b6060610df682611451565b81610efe57805181602001fd5b805181602001f35b602001516001600160a01b0316151590565b60006060600060608660400151602001516001600160a01b03165a610f638960400151602001518a60400151604001518b60400151606001518c60200151328e600001518d8f611467565b604051610f709190611dcc565b6000604051808303818686f4925050503d8060008114610fac576040519150601f19603f3d011682016040523d82523d6000602084013e610fb1565b606091505b50909890975095505050505050565b6001600160a01b03811660009081526020839052604090205460ff1615610fe657611016565b6001828101805491820181556000908152602090200180546001600160a01b0319166001600160a01b0383161790555b5050565b600080546040516308f6049560e01b81526001600160a01b03909116906308f604959061104b908590600401611f0a565b602060405180830381600087803b15801561106557600080fd5b505af1158015611079573d6000803e3d6000fd5b505050506040513d601f19601f820116820180604052508101906101de9190611ae0565b6110a5611616565b818060200190518101906101de9190611c2f565b6000806060836001600160a01b0316846040516024016110d99190611de8565b60408051601f198184030181529181526020820180516001600160e01b03166305f0caad60e31b1790525161110e9190611dcc565b600060405180830381855af49150503d8060008114611149576040519150601f19603f3d011682016040523d82523d6000602084013e61114e565b606091505b5091509150816111615761037f81610dfe565b6000818060200190518101906111779190611ae0565b95945050505050565b600080846001600160a01b031661119785856114a5565b6040516111a49190611dcc565b6000604051808303816000865af19150503d80600081146111e1576040519150601f19603f3d011682016040523d82523d6000602084013e6111e6565b606091505b50909695505050505050565b6111fa611636565b818060200190518101906101de9190611c62565b6060816040516020016112219190612257565b6040516020818303038152906040529050919050565b6000611270670de0b6b3a764000061126485602001516020015160600151856114fb90919063ffffffff16565b9063ffffffff61153516565b9392505050565b80515160409081015160208084015183850151935160009461129c9493909101611db6565b604051602081830303815290604052805190602001209050919050565b6000806060836001600160a01b0316846040516024016112d99190611de8565b60408051601f198184030181529181526020820180516001600160e01b0316639f7c73e960e01b1790525161110e9190611dcc565b816001600160a01b03167fde947e8b6051ad11f984637f1fd1be5fc4b62225fcbf933475f7783ac5e2bd5f826040516113479190612257565b60405180910390a25050565b60608282604051602401611368929190611e93565b60408051601f198184030181529190526020810180516001600160e01b031663023e3b7360e41b1790529392505050565b0160200190565b6000600180600884021b0380836020038503511691505092915050565b6113c561166d565b81835110156113d357825191505b611270838384865103610db8565b60208101516060908067ffffffffffffffff8111801561140057600080fd5b506040519080825280601f01601f19166020018201604052801561142b576020820181803683370190505b508351909250600061143c84611577565b905061144981838561157d565b505050919050565b6060818060200190518101906101de9190611b4b565b60608888888888888888604051602001611488989796959493929190611dfc565b604051602081830303815290604052905098975050505050505050565b606063a9059cbb60e01b83836040516024016114c2929190611eb7565b60408051601f198184030181529190526020810180516001600160e01b03166001600160e01b0319909316929092179091529392505050565b60008261150a575060006101de565b8282028284828161151757fe5b04146112705760405162461bcd60e51b8152600401610166906120f2565b600061127083836040518060400160405280601a81526020017f536166654d6174683a206469766973696f6e206279207a65726f0000000000008152506115bb565b60200190565b5b6020811061159d578151835260209283019290910190601f190161157e565b600180600883602003021b0380845116811984511617845250505050565b600081836115dc5760405162461bcd60e51b81526004016101669190611f0a565b5060008385816115e857fe5b0495945050505050565b604080516060810182526000808252602082015290810161161161168e565b905290565b60405180604001604052806116296116b5565b81526020016116116116ec565b6040518060a00160405280611649611616565b81526000602082018190526040820181905260608083019190915260809091015290565b60405180606001604052806000815260200160008152602001600081525090565b60408051608081018252600080825260208201819052918101829052606081019190915290565b6040805160c0810182526000808252602082018190529181018290526060808201839052608082019290925260a081019190915290565b604051806040016040528060006001600160a01b031681526020016116116040518060800160405280600081526020016000815260200160008152602001600081525090565b80516101de816123a4565b600082601f83011261174d578081fd5b815167ffffffffffffffff80821115611764578283fd5b60206117738182850201612329565b838152935080840185820160005b858110156117f15781518801604080601f19838d030112156117a257600080fd5b6117ab81612329565b6117b78c888501611732565b815281830151888111156117ca57600080fd5b6117d88d8983870101611860565b8289015250855250509183019190830190600101611781565b50505050505092915050565b805180151581146101de57600080fd5b600082601f83011261181d578081fd5b813561183061182b82612350565b612329565b915080825283602082850101111561184757600080fd5b8060208401602084013760009082016020015292915050565b600082601f830112611870578081fd5b815161187e61182b82612350565b915080825283602082850101111561189557600080fd5b6118a6816020840160208601612374565b5092915050565b600081830360a08112156118bf578182fd5b6118c96040612329565b915082516118d6816123a4565b82526080601f19820112156118ea57600080fd5b506118f56080612329565b602083015181526040830151602082015260608301516040820152608083015160608201528060208301525092915050565b600060c08284031215611938578081fd5b6119426040612329565b9050815167ffffffffffffffff8082111561195c57600080fd5b81840160c0818703121561196f57600080fd5b61197960c0612329565b92508051611986816123a4565b83526020810151611996816123a4565b8060208501525060408101516040840152606081015160608401526119be86608083016117fd565b608084015260a0810151828111156119d557600080fd5b6119e18782840161173d565b60a085015250505081526119f883602084016118ad565b602082015292915050565b60008060408385031215611a15578182fd5b8235611a20816123a4565b91506020830135611a30816123a4565b809150509250929050565b60008060408385031215611a4d578182fd5b8235611a58816123a4565b9150602083013567ffffffffffffffff811115611a73578182fd5b611a7f8582860161180d565b9150509250929050565b600080600060608486031215611a9d578081fd5b8335611aa8816123a4565b925060208401359150604084013567ffffffffffffffff811115611aca578182fd5b611ad68682870161180d565b9150509250925092565b600060208284031215611af1578081fd5b8151611270816123bc565b600060208284031215611b0d578081fd5b813567ffffffffffffffff811115611b23578182fd5b610df68482850161180d565b600060208284031215611b40578081fd5b8151611270816123a4565b600060208284031215611b5c578081fd5b815167ffffffffffffffff811115611b72578182fd5b610df684828501611860565b600081830360c0811215611b90578182fd5b611b9a6060612329565b8351611ba5816123a4565b81526020840151611bb5816123a4565b60208201526080603f1983011215611bcb578283fd5b611bd56080612329565b91506040840151611be5816123bc565b82526060840151611bf5816123a4565b60208301526080840151611c08816123a4565b604083015260a0840151611c1b816123a4565b606083015260408101919091529392505050565b600060208284031215611c40578081fd5b815167ffffffffffffffff811115611c56578182fd5b610df684828501611927565b600060208284031215611c73578081fd5b815167ffffffffffffffff80821115611c8a578283fd5b81840160a08187031215611c9c578384fd5b611ca660a0612329565b9250805182811115611cb6578485fd5b611cc287828401611927565b845250602081015160208401526040810151604084015260608101516060840152608081015182811115611cf4578485fd5b611d0087828401611860565b6080850152509195945050505050565b600060208284031215611d21578081fd5b5051919050565b60008151808452611d40816020860160208601612374565b601f01601f19169290920160200192915050565b600060018060a01b038251168352602082015160406020850152610df66040850182611d28565b60018060a01b038151168252602081015180516020840152602081015160408401526040810151606084015260608101516080840152505050565b9283526020830191909152604082015260600190565b60008251611dde818460208701612374565b9190910192915050565b6001600160a01b0391909116815260200190565b6001600160a01b0389811682528881166020830152878116604083015286811660608301528581166080830152841660a082015260c0810183905261010060e08201819052600090611e5083820185611d28565b9b9a5050505050505050505050565b6001600160a01b03958616815293851660208501529190931660408301526060820192909252608081019190915260a00190565b6001600160a01b0383168152604060208201819052600090610df690830184611d28565b6001600160a01b03929092168252602082015260400190565b901515815260200190565b600085825284602083015283604083015260806060830152611f006080830184611d28565b9695505050505050565b6000602082526112706020830184611d28565b60208082526016908201527563616e277420696e697469616c697a6520747769636560501b604082015260600190565b6020808252601490820152731ad9595c195c881c185e5bdd5d0819985a5b195960621b604082015260600190565b6020808252601190820152701b1bd85b8818995a5b99c81c995c185a59607a1b604082015260600190565b6020808252601f908201527f66756e6374696f6e2068616e646c6572206e6f74207265676973746572656400604082015260600190565b60208082526022908201527f756e617574686f72697a65642076696577206c617965722064656c656761746960408201526137b760f11b606082015260800190565b6020808252601590820152741d1bdad95b881d1c985b9cd9995c8819985a5b1959605a1b604082015260600190565b6020808252601490820152731c1c9bde1e481c9958dbdc99081a5b9d985b1a5960621b604082015260600190565b60208082526029908201527f626f72726f772070726f78792063616e206f6e6c792062652075736564206279604082015268103137b93937bbb2b960b91b606082015260800190565b6020808252601390820152721b1bd85b88185b1c9958591e481c995c185a59606a1b604082015260600190565b60208082526021908201527f536166654d6174683a206d756c7469706c69636174696f6e206f766572666c6f6040820152607760f81b606082015260800190565b60208082526023908201527f6c6f616e207265736f6c7574696f6e206e6f74696669636174696f6e206661696040820152621b195960ea1b606082015260800190565b60208082526019908201527f70726f7879206973206265696e67206c69717569646174656400000000000000604082015260600190565b60208082526017908201527f6c6f616e207265736f6c7574696f6e206661696c757265000000000000000000604082015260600190565b6020808252602a908201527f6661696c656420746f207472616e73666572207265636c61696d65642066756e604082015269191cc81d1bc81c1bdbdb60b21b606082015260800190565b9283526001600160a01b039190911660208301526001600160e01b031916604082015260600190565b6020808252825160c083830181905281516001600160a01b0390811660e08601528284015116610100850152604082015161012085015260608201516101408501526080820151151561016085015260a09091015161018084019190915280516101a08401819052600092916101c0808601929184019185918186028801015b8183101561230a576101bf198882030185526122f4818551611d54565b94860194938601936001939093019290506122d7565b85890151945061231d6040890186611d7b565b98975050505050505050565b60405181810167ffffffffffffffff8111828210171561234857600080fd5b604052919050565b600067ffffffffffffffff821115612366578081fd5b50601f01601f191660200190565b60005b8381101561238f578181015183820152602001612377565b8381111561239e576000848401525b50505050565b6001600160a01b03811681146123b957600080fd5b50565b80151581146123b957600080fdfe6361707475726564206120726576657274206572726f722c2062757420697420646f65736e277420636f6e666f726d20746f20746865207374616e64617264a26469706673582212206c00ec11d1e8fe5bec7d82a85a95d78a8d38c72fddd804a47767861299fd6cba64736f6c63430006050033",
  "source": "pragma solidity ^0.6.0;\npragma experimental ABIEncoderV2;\n\nimport { BorrowProxy } from \"./BorrowProxy.sol\";\nimport { ShifterPool } from \"./ShifterPool.sol\";\nimport { ShifterBorrowProxyLib } from \"./ShifterBorrowProxyLib.sol\";\nimport { ILiquidationModule } from \"./interfaces/ILiquidationModule.sol\";\nimport { TokenUtils } from \"./utils/TokenUtils.sol\";\nimport { LiquidityToken } from \"./LiquidityToken.sol\";\nimport { IERC20 } from \"openzeppelin-solidity/contracts/token/ERC20/IERC20.sol\";\n\ncontract ShifterBorrowProxy is BorrowProxy {\n  using ShifterBorrowProxyLib for *;\n  using TokenUtils for *;\n  constructor() BorrowProxy() public {}\n  uint256 constant MINIMUM_GAS_CONTINUE = 5e5;\n  function repayLoan(bytes memory data) public returns (bool) {\n    (ShifterBorrowProxyLib.TriggerParcel memory parcel) = data.decodeTriggerParcel();\n    require(validateProxyRecord(parcel.record.encodeProxyRecord()), \"proxy record invalid\");\n    require(!isolate.isLiquidating, \"proxy is being liquidated\");\n    uint256 fee = parcel.record.computeAdjustedKeeperFee(parcel.record.request.amount);\n    LiquidityToken liquidityToken = ShifterPool(isolate.masterAddress).getLiquidityTokenHandler(parcel.record.request.token);\n    uint256 amount;\n    if (!isolate.isRepaying) {\n      isolate.isRepaying = true;\n      isolate.actualizedShift = amount = ShifterPool(isolate.masterAddress).getShifterHandler(parcel.record.request.token).mint(parcel.pHash, parcel.record.request.amount, parcel.computeNHash(), parcel.darknodeSignature);\n      require(parcel.record.request.token.sendToken(address(liquidityToken), amount - fee), \"token transfer failed\");\n    } else amount = isolate.actualizedShift;\n    address[] memory set = isolate.repaymentSet.set;\n    for (uint256 i = isolate.repaymentIndex; i < set.length; i++) {\n      if (gasleft() < MINIMUM_GAS_CONTINUE || !set[i].delegateRepay()) {\n        isolate.repaymentIndex = i;\n        return false;\n      }\n    }\n    isolate.unbound = true;\n    require(parcel.record.request.token.sendToken(parcel.record.loan.keeper, fee), \"keeper payout failed\");\n    require(ShifterPool(isolate.masterAddress).relayResolveLoan(parcel.record.request.token, address(liquidityToken), parcel.record.loan.keeper, parcel.record.loan.params.bond, 0), \"loan resolution notification failed\");\n    ShifterBorrowProxyLib.emitShifterBorrowProxyRepaid(parcel.record.request.borrower, parcel.record);\n    return true;\n  }\n  function defaultLoan(bytes memory data) public returns (bool) {\n    require(!isolate.isRepaying, \"loan being repaid\");\n    require(!isolate.unbound, \"loan already repaid\");\n    require(validateProxyRecord(data), \"proxy record invalid\");\n    ShifterBorrowProxyLib.ProxyRecord memory record = data.decodeProxyRecord();\n    address[] memory set = isolate.liquidationSet.set;\n    if (record.loan.params.timeoutExpiry >= block.number) {\n      isolate.isLiquidating = true;\n      for (uint256 i = isolate.liquidationIndex; i < set.length; i++) {\n        if (gasleft() < MINIMUM_GAS_CONTINUE || !set[i].delegateLiquidate()) {\n          isolate.liquidationIndex = i;\n          return false;\n        }\n      }\n      isolate.liquidationIndex = set.length;\n      ShifterPool pool = ShifterPool(isolate.masterAddress);\n      uint256 postBalance = IERC20(record.request.token).balanceOf(address(this));\n      require(record.request.token.sendToken(address(pool), postBalance), \"failed to transfer reclaimed funds to pool\");\n      uint256 bond = record.loan.params.bond;\n      if (postBalance < record.request.amount) {\n        if (bond > postBalance - record.request.amount) {\n          bond -= (postBalance - record.request.amount);\n        } else {\n          bond = 0;\n        }\n      }\n      uint256 repay = postBalance - bond;\n      require(pool.relayResolveLoan(record.request.token, address(pool.getLiquidityTokenHandler(record.request.token)), record.loan.keeper, bond, repay), \"loan resolution failure\");\n      return true;\n    }\n    return false;\n  }\n  fallback() external payable override {}\n  receive() external payable override {}\n}\n",
  "sourcePath": "/home/ray/0confirmation/packages/0confirmation-sol/contracts/ShifterBorrowProxy.sol",
  "compiler": {
    "name": "solc",
    "version": "0.6.5+commit.f956cc89.Emscripten.clang"
  },
  "schemaVersion": "3.0.23",
  "updatedAt": "2020-04-22T10:43:36.600Z",
  "devdoc": {
    "methods": {}
  },
  "userdoc": {
    "methods": {}
  }
}