{
  "contractName": "ShifterPool",
  "abi": [
    {
      "inputs": [],
      "stateMutability": "nonpayable",
      "type": "constructor"
    },
    {
      "anonymous": false,
      "inputs": [
        {
          "indexed": true,
          "internalType": "address",
          "name": "previousOwner",
          "type": "address"
        },
        {
          "indexed": true,
          "internalType": "address",
          "name": "newOwner",
          "type": "address"
        }
      ],
      "name": "OwnershipTransferred",
      "type": "event"
    },
    {
      "inputs": [
        {
          "internalType": "bytes",
          "name": "creationCode",
          "type": "bytes"
        },
        {
          "internalType": "bytes",
          "name": "context",
          "type": "bytes"
        }
      ],
      "name": "_executeSafeView",
      "outputs": [],
      "stateMutability": "nonpayable",
      "type": "function"
    },
    {
      "inputs": [
        {
          "internalType": "bytes",
          "name": "consData",
          "type": "bytes"
        }
      ],
      "name": "cloneConstructor",
      "outputs": [],
      "stateMutability": "nonpayable",
      "type": "function"
    },
    {
      "inputs": [],
      "name": "owner",
      "outputs": [
        {
          "internalType": "address",
          "name": "",
          "type": "address"
        }
      ],
      "stateMutability": "view",
      "type": "function"
    },
    {
      "inputs": [
        {
          "internalType": "bytes",
          "name": "creationCode",
          "type": "bytes"
        },
        {
          "internalType": "bytes",
          "name": "context",
          "type": "bytes"
        }
      ],
      "name": "query",
      "outputs": [
        {
          "components": [
            {
              "internalType": "bool",
              "name": "success",
              "type": "bool"
            },
            {
              "internalType": "bytes",
              "name": "data",
              "type": "bytes"
            }
          ],
          "internalType": "struct SafeViewLib.SafeViewResult",
          "name": "",
          "type": "tuple"
        }
      ],
      "stateMutability": "nonpayable",
      "type": "function"
    },
    {
      "inputs": [],
      "name": "renounceOwnership",
      "outputs": [],
      "stateMutability": "nonpayable",
      "type": "function"
    },
    {
      "inputs": [
        {
          "internalType": "address",
          "name": "newOwner",
          "type": "address"
        }
      ],
      "name": "transferOwnership",
      "outputs": [],
      "stateMutability": "nonpayable",
      "type": "function"
    },
    {
      "inputs": [
        {
          "components": [
            {
              "internalType": "address",
              "name": "shifterRegistry",
              "type": "address"
            },
            {
              "internalType": "uint256",
              "name": "minTimeout",
              "type": "uint256"
            },
            {
              "internalType": "uint256",
              "name": "poolFee",
              "type": "uint256"
            },
            {
              "internalType": "uint256",
              "name": "daoFee",
              "type": "uint256"
            },
            {
              "internalType": "uint256",
              "name": "maxLoan",
              "type": "uint256"
            }
          ],
          "internalType": "struct ShifterPoolLib.SetupParams",
          "name": "params",
          "type": "tuple"
        },
        {
          "components": [
            {
              "internalType": "enum BorrowProxyLib.ModuleRegistrationType",
              "name": "moduleType",
              "type": "uint8"
            },
            {
              "internalType": "address",
              "name": "target",
              "type": "address"
            },
            {
              "internalType": "bytes4[]",
              "name": "sigs",
              "type": "bytes4[]"
            }
          ],
          "internalType": "struct BorrowProxyLib.ModuleDetails[]",
          "name": "moduleDetails",
          "type": "tuple[]"
        },
        {
          "components": [
            {
              "internalType": "bool",
              "name": "isPrecompiled",
              "type": "bool"
            },
            {
              "internalType": "address",
              "name": "assetSubmodule",
              "type": "address"
            },
            {
              "internalType": "address",
              "name": "liquidationSubmodule",
              "type": "address"
            },
            {
              "internalType": "address",
              "name": "repaymentSubmodule",
              "type": "address"
            }
          ],
          "internalType": "struct BorrowProxyLib.Module[]",
          "name": "modules",
          "type": "tuple[]"
        },
        {
          "components": [
            {
              "internalType": "address",
              "name": "token",
              "type": "address"
            },
            {
              "internalType": "address",
              "name": "liqToken",
              "type": "address"
            }
          ],
          "internalType": "struct ShifterPoolLib.LiquidityTokenLaunch[]",
          "name": "tokenLaunches",
          "type": "tuple[]"
        }
      ],
      "name": "setup",
      "outputs": [],
      "stateMutability": "nonpayable",
      "type": "function"
    },
    {
      "inputs": [
        {
          "internalType": "address",
          "name": "token",
          "type": "address"
        }
      ],
      "name": "getLiquidityTokenForTokenHandler",
      "outputs": [
        {
          "internalType": "address",
          "name": "",
          "type": "address"
        }
      ],
      "stateMutability": "view",
      "type": "function"
    },
    {
      "inputs": [],
      "name": "deployBorrowProxyImplementation",
      "outputs": [],
      "stateMutability": "nonpayable",
      "type": "function"
    },
    {
      "inputs": [],
      "name": "deployAssetForwarderImplementation",
      "outputs": [],
      "stateMutability": "nonpayable",
      "type": "function"
    },
    {
      "inputs": [
        {
          "internalType": "bytes32",
          "name": "salt",
          "type": "bytes32"
        }
      ],
      "name": "deployAssetForwarderClone",
      "outputs": [
        {
          "internalType": "address",
          "name": "created",
          "type": "address"
        }
      ],
      "stateMutability": "nonpayable",
      "type": "function"
    },
    {
      "inputs": [],
      "name": "getAssetForwarderImplementationHandler",
      "outputs": [
        {
          "internalType": "address",
          "name": "implementation",
          "type": "address"
        }
      ],
      "stateMutability": "view",
      "type": "function"
    },
    {
      "inputs": [
        {
          "components": [
            {
              "components": [
                {
                  "internalType": "address payable",
                  "name": "borrower",
                  "type": "address"
                },
                {
                  "internalType": "address",
                  "name": "token",
                  "type": "address"
                },
                {
                  "internalType": "bytes32",
                  "name": "nonce",
                  "type": "bytes32"
                },
                {
                  "internalType": "uint256",
                  "name": "amount",
                  "type": "uint256"
                },
                {
                  "internalType": "bool",
                  "name": "forbidLoan",
                  "type": "bool"
                },
                {
                  "components": [
                    {
                      "internalType": "address",
                      "name": "to",
                      "type": "address"
                    },
                    {
                      "internalType": "bytes",
                      "name": "txData",
                      "type": "bytes"
                    }
                  ],
                  "internalType": "struct ShifterBorrowProxyLib.InitializationAction[]",
                  "name": "actions",
                  "type": "tuple[]"
                }
              ],
              "internalType": "struct ShifterBorrowProxyLib.LiquidityRequest",
              "name": "request",
              "type": "tuple"
            },
            {
              "internalType": "uint256",
              "name": "gasRequested",
              "type": "uint256"
            },
            {
              "internalType": "bytes",
              "name": "signature",
              "type": "bytes"
            }
          ],
          "internalType": "struct ShifterBorrowProxyLib.LiquidityRequestParcel",
          "name": "liquidityRequestParcel",
          "type": "tuple"
        },
        {
          "internalType": "uint256",
          "name": "bond",
          "type": "uint256"
        },
        {
          "internalType": "uint256",
          "name": "timeoutExpiry",
          "type": "uint256"
        }
      ],
      "name": "executeBorrow",
      "outputs": [],
      "stateMutability": "payable",
      "type": "function"
    },
    {
      "inputs": [
        {
          "components": [
            {
              "components": [
                {
                  "components": [
                    {
                      "internalType": "address payable",
                      "name": "borrower",
                      "type": "address"
                    },
                    {
                      "internalType": "address",
                      "name": "token",
                      "type": "address"
                    },
                    {
                      "internalType": "bytes32",
                      "name": "nonce",
                      "type": "bytes32"
                    },
                    {
                      "internalType": "uint256",
                      "name": "amount",
                      "type": "uint256"
                    },
                    {
                      "internalType": "bool",
                      "name": "forbidLoan",
                      "type": "bool"
                    },
                    {
                      "components": [
                        {
                          "internalType": "address",
                          "name": "to",
                          "type": "address"
                        },
                        {
                          "internalType": "bytes",
                          "name": "txData",
                          "type": "bytes"
                        }
                      ],
                      "internalType": "struct ShifterBorrowProxyLib.InitializationAction[]",
                      "name": "actions",
                      "type": "tuple[]"
                    }
                  ],
                  "internalType": "struct ShifterBorrowProxyLib.LiquidityRequest",
                  "name": "request",
                  "type": "tuple"
                },
                {
                  "internalType": "uint256",
                  "name": "gasRequested",
                  "type": "uint256"
                },
                {
                  "internalType": "bytes",
                  "name": "signature",
                  "type": "bytes"
                }
              ],
              "internalType": "struct ShifterBorrowProxyLib.LiquidityRequestParcel",
              "name": "liquidityRequestParcel",
              "type": "tuple"
            },
            {
              "components": [
                {
                  "internalType": "bytes32",
                  "name": "txhash",
                  "type": "bytes32"
                },
                {
                  "internalType": "uint256",
                  "name": "vout",
                  "type": "uint256"
                },
                {
                  "internalType": "bytes32",
                  "name": "pHash",
                  "type": "bytes32"
                },
                {
                  "internalType": "bytes",
                  "name": "darknodeSignature",
                  "type": "bytes"
                }
              ],
              "internalType": "struct ShifterBorrowProxyLib.ShiftParameters",
              "name": "shiftParameters",
              "type": "tuple"
            },
            {
              "components": [
                {
                  "internalType": "address",
                  "name": "to",
                  "type": "address"
                },
                {
                  "internalType": "bytes",
                  "name": "txData",
                  "type": "bytes"
                }
              ],
              "internalType": "struct ShifterBorrowProxyLib.InitializationAction[]",
              "name": "actions",
              "type": "tuple[]"
            }
          ],
          "internalType": "struct ShifterBorrowProxyLib.SansBorrowShiftParcel",
          "name": "parcel",
          "type": "tuple"
        }
      ],
      "name": "executeShiftSansBorrow",
      "outputs": [],
      "stateMutability": "payable",
      "type": "function"
    },
    {
      "inputs": [
        {
          "internalType": "bytes",
          "name": "proxyRecord",
          "type": "bytes"
        }
      ],
      "name": "validateProxyRecordHandler",
      "outputs": [
        {
          "internalType": "bool",
          "name": "",
          "type": "bool"
        }
      ],
      "stateMutability": "view",
      "type": "function"
    },
    {
      "inputs": [
        {
          "internalType": "address",
          "name": "proxyAddress",
          "type": "address"
        }
      ],
      "name": "getProxyTokenHandler",
      "outputs": [
        {
          "internalType": "address",
          "name": "",
          "type": "address"
        }
      ],
      "stateMutability": "view",
      "type": "function"
    },
    {
      "inputs": [
        {
          "internalType": "address",
          "name": "user",
          "type": "address"
        }
      ],
      "name": "getProxyOwnerHandler",
      "outputs": [
        {
          "internalType": "address",
          "name": "",
          "type": "address"
        }
      ],
      "stateMutability": "view",
      "type": "function"
    },
    {
      "inputs": [
        {
          "internalType": "address",
          "name": "token",
          "type": "address"
        }
      ],
      "name": "getShifterHandler",
      "outputs": [
        {
          "internalType": "contract IShifter",
          "name": "",
          "type": "address"
        }
      ],
      "stateMutability": "view",
      "type": "function"
    },
    {
      "inputs": [
        {
          "internalType": "address",
          "name": "token",
          "type": "address"
        }
      ],
      "name": "getLiquidityTokenHandler",
      "outputs": [
        {
          "internalType": "contract LiquidityToken",
          "name": "",
          "type": "address"
        }
      ],
      "stateMutability": "view",
      "type": "function"
    },
    {
      "inputs": [
        {
          "internalType": "address",
          "name": "to",
          "type": "address"
        },
        {
          "internalType": "bytes4",
          "name": "sig",
          "type": "bytes4"
        }
      ],
      "name": "fetchModuleHandler",
      "outputs": [
        {
          "components": [
            {
              "internalType": "bool",
              "name": "isPrecompiled",
              "type": "bool"
            },
            {
              "internalType": "address",
              "name": "assetSubmodule",
              "type": "address"
            },
            {
              "internalType": "address",
              "name": "liquidationSubmodule",
              "type": "address"
            },
            {
              "internalType": "address",
              "name": "repaymentSubmodule",
              "type": "address"
            }
          ],
          "internalType": "struct BorrowProxyLib.Module",
          "name": "",
          "type": "tuple"
        }
      ],
      "stateMutability": "view",
      "type": "function"
    },
    {
      "inputs": [
        {
          "internalType": "address",
          "name": "token",
          "type": "address"
        },
        {
          "internalType": "address",
          "name": "liquidityToken",
          "type": "address"
        },
        {
          "internalType": "address",
          "name": "keeper",
          "type": "address"
        },
        {
          "internalType": "uint256",
          "name": "bond",
          "type": "uint256"
        },
        {
          "internalType": "uint256",
          "name": "repay",
          "type": "uint256"
        },
        {
          "internalType": "uint256",
          "name": "originalAmount",
          "type": "uint256"
        }
      ],
      "name": "relayResolveLoan",
      "outputs": [
        {
          "internalType": "bool",
          "name": "",
          "type": "bool"
        }
      ],
      "stateMutability": "nonpayable",
      "type": "function"
    }
  ],
  "bytecode": "0x60806040523480156200001157600080fd5b506000620000276001600160e01b036200007b16565b600080546001600160a01b0319166001600160a01b0383169081178255604051929350917f8be0079c531659141344cd1fd0a4f28419497f9722a3daafe3b4186f6b6457e0908290a350436001556200007f565b3390565b61428b806200008f6000396000f3fe60806040526004361061012a5760003560e01c806365ba837a116100ab578063c2006b621161006f578063c2006b621461030a578063d0a80e311461032a578063dc74245e1461034a578063e6c1f0741461035d578063f2fde38b1461037d578063f7a94ce21461039d5761012a565b806365ba837a14610296578063715018a6146102ab578063798aada0146102c05780638da5cb5b146102e057806393e93abe146102f55761012a565b806334686eaf116100f257806334686eaf146101e7578063441123601461021457806352e831dd146102415780635f7d2b571461026157806363091aa3146102815761012a565b806308f604951461012f5780631fbc78dc146101655780632593b0531461019257806329658b02146101b25780632b19a598146101d2575b600080fd5b34801561013b57600080fd5b5061014f61014a366004612dad565b6103bd565b60405161015c91906134f7565b60405180910390f35b34801561017157600080fd5b50610185610180366004612ca5565b6103d9565b60405161015c9190613406565b34801561019e57600080fd5b506101856101ad366004612d95565b6103ec565b3480156101be57600080fd5b506101856101cd366004612ca5565b610439565b6101e56101e0366004612f3e565b61044c565b005b3480156101f357600080fd5b50610207610202366004612ddf565b610484565b60405161015c9190613e37565b34801561022057600080fd5b5061023461022f366004612d41565b6104a5565b60405161015c9190613d2d565b34801561024d57600080fd5b506101e561025c366004612dad565b6104bf565b34801561026d57600080fd5b506101e561027c366004612ddf565b6104c2565b34801561028d57600080fd5b506101e561050d565b3480156102a257600080fd5b50610185610560565b3480156102b757600080fd5b506101e561056f565b3480156102cc57600080fd5b506101856102db366004612ca5565b6105f7565b3480156102ec57600080fd5b5061018561060a565b34801561030157600080fd5b506101e5610619565b34801561031657600080fd5b506101e561032536600461303d565b610643565b34801561033657600080fd5b50610185610345366004612ca5565b61080c565b6101e5610358366004612e3f565b61082a565b34801561036957600080fd5b50610185610378366004612ca5565b61088a565b34801561038957600080fd5b506101e5610398366004612ca5565b61089d565b3480156103a957600080fd5b5061014f6103b8366004612cdd565b610953565b60006103d1600c338463ffffffff610b7016565b90505b919050565b60006103d160018363ffffffff610b9616565b6003546000906103d1906001600160a01b0316610407610c19565b338560405160200161041b93929190613300565b6040516020818303038152906040528051906020012060001c610c3d565b60006103d1600c8363ffffffff610c8d16565b6000606061045983610cb0565b91509150805160001461047f5761047f6001600160a01b0383168263ffffffff61100b16565b505050565b61048c612694565b61049c838363ffffffff61106d16565b90505b92915050565b6104ad6126ac565b61049c6010848463ffffffff6110e616565b50565b60006104d760006104d16111d4565b856111f8565b905060606104fc6104f76001600160a01b0384168563ffffffff61126a16565b6112f4565b90506105078161131d565b50505050565b61053e60017ffe1e3164ba4910db3c9afd049cd8feb4552390569c846692e6df4ac68aeaa90e63ffffffff61132516565b600280546001600160a01b0319166001600160a01b0392909216919091179055565b6003546001600160a01b031690565b61057761138d565b6000546001600160a01b039081169116146105ad5760405162461bcd60e51b81526004016105a490613a43565b60405180910390fd5b600080546040516001600160a01b03909116907f8be0079c531659141344cd1fd0a4f28419497f9722a3daafe3b4186f6b6457e0908390a3600080546001600160a01b0319169055565b60006103d160018363ffffffff61139116565b6000546001600160a01b031690565b6106216113cd565b600380546001600160a01b0319166001600160a01b0392909216919091179055565b61064b61138d565b6000546001600160a01b039081169116146106785760405162461bcd60e51b81526004016105a490613a43565b82518251146106995760405162461bcd60e51b81526004016105a490613b19565b8351600480546001600160a01b0319166001600160a01b03909216919091179055608084015160085560208401516005556040840151600655606084015160075560005b8251811015610799576106ee6126d3565b604051806080016040528086848151811061070557fe5b602002602001015160000151600281111561071c57fe5b815260200186848151811061072d57fe5b6020026020010151602001516001600160a01b0316815260200186848151811061075357fe5b602002602001015160400151815260200185848151811061077057fe5b60209081029190910101519052905061079060108263ffffffff61142516565b506001016106dd565b5060005b8151811015610805576107ae612701565b8282815181106107ba57fe5b6020908102919091018101518082015190516001600160a01b039081166000908152600b909352604090922080546001600160a01b031916929091169190911790555060010161079d565b5050505050565b6001600160a01b039081166000908152600b60205260409020541690565b825160a00151610839846114df565b5060006108478585856115c1565b85518051602090910151919250610871916001600160a01b0384169190600063ffffffff61176216565b6108056001600160a01b0382168363ffffffff61100b16565b60006103d1600c8363ffffffff61180016565b6108a561138d565b6000546001600160a01b039081169116146108d25760405162461bcd60e51b81526004016105a490613a43565b6001600160a01b0381166108f85760405162461bcd60e51b81526004016105a490613699565b600080546040516001600160a01b03808516939216917f8be0079c531659141344cd1fd0a4f28419497f9722a3daafe3b4186f6b6457e091a3600080546001600160a01b0319166001600160a01b0392909216919091179055565b336000908152600c602052604081205461097f5760405162461bcd60e51b81526004016105a49061387a565b818310156109f9578184840110156109ee576109d561099d84611823565b6109a686611823565b6109af85611823565b6040516020016109c19392919061336d565b6040516020818303038152906040526118fa565b60405162461bcd60e51b81526004016105a49190613545565b828203840393508192505b8315610a3557610a196001600160a01b038816868663ffffffff6118fd16565b610a355760405162461bcd60e51b81526004016105a490613987565b8215610ac957600080610a4d8560016006015461196f565b9092509050610a6c6001600160a01b038a16898463ffffffff6118fd16565b610a885760405162461bcd60e51b81526004016105a490613790565b610aaa610a9361060a565b6001600160a01b038b16908363ffffffff6118fd16565b610ac65760405162461bcd60e51b81526004016105a490613bf0565b50505b60405163c3275c7960e01b81526001600160a01b0387169063c3275c7990610af5903390600401613406565b602060405180830381600087803b158015610b0f57600080fd5b505af1158015610b23573d6000803e3d6000fd5b505050506040513d601f19601f82011682018060405250810190610b479190612d79565b610b635760405162461bcd60e51b81526004016105a490613bb9565b5060019695505050505050565b80516020918201206001600160a01b039290921660009081529290526040909120541490565b600382015460405163028c4f4160e41b81526000916001600160a01b0316906328c4f41090610bc9908590600401613406565b60206040518083038186803b158015610be157600080fd5b505afa158015610bf5573d6000803e3d6000fd5b505050506040513d601f19601f8201168201806040525081019061049c9190612cc1565b7f6b6f6b75258f8f4cdb6ef275682bc2be3e8b970e5e4417113bd1ea53622d907e90565b60006060610c4a846119b8565b80519091508390602083018282826000f5945050506001600160a01b038316610c855760405162461bcd60e51b81526004016105a490613af1565b505092915050565b6001600160a01b0380821660009081526002840160205260409020541692915050565b60006060610cbc612718565b60408051608081018252855151818301908152825180840190935233835286515160609081015192938493918401916020820190610d0390600190600a81046103e86119c4565b90529052815260408051608081018252602088810180515183528051820151838301528051840151938301939093529151606090810151908201529101528451909150610d6190610d5390611ab8565b85519063ffffffff611ad116565b610d7d5760405162461bcd60e51b81526004016105a4906139ff565b835151600090610d8c90611b02565b600254909150610dab906001600160a01b03168263ffffffff611b0d16565b9350610dbe600c8563ffffffff611b1916565b15610ddb5760405162461bcd60e51b81526004016105a4906135bd565b610e10846001604051602001610df191906133fd565b60408051601f19818403018152919052600c919063ffffffff611b3716565b84515160200151610e299060019063ffffffff610b9616565b6001600160a01b031663159ab14d86602001516040015187600001516000015160600151610e5686611b5a565b8960200151606001516040518563ffffffff1660e01b8152600401610e7e9493929190613502565b602060405180830381600087803b158015610e9857600080fd5b505af1158015610eac573d6000803e3d6000fd5b505050506040513d601f19601f82011682018060405250810190610ed0919061311b565b50845151606001518251600091610eed919063ffffffff611b6516565b9050610ef882611b92565b508551518051602090910151610f20916001600160a01b03881691600163ffffffff61176216565b855151516001600160a01b03163314801590610f40575085516020015134145b15610fcb57855151516040516001600160a01b03909116903480156108fc02916000818181858888f19350505050158015610f7f573d6000803e3d6000fd5b5085515160200151610fa1906001600160a01b0316338363ffffffff6118fd16565b610fbd5760405162461bcd60e51b81526004016105a4906136df565b85515160a001519350611003565b855151516001600160a01b0316331415610feb5785604001519350611003565b60405162461bcd60e51b81526004016105a490613a78565b505050915091565b604051630bfceb2b60e31b81526001600160a01b03831690635fe759589061103790849060040161347b565b600060405180830381600087803b15801561105157600080fd5b505af1158015611065573d6000803e3d6000fd5b505050505050565b611075612694565b6060306110828585611bab565b60405161108f9190613351565b6000604051808303816000865af19150503d80600081146110cc576040519150601f19603f3d011682016040523d82523d6000602084013e6110d1565b606091505b509150506110de81611c01565b949350505050565b6110ee6126ac565b6110f66126ac565b8460006111038686611c1d565b815260208082019290925260409081016000208151608081018352815460ff8116151582526001600160a01b036101009091048116948201949094526001820154841692810192909252600201549091166060820152905061116481611c45565b6110de578460006111758686611c57565b815260208082019290925260409081016000208151608081018352815460ff81161515825261010090046001600160a01b0390811694820194909452600182015484169281019290925260020154909116606082015295945050505050565b7fad53495153c7c363e98a26920ec679e0e687636458f6908c91cf6deadb19080190565b6000808447101561121b5760405162461bcd60e51b81526004016105a490613cba565b82516112395760405162461bcd60e51b81526004016105a4906135ff565b8383516020850187f590506001600160a01b0381166110de5760405162461bcd60e51b81526004016105a490613950565b611272612694565b60006060846001600160a01b031661128985611c72565b6040516112969190613351565b600060405180830381855af49150503d80600081146112d1576040519150601f19603f3d011682016040523d82523d6000602084013e6112d6565b606091505b50604080518082019091529115158252602082015295945050505050565b6060816040516020016113079190613e37565b6040516020818303038152906040529050919050565b805160208201fd5b60405163dd678a0760e01b815260009073__ShifterBorrowProxyFactoryLib__________9063dd678a07906113619086908690600401613d1f565b60206040518083038186803b15801561137957600080fd5b505af4158015610bf5573d6000803e3d6000fd5b3390565b6001600160a01b038082166000908152600a840160205260408120549091168061049c5760405162461bcd60e51b81526004016105a490613b84565b600061142060007f6b6f6b75258f8f4cdb6ef275682bc2be3e8b970e5e4417113bd1ea53622d907e60001b6040518060200161140890612738565b601f1982820381018352601f909101166040526111f8565b905090565b60018151600281111561143457fe5b14156114835760005b81604001515181101561147d576114758383602001518460400151848151811061146357fe5b60200260200101518560600151611cc5565b60010161143d565b506114db565b60028151600281111561149257fe5b14156114db5760005b81604001515181101561047f576114d3838360200151846040015184815181106114c157fe5b60200260200101518560600151611d4f565b60010161149b565b5050565b6000808260000151602001516001600160a01b031663313ce5676040518163ffffffff1660e01b815260040160206040518083038186803b15801561152357600080fd5b505afa158015611537573d6000803e3d6000fd5b505050506040513d601f19601f8201168201806040525081019061155b9190613133565b905060128160ff1611156115815760405162461bcd60e51b81526004016105a490613c5d565b60085483516060015160ff8316601203600a0a908161159c57fe5b0411156115bb5760405162461bcd60e51b81526004016105a490613cf1565b50919050565b825160800151600090156115e75760405162461bcd60e51b81526004016105a4906138b1565b3484602001511461160a5760405162461bcd60e51b81526004016105a490613744565b61162361161685611ab8565b859063ffffffff611ad116565b61163f5760405162461bcd60e51b81526004016105a4906139ff565b611647612745565b508351600061165582611b02565b60408051600080825260208201909252919250611688565b611675612694565b81526020019060019003908161166d5790505b5060a083015261169661277c565b60405180604001604052808481526020016040518060400160405280336001600160a01b031681526020016116dd87606001518b8b60016119c4909392919063ffffffff16565b9052905290506116ec82611b92565b93506116fa60018583611d5d565b61171c83602001518561170c84611dfc565b600192919063ffffffff611e3416565b602083015161173c906001600160a01b031633308963ffffffff611ed916565b6117585760405162461bcd60e51b81526004016105a490613ac1565b5050509392505050565b6040516329c8702d60e01b81526001600160a01b038516906329c8702d9061179290869086908690600401613433565b602060405180830381600087803b1580156117ac57600080fd5b505af11580156117c0573d6000803e3d6000fd5b505050506040513d601f19601f820116820180604052508101906117e49190612d79565b6105075760405162461bcd60e51b81526004016105a4906137c7565b6001600160a01b0380821660009081526001840160205260409020541692915050565b60608161184857506040805180820190915260018152600360fc1b60208201526103d4565b8160005b811561186057600101600a8204915061184c565b6060816001600160401b038111801561187857600080fd5b506040519080825280601f01601f1916602001820160405280156118a3576020820181803683370190505b50905060001982015b85156118f157600a860660300160f81b828280600190039350815181106118cf57fe5b60200101906001600160f81b031916908160001a905350600a860495506118ac565b50949350505050565b90565b600080846001600160a01b03166119148585611f4d565b6040516119219190613351565b6000604051808303816000865af19150503d806000811461195e576040519150601f19603f3d011682016040523d82523d6000602084013e611963565b606091505b50909695505050505050565b60008061199a670de0b6b3a764000061198e868663ffffffff611f6a16565b9063ffffffff611fa416565b9050838110156119ae5780840391506119b1565b50825b9250929050565b60606103d13083611fe6565b6119cc61279c565b84600401548210156119f05760405162461bcd60e51b81526004016105a490613634565b6000611a0b670de0b6b3a7640000606463ffffffff611fa416565b9050611a26670de0b6b3a7640000606463ffffffff611fa416565b611a428661198e87670de0b6b3a764000063ffffffff611f6a16565b11611a5f5760405162461bcd60e51b81526004016105a490613c31565b6000848610611a8157611a7c8661198e848863ffffffff611f6a16565b611a83565b815b905060405180608001604052808543018152602001868152602001886005015481526020018281525092505050949350505050565b6000611ac382612145565b805190602001209050919050565b6000611ae9611adf8361216c565b846040015161219c565b8351516001600160a01b03908116911614905092915050565b6000611ac3826122ca565b600061049c83836122e6565b6001600160a01b031660009081526020919091526040902054151590565b80516020918201206001600160a01b039092166000908152929052604090912055565b6000611ac382612301565b600061049c670de0b6b3a764000061198e8560200151602001516060015185611f6a90919063ffffffff16565b6002546000906103d1906001600160a01b031683610c3d565b6060635f7d2b5760e01b8383604051602401611bc8929190613558565b60408051601f198184030181529190526020810180516001600160e01b03166001600160e01b0319909316929092179091529392505050565b611c09612694565b818060200190518101906103d19190612e8a565b600080611c2984612328565b9050611c35818461232c565b8051906020012091505092915050565b602001516001600160a01b0316151590565b6000611c638383612358565b80519060200120905092915050565b60606309c5eabe60e01b82604051602401611c8d9190613545565b60408051601f198184030181529190526020810180516001600160e01b03166001600160e01b03199093169290921790915292915050565b80846000611cd38686611c1d565b81526020808201929092526040908101600020835181549385015160ff1990941690151517610100600160a81b0319166101006001600160a01b0394851602178155908301516001820180546001600160a01b031990811692851692909217905560609093015160029091018054909316911617905550505050565b80846000611cd38686611c57565b6060611d688261236d565b825160200151909150611d8790600b860190859063ffffffff61238016565b815151611da090600b860190859063ffffffff6123b416565b8151516040516001600160a01b03909116903480156108fc02916000818181858888f19350505050158015611dd9573d6000803e3d6000fd5b50611dee600b8501848363ffffffff611b3716565b8151516105079084836123e8565b60006103d1611e22611e0d84612438565b611e168561246d565b9063ffffffff6124a216565b8351606001519063ffffffff6124c716565b611e3e8484611391565b6001600160a01b031663185cc75183836040518363ffffffff1660e01b8152600401611e6b92919061341a565b602060405180830381600087803b158015611e8557600080fd5b505af1158015611e99573d6000803e3d6000fd5b505050506040513d601f19601f82011682018060405250810190611ebd9190612d79565b6105075760405162461bcd60e51b81526004016105a490613836565b600080856001600160a01b0316611ef1868686612509565b604051611efe9190613351565b6000604051808303816000865af19150503d8060008114611f3b576040519150601f19603f3d011682016040523d82523d6000602084013e611f40565b606091505b5090979650505050505050565b606063a9059cbb60e01b8383604051602401611bc892919061341a565b600082611f795750600061049f565b82820282848281611f8657fe5b041461049c5760405162461bcd60e51b81526004016105a4906139be565b600061049c83836040518060400160405280601a81526020017f536166654d6174683a206469766973696f6e206279207a65726f000000000000815250612562565b60408051600081526020810190915260609081906120079060448101613545565b60408051601f198184030181529190526020810180516001600160e01b03166352e831dd60e01b17905280519091506063016001600160401b038111801561204e57600080fd5b506040519080825280601f01601f191660200182016040528015612079576020820181803683370190505b507f3d3d606380380380913d393d73bebebebebebebebebebebebebebebebebebebe6020820152600160601b858102602d8301527f5af4602a57600080fd5b602d8060366000396000f3363d3d373d3d3d363d73be6041830152840260608201526e5af43d82803e903d91602b57fd5bf360881b6074820152915060005b8151811015610c855781818151811061210c57fe5b602001015160f81c60f81b83826063018151811061212657fe5b60200101906001600160f81b031916908160001a9053506001016120f7565b606080612159836000015160a00151612599565b905061216583826125ac565b9392505050565b60008160405160200161217f91906133cc565b604051602081830303815290604052805190602001209050919050565b600081516041146121bf5760405162461bcd60e51b81526004016105a490613662565b60208201516040830151606084015160001a7f7fffffffffffffffffffffffffffffff5d576e7357a4501ddfe92f46681b20a08211156122115760405162461bcd60e51b81526004016105a4906137f4565b8060ff16601b1415801561222957508060ff16601c14155b156122465760405162461bcd60e51b81526004016105a49061390e565b60006001878386866040516000815260200160405260405161226b9493929190613527565b6020604051602081039080840390855afa15801561228d573d6000803e3d6000fd5b5050604051601f1901519150506001600160a01b0381166122c05760405162461bcd60e51b81526004016105a490613586565b9695505050505050565b6060806122da8360a00151612599565b905061216583826125e2565b600061049c826122f5856119b8565b80519060200120612613565b80515160409081015160208084015180519082015193516060946113079493909101613323565b3f90565b60608282604051602001612341929190613339565b604051602081830303815290604052905092915050565b606082826040516020016123419291906132a5565b6060816040516020016113079190613d6b565b6001600160a01b039182166000908152600290930160205260409092208054919092166001600160a01b0319909116179055565b6001600160a01b039182166000908152600190930160205260409092208054919092166001600160a01b0319909116179055565b816001600160a01b0316836001600160a01b03167f9ae84ac2ad8f721c2e62d211eca0ae34951726f8834913af6c5ebb81610bb1f88360405161242b9190613545565b60405180910390a3505050565b60006103d1670de0b6b3a764000061198e84602001516020015160600151856000015160600151611f6a90919063ffffffff16565b60006103d1670de0b6b3a764000061198e84602001516020015160400151856000015160600151611f6a90919063ffffffff16565b60008282018381101561049c5760405162461bcd60e51b81526004016105a49061370d565b600061049c83836040518060400160405280601e81526020017f536166654d6174683a207375627472616374696f6e206f766572666c6f770000815250612620565b60606323b872dd60e01b84848460405160240161252893929190613457565b60408051601f198184030181529190526020810180516001600160e01b03166001600160e01b031990931692909217909152949350505050565b600081836125835760405162461bcd60e51b81526004016105a49190613545565b50600083858161258f57fe5b0495945050505050565b606081604051602001611307919061347b565b815160208082015160408084015160608581015185890151608090970151935191966123419630969592939192918a910161323e565b60608260000151836020015184604001518560600151866080015186604051602001612341969594939291906131de565b600061049c83833061264c565b600081848411156126445760405162461bcd60e51b81526004016105a49190613545565b505050900390565b60008060ff60f81b83868660405160200161266a94939291906132cc565b60408051808303601f1901815291905280516020909101206001600160a01b031695945050505050565b60408051808201909152600081526060602082015290565b60408051608081018252600080825260208201819052918101829052606081019190915290565b6040805160808101909152806000815260006020820152606060408201819052016126fc6126ac565b905290565b604080518082019091526000808252602082015290565b604051806040016040528061272b61277c565b81526020016126fc6127c4565b61032a80613f2c83390190565b6040805160c0810182526000808252602082018190529181018290526060808201839052608082019290925260a081019190915290565b604051806040016040528061278f612745565b81526020016126fc6127ea565b6040518060800160405280600081526020016000815260200160008152602001600081525090565b604080516080810182526000808252602082018190529181019190915260608082015290565b604051806040016040528060006001600160a01b031681526020016126fc61279c565b803561049f81613ef2565b600082601f830112612828578081fd5b813561283b61283682613e84565b613e5e565b81815291506020808301908481018184028601820187101561285c57600080fd5b60005b8481101561288457813561287281613f15565b8452928201929082019060010161285f565b505050505092915050565b600082601f83011261289f578081fd5b81356128ad61283682613e84565b818152915060208083019084810160005b848110156128845781358701604080601f19838c030112156128df57600080fd5b6128e881613e5e565b6128f48b87850161280d565b8152818301356001600160401b0381111561290e57600080fd5b61291c8c8883870101612b52565b82880152508652505092820192908201906001016128be565b600082601f830112612945578081fd5b813561295361283682613e84565b818152915060208083019084810160408085028701830188101561297657600080fd5b6000805b868110156129c95782848b031215612990578182fd5b61299983613e5e565b84356129a481613ef2565b8152848601356129b381613ef2565b818701528652948401949282019260010161297a565b5050505050505092915050565b600082601f8301126129e6578081fd5b81356129f461283682613e84565b818152915060208083019084810160005b848110156128845781358701606080601f19838c03011215612a2657600080fd5b612a2f81613e5e565b612a3b8b878501612ba0565b81526040612a4b8c82860161280d565b87830152828401356001600160401b03811115612a6757600080fd5b612a758d8983880101612818565b9183019190915250865250509282019290820190600101612a05565b600082601f830112612aa1578081fd5b8135612aaf61283682613e84565b8181529150602080830190848101608080850287018301881015612ad257600080fd5b6000805b868110156129c95782848b031215612aec578182fd5b612af583613e5e565b612aff8b86612b47565b8152612b0d8b87870161280d565b868201526040612b1f8c82880161280d565b908201526060612b318c87830161280d565b9082015286529484019492820192600101612ad6565b803561049f81613f07565b600082601f830112612b62578081fd5b8135612b7061283682613ea3565b9150808252836020828501011115612b8757600080fd5b8060208401602084013760009082016020015292915050565b80356003811061049f57600080fd5b600060608284031215612bc0578081fd5b612bca6060613e5e565b905081356001600160401b0380821115612be357600080fd5b81840160c08187031215612bf657600080fd5b612c0060c0613e5e565b9250612c0c868261280d565b8352612c1b866020830161280d565b60208401526040810135604084015260608101356060840152612c418660808301612b47565b608084015260a081013582811115612c5857600080fd5b612c648782840161288f565b60a08501525050818352602084013560208401526040840135915080821115612c8c57600080fd5b50612c9984828501612b52565b60408301525092915050565b600060208284031215612cb6578081fd5b813561049c81613ef2565b600060208284031215612cd2578081fd5b815161049c81613ef2565b60008060008060008060c08789031215612cf5578182fd5b8635612d0081613ef2565b95506020870135612d1081613ef2565b94506040870135612d2081613ef2565b959894975094956060810135955060808101359460a0909101359350915050565b60008060408385031215612d53578182fd5b8235612d5e81613ef2565b91506020830135612d6e81613f15565b809150509250929050565b600060208284031215612d8a578081fd5b815161049c81613f07565b600060208284031215612da6578081fd5b5035919050565b600060208284031215612dbe578081fd5b81356001600160401b03811115612dd3578182fd5b6110de84828501612b52565b60008060408385031215612df1578182fd5b82356001600160401b0380821115612e07578384fd5b612e1386838701612b52565b93506020850135915080821115612e28578283fd5b50612e3585828601612b52565b9150509250929050565b600080600060608486031215612e53578081fd5b83356001600160401b03811115612e68578182fd5b612e7486828701612baf565b9660208601359650604090950135949350505050565b60006020808385031215612e9c578182fd5b82516001600160401b0380821115612eb2578384fd5b81850160408188031215612ec4578485fd5b612ece6040613e5e565b92508051612edb81613f07565b83528084015182811115612eed578586fd5b019050601f81018613612efe578384fd5b8051612f0c61283682613ea3565b8181528785838501011115612f1f578586fd5b612f2e82868301878601613ec6565b9383019390935250949350505050565b600060208284031215612f4f578081fd5b81356001600160401b0380821115612f65578283fd5b81840160608187031215612f77578384fd5b612f816060613e5e565b9250803582811115612f91578485fd5b612f9d87828401612baf565b845250602081013582811115612fb1578485fd5b80820160808189031215612fc3578586fd5b612fcd6080613e5e565b9150803582526020810135602083015260408101356040830152606081013584811115612ff8578687fd5b61300489828401612b52565b606084015250506020840152604081013582811115613021578485fd5b61302d8782840161288f565b6040850152509195945050505050565b600080600080848603610100811215613054578283fd5b60a0811215613061578283fd5b5061306c60a0613e5e565b853561307781613ef2565b80825250602086013560208201526040860135604082015260608601356060820152608086013560808201528094505060a08501356001600160401b03808211156130c0578384fd5b6130cc888389016129d6565b945060c08701359150808211156130e1578384fd5b6130ed88838901612a91565b935060e0870135915080821115613102578283fd5b5061310f87828801612935565b91505092959194509250565b60006020828403121561312c578081fd5b5051919050565b600060208284031215613144578081fd5b815160ff8116811461049c578182fd5b600060018060a01b0382511683526020820151604060208501526110de60408501825b6000815180845261318f816020860160208601613ec6565b601f01601f19169290920160200192915050565b60018060a01b038151168252602081015180516020840152602081015160408401526040810151606084015260608101516080840152505050565b60006bffffffffffffffffffffffff19808960601b168352808860601b1660148401525085602883015284604883015283151560f81b6068830152825161322c816069850160208701613ec6565b91909101606901979650505050505050565b60006bffffffffffffffffffffffff19808a60601b168352808960601b1660148401525086602883015285604883015284606883015283151560f81b60888301528251613292816089850160208701613ec6565b9190910160890198975050505050505050565b60609290921b6001600160601b03191682526001600160e01b031916601482015260180190565b6001600160f81b031994909416845260609290921b6001600160601b03191660018401526015830152603582015260550190565b92835260609190911b6001600160601b0319166020830152603482015260540190565b9283526020830191909152604082015260600190565b9182526001600160e01b031916602082015260240190565b60008251613363818460208701613ec6565b9190910192915050565b6000845161337f818460208901613ec6565b600160fd1b908301818152855161339d816001840160208a01613ec6565b808201836001820152865193506133bb846002830160208a01613ec6565b909201600201979650505050505050565b7f19457468657265756d205369676e6564204d6573736167653a0a3332000000008152601c810191909152603c0190565b90815260200190565b6001600160a01b0391909116815260200190565b6001600160a01b03929092168252602082015260400190565b6001600160a01b039384168152919092166020820152901515604082015260600190565b6001600160a01b039384168152919092166020820152604081019190915260600190565b60208082528251828201819052600091906040908185019080840286018301878501865b838110156134e957888303603f19018552815180516001600160a01b03168452878101518885018890526134d588860182613177565b96890196945050509086019060010161349f565b509098975050505050505050565b901515815260200190565b6000858252846020830152836040830152608060608301526122c06080830184613177565b93845260ff9290921660208401526040830152606082015260800190565b60006020825261049c6020830184613177565b60006040825261356b6040830185613177565b828103602084015261357d8185613177565b95945050505050565b60208082526018908201527f45434453413a20696e76616c6964207369676e61747572650000000000000000604082015260600190565b60208082526022908201527f70726f78792068617320616c7265616479206265656e20696e697469616c697a604082015261195960f21b606082015260800190565b6020808252818101527f437265617465323a2062797465636f6465206c656e677468206973207a65726f604082015260600190565b6020808252601490820152731d1a5b595bdd5d081a5b9cdd59999a58da595b9d60621b604082015260600190565b6020808252601f908201527f45434453413a20696e76616c6964207369676e6174757265206c656e67746800604082015260600190565b60208082526026908201527f4f776e61626c653a206e6577206f776e657220697320746865207a65726f206160408201526564647265737360d01b606082015260800190565b6020808252601490820152731ad9595c195c881c185e5bdd5d0819985a5b195960621b604082015260600190565b6020808252601b908201527f536166654d6174683a206164646974696f6e206f766572666c6f770000000000604082015260600190565b6020808252602c908201527f737570706c696564206574686572206973206e6f7420657175616c20746f206760408201526b185cc81c995c5d595cdd195960a21b606082015260800190565b6020808252601a908201527f6661696c656420746f207265706179206c6f73742066756e6473000000000000604082015260600190565b6020808252601390820152727365747570207068617365206661696c75726560681b604082015260600190565b60208082526022908201527f45434453413a20696e76616c6964207369676e6174757265202773272076616c604082015261756560f01b606082015260800190565b60208082526024908201527f696e73756666696369656e742066756e647320696e206c6971756964697479206040820152631c1bdbdb60e21b606082015260800190565b6020808252601d908201527f6e6f742061207265676973746572656420626f72726f772070726f7879000000604082015260600190565b60208082526037908201527f6973206e6f742061206c6f616e20726571756573742c20747279207573696e6760408201527f2065786563757465536869667453616e73426f72726f77000000000000000000606082015260800190565b60208082526022908201527f45434453413a20696e76616c6964207369676e6174757265202776272076616c604082015261756560f01b606082015260800190565b60208082526019908201527f437265617465323a204661696c6564206f6e206465706c6f7900000000000000604082015260600190565b6020808252601f908201527f6661696c656420746f2072657475726e20626f6e6420746f206b656570657200604082015260600190565b60208082526021908201527f536166654d6174683a206d756c7469706c69636174696f6e206f766572666c6f6040820152607760f81b606082015260800190565b60208082526024908201527f6c69717569646974792072657175657374207369676e61747572652072656a6560408201526318dd195960e21b606082015260800190565b6020808252818101527f4f776e61626c653a2063616c6c6572206973206e6f7420746865206f776e6572604082015260600190565b60208082526029908201527f696e636f72726563742067617320737570706c696564207769746820676173206040820152681c995c5d595cdd195960ba1b606082015260800190565b602080825260169082015275189bdb99081cdd589b5a5cdcda5bdb8819985a5b195960521b604082015260600190565b6020808252600e908201526d18dc99585d194c8819985a5b195960921b604082015260600190565b60208082526045908201527f63616e2774207a6970206d6f64756c65207265676973746174696f6e733a206d60408201527f6f64756c65732e6c656e67746820213d206d6f64756c6544657461696c732e6c6060820152640cadccee8d60db1b608082015260a00190565b6020808252818101527f6e6f7420612072656769737465726564206c697175696469747920746f6b656e604082015260600190565b60208082526017908201527f6c6f616e207265736f6c7574696f6e206661696c757265000000000000000000604082015260600190565b60208082526021908201527f6661696c656420746f2072657061792074686520676f7665726e696e672044416040820152604f60f81b606082015260800190565b602080825260129082015271626f6e642062656c6f77206d696e696d756d60701b604082015260600190565b6020808252603e908201527f74686520746f6b656e20737570706c696564206973206e6f742061207368696660408201527f74657220746f6b656e202d2d20646563696d616c7320746f6f20686967680000606082015260800190565b6020808252601d908201527f437265617465323a20696e73756666696369656e742062616c616e6365000000604082015260600190565b6020808252601490820152736c6f616e2065786365656473206d6178696d756d60601b604082015260600190565b918252602082015260400190565b8151151581526020808301516001600160a01b0390811691830191909152604080840151821690830152606092830151169181019190915260800190565b60006020808352835160c0828501526101a0840160018060a01b038083511660e087015280848401511661010087015250604082015161012086015260608201516101408601526080820151151561016086015260a082015160c06101808701528192508051613ddb81846133fd565b9350839250859181860284019086015b82841015613e17578482038652613e03828251613154565b958701956001949094019391508601613deb565b50858901519450613e2b60408901866131a3565b98975050505050505050565b60006020825282511515602083015260208301516040808401526110de6060840182613177565b6040518181016001600160401b0381118282101715613e7c57600080fd5b604052919050565b60006001600160401b03821115613e99578081fd5b5060209081020190565b60006001600160401b03821115613eb8578081fd5b50601f01601f191660200190565b60005b83811015613ee1578181015183820152602001613ec9565b838111156105075750506000910152565b6001600160a01b03811681146104bf57600080fd5b80151581146104bf57600080fd5b6001600160e01b0319811681146104bf57600080fdfe608060405234801561001057600080fd5b5061030a806100206000396000f3fe60806040526004361061001e5760003560e01c80638e03e6cd14610023575b600080fd5b6100366100313660046101d7565b610038565b005b6001600160a01b03811615610103576100de82826001600160a01b03166370a08231306040518263ffffffff1660e01b81526004016100779190610260565b60206040518083038186803b15801561008f57600080fd5b505afa1580156100a3573d6000803e3d6000fd5b505050506040513d601f19601f820116820180604052508101906100c7919061020f565b6001600160a01b038416919063ffffffff61010f16565b6101035760405162461bcd60e51b81526004016100fa9061028d565b60405180910390fd5b816001600160a01b0316ff5b600080846001600160a01b03166101268585610181565b6040516101339190610227565b6000604051808303816000865af19150503d8060008114610170576040519150601f19603f3d011682016040523d82523d6000602084013e610175565b606091505b50909695505050505050565b606063a9059cbb60e01b838360405160240161019e929190610274565b60408051601f198184030181529190526020810180516001600160e01b03166001600160e01b0319909316929092179091529392505050565b600080604083850312156101e9578182fd5b82356101f4816102bc565b91506020830135610204816102bc565b809150509250929050565b600060208284031215610220578081fd5b5051919050565b60008251815b81811015610247576020818601810151858301520161022d565b818111156102555782828501525b509190910192915050565b6001600160a01b0391909116815260200190565b6001600160a01b03929092168252602082015260400190565b602080825260159082015274657263323020666f7277617264206661696c75726560581b604082015260600190565b6001600160a01b03811681146102d157600080fd5b5056fea2646970667358221220b7fb195cce11fd498800e708e15e19c7b46a3d3bcabf1606eb10e632026d6ea664736f6c63430006080033a26469706673582212204cf2b54d742d8c13900b1233e95268933a9389e5291badb5bc72edb774c777d564736f6c63430006080033",
  "immutableReferences": {},
  "source": "pragma experimental ABIEncoderV2;\n// SPDX-License-Identifier: MIT\npragma solidity ^0.6.0;\n\nimport { Ownable } from \"@openzeppelin/contracts/access/Ownable.sol\";\nimport { IShifterRegistry } from \"./interfaces/IShifterRegistry.sol\";\nimport { IShifter } from \"./interfaces/IShifter.sol\";\nimport { ShifterPoolLib } from \"./ShifterPoolLib.sol\";\nimport { ShifterBorrowProxyLib } from \"./ShifterBorrowProxyLib.sol\";\nimport { ShifterBorrowProxyFactoryLib } from \"./ShifterBorrowProxyFactoryLib.sol\";\nimport { ShifterBorrowProxy } from \"./ShifterBorrowProxy.sol\";\nimport { BorrowProxy } from \"./BorrowProxy.sol\";\nimport { BorrowProxyLib } from \"./BorrowProxyLib.sol\";\nimport { TokenUtils } from \"./utils/TokenUtils.sol\";\nimport { ViewExecutor } from \"./utils/ViewExecutor.sol\";\nimport { LiquidityToken } from \"./LiquidityToken.sol\";\nimport { SandboxLib } from \"./utils/sandbox/SandboxLib.sol\";\nimport { SafeViewExecutor } from \"./utils/sandbox/SafeViewExecutor.sol\";\nimport { FactoryLib } from \"./FactoryLib.sol\";\nimport { NullCloneConstructor } from \"./NullCloneConstructor.sol\";\nimport { AssetForwarderLib } from \"./adapters/lib/AssetForwarderLib.sol\";\nimport { AssetForwarder } from \"./adapters/lib/AssetForwarder.sol\";\nimport { ERC20 } from \"@openzeppelin/contracts/token/ERC20/ERC20.sol\";\nimport { StringLib } from \"./utils/StringLib.sol\";\n\ncontract ShifterPool is Ownable, SafeViewExecutor, NullCloneConstructor {\n  using SandboxLib for *;\n  using ShifterPoolLib for *;\n  using TokenUtils for *;\n  using StringLib for *;\n  using ShifterBorrowProxyLib for *;\n  using ShifterBorrowProxyFactoryLib for *;\n  using BorrowProxyLib for *;\n  ShifterPoolLib.Isolate isolate;\n  constructor() Ownable() public {\n    isolate.genesis = block.number;\n  }\n  function setup(ShifterPoolLib.SetupParams memory params, BorrowProxyLib.ModuleDetails[] memory moduleDetails, BorrowProxyLib.Module[] memory modules, ShifterPoolLib.LiquidityTokenLaunch[] memory tokenLaunches) public onlyOwner {\n    require(modules.length == moduleDetails.length, \"can't zip module registations: modules.length != moduleDetails.length\");\n    isolate.shifterRegistry = params.shifterRegistry;\n    isolate.maxLoan = params.maxLoan;\n    isolate.minTimeout = params.minTimeout;\n    isolate.poolFee = params.poolFee;\n    isolate.daoFee = params.daoFee;\n    for (uint256 i = 0; i < modules.length; i++) {\n      BorrowProxyLib.ModuleRegistration memory registration = BorrowProxyLib.ModuleRegistration({\n        module: modules[i],\n        target: moduleDetails[i].target,\n        sigs: moduleDetails[i].sigs,\n        moduleType: moduleDetails[i].moduleType\n      });\n      isolate.registry.registryRegisterModule(registration);\n    }\n    for (uint256 i = 0; i < tokenLaunches.length; i++) {\n      ShifterPoolLib.LiquidityTokenLaunch memory launch = tokenLaunches[i];\n      isolate.tokenToLiquidityToken[launch.token] = launch.liqToken;\n    }\n  }\n  function getLiquidityTokenForTokenHandler(address token) public view returns (address) {\n    return isolate.tokenToLiquidityToken[token];\n  }\n  bytes32 constant BORROW_PROXY_IMPLEMENTATION_SALT = 0xfe1e3164ba4910db3c9afd049cd8feb4552390569c846692e6df4ac68aeaa90e;\n  function deployBorrowProxyImplementation() public {\n    isolate.borrowProxyImplementation = isolate.makeBorrowProxy(BORROW_PROXY_IMPLEMENTATION_SALT);\n  }\n  function deployAssetForwarderImplementation() public {\n    isolate.assetForwarderImplementation = AssetForwarderLib.deployAssetForwarder();\n  }\n\n  function deployAssetForwarderClone(bytes32 salt) public returns (address created) {\n\n    created = FactoryLib.create2Clone(isolate.assetForwarderImplementation, uint256(keccak256(abi.encodePacked(AssetForwarderLib.GET_ASSET_FORWARDER_IMPLEMENTATION_SALT(), msg.sender, salt))));\n\n  }\n  function getAssetForwarderImplementationHandler() public view returns (address implementation) {\n    return isolate.assetForwarderImplementation;\n  }\n  function deployBorrowProxyClone(bytes32 salt) internal returns (address payable created) {\n    created = address(uint160(FactoryLib.create2Clone(isolate.borrowProxyImplementation, uint256(salt))));\n  }\n  function validateUnderMaxLoan(ShifterBorrowProxyLib.LiquidityRequestParcel memory parcel) internal view returns (bool) {\n    uint8 decimals = ERC20(parcel.request.token).decimals();\n    require(decimals <= 18, \"the token supplied is not a shifter token -- decimals too high\");\n    require(parcel.request.amount / 10**(18 - uint256(decimals)) <= isolate.maxLoan, \"loan exceeds maximum\");\n  }\n  function _executeBorrow(ShifterBorrowProxyLib.LiquidityRequestParcel memory liquidityRequestParcel, uint256 bond, uint256 timeoutExpiry) internal returns (address payable proxyAddress) {\n    require(liquidityRequestParcel.request.forbidLoan == false, \"is not a loan request, try using executeShiftSansBorrow\");\n    require(\n      liquidityRequestParcel.gasRequested == msg.value,\n      \"supplied ether is not equal to gas requested\"\n  \n    );\n    require(\n      liquidityRequestParcel.validateSignature(\n        liquidityRequestParcel.computeLiquidityRequestHash()\n      ),\n      \"liquidity request signature rejected\"\n    );\n    ShifterBorrowProxyLib.LiquidityRequest memory liquidityRequest = liquidityRequestParcel.request;\n    bytes32 borrowerSalt = liquidityRequest.computeBorrowerSalt();\n    liquidityRequest.actions = new ShifterBorrowProxyLib.InitializationAction[](0);\n    ShifterBorrowProxyLib.ProxyRecord memory proxyRecord = ShifterBorrowProxyLib.ProxyRecord({\n      request: liquidityRequest,\n      loan: ShifterBorrowProxyLib.LenderRecord(\n        msg.sender,\n        isolate.computeLoanParams(liquidityRequest.amount, bond, timeoutExpiry)\n      )\n    });\n    proxyAddress = address(uint160(deployBorrowProxyClone(borrowerSalt)));\n    ShifterPoolLib.mapBorrowProxy(isolate, proxyAddress, proxyRecord);\n    isolate.issueLoan(liquidityRequest.token, proxyAddress, proxyRecord.computePostFee());\n    require(liquidityRequest.token.transferTokenFrom(msg.sender, address(this), bond), \"bond submission failed\");\n  }\n  function executeBorrow(ShifterBorrowProxyLib.LiquidityRequestParcel memory liquidityRequestParcel, uint256 bond, uint256 timeoutExpiry) public payable {\n    ShifterBorrowProxyLib.InitializationAction[] memory actions = liquidityRequestParcel.request.actions;\n    validateUnderMaxLoan(liquidityRequestParcel);\n    address payable proxyAddress = _executeBorrow(liquidityRequestParcel, bond, timeoutExpiry);\n    proxyAddress.setupBorrowProxy(liquidityRequestParcel.request.borrower, liquidityRequestParcel.request.token, false);\n    proxyAddress.sendInitializationActions(actions);\n  }\n  function executeShiftSansBorrow(ShifterBorrowProxyLib.SansBorrowShiftParcel memory parcel) public payable {\n    (address payable proxyAddress, ShifterBorrowProxyLib.InitializationAction[] memory actions) = _executeShiftSansBorrow(parcel);\n    if (actions.length != 0) proxyAddress.sendInitializationActions(actions);\n  }\n  function _executeShiftSansBorrow(ShifterBorrowProxyLib.SansBorrowShiftParcel memory parcel) internal returns (address payable proxyAddress, ShifterBorrowProxyLib.InitializationAction[] memory actions) {\n    ShifterBorrowProxyLib.TriggerParcel memory triggerParcel = ShifterBorrowProxyLib.TriggerParcel({\n      record: ShifterBorrowProxyLib.ProxyRecord({\n        request: parcel.liquidityRequestParcel.request,\n        loan: ShifterBorrowProxyLib.LenderRecord({\n          keeper: msg.sender,\n          params: isolate.computeLoanParams(parcel.liquidityRequestParcel.request.amount, parcel.liquidityRequestParcel.request.amount / 10, 1000)\n        })\n      }),\n      shiftParameters: ShifterBorrowProxyLib.ShiftParameters({\n        txhash: parcel.shiftParameters.txhash,\n        vout: parcel.shiftParameters.vout,\n        pHash: parcel.shiftParameters.pHash,\n        darknodeSignature: parcel.shiftParameters.darknodeSignature\n      })\n    });\n    require(\n      parcel.liquidityRequestParcel.validateSignature(\n        parcel.liquidityRequestParcel.computeLiquidityRequestHash()\n      ),\n      \"liquidity request signature rejected\"\n    );\n    bytes32 borrowerSalt = parcel.liquidityRequestParcel.request.computeBorrowerSalt();\n    proxyAddress = address(uint160(isolate.borrowProxyImplementation.deriveBorrowerAddress(borrowerSalt)));\n    require(!isolate.borrowProxyController.isInitialized(proxyAddress), \"proxy has already been initialized\");\n    isolate.borrowProxyController.mapProxyRecord(proxyAddress, abi.encodePacked(uint256(1)));\n    isolate.getShifter(parcel.liquidityRequestParcel.request.token).mint(parcel.shiftParameters.pHash, parcel.liquidityRequestParcel.request.amount, triggerParcel.computeNHash(), parcel.shiftParameters.darknodeSignature);\n    uint256 fee = triggerParcel.record.computeAdjustedKeeperFee(parcel.liquidityRequestParcel.request.amount);\n    deployBorrowProxyClone(borrowerSalt);\n    proxyAddress.setupBorrowProxy(parcel.liquidityRequestParcel.request.borrower, parcel.liquidityRequestParcel.request.token, true);\n    if (parcel.liquidityRequestParcel.request.borrower != msg.sender && msg.value == parcel.liquidityRequestParcel.gasRequested) {\n      parcel.liquidityRequestParcel.request.borrower.transfer(msg.value);\n      require(parcel.liquidityRequestParcel.request.token.sendToken(msg.sender, fee), \"keeper payout failed\");\n      actions = parcel.liquidityRequestParcel.request.actions;\n    } else if (parcel.liquidityRequestParcel.request.borrower == msg.sender) actions = parcel.actions;\n    else revert(\"incorrect gas supplied with gas requested\");\n  }\n  function validateProxyRecordHandler(bytes memory proxyRecord) public view returns (bool) {\n    return isolate.borrowProxyController.validateProxyRecord(msg.sender, proxyRecord);\n  }\n  function getProxyTokenHandler(address proxyAddress) public view returns (address) {\n    return isolate.borrowProxyController.getProxyToken(proxyAddress);\n  }\n  function getProxyOwnerHandler(address user) public view returns (address) {\n    return isolate.borrowProxyController.getProxyOwner(user);\n  }\n  function getShifterHandler(address token) public view returns (IShifter) {\n    return isolate.getShifter(token);\n  }\n  function getLiquidityTokenHandler(address token) public view returns (LiquidityToken) {\n    return LiquidityToken(isolate.getLiquidityToken(token));\n  }\n  function fetchModuleHandler(address to, bytes4 sig) public view returns (BorrowProxyLib.Module memory) {\n    return isolate.registry.resolveModule(to, sig);\n  }\n  function relayResolveLoan(address token, address liquidityToken, address keeper, uint256 bond, uint256 repay, uint256 originalAmount) public returns (bool) {\n    require(isolate.borrowProxyController.proxyInitializerRecord[msg.sender] != bytes32(0x0), \"not a registered borrow proxy\");\n    if (repay < originalAmount) {\n      if (repay + bond < originalAmount) {\n        if (true) revert(abi.encodePacked(repay.toString(), \" \", bond.toString(), \" \", originalAmount.toString()).toString());\n        repay = repay + bond;\n        bond = 0;\n      } else {\n        bond -= originalAmount - repay;\n        repay = originalAmount;\n      }\n    }\n    if (bond != 0) require(token.sendToken(keeper, bond), \"failed to return bond to keeper\");\n    if (repay != 0) {\n       (uint256 amount, uint256 daoAmount) = ShifterPoolLib.splitForDAO(repay, isolate.daoFee);\n       require(token.sendToken(liquidityToken, amount), \"failed to repay lost funds\");\n       require(token.sendToken(owner(), daoAmount), \"failed to repay the governing DAO\");\n    }\n    require(LiquidityToken(liquidityToken).resolveLoan(msg.sender), \"loan resolution failure\");\n    return true;\n  }\n}\n",
  "sourcePath": "/home/ray/0confirmation/packages/0confirmation-sol/contracts/ShifterPool.sol",
  "compiler": {
    "name": "solc",
    "version": "0.6.8+commit.0bbfe453.Emscripten.clang"
  },
  "schemaVersion": "3.2.0",
  "updatedAt": "2020-05-31T21:42:05.432Z",
  "devdoc": {
    "methods": {
      "owner()": {
        "details": "Returns the address of the current owner."
      },
      "renounceOwnership()": {
        "details": "Leaves the contract without owner. It will not be possible to call `onlyOwner` functions anymore. Can only be called by the current owner.     * NOTE: Renouncing ownership will leave the contract without an owner, thereby removing any functionality that is only available to the owner."
      },
      "transferOwnership(address)": {
        "details": "Transfers ownership of the contract to a new account (`newOwner`). Can only be called by the current owner."
      }
    }
  },
  "userdoc": {
    "methods": {}
  }
}