{
  "contractName": "ShifterPool",
  "abi": [
    {
      "anonymous": false,
      "inputs": [
        {
          "indexed": true,
          "internalType": "address",
          "name": "previousOwner",
          "type": "address"
        },
        {
          "indexed": true,
          "internalType": "address",
          "name": "newOwner",
          "type": "address"
        }
      ],
      "name": "OwnershipTransferred",
      "type": "event"
    },
    {
      "inputs": [
        {
          "internalType": "address",
          "name": "delegateTo",
          "type": "address"
        },
        {
          "internalType": "bytes",
          "name": "callData",
          "type": "bytes"
        }
      ],
      "name": "_executeQuery",
      "outputs": [
        {
          "internalType": "bytes",
          "name": "",
          "type": "bytes"
        }
      ],
      "stateMutability": "nonpayable",
      "type": "function"
    },
    {
      "inputs": [],
      "name": "owner",
      "outputs": [
        {
          "internalType": "address",
          "name": "",
          "type": "address"
        }
      ],
      "stateMutability": "view",
      "type": "function"
    },
    {
      "inputs": [
        {
          "internalType": "address",
          "name": "viewLogic",
          "type": "address"
        },
        {
          "internalType": "bytes",
          "name": "payload",
          "type": "bytes"
        }
      ],
      "name": "query",
      "outputs": [
        {
          "internalType": "bytes",
          "name": "",
          "type": "bytes"
        }
      ],
      "stateMutability": "view",
      "type": "function"
    },
    {
      "inputs": [],
      "name": "renounceOwnership",
      "outputs": [],
      "stateMutability": "nonpayable",
      "type": "function"
    },
    {
      "inputs": [
        {
          "internalType": "address",
          "name": "newOwner",
          "type": "address"
        }
      ],
      "name": "transferOwnership",
      "outputs": [],
      "stateMutability": "nonpayable",
      "type": "function"
    },
    {
      "inputs": [
        {
          "internalType": "address",
          "name": "shifterRegistry",
          "type": "address"
        },
        {
          "internalType": "uint256",
          "name": "poolFee",
          "type": "uint256"
        },
        {
          "components": [
            {
              "internalType": "enum BorrowProxyLib.ModuleRegistrationType",
              "name": "moduleType",
              "type": "uint8"
            },
            {
              "internalType": "address",
              "name": "target",
              "type": "address"
            },
            {
              "internalType": "bytes4[]",
              "name": "sigs",
              "type": "bytes4[]"
            },
            {
              "components": [
                {
                  "internalType": "address",
                  "name": "assetHandler",
                  "type": "address"
                },
                {
                  "internalType": "address",
                  "name": "liquidationModule",
                  "type": "address"
                }
              ],
              "internalType": "struct BorrowProxyLib.Module",
              "name": "module",
              "type": "tuple"
            }
          ],
          "internalType": "struct BorrowProxyLib.ModuleRegistration[]",
          "name": "modules",
          "type": "tuple[]"
        },
        {
          "components": [
            {
              "internalType": "address",
              "name": "token",
              "type": "address"
            },
            {
              "internalType": "address",
              "name": "liqToken",
              "type": "address"
            }
          ],
          "internalType": "struct ShifterPoolLib.LiquidityTokenLaunch[]",
          "name": "tokenLaunches",
          "type": "tuple[]"
        }
      ],
      "name": "setup",
      "outputs": [],
      "stateMutability": "nonpayable",
      "type": "function"
    },
    {
      "inputs": [
        {
          "components": [
            {
              "components": [
                {
                  "internalType": "address payable",
                  "name": "borrower",
                  "type": "address"
                },
                {
                  "internalType": "address",
                  "name": "token",
                  "type": "address"
                },
                {
                  "internalType": "bytes32",
                  "name": "nonce",
                  "type": "bytes32"
                },
                {
                  "internalType": "uint256",
                  "name": "amount",
                  "type": "uint256"
                }
              ],
              "internalType": "struct ShifterBorrowProxyLib.LiquidityRequest",
              "name": "request",
              "type": "tuple"
            },
            {
              "internalType": "uint256",
              "name": "gasRequested",
              "type": "uint256"
            },
            {
              "internalType": "bytes",
              "name": "signature",
              "type": "bytes"
            }
          ],
          "internalType": "struct ShifterBorrowProxyLib.LiquidityRequestParcel",
          "name": "liquidityRequestParcel",
          "type": "tuple"
        },
        {
          "internalType": "uint256",
          "name": "bond",
          "type": "uint256"
        },
        {
          "internalType": "uint256",
          "name": "timeoutExpiry",
          "type": "uint256"
        }
      ],
      "name": "executeBorrow",
      "outputs": [],
      "stateMutability": "payable",
      "type": "function"
    },
    {
      "inputs": [
        {
          "internalType": "bytes",
          "name": "proxyRecord",
          "type": "bytes"
        }
      ],
      "name": "validateProxyRecordHandler",
      "outputs": [
        {
          "internalType": "bool",
          "name": "",
          "type": "bool"
        }
      ],
      "stateMutability": "view",
      "type": "function"
    },
    {
      "inputs": [
        {
          "internalType": "address",
          "name": "user",
          "type": "address"
        }
      ],
      "name": "getProxyOwnerHandler",
      "outputs": [
        {
          "internalType": "address",
          "name": "",
          "type": "address"
        }
      ],
      "stateMutability": "view",
      "type": "function"
    },
    {
      "inputs": [
        {
          "internalType": "address",
          "name": "token",
          "type": "address"
        }
      ],
      "name": "getShifterHandler",
      "outputs": [
        {
          "internalType": "contract IShifter",
          "name": "",
          "type": "address"
        }
      ],
      "stateMutability": "view",
      "type": "function"
    },
    {
      "inputs": [
        {
          "internalType": "address",
          "name": "token",
          "type": "address"
        }
      ],
      "name": "getLiquidityTokenHandler",
      "outputs": [
        {
          "internalType": "contract LiquidityToken",
          "name": "",
          "type": "address"
        }
      ],
      "stateMutability": "view",
      "type": "function"
    },
    {
      "inputs": [
        {
          "internalType": "address",
          "name": "to",
          "type": "address"
        },
        {
          "internalType": "bytes4",
          "name": "sig",
          "type": "bytes4"
        }
      ],
      "name": "fetchModuleHandler",
      "outputs": [
        {
          "components": [
            {
              "internalType": "address",
              "name": "assetHandler",
              "type": "address"
            },
            {
              "internalType": "address",
              "name": "liquidationModule",
              "type": "address"
            }
          ],
          "internalType": "struct BorrowProxyLib.Module",
          "name": "",
          "type": "tuple"
        }
      ],
      "stateMutability": "view",
      "type": "function"
    },
    {
      "inputs": [
        {
          "internalType": "address",
          "name": "token",
          "type": "address"
        },
        {
          "internalType": "address",
          "name": "liquidityToken",
          "type": "address"
        },
        {
          "internalType": "address",
          "name": "keeper",
          "type": "address"
        },
        {
          "internalType": "uint256",
          "name": "bond",
          "type": "uint256"
        },
        {
          "internalType": "uint256",
          "name": "repay",
          "type": "uint256"
        }
      ],
      "name": "relayResolveLoan",
      "outputs": [
        {
          "internalType": "bool",
          "name": "",
          "type": "bool"
        }
      ],
      "stateMutability": "nonpayable",
      "type": "function"
    }
  ],
  "bytecode": "0x608060405260006100176001600160e01b0361006616565b600080546001600160a01b0319166001600160a01b0383169081178255604051929350917f8be0079c531659141344cd1fd0a4f28419497f9722a3daafe3b4186f6b6457e0908290a35061006a565b3390565b614368806100796000396000f3fe6080604052600436106100c25760003560e01c8063801874ec1161007f578063e6c1f07411610059578063e6c1f07414610203578063f2fde38b14610223578063f5e043b014610243578063fd00430c14610263576100c2565b8063801874ec146101bb5780638da5cb5b146101db578063daf9b824146101f0576100c2565b806308f60495146100c75780631fbc78dc146100fd57806323e3b7301461012a5780634411236014610157578063715018a614610184578063798aada01461019b575b600080fd5b3480156100d357600080fd5b506100e76100e2366004611b84565b610283565b6040516100f49190611e7c565b60405180910390f35b34801561010957600080fd5b5061011d61011836600461199a565b61029d565b6040516100f49190611e07565b34801561013657600080fd5b5061014a610145366004611a48565b6102b0565b6040516100f49190611ea5565b34801561016357600080fd5b50610177610172366004611a10565b61034d565b6040516100f49190612458565b34801561019057600080fd5b5061019961036e565b005b3480156101a757600080fd5b5061011d6101b636600461199a565b6103ed565b3480156101c757600080fd5b506100e76101d63660046119b6565b610400565b3480156101e757600080fd5b5061011d61054a565b6101996101fe366004611bd3565b610559565b34801561020f57600080fd5b5061011d61021e36600461199a565b6108b9565b34801561022f57600080fd5b5061019961023e36600461199a565b6108cc565b34801561024f57600080fd5b5061019961025e366004611a96565b61090d565b34801561026f57600080fd5b5061014a61027e366004611a48565b610a5e565b60006102976006338463ffffffff610b2416565b92915050565b600061029760018363ffffffff610b4a16565b60603330146102da5760405162461bcd60e51b81526004016102d19061213c565b60405180910390fd5b60006060846001600160a01b0316846040516102f69190611dba565b600060405180830381855af49150503d8060008114610331576040519150601f19603f3d011682016040523d82523d6000602084013e610336565b606091505b50915091508161034557600080fd5b949350505050565b6103556116ab565b6103676009848463ffffffff610bca16565b9392505050565b610376610c7c565b6000546001600160a01b039081169116146103a35760405162461bcd60e51b81526004016102d19061235b565b600080546040516001600160a01b03909116907f8be0079c531659141344cd1fd0a4f28419497f9722a3daafe3b4186f6b6457e0908390a3600080546001600160a01b0319169055565b600061029760018363ffffffff610c8016565b3360009081526006602052604081205461042c5760405162461bcd60e51b81526004016102d1906121ef565b82156104685761044c6001600160a01b038716858563ffffffff610cbc16565b6104685760405162461bcd60e51b81526004016102d19061229f565b81156104a4576104886001600160a01b038716868463ffffffff610cbc16565b6104a45760405162461bcd60e51b81526004016102d190612096565b60405163c3275c7960e01b81526001600160a01b0386169063c3275c79906104d0903390600401611e07565b602060405180830381600087803b1580156104ea57600080fd5b505af11580156104fe573d6000803e3d6000fd5b505050506040513d601f19601f820116820180604052506105229190810190611b64565b61053e5760405162461bcd60e51b81526004016102d1906123f5565b50600195945050505050565b6000546001600160a01b031690565b3483602001511461057c5760405162461bcd60e51b81526004016102d19061204a565b600061058784610d5f565b9050610599848263ffffffff610da916565b6105b55760405162461bcd60e51b81526004016102d190612317565b6105bd6116c2565b50835160006105cb82610dda565b905060006105d882610e03565b90506105eb60068263ffffffff610e3916565b156106085760405162461bcd60e51b81526004016102d190611eef565b6106106116e9565b338152606084015161062c90600190898963ffffffff610e5716565b6020820152610639611711565b6040518060400160405280868152602001838152509050606081604051602001610663919061247b565b604051602081830303815290604052905061068c86602001516001610c8090919063ffffffff16565b6001600160a01b031663185cc751856106a485610f56565b6040518363ffffffff1660e01b81526004016106c1929190611e63565b602060405180830381600087803b1580156106db57600080fd5b505af11580156106ef573d6000803e3d6000fd5b505050506040513d601f19601f820116820180604052506107139190810190611b64565b61072f5760405162461bcd60e51b81526004016102d19061217e565b6107416006858363ffffffff610f8e16565b855161075790600690869063ffffffff610fb116565b85516040516001600160a01b03909116903480156108fc02916000818181858888f1935050505015801561078f573d6000803e3d6000fd5b5060208601516107b0906001600160a01b031633308c63ffffffff610fe516565b6107cc5760405162461bcd60e51b81526004016102d190612390565b836001600160a01b03166107df86611073565b6001600160a01b0316146108055760405162461bcd60e51b81526004016102d190612013565b85516040516366d3820360e01b81526001600160a01b038616916366d38203916108329190600401611e07565b602060405180830381600087803b15801561084c57600080fd5b505af1158015610860573d6000803e3d6000fd5b505050506040513d601f19601f820116820180604052506108849190810190611b64565b6108a05760405162461bcd60e51b81526004016102d1906120cd565b85516108ad9085836110a1565b50505050505050505050565b600061029760068363ffffffff6110f116565b6108d4610c7c565b6000546001600160a01b039081169116146109015760405162461bcd60e51b81526004016102d19061235b565b61090a81611114565b50565b610915610c7c565b6000546001600160a01b039081169116146109425760405162461bcd60e51b81526004016102d19061235b565b6001546001600160a01b03161561096b5760405162461bcd60e51b81526004016102d1906121c2565b600180546001600160a01b0319166001600160a01b038616179055600283905560005b82518110156109eb5761099f611731565b8382815181106109ab57fe5b6020026020010151905060008090505b8160400151518110156109e1576109d960098363ffffffff61119516565b6001016109bb565b505060010161098e565b5060005b8151811015610a5757610a006116ab565b828281518110610a0c57fe5b6020908102919091018101518082015190516001600160a01b0390811660009081526005909352604090922080546001600160a01b03191692909116919091179055506001016109ef565b5050505050565b606060006060846001600160a01b03168585604051602401610a81929190611e3f565b60408051601f198184030181529181526020820180516001600160e01b031663023e3b7360e41b17905251610ab69190611dba565b600060405180830381855afa9150503d8060008114610af1576040519150601f19603f3d011682016040523d82523d6000602084013e610af6565b606091505b5091509150818190610b1b5760405162461bcd60e51b81526004016102d19190611ea5565b50949350505050565b80516020918201206001600160a01b039290921660009081529290526040909120541490565b815460405163028c4f4160e41b81526000916001600160a01b0316906328c4f41090610b7a908590600401611e07565b60206040518083038186803b158015610b9257600080fd5b505afa158015610ba6573d6000803e3d6000fd5b505050506040513d601f19601f820116820180604052506103679190810190611bb7565b610bd26116ab565b610bda6116ab565b846000610be78686611251565b81526020808201929092526040908101600020815180830190925280546001600160a01b03908116835260019091015416918101919091529050610c2a81611289565b61034557846000610c3b8686611298565b81526020808201929092526040908101600020815180830190925280546001600160a01b039081168352600190910154169181019190915295945050505050565b3390565b6001600160a01b038082166000908152600484016020526040812054909116806103675760405162461bcd60e51b81526004016102d1906123c0565b600080846001600160a01b03168484604051602401610cdc929190611e63565b60408051601f198184030181529181526020820180516001600160e01b031663a9059cbb60e01b17905251610d119190611dba565b6000604051808303816000865af19150503d8060008114610d4e576040519150601f19603f3d011682016040523d82523d6000602084013e610d53565b606091505b50909695505050505050565b8051602080820151604080840151606090940151838601519151600095610d8c9530959491939201611d11565b604051602081830303815290604052805190602001209050919050565b6000610dc1610db7836112cb565b84604001516112de565b8351516001600160a01b03908116911614905092915050565b60008160000151826020015183604001518460600151604051602001610d8c9493929190611ce3565b60006102978260405180602001610e199061175a565b6020820181038252601f19601f820116604052508051906020012061140c565b6001600160a01b031660009081526020919091526040902054151590565b610e5f611767565b620186a0821015610e825760405162461bcd60e51b81526004016102d190611f31565b6000610e9d670de0b6b3a7640000606463ffffffff61141916565b9050610eb8670de0b6b3a7640000606463ffffffff61141916565b610ee086610ed487670de0b6b3a764000063ffffffff61145b16565b9063ffffffff61141916565b11610efd5760405162461bcd60e51b81526004016102d19061242c565b6000848610610f1f57610f1a86610ed4848863ffffffff61145b16565b610f21565b815b905060405180608001604052808543018152602001868152602001886001015481526020018281525092505050949350505050565b6000610297610f7c610f6784611495565b610f70856114ca565b9063ffffffff6114ff16565b8351606001519063ffffffff61152416565b80516020918201206001600160a01b039092166000908152929052604090912055565b6001600160a01b039182166000908152600190930160205260409092208054919092166001600160a01b0319909116179055565b6040516323b872dd60e01b81526000906001600160a01b038616906323b872dd9061101890879087908790600401611e1b565b602060405180830381600087803b15801561103257600080fd5b505af1158015611046573d6000803e3d6000fd5b505050506040513d601f19601f8201168201806040525061106a9190810190611b64565b95945050505050565b600061029782604051806020016110899061175a565b601f1982820381018352601f90910116604052611566565b816001600160a01b0316836001600160a01b03167f9ae84ac2ad8f721c2e62d211eca0ae34951726f8834913af6c5ebb81610bb1f8836040516110e49190611ea5565b60405180910390a3505050565b6001600160a01b0380821660009081526001840160205260409020541692915050565b6001600160a01b03811661113a5760405162461bcd60e51b81526004016102d190611f96565b600080546040516001600160a01b03808516939216917f8be0079c531659141344cd1fd0a4f28419497f9722a3daafe3b4186f6b6457e091a3600080546001600160a01b0319166001600160a01b0392909216919091179055565b6001815160028111156111a457fe5b14156111f35760005b8160400151518110156111ed576111e5838360200151846040015184815181106111d357fe5b6020026020010151856060015161159b565b6001016111ad565b5061124d565b60028151600281111561120257fe5b141561124d5760005b81604001515181101561124b576112438383602001518460400151848151811061123157fe5b602002602001015185606001516115f2565b60010161120b565b505b5050565b604051600090833f9061126a9082908590602001611da2565b6040516020818303038152906040528051906020012091505092915050565b516001600160a01b0316151590565b600082826040516020016112ad929190611d47565b60405160208183030381529060405280519060200120905092915050565b600081604051602001610d8c9190611dd6565b600081516041146113015760405162461bcd60e51b81526004016102d190611f5f565b60208201516040830151606084015160001a7f7fffffffffffffffffffffffffffffff5d576e7357a4501ddfe92f46681b20a08211156113535760405162461bcd60e51b81526004016102d1906120fa565b8060ff16601b1415801561136b57508060ff16601c14155b156113885760405162461bcd60e51b81526004016102d190612226565b6000600187838686604051600081526020016040526040516113ad9493929190611e87565b6020604051602081039080840390855afa1580156113cf573d6000803e3d6000fd5b5050604051601f1901519150506001600160a01b0381166114025760405162461bcd60e51b81526004016102d190611eb8565b9695505050505050565b6000610367838330611600565b600061036783836040518060400160405280601a81526020017f536166654d6174683a206469766973696f6e206279207a65726f000000000000815250611648565b60008261146a57506000610297565b8282028284828161147757fe5b04146103675760405162461bcd60e51b81526004016102d1906122d6565b6000610297670de0b6b3a7640000610ed48460200151602001516060015185600001516060015161145b90919063ffffffff16565b6000610297670de0b6b3a7640000610ed48460200151602001516040015185600001516060015161145b90919063ffffffff16565b6000828201838110156103675760405162461bcd60e51b81526004016102d190611fdc565b600061036783836040518060400160405280601e81526020017f536166654d6174683a207375627472616374696f6e206f766572666c6f77000081525061167f565b600080838351602085016000f590506001600160a01b0381166103675760405162461bcd60e51b81526004016102d190612268565b808460006115a98686611251565b8152602080820192909252604001600020825181546001600160a01b03199081166001600160a01b03928316178355939092015160019091018054909316911617905550505050565b808460006115a98686611298565b60008060ff60f81b83868660405160200161161e9493929190611d6e565b60408051808303601f1901815291905280516020909101206001600160a01b031695945050505050565b600081836116695760405162461bcd60e51b81526004016102d19190611ea5565b50600083858161167557fe5b0495945050505050565b600081848411156116a35760405162461bcd60e51b81526004016102d19190611ea5565b505050900390565b604080518082019091526000808252602082015290565b60408051608081018252600080825260208201819052918101829052606081019190915290565b604051806040016040528060006001600160a01b0316815260200161170c611767565b905290565b60405180604001604052806117246116c2565b815260200161170c6116e9565b60408051608081019091528060008152600060208201526060604082018190520161170c6116ab565b611d9a8061259983390190565b6040518060800160405280600081526020016000815260200160008152602001600081525090565b600082601f83011261179f578081fd5b81356117b26117ad82612510565b6124e9565b81815291506020808301908481016040808502870183018810156117d557600080fd5b60005b858110156117fc576117ea8984611871565b855293830193918101916001016117d8565b50505050505092915050565b600082601f830112611818578081fd5b813567ffffffffffffffff81111561182e578182fd5b611841601f8201601f19166020016124e9565b915080825283602082850101111561185857600080fd5b8060208401602084013760009082016020015292915050565b600060408284031215611882578081fd5b61188c60406124e9565b9050813561189981612560565b815260208201356118a981612560565b602082015292915050565b600060a082840312156118c5578081fd5b6118cf60806124e9565b905081356118dc8161258b565b81526020828101356118ed81612560565b82820152604083013567ffffffffffffffff81111561190b57600080fd5b80840185601f82011261191d57600080fd5b8035915061192d6117ad83612510565b828152838101908285018585028401860189101561194a57600080fd5b600093505b8484101561197657803561196281612575565b83526001939093019291850191850161194f565b50806040870152505050505061198f8360608401611871565b606082015292915050565b6000602082840312156119ab578081fd5b813561036781612560565b600080600080600060a086880312156119cd578081fd5b85356119d881612560565b945060208601356119e881612560565b935060408601356119f881612560565b94979396509394606081013594506080013592915050565b60008060408385031215611a22578182fd5b8235611a2d81612560565b91506020830135611a3d81612575565b809150509250929050565b60008060408385031215611a5a578081fd5b8235611a6581612560565b9150602083013567ffffffffffffffff811115611a80578182fd5b611a8c85828601611808565b9150509250929050565b60008060008060808587031215611aab578182fd5b8435611ab681612560565b93506020858101359350604086013567ffffffffffffffff80821115611ada578485fd5b81880189601f820112611aeb578586fd5b80359250611afb6117ad84612510565b83815284810190828601885b86811015611b3057611b1e8e8984358801016118b4565b84529287019290870190600101611b07565b509097505050506060880135925080831115611b4a578384fd5b5050611b588782880161178f565b91505092959194509250565b600060208284031215611b75578081fd5b81518015158114610367578182fd5b600060208284031215611b95578081fd5b813567ffffffffffffffff811115611bab578182fd5b61034584828501611808565b600060208284031215611bc8578081fd5b815161036781612560565b600080600060608486031215611be7578081fd5b833567ffffffffffffffff80821115611bfe578283fd5b818601808803925060c0831215611c13578384fd5b611c1d60606124e9565b6080841215611c2a578485fd5b611c3460806124e9565b93508135611c4181612560565b84526020820135611c5181612560565b8060208601525060408201356040850152606082013560608501528381526080820135602082015260a0820135935082841115611c8c578485fd5b611c9889858401611808565b6040828101919091529099602089013599509701359695505050505050565b60008151808452611ccf816020860160208601612530565b601f01601f19169290920160200192915050565b6001600160601b0319606095861b811682529390941b90921660148401526028830152604882015260680190565b6001600160601b0319606096871b811682529490951b909316601485015260288401919091526048830152606882015260880190565b60609290921b6001600160601b03191682526001600160e01b031916601482015260180190565b6001600160f81b031994909416845260609290921b6001600160601b03191660018401526015830152603582015260550190565b9182526001600160e01b031916602082015260240190565b60008251611dcc818460208701612530565b9190910192915050565b7f19457468657265756d205369676e6564204d6573736167653a0a3332000000008152601c810191909152603c0190565b6001600160a01b0391909116815260200190565b6001600160a01b039384168152919092166020820152604081019190915260600190565b6001600160a01b038316815260406020820181905260009061034590830184611cb7565b6001600160a01b03929092168252602082015260400190565b901515815260200190565b93845260ff9290921660208401526040830152606082015260800190565b6000602082526103676020830184611cb7565b60208082526018908201527f45434453413a20696e76616c6964207369676e61747572650000000000000000604082015260600190565b60208082526022908201527f70726f78792068617320616c7265616479206265656e20696e697469616c697a604082015261195960f21b606082015260800190565b6020808252601490820152731d1a5b595bdd5d081a5b9cdd59999a58da595b9d60621b604082015260600190565b6020808252601f908201527f45434453413a20696e76616c6964207369676e6174757265206c656e67746800604082015260600190565b60208082526026908201527f4f776e61626c653a206e6577206f776e657220697320746865207a65726f206160408201526564647265737360d01b606082015260800190565b6020808252601b908201527f536166654d6174683a206164646974696f6e206f766572666c6f770000000000604082015260600190565b60208082526017908201527f70726f7879206465706c6f796d656e74206661696c6564000000000000000000604082015260600190565b6020808252602c908201527f737570706c696564206574686572206973206e6f7420657175616c20746f206760408201526b185cc81c995c5d595cdd195960a21b606082015260800190565b6020808252601a908201527f6661696c656420746f207265706179206c6f73742066756e6473000000000000604082015260600190565b6020808252601390820152727365747570207068617365206661696c75726560681b604082015260600190565b60208082526022908201527f45434453413a20696e76616c6964207369676e6174757265202773272076616c604082015261756560f01b606082015260800190565b60208082526022908201527f756e617574686f72697a65642076696577206c617965722064656c656761746960408201526137b760f11b606082015260800190565b60208082526024908201527f696e73756666696369656e742066756e647320696e206c6971756964697479206040820152631c1bdbdb60e21b606082015260800190565b602080825260139082015272185b1c9958591e481a5b9a5d1a585b1a5e9959606a1b604082015260600190565b6020808252601d908201527f6e6f742061207265676973746572656420626f72726f772070726f7879000000604082015260600190565b60208082526022908201527f45434453413a20696e76616c6964207369676e6174757265202776272076616c604082015261756560f01b606082015260800190565b60208082526019908201527f437265617465323a204661696c6564206f6e206465706c6f7900000000000000604082015260600190565b6020808252601f908201527f6661696c656420746f2072657475726e20626f6e6420746f206b656570657200604082015260600190565b60208082526021908201527f536166654d6174683a206d756c7469706c69636174696f6e206f766572666c6f6040820152607760f81b606082015260800190565b60208082526024908201527f6c69717569646974792072657175657374207369676e61747572652072656a6560408201526318dd195960e21b606082015260800190565b6020808252818101527f4f776e61626c653a2063616c6c6572206973206e6f7420746865206f776e6572604082015260600190565b602080825260169082015275189bdb99081cdd589b5a5cdcda5bdb8819985a5b195960521b604082015260600190565b6020808252818101527f6e6f7420612072656769737465726564206c697175696469747920746f6b656e604082015260600190565b60208082526017908201527f6c6f616e207265736f6c7574696f6e206661696c757265000000000000000000604082015260600190565b602080825260129082015271626f6e642062656c6f77206d696e696d756d60701b604082015260600190565b81516001600160a01b039081168252602092830151169181019190915260400190565b815180516001600160a01b0390811683526020808301518216818501526040808401518186015260609384015184860152948101518051909216608085015290810151805160a08501529081015160c08401529283015160e083015291909101516101008201526101200190565b60405181810167ffffffffffffffff8111828210171561250857600080fd5b604052919050565b600067ffffffffffffffff821115612526578081fd5b5060209081020190565b60005b8381101561254b578181015183820152602001612533565b8381111561255a576000848401525b50505050565b6001600160a01b038116811461090a57600080fd5b6001600160e01b03198116811461090a57600080fd5b6003811061090a57600080fdfe608060405234801561001057600080fd5b50611d7a806100206000396000f3fe608060405234801561001057600080fd5b50600436106100625760003560e01c806323e3b730146100675780632692f25a1461009057806356b8e146146100a557806366d38203146100c5578063c4ddf363146100d8578063fd00430c146100eb575b600080fd5b61007a610075366004611533565b6100fe565b60405161008791906119ac565b60405180910390f35b6100a361009e366004611581565b61019d565b005b6100b86100b33660046115f8565b610373565b6040516100879190611972565b6100b86100d3366004611517565b610729565b6100b86100e63660046115f8565b610786565b61007a6100f9366004611533565b610b44565b60603330146101285760405162461bcd60e51b815260040161011f90611a54565b60405180910390fd5b60006060846001600160a01b0316846040516101449190611882565b600060405180830381855af49150503d806000811461017f576040519150601f19603f3d011682016040523d82523d6000602084013e610184565b606091505b50915091508161019357600080fd5b9150505b92915050565b6001546001600160a01b031633146101c75760405162461bcd60e51b815260040161011f90611af3565b600054600160a01b900460ff161561026c5760006060846001600160a01b031684846040516101f69190611882565b60006040518083038185875af1925050503d8060008114610233576040519150601f19603f3d011682016040523d82523d6000602084013e610238565b606091505b5091509150816102645761024b81610c0a565b60405162461bcd60e51b815260040161011f91906119ac565b805160208201f35b60006102886102838383600463ffffffff610d1016565b610d2d565b60e01b9050610295611262565b604051632f1a48af60e01b815273__BorrowProxyLib________________________90632f1a48af906102d19060009089908790600401611c2e565b60606040518083038186803b1580156102e957600080fd5b505af41580156102fd573d6000803e3d6000fd5b505050506040513d601f19601f82011682018060405250610321919081019061167a565b90506103308160200151610d4f565b61034c5760405162461bcd60e51b815260040161011f90611a1d565b6000606061036183868863ffffffff610d5e16565b91509150816102645761024b81610c0a565b600061037e82610e37565b61039a5760405162461bcd60e51b815260040161011f90611ac5565b6103a261128a565b828060200190516103b691908101906116f4565b600680546040805160208084028201810190925282815293945060609392919083018282801561040f57602002820191906000526020600020905b81546001600160a01b031681526001909101906020018083116103f1575b5050505050905043826020015160200151600001511061071d5760035460ff166104ba578151602001516040516370a0823160e01b81526001600160a01b03909116906370a082319061046690309060040161189e565b60206040518083038186803b15801561047e57600080fd5b505afa158015610492573d6000803e3d6000fd5b505050506040513d601f19601f820116820180604052506104b691908101906117b2565b6004555b6003805460ff191660011790556002545b815181101561052357620493e05a108061050757506105058282815181106104ef57fe5b60200260200101516001600160a01b0316610eba565b155b1561051b5760025550600091506107249050565b6001016104cb565b50805160025560008054600480548551602001516040516370a0823160e01b81526001600160a01b03948516959294929391909216916370a082319161056b9130910161189e565b60206040518083038186803b15801561058357600080fd5b505afa158015610597573d6000803e3d6000fd5b505050506040513d601f19601f820116820180604052506105bb91908101906117b2565b905081810360008082126105cf57816105d2565b60005b875160608101516020909101516040516303cc556d60e51b81529290910392506001600160a01b0387169163801874ec9190839063798aada09061061a90849060040161189e565b60206040518083038186803b15801561063257600080fd5b505afa158015610646573d6000803e3d6000fd5b505050506040513d601f19601f8201168201806040525061066a919081019061162b565b60208b0151518b51606001516040516001600160e01b031960e087901b16815261069f94939291889003908890600401611901565b602060405180830381600087803b1580156106b957600080fd5b505af11580156106cd573d6000803e3d6000fd5b505050506040513d601f19601f820116820180604052506106f191908101906115d8565b61070d5760405162461bcd60e51b815260040161011f90611bf7565b6001975050505050505050610724565b6000925050505b919050565b6001546000906001600160a01b0316156107555760405162461bcd60e51b815260040161011f906119bf565b50600080546001600160a01b03199081163317909155600180546001600160a01b0384169216919091178155919050565b60006107906112aa565b828060200190516107a49190810190611710565b90506107d281600001516040516020016107be9190611c57565b604051602081830303815290604052610e37565b6107ee5760405162461bcd60e51b815260040161011f90611ac5565b60035460ff16156108115760405162461bcd60e51b815260040161011f90611bc0565b60008054825151602001516040516307ef1e3760e21b81526001600160a01b0390921691631fbc78dc916108479160040161189e565b60206040518083038186803b15801561085f57600080fd5b505afa158015610873573d6000803e3d6000fd5b505050506040513d601f19601f82011682018060405250610897919081019061162b565b6001600160a01b031663bb4a1d8c8360600151846000015160000151606001516108c086610f93565b86608001516040518563ffffffff1660e01b81526004016108e4949392919061197d565b602060405180830381600087803b1580156108fe57600080fd5b505af1158015610912573d6000803e3d6000fd5b505050506040513d601f19601f8201168201806040525061093691908101906117b2565b825190915060009061094e908363ffffffff610fd516565b6000805460ff60a01b1916600160a01b17808255855151602001516040516303cc556d60e51b815293945091926001600160a01b039091169163798aada09161099a919060040161189e565b60206040518083038186803b1580156109b257600080fd5b505afa1580156109c6573d6000803e3d6000fd5b505050506040513d601f19601f820116820180604052506109ea919081019061162b565b84515160200151909150610a10906001600160a01b03168284860363ffffffff61101516565b610a2c5760405162461bcd60e51b815260040161011f90611a96565b83516020808201515191510151610a55916001600160a01b03909116908463ffffffff61101516565b610a715760405162461bcd60e51b815260040161011f906119ef565b600080548551805160209081015191810151805190820151909101516040516320061d3b60e21b81526001600160a01b039094169463801874ec94610abf9493889390929091600401611901565b602060405180830381600087803b158015610ad957600080fd5b505af1158015610aed573d6000803e3d6000fd5b505050506040513d601f19601f82011682018060405250610b1191908101906115d8565b610b2d5760405162461bcd60e51b815260040161011f90611b7d565b8351805151610b3b916110b8565b50505050919050565b606060006060846001600160a01b03168585604051602401610b67929190611935565b60408051601f198184030181529181526020820180516001600160e01b031663023e3b7360e41b17905251610b9c9190611882565b600060405180830381855afa9150503d8060008114610bd7576040519150601f19603f3d011682016040523d82523d6000602084013e610bdc565b606091505b5091509150818190610c015760405162461bcd60e51b815260040161011f91906119ac565b50949350505050565b6060815160001415610c50575060408051808201909152601c81527f636170747572656420656d7074792072657665727420627566666572000000006020820152610724565b6308c379a0610c656102838460006004610d10565b63ffffffff1614610c90576040518060600160405280603f8152602001611d06603f91399050610724565b6060610cab610ca684600463ffffffff6110fd16565b611121565b9050805160001415610cf257505060408051808201909152601d81527f636170747572656420656d70747920726576657274206d6573736167650000006020820152610724565b606081806020019051610d089190810190611647565b949350505050565b610d186112e1565b92820160209081018452830152604082015290565b805160209182015191829003900351600160089092029190911b600019011690565b516001600160a01b0316151590565b6020808401518051908201518551604051600094606094869486946001600160a01b03831694610d95943292918c918e91016118b2565b60408051601f1981840301815290829052610daf91611882565b600060405180830381855af49150503d8060008114610dea576040519150601f19603f3d011682016040523d82523d6000602084013e610def565b606091505b50915091507f1b9f3768cbe72e841e624814d886be188a27ee82b1477e16b88834a3ba535c1682604051610e239190611972565b60405180910390a190969095509350505050565b600080546040516308f6049560e01b81526001600160a01b03909116906308f6049590610e689085906004016119ac565b602060405180830381600087803b158015610e8257600080fd5b505af1158015610e96573d6000803e3d6000fd5b505050506040513d601f19601f8201168201806040525061019791908101906115d8565b6000806060836001600160a01b031684604051602401610eda919061189e565b60408051601f198184030181529181526020820180516001600160e01b03166305f0caad60e31b17905251610f0f9190611882565b600060405180830381855af49150503d8060008114610f4a576040519150601f19603f3d011682016040523d82523d6000602084013e610f4f565b606091505b50915091508051602014610f6857600092505050610724565b600081806020019051610f7e91908101906115d8565b9050828015610f8a5750805b95945050505050565b805151604090810151602080840151838501519351600094610fb8949390910161186c565b604051602081830303815290604052805190602001209050919050565b600061100e670de0b6b3a7640000611002856020015160200151606001518561117190919063ffffffff16565b9063ffffffff6111ab16565b9392505050565b600080846001600160a01b03168484604051602401611035929190611959565b60408051601f198184030181529181526020820180516001600160e01b031663a9059cbb60e01b1790525161106a9190611882565b6000604051808303816000865af19150503d80600081146110a7576040519150601f19603f3d011682016040523d82523d6000602084013e6110ac565b606091505b50909695505050505050565b816001600160a01b03167f8118f0dfd16240978600a1121acd44dd113e1071790496f111043c87672720bf826040516110f19190611c57565b60405180910390a25050565b6111056112e1565b818351101561111357825191505b61100e838384865103610d10565b60208082015160408051828152601f19601f84011681019093019052606091818015611154576020820181803883390190505b508351909250602083016111698183856111ed565b505050919050565b60008261118057506000610197565b8282028284828161118d57fe5b041461100e5760405162461bcd60e51b815260040161011f90611b3c565b600061100e83836040518060400160405280601a81526020017f536166654d6174683a206469766973696f6e206279207a65726f00000000000081525061122b565b5b6020811061120d578151835260209283019290910190601f19016111ee565b600180600883602003021b0380845116811984511617845250505050565b6000818361124c5760405162461bcd60e51b815260040161011f91906119ac565b50600083858161125857fe5b0495945050505050565b604051806040016040528060006001600160a01b03168152602001611285611302565b905290565b604051806040016040528061129d611319565b8152602001611285611340565b6040518060a001604052806112bd61128a565b81526000602082018190526040820181905260608083019190915260809091015290565b60405180606001604052806000815260200160008152602001600081525090565b604080518082019091526000808252602082015290565b60408051608081018252600080825260208201819052918101829052606081019190915290565b604051806040016040528060006001600160a01b031681526020016112856040518060800160405280600081526020016000815260200160008152602001600081525090565b600082601f830112611396578081fd5b81516113a96113a482611c8d565b611c66565b91508082528360208285010111156113c057600080fd5b6113d1816020840160208601611cbd565b5092915050565b600082601f8301126113e8578081fd5b81356113f66113a482611c8d565b915080825283602082850101111561140d57600080fd5b8060208401602084013760009082016020015292915050565b6000818303610120811215611439578182fd5b6114436040611c66565b9150608081121561145357600080fd5b61145d6080611c66565b835161146881611ced565b8152602084015161147881611ced565b60208201526040848101519082015260608085015190820152825260a0607f19820112156114a557600080fd5b6114af6040611c66565b60808401516114bd81611ced565b81526080609f19830112156114d157600080fd5b6114db6080611c66565b915060a0840151825260c0840151602083015260e084015160408301526101008401516060830152816020820152806020840152505092915050565b600060208284031215611528578081fd5b813561100e81611ced565b60008060408385031215611545578081fd5b823561155081611ced565b9150602083013567ffffffffffffffff81111561156b578182fd5b611577858286016113d8565b9150509250929050565b600080600060608486031215611595578081fd5b83356115a081611ced565b925060208401359150604084013567ffffffffffffffff8111156115c2578182fd5b6115ce868287016113d8565b9150509250925092565b6000602082840312156115e9578081fd5b8151801515811461100e578182fd5b600060208284031215611609578081fd5b813567ffffffffffffffff81111561161f578182fd5b610d08848285016113d8565b60006020828403121561163c578081fd5b815161100e81611ced565b600060208284031215611658578081fd5b815167ffffffffffffffff81111561166e578182fd5b610d0884828501611386565b6000818303606081121561168c578182fd5b6116966040611c66565b83516116a181611ced565b81526040601f19830112156116b4578283fd5b6116be6040611c66565b915060208401516116ce81611ced565b825260408401516116de81611ced565b6020838101919091528101919091529392505050565b60006101208284031215611706578081fd5b61100e8383611426565b600060208284031215611721578081fd5b815167ffffffffffffffff80821115611738578283fd5b8184016101a0818703121561174b578384fd5b61175560a0611c66565b92506117618682611426565b835261012081015160208401526101408101516040840152610160810151606084015261018081015182811115611796578485fd5b6117a287828401611386565b6080850152509195945050505050565b6000602082840312156117c3578081fd5b5051919050565b600081518084526117e2816020860160208601611cbd565b601f01601f19169290920160200192915050565b805160018060a01b038082511684528060208301511660208501525060408101516040840152606081015160608401525060208101516118368151611cb1565b60808401526020810151805160a0850152602081015160c0850152604081015160e0850152606081015161010085015250505050565b9283526020830191909152604082015260600190565b60008251611894818460208701611cbd565b9190910192915050565b6001600160a01b0391909116815260200190565b6001600160a01b03878116825286811660208301528581166040830152841660608201526080810183905260c060a082018190526000906118f5908301846117ca565b98975050505050505050565b6001600160a01b03958616815293851660208501529190931660408301526060820192909252608081019190915260a00190565b6001600160a01b0383168152604060208201819052600090610d08908301846117ca565b6001600160a01b03929092168252602082015260400190565b901515815260200190565b6000858252846020830152836040830152608060608301526119a260808301846117ca565b9695505050505050565b60006020825261100e60208301846117ca565b60208082526016908201527563616e277420696e697469616c697a6520747769636560501b604082015260600190565b6020808252601490820152731ad9595c195c881c185e5bdd5d0819985a5b195960621b604082015260600190565b6020808252601f908201527f66756e6374696f6e2068616e646c6572206e6f74207265676973746572656400604082015260600190565b60208082526022908201527f756e617574686f72697a65642076696577206c617965722064656c656761746960408201526137b760f11b606082015260800190565b6020808252601590820152741d1bdad95b881d1c985b9cd9995c8819985a5b1959605a1b604082015260600190565b6020808252601490820152731c1c9bde1e481c9958dbdc99081a5b9d985b1a5960621b604082015260600190565b60208082526029908201527f626f72726f772070726f78792063616e206f6e6c792062652075736564206279604082015268103137b93937bbb2b960b91b606082015260800190565b60208082526021908201527f536166654d6174683a206d756c7469706c69636174696f6e206f766572666c6f6040820152607760f81b606082015260800190565b60208082526023908201527f6c6f616e207265736f6c7574696f6e206e6f74696669636174696f6e206661696040820152621b195960ea1b606082015260800190565b60208082526019908201527f70726f7879206973206265696e67206c69717569646174656400000000000000604082015260600190565b60208082526017908201527f6c6f616e207265736f6c7574696f6e206661696c757265000000000000000000604082015260600190565b9283526001600160a01b039190911660208301526001600160e01b031916604082015260600190565b610120810161019782846117f6565b60405181810167ffffffffffffffff81118282101715611c8557600080fd5b604052919050565b600067ffffffffffffffff821115611ca3578081fd5b50601f01601f191660200190565b6001600160a01b031690565b60005b83811015611cd8578181015183820152602001611cc0565b83811115611ce7576000848401525b50505050565b6001600160a01b0381168114611d0257600080fd5b5056fe6361707475726564206120726576657274206572726f722c2062757420697420646f65736e277420636f6e666f726d20746f20746865207374616e64617264a2646970667358221220f8777e85415a9c5e23c58ff2b590cb772361be657d0aa264178be47cf1bc782e64736f6c63430006020033a2646970667358221220b81b3e5b18b7934e6a68abcbd4df0f8e5563bd973b84d6b111073b098a53aa8464736f6c63430006020033",
  "source": "pragma solidity ^0.6.0;\npragma experimental ABIEncoderV2;\n\nimport { Ownable } from \"openzeppelin-solidity/contracts/access/Ownable.sol\";\nimport { IShifterRegistry } from \"./interfaces/IShifterRegistry.sol\";\nimport { IShifter } from \"./interfaces/IShifter.sol\";\nimport { ShifterPoolLib } from \"./ShifterPoolLib.sol\";\nimport { ShifterBorrowProxyLib } from \"./ShifterBorrowProxyLib.sol\";\nimport { ShifterBorrowProxyFactoryLib } from \"./ShifterBorrowProxyFactoryLib.sol\";\nimport { BorrowProxy } from \"./BorrowProxy.sol\";\nimport { BorrowProxyLib } from \"./BorrowProxyLib.sol\";\nimport { TokenUtils } from \"./utils/TokenUtils.sol\";\nimport { ViewExecutor } from \"./utils/ViewExecutor.sol\";\nimport { LiquidityToken } from \"./LiquidityToken.sol\";\n\ncontract ShifterPool is Ownable, ViewExecutor {\n  using ShifterPoolLib for *;\n  using TokenUtils for *;\n  using ShifterBorrowProxyLib for *;\n  using ShifterBorrowProxyFactoryLib for *;\n  using BorrowProxyLib for *;\n  ShifterPoolLib.Isolate isolate;\n  function setup(address shifterRegistry, uint256 poolFee, BorrowProxyLib.ModuleRegistration[] memory modules, ShifterPoolLib.LiquidityTokenLaunch[] memory tokenLaunches) public onlyOwner {\n    require(isolate.shifterRegistry == address(0x0), \"already initialized\");\n    isolate.shifterRegistry = shifterRegistry;\n    isolate.poolFee = poolFee;\n    for (uint256 i = 0; i < modules.length; i++) {\n      BorrowProxyLib.ModuleRegistration memory registration = modules[i];\n      for (uint256 j = 0; j < registration.sigs.length; j++) {\n        isolate.registry.registryRegisterModule(registration);\n      }\n    }\n    for (uint256 i = 0; i < tokenLaunches.length; i++) {\n      ShifterPoolLib.LiquidityTokenLaunch memory launch = tokenLaunches[i];\n      isolate.tokenToLiquidityToken[launch.token] = launch.liqToken;\n    }\n  }\n  function executeBorrow(ShifterBorrowProxyLib.LiquidityRequestParcel memory liquidityRequestParcel, uint256 bond, uint256 timeoutExpiry) public payable {\n    require(liquidityRequestParcel.gasRequested == msg.value, \"supplied ether is not equal to gas requested\");\n    bytes32 requestHash = liquidityRequestParcel.computeLiquidityRequestHash();\n    require(liquidityRequestParcel.validateSignature(requestHash), \"liquidity request signature rejected\");\n    ShifterBorrowProxyLib.LiquidityRequest memory liquidityRequest = liquidityRequestParcel.request;\n    bytes32 borrowerSalt = liquidityRequest.computeBorrowerSalt();\n    address proxyAddress = borrowerSalt.deriveBorrowerAddress();\n    require(!isolate.borrowProxyController.isInitialized(proxyAddress), \"proxy has already been initialized\");\n    ShifterBorrowProxyLib.LenderRecord memory loan;\n    loan.keeper = msg.sender;\n    loan.params = isolate.computeLoanParams(liquidityRequest.amount, bond, timeoutExpiry);\n    ShifterBorrowProxyLib.ProxyRecord memory proxyRecord = ShifterBorrowProxyLib.ProxyRecord({\n      request: liquidityRequest,\n      loan: loan\n    });\n    bytes memory data = abi.encode(proxyRecord);\n    require(LiquidityToken(isolate.getLiquidityToken(liquidityRequest.token)).loan(proxyAddress, proxyRecord.computePostFee()), \"insufficient funds in liquidity pool\");\n    isolate.borrowProxyController.mapProxyRecord(proxyAddress, data);\n    isolate.borrowProxyController.setProxyOwner(proxyAddress, liquidityRequest.borrower);\n    liquidityRequest.borrower.transfer(msg.value);\n    require(liquidityRequest.token.transferTokenFrom(msg.sender, address(this), bond), \"bond submission failed\");\n    require(borrowerSalt.deployBorrowProxy() == proxyAddress, \"proxy deployment failed\");\n    require(BorrowProxy(proxyAddress).setup(liquidityRequest.borrower), \"setup phase failure\");\n    BorrowProxyLib.emitBorrowProxyMade(liquidityRequest.borrower, proxyAddress, data);\n  }\n  function validateProxyRecordHandler(bytes memory proxyRecord) public view returns (bool) {\n    return isolate.borrowProxyController.validateProxyRecord(msg.sender, proxyRecord);\n  }\n  function getProxyOwnerHandler(address user) public view returns (address) {\n    return isolate.borrowProxyController.getProxyOwner(user);\n  }\n  function getShifterHandler(address token) public view returns (IShifter) {\n    return isolate.getShifter(token);\n  }\n  function getLiquidityTokenHandler(address token) public view returns (LiquidityToken) {\n    return LiquidityToken(isolate.getLiquidityToken(token));\n  }\n  function fetchModuleHandler(address to, bytes4 sig) public view returns (BorrowProxyLib.Module memory) {\n    return isolate.registry.resolveModule(to, sig);\n  }\n  function relayResolveLoan(address token, address liquidityToken, address keeper, uint256 bond, uint256 repay) public returns (bool) {\n    require(isolate.borrowProxyController.proxyInitializerRecord[msg.sender] != bytes32(0x0), \"not a registered borrow proxy\");\n    if (bond != 0) require(token.sendToken(keeper, bond), \"failed to return bond to keeper\");\n    if (repay != 0) require(token.sendToken(liquidityToken, repay), \"failed to repay lost funds\");\n    require(LiquidityToken(liquidityToken).resolveLoan(msg.sender), \"loan resolution failure\");\n    return true;\n  }\n}\n",
  "sourcePath": "/home/ray/0confirmation/packages/0confirmation-sol/contracts/ShifterPool.sol",
  "compiler": {
    "name": "solc",
    "version": "0.6.2+commit.bacdbe57.Emscripten.clang"
  },
  "schemaVersion": "3.0.23",
  "updatedAt": "2020-04-03T22:51:59.706Z",
  "devdoc": {
    "methods": {
      "owner()": {
        "details": "Returns the address of the current owner."
      },
      "renounceOwnership()": {
        "details": "Leaves the contract without owner. It will not be possible to call `onlyOwner` functions anymore. Can only be called by the current owner.     * NOTE: Renouncing ownership will leave the contract without an owner, thereby removing any functionality that is only available to the owner."
      },
      "transferOwnership(address)": {
        "details": "Transfers ownership of the contract to a new account (`newOwner`). Can only be called by the current owner."
      }
    }
  },
  "userdoc": {
    "methods": {}
  }
}