{
  "contractName": "ShifterPool",
  "abi": [
    {
      "inputs": [
        {
          "internalType": "address",
          "name": "shifterRegistry",
          "type": "address"
        },
        {
          "internalType": "uint256",
          "name": "poolFee",
          "type": "uint256"
        }
      ],
      "stateMutability": "nonpayable",
      "type": "constructor"
    },
    {
      "anonymous": false,
      "inputs": [
        {
          "indexed": true,
          "internalType": "address",
          "name": "previousOwner",
          "type": "address"
        },
        {
          "indexed": true,
          "internalType": "address",
          "name": "newOwner",
          "type": "address"
        }
      ],
      "name": "OwnershipTransferred",
      "type": "event"
    },
    {
      "inputs": [],
      "name": "isOwner",
      "outputs": [
        {
          "internalType": "bool",
          "name": "",
          "type": "bool"
        }
      ],
      "stateMutability": "view",
      "type": "function"
    },
    {
      "inputs": [],
      "name": "owner",
      "outputs": [
        {
          "internalType": "address",
          "name": "",
          "type": "address"
        }
      ],
      "stateMutability": "view",
      "type": "function"
    },
    {
      "inputs": [],
      "name": "renounceOwnership",
      "outputs": [],
      "stateMutability": "nonpayable",
      "type": "function"
    },
    {
      "inputs": [
        {
          "internalType": "address",
          "name": "newOwner",
          "type": "address"
        }
      ],
      "name": "transferOwnership",
      "outputs": [],
      "stateMutability": "nonpayable",
      "type": "function"
    },
    {
      "inputs": [
        {
          "internalType": "address",
          "name": "token",
          "type": "address"
        },
        {
          "components": [
            {
              "internalType": "bytes32",
              "name": "pHash",
              "type": "bytes32"
            },
            {
              "internalType": "uint256",
              "name": "amount",
              "type": "uint256"
            },
            {
              "internalType": "bytes32",
              "name": "nHash",
              "type": "bytes32"
            }
          ],
          "internalType": "struct RenVMShiftMessageLib.RenVMShiftMessage",
          "name": "shiftMessage",
          "type": "tuple"
        },
        {
          "components": [
            {
              "internalType": "uint256",
              "name": "amount",
              "type": "uint256"
            },
            {
              "internalType": "uint256",
              "name": "nonce",
              "type": "uint256"
            },
            {
              "internalType": "uint256",
              "name": "keeperFee",
              "type": "uint256"
            },
            {
              "internalType": "uint256",
              "name": "timeoutExpiry",
              "type": "uint256"
            },
            {
              "internalType": "bytes",
              "name": "signature",
              "type": "bytes"
            }
          ],
          "internalType": "struct ShifterPoolLib.LiquidityProvisionMessage",
          "name": "liquidityProvision",
          "type": "tuple"
        }
      ],
      "name": "borrow",
      "outputs": [],
      "stateMutability": "nonpayable",
      "type": "function"
    },
    {
      "inputs": [
        {
          "internalType": "bytes",
          "name": "proxyRecord",
          "type": "bytes"
        }
      ],
      "name": "validateProxyRecordHandler",
      "outputs": [
        {
          "internalType": "bool",
          "name": "",
          "type": "bool"
        }
      ],
      "stateMutability": "view",
      "type": "function"
    },
    {
      "inputs": [],
      "name": "getProxyOwnerHandler",
      "outputs": [
        {
          "internalType": "address",
          "name": "",
          "type": "address"
        }
      ],
      "stateMutability": "view",
      "type": "function"
    },
    {
      "inputs": [
        {
          "internalType": "address",
          "name": "token",
          "type": "address"
        }
      ],
      "name": "getShifterHandler",
      "outputs": [
        {
          "internalType": "contract IShifter",
          "name": "",
          "type": "address"
        }
      ],
      "stateMutability": "view",
      "type": "function"
    },
    {
      "inputs": [
        {
          "internalType": "address",
          "name": "token",
          "type": "address"
        }
      ],
      "name": "getLiquidityTokenHandler",
      "outputs": [
        {
          "internalType": "contract LiquidityToken",
          "name": "",
          "type": "address"
        }
      ],
      "stateMutability": "view",
      "type": "function"
    },
    {
      "inputs": [
        {
          "internalType": "address",
          "name": "liquidityToken",
          "type": "address"
        }
      ],
      "name": "relayResolveLoan",
      "outputs": [
        {
          "internalType": "bool",
          "name": "",
          "type": "bool"
        }
      ],
      "stateMutability": "nonpayable",
      "type": "function"
    }
  ],
  "bytecode": "0x60806040523480156200001157600080fd5b50604051620034ba380380620034ba833981810160405262000037919081019062000172565b6000620000496200013c60201b60201c565b9050806000806101000a81548173ffffffffffffffffffffffffffffffffffffffff021916908373ffffffffffffffffffffffffffffffffffffffff1602179055508073ffffffffffffffffffffffffffffffffffffffff16600073ffffffffffffffffffffffffffffffffffffffff167f8be0079c531659141344cd1fd0a4f28419497f9722a3daafe3b4186f6b6457e060405160405180910390a35081600160000160006101000a81548173ffffffffffffffffffffffffffffffffffffffff021916908373ffffffffffffffffffffffffffffffffffffffff160217905550806001800181905550505062000225565b600033905090565b6000815190506200015581620001f1565b92915050565b6000815190506200016c816200020b565b92915050565b600080604083850312156200018657600080fd5b6000620001968582860162000144565b9250506020620001a9858286016200015b565b9150509250929050565b6000620001c082620001c7565b9050919050565b600073ffffffffffffffffffffffffffffffffffffffff82169050919050565b6000819050919050565b620001fc81620001b3565b81146200020857600080fd5b50565b6200021681620001e7565b81146200022257600080fd5b50565b61328580620002356000396000f3fe60806040523480156200001157600080fd5b5060043610620000ac5760003560e01c80637b3b00be116200006f5780637b3b00be14620001955780638da5cb5b14620001b75780638f32d59b14620001d9578063c24f12da14620001fb578063f2fde38b146200021b57620000ac565b80630290af5d14620000b157806308f6049514620000e75780631fbc78dc146200011d578063715018a61462000153578063798aada0146200015f575b600080fd5b620000cf6004803603620000c991908101906200174c565b6200023b565b604051620000de919062001f25565b60405180910390f35b620001056004803603620000ff919081019062001813565b6200036f565b60405162000114919062001f25565b60405180910390f35b6200013b60048036036200013591908101906200174c565b62000393565b6040516200014a919062001fb3565b60405180910390f35b6200015d620003b2565b005b6200017d60048036036200017791908101906200174c565b620004bd565b6040516200018c919062001fd0565b60405180910390f35b6200019f620004dc565b604051620001ae919062001ebe565b60405180910390f35b620001c1620004fc565b604051620001d0919062001ebe565b60405180910390f35b620001e362000525565b604051620001f2919062001f25565b60405180910390f35b62000219600480360362000213919081019062001778565b62000585565b005b6200023960048036036200023391908101906200174c565b62000913565b005b60008060001b600160050160000160003373ffffffffffffffffffffffffffffffffffffffff1673ffffffffffffffffffffffffffffffffffffffff168152602001908152602001600020541415620002cb576040517f08c379a0000000000000000000000000000000000000000000000000000000008152600401620002c29062002099565b60405180910390fd5b8173ffffffffffffffffffffffffffffffffffffffff1663c3275c79336040518263ffffffff1660e01b815260040162000306919062001edb565b602060405180830381600087803b1580156200032157600080fd5b505af115801562000336573d6000803e3d6000fd5b505050506040513d601f19601f820116820180604052506200035c9190810190620017e7565b6200036657600080fd5b60019050919050565b60006200038c338360016005016200096d9092919063ffffffff16565b9050919050565b6000620003ab826001620009c390919063ffffffff16565b9050919050565b620003bc62000525565b620003fe576040517f08c379a0000000000000000000000000000000000000000000000000000000008152600401620003f590620020ff565b60405180910390fd5b600073ffffffffffffffffffffffffffffffffffffffff166000809054906101000a900473ffffffffffffffffffffffffffffffffffffffff1673ffffffffffffffffffffffffffffffffffffffff167f8be0079c531659141344cd1fd0a4f28419497f9722a3daafe3b4186f6b6457e060405160405180910390a360008060006101000a81548173ffffffffffffffffffffffffffffffffffffffff021916908373ffffffffffffffffffffffffffffffffffffffff160217905550565b6000620004d582600162000a8090919063ffffffff16565b9050919050565b6000620004f733600160050162000b6490919063ffffffff16565b905090565b60008060009054906101000a900473ffffffffffffffffffffffffffffffffffffffff16905090565b60008060009054906101000a900473ffffffffffffffffffffffffffffffffffffffff1673ffffffffffffffffffffffffffffffffffffffff166200056962000bd0565b73ffffffffffffffffffffffffffffffffffffffff1614905090565b60006200059e84338562000bd89092919063ffffffff16565b90506000620005ad8262000c20565b9050620005c881600160050162000d0290919063ffffffff16565b156200060b576040517f08c379a0000000000000000000000000000000000000000000000000000000008152600401620006029062002055565b60405180910390fd5b620006156200140b565b6200061f62001449565b60405180608001604052808873ffffffffffffffffffffffffffffffffffffffff16815260200186606001518152602001878152602001838152509050600062000673858762000d5490919063ffffffff16565b90506200068b81600162000d9990919063ffffffff16565b620006cd576040517f08c379a0000000000000000000000000000000000000000000000000000000008152600401620006c490620020bb565b60405180910390fd5b6000620006e887608001518362000dc690919063ffffffff16565b90506040518060800160405280886000015181526020018273ffffffffffffffffffffffffffffffffffffffff16815260200160018001548152602001886040015181525083606001819052506200074b89600162000a8090919063ffffffff16565b73ffffffffffffffffffffffffffffffffffffffff1663185cc7518662000776866060015162000ddc565b6040518363ffffffff1660e01b81526004016200079592919062001ef8565b602060405180830381600087803b158015620007b057600080fd5b505af1158015620007c5573d6000803e3d6000fd5b505050506040513d601f19601f82011682018060405250620007eb9190810190620017e7565b6200082d576040517f08c379a0000000000000000000000000000000000000000000000000000000008152600401620008249062002077565b60405180910390fd5b6200084382600162000e2690919063ffffffff16565b5060608360405160200162000859919062002143565b6040516020818303038152906040529050620008858682600160050162000e609092919063ffffffff16565b620008a08633600160050162000eb29092919063ffffffff16565b8573ffffffffffffffffffffffffffffffffffffffff163373ffffffffffffffffffffffffffffffffffffffff167f9ae84ac2ad8f721c2e62d211eca0ae34951726f8834913af6c5ebb81610bb1f883604051620008ff919062001f8f565b60405180910390a350505050505050505050565b6200091d62000525565b6200095f576040517f08c379a00000000000000000000000000000000000000000000000000000000081526004016200095690620020ff565b60405180910390fd5b6200096a8162000f37565b50565b600081805190602001208460000160008573ffffffffffffffffffffffffffffffffffffffff1673ffffffffffffffffffffffffffffffffffffffff168152602001908152602001600020541490509392505050565b60008260000160009054906101000a900473ffffffffffffffffffffffffffffffffffffffff1673ffffffffffffffffffffffffffffffffffffffff166328c4f410836040518263ffffffff1660e01b815260040162000a24919062001ebe565b60206040518083038186803b15801562000a3d57600080fd5b505afa15801562000a52573d6000803e3d6000fd5b505050506040513d601f19601f8201168201806040525062000a78919081019062001858565b905092915050565b6000808360040160008473ffffffffffffffffffffffffffffffffffffffff1673ffffffffffffffffffffffffffffffffffffffff16815260200190815260200160002060009054906101000a900473ffffffffffffffffffffffffffffffffffffffff169050600073ffffffffffffffffffffffffffffffffffffffff168173ffffffffffffffffffffffffffffffffffffffff16141562000b5a576040517f08c379a000000000000000000000000000000000000000000000000000000000815260040162000b519062002121565b60405180910390fd5b8091505092915050565b60008260010160008373ffffffffffffffffffffffffffffffffffffffff1673ffffffffffffffffffffffffffffffffffffffff16815260200190815260200160002060009054906101000a900473ffffffffffffffffffffffffffffffffffffffff16905092915050565b600033905090565b6000828285600001518660200151876040015160405160200162000c0195949392919062001dff565b6040516020818303038152906040528051906020012090509392505050565b6000606060156040519080825280601f01601f19166020018201604052801562000c595781602001600182028036833780820191505090505b50905060606040518060200162000c709062001497565b6020820181038252601f19601f82011660405250905060008151905060ff60f81b8360008151811062000c9f57fe5b60200101907effffffffffffffffffffffffffffffffffffffffffffffffffffffffffffff1916908160001a905350606085835230602084035260ff6021840353603583039050603582018152808051906020012060001c945050505050919050565b60008060001b8360000160008473ffffffffffffffffffffffffffffffffffffffff1673ffffffffffffffffffffffffffffffffffffffff168152602001908152602001600020541415905092915050565b60008260000151836060015184602001518460405160200162000d7b949392919062001e68565b60405160208183030381529060405280519060200120905092915050565b600082600301600083815260200190815260200160002060009054906101000a900460ff16905092915050565b600062000dd4838362001068565b905092915050565b600062000e1f62000e0b62000df1846200115e565b62000dfc85620011a0565b620011e290919063ffffffff16565b83600001516200123a90919063ffffffff16565b9050919050565b6000600183600301600084815260200190815260200160002060006101000a81548160ff0219169083151502179055506001905092915050565b80805190602001208360000160008473ffffffffffffffffffffffffffffffffffffffff1673ffffffffffffffffffffffffffffffffffffffff16815260200190815260200160002081905550505050565b808360010160008473ffffffffffffffffffffffffffffffffffffffff1673ffffffffffffffffffffffffffffffffffffffff16815260200190815260200160002060006101000a81548173ffffffffffffffffffffffffffffffffffffffff021916908373ffffffffffffffffffffffffffffffffffffffff160217905550505050565b600073ffffffffffffffffffffffffffffffffffffffff168173ffffffffffffffffffffffffffffffffffffffff16141562000faa576040517f08c379a000000000000000000000000000000000000000000000000000000000815260040162000fa19062002011565b60405180910390fd5b8073ffffffffffffffffffffffffffffffffffffffff166000809054906101000a900473ffffffffffffffffffffffffffffffffffffffff1673ffffffffffffffffffffffffffffffffffffffff167f8be0079c531659141344cd1fd0a4f28419497f9722a3daafe3b4186f6b6457e060405160405180910390a3806000806101000a81548173ffffffffffffffffffffffffffffffffffffffff021916908373ffffffffffffffffffffffffffffffffffffffff16021790555050565b600060418251146200107e576000905062001158565b60008060006020850151925060408501519150606085015160001a90507f7fffffffffffffffffffffffffffffff5d576e7357a4501ddfe92f46681b20a08260001c1115620010d4576000935050505062001158565b601b8160ff1614158015620010ed5750601c8160ff1614155b1562001100576000935050505062001158565b6001868285856040516000815260200160405260405162001125949392919062001f42565b6020604051602081039080840390855afa15801562001148573d6000803e3d6000fd5b5050506020604051035193505050505b92915050565b600062001199670de0b6b3a76400006200118a846060015185600001516200128690919063ffffffff16565b620012fc90919063ffffffff16565b9050919050565b6000620011db670de0b6b3a7640000620011cc846040015185600001516200128690919063ffffffff16565b620012fc90919063ffffffff16565b9050919050565b60008082840190508381101562001230576040517f08c379a0000000000000000000000000000000000000000000000000000000008152600401620012279062002033565b60405180910390fd5b8091505092915050565b60006200127e83836040518060400160405280601e81526020017f536166654d6174683a207375627472616374696f6e206f766572666c6f77000081525062001348565b905092915050565b6000808314156200129b5760009050620012f6565b6000828402905082848281620012ad57fe5b0414620012f1576040517f08c379a0000000000000000000000000000000000000000000000000000000008152600401620012e890620020dd565b60405180910390fd5b809150505b92915050565b60006200134083836040518060400160405280601a81526020017f536166654d6174683a206469766973696f6e206279207a65726f000000000000815250620013a6565b905092915050565b600083831115829062001393576040517f08c379a00000000000000000000000000000000000000000000000000000000081526004016200138a919062001fed565b60405180910390fd5b5060008385039050809150509392505050565b60008083118290620013f0576040517f08c379a0000000000000000000000000000000000000000000000000000000008152600401620013e7919062001fed565b60405180910390fd5b506000838581620013fd57fe5b049050809150509392505050565b604051806080016040528060008152602001600073ffffffffffffffffffffffffffffffffffffffff16815260200160008152602001600081525090565b6040518060800160405280600073ffffffffffffffffffffffffffffffffffffffff1681526020016000815260200162001482620014a5565b815260200162001491620014cc565b81525090565b610e0c806200244483390190565b60405180606001604052806000801916815260200160008152602001600080191681525090565b604051806080016040528060008152602001600073ffffffffffffffffffffffffffffffffffffffff16815260200160008152602001600081525090565b6000813590506200151b81620023c1565b92915050565b6000815190506200153281620023db565b92915050565b6000813590506200154981620023f5565b92915050565b600082601f8301126200156157600080fd5b81356200157862001572826200218f565b62002161565b915080825260208301602083018583830111156200159557600080fd5b620015a283828462002322565b50505092915050565b600082601f830112620015bd57600080fd5b8135620015d4620015ce82620021bc565b62002161565b91508082526020830160208301858383011115620015f157600080fd5b620015fe83828462002322565b50505092915050565b60008151905062001618816200240f565b92915050565b600060a082840312156200163157600080fd5b6200163d60a062002161565b905060006200164f8482850162001735565b6000830152506020620016658482850162001735565b60208301525060406200167b8482850162001735565b6040830152506060620016918482850162001735565b606083015250608082013567ffffffffffffffff811115620016b257600080fd5b620016c0848285016200154f565b60808301525092915050565b600060608284031215620016df57600080fd5b620016eb606062002161565b90506000620016fd8482850162001538565b6000830152506020620017138482850162001735565b6020830152506040620017298482850162001538565b60408301525092915050565b600081359050620017468162002429565b92915050565b6000602082840312156200175f57600080fd5b60006200176f848285016200150a565b91505092915050565b600080600060a084860312156200178e57600080fd5b60006200179e868287016200150a565b9350506020620017b186828701620016cc565b925050608084013567ffffffffffffffff811115620017cf57600080fd5b620017dd868287016200161e565b9150509250925092565b600060208284031215620017fa57600080fd5b60006200180a8482850162001521565b91505092915050565b6000602082840312156200182657600080fd5b600082013567ffffffffffffffff8111156200184157600080fd5b6200184f84828501620015ab565b91505092915050565b6000602082840312156200186b57600080fd5b60006200187b8482850162001607565b91505092915050565b6200188f8162002296565b82525050565b620018a08162002221565b82525050565b620018b18162002221565b82525050565b620018cc620018c68262002221565b62002367565b82525050565b620018dd8162002235565b82525050565b620018ee8162002241565b82525050565b620018ff8162002241565b82525050565b6200191a620019148262002241565b6200237b565b82525050565b60006200192d82620021e9565b620019398185620021ff565b93506200194b81856020860162002331565b6200195681620023a3565b840191505092915050565b6200196c81620022aa565b82525050565b6200197d81620022d2565b82525050565b60006200199082620021f4565b6200199c818562002210565b9350620019ae81856020860162002331565b620019b981620023a3565b840191505092915050565b6000620019d360268362002210565b91507f4f776e61626c653a206e6577206f776e657220697320746865207a65726f206160008301527f64647265737300000000000000000000000000000000000000000000000000006020830152604082019050919050565b600062001a3b601b8362002210565b91507f536166654d6174683a206164646974696f6e206f766572666c6f7700000000006000830152602082019050919050565b600062001a7d601a8362002210565b91507f7368696674206d65737361676520616c726561647920757365640000000000006000830152602082019050919050565b600062001abf60248362002210565b91507f696e73756666696369656e742066756e647320696e206c69717569646974792060008301527f706f6f6c000000000000000000000000000000000000000000000000000000006020830152604082019050919050565b600062001b27601d8362002210565b91507f6e6f742061207265676973746572656420626f72726f772070726f78790000006000830152602082019050919050565b600062001b6960288362002210565b91507f6c69717569646974792070726f766973696f6e206d65737361676520616c726560008301527f61647920757365640000000000000000000000000000000000000000000000006020830152604082019050919050565b600062001bd160218362002210565b91507f536166654d6174683a206d756c7469706c69636174696f6e206f766572666c6f60008301527f77000000000000000000000000000000000000000000000000000000000000006020830152604082019050919050565b600062001c3960208362002210565b91507f4f776e61626c653a2063616c6c6572206973206e6f7420746865206f776e65726000830152602082019050919050565b600062001c7b60208362002210565b91507f6e6f7420612072656769737465726564206c697175696469747920746f6b656e6000830152602082019050919050565b60808201600082015162001cc6600085018262001db1565b50602082015162001cdb602085018262001895565b50604082015162001cf0604085018262001db1565b50606082015162001d05606085018262001db1565b50505050565b6101208201600082015162001d24600085018262001895565b50602082015162001d39602085018262001db1565b50604082015162001d4e604085018262001d69565b50606082015162001d6360a085018262001cae565b50505050565b60608201600082015162001d816000850182620018e3565b50602082015162001d96602085018262001db1565b50604082015162001dab6040850182620018e3565b50505050565b62001dbc816200227f565b82525050565b62001dcd816200227f565b82525050565b62001de862001de2826200227f565b62002399565b82525050565b62001df98162002289565b82525050565b600062001e0d8288620018b7565b60148201915062001e1f8287620018b7565b60148201915062001e31828662001905565b60208201915062001e43828562001dd3565b60208201915062001e55828462001905565b6020820191508190509695505050505050565b600062001e76828762001dd3565b60208201915062001e88828662001dd3565b60208201915062001e9a828562001dd3565b60208201915062001eac828462001905565b60208201915081905095945050505050565b600060208201905062001ed56000830184620018a6565b92915050565b600060208201905062001ef2600083018462001884565b92915050565b600060408201905062001f0f6000830185620018a6565b62001f1e602083018462001dc2565b9392505050565b600060208201905062001f3c6000830184620018d2565b92915050565b600060808201905062001f596000830187620018f4565b62001f68602083018662001dee565b62001f776040830185620018f4565b62001f866060830184620018f4565b95945050505050565b6000602082019050818103600083015262001fab818462001920565b905092915050565b600060208201905062001fca600083018462001961565b92915050565b600060208201905062001fe7600083018462001972565b92915050565b6000602082019050818103600083015262002009818462001983565b905092915050565b600060208201905081810360008301526200202c81620019c4565b9050919050565b600060208201905081810360008301526200204e8162001a2c565b9050919050565b60006020820190508181036000830152620020708162001a6e565b9050919050565b60006020820190508181036000830152620020928162001ab0565b9050919050565b60006020820190508181036000830152620020b48162001b18565b9050919050565b60006020820190508181036000830152620020d68162001b5a565b9050919050565b60006020820190508181036000830152620020f88162001bc2565b9050919050565b600060208201905081810360008301526200211a8162001c2a565b9050919050565b600060208201905081810360008301526200213c8162001c6c565b9050919050565b6000610120820190506200215b600083018462001d0b565b92915050565b6000604051905081810181811067ffffffffffffffff821117156200218557600080fd5b8060405250919050565b600067ffffffffffffffff821115620021a757600080fd5b601f19601f8301169050602081019050919050565b600067ffffffffffffffff821115620021d457600080fd5b601f19601f8301169050602081019050919050565b600081519050919050565b600081519050919050565b600082825260208201905092915050565b600082825260208201905092915050565b60006200222e826200225f565b9050919050565b60008115159050919050565b6000819050919050565b6000620022588262002221565b9050919050565b600073ffffffffffffffffffffffffffffffffffffffff82169050919050565b6000819050919050565b600060ff82169050919050565b6000620022a382620022fa565b9050919050565b6000620022b782620022be565b9050919050565b6000620022cb826200225f565b9050919050565b6000620022df82620022e6565b9050919050565b6000620022f3826200225f565b9050919050565b600062002307826200230e565b9050919050565b60006200231b826200225f565b9050919050565b82818337600083830152505050565b60005b838110156200235157808201518184015260208101905062002334565b8381111562002361576000848401525b50505050565b6000620023748262002385565b9050919050565b6000819050919050565b60006200239282620023b4565b9050919050565b6000819050919050565b6000601f19601f8301169050919050565b60008160601b9050919050565b620023cc8162002221565b8114620023d857600080fd5b50565b620023e68162002235565b8114620023f257600080fd5b50565b620024008162002241565b81146200240c57600080fd5b50565b6200241a816200224b565b81146200242657600080fd5b50565b62002434816200227f565b81146200244057600080fd5b5056fe608060405234801561001057600080fd5b50336000800160006101000a81548173ffffffffffffffffffffffffffffffffffffffff021916908373ffffffffffffffffffffffffffffffffffffffff1602179055506000800160009054906101000a900473ffffffffffffffffffffffffffffffffffffffff1673ffffffffffffffffffffffffffffffffffffffff16637b3b00be6040518163ffffffff1660e01b8152600401602060405180830381600087803b1580156100c057600080fd5b505af11580156100d4573d6000803e3d6000fd5b505050506040513d601f19601f820116820180604052506100f89190810190610155565b600060010160006101000a81548173ffffffffffffffffffffffffffffffffffffffff021916908373ffffffffffffffffffffffffffffffffffffffff1602179055506101c7565b60008151905061014f816101b0565b92915050565b60006020828403121561016757600080fd5b600061017584828501610140565b91505092915050565b600061018982610190565b9050919050565b600073ffffffffffffffffffffffffffffffffffffffff82169050919050565b6101b98161017e565b81146101c457600080fd5b50565b610c36806101d66000396000f3fe608060405234801561001057600080fd5b506004361061002b5760003560e01c80632692f25a14610030575b600080fd5b61004a6004803603610045919081019061066a565b61004c565b005b600060010160009054906101000a900473ffffffffffffffffffffffffffffffffffffffff1673ffffffffffffffffffffffffffffffffffffffff163373ffffffffffffffffffffffffffffffffffffffff16146100df576040517f08c379a00000000000000000000000000000000000000000000000000000000081526004016100d690610a06565b60405180910390fd5b6000800160149054906101000a900460ff16156101b357600060608473ffffffffffffffffffffffffffffffffffffffff168484604051610120919061090a565b60006040518083038185875af1925050503d806000811461015d576040519150601f19603f3d011682016040523d82523d6000602084013e610162565b606091505b50915091508181906101aa576040517f08c379a00000000000000000000000000000000000000000000000000000000081526004016101a191906109a4565b60405180910390fd5b50805160208201f35b60006101d46101cf60006004856102dc9092919063ffffffff16565b610314565b60001c60e01b90506101e46104a2565b600073__BorrowProxyLib________________________632f1a48af909187856040518463ffffffff1660e01b815260040161022293929190610a26565b60606040518083038186803b15801561023a57600080fd5b505af415801561024e573d6000803e3d6000fd5b505050506040513d601f19601f8201168201806040525061027291908101906106d1565b90506102818160200151610343565b6102c0576040517f08c379a00000000000000000000000000000000000000000000000000000000081526004016102b7906109e6565b60405180910390fd5b6102d58385836103809092919063ffffffff16565b5050505050565b6102e46104d8565b60006020850184019050808260000181815250508282602001818152505083826040018181525050509392505050565b60008082600001519050600083602001519050600180600883021b038082602003840351169350505050919050565b60008073ffffffffffffffffffffffffffffffffffffffff16826000015173ffffffffffffffffffffffffffffffffffffffff1614159050919050565b600083602001516000015173ffffffffffffffffffffffffffffffffffffffff1684602001516000015185602001516020015132876000015186886040516020016103d096959493929190610921565b6040516020818303038152906040526040516103ec919061090a565b600060405180830381855af49150503d8060008114610427576040519150601f19603f3d011682016040523d82523d6000602084013e61042c565b606091505b505090507fd4d735e6fca37f665167e8c0726859b3dd898e339b366d2367d88b38de12a07c8160405161045f9190610989565b60405180910390a16040517f08c379a0000000000000000000000000000000000000000000000000000000008152600401610499906109c6565b60405180910390fd5b6040518060400160405280600073ffffffffffffffffffffffffffffffffffffffff1681526020016104d26104f9565b81525090565b60405180606001604052806000815260200160008152602001600081525090565b6040518060400160405280600073ffffffffffffffffffffffffffffffffffffffff168152602001600073ffffffffffffffffffffffffffffffffffffffff1681525090565b60008135905061054e81610bd2565b92915050565b60008151905061056381610bd2565b92915050565b600082601f83011261057a57600080fd5b813561058d61058882610a8a565b610a5d565b915080825260208301602083018583830111156105a957600080fd5b6105b4838284610b7f565b50505092915050565b6000606082840312156105cf57600080fd5b6105d96040610a5d565b905060006105e984828501610554565b60008301525060206105fd84828501610609565b60208301525092915050565b60006040828403121561061b57600080fd5b6106256040610a5d565b9050600061063584828501610554565b600083015250602061064984828501610554565b60208301525092915050565b60008135905061066481610be9565b92915050565b60008060006060848603121561067f57600080fd5b600061068d8682870161053f565b935050602061069e86828701610655565b925050604084013567ffffffffffffffff8111156106bb57600080fd5b6106c786828701610569565b9150509250925092565b6000606082840312156106e357600080fd5b60006106f1848285016105bd565b91505092915050565b61070381610b0b565b82525050565b61071281610af9565b82525050565b61072181610af9565b82525050565b61073081610b1d565b82525050565b61073f81610b29565b82525050565b600061075082610ab6565b61075a8185610acc565b935061076a818560208601610b8e565b61077381610bc1565b840191505092915050565b600061078982610ab6565b6107938185610add565b93506107a3818560208601610b8e565b80840191505092915050565b60006107ba82610ac1565b6107c48185610ae8565b93506107d4818560208601610b8e565b6107dd81610bc1565b840191505092915050565b60006107f5602783610ae8565b91507f6d6f64756c6520646964206e6f74207265736f6c766520696e2061207465726d60008301527f696e6174696f6e000000000000000000000000000000000000000000000000006020830152604082019050919050565b600061085b601f83610ae8565b91507f66756e6374696f6e2068616e646c6572206e6f742072656769737465726564006000830152602082019050919050565b600061089b602983610ae8565b91507f626f72726f772070726f78792063616e206f6e6c79206265207573656420627960008301527f20626f72726f77657200000000000000000000000000000000000000000000006020830152604082019050919050565b8082525050565b61090481610b75565b82525050565b6000610916828461077e565b915081905092915050565b600060c0820190506109366000830189610709565b6109436020830188610709565b61095060408301876106fa565b61095d6060830186610709565b61096a60808301856108fb565b81810360a083015261097c8184610745565b9050979650505050505050565b600060208201905061099e6000830184610727565b92915050565b600060208201905081810360008301526109be81846107af565b905092915050565b600060208201905081810360008301526109df816107e8565b9050919050565b600060208201905081810360008301526109ff8161084e565b9050919050565b60006020820190508181036000830152610a1f8161088e565b9050919050565b6000606082019050610a3b60008301866108f4565b610a486020830185610718565b610a556040830184610736565b949350505050565b6000604051905081810181811067ffffffffffffffff82111715610a8057600080fd5b8060405250919050565b600067ffffffffffffffff821115610aa157600080fd5b601f19601f8301169050602081019050919050565b600081519050919050565b600081519050919050565b600082825260208201905092915050565b600081905092915050565b600082825260208201905092915050565b6000610b0482610b55565b9050919050565b6000610b1682610b55565b9050919050565b60008115159050919050565b60007fffffffff0000000000000000000000000000000000000000000000000000000082169050919050565b600073ffffffffffffffffffffffffffffffffffffffff82169050919050565b6000819050919050565b82818337600083830152505050565b60005b83811015610bac578082015181840152602081019050610b91565b83811115610bbb576000848401525b50505050565b6000601f19601f8301169050919050565b610bdb81610af9565b8114610be657600080fd5b50565b610bf281610b75565b8114610bfd57600080fd5b5056fea26469706673582212206b0b9a69f402120d31f208b3c589ec8210e14edef7673927a9605e1b2f27d30364736f6c63430006030033a26469706673582212202f52cc076f40b988abacad98c3758a1066e70047e984580d661d7054e8d7ff3764736f6c63430006030033",
  "source": "pragma solidity ^0.6.2;\npragma experimental ABIEncoderV2;\n\nimport { Ownable } from \"openzeppelin-solidity/contracts/ownership/Ownable.sol\";\nimport { IShifterRegistry } from \"./interfaces/IShifterRegistry.sol\";\nimport { IShifter } from \"./interfaces/IShifter.sol\";\nimport { ShifterPoolLib } from \"./ShifterPoolLib.sol\";\nimport { ShifterBorrowProxyLib } from \"./ShifterBorrowProxyLib.sol\";\nimport { RenVMShiftMessageLib } from \"./RenVMShiftMessageLib.sol\";\nimport { BorrowProxy } from \"./BorrowProxy.sol\";\nimport { BorrowProxyLib } from \"./BorrowProxyLib.sol\";\nimport { TokenUtils } from \"./utils/TokenUtils.sol\";\nimport { LiquidityToken } from \"./LiquidityToken.sol\";\n\ncontract ShifterPool is Ownable {\n  using ShifterPoolLib for *;\n  using TokenUtils for *;\n  using ShifterBorrowProxyLib for *;\n  using BorrowProxyLib for *;\n  using RenVMShiftMessageLib for *;\n  ShifterPoolLib.Isolate isolate;\n  constructor(address shifterRegistry, uint256 poolFee) public {\n    isolate.shifterRegistry = shifterRegistry;\n    isolate.poolFee = poolFee;\n/*\n    for (uint256 i = 0; i < modulesByCode.length; i++) {\n      BorrowProxyLib.ModuleRegistration memory registration = modulesByCode[i];\n      for (uint256 j = 0; j < registration.sigs.length; j++) {\n        isolate.registry.registerModuleByCodeHash(registration.target, registration.sigs[i], registration.module);\n      }\n    }\n    for (uint256 i = 0; i < modulesByAddress.length; i++) {\n      BorrowProxyLib.ModuleRegistration memory registration = modulesByAddress[i];\n      for (uint256 j = 0; j < registration.sigs.length; j++) {\n        isolate.registry.registerModuleByAddress(registration.target, registration.sigs[i], registration.module);\n      }\n    }\n*/\n     \n  }\n  function borrow(address token, RenVMShiftMessageLib.RenVMShiftMessage memory shiftMessage, ShifterPoolLib.LiquidityProvisionMessage memory liquidityProvision) public {\n    bytes32 borrowerSalt = shiftMessage.computeBorrowerSalt(token, msg.sender);\n    address proxyAddress = borrowerSalt.deriveBorrowerAddress();\n    require(!isolate.borrowProxyController.isInitialized(proxyAddress), \"shift message already used\");\n    ShifterBorrowProxyLib.LenderRecord memory loan;\n    ShifterBorrowProxyLib.ProxyRecord memory proxyRecord = ShifterBorrowProxyLib.ProxyRecord({\n      token: token,\n      timeoutExpiry: liquidityProvision.timeoutExpiry,\n      message: shiftMessage,\n      loan: loan\n    });\n    bytes32 provisionHash = liquidityProvision.deriveProvisionHash(borrowerSalt);\n    require(isolate.provisionHashAlreadyUsed(provisionHash), \"liquidity provision message already used\");\n    address keeper = provisionHash.recoverAddressFromHash(liquidityProvision.signature);\n    proxyRecord.loan = ShifterBorrowProxyLib.LenderRecord({\n      keeper: keeper,\n      amount: liquidityProvision.amount,\n      keeperFee: liquidityProvision.keeperFee,\n      poolFee: isolate.poolFee\n    });\n    require(LiquidityToken(isolate.getLiquidityToken(token)).loan(proxyAddress, proxyRecord.loan.computePostFee()), \"insufficient funds in liquidity pool\");\n    isolate.preventProvisionReplay(provisionHash);\n    bytes memory data = abi.encode(proxyRecord);\n    isolate.borrowProxyController.mapProxyRecord(proxyAddress, data);\n    isolate.borrowProxyController.setProxyOwner(proxyAddress, msg.sender);\n    emit BorrowProxyLib.BorrowProxyMade(msg.sender, proxyAddress, data);\n  }\n  function validateProxyRecordHandler(bytes memory proxyRecord) public view returns (bool) {\n    return isolate.borrowProxyController.validateProxyRecord(msg.sender, proxyRecord);\n  }\n  function getProxyOwnerHandler() public view returns (address) {\n    return isolate.borrowProxyController.getProxyOwner(msg.sender);\n  }\n  function getShifterHandler(address token) public view returns (IShifter) {\n    return isolate.getShifter(token);\n  }\n  function getLiquidityTokenHandler(address token) public view returns (LiquidityToken) {\n    return LiquidityToken(isolate.getLiquidityToken(token));\n  }\n  function relayResolveLoan(address liquidityToken) public returns (bool) {\n    require(isolate.borrowProxyController.proxyInitializerRecord[msg.sender] != bytes32(0x0), \"not a registered borrow proxy\");\n    require(LiquidityToken(liquidityToken).resolveLoan(msg.sender));\n    return true;\n  }\n}\n",
  "sourcePath": "/home/ray/0confirmation-mono/packages/0confirmation-sol/contracts/ShifterPool.sol",
  "compiler": {
    "name": "solc",
    "version": "0.6.3+commit.8dda9521.Linux.g++"
  },
  "schemaVersion": "3.0.23",
  "updatedAt": "2020-03-02T07:04:26.479Z",
  "devdoc": {
    "methods": {
      "isOwner()": {
        "details": "Returns true if the caller is the current owner."
      },
      "owner()": {
        "details": "Returns the address of the current owner."
      },
      "renounceOwnership()": {
        "details": "Leaves the contract without owner. It will not be possible to call `onlyOwner` functions anymore. Can only be called by the current owner.     * NOTE: Renouncing ownership will leave the contract without an owner, thereby removing any functionality that is only available to the owner."
      },
      "transferOwnership(address)": {
        "details": "Transfers ownership of the contract to a new account (`newOwner`). Can only be called by the current owner."
      }
    }
  },
  "userdoc": {
    "methods": {}
  }
}