{
  "contractName": "ShifterPool",
  "abi": [
    {
      "anonymous": false,
      "inputs": [
        {
          "indexed": true,
          "internalType": "address",
          "name": "previousOwner",
          "type": "address"
        },
        {
          "indexed": true,
          "internalType": "address",
          "name": "newOwner",
          "type": "address"
        }
      ],
      "name": "OwnershipTransferred",
      "type": "event"
    },
    {
      "inputs": [
        {
          "internalType": "address",
          "name": "delegateTo",
          "type": "address"
        },
        {
          "internalType": "bytes",
          "name": "callData",
          "type": "bytes"
        }
      ],
      "name": "_executeQuery",
      "outputs": [
        {
          "internalType": "bytes",
          "name": "",
          "type": "bytes"
        }
      ],
      "stateMutability": "nonpayable",
      "type": "function"
    },
    {
      "inputs": [],
      "name": "owner",
      "outputs": [
        {
          "internalType": "address",
          "name": "",
          "type": "address"
        }
      ],
      "stateMutability": "view",
      "type": "function",
      "constant": true
    },
    {
      "inputs": [
        {
          "internalType": "address",
          "name": "viewLogic",
          "type": "address"
        },
        {
          "internalType": "bytes",
          "name": "payload",
          "type": "bytes"
        }
      ],
      "name": "query",
      "outputs": [
        {
          "internalType": "bytes",
          "name": "",
          "type": "bytes"
        }
      ],
      "stateMutability": "view",
      "type": "function",
      "constant": true
    },
    {
      "inputs": [],
      "name": "renounceOwnership",
      "outputs": [],
      "stateMutability": "nonpayable",
      "type": "function"
    },
    {
      "inputs": [
        {
          "internalType": "address",
          "name": "newOwner",
          "type": "address"
        }
      ],
      "name": "transferOwnership",
      "outputs": [],
      "stateMutability": "nonpayable",
      "type": "function"
    },
    {
      "inputs": [
        {
          "internalType": "bytes",
          "name": "consData",
          "type": "bytes"
        }
      ],
      "name": "cloneConstructor",
      "outputs": [],
      "stateMutability": "nonpayable",
      "type": "function"
    },
    {
      "inputs": [
        {
          "internalType": "address",
          "name": "shifterRegistry",
          "type": "address"
        },
        {
          "internalType": "uint256",
          "name": "minTimeout",
          "type": "uint256"
        },
        {
          "internalType": "uint256",
          "name": "poolFee",
          "type": "uint256"
        },
        {
          "components": [
            {
              "internalType": "enum BorrowProxyLib.ModuleRegistrationType",
              "name": "moduleType",
              "type": "uint8"
            },
            {
              "internalType": "address",
              "name": "target",
              "type": "address"
            },
            {
              "internalType": "bytes4[]",
              "name": "sigs",
              "type": "bytes4[]"
            },
            {
              "components": [
                {
                  "internalType": "bool",
                  "name": "isPrecompiled",
                  "type": "bool"
                },
                {
                  "internalType": "address",
                  "name": "assetSubmodule",
                  "type": "address"
                },
                {
                  "internalType": "address",
                  "name": "liquidationSubmodule",
                  "type": "address"
                },
                {
                  "internalType": "address",
                  "name": "repaymentSubmodule",
                  "type": "address"
                }
              ],
              "internalType": "struct BorrowProxyLib.Module",
              "name": "module",
              "type": "tuple"
            }
          ],
          "internalType": "struct BorrowProxyLib.ModuleRegistration[]",
          "name": "modules",
          "type": "tuple[]"
        },
        {
          "components": [
            {
              "internalType": "address",
              "name": "token",
              "type": "address"
            },
            {
              "internalType": "address",
              "name": "liqToken",
              "type": "address"
            }
          ],
          "internalType": "struct ShifterPoolLib.LiquidityTokenLaunch[]",
          "name": "tokenLaunches",
          "type": "tuple[]"
        }
      ],
      "name": "setup",
      "outputs": [],
      "stateMutability": "nonpayable",
      "type": "function"
    },
    {
      "inputs": [],
      "name": "deployBorrowProxyImplementation",
      "outputs": [],
      "stateMutability": "nonpayable",
      "type": "function"
    },
    {
      "inputs": [
        {
          "internalType": "bytes32",
          "name": "salt",
          "type": "bytes32"
        }
      ],
      "name": "deployBorrowProxyClone",
      "outputs": [
        {
          "internalType": "address payable",
          "name": "created",
          "type": "address"
        }
      ],
      "stateMutability": "nonpayable",
      "type": "function"
    },
    {
      "inputs": [
        {
          "components": [
            {
              "components": [
                {
                  "internalType": "address payable",
                  "name": "borrower",
                  "type": "address"
                },
                {
                  "internalType": "address",
                  "name": "token",
                  "type": "address"
                },
                {
                  "internalType": "bytes32",
                  "name": "nonce",
                  "type": "bytes32"
                },
                {
                  "internalType": "uint256",
                  "name": "amount",
                  "type": "uint256"
                },
                {
                  "internalType": "bool",
                  "name": "forbidLoan",
                  "type": "bool"
                },
                {
                  "components": [
                    {
                      "internalType": "address",
                      "name": "to",
                      "type": "address"
                    },
                    {
                      "internalType": "bytes",
                      "name": "txData",
                      "type": "bytes"
                    }
                  ],
                  "internalType": "struct ShifterBorrowProxyLib.InitializationAction[]",
                  "name": "actions",
                  "type": "tuple[]"
                }
              ],
              "internalType": "struct ShifterBorrowProxyLib.LiquidityRequest",
              "name": "request",
              "type": "tuple"
            },
            {
              "internalType": "uint256",
              "name": "gasRequested",
              "type": "uint256"
            },
            {
              "internalType": "bytes",
              "name": "signature",
              "type": "bytes"
            }
          ],
          "internalType": "struct ShifterBorrowProxyLib.LiquidityRequestParcel",
          "name": "liquidityRequestParcel",
          "type": "tuple"
        },
        {
          "internalType": "uint256",
          "name": "bond",
          "type": "uint256"
        },
        {
          "internalType": "uint256",
          "name": "timeoutExpiry",
          "type": "uint256"
        }
      ],
      "name": "executeBorrow",
      "outputs": [],
      "stateMutability": "payable",
      "type": "function",
      "payable": true
    },
    {
      "inputs": [
        {
          "internalType": "bytes",
          "name": "proxyRecord",
          "type": "bytes"
        }
      ],
      "name": "validateProxyRecordHandler",
      "outputs": [
        {
          "internalType": "bool",
          "name": "",
          "type": "bool"
        }
      ],
      "stateMutability": "view",
      "type": "function",
      "constant": true
    },
    {
      "inputs": [
        {
          "internalType": "address",
          "name": "proxyAddress",
          "type": "address"
        }
      ],
      "name": "getProxyTokenHandler",
      "outputs": [
        {
          "internalType": "address",
          "name": "",
          "type": "address"
        }
      ],
      "stateMutability": "view",
      "type": "function",
      "constant": true
    },
    {
      "inputs": [
        {
          "internalType": "address",
          "name": "user",
          "type": "address"
        }
      ],
      "name": "getProxyOwnerHandler",
      "outputs": [
        {
          "internalType": "address",
          "name": "",
          "type": "address"
        }
      ],
      "stateMutability": "view",
      "type": "function",
      "constant": true
    },
    {
      "inputs": [
        {
          "internalType": "address",
          "name": "token",
          "type": "address"
        }
      ],
      "name": "getShifterHandler",
      "outputs": [
        {
          "internalType": "contract IShifter",
          "name": "",
          "type": "address"
        }
      ],
      "stateMutability": "view",
      "type": "function",
      "constant": true
    },
    {
      "inputs": [
        {
          "internalType": "address",
          "name": "token",
          "type": "address"
        }
      ],
      "name": "getLiquidityTokenHandler",
      "outputs": [
        {
          "internalType": "contract LiquidityToken",
          "name": "",
          "type": "address"
        }
      ],
      "stateMutability": "view",
      "type": "function",
      "constant": true
    },
    {
      "inputs": [
        {
          "internalType": "address",
          "name": "to",
          "type": "address"
        },
        {
          "internalType": "bytes4",
          "name": "sig",
          "type": "bytes4"
        }
      ],
      "name": "fetchModuleHandler",
      "outputs": [
        {
          "components": [
            {
              "internalType": "bool",
              "name": "isPrecompiled",
              "type": "bool"
            },
            {
              "internalType": "address",
              "name": "assetSubmodule",
              "type": "address"
            },
            {
              "internalType": "address",
              "name": "liquidationSubmodule",
              "type": "address"
            },
            {
              "internalType": "address",
              "name": "repaymentSubmodule",
              "type": "address"
            }
          ],
          "internalType": "struct BorrowProxyLib.Module",
          "name": "",
          "type": "tuple"
        }
      ],
      "stateMutability": "view",
      "type": "function",
      "constant": true
    },
    {
      "inputs": [
        {
          "internalType": "address",
          "name": "token",
          "type": "address"
        },
        {
          "internalType": "address",
          "name": "liquidityToken",
          "type": "address"
        },
        {
          "internalType": "address",
          "name": "keeper",
          "type": "address"
        },
        {
          "internalType": "uint256",
          "name": "bond",
          "type": "uint256"
        },
        {
          "internalType": "uint256",
          "name": "repay",
          "type": "uint256"
        }
      ],
      "name": "relayResolveLoan",
      "outputs": [
        {
          "internalType": "bool",
          "name": "",
          "type": "bool"
        }
      ],
      "stateMutability": "nonpayable",
      "type": "function"
    }
  ],
  "bytecode": "0x608060405260006100176001600160e01b0361006616565b600080546001600160a01b0319166001600160a01b0383169081178255604051929350917f8be0079c531659141344cd1fd0a4f28419497f9722a3daafe3b4186f6b6457e0908290a35061006a565b3390565b612eec806100796000396000f3fe6080604052600436106100fe5760003560e01c8063781e874f11610095578063dc74245e11610064578063dc74245e146102a1578063e6c1f074146102b4578063ea82c9b3146102d4578063f2fde38b146102f4578063fd00430c14610314576100fe565b8063781e874f1461022c578063798aada01461024c578063801874ec1461026c5780638da5cb5b1461028c576100fe565b806344112360116100d157806344112360146101b357806352e831dd146101e057806363091aa314610202578063715018a614610217576100fe565b806308f60495146101035780631fbc78dc1461013957806323e3b7301461016657806329658b0214610193575b600080fd5b34801561010f57600080fd5b5061012361011e366004612376565b610334565b604051610130919061277d565b60405180910390f35b34801561014557600080fd5b506101596101543660046120e8565b61034e565b604051610130919061268e565b34801561017257600080fd5b506101866101813660046121b2565b610361565b60405161013091906127a6565b34801561019f57600080fd5b506101596101ae3660046120e8565b6103fe565b3480156101bf57600080fd5b506101d36101ce36600461217a565b610411565b6040516101309190612d21565b3480156101ec57600080fd5b506102006101fb36600461230c565b610432565b005b34801561020e57600080fd5b50610200610436565b34801561022357600080fd5b50610200610489565b34801561023857600080fd5b506101596102473660046122f4565b610508565b34801561025857600080fd5b506101596102673660046120e8565b610521565b34801561027857600080fd5b50610123610287366004612120565b610534565b34801561029857600080fd5b5061015961067e565b6102006102af3660046123a9565b61068d565b3480156102c057600080fd5b506101596102cf3660046120e8565b6106f6565b3480156102e057600080fd5b506102006102ef366004612200565b610709565b34801561030057600080fd5b5061020061030f3660046120e8565b610847565b34801561032057600080fd5b5061018661032f3660046121b2565b6108fd565b60006103486008338463ffffffff61099216565b92915050565b600061034860018363ffffffff6109b816565b606033301461038b5760405162461bcd60e51b815260040161038290612a06565b60405180910390fd5b60006060846001600160a01b0316846040516103a79190612641565b600060405180830381855af49150503d80600081146103e2576040519150601f19603f3d011682016040523d82523d6000602084013e6103e7565b606091505b5091509150816103f657600080fd5b949350505050565b600061034860088363ffffffff610a3b16565b610419611c4a565b61042b600c848463ffffffff610a5e16565b9392505050565b5050565b61046760017ffe1e3164ba4910db3c9afd049cd8feb4552390569c846692e6df4ac68aeaa90e63ffffffff610b4c16565b600180546001600160a01b0319166001600160a01b0392909216919091179055565b610491610bb4565b6000546001600160a01b039081169116146104be5760405162461bcd60e51b815260040161038290612bee565b600080546040516001600160a01b03909116907f8be0079c531659141344cd1fd0a4f28419497f9722a3daafe3b4186f6b6457e0908390a3600080546001600160a01b0319169055565b600154600090610348906001600160a01b031683610bb8565b600061034860018363ffffffff610c0816565b336000908152600860205260408120546105605760405162461bcd60e51b815260040161038290612ab9565b821561059c576105806001600160a01b038716858563ffffffff610c4416565b61059c5760405162461bcd60e51b815260040161038290612b32565b81156105d8576105bc6001600160a01b038716868463ffffffff610c4416565b6105d85760405162461bcd60e51b815260040161038290612960565b60405163c3275c7960e01b81526001600160a01b0386169063c3275c799061060490339060040161268e565b602060405180830381600087803b15801561061e57600080fd5b505af1158015610632573d6000803e3d6000fd5b505050506040513d601f19601f8201168201806040525081019061065691906122d8565b6106725760405162461bcd60e51b815260040161038290612cb0565b50600195945050505050565b6000546001600160a01b031690565b600061069a848484610cb6565b905060006106a782610508565b855180516020909101519192506106cf916001600160a01b038416919063ffffffff610eb716565b845160a001516106ef906001600160a01b0383169063ffffffff610f5816565b5050505050565b600061034860088363ffffffff610fb216565b610711610bb4565b6000546001600160a01b0390811691161461073e5760405162461bcd60e51b815260040161038290612bee565b6002546001600160a01b0316156107675760405162461bcd60e51b815260040161038290612a8c565b600280546001600160a01b0319166001600160a01b0387161790556003849055600483905560005b82518110156107d3576107a0611c71565b8382815181106107ac57fe5b602090810291909101015190506107ca600c8263ffffffff610fd516565b5060010161078f565b5060005b815181101561083f576107e8611c9f565b8282815181106107f457fe5b6020908102919091018101518082015190516001600160a01b0390811660009081526007909352604090922080546001600160a01b03191692909116919091179055506001016107d7565b505050505050565b61084f610bb4565b6000546001600160a01b0390811691161461087c5760405162461bcd60e51b815260040161038290612bee565b6001600160a01b0381166108a25760405162461bcd60e51b815260040161038290612897565b600080546040516001600160a01b03808516939216917f8be0079c531659141344cd1fd0a4f28419497f9722a3daafe3b4186f6b6457e091a3600080546001600160a01b0319166001600160a01b0392909216919091179055565b606060006060846001600160a01b0316610917868661108b565b6040516109249190612641565b600060405180830381855afa9150503d806000811461095f576040519150601f19603f3d011682016040523d82523d6000602084013e610964565b606091505b50915091508181906109895760405162461bcd60e51b815260040161038291906127a6565b50949350505050565b80516020918201206001600160a01b039290921660009081529290526040909120541490565b600182015460405163028c4f4160e41b81526000916001600160a01b0316906328c4f410906109eb90859060040161268e565b60206040518083038186803b158015610a0357600080fd5b505afa158015610a17573d6000803e3d6000fd5b505050506040513d601f19601f8201168201806040525081019061042b9190612104565b6001600160a01b0380821660009081526002840160205260409020541692915050565b610a66611c4a565b610a6e611c4a565b846000610a7b86866110d1565b815260208082019290925260409081016000208151608081018352815460ff8116151582526001600160a01b0361010090910481169482019490945260018201548416928101929092526002015490911660608201529050610adc816110f9565b6103f657846000610aed868661110b565b815260208082019290925260409081016000208151608081018352815460ff81161515825261010090046001600160a01b0390811694820194909452600182015484169281019290925260020154909116606082015295945050505050565b60405163dd678a0760e01b815260009073__ShifterBorrowProxyFactoryLib__________9063dd678a0790610b889086908690600401612d13565b60206040518083038186803b158015610ba057600080fd5b505af4158015610a17573d6000803e3d6000fd5b3390565b60006060610bc584611126565b80519091508390602083018282826000f5945050506001600160a01b038316610c005760405162461bcd60e51b815260040161038290612c53565b505092915050565b6001600160a01b0380821660009081526006840160205260408120549091168061042b5760405162461bcd60e51b815260040161038290612c7b565b600080846001600160a01b0316610c5b858561128d565b604051610c689190612641565b6000604051808303816000865af19150503d8060008114610ca5576040519150601f19603f3d011682016040523d82523d6000602084013e610caa565b606091505b50909695505050505050565b600034846020015114610cdb5760405162461bcd60e51b815260040161038290612914565b610cf4610ce7856112e3565b859063ffffffff6112fc16565b610d105760405162461bcd60e51b815260040161038290612baa565b610d18611cb6565b508351610d248161132d565b600154604051635eadff7960e11b815291935060009173__ShifterBorrowProxyFactoryLib__________9163bd5bfef291610d6e916001600160a01b03169087906004016126a2565b60206040518083038186803b158015610d8657600080fd5b505af4158015610d9a573d6000803e3d6000fd5b505050506040513d601f19601f82011682018060405250810190610dbe9190612104565b9050610dd160088263ffffffff61133816565b15610dee5760405162461bcd60e51b8152600401610382906127f0565b610df6611ced565b60405180604001604052808481526020016040518060400160405280336001600160a01b03168152602001610e3d87606001518b8b6001611356909392919063ffffffff16565b905290529050610e4f60018383611456565b610e71836020015183610e61846114fb565b600192919063ffffffff61153316565b6020830151610e91906001600160a01b031633308963ffffffff6115d816565b610ead5760405162461bcd60e51b815260040161038290612c23565b5050509392505050565b604051632d34ba7960e01b81526001600160a01b03841690632d34ba7990610ee590859085906004016126bb565b602060405180830381600087803b158015610eff57600080fd5b505af1158015610f13573d6000803e3d6000fd5b505050506040513d601f19601f82011682018060405250810190610f3791906122d8565b610f535760405162461bcd60e51b815260040161038290612997565b505050565b604051630bfceb2b60e31b81526001600160a01b03831690635fe7595890610f8490849060040161271d565b600060405180830381600087803b158015610f9e57600080fd5b505af115801561083f573d6000803e3d6000fd5b6001600160a01b0380821660009081526001840160205260409020541692915050565b600181516002811115610fe457fe5b14156110335760005b81604001515181101561102d576110258383602001518460400151848151811061101357fe5b6020026020010151856060015161164c565b600101610fed565b50610432565b60028151600281111561104257fe5b14156104325760005b816040015151811015610f53576110838383602001518460400151848151811061107157fe5b602002602001015185606001516116d6565b60010161104b565b606082826040516024016110a09291906126f9565b60408051601f198184030181529190526020810180516001600160e01b031663023e3b7360e41b1790529392505050565b6000806110dd846116e4565b90506110e981846116e8565b8051906020012091505092915050565b602001516001600160a01b0316151590565b60006111178383611714565b80519060200120905092915050565b604080516000815260208101909152606090819061114790604481016127a6565b60408051601f198184030181529190526020810180516001600160e01b03166352e831dd60e01b179052805190915060630167ffffffffffffffff8111801561118f57600080fd5b506040519080825280601f01601f1916602001820160405280156111ba576020820181803683370190505b507f3d3d606380380380913d393d73bebebebebebebebebebebebebebebebebebebe6020820152600160601b308102602d8301527f5af4602a57600080fd5b602d8060366000396000f3363d3d373d3d3d363d73be6041830152840260608201526e5af43d82803e903d91602b57fd5bf360881b6074820152915060005b81518110156112865781818151811061124d57fe5b602001015160f81c60f81b83826063018151811061126757fe5b60200101906001600160f81b031916908160001a905350600101611238565b5050919050565b606063a9059cbb60e01b83836040516024016112aa9291906126a2565b60408051601f198184030181529190526020810180516001600160e01b03166001600160e01b0319909316929092179091529392505050565b60006112ee82611729565b805190602001209050919050565b600061131461130a83611749565b8460400151611779565b8351516001600160a01b03908116911614905092915050565b60006112ee826118a7565b6001600160a01b031660009081526020919091526040902054151590565b61135e611d0d565b84600201548210156113825760405162461bcd60e51b815260040161038290612832565b600061139d670de0b6b3a7640000606463ffffffff6118c316565b90506113b8670de0b6b3a7640000606463ffffffff6118c316565b6113e0866113d487670de0b6b3a764000063ffffffff61190516565b9063ffffffff6118c316565b116113fd5760405162461bcd60e51b815260040161038290612ce7565b600084861061141f5761141a866113d4848863ffffffff61190516565b611421565b815b905060405180608001604052808543018152602001868152602001886003015481526020018281525092505050949350505050565b60606114618261193f565b825160200151909150611480906007860190859063ffffffff61196816565b815151611499906007860190859063ffffffff61199c16565b8151516040516001600160a01b03909116903480156108fc02916000818181858888f193505050501580156114d2573d6000803e3d6000fd5b506114e760078501848363ffffffff6119d016565b8151516114f59084836119f3565b50505050565b600061034861152161150c84611a43565b61151585611a78565b9063ffffffff611aad16565b8351606001519063ffffffff611ad216565b61153d8484610c08565b6001600160a01b031663185cc75183836040518363ffffffff1660e01b815260040161156a9291906126a2565b602060405180830381600087803b15801561158457600080fd5b505af1158015611598573d6000803e3d6000fd5b505050506040513d601f19601f820116820180604052508101906115bc91906122d8565b6114f55760405162461bcd60e51b815260040161038290612a48565b600080856001600160a01b03166115f0868686611b14565b6040516115fd9190612641565b6000604051808303816000865af19150503d806000811461163a576040519150601f19603f3d011682016040523d82523d6000602084013e61163f565b606091505b5090979650505050505050565b8084600061165a86866110d1565b81526020808201929092526040908101600020835181549385015160ff1990941690151517610100600160a81b0319166101006001600160a01b0394851602178155908301516001820180546001600160a01b031990811692851692909217905560609093015160029091018054909316911617905550505050565b8084600061165a868661110b565b3f90565b606082826040516020016116fd929190612629565b604051602081830303815290604052905092915050565b606082826040516020016116fd9291906125fd565b60608061173d836000015160a00151611b6d565b905061042b8382611b80565b60008160405160200161175c919061265d565b604051602081830303815290604052805190602001209050919050565b6000815160411461179c5760405162461bcd60e51b815260040161038290612860565b60208201516040830151606084015160001a7f7fffffffffffffffffffffffffffffff5d576e7357a4501ddfe92f46681b20a08211156117ee5760405162461bcd60e51b8152600401610382906129c4565b8060ff16601b1415801561180657508060ff16601c14155b156118235760405162461bcd60e51b815260040161038290612af0565b6000600187838686604051600081526020016040526040516118489493929190612788565b6020604051602081039080840390855afa15801561186a573d6000803e3d6000fd5b5050604051601f1901519150506001600160a01b03811661189d5760405162461bcd60e51b8152600401610382906127b9565b9695505050505050565b6060806118b78360a00151611b6d565b905061042b8382611bb6565b600061042b83836040518060400160405280601a81526020017f536166654d6174683a206469766973696f6e206279207a65726f000000000000815250611be7565b60008261191457506000610348565b8282028284828161192157fe5b041461042b5760405162461bcd60e51b815260040161038290612b69565b6060816040516020016119529190612d5f565b6040516020818303038152906040529050919050565b6001600160a01b039182166000908152600290930160205260409092208054919092166001600160a01b0319909116179055565b6001600160a01b039182166000908152600190930160205260409092208054919092166001600160a01b0319909116179055565b80516020918201206001600160a01b039092166000908152929052604090912055565b816001600160a01b0316836001600160a01b03167f9ae84ac2ad8f721c2e62d211eca0ae34951726f8834913af6c5ebb81610bb1f883604051611a3691906127a6565b60405180910390a3505050565b6000610348670de0b6b3a76400006113d48460200151602001516060015185600001516060015161190590919063ffffffff16565b6000610348670de0b6b3a76400006113d48460200151602001516040015185600001516060015161190590919063ffffffff16565b60008282018381101561042b5760405162461bcd60e51b8152600401610382906128dd565b600061042b83836040518060400160405280601e81526020017f536166654d6174683a207375627472616374696f6e206f766572666c6f770000815250611c1e565b60606323b872dd60e01b848484604051602401611b33939291906126d5565b60408051601f198184030181529190526020810180516001600160e01b03166001600160e01b031990931692909217909152949350505050565b606081604051602001611952919061271d565b815160208082015160408084015160608581015185890151608090970151935191966116fd9630969592939192918a9101612596565b606082600001518360200151846040015185606001518660800151866040516020016116fd96959493929190612536565b60008183611c085760405162461bcd60e51b815260040161038291906127a6565b506000838581611c1457fe5b0495945050505050565b60008184841115611c425760405162461bcd60e51b815260040161038291906127a6565b505050900390565b60408051608081018252600080825260208201819052918101829052606081019190915290565b604080516080810190915280600081526000602082015260606040820181905201611c9a611c4a565b905290565b604080518082019091526000808252602082015290565b6040805160c0810182526000808252602082018190529181018290526060808201839052608082019290925260a081019190915290565b6040518060400160405280611d00611cb6565b8152602001611c9a611d35565b6040518060800160405280600081526020016000815260200160008152602001600081525090565b604051806040016040528060006001600160a01b03168152602001611c9a611d0d565b803561034881612e7a565b600082601f830112611d73578081fd5b8135611d86611d8182612e2e565b612e07565b8181529150602080830190848101604080850287018301881015611da957600080fd5b6000805b86811015611dfa5782848b031215611dc3578182fd5b611dcc83612e07565b611dd68b86611d58565b8152611de48b878701611d58565b8187015286529484019492820192600101611dad565b5050505050505092915050565b600082601f830112611e17578081fd5b813567ffffffffffffffff811115611e2d578182fd5b611e40601f8201601f1916602001612e07565b9150808252836020828501011115611e5757600080fd5b8060208401602084013760009082016020015292915050565b600060c08284031215611e81578081fd5b611e8b60c0612e07565b90508135611e9881612e7a565b8152602082810135611ea981612e7a565b8282015260408381013581840152606080850135908401526080840135611ecf81612e92565b608084015260a084013567ffffffffffffffff80821115611eef57600080fd5b81860187601f820112611f0157600080fd5b80359250611f11611d8184612e2e565b8381528581019082870160005b86811015611f8c578135850188601f19828f03011215611f3d57600080fd5b611f4689612e07565b8a820135611f5381612e7a565b8152818a013588811115611f6657600080fd5b611f748f8d83860101611e07565b828d0152508552509288019290880190600101611f1e565b505060a08801525094979650505050505050565b600060e08284031215611fb1578081fd5b611fbb6080612e07565b9050813560038110611fcc57600080fd5b8152602082810135611fdd81612e7a565b82820152604083013567ffffffffffffffff811115611ffb57600080fd5b80840185601f82011261200d57600080fd5b8035915061201d611d8183612e2e565b828152838101908285018585028401860189101561203a57600080fd5b600093505b8484101561206657803561205281612ea0565b83526001939093019291850191850161203f565b50806040870152505050505061207f836060840161208a565b606082015292915050565b60006080828403121561209b578081fd5b6120a56080612e07565b905081356120b281612e92565b815260208201356120c281612e7a565b602082015260408201356120d581612e7a565b6040820152606082013561207f81612e7a565b6000602082840312156120f9578081fd5b813561042b81612e7a565b600060208284031215612115578081fd5b815161042b81612e7a565b600080600080600060a08688031215612137578081fd5b853561214281612e7a565b9450602086013561215281612e7a565b9350604086013561216281612e7a565b94979396509394606081013594506080013592915050565b6000806040838503121561218c578182fd5b823561219781612e7a565b915060208301356121a781612ea0565b809150509250929050565b600080604083850312156121c4578182fd5b82356121cf81612e7a565b9150602083013567ffffffffffffffff8111156121ea578182fd5b6121f685828601611e07565b9150509250929050565b600080600080600060a08688031215612217578283fd5b853561222281612e7a565b9450602086810135945060408701359350606087013567ffffffffffffffff8082111561224d578384fd5b8189018a601f82011261225e578485fd5b8035925061226e611d8184612e2e565b83815284810190828601875b868110156122a3576122918f898435880101611fa0565b8452928701929087019060010161227a565b5090975050505060808901359250808311156122bd578384fd5b50506122cb88828901611d63565b9150509295509295909350565b6000602082840312156122e9578081fd5b815161042b81612e92565b600060208284031215612305578081fd5b5035919050565b6000806020838503121561231e578182fd5b823567ffffffffffffffff80821115612335578384fd5b81850186601f820112612346578485fd5b8035925081831115612356578485fd5b866020848301011115612367578485fd5b60200196919550909350505050565b600060208284031215612387578081fd5b813567ffffffffffffffff81111561239d578182fd5b6103f684828501611e07565b6000806000606084860312156123bd578081fd5b833567ffffffffffffffff808211156123d4578283fd5b818601606081890312156123e6578384fd5b6123f06060612e07565b9250803582811115612400578485fd5b61240c89828401611e70565b8452506020810135602084015260408101358281111561242a578485fd5b61243689828401611e07565b60408501525050508093505060208401359150604084013590509250925092565b6001600160a01b03169052565b6000815180845260208085018081965082840281019150828601855b858110156124aa5782840389526124988483516124e9565b98850198935090840190600101612480565b5091979650505050505050565b15159052565b600081518084526124d5816020860160208601612e4e565b601f01601f19169290920160200192915050565b600060018060a01b0382511683526020820151604060208501526103f660408501826124bd565b805182526020810151602083015260408101516040830152606081015160608301525050565b60006bffffffffffffffffffffffff19808960601b168352808860601b1660148401525085602883015284604883015283151560f81b60688301528251612584816069850160208701612e4e565b91909101606901979650505050505050565b60006bffffffffffffffffffffffff19808a60601b168352808960601b1660148401525086602883015285604883015284606883015283151560f81b608883015282516125ea816089850160208701612e4e565b9190910160890198975050505050505050565b60609290921b6bffffffffffffffffffffffff191682526001600160e01b031916601482015260180190565b9182526001600160e01b031916602082015260240190565b60008251612653818460208701612e4e565b9190910192915050565b7f19457468657265756d205369676e6564204d6573736167653a0a3332000000008152601c810191909152603c0190565b6001600160a01b0391909116815260200190565b6001600160a01b03929092168252602082015260400190565b6001600160a01b0392831681529116602082015260400190565b6001600160a01b039384168152919092166020820152604081019190915260600190565b6001600160a01b03831681526040602082018190526000906103f6908301846124bd565b6000602080830181845280855180835260408601915060408482028701019250838701855b8281101561277057603f1988860301845261275e8583516124e9565b94509285019290850190600101612742565b5092979650505050505050565b901515815260200190565b93845260ff9290921660208401526040830152606082015260800190565b60006020825261042b60208301846124bd565b60208082526018908201527f45434453413a20696e76616c6964207369676e61747572650000000000000000604082015260600190565b60208082526022908201527f70726f78792068617320616c7265616479206265656e20696e697469616c697a604082015261195960f21b606082015260800190565b6020808252601490820152731d1a5b595bdd5d081a5b9cdd59999a58da595b9d60621b604082015260600190565b6020808252601f908201527f45434453413a20696e76616c6964207369676e6174757265206c656e67746800604082015260600190565b60208082526026908201527f4f776e61626c653a206e6577206f776e657220697320746865207a65726f206160408201526564647265737360d01b606082015260800190565b6020808252601b908201527f536166654d6174683a206164646974696f6e206f766572666c6f770000000000604082015260600190565b6020808252602c908201527f737570706c696564206574686572206973206e6f7420657175616c20746f206760408201526b185cc81c995c5d595cdd195960a21b606082015260800190565b6020808252601a908201527f6661696c656420746f207265706179206c6f73742066756e6473000000000000604082015260600190565b6020808252601390820152727365747570207068617365206661696c75726560681b604082015260600190565b60208082526022908201527f45434453413a20696e76616c6964207369676e6174757265202773272076616c604082015261756560f01b606082015260800190565b60208082526022908201527f756e617574686f72697a65642076696577206c617965722064656c656761746960408201526137b760f11b606082015260800190565b60208082526024908201527f696e73756666696369656e742066756e647320696e206c6971756964697479206040820152631c1bdbdb60e21b606082015260800190565b602080825260139082015272185b1c9958591e481a5b9a5d1a585b1a5e9959606a1b604082015260600190565b6020808252601d908201527f6e6f742061207265676973746572656420626f72726f772070726f7879000000604082015260600190565b60208082526022908201527f45434453413a20696e76616c6964207369676e6174757265202776272076616c604082015261756560f01b606082015260800190565b6020808252601f908201527f6661696c656420746f2072657475726e20626f6e6420746f206b656570657200604082015260600190565b60208082526021908201527f536166654d6174683a206d756c7469706c69636174696f6e206f766572666c6f6040820152607760f81b606082015260800190565b60208082526024908201527f6c69717569646974792072657175657374207369676e61747572652072656a6560408201526318dd195960e21b606082015260800190565b6020808252818101527f4f776e61626c653a2063616c6c6572206973206e6f7420746865206f776e6572604082015260600190565b602080825260169082015275189bdb99081cdd589b5a5cdcda5bdb8819985a5b195960521b604082015260600190565b6020808252600e908201526d18dc99585d194c8819985a5b195960921b604082015260600190565b6020808252818101527f6e6f7420612072656769737465726564206c697175696469747920746f6b656e604082015260600190565b60208082526017908201527f6c6f616e207265736f6c7574696f6e206661696c757265000000000000000000604082015260600190565b602080825260129082015271626f6e642062656c6f77206d696e696d756d60701b604082015260600190565b918252602082015260400190565b8151151581526020808301516001600160a01b0390811691830191909152604080840151821690830152606092830151169181019190915260800190565b600060208252825160c06020840152612d7c60e084018251612457565b6020810151612d8f610100850182612457565b50604081015161012084015260608101516101408401526080810151612db96101608501826124b7565b5060a081015160c0610180850152612dd56101a0850182612464565b9150506020840151612deb604085018251612457565b6020810151612dfd6060860182612510565b5090949350505050565b60405181810167ffffffffffffffff81118282101715612e2657600080fd5b604052919050565b600067ffffffffffffffff821115612e44578081fd5b5060209081020190565b60005b83811015612e69578181015183820152602001612e51565b838111156114f55750506000910152565b6001600160a01b0381168114612e8f57600080fd5b50565b8015158114612e8f57600080fd5b6001600160e01b031981168114612e8f57600080fdfea26469706673582212208d3a9c8df87aca68fe97ec8c25645749967cedc0318a71e33f723390b29ff51d64736f6c63430006060033",
  "immutableReferences": {},
  "source": "pragma solidity ^0.6.0;\npragma experimental ABIEncoderV2;\n\nimport { Ownable } from \"openzeppelin-solidity/contracts/access/Ownable.sol\";\nimport { IShifterRegistry } from \"./interfaces/IShifterRegistry.sol\";\nimport { IShifter } from \"./interfaces/IShifter.sol\";\nimport { ShifterPoolLib } from \"./ShifterPoolLib.sol\";\nimport { ShifterBorrowProxyLib } from \"./ShifterBorrowProxyLib.sol\";\nimport { ShifterBorrowProxyFactoryLib } from \"./ShifterBorrowProxyFactoryLib.sol\";\nimport { ShifterBorrowProxy } from \"./ShifterBorrowProxy.sol\";\nimport { BorrowProxy } from \"./BorrowProxy.sol\";\nimport { BorrowProxyLib } from \"./BorrowProxyLib.sol\";\nimport { TokenUtils } from \"./utils/TokenUtils.sol\";\nimport { ViewExecutor } from \"./utils/ViewExecutor.sol\";\nimport { LiquidityToken } from \"./LiquidityToken.sol\";\nimport { SandboxLib } from \"./utils/sandbox/SandboxLib.sol\";\nimport { Create2CloneFactory } from \"./utils/Create2CloneFactory.sol\";\n\ncontract ShifterPool is Ownable, ViewExecutor, Create2CloneFactory {\n  using SandboxLib for *;\n  using ShifterPoolLib for *;\n  using TokenUtils for *;\n  using ShifterBorrowProxyLib for *;\n  using ShifterBorrowProxyFactoryLib for *;\n  using BorrowProxyLib for *;\n  ShifterPoolLib.Isolate isolate;\n  function cloneConstructor(bytes calldata consData) external override {\n    // do nothing\n  }\n  function setup(address shifterRegistry, uint256 minTimeout, uint256 poolFee, BorrowProxyLib.ModuleRegistration[] memory modules, ShifterPoolLib.LiquidityTokenLaunch[] memory tokenLaunches) public onlyOwner {\n    require(isolate.shifterRegistry == address(0x0), \"already initialized\");\n    isolate.shifterRegistry = shifterRegistry;\n    isolate.minTimeout = minTimeout;\n    isolate.poolFee = poolFee;\n    for (uint256 i = 0; i < modules.length; i++) {\n      BorrowProxyLib.ModuleRegistration memory registration = modules[i];\n      isolate.registry.registryRegisterModule(registration);\n    }\n    for (uint256 i = 0; i < tokenLaunches.length; i++) {\n      ShifterPoolLib.LiquidityTokenLaunch memory launch = tokenLaunches[i];\n      isolate.tokenToLiquidityToken[launch.token] = launch.liqToken;\n    }\n  }\n  bytes32 constant BORROW_PROXY_IMPLEMENTATION_SALT = 0xfe1e3164ba4910db3c9afd049cd8feb4552390569c846692e6df4ac68aeaa90e;\n  function deployBorrowProxyImplementation() public {\n    isolate.borrowProxyImplementation = isolate.makeBorrowProxy(BORROW_PROXY_IMPLEMENTATION_SALT);\n  }\n  function deployBorrowProxyClone(bytes32 salt) public returns (address payable created) {\n    created = address(uint160(create2Clone(isolate.borrowProxyImplementation, uint256(salt))));\n  }\n  function _executeBorrow(ShifterBorrowProxyLib.LiquidityRequestParcel memory liquidityRequestParcel, uint256 bond, uint256 timeoutExpiry) internal returns (bytes32 borrowerSalt) {\n    require(\n      liquidityRequestParcel.gasRequested == msg.value,\n      \"supplied ether is not equal to gas requested\"\n    );\n    require(\n      liquidityRequestParcel.validateSignature(\n        liquidityRequestParcel.computeLiquidityRequestHash()\n      ),\n      \"liquidity request signature rejected\"\n    );\n    ShifterBorrowProxyLib.LiquidityRequest memory liquidityRequest = liquidityRequestParcel.request;\n    borrowerSalt = liquidityRequest.computeBorrowerSalt();\n    address payable proxyAddress = address(uint160(isolate.borrowProxyImplementation.deriveBorrowerAddress(borrowerSalt)));\n    require(!isolate.borrowProxyController.isInitialized(proxyAddress), \"proxy has already been initialized\");\n    ShifterBorrowProxyLib.ProxyRecord memory proxyRecord = ShifterBorrowProxyLib.ProxyRecord({\n      request: liquidityRequest,\n      loan: ShifterBorrowProxyLib.LenderRecord(\n        msg.sender,\n        isolate.computeLoanParams(liquidityRequest.amount, bond, timeoutExpiry)\n      )\n    });\n    ShifterPoolLib.mapBorrowProxy(isolate, proxyAddress, proxyRecord);\n    isolate.issueLoan(liquidityRequest.token, proxyAddress, proxyRecord.computePostFee());\n    require(liquidityRequest.token.transferTokenFrom(msg.sender, address(this), bond), \"bond submission failed\");\n    return borrowerSalt;\n  }\n  function executeBorrow(ShifterBorrowProxyLib.LiquidityRequestParcel memory liquidityRequestParcel, uint256 bond, uint256 timeoutExpiry) public payable {\n    bytes32 salt = _executeBorrow(liquidityRequestParcel, bond, timeoutExpiry);\n    address payable proxyAddress = deployBorrowProxyClone(salt);\n    proxyAddress.setupBorrowProxy(liquidityRequestParcel.request.borrower, liquidityRequestParcel.request.token);\n    proxyAddress.sendInitializationActions(liquidityRequestParcel.request.actions);\n  }\n  function validateProxyRecordHandler(bytes memory proxyRecord) public view returns (bool) {\n    return isolate.borrowProxyController.validateProxyRecord(msg.sender, proxyRecord);\n  }\n  function getProxyTokenHandler(address proxyAddress) public view returns (address) {\n    return isolate.borrowProxyController.getProxyToken(proxyAddress);\n  }\n  function getProxyOwnerHandler(address user) public view returns (address) {\n    return isolate.borrowProxyController.getProxyOwner(user);\n  }\n  function getShifterHandler(address token) public view returns (IShifter) {\n    return isolate.getShifter(token);\n  }\n  function getLiquidityTokenHandler(address token) public view returns (LiquidityToken) {\n    return LiquidityToken(isolate.getLiquidityToken(token));\n  }\n  function fetchModuleHandler(address to, bytes4 sig) public view returns (BorrowProxyLib.Module memory) {\n    return isolate.registry.resolveModule(to, sig);\n  }\n  function relayResolveLoan(address token, address liquidityToken, address keeper, uint256 bond, uint256 repay) public returns (bool) {\n    require(isolate.borrowProxyController.proxyInitializerRecord[msg.sender] != bytes32(0x0), \"not a registered borrow proxy\");\n    if (bond != 0) require(token.sendToken(keeper, bond), \"failed to return bond to keeper\");\n    if (repay != 0) require(token.sendToken(liquidityToken, repay), \"failed to repay lost funds\");\n    require(LiquidityToken(liquidityToken).resolveLoan(msg.sender), \"loan resolution failure\");\n    return true;\n  }\n}\n",
  "sourcePath": "/Users/ray/0confirmation/packages/0confirmation-sol/contracts/ShifterPool.sol",
  "compiler": {
    "name": "solc",
    "version": "0.6.6+commit.6c089d02.Emscripten.clang"
  },
  "schemaVersion": "3.1.0",
  "updatedAt": "2020-04-27T10:32:34.414Z",
  "networkType": "ethereum",
  "devdoc": {
    "methods": {
      "owner()": {
        "details": "Returns the address of the current owner."
      },
      "renounceOwnership()": {
        "details": "Leaves the contract without owner. It will not be possible to call `onlyOwner` functions anymore. Can only be called by the current owner.     * NOTE: Renouncing ownership will leave the contract without an owner, thereby removing any functionality that is only available to the owner."
      },
      "transferOwnership(address)": {
        "details": "Transfers ownership of the contract to a new account (`newOwner`). Can only be called by the current owner."
      }
    }
  },
  "userdoc": {
    "methods": {}
  }
}