{
  "contractName": "ShifterBorrowProxyFactoryLib",
  "abi": [
    {
      "inputs": [
        {
          "internalType": "address",
          "name": "target",
          "type": "address"
        },
        {
          "internalType": "bytes32",
          "name": "salt",
          "type": "bytes32"
        }
      ],
      "name": "deriveBorrowerAddress",
      "outputs": [
        {
          "internalType": "address",
          "name": "",
          "type": "address"
        }
      ],
      "stateMutability": "view",
      "type": "function"
    }
  ],
  "bytecode": "0x61401f610026600b82828239805160001a60731461001957fe5b30600052607381538281f3fe73000000000000000000000000000000000000000030146080604052600436106100405760003560e01c8063bd5bfef214610045578063dd678a071461006e575b600080fd5b61005861005336600461032c565b61008e565b60405161006591906103bc565b60405180910390f35b81801561007a57600080fd5b50610058610089366004610362565b6100b0565b60006100a98261009d856100e0565b80519060200120610247565b9392505050565b60006100a9600083604051806020016100c89061031f565b601f1982820381018352601f90910116604052610254565b604080516000815260208101909152606090819061010190604481016103d0565b60408051601f198184030181529190526020810180516001600160e01b03166352e831dd60e01b179052805190915060630167ffffffffffffffff8111801561014957600080fd5b506040519080825280601f01601f191660200182016040528015610174576020820181803683370190505b507f3d3d606380380380913d393d73bebebebebebebebebebebebebebebebebebebe6020820152600160601b308102602d8301527f5af4602a57600080fd5b602d8060366000396000f3363d3d373d3d3d363d73be6041830152840260608201526e5af43d82803e903d91602b57fd5bf360881b6074820152915060005b81518110156102405781818151811061020757fe5b602001015160f81c60f81b83826063018151811061022157fe5b60200101906001600160f81b031916908160001a9053506001016101f2565b5050919050565b60006100a98383306102d7565b600080844710156102805760405162461bcd60e51b81526004016102779061048f565b60405180910390fd5b825161029e5760405162461bcd60e51b815260040161027790610423565b8383516020850187f590506001600160a01b0381166102cf5760405162461bcd60e51b815260040161027790610458565b949350505050565b60008060ff60f81b8386866040516020016102f59493929190610383565b60408051808303601f1901815291905280516020909101206001600160a01b031695945050505050565b613b23806104c783390190565b6000806040838503121561033e578182fd5b82356001600160a01b0381168114610354578283fd5b946020939093013593505050565b60008060408385031215610374578182fd5b50508035926020909101359150565b6001600160f81b031994909416845260609290921b6bffffffffffffffffffffffff191660018401526015830152603582015260550190565b6001600160a01b0391909116815260200190565b6000602080835283518082850152825b818110156103fc578581018301518582016040015282016103e0565b8181111561040d5783604083870101525b50601f01601f1916929092016040019392505050565b6020808252818101527f437265617465323a2062797465636f6465206c656e677468206973207a65726f604082015260600190565b60208082526019908201527f437265617465323a204661696c6564206f6e206465706c6f7900000000000000604082015260600190565b6020808252601d908201527f437265617465323a20696e73756666696369656e742062616c616e636500000060408201526060019056fe608060405234801561001057600080fd5b50613b03806100206000396000f3fe6080604052600436106100595760003560e01c80632692f25a146100625780632d34ba791461008257806356b8e146146100b85780635f7d2b57146100d85780635fe75958146100f8578063c4ddf3631461011857610060565b3661006057005b005b34801561006e57600080fd5b5061006061007d366004612a93565b610138565b34801561008e57600080fd5b506100a261009d366004612a5b565b6103ce565b6040516100af9190613228565b60405180910390f35b3480156100c457600080fd5b506100a26100d3366004612c0a565b61043c565b3480156100e457600080fd5b506100606100f3366004612c3c565b6107f0565b34801561010457600080fd5b50610060610113366004612ae9565b61083b565b34801561012457600080fd5b506100a2610133366004612c0a565b610880565b6001546001600160a01b031633148061015b57506000546001600160a01b031633145b8061016557503330145b61018a5760405162461bcd60e51b815260040161018190613514565b60405180910390fd5b60006101a66101a18383600463ffffffff610d1416565b610d3d565b60e01b90506101b36125fc565b6101c56000868463ffffffff610d5a16565b6002546001600160a01b03166020820152604051909150600080516020613aae833981519152906101f590613788565b60405180910390a1600054600160a01b900460ff1680156102195750604081015151155b156102bc5760006060866001600160a01b0316868660405161023b9190612ffe565b60006040518083038185875af1925050503d8060008114610278576040519150601f19603f3d011682016040523d82523d6000602084013e61027d565b606091505b5091509150816102a95761029081610e0d565b60405162461bcd60e51b81526004016101819190613262565b6102b38282610f00565b505050506103c9565b6102c98160400151610f15565b6102e55760405162461bcd60e51b8152600401610181906133fe565b600060606102fa83868863ffffffff610f2716565b915091508161030c5761029081610e0d565b60408084015101516001600160a01b03161561033c57604080840151015161033c9060079063ffffffff61103716565b6040830151606001516001600160a01b0316156103965760408301516060015161036e9060099063ffffffff61103716565b600080516020613aae8339815191526040516103899061337a565b60405180910390a16103ba565b600080516020613aae8339815191526040516103b190613602565b60405180910390a15b6103c48282610f00565b505050505b505050565b6001546000906001600160a01b0316156103fa5760405162461bcd60e51b81526004016101819061334a565b5060008054336001600160a01b0319918216179091556001805482166001600160a01b0385811691909117825560028054909316908416179091555b92915050565b60065460009060ff16156104625760405162461bcd60e51b8152600401610181906133d3565b600054600160a01b900460ff161561048c5760405162461bcd60e51b815260040161018190613594565b61049582611092565b6104b15760405162461bcd60e51b8152600401610181906134b1565b6104b9612620565b6104c283611115565b600880546040805160208084028201810190925282815293945060609392919083018282801561051b57602002820191906000526020600020905b81546001600160a01b031681526001909101906020018083116104fd575b505050505090504382602001516020015160000151106107e4576006805461ff0019166101001790556004545b81518110156105a0576207a1205a1080610584575061058282828151811061056c57fe5b60200260200101516001600160a01b0316611131565b155b156105985760045550600091506107eb9050565b600101610548565b5080516004908155600080548451602001516040516370a0823160e01b81526001600160a01b039283169491909216916370a08231916105e291309101613117565b60206040518083038186803b1580156105fa57600080fd5b505afa15801561060e573d6000803e3d6000fd5b505050506040513d601f19601f820116820180604052508101906106329190612eb0565b845160200151909150610655906001600160a01b0316838363ffffffff6111b216565b6106715760405162461bcd60e51b81526004016101819061373e565b60208085015181015101518451606001518210156106ab5784516060015182038111156106a757845160600151820390036106ab565b5060005b8451602001516040516303cc556d60e51b8152828403916001600160a01b0386169163801874ec9190839063798aada0906106ea908490600401613117565b60206040518083038186803b15801561070257600080fd5b505afa158015610716573d6000803e3d6000fd5b505050506040513d601f19601f8201168201806040525081019061073a9190612c9c565b60208a0151516040516001600160e01b031960e086901b168152610767939291908890889060040161312b565b602060405180830381600087803b15801561078157600080fd5b505af1158015610795573d6000803e3d6000fd5b505050506040513d601f19601f820116820180604052508101906107b99190612bee565b6107d55760405162461bcd60e51b815260040161018190613707565b600196505050505050506107eb565b6000925050505b919050565b600061080560006107ff611224565b85611248565b9050606061082a6108256001600160a01b0384168563ffffffff6112ba16565b611344565b90506108358161136d565b50505050565b6000546001600160a01b031633146108655760405162461bcd60e51b8152600401610181906134df565b606061087082611375565b905061087c308261182b565b5050565b600061088a612640565b61089383611870565b90506108aa6108a5826000015161188c565b611092565b6108c65760405162461bcd60e51b8152600401610181906134b1565b600654610100900460ff16156108ee5760405162461bcd60e51b8152600401610181906136a7565b80518051606001516000916109089163ffffffff61189f16565b60008054845151602001516040516303cc556d60e51b815293945091926001600160a01b039091169163798aada0916109449190600401613117565b60206040518083038186803b15801561095c57600080fd5b505afa158015610970573d6000803e3d6000fd5b505050506040513d601f19601f820116820180604052508101906109949190612c9c565b60065490915060009060ff16610b21576006805460ff19166001179055600054845151602001516040516307ef1e3760e21b81526001600160a01b0390921691631fbc78dc916109e691600401613117565b60206040518083038186803b1580156109fe57600080fd5b505afa158015610a12573d6000803e3d6000fd5b505050506040513d601f19601f82011682018060405250810190610a369190612c9c565b6001600160a01b031663159ab14d856060015186600001516000015160600151610a5f886118d8565b88608001516040518563ffffffff1660e01b8152600401610a839493929190613233565b602060405180830381600087803b158015610a9d57600080fd5b505af1158015610ab1573d6000803e3d6000fd5b505050506040513d601f19601f82011682018060405250810190610ad59190612eb0565b600381905584515160200151909150610b00906001600160a01b03168385840363ffffffff6111b216565b610b1c5760405162461bcd60e51b815260040161018190613435565b610b26565b506003545b600a80546040805160208084028201810190925282815260609390929091830182828015610b7d57602002820191906000526020600020905b81546001600160a01b03168152600190910190602001808311610b5f575b50506005549394505050505b8151811015610be4576207a1205a1080610bc55750610bc3828281518110610bad57fe5b60200260200101516001600160a01b03166118f1565b155b15610bdc5760055550600094506107eb9350505050565b600101610b89565b506000805460ff60a01b1916600160a01b17905584516020808201515191510151610c21916001600160a01b03909116908663ffffffff6111b216565b610c3d5760405162461bcd60e51b8152600401610181906133a5565b600080548651805160209081015191810151805190820151909101516040516320061d3b60e21b81526001600160a01b039094169463801874ec94610c8b94938a939092909160040161312b565b602060405180830381600087803b158015610ca557600080fd5b505af1158015610cb9573d6000803e3d6000fd5b505050506040513d601f19601f82011682018060405250810190610cdd9190612bee565b610cf95760405162461bcd60e51b815260040161018190613664565b8451805151610d0791611909565b5060019695505050505050565b610d1c612677565b610d268484611942565b815260208101919091526040810191909152919050565b8051602082015160009190610d528282611949565b949350505050565b610d626125fc565b604080516060810182526001600160a01b03808616825260028701548116602083015286548351630220891b60e51b81529293840192911690634411236090610db1908890889060040161315f565b608060405180830381600087803b158015610dcb57600080fd5b505af1158015610ddf573d6000803e3d6000fd5b505050506040513d601f19601f82011682018060405250810190610e039190612cea565b9052949350505050565b6060815160001415610e53575060408051808201909152601c81527f636170747572656420656d70747920726576657274206275666665720000000060208201526107eb565b6308c379a0610e686101a18460006004610d14565b63ffffffff1614610e93576040518060600160405280603f8152602001613a6f603f913990506107eb565b6060610eae610ea984600463ffffffff61196616565b61198a565b9050805160001415610ef557505060408051808201909152601d81527f636170747572656420656d70747920726576657274206d65737361676500000060208201526107eb565b6060610d52826119f9565b81610f0d57805181602001fd5b805181602001f35b602001516001600160a01b0316151590565b60006060600060608660400151602001516001600160a01b03165a610fda6040518061010001604052808b60400151602001516001600160a01b031681526020018b60400151604001516001600160a01b031681526020018b60400151606001516001600160a01b031681526020018b602001516001600160a01b03168152602001326001600160a01b031681526020018b600001516001600160a01b031681526020018981526020018a815250611a0f565b604051610fe79190612ffe565b6000604051808303818686f4925050503d8060008114611023576040519150601f19603f3d011682016040523d82523d6000602084013e611028565b606091505b50909890975095505050505050565b6001600160a01b03811660009081526020839052604090205460ff161561105d5761087c565b6001808301805491820181556000908152602090200180546001600160a01b0383166001600160a01b03199091161790555050565b600080546040516308f6049560e01b81526001600160a01b03909116906308f60495906110c3908590600401613262565b602060405180830381600087803b1580156110dd57600080fd5b505af11580156110f1573d6000803e3d6000fd5b505050506040513d601f19601f820116820180604052508101906104369190612bee565b61111d612620565b818060200190518101906104369190612d52565b6000806060836001600160a01b031661114985611a62565b6040516111569190612ffe565b600060405180830381855af49150503d8060008114611191576040519150601f19603f3d011682016040523d82523d6000602084013e611196565b606091505b5091509150816111a95761029081610e0d565b610d5281611aa5565b600080846001600160a01b03166111c98585611abb565b6040516111d69190612ffe565b6000604051808303816000865af19150503d8060008114611213576040519150601f19603f3d011682016040523d82523d6000602084013e611218565b606091505b50909695505050505050565b7fad53495153c7c363e98a26920ec679e0e687636458f6908c91cf6deadb19080190565b6000808447101561126b5760405162461bcd60e51b8152600401610181906137af565b82516112895760405162461bcd60e51b8152600401610181906132e9565b8383516020850187f590506001600160a01b038116610d525760405162461bcd60e51b81526004016101819061355d565b6112c2612698565b60006060846001600160a01b03166112d985611b11565b6040516112e69190612ffe565b600060405180830381855af49150503d8060008114611321576040519150601f19603f3d011682016040523d82523d6000602084013e611326565b606091505b50604080518082019091529115158252602082015295945050505050565b6060816040516020016113579190613984565b6040516020818303038152906040529050919050565b805160208201fd5b6060600080516020613aae8339815191526113d76113b38460008151811061139957fe5b6020026020010151600001516001600160a01b0316611b2c565b6040516020016113c3919061304f565b604051602081830303815290604052611ca8565b6040516113e49190613262565b60405180910390a16113f4612698565b6113fd83611cab565b9050600080516020613aae833981519152611449611439836020015160008151811061142557fe5b602002602001015160008151811061139957fe5b6040516020016113c391906130a7565b6040516114569190613262565b60405180910390a1600080516020613aae8339815191526040516114799061331e565b60405180910390a160005b835181101561181657600080516020613aae8339815191526040516114a8906132be565b60405180910390a16060826020015182815181106114c257fe5b6020026020010151905060006001600160a01b0316816000815181106114e457fe5b6020026020010151600001516001600160a01b0316141561162c576115208160008151811061150f57fe5b602002602001015160200151611e13565b6001600160a01b03168352611533612698565b6115568260008151811061154357fe5b6020026020010151602001518486611e49565b60408051600080825260208201909252919250508260008151811061157757fe5b60209081029190910181015101528051156115b7576115a78460200151846115a28460200151611efa565b611f3d565b6115b2575050611816565b61162a565b600080516020613aae8339815191526040516115d290613464565b60405180910390a18060200151826000815181106115ec57fe5b60200260200101516060018190525080600001518260008151811061160d57fe5b60200260200101516040019015159081151581525050505061180e565b505b600080516020613aae83398151915260405161164790613639565b60405180910390a18260200151828151811061165f57fe5b6020026020010151905060008090505b815181101561180b5760006060306001600160a01b03166116a285858151811061169557fe5b602002602001015161203c565b6040516116af9190612ffe565b6000604051808303816000865af19150503d80600081146116ec576040519150601f19603f3d011682016040523d82523d6000602084013e6116f1565b606091505b5091509150606061170182610e0d565b9050600080516020613aae833981519152816040516117209190613262565b60405180910390a18285858151811061173557fe5b602002602001015160400190151590811515815250508185858151811061175857fe5b602002602001015160600181905250600080516020613aae8339815191526040516117829061329a565b60405180910390a1600080516020613aae8339815191526117eb846117c057604051806040016040528060018152602001600360fc1b8152506117db565b604051806040016040528060018152602001603160f81b8152505b6040516020016113c3919061307f565b6040516117f89190613262565b60405180910390a150505060010161166f565b50505b600101611484565b50611824816020015161211b565b9392505050565b816001600160a01b03167fc9a3215cf323c32a2d0d184a56ff08178b9864d5756e9494fac7ae28361067f58260405161186491906131c8565b60405180910390a25050565b611878612640565b818060200190518101906104369190612e03565b60608160405160200161135791906138b8565b6000611824670de0b6b3a76400006118cc856020015160200151606001518561221f90919063ffffffff16565b9063ffffffff61225916565b60006118e38261229b565b805190602001209050919050565b6000806060836001600160a01b0316611149856122c0565b816001600160a01b03167fde947e8b6051ad11f984637f1fd1be5fc4b62225fcbf933475f7783ac5e2bd5f8260405161186491906138b8565b0160200190565b6000600180600884021b0380836020038503511691505092915050565b61196e612677565b818351101561197c57825191505b611824838384865103610d14565b6020810151606090806001600160401b03811180156119a857600080fd5b506040519080825280601f01601f1916602001820160405280156119d3576020820181803683370190505b50835190925060006119e484612303565b90506119f1818385612309565b505050919050565b6060818060200190518101906104369190612cb8565b6060633c52e5a160e01b82604051602401611a2a91906137e6565b60408051601f198184030181529190526020810180516001600160e01b03166001600160e01b03199093169290921790915292915050565b606081604051602401611a759190613117565b60408051601f198184030181529190526020810180516001600160e01b03166305f0caad60e31b17905292915050565b6000818060200190518101906104369190612bee565b606063a9059cbb60e01b8383604051602401611ad89291906131af565b60408051601f198184030181529190526020810180516001600160e01b03166001600160e01b0319909316929092179091529392505050565b60606309c5eabe60e01b82604051602401611a2a9190613262565b604080518082018252601081526f181899199a1a9b1b9c1cb0b131b232b360811b60208201528151602a80825260608281019094526001600160a01b03851692918491602082018180368337019050509050600360fc1b81600081518110611b9057fe5b60200101906001600160f81b031916908160001a905350600f60fb1b81600181518110611bb957fe5b60200101906001600160f81b031916908160001a90535060005b6014811015611c9f578260048583600c0160208110611bee57fe5b1a60f81b6001600160f81b031916901c60f81c60ff1681518110611c0e57fe5b602001015160f81c60f81b828260020260020181518110611c2b57fe5b60200101906001600160f81b031916908160001a905350828482600c0160208110611c5257fe5b825191901a600f16908110611c6357fe5b602001015160f81c60f81b828260020260030181518110611c8057fe5b60200101906001600160f81b031916908160001a905350600101611bd3565b50949350505050565b90565b611cb3612698565b606082516001600160401b0381118015611ccc57600080fd5b50604051908082528060200260200182016040528015611d0057816020015b6060815260200190600190039081611ceb5790505b50905060005b8351811015611df65760408051600180825281830190925290816020015b611d2c6126b0565b815260200190600190039081611d2457905050828281518110611d4b57fe5b6020026020010181905250838181518110611d6257fe5b602002602001015160000151828281518110611d7a57fe5b6020026020010151600081518110611d8e57fe5b60209081029190910101516001600160a01b0390911690528351849082908110611db457fe5b602002602001015160200151828281518110611dcc57fe5b6020026020010151600081518110611de057fe5b6020908102919091018101510152600101611d06565b506040805180820190915260008152602081019190915292915050565b60006104367fad53495153c7c363e98a26920ec679e0e687636458f6908c91cf6deadb19080160001b8380519060200120612347565b611e51612698565b611e596126d6565b82516001600160a01b03166020820152604051600080516020613aae83398151915290611e859061348e565b60405180910390a18315611ed857606083602001518581518110611ea557fe5b602002602001015190508051600014611ed65780600182510381518110611ec857fe5b602090810291909101015182525b505b611ef1611ee482612354565b869063ffffffff61236716565b95945050505050565b6060600080516020613aae833981519152611f1483611ca8565b604051611f219190613262565b60405180910390a1818060200190518101906104369190612bbc565b6000606082516001600160401b0381118015611f5857600080fd5b50604051908082528060200260200182016040528015611f9257816020015b611f7f6126b0565b815260200190600190039081611f775790505b50905060005b815181101561201857838181518110611fad57fe5b602002602001015160200151828281518110611fc557fe5b602002602001015160200181905250838181518110611fe057fe5b602002602001015160000151828281518110611ff857fe5b60209081029190910101516001600160a01b039091169052600101611f98565b508085858151811061202657fe5b6020908102919091010152511515949350505050565b6060600080516020613aae83398151915261207661206684600001516001600160a01b0316611b2c565b6040516020016113c3919061301a565b6040516120839190613262565b60405180910390a1600080516020613aae8339815191526040516120a6906136de565b60405180910390a1600080516020613aae8339815191526120e16120d184602001515160001b6123d8565b6040516020016113c391906130de565b6040516120ee9190613262565b60405180910390a181516020830151604051631349792d60e11b92611a2a92909160009190602401613182565b60606000805b83518110156121505783818151811061213657fe5b602002602001015151820191508080600101915050612121565b50806001600160401b038111801561216757600080fd5b506040519080825280602002602001820160405280156121a157816020015b61218e6126b0565b8152602001906001900390816121865790505b5091506000805b84518110156119f15760005b8582815181106121c057fe5b602002602001015151811015612216578582815181106121dc57fe5b602002602001015181815181106121ef57fe5b602002602001015185848151811061220357fe5b60209081029190910101526001016121b4565b506001016121a8565b60008261222e57506000610436565b8282028284828161223b57fe5b04146118245760405162461bcd60e51b8152600401610181906135c1565b600061182483836040518060400160405280601a81526020017f536166654d6174683a206469766973696f6e206279207a65726f000000000000815250612544565b8051516040908101516020808401518385015193516060946113579493909101612fe8565b6060816040516024016122d39190613117565b60408051601f198184030181529190526020810180516001600160e01b0316639f7c73e960e01b17905292915050565b60200190565b5b60208110612329578151835260209283019290910190601f190161230a565b600180600883602003021b0380845116811984511617845250505050565b600061182483833061257b565b606081604051602001611357919061387b565b61236f612698565b60603061237c85856125c3565b6040516123899190612ffe565b6000604051808303816000865af19150503d80600081146123c6576040519150601f19603f3d011682016040523d82523d6000602084013e6123cb565b606091505b50915050610d52816125e0565b604080518082018252601081526f181899199a1a9b1b9c1cb0b131b232b360811b60208201528151604280825260808201909352606092839190602082018180368337019050509050600360fc1b8160008151811061243357fe5b60200101906001600160f81b031916908160001a905350600f60fb1b8160018151811061245c57fe5b60200101906001600160f81b031916908160001a90535060005b602081101561253c5782600486836020811061248e57fe5b1a60f81b6001600160f81b031916901c60f81c60ff16815181106124ae57fe5b602001015160f81c60f81b8282600202600201815181106124cb57fe5b60200101906001600160f81b031916908160001a905350828582602081106124ef57fe5b825191901a600f1690811061250057fe5b602001015160f81c60f81b82826002026003018151811061251d57fe5b60200101906001600160f81b031916908160001a905350600101612476565b509392505050565b600081836125655760405162461bcd60e51b81526004016101819190613262565b50600083858161257157fe5b0495945050505050565b60008060ff60f81b8386866040516020016125999493929190612faf565b60408051808303601f1901815291905280516020909101206001600160a01b031695945050505050565b6060635f7d2b5760e01b8383604051602401611ad8929190613275565b6125e8612698565b818060200190518101906104369190612d84565b604080516060810182526000808252602082015290810161261b6126f6565b905290565b604051806040016040528061263361271d565b815260200161261b612754565b6040518060a00160405280612653612620565b81526000602082018190526040820181905260608083019190915260809091015290565b60405180606001604052806000815260200160008152602001600081525090565b60408051808201909152600081526060602082015290565b604080516080810182526000808252606060208301819052928201528181019190915290565b60405180604001604052806126e96126b0565b8152600060209091015290565b60408051608081018252600080825260208201819052918101829052606081019190915290565b6040805160c0810182526000808252602082018190529181018290526060808201839052608082019290925260a081019190915290565b604051806040016040528060006001600160a01b0316815260200161261b6040518060800160405280600081526020016000815260200160008152602001600081525090565b805161043681613a48565b600082601f8301126127b5578081fd5b81516127c86127c3826139d1565b6139ab565b818152915060208083019084810160005b848110156128505781518701604080601f19838c030112156127fa57600080fd5b612803816139ab565b61280f8b87850161279a565b8152818301516001600160401b0381111561282957600080fd5b6128378c88838701016128b9565b82880152508652505092820192908201906001016127d9565b505050505092915050565b8051801515811461043657600080fd5b600082601f83011261287b578081fd5b81356128896127c3826139f0565b91508082528360208285010111156128a057600080fd5b8060208401602084013760009082016020015292915050565b600082601f8301126128c9578081fd5b81516128d76127c3826139f0565b91508082528360208285010111156128ee57600080fd5b6128ff816020840160208601613a1c565b5092915050565b600081830360a0811215612918578182fd5b61292260406139ab565b9150825161292f81613a48565b82526080601f198201121561294357600080fd5b5061294e60806139ab565b602083015181526040830151602082015260608301516040820152608083015160608201528060208301525092915050565b600060c08284031215612991578081fd5b61299b60406139ab565b905081516001600160401b03808211156129b457600080fd5b81840160c081870312156129c757600080fd5b6129d160c06139ab565b925080516129de81613a48565b835260208101516129ee81613a48565b806020850152506040810151604084015260608101516060840152612a16866080830161285b565b608084015260a081015182811115612a2d57600080fd5b612a39878284016127a5565b60a08501525050508152612a508360208401612906565b602082015292915050565b60008060408385031215612a6d578182fd5b8235612a7881613a48565b91506020830135612a8881613a48565b809150509250929050565b600080600060608486031215612aa7578081fd5b8335612ab281613a48565b92506020840135915060408401356001600160401b03811115612ad3578182fd5b612adf8682870161286b565b9150509250925092565b60006020808385031215612afb578182fd5b82356001600160401b0380821115612b11578384fd5b81850186601f820112612b22578485fd5b80359250612b326127c3846139d1565b83815284810190828601875b86811015612bad5781358501604080601f19838f03011215612b5e578a8bfd5b612b67816139ab565b8a830135612b7481613a48565b81528282013589811115612b86578c8dfd5b612b948f8d8387010161286b565b828d015250865250509287019290870190600101612b3e565b50909998505050505050505050565b600060208284031215612bcd578081fd5b81516001600160401b03811115612be2578182fd5b610d52848285016127a5565b600060208284031215612bff578081fd5b815161182481613a60565b600060208284031215612c1b578081fd5b81356001600160401b03811115612c30578182fd5b610d528482850161286b565b60008060408385031215612c4e578182fd5b82356001600160401b0380821115612c64578384fd5b612c708683870161286b565b93506020850135915080821115612c85578283fd5b50612c928582860161286b565b9150509250929050565b600060208284031215612cad578081fd5b815161182481613a48565b600060208284031215612cc9578081fd5b81516001600160401b03811115612cde578182fd5b610d52848285016128b9565b600060808284031215612cfb578081fd5b612d0560806139ab565b8251612d1081613a60565b81526020830151612d2081613a48565b60208201526040830151612d3381613a48565b60408201526060830151612d4681613a48565b60608201529392505050565b600060208284031215612d63578081fd5b81516001600160401b03811115612d78578182fd5b610d5284828501612980565b600060208284031215612d95578081fd5b81516001600160401b0380821115612dab578283fd5b81840160408187031215612dbd578384fd5b612dc760406139ab565b92508051612dd481613a60565b8352602081015182811115612de7578485fd5b612df3878284016128b9565b6020850152509195945050505050565b600060208284031215612e14578081fd5b81516001600160401b0380821115612e2a578283fd5b81840160a08187031215612e3c578384fd5b612e4660a06139ab565b9250805182811115612e56578485fd5b612e6287828401612980565b845250602081015160208401526040810151604084015260608101516060840152608081015182811115612e94578485fd5b612ea0878284016128b9565b6080850152509195945050505050565b600060208284031215612ec1578081fd5b5051919050565b600060018060a01b038251168352602082015160406020850152610d526040850182612efc565b6001600160a01b03169052565b60008151808452612f14816020860160208601613a1c565b601f01601f19169290920160200192915050565b60018060a01b038151168252602081015180516020840152602081015160408401526040810151606084015260608101516080840152505050565b600060018060a01b038251168352602082015160806020850152612f8a6080850182612efc565b604084015115156040860152606084015191508481036060860152611ef18183612efc565b6001600160f81b031994909416845260609290921b6bffffffffffffffffffffffff191660018401526015830152603582015260550190565b9283526020830191909152604082015260600190565b60008251613010818460208701613a1c565b9190910192915050565b60006c032bc32b1baba34b7b7173a379609d1b8252825161304281600d850160208701613a1c565b91909101600d0192915050565b60006703a30b933b2ba1d160c51b82528251613072816008850160208701613a1c565b9190910160080192915050565b60006c039bab1b1b2b9b99031b7b2329609d1b8252825161304281600d850160208701613a1c565b60006e036b0b83832b2103a30b933b2ba1d1608d1b825282516130d181600f850160208701613a1c565b91909101600f0192915050565b600070032bc32b1baba34b7b7103632b733ba341607d1b8252825161310a816011850160208701613a1c565b9190910160110192915050565b6001600160a01b0391909116815260200190565b6001600160a01b03958616815293851660208501529190931660408301526060820192909252608081019190915260a00190565b6001600160a01b039290921682526001600160e01b031916602082015260400190565b6001600160a01b038416815260ff83166020820152606060408201819052600090611ef190830184612efc565b6001600160a01b03929092168252602082015260400190565b6000602080830181845280855180835260408601915060408482028701019250838701855b8281101561321b57603f19888603018452613209858351612f63565b945092850192908501906001016131ed565b5092979650505050505050565b901515815260200190565b6000858252846020830152836040830152608060608301526132586080830184612efc565b9695505050505050565b6000602082526118246020830184612efc565b6000604082526132886040830185612efc565b8281036020840152611ef18185612efc565b6020808252600a9082015269191a5cdc185d18da195960b21b604082015260600190565b602080825260119082015270383937b1b2b9b9b4b7339030b1ba34b7b760791b604082015260600190565b6020808252818101527f437265617465323a2062797465636f6465206c656e677468206973207a65726f604082015260600190565b60208082526012908201527170726f63657373696e6720616374696f6e7360701b604082015260600190565b60208082526016908201527563616e277420696e697469616c697a6520747769636560501b604082015260600190565b6020808252601190820152701a5b9cd95c9d1959081a5b9d1bc81cd95d607a1b604082015260600190565b6020808252601490820152731ad9595c195c881c185e5bdd5d0819985a5b195960621b604082015260600190565b6020808252601190820152701b1bd85b8818995a5b99c81c995c185a59607a1b604082015260600190565b6020808252601f908201527f66756e6374696f6e2068616e646c6572206e6f74207265676973746572656400604082015260600190565b6020808252601590820152741d1bdad95b881d1c985b9cd9995c8819985a5b1959605a1b604082015260600190565b60208082526010908201526f1cd85999481d9a595dc819985a5b195960821b604082015260600190565b602080825260099082015268657865637574696e6760b81b604082015260600190565b6020808252601490820152731c1c9bde1e481c9958dbdc99081a5b9d985b1a5960621b604082015260600190565b6020808252818101527f6d7573742062652063616c6c65642066726f6d207368696674657220706f6f6c604082015260600190565b60208082526029908201527f626f72726f772070726f78792063616e206f6e6c792062652075736564206279604082015268103137b93937bbb2b960b91b606082015260800190565b60208082526019908201527f437265617465323a204661696c6564206f6e206465706c6f7900000000000000604082015260600190565b6020808252601390820152721b1bd85b88185b1c9958591e481c995c185a59606a1b604082015260600190565b60208082526021908201527f536166654d6174683a206d756c7469706c69636174696f6e206f766572666c6f6040820152607760f81b606082015260800190565b60208082526017908201527f646964206e6f7420696e7365727420696e746f20736574000000000000000000604082015260600190565b6020808252601190820152700e4cac2c8f240e8de40c8d2e6e0c2e8c6d607b1b604082015260600190565b60208082526023908201527f6c6f616e207265736f6c7574696f6e206e6f74696669636174696f6e206661696040820152621b195960ea1b606082015260800190565b60208082526019908201527f70726f7879206973206265696e67206c69717569646174656400000000000000604082015260600190565b6020808252600f908201526e61626f757420746f20656e636f646560881b604082015260600190565b60208082526017908201527f6c6f616e207265736f6c7574696f6e206661696c757265000000000000000000604082015260600190565b6020808252602a908201527f6661696c656420746f207472616e73666572207265636c61696d65642066756e604082015269191cc81d1bc81c1bdbdb60b21b606082015260800190565b6020808252600d908201526c656e74657265642070726f787960981b604082015260600190565b6020808252601d908201527f437265617465323a20696e73756666696369656e742062616c616e6365000000604082015260600190565b60006020825260018060a01b0380845116602084015280602085015116604084015250604083015161381b6060840182612eef565b50606083015161382e6080840182612eef565b50608083015161384160a0840182612eef565b5060a083015161385460c0840182612eef565b5060c083015160e083015260e0830151610100808185015250610d52610120840182612efc565b6000602082528251604060208401526138976060840182612f63565b602094909401516001600160a01b0316604093909301929092525090919050565b60006020808352835160c0828501526101a0840160018060a01b038083511660e087015280848401511661010087015250604082015161012086015260608201516101408601526080820151151561016086015260a082015160c061018087015281925080516139288184613a13565b9350839250859181860284019086015b82841015613964578482038652613950828251612ec8565b958701956001949094019391508601613938565b508589015194506139786040890186612f28565b98975050505050505050565b6000602082528251151560208301526020830151604080840152610d526060840182612efc565b6040518181016001600160401b03811182821017156139c957600080fd5b604052919050565b60006001600160401b038211156139e6578081fd5b5060209081020190565b60006001600160401b03821115613a05578081fd5b50601f01601f191660200190565b90815260200190565b60005b83811015613a37578181015183820152602001613a1f565b838111156108355750506000910152565b6001600160a01b0381168114613a5d57600080fd5b50565b8015158114613a5d57600080fdfe6361707475726564206120726576657274206572726f722c2062757420697420646f65736e277420636f6e666f726d20746f20746865207374616e64617264cf34ef537ac33ee1ac626ca1587a0a7e8e51561e5514f8cb36afa1c5102b3baba26469706673582212203fae636a381a688be5afadf2dacc7fcf9fe6dff0055afd6dec76b3cc1de9ab3364736f6c63430006060033a2646970667358221220700fe5b61aabfadb2bda3eeb668b69803f6683847b566ca944ef409480f30c1b64736f6c63430006060033",
  "immutableReferences": {},
  "source": "pragma solidity ^0.6.0;\npragma experimental ABIEncoderV2;\n\nimport { Create2 } from \"openzeppelin-solidity/contracts/utils/Create2.sol\";\nimport { ShifterBorrowProxy } from \"./ShifterBorrowProxy.sol\";\nimport { ShifterPoolLib } from \"./ShifterPoolLib.sol\";\n\nlibrary ShifterBorrowProxyFactoryLib {\n  function deployBorrowProxy(ShifterPoolLib.Isolate storage /* isolate */, bytes32 salt) external returns (address output) {\n    output = Create2.deploy(0, salt, type(ShifterBorrowProxy).creationCode);\n  }\n  function deriveBorrowerAddress(address target, bytes32 salt) external view returns (address) {\n    return Create2.computeAddress(salt, keccak256(computeCreationCode(target)));\n  }\n  function computeCreationCode(address target) internal view returns (bytes memory clone) {\n      bytes memory consData = abi.encodeWithSignature(\"cloneConstructor(bytes)\", new bytes(0));\n      clone = new bytes(99 + consData.length);\n      assembly {\n        mstore(add(clone, 0x20),\n           0x3d3d606380380380913d393d73bebebebebebebebebebebebebebebebebebebe)\n        mstore(add(clone, 0x2d),\n           mul(address(), 0x01000000000000000000000000))\n        mstore(add(clone, 0x41),\n           0x5af4602a57600080fd5b602d8060366000396000f3363d3d373d3d3d363d73be)\n           mstore(add(clone, 0x60),\n           mul(target, 0x01000000000000000000000000))\n        mstore(add(clone, 116),\n           0x5af43d82803e903d91602b57fd5bf30000000000000000000000000000000000)\n      }\n      for (uint256 i = 0; i < consData.length; i++) {\n        clone[i + 99] = consData[i];\n      }\n  }\n}\n",
  "sourcePath": "/home/ray/0confirmation/packages/0confirmation-sol/contracts/ShifterBorrowProxyFactoryLib.sol",
  "compiler": {
    "name": "solc",
    "version": "0.6.6+commit.6c089d02.Emscripten.clang"
  },
  "schemaVersion": "3.1.0",
  "updatedAt": "2020-04-27T01:12:40.988Z",
  "devdoc": {
    "methods": {}
  },
  "userdoc": {
    "methods": {}
  }
}