{
  "contractName": "ShifterMock",
  "abi": [
    {
      "inputs": [],
      "stateMutability": "nonpayable",
      "type": "constructor"
    },
    {
      "inputs": [],
      "name": "token",
      "outputs": [
        {
          "internalType": "address",
          "name": "",
          "type": "address"
        }
      ],
      "stateMutability": "view",
      "type": "function"
    },
    {
      "inputs": [
        {
          "internalType": "bytes32",
          "name": "",
          "type": "bytes32"
        },
        {
          "internalType": "uint256",
          "name": "amount",
          "type": "uint256"
        },
        {
          "internalType": "bytes32",
          "name": "",
          "type": "bytes32"
        },
        {
          "internalType": "bytes",
          "name": "",
          "type": "bytes"
        }
      ],
      "name": "shiftIn",
      "outputs": [
        {
          "internalType": "uint256",
          "name": "",
          "type": "uint256"
        }
      ],
      "stateMutability": "nonpayable",
      "type": "function"
    }
  ],
  "bytecode": "0x608060405234801561001057600080fd5b5060405161001d9061005f565b604051809103906000f080158015610039573d6000803e3d6000fd5b50600080546001600160a01b0319166001600160a01b039290921691909117905561006c565b610cac8061029e83390190565b6102238061007b6000396000f3fe608060405234801561001057600080fd5b50600436106100365760003560e01c8063bb4a1d8c1461003b578063fc0c546a14610106575b600080fd5b6100f46004803603608081101561005157600080fd5b8135916020810135916040820135919081019060808101606082013564010000000081111561007f57600080fd5b82018360208201111561009157600080fd5b803590602001918460018302840111640100000000831117156100b357600080fd5b91908080601f016020809104026020016040519081016040528093929190818152602001838380828437600092019190915250929550610137945050505050565b60408051918252519081900360200190f35b61010e6101d1565b6040805173ffffffffffffffffffffffffffffffffffffffff9092168252519081900360200190f35b60008054604080517f40c10f1900000000000000000000000000000000000000000000000000000000815233600482015260248101879052905173ffffffffffffffffffffffffffffffffffffffff909216916340c10f1991604480820192869290919082900301818387803b1580156101b057600080fd5b505af11580156101c4573d6000803e3d6000fd5b5095979650505050505050565b60005473ffffffffffffffffffffffffffffffffffffffff168156fea26469706673582212201dbabc9af6d61c5b19159220a444cc83a6870c989e9e6e84c124e9ef52f4338364736f6c63430006030033608060405234801561001057600080fd5b5060408051808201825260078152667a65726f42544360c81b6020808301918252835180850190945260048452637a42544360e01b90840152815191929160089161005e916003919061008f565b50815161007290600490602085019061008f565b506005805460ff191660ff929092169190911790555061012a9050565b828054600181600116156101000203166002900490600052602060002090601f016020900481019282601f106100d057805160ff19168380011785556100fd565b828001600101855582156100fd579182015b828111156100fd5782518255916020019190600101906100e2565b5061010992915061010d565b5090565b61012791905b808211156101095760008155600101610113565b90565b610b73806101396000396000f3fe608060405234801561001057600080fd5b50600436106100d45760003560e01c806340c10f1911610081578063a457c2d71161005b578063a457c2d71461028c578063a9059cbb146102b8578063dd62ed3e146102e4576100d4565b806340c10f191461023057806370a082311461025e57806395d89b4114610284576100d4565b806323b872dd116100b257806323b872dd146101b0578063313ce567146101e65780633950935114610204576100d4565b806306fdde03146100d9578063095ea7b31461015657806318160ddd14610196575b600080fd5b6100e1610312565b6040805160208082528351818301528351919283929083019185019080838360005b8381101561011b578181015183820152602001610103565b50505050905090810190601f1680156101485780820380516001836020036101000a031916815260200191505b509250505060405180910390f35b6101826004803603604081101561016c57600080fd5b506001600160a01b0381351690602001356103a8565b604080519115158252519081900360200190f35b61019e6103c5565b60408051918252519081900360200190f35b610182600480360360608110156101c657600080fd5b506001600160a01b038135811691602081013590911690604001356103cb565b6101ee610458565b6040805160ff9092168252519081900360200190f35b6101826004803603604081101561021a57600080fd5b506001600160a01b038135169060200135610461565b61025c6004803603604081101561024657600080fd5b506001600160a01b0381351690602001356104b5565b005b61019e6004803603602081101561027457600080fd5b50356001600160a01b03166104c3565b6100e16104de565b610182600480360360408110156102a257600080fd5b506001600160a01b03813516906020013561053f565b610182600480360360408110156102ce57600080fd5b506001600160a01b0381351690602001356105ad565b61019e600480360360408110156102fa57600080fd5b506001600160a01b03813581169160200135166105c1565b60038054604080516020601f600260001961010060018816150201909516949094049384018190048102820181019092528281526060939092909183018282801561039e5780601f106103735761010080835404028352916020019161039e565b820191906000526020600020905b81548152906001019060200180831161038157829003601f168201915b5050505050905090565b60006103bc6103b56105ec565b84846105f0565b50600192915050565b60025490565b60006103d88484846106dc565b61044e846103e46105ec565b61044985604051806060016040528060288152602001610aa8602891396001600160a01b038a166000908152600160205260408120906104226105ec565b6001600160a01b03168152602081019190915260400160002054919063ffffffff61084316565b6105f0565b5060019392505050565b60055460ff1690565b60006103bc61046e6105ec565b84610449856001600061047f6105ec565b6001600160a01b03908116825260208083019390935260409182016000908120918c16815292529020549063ffffffff6108da16565b6104bf828261093b565b5050565b6001600160a01b031660009081526020819052604090205490565b60048054604080516020601f600260001961010060018816150201909516949094049384018190048102820181019092528281526060939092909183018282801561039e5780601f106103735761010080835404028352916020019161039e565b60006103bc61054c6105ec565b8461044985604051806060016040528060258152602001610b1960259139600160006105766105ec565b6001600160a01b03908116825260208083019390935260409182016000908120918d1681529252902054919063ffffffff61084316565b60006103bc6105ba6105ec565b84846106dc565b6001600160a01b03918216600090815260016020908152604080832093909416825291909152205490565b3390565b6001600160a01b0383166106355760405162461bcd60e51b8152600401808060200182810382526024815260200180610af56024913960400191505060405180910390fd5b6001600160a01b03821661067a5760405162461bcd60e51b8152600401808060200182810382526022815260200180610a606022913960400191505060405180910390fd5b6001600160a01b03808416600081815260016020908152604080832094871680845294825291829020859055815185815291517f8c5be1e5ebec7d5bd14f71427d1e84f3dd0314c0f7b2291e5b200ac8c7c3b9259281900390910190a3505050565b6001600160a01b0383166107215760405162461bcd60e51b8152600401808060200182810382526025815260200180610ad06025913960400191505060405180910390fd5b6001600160a01b0382166107665760405162461bcd60e51b8152600401808060200182810382526023815260200180610a3d6023913960400191505060405180910390fd5b610771838383610a37565b6107b481604051806060016040528060268152602001610a82602691396001600160a01b038616600090815260208190526040902054919063ffffffff61084316565b6001600160a01b0380851660009081526020819052604080822093909355908416815220546107e9908263ffffffff6108da16565b6001600160a01b038084166000818152602081815260409182902094909455805185815290519193928716927fddf252ad1be2c89b69c2b068fc378daa952ba7f163c4a11628f55a4df523b3ef92918290030190a3505050565b600081848411156108d25760405162461bcd60e51b81526004018080602001828103825283818151815260200191508051906020019080838360005b8381101561089757818101518382015260200161087f565b50505050905090810190601f1680156108c45780820380516001836020036101000a031916815260200191505b509250505060405180910390fd5b505050900390565b600082820183811015610934576040805162461bcd60e51b815260206004820152601b60248201527f536166654d6174683a206164646974696f6e206f766572666c6f770000000000604482015290519081900360640190fd5b9392505050565b6001600160a01b038216610996576040805162461bcd60e51b815260206004820152601f60248201527f45524332303a206d696e7420746f20746865207a65726f206164647265737300604482015290519081900360640190fd5b6109a260008383610a37565b6002546109b5908263ffffffff6108da16565b6002556001600160a01b0382166000908152602081905260409020546109e1908263ffffffff6108da16565b6001600160a01b0383166000818152602081815260408083209490945583518581529351929391927fddf252ad1be2c89b69c2b068fc378daa952ba7f163c4a11628f55a4df523b3ef9281900390910190a35050565b50505056fe45524332303a207472616e7366657220746f20746865207a65726f206164647265737345524332303a20617070726f766520746f20746865207a65726f206164647265737345524332303a207472616e7366657220616d6f756e7420657863656564732062616c616e636545524332303a207472616e7366657220616d6f756e74206578636565647320616c6c6f77616e636545524332303a207472616e736665722066726f6d20746865207a65726f206164647265737345524332303a20617070726f76652066726f6d20746865207a65726f206164647265737345524332303a2064656372656173656420616c6c6f77616e63652062656c6f77207a65726fa264697066735822122008483fca3ddb2a1f254beb529536538ffb378407ab7340b62edcd5b2116cbe2764736f6c63430006030033",
  "source": "pragma solidity ^0.6.3;\n\nimport { ShifterERC20Mock } from \"./ShifterERC20Mock.sol\";\n\ncontract ShifterMock {\n  address public token;\n  constructor() public {\n    token = address(new ShifterERC20Mock());\n  }\n  function shiftIn(bytes32 /* pHash */, uint256 amount , bytes32 /* nHash */, bytes memory /* darknode signature */) public returns (uint256) {\n    ShifterERC20Mock(token).mint(msg.sender, amount);\n    return amount;\n  }\n}\n    \n",
  "sourcePath": "/home/ray/0confirmation/packages/0confirmation-sol/contracts/mock/ShifterMock.sol",
  "compiler": {
    "name": "solc",
    "version": "0.6.3+commit.8dda9521.Emscripten.clang"
  },
  "schemaVersion": "3.0.23",
  "updatedAt": "2020-04-03T03:35:12.872Z",
  "devdoc": {
    "methods": {}
  },
  "userdoc": {
    "methods": {}
  }
}