{
  "contractName": "ShifterMock",
  "abi": [
    {
      "inputs": [],
      "stateMutability": "nonpayable",
      "type": "constructor"
    },
    {
      "inputs": [],
      "name": "token",
      "outputs": [
        {
          "internalType": "address",
          "name": "",
          "type": "address"
        }
      ],
      "stateMutability": "view",
      "type": "function"
    },
    {
      "inputs": [
        {
          "internalType": "bytes32",
          "name": "",
          "type": "bytes32"
        },
        {
          "internalType": "uint256",
          "name": "amount",
          "type": "uint256"
        },
        {
          "internalType": "bytes32",
          "name": "",
          "type": "bytes32"
        },
        {
          "internalType": "bytes",
          "name": "",
          "type": "bytes"
        }
      ],
      "name": "mint",
      "outputs": [
        {
          "internalType": "uint256",
          "name": "",
          "type": "uint256"
        }
      ],
      "stateMutability": "nonpayable",
      "type": "function"
    },
    {
      "inputs": [],
      "name": "mintFee",
      "outputs": [
        {
          "internalType": "uint16",
          "name": "",
          "type": "uint16"
        }
      ],
      "stateMutability": "pure",
      "type": "function"
    }
  ],
  "bytecode": "0x608060405234801561001057600080fd5b5060405161001d9061005f565b604051809103906000f080158015610039573d6000803e3d6000fd5b50600080546001600160a01b0319166001600160a01b039290921691909117905561006c565b610f808061028d83390190565b6102128061007b6000396000f3fe608060405234801561001057600080fd5b50600436106100415760003560e01c806313966db514610046578063159ab14d14610065578063fc0c546a14610130575b600080fd5b61004e610154565b6040805161ffff9092168252519081900360200190f35b61011e6004803603608081101561007b57600080fd5b813591602081013591604082013591908101906080810160608201356401000000008111156100a957600080fd5b8201836020820111156100bb57600080fd5b803590602001918460018302840111640100000000831117156100dd57600080fd5b91908080601f016020809104026020016040519081016040528093929190818152602001838380828437600092019190915250929550610159945050505050565b60408051918252519081900360200190f35b6101386101cd565b604080516001600160a01b039092168252519081900360200190f35b600090565b60008054604080516340c10f1960e01b81523360048201526024810187905290516001600160a01b03909216916340c10f1991604480820192869290919082900301818387803b1580156101ac57600080fd5b505af11580156101c0573d6000803e3d6000fd5b5095979650505050505050565b6000546001600160a01b03168156fea26469706673582212209ad7462ea4c6f405623e31f65073b178c971e00a4c06d3e474239e8cadc6830164736f6c63430006080033608060405234801561001057600080fd5b50604051806040016040528060048152602001637a42544360e01b815250604051806040016040528060048152602001637a42544360e01b8152506008828281600390805190602001906100659291906100b9565b5080516100799060049060208401906100b9565b50506005805460ff191660121790555061009b816001600160e01b036100a316565b505050610154565b6005805460ff191660ff92909216919091179055565b828054600181600116156101000203166002900490600052602060002090601f016020900481019282601f106100fa57805160ff1916838001178555610127565b82800160010185558215610127579182015b8281111561012757825182559160200191906001019061010c565b50610133929150610137565b5090565b61015191905b80821115610133576000815560010161013d565b90565b610e1d806101636000396000f3fe608060405234801561001057600080fd5b50600436106100f55760003560e01c806342966c6811610097578063a173b2f611610066578063a173b2f6146102f6578063a457c2d714610313578063a9059cbb1461033f578063dd62ed3e1461036b576100f5565b806342966c681461027f57806370a082311461029c57806379cc6790146102c257806395d89b41146102ee576100f5565b806323b872dd116100d357806323b872dd146101d1578063313ce56714610207578063395093511461022557806340c10f1914610251576100f5565b806306fdde03146100fa578063095ea7b31461017757806318160ddd146101b7575b600080fd5b610102610399565b6040805160208082528351818301528351919283929083019185019080838360005b8381101561013c578181015183820152602001610124565b50505050905090810190601f1680156101695780820380516001836020036101000a031916815260200191505b509250505060405180910390f35b6101a36004803603604081101561018d57600080fd5b506001600160a01b03813516906020013561042f565b604080519115158252519081900360200190f35b6101bf61044c565b60408051918252519081900360200190f35b6101a3600480360360608110156101e757600080fd5b506001600160a01b03813581169160208101359091169060400135610452565b61020f6104df565b6040805160ff9092168252519081900360200190f35b6101a36004803603604081101561023b57600080fd5b506001600160a01b0381351690602001356104e8565b61027d6004803603604081101561026757600080fd5b506001600160a01b03813516906020013561053c565b005b61027d6004803603602081101561029557600080fd5b503561054a565b6101bf600480360360208110156102b257600080fd5b50356001600160a01b031661055e565b61027d600480360360408110156102d857600080fd5b506001600160a01b038135169060200135610579565b6101026105d9565b6101bf6004803603602081101561030c57600080fd5b503561063a565b6101a36004803603604081101561032957600080fd5b506001600160a01b03813516906020013561063d565b6101a36004803603604081101561035557600080fd5b506001600160a01b0381351690602001356106ab565b6101bf6004803603604081101561038157600080fd5b506001600160a01b03813581169160200135166106bf565b60038054604080516020601f60026000196101006001881615020190951694909404938401819004810282018101909252828152606093909290918301828280156104255780601f106103fa57610100808354040283529160200191610425565b820191906000526020600020905b81548152906001019060200180831161040857829003601f168201915b5050505050905090565b600061044361043c6106ea565b84846106ee565b50600192915050565b60025490565b600061045f8484846107da565b6104d58461046b6106ea565b6104d085604051806060016040528060288152602001610d0d602891396001600160a01b038a166000908152600160205260408120906104a96106ea565b6001600160a01b03168152602081019190915260400160002054919063ffffffff61094116565b6106ee565b5060019392505050565b60055460ff1690565b60006104436104f56106ea565b846104d085600160006105066106ea565b6001600160a01b03908116825260208083019390935260409182016000908120918c16815292529020549063ffffffff6109d816565b6105468282610a39565b5050565b61055b6105556106ea565b82610b35565b50565b6001600160a01b031660009081526020819052604090205490565b60006105b682604051806060016040528060248152602001610d35602491396105a9866105a46106ea565b6106bf565b919063ffffffff61094116565b90506105ca836105c46106ea565b836106ee565b6105d48383610b35565b505050565b60048054604080516020601f60026000196101006001881615020190951694909404938401819004810282018101909252828152606093909290918301828280156104255780601f106103fa57610100808354040283529160200191610425565b90565b600061044361064a6106ea565b846104d085604051806060016040528060258152602001610dc360259139600160006106746106ea565b6001600160a01b03908116825260208083019390935260409182016000908120918d1681529252902054919063ffffffff61094116565b60006104436106b86106ea565b84846107da565b6001600160a01b03918216600090815260016020908152604080832093909416825291909152205490565b3390565b6001600160a01b0383166107335760405162461bcd60e51b8152600401808060200182810382526024815260200180610d9f6024913960400191505060405180910390fd5b6001600160a01b0382166107785760405162461bcd60e51b8152600401808060200182810382526022815260200180610cc56022913960400191505060405180910390fd5b6001600160a01b03808416600081815260016020908152604080832094871680845294825291829020859055815185815291517f8c5be1e5ebec7d5bd14f71427d1e84f3dd0314c0f7b2291e5b200ac8c7c3b9259281900390910190a3505050565b6001600160a01b03831661081f5760405162461bcd60e51b8152600401808060200182810382526025815260200180610d7a6025913960400191505060405180910390fd5b6001600160a01b0382166108645760405162461bcd60e51b8152600401808060200182810382526023815260200180610c806023913960400191505060405180910390fd5b61086f8383836105d4565b6108b281604051806060016040528060268152602001610ce7602691396001600160a01b038616600090815260208190526040902054919063ffffffff61094116565b6001600160a01b0380851660009081526020819052604080822093909355908416815220546108e7908263ffffffff6109d816565b6001600160a01b038084166000818152602081815260409182902094909455805185815290519193928716927fddf252ad1be2c89b69c2b068fc378daa952ba7f163c4a11628f55a4df523b3ef92918290030190a3505050565b600081848411156109d05760405162461bcd60e51b81526004018080602001828103825283818151815260200191508051906020019080838360005b8381101561099557818101518382015260200161097d565b50505050905090810190601f1680156109c25780820380516001836020036101000a031916815260200191505b509250505060405180910390fd5b505050900390565b600082820183811015610a32576040805162461bcd60e51b815260206004820152601b60248201527f536166654d6174683a206164646974696f6e206f766572666c6f770000000000604482015290519081900360640190fd5b9392505050565b6001600160a01b038216610a94576040805162461bcd60e51b815260206004820152601f60248201527f45524332303a206d696e7420746f20746865207a65726f206164647265737300604482015290519081900360640190fd5b610aa0600083836105d4565b600254610ab3908263ffffffff6109d816565b6002556001600160a01b038216600090815260208190526040902054610adf908263ffffffff6109d816565b6001600160a01b0383166000818152602081815260408083209490945583518581529351929391927fddf252ad1be2c89b69c2b068fc378daa952ba7f163c4a11628f55a4df523b3ef9281900390910190a35050565b6001600160a01b038216610b7a5760405162461bcd60e51b8152600401808060200182810382526021815260200180610d596021913960400191505060405180910390fd5b610b86826000836105d4565b610bc981604051806060016040528060228152602001610ca3602291396001600160a01b038516600090815260208190526040902054919063ffffffff61094116565b6001600160a01b038316600090815260208190526040902055600254610bf5908263ffffffff610c3d16565b6002556040805182815290516000916001600160a01b038516917fddf252ad1be2c89b69c2b068fc378daa952ba7f163c4a11628f55a4df523b3ef9181900360200190a35050565b6000610a3283836040518060400160405280601e81526020017f536166654d6174683a207375627472616374696f6e206f766572666c6f77000081525061094156fe45524332303a207472616e7366657220746f20746865207a65726f206164647265737345524332303a206275726e20616d6f756e7420657863656564732062616c616e636545524332303a20617070726f766520746f20746865207a65726f206164647265737345524332303a207472616e7366657220616d6f756e7420657863656564732062616c616e636545524332303a207472616e7366657220616d6f756e74206578636565647320616c6c6f77616e636545524332303a206275726e20616d6f756e74206578636565647320616c6c6f77616e636545524332303a206275726e2066726f6d20746865207a65726f206164647265737345524332303a207472616e736665722066726f6d20746865207a65726f206164647265737345524332303a20617070726f76652066726f6d20746865207a65726f206164647265737345524332303a2064656372656173656420616c6c6f77616e63652062656c6f77207a65726fa2646970667358221220371c9b581f58a84bf40b7130887d44e539288e5aca48dcc113f6552cd547b6d264736f6c63430006080033",
  "immutableReferences": {},
  "source": "// SPDX-License-Identifier: MIT\npragma solidity ^0.6.0;\n\nimport { ShifterERC20Mock } from \"./ShifterERC20Mock.sol\";\n\ncontract ShifterMock {\n  address public token;\n  constructor() public {\n    token = address(new ShifterERC20Mock());\n  }\n  function mint(bytes32 /* pHash */, uint256 amount , bytes32 /* nHash */, bytes memory /* darknode signature */) public returns (uint256) {\n    ShifterERC20Mock(token).mint(msg.sender, amount);\n    return amount;\n  }\n  function mintFee() public pure returns (uint16) {\n    return 0;\n  }\n}\n    \n",
  "sourcePath": "/home/ray/0confirmation/packages/0confirmation-sol/contracts/mock/ShifterMock.sol",
  "compiler": {
    "name": "solc",
    "version": "0.6.8+commit.0bbfe453.Emscripten.clang"
  },
  "schemaVersion": "3.2.0",
  "updatedAt": "2020-06-18T23:39:13.877Z",
  "devdoc": {
    "methods": {}
  },
  "userdoc": {
    "methods": {}
  }
}