{
  "contractName": "ShifterPool",
  "abi": [
    {
      "anonymous": false,
      "inputs": [
        {
          "indexed": true,
          "internalType": "address",
          "name": "previousOwner",
          "type": "address"
        },
        {
          "indexed": true,
          "internalType": "address",
          "name": "newOwner",
          "type": "address"
        }
      ],
      "name": "OwnershipTransferred",
      "type": "event"
    },
    {
      "inputs": [
        {
          "internalType": "address",
          "name": "delegateTo",
          "type": "address"
        },
        {
          "internalType": "bytes",
          "name": "callData",
          "type": "bytes"
        }
      ],
      "name": "_executeQuery",
      "outputs": [
        {
          "internalType": "bytes",
          "name": "",
          "type": "bytes"
        }
      ],
      "stateMutability": "nonpayable",
      "type": "function"
    },
    {
      "inputs": [],
      "name": "owner",
      "outputs": [
        {
          "internalType": "address",
          "name": "",
          "type": "address"
        }
      ],
      "stateMutability": "view",
      "type": "function"
    },
    {
      "inputs": [
        {
          "internalType": "address",
          "name": "viewLogic",
          "type": "address"
        },
        {
          "internalType": "bytes",
          "name": "payload",
          "type": "bytes"
        }
      ],
      "name": "query",
      "outputs": [
        {
          "internalType": "bytes",
          "name": "",
          "type": "bytes"
        }
      ],
      "stateMutability": "view",
      "type": "function"
    },
    {
      "inputs": [],
      "name": "renounceOwnership",
      "outputs": [],
      "stateMutability": "nonpayable",
      "type": "function"
    },
    {
      "inputs": [
        {
          "internalType": "address",
          "name": "newOwner",
          "type": "address"
        }
      ],
      "name": "transferOwnership",
      "outputs": [],
      "stateMutability": "nonpayable",
      "type": "function"
    },
    {
      "inputs": [
        {
          "internalType": "address",
          "name": "shifterRegistry",
          "type": "address"
        },
        {
          "internalType": "uint256",
          "name": "poolFee",
          "type": "uint256"
        },
        {
          "components": [
            {
              "internalType": "enum BorrowProxyLib.ModuleRegistrationType",
              "name": "moduleType",
              "type": "uint8"
            },
            {
              "internalType": "address",
              "name": "target",
              "type": "address"
            },
            {
              "internalType": "bytes4[]",
              "name": "sigs",
              "type": "bytes4[]"
            },
            {
              "components": [
                {
                  "internalType": "address",
                  "name": "assetHandler",
                  "type": "address"
                },
                {
                  "internalType": "address",
                  "name": "liquidationModule",
                  "type": "address"
                }
              ],
              "internalType": "struct BorrowProxyLib.Module",
              "name": "module",
              "type": "tuple"
            }
          ],
          "internalType": "struct BorrowProxyLib.ModuleRegistration[]",
          "name": "modules",
          "type": "tuple[]"
        },
        {
          "components": [
            {
              "internalType": "address",
              "name": "token",
              "type": "address"
            },
            {
              "internalType": "address",
              "name": "liqToken",
              "type": "address"
            }
          ],
          "internalType": "struct ShifterPoolLib.LiquidityTokenLaunch[]",
          "name": "tokenLaunches",
          "type": "tuple[]"
        }
      ],
      "name": "setup",
      "outputs": [],
      "stateMutability": "nonpayable",
      "type": "function"
    },
    {
      "inputs": [
        {
          "components": [
            {
              "components": [
                {
                  "internalType": "address payable",
                  "name": "borrower",
                  "type": "address"
                },
                {
                  "internalType": "address",
                  "name": "token",
                  "type": "address"
                },
                {
                  "internalType": "bytes32",
                  "name": "nonce",
                  "type": "bytes32"
                },
                {
                  "internalType": "uint256",
                  "name": "amount",
                  "type": "uint256"
                }
              ],
              "internalType": "struct ShifterBorrowProxyLib.LiquidityRequest",
              "name": "request",
              "type": "tuple"
            },
            {
              "internalType": "uint256",
              "name": "gasRequested",
              "type": "uint256"
            },
            {
              "internalType": "bytes",
              "name": "signature",
              "type": "bytes"
            }
          ],
          "internalType": "struct ShifterBorrowProxyLib.LiquidityRequestParcel",
          "name": "liquidityRequestParcel",
          "type": "tuple"
        },
        {
          "internalType": "uint256",
          "name": "bond",
          "type": "uint256"
        },
        {
          "internalType": "uint256",
          "name": "timeoutExpiry",
          "type": "uint256"
        }
      ],
      "name": "executeBorrow",
      "outputs": [],
      "stateMutability": "payable",
      "type": "function"
    },
    {
      "inputs": [
        {
          "internalType": "bytes",
          "name": "proxyRecord",
          "type": "bytes"
        }
      ],
      "name": "validateProxyRecordHandler",
      "outputs": [
        {
          "internalType": "bool",
          "name": "",
          "type": "bool"
        }
      ],
      "stateMutability": "view",
      "type": "function"
    },
    {
      "inputs": [],
      "name": "getProxyOwnerHandler",
      "outputs": [
        {
          "internalType": "address",
          "name": "",
          "type": "address"
        }
      ],
      "stateMutability": "view",
      "type": "function"
    },
    {
      "inputs": [
        {
          "internalType": "address",
          "name": "token",
          "type": "address"
        }
      ],
      "name": "getShifterHandler",
      "outputs": [
        {
          "internalType": "contract IShifter",
          "name": "",
          "type": "address"
        }
      ],
      "stateMutability": "view",
      "type": "function"
    },
    {
      "inputs": [
        {
          "internalType": "address",
          "name": "token",
          "type": "address"
        }
      ],
      "name": "getLiquidityTokenHandler",
      "outputs": [
        {
          "internalType": "contract LiquidityToken",
          "name": "",
          "type": "address"
        }
      ],
      "stateMutability": "view",
      "type": "function"
    },
    {
      "inputs": [
        {
          "internalType": "address",
          "name": "token",
          "type": "address"
        },
        {
          "internalType": "address",
          "name": "liquidityToken",
          "type": "address"
        },
        {
          "internalType": "address",
          "name": "keeper",
          "type": "address"
        },
        {
          "internalType": "uint256",
          "name": "bond",
          "type": "uint256"
        },
        {
          "internalType": "uint256",
          "name": "repay",
          "type": "uint256"
        }
      ],
      "name": "relayResolveLoan",
      "outputs": [
        {
          "internalType": "bool",
          "name": "",
          "type": "bool"
        }
      ],
      "stateMutability": "nonpayable",
      "type": "function"
    }
  ],
  "bytecode": "0x6080604052600062000016620000ba60201b60201c565b9050806000806101000a81548173ffffffffffffffffffffffffffffffffffffffff021916908373ffffffffffffffffffffffffffffffffffffffff1602179055508073ffffffffffffffffffffffffffffffffffffffff16600073ffffffffffffffffffffffffffffffffffffffff167f8be0079c531659141344cd1fd0a4f28419497f9722a3daafe3b4186f6b6457e060405160405180910390a350620000c2565b600033905090565b6155e080620000d26000396000f3fe608060405260043610620000b65760003560e01c8063801874ec116200006d578063801874ec14620002155780638da5cb5b1462000259578063daf9b8241462000289578063f2fde38b14620002a9578063f5e043b014620002d7578063fd00430c146200030557620000b6565b806308f6049514620000bb5780631fbc78dc14620000ff57806323e3b7301462000143578063715018a61462000187578063798aada014620001a15780637b3b00be14620001e5575b600080fd5b348015620000c857600080fd5b50620000e76004803603620000e1919081019062002ea5565b62000349565b604051620000f6919062003cff565b60405180910390f35b3480156200010c57600080fd5b506200012b600480360362000125919081019062002cd3565b6200036d565b6040516200013a919062003d8d565b60405180910390f35b3480156200015057600080fd5b506200016f600480360362000169919081019062002d81565b6200038c565b6040516200017e919062003d69565b60405180910390f35b3480156200019457600080fd5b506200019f6200044f565b005b348015620001ae57600080fd5b50620001cd6004803603620001c7919081019062002cd3565b620005a9565b604051620001dc919062003daa565b60405180910390f35b348015620001f257600080fd5b50620001fd620005c8565b6040516200020c919062003c27565b60405180910390f35b3480156200022257600080fd5b506200024160048036036200023b919081019062002cff565b620005e8565b60405162000250919062003cff565b60405180910390f35b3480156200026657600080fd5b506200027162000812565b60405162000280919062003c27565b60405180910390f35b620002a76004803603620002a1919081019062002f16565b6200083b565b005b348015620002b657600080fd5b50620002d56004803603620002cf919081019062002cd3565b62000d09565b005b348015620002e457600080fd5b50620003036004803603620002fd919081019062002ddb565b62000db2565b005b3480156200031257600080fd5b506200033160048036036200032b919081019062002d81565b6200107e565b60405162000340919062003d69565b60405180910390f35b60006200036633836001600501620011999092919063ffffffff16565b9050919050565b600062000385826001620011ef90919063ffffffff16565b9050919050565b60603073ffffffffffffffffffffffffffffffffffffffff163373ffffffffffffffffffffffffffffffffffffffff1614620003c757600080fd5b600060608473ffffffffffffffffffffffffffffffffffffffff1684604051620003f2919062003be4565b600060405180830381855af49150503d80600081146200042f576040519150601f19603f3d011682016040523d82523d6000602084013e62000434565b606091505b5091509150816200044457600080fd5b809250505092915050565b62000459620012ac565b73ffffffffffffffffffffffffffffffffffffffff166000809054906101000a900473ffffffffffffffffffffffffffffffffffffffff1673ffffffffffffffffffffffffffffffffffffffff1614620004ea576040517f08c379a0000000000000000000000000000000000000000000000000000000008152600401620004e19062004071565b60405180910390fd5b600073ffffffffffffffffffffffffffffffffffffffff166000809054906101000a900473ffffffffffffffffffffffffffffffffffffffff1673ffffffffffffffffffffffffffffffffffffffff167f8be0079c531659141344cd1fd0a4f28419497f9722a3daafe3b4186f6b6457e060405160405180910390a360008060006101000a81548173ffffffffffffffffffffffffffffffffffffffff021916908373ffffffffffffffffffffffffffffffffffffffff160217905550565b6000620005c1826001620012b490919063ffffffff16565b9050919050565b6000620005e33360016005016200139890919063ffffffff16565b905090565b60008060001b600160050160000160003373ffffffffffffffffffffffffffffffffffffffff1673ffffffffffffffffffffffffffffffffffffffff16815260200190815260200160002054141562000678576040517f08c379a00000000000000000000000000000000000000000000000000000000081526004016200066f9062003fa5565b60405180910390fd5b60008314620006f157620006ae84848873ffffffffffffffffffffffffffffffffffffffff16620014049092919063ffffffff16565b620006f0576040517f08c379a0000000000000000000000000000000000000000000000000000000008152600401620006e7906200400b565b60405180910390fd5b5b600082146200076a576200072785838873ffffffffffffffffffffffffffffffffffffffff16620014049092919063ffffffff16565b62000769576040517f08c379a0000000000000000000000000000000000000000000000000000000008152600401620007609062003f1d565b60405180910390fd5b5b8473ffffffffffffffffffffffffffffffffffffffff1663c3275c79336040518263ffffffff1660e01b8152600401620007a5919062003c44565b602060405180830381600087803b158015620007c057600080fd5b505af1158015620007d5573d6000803e3d6000fd5b505050506040513d601f19601f82011682018060405250620007fb919081019062002e79565b6200080557600080fd5b6001905095945050505050565b60008060009054906101000a900473ffffffffffffffffffffffffffffffffffffffff16905090565b3483602001511462000884576040517f08c379a00000000000000000000000000000000000000000000000000000000081526004016200087b9062003efb565b60405180910390fd5b6000620008918462001512565b9050620008a881856200156890919063ffffffff16565b620008ea576040517f08c379a0000000000000000000000000000000000000000000000000000000008152600401620008e1906200404f565b60405180910390fd5b620008f462002509565b8460000151905060006200090882620015c2565b9050600062000917826200160a565b9050620009328160016005016200164b90919063ffffffff16565b1562000975576040517f08c379a00000000000000000000000000000000000000000000000000000000081526004016200096c9062003e0d565b60405180910390fd5b6200097f62002560565b33816000019073ffffffffffffffffffffffffffffffffffffffff16908173ffffffffffffffffffffffffffffffffffffffff1681525050620009d58460600151888860016200169d909392919063ffffffff16565b8160200181905250620009e762002598565b604051806040016040528086815260200183815250905060608160405160200162000a1391906200411b565b604051602081830303815290604052905062000a3e86602001516001620012b490919063ffffffff16565b73ffffffffffffffffffffffffffffffffffffffff1663185cc7518562000a658562001814565b6040518363ffffffff1660e01b815260040162000a8492919062003cd2565b602060405180830381600087803b15801562000a9f57600080fd5b505af115801562000ab4573d6000803e3d6000fd5b505050506040513d601f19601f8201168201806040525062000ada919081019062002e79565b62000b1c576040517f08c379a000000000000000000000000000000000000000000000000000000000815260040162000b139062003f61565b60405180910390fd5b62000b3784826001600501620018629092919063ffffffff16565b62000b568487600001516001600501620018b49092919063ffffffff16565b856000015173ffffffffffffffffffffffffffffffffffffffff166108fc349081150290604051600060405180830381858888f1935050505015801562000ba1573d6000803e3d6000fd5b5062000bd533308b896020015173ffffffffffffffffffffffffffffffffffffffff1662001939909392919063ffffffff16565b62000c17576040517f08c379a000000000000000000000000000000000000000000000000000000000815260040162000c0e9062004093565b60405180910390fd5b8373ffffffffffffffffffffffffffffffffffffffff1662000c398662001a4a565b73ffffffffffffffffffffffffffffffffffffffff161462000c92576040517f08c379a000000000000000000000000000000000000000000000000000000000815260040162000c899062003ed9565b60405180910390fd5b8373ffffffffffffffffffffffffffffffffffffffff16866000015173ffffffffffffffffffffffffffffffffffffffff167f9ae84ac2ad8f721c2e62d211eca0ae34951726f8834913af6c5ebb81610bb1f88360405162000cf5919062003d69565b60405180910390a350505050505050505050565b62000d13620012ac565b73ffffffffffffffffffffffffffffffffffffffff166000809054906101000a900473ffffffffffffffffffffffffffffffffffffffff1673ffffffffffffffffffffffffffffffffffffffff161462000da4576040517f08c379a000000000000000000000000000000000000000000000000000000000815260040162000d9b9062004071565b60405180910390fd5b62000daf8162001a8c565b50565b62000dbc620012ac565b73ffffffffffffffffffffffffffffffffffffffff166000809054906101000a900473ffffffffffffffffffffffffffffffffffffffff1673ffffffffffffffffffffffffffffffffffffffff161462000e4d576040517f08c379a000000000000000000000000000000000000000000000000000000000815260040162000e449062004071565b60405180910390fd5b600073ffffffffffffffffffffffffffffffffffffffff16600160000160009054906101000a900473ffffffffffffffffffffffffffffffffffffffff1673ffffffffffffffffffffffffffffffffffffffff161462000ee4576040517f08c379a000000000000000000000000000000000000000000000000000000000815260040162000edb9062003f83565b60405180910390fd5b83600160000160006101000a81548173ffffffffffffffffffffffffffffffffffffffff021916908373ffffffffffffffffffffffffffffffffffffffff16021790555082600180018190555060008090505b825181101562000fad5762000f4b620025c2565b83828151811062000f5857fe5b6020026020010151905060008090505b81604001515181101562000f9d5762000f8f82600160080162001bbd90919063ffffffff16565b808060010191505062000f68565b5050808060010191505062000f37565b5060008090505b8151811015620010775762000fc862002614565b82828151811062000fd557fe5b60200260200101519050806020015160016004016000836000015173ffffffffffffffffffffffffffffffffffffffff1673ffffffffffffffffffffffffffffffffffffffff16815260200190815260200160002060006101000a81548173ffffffffffffffffffffffffffffffffffffffff021916908373ffffffffffffffffffffffffffffffffffffffff16021790555050808060010191505062000fb4565b5050505050565b6060600060608473ffffffffffffffffffffffffffffffffffffffff168585604051602401620010b092919062003c9e565b6040516020818303038152906040527f23e3b730000000000000000000000000000000000000000000000000000000007bffffffffffffffffffffffffffffffffffffffffffffffffffffffff19166020820180517bffffffffffffffffffffffffffffffffffffffffffffffffffffffff83818316178352505050506040516200113c919062003be4565b600060405180830381855afa9150503d806000811462001179576040519150601f19603f3d011682016040523d82523d6000602084013e6200117e565b606091505b5091509150816200118e57600080fd5b809250505092915050565b600081805190602001208460000160008573ffffffffffffffffffffffffffffffffffffffff1673ffffffffffffffffffffffffffffffffffffffff168152602001908152602001600020541490509392505050565b60008260000160009054906101000a900473ffffffffffffffffffffffffffffffffffffffff1673ffffffffffffffffffffffffffffffffffffffff166328c4f410836040518263ffffffff1660e01b815260040162001250919062003c27565b60206040518083038186803b1580156200126957600080fd5b505afa1580156200127e573d6000803e3d6000fd5b505050506040513d601f19601f82011682018060405250620012a4919081019062002eea565b905092915050565b600033905090565b6000808360040160008473ffffffffffffffffffffffffffffffffffffffff1673ffffffffffffffffffffffffffffffffffffffff16815260200190815260200160002060009054906101000a900473ffffffffffffffffffffffffffffffffffffffff169050600073ffffffffffffffffffffffffffffffffffffffff168173ffffffffffffffffffffffffffffffffffffffff1614156200138e576040517f08c379a00000000000000000000000000000000000000000000000000000000081526004016200138590620040b5565b60405180910390fd5b8091505092915050565b60008260010160008373ffffffffffffffffffffffffffffffffffffffff1673ffffffffffffffffffffffffffffffffffffffff16815260200190815260200160002060009054906101000a900473ffffffffffffffffffffffffffffffffffffffff16905092915050565b6000808473ffffffffffffffffffffffffffffffffffffffff1684846040516024016200143392919062003cd2565b6040516020818303038152906040527fa9059cbb000000000000000000000000000000000000000000000000000000007bffffffffffffffffffffffffffffffffffffffffffffffffffffffff19166020820180517bffffffffffffffffffffffffffffffffffffffffffffffffffffffff8381831617835250505050604051620014bf919062003be4565b6000604051808303816000865af19150503d8060008114620014fe576040519150601f19603f3d011682016040523d82523d6000602084013e62001503565b606091505b50509050809150509392505050565b60003082600001516020015183600001516040015184600001516060015185602001516040516020016200154b95949392919062003ac5565b604051602081830303815290604052805190602001209050919050565b600062001584620015798362001cb6565b846040015162001ce8565b73ffffffffffffffffffffffffffffffffffffffff1683600001516000015173ffffffffffffffffffffffffffffffffffffffff1614905092915050565b60008160000151826020015183604001518460600151604051602001620015ed949392919062003a6f565b604051602081830303815290604052805190602001209050919050565b600062001644826040518060200162001623906200265a565b6020820181038252601f19601f820116604052508051906020012062001ee9565b9050919050565b60008060001b8360000160008473ffffffffffffffffffffffffffffffffffffffff1673ffffffffffffffffffffffffffffffffffffffff168152602001908152602001600020541415905092915050565b620016a762002668565b620186a04301821015620016f2576040517f08c379a0000000000000000000000000000000000000000000000000000000008152600401620016e99062003e51565b60405180910390fd5b6000620017126064670de0b6b3a764000062001f0090919063ffffffff16565b9050620017326064670de0b6b3a764000062001f0090919063ffffffff16565b620017638662001754670de0b6b3a76400008862001f4c90919063ffffffff16565b62001f0090919063ffffffff16565b11620017a6576040517f08c379a00000000000000000000000000000000000000000000000000000000081526004016200179d90620040d7565b60405180910390fd5b6000848610620017df57620017d986620017ca878562001f4c90919063ffffffff16565b62001f0090919063ffffffff16565b620017e1565b815b90506040518060800160405280858152602001868152602001886001015481526020018281525092505050949350505050565b60006200185b62001843620018298462001fc2565b620018348562002010565b6200205e90919063ffffffff16565b836000015160600151620020b690919063ffffffff16565b9050919050565b80805190602001208360000160008473ffffffffffffffffffffffffffffffffffffffff1673ffffffffffffffffffffffffffffffffffffffff16815260200190815260200160002081905550505050565b808360010160008473ffffffffffffffffffffffffffffffffffffffff1673ffffffffffffffffffffffffffffffffffffffff16815260200190815260200160002060006101000a81548173ffffffffffffffffffffffffffffffffffffffff021916908373ffffffffffffffffffffffffffffffffffffffff160217905550505050565b6000808573ffffffffffffffffffffffffffffffffffffffff168585856040516024016200196a9392919062003c61565b6040516020818303038152906040527f23b872dd000000000000000000000000000000000000000000000000000000007bffffffffffffffffffffffffffffffffffffffffffffffffffffffff19166020820180517bffffffffffffffffffffffffffffffffffffffffffffffffffffffff8381831617835250505050604051620019f6919062003be4565b6000604051808303816000865af19150503d806000811462001a35576040519150601f19603f3d011682016040523d82523d6000602084013e62001a3a565b606091505b5050905080915050949350505050565b600060606040518060200162001a60906200265a565b6020820181038252601f19601f82011660405250905062001a846000848362002102565b915050919050565b600073ffffffffffffffffffffffffffffffffffffffff168173ffffffffffffffffffffffffffffffffffffffff16141562001aff576040517f08c379a000000000000000000000000000000000000000000000000000000000815260040162001af69062003e95565b60405180910390fd5b8073ffffffffffffffffffffffffffffffffffffffff166000809054906101000a900473ffffffffffffffffffffffffffffffffffffffff1673ffffffffffffffffffffffffffffffffffffffff167f8be0079c531659141344cd1fd0a4f28419497f9722a3daafe3b4186f6b6457e060405160405180910390a3806000806101000a81548173ffffffffffffffffffffffffffffffffffffffff021916908373ffffffffffffffffffffffffffffffffffffffff16021790555050565b6001600281111562001bcb57fe5b8160000151600281111562001bdc57fe5b141562001c3a5760008090505b81604001515181101562001c335762001c258383602001518460400151848151811062001c1257fe5b602002602001015185606001516200221c565b808060010191505062001be9565b5062001cb2565b60028081111562001c4757fe5b8160000151600281111562001c5857fe5b141562001cb15760008090505b81604001515181101562001caf5762001ca18383602001518460400151848151811062001c8e57fe5b60200260200101518560600151620022d4565b808060010191505062001c65565b505b5b5050565b60008160405160200162001ccb919062003bfd565b604051602081830303815290604052805190602001209050919050565b6000604182511462001d31576040517f08c379a000000000000000000000000000000000000000000000000000000000815260040162001d289062003e73565b60405180910390fd5b60008060006020850151925060408501519150606085015160001a90507f7fffffffffffffffffffffffffffffff5d576e7357a4501ddfe92f46681b20a08260001c111562001db7576040517f08c379a000000000000000000000000000000000000000000000000000000000815260040162001dae9062003f3f565b60405180910390fd5b601b8160ff161415801562001dd05750601c8160ff1614155b1562001e13576040517f08c379a000000000000000000000000000000000000000000000000000000000815260040162001e0a9062003fc7565b60405180910390fd5b60006001878386866040516000815260200160405260405162001e3a949392919062003d1c565b6020604051602081039080840390855afa15801562001e5d573d6000803e3d6000fd5b505050602060405103519050600073ffffffffffffffffffffffffffffffffffffffff168173ffffffffffffffffffffffffffffffffffffffff16141562001edc576040517f08c379a000000000000000000000000000000000000000000000000000000000815260040162001ed39062003deb565b60405180910390fd5b8094505050505092915050565b600062001ef88383306200238c565b905092915050565b600062001f4483836040518060400160405280601a81526020017f536166654d6174683a206469766973696f6e206279207a65726f000000000000815250620023d6565b905092915050565b60008083141562001f61576000905062001fbc565b600082840290508284828162001f7357fe5b041462001fb7576040517f08c379a000000000000000000000000000000000000000000000000000000000815260040162001fae906200402d565b60405180910390fd5b809150505b92915050565b600062002009670de0b6b3a764000062001ffa8460200151602001516060015185600001516060015162001f4c90919063ffffffff16565b62001f0090919063ffffffff16565b9050919050565b600062002057670de0b6b3a7640000620020488460200151602001516040015185600001516060015162001f4c90919063ffffffff16565b62001f0090919063ffffffff16565b9050919050565b600080828401905083811015620020ac576040517f08c379a0000000000000000000000000000000000000000000000000000000008152600401620020a39062003eb7565b60405180910390fd5b8091505092915050565b6000620020fa83836040518060400160405280601e81526020017f536166654d6174683a207375627472616374696f6e206f766572666c6f7700008152506200243b565b905092915050565b600080844710156200214b576040517f08c379a00000000000000000000000000000000000000000000000000000000081526004016200214290620040f9565b60405180910390fd5b60008351141562002193576040517f08c379a00000000000000000000000000000000000000000000000000000000081526004016200218a9062003e2f565b60405180910390fd5b8383516020850187f59050600073ffffffffffffffffffffffffffffffffffffffff168173ffffffffffffffffffffffffffffffffffffffff16141562002211576040517f08c379a0000000000000000000000000000000000000000000000000000000008152600401620022089062003fe9565b60405180910390fd5b809150509392505050565b808460000160006200222f868662002499565b815260200190815260200160002060008201518160000160006101000a81548173ffffffffffffffffffffffffffffffffffffffff021916908373ffffffffffffffffffffffffffffffffffffffff16021790555060208201518160010160006101000a81548173ffffffffffffffffffffffffffffffffffffffff021916908373ffffffffffffffffffffffffffffffffffffffff16021790555090505050505050565b80846000016000620022e78686620024d4565b815260200190815260200160002060008201518160000160006101000a81548173ffffffffffffffffffffffffffffffffffffffff021916908373ffffffffffffffffffffffffffffffffffffffff16021790555060208201518160010160006101000a81548173ffffffffffffffffffffffffffffffffffffffff021916908373ffffffffffffffffffffffffffffffffffffffff16021790555090505050505050565b60008060ff60f81b838686604051602001620023ac949392919062003b5e565b604051602081830303815290604052805190602001209050606081901b60601c9150509392505050565b6000808311829062002420576040517f08c379a000000000000000000000000000000000000000000000000000000000815260040162002417919062003dc7565b60405180910390fd5b5060008385816200242d57fe5b049050809150509392505050565b600083831115829062002486576040517f08c379a00000000000000000000000000000000000000000000000000000000081526004016200247d919062003dc7565b60405180910390fd5b5060008385039050809150509392505050565b600080833f90508083604051602001620024b592919062003bb4565b6040516020818303038152906040528051906020012091505092915050565b60008282604051602001620024eb92919062003b2e565b60405160208183030381529060405280519060200120905092915050565b6040518060800160405280600073ffffffffffffffffffffffffffffffffffffffff168152602001600073ffffffffffffffffffffffffffffffffffffffff16815260200160008019168152602001600081525090565b6040518060400160405280600073ffffffffffffffffffffffffffffffffffffffff1681526020016200259262002690565b81525090565b6040518060400160405280620025ad620026b8565b8152602001620025bc6200270f565b81525090565b604051806080016040528060006002811115620025db57fe5b8152602001600073ffffffffffffffffffffffffffffffffffffffff168152602001606081526020016200260e62002747565b81525090565b6040518060400160405280600073ffffffffffffffffffffffffffffffffffffffff168152602001600073ffffffffffffffffffffffffffffffffffffffff1681525090565b611025806200458683390190565b6040518060800160405280600081526020016000815260200160008152602001600081525090565b6040518060800160405280600081526020016000815260200160008152602001600081525090565b6040518060800160405280600073ffffffffffffffffffffffffffffffffffffffff168152602001600073ffffffffffffffffffffffffffffffffffffffff16815260200160008019168152602001600081525090565b6040518060400160405280600073ffffffffffffffffffffffffffffffffffffffff1681526020016200274162002690565b81525090565b6040518060400160405280600073ffffffffffffffffffffffffffffffffffffffff168152602001600073ffffffffffffffffffffffffffffffffffffffff1681525090565b6000813590506200279e81620044be565b92915050565b600081359050620027b581620044d8565b92915050565b600082601f830112620027cd57600080fd5b8135620027e4620027de8262004167565b62004139565b915081818352602084019350602081019050838560208402820111156200280a57600080fd5b60005b838110156200283e578162002823888262002980565b8452602084019350602083019250506001810190506200280d565b5050505092915050565b600082601f8301126200285a57600080fd5b8135620028716200286b8262004190565b62004139565b915081818352602084019350602081019050838560408402820111156200289757600080fd5b60005b83811015620028cb5781620028b0888262002b7e565b8452602084019350604083019250506001810190506200289a565b5050505092915050565b600082601f830112620028e757600080fd5b8135620028fe620028f882620041b9565b62004139565b9150818183526020840193506020810190508360005b838110156200294857813586016200292d888262002bd1565b84526020840193506020830192505060018101905062002914565b5050505092915050565b6000815190506200296381620044f2565b92915050565b6000813590506200297a816200450c565b92915050565b600081359050620029918162004526565b92915050565b600082601f830112620029a957600080fd5b8135620029c0620029ba82620041e2565b62004139565b91508082526020830160208301858383011115620029dd57600080fd5b620029ea838284620043f7565b50505092915050565b600082601f83011262002a0557600080fd5b813562002a1c62002a16826200420f565b62004139565b9150808252602083016020830185838301111562002a3957600080fd5b62002a46838284620043f7565b50505092915050565b60008151905062002a608162004540565b92915050565b60008135905062002a77816200455a565b92915050565b600060c0828403121562002a9057600080fd5b62002a9c606062004139565b9050600062002aae8482850162002aff565b600083015250608062002ac48482850162002cbc565b60208301525060a082013567ffffffffffffffff81111562002ae557600080fd5b62002af38482850162002997565b60408301525092915050565b60006080828403121562002b1257600080fd5b62002b1e608062004139565b9050600062002b3084828501620027a4565b600083015250602062002b46848285016200278d565b602083015250604062002b5c8482850162002969565b604083015250606062002b728482850162002cbc565b60608301525092915050565b60006040828403121562002b9157600080fd5b62002b9d604062004139565b9050600062002baf848285016200278d565b600083015250602062002bc5848285016200278d565b60208301525092915050565b600060a0828403121562002be457600080fd5b62002bf0608062004139565b9050600062002c028482850162002a66565b600083015250602062002c18848285016200278d565b602083015250604082013567ffffffffffffffff81111562002c3957600080fd5b62002c4784828501620027bb565b604083015250606062002c5d8482850162002c69565b60608301525092915050565b60006040828403121562002c7c57600080fd5b62002c88604062004139565b9050600062002c9a848285016200278d565b600083015250602062002cb0848285016200278d565b60208301525092915050565b60008135905062002ccd816200456b565b92915050565b60006020828403121562002ce657600080fd5b600062002cf6848285016200278d565b91505092915050565b600080600080600060a0868803121562002d1857600080fd5b600062002d28888289016200278d565b955050602062002d3b888289016200278d565b945050604062002d4e888289016200278d565b935050606062002d618882890162002cbc565b925050608062002d748882890162002cbc565b9150509295509295909350565b6000806040838503121562002d9557600080fd5b600062002da5858286016200278d565b925050602083013567ffffffffffffffff81111562002dc357600080fd5b62002dd185828601620029f3565b9150509250929050565b6000806000806080858703121562002df257600080fd5b600062002e02878288016200278d565b945050602062002e158782880162002cbc565b935050604085013567ffffffffffffffff81111562002e3357600080fd5b62002e4187828801620028d5565b925050606085013567ffffffffffffffff81111562002e5f57600080fd5b62002e6d8782880162002848565b91505092959194509250565b60006020828403121562002e8c57600080fd5b600062002e9c8482850162002952565b91505092915050565b60006020828403121562002eb857600080fd5b600082013567ffffffffffffffff81111562002ed357600080fd5b62002ee184828501620029f3565b91505092915050565b60006020828403121562002efd57600080fd5b600062002f0d8482850162002a4f565b91505092915050565b60008060006060848603121562002f2c57600080fd5b600084013567ffffffffffffffff81111562002f4757600080fd5b62002f558682870162002a7d565b935050602062002f688682870162002cbc565b925050604062002f7b8682870162002cbc565b9150509250925092565b62002f90816200436b565b82525050565b62002fa1816200429e565b82525050565b62002fbc62002fb6826200429e565b62004450565b82525050565b62002fcd816200428a565b82525050565b62002fde816200428a565b82525050565b62002ff962002ff3826200428a565b6200443c565b82525050565b6200300a81620042b2565b82525050565b620030256200301f82620042be565b62004464565b82525050565b6200303681620042ea565b82525050565b6200304781620042ea565b82525050565b620030626200305c82620042ea565b6200446e565b82525050565b6200307d6200307782620042f4565b62004478565b82525050565b600062003090826200423c565b6200309c818562004252565b9350620030ae81856020860162004406565b620030b981620044a0565b840191505092915050565b6000620030d1826200423c565b620030dd818562004263565b9350620030ef81856020860162004406565b80840191505092915050565b62003106816200437f565b82525050565b6200311781620043a7565b82525050565b60006200312a8262004247565b6200313681856200426e565b93506200314881856020860162004406565b6200315381620044a0565b840191505092915050565b60006200316d6018836200426e565b91507f45434453413a20696e76616c6964207369676e617475726500000000000000006000830152602082019050919050565b6000620031af6022836200426e565b91507f70726f78792068617320616c7265616479206265656e20696e697469616c697a60008301527f65640000000000000000000000000000000000000000000000000000000000006020830152604082019050919050565b6000620032176020836200426e565b91507f437265617465323a2062797465636f6465206c656e677468206973207a65726f6000830152602082019050919050565b6000620032596014836200426e565b91507f74696d656f757420696e73756666696369656e740000000000000000000000006000830152602082019050919050565b60006200329b601f836200426e565b91507f45434453413a20696e76616c6964207369676e6174757265206c656e677468006000830152602082019050919050565b6000620032dd601c836200427f565b91507f19457468657265756d205369676e6564204d6573736167653a0a3332000000006000830152601c82019050919050565b60006200331f6026836200426e565b91507f4f776e61626c653a206e6577206f776e657220697320746865207a65726f206160008301527f64647265737300000000000000000000000000000000000000000000000000006020830152604082019050919050565b600062003387601b836200426e565b91507f536166654d6174683a206164646974696f6e206f766572666c6f7700000000006000830152602082019050919050565b6000620033c96017836200426e565b91507f70726f7879206465706c6f796d656e74206661696c65640000000000000000006000830152602082019050919050565b60006200340b602c836200426e565b91507f737570706c696564206574686572206973206e6f7420657175616c20746f206760008301527f61732072657175657374656400000000000000000000000000000000000000006020830152604082019050919050565b600062003473601a836200426e565b91507f6661696c656420746f207265706179206c6f73742066756e64730000000000006000830152602082019050919050565b6000620034b56022836200426e565b91507f45434453413a20696e76616c6964207369676e6174757265202773272076616c60008301527f75650000000000000000000000000000000000000000000000000000000000006020830152604082019050919050565b60006200351d6024836200426e565b91507f696e73756666696369656e742066756e647320696e206c69717569646974792060008301527f706f6f6c000000000000000000000000000000000000000000000000000000006020830152604082019050919050565b6000620035856013836200426e565b91507f616c726561647920696e697469616c697a6564000000000000000000000000006000830152602082019050919050565b6000620035c7601d836200426e565b91507f6e6f742061207265676973746572656420626f72726f772070726f78790000006000830152602082019050919050565b6000620036096022836200426e565b91507f45434453413a20696e76616c6964207369676e6174757265202776272076616c60008301527f75650000000000000000000000000000000000000000000000000000000000006020830152604082019050919050565b6000620036716019836200426e565b91507f437265617465323a204661696c6564206f6e206465706c6f79000000000000006000830152602082019050919050565b6000620036b3601f836200426e565b91507f6661696c656420746f2072657475726e20626f6e6420746f206b6565706572006000830152602082019050919050565b6000620036f56021836200426e565b91507f536166654d6174683a206d756c7469706c69636174696f6e206f766572666c6f60008301527f77000000000000000000000000000000000000000000000000000000000000006020830152604082019050919050565b60006200375d6024836200426e565b91507f6c69717569646974792072657175657374207369676e61747572652072656a6560008301527f63746564000000000000000000000000000000000000000000000000000000006020830152604082019050919050565b6000620037c56020836200426e565b91507f4f776e61626c653a2063616c6c6572206973206e6f7420746865206f776e65726000830152602082019050919050565b6000620038076016836200426e565b91507f626f6e64207375626d697373696f6e206661696c6564000000000000000000006000830152602082019050919050565b6000620038496020836200426e565b91507f6e6f7420612072656769737465726564206c697175696469747920746f6b656e6000830152602082019050919050565b60006200388b6012836200426e565b91507f626f6e642062656c6f77206d696e696d756d00000000000000000000000000006000830152602082019050919050565b6000620038cd601d836200426e565b91507f437265617465323a20696e73756666696369656e742062616c616e63650000006000830152602082019050919050565b60808201600082015162003918600085018262003a21565b5060208201516200392d602085018262003a21565b50604082015162003942604085018262003a21565b50606082015162003957606085018262003a21565b50505050565b60a08201600082015162003975600085018262002fc2565b5060208201516200398a602085018262003900565b50505050565b608082016000820151620039a8600085018262002f96565b506020820151620039bd602085018262002fc2565b506040820151620039d260408501826200302b565b506060820151620039e7606085018262003a21565b50505050565b6101208201600082015162003a06600085018262003990565b50602082015162003a1b60808501826200395d565b50505050565b62003a2c8162004354565b82525050565b62003a3d8162004354565b82525050565b62003a5862003a528262004354565b62004496565b82525050565b62003a69816200435e565b82525050565b600062003a7d828762002fa7565b60148201915062003a8f828662002fe4565b60148201915062003aa182856200304d565b60208201915062003ab3828462003a43565b60208201915081905095945050505050565b600062003ad3828862002fe4565b60148201915062003ae5828762002fe4565b60148201915062003af782866200304d565b60208201915062003b09828562003a43565b60208201915062003b1b828462003a43565b6020820191508190509695505050505050565b600062003b3c828562002fe4565b60148201915062003b4e828462003068565b6004820191508190509392505050565b600062003b6c828762003010565b60018201915062003b7e828662002fe4565b60148201915062003b9082856200304d565b60208201915062003ba282846200304d565b60208201915081905095945050505050565b600062003bc282856200304d565b60208201915062003bd4828462003068565b6004820191508190509392505050565b600062003bf28284620030c4565b915081905092915050565b600062003c0a82620032ce565b915062003c1882846200304d565b60208201915081905092915050565b600060208201905062003c3e600083018462002fd3565b92915050565b600060208201905062003c5b600083018462002f85565b92915050565b600060608201905062003c78600083018662002fd3565b62003c87602083018562002fd3565b62003c96604083018462003a32565b949350505050565b600060408201905062003cb5600083018562002fd3565b818103602083015262003cc9818462003083565b90509392505050565b600060408201905062003ce9600083018562002fd3565b62003cf8602083018462003a32565b9392505050565b600060208201905062003d16600083018462002fff565b92915050565b600060808201905062003d3360008301876200303c565b62003d42602083018662003a5e565b62003d5160408301856200303c565b62003d6060608301846200303c565b95945050505050565b6000602082019050818103600083015262003d85818462003083565b905092915050565b600060208201905062003da46000830184620030fb565b92915050565b600060208201905062003dc160008301846200310c565b92915050565b6000602082019050818103600083015262003de381846200311d565b905092915050565b6000602082019050818103600083015262003e06816200315e565b9050919050565b6000602082019050818103600083015262003e2881620031a0565b9050919050565b6000602082019050818103600083015262003e4a8162003208565b9050919050565b6000602082019050818103600083015262003e6c816200324a565b9050919050565b6000602082019050818103600083015262003e8e816200328c565b9050919050565b6000602082019050818103600083015262003eb08162003310565b9050919050565b6000602082019050818103600083015262003ed28162003378565b9050919050565b6000602082019050818103600083015262003ef481620033ba565b9050919050565b6000602082019050818103600083015262003f1681620033fc565b9050919050565b6000602082019050818103600083015262003f388162003464565b9050919050565b6000602082019050818103600083015262003f5a81620034a6565b9050919050565b6000602082019050818103600083015262003f7c816200350e565b9050919050565b6000602082019050818103600083015262003f9e8162003576565b9050919050565b6000602082019050818103600083015262003fc081620035b8565b9050919050565b6000602082019050818103600083015262003fe281620035fa565b9050919050565b60006020820190508181036000830152620040048162003662565b9050919050565b600060208201905081810360008301526200402681620036a4565b9050919050565b600060208201905081810360008301526200404881620036e6565b9050919050565b600060208201905081810360008301526200406a816200374e565b9050919050565b600060208201905081810360008301526200408c81620037b6565b9050919050565b60006020820190508181036000830152620040ae81620037f8565b9050919050565b60006020820190508181036000830152620040d0816200383a565b9050919050565b60006020820190508181036000830152620040f2816200387c565b9050919050565b600060208201905081810360008301526200411481620038be565b9050919050565b600061012082019050620041336000830184620039ed565b92915050565b6000604051905081810181811067ffffffffffffffff821117156200415d57600080fd5b8060405250919050565b600067ffffffffffffffff8211156200417f57600080fd5b602082029050602081019050919050565b600067ffffffffffffffff821115620041a857600080fd5b602082029050602081019050919050565b600067ffffffffffffffff821115620041d157600080fd5b602082029050602081019050919050565b600067ffffffffffffffff821115620041fa57600080fd5b601f19601f8301169050602081019050919050565b600067ffffffffffffffff8211156200422757600080fd5b601f19601f8301169050602081019050919050565b600081519050919050565b600081519050919050565b600082825260208201905092915050565b600081905092915050565b600082825260208201905092915050565b600081905092915050565b6000620042978262004334565b9050919050565b6000620042ab8262004334565b9050919050565b60008115159050919050565b60007fff0000000000000000000000000000000000000000000000000000000000000082169050919050565b6000819050919050565b60007fffffffff0000000000000000000000000000000000000000000000000000000082169050919050565b60006200432d826200428a565b9050919050565b600073ffffffffffffffffffffffffffffffffffffffff82169050919050565b6000819050919050565b600060ff82169050919050565b60006200437882620043cf565b9050919050565b60006200438c8262004393565b9050919050565b6000620043a08262004334565b9050919050565b6000620043b482620043bb565b9050919050565b6000620043c88262004334565b9050919050565b6000620043dc82620043e3565b9050919050565b6000620043f08262004334565b9050919050565b82818337600083830152505050565b60005b838110156200442657808201518184015260208101905062004409565b8381111562004436576000848401525b50505050565b6000620044498262004482565b9050919050565b60006200445d8262004482565b9050919050565b6000819050919050565b6000819050919050565b6000819050919050565b60006200448f82620044b1565b9050919050565b6000819050919050565b6000601f19601f8301169050919050565b60008160601b9050919050565b620044c9816200428a565b8114620044d557600080fd5b50565b620044e3816200429e565b8114620044ef57600080fd5b50565b620044fd81620042b2565b81146200450957600080fd5b50565b6200451781620042ea565b81146200452357600080fd5b50565b6200453181620042f4565b81146200453d57600080fd5b50565b6200454b8162004320565b81146200455757600080fd5b50565b600381106200456857600080fd5b50565b620045768162004354565b81146200458257600080fd5b5056fe608060405234801561001057600080fd5b50336000800160006101000a81548173ffffffffffffffffffffffffffffffffffffffff021916908373ffffffffffffffffffffffffffffffffffffffff1602179055506000800160009054906101000a900473ffffffffffffffffffffffffffffffffffffffff1673ffffffffffffffffffffffffffffffffffffffff16637b3b00be6040518163ffffffff1660e01b8152600401602060405180830381600087803b1580156100c057600080fd5b505af11580156100d4573d6000803e3d6000fd5b505050506040513d601f19601f820116820180604052506100f89190810190610155565b600060010160006101000a81548173ffffffffffffffffffffffffffffffffffffffff021916908373ffffffffffffffffffffffffffffffffffffffff1602179055506101c7565b60008151905061014f816101b0565b92915050565b60006020828403121561016757600080fd5b600061017584828501610140565b91505092915050565b600061018982610190565b9050919050565b600073ffffffffffffffffffffffffffffffffffffffff82169050919050565b6101b98161017e565b81146101c457600080fd5b50565b610e4f806101d66000396000f3fe608060405234801561001057600080fd5b50600436106100415760003560e01c806323e3b730146100465780632692f25a14610076578063fd00430c14610092575b600080fd5b610060600480360361005b9190810190610899565b6100c2565b60405161006d9190610bc7565b60405180910390f35b610090600480360361008b91908101906108ed565b61017f565b005b6100ac60048036036100a79190810190610899565b610414565b6040516100b99190610bc7565b60405180910390f35b60603073ffffffffffffffffffffffffffffffffffffffff163373ffffffffffffffffffffffffffffffffffffffff16146100fc57600080fd5b600060608473ffffffffffffffffffffffffffffffffffffffff16846040516101259190610b18565b600060405180830381855af49150503d8060008114610160576040519150601f19603f3d011682016040523d82523d6000602084013e610165565b606091505b50915091508161017457600080fd5b809250505092915050565b600060010160009054906101000a900473ffffffffffffffffffffffffffffffffffffffff1673ffffffffffffffffffffffffffffffffffffffff163373ffffffffffffffffffffffffffffffffffffffff1614610212576040517f08c379a000000000000000000000000000000000000000000000000000000000815260040161020990610c2b565b60405180910390fd5b6000800160149054906101000a900460ff16156102e657600060608473ffffffffffffffffffffffffffffffffffffffff1684846040516102539190610b18565b60006040518083038185875af1925050503d8060008114610290576040519150601f19603f3d011682016040523d82523d6000602084013e610295565b606091505b50915091508181906102dd576040517f08c379a00000000000000000000000000000000000000000000000000000000081526004016102d49190610be9565b60405180910390fd5b50805160208201f35b600061030761030260006004856105289092919063ffffffff16565b610560565b60001c60e01b90506103176106d1565b600073__BorrowProxyLib________________________632f1a48af909187856040518463ffffffff1660e01b815260040161035593929190610c4b565b60606040518083038186803b15801561036d57600080fd5b505af4158015610381573d6000803e3d6000fd5b505050506040513d601f19601f820116820180604052506103a59190810190610954565b90506103b4816020015161058f565b6103f3576040517f08c379a00000000000000000000000000000000000000000000000000000000081526004016103ea90610c0b565b60405180910390fd5b606061040a8486846105cc9092919063ffffffff16565b9050805160208201f35b6060600060608473ffffffffffffffffffffffffffffffffffffffff168585604051602401610444929190610b97565b6040516020818303038152906040527f23e3b730000000000000000000000000000000000000000000000000000000007bffffffffffffffffffffffffffffffffffffffffffffffffffffffff19166020820180517bffffffffffffffffffffffffffffffffffffffffffffffffffffffff83818316178352505050506040516104ce9190610b18565b600060405180830381855afa9150503d8060008114610509576040519150601f19603f3d011682016040523d82523d6000602084013e61050e565b606091505b50915091508161051d57600080fd5b809250505092915050565b610530610707565b60006020850184019050808260000181815250508282602001818152505083826040018181525050509392505050565b60008082600001519050600083602001519050600180600883021b038082602003840351169350505050919050565b60008073ffffffffffffffffffffffffffffffffffffffff16826000015173ffffffffffffffffffffffffffffffffffffffff1614159050919050565b60606000606085602001516000015173ffffffffffffffffffffffffffffffffffffffff16866020015160000151876020015160200151328960000151888a60405160200161062096959493929190610b2f565b60405160208183030381529060405260405161063c9190610b18565b600060405180830381855af49150503d8060008114610677576040519150601f19603f3d011682016040523d82523d6000602084013e61067c565b606091505b50915091508181906106c4576040517f08c379a00000000000000000000000000000000000000000000000000000000081526004016106bb9190610be9565b60405180910390fd5b5080925050509392505050565b6040518060400160405280600073ffffffffffffffffffffffffffffffffffffffff168152602001610701610728565b81525090565b60405180606001604052806000815260200160008152602001600081525090565b6040518060400160405280600073ffffffffffffffffffffffffffffffffffffffff168152602001600073ffffffffffffffffffffffffffffffffffffffff1681525090565b60008135905061077d81610deb565b92915050565b60008151905061079281610deb565b92915050565b600082601f8301126107a957600080fd5b81356107bc6107b782610caf565b610c82565b915080825260208301602083018583830111156107d857600080fd5b6107e3838284610d98565b50505092915050565b6000606082840312156107fe57600080fd5b6108086040610c82565b9050600061081884828501610783565b600083015250602061082c84828501610838565b60208301525092915050565b60006040828403121561084a57600080fd5b6108546040610c82565b9050600061086484828501610783565b600083015250602061087884828501610783565b60208301525092915050565b60008135905061089381610e02565b92915050565b600080604083850312156108ac57600080fd5b60006108ba8582860161076e565b925050602083013567ffffffffffffffff8111156108d757600080fd5b6108e385828601610798565b9150509250929050565b60008060006060848603121561090257600080fd5b60006109108682870161076e565b935050602061092186828701610884565b925050604084013567ffffffffffffffff81111561093e57600080fd5b61094a86828701610798565b9150509250925092565b60006060828403121561096657600080fd5b6000610974848285016107ec565b91505092915050565b61098681610d30565b82525050565b61099581610d1e565b82525050565b6109a481610d1e565b82525050565b6109b381610d42565b82525050565b60006109c482610cdb565b6109ce8185610cf1565b93506109de818560208601610da7565b6109e781610dda565b840191505092915050565b60006109fd82610cdb565b610a078185610d02565b9350610a17818560208601610da7565b80840191505092915050565b6000610a2e82610ce6565b610a388185610d0d565b9350610a48818560208601610da7565b610a5181610dda565b840191505092915050565b6000610a69601f83610d0d565b91507f66756e6374696f6e2068616e646c6572206e6f742072656769737465726564006000830152602082019050919050565b6000610aa9602983610d0d565b91507f626f72726f772070726f78792063616e206f6e6c79206265207573656420627960008301527f20626f72726f77657200000000000000000000000000000000000000000000006020830152604082019050919050565b8082525050565b610b1281610d8e565b82525050565b6000610b2482846109f2565b915081905092915050565b600060c082019050610b44600083018961098c565b610b51602083018861098c565b610b5e604083018761097d565b610b6b606083018661098c565b610b786080830185610b09565b81810360a0830152610b8a81846109b9565b9050979650505050505050565b6000604082019050610bac600083018561098c565b8181036020830152610bbe81846109b9565b90509392505050565b60006020820190508181036000830152610be181846109b9565b905092915050565b60006020820190508181036000830152610c038184610a23565b905092915050565b60006020820190508181036000830152610c2481610a5c565b9050919050565b60006020820190508181036000830152610c4481610a9c565b9050919050565b6000606082019050610c606000830186610b02565b610c6d602083018561099b565b610c7a60408301846109aa565b949350505050565b6000604051905081810181811067ffffffffffffffff82111715610ca557600080fd5b8060405250919050565b600067ffffffffffffffff821115610cc657600080fd5b601f19601f8301169050602081019050919050565b600081519050919050565b600081519050919050565b600082825260208201905092915050565b600081905092915050565b600082825260208201905092915050565b6000610d2982610d6e565b9050919050565b6000610d3b82610d6e565b9050919050565b60007fffffffff0000000000000000000000000000000000000000000000000000000082169050919050565b600073ffffffffffffffffffffffffffffffffffffffff82169050919050565b6000819050919050565b82818337600083830152505050565b60005b83811015610dc5578082015181840152602081019050610daa565b83811115610dd4576000848401525b50505050565b6000601f19601f8301169050919050565b610df481610d1e565b8114610dff57600080fd5b50565b610e0b81610d8e565b8114610e1657600080fd5b5056fea264697066735822122036118a24031b90ba972ac3bb79e9475ba092b5e751fc61e4e2cc72988f426cca64736f6c63430006030033a26469706673582212208c5e90554cae6c77b3397b281773054e6adbc2530f9d2a65385dbbcbf159705164736f6c63430006030033",
  "source": "pragma solidity ^0.6.2;\npragma experimental ABIEncoderV2;\n\nimport { Ownable } from \"openzeppelin-solidity/contracts/access/Ownable.sol\";\nimport { IShifterRegistry } from \"./interfaces/IShifterRegistry.sol\";\nimport { IShifter } from \"./interfaces/IShifter.sol\";\nimport { ShifterPoolLib } from \"./ShifterPoolLib.sol\";\nimport { ShifterBorrowProxyLib } from \"./ShifterBorrowProxyLib.sol\";\nimport { BorrowProxy } from \"./BorrowProxy.sol\";\nimport { BorrowProxyLib } from \"./BorrowProxyLib.sol\";\nimport { BorrowProxyFactoryLib } from \"./BorrowProxyFactoryLib.sol\";\nimport { TokenUtils } from \"./utils/TokenUtils.sol\";\nimport { ViewExecutor } from \"./utils/ViewExecutor.sol\";\nimport { LiquidityToken } from \"./LiquidityToken.sol\";\n\ncontract ShifterPool is Ownable, ViewExecutor {\n  using ShifterPoolLib for *;\n  using TokenUtils for *;\n  using ShifterBorrowProxyLib for *;\n  using BorrowProxyLib for *;\n  using BorrowProxyFactoryLib for *;\n  ShifterPoolLib.Isolate isolate;\n  function setup(address shifterRegistry, uint256 poolFee, BorrowProxyLib.ModuleRegistration[] memory modules, ShifterPoolLib.LiquidityTokenLaunch[] memory tokenLaunches) public onlyOwner {\n    require(isolate.shifterRegistry == address(0x0), \"already initialized\");\n    isolate.shifterRegistry = shifterRegistry;\n    isolate.poolFee = poolFee;\n    for (uint256 i = 0; i < modules.length; i++) {\n      BorrowProxyLib.ModuleRegistration memory registration = modules[i];\n      for (uint256 j = 0; j < registration.sigs.length; j++) {\n        isolate.registry.registryRegisterModule(registration);\n      }\n    }\n    for (uint256 i = 0; i < tokenLaunches.length; i++) {\n      ShifterPoolLib.LiquidityTokenLaunch memory launch = tokenLaunches[i];\n      isolate.tokenToLiquidityToken[launch.token] = launch.liqToken;\n    }\n  }\n  function executeBorrow(ShifterBorrowProxyLib.LiquidityRequestParcel memory liquidityRequestParcel, uint256 bond, uint256 timeoutExpiry) public payable {\n    require(liquidityRequestParcel.gasRequested == msg.value, \"supplied ether is not equal to gas requested\");\n    bytes32 requestHash = liquidityRequestParcel.computeLiquidityRequestHash();\n    require(liquidityRequestParcel.validateSignature(requestHash), \"liquidity request signature rejected\");\n    ShifterBorrowProxyLib.LiquidityRequest memory liquidityRequest = liquidityRequestParcel.request;\n    bytes32 borrowerSalt = liquidityRequest.computeBorrowerSalt();\n    address proxyAddress = borrowerSalt.deriveBorrowerAddress();\n    require(!isolate.borrowProxyController.isInitialized(proxyAddress), \"proxy has already been initialized\");\n    ShifterBorrowProxyLib.LenderRecord memory loan;\n    loan.keeper = msg.sender;\n    loan.params = isolate.computeLoanParams(liquidityRequest.amount, bond, timeoutExpiry);\n    ShifterBorrowProxyLib.ProxyRecord memory proxyRecord = ShifterBorrowProxyLib.ProxyRecord({\n      request: liquidityRequest,\n      loan: loan\n    });\n    bytes memory data = abi.encode(proxyRecord);\n    require(LiquidityToken(isolate.getLiquidityToken(liquidityRequest.token)).loan(proxyAddress, proxyRecord.computePostFee()), \"insufficient funds in liquidity pool\");\n    isolate.borrowProxyController.mapProxyRecord(proxyAddress, data);\n    isolate.borrowProxyController.setProxyOwner(proxyAddress, liquidityRequest.borrower);\n    liquidityRequest.borrower.transfer(msg.value);\n    require(liquidityRequest.token.transferTokenFrom(msg.sender, address(this), bond), \"bond submission failed\");\n    require(borrowerSalt.deployBorrowProxy() == proxyAddress, \"proxy deployment failed\");\n    emit BorrowProxyLib.BorrowProxyMade(liquidityRequest.borrower, proxyAddress, data);\n  }\n  function validateProxyRecordHandler(bytes memory proxyRecord) public view returns (bool) {\n    return isolate.borrowProxyController.validateProxyRecord(msg.sender, proxyRecord);\n  }\n  function getProxyOwnerHandler() public view returns (address) {\n    return isolate.borrowProxyController.getProxyOwner(msg.sender);\n  }\n  function getShifterHandler(address token) public view returns (IShifter) {\n    return isolate.getShifter(token);\n  }\n  function getLiquidityTokenHandler(address token) public view returns (LiquidityToken) {\n    return LiquidityToken(isolate.getLiquidityToken(token));\n  }\n  function relayResolveLoan(address token, address liquidityToken, address keeper, uint256 bond, uint256 repay) public returns (bool) {\n    require(isolate.borrowProxyController.proxyInitializerRecord[msg.sender] != bytes32(0x0), \"not a registered borrow proxy\");\n    if (bond != 0) require(token.sendToken(keeper, bond), \"failed to return bond to keeper\");\n    if (repay != 0) require(token.sendToken(liquidityToken, repay), \"failed to repay lost funds\");\n    require(LiquidityToken(liquidityToken).resolveLoan(msg.sender));\n    return true;\n  }\n}\n",
  "sourcePath": "/home/quiknet/0confirmation/packages/0confirmation-sol/contracts/ShifterPool.sol",
  "compiler": {
    "name": "solc",
    "version": "0.6.3+commit.8dda9521.Emscripten.clang"
  },
  "schemaVersion": "3.0.23",
  "updatedAt": "2020-04-02T17:36:30.166Z",
  "devdoc": {
    "methods": {
      "owner()": {
        "details": "Returns the address of the current owner."
      },
      "renounceOwnership()": {
        "details": "Leaves the contract without owner. It will not be possible to call `onlyOwner` functions anymore. Can only be called by the current owner.     * NOTE: Renouncing ownership will leave the contract without an owner, thereby removing any functionality that is only available to the owner."
      },
      "transferOwnership(address)": {
        "details": "Transfers ownership of the contract to a new account (`newOwner`). Can only be called by the current owner."
      }
    }
  },
  "userdoc": {
    "methods": {}
  }
}