{
  "contractName": "ShifterMock",
  "abi": [
    {
      "inputs": [],
      "stateMutability": "nonpayable",
      "type": "constructor"
    },
    {
      "inputs": [],
      "name": "token",
      "outputs": [
        {
          "internalType": "address",
          "name": "",
          "type": "address"
        }
      ],
      "stateMutability": "view",
      "type": "function"
    },
    {
      "inputs": [
        {
          "internalType": "bytes32",
          "name": "",
          "type": "bytes32"
        },
        {
          "internalType": "uint256",
          "name": "amount",
          "type": "uint256"
        },
        {
          "internalType": "bytes32",
          "name": "",
          "type": "bytes32"
        },
        {
          "internalType": "bytes",
          "name": "",
          "type": "bytes"
        }
      ],
      "name": "mint",
      "outputs": [
        {
          "internalType": "uint256",
          "name": "",
          "type": "uint256"
        }
      ],
      "stateMutability": "nonpayable",
      "type": "function"
    }
  ],
  "bytecode": "0x608060405234801561001057600080fd5b5060405161001d9061005f565b604051809103906000f080158015610039573d6000803e3d6000fd5b50600080546001600160a01b0319166001600160a01b039290921691909117905561006c565b6110728061025e83390190565b6101e38061007b6000396000f3fe608060405234801561001057600080fd5b50600436106100365760003560e01c8063159ab14d1461003b578063fc0c546a14610106575b600080fd5b6100f46004803603608081101561005157600080fd5b8135916020810135916040820135919081019060808101606082013564010000000081111561007f57600080fd5b82018360208201111561009157600080fd5b803590602001918460018302840111640100000000831117156100b357600080fd5b91908080601f01602080910402602001604051908101604052809392919081815260200183838082843760009201919091525092955061012a945050505050565b60408051918252519081900360200190f35b61010e61019e565b604080516001600160a01b039092168252519081900360200190f35b60008054604080516340c10f1960e01b81523360048201526024810187905290516001600160a01b03909216916340c10f1991604480820192869290919082900301818387803b15801561017d57600080fd5b505af1158015610191573d6000803e3d6000fd5b5095979650505050505050565b6000546001600160a01b03168156fea2646970667358221220aca5e5f858d393059fe35b919bd148efc9b582d7b623f6e46eb7e89be552abc364736f6c6343000606003360806040523480156200001157600080fd5b50604051806040016040528060048152602001637a42544360e01b815250604051806040016040528060048152602001637a42544360e01b815250600882828160039080519060200190620000689291906200015b565b5080516200007e9060049060208401906200015b565b50506005805460ff1916601217905550620000a2816001600160e01b03620000ab16565b50505062000200565b620000ca306001600160a01b03166200011e60201b62000c541760201c565b15620001085760405162461bcd60e51b81526004018080602001828103825260348152602001806200103e6034913960400191505060405180910390fd5b6005805460ff191660ff92909216919091179055565b6000813f7fc5d2460186f7233c927e7db2dcc703c0e500b653ca82273b7bfad8045d85a4708181148015906200015357508115155b949350505050565b828054600181600116156101000203166002900490600052602060002090601f016020900481019282601f106200019e57805160ff1916838001178555620001ce565b82800160010185558215620001ce579182015b82811115620001ce578251825591602001919060010190620001b1565b50620001dc929150620001e0565b5090565b620001fd91905b80821115620001dc5760008155600101620001e7565b90565b610e2e80620002106000396000f3fe608060405234801561001057600080fd5b50600436106100ea5760003560e01c806342966c681161008c57806395d89b411161006657806395d89b41146102e3578063a457c2d7146102eb578063a9059cbb14610317578063dd62ed3e14610343576100ea565b806342966c681461027457806370a082311461029157806379cc6790146102b7576100ea565b806323b872dd116100c857806323b872dd146101c6578063313ce567146101fc578063395093511461021a57806340c10f1914610246576100ea565b806306fdde03146100ef578063095ea7b31461016c57806318160ddd146101ac575b600080fd5b6100f7610371565b6040805160208082528351818301528351919283929083019185019080838360005b83811015610131578181015183820152602001610119565b50505050905090810190601f16801561015e5780820380516001836020036101000a031916815260200191505b509250505060405180910390f35b6101986004803603604081101561018257600080fd5b506001600160a01b038135169060200135610407565b604080519115158252519081900360200190f35b6101b4610424565b60408051918252519081900360200190f35b610198600480360360608110156101dc57600080fd5b506001600160a01b0381358116916020810135909116906040013561042a565b6102046104b7565b6040805160ff9092168252519081900360200190f35b6101986004803603604081101561023057600080fd5b506001600160a01b0381351690602001356104c0565b6102726004803603604081101561025c57600080fd5b506001600160a01b038135169060200135610514565b005b6102726004803603602081101561028a57600080fd5b5035610522565b6101b4600480360360208110156102a757600080fd5b50356001600160a01b0316610536565b610272600480360360408110156102cd57600080fd5b506001600160a01b038135169060200135610551565b6100f76105b1565b6101986004803603604081101561030157600080fd5b506001600160a01b038135169060200135610612565b6101986004803603604081101561032d57600080fd5b506001600160a01b038135169060200135610680565b6101b46004803603604081101561035957600080fd5b506001600160a01b0381358116916020013516610694565b60038054604080516020601f60026000196101006001881615020190951694909404938401819004810282018101909252828152606093909290918301828280156103fd5780601f106103d2576101008083540402835291602001916103fd565b820191906000526020600020905b8154815290600101906020018083116103e057829003601f168201915b5050505050905090565b600061041b6104146106bf565b84846106c3565b50600192915050565b60025490565b60006104378484846107af565b6104ad846104436106bf565b6104a885604051806060016040528060288152602001610d1e602891396001600160a01b038a166000908152600160205260408120906104816106bf565b6001600160a01b03168152602081019190915260400160002054919063ffffffff61091616565b6106c3565b5060019392505050565b60055460ff1690565b600061041b6104cd6106bf565b846104a885600160006104de6106bf565b6001600160a01b03908116825260208083019390935260409182016000908120918c16815292529020549063ffffffff6109ad16565b61051e8282610a0e565b5050565b61053361052d6106bf565b82610b0a565b50565b6001600160a01b031660009081526020819052604090205490565b600061058e82604051806060016040528060248152602001610d46602491396105818661057c6106bf565b610694565b919063ffffffff61091616565b90506105a28361059c6106bf565b836106c3565b6105ac8383610b0a565b505050565b60048054604080516020601f60026000196101006001881615020190951694909404938401819004810282018101909252828152606093909290918301828280156103fd5780601f106103d2576101008083540402835291602001916103fd565b600061041b61061f6106bf565b846104a885604051806060016040528060258152602001610dd460259139600160006106496106bf565b6001600160a01b03908116825260208083019390935260409182016000908120918d1681529252902054919063ffffffff61091616565b600061041b61068d6106bf565b84846107af565b6001600160a01b03918216600090815260016020908152604080832093909416825291909152205490565b3390565b6001600160a01b0383166107085760405162461bcd60e51b8152600401808060200182810382526024815260200180610db06024913960400191505060405180910390fd5b6001600160a01b03821661074d5760405162461bcd60e51b8152600401808060200182810382526022815260200180610cd66022913960400191505060405180910390fd5b6001600160a01b03808416600081815260016020908152604080832094871680845294825291829020859055815185815291517f8c5be1e5ebec7d5bd14f71427d1e84f3dd0314c0f7b2291e5b200ac8c7c3b9259281900390910190a3505050565b6001600160a01b0383166107f45760405162461bcd60e51b8152600401808060200182810382526025815260200180610d8b6025913960400191505060405180910390fd5b6001600160a01b0382166108395760405162461bcd60e51b8152600401808060200182810382526023815260200180610c916023913960400191505060405180910390fd5b6108448383836105ac565b61088781604051806060016040528060268152602001610cf8602691396001600160a01b038616600090815260208190526040902054919063ffffffff61091616565b6001600160a01b0380851660009081526020819052604080822093909355908416815220546108bc908263ffffffff6109ad16565b6001600160a01b038084166000818152602081815260409182902094909455805185815290519193928716927fddf252ad1be2c89b69c2b068fc378daa952ba7f163c4a11628f55a4df523b3ef92918290030190a3505050565b600081848411156109a55760405162461bcd60e51b81526004018080602001828103825283818151815260200191508051906020019080838360005b8381101561096a578181015183820152602001610952565b50505050905090810190601f1680156109975780820380516001836020036101000a031916815260200191505b509250505060405180910390fd5b505050900390565b600082820183811015610a07576040805162461bcd60e51b815260206004820152601b60248201527f536166654d6174683a206164646974696f6e206f766572666c6f770000000000604482015290519081900360640190fd5b9392505050565b6001600160a01b038216610a69576040805162461bcd60e51b815260206004820152601f60248201527f45524332303a206d696e7420746f20746865207a65726f206164647265737300604482015290519081900360640190fd5b610a75600083836105ac565b600254610a88908263ffffffff6109ad16565b6002556001600160a01b038216600090815260208190526040902054610ab4908263ffffffff6109ad16565b6001600160a01b0383166000818152602081815260408083209490945583518581529351929391927fddf252ad1be2c89b69c2b068fc378daa952ba7f163c4a11628f55a4df523b3ef9281900390910190a35050565b6001600160a01b038216610b4f5760405162461bcd60e51b8152600401808060200182810382526021815260200180610d6a6021913960400191505060405180910390fd5b610b5b826000836105ac565b610b9e81604051806060016040528060228152602001610cb4602291396001600160a01b038516600090815260208190526040902054919063ffffffff61091616565b6001600160a01b038316600090815260208190526040902055600254610bca908263ffffffff610c1216565b6002556040805182815290516000916001600160a01b038516917fddf252ad1be2c89b69c2b068fc378daa952ba7f163c4a11628f55a4df523b3ef9181900360200190a35050565b6000610a0783836040518060400160405280601e81526020017f536166654d6174683a207375627472616374696f6e206f766572666c6f770000815250610916565b6000813f7fc5d2460186f7233c927e7db2dcc703c0e500b653ca82273b7bfad8045d85a470818114801590610c8857508115155b94935050505056fe45524332303a207472616e7366657220746f20746865207a65726f206164647265737345524332303a206275726e20616d6f756e7420657863656564732062616c616e636545524332303a20617070726f766520746f20746865207a65726f206164647265737345524332303a207472616e7366657220616d6f756e7420657863656564732062616c616e636545524332303a207472616e7366657220616d6f756e74206578636565647320616c6c6f77616e636545524332303a206275726e20616d6f756e74206578636565647320616c6c6f77616e636545524332303a206275726e2066726f6d20746865207a65726f206164647265737345524332303a207472616e736665722066726f6d20746865207a65726f206164647265737345524332303a20617070726f76652066726f6d20746865207a65726f206164647265737345524332303a2064656372656173656420616c6c6f77616e63652062656c6f77207a65726fa264697066735822122087a0d62d643e49712777c01ab4efdc90eafe307e7d028c606d15f26e6aaf557364736f6c6343000606003345524332303a20646563696d616c732063616e6e6f74206265206368616e67656420616674657220636f6e737472756374696f6e",
  "immutableReferences": {},
  "source": "pragma solidity ^0.6.0;\n\nimport { ShifterERC20Mock } from \"./ShifterERC20Mock.sol\";\n\ncontract ShifterMock {\n  address public token;\n  constructor() public {\n    token = address(new ShifterERC20Mock());\n  }\n  function mint(bytes32 /* pHash */, uint256 amount , bytes32 /* nHash */, bytes memory /* darknode signature */) public returns (uint256) {\n    ShifterERC20Mock(token).mint(msg.sender, amount);\n    return amount;\n  }\n}\n    \n",
  "sourcePath": "/home/ray/0confirmation/packages/0confirmation-sol/contracts/mock/ShifterMock.sol",
  "compiler": {
    "name": "solc",
    "version": "0.6.6+commit.6c089d02.Emscripten.clang"
  },
  "schemaVersion": "3.1.0",
  "updatedAt": "2020-05-16T17:22:07.553Z",
  "devdoc": {
    "methods": {}
  },
  "userdoc": {
    "methods": {}
  }
}