{
  "contractName": "ShifterPool",
  "abi": [
    {
      "anonymous": false,
      "inputs": [
        {
          "indexed": true,
          "internalType": "address",
          "name": "previousOwner",
          "type": "address"
        },
        {
          "indexed": true,
          "internalType": "address",
          "name": "newOwner",
          "type": "address"
        }
      ],
      "name": "OwnershipTransferred",
      "type": "event"
    },
    {
      "inputs": [
        {
          "internalType": "address",
          "name": "delegateTo",
          "type": "address"
        },
        {
          "internalType": "bytes",
          "name": "callData",
          "type": "bytes"
        }
      ],
      "name": "_executeQuery",
      "outputs": [
        {
          "internalType": "bytes",
          "name": "",
          "type": "bytes"
        }
      ],
      "stateMutability": "nonpayable",
      "type": "function"
    },
    {
      "inputs": [],
      "name": "owner",
      "outputs": [
        {
          "internalType": "address",
          "name": "",
          "type": "address"
        }
      ],
      "stateMutability": "view",
      "type": "function"
    },
    {
      "inputs": [
        {
          "internalType": "address",
          "name": "viewLogic",
          "type": "address"
        },
        {
          "internalType": "bytes",
          "name": "payload",
          "type": "bytes"
        }
      ],
      "name": "query",
      "outputs": [
        {
          "internalType": "bytes",
          "name": "",
          "type": "bytes"
        }
      ],
      "stateMutability": "view",
      "type": "function"
    },
    {
      "inputs": [],
      "name": "renounceOwnership",
      "outputs": [],
      "stateMutability": "nonpayable",
      "type": "function"
    },
    {
      "inputs": [
        {
          "internalType": "address",
          "name": "newOwner",
          "type": "address"
        }
      ],
      "name": "transferOwnership",
      "outputs": [],
      "stateMutability": "nonpayable",
      "type": "function"
    },
    {
      "inputs": [
        {
          "internalType": "address",
          "name": "shifterRegistry",
          "type": "address"
        },
        {
          "internalType": "uint256",
          "name": "minTimeout",
          "type": "uint256"
        },
        {
          "internalType": "uint256",
          "name": "poolFee",
          "type": "uint256"
        },
        {
          "components": [
            {
              "internalType": "enum BorrowProxyLib.ModuleRegistrationType",
              "name": "moduleType",
              "type": "uint8"
            },
            {
              "internalType": "address",
              "name": "target",
              "type": "address"
            },
            {
              "internalType": "bytes4[]",
              "name": "sigs",
              "type": "bytes4[]"
            },
            {
              "components": [
                {
                  "internalType": "bool",
                  "name": "isPrecompiled",
                  "type": "bool"
                },
                {
                  "internalType": "address",
                  "name": "assetSubmodule",
                  "type": "address"
                },
                {
                  "internalType": "address",
                  "name": "liquidationSubmodule",
                  "type": "address"
                },
                {
                  "internalType": "address",
                  "name": "repaymentSubmodule",
                  "type": "address"
                }
              ],
              "internalType": "struct BorrowProxyLib.Module",
              "name": "module",
              "type": "tuple"
            }
          ],
          "internalType": "struct BorrowProxyLib.ModuleRegistration[]",
          "name": "modules",
          "type": "tuple[]"
        },
        {
          "components": [
            {
              "internalType": "address",
              "name": "token",
              "type": "address"
            },
            {
              "internalType": "address",
              "name": "liqToken",
              "type": "address"
            }
          ],
          "internalType": "struct ShifterPoolLib.LiquidityTokenLaunch[]",
          "name": "tokenLaunches",
          "type": "tuple[]"
        }
      ],
      "name": "setup",
      "outputs": [],
      "stateMutability": "nonpayable",
      "type": "function"
    },
    {
      "inputs": [
        {
          "components": [
            {
              "components": [
                {
                  "internalType": "address payable",
                  "name": "borrower",
                  "type": "address"
                },
                {
                  "internalType": "address",
                  "name": "token",
                  "type": "address"
                },
                {
                  "internalType": "bytes32",
                  "name": "nonce",
                  "type": "bytes32"
                },
                {
                  "internalType": "uint256",
                  "name": "amount",
                  "type": "uint256"
                }
              ],
              "internalType": "struct ShifterBorrowProxyLib.LiquidityRequest",
              "name": "request",
              "type": "tuple"
            },
            {
              "internalType": "uint256",
              "name": "gasRequested",
              "type": "uint256"
            },
            {
              "components": [
                {
                  "internalType": "address",
                  "name": "to",
                  "type": "address"
                },
                {
                  "internalType": "bytes",
                  "name": "txData",
                  "type": "bytes"
                }
              ],
              "internalType": "struct ShifterBorrowProxyLib.InitializationAction[]",
              "name": "actions",
              "type": "tuple[]"
            },
            {
              "internalType": "bytes",
              "name": "signature",
              "type": "bytes"
            }
          ],
          "internalType": "struct ShifterBorrowProxyLib.LiquidityRequestParcel",
          "name": "liquidityRequestParcel",
          "type": "tuple"
        },
        {
          "internalType": "uint256",
          "name": "bond",
          "type": "uint256"
        },
        {
          "internalType": "uint256",
          "name": "timeoutExpiry",
          "type": "uint256"
        }
      ],
      "name": "executeBorrow",
      "outputs": [],
      "stateMutability": "payable",
      "type": "function"
    },
    {
      "inputs": [
        {
          "internalType": "bytes",
          "name": "proxyRecord",
          "type": "bytes"
        }
      ],
      "name": "validateProxyRecordHandler",
      "outputs": [
        {
          "internalType": "bool",
          "name": "",
          "type": "bool"
        }
      ],
      "stateMutability": "view",
      "type": "function"
    },
    {
      "inputs": [
        {
          "internalType": "address",
          "name": "user",
          "type": "address"
        }
      ],
      "name": "getProxyOwnerHandler",
      "outputs": [
        {
          "internalType": "address",
          "name": "",
          "type": "address"
        }
      ],
      "stateMutability": "view",
      "type": "function"
    },
    {
      "inputs": [
        {
          "internalType": "address",
          "name": "token",
          "type": "address"
        }
      ],
      "name": "getShifterHandler",
      "outputs": [
        {
          "internalType": "contract IShifter",
          "name": "",
          "type": "address"
        }
      ],
      "stateMutability": "view",
      "type": "function"
    },
    {
      "inputs": [
        {
          "internalType": "address",
          "name": "token",
          "type": "address"
        }
      ],
      "name": "getLiquidityTokenHandler",
      "outputs": [
        {
          "internalType": "contract LiquidityToken",
          "name": "",
          "type": "address"
        }
      ],
      "stateMutability": "view",
      "type": "function"
    },
    {
      "inputs": [
        {
          "internalType": "address",
          "name": "to",
          "type": "address"
        },
        {
          "internalType": "bytes4",
          "name": "sig",
          "type": "bytes4"
        }
      ],
      "name": "fetchModuleHandler",
      "outputs": [
        {
          "components": [
            {
              "internalType": "bool",
              "name": "isPrecompiled",
              "type": "bool"
            },
            {
              "internalType": "address",
              "name": "assetSubmodule",
              "type": "address"
            },
            {
              "internalType": "address",
              "name": "liquidationSubmodule",
              "type": "address"
            },
            {
              "internalType": "address",
              "name": "repaymentSubmodule",
              "type": "address"
            }
          ],
          "internalType": "struct BorrowProxyLib.Module",
          "name": "",
          "type": "tuple"
        }
      ],
      "stateMutability": "view",
      "type": "function"
    },
    {
      "inputs": [
        {
          "internalType": "address",
          "name": "token",
          "type": "address"
        },
        {
          "internalType": "address",
          "name": "liquidityToken",
          "type": "address"
        },
        {
          "internalType": "address",
          "name": "keeper",
          "type": "address"
        },
        {
          "internalType": "uint256",
          "name": "bond",
          "type": "uint256"
        },
        {
          "internalType": "uint256",
          "name": "repay",
          "type": "uint256"
        }
      ],
      "name": "relayResolveLoan",
      "outputs": [
        {
          "internalType": "bool",
          "name": "",
          "type": "bool"
        }
      ],
      "stateMutability": "nonpayable",
      "type": "function"
    }
  ],
  "bytecode": "0x608060405260006100176001600160e01b0361006616565b600080546001600160a01b0319166001600160a01b0383169081178255604051929350917f8be0079c531659141344cd1fd0a4f28419497f9722a3daafe3b4186f6b6457e0908290a35061006a565b3390565b614b70806100796000396000f3fe6080604052600436106100c25760003560e01c8063798aada01161007f578063e6c1f07411610059578063e6c1f07414610203578063ea82c9b314610223578063f2fde38b14610243578063fd00430c14610263576100c2565b8063798aada0146101ae578063801874ec146101ce5780638da5cb5b146101ee576100c2565b806308f60495146100c75780631fbc78dc146100fd57806323e3b7301461012a57806344112360146101575780636b0decf314610184578063715018a614610199575b600080fd5b3480156100d357600080fd5b506100e76100e2366004611ea9565b610283565b6040516100f49190612296565b60405180910390f35b34801561010957600080fd5b5061011d610118366004611c36565b61029d565b6040516100f4919061216f565b34801561013657600080fd5b5061014a610145366004611ce4565b6102b0565b6040516100f491906122bf565b34801561016357600080fd5b50610177610172366004611cac565b61034d565b6040516100f491906128a9565b610197610192366004611ef8565b61036e565b005b3480156101a557600080fd5b506101976106e8565b3480156101ba57600080fd5b5061011d6101c9366004611c36565b610767565b3480156101da57600080fd5b506100e76101e9366004611c52565b61077a565b3480156101fa57600080fd5b5061011d6108c4565b34801561020f57600080fd5b5061011d61021e366004611c36565b6108d3565b34801561022f57600080fd5b5061019761023e366004611d32565b6108e6565b34801561024f57600080fd5b5061019761025e366004611c36565b610a24565b34801561026f57600080fd5b5061014a61027e366004611ce4565b610a65565b60006102976007338463ffffffff610b2b16565b92915050565b600061029760018363ffffffff610b5116565b60603330146102da5760405162461bcd60e51b81526004016102d190612556565b60405180910390fd5b60006060846001600160a01b0316846040516102f69190612122565b600060405180830381855af49150503d8060008114610331576040519150601f19603f3d011682016040523d82523d6000602084013e610336565b606091505b50915091508161034557600080fd5b949350505050565b6103556118a6565b610367600a848463ffffffff610bd116565b9392505050565b348360200151146103915760405162461bcd60e51b81526004016102d190612464565b600061039c84610cbf565b90506103ae848263ffffffff610d2116565b6103ca5760405162461bcd60e51b81526004016102d190612731565b6103d26118a6565b50835160006103e082610d52565b905060006103ed82610d7b565b905061040060078263ffffffff610db116565b1561041d5760405162461bcd60e51b81526004016102d190612309565b6104256118cd565b338152606084015161044190600190898963ffffffff610dcf16565b602082015261044e6118f5565b6040518060400160405280868152602001838152509050606061047082610ecf565b905061048a86602001516001610ef890919063ffffffff16565b6001600160a01b031663185cc751856104a285610f34565b6040518363ffffffff1660e01b81526004016104bf929190612183565b602060405180830381600087803b1580156104d957600080fd5b505af11580156104ed573d6000803e3d6000fd5b505050506040513d601f19601f820116820180604052508101906105119190611e8d565b61052d5760405162461bcd60e51b81526004016102d190612598565b61053f6007858363ffffffff610f6c16565b855161055590600790869063ffffffff610f8f16565b85516040516001600160a01b03909116903480156108fc02916000818181858888f1935050505015801561058d573d6000803e3d6000fd5b5060208601516105ae906001600160a01b031633308c63ffffffff610fc316565b6105ca5760405162461bcd60e51b81526004016102d1906127aa565b836001600160a01b03166105dd86611069565b6001600160a01b0316146106035760405162461bcd60e51b81526004016102d19061242d565b85516040516366d3820360e01b81526001600160a01b038616916366d3820391610630919060040161216f565b602060405180830381600087803b15801561064a57600080fd5b505af115801561065e573d6000803e3d6000fd5b505050506040513d601f19601f820116820180604052508101906106829190611e8d565b61069e5760405162461bcd60e51b81526004016102d1906124e7565b60408a01516106b3908563ffffffff61109716565b6106cf5760405162461bcd60e51b81526004016102d1906127da565b85516106dc9085836110e1565b50505050505050505050565b6106f0611131565b6000546001600160a01b0390811691161461071d5760405162461bcd60e51b81526004016102d190612775565b600080546040516001600160a01b03909116907f8be0079c531659141344cd1fd0a4f28419497f9722a3daafe3b4186f6b6457e0908390a3600080546001600160a01b0319169055565b600061029760018363ffffffff610ef816565b336000908152600760205260408120546107a65760405162461bcd60e51b81526004016102d190612609565b82156107e2576107c66001600160a01b038716858563ffffffff61113516565b6107e25760405162461bcd60e51b81526004016102d1906126b9565b811561081e576108026001600160a01b038716868463ffffffff61113516565b61081e5760405162461bcd60e51b81526004016102d1906124b0565b60405163c3275c7960e01b81526001600160a01b0386169063c3275c799061084a90339060040161216f565b602060405180830381600087803b15801561086457600080fd5b505af1158015610878573d6000803e3d6000fd5b505050506040513d601f19601f8201168201806040525081019061089c9190611e8d565b6108b85760405162461bcd60e51b81526004016102d190612846565b50600195945050505050565b6000546001600160a01b031690565b600061029760078363ffffffff6111d816565b6108ee611131565b6000546001600160a01b0390811691161461091b5760405162461bcd60e51b81526004016102d190612775565b6001546001600160a01b0316156109445760405162461bcd60e51b81526004016102d1906125dc565b600180546001600160a01b0319166001600160a01b0387161790556002849055600383905560005b82518110156109b05761097d611915565b83828151811061098957fe5b602090810291909101015190506109a7600a8263ffffffff6111fb16565b5060010161096c565b5060005b8151811015610a1c576109c561193e565b8282815181106109d157fe5b6020908102919091018101518082015190516001600160a01b0390811660009081526006909352604090922080546001600160a01b03191692909116919091179055506001016109b4565b505050505050565b610a2c611131565b6000546001600160a01b03908116911614610a595760405162461bcd60e51b81526004016102d190612775565b610a62816112b7565b50565b606060006060846001600160a01b03168585604051602401610a889291906121c0565b60408051601f198184030181529181526020820180516001600160e01b031663023e3b7360e41b17905251610abd9190612122565b600060405180830381855afa9150503d8060008114610af8576040519150601f19603f3d011682016040523d82523d6000602084013e610afd565b606091505b5091509150818190610b225760405162461bcd60e51b81526004016102d191906122bf565b50949350505050565b80516020918201206001600160a01b039290921660009081529290526040909120541490565b815460405163028c4f4160e41b81526000916001600160a01b0316906328c4f41090610b8190859060040161216f565b60206040518083038186803b158015610b9957600080fd5b505afa158015610bad573d6000803e3d6000fd5b505050506040513d601f19601f820116820180604052508101906103679190611edc565b610bd96118a6565b610be16118a6565b846000610bee8686611338565b815260208082019290925260409081016000208151608081018352815460ff8116151582526001600160a01b0361010090910481169482019490945260018201548416928101929092526002015490911660608201529050610c4f81611378565b61034557846000610c60868661138a565b815260208082019290925260409081016000208151608081018352815460ff81161515825261010090046001600160a01b0390811694820194909452600182015484169281019290925260020154909116606082015295945050505050565b6000308260000151602001518360000151604001518460000151606001518560200151610cef87604001516113bd565b604051602001610d0496959493929190612054565b604051602081830303815290604052805190602001209050919050565b6000610d39610d2f836113d0565b84606001516113e3565b8351516001600160a01b03908116911614905092915050565b60008160000151826020015183604001518460600151604051602001610d049493929190612026565b60006102978260405180602001610d9190611955565b6020820181038252601f19601f8201166040525080519060200120611511565b6001600160a01b031660009081526020919091526040902054151590565b610dd7611962565b8460010154821015610dfb5760405162461bcd60e51b81526004016102d19061234b565b6000610e16670de0b6b3a7640000606463ffffffff61151e16565b9050610e31670de0b6b3a7640000606463ffffffff61151e16565b610e5986610e4d87670de0b6b3a764000063ffffffff61156016565b9063ffffffff61151e16565b11610e765760405162461bcd60e51b81526004016102d19061287d565b6000848610610e9857610e9386610e4d848863ffffffff61156016565b610e9a565b815b905060405180608001604052808543018152602001868152602001886002015481526020018281525092505050949350505050565b606081604051602001610ee291906128e7565b6040516020818303038152906040529050919050565b6001600160a01b038082166000908152600584016020526040812054909116806103675760405162461bcd60e51b81526004016102d190612811565b6000610297610f5a610f458461159a565b610f4e856115cf565b9063ffffffff61160416565b8351606001519063ffffffff61162916565b80516020918201206001600160a01b039092166000908152929052604090912055565b6001600160a01b039182166000908152600190930160205260409092208054919092166001600160a01b0319909116179055565b600080856001600160a01b0316858585604051602401610fe59392919061219c565b60408051601f198184030181529181526020820180516001600160e01b03166323b872dd60e01b1790525161101a9190612122565b6000604051808303816000865af19150503d8060008114611057576040519150601f19603f3d011682016040523d82523d6000602084013e61105c565b606091505b5090979650505050505050565b6000610297826040518060200161107f90611955565b601f1982820381018352601f9091011660405261166b565b6000805b83518110156110d7576110c18482815181106110b357fe5b6020026020010151846116a0565b6110cf576000915050610297565b60010161109b565b5060019392505050565b816001600160a01b0316836001600160a01b03167f9ae84ac2ad8f721c2e62d211eca0ae34951726f8834913af6c5ebb81610bb1f88360405161112491906122bf565b60405180910390a3505050565b3390565b600080846001600160a01b03168484604051602401611155929190612183565b60408051601f198184030181529181526020820180516001600160e01b031663a9059cbb60e01b1790525161118a9190612122565b6000604051808303816000865af19150503d80600081146111c7576040519150601f19603f3d011682016040523d82523d6000602084013e6111cc565b606091505b50909695505050505050565b6001600160a01b0380821660009081526001840160205260409020541692915050565b60018151600281111561120a57fe5b14156112595760005b8160400151518110156112535761124b8383602001518460400151848151811061123957fe5b6020026020010151856060015161175f565b600101611213565b506112b3565b60028151600281111561126857fe5b14156112b35760005b8160400151518110156112b1576112a98383602001518460400151848151811061129757fe5b602002602001015185606001516117e9565b600101611271565b505b5050565b6001600160a01b0381166112dd5760405162461bcd60e51b81526004016102d1906123b0565b600080546040516001600160a01b03808516939216917f8be0079c531659141344cd1fd0a4f28419497f9722a3daafe3b4186f6b6457e091a3600080546001600160a01b0319166001600160a01b0392909216919091179055565b600080611344846117f7565b9050808360405160200161135992919061210a565b6040516020818303038152906040528051906020012091505092915050565b602001516001600160a01b0316151590565b6000828260405160200161139f9291906120af565b60405160208183030381529060405280519060200120905092915050565b606081604051602001610ee2919061221a565b600081604051602001610d04919061213e565b600081516041146114065760405162461bcd60e51b81526004016102d190612379565b60208201516040830151606084015160001a7f7fffffffffffffffffffffffffffffff5d576e7357a4501ddfe92f46681b20a08211156114585760405162461bcd60e51b81526004016102d190612514565b8060ff16601b1415801561147057508060ff16601c14155b1561148d5760405162461bcd60e51b81526004016102d190612640565b6000600187838686604051600081526020016040526040516114b294939291906122a1565b6020604051602081039080840390855afa1580156114d4573d6000803e3d6000fd5b5050604051601f1901519150506001600160a01b0381166115075760405162461bcd60e51b81526004016102d1906122d2565b9695505050505050565b60006103678383306117fb565b600061036783836040518060400160405280601a81526020017f536166654d6174683a206469766973696f6e206279207a65726f000000000000815250611843565b60008261156f57506000610297565b8282028284828161157c57fe5b04146103675760405162461bcd60e51b81526004016102d1906126f0565b6000610297670de0b6b3a7640000610e4d8460200151602001516060015185600001516060015161156090919063ffffffff16565b6000610297670de0b6b3a7640000610e4d8460200151602001516040015185600001516060015161156090919063ffffffff16565b6000828201838110156103675760405162461bcd60e51b81526004016102d1906123f6565b600061036783836040518060400160405280601e81526020017f536166654d6174683a207375627472616374696f6e206f766572666c6f77000081525061187a565b600080838351602085016000f590506001600160a01b0381166103675760405162461bcd60e51b81526004016102d190612682565b600080826001600160a01b03165a85516020870151604051631349792d60e11b926116d3929091600091906024016121e4565b60408051601f198184030181529181526020820180516001600160e01b03166001600160e01b03199094169390931790925290516117119190612122565b60006040518083038160008787f1925050503d806000811461174f576040519150601f19603f3d011682016040523d82523d6000602084013e611754565b606091505b509095945050505050565b8084600061176d8686611338565b81526020808201929092526040908101600020835181549385015160ff1990941690151517610100600160a81b0319166101006001600160a01b0394851602178155908301516001820180546001600160a01b031990811692851692909217905560609093015160029091018054909316911617905550505050565b8084600061176d868661138a565b3f90565b60008060ff60f81b83868660405160200161181994939291906120d6565b60408051808303601f1901815291905280516020909101206001600160a01b031695945050505050565b600081836118645760405162461bcd60e51b81526004016102d191906122bf565b50600083858161187057fe5b0495945050505050565b6000818484111561189e5760405162461bcd60e51b81526004016102d191906122bf565b505050900390565b60408051608081018252600080825260208201819052918101829052606081019190915290565b604051806040016040528060006001600160a01b031681526020016118f0611962565b905290565b60405180604001604052806119086118a6565b81526020016118f06118cd565b6040805160808101909152806000815260006020820152606060408201819052016118f06118a6565b604080518082019091526000808252602082015290565b61213580612a0683390190565b6040518060800160405280600081526020016000815260200160008152602001600081525090565b8035610297816129cc565b600082601f8301126119a5578081fd5b81356119b86119b38261297c565b612955565b8181529150602080830190848101818402860182018710156119d957600080fd5b60005b84811015611a015781356119ef816129ef565b845292820192908201906001016119dc565b505050505092915050565b600082601f830112611a1c578081fd5b8135611a2a6119b38261297c565b818152915060208083019084810160005b84811015611a015781358701604080601f19838c03011215611a5c57600080fd5b611a6581612955565b85830135611a72816129cc565b81528282013567ffffffffffffffff811115611a8d57600080fd5b611a9b8c8883870101611b55565b8288015250865250509282019290820190600101611a3b565b600082601f830112611ac4578081fd5b8135611ad26119b38261297c565b8181529150602080830190848101604080850287018301881015611af557600080fd5b6000805b86811015611b485782848b031215611b0f578182fd5b611b1883612955565b8435611b23816129cc565b815284860135611b32816129cc565b8187015286529484019492820192600101611af9565b5050505050505092915050565b600082601f830112611b65578081fd5b813567ffffffffffffffff811115611b7b578182fd5b611b8e601f8201601f1916602001612955565b9150808252836020828501011115611ba557600080fd5b8060208401602084013760009082016020015292915050565b80356003811061029757600080fd5b600060808284031215611bde578081fd5b611be86080612955565b90508135611bf5816129e1565b81526020820135611c05816129cc565b60208201526040820135611c18816129cc565b60408201526060820135611c2b816129cc565b606082015292915050565b600060208284031215611c47578081fd5b8135610367816129cc565b600080600080600060a08688031215611c69578081fd5b8535611c74816129cc565b94506020860135611c84816129cc565b93506040860135611c94816129cc565b94979396509394606081013594506080013592915050565b60008060408385031215611cbe578182fd5b8235611cc9816129cc565b91506020830135611cd9816129ef565b809150509250929050565b60008060408385031215611cf6578182fd5b8235611d01816129cc565b9150602083013567ffffffffffffffff811115611d1c578182fd5b611d2885828601611b55565b9150509250929050565b600080600080600060a08688031215611d49578283fd5b611d5386356129cc565b85359450602086013593506040860135925067ffffffffffffffff60608701351115611d7d578081fd5b6060860135860187601f820112611d92578182fd5b611d9f6119b3823561297c565b81358152602080820191908301845b8435811015611e51578135850160e0818e03601f19011215611dce578687fd5b611dd86080612955565b611de58e60208401611bbe565b8152611df48e6040840161198a565b602082015267ffffffffffffffff60608301351115611e11578788fd5b611e248e60206060850135850101611995565b6040820152611e368e60808401611bcd565b60608201528552506020938401939190910190600101611dae565b505080945050505067ffffffffffffffff60808701351115611e71578081fd5b611e818760808801358801611ab4565b90509295509295909350565b600060208284031215611e9e578081fd5b8151610367816129e1565b600060208284031215611eba578081fd5b813567ffffffffffffffff811115611ed0578182fd5b61034584828501611b55565b600060208284031215611eed578081fd5b8151610367816129cc565b600080600060608486031215611f0c578081fd5b833567ffffffffffffffff80821115611f23578283fd5b818601808803925060e0831215611f38578384fd5b611f426080612955565b6080841215611f4f578485fd5b611f596080612955565b9350611f65898361198a565b8452611f74896020840161198a565b602085015260408201356040850152606082013560608501528381526080820135602082015260a0820135935082841115611fad578485fd5b611fb989858401611a0c565b604082015260c0820135935082841115611fd1578485fd5b611fdd89858401611b55565b606082015298602088013598506040909701359695505050505050565b6000815180845261201281602086016020860161299c565b601f01601f19169290920160200192915050565b6001600160601b0319606095861b811682529390941b90921660148401526028830152604882015260680190565b60006bffffffffffffffffffffffff19808960601b168352808860601b16601484015250856028830152846048830152836068830152825161209d81608885016020870161299c565b91909101608801979650505050505050565b60609290921b6001600160601b03191682526001600160e01b031916601482015260180190565b6001600160f81b031994909416845260609290921b6001600160601b03191660018401526015830152603582015260550190565b9182526001600160e01b031916602082015260240190565b6000825161213481846020870161299c565b9190910192915050565b7f19457468657265756d205369676e6564204d6573736167653a0a3332000000008152601c810191909152603c0190565b6001600160a01b0391909116815260200190565b6001600160a01b03929092168252602082015260400190565b6001600160a01b039384168152919092166020820152604081019190915260600190565b6001600160a01b038316815260406020820181905260009061034590830184611ffa565b6001600160a01b038416815260ff8316602082015260606040820181905260009061221190830184611ffa565b95945050505050565b60208082528251828201819052600091906040908185019080840286018301878501865b8381101561228857888303603f19018552815180516001600160a01b031684528781015188850188905261227488860182611ffa565b96890196945050509086019060010161223e565b509098975050505050505050565b901515815260200190565b93845260ff9290921660208401526040830152606082015260800190565b6000602082526103676020830184611ffa565b60208082526018908201527f45434453413a20696e76616c6964207369676e61747572650000000000000000604082015260600190565b60208082526022908201527f70726f78792068617320616c7265616479206265656e20696e697469616c697a604082015261195960f21b606082015260800190565b6020808252601490820152731d1a5b595bdd5d081a5b9cdd59999a58da595b9d60621b604082015260600190565b6020808252601f908201527f45434453413a20696e76616c6964207369676e6174757265206c656e67746800604082015260600190565b60208082526026908201527f4f776e61626c653a206e6577206f776e657220697320746865207a65726f206160408201526564647265737360d01b606082015260800190565b6020808252601b908201527f536166654d6174683a206164646974696f6e206f766572666c6f770000000000604082015260600190565b60208082526017908201527f70726f7879206465706c6f796d656e74206661696c6564000000000000000000604082015260600190565b6020808252602c908201527f737570706c696564206574686572206973206e6f7420657175616c20746f206760408201526b185cc81c995c5d595cdd195960a21b606082015260800190565b6020808252601a908201527f6661696c656420746f207265706179206c6f73742066756e6473000000000000604082015260600190565b6020808252601390820152727365747570207068617365206661696c75726560681b604082015260600190565b60208082526022908201527f45434453413a20696e76616c6964207369676e6174757265202773272076616c604082015261756560f01b606082015260800190565b60208082526022908201527f756e617574686f72697a65642076696577206c617965722064656c656761746960408201526137b760f11b606082015260800190565b60208082526024908201527f696e73756666696369656e742066756e647320696e206c6971756964697479206040820152631c1bdbdb60e21b606082015260800190565b602080825260139082015272185b1c9958591e481a5b9a5d1a585b1a5e9959606a1b604082015260600190565b6020808252601d908201527f6e6f742061207265676973746572656420626f72726f772070726f7879000000604082015260600190565b60208082526022908201527f45434453413a20696e76616c6964207369676e6174757265202776272076616c604082015261756560f01b606082015260800190565b60208082526019908201527f437265617465323a204661696c6564206f6e206465706c6f7900000000000000604082015260600190565b6020808252601f908201527f6661696c656420746f2072657475726e20626f6e6420746f206b656570657200604082015260600190565b60208082526021908201527f536166654d6174683a206d756c7469706c69636174696f6e206f766572666c6f6040820152607760f81b606082015260800190565b60208082526024908201527f6c69717569646974792072657175657374207369676e61747572652072656a6560408201526318dd195960e21b606082015260800190565b6020808252818101527f4f776e61626c653a2063616c6c6572206973206e6f7420746865206f776e6572604082015260600190565b602080825260169082015275189bdb99081cdd589b5a5cdcda5bdb8819985a5b195960521b604082015260600190565b6020808252601a908201527f696e6969616c697a6174696f6e20616374696f6e73206661696c000000000000604082015260600190565b6020808252818101527f6e6f7420612072656769737465726564206c697175696469747920746f6b656e604082015260600190565b60208082526017908201527f6c6f616e207265736f6c7574696f6e206661696c757265000000000000000000604082015260600190565b602080825260129082015271626f6e642062656c6f77206d696e696d756d60701b604082015260600190565b8151151581526020808301516001600160a01b0390811691830191909152604080840151821690830152606092830151169181019190915260800190565b815180516001600160a01b0390811683526020808301518216818501526040808401518186015260609384015184860152948101518051909216608085015290810151805160a08501529081015160c08401529283015160e083015291909101516101008201526101200190565b60405181810167ffffffffffffffff8111828210171561297457600080fd5b604052919050565b600067ffffffffffffffff821115612992578081fd5b5060209081020190565b60005b838110156129b757818101518382015260200161299f565b838111156129c6576000848401525b50505050565b6001600160a01b0381168114610a6257600080fd5b8015158114610a6257600080fd5b6001600160e01b031981168114610a6257600080fdfe608060405234801561001057600080fd5b50612115806100206000396000f3fe6080604052600436106100595760003560e01c806323e3b730146100625780632692f25a1461009857806356b8e146146100b857806366d38203146100e5578063c4ddf36314610105578063fd00430c1461012557610060565b3661006057005b005b34801561006e57600080fd5b5061008261007d36600461181e565b610145565b60405161008f9190611c52565b60405180910390f35b3480156100a457600080fd5b506100606100b336600461186c565b6101e4565b3480156100c457600080fd5b506100d86100d33660046118e3565b610462565b60405161008f9190611c18565b3480156100f157600080fd5b506100d8610100366004611802565b610816565b34801561011157600080fd5b506100d86101203660046118e3565b610873565b34801561013157600080fd5b5061008261014036600461181e565b610d07565b606033301461016f5760405162461bcd60e51b815260040161016690611d25565b60405180910390fd5b60006060846001600160a01b03168460405161018b9190611b1f565b600060405180830381855af49150503d80600081146101c6576040519150601f19603f3d011682016040523d82523d6000602084013e6101cb565b606091505b5091509150816101da57600080fd5b9150505b92915050565b6001546001600160a01b031633148061020757506000546001600160a01b031633145b6102235760405162461bcd60e51b815260040161016690611dc4565b600061023f61023a8383600463ffffffff610dcd16565b610df6565b60e01b905061024c611564565b604051632f1a48af60e01b815273__BorrowProxyLib________________________90632f1a48af906102889060009089908790600401611f76565b60a06040518083038186803b1580156102a057600080fd5b505af41580156102b4573d6000803e3d6000fd5b505050506040513d601f19601f820116820180604052508101906102d89190611965565b600054909150600160a01b900460ff1680156102f75750602081015151155b1561039a5760006060866001600160a01b031686866040516103199190611b1f565b60006040518083038185875af1925050503d8060008114610356576040519150601f19603f3d011682016040523d82523d6000602084013e61035b565b606091505b5091509150816103875761036e81610e13565b60405162461bcd60e51b81526004016101669190611c52565b6103918282610f11565b5050505061045d565b6103a78160200151610f26565b6103c35760405162461bcd60e51b815260040161016690611cee565b600060606103d883868863ffffffff610f3816565b91509150816103ea5761036e81610e13565b6020830151604001516001600160a01b03161561041c5760208301516040015161041c9060069063ffffffff610ff616565b6020830151606001516001600160a01b03161561044e5760208301516060015161044e9060089063ffffffff610ff616565b6104588282610f11565b505050505b505050565b60055460009060ff16156104885760405162461bcd60e51b815260040161016690611cc3565b600054600160a01b900460ff16156104b25760405162461bcd60e51b815260040161016690611e0d565b6104bb82611050565b6104d75760405162461bcd60e51b815260040161016690611d96565b6104df61158c565b6104e8836110d3565b600780546040805160208084028201810190925282815293945060609392919083018282801561054157602002820191906000526020600020905b81546001600160a01b03168152600190910190602001808311610523575b5050505050905043826020015160200151600001511061080a576005805461ff0019166101001790556003545b81518110156105c6576207a1205a10806105aa57506105a882828151811061059257fe5b60200260200101516001600160a01b03166110ef565b155b156105be5760035550600091506108119050565b60010161056e565b508051600355600080548351602001516040516370a0823160e01b81526001600160a01b039283169392909116906370a0823190610608903090600401611b3b565b60206040518083038186803b15801561062057600080fd5b505afa158015610634573d6000803e3d6000fd5b505050506040513d601f19601f820116820180604052508101906106589190611ac5565b84516020015190915061067b906001600160a01b0316838363ffffffff6111c816565b6106975760405162461bcd60e51b815260040161016690611f2c565b60208085015181015101518451606001518210156106d15784516060015182038111156106cd57845160600151820390036106d1565b5060005b8451602001516040516303cc556d60e51b8152828403916001600160a01b0386169163801874ec9190839063798aada090610710908490600401611b3b565b60206040518083038186803b15801561072857600080fd5b505afa15801561073c573d6000803e3d6000fd5b505050506040513d601f19601f820116820180604052508101906107609190611916565b60208a0151516040516001600160e01b031960e086901b16815261078d9392919088908890600401611ba7565b602060405180830381600087803b1580156107a757600080fd5b505af11580156107bb573d6000803e3d6000fd5b505050506040513d601f19601f820116820180604052508101906107df91906118c3565b6107fb5760405162461bcd60e51b815260040161016690611ef5565b60019650505050505050610811565b6000925050505b919050565b6001546000906001600160a01b0316156108425760405162461bcd60e51b815260040161016690611c65565b50600080546001600160a01b03199081163317909155600180546001600160a01b0384169216919091178155919050565b600061087d6115ac565b6108868361126b565b905061089d6108988260000151611287565b611050565b6108b95760405162461bcd60e51b815260040161016690611d96565b600554610100900460ff16156108e15760405162461bcd60e51b815260040161016690611ebe565b80518051606001516000916108fb9163ffffffff6112b016565b60008054845151602001516040516303cc556d60e51b815293945091926001600160a01b039091169163798aada0916109379190600401611b3b565b60206040518083038186803b15801561094f57600080fd5b505afa158015610963573d6000803e3d6000fd5b505050506040513d601f19601f820116820180604052508101906109879190611916565b60055490915060009060ff16610b14576005805460ff19166001179055600054845151602001516040516307ef1e3760e21b81526001600160a01b0390921691631fbc78dc916109d991600401611b3b565b60206040518083038186803b1580156109f157600080fd5b505afa158015610a05573d6000803e3d6000fd5b505050506040513d601f19601f82011682018060405250810190610a299190611916565b6001600160a01b031663bb4a1d8c856060015186600001516000015160600151610a52886112f0565b88608001516040518563ffffffff1660e01b8152600401610a769493929190611c23565b602060405180830381600087803b158015610a9057600080fd5b505af1158015610aa4573d6000803e3d6000fd5b505050506040513d601f19601f82011682018060405250810190610ac89190611ac5565b600281905584515160200151909150610af3906001600160a01b03168385840363ffffffff6111c816565b610b0f5760405162461bcd60e51b815260040161016690611d67565b610b19565b506002545b600980546040805160208084028201810190925282815260609390929091830182828015610b7057602002820191906000526020600020905b81546001600160a01b03168152600190910190602001808311610b52575b50506004549394505050505b8151811015610bd7576207a1205a1080610bb85750610bb6828281518110610ba057fe5b60200260200101516001600160a01b0316611332565b155b15610bcf5760045550600094506108119350505050565b600101610b7c565b506000805460ff60a01b1916600160a01b17905584516020808201515191510151610c14916001600160a01b03909116908663ffffffff6111c816565b610c305760405162461bcd60e51b815260040161016690611c95565b600080548651805160209081015191810151805190820151909101516040516320061d3b60e21b81526001600160a01b039094169463801874ec94610c7e94938a9390929091600401611ba7565b602060405180830381600087803b158015610c9857600080fd5b505af1158015610cac573d6000803e3d6000fd5b505050506040513d601f19601f82011682018060405250810190610cd091906118c3565b610cec5760405162461bcd60e51b815260040161016690611e7b565b8451805151610cfa91611387565b5060019695505050505050565b606060006060846001600160a01b03168585604051602401610d2a929190611bdb565b60408051601f198184030181529181526020820180516001600160e01b031663023e3b7360e41b17905251610d5f9190611b1f565b600060405180830381855afa9150503d8060008114610d9a576040519150601f19603f3d011682016040523d82523d6000602084013e610d9f565b606091505b5091509150818190610dc45760405162461bcd60e51b81526004016101669190611c52565b50949350505050565b610dd56115e3565b610ddf84846113cc565b815260208101919091526040810191909152919050565b8051602082015160009190610e0b82826113d3565b949350505050565b6060815160001415610e59575060408051808201909152601c81527f636170747572656420656d7074792072657665727420627566666572000000006020820152610811565b6308c379a0610e6e61023a8460006004610dcd565b63ffffffff1614610e99576040518060600160405280603f81526020016120a1603f91399050610811565b6060610eb4610eaf84600463ffffffff6113f016565b611414565b9050805160001415610efb57505060408051808201909152601d81527f636170747572656420656d70747920726576657274206d6573736167650000006020820152610811565b606081806020019051810190610e0b9190611932565b81610f1e57805181602001fd5b805181602001f35b602001516001600160a01b0316151590565b60006060600060608660200151602001516001600160a01b03165a8860200151602001518960200151604001518a6020015160600151328c600001518b8d604051602001610f8c9796959493929190611b4f565b60408051601f1981840301815290829052610fa691611b1f565b6000604051808303818686f4925050503d8060008114610fe2576040519150601f19603f3d011682016040523d82523d6000602084013e610fe7565b606091505b50909890975095505050505050565b6001600160a01b03811660009081526020839052604090205460ff161561101c5761104c565b6001828101805491820181556000908152602090200180546001600160a01b0319166001600160a01b0383161790555b5050565b600080546040516308f6049560e01b81526001600160a01b03909116906308f6049590611081908590600401611c52565b602060405180830381600087803b15801561109b57600080fd5b505af11580156110af573d6000803e3d6000fd5b505050506040513d601f19601f820116820180604052508101906101de91906118c3565b6110db61158c565b818060200190518101906101de9190611a07565b6000806060836001600160a01b03168460405160240161110f9190611b3b565b60408051601f198184030181529181526020820180516001600160e01b03166305f0caad60e31b179052516111449190611b1f565b600060405180830381855af49150503d806000811461117f576040519150601f19603f3d011682016040523d82523d6000602084013e611184565b606091505b5091509150805160201461119d57600092505050610811565b6000818060200190518101906111b391906118c3565b90508280156111bf5750805b95945050505050565b600080846001600160a01b031684846040516024016111e8929190611bff565b60408051601f198184030181529181526020820180516001600160e01b031663a9059cbb60e01b1790525161121d9190611b1f565b6000604051808303816000865af19150503d806000811461125a576040519150601f19603f3d011682016040523d82523d6000602084013e61125f565b606091505b50909695505050505050565b6112736115ac565b818060200190518101906101de9190611a23565b60608160405160200161129a9190611f9f565b6040516020818303038152906040529050919050565b60006112e9670de0b6b3a76400006112dd856020015160200151606001518561146d90919063ffffffff16565b9063ffffffff6114a716565b9392505050565b8051516040908101516020808401518385015193516000946113159493909101611b09565b604051602081830303815290604052805190602001209050919050565b6000806060836001600160a01b0316846040516024016113529190611b3b565b60408051601f198184030181529181526020820180516001600160e01b0316639f7c73e960e01b179052516111449190611b1f565b816001600160a01b03167f8118f0dfd16240978600a1121acd44dd113e1071790496f111043c87672720bf826040516113c09190611f9f565b60405180910390a25050565b0160200190565b6000600180600884021b0380836020038503511691505092915050565b6113f86115e3565b818351101561140657825191505b6112e9838384865103610dcd565b60208082015160408051828152601f19601f84011681019093019052606091818015611447576020820181803683370190505b5083519092506000611458846114e9565b90506114658183856114ef565b505050919050565b60008261147c575060006101de565b8282028284828161148957fe5b04146112e95760405162461bcd60e51b815260040161016690611e3a565b60006112e983836040518060400160405280601a81526020017f536166654d6174683a206469766973696f6e206279207a65726f00000000000081525061152d565b60200190565b5b6020811061150f578151835260209283019290910190601f19016114f0565b600180600883602003021b0380845116811984511617845250505050565b6000818361154e5760405162461bcd60e51b81526004016101669190611c52565b50600083858161155a57fe5b0495945050505050565b604051806040016040528060006001600160a01b03168152602001611587611604565b905290565b604051806040016040528061159f611604565b815260200161158761162b565b6040518060a001604052806115bf61158c565b81526000602082018190526040820181905260608083019190915260809091015290565b60405180606001604052806000815260200160008152602001600081525090565b60408051608081018252600080825260208201819052918101829052606081019190915290565b604051806040016040528060006001600160a01b031681526020016115876040518060800160405280600081526020016000815260200160008152602001600081525090565b600082601f830112611681578081fd5b815161169461168f82612034565b61200d565b91508082528360208285010111156116ab57600080fd5b6116bc816020840160208601612058565b5092915050565b600082601f8301126116d3578081fd5b81356116e161168f82612034565b91508082528360208285010111156116f857600080fd5b8060208401602084013760009082016020015292915050565b6000818303610120811215611724578182fd5b61172e604061200d565b9150608081121561173e57600080fd5b611748608061200d565b835161175381612088565b8152602084015161176381612088565b60208201526040848101519082015260608085015190820152825260a0607f198201121561179057600080fd5b61179a604061200d565b60808401516117a881612088565b81526080609f19830112156117bc57600080fd5b6117c6608061200d565b915060a0840151825260c0840151602083015260e084015160408301526101008401516060830152816020820152806020840152505092915050565b600060208284031215611813578081fd5b81356112e981612088565b60008060408385031215611830578081fd5b823561183b81612088565b9150602083013567ffffffffffffffff811115611856578182fd5b611862858286016116c3565b9150509250929050565b600080600060608486031215611880578081fd5b833561188b81612088565b925060208401359150604084013567ffffffffffffffff8111156118ad578182fd5b6118b9868287016116c3565b9150509250925092565b6000602082840312156118d4578081fd5b815180151581146112e9578182fd5b6000602082840312156118f4578081fd5b813567ffffffffffffffff81111561190a578182fd5b610e0b848285016116c3565b600060208284031215611927578081fd5b81516112e981612088565b600060208284031215611943578081fd5b815167ffffffffffffffff811115611959578182fd5b610e0b84828501611671565b600081830360a0811215611977578182fd5b611981604061200d565b835161198c81612088565b81526080601f198301121561199f578283fd5b6119a9608061200d565b9150602084015180151581146119bd578384fd5b825260408401516119cd81612088565b602083015260608401516119e081612088565b604083015260808401516119f381612088565b606083015260208101919091529392505050565b60006101208284031215611a19578081fd5b6112e98383611711565b600060208284031215611a34578081fd5b815167ffffffffffffffff80821115611a4b578283fd5b8184016101a08187031215611a5e578384fd5b611a6860a061200d565b9250611a748682611711565b835261012081015160208401526101408101516040840152610160810151606084015261018081015182811115611aa9578485fd5b611ab587828401611671565b6080850152509195945050505050565b600060208284031215611ad6578081fd5b5051919050565b60008151808452611af5816020860160208601612058565b601f01601f19169290920160200192915050565b9283526020830191909152604082015260600190565b60008251611b31818460208701612058565b9190910192915050565b6001600160a01b0391909116815260200190565b6001600160a01b0388811682528781166020830152868116604083015285811660608301528416608082015260a0810183905260e060c08201819052600090611b9a90830184611add565b9998505050505050505050565b6001600160a01b03958616815293851660208501529190931660408301526060820192909252608081019190915260a00190565b6001600160a01b0383168152604060208201819052600090610e0b90830184611add565b6001600160a01b03929092168252602082015260400190565b901515815260200190565b600085825284602083015283604083015260806060830152611c486080830184611add565b9695505050505050565b6000602082526112e96020830184611add565b60208082526016908201527563616e277420696e697469616c697a6520747769636560501b604082015260600190565b6020808252601490820152731ad9595c195c881c185e5bdd5d0819985a5b195960621b604082015260600190565b6020808252601190820152701b1bd85b8818995a5b99c81c995c185a59607a1b604082015260600190565b6020808252601f908201527f66756e6374696f6e2068616e646c6572206e6f74207265676973746572656400604082015260600190565b60208082526022908201527f756e617574686f72697a65642076696577206c617965722064656c656761746960408201526137b760f11b606082015260800190565b6020808252601590820152741d1bdad95b881d1c985b9cd9995c8819985a5b1959605a1b604082015260600190565b6020808252601490820152731c1c9bde1e481c9958dbdc99081a5b9d985b1a5960621b604082015260600190565b60208082526029908201527f626f72726f772070726f78792063616e206f6e6c792062652075736564206279604082015268103137b93937bbb2b960b91b606082015260800190565b6020808252601390820152721b1bd85b88185b1c9958591e481c995c185a59606a1b604082015260600190565b60208082526021908201527f536166654d6174683a206d756c7469706c69636174696f6e206f766572666c6f6040820152607760f81b606082015260800190565b60208082526023908201527f6c6f616e207265736f6c7574696f6e206e6f74696669636174696f6e206661696040820152621b195960ea1b606082015260800190565b60208082526019908201527f70726f7879206973206265696e67206c69717569646174656400000000000000604082015260600190565b60208082526017908201527f6c6f616e207265736f6c7574696f6e206661696c757265000000000000000000604082015260600190565b6020808252602a908201527f6661696c656420746f207472616e73666572207265636c61696d65642066756e604082015269191cc81d1bc81c1bdbdb60b21b606082015260800190565b9283526001600160a01b039190911660208301526001600160e01b031916604082015260600190565b815180516001600160a01b0390811683526020808301518216818501526040808401518186015260609384015184860152948101518051909216608085015290810151805160a08501529081015160c08401529283015160e083015291909101516101008201526101200190565b60405181810167ffffffffffffffff8111828210171561202c57600080fd5b604052919050565b600067ffffffffffffffff82111561204a578081fd5b50601f01601f191660200190565b60005b8381101561207357818101518382015260200161205b565b83811115612082576000848401525b50505050565b6001600160a01b038116811461209d57600080fd5b5056fe6361707475726564206120726576657274206572726f722c2062757420697420646f65736e277420636f6e666f726d20746f20746865207374616e64617264a264697066735822122057135540c0b688f50b81e028a4fd7d6605c3acd11d7f940b1b7f55d286f6679864736f6c63430006040033a2646970667358221220037c2fbb6b5de28fb40e3197e400de2424c94cd930102a5e571b16cb20cafff864736f6c63430006040033",
  "source": "pragma solidity ^0.6.0;\npragma experimental ABIEncoderV2;\n\nimport { Ownable } from \"openzeppelin-solidity/contracts/access/Ownable.sol\";\nimport { IShifterRegistry } from \"./interfaces/IShifterRegistry.sol\";\nimport { IShifter } from \"./interfaces/IShifter.sol\";\nimport { ShifterPoolLib } from \"./ShifterPoolLib.sol\";\nimport { ShifterBorrowProxyLib } from \"./ShifterBorrowProxyLib.sol\";\nimport { ShifterBorrowProxyFactoryLib } from \"./ShifterBorrowProxyFactoryLib.sol\";\nimport { BorrowProxy } from \"./BorrowProxy.sol\";\nimport { BorrowProxyLib } from \"./BorrowProxyLib.sol\";\nimport { TokenUtils } from \"./utils/TokenUtils.sol\";\nimport { ViewExecutor } from \"./utils/ViewExecutor.sol\";\nimport { LiquidityToken } from \"./LiquidityToken.sol\";\n\ncontract ShifterPool is Ownable, ViewExecutor {\n  using ShifterPoolLib for *;\n  using TokenUtils for *;\n  using ShifterBorrowProxyLib for *;\n  using ShifterBorrowProxyFactoryLib for *;\n  using BorrowProxyLib for *;\n  ShifterPoolLib.Isolate isolate;\n  function setup(address shifterRegistry, uint256 minTimeout, uint256 poolFee, BorrowProxyLib.ModuleRegistration[] memory modules, ShifterPoolLib.LiquidityTokenLaunch[] memory tokenLaunches) public onlyOwner {\n    require(isolate.shifterRegistry == address(0x0), \"already initialized\");\n    isolate.shifterRegistry = shifterRegistry;\n    isolate.minTimeout = minTimeout;\n    isolate.poolFee = poolFee;\n    for (uint256 i = 0; i < modules.length; i++) {\n      BorrowProxyLib.ModuleRegistration memory registration = modules[i];\n      isolate.registry.registryRegisterModule(registration);\n    }\n    for (uint256 i = 0; i < tokenLaunches.length; i++) {\n      ShifterPoolLib.LiquidityTokenLaunch memory launch = tokenLaunches[i];\n      isolate.tokenToLiquidityToken[launch.token] = launch.liqToken;\n    }\n  }\n  function executeBorrow(ShifterBorrowProxyLib.LiquidityRequestParcel memory liquidityRequestParcel, uint256 bond, uint256 timeoutExpiry) public payable {\n    require(liquidityRequestParcel.gasRequested == msg.value, \"supplied ether is not equal to gas requested\");\n    bytes32 requestHash = liquidityRequestParcel.computeLiquidityRequestHash();\n    require(liquidityRequestParcel.validateSignature(requestHash), \"liquidity request signature rejected\");\n    ShifterBorrowProxyLib.LiquidityRequest memory liquidityRequest = liquidityRequestParcel.request;\n    bytes32 borrowerSalt = liquidityRequest.computeBorrowerSalt();\n    address payable proxyAddress = address(uint160(borrowerSalt.deriveBorrowerAddress()));\n    require(!isolate.borrowProxyController.isInitialized(proxyAddress), \"proxy has already been initialized\");\n    ShifterBorrowProxyLib.LenderRecord memory loan;\n    loan.keeper = msg.sender;\n    loan.params = isolate.computeLoanParams(liquidityRequest.amount, bond, timeoutExpiry);\n    ShifterBorrowProxyLib.ProxyRecord memory proxyRecord = ShifterBorrowProxyLib.ProxyRecord({\n      request: liquidityRequest,\n      loan: loan\n    });\n    bytes memory data = proxyRecord.encodeProxyRecord();\n    require(LiquidityToken(isolate.getLiquidityToken(liquidityRequest.token)).loan(proxyAddress, proxyRecord.computePostFee()), \"insufficient funds in liquidity pool\");\n    isolate.borrowProxyController.mapProxyRecord(proxyAddress, data);\n    isolate.borrowProxyController.setProxyOwner(proxyAddress, liquidityRequest.borrower);\n    liquidityRequest.borrower.transfer(msg.value);\n    require(liquidityRequest.token.transferTokenFrom(msg.sender, address(this), bond), \"bond submission failed\");\n    require(borrowerSalt.deployBorrowProxy() == proxyAddress, \"proxy deployment failed\");\n    require(BorrowProxy(proxyAddress).setup(liquidityRequest.borrower), \"setup phase failure\");\n    require(liquidityRequestParcel.actions.triggerActions(proxyAddress), \"iniialization actions fail\");\n    \n    BorrowProxyLib.emitBorrowProxyMade(liquidityRequest.borrower, proxyAddress, data);\n  }\n  function validateProxyRecordHandler(bytes memory proxyRecord) public view returns (bool) {\n    return isolate.borrowProxyController.validateProxyRecord(msg.sender, proxyRecord);\n  }\n  function getProxyOwnerHandler(address user) public view returns (address) {\n    return isolate.borrowProxyController.getProxyOwner(user);\n  }\n  function getShifterHandler(address token) public view returns (IShifter) {\n    return isolate.getShifter(token);\n  }\n  function getLiquidityTokenHandler(address token) public view returns (LiquidityToken) {\n    return LiquidityToken(isolate.getLiquidityToken(token));\n  }\n  function fetchModuleHandler(address to, bytes4 sig) public view returns (BorrowProxyLib.Module memory) {\n    return isolate.registry.resolveModule(to, sig);\n  }\n  function relayResolveLoan(address token, address liquidityToken, address keeper, uint256 bond, uint256 repay) public returns (bool) {\n    require(isolate.borrowProxyController.proxyInitializerRecord[msg.sender] != bytes32(0x0), \"not a registered borrow proxy\");\n    if (bond != 0) require(token.sendToken(keeper, bond), \"failed to return bond to keeper\");\n    if (repay != 0) require(token.sendToken(liquidityToken, repay), \"failed to repay lost funds\");\n    require(LiquidityToken(liquidityToken).resolveLoan(msg.sender), \"loan resolution failure\");\n    return true;\n  }\n}\n",
  "sourcePath": "/home/ray/0confirmation/packages/0confirmation-sol/contracts/ShifterPool.sol",
  "compiler": {
    "name": "solc",
    "version": "0.6.4+commit.1dca32f3.Emscripten.clang"
  },
  "schemaVersion": "3.0.23",
  "updatedAt": "2020-04-06T03:54:46.595Z",
  "devdoc": {
    "methods": {
      "owner()": {
        "details": "Returns the address of the current owner."
      },
      "renounceOwnership()": {
        "details": "Leaves the contract without owner. It will not be possible to call `onlyOwner` functions anymore. Can only be called by the current owner.     * NOTE: Renouncing ownership will leave the contract without an owner, thereby removing any functionality that is only available to the owner."
      },
      "transferOwnership(address)": {
        "details": "Transfers ownership of the contract to a new account (`newOwner`). Can only be called by the current owner."
      }
    }
  },
  "userdoc": {
    "methods": {}
  }
}