{
  "contractName": "ShifterMock",
  "abi": [
    {
      "inputs": [],
      "stateMutability": "nonpayable",
      "type": "constructor"
    },
    {
      "inputs": [],
      "name": "token",
      "outputs": [
        {
          "internalType": "address",
          "name": "",
          "type": "address"
        }
      ],
      "stateMutability": "view",
      "type": "function"
    },
    {
      "inputs": [
        {
          "internalType": "bytes32",
          "name": "",
          "type": "bytes32"
        },
        {
          "internalType": "uint256",
          "name": "amount",
          "type": "uint256"
        },
        {
          "internalType": "bytes32",
          "name": "",
          "type": "bytes32"
        },
        {
          "internalType": "bytes",
          "name": "",
          "type": "bytes"
        }
      ],
      "name": "shiftIn",
      "outputs": [
        {
          "internalType": "uint256",
          "name": "",
          "type": "uint256"
        }
      ],
      "stateMutability": "nonpayable",
      "type": "function"
    }
  ],
  "bytecode": "0x608060405234801561001057600080fd5b5060405161001d9061005f565b604051809103906000f080158015610039573d6000803e3d6000fd5b50600080546001600160a01b0319166001600160a01b039290921691909117905561006c565b610c8c8061025e83390190565b6101e38061007b6000396000f3fe608060405234801561001057600080fd5b50600436106100365760003560e01c8063bb4a1d8c1461003b578063fc0c546a14610106575b600080fd5b6100f46004803603608081101561005157600080fd5b8135916020810135916040820135919081019060808101606082013564010000000081111561007f57600080fd5b82018360208201111561009157600080fd5b803590602001918460018302840111640100000000831117156100b357600080fd5b91908080601f01602080910402602001604051908101604052809392919081815260200183838082843760009201919091525092955061012a945050505050565b60408051918252519081900360200190f35b61010e61019e565b604080516001600160a01b039092168252519081900360200190f35b60008054604080516340c10f1960e01b81523360048201526024810187905290516001600160a01b03909216916340c10f1991604480820192869290919082900301818387803b15801561017d57600080fd5b505af1158015610191573d6000803e3d6000fd5b5095979650505050505050565b6000546001600160a01b03168156fea2646970667358221220d0832056fc5ee356151af58b3ddbf1ea17043ea91971ac57094e97d04f4f658f64736f6c63430006020033608060405234801561001057600080fd5b5060408051808201825260078152667a65726f42544360c81b6020808301918252835180850190945260048452637a42544360e01b90840152815191929160089161005e916003919061008f565b50815161007290600490602085019061008f565b506005805460ff191660ff929092169190911790555061012a9050565b828054600181600116156101000203166002900490600052602060002090601f016020900481019282601f106100d057805160ff19168380011785556100fd565b828001600101855582156100fd579182015b828111156100fd5782518255916020019190600101906100e2565b5061010992915061010d565b5090565b61012791905b808211156101095760008155600101610113565b90565b610b53806101396000396000f3fe608060405234801561001057600080fd5b50600436106100b45760003560e01c806340c10f191161007157806340c10f191461021057806370a082311461023e57806395d89b4114610264578063a457c2d71461026c578063a9059cbb14610298578063dd62ed3e146102c4576100b4565b806306fdde03146100b9578063095ea7b31461013657806318160ddd1461017657806323b872dd14610190578063313ce567146101c657806339509351146101e4575b600080fd5b6100c16102f2565b6040805160208082528351818301528351919283929083019185019080838360005b838110156100fb5781810151838201526020016100e3565b50505050905090810190601f1680156101285780820380516001836020036101000a031916815260200191505b509250505060405180910390f35b6101626004803603604081101561014c57600080fd5b506001600160a01b038135169060200135610388565b604080519115158252519081900360200190f35b61017e6103a5565b60408051918252519081900360200190f35b610162600480360360608110156101a657600080fd5b506001600160a01b038135811691602081013590911690604001356103ab565b6101ce610438565b6040805160ff9092168252519081900360200190f35b610162600480360360408110156101fa57600080fd5b506001600160a01b038135169060200135610441565b61023c6004803603604081101561022657600080fd5b506001600160a01b038135169060200135610495565b005b61017e6004803603602081101561025457600080fd5b50356001600160a01b03166104a3565b6100c16104be565b6101626004803603604081101561028257600080fd5b506001600160a01b03813516906020013561051f565b610162600480360360408110156102ae57600080fd5b506001600160a01b03813516906020013561058d565b61017e600480360360408110156102da57600080fd5b506001600160a01b03813581169160200135166105a1565b60038054604080516020601f600260001961010060018816150201909516949094049384018190048102820181019092528281526060939092909183018282801561037e5780601f106103535761010080835404028352916020019161037e565b820191906000526020600020905b81548152906001019060200180831161036157829003601f168201915b5050505050905090565b600061039c6103956105cc565b84846105d0565b50600192915050565b60025490565b60006103b88484846106bc565b61042e846103c46105cc565b61042985604051806060016040528060288152602001610a88602891396001600160a01b038a166000908152600160205260408120906104026105cc565b6001600160a01b03168152602081019190915260400160002054919063ffffffff61082316565b6105d0565b5060019392505050565b60055460ff1690565b600061039c61044e6105cc565b84610429856001600061045f6105cc565b6001600160a01b03908116825260208083019390935260409182016000908120918c16815292529020549063ffffffff6108ba16565b61049f828261091b565b5050565b6001600160a01b031660009081526020819052604090205490565b60048054604080516020601f600260001961010060018816150201909516949094049384018190048102820181019092528281526060939092909183018282801561037e5780601f106103535761010080835404028352916020019161037e565b600061039c61052c6105cc565b8461042985604051806060016040528060258152602001610af960259139600160006105566105cc565b6001600160a01b03908116825260208083019390935260409182016000908120918d1681529252902054919063ffffffff61082316565b600061039c61059a6105cc565b84846106bc565b6001600160a01b03918216600090815260016020908152604080832093909416825291909152205490565b3390565b6001600160a01b0383166106155760405162461bcd60e51b8152600401808060200182810382526024815260200180610ad56024913960400191505060405180910390fd5b6001600160a01b03821661065a5760405162461bcd60e51b8152600401808060200182810382526022815260200180610a406022913960400191505060405180910390fd5b6001600160a01b03808416600081815260016020908152604080832094871680845294825291829020859055815185815291517f8c5be1e5ebec7d5bd14f71427d1e84f3dd0314c0f7b2291e5b200ac8c7c3b9259281900390910190a3505050565b6001600160a01b0383166107015760405162461bcd60e51b8152600401808060200182810382526025815260200180610ab06025913960400191505060405180910390fd5b6001600160a01b0382166107465760405162461bcd60e51b8152600401808060200182810382526023815260200180610a1d6023913960400191505060405180910390fd5b610751838383610a17565b61079481604051806060016040528060268152602001610a62602691396001600160a01b038616600090815260208190526040902054919063ffffffff61082316565b6001600160a01b0380851660009081526020819052604080822093909355908416815220546107c9908263ffffffff6108ba16565b6001600160a01b038084166000818152602081815260409182902094909455805185815290519193928716927fddf252ad1be2c89b69c2b068fc378daa952ba7f163c4a11628f55a4df523b3ef92918290030190a3505050565b600081848411156108b25760405162461bcd60e51b81526004018080602001828103825283818151815260200191508051906020019080838360005b8381101561087757818101518382015260200161085f565b50505050905090810190601f1680156108a45780820380516001836020036101000a031916815260200191505b509250505060405180910390fd5b505050900390565b600082820183811015610914576040805162461bcd60e51b815260206004820152601b60248201527f536166654d6174683a206164646974696f6e206f766572666c6f770000000000604482015290519081900360640190fd5b9392505050565b6001600160a01b038216610976576040805162461bcd60e51b815260206004820152601f60248201527f45524332303a206d696e7420746f20746865207a65726f206164647265737300604482015290519081900360640190fd5b61098260008383610a17565b600254610995908263ffffffff6108ba16565b6002556001600160a01b0382166000908152602081905260409020546109c1908263ffffffff6108ba16565b6001600160a01b0383166000818152602081815260408083209490945583518581529351929391927fddf252ad1be2c89b69c2b068fc378daa952ba7f163c4a11628f55a4df523b3ef9281900390910190a35050565b50505056fe45524332303a207472616e7366657220746f20746865207a65726f206164647265737345524332303a20617070726f766520746f20746865207a65726f206164647265737345524332303a207472616e7366657220616d6f756e7420657863656564732062616c616e636545524332303a207472616e7366657220616d6f756e74206578636565647320616c6c6f77616e636545524332303a207472616e736665722066726f6d20746865207a65726f206164647265737345524332303a20617070726f76652066726f6d20746865207a65726f206164647265737345524332303a2064656372656173656420616c6c6f77616e63652062656c6f77207a65726fa264697066735822122062ed26a6f49b6d623aa96022b4e3f65dc72df652b9c85f99fb80097e8d1130be64736f6c63430006020033",
  "source": "pragma solidity ^0.6.0;\n\nimport { ShifterERC20Mock } from \"./ShifterERC20Mock.sol\";\n\ncontract ShifterMock {\n  address public token;\n  constructor() public {\n    token = address(new ShifterERC20Mock());\n  }\n  function shiftIn(bytes32 /* pHash */, uint256 amount , bytes32 /* nHash */, bytes memory /* darknode signature */) public returns (uint256) {\n    ShifterERC20Mock(token).mint(msg.sender, amount);\n    return amount;\n  }\n}\n    \n",
  "sourcePath": "/home/ray/0confirmation/packages/0confirmation-sol/contracts/mock/ShifterMock.sol",
  "compiler": {
    "name": "solc",
    "version": "0.6.2+commit.bacdbe57.Emscripten.clang"
  },
  "schemaVersion": "3.0.23",
  "updatedAt": "2020-04-05T23:24:01.716Z",
  "devdoc": {
    "methods": {}
  },
  "userdoc": {
    "methods": {}
  }
}