{
  "contractName": "ShifterBorrowProxy",
  "abi": [
    {
      "inputs": [],
      "stateMutability": "nonpayable",
      "type": "constructor"
    },
    {
      "stateMutability": "payable",
      "type": "fallback"
    },
    {
      "inputs": [
        {
          "internalType": "bytes",
          "name": "creationCode",
          "type": "bytes"
        },
        {
          "internalType": "bytes",
          "name": "context",
          "type": "bytes"
        }
      ],
      "name": "_executeSafeView",
      "outputs": [],
      "stateMutability": "nonpayable",
      "type": "function"
    },
    {
      "inputs": [
        {
          "internalType": "address",
          "name": "to",
          "type": "address"
        },
        {
          "internalType": "uint256",
          "name": "value",
          "type": "uint256"
        },
        {
          "internalType": "bytes",
          "name": "payload",
          "type": "bytes"
        }
      ],
      "name": "proxy",
      "outputs": [],
      "stateMutability": "nonpayable",
      "type": "function"
    },
    {
      "inputs": [
        {
          "internalType": "address",
          "name": "owner",
          "type": "address"
        },
        {
          "internalType": "address",
          "name": "token",
          "type": "address"
        }
      ],
      "name": "setup",
      "outputs": [
        {
          "internalType": "bool",
          "name": "",
          "type": "bool"
        }
      ],
      "stateMutability": "nonpayable",
      "type": "function"
    },
    {
      "stateMutability": "payable",
      "type": "receive"
    },
    {
      "inputs": [
        {
          "internalType": "bytes",
          "name": "data",
          "type": "bytes"
        }
      ],
      "name": "repayLoan",
      "outputs": [
        {
          "internalType": "bool",
          "name": "",
          "type": "bool"
        }
      ],
      "stateMutability": "nonpayable",
      "type": "function"
    },
    {
      "inputs": [
        {
          "internalType": "bytes",
          "name": "data",
          "type": "bytes"
        }
      ],
      "name": "defaultLoan",
      "outputs": [
        {
          "internalType": "bool",
          "name": "",
          "type": "bool"
        }
      ],
      "stateMutability": "nonpayable",
      "type": "function"
    },
    {
      "inputs": [
        {
          "components": [
            {
              "internalType": "address",
              "name": "to",
              "type": "address"
            },
            {
              "internalType": "bytes",
              "name": "txData",
              "type": "bytes"
            }
          ],
          "internalType": "struct ShifterBorrowProxyLib.InitializationAction[]",
          "name": "actions",
          "type": "tuple[]"
        }
      ],
      "name": "receiveInitializationActions",
      "outputs": [],
      "stateMutability": "nonpayable",
      "type": "function"
    }
  ],
  "bytecode": "0x608060405234801561001057600080fd5b50613285806100206000396000f3fe6080604052600436106100595760003560e01c80632692f25a146100625780632d34ba791461008257806356b8e146146100b85780635f7d2b57146100d85780635fe75958146100f8578063c4ddf3631461011857610060565b3661006057005b005b34801561006e57600080fd5b5061006061007d3660046124c4565b610138565b34801561008e57600080fd5b506100a261009d36600461248c565b61035e565b6040516100af9190612b7b565b60405180910390f35b3480156100c457600080fd5b506100a26100d336600461263b565b6103cc565b3480156100e457600080fd5b506100606100f336600461266d565b610780565b34801561010457600080fd5b5061006061011336600461251a565b6107cb565b34801561012457600080fd5b506100a261013336600461263b565b610810565b6001546001600160a01b031633148061015b57506000546001600160a01b031633145b8061016557503330145b61018a5760405162461bcd60e51b815260040161018190612d74565b60405180910390fd5b60006101a66101a18383600463ffffffff610ca416565b610ccd565b60e01b90506101b3612030565b6101c56000868463ffffffff610cea16565b6002546001600160a01b03166020820152600054909150600160a01b900460ff1680156101f55750604081015151155b156102985760006060866001600160a01b031686866040516102179190612a4e565b60006040518083038185875af1925050503d8060008114610254576040519150601f19603f3d011682016040523d82523d6000602084013e610259565b606091505b5091509150816102855761026c81610d9d565b60405162461bcd60e51b81526004016101819190612bb5565b61028f8282610e90565b50505050610359565b6102a58160400151610ea5565b6102c15760405162461bcd60e51b815260040161018190612cab565b600060606102d683868863ffffffff610eb716565b91509150816102e85761026c81610d9d565b60408084015101516001600160a01b0316156103185760408084015101516103189060079063ffffffff610fc716565b6040830151606001516001600160a01b03161561034a5760408301516060015161034a9060099063ffffffff610fc716565b6103548282610e90565b505050505b505050565b6001546000906001600160a01b03161561038a5760405162461bcd60e51b815260040161018190612c22565b5060008054336001600160a01b0319918216179091556001805482166001600160a01b0385811691909117825560028054909316908416179091555b92915050565b60065460009060ff16156103f25760405162461bcd60e51b815260040161018190612c80565b600054600160a01b900460ff161561041c5760405162461bcd60e51b815260040161018190612df4565b61042582611022565b6104415760405162461bcd60e51b815260040161018190612d11565b610449612054565b610452836110a5565b60088054604080516020808402820181019092528281529394506060939291908301828280156104ab57602002820191906000526020600020905b81546001600160a01b0316815260019091019060200180831161048d575b50505050509050438260200151602001516000015110610774576006805461ff0019166101001790556004545b8151811015610530576207a1205a108061051457506105128282815181106104fc57fe5b60200260200101516001600160a01b03166110c1565b155b1561052857600455506000915061077b9050565b6001016104d8565b5080516004908155600080548451602001516040516370a0823160e01b81526001600160a01b039283169491909216916370a082319161057291309101612a6a565b60206040518083038186803b15801561058a57600080fd5b505afa15801561059e573d6000803e3d6000fd5b505050506040513d601f19601f820116820180604052508101906105c291906128e0565b8451602001519091506105e5906001600160a01b0316838363ffffffff61114216565b6106015760405162461bcd60e51b815260040161018190612f13565b602080850151810151015184516060015182101561063b578451606001518203811115610637578451606001518203900361063b565b5060005b8451602001516040516303cc556d60e51b8152828403916001600160a01b0386169163801874ec9190839063798aada09061067a908490600401612a6a565b60206040518083038186803b15801561069257600080fd5b505afa1580156106a6573d6000803e3d6000fd5b505050506040513d601f19601f820116820180604052508101906106ca91906126cd565b60208a0151516040516001600160e01b031960e086901b1681526106f79392919088908890600401612a7e565b602060405180830381600087803b15801561071157600080fd5b505af1158015610725573d6000803e3d6000fd5b505050506040513d601f19601f82011682018060405250810190610749919061261f565b6107655760405162461bcd60e51b815260040161018190612edc565b6001965050505050505061077b565b6000925050505b919050565b6000610795600061078f6111b4565b856111d8565b905060606107ba6107b56001600160a01b0384168563ffffffff61124a16565b6112d4565b90506107c5816112fd565b50505050565b6000546001600160a01b031633146107f55760405162461bcd60e51b815260040161018190612d3f565b606061080082611305565b905061080c30826115c4565b5050565b600061081a612074565b61082383611609565b905061083a6108358260000151611625565b611022565b6108565760405162461bcd60e51b815260040161018190612d11565b600654610100900460ff161561087e5760405162461bcd60e51b815260040161018190612ea5565b80518051606001516000916108989163ffffffff61163816565b60008054845151602001516040516303cc556d60e51b815293945091926001600160a01b039091169163798aada0916108d49190600401612a6a565b60206040518083038186803b1580156108ec57600080fd5b505afa158015610900573d6000803e3d6000fd5b505050506040513d601f19601f8201168201806040525081019061092491906126cd565b60065490915060009060ff16610ab1576006805460ff19166001179055600054845151602001516040516307ef1e3760e21b81526001600160a01b0390921691631fbc78dc9161097691600401612a6a565b60206040518083038186803b15801561098e57600080fd5b505afa1580156109a2573d6000803e3d6000fd5b505050506040513d601f19601f820116820180604052508101906109c691906126cd565b6001600160a01b031663159ab14d8560600151866000015160000151606001516109ef88611671565b88608001516040518563ffffffff1660e01b8152600401610a139493929190612b86565b602060405180830381600087803b158015610a2d57600080fd5b505af1158015610a41573d6000803e3d6000fd5b505050506040513d601f19601f82011682018060405250810190610a6591906128e0565b600381905584515160200151909150610a90906001600160a01b03168385840363ffffffff61114216565b610aac5760405162461bcd60e51b815260040161018190612ce2565b610ab6565b506003545b600a80546040805160208084028201810190925282815260609390929091830182828015610b0d57602002820191906000526020600020905b81546001600160a01b03168152600190910190602001808311610aef575b50506005549394505050505b8151811015610b74576207a1205a1080610b555750610b53828281518110610b3d57fe5b60200260200101516001600160a01b031661168a565b155b15610b6c57600555506000945061077b9350505050565b600101610b19565b506000805460ff60a01b1916600160a01b17905584516020808201515191510151610bb1916001600160a01b03909116908663ffffffff61114216565b610bcd5760405162461bcd60e51b815260040161018190612c52565b600080548651805160209081015191810151805190820151909101516040516320061d3b60e21b81526001600160a01b039094169463801874ec94610c1b94938a9390929091600401612a7e565b602060405180830381600087803b158015610c3557600080fd5b505af1158015610c49573d6000803e3d6000fd5b505050506040513d601f19601f82011682018060405250810190610c6d919061261f565b610c895760405162461bcd60e51b815260040161018190612e62565b8451805151610c97916116a2565b5060019695505050505050565b610cac6120ab565b610cb684846116db565b815260208101919091526040810191909152919050565b8051602082015160009190610ce282826116e2565b949350505050565b610cf2612030565b604080516060810182526001600160a01b03808616825260028701548116602083015286548351630220891b60e51b81529293840192911690634411236090610d419088908890600401612ab2565b608060405180830381600087803b158015610d5b57600080fd5b505af1158015610d6f573d6000803e3d6000fd5b505050506040513d601f19601f82011682018060405250810190610d93919061271b565b9052949350505050565b6060815160001415610de3575060408051808201909152601c81527f636170747572656420656d707479207265766572742062756666657200000000602082015261077b565b6308c379a0610df86101a18460006004610ca4565b63ffffffff1614610e23576040518060600160405280603f8152602001613211603f9139905061077b565b6060610e3e610e3984600463ffffffff6116ff16565b611723565b9050805160001415610e8557505060408051808201909152601d81527f636170747572656420656d70747920726576657274206d657373616765000000602082015261077b565b6060610ce282611792565b81610e9d57805181602001fd5b805181602001f35b602001516001600160a01b0316151590565b60006060600060608660400151602001516001600160a01b03165a610f6a6040518061010001604052808b60400151602001516001600160a01b031681526020018b60400151604001516001600160a01b031681526020018b60400151606001516001600160a01b031681526020018b602001516001600160a01b03168152602001326001600160a01b031681526020018b600001516001600160a01b031681526020018981526020018a8152506117a8565b604051610f779190612a4e565b6000604051808303818686f4925050503d8060008114610fb3576040519150601f19603f3d011682016040523d82523d6000602084013e610fb8565b606091505b50909890975095505050505050565b6001600160a01b03811660009081526020839052604090205460ff1615610fed5761080c565b6001808301805491820181556000908152602090200180546001600160a01b0383166001600160a01b03199091161790555050565b600080546040516308f6049560e01b81526001600160a01b03909116906308f6049590611053908590600401612bb5565b602060405180830381600087803b15801561106d57600080fd5b505af1158015611081573d6000803e3d6000fd5b505050506040513d601f19601f820116820180604052508101906103c6919061261f565b6110ad612054565b818060200190518101906103c69190612782565b6000806060836001600160a01b03166110d9856117fb565b6040516110e69190612a4e565b600060405180830381855af49150503d8060008114611121576040519150601f19603f3d011682016040523d82523d6000602084013e611126565b606091505b5091509150816111395761026c81610d9d565b610ce28161183e565b600080846001600160a01b03166111598585611854565b6040516111669190612a4e565b6000604051808303816000865af19150503d80600081146111a3576040519150601f19603f3d011682016040523d82523d6000602084013e6111a8565b606091505b50909695505050505050565b7fad53495153c7c363e98a26920ec679e0e687636458f6908c91cf6deadb19080190565b600080844710156111fb5760405162461bcd60e51b815260040161018190612f5d565b82516112195760405162461bcd60e51b815260040161018190612bed565b8383516020850187f590506001600160a01b038116610ce25760405162461bcd60e51b815260040161018190612dbd565b6112526120cc565b60006060846001600160a01b0316611269856118aa565b6040516112769190612a4e565b600060405180830381855af49150503d80600081146112b1576040519150601f19603f3d011682016040523d82523d6000602084013e6112b6565b606091505b50604080518082019091529115158252602082015295945050505050565b6060816040516020016112e79190613126565b6040516020818303038152906040529050919050565b805160208201fd5b606061130f6120cc565b611318836118c5565b905061132381611a2d565b60005b83518110156115af5761133882611a3f565b6020820151805160609190600019810190811061135157fe5b60200260200101519050606061137986848151811061136c57fe5b6020026020010151611a53565b905060006001600160a01b03168260008151811061139357fe5b6020026020010151600001516001600160a01b031614156114d0576113b784611aa5565b6113d8826000815181106113c757fe5b602002602001015160200151611aba565b6001600160a01b031684526113eb6120cc565b61140d836000815181106113fb57fe5b60200260200101516020015186611af0565b905061141885611a3f565b6040805160008082526020820190925290508360008151811061143757fe5b602090810291909101810151015280511561147d576114598160200151611b82565b915061146a85602001518584611b98565b8151611478575050506115af565b6114ce565b80602001518360008151811061148f57fe5b6020026020010151606001819052508060000151836000815181106114b057fe5b602002602001015160400190151590811515815250505050506115a7565b505b60005b81518110156115a35760006060306001600160a01b03166115068585815181106114f957fe5b6020026020010151611c91565b6040516115139190612a4e565b6000604051808303816000865af19150503d8060008114611550576040519150601f19603f3d011682016040523d82523d6000602084013e611555565b606091505b50915091508185848151811061156757fe5b602002602001015160400190151590811515815250508085848151811061158a57fe5b60209081029190910101516060015250506001016114d3565b5050505b600101611326565b506115bd8160200151611cb7565b9392505050565b816001600160a01b03167fc9a3215cf323c32a2d0d184a56ff08178b9864d5756e9494fac7ae28361067f5826040516115fd9190612b1b565b60405180910390a25050565b611611612074565b818060200190518101906103c69190612833565b6060816040516020016112e79190613066565b60006115bd670de0b6b3a76400006116658560200151602001516060015185611dbb90919063ffffffff16565b9063ffffffff611df516565b600061167c82611e37565b805190602001209050919050565b6000806060836001600160a01b03166110d985611e5c565b816001600160a01b03167fde947e8b6051ad11f984637f1fd1be5fc4b62225fcbf933475f7783ac5e2bd5f826040516115fd9190613066565b0160200190565b6000600180600884021b0380836020038503511691505092915050565b6117076120ab565b818351101561171557825191505b6115bd838384865103610ca4565b6020810151606090806001600160401b038111801561174157600080fd5b506040519080825280601f01601f19166020018201604052801561176c576020820181803683370190505b508351909250600061177d84611e9f565b905061178a818385611ea5565b505050919050565b6060818060200190518101906103c691906126e9565b6060633c52e5a160e01b826040516024016117c39190612f94565b60408051601f198184030181529190526020810180516001600160e01b03166001600160e01b03199093169290921790915292915050565b60608160405160240161180e9190612a6a565b60408051601f198184030181529190526020810180516001600160e01b03166305f0caad60e31b17905292915050565b6000818060200190518101906103c6919061261f565b606063a9059cbb60e01b8383604051602401611871929190612b02565b60408051601f198184030181529190526020810180516001600160e01b03166001600160e01b0319909316929092179091529392505050565b60606309c5eabe60e01b826040516024016117c39190612bb5565b6118cd6120cc565b606082516001600160401b03811180156118e657600080fd5b5060405190808252806020026020018201604052801561191a57816020015b60608152602001906001900390816119055790505b50905060005b8351811015611a105760408051600180825281830190925290816020015b6119466120e4565b81526020019060019003908161193e5790505082828151811061196557fe5b602002602001018190525083818151811061197c57fe5b60200260200101516000015182828151811061199457fe5b60200260200101516000815181106119a857fe5b60209081029190910101516001600160a01b03909116905283518490829081106119ce57fe5b6020026020010151602001518282815181106119e657fe5b60200260200101516000815181106119fa57fe5b6020908102919091018101510152600101611920565b506040805180820190915260008152602081019190915292915050565b611a3c81602001516000611ee3565b50565b602081015180516103598260018301611ee3565b604080516001808252818301909252606091816020015b611a726120cc565b815260200190600190039081611a6a5790505090508181600081518110611a9557fe5b6020026020010181905250919050565b60208101518051611a3c919060001901611ee3565b60006103c67fad53495153c7c363e98a26920ec679e0e687636458f6908c91cf6deadb19080160001b8380519060200120611ee7565b611af86120cc565b611b0061210a565b82516001600160a01b03166020808301919091528301515115611b695760208301518051606091906000198101908110611b3657fe5b602002602001015190508051600014611b675780600182510381518110611b5957fe5b602090810291909101015182525b505b610ce2611b7582611ef4565b859063ffffffff611f0716565b6060818060200190518101906103c691906125ed565b606081516001600160401b0381118015611bb157600080fd5b50604051908082528060200260200182016040528015611beb57816020015b611bd86120e4565b815260200190600190039081611bd05790505b50848481518110611bf857fe5b60200260200101819052905060008090505b8151811015611c8a57828181518110611c1f57fe5b602002602001015160200151828281518110611c3757fe5b602002602001015160200181905250828181518110611c5257fe5b602002602001015160000151828281518110611c6a57fe5b60209081029190910101516001600160a01b039091169052600101611c0a565b5050505050565b80516020820151604051606092631349792d60e11b926117c39260009190602401612ad5565b60606000805b8351811015611cec57838181518110611cd257fe5b602002602001015151820191508080600101915050611cbd565b50806001600160401b0381118015611d0357600080fd5b50604051908082528060200260200182016040528015611d3d57816020015b611d2a6120e4565b815260200190600190039081611d225790505b5091506000805b845181101561178a5760005b858281518110611d5c57fe5b602002602001015151811015611db257858281518110611d7857fe5b60200260200101518181518110611d8b57fe5b6020026020010151858481518110611d9f57fe5b6020908102919091010152600101611d50565b50600101611d44565b600082611dca575060006103c6565b82820282848281611dd757fe5b04146115bd5760405162461bcd60e51b815260040161018190612e21565b60006115bd83836040518060400160405280601a81526020017f536166654d6174683a206469766973696f6e206279207a65726f000000000000815250611f78565b8051516040908101516020808401518385015193516060946112e79493909101612a38565b606081604051602401611e6f9190612a6a565b60408051601f198184030181529190526020810180516001600160e01b0316639f7c73e960e01b17905292915050565b60200190565b5b60208110611ec5578151835260209283019290910190601f1901611ea6565b600180600883602003021b0380845116811984511617845250505050565b9052565b60006115bd838330611faf565b6060816040516020016112e79190613029565b611f0f6120cc565b606030611f1c8585611ff7565b604051611f299190612a4e565b6000604051808303816000865af19150503d8060008114611f66576040519150601f19603f3d011682016040523d82523d6000602084013e611f6b565b606091505b50915050610ce281612014565b60008183611f995760405162461bcd60e51b81526004016101819190612bb5565b506000838581611fa557fe5b0495945050505050565b60008060ff60f81b838686604051602001611fcd94939291906129ff565b60408051808303601f1901815291905280516020909101206001600160a01b031695945050505050565b6060635f7d2b5760e01b8383604051602401611871929190612bc8565b61201c6120cc565b818060200190518101906103c691906127b4565b604080516060810182526000808252602082015290810161204f61212a565b905290565b6040518060400160405280612067612151565b815260200161204f612188565b6040518060a00160405280612087612054565b81526000602082018190526040820181905260608083019190915260809091015290565b60405180606001604052806000815260200160008152602001600081525090565b60408051808201909152600081526060602082015290565b604080516080810182526000808252606060208301819052928201528181019190915290565b604051806040016040528061211d6120e4565b8152600060209091015290565b60408051608081018252600080825260208201819052918101829052606081019190915290565b6040805160c0810182526000808252602082018190529181018290526060808201839052608082019290925260a081019190915290565b604051806040016040528060006001600160a01b0316815260200161204f6040518060800160405280600081526020016000815260200160008152602001600081525090565b80516103c6816131ed565b600082601f8301126121e9578081fd5b81516121fc6121f782613173565b61314d565b818152915060208083019084810160005b848110156122855781518701604080601f19838c0301121561222e57600080fd5b6122378161314d565b85830151612244816131ed565b8152828201516001600160401b0381111561225e57600080fd5b61226c8c88838701016122ee565b828801525086525050928201929082019060010161220d565b505050505092915050565b805180151581146103c657600080fd5b600082601f8301126122b0578081fd5b81356122be6121f782613192565b91508082528360208285010111156122d557600080fd5b8060208401602084013760009082016020015292915050565b600082601f8301126122fe578081fd5b815161230c6121f782613192565b915080825283602082850101111561232357600080fd5b6123348160208401602086016131c1565b5092915050565b600081830360a081121561234d578182fd5b612357604061314d565b91508251612364816131ed565b82526080601f198201121561237857600080fd5b50612383608061314d565b602083015181526040830151602082015260608301516040820152608083015160608201528060208301525092915050565b600060c082840312156123c6578081fd5b6123d0604061314d565b905081516001600160401b03808211156123e957600080fd5b81840160c081870312156123fc57600080fd5b61240660c061314d565b925061241286826121ce565b835261242186602083016121ce565b602084015260408101516040840152606081015160608401526124478660808301612290565b608084015260a08101518281111561245e57600080fd5b61246a878284016121d9565b60a08501525050508152612481836020840161233b565b602082015292915050565b6000806040838503121561249e578182fd5b82356124a9816131ed565b915060208301356124b9816131ed565b809150509250929050565b6000806000606084860312156124d8578081fd5b83356124e3816131ed565b92506020840135915060408401356001600160401b03811115612504578182fd5b612510868287016122a0565b9150509250925092565b6000602080838503121561252c578182fd5b82356001600160401b0380821115612542578384fd5b81850186601f820112612553578485fd5b803592506125636121f784613173565b83815284810190828601875b868110156125de5781358501604080601f19838f0301121561258f578a8bfd5b6125988161314d565b8a8301356125a5816131ed565b815282820135898111156125b7578c8dfd5b6125c58f8d838701016122a0565b828d01525086525050928701929087019060010161256f565b50909998505050505050505050565b6000602082840312156125fe578081fd5b81516001600160401b03811115612613578182fd5b610ce2848285016121d9565b600060208284031215612630578081fd5b81516115bd81613202565b60006020828403121561264c578081fd5b81356001600160401b03811115612661578182fd5b610ce2848285016122a0565b6000806040838503121561267f578182fd5b82356001600160401b0380821115612695578384fd5b6126a1868387016122a0565b935060208501359150808211156126b6578283fd5b506126c3858286016122a0565b9150509250929050565b6000602082840312156126de578081fd5b81516115bd816131ed565b6000602082840312156126fa578081fd5b81516001600160401b0381111561270f578182fd5b610ce2848285016122ee565b60006080828403121561272c578081fd5b612736608061314d565b6127408484612290565b81526020830151612750816131ed565b60208201526040830151612763816131ed565b60408201526060830151612776816131ed565b60608201529392505050565b600060208284031215612793578081fd5b81516001600160401b038111156127a8578182fd5b610ce2848285016123b5565b6000602082840312156127c5578081fd5b81516001600160401b03808211156127db578283fd5b818401604081870312156127ed578384fd5b6127f7604061314d565b9250805161280481613202565b8352602081015182811115612817578485fd5b612823878284016122ee565b6020850152509195945050505050565b600060208284031215612844578081fd5b81516001600160401b038082111561285a578283fd5b81840160a0818703121561286c578384fd5b61287660a061314d565b9250805182811115612886578485fd5b612892878284016123b5565b8452506020810151602084015260408101516040840152606081015160608401526080810151828111156128c4578485fd5b6128d0878284016122ee565b6080850152509195945050505050565b6000602082840312156128f1578081fd5b5051919050565b6001600160a01b03169052565b6000815180845260208085018081965082840281019150828601855b8581101561296b578284038952815180516001600160a01b03168552858101516040878701819052906129568288018261297e565b9b88019b965050509185019150600101612921565b5091979650505050505050565b15159052565b600081518084526129968160208601602086016131c1565b601f01601f19169290920160200192915050565b600060018060a01b0382511683526020820151608060208501526129d1608085018261297e565b6040840151151560408601526060840151915084810360608601526129f6818361297e565b95945050505050565b6001600160f81b031994909416845260609290921b6bffffffffffffffffffffffff191660018401526015830152603582015260550190565b9283526020830191909152604082015260600190565b60008251612a608184602087016131c1565b9190910192915050565b6001600160a01b0391909116815260200190565b6001600160a01b03958616815293851660208501529190931660408301526060820192909252608081019190915260a00190565b6001600160a01b039290921682526001600160e01b031916602082015260400190565b6001600160a01b038416815260ff831660208201526060604082018190526000906129f69083018461297e565b6001600160a01b03929092168252602082015260400190565b6000602080830181845280855180835260408601915060408482028701019250838701855b82811015612b6e57603f19888603018452612b5c8583516129aa565b94509285019290850190600101612b40565b5092979650505050505050565b901515815260200190565b600085825284602083015283604083015260806060830152612bab608083018461297e565b9695505050505050565b6000602082526115bd602083018461297e565b600060408252612bdb604083018561297e565b82810360208401526129f6818561297e565b6020808252818101527f437265617465323a2062797465636f6465206c656e677468206973207a65726f604082015260600190565b60208082526016908201527563616e277420696e697469616c697a6520747769636560501b604082015260600190565b6020808252601490820152731ad9595c195c881c185e5bdd5d0819985a5b195960621b604082015260600190565b6020808252601190820152701b1bd85b8818995a5b99c81c995c185a59607a1b604082015260600190565b6020808252601f908201527f66756e6374696f6e2068616e646c6572206e6f74207265676973746572656400604082015260600190565b6020808252601590820152741d1bdad95b881d1c985b9cd9995c8819985a5b1959605a1b604082015260600190565b6020808252601490820152731c1c9bde1e481c9958dbdc99081a5b9d985b1a5960621b604082015260600190565b6020808252818101527f6d7573742062652063616c6c65642066726f6d207368696674657220706f6f6c604082015260600190565b60208082526029908201527f626f72726f772070726f78792063616e206f6e6c792062652075736564206279604082015268103137b93937bbb2b960b91b606082015260800190565b60208082526019908201527f437265617465323a204661696c6564206f6e206465706c6f7900000000000000604082015260600190565b6020808252601390820152721b1bd85b88185b1c9958591e481c995c185a59606a1b604082015260600190565b60208082526021908201527f536166654d6174683a206d756c7469706c69636174696f6e206f766572666c6f6040820152607760f81b606082015260800190565b60208082526023908201527f6c6f616e207265736f6c7574696f6e206e6f74696669636174696f6e206661696040820152621b195960ea1b606082015260800190565b60208082526019908201527f70726f7879206973206265696e67206c69717569646174656400000000000000604082015260600190565b60208082526017908201527f6c6f616e207265736f6c7574696f6e206661696c757265000000000000000000604082015260600190565b6020808252602a908201527f6661696c656420746f207472616e73666572207265636c61696d65642066756e604082015269191cc81d1bc81c1bdbdb60b21b606082015260800190565b6020808252601d908201527f437265617465323a20696e73756666696369656e742062616c616e6365000000604082015260600190565b60006020825260018060a01b03808451166020840152806020850151166040840152506040830151612fc960608401826128f8565b506060830151612fdc60808401826128f8565b506080830151612fef60a08401826128f8565b5060a083015161300260c08401826128f8565b5060c083015160e083015260e0830151610100808185015250610ce261012084018261297e565b60006020825282516040602084015261304560608401826129aa565b602094909401516001600160a01b0316604093909301929092525090919050565b60006020808352835160c08285015261308360e0850182516128f8565b818101516130956101008601826128f8565b506040810151610120850152606081015161014085015260808101516130bf610160860182612978565b5060a081015160c06101808601526130db6101a0860182612905565b915050818501516130ec81516131b5565b60408601528281015180516060870152838101516080870152604081015160a0870152606081015160c08701525050809250505092915050565b6000602082528251151560208301526020830151604080840152610ce2606084018261297e565b6040518181016001600160401b038111828210171561316b57600080fd5b604052919050565b60006001600160401b03821115613188578081fd5b5060209081020190565b60006001600160401b038211156131a7578081fd5b50601f01601f191660200190565b6001600160a01b031690565b60005b838110156131dc5781810151838201526020016131c4565b838111156107c55750506000910152565b6001600160a01b0381168114611a3c57600080fd5b8015158114611a3c57600080fdfe6361707475726564206120726576657274206572726f722c2062757420697420646f65736e277420636f6e666f726d20746f20746865207374616e64617264a26469706673582212208b93a8eb2b94c8524b1497b9e3bfcafc49700f174ab6c4e71f5e40825d04fb9364736f6c63430006060033",
  "immutableReferences": {},
  "source": "pragma solidity ^0.6.0;\npragma experimental ABIEncoderV2;\n\nimport { BorrowProxy } from \"./BorrowProxy.sol\";\nimport { ShifterPool } from \"./ShifterPool.sol\";\nimport { ShifterBorrowProxyLib } from \"./ShifterBorrowProxyLib.sol\";\nimport { ILiquidationModule } from \"./interfaces/ILiquidationModule.sol\";\nimport { TokenUtils } from \"./utils/TokenUtils.sol\";\nimport { LiquidityToken } from \"./LiquidityToken.sol\";\nimport { IERC20 } from \"openzeppelin-solidity/contracts/token/ERC20/IERC20.sol\";\nimport { SafeViewExecutor } from \"./utils/sandbox/SafeViewExecutor.sol\";\nimport { SandboxLib } from \"./utils/sandbox/SandboxLib.sol\";\n\ncontract ShifterBorrowProxy is BorrowProxy, SafeViewExecutor {\n  using ShifterBorrowProxyLib for *;\n  using SandboxLib for *;\n  using TokenUtils for *;\n  constructor() BorrowProxy() public {}\n  uint256 constant MINIMUM_GAS_CONTINUE = 5e5;\n  function repayLoan(bytes memory data) public returns (bool) {\n    (ShifterBorrowProxyLib.TriggerParcel memory parcel) = data.decodeTriggerParcel();\n    require(validateProxyRecord(parcel.record.encodeProxyRecord()), \"proxy record invalid\");\n    require(!isolate.isLiquidating, \"proxy is being liquidated\");\n    uint256 fee = parcel.record.computeAdjustedKeeperFee(parcel.record.request.amount);\n    LiquidityToken liquidityToken = ShifterPool(isolate.masterAddress).getLiquidityTokenHandler(parcel.record.request.token);\n    uint256 amount;\n    if (!isolate.isRepaying) {\n      isolate.isRepaying = true;\n      isolate.actualizedShift = amount = ShifterPool(isolate.masterAddress).getShifterHandler(parcel.record.request.token).mint(parcel.pHash, parcel.record.request.amount, parcel.computeNHash(), parcel.darknodeSignature);\n      require(parcel.record.request.token.sendToken(address(liquidityToken), amount - fee), \"token transfer failed\");\n    } else amount = isolate.actualizedShift;\n    address[] memory set = isolate.repaymentSet.set;\n    for (uint256 i = isolate.repaymentIndex; i < set.length; i++) {\n      if (gasleft() < MINIMUM_GAS_CONTINUE || !set[i].delegateRepay()) {\n        isolate.repaymentIndex = i;\n        return false;\n      }\n    }\n    isolate.unbound = true;\n    require(parcel.record.request.token.sendToken(parcel.record.loan.keeper, fee), \"keeper payout failed\");\n    require(ShifterPool(isolate.masterAddress).relayResolveLoan(parcel.record.request.token, address(liquidityToken), parcel.record.loan.keeper, parcel.record.loan.params.bond, 0), \"loan resolution notification failed\");\n    ShifterBorrowProxyLib.emitShifterBorrowProxyRepaid(parcel.record.request.borrower, parcel.record);\n    return true;\n  }\n  function defaultLoan(bytes memory data) public returns (bool) {\n    require(!isolate.isRepaying, \"loan being repaid\");\n    require(!isolate.unbound, \"loan already repaid\");\n    require(validateProxyRecord(data), \"proxy record invalid\");\n    ShifterBorrowProxyLib.ProxyRecord memory record = data.decodeProxyRecord();\n    address[] memory set = isolate.liquidationSet.set;\n    if (record.loan.params.timeoutExpiry >= block.number) {\n      isolate.isLiquidating = true;\n      for (uint256 i = isolate.liquidationIndex; i < set.length; i++) {\n        if (gasleft() < MINIMUM_GAS_CONTINUE || !set[i].delegateLiquidate()) {\n          isolate.liquidationIndex = i;\n          return false;\n        }\n      }\n      isolate.liquidationIndex = set.length;\n      ShifterPool pool = ShifterPool(isolate.masterAddress);\n      uint256 postBalance = IERC20(record.request.token).balanceOf(address(this));\n      require(record.request.token.sendToken(address(pool), postBalance), \"failed to transfer reclaimed funds to pool\");\n      uint256 bond = record.loan.params.bond;\n      if (postBalance < record.request.amount) {\n        if (bond > postBalance - record.request.amount) {\n          bond -= (postBalance - record.request.amount);\n        } else {\n          bond = 0;\n        }\n      }\n      uint256 repay = postBalance - bond;\n      require(pool.relayResolveLoan(record.request.token, address(pool.getLiquidityTokenHandler(record.request.token)), record.loan.keeper, bond, repay), \"loan resolution failure\");\n      return true;\n    }\n    return false;\n  }\n  function receiveInitializationActions(ShifterBorrowProxyLib.InitializationAction[] memory actions) public {\n    require(msg.sender == address(isolate.masterAddress), \"must be called from shifter pool\");\n    SandboxLib.ProtectedExecution[] memory trace = actions.processActions();\n    ShifterBorrowProxyLib.emitBorrowProxyInitialization(address(this), trace);\n  }\n  fallback() external payable override {}\n  receive() external payable override {}\n}\n",
  "sourcePath": "/home/ray/0confirmation/packages/0confirmation-sol/contracts/ShifterBorrowProxy.sol",
  "compiler": {
    "name": "solc",
    "version": "0.6.6+commit.6c089d02.Emscripten.clang"
  },
  "schemaVersion": "3.1.0",
  "updatedAt": "2020-04-26T05:25:59.766Z",
  "devdoc": {
    "methods": {}
  },
  "userdoc": {
    "methods": {}
  }
}