{
  "contractName": "ShifterBorrowProxy",
  "abi": [
    {
      "inputs": [],
      "stateMutability": "nonpayable",
      "type": "constructor"
    },
    {
      "stateMutability": "payable",
      "type": "fallback"
    },
    {
      "inputs": [
        {
          "internalType": "address",
          "name": "delegateTo",
          "type": "address"
        },
        {
          "internalType": "bytes",
          "name": "callData",
          "type": "bytes"
        }
      ],
      "name": "_executeQuery",
      "outputs": [
        {
          "internalType": "bytes",
          "name": "",
          "type": "bytes"
        }
      ],
      "stateMutability": "nonpayable",
      "type": "function"
    },
    {
      "inputs": [
        {
          "internalType": "address",
          "name": "to",
          "type": "address"
        },
        {
          "internalType": "uint256",
          "name": "value",
          "type": "uint256"
        },
        {
          "internalType": "bytes",
          "name": "payload",
          "type": "bytes"
        }
      ],
      "name": "proxy",
      "outputs": [],
      "stateMutability": "nonpayable",
      "type": "function"
    },
    {
      "inputs": [
        {
          "internalType": "address",
          "name": "viewLogic",
          "type": "address"
        },
        {
          "internalType": "bytes",
          "name": "payload",
          "type": "bytes"
        }
      ],
      "name": "query",
      "outputs": [
        {
          "internalType": "bytes",
          "name": "",
          "type": "bytes"
        }
      ],
      "stateMutability": "view",
      "type": "function"
    },
    {
      "inputs": [
        {
          "internalType": "address",
          "name": "owner",
          "type": "address"
        }
      ],
      "name": "setup",
      "outputs": [
        {
          "internalType": "bool",
          "name": "",
          "type": "bool"
        }
      ],
      "stateMutability": "nonpayable",
      "type": "function"
    },
    {
      "stateMutability": "payable",
      "type": "receive"
    },
    {
      "inputs": [
        {
          "internalType": "bytes",
          "name": "data",
          "type": "bytes"
        }
      ],
      "name": "repayLoan",
      "outputs": [
        {
          "internalType": "bool",
          "name": "",
          "type": "bool"
        }
      ],
      "stateMutability": "nonpayable",
      "type": "function"
    },
    {
      "inputs": [
        {
          "internalType": "bytes",
          "name": "data",
          "type": "bytes"
        }
      ],
      "name": "defaultLoan",
      "outputs": [
        {
          "internalType": "bool",
          "name": "",
          "type": "bool"
        }
      ],
      "stateMutability": "nonpayable",
      "type": "function"
    }
  ],
  "bytecode": "0x608060405234801561001057600080fd5b50611e08806100206000396000f3fe6080604052600436106100595760003560e01c806323e3b730146100625780632692f25a1461009857806356b8e146146100b857806366d38203146100e5578063c4ddf36314610105578063fd00430c1461012557610060565b3661006057005b005b34801561006e57600080fd5b5061008261007d366004611592565b610145565b60405161008f91906119fc565b60405180910390f35b3480156100a457600080fd5b506100606100b33660046115e0565b6101e4565b3480156100c457600080fd5b506100d86100d3366004611657565b6103ba565b60405161008f91906119c2565b3480156100f157600080fd5b506100d8610100366004611576565b6107ba565b34801561011157600080fd5b506100d8610120366004611657565b610817565b34801561013157600080fd5b50610082610140366004611592565b610bd5565b606033301461016f5760405162461bcd60e51b815260040161016690611aa4565b60405180910390fd5b60006060846001600160a01b03168460405161018b91906118d2565b600060405180830381855af49150503d80600081146101c6576040519150601f19603f3d011682016040523d82523d6000602084013e6101cb565b606091505b5091509150816101da57600080fd5b9150505b92915050565b6001546001600160a01b0316331461020e5760405162461bcd60e51b815260040161016690611b43565b600054600160a01b900460ff16156102b35760006060846001600160a01b0316848460405161023d91906118d2565b60006040518083038185875af1925050503d806000811461027a576040519150601f19603f3d011682016040523d82523d6000602084013e61027f565b606091505b5091509150816102ab5761029281610c9b565b60405162461bcd60e51b815260040161016691906119fc565b805160208201f35b60006102cf6102ca8383600463ffffffff610da116565b610dbe565b60e01b90506102dc6112c1565b604051632f1a48af60e01b815273__BorrowProxyLib________________________90632f1a48af906103189060009089908790600401611cc8565b60606040518083038186803b15801561033057600080fd5b505af4158015610344573d6000803e3d6000fd5b505050506040513d601f19601f8201168201806040525061036891908101906116d9565b90506103778160200151610de0565b6103935760405162461bcd60e51b815260040161016690611a6d565b600060606103a883868863ffffffff610def16565b91509150816102ab5761029281610c9b565b60006103c582610e96565b6103e15760405162461bcd60e51b815260040161016690611b15565b6103e96112e9565b828060200190516103fd9190810190611753565b600680546040805160208084028201810190925282815293945060609392919083018282801561045657602002820191906000526020600020905b81546001600160a01b03168152600190910190602001808311610438575b505050505090504382602001516020015160000151106107ae5760035460ff16610501578151602001516040516370a0823160e01b81526001600160a01b03909116906370a08231906104ad9030906004016118ee565b60206040518083038186803b1580156104c557600080fd5b505afa1580156104d9573d6000803e3d6000fd5b505050506040513d601f19601f820116820180604052506104fd9190810190611811565b6004555b6003805460ff191660011790556002545b815181101561056a57620493e05a108061054e575061054c82828151811061053657fe5b60200260200101516001600160a01b0316610f19565b155b156105625760025550600091506107b59050565b600101610512565b508051600255600080548351602001516040516370a0823160e01b81526001600160a01b039283169392909116906370a08231906105ac9030906004016118ee565b60206040518083038186803b1580156105c457600080fd5b505afa1580156105d8573d6000803e3d6000fd5b505050506040513d601f19601f820116820180604052506105fc9190810190611811565b84516020015190915061061f906001600160a01b0316838363ffffffff610ff216565b61063b5760405162461bcd60e51b815260040161016690611c7e565b60208085015181015101518451606001518210156106755784516060015182038111156106715784516060015182039003610675565b5060005b8451602001516040516303cc556d60e51b8152828403916001600160a01b0386169163801874ec9190839063798aada0906106b49084906004016118ee565b60206040518083038186803b1580156106cc57600080fd5b505afa1580156106e0573d6000803e3d6000fd5b505050506040513d601f19601f82011682018060405250610704919081019061168a565b60208a0151516040516001600160e01b031960e086901b1681526107319392919088908890600401611951565b602060405180830381600087803b15801561074b57600080fd5b505af115801561075f573d6000803e3d6000fd5b505050506040513d601f19601f820116820180604052506107839190810190611637565b61079f5760405162461bcd60e51b815260040161016690611c47565b600196505050505050506107b5565b6000925050505b919050565b6001546000906001600160a01b0316156107e65760405162461bcd60e51b815260040161016690611a0f565b50600080546001600160a01b03199081163317909155600180546001600160a01b0384169216919091178155919050565b6000610821611309565b82806020019051610835919081019061176f565b9050610863816000015160405160200161084f9190611cf1565b604051602081830303815290604052610e96565b61087f5760405162461bcd60e51b815260040161016690611b15565b60035460ff16156108a25760405162461bcd60e51b815260040161016690611c10565b60008054825151602001516040516307ef1e3760e21b81526001600160a01b0390921691631fbc78dc916108d8916004016118ee565b60206040518083038186803b1580156108f057600080fd5b505afa158015610904573d6000803e3d6000fd5b505050506040513d601f19601f82011682018060405250610928919081019061168a565b6001600160a01b031663bb4a1d8c83606001518460000151600001516060015161095186611095565b86608001516040518563ffffffff1660e01b815260040161097594939291906119cd565b602060405180830381600087803b15801561098f57600080fd5b505af11580156109a3573d6000803e3d6000fd5b505050506040513d601f19601f820116820180604052506109c79190810190611811565b82519091506000906109df908363ffffffff6110d716565b6000805460ff60a01b1916600160a01b17808255855151602001516040516303cc556d60e51b815293945091926001600160a01b039091169163798aada091610a2b91906004016118ee565b60206040518083038186803b158015610a4357600080fd5b505afa158015610a57573d6000803e3d6000fd5b505050506040513d601f19601f82011682018060405250610a7b919081019061168a565b84515160200151909150610aa1906001600160a01b03168284860363ffffffff610ff216565b610abd5760405162461bcd60e51b815260040161016690611ae6565b83516020808201515191510151610ae6916001600160a01b03909116908463ffffffff610ff216565b610b025760405162461bcd60e51b815260040161016690611a3f565b600080548551805160209081015191810151805190820151909101516040516320061d3b60e21b81526001600160a01b039094169463801874ec94610b509493889390929091600401611951565b602060405180830381600087803b158015610b6a57600080fd5b505af1158015610b7e573d6000803e3d6000fd5b505050506040513d601f19601f82011682018060405250610ba29190810190611637565b610bbe5760405162461bcd60e51b815260040161016690611bcd565b8351805151610bcc91611117565b50505050919050565b606060006060846001600160a01b03168585604051602401610bf8929190611985565b60408051601f198184030181529181526020820180516001600160e01b031663023e3b7360e41b17905251610c2d91906118d2565b600060405180830381855afa9150503d8060008114610c68576040519150601f19603f3d011682016040523d82523d6000602084013e610c6d565b606091505b5091509150818190610c925760405162461bcd60e51b815260040161016691906119fc565b50949350505050565b6060815160001415610ce1575060408051808201909152601c81527f636170747572656420656d70747920726576657274206275666665720000000060208201526107b5565b6308c379a0610cf66102ca8460006004610da1565b63ffffffff1614610d21576040518060600160405280603f8152602001611d94603f913990506107b5565b6060610d3c610d3784600463ffffffff61115c16565b611180565b9050805160001415610d8357505060408051808201909152601d81527f636170747572656420656d70747920726576657274206d65737361676500000060208201526107b5565b606081806020019051610d9991908101906116a6565b949350505050565b610da9611340565b92820160209081018452830152604082015290565b805160209182015191829003900351600160089092029190911b600019011690565b516001600160a01b0316151590565b60006060600060608660200151600001516001600160a01b03165a6020808a01518051908201518b51604051610e2c943292918d918f9101611902565b60408051601f1981840301815290829052610e46916118d2565b6000604051808303818686f4925050503d8060008114610e82576040519150601f19603f3d011682016040523d82523d6000602084013e610e87565b606091505b50909890975095505050505050565b600080546040516308f6049560e01b81526001600160a01b03909116906308f6049590610ec79085906004016119fc565b602060405180830381600087803b158015610ee157600080fd5b505af1158015610ef5573d6000803e3d6000fd5b505050506040513d601f19601f820116820180604052506101de9190810190611637565b6000806060836001600160a01b031684604051602401610f3991906118ee565b60408051601f198184030181529181526020820180516001600160e01b03166305f0caad60e31b17905251610f6e91906118d2565b600060405180830381855af49150503d8060008114610fa9576040519150601f19603f3d011682016040523d82523d6000602084013e610fae565b606091505b50915091508051602014610fc7576000925050506107b5565b600081806020019051610fdd9190810190611637565b9050828015610fe95750805b95945050505050565b600080846001600160a01b031684846040516024016110129291906119a9565b60408051601f198184030181529181526020820180516001600160e01b031663a9059cbb60e01b1790525161104791906118d2565b6000604051808303816000865af19150503d8060008114611084576040519150601f19603f3d011682016040523d82523d6000602084013e611089565b606091505b50909695505050505050565b8051516040908101516020808401518385015193516000946110ba94939091016118bc565b604051602081830303815290604052805190602001209050919050565b6000611110670de0b6b3a764000061110485602001516020015160600151856111d090919063ffffffff16565b9063ffffffff61120a16565b9392505050565b816001600160a01b03167f8118f0dfd16240978600a1121acd44dd113e1071790496f111043c87672720bf826040516111509190611cf1565b60405180910390a25050565b611164611340565b818351101561117257825191505b611110838384865103610da1565b60208082015160408051828152601f19601f840116810190930190526060918180156111b3576020820181803883390190505b508351909250602083016111c881838561124c565b505050919050565b6000826111df575060006101de565b828202828482816111ec57fe5b04146111105760405162461bcd60e51b815260040161016690611b8c565b600061111083836040518060400160405280601a81526020017f536166654d6174683a206469766973696f6e206279207a65726f00000000000081525061128a565b5b6020811061126c578151835260209283019290910190601f190161124d565b600180600883602003021b0380845116811984511617845250505050565b600081836112ab5760405162461bcd60e51b815260040161016691906119fc565b5060008385816112b757fe5b0495945050505050565b604051806040016040528060006001600160a01b031681526020016112e4611361565b905290565b60405180604001604052806112fc611378565b81526020016112e461139f565b6040518060a0016040528061131c6112e9565b81526000602082018190526040820181905260608083019190915260809091015290565b60405180606001604052806000815260200160008152602001600081525090565b604080518082019091526000808252602082015290565b60408051608081018252600080825260208201819052918101829052606081019190915290565b604051806040016040528060006001600160a01b031681526020016112e46040518060800160405280600081526020016000815260200160008152602001600081525090565b600082601f8301126113f5578081fd5b815161140861140382611d27565b611d00565b915080825283602082850101111561141f57600080fd5b611430816020840160208601611d4b565b5092915050565b600082601f830112611447578081fd5b813561145561140382611d27565b915080825283602082850101111561146c57600080fd5b8060208401602084013760009082016020015292915050565b6000818303610120811215611498578182fd5b6114a26040611d00565b915060808112156114b257600080fd5b6114bc6080611d00565b83516114c781611d7b565b815260208401516114d781611d7b565b60208201526040848101519082015260608085015190820152825260a0607f198201121561150457600080fd5b61150e6040611d00565b608084015161151c81611d7b565b81526080609f198301121561153057600080fd5b61153a6080611d00565b915060a0840151825260c0840151602083015260e084015160408301526101008401516060830152816020820152806020840152505092915050565b600060208284031215611587578081fd5b813561111081611d7b565b600080604083850312156115a4578081fd5b82356115af81611d7b565b9150602083013567ffffffffffffffff8111156115ca578182fd5b6115d685828601611437565b9150509250929050565b6000806000606084860312156115f4578081fd5b83356115ff81611d7b565b925060208401359150604084013567ffffffffffffffff811115611621578182fd5b61162d86828701611437565b9150509250925092565b600060208284031215611648578081fd5b81518015158114611110578182fd5b600060208284031215611668578081fd5b813567ffffffffffffffff81111561167e578182fd5b610d9984828501611437565b60006020828403121561169b578081fd5b815161111081611d7b565b6000602082840312156116b7578081fd5b815167ffffffffffffffff8111156116cd578182fd5b610d99848285016113e5565b600081830360608112156116eb578182fd5b6116f56040611d00565b835161170081611d7b565b81526040601f1983011215611713578283fd5b61171d6040611d00565b9150602084015161172d81611d7b565b8252604084015161173d81611d7b565b6020838101919091528101919091529392505050565b60006101208284031215611765578081fd5b6111108383611485565b600060208284031215611780578081fd5b815167ffffffffffffffff80821115611797578283fd5b8184016101a081870312156117aa578384fd5b6117b460a0611d00565b92506117c08682611485565b8352610120810151602084015261014081015160408401526101608101516060840152610180810151828111156117f5578485fd5b611801878284016113e5565b6080850152509195945050505050565b600060208284031215611822578081fd5b5051919050565b60008151808452611841816020860160208601611d4b565b601f01601f19169290920160200192915050565b805180516001600160a01b0390811684526020808301518216818601526040808401518187015260609384015184870152938101518051909216608086015290810151805160a08601529081015160c08501529182015160e0840152015161010090910152565b9283526020830191909152604082015260600190565b600082516118e4818460208701611d4b565b9190910192915050565b6001600160a01b0391909116815260200190565b6001600160a01b03878116825286811660208301528581166040830152841660608201526080810183905260c060a0820181905260009061194590830184611829565b98975050505050505050565b6001600160a01b03958616815293851660208501529190931660408301526060820192909252608081019190915260a00190565b6001600160a01b0383168152604060208201819052600090610d9990830184611829565b6001600160a01b03929092168252602082015260400190565b901515815260200190565b6000858252846020830152836040830152608060608301526119f26080830184611829565b9695505050505050565b6000602082526111106020830184611829565b60208082526016908201527563616e277420696e697469616c697a6520747769636560501b604082015260600190565b6020808252601490820152731ad9595c195c881c185e5bdd5d0819985a5b195960621b604082015260600190565b6020808252601f908201527f66756e6374696f6e2068616e646c6572206e6f74207265676973746572656400604082015260600190565b60208082526022908201527f756e617574686f72697a65642076696577206c617965722064656c656761746960408201526137b760f11b606082015260800190565b6020808252601590820152741d1bdad95b881d1c985b9cd9995c8819985a5b1959605a1b604082015260600190565b6020808252601490820152731c1c9bde1e481c9958dbdc99081a5b9d985b1a5960621b604082015260600190565b60208082526029908201527f626f72726f772070726f78792063616e206f6e6c792062652075736564206279604082015268103137b93937bbb2b960b91b606082015260800190565b60208082526021908201527f536166654d6174683a206d756c7469706c69636174696f6e206f766572666c6f6040820152607760f81b606082015260800190565b60208082526023908201527f6c6f616e207265736f6c7574696f6e206e6f74696669636174696f6e206661696040820152621b195960ea1b606082015260800190565b60208082526019908201527f70726f7879206973206265696e67206c69717569646174656400000000000000604082015260600190565b60208082526017908201527f6c6f616e207265736f6c7574696f6e206661696c757265000000000000000000604082015260600190565b6020808252602a908201527f6661696c656420746f207472616e73666572207265636c61696d65642066756e604082015269191cc81d1bc81c1bdbdb60b21b606082015260800190565b9283526001600160a01b039190911660208301526001600160e01b031916604082015260600190565b61012081016101de8284611855565b60405181810167ffffffffffffffff81118282101715611d1f57600080fd5b604052919050565b600067ffffffffffffffff821115611d3d578081fd5b50601f01601f191660200190565b60005b83811015611d66578181015183820152602001611d4e565b83811115611d75576000848401525b50505050565b6001600160a01b0381168114611d9057600080fd5b5056fe6361707475726564206120726576657274206572726f722c2062757420697420646f65736e277420636f6e666f726d20746f20746865207374616e64617264a2646970667358221220bb221443f827d2df19e772b0ff87f75e6a745054aed536e7b381a22f8c957e5f64736f6c63430006020033",
  "source": "pragma solidity ^0.6.0;\npragma experimental ABIEncoderV2;\n\nimport { BorrowProxy } from \"./BorrowProxy.sol\";\nimport { ShifterPool } from \"./ShifterPool.sol\";\nimport { ShifterBorrowProxyLib } from \"./ShifterBorrowProxyLib.sol\";\nimport { ILiquidationModule } from \"./interfaces/ILiquidationModule.sol\";\nimport { TokenUtils } from \"./utils/TokenUtils.sol\";\nimport { LiquidityToken } from \"./LiquidityToken.sol\";\nimport { IERC20 } from \"openzeppelin-solidity/contracts/token/ERC20/IERC20.sol\";\n\ncontract ShifterBorrowProxy is BorrowProxy {\n  using ShifterBorrowProxyLib for *;\n  using TokenUtils for *;\n  constructor() BorrowProxy() public {}\n  function repayLoan(bytes memory data) public returns (bool) {\n    (ShifterBorrowProxyLib.TriggerParcel memory parcel) = abi.decode(data, (ShifterBorrowProxyLib.TriggerParcel));\n    require(validateProxyRecord(abi.encode(parcel.record)), \"proxy record invalid\");\n    require(!isolate.isLiquidating, \"proxy is being liquidated\");\n    uint256 amount = ShifterPool(isolate.masterAddress).getShifterHandler(parcel.record.request.token).shiftIn(parcel.pHash, parcel.record.request.amount, parcel.computeNHash(), parcel.darknodeSignature);\n    uint256 fee = parcel.record.computeAdjustedKeeperFee(amount);\n    isolate.unbound = true;\n    LiquidityToken liquidityToken = ShifterPool(isolate.masterAddress).getLiquidityTokenHandler(parcel.record.request.token);\n    require(parcel.record.request.token.sendToken(address(liquidityToken), amount - fee), \"token transfer failed\");\n    require(parcel.record.request.token.sendToken(parcel.record.loan.keeper, fee), \"keeper payout failed\");\n    require(ShifterPool(isolate.masterAddress).relayResolveLoan(parcel.record.request.token, address(liquidityToken), parcel.record.loan.keeper, parcel.record.loan.params.bond, 0), \"loan resolution notification failed\");\n    ShifterBorrowProxyLib.emitShifterBorrowProxyRepaid(parcel.record.request.borrower, parcel.record);\n  }\n  function defaultLoan(bytes memory data) public returns (bool) {\n    require(validateProxyRecord(data), \"proxy record invalid\");\n    (ShifterBorrowProxyLib.ProxyRecord memory record) = abi.decode(data, (ShifterBorrowProxyLib.ProxyRecord));\n    address[] memory set = isolate.liquidationSet.set;\n    if (record.loan.params.timeoutExpiry >= block.number) {\n      if (!isolate.isLiquidating) isolate.preBalance = IERC20(record.request.token).balanceOf(address(this));\n      isolate.isLiquidating = true;\n      for (uint256 i = isolate.liquidationIndex; i < set.length; i++) {\n        if (gasleft() < 3e5 || !set[i].delegateLiquidate()) {\n          isolate.liquidationIndex = i;\n          return false;\n        }\n      }\n      isolate.liquidationIndex = set.length;\n      ShifterPool pool = ShifterPool(isolate.masterAddress);\n      uint256 postBalance = IERC20(record.request.token).balanceOf(address(this));\n      require(record.request.token.sendToken(address(pool), postBalance), \"failed to transfer reclaimed funds to pool\");\n      uint256 bond = record.loan.params.bond;\n      if (postBalance < record.request.amount) {\n        if (bond > postBalance - record.request.amount) {\n          bond -= (postBalance - record.request.amount);\n        } else {\n          bond = 0;\n        }\n      }\n      uint256 repay = postBalance - bond;\n      require(pool.relayResolveLoan(record.request.token, address(pool.getLiquidityTokenHandler(record.request.token)), record.loan.keeper, bond, repay), \"loan resolution failure\");\n      return true;\n    }\n    return false;\n  }\n  fallback() external payable override {}\n  receive() external payable override {}\n}\n",
  "sourcePath": "/home/ray/0confirmation/packages/0confirmation-sol/contracts/ShifterBorrowProxy.sol",
  "compiler": {
    "name": "solc",
    "version": "0.6.2+commit.bacdbe57.Emscripten.clang"
  },
  "schemaVersion": "3.0.23",
  "updatedAt": "2020-04-04T21:46:16.064Z",
  "devdoc": {
    "methods": {}
  },
  "userdoc": {
    "methods": {}
  }
}