{
  "contractName": "ShifterPool",
  "abi": [
    {
      "inputs": [],
      "stateMutability": "nonpayable",
      "type": "constructor"
    },
    {
      "anonymous": false,
      "inputs": [
        {
          "indexed": true,
          "internalType": "address",
          "name": "previousOwner",
          "type": "address"
        },
        {
          "indexed": true,
          "internalType": "address",
          "name": "newOwner",
          "type": "address"
        }
      ],
      "name": "OwnershipTransferred",
      "type": "event"
    },
    {
      "inputs": [
        {
          "internalType": "bytes",
          "name": "creationCode",
          "type": "bytes"
        },
        {
          "internalType": "bytes",
          "name": "context",
          "type": "bytes"
        }
      ],
      "name": "_executeSafeView",
      "outputs": [],
      "stateMutability": "nonpayable",
      "type": "function"
    },
    {
      "inputs": [
        {
          "internalType": "bytes",
          "name": "consData",
          "type": "bytes"
        }
      ],
      "name": "cloneConstructor",
      "outputs": [],
      "stateMutability": "nonpayable",
      "type": "function"
    },
    {
      "inputs": [],
      "name": "owner",
      "outputs": [
        {
          "internalType": "address",
          "name": "",
          "type": "address"
        }
      ],
      "stateMutability": "view",
      "type": "function",
      "constant": true
    },
    {
      "inputs": [
        {
          "internalType": "bytes",
          "name": "creationCode",
          "type": "bytes"
        },
        {
          "internalType": "bytes",
          "name": "context",
          "type": "bytes"
        }
      ],
      "name": "query",
      "outputs": [
        {
          "components": [
            {
              "internalType": "bool",
              "name": "success",
              "type": "bool"
            },
            {
              "internalType": "bytes",
              "name": "data",
              "type": "bytes"
            }
          ],
          "internalType": "struct SafeViewLib.SafeViewResult",
          "name": "",
          "type": "tuple"
        }
      ],
      "stateMutability": "nonpayable",
      "type": "function"
    },
    {
      "inputs": [],
      "name": "renounceOwnership",
      "outputs": [],
      "stateMutability": "nonpayable",
      "type": "function"
    },
    {
      "inputs": [
        {
          "internalType": "address",
          "name": "newOwner",
          "type": "address"
        }
      ],
      "name": "transferOwnership",
      "outputs": [],
      "stateMutability": "nonpayable",
      "type": "function"
    },
    {
      "inputs": [
        {
          "internalType": "address",
          "name": "shifterRegistry",
          "type": "address"
        },
        {
          "internalType": "uint256",
          "name": "minTimeout",
          "type": "uint256"
        },
        {
          "internalType": "uint256",
          "name": "poolFee",
          "type": "uint256"
        },
        {
          "components": [
            {
              "internalType": "enum BorrowProxyLib.ModuleRegistrationType",
              "name": "moduleType",
              "type": "uint8"
            },
            {
              "internalType": "address",
              "name": "target",
              "type": "address"
            },
            {
              "internalType": "bytes4[]",
              "name": "sigs",
              "type": "bytes4[]"
            },
            {
              "components": [
                {
                  "internalType": "bool",
                  "name": "isPrecompiled",
                  "type": "bool"
                },
                {
                  "internalType": "address",
                  "name": "assetSubmodule",
                  "type": "address"
                },
                {
                  "internalType": "address",
                  "name": "liquidationSubmodule",
                  "type": "address"
                },
                {
                  "internalType": "address",
                  "name": "repaymentSubmodule",
                  "type": "address"
                }
              ],
              "internalType": "struct BorrowProxyLib.Module",
              "name": "module",
              "type": "tuple"
            }
          ],
          "internalType": "struct BorrowProxyLib.ModuleRegistration[]",
          "name": "modules",
          "type": "tuple[]"
        },
        {
          "components": [
            {
              "internalType": "address",
              "name": "token",
              "type": "address"
            },
            {
              "internalType": "address",
              "name": "liqToken",
              "type": "address"
            }
          ],
          "internalType": "struct ShifterPoolLib.LiquidityTokenLaunch[]",
          "name": "tokenLaunches",
          "type": "tuple[]"
        }
      ],
      "name": "setup",
      "outputs": [],
      "stateMutability": "nonpayable",
      "type": "function"
    },
    {
      "inputs": [],
      "name": "deployBorrowProxyImplementation",
      "outputs": [],
      "stateMutability": "nonpayable",
      "type": "function"
    },
    {
      "inputs": [
        {
          "components": [
            {
              "components": [
                {
                  "internalType": "address payable",
                  "name": "borrower",
                  "type": "address"
                },
                {
                  "internalType": "address",
                  "name": "token",
                  "type": "address"
                },
                {
                  "internalType": "bytes32",
                  "name": "nonce",
                  "type": "bytes32"
                },
                {
                  "internalType": "uint256",
                  "name": "amount",
                  "type": "uint256"
                },
                {
                  "internalType": "bool",
                  "name": "forbidLoan",
                  "type": "bool"
                },
                {
                  "components": [
                    {
                      "internalType": "address",
                      "name": "to",
                      "type": "address"
                    },
                    {
                      "internalType": "bytes",
                      "name": "txData",
                      "type": "bytes"
                    }
                  ],
                  "internalType": "struct ShifterBorrowProxyLib.InitializationAction[]",
                  "name": "actions",
                  "type": "tuple[]"
                }
              ],
              "internalType": "struct ShifterBorrowProxyLib.LiquidityRequest",
              "name": "request",
              "type": "tuple"
            },
            {
              "internalType": "uint256",
              "name": "gasRequested",
              "type": "uint256"
            },
            {
              "internalType": "bytes",
              "name": "signature",
              "type": "bytes"
            }
          ],
          "internalType": "struct ShifterBorrowProxyLib.LiquidityRequestParcel",
          "name": "liquidityRequestParcel",
          "type": "tuple"
        },
        {
          "internalType": "uint256",
          "name": "bond",
          "type": "uint256"
        },
        {
          "internalType": "uint256",
          "name": "timeoutExpiry",
          "type": "uint256"
        }
      ],
      "name": "executeBorrow",
      "outputs": [],
      "stateMutability": "payable",
      "type": "function",
      "payable": true
    },
    {
      "inputs": [
        {
          "components": [
            {
              "components": [
                {
                  "components": [
                    {
                      "internalType": "address payable",
                      "name": "borrower",
                      "type": "address"
                    },
                    {
                      "internalType": "address",
                      "name": "token",
                      "type": "address"
                    },
                    {
                      "internalType": "bytes32",
                      "name": "nonce",
                      "type": "bytes32"
                    },
                    {
                      "internalType": "uint256",
                      "name": "amount",
                      "type": "uint256"
                    },
                    {
                      "internalType": "bool",
                      "name": "forbidLoan",
                      "type": "bool"
                    },
                    {
                      "components": [
                        {
                          "internalType": "address",
                          "name": "to",
                          "type": "address"
                        },
                        {
                          "internalType": "bytes",
                          "name": "txData",
                          "type": "bytes"
                        }
                      ],
                      "internalType": "struct ShifterBorrowProxyLib.InitializationAction[]",
                      "name": "actions",
                      "type": "tuple[]"
                    }
                  ],
                  "internalType": "struct ShifterBorrowProxyLib.LiquidityRequest",
                  "name": "request",
                  "type": "tuple"
                },
                {
                  "internalType": "uint256",
                  "name": "gasRequested",
                  "type": "uint256"
                },
                {
                  "internalType": "bytes",
                  "name": "signature",
                  "type": "bytes"
                }
              ],
              "internalType": "struct ShifterBorrowProxyLib.LiquidityRequestParcel",
              "name": "liquidityRequestParcel",
              "type": "tuple"
            },
            {
              "components": [
                {
                  "internalType": "bytes32",
                  "name": "txhash",
                  "type": "bytes32"
                },
                {
                  "internalType": "uint256",
                  "name": "vout",
                  "type": "uint256"
                },
                {
                  "internalType": "bytes32",
                  "name": "pHash",
                  "type": "bytes32"
                },
                {
                  "internalType": "bytes",
                  "name": "darknodeSignature",
                  "type": "bytes"
                }
              ],
              "internalType": "struct ShifterBorrowProxyLib.ShiftParameters",
              "name": "shiftParameters",
              "type": "tuple"
            },
            {
              "components": [
                {
                  "internalType": "address",
                  "name": "to",
                  "type": "address"
                },
                {
                  "internalType": "bytes",
                  "name": "txData",
                  "type": "bytes"
                }
              ],
              "internalType": "struct ShifterBorrowProxyLib.InitializationAction[]",
              "name": "actions",
              "type": "tuple[]"
            }
          ],
          "internalType": "struct ShifterBorrowProxyLib.SansBorrowShiftParcel",
          "name": "parcel",
          "type": "tuple"
        }
      ],
      "name": "executeShiftSansBorrow",
      "outputs": [],
      "stateMutability": "payable",
      "type": "function",
      "payable": true
    },
    {
      "inputs": [
        {
          "internalType": "bytes",
          "name": "proxyRecord",
          "type": "bytes"
        }
      ],
      "name": "validateProxyRecordHandler",
      "outputs": [
        {
          "internalType": "bool",
          "name": "",
          "type": "bool"
        }
      ],
      "stateMutability": "view",
      "type": "function",
      "constant": true
    },
    {
      "inputs": [
        {
          "internalType": "address",
          "name": "proxyAddress",
          "type": "address"
        }
      ],
      "name": "getProxyTokenHandler",
      "outputs": [
        {
          "internalType": "address",
          "name": "",
          "type": "address"
        }
      ],
      "stateMutability": "view",
      "type": "function",
      "constant": true
    },
    {
      "inputs": [
        {
          "internalType": "address",
          "name": "user",
          "type": "address"
        }
      ],
      "name": "getProxyOwnerHandler",
      "outputs": [
        {
          "internalType": "address",
          "name": "",
          "type": "address"
        }
      ],
      "stateMutability": "view",
      "type": "function",
      "constant": true
    },
    {
      "inputs": [
        {
          "internalType": "address",
          "name": "token",
          "type": "address"
        }
      ],
      "name": "getShifterHandler",
      "outputs": [
        {
          "internalType": "contract IShifter",
          "name": "",
          "type": "address"
        }
      ],
      "stateMutability": "view",
      "type": "function",
      "constant": true
    },
    {
      "inputs": [
        {
          "internalType": "address",
          "name": "token",
          "type": "address"
        }
      ],
      "name": "getLiquidityTokenHandler",
      "outputs": [
        {
          "internalType": "contract LiquidityToken",
          "name": "",
          "type": "address"
        }
      ],
      "stateMutability": "view",
      "type": "function",
      "constant": true
    },
    {
      "inputs": [
        {
          "internalType": "address",
          "name": "to",
          "type": "address"
        },
        {
          "internalType": "bytes4",
          "name": "sig",
          "type": "bytes4"
        }
      ],
      "name": "fetchModuleHandler",
      "outputs": [
        {
          "components": [
            {
              "internalType": "bool",
              "name": "isPrecompiled",
              "type": "bool"
            },
            {
              "internalType": "address",
              "name": "assetSubmodule",
              "type": "address"
            },
            {
              "internalType": "address",
              "name": "liquidationSubmodule",
              "type": "address"
            },
            {
              "internalType": "address",
              "name": "repaymentSubmodule",
              "type": "address"
            }
          ],
          "internalType": "struct BorrowProxyLib.Module",
          "name": "",
          "type": "tuple"
        }
      ],
      "stateMutability": "view",
      "type": "function",
      "constant": true
    },
    {
      "inputs": [
        {
          "internalType": "address",
          "name": "token",
          "type": "address"
        },
        {
          "internalType": "address",
          "name": "liquidityToken",
          "type": "address"
        },
        {
          "internalType": "address",
          "name": "keeper",
          "type": "address"
        },
        {
          "internalType": "uint256",
          "name": "bond",
          "type": "uint256"
        },
        {
          "internalType": "uint256",
          "name": "repay",
          "type": "uint256"
        }
      ],
      "name": "relayResolveLoan",
      "outputs": [
        {
          "internalType": "bool",
          "name": "",
          "type": "bool"
        }
      ],
      "stateMutability": "nonpayable",
      "type": "function"
    }
  ],
  "bytecode": "0x60806040523480156200001157600080fd5b506000620000276001600160e01b036200007b16565b600080546001600160a01b0319166001600160a01b0383169081178255604051929350917f8be0079c531659141344cd1fd0a4f28419497f9722a3daafe3b4186f6b6457e0908290a350436001556200007f565b3390565b613841806200008f6000396000f3fe6080604052600436106100fe5760003560e01c806363091aa3116100955780638da5cb5b116100645780638da5cb5b1461029f578063dc74245e146102b4578063e6c1f074146102c7578063ea82c9b3146102e7578063f2fde38b14610307576100fe565b806363091aa314610235578063715018a61461024a578063798aada01461025f578063801874ec1461027f576100fe565b806334686eaf116100d157806334686eaf1461019b57806344112360146101c857806352e831dd146101f55780635f7d2b5714610215576100fe565b806308f60495146101035780631fbc78dc1461013957806329658b02146101665780632b19a59814610186575b600080fd5b34801561010f57600080fd5b5061012361011e36600461295f565b610327565b6040516101309190612f0e565b60405180910390f35b34801561014557600080fd5b50610159610154366004612796565b610341565b6040516101309190612e39565b34801561017257600080fd5b50610159610181366004612796565b610354565b610199610194366004612af0565b610367565b005b3480156101a757600080fd5b506101bb6101b6366004612991565b61039f565b6040516101309190613720565b3480156101d457600080fd5b506101e86101e3366004612828565b6103be565b604051610130919061363a565b34801561020157600080fd5b5061019961021036600461295f565b6103d8565b34801561022157600080fd5b50610199610230366004612991565b6103db565b34801561024157600080fd5b50610199610426565b34801561025657600080fd5b50610199610479565b34801561026b57600080fd5b5061015961027a366004612796565b610501565b34801561028b57600080fd5b5061012361029a3660046127ce565b610514565b3480156102ab57600080fd5b5061015961065e565b6101996102c23660046129f1565b61066d565b3480156102d357600080fd5b506101596102e2366004612796565b6106d8565b3480156102f357600080fd5b5061019961030236600461286c565b6106eb565b34801561031357600080fd5b50610199610322366004612796565b610821565b600061033b6009338463ffffffff6108d716565b92915050565b600061033b60018363ffffffff6108fd16565b600061033b60098363ffffffff61098016565b60006060610374836109a3565b91509150805160001461039a5761039a6001600160a01b0383168263ffffffff610cfe16565b505050565b6103a76121b5565b6103b7838363ffffffff610d5816565b9392505050565b6103c66121cd565b6103b7600d848463ffffffff610dd116565b50565b60006103f060006103ea610ebf565b85610ee3565b905060606104156104106001600160a01b0384168563ffffffff610f5516565b610fdf565b905061042081611008565b50505050565b61045760017ffe1e3164ba4910db3c9afd049cd8feb4552390569c846692e6df4ac68aeaa90e63ffffffff61101016565b600280546001600160a01b0319166001600160a01b0392909216919091179055565b610481611078565b6000546001600160a01b039081169116146104b75760405162461bcd60e51b81526004016104ae90613487565b60405180910390fd5b600080546040516001600160a01b03909116907f8be0079c531659141344cd1fd0a4f28419497f9722a3daafe3b4186f6b6457e0908390a3600080546001600160a01b0319169055565b600061033b60018363ffffffff61107c16565b336000908152600960205260408120546105405760405162461bcd60e51b81526004016104ae906132be565b821561057c576105606001600160a01b038716858563ffffffff6110b816565b61057c5760405162461bcd60e51b81526004016104ae906133cb565b81156105b85761059c6001600160a01b038716868463ffffffff6110b816565b6105b85760405162461bcd60e51b81526004016104ae906131a7565b60405163c3275c7960e01b81526001600160a01b0386169063c3275c79906105e4903390600401612e39565b602060405180830381600087803b1580156105fe57600080fd5b505af1158015610612573d6000803e3d6000fd5b505050506040513d601f19601f820116820180604052508101906106369190612943565b6106525760405162461bcd60e51b81526004016104ae90613592565b50600195945050505050565b6000546001600160a01b031690565b825160a00151600061068085858561112a565b9050600061068d8261130e565b865180516020909101519192506106b7916001600160a01b0384169190600063ffffffff61132716565b6106d06001600160a01b0382168463ffffffff610cfe16565b505050505050565b600061033b60098363ffffffff6113c516565b6106f3611078565b6000546001600160a01b039081169116146107205760405162461bcd60e51b81526004016104ae90613487565b6003546001600160a01b0316156107495760405162461bcd60e51b81526004016104ae90613291565b600380546001600160a01b0319166001600160a01b0387161790556004849055600583905560005b82518110156107b5576107826121f4565b83828151811061078e57fe5b602090810291909101015190506107ac600d8263ffffffff6113e816565b50600101610771565b5060005b81518110156106d0576107ca612222565b8282815181106107d657fe5b6020908102919091018101518082015190516001600160a01b0390811660009081526008909352604090922080546001600160a01b03191692909116919091179055506001016107b9565b610829611078565b6000546001600160a01b039081169116146108565760405162461bcd60e51b81526004016104ae90613487565b6001600160a01b03811661087c5760405162461bcd60e51b81526004016104ae906130b0565b600080546040516001600160a01b03808516939216917f8be0079c531659141344cd1fd0a4f28419497f9722a3daafe3b4186f6b6457e091a3600080546001600160a01b0319166001600160a01b0392909216919091179055565b80516020918201206001600160a01b039290921660009081529290526040909120541490565b600282015460405163028c4f4160e41b81526000916001600160a01b0316906328c4f41090610930908590600401612e39565b60206040518083038186803b15801561094857600080fd5b505afa15801561095c573d6000803e3d6000fd5b505050506040513d601f19601f820116820180604052508101906103b791906127b2565b6001600160a01b0380821660009081526002840160205260409020541692915050565b600060606109af612239565b604080516080810182528551518183019081528251808401909352338352865151606090810151929384939184019160208201906109f690600190600a81046103e86114a2565b90529052815260408051608081018252602088810180515183528051820151838301528051840151938301939093529151606090810151908201529101528451909150610a5490610a46906115a2565b85519063ffffffff6115bb16565b610a705760405162461bcd60e51b81526004016104ae90613443565b835151600090610a7f906115ec565b600254909150610a9e906001600160a01b03168263ffffffff6115f716565b9350610ab160098563ffffffff61160316565b15610ace5760405162461bcd60e51b81526004016104ae90612fd4565b610b03846001604051602001610ae49190612e30565b60408051601f198184030181529190526009919063ffffffff61162116565b84515160200151610b1c9060019063ffffffff6108fd16565b6001600160a01b031663159ab14d86602001516040015187600001516000015160600151610b4986611644565b8960200151606001516040518563ffffffff1660e01b8152600401610b719493929190612f19565b602060405180830381600087803b158015610b8b57600080fd5b505af1158015610b9f573d6000803e3d6000fd5b505050506040513d601f19601f82011682018060405250810190610bc39190612ba2565b50845151606001518251600091610be0919063ffffffff61164f16565b9050610beb8261130e565b508551518051602090910151610c13916001600160a01b03881691600163ffffffff61132716565b855151516001600160a01b03163314801590610c33575085516020015134145b15610cbe57855151516040516001600160a01b03909116903480156108fc02916000818181858888f19350505050158015610c72573d6000803e3d6000fd5b5085515160200151610c94906001600160a01b0316338363ffffffff6110b816565b610cb05760405162461bcd60e51b81526004016104ae906130f6565b85515160a001519350610cf6565b855151516001600160a01b0316331415610cde5785604001519350610cf6565b60405162461bcd60e51b81526004016104ae906134bc565b505050915091565b604051630bfceb2b60e31b81526001600160a01b03831690635fe7595890610d2a908490600401612eae565b600060405180830381600087803b158015610d4457600080fd5b505af11580156106d0573d6000803e3d6000fd5b610d606121b5565b606030610d6d858561167c565b604051610d7a9190612de3565b6000604051808303816000865af19150503d8060008114610db7576040519150601f19603f3d011682016040523d82523d6000602084013e610dbc565b606091505b50915050610dc9816116d2565b949350505050565b610dd96121cd565b610de16121cd565b846000610dee86866116ee565b815260208082019290925260409081016000208151608081018352815460ff8116151582526001600160a01b0361010090910481169482019490945260018201548416928101929092526002015490911660608201529050610e4f81611716565b610dc957846000610e608686611728565b815260208082019290925260409081016000208151608081018352815460ff81161515825261010090046001600160a01b0390811694820194909452600182015484169281019290925260020154909116606082015295945050505050565b7fad53495153c7c363e98a26920ec679e0e687636458f6908c91cf6deadb19080190565b60008084471015610f065760405162461bcd60e51b81526004016104ae906135f5565b8251610f245760405162461bcd60e51b81526004016104ae90613016565b8383516020850187f590506001600160a01b038116610dc95760405162461bcd60e51b81526004016104ae90613394565b610f5d6121b5565b60006060846001600160a01b0316610f7485611743565b604051610f819190612de3565b600060405180830381855af49150503d8060008114610fbc576040519150601f19603f3d011682016040523d82523d6000602084013e610fc1565b606091505b50604080518082019091529115158252602082015295945050505050565b606081604051602001610ff29190613720565b6040516020818303038152906040529050919050565b805160208201fd5b60405163dd678a0760e01b815260009073__ShifterBorrowProxyFactoryLib__________9063dd678a079061104c908690869060040161362c565b60206040518083038186803b15801561106457600080fd5b505af415801561095c573d6000803e3d6000fd5b3390565b6001600160a01b038082166000908152600784016020526040812054909116806103b75760405162461bcd60e51b81526004016104ae9061355d565b600080846001600160a01b03166110cf8585611796565b6040516110dc9190612de3565b6000604051808303816000865af19150503d8060008114611119576040519150601f19603f3d011682016040523d82523d6000602084013e61111e565b606091505b50909695505050505050565b825160800151600090156111505760405162461bcd60e51b81526004016104ae906132f5565b348460200151146111735760405162461bcd60e51b81526004016104ae9061315b565b61118c61117f856115a2565b859063ffffffff6115bb16565b6111a85760405162461bcd60e51b81526004016104ae90613443565b6111b0612259565b5083516111bc816115ec565b6002549092506000906111de906001600160a01b03168463ffffffff6115f716565b90506111f160098263ffffffff61160316565b1561120e5760405162461bcd60e51b81526004016104ae90612fd4565b604080516000808252602082019092529061123f565b61122c6121b5565b8152602001906001900390816112245790505b5060a083015261124d612290565b60405180604001604052808481526020016040518060400160405280336001600160a01b0316815260200161129487606001518b8b60016114a2909392919063ffffffff16565b9052905290506112a6600183836117b3565b6112c88360200151836112b884611852565b600192919063ffffffff61188a16565b60208301516112e8906001600160a01b031633308963ffffffff61192f16565b6113045760405162461bcd60e51b81526004016104ae90613505565b5050509392505050565b60025460009061033b906001600160a01b0316836119a3565b6040516329c8702d60e01b81526001600160a01b038516906329c8702d9061135790869086908690600401612e66565b602060405180830381600087803b15801561137157600080fd5b505af1158015611385573d6000803e3d6000fd5b505050506040513d601f19601f820116820180604052508101906113a99190612943565b6104205760405162461bcd60e51b81526004016104ae906131de565b6001600160a01b0380821660009081526001840160205260409020541692915050565b6001815160028111156113f757fe5b14156114465760005b816040015151811015611440576114388383602001518460400151848151811061142657fe5b602002602001015185606001516119f3565b600101611400565b5061149e565b60028151600281111561145557fe5b141561149e5760005b81604001515181101561039a576114968383602001518460400151848151811061148457fe5b60200260200101518560600151611a7d565b60010161145e565b5050565b6114aa6122b0565b84600301548210156114ce5760405162461bcd60e51b81526004016104ae9061304b565b60006114e9670de0b6b3a7640000606463ffffffff611a8b16565b9050611504670de0b6b3a7640000606463ffffffff611a8b16565b61152c8661152087670de0b6b3a764000063ffffffff611acd16565b9063ffffffff611a8b16565b116115495760405162461bcd60e51b81526004016104ae906135c9565b600084861061156b5761156686611520848863ffffffff611acd16565b61156d565b815b905060405180608001604052808543018152602001868152602001886004015481526020018281525092505050949350505050565b60006115ad82611b07565b805190602001209050919050565b60006115d36115c983611b27565b8460400151611b57565b8351516001600160a01b03908116911614905092915050565b60006115ad82611c85565b60006103b78383611ca1565b6001600160a01b031660009081526020919091526040902054151590565b80516020918201206001600160a01b039092166000908152929052604090912055565b60006115ad82611cbc565b60006103b7670de0b6b3a76400006115208560200151602001516060015185611acd90919063ffffffff16565b6060635f7d2b5760e01b8383604051602401611699929190612f6f565b60408051601f198184030181529190526020810180516001600160e01b03166001600160e01b0319909316929092179091529392505050565b6116da6121b5565b8180602001905181019061033b9190612a3c565b6000806116fa84611ce3565b90506117068184611ce7565b8051906020012091505092915050565b602001516001600160a01b0316151590565b60006117348383611d13565b80519060200120905092915050565b60606309c5eabe60e01b8260405160240161175e9190612f5c565b60408051601f198184030181529190526020810180516001600160e01b03166001600160e01b03199093169290921790915292915050565b606063a9059cbb60e01b8383604051602401611699929190612e4d565b60606117be82611d28565b8251602001519091506117dd906008860190859063ffffffff611d3b16565b8151516117f6906008860190859063ffffffff611d6f16565b8151516040516001600160a01b03909116903480156108fc02916000818181858888f1935050505015801561182f573d6000803e3d6000fd5b5061184460088501848363ffffffff61162116565b815151610420908483611da3565b600061033b61187861186384611df3565b61186c85611e28565b9063ffffffff611e5d16565b8351606001519063ffffffff611e8216565b611894848461107c565b6001600160a01b031663185cc75183836040518363ffffffff1660e01b81526004016118c1929190612e4d565b602060405180830381600087803b1580156118db57600080fd5b505af11580156118ef573d6000803e3d6000fd5b505050506040513d601f19601f820116820180604052508101906119139190612943565b6104205760405162461bcd60e51b81526004016104ae9061324d565b600080856001600160a01b0316611947868686611ec4565b6040516119549190612de3565b6000604051808303816000865af19150503d8060008114611991576040519150601f19603f3d011682016040523d82523d6000602084013e611996565b606091505b5090979650505050505050565b600060606119b084611f1d565b80519091508390602083018282826000f5945050506001600160a01b0383166119eb5760405162461bcd60e51b81526004016104ae90613535565b505092915050565b80846000611a0186866116ee565b81526020808201929092526040908101600020835181549385015160ff1990941690151517610100600160a81b0319166101006001600160a01b0394851602178155908301516001820180546001600160a01b031990811692851692909217905560609093015160029091018054909316911617905550505050565b80846000611a018686611728565b60006103b783836040518060400160405280601a81526020017f536166654d6174683a206469766973696f6e206279207a65726f000000000000815250612083565b600082611adc5750600061033b565b82820282848281611ae957fe5b04146103b75760405162461bcd60e51b81526004016104ae90613402565b606080611b1b836000015160a001516120ba565b90506103b783826120cd565b600081604051602001611b3a9190612dff565b604051602081830303815290604052805190602001209050919050565b60008151604114611b7a5760405162461bcd60e51b81526004016104ae90613079565b60208201516040830151606084015160001a7f7fffffffffffffffffffffffffffffff5d576e7357a4501ddfe92f46681b20a0821115611bcc5760405162461bcd60e51b81526004016104ae9061320b565b8060ff16601b14158015611be457508060ff16601c14155b15611c015760405162461bcd60e51b81526004016104ae90613352565b600060018783868660405160008152602001604052604051611c269493929190612f3e565b6020604051602081039080840390855afa158015611c48573d6000803e3d6000fd5b5050604051601f1901519150506001600160a01b038116611c7b5760405162461bcd60e51b81526004016104ae90612f9d565b9695505050505050565b606080611c958360a001516120ba565b90506103b78382612103565b60006103b782611cb085611f1d565b80519060200120612134565b8051516040908101516020808401518051908201519351606094610ff29493909101612db5565b3f90565b60608282604051602001611cfc929190612dcb565b604051602081830303815290604052905092915050565b60608282604051602001611cfc929190612d50565b606081604051602001610ff29190613678565b6001600160a01b039182166000908152600290930160205260409092208054919092166001600160a01b0319909116179055565b6001600160a01b039182166000908152600190930160205260409092208054919092166001600160a01b0319909116179055565b816001600160a01b0316836001600160a01b03167f9ae84ac2ad8f721c2e62d211eca0ae34951726f8834913af6c5ebb81610bb1f883604051611de69190612f5c565b60405180910390a3505050565b600061033b670de0b6b3a764000061152084602001516020015160600151856000015160600151611acd90919063ffffffff16565b600061033b670de0b6b3a764000061152084602001516020015160400151856000015160600151611acd90919063ffffffff16565b6000828201838110156103b75760405162461bcd60e51b81526004016104ae90613124565b60006103b783836040518060400160405280601e81526020017f536166654d6174683a207375627472616374696f6e206f766572666c6f770000815250612141565b60606323b872dd60e01b848484604051602401611ee393929190612e8a565b60408051601f198184030181529190526020810180516001600160e01b03166001600160e01b031990931692909217909152949350505050565b6040805160008152602081019091526060908190611f3e9060448101612f5c565b60408051601f198184030181529190526020810180516001600160e01b03166352e831dd60e01b17905280519091506063016001600160401b0381118015611f8557600080fd5b506040519080825280601f01601f191660200182016040528015611fb0576020820181803683370190505b507f3d3d606380380380913d393d73bebebebebebebebebebebebebebebebebebebe6020820152600160601b308102602d8301527f5af4602a57600080fd5b602d8060366000396000f3363d3d373d3d3d363d73be6041830152840260608201526e5af43d82803e903d91602b57fd5bf360881b6074820152915060005b815181101561207c5781818151811061204357fe5b602001015160f81c60f81b83826063018151811061205d57fe5b60200101906001600160f81b031916908160001a90535060010161202e565b5050919050565b600081836120a45760405162461bcd60e51b81526004016104ae9190612f5c565b5060008385816120b057fe5b0495945050505050565b606081604051602001610ff29190612eae565b81516020808201516040808401516060858101518589015160809097015193519196611cfc9630969592939192918a9101612ce9565b60608260000151836020015184604001518560600151866080015186604051602001611cfc96959493929190612c89565b60006103b783833061216d565b600081848411156121655760405162461bcd60e51b81526004016104ae9190612f5c565b505050900390565b60008060ff60f81b83868660405160200161218b9493929190612d7c565b60408051808303601f1901815291905280516020909101206001600160a01b031695945050505050565b60408051808201909152600081526060602082015290565b60408051608081018252600080825260208201819052918101829052606081019190915290565b60408051608081019091528060008152600060208201526060604082018190520161221d6121cd565b905290565b604080518082019091526000808252602082015290565b604051806040016040528061224c612290565b815260200161221d6122d8565b6040805160c0810182526000808252602082018190529181018290526060808201839052608082019290925260a081019190915290565b60405180604001604052806122a3612259565b815260200161221d6122fe565b6040518060800160405280600081526020016000815260200160008152602001600081525090565b604080516080810182526000808252602082018190529181019190915260608082015290565b604051806040016040528060006001600160a01b0316815260200161221d6122b0565b803561033b816137db565b600082601f83011261233c578081fd5b813561234f61234a8261376d565b613747565b818152915060208083019084810160005b848110156123d75781358701604080601f19838c0301121561238157600080fd5b61238a81613747565b6123968b878501612321565b8152818301356001600160401b038111156123b057600080fd5b6123be8c88838701016124a6565b8288015250865250509282019290820190600101612360565b505050505092915050565b600082601f8301126123f2578081fd5b813561240061234a8261376d565b818152915060208083019084810160408085028701830188101561242357600080fd5b6000805b868110156124765782848b03121561243d578182fd5b61244683613747565b8435612451816137db565b815284860135612460816137db565b8187015286529484019492820192600101612427565b5050505050505092915050565b803561033b816137f0565b80356001600160e01b03198116811461033b57600080fd5b600082601f8301126124b6578081fd5b81356124c461234a8261378c565b91508082528360208285010111156124db57600080fd5b8060208401602084013760009082016020015292915050565b600060608284031215612505578081fd5b61250f6060613747565b905081356001600160401b038082111561252857600080fd5b81840160c0818703121561253b57600080fd5b61254560c0613747565b92508035612552816137db565b83526020810135612562816137db565b80602085015250604081013560408401526060810135606084015261258a8660808301612483565b608084015260a0810135828111156125a157600080fd5b6125ad8782840161232c565b60a085015250508183526020840135602084015260408401359150808211156125d557600080fd5b506125e2848285016124a6565b60408301525092915050565b600060e082840312156125ff578081fd5b6126096080613747565b90508135612616816137fe565b8152602082810135612627816137db565b8282015260408301356001600160401b0381111561264457600080fd5b80840185601f82011261265657600080fd5b8035915061266661234a8361376d565b828152838101908285018585028401860189101561268357600080fd5b600093505b848410156126ae5761269a898261248e565b835260019390930192918501918501612688565b5080604087015250505050506126c783606084016126d2565b606082015292915050565b6000608082840312156126e3578081fd5b6126ed6080613747565b905081356126fa816137f0565b8152602082013561270a816137db565b6020820152604082013561271d816137db565b604082015260608201356126c7816137db565b600060808284031215612741578081fd5b61274b6080613747565b905081358152602082013560208201526040820135604082015260608201356001600160401b0381111561277e57600080fd5b61278a848285016124a6565b60608301525092915050565b6000602082840312156127a7578081fd5b81356103b7816137db565b6000602082840312156127c3578081fd5b81516103b7816137db565b600080600080600060a086880312156127e5578081fd5b85356127f0816137db565b94506020860135612800816137db565b93506040860135612810816137db565b94979396509394606081013594506080013592915050565b6000806040838503121561283a578182fd5b8235612845816137db565b915060208301356001600160e01b031981168114612861578182fd5b809150509250929050565b600080600080600060a08688031215612883578283fd5b853561288e816137db565b945060208681013594506040870135935060608701356001600160401b03808211156128b8578384fd5b8189018a601f8201126128c9578485fd5b803592506128d961234a8461376d565b83815284810190828601875b8681101561290e576128fc8f8984358801016125ee565b845292870192908701906001016128e5565b509097505050506080890135925080831115612928578384fd5b5050612936888289016123e2565b9150509295509295909350565b600060208284031215612954578081fd5b81516103b7816137f0565b600060208284031215612970578081fd5b81356001600160401b03811115612985578182fd5b610dc9848285016124a6565b600080604083850312156129a3578182fd5b82356001600160401b03808211156129b9578384fd5b6129c5868387016124a6565b935060208501359150808211156129da578283fd5b506129e7858286016124a6565b9150509250929050565b600080600060608486031215612a05578081fd5b83356001600160401b03811115612a1a578182fd5b612a26868287016124f4565b9660208601359650604090950135949350505050565b60006020808385031215612a4e578182fd5b82516001600160401b0380821115612a64578384fd5b81850160408188031215612a76578485fd5b612a806040613747565b92508051612a8d816137f0565b83528084015182811115612a9f578586fd5b019050601f81018613612ab0578384fd5b8051612abe61234a8261378c565b8181528785838501011115612ad1578586fd5b612ae0828683018786016137af565b9383019390935250949350505050565b600060208284031215612b01578081fd5b81356001600160401b0380821115612b17578283fd5b81840160608187031215612b29578384fd5b612b336060613747565b9250803582811115612b43578485fd5b612b4f878284016124f4565b845250602081013582811115612b63578485fd5b612b6f87828401612730565b602085015250604081013582811115612b86578485fd5b612b928782840161232c565b6040850152509195945050505050565b600060208284031215612bb3578081fd5b5051919050565b6001600160a01b03169052565b6000815180845260208085019450848183028601828601855b85811015611996578383038952612bf8838351612c3c565b98850198925090840190600101612be0565b15159052565b60008151808452612c288160208601602086016137af565b601f01601f19169290920160200192915050565b600060018060a01b038251168352602082015160406020850152610dc96040850182612c10565b805182526020810151602083015260408101516040830152606081015160608301525050565b60006bffffffffffffffffffffffff19808960601b168352808860601b1660148401525085602883015284604883015283151560f81b60688301528251612cd78160698501602087016137af565b91909101606901979650505050505050565b60006bffffffffffffffffffffffff19808a60601b168352808960601b1660148401525086602883015285604883015284606883015283151560f81b60888301528251612d3d8160898501602087016137af565b9190910160890198975050505050505050565b60609290921b6bffffffffffffffffffffffff191682526001600160e01b031916601482015260180190565b6001600160f81b031994909416845260609290921b6bffffffffffffffffffffffff191660018401526015830152603582015260550190565b9283526020830191909152604082015260600190565b9182526001600160e01b031916602082015260240190565b60008251612df58184602087016137af565b9190910192915050565b7f19457468657265756d205369676e6564204d6573736167653a0a3332000000008152601c810191909152603c0190565b90815260200190565b6001600160a01b0391909116815260200190565b6001600160a01b03929092168252602082015260400190565b6001600160a01b039384168152919092166020820152901515604082015260600190565b6001600160a01b039384168152919092166020820152604081019190915260600190565b6000602080830181845280855180835260408601915060408482028701019250838701855b82811015612f0157603f19888603018452612eef858351612c3c565b94509285019290850190600101612ed3565b5092979650505050505050565b901515815260200190565b600085825284602083015283604083015260806060830152611c7b6080830184612c10565b93845260ff9290921660208401526040830152606082015260800190565b6000602082526103b76020830184612c10565b600060408252612f826040830185612c10565b8281036020840152612f948185612c10565b95945050505050565b60208082526018908201527f45434453413a20696e76616c6964207369676e61747572650000000000000000604082015260600190565b60208082526022908201527f70726f78792068617320616c7265616479206265656e20696e697469616c697a604082015261195960f21b606082015260800190565b6020808252818101527f437265617465323a2062797465636f6465206c656e677468206973207a65726f604082015260600190565b6020808252601490820152731d1a5b595bdd5d081a5b9cdd59999a58da595b9d60621b604082015260600190565b6020808252601f908201527f45434453413a20696e76616c6964207369676e6174757265206c656e67746800604082015260600190565b60208082526026908201527f4f776e61626c653a206e6577206f776e657220697320746865207a65726f206160408201526564647265737360d01b606082015260800190565b6020808252601490820152731ad9595c195c881c185e5bdd5d0819985a5b195960621b604082015260600190565b6020808252601b908201527f536166654d6174683a206164646974696f6e206f766572666c6f770000000000604082015260600190565b6020808252602c908201527f737570706c696564206574686572206973206e6f7420657175616c20746f206760408201526b185cc81c995c5d595cdd195960a21b606082015260800190565b6020808252601a908201527f6661696c656420746f207265706179206c6f73742066756e6473000000000000604082015260600190565b6020808252601390820152727365747570207068617365206661696c75726560681b604082015260600190565b60208082526022908201527f45434453413a20696e76616c6964207369676e6174757265202773272076616c604082015261756560f01b606082015260800190565b60208082526024908201527f696e73756666696369656e742066756e647320696e206c6971756964697479206040820152631c1bdbdb60e21b606082015260800190565b602080825260139082015272185b1c9958591e481a5b9a5d1a585b1a5e9959606a1b604082015260600190565b6020808252601d908201527f6e6f742061207265676973746572656420626f72726f772070726f7879000000604082015260600190565b60208082526037908201527f6973206e6f742061206c6f616e20726571756573742c20747279207573696e6760408201527f2065786563757465536869667453616e73426f72726f77000000000000000000606082015260800190565b60208082526022908201527f45434453413a20696e76616c6964207369676e6174757265202776272076616c604082015261756560f01b606082015260800190565b60208082526019908201527f437265617465323a204661696c6564206f6e206465706c6f7900000000000000604082015260600190565b6020808252601f908201527f6661696c656420746f2072657475726e20626f6e6420746f206b656570657200604082015260600190565b60208082526021908201527f536166654d6174683a206d756c7469706c69636174696f6e206f766572666c6f6040820152607760f81b606082015260800190565b60208082526024908201527f6c69717569646974792072657175657374207369676e61747572652072656a6560408201526318dd195960e21b606082015260800190565b6020808252818101527f4f776e61626c653a2063616c6c6572206973206e6f7420746865206f776e6572604082015260600190565b60208082526029908201527f696e636f72726563742067617320737570706c696564207769746820676173206040820152681c995c5d595cdd195960ba1b606082015260800190565b602080825260169082015275189bdb99081cdd589b5a5cdcda5bdb8819985a5b195960521b604082015260600190565b6020808252600e908201526d18dc99585d194c8819985a5b195960921b604082015260600190565b6020808252818101527f6e6f7420612072656769737465726564206c697175696469747920746f6b656e604082015260600190565b60208082526017908201527f6c6f616e207265736f6c7574696f6e206661696c757265000000000000000000604082015260600190565b602080825260129082015271626f6e642062656c6f77206d696e696d756d60701b604082015260600190565b6020808252601d908201527f437265617465323a20696e73756666696369656e742062616c616e6365000000604082015260600190565b918252602082015260400190565b8151151581526020808301516001600160a01b0390811691830191909152604080840151821690830152606092830151169181019190915260800190565b600060208252825160c0602084015261369560e084018251612bba565b60208101516136a8610100850182612bba565b506040810151610120840152606081015161014084015260808101516136d2610160850182612c0a565b5060a081015160c06101808501526136ee6101a0850182612bc7565b9150506020840151613704604085018251612bba565b60208101516137166060860182612c63565b5090949350505050565b6000602082528251151560208301526020830151604080840152610dc96060840182612c10565b6040518181016001600160401b038111828210171561376557600080fd5b604052919050565b60006001600160401b03821115613782578081fd5b5060209081020190565b60006001600160401b038211156137a1578081fd5b50601f01601f191660200190565b60005b838110156137ca5781810151838201526020016137b2565b838111156104205750506000910152565b6001600160a01b03811681146103d857600080fd5b80151581146103d857600080fd5b600381106103d857600080fdfea26469706673582212202af98cd51ad637b7123253dff9c15e37f7ed9a34706b906ec26270bbc788ead264736f6c63430006060033",
  "immutableReferences": {},
  "source": "pragma solidity ^0.6.0;\npragma experimental ABIEncoderV2;\n\nimport { Ownable } from \"openzeppelin-solidity/contracts/access/Ownable.sol\";\nimport { IShifterRegistry } from \"./interfaces/IShifterRegistry.sol\";\nimport { IShifter } from \"./interfaces/IShifter.sol\";\nimport { ShifterPoolLib } from \"./ShifterPoolLib.sol\";\nimport { ShifterBorrowProxyLib } from \"./ShifterBorrowProxyLib.sol\";\nimport { ShifterBorrowProxyFactoryLib } from \"./ShifterBorrowProxyFactoryLib.sol\";\nimport { ShifterBorrowProxy } from \"./ShifterBorrowProxy.sol\";\nimport { BorrowProxy } from \"./BorrowProxy.sol\";\nimport { BorrowProxyLib } from \"./BorrowProxyLib.sol\";\nimport { TokenUtils } from \"./utils/TokenUtils.sol\";\nimport { ViewExecutor } from \"./utils/ViewExecutor.sol\";\nimport { LiquidityToken } from \"./LiquidityToken.sol\";\nimport { SandboxLib } from \"./utils/sandbox/SandboxLib.sol\";\nimport { SafeViewExecutor } from \"./utils/sandbox/SafeViewExecutor.sol\";\nimport { FactoryLib } from \"./FactoryLib.sol\";\nimport { NullCloneConstructor } from \"./NullCloneConstructor.sol\";\n\ncontract ShifterPool is Ownable, SafeViewExecutor, NullCloneConstructor {\n  using SandboxLib for *;\n  using ShifterPoolLib for *;\n  using TokenUtils for *;\n  using ShifterBorrowProxyLib for *;\n  using ShifterBorrowProxyFactoryLib for *;\n  using BorrowProxyLib for *;\n  ShifterPoolLib.Isolate isolate;\n  constructor() Ownable() public {\n    isolate.genesis = block.number;\n  }\n  function setup(address shifterRegistry, uint256 minTimeout, uint256 poolFee, BorrowProxyLib.ModuleRegistration[] memory modules, ShifterPoolLib.LiquidityTokenLaunch[] memory tokenLaunches) public onlyOwner {\n    require(isolate.shifterRegistry == address(0x0), \"already initialized\");\n    isolate.shifterRegistry = shifterRegistry;\n    isolate.minTimeout = minTimeout;\n    isolate.poolFee = poolFee;\n    for (uint256 i = 0; i < modules.length; i++) {\n      BorrowProxyLib.ModuleRegistration memory registration = modules[i];\n      isolate.registry.registryRegisterModule(registration);\n    }\n    for (uint256 i = 0; i < tokenLaunches.length; i++) {\n      ShifterPoolLib.LiquidityTokenLaunch memory launch = tokenLaunches[i];\n      isolate.tokenToLiquidityToken[launch.token] = launch.liqToken;\n    }\n  }\n  bytes32 constant BORROW_PROXY_IMPLEMENTATION_SALT = 0xfe1e3164ba4910db3c9afd049cd8feb4552390569c846692e6df4ac68aeaa90e;\n  function deployBorrowProxyImplementation() public {\n    isolate.borrowProxyImplementation = isolate.makeBorrowProxy(BORROW_PROXY_IMPLEMENTATION_SALT);\n  }\n  function deployBorrowProxyClone(bytes32 salt) internal returns (address payable created) {\n    created = address(uint160(FactoryLib.create2Clone(isolate.borrowProxyImplementation, uint256(salt))));\n  }\n  function _executeBorrow(ShifterBorrowProxyLib.LiquidityRequestParcel memory liquidityRequestParcel, uint256 bond, uint256 timeoutExpiry) internal returns (bytes32 borrowerSalt) {\n    require(liquidityRequestParcel.request.forbidLoan == false, \"is not a loan request, try using executeShiftSansBorrow\");\n    require(\n      liquidityRequestParcel.gasRequested == msg.value,\n      \"supplied ether is not equal to gas requested\"\n    );\n    require(\n      liquidityRequestParcel.validateSignature(\n        liquidityRequestParcel.computeLiquidityRequestHash()\n      ),\n      \"liquidity request signature rejected\"\n    );\n    ShifterBorrowProxyLib.LiquidityRequest memory liquidityRequest = liquidityRequestParcel.request;\n    borrowerSalt = liquidityRequest.computeBorrowerSalt();\n    address payable proxyAddress = address(uint160(isolate.borrowProxyImplementation.deriveBorrowerAddress(borrowerSalt)));\n    require(!isolate.borrowProxyController.isInitialized(proxyAddress), \"proxy has already been initialized\");\n    liquidityRequest.actions = new ShifterBorrowProxyLib.InitializationAction[](0);\n    ShifterBorrowProxyLib.ProxyRecord memory proxyRecord = ShifterBorrowProxyLib.ProxyRecord({\n      request: liquidityRequest,\n      loan: ShifterBorrowProxyLib.LenderRecord(\n        msg.sender,\n        isolate.computeLoanParams(liquidityRequest.amount, bond, timeoutExpiry)\n      )\n    });\n    ShifterPoolLib.mapBorrowProxy(isolate, proxyAddress, proxyRecord);\n    isolate.issueLoan(liquidityRequest.token, proxyAddress, proxyRecord.computePostFee());\n    require(liquidityRequest.token.transferTokenFrom(msg.sender, address(this), bond), \"bond submission failed\");\n    return borrowerSalt;\n  }\n  function executeBorrow(ShifterBorrowProxyLib.LiquidityRequestParcel memory liquidityRequestParcel, uint256 bond, uint256 timeoutExpiry) public payable {\n    ShifterBorrowProxyLib.InitializationAction[] memory actions = liquidityRequestParcel.request.actions;\n    bytes32 salt = _executeBorrow(liquidityRequestParcel, bond, timeoutExpiry);\n    address payable proxyAddress = deployBorrowProxyClone(salt);\n    proxyAddress.setupBorrowProxy(liquidityRequestParcel.request.borrower, liquidityRequestParcel.request.token, false);\n    proxyAddress.sendInitializationActions(actions);\n  }\n  function executeShiftSansBorrow(ShifterBorrowProxyLib.SansBorrowShiftParcel memory parcel) public payable {\n    (address payable proxyAddress, ShifterBorrowProxyLib.InitializationAction[] memory actions) = _executeShiftSansBorrow(parcel);\n    if (actions.length != 0) proxyAddress.sendInitializationActions(actions);\n  }\n  function _executeShiftSansBorrow(ShifterBorrowProxyLib.SansBorrowShiftParcel memory parcel) internal returns (address payable proxyAddress, ShifterBorrowProxyLib.InitializationAction[] memory actions) {\n    ShifterBorrowProxyLib.TriggerParcel memory triggerParcel = ShifterBorrowProxyLib.TriggerParcel({\n      record: ShifterBorrowProxyLib.ProxyRecord({\n        request: parcel.liquidityRequestParcel.request,\n        loan: ShifterBorrowProxyLib.LenderRecord({\n          keeper: msg.sender,\n          params: isolate.computeLoanParams(parcel.liquidityRequestParcel.request.amount, parcel.liquidityRequestParcel.request.amount / 10, 1000)\n        })\n      }),\n      shiftParameters: ShifterBorrowProxyLib.ShiftParameters({\n        txhash: parcel.shiftParameters.txhash,\n        vout: parcel.shiftParameters.vout,\n        pHash: parcel.shiftParameters.pHash,\n        darknodeSignature: parcel.shiftParameters.darknodeSignature\n      })\n    });\n    require(\n      parcel.liquidityRequestParcel.validateSignature(\n        parcel.liquidityRequestParcel.computeLiquidityRequestHash()\n      ),\n      \"liquidity request signature rejected\"\n    );\n    bytes32 borrowerSalt = parcel.liquidityRequestParcel.request.computeBorrowerSalt();\n    proxyAddress = address(uint160(isolate.borrowProxyImplementation.deriveBorrowerAddress(borrowerSalt)));\n    require(!isolate.borrowProxyController.isInitialized(proxyAddress), \"proxy has already been initialized\");\n    isolate.borrowProxyController.mapProxyRecord(proxyAddress, abi.encodePacked(uint256(1)));\n    isolate.getShifter(parcel.liquidityRequestParcel.request.token).mint(parcel.shiftParameters.pHash, parcel.liquidityRequestParcel.request.amount, triggerParcel.computeNHash(), parcel.shiftParameters.darknodeSignature);\n    uint256 fee = triggerParcel.record.computeAdjustedKeeperFee(parcel.liquidityRequestParcel.request.amount);\n    deployBorrowProxyClone(borrowerSalt);\n    proxyAddress.setupBorrowProxy(parcel.liquidityRequestParcel.request.borrower, parcel.liquidityRequestParcel.request.token, true);\n    if (parcel.liquidityRequestParcel.request.borrower != msg.sender && msg.value == parcel.liquidityRequestParcel.gasRequested) {\n      parcel.liquidityRequestParcel.request.borrower.transfer(msg.value);\n      require(parcel.liquidityRequestParcel.request.token.sendToken(msg.sender, fee), \"keeper payout failed\");\n      actions = parcel.liquidityRequestParcel.request.actions;\n    } else if (parcel.liquidityRequestParcel.request.borrower == msg.sender) actions = parcel.actions;\n    else revert(\"incorrect gas supplied with gas requested\");\n  }\n  function validateProxyRecordHandler(bytes memory proxyRecord) public view returns (bool) {\n    return isolate.borrowProxyController.validateProxyRecord(msg.sender, proxyRecord);\n  }\n  function getProxyTokenHandler(address proxyAddress) public view returns (address) {\n    return isolate.borrowProxyController.getProxyToken(proxyAddress);\n  }\n  function getProxyOwnerHandler(address user) public view returns (address) {\n    return isolate.borrowProxyController.getProxyOwner(user);\n  }\n  function getShifterHandler(address token) public view returns (IShifter) {\n    return isolate.getShifter(token);\n  }\n  function getLiquidityTokenHandler(address token) public view returns (LiquidityToken) {\n    return LiquidityToken(isolate.getLiquidityToken(token));\n  }\n  function fetchModuleHandler(address to, bytes4 sig) public view returns (BorrowProxyLib.Module memory) {\n    return isolate.registry.resolveModule(to, sig);\n  }\n  function relayResolveLoan(address token, address liquidityToken, address keeper, uint256 bond, uint256 repay) public returns (bool) {\n    require(isolate.borrowProxyController.proxyInitializerRecord[msg.sender] != bytes32(0x0), \"not a registered borrow proxy\");\n    if (bond != 0) require(token.sendToken(keeper, bond), \"failed to return bond to keeper\");\n    if (repay != 0) require(token.sendToken(liquidityToken, repay), \"failed to repay lost funds\");\n    require(LiquidityToken(liquidityToken).resolveLoan(msg.sender), \"loan resolution failure\");\n    return true;\n  }\n}\n",
  "sourcePath": "/home/ray/0confirmation/packages/0confirmation-sol/contracts/ShifterPool.sol",
  "compiler": {
    "name": "solc",
    "version": "0.6.6+commit.6c089d02.Emscripten.clang"
  },
  "schemaVersion": "3.1.0",
  "updatedAt": "2020-05-17T00:14:32.352Z",
  "networkType": "ethereum",
  "devdoc": {
    "methods": {
      "owner()": {
        "details": "Returns the address of the current owner."
      },
      "renounceOwnership()": {
        "details": "Leaves the contract without owner. It will not be possible to call `onlyOwner` functions anymore. Can only be called by the current owner.     * NOTE: Renouncing ownership will leave the contract without an owner, thereby removing any functionality that is only available to the owner."
      },
      "transferOwnership(address)": {
        "details": "Transfers ownership of the contract to a new account (`newOwner`). Can only be called by the current owner."
      }
    }
  },
  "userdoc": {
    "methods": {}
  }
}