{
  "contractName": "ShifterBorrowProxy",
  "abi": [
    {
      "inputs": [],
      "stateMutability": "nonpayable",
      "type": "constructor"
    },
    {
      "stateMutability": "payable",
      "type": "fallback"
    },
    {
      "inputs": [
        {
          "internalType": "bytes",
          "name": "creationCode",
          "type": "bytes"
        },
        {
          "internalType": "bytes",
          "name": "context",
          "type": "bytes"
        }
      ],
      "name": "_executeSafeView",
      "outputs": [],
      "stateMutability": "nonpayable",
      "type": "function"
    },
    {
      "inputs": [
        {
          "internalType": "address",
          "name": "to",
          "type": "address"
        },
        {
          "internalType": "uint256",
          "name": "value",
          "type": "uint256"
        },
        {
          "internalType": "bytes",
          "name": "payload",
          "type": "bytes"
        }
      ],
      "name": "proxy",
      "outputs": [],
      "stateMutability": "nonpayable",
      "type": "function"
    },
    {
      "inputs": [
        {
          "internalType": "bytes",
          "name": "creationCode",
          "type": "bytes"
        },
        {
          "internalType": "bytes",
          "name": "context",
          "type": "bytes"
        }
      ],
      "name": "safeQuery",
      "outputs": [
        {
          "components": [
            {
              "internalType": "bool",
              "name": "success",
              "type": "bool"
            },
            {
              "internalType": "bytes",
              "name": "data",
              "type": "bytes"
            }
          ],
          "internalType": "struct SafeViewLib.SafeViewResult",
          "name": "",
          "type": "tuple"
        }
      ],
      "stateMutability": "nonpayable",
      "type": "function"
    },
    {
      "inputs": [
        {
          "internalType": "address",
          "name": "owner",
          "type": "address"
        },
        {
          "internalType": "address",
          "name": "token",
          "type": "address"
        }
      ],
      "name": "setup",
      "outputs": [
        {
          "internalType": "bool",
          "name": "",
          "type": "bool"
        }
      ],
      "stateMutability": "nonpayable",
      "type": "function"
    },
    {
      "stateMutability": "payable",
      "type": "receive"
    },
    {
      "inputs": [
        {
          "internalType": "bytes",
          "name": "data",
          "type": "bytes"
        }
      ],
      "name": "repayLoan",
      "outputs": [
        {
          "internalType": "bool",
          "name": "",
          "type": "bool"
        }
      ],
      "stateMutability": "nonpayable",
      "type": "function"
    },
    {
      "inputs": [
        {
          "internalType": "bytes",
          "name": "data",
          "type": "bytes"
        }
      ],
      "name": "defaultLoan",
      "outputs": [
        {
          "internalType": "bool",
          "name": "",
          "type": "bool"
        }
      ],
      "stateMutability": "nonpayable",
      "type": "function"
    },
    {
      "inputs": [
        {
          "components": [
            {
              "internalType": "address",
              "name": "to",
              "type": "address"
            },
            {
              "internalType": "bytes",
              "name": "txData",
              "type": "bytes"
            }
          ],
          "internalType": "struct ShifterBorrowProxyLib.InitializationAction[]",
          "name": "actions",
          "type": "tuple[]"
        }
      ],
      "name": "receiveInitializationActions",
      "outputs": [
        {
          "components": [
            {
              "internalType": "address",
              "name": "preprocessorAddress",
              "type": "address"
            },
            {
              "components": [
                {
                  "internalType": "address",
                  "name": "to",
                  "type": "address"
                },
                {
                  "internalType": "bytes",
                  "name": "txData",
                  "type": "bytes"
                },
                {
                  "internalType": "bool",
                  "name": "success",
                  "type": "bool"
                },
                {
                  "internalType": "bytes",
                  "name": "returnData",
                  "type": "bytes"
                }
              ],
              "internalType": "struct SandboxLib.ProtectedExecution[]",
              "name": "trace",
              "type": "tuple[]"
            }
          ],
          "internalType": "struct SandboxLib.Context",
          "name": "context",
          "type": "tuple"
        }
      ],
      "stateMutability": "nonpayable",
      "type": "function"
    }
  ],
  "bytecode": "0x608060405234801561001057600080fd5b50612ecb806100206000396000f3fe6080604052600436106100745760003560e01c80635f7d2b571161004e5780635f7d2b57146100f35780635fe7595814610113578063c4ddf36314610140578063f07827c7146101605761007b565b80632692f25a1461007d5780632d34ba791461009d57806356b8e146146100d35761007b565b3661007b57005b005b34801561008957600080fd5b5061007b6100983660046120f0565b61018d565b3480156100a957600080fd5b506100bd6100b83660046120b8565b61042d565b6040516100ca91906126e8565b60405180910390f35b3480156100df57600080fd5b506100bd6100ee366004612234565b61049b565b3480156100ff57600080fd5b5061007b61010e366004612266565b61084f565b34801561011f57600080fd5b5061013361012e366004612146565b610902565b6040516100ca9190612b96565b34801561014c57600080fd5b506100bd61015b366004612234565b61093d565b34801561016c57600080fd5b5061018061017b366004612266565b610dd1565b6040516100ca9190612d74565b6001546001600160a01b03163314806101b057506000546001600160a01b031633145b806101ba57503330145b6101df5760405162461bcd60e51b81526004016101d6906128e1565b60405180910390fd5b60006101fb6101f68383600463ffffffff610df016565b610e19565b60e01b9050610208611c65565b604051632f1a48af60e01b815273__BorrowProxyLib________________________90632f1a48af906102449060009089908790600401612c5f565b60c06040518083038186803b15801561025c57600080fd5b505af4158015610270573d6000803e3d6000fd5b505050506040513d601f19601f820116820180604052508101906102949190612346565b6002546001600160a01b03166020820152600054909150600160a01b900460ff1680156102c45750604081015151155b156103675760006060866001600160a01b031686866040516102e69190612635565b60006040518083038185875af1925050503d8060008114610323576040519150601f19603f3d011682016040523d82523d6000602084013e610328565b606091505b5091509150816103545761033b81610e36565b60405162461bcd60e51b81526004016101d69190612722565b61035e8282610f29565b50505050610428565b6103748160400151610f3e565b6103905760405162461bcd60e51b81526004016101d690612818565b600060606103a583868863ffffffff610f5016565b91509150816103b75761033b81610e36565b60408084015101516001600160a01b0316156103e75760408084015101516103e79060079063ffffffff61106016565b6040830151606001516001600160a01b031615610419576040830151606001516104199060099063ffffffff61106016565b6104238282610f29565b505050505b505050565b6001546000906001600160a01b0316156104595760405162461bcd60e51b81526004016101d69061278f565b5060008054336001600160a01b0319918216179091556001805482166001600160a01b0385811691909117825560028054909316908416179091555b92915050565b60065460009060ff16156104c15760405162461bcd60e51b81526004016101d6906127ed565b600054600160a01b900460ff16156104eb5760405162461bcd60e51b81526004016101d690612961565b6104f4826110ba565b6105105760405162461bcd60e51b81526004016101d69061287e565b610518611c89565b6105218361113d565b600880546040805160208084028201810190925282815293945060609392919083018282801561057a57602002820191906000526020600020905b81546001600160a01b0316815260019091019060200180831161055c575b50505050509050438260200151602001516000015110610843576006805461ff0019166101001790556004545b81518110156105ff576207a1205a10806105e357506105e18282815181106105cb57fe5b60200260200101516001600160a01b0316611159565b155b156105f757600455506000915061084a9050565b6001016105a7565b5080516004908155600080548451602001516040516370a0823160e01b81526001600160a01b039283169491909216916370a082319161064191309101612651565b60206040518083038186803b15801561065957600080fd5b505afa15801561066d573d6000803e3d6000fd5b505050506040513d601f19601f820116820180604052508101906106919190612554565b8451602001519091506106b4906001600160a01b0316838363ffffffff6111da16565b6106d05760405162461bcd60e51b81526004016101d690612a80565b602080850151810151015184516060015182101561070a578451606001518203811115610706578451606001518203900361070a565b5060005b8451602001516040516303cc556d60e51b8152828403916001600160a01b0386169163801874ec9190839063798aada090610749908490600401612651565b60206040518083038186803b15801561076157600080fd5b505afa158015610775573d6000803e3d6000fd5b505050506040513d601f19601f8201168201806040525081019061079991906122c6565b60208a0151516040516001600160e01b031960e086901b1681526107c69392919088908890600401612665565b602060405180830381600087803b1580156107e057600080fd5b505af11580156107f4573d6000803e3d6000fd5b505050506040513d601f19601f820116820180604052508101906108189190612218565b6108345760405162461bcd60e51b81526004016101d690612a49565b6001965050505050505061084a565b6000925050505b919050565b6000610864600061085e61124c565b85611270565b905060606108896108846001600160a01b0384168563ffffffff6112e216565b61136c565b90506000826001600160a01b031661089f611395565b6040516108ac9190612635565b6000604051808303816000865af19150503d80600081146108e9576040519150601f19603f3d011682016040523d82523d6000602084013e6108ee565b606091505b505090506108fb826113c1565b5050505050565b61090a611ca9565b6000546001600160a01b031633146109345760405162461bcd60e51b81526004016101d6906128ac565b610495826113c9565b6000610947611cc1565b6109508361165d565b90506109676109628260000151611679565b6110ba565b6109835760405162461bcd60e51b81526004016101d69061287e565b600654610100900460ff16156109ab5760405162461bcd60e51b81526004016101d690612a12565b80518051606001516000916109c59163ffffffff61168c16565b60008054845151602001516040516303cc556d60e51b815293945091926001600160a01b039091169163798aada091610a019190600401612651565b60206040518083038186803b158015610a1957600080fd5b505afa158015610a2d573d6000803e3d6000fd5b505050506040513d601f19601f82011682018060405250810190610a5191906122c6565b60065490915060009060ff16610bde576006805460ff19166001179055600054845151602001516040516307ef1e3760e21b81526001600160a01b0390921691631fbc78dc91610aa391600401612651565b60206040518083038186803b158015610abb57600080fd5b505afa158015610acf573d6000803e3d6000fd5b505050506040513d601f19601f82011682018060405250810190610af391906122c6565b6001600160a01b031663159ab14d856060015186600001516000015160600151610b1c886116c5565b88608001516040518563ffffffff1660e01b8152600401610b4094939291906126f3565b602060405180830381600087803b158015610b5a57600080fd5b505af1158015610b6e573d6000803e3d6000fd5b505050506040513d601f19601f82011682018060405250810190610b929190612554565b600381905584515160200151909150610bbd906001600160a01b03168385840363ffffffff6111da16565b610bd95760405162461bcd60e51b81526004016101d69061284f565b610be3565b506003545b600a80546040805160208084028201810190925282815260609390929091830182828015610c3a57602002820191906000526020600020905b81546001600160a01b03168152600190910190602001808311610c1c575b50506005549394505050505b8151811015610ca1576207a1205a1080610c825750610c80828281518110610c6a57fe5b60200260200101516001600160a01b03166116de565b155b15610c9957600555506000945061084a9350505050565b600101610c46565b506000805460ff60a01b1916600160a01b17905584516020808201515191510151610cde916001600160a01b03909116908663ffffffff6111da16565b610cfa5760405162461bcd60e51b81526004016101d6906127bf565b600080548651805160209081015191810151805190820151909101516040516320061d3b60e21b81526001600160a01b039094169463801874ec94610d4894938a9390929091600401612665565b602060405180830381600087803b158015610d6257600080fd5b505af1158015610d76573d6000803e3d6000fd5b505050506040513d601f19601f82011682018060405250810190610d9a9190612218565b610db65760405162461bcd60e51b81526004016101d6906129cf565b8451805151610dc4916116f6565b5060019695505050505050565b610dd9611ca9565b610de9838363ffffffff61173b16565b9392505050565b610df8611cf8565b610e0284846117ac565b815260208101919091526040810191909152919050565b8051602082015160009190610e2e82826117b3565b949350505050565b6060815160001415610e7c575060408051808201909152601c81527f636170747572656420656d707479207265766572742062756666657200000000602082015261084a565b6308c379a0610e916101f68460006004610df0565b63ffffffff1614610ebc576040518060600160405280603f8152602001612e57603f9139905061084a565b6060610ed7610ed284600463ffffffff6117d016565b6117f4565b9050805160001415610f1e57505060408051808201909152601d81527f636170747572656420656d70747920726576657274206d657373616765000000602082015261084a565b6060610e2e82611863565b81610f3657805181602001fd5b805181602001f35b602001516001600160a01b0316151590565b60006060600060608660400151602001516001600160a01b03165a6110036040518061010001604052808b60400151602001516001600160a01b031681526020018b60400151604001516001600160a01b031681526020018b60400151606001516001600160a01b031681526020018b602001516001600160a01b03168152602001326001600160a01b031681526020018b600001516001600160a01b031681526020018981526020018a815250611879565b6040516110109190612635565b6000604051808303818686f4925050503d806000811461104c576040519150601f19603f3d011682016040523d82523d6000602084013e611051565b606091505b50909890975095505050505050565b6001600160a01b03811660009081526020839052604090205460ff1615611086576110b6565b6001828101805491820181556000908152602090200180546001600160a01b0319166001600160a01b0383161790555b5050565b600080546040516308f6049560e01b81526001600160a01b03909116906308f60495906110eb908590600401612722565b602060405180830381600087803b15801561110557600080fd5b505af1158015611119573d6000803e3d6000fd5b505050506040513d601f19601f820116820180604052508101906104959190612218565b611145611c89565b8180602001905181019061049591906123f6565b6000806060836001600160a01b0316611171856118cc565b60405161117e9190612635565b600060405180830381855af49150503d80600081146111b9576040519150601f19603f3d011682016040523d82523d6000602084013e6111be565b606091505b5091509150816111d15761033b81610e36565b610e2e8161190f565b600080846001600160a01b03166111f18585611925565b6040516111fe9190612635565b6000604051808303816000865af19150503d806000811461123b576040519150601f19603f3d011682016040523d82523d6000602084013e611240565b606091505b50909695505050505050565b7fad53495153c7c363e98a26920ec679e0e687636458f6908c91cf6deadb19080190565b600080844710156112935760405162461bcd60e51b81526004016101d690612aca565b82516112b15760405162461bcd60e51b81526004016101d69061275a565b8383516020850187f590506001600160a01b038116610e2e5760405162461bcd60e51b81526004016101d69061292a565b6112ea611ca9565b60006060846001600160a01b03166113018561197b565b60405161130e9190612635565b600060405180830381855af49150503d8060008114611349576040519150601f19603f3d011682016040523d82523d6000602084013e61134e565b606091505b50604080518082019091529115158252602082015295945050505050565b60608160405160200161137f9190612d74565b6040516020818303038152906040529050919050565b6040805160048152602481019091526020810180516001600160e01b031663083197ef60e41b17905290565b805160208201fd5b6113d1611ca9565b606082516001600160401b03811180156113ea57600080fd5b5060405190808252806020026020018201604052801561142457816020015b611411611d19565b8152602001906001900390816114095790505b50905060005b83518110156114ab5783818151811061143f57fe5b60200260200101516000015182828151811061145757fe5b60209081029190910101516001600160a01b039091169052835184908290811061147d57fe5b60200260200101516020015182828151811061149557fe5b602090810291909101810151015260010161142a565b506114b4611ca9565b506040805180820190915260008152602081018290526114d381611996565b60005b8451811015611655576114e8826119a8565b6114f0611d19565b60208301518051600019810190811061150557fe5b6020026020010151905060006001600160a01b031681600001516001600160a01b031614156115db57611537836119bc565b61154481602001516119d1565b6001600160a01b03168352611557611ca9565b61157461156385611a07565b60208401519063ffffffff61173b16565b905061157f846119a8565b60408051600081526020808201909252908301528051156115c1576115a2611ca9565b6115af8260200151611a1a565b90506115bb8382611a36565b506115d9565b6020810151606083015251151560409091015261164d565b505b60006060306115e984611a4e565b6040516115f69190612635565b6000604051808303816000865af19150503d8060008114611633576040519150601f19603f3d011682016040523d82523d6000602084013e611638565b606091505b50901515604085015260609093019290925250505b6001016114d6565b509392505050565b611665611cc1565b8180602001905181019061049591906124a7565b60608160405160200161137f9190612c88565b6000610de9670de0b6b3a76400006116b98560200151602001516060015185611a7490919063ffffffff16565b9063ffffffff611aae16565b60006116d082611af0565b805190602001209050919050565b6000806060836001600160a01b031661117185611b15565b816001600160a01b03167fde947e8b6051ad11f984637f1fd1be5fc4b62225fcbf933475f7783ac5e2bd5f8260405161172f9190612c88565b60405180910390a25050565b611743611ca9565b6060306117508585611b58565b60405161175d9190612635565b6000604051808303816000865af19150503d806000811461179a576040519150601f19603f3d011682016040523d82523d6000602084013e61179f565b606091505b50915050610e2e81611b75565b0160200190565b6000600180600884021b0380836020038503511691505092915050565b6117d8611cf8565b81835110156117e657825191505b610de9838384865103610df0565b6020810151606090806001600160401b038111801561181257600080fd5b506040519080825280601f01601f19166020018201604052801561183d576020820181803683370190505b508351909250600061184e84611b91565b905061185b818385611b97565b505050919050565b60608180602001905181019061049591906122e2565b6060633c52e5a160e01b826040516024016118949190612b01565b60408051601f198184030181529190526020810180516001600160e01b03166001600160e01b03199093169290921790915292915050565b6060816040516024016118df9190612651565b60408051601f198184030181529190526020810180516001600160e01b03166305f0caad60e31b17905292915050565b6000818060200190518101906104959190612218565b606063a9059cbb60e01b83836040516024016119429291906126cf565b60408051601f198184030181529190526020810180516001600160e01b03166001600160e01b0319909316929092179091529392505050565b60606309c5eabe60e01b826040516024016118949190612722565b6119a581602001516000611bd5565b50565b602081015180516104288260018301611bd5565b602081015180516119a5919060001901611bd5565b60006104957fad53495153c7c363e98a26920ec679e0e687636458f6908c91cf6deadb19080160001b8380519060200120611bd9565b60608160405160200161137f9190612b96565b611a22611ca9565b818060200190518101906104959190612314565b60208082015190830152516001600160a01b03169052565b80516020820151604051606092631349792d60e11b926118949260009190602401612699565b600082611a8357506000610495565b82820282848281611a9057fe5b0414610de95760405162461bcd60e51b81526004016101d69061298e565b6000610de983836040518060400160405280601a81526020017f536166654d6174683a206469766973696f6e206279207a65726f000000000000815250611be6565b80515160409081015160208084015183850151935160609461137f949390910161261f565b606081604051602401611b289190612651565b60408051601f198184030181529190526020810180516001600160e01b0316639f7c73e960e01b17905292915050565b6060635f7d2b5760e01b8383604051602401611942929190612735565b611b7d611ca9565b818060200190518101906104959190612428565b60200190565b5b60208110611bb7578151835260209283019290910190601f1901611b98565b600180600883602003021b0380845116811984511617845250505050565b9052565b6000610de9838330611c1d565b60008183611c075760405162461bcd60e51b81526004016101d69190612722565b506000838581611c1357fe5b0495945050505050565b60008060ff60f81b838686604051602001611c3b94939291906125e6565b60408051808303601f1901815291905280516020909101206001600160a01b031695945050505050565b6040805160608101825260008082526020820152908101611c84611d3f565b905290565b6040518060400160405280611c9c611d66565b8152602001611c84611d9d565b60408051808201909152600081526060602082015290565b6040518060a00160405280611cd4611c89565b81526000602082018190526040820181905260608083019190915260809091015290565b60405180606001604052806000815260200160008152602001600081525090565b604080516080810182526000808252606060208301819052928201528181019190915290565b60408051608081018252600080825260208201819052918101829052606081019190915290565b6040805160c0810182526000808252602082018190529181018290526060808201839052608082019290925260a081019190915290565b604051806040016040528060006001600160a01b03168152602001611c846040518060800160405280600081526020016000815260200160008152602001600081525090565b803561049581612e33565b805161049581612e33565b600082601f830112611e09578081fd5b8151611e1c611e1782612dc1565b612d9b565b818152915060208083019084810160005b84811015611e5657611e44888484518a0101611f0c565b84529282019290820190600101611e2d565b505050505092915050565b8051801515811461049557600080fd5b600082601f830112611e81578081fd5b8135611e8f611e1782612de0565b9150808252836020828501011115611ea657600080fd5b8060208401602084013760009082016020015292915050565b600082601f830112611ecf578081fd5b8151611edd611e1782612de0565b9150808252836020828501011115611ef457600080fd5b611f05816020840160208601612e03565b5092915050565b600060408284031215611f1d578081fd5b611f276040612d9b565b90508151611f3481612e33565b815260208201516001600160401b03811115611f4f57600080fd5b611f5b84828501611ebf565b60208301525092915050565b600081830360a0811215611f79578182fd5b611f836040612d9b565b91508251611f9081612e33565b82526080601f1982011215611fa457600080fd5b50611faf6080612d9b565b602083015181526040830151602082015260608301516040820152608083015160608201528060208301525092915050565b600060c08284031215611ff2578081fd5b611ffc6040612d9b565b905081516001600160401b038082111561201557600080fd5b81840160c0818703121561202857600080fd5b61203260c0612d9b565b925061203e8682611dee565b835261204d8660208301611dee565b602084015260408101516040840152606081015160608401526120738660808301611e61565b608084015260a08101518281111561208a57600080fd5b61209687828401611df9565b60a085015250505081526120ad8360208401611f67565b602082015292915050565b600080604083850312156120ca578182fd5b82356120d581612e33565b915060208301356120e581612e33565b809150509250929050565b600080600060608486031215612104578081fd5b833561210f81612e33565b92506020840135915060408401356001600160401b03811115612130578182fd5b61213c86828701611e71565b9150509250925092565b60006020808385031215612158578182fd5b82356001600160401b038082111561216e578384fd5b81850186601f82011261217f578485fd5b8035925061218f611e1784612dc1565b83815284810190828601875b868110156122095781358501604080601f19838f030112156121bb578a8bfd5b6121c481612d9b565b6121d08e8c8501611de3565b815281830135898111156121e2578c8dfd5b6121f08f8d83870101611e71565b828d01525086525050928701929087019060010161219b565b50909998505050505050505050565b600060208284031215612229578081fd5b8151610de981612e48565b600060208284031215612245578081fd5b81356001600160401b0381111561225a578182fd5b610e2e84828501611e71565b60008060408385031215612278578182fd5b82356001600160401b038082111561228e578384fd5b61229a86838701611e71565b935060208501359150808211156122af578283fd5b506122bc85828601611e71565b9150509250929050565b6000602082840312156122d7578081fd5b8151610de981612e33565b6000602082840312156122f3578081fd5b81516001600160401b03811115612308578182fd5b610e2e84828501611ebf565b600060208284031215612325578081fd5b81516001600160401b0381111561233a578182fd5b610e2e84828501611f0c565b600081830360c0811215612358578182fd5b6123626060612d9b565b835161236d81612e33565b8152602084015161237d81612e33565b60208201526080603f1983011215612393578283fd5b61239d6080612d9b565b91506123ac8560408601611e61565b825260608401516123bc81612e33565b602083015260808401516123cf81612e33565b604083015260a08401516123e281612e33565b606083015260408101919091529392505050565b600060208284031215612407578081fd5b81516001600160401b0381111561241c578182fd5b610e2e84828501611fe1565b600060208284031215612439578081fd5b81516001600160401b038082111561244f578283fd5b81840160408187031215612461578384fd5b61246b6040612d9b565b9250805161247881612e48565b835260208101518281111561248b578485fd5b61249787828401611ebf565b6020850152509195945050505050565b6000602082840312156124b8578081fd5b81516001600160401b03808211156124ce578283fd5b81840160a081870312156124e0578384fd5b6124ea60a0612d9b565b92508051828111156124fa578485fd5b61250687828401611fe1565b845250602081015160208401526040810151604084015260608101516060840152608081015182811115612538578485fd5b61254487828401611ebf565b6080850152509195945050505050565b600060208284031215612565578081fd5b5051919050565b6001600160a01b03169052565b15159052565b60008151808452612597816020860160208601612e03565b601f01601f19169290920160200192915050565b60018060a01b038151168252602081015180516020840152602081015160408401526040810151606084015260608101516080840152505050565b6001600160f81b031994909416845260609290921b6bffffffffffffffffffffffff191660018401526015830152603582015260550190565b9283526020830191909152604082015260600190565b60008251612647818460208701612e03565b9190910192915050565b6001600160a01b0391909116815260200190565b6001600160a01b03958616815293851660208501529190931660408301526060820192909252608081019190915260a00190565b6001600160a01b038416815260ff831660208201526060604082018190526000906126c69083018461257f565b95945050505050565b6001600160a01b03929092168252602082015260400190565b901515815260200190565b600085825284602083015283604083015260806060830152612718608083018461257f565b9695505050505050565b600060208252610de9602083018461257f565b600060408252612748604083018561257f565b82810360208401526126c6818561257f565b6020808252818101527f437265617465323a2062797465636f6465206c656e677468206973207a65726f604082015260600190565b60208082526016908201527563616e277420696e697469616c697a6520747769636560501b604082015260600190565b6020808252601490820152731ad9595c195c881c185e5bdd5d0819985a5b195960621b604082015260600190565b6020808252601190820152701b1bd85b8818995a5b99c81c995c185a59607a1b604082015260600190565b6020808252601f908201527f66756e6374696f6e2068616e646c6572206e6f74207265676973746572656400604082015260600190565b6020808252601590820152741d1bdad95b881d1c985b9cd9995c8819985a5b1959605a1b604082015260600190565b6020808252601490820152731c1c9bde1e481c9958dbdc99081a5b9d985b1a5960621b604082015260600190565b6020808252818101527f6d7573742062652063616c6c65642066726f6d207368696674657220706f6f6c604082015260600190565b60208082526029908201527f626f72726f772070726f78792063616e206f6e6c792062652075736564206279604082015268103137b93937bbb2b960b91b606082015260800190565b60208082526019908201527f437265617465323a204661696c6564206f6e206465706c6f7900000000000000604082015260600190565b6020808252601390820152721b1bd85b88185b1c9958591e481c995c185a59606a1b604082015260600190565b60208082526021908201527f536166654d6174683a206d756c7469706c69636174696f6e206f766572666c6f6040820152607760f81b606082015260800190565b60208082526023908201527f6c6f616e207265736f6c7574696f6e206e6f74696669636174696f6e206661696040820152621b195960ea1b606082015260800190565b60208082526019908201527f70726f7879206973206265696e67206c69717569646174656400000000000000604082015260600190565b60208082526017908201527f6c6f616e207265736f6c7574696f6e206661696c757265000000000000000000604082015260600190565b6020808252602a908201527f6661696c656420746f207472616e73666572207265636c61696d65642066756e604082015269191cc81d1bc81c1bdbdb60b21b606082015260800190565b6020808252601d908201527f437265617465323a20696e73756666696369656e742062616c616e6365000000604082015260600190565b60006020825260018060a01b03808451166020840152806020850151166040840152506040830151612b36606084018261256c565b506060830151612b49608084018261256c565b506080830151612b5c60a084018261256c565b5060a0830151612b6f60c084018261256c565b5060c083015160e083015260e0830151610100808185015250610e2e61012084018261257f565b602080825282516001600160a01b03168282015282810151604080840181905281516060808601829052600094939092608092869284890191908188028a0186019088015b82861015612c5057607f198b83030184528051612bf983825161256c565b89810151888b850152612c0e8985018261257f565b878301519150612c2088860183612579565b8a83015191508481038b860152612c37818361257f565b60019990990198968c0196945050509089019050612bdb565b509a9950505050505050505050565b9283526001600160a01b039190911660208301526001600160e01b031916604082015260600190565b6020808252825160c083830181905281516001600160a01b0390811660e0860152828401511661010085015260408083015161012086015260608301516101408601526080830151151561016086015260a09092015161018085019190915280516101a08501819052600093926101c08087019385019286918187028901015b81831015612d55576101bf198982030186528451612d2782825161256c565b878101518589840152612d3c8684018261257f565b9250505086850194508686019550600183019250612d08565b868a01519550612d67848a01876125ab565b9998505050505050505050565b6000602082528251151560208301526020830151604080840152610e2e606084018261257f565b6040518181016001600160401b0381118282101715612db957600080fd5b604052919050565b60006001600160401b03821115612dd6578081fd5b5060209081020190565b60006001600160401b03821115612df5578081fd5b50601f01601f191660200190565b60005b83811015612e1e578181015183820152602001612e06565b83811115612e2d576000848401525b50505050565b6001600160a01b03811681146119a557600080fd5b80151581146119a557600080fdfe6361707475726564206120726576657274206572726f722c2062757420697420646f65736e277420636f6e666f726d20746f20746865207374616e64617264a26469706673582212203f23441aa7f4621e8c8c77b0ea01c2effc9567f0dd29b7991bcdfb95605d95e564736f6c63430006060033",
  "immutableReferences": {},
  "source": "pragma solidity ^0.6.0;\npragma experimental ABIEncoderV2;\n\nimport { BorrowProxy } from \"./BorrowProxy.sol\";\nimport { ShifterPool } from \"./ShifterPool.sol\";\nimport { ShifterBorrowProxyLib } from \"./ShifterBorrowProxyLib.sol\";\nimport { ILiquidationModule } from \"./interfaces/ILiquidationModule.sol\";\nimport { TokenUtils } from \"./utils/TokenUtils.sol\";\nimport { LiquidityToken } from \"./LiquidityToken.sol\";\nimport { IERC20 } from \"openzeppelin-solidity/contracts/token/ERC20/IERC20.sol\";\nimport { SafeViewExecutor } from \"./utils/SafeView.sol\";\nimport { SandboxLib } from \"./SandboxLib.sol\";\n\ncontract ShifterBorrowProxy is BorrowProxy, SafeViewExecutor {\n  using ShifterBorrowProxyLib for *;\n  using SandboxLib for *;\n  using TokenUtils for *;\n  constructor() BorrowProxy() public {}\n  uint256 constant MINIMUM_GAS_CONTINUE = 5e5;\n  function repayLoan(bytes memory data) public returns (bool) {\n    (ShifterBorrowProxyLib.TriggerParcel memory parcel) = data.decodeTriggerParcel();\n    require(validateProxyRecord(parcel.record.encodeProxyRecord()), \"proxy record invalid\");\n    require(!isolate.isLiquidating, \"proxy is being liquidated\");\n    uint256 fee = parcel.record.computeAdjustedKeeperFee(parcel.record.request.amount);\n    LiquidityToken liquidityToken = ShifterPool(isolate.masterAddress).getLiquidityTokenHandler(parcel.record.request.token);\n    uint256 amount;\n    if (!isolate.isRepaying) {\n      isolate.isRepaying = true;\n      isolate.actualizedShift = amount = ShifterPool(isolate.masterAddress).getShifterHandler(parcel.record.request.token).mint(parcel.pHash, parcel.record.request.amount, parcel.computeNHash(), parcel.darknodeSignature);\n      require(parcel.record.request.token.sendToken(address(liquidityToken), amount - fee), \"token transfer failed\");\n    } else amount = isolate.actualizedShift;\n    address[] memory set = isolate.repaymentSet.set;\n    for (uint256 i = isolate.repaymentIndex; i < set.length; i++) {\n      if (gasleft() < MINIMUM_GAS_CONTINUE || !set[i].delegateRepay()) {\n        isolate.repaymentIndex = i;\n        return false;\n      }\n    }\n    isolate.unbound = true;\n    require(parcel.record.request.token.sendToken(parcel.record.loan.keeper, fee), \"keeper payout failed\");\n    require(ShifterPool(isolate.masterAddress).relayResolveLoan(parcel.record.request.token, address(liquidityToken), parcel.record.loan.keeper, parcel.record.loan.params.bond, 0), \"loan resolution notification failed\");\n    ShifterBorrowProxyLib.emitShifterBorrowProxyRepaid(parcel.record.request.borrower, parcel.record);\n    return true;\n  }\n  function defaultLoan(bytes memory data) public returns (bool) {\n    require(!isolate.isRepaying, \"loan being repaid\");\n    require(!isolate.unbound, \"loan already repaid\");\n    require(validateProxyRecord(data), \"proxy record invalid\");\n    ShifterBorrowProxyLib.ProxyRecord memory record = data.decodeProxyRecord();\n    address[] memory set = isolate.liquidationSet.set;\n    if (record.loan.params.timeoutExpiry >= block.number) {\n      isolate.isLiquidating = true;\n      for (uint256 i = isolate.liquidationIndex; i < set.length; i++) {\n        if (gasleft() < MINIMUM_GAS_CONTINUE || !set[i].delegateLiquidate()) {\n          isolate.liquidationIndex = i;\n          return false;\n        }\n      }\n      isolate.liquidationIndex = set.length;\n      ShifterPool pool = ShifterPool(isolate.masterAddress);\n      uint256 postBalance = IERC20(record.request.token).balanceOf(address(this));\n      require(record.request.token.sendToken(address(pool), postBalance), \"failed to transfer reclaimed funds to pool\");\n      uint256 bond = record.loan.params.bond;\n      if (postBalance < record.request.amount) {\n        if (bond > postBalance - record.request.amount) {\n          bond -= (postBalance - record.request.amount);\n        } else {\n          bond = 0;\n        }\n      }\n      uint256 repay = postBalance - bond;\n      require(pool.relayResolveLoan(record.request.token, address(pool.getLiquidityTokenHandler(record.request.token)), record.loan.keeper, bond, repay), \"loan resolution failure\");\n      return true;\n    }\n    return false;\n  }\n  function receiveInitializationActions(ShifterBorrowProxyLib.InitializationAction[] memory actions) public returns (SandboxLib.Context memory context) {\n    require(msg.sender == address(isolate.masterAddress), \"must be called from shifter pool\");\n    context = actions.processActions();\n  }\n  fallback() external payable override {}\n  receive() external payable override {}\n}\n",
  "sourcePath": "/home/ray/0confirmation/packages/0confirmation-sol/contracts/ShifterBorrowProxy.sol",
  "compiler": {
    "name": "solc",
    "version": "0.6.6+commit.6c089d02.Emscripten.clang"
  },
  "schemaVersion": "3.1.0",
  "updatedAt": "2020-04-24T21:00:31.105Z",
  "devdoc": {
    "methods": {}
  },
  "userdoc": {
    "methods": {}
  }
}