{
  "contractName": "ShifterBorrowProxy",
  "abi": [
    {
      "stateMutability": "payable",
      "type": "fallback"
    },
    {
      "inputs": [
        {
          "internalType": "bytes",
          "name": "creationCode",
          "type": "bytes"
        },
        {
          "internalType": "bytes",
          "name": "context",
          "type": "bytes"
        }
      ],
      "name": "_executeSafeView",
      "outputs": [],
      "stateMutability": "nonpayable",
      "type": "function"
    },
    {
      "inputs": [
        {
          "internalType": "bytes",
          "name": "consData",
          "type": "bytes"
        }
      ],
      "name": "cloneConstructor",
      "outputs": [],
      "stateMutability": "nonpayable",
      "type": "function"
    },
    {
      "inputs": [
        {
          "internalType": "address",
          "name": "to",
          "type": "address"
        },
        {
          "internalType": "uint256",
          "name": "value",
          "type": "uint256"
        },
        {
          "internalType": "bytes",
          "name": "payload",
          "type": "bytes"
        }
      ],
      "name": "proxy",
      "outputs": [],
      "stateMutability": "nonpayable",
      "type": "function"
    },
    {
      "inputs": [
        {
          "internalType": "bytes",
          "name": "creationCode",
          "type": "bytes"
        },
        {
          "internalType": "bytes",
          "name": "context",
          "type": "bytes"
        }
      ],
      "name": "query",
      "outputs": [
        {
          "components": [
            {
              "internalType": "bool",
              "name": "success",
              "type": "bool"
            },
            {
              "internalType": "bytes",
              "name": "data",
              "type": "bytes"
            }
          ],
          "internalType": "struct SafeViewLib.SafeViewResult",
          "name": "",
          "type": "tuple"
        }
      ],
      "stateMutability": "nonpayable",
      "type": "function"
    },
    {
      "inputs": [
        {
          "internalType": "address",
          "name": "owner",
          "type": "address"
        },
        {
          "internalType": "address",
          "name": "token",
          "type": "address"
        },
        {
          "internalType": "bool",
          "name": "unbound",
          "type": "bool"
        }
      ],
      "name": "setup",
      "outputs": [
        {
          "internalType": "bool",
          "name": "",
          "type": "bool"
        }
      ],
      "stateMutability": "nonpayable",
      "type": "function"
    },
    {
      "stateMutability": "payable",
      "type": "receive"
    },
    {
      "inputs": [
        {
          "components": [
            {
              "internalType": "address",
              "name": "to",
              "type": "address"
            },
            {
              "internalType": "bytes",
              "name": "txData",
              "type": "bytes"
            }
          ],
          "internalType": "struct ShifterBorrowProxyLib.InitializationAction[]",
          "name": "actions",
          "type": "tuple[]"
        }
      ],
      "name": "receiveInitializationActions",
      "outputs": [],
      "stateMutability": "nonpayable",
      "type": "function"
    }
  ],
  "bytecode": "0x608060405234801561001057600080fd5b50611d8e806100206000396000f3fe6080604052600436106100595760003560e01c80632692f25a1461006257806329c8702d1461008257806334686eaf146100b857806352e831dd146100e55780635f7d2b57146101055780635fe759581461012557610060565b3661006057005b005b34801561006e57600080fd5b5061006061007d3660046114eb565b610145565b34801561008e57600080fd5b506100a261009d3660046114a1565b61036b565b6040516100af9190611960565b60405180910390f35b3480156100c457600080fd5b506100d86100d3366004611709565b6103ef565b6040516100af9190611c3b565b3480156100f157600080fd5b506100606101003660046116d7565b610410565b34801561011157600080fd5b50610060610120366004611709565b610413565b34801561013157600080fd5b50610060610140366004611541565b61045e565b6001546001600160a01b031633148061016857506000546001600160a01b031633145b8061017257503330145b6101975760405162461bcd60e51b815260040161018e90611a74565b60405180910390fd5b60006101b36101ae8383600463ffffffff61049516565b6104be565b60e01b90506101c061132c565b6101d26000868463ffffffff6104dd16565b6002546001600160a01b03166020820152600054909150600160a01b900460ff1680156102025750604081015151155b156102a55760006060866001600160a01b0316868660405161022491906118f4565b60006040518083038185875af1925050503d8060008114610261576040519150601f19603f3d011682016040523d82523d6000602084013e610266565b606091505b5091509150816102925761027981610590565b60405162461bcd60e51b815260040161018e919061196b565b61029c8282610683565b50505050610366565b6102b28160400151610698565b6102ce5760405162461bcd60e51b815260040161018e90611a08565b600060606102e383868863ffffffff6106aa16565b91509150816102f55761027981610590565b60408084015101516001600160a01b0316156103255760408084015101516103259060079063ffffffff6107ba16565b6040830151606001516001600160a01b031615610357576040830151606001516103579060099063ffffffff6107ba16565b6103618282610683565b505050505b505050565b6001546000906001600160a01b0316156103975760405162461bcd60e51b815260040161018e906119d8565b5060008054600180546001600160a01b039687166001600160a01b0319918216178255931515600160a01b0260ff60a01b19928516331792909216919091179091556002805493909416929091169190911790915590565b6103f7611350565b610407838363ffffffff61081516565b90505b92915050565b50565b6000610428600061042261088e565b856108b2565b9050606061044d6104486001600160a01b0384168563ffffffff61092416565b6109ae565b9050610458816109d7565b50505050565b6000546001600160a01b031633146104885760405162461bcd60e51b815260040161018e90611a3f565b610491816109df565b5050565b61049d611368565b6104a78484610c69565b815260208101919091526040810191909152919050565b80516020820151600091906104d38282610c70565b925050505b919050565b6104e561132c565b604080516060810182526001600160a01b03808616825260028701548116602083015286548351630220891b60e51b815292938401929116906344112360906105349088908890600401611910565b608060405180830381600087803b15801561054e57600080fd5b505af1158015610562573d6000803e3d6000fd5b505050506040513d601f19601f82011682018060405250810190610586919061179b565b9052949350505050565b60608151600014156105d6575060408051808201909152601c81527f636170747572656420656d70747920726576657274206275666665720000000060208201526104d8565b6308c379a06105eb6101ae8460006004610495565b63ffffffff1614610616576040518060600160405280603f8152602001611d1a603f913990506104d8565b606061063161062c84600463ffffffff610c8d16565b610cb1565b905080516000141561067857505060408051808201909152601d81527f636170747572656420656d70747920726576657274206d65737361676500000060208201526104d8565b60606104d382610d20565b8161069057805181602001fd5b805181602001f35b602001516001600160a01b0316151590565b60006060600060608660400151602001516001600160a01b03165a61075d6040518061010001604052808b60400151602001516001600160a01b031681526020018b60400151604001516001600160a01b031681526020018b60400151606001516001600160a01b031681526020018b602001516001600160a01b03168152602001326001600160a01b031681526020018b600001516001600160a01b031681526020018981526020018a815250610d36565b60405161076a91906118f4565b6000604051808303818686f4925050503d80600081146107a6576040519150601f19603f3d011682016040523d82523d6000602084013e6107ab565b606091505b50909890975095505050505050565b6001600160a01b03811660009081526020839052604090205460ff16156107e057610491565b6001808301805491820181556000908152602090200180546001600160a01b0383166001600160a01b03199091161790555050565b61081d611350565b60603061082a8585610d89565b60405161083791906118f4565b6000604051808303816000865af19150503d8060008114610874576040519150601f19603f3d011682016040523d82523d6000602084013e610879565b606091505b5091505061088681610ddf565b949350505050565b7fad53495153c7c363e98a26920ec679e0e687636458f6908c91cf6deadb19080190565b600080844710156108d55760405162461bcd60e51b815260040161018e90611af4565b82516108f35760405162461bcd60e51b815260040161018e906119a3565b8383516020850187f590506001600160a01b0381166108865760405162461bcd60e51b815260040161018e90611abd565b61092c611350565b60006060846001600160a01b031661094385610dfb565b60405161095091906118f4565b600060405180830381855af49150503d806000811461098b576040519150601f19603f3d011682016040523d82523d6000602084013e610990565b606091505b50604080518082019091529115158252602082015295945050505050565b6060816040516020016109c19190611c3b565b6040516020818303038152906040529050919050565b805160208201fd5b60606109e9611350565b6109f283610e16565b905060005b8351811015610c5457606082602001518281518110610a1257fe5b6020026020010151905060006001600160a01b031681600081518110610a3457fe5b6020026020010151600001516001600160a01b03161415610b5957610a7081600081518110610a5f57fe5b602002602001015160200151610f7e565b6001600160a01b03168352610a83611350565b610aa682600081518110610a9357fe5b6020026020010151602001518486610fb4565b604080516000808252602082019092529192505082600081518110610ac757fe5b6020908102919091018101510152805115610b0757610af7846020015184610af28460200151611041565b611057565b610b02575050610c54565b610b57565b806020015182600081518110610b1957fe5b602002602001015160600181905250806000015182600081518110610b3a57fe5b602002602001015160400190151590811515815250505050610c4c565b505b82602001518281518110610b6957fe5b6020026020010151905060008090505b8151811015610c495760006060306001600160a01b0316610bac858581518110610b9f57fe5b6020026020010151611156565b604051610bb991906118f4565b6000604051808303816000865af19150503d8060008114610bf6576040519150601f19603f3d011682016040523d82523d6000602084013e610bfb565b606091505b509150915081848481518110610c0d57fe5b6020026020010151604001901515908115158152505080848481518110610c3057fe5b6020908102919091010151606001525050600101610b79565b50505b6001016109f7565b50610c62816020015161117c565b9392505050565b0160200190565b6000600180600884021b0380836020038503511691505092915050565b610c95611368565b8183511015610ca357825191505b610407838384865103610495565b6020810151606090806001600160401b0381118015610ccf57600080fd5b506040519080825280601f01601f191660200182016040528015610cfa576020820181803683370190505b5083519092506000610d0b84611280565b9050610d18818385611286565b505050919050565b60608180602001905181019061040a9190611769565b6060633c52e5a160e01b82604051602401610d519190611b2b565b60408051601f198184030181529190526020810180516001600160e01b03166001600160e01b03199093169290921790915292915050565b6060635f7d2b5760e01b8383604051602401610da692919061197e565b60408051601f198184030181529190526020810180516001600160e01b03166001600160e01b0319909316929092179091529392505050565b610de7611350565b8180602001905181019061040a9190611803565b60606309c5eabe60e01b82604051602401610d51919061196b565b610e1e611350565b606082516001600160401b0381118015610e3757600080fd5b50604051908082528060200260200182016040528015610e6b57816020015b6060815260200190600190039081610e565790505b50905060005b8351811015610f615760408051600180825281830190925290816020015b610e97611389565b815260200190600190039081610e8f57905050828281518110610eb657fe5b6020026020010181905250838181518110610ecd57fe5b602002602001015160000151828281518110610ee557fe5b6020026020010151600081518110610ef957fe5b60209081029190910101516001600160a01b0390911690528351849082908110610f1f57fe5b602002602001015160200151828281518110610f3757fe5b6020026020010151600081518110610f4b57fe5b6020908102919091018101510152600101610e71565b506040805180820190915260008152602081019190915292915050565b600061040a7fad53495153c7c363e98a26920ec679e0e687636458f6908c91cf6deadb19080160001b83805190602001206112c4565b610fbc611350565b610fc46113af565b82516001600160a01b03166020820152831561101f57606083602001518581518110610fec57fe5b60200260200101519050805160001461101d578060018251038151811061100f57fe5b602090810291909101015182525b505b61103861102b826112d1565b869063ffffffff61081516565b95945050505050565b60608180602001905181019061040a9190611613565b6000606082516001600160401b038111801561107257600080fd5b506040519080825280602002602001820160405280156110ac57816020015b611099611389565b8152602001906001900390816110915790505b50905060005b8151811015611132578381815181106110c757fe5b6020026020010151602001518282815181106110df57fe5b6020026020010151602001819052508381815181106110fa57fe5b60200260200101516000015182828151811061111257fe5b60209081029190910101516001600160a01b0390911690526001016110b2565b508085858151811061114057fe5b6020908102919091010152511515949350505050565b80516020820151604051606092631349792d60e11b92610d519260009190602401611933565b60606000805b83518110156111b15783818151811061119757fe5b602002602001015151820191508080600101915050611182565b50806001600160401b03811180156111c857600080fd5b5060405190808252806020026020018201604052801561120257816020015b6111ef611389565b8152602001906001900390816111e75790505b5091506000805b8451811015610d185760005b85828151811061122157fe5b6020026020010151518110156112775785828151811061123d57fe5b6020026020010151818151811061125057fe5b602002602001015185848151811061126457fe5b6020908102919091010152600101611215565b50600101611209565b60200190565b5b602081106112a6578151835260209283019290910190601f1901611287565b600180600883602003021b0380845116811984511617845250505050565b60006104078383306112e4565b6060816040516020016109c19190611bc0565b60008060ff60f81b83868660405160200161130294939291906118bb565b60408051808303601f1901815291905280516020909101206001600160a01b031695945050505050565b604080516060810182526000808252602082015290810161134b6113cf565b905290565b60408051808201909152600081526060602082015290565b60405180606001604052806000815260200160008152602001600081525090565b604080516080810182526000808252606060208301819052928201528181019190915290565b60405180604001604052806113c2611389565b8152600060209091015290565b60408051608081018252600080825260208201819052918101829052606081019190915290565b803561040a81611cf6565b600082601f830112611411578081fd5b813561142461141f82611ca7565b611c62565b915080825283602082850101111561143b57600080fd5b8060208401602084013760009082016020015292915050565b600082601f830112611464578081fd5b815161147261141f82611ca7565b915080825283602082850101111561148957600080fd5b61149a816020840160208601611cca565b5092915050565b6000806000606084860312156114b5578283fd5b83356114c081611cf6565b925060208401356114d081611cf6565b915060408401356114e081611d0b565b809150509250925092565b6000806000606084860312156114ff578283fd5b833561150a81611cf6565b92506020840135915060408401356001600160401b0381111561152b578182fd5b61153786828701611401565b9150509250925092565b60006020808385031215611553578182fd5b82356001600160401b0380821115611569578384fd5b81850186601f82011261157a578485fd5b8035925061158a61141f84611c88565b83815284810190828601875b868110156116045781358501604080601f19838f030112156115b6578a8bfd5b6115bf81611c62565b6115cb8e8c85016113f6565b815281830135898111156115dd578c8dfd5b6115eb8f8d83870101611401565b828d015250865250509287019290870190600101611596565b50909998505050505050505050565b60006020808385031215611625578182fd5b82516001600160401b038082111561163b578384fd5b81850186601f82011261164c578485fd5b8051925061165c61141f84611c88565b83815284810190828601875b868110156116045781518501604080601f19838f03011215611688578a8bfd5b61169181611c62565b8a83015161169e81611cf6565b815282820151898111156116b0578c8dfd5b6116be8f8d83870101611454565b828d015250865250509287019290870190600101611668565b6000602082840312156116e8578081fd5b81356001600160401b038111156116fd578182fd5b61088684828501611401565b6000806040838503121561171b578182fd5b82356001600160401b0380821115611731578384fd5b61173d86838701611401565b93506020850135915080821115611752578283fd5b5061175f85828601611401565b9150509250929050565b60006020828403121561177a578081fd5b81516001600160401b0381111561178f578182fd5b61088684828501611454565b6000608082840312156117ac578081fd5b6117b66080611c62565b82516117c181611d0b565b815260208301516117d181611cf6565b602082015260408301516117e481611cf6565b604082015260608301516117f781611cf6565b60608201529392505050565b600060208284031215611814578081fd5b81516001600160401b038082111561182a578283fd5b8184016040818703121561183c578384fd5b6118466040611c62565b9250805161185381611d0b565b8352602081015182811115611866578485fd5b61187287828401611454565b6020850152509195945050505050565b6001600160a01b03169052565b600081518084526118a7816020860160208601611cca565b601f01601f19169290920160200192915050565b6001600160f81b031994909416845260609290921b6bffffffffffffffffffffffff191660018401526015830152603582015260550190565b60008251611906818460208701611cca565b9190910192915050565b6001600160a01b039290921682526001600160e01b031916602082015260400190565b6001600160a01b038416815260ff831660208201526060604082018190526000906110389083018461188f565b901515815260200190565b600060208252610407602083018461188f565b600060408252611991604083018561188f565b8281036020840152611038818561188f565b6020808252818101527f437265617465323a2062797465636f6465206c656e677468206973207a65726f604082015260600190565b60208082526016908201527563616e277420696e697469616c697a6520747769636560501b604082015260600190565b6020808252601f908201527f66756e6374696f6e2068616e646c6572206e6f74207265676973746572656400604082015260600190565b6020808252818101527f6d7573742062652063616c6c65642066726f6d207368696674657220706f6f6c604082015260600190565b60208082526029908201527f626f72726f772070726f78792063616e206f6e6c792062652075736564206279604082015268103137b93937bbb2b960b91b606082015260800190565b60208082526019908201527f437265617465323a204661696c6564206f6e206465706c6f7900000000000000604082015260600190565b6020808252601d908201527f437265617465323a20696e73756666696369656e742062616c616e6365000000604082015260600190565b60006020825260018060a01b03808451166020840152806020850151166040840152506040830151611b606060840182611882565b506060830151611b736080840182611882565b506080830151611b8660a0840182611882565b5060a0830151611b9960c0840182611882565b5060c083015160e083015260e083015161010080818501525061088661012084018261188f565b60006020825282516040602084015260018060a01b038082511660608501526020820151608080860152611bf760e086018261188f565b6040840151151560a08701526060840151868203605f190160c08801529150611c20818361188f565b93505050806020860151166040850152508091505092915050565b6000602082528251151560208301526020830151604080840152610886606084018261188f565b6040518181016001600160401b0381118282101715611c8057600080fd5b604052919050565b60006001600160401b03821115611c9d578081fd5b5060209081020190565b60006001600160401b03821115611cbc578081fd5b50601f01601f191660200190565b60005b83811015611ce5578181015183820152602001611ccd565b838111156104585750506000910152565b6001600160a01b038116811461041057600080fd5b801515811461041057600080fdfe6361707475726564206120726576657274206572726f722c2062757420697420646f65736e277420636f6e666f726d20746f20746865207374616e64617264a264697066735822122013763651a2c7d22fb3faa80fc2f9066cc916f5d7988ea3b645e372bdcd57870f64736f6c63430006060033",
  "immutableReferences": {},
  "source": "pragma solidity ^0.6.0;\npragma experimental ABIEncoderV2;\n\nimport { TokenUtils } from \"./utils/TokenUtils.sol\";\nimport { LiquidityToken } from \"./LiquidityToken.sol\";\nimport { IERC20 } from \"openzeppelin-solidity/contracts/token/ERC20/IERC20.sol\";\nimport { SafeViewExecutor } from \"./utils/sandbox/SafeViewExecutor.sol\";\nimport { SandboxLib } from \"./utils/sandbox/SandboxLib.sol\";\nimport { StringLib } from \"./utils/StringLib.sol\";\nimport { NullCloneConstructor } from \"./NullCloneConstructor.sol\";\nimport { BorrowProxy } from \"./BorrowProxy.sol\";\nimport { ShifterBorrowProxyLib } from \"./ShifterBorrowProxyLib.sol\";\nimport { ShifterPool } from \"./ShifterPool.sol\";\n\ncontract ShifterBorrowProxy is BorrowProxy, SafeViewExecutor, NullCloneConstructor {\n  using ShifterBorrowProxyLib for *;\n  using StringLib for *;\n  using SandboxLib for *;\n  using TokenUtils for *;\n  uint256 constant MINIMUM_GAS_CONTINUE = 5e5;\n/*\n  function repayLoan(bytes memory data) public returns (bool) {\n    (ShifterBorrowProxyLib.TriggerParcel memory parcel) = data.decodeTriggerParcel();\n    parcel.record.request.actions = new ShifterBorrowProxyLib.InitializationAction[](0);\n    require(validateProxyRecord(parcel.record.encodeProxyRecord()), \"proxy record invalid\");\n    require(!isolate.isLiquidating, \"proxy is being liquidated\");\n    uint256 fee = parcel.record.computeAdjustedKeeperFee(parcel.record.request.amount);\n    LiquidityToken liquidityToken; // = ShifterPool(isolate.masterAddress).getLiquidityTokenHandler(parcel.record.request.token);\n    uint256 amount;\n    if (!isolate.isRepaying) {\n      isolate.isRepaying = true;\n      isolate.actualizedShift = amount = ShifterPool(isolate.masterAddress).getShifterHandler(parcel.record.request.token).mint(parcel.shiftParameters.pHash, parcel.record.request.amount, parcel.computeNHash(), parcel.shiftParameters.darknodeSignature);\n      require(parcel.record.request.token.sendToken(address(liquidityToken), amount - fee), \"token transfer failed\");\n    } else amount = isolate.actualizedShift;\n    address[] memory set = isolate.repaymentSet.set;\n    for (uint256 i = isolate.repaymentIndex; i < set.length; i++) {\n      if (gasleft() < MINIMUM_GAS_CONTINUE || !set[i].delegateRepay()) {\n        isolate.repaymentIndex = i;\n        return false;\n      }\n    }\n    isolate.unbound = true;\n    require(parcel.record.request.token.sendToken(parcel.record.loan.keeper, fee), \"keeper payout failed\");\n    require(ShifterPool(isolate.masterAddress).relayResolveLoan(parcel.record.request.token, address(liquidityToken), parcel.record.loan.keeper, parcel.record.loan.params.bond, 0), \"loan resolution notification failed\");\n    ShifterBorrowProxyLib.emitShifterBorrowProxyRepaid(parcel.record.request.borrower, parcel.record);\n    return true;\n  }\n*/\n/*\n  function defaultLoan(bytes memory data) public returns (bool) {\n    require(!isolate.isRepaying, \"loan being repaid\");\n    require(!isolate.unbound, \"loan already repaid\");\n    require(validateProxyRecord(data), \"proxy record invalid\");\n    ShifterBorrowProxyLib.ProxyRecord memory record = data.decodeProxyRecord();\n    address[] memory set = isolate.liquidationSet.set;\n    if (record.loan.params.timeoutExpiry >= block.number) {\n      isolate.isLiquidating = true;\n      for (uint256 i = isolate.liquidationIndex; i < set.length; i++) {\n        if (gasleft() < MINIMUM_GAS_CONTINUE || !set[i].delegateLiquidate()) {\n          isolate.liquidationIndex = i;\n          return false;\n        }\n      }\n      isolate.liquidationIndex = set.length;\n      ShifterPool pool = ShifterPool(isolate.masterAddress);\n      uint256 postBalance = IERC20(record.request.token).balanceOf(address(this));\n      require(record.request.token.sendToken(address(pool), postBalance), \"failed to transfer reclaimed funds to pool\");\n      uint256 bond = record.loan.params.bond;\n      if (postBalance < record.request.amount) {\n        if (bond > postBalance - record.request.amount) {\n          bond -= (postBalance - record.request.amount);\n        } else {\n          bond = 0;\n        }\n      }\n      uint256 repay = postBalance - bond;\n      require(pool.relayResolveLoan(record.request.token, address(pool.getLiquidityTokenHandler(record.request.token)), record.loan.keeper, bond, repay), \"loan resolution failure\");\n      return true;\n    }\n    return false;\n  }\n*/\n  function receiveInitializationActions(ShifterBorrowProxyLib.InitializationAction[] memory actions) public {\n    require(msg.sender == address(isolate.masterAddress), \"must be called from shifter pool\");\n    actions.processActions();\n  }\n  fallback() external payable override {}\n  receive() external payable override {}\n}\n",
  "sourcePath": "/home/ray/0confirmation/packages/0confirmation-sol/contracts/ShifterBorrowProxy.sol",
  "compiler": {
    "name": "solc",
    "version": "0.6.6+commit.6c089d02.Emscripten.clang"
  },
  "schemaVersion": "3.1.0",
  "updatedAt": "2020-05-24T01:32:42.544Z",
  "devdoc": {
    "methods": {}
  },
  "userdoc": {
    "methods": {}
  }
}