{
  "contractName": "ShifterBorrowProxy",
  "abi": [
    {
      "inputs": [],
      "stateMutability": "nonpayable",
      "type": "constructor"
    },
    {
      "inputs": [
        {
          "internalType": "address",
          "name": "to",
          "type": "address"
        },
        {
          "internalType": "uint256",
          "name": "value",
          "type": "uint256"
        },
        {
          "internalType": "bytes",
          "name": "payload",
          "type": "bytes"
        }
      ],
      "name": "proxy",
      "outputs": [],
      "stateMutability": "nonpayable",
      "type": "function"
    },
    {
      "inputs": [
        {
          "internalType": "bytes",
          "name": "data",
          "type": "bytes"
        }
      ],
      "name": "repayLoan",
      "outputs": [
        {
          "internalType": "bool",
          "name": "",
          "type": "bool"
        }
      ],
      "stateMutability": "nonpayable",
      "type": "function"
    },
    {
      "inputs": [
        {
          "internalType": "bytes",
          "name": "data",
          "type": "bytes"
        }
      ],
      "name": "defaultLoan",
      "outputs": [
        {
          "internalType": "bool",
          "name": "",
          "type": "bool"
        }
      ],
      "stateMutability": "nonpayable",
      "type": "function"
    }
  ],
  "bytecode": "0x60806040523480156200001157600080fd5b50336000800160006101000a81548173ffffffffffffffffffffffffffffffffffffffff021916908373ffffffffffffffffffffffffffffffffffffffff1602179055506000800160009054906101000a900473ffffffffffffffffffffffffffffffffffffffff1673ffffffffffffffffffffffffffffffffffffffff16637b3b00be6040518163ffffffff1660e01b8152600401602060405180830381600087803b158015620000c257600080fd5b505af1158015620000d7573d6000803e3d6000fd5b505050506040513d601f19601f82011682018060405250620000fd91908101906200015d565b600060010160006101000a81548173ffffffffffffffffffffffffffffffffffffffff021916908373ffffffffffffffffffffffffffffffffffffffff160217905550620001d7565b6000815190506200015781620001bd565b92915050565b6000602082840312156200017057600080fd5b6000620001808482850162000146565b91505092915050565b600062000196826200019d565b9050919050565b600073ffffffffffffffffffffffffffffffffffffffff82169050919050565b620001c88162000189565b8114620001d457600080fd5b50565b611f9480620001e76000396000f3fe608060405234801561001057600080fd5b50600436106100415760003560e01c80632692f25a1461004657806356b8e14614610062578063c4ddf36314610092575b600080fd5b610060600480360361005b9190810190611587565b6100c2565b005b61007c60048036036100779190810190611617565b610352565b6040516100899190611b9c565b60405180910390f35b6100ac60048036036100a79190810190611617565b610626565b6040516100b99190611b9c565b60405180910390f35b600060010160009054906101000a900473ffffffffffffffffffffffffffffffffffffffff1673ffffffffffffffffffffffffffffffffffffffff163373ffffffffffffffffffffffffffffffffffffffff1614610155576040517f08c379a000000000000000000000000000000000000000000000000000000000815260040161014c90611c67565b60405180910390fd5b6000800160149054906101000a900460ff161561022957600060608473ffffffffffffffffffffffffffffffffffffffff1684846040516101969190611ad9565b60006040518083038185875af1925050503d80600081146101d3576040519150601f19603f3d011682016040523d82523d6000602084013e6101d8565b606091505b5091509150818190610220576040517f08c379a00000000000000000000000000000000000000000000000000000000081526004016102179190611c25565b60405180910390fd5b50805160208201f35b600061024a6102456000600485610a459092919063ffffffff16565b610a7d565b60001c60e01b905061025a61103a565b600073__BorrowProxyLib________________________632f1a48af909187856040518463ffffffff1660e01b815260040161029893929190611ca7565b60606040518083038186803b1580156102b057600080fd5b505af41580156102c4573d6000803e3d6000fd5b505050506040513d601f19601f820116820180604052506102e891908101906116aa565b90506102f78160200151610aac565b610336576040517f08c379a000000000000000000000000000000000000000000000000000000000815260040161032d90611c47565b60405180910390fd5b61034b838583610ae99092919063ffffffff16565b5050505050565b600061035d82610be7565b61036657600080fd5b61036e611070565b8280602001905161038291908101906116d3565b90506060600060040160010180548060200260200160405190810160405280929190818152602001828054801561040e57602002820191906000526020600020905b8160009054906101000a900473ffffffffffffffffffffffffffffffffffffffff1673ffffffffffffffffffffffffffffffffffffffff16815260200190600101908083116103c4575b505050505090504382602001511061061a576001600060030160006101000a81548160ff0219169083151502179055506000806002015490505b81518110156104b957620493e05a1080610491575061048f82828151811061046c57fe5b602002602001015173ffffffffffffffffffffffffffffffffffffffff16610c9f565b155b156104ac578060006002018190555060009350505050610621565b8080600101915050610448565b50805160006002018190555060008060000160009054906101000a900473ffffffffffffffffffffffffffffffffffffffff1690508073ffffffffffffffffffffffffffffffffffffffff16630290af5d8273ffffffffffffffffffffffffffffffffffffffff1663798aada086600001516040518263ffffffff1660e01b81526004016105479190611af0565b60206040518083038186803b15801561055f57600080fd5b505afa158015610573573d6000803e3d6000fd5b505050506040513d601f19601f820116820180604052506105979190810190611681565b6040518263ffffffff1660e01b81526004016105b39190611af0565b602060405180830381600087803b1580156105cd57600080fd5b505af11580156105e1573d6000803e3d6000fd5b505050506040513d601f19601f8201168201806040525061060591908101906115ee565b61060e57600080fd5b60019350505050610621565b6000925050505b919050565b60006106306110ba565b8280602001905161064491908101906116fd565b9050610672816000015160405160200161065e9190611cde565b604051602081830303815290604052610be7565b61067b57600080fd5b600060030160009054906101000a900460ff161561069857600080fd5b60008060000160009054906101000a900473ffffffffffffffffffffffffffffffffffffffff1673ffffffffffffffffffffffffffffffffffffffff16631fbc78dc8360000151600001516040518263ffffffff1660e01b81526004016106ff9190611af0565b60206040518083038186803b15801561071757600080fd5b505afa15801561072b573d6000803e3d6000fd5b505050506040513d601f19601f8201168201806040525061074f9190810190611658565b73ffffffffffffffffffffffffffffffffffffffff1663bb4a1d8c83600001516040015160000151846000015160400151602001518560000151604001516040015186602001516040518563ffffffff1660e01b81526004016107b59493929190611bb7565b602060405180830381600087803b1580156107cf57600080fd5b505af11580156107e3573d6000803e3d6000fd5b505050506040513d601f19601f82011682018060405250610807919081019061173e565b9050600061082682846000015160600151610ddc90919063ffffffff16565b905060016000800160146101000a81548160ff02191690831515021790555060008060000160009054906101000a900473ffffffffffffffffffffffffffffffffffffffff1673ffffffffffffffffffffffffffffffffffffffff1663798aada08560000151600001516040518263ffffffff1660e01b81526004016108ac9190611af0565b60206040518083038186803b1580156108c457600080fd5b505afa1580156108d8573d6000803e3d6000fd5b505050506040513d601f19601f820116820180604052506108fc9190810190611681565b90506109338183850386600001516000015173ffffffffffffffffffffffffffffffffffffffff16610e179092919063ffffffff16565b61093c57600080fd5b61097b846000015160600151602001518386600001516000015173ffffffffffffffffffffffffffffffffffffffff16610e179092919063ffffffff16565b61098457600080fd5b6000800160009054906101000a900473ffffffffffffffffffffffffffffffffffffffff1673ffffffffffffffffffffffffffffffffffffffff16630290af5d826040518263ffffffff1660e01b81526004016109e19190611af0565b602060405180830381600087803b1580156109fb57600080fd5b505af1158015610a0f573d6000803e3d6000fd5b505050506040513d601f19601f82011682018060405250610a3391908101906115ee565b610a3c57600080fd5b50505050919050565b610a4d6110da565b60006020850184019050808260000181815250508282602001818152505083826040018181525050509392505050565b60008082600001519050600083602001519050600180600883021b038082602003840351169350505050919050565b60008073ffffffffffffffffffffffffffffffffffffffff16826000015173ffffffffffffffffffffffffffffffffffffffff1614159050919050565b6000606084602001516000015173ffffffffffffffffffffffffffffffffffffffff168560200151600001518660200151602001513288600001518789604051602001610b3b96959493929190611b0b565b604051602081830303815290604052604051610b579190611ad9565b600060405180830381855af49150503d8060008114610b92576040519150601f19603f3d011682016040523d82523d6000602084013e610b97565b606091505b5091509150818190610bdf576040517f08c379a0000000000000000000000000000000000000000000000000000000008152600401610bd69190611c25565b60405180910390fd5b505050505050565b60008060000160009054906101000a900473ffffffffffffffffffffffffffffffffffffffff1673ffffffffffffffffffffffffffffffffffffffff166308f60495836040518263ffffffff1660e01b8152600401610c469190611c03565b602060405180830381600087803b158015610c6057600080fd5b505af1158015610c74573d6000803e3d6000fd5b505050506040513d601f19601f82011682018060405250610c9891908101906115ee565b9050919050565b60008060608373ffffffffffffffffffffffffffffffffffffffff1684604051602401610ccc9190611af0565b6040516020818303038152906040527f2f865568000000000000000000000000000000000000000000000000000000007bffffffffffffffffffffffffffffffffffffffffffffffffffffffff19166020820180517bffffffffffffffffffffffffffffffffffffffffffffffffffffffff8381831617835250505050604051610d569190611ad9565b600060405180830381855af49150503d8060008114610d91576040519150601f19603f3d011682016040523d82523d6000602084013e610d96565b606091505b50915091506020815114610daf57600092505050610dd7565b600081806020019051610dc591908101906115ee565b9050828015610dd15750805b93505050505b919050565b6000610e0f670de0b6b3a7640000610e01856060015185610f1f90919063ffffffff16565b610f8f90919063ffffffff16565b905092915050565b6000808473ffffffffffffffffffffffffffffffffffffffff168484604051602401610e44929190611b73565b6040516020818303038152906040527fa9059cbb000000000000000000000000000000000000000000000000000000007bffffffffffffffffffffffffffffffffffffffffffffffffffffffff19166020820180517bffffffffffffffffffffffffffffffffffffffffffffffffffffffff8381831617835250505050604051610ece9190611ad9565b6000604051808303816000865af19150503d8060008114610f0b576040519150601f19603f3d011682016040523d82523d6000602084013e610f10565b606091505b50509050809150509392505050565b600080831415610f325760009050610f89565b6000828402905082848281610f4357fe5b0414610f84576040517f08c379a0000000000000000000000000000000000000000000000000000000008152600401610f7b90611c87565b60405180910390fd5b809150505b92915050565b6000610fd183836040518060400160405280601a81526020017f536166654d6174683a206469766973696f6e206279207a65726f000000000000815250610fd9565b905092915050565b60008083118290611020576040517f08c379a00000000000000000000000000000000000000000000000000000000081526004016110179190611c25565b60405180910390fd5b50600083858161102c57fe5b049050809150509392505050565b6040518060400160405280600073ffffffffffffffffffffffffffffffffffffffff16815260200161106a6110fb565b81525090565b6040518060800160405280600073ffffffffffffffffffffffffffffffffffffffff168152602001600081526020016110a7611141565b81526020016110b4611168565b81525090565b60405180604001604052806110cd6111a6565b8152602001606081525090565b60405180606001604052806000815260200160008152602001600081525090565b6040518060400160405280600073ffffffffffffffffffffffffffffffffffffffff168152602001600073ffffffffffffffffffffffffffffffffffffffff1681525090565b60405180606001604052806000801916815260200160008152602001600080191681525090565b604051806080016040528060008152602001600073ffffffffffffffffffffffffffffffffffffffff16815260200160008152602001600081525090565b6040518060800160405280600073ffffffffffffffffffffffffffffffffffffffff168152602001600081526020016111dd611141565b81526020016111ea611168565b81525090565b6000813590506111ff81611ed4565b92915050565b60008151905061121481611ed4565b92915050565b60008151905061122981611eeb565b92915050565b60008151905061123e81611f02565b92915050565b600082601f83011261125557600080fd5b815161126861126382611d27565b611cfa565b9150808252602083016020830185838301111561128457600080fd5b61128f838284611e90565b50505092915050565b600082601f8301126112a957600080fd5b81356112bc6112b782611d53565b611cfa565b915080825260208301602083018583830111156112d857600080fd5b6112e3838284611e81565b50505092915050565b6000815190506112fb81611f19565b92915050565b60008151905061131081611f30565b92915050565b60006080828403121561132857600080fd5b6113326080611cfa565b9050600061134284828501611572565b600083015250602061135684828501611205565b602083015250604061136a84828501611572565b604083015250606061137e84828501611572565b60608301525092915050565b60006060828403121561139c57600080fd5b6113a66040611cfa565b905060006113b684828501611205565b60008301525060206113ca848285016113d6565b60208301525092915050565b6000604082840312156113e857600080fd5b6113f26040611cfa565b9050600061140284828501611205565b600083015250602061141684828501611205565b60208301525092915050565b6000610120828403121561143557600080fd5b61143f6080611cfa565b9050600061144f84828501611205565b600083015250602061146384828501611572565b602083015250604061147784828501611497565b60408301525060a061148b84828501611316565b60608301525092915050565b6000606082840312156114a957600080fd5b6114b36060611cfa565b905060006114c38482850161122f565b60008301525060206114d784828501611572565b60208301525060406114eb8482850161122f565b60408301525092915050565b6000610140828403121561150a57600080fd5b6115146040611cfa565b9050600061152484828501611422565b60008301525061012082015167ffffffffffffffff81111561154557600080fd5b61155184828501611244565b60208301525092915050565b60008135905061156c81611f47565b92915050565b60008151905061158181611f47565b92915050565b60008060006060848603121561159c57600080fd5b60006115aa868287016111f0565b93505060206115bb8682870161155d565b925050604084013567ffffffffffffffff8111156115d857600080fd5b6115e486828701611298565b9150509250925092565b60006020828403121561160057600080fd5b600061160e8482850161121a565b91505092915050565b60006020828403121561162957600080fd5b600082013567ffffffffffffffff81111561164357600080fd5b61164f84828501611298565b91505092915050565b60006020828403121561166a57600080fd5b6000611678848285016112ec565b91505092915050565b60006020828403121561169357600080fd5b60006116a184828501611301565b91505092915050565b6000606082840312156116bc57600080fd5b60006116ca8482850161138a565b91505092915050565b600061012082840312156116e657600080fd5b60006116f484828501611422565b91505092915050565b60006020828403121561170f57600080fd5b600082015167ffffffffffffffff81111561172957600080fd5b611735848285016114f7565b91505092915050565b60006020828403121561175057600080fd5b600061175e84828501611572565b91505092915050565b61177081611ddf565b82525050565b61177f81611dcd565b82525050565b61178e81611dcd565b82525050565b61179d81611dcd565b82525050565b6117ac81611df1565b82525050565b6117bb81611dfd565b82525050565b6117ca81611dfd565b82525050565b6117d981611e07565b82525050565b60006117ea82611d8a565b6117f48185611da0565b9350611804818560208601611e90565b61180d81611ec3565b840191505092915050565b600061182382611d8a565b61182d8185611db1565b935061183d818560208601611e90565b80840191505092915050565b600061185482611d7f565b61185e8185611da0565b935061186e818560208601611e90565b61187781611ec3565b840191505092915050565b600061188d82611d95565b6118978185611dbc565b93506118a7818560208601611e90565b6118b081611ec3565b840191505092915050565b60006118c8601f83611dbc565b91507f66756e6374696f6e2068616e646c6572206e6f742072656769737465726564006000830152602082019050919050565b6000611908602983611dbc565b91507f626f72726f772070726f78792063616e206f6e6c79206265207573656420627960008301527f20626f72726f77657200000000000000000000000000000000000000000000006020830152604082019050919050565b600061196e602183611dbc565b91507f536166654d6174683a206d756c7469706c69636174696f6e206f766572666c6f60008301527f77000000000000000000000000000000000000000000000000000000000000006020830152604082019050919050565b6080820160008201516119dd6000850182611abb565b5060208201516119f06020850182611776565b506040820151611a036040850182611abb565b506060820151611a166060850182611abb565b50505050565b8082525050565b61012082016000820151611a3a6000850182611776565b506020820151611a4d6020850182611abb565b506040820151611a606040850182611a79565b506060820151611a7360a08501826119c7565b50505050565b606082016000820151611a8f60008501826117b2565b506020820151611aa26020850182611abb565b506040820151611ab560408501826117b2565b50505050565b611ac481611e77565b82525050565b611ad381611e77565b82525050565b6000611ae58284611818565b915081905092915050565b6000602082019050611b056000830184611785565b92915050565b600060c082019050611b206000830189611785565b611b2d6020830188611785565b611b3a6040830187611767565b611b476060830186611785565b611b546080830185611aca565b81810360a0830152611b6681846117df565b9050979650505050505050565b6000604082019050611b886000830185611785565b611b956020830184611aca565b9392505050565b6000602082019050611bb160008301846117a3565b92915050565b6000608082019050611bcc60008301876117c1565b611bd96020830186611aca565b611be660408301856117c1565b8181036060830152611bf88184611849565b905095945050505050565b60006020820190508181036000830152611c1d81846117df565b905092915050565b60006020820190508181036000830152611c3f8184611882565b905092915050565b60006020820190508181036000830152611c60816118bb565b9050919050565b60006020820190508181036000830152611c80816118fb565b9050919050565b60006020820190508181036000830152611ca081611961565b9050919050565b6000606082019050611cbc6000830186611a1c565b611cc96020830185611794565b611cd660408301846117d0565b949350505050565b600061012082019050611cf46000830184611a23565b92915050565b6000604051905081810181811067ffffffffffffffff82111715611d1d57600080fd5b8060405250919050565b600067ffffffffffffffff821115611d3e57600080fd5b601f19601f8301169050602081019050919050565b600067ffffffffffffffff821115611d6a57600080fd5b601f19601f8301169050602081019050919050565b600081519050919050565b600081519050919050565b600081519050919050565b600082825260208201905092915050565b600081905092915050565b600082825260208201905092915050565b6000611dd882611e57565b9050919050565b6000611dea82611e57565b9050919050565b60008115159050919050565b6000819050919050565b60007fffffffff0000000000000000000000000000000000000000000000000000000082169050919050565b6000611e3e82611dcd565b9050919050565b6000611e5082611dcd565b9050919050565b600073ffffffffffffffffffffffffffffffffffffffff82169050919050565b6000819050919050565b82818337600083830152505050565b60005b83811015611eae578082015181840152602081019050611e93565b83811115611ebd576000848401525b50505050565b6000601f19601f8301169050919050565b611edd81611dcd565b8114611ee857600080fd5b50565b611ef481611df1565b8114611eff57600080fd5b50565b611f0b81611dfd565b8114611f1657600080fd5b50565b611f2281611e33565b8114611f2d57600080fd5b50565b611f3981611e45565b8114611f4457600080fd5b50565b611f5081611e77565b8114611f5b57600080fd5b5056fea2646970667358221220b7ed86ac574112b136f21946b60bc3fd5039bb410d116b885712faa28177a73e64736f6c63430006030033",
  "source": "pragma solidity ^0.6.2;\npragma experimental ABIEncoderV2;\n\nimport { BorrowProxy } from \"./BorrowProxy.sol\";\nimport { ShifterPool } from \"./ShifterPool.sol\";\nimport { ShifterBorrowProxyLib } from \"./ShifterBorrowProxyLib.sol\";\nimport { ILiquidationModule } from \"./interfaces/ILiquidationModule.sol\";\nimport { TokenUtils } from \"./utils/TokenUtils.sol\";\nimport { LiquidityToken } from \"./LiquidityToken.sol\";\n\ncontract ShifterBorrowProxy is BorrowProxy {\n  using ShifterBorrowProxyLib for *;\n  using TokenUtils for *;\n  constructor() BorrowProxy() public {}\n  function repayLoan(bytes memory data) public returns (bool) {\n    (ShifterBorrowProxyLib.TriggerParcel memory parcel) = abi.decode(data, (ShifterBorrowProxyLib.TriggerParcel));\n    require(validateProxyRecord(abi.encode(parcel.record)));\n    require(!isolate.isLiquidating);\n    uint256 amount = ShifterPool(isolate.masterAddress).getShifterHandler(parcel.record.token).shiftIn(parcel.record.message.pHash, parcel.record.message.amount, parcel.record.message.nHash, parcel.darknodeSignature);\n    uint256 fee = parcel.record.loan.computeAdjustedKeeperFee(amount);\n    isolate.unbound = true;\n    LiquidityToken liquidityToken = ShifterPool(isolate.masterAddress).getLiquidityTokenHandler(parcel.record.token);\n    require(parcel.record.token.sendToken(address(liquidityToken), amount - fee));\n    require(parcel.record.token.sendToken(parcel.record.loan.keeper, fee));\n    require(ShifterPool(isolate.masterAddress).relayResolveLoan(address(liquidityToken)));\n  }\n  function defaultLoan(bytes memory data) public returns (bool) {\n    require(validateProxyRecord(data));\n    (ShifterBorrowProxyLib.ProxyRecord memory record) = abi.decode(data, (ShifterBorrowProxyLib.ProxyRecord));\n    address[] memory set = isolate.liquidationSet.set;\n    if (record.timeoutExpiry >= block.number) {\n      isolate.isLiquidating = true;\n      for (uint256 i = isolate.liquidationIndex; i < set.length; i++) {\n        if (gasleft() < 3e5 || !set[i].delegateLiquidate()) {\n          isolate.liquidationIndex = i;\n          return false;\n        }\n      }\n      isolate.liquidationIndex = set.length;\n      ShifterPool pool = ShifterPool(isolate.masterAddress);\n      require(pool.relayResolveLoan(address(pool.getLiquidityTokenHandler(record.token))));\n      return true;\n    }\n    return false;\n  }\n}\n",
  "sourcePath": "/home/ray/0confirmation-mono/packages/0confirmation-sol/contracts/ShifterBorrowProxy.sol",
  "compiler": {
    "name": "solc",
    "version": "0.6.3+commit.8dda9521.Linux.g++"
  },
  "schemaVersion": "3.0.23",
  "updatedAt": "2020-03-03T01:21:52.875Z",
  "devdoc": {
    "methods": {}
  },
  "userdoc": {
    "methods": {}
  }
}