{
  "contractName": "ShifterPool",
  "abi": [
    {
      "inputs": [],
      "stateMutability": "nonpayable",
      "type": "constructor"
    },
    {
      "anonymous": false,
      "inputs": [
        {
          "indexed": true,
          "internalType": "address",
          "name": "previousOwner",
          "type": "address"
        },
        {
          "indexed": true,
          "internalType": "address",
          "name": "newOwner",
          "type": "address"
        }
      ],
      "name": "OwnershipTransferred",
      "type": "event"
    },
    {
      "inputs": [
        {
          "internalType": "bytes",
          "name": "creationCode",
          "type": "bytes"
        },
        {
          "internalType": "bytes",
          "name": "context",
          "type": "bytes"
        }
      ],
      "name": "_executeSafeView",
      "outputs": [],
      "stateMutability": "nonpayable",
      "type": "function"
    },
    {
      "inputs": [
        {
          "internalType": "bytes",
          "name": "consData",
          "type": "bytes"
        }
      ],
      "name": "cloneConstructor",
      "outputs": [],
      "stateMutability": "nonpayable",
      "type": "function"
    },
    {
      "inputs": [],
      "name": "owner",
      "outputs": [
        {
          "internalType": "address",
          "name": "",
          "type": "address"
        }
      ],
      "stateMutability": "view",
      "type": "function",
      "constant": true
    },
    {
      "inputs": [
        {
          "internalType": "bytes",
          "name": "creationCode",
          "type": "bytes"
        },
        {
          "internalType": "bytes",
          "name": "context",
          "type": "bytes"
        }
      ],
      "name": "query",
      "outputs": [
        {
          "components": [
            {
              "internalType": "bool",
              "name": "success",
              "type": "bool"
            },
            {
              "internalType": "bytes",
              "name": "data",
              "type": "bytes"
            }
          ],
          "internalType": "struct SafeViewLib.SafeViewResult",
          "name": "",
          "type": "tuple"
        }
      ],
      "stateMutability": "nonpayable",
      "type": "function"
    },
    {
      "inputs": [],
      "name": "renounceOwnership",
      "outputs": [],
      "stateMutability": "nonpayable",
      "type": "function"
    },
    {
      "inputs": [
        {
          "internalType": "address",
          "name": "newOwner",
          "type": "address"
        }
      ],
      "name": "transferOwnership",
      "outputs": [],
      "stateMutability": "nonpayable",
      "type": "function"
    },
    {
      "inputs": [
        {
          "components": [
            {
              "internalType": "address",
              "name": "shifterRegistry",
              "type": "address"
            },
            {
              "internalType": "uint256",
              "name": "minTimeout",
              "type": "uint256"
            },
            {
              "internalType": "uint256",
              "name": "poolFee",
              "type": "uint256"
            },
            {
              "internalType": "uint256",
              "name": "daoFee",
              "type": "uint256"
            },
            {
              "internalType": "uint256",
              "name": "maxLoan",
              "type": "uint256"
            }
          ],
          "internalType": "struct ShifterPoolLib.SetupParams",
          "name": "params",
          "type": "tuple"
        },
        {
          "components": [
            {
              "internalType": "enum BorrowProxyLib.ModuleRegistrationType",
              "name": "moduleType",
              "type": "uint8"
            },
            {
              "internalType": "address",
              "name": "target",
              "type": "address"
            },
            {
              "internalType": "bytes4[]",
              "name": "sigs",
              "type": "bytes4[]"
            }
          ],
          "internalType": "struct BorrowProxyLib.ModuleDetails[]",
          "name": "moduleDetails",
          "type": "tuple[]"
        },
        {
          "components": [
            {
              "internalType": "bool",
              "name": "isPrecompiled",
              "type": "bool"
            },
            {
              "internalType": "address",
              "name": "assetSubmodule",
              "type": "address"
            },
            {
              "internalType": "address",
              "name": "liquidationSubmodule",
              "type": "address"
            },
            {
              "internalType": "address",
              "name": "repaymentSubmodule",
              "type": "address"
            }
          ],
          "internalType": "struct BorrowProxyLib.Module[]",
          "name": "modules",
          "type": "tuple[]"
        },
        {
          "components": [
            {
              "internalType": "address",
              "name": "token",
              "type": "address"
            },
            {
              "internalType": "address",
              "name": "liqToken",
              "type": "address"
            }
          ],
          "internalType": "struct ShifterPoolLib.LiquidityTokenLaunch[]",
          "name": "tokenLaunches",
          "type": "tuple[]"
        }
      ],
      "name": "setup",
      "outputs": [],
      "stateMutability": "nonpayable",
      "type": "function"
    },
    {
      "inputs": [
        {
          "internalType": "address",
          "name": "token",
          "type": "address"
        }
      ],
      "name": "getLiquidityTokenForTokenHandler",
      "outputs": [
        {
          "internalType": "address",
          "name": "",
          "type": "address"
        }
      ],
      "stateMutability": "view",
      "type": "function",
      "constant": true
    },
    {
      "inputs": [],
      "name": "deployBorrowProxyImplementation",
      "outputs": [],
      "stateMutability": "nonpayable",
      "type": "function"
    },
    {
      "inputs": [],
      "name": "deployAssetForwarderImplementation",
      "outputs": [],
      "stateMutability": "nonpayable",
      "type": "function"
    },
    {
      "inputs": [
        {
          "internalType": "bytes32",
          "name": "salt",
          "type": "bytes32"
        }
      ],
      "name": "deployAssetForwarderClone",
      "outputs": [
        {
          "internalType": "address",
          "name": "created",
          "type": "address"
        }
      ],
      "stateMutability": "nonpayable",
      "type": "function"
    },
    {
      "inputs": [],
      "name": "getAssetForwarderImplementationHandler",
      "outputs": [
        {
          "internalType": "address",
          "name": "implementation",
          "type": "address"
        }
      ],
      "stateMutability": "view",
      "type": "function",
      "constant": true
    },
    {
      "inputs": [
        {
          "components": [
            {
              "components": [
                {
                  "internalType": "address payable",
                  "name": "borrower",
                  "type": "address"
                },
                {
                  "internalType": "address",
                  "name": "token",
                  "type": "address"
                },
                {
                  "internalType": "bytes32",
                  "name": "nonce",
                  "type": "bytes32"
                },
                {
                  "internalType": "uint256",
                  "name": "amount",
                  "type": "uint256"
                },
                {
                  "internalType": "bool",
                  "name": "forbidLoan",
                  "type": "bool"
                },
                {
                  "components": [
                    {
                      "internalType": "address",
                      "name": "to",
                      "type": "address"
                    },
                    {
                      "internalType": "bytes",
                      "name": "txData",
                      "type": "bytes"
                    }
                  ],
                  "internalType": "struct ShifterBorrowProxyLib.InitializationAction[]",
                  "name": "actions",
                  "type": "tuple[]"
                }
              ],
              "internalType": "struct ShifterBorrowProxyLib.LiquidityRequest",
              "name": "request",
              "type": "tuple"
            },
            {
              "internalType": "uint256",
              "name": "gasRequested",
              "type": "uint256"
            },
            {
              "internalType": "bytes",
              "name": "signature",
              "type": "bytes"
            }
          ],
          "internalType": "struct ShifterBorrowProxyLib.LiquidityRequestParcel",
          "name": "liquidityRequestParcel",
          "type": "tuple"
        },
        {
          "internalType": "uint256",
          "name": "bond",
          "type": "uint256"
        },
        {
          "internalType": "uint256",
          "name": "timeoutExpiry",
          "type": "uint256"
        }
      ],
      "name": "executeBorrow",
      "outputs": [],
      "stateMutability": "payable",
      "type": "function",
      "payable": true
    },
    {
      "inputs": [
        {
          "components": [
            {
              "components": [
                {
                  "components": [
                    {
                      "internalType": "address payable",
                      "name": "borrower",
                      "type": "address"
                    },
                    {
                      "internalType": "address",
                      "name": "token",
                      "type": "address"
                    },
                    {
                      "internalType": "bytes32",
                      "name": "nonce",
                      "type": "bytes32"
                    },
                    {
                      "internalType": "uint256",
                      "name": "amount",
                      "type": "uint256"
                    },
                    {
                      "internalType": "bool",
                      "name": "forbidLoan",
                      "type": "bool"
                    },
                    {
                      "components": [
                        {
                          "internalType": "address",
                          "name": "to",
                          "type": "address"
                        },
                        {
                          "internalType": "bytes",
                          "name": "txData",
                          "type": "bytes"
                        }
                      ],
                      "internalType": "struct ShifterBorrowProxyLib.InitializationAction[]",
                      "name": "actions",
                      "type": "tuple[]"
                    }
                  ],
                  "internalType": "struct ShifterBorrowProxyLib.LiquidityRequest",
                  "name": "request",
                  "type": "tuple"
                },
                {
                  "internalType": "uint256",
                  "name": "gasRequested",
                  "type": "uint256"
                },
                {
                  "internalType": "bytes",
                  "name": "signature",
                  "type": "bytes"
                }
              ],
              "internalType": "struct ShifterBorrowProxyLib.LiquidityRequestParcel",
              "name": "liquidityRequestParcel",
              "type": "tuple"
            },
            {
              "components": [
                {
                  "internalType": "bytes32",
                  "name": "txhash",
                  "type": "bytes32"
                },
                {
                  "internalType": "uint256",
                  "name": "vout",
                  "type": "uint256"
                },
                {
                  "internalType": "bytes32",
                  "name": "pHash",
                  "type": "bytes32"
                },
                {
                  "internalType": "uint256",
                  "name": "amount",
                  "type": "uint256"
                },
                {
                  "internalType": "bytes",
                  "name": "darknodeSignature",
                  "type": "bytes"
                }
              ],
              "internalType": "struct ShifterBorrowProxyLib.ShiftParameters",
              "name": "shiftParameters",
              "type": "tuple"
            },
            {
              "components": [
                {
                  "internalType": "address",
                  "name": "to",
                  "type": "address"
                },
                {
                  "internalType": "bytes",
                  "name": "txData",
                  "type": "bytes"
                }
              ],
              "internalType": "struct ShifterBorrowProxyLib.InitializationAction[]",
              "name": "actions",
              "type": "tuple[]"
            }
          ],
          "internalType": "struct ShifterBorrowProxyLib.SansBorrowShiftParcel",
          "name": "parcel",
          "type": "tuple"
        }
      ],
      "name": "executeShiftSansBorrow",
      "outputs": [],
      "stateMutability": "payable",
      "type": "function",
      "payable": true
    },
    {
      "inputs": [
        {
          "internalType": "bytes",
          "name": "proxyRecord",
          "type": "bytes"
        }
      ],
      "name": "validateProxyRecordHandler",
      "outputs": [
        {
          "internalType": "bool",
          "name": "",
          "type": "bool"
        }
      ],
      "stateMutability": "view",
      "type": "function",
      "constant": true
    },
    {
      "inputs": [
        {
          "internalType": "address",
          "name": "proxyAddress",
          "type": "address"
        }
      ],
      "name": "getProxyTokenHandler",
      "outputs": [
        {
          "internalType": "address",
          "name": "",
          "type": "address"
        }
      ],
      "stateMutability": "view",
      "type": "function",
      "constant": true
    },
    {
      "inputs": [
        {
          "internalType": "address",
          "name": "user",
          "type": "address"
        }
      ],
      "name": "getProxyOwnerHandler",
      "outputs": [
        {
          "internalType": "address",
          "name": "",
          "type": "address"
        }
      ],
      "stateMutability": "view",
      "type": "function",
      "constant": true
    },
    {
      "inputs": [
        {
          "internalType": "address",
          "name": "token",
          "type": "address"
        }
      ],
      "name": "getShifterHandler",
      "outputs": [
        {
          "internalType": "contract IShifter",
          "name": "",
          "type": "address"
        }
      ],
      "stateMutability": "view",
      "type": "function",
      "constant": true
    },
    {
      "inputs": [
        {
          "internalType": "address",
          "name": "token",
          "type": "address"
        }
      ],
      "name": "getLiquidityTokenHandler",
      "outputs": [
        {
          "internalType": "contract LiquidityToken",
          "name": "",
          "type": "address"
        }
      ],
      "stateMutability": "view",
      "type": "function",
      "constant": true
    },
    {
      "inputs": [
        {
          "internalType": "address",
          "name": "to",
          "type": "address"
        },
        {
          "internalType": "bytes4",
          "name": "sig",
          "type": "bytes4"
        }
      ],
      "name": "fetchModuleHandler",
      "outputs": [
        {
          "components": [
            {
              "internalType": "bool",
              "name": "isPrecompiled",
              "type": "bool"
            },
            {
              "internalType": "address",
              "name": "assetSubmodule",
              "type": "address"
            },
            {
              "internalType": "address",
              "name": "liquidationSubmodule",
              "type": "address"
            },
            {
              "internalType": "address",
              "name": "repaymentSubmodule",
              "type": "address"
            }
          ],
          "internalType": "struct BorrowProxyLib.Module",
          "name": "",
          "type": "tuple"
        }
      ],
      "stateMutability": "view",
      "type": "function",
      "constant": true
    },
    {
      "inputs": [
        {
          "internalType": "address",
          "name": "token",
          "type": "address"
        },
        {
          "internalType": "address",
          "name": "liquidityToken",
          "type": "address"
        },
        {
          "internalType": "address",
          "name": "keeper",
          "type": "address"
        },
        {
          "internalType": "uint256",
          "name": "bond",
          "type": "uint256"
        },
        {
          "internalType": "uint256",
          "name": "repay",
          "type": "uint256"
        },
        {
          "internalType": "uint256",
          "name": "originalAmount",
          "type": "uint256"
        }
      ],
      "name": "relayResolveLoan",
      "outputs": [
        {
          "internalType": "bool",
          "name": "",
          "type": "bool"
        }
      ],
      "stateMutability": "nonpayable",
      "type": "function"
    }
  ],
  "bytecode": "0x60806040523480156200001157600080fd5b506000620000276001600160e01b036200007b16565b600080546001600160a01b0319166001600160a01b0383169081178255604051929350917f8be0079c531659141344cd1fd0a4f28419497f9722a3daafe3b4186f6b6457e0908290a350436001556200007f565b3390565b61437c806200008f6000396000f3fe60806040526004361061012a5760003560e01c8063715018a6116100ab578063c2006b621161006f578063c2006b621461030a578063d0a80e311461032a578063dc74245e1461034a578063e6c1f0741461035d578063f2fde38b1461037d578063f7a94ce21461039d5761012a565b8063715018a614610298578063798aada0146102ad5780638da5cb5b146102cd57806393e93abe146102e2578063abee1fc9146102f75761012a565b806344112360116100f257806344112360146101ff57806352e831dd1461022c5780635f7d2b571461024e57806363091aa31461026e57806365ba837a146102835761012a565b806308f604951461012f5780631fbc78dc146101655780632593b0531461019257806329658b02146101b257806334686eaf146101d2575b600080fd5b34801561013b57600080fd5b5061014f61014a366004612f08565b6103bd565b60405161015c91906135fd565b60405180910390f35b34801561017157600080fd5b50610185610180366004612e00565b6103d7565b60405161015c91906134d7565b34801561019e57600080fd5b506101856101ad366004612ef0565b6103ea565b3480156101be57600080fd5b506101856101cd366004612e00565b610437565b3480156101de57600080fd5b506101f26101ed366004612f3a565b61044a565b60405161015c9190613f28565b34801561020b57600080fd5b5061021f61021a366004612e9c565b610469565b60405161015c9190613e0e565b34801561023857600080fd5b5061024c610247366004612f08565b610483565b005b34801561025a57600080fd5b5061024c610269366004612f3a565b610486565b34801561027a57600080fd5b5061024c6104d1565b34801561028f57600080fd5b50610185610524565b3480156102a457600080fd5b5061024c610533565b3480156102b957600080fd5b506101856102c8366004612e00565b6105bb565b3480156102d957600080fd5b506101856105ce565b3480156102ee57600080fd5b5061024c6105dd565b61024c610305366004613099565b610607565b34801561031657600080fd5b5061024c61032536600461314b565b61063f565b34801561033657600080fd5b50610185610345366004612e00565b610808565b61024c610358366004612f9a565b610826565b34801561036957600080fd5b50610185610378366004612e00565b610886565b34801561038957600080fd5b5061024c610398366004612e00565b610899565b3480156103a957600080fd5b5061014f6103b8366004612e38565b61094f565b60006103d1600c338463ffffffff610b1c16565b92915050565b60006103d160018363ffffffff610b4216565b6003546000906103d1906001600160a01b0316610405610bc5565b338560405160200161041993929190613430565b6040516020818303038152906040528051906020012060001c610be9565b60006103d1600c8363ffffffff610c3916565b610452612763565b610462838363ffffffff610c5c16565b9392505050565b61047161277b565b6104626010848463ffffffff610cd516565b50565b600061049b6000610495610dc3565b85610de7565b905060606104c06104bb6001600160a01b0384168563ffffffff610e5916565b610ee3565b90506104cb81610f0c565b50505050565b61050260017ffe1e3164ba4910db3c9afd049cd8feb4552390569c846692e6df4ac68aeaa90e63ffffffff610f1416565b600280546001600160a01b0319166001600160a01b0392909216919091179055565b6003546001600160a01b031690565b61053b610f7c565b6000546001600160a01b039081169116146105715760405162461bcd60e51b815260040161056890613b24565b60405180910390fd5b600080546040516001600160a01b03909116907f8be0079c531659141344cd1fd0a4f28419497f9722a3daafe3b4186f6b6457e0908390a3600080546001600160a01b0319169055565b60006103d160018363ffffffff610f8016565b6000546001600160a01b031690565b6105e5610fbc565b600380546001600160a01b0319166001600160a01b0392909216919091179055565b6000606061061483611014565b91509150805160001461063a5761063a6001600160a01b0383168263ffffffff61136b16565b505050565b610647610f7c565b6000546001600160a01b039081169116146106745760405162461bcd60e51b815260040161056890613b24565b82518251146106955760405162461bcd60e51b815260040161056890613bfa565b8351600480546001600160a01b0319166001600160a01b03909216919091179055608084015160085560208401516005556040840151600655606084015160075560005b8251811015610795576106ea6127a2565b604051806080016040528086848151811061070157fe5b602002602001015160000151600281111561071857fe5b815260200186848151811061072957fe5b6020026020010151602001516001600160a01b0316815260200186848151811061074f57fe5b602002602001015160400151815260200185848151811061076c57fe5b60209081029190910101519052905061078c60108263ffffffff6113cd16565b506001016106d9565b5060005b8151811015610801576107aa6127d0565b8282815181106107b657fe5b6020908102919091018101518082015190516001600160a01b039081166000908152600b909352604090922080546001600160a01b0319169290911691909117905550600101610799565b5050505050565b6001600160a01b039081166000908152600b60205260409020541690565b825160a0015161083584611487565b506000610843858585611569565b8551805160209091015191925061086d916001600160a01b0384169190600063ffffffff61175416565b6108016001600160a01b0382168363ffffffff61136b16565b60006103d1600c8363ffffffff6117f216565b6108a1610f7c565b6000546001600160a01b039081169116146108ce5760405162461bcd60e51b815260040161056890613b24565b6001600160a01b0381166108f45760405162461bcd60e51b81526004016105689061377a565b600080546040516001600160a01b03808516939216917f8be0079c531659141344cd1fd0a4f28419497f9722a3daafe3b4186f6b6457e091a3600080546001600160a01b0319166001600160a01b0392909216919091179055565b336000908152600c602052604081205461097b5760405162461bcd60e51b81526004016105689061395b565b818310156109a55781848401101561099a5760009392909201916109a5565b828203840393508192505b83156109e1576109c56001600160a01b038816868663ffffffff61181516565b6109e15760405162461bcd60e51b815260040161056890613a68565b8215610a75576000806109f985600160060154611887565b9092509050610a186001600160a01b038a16898463ffffffff61181516565b610a345760405162461bcd60e51b815260040161056890613871565b610a56610a3f6105ce565b6001600160a01b038b16908363ffffffff61181516565b610a725760405162461bcd60e51b815260040161056890613cd1565b50505b60405163c3275c7960e01b81526001600160a01b0387169063c3275c7990610aa19033906004016134d7565b602060405180830381600087803b158015610abb57600080fd5b505af1158015610acf573d6000803e3d6000fd5b505050506040513d601f19601f82011682018060405250810190610af39190612ed4565b610b0f5760405162461bcd60e51b815260040161056890613c9a565b5060019695505050505050565b80516020918201206001600160a01b039290921660009081529290526040909120541490565b6003820154604051631b95e30560e01b81526000916001600160a01b031690631b95e30590610b759085906004016134d7565b60206040518083038186803b158015610b8d57600080fd5b505afa158015610ba1573d6000803e3d6000fd5b505050506040513d601f19601f820116820180604052508101906104629190612e1c565b7f6b6f6b75258f8f4cdb6ef275682bc2be3e8b970e5e4417113bd1ea53622d907e90565b60006060610bf6846118d0565b80519091508390602083018282826000f5945050506001600160a01b038316610c315760405162461bcd60e51b815260040161056890613bd2565b505092915050565b6001600160a01b0380821660009081526002840160205260409020541692915050565b610c64612763565b606030610c7185856118dc565b604051610c7e9190613481565b6000604051808303816000865af19150503d8060008114610cbb576040519150601f19603f3d011682016040523d82523d6000602084013e610cc0565b606091505b50915050610ccd81611932565b949350505050565b610cdd61277b565b610ce561277b565b846000610cf2868661194e565b815260208082019290925260409081016000208151608081018352815460ff8116151582526001600160a01b0361010090910481169482019490945260018201548416928101929092526002015490911660608201529050610d5381611976565b610ccd57846000610d648686611988565b815260208082019290925260409081016000208151608081018352815460ff81161515825261010090046001600160a01b0390811694820194909452600182015484169281019290925260020154909116606082015295945050505050565b7fad53495153c7c363e98a26920ec679e0e687636458f6908c91cf6deadb19080190565b60008084471015610e0a5760405162461bcd60e51b815260040161056890613d9b565b8251610e285760405162461bcd60e51b8152600401610568906136e0565b8383516020850187f590506001600160a01b038116610ccd5760405162461bcd60e51b815260040161056890613a31565b610e61612763565b60006060846001600160a01b0316610e78856119a3565b604051610e859190613481565b600060405180830381855af49150503d8060008114610ec0576040519150601f19603f3d011682016040523d82523d6000602084013e610ec5565b606091505b50604080518082019091529115158252602082015295945050505050565b606081604051602001610ef69190613f28565b6040516020818303038152906040529050919050565b805160208201fd5b60405163dd678a0760e01b815260009073__ShifterBorrowProxyFactoryLib__________9063dd678a0790610f509086908690600401613e00565b60206040518083038186803b158015610f6857600080fd5b505af4158015610ba1573d6000803e3d6000fd5b3390565b6001600160a01b038082166000908152600a84016020526040812054909116806104625760405162461bcd60e51b815260040161056890613c65565b600061100f60007f6b6f6b75258f8f4cdb6ef275682bc2be3e8b970e5e4417113bd1ea53622d907e60001b60405180602001610ff7906127e7565b601f1982820381018352601f90910116604052610de7565b905090565b600060606110206127f4565b6040805160a08101825285515181830190815282518084019093523383528651516060908101519293849391840191602082019061106790600190600a81046103e86119f6565b905281528751516060908101516020928301529183526040805160a08101825289830180515182528051840151828501528051830151928201929092528151840151938101939093525160809081015190830152919091015284519091506110e0906110d290611aea565b85519063ffffffff611b0316565b6110fc5760405162461bcd60e51b815260040161056890613ae0565b83515160009061110b90611b34565b60025490915061112a906001600160a01b03168263ffffffff611b3f16565b935061113e846001600160a01b0316611b4b565b1561115b5760405162461bcd60e51b81526004016105689061369e565b61119084600160405160200161117191906134ce565b60408051601f19818403018152919052600c919063ffffffff611b5116565b60208501516060015182516000916111ae919063ffffffff611b7416565b90506111b982611ba1565b5085515180516020909101516111e1916001600160a01b03881691600163ffffffff61175416565b855151516001600160a01b03163314801590611201575085516020015134145b156112db57855151516040516001600160a01b03909116903480156108fc02916000818181858888f19350505050158015611240573d6000803e3d6000fd5b50855151602001516112909086906112609060019063ffffffff610b4216565b885151602090810151908a0151604081015160609091015161128189611bba565b8c602001516080015188611bc5565b855151602001516112b1906001600160a01b0316338363ffffffff61181516565b6112cd5760405162461bcd60e51b8152600401610568906137c0565b85515160a001519350611363565b855151516001600160a01b031633141561134b578551516020015161133f90869061130e9060019063ffffffff610b4216565b885151602090810151908a0151604081015160609091015161132f89611bba565b8c60200151608001516000611bc5565b85604001519350611363565b60405162461bcd60e51b815260040161056890613b59565b505050915091565b604051630bfceb2b60e31b81526001600160a01b03831690635fe759589061139790849060040161359d565b600060405180830381600087803b1580156113b157600080fd5b505af11580156113c5573d6000803e3d6000fd5b505050505050565b6001815160028111156113dc57fe5b141561142b5760005b8160400151518110156114255761141d8383602001518460400151848151811061140b57fe5b60200260200101518560600151611c5a565b6001016113e5565b50611483565b60028151600281111561143a57fe5b14156114835760005b81604001515181101561063a5761147b8383602001518460400151848151811061146957fe5b60200260200101518560600151611ce4565b600101611443565b5050565b6000808260000151602001516001600160a01b031663313ce5676040518163ffffffff1660e01b815260040160206040518083038186803b1580156114cb57600080fd5b505afa1580156114df573d6000803e3d6000fd5b505050506040513d601f19601f820116820180604052508101906115039190613263565b905060128160ff1611156115295760405162461bcd60e51b815260040161056890613d3e565b60085483516060015160ff8316601203600a0a908161154457fe5b0411156115635760405162461bcd60e51b815260040161056890613dd2565b50919050565b8251608001516000901561158f5760405162461bcd60e51b815260040161056890613992565b348460200151146115b25760405162461bcd60e51b815260040161056890613825565b6115cb6115be85611aea565b859063ffffffff611b0316565b6115e75760405162461bcd60e51b815260040161056890613ae0565b6115ef612814565b50835160006115fd82611b34565b60408051600080825260208201909252919250611630565b61161d612763565b8152602001906001900390816116155790505b5060a083015261163e61284b565b60405180606001604052808481526020016040518060400160405280336001600160a01b0316815260200161168587606001518b8b60016119f6909392919063ffffffff16565b81525081526020016116d16188b86116c56116ae88602001516001610b4290919063ffffffff16565b602089015160608a0151919063ffffffff611cf216565b9063ffffffff611d4316565b905290506116de82611ba1565b93506116ec60018583611d85565b61170e8360200151856116fe84611e24565b600192919063ffffffff611e5b16565b602083015161172e906001600160a01b031633308963ffffffff611f0016565b61174a5760405162461bcd60e51b815260040161056890613ba2565b5050509392505050565b6040516329c8702d60e01b81526001600160a01b038516906329c8702d9061178490869086908690600401613504565b602060405180830381600087803b15801561179e57600080fd5b505af11580156117b2573d6000803e3d6000fd5b505050506040513d601f19601f820116820180604052508101906117d69190612ed4565b6104cb5760405162461bcd60e51b8152600401610568906138a8565b6001600160a01b0380821660009081526001840160205260409020541692915050565b600080846001600160a01b031661182c8585611f74565b6040516118399190613481565b6000604051808303816000865af19150503d8060008114611876576040519150601f19603f3d011682016040523d82523d6000602084013e61187b565b606091505b50909695505050505050565b6000806118b2670de0b6b3a76400006118a6868663ffffffff611f9116565b9063ffffffff611fcb16565b9050838110156118c65780840391506118c9565b50825b9250929050565b60606103d1308361200d565b6060635f7d2b5760e01b83836040516024016118f9929190613639565b60408051601f198184030181529190526020810180516001600160e01b03166001600160e01b0319909316929092179091529392505050565b61193a612763565b818060200190518101906103d19190612fe5565b60008061195a8461216c565b90506119668184612170565b8051906020012091505092915050565b602001516001600160a01b0316151590565b6000611994838361219c565b80519060200120905092915050565b60606309c5eabe60e01b826040516024016119be9190613626565b60408051601f198184030181529190526020810180516001600160e01b03166001600160e01b03199093169290921790915292915050565b6119fe612878565b8460040154821015611a225760405162461bcd60e51b815260040161056890613715565b6000611a3d670de0b6b3a7640000606463ffffffff611fcb16565b9050611a58670de0b6b3a7640000606463ffffffff611fcb16565b611a74866118a687670de0b6b3a764000063ffffffff611f9116565b11611a915760405162461bcd60e51b815260040161056890613d12565b6000848610611ab357611aae866118a6848863ffffffff611f9116565b611ab5565b815b905060405180608001604052808543018152602001868152602001886005015481526020018281525092505050949350505050565b6000611af5826121b1565b805190602001209050919050565b6000611b1b611b11836121d1565b8460400151612201565b8351516001600160a01b03908116911614905092915050565b6000611af58261232f565b6000610462838361234b565b3b151590565b80516020918201206001600160a01b039092166000908152929052604090912055565b6000610462670de0b6b3a76400006118a68560200151602001516060015185611f9190919063ffffffff16565b6002546000906103d1906001600160a01b031683610be9565b6000611af582612366565b604051637bf1bc5b60e11b81526001600160a01b0389169063f7e378b690611bfd908a908a908a908a908a908a908a90600401613528565b602060405180830381600087803b158015611c1757600080fd5b505af1158015611c2b573d6000803e3d6000fd5b505050506040513d601f19601f82011682018060405250810190611c4f9190612ed4565b505050505050505050565b80846000611c68868661194e565b81526020808201929092526040908101600020835181549385015160ff1990941690151517610100600160a81b0319166101006001600160a01b0394851602178155908301516001820180546001600160a01b031990811692851692909217905560609093015160029091018054909316911617905550505050565b80846000611c688686611988565b600080611cfe8461238d565b90506000611d0c848761240a565b90506000611d266127106118a6848663ffffffff611f9116565b9050611d38828263ffffffff611d4316565b979650505050505050565b600061046283836040518060400160405280601e81526020017f536166654d6174683a207375627472616374696f6e206f766572666c6f77000081525061248b565b6060611d90826124b7565b825160200151909150611daf90600b860190859063ffffffff6124ca16565b815151611dc890600b860190859063ffffffff6124fe16565b8151516040516001600160a01b03909116903480156108fc02916000818181858888f19350505050158015611e01573d6000803e3d6000fd5b50611e16600b8501848363ffffffff611b5116565b8151516104cb908483612532565b60006103d1611e4a611e3584612582565b611e3e856125b3565b9063ffffffff6125e416565b60408401519063ffffffff611d4316565b611e658484610f80565b6001600160a01b031663185cc75183836040518363ffffffff1660e01b8152600401611e929291906134eb565b602060405180830381600087803b158015611eac57600080fd5b505af1158015611ec0573d6000803e3d6000fd5b505050506040513d601f19601f82011682018060405250810190611ee49190612ed4565b6104cb5760405162461bcd60e51b815260040161056890613917565b600080856001600160a01b0316611f18868686612609565b604051611f259190613481565b6000604051808303816000865af19150503d8060008114611f62576040519150601f19603f3d011682016040523d82523d6000602084013e611f67565b606091505b5090979650505050505050565b606063a9059cbb60e01b83836040516024016118f99291906134eb565b600082611fa0575060006103d1565b82820282848281611fad57fe5b04146104625760405162461bcd60e51b815260040161056890613a9f565b600061046283836040518060400160405280601a81526020017f536166654d6174683a206469766973696f6e206279207a65726f000000000000815250612662565b604080516000815260208101909152606090819061202e9060448101613626565b60408051601f198184030181529190526020810180516001600160e01b03166352e831dd60e01b17905280519091506063016001600160401b038111801561207557600080fd5b506040519080825280601f01601f1916602001820160405280156120a0576020820181803683370190505b507f3d3d606380380380913d393d73bebebebebebebebebebebebebebebebebebebe6020820152600160601b858102602d8301527f5af4602a57600080fd5b602d8060366000396000f3363d3d373d3d3d363d73be6041830152840260608201526e5af43d82803e903d91602b57fd5bf360881b6074820152915060005b8151811015610c315781818151811061213357fe5b602001015160f81c60f81b83826063018151811061214d57fe5b60200101906001600160f81b031916908160001a90535060010161211e565b3f90565b60608282604051602001612185929190613469565b604051602081830303815290604052905092915050565b606082826040516020016121859291906133d5565b6060806121c5836000015160a00151612699565b905061046283826126ac565b6000816040516020016121e4919061349d565b604051602081830303815290604052805190602001209050919050565b600081516041146122245760405162461bcd60e51b815260040161056890613743565b60208201516040830151606084015160001a7f7fffffffffffffffffffffffffffffff5d576e7357a4501ddfe92f46681b20a08211156122765760405162461bcd60e51b8152600401610568906138d5565b8060ff16601b1415801561228e57508060ff16601c14155b156122ab5760405162461bcd60e51b8152600401610568906139ef565b6000600187838686604051600081526020016040526040516122d09493929190613608565b6020604051602081039080840390855afa1580156122f2573d6000803e3d6000fd5b5050604051601f1901519150506001600160a01b0381166123255760405162461bcd60e51b815260040161056890613667565b9695505050505050565b60608061233f8360a00151612699565b905061046283826126e2565b60006104628261235a856118d0565b80519060200120612713565b8051516040908101516020808401518051908201519351606094610ef69493909101613453565b6000816001600160a01b03166313966db56040518163ffffffff1660e01b815260040160206040518083038186803b1580156123c857600080fd5b505afa1580156123dc573d6000803e3d6000fd5b505050506040513d601f19601f820116820180604052508101906124009190613229565b61ffff1692915050565b6040516350b9d97b60e11b81526000906001600160a01b0384169063a173b2f6906124399085906004016134ce565b602060405180830381600087803b15801561245357600080fd5b505af1158015612467573d6000803e3d6000fd5b505050506040513d601f19601f82011682018060405250810190610462919061324b565b600081848411156124af5760405162461bcd60e51b81526004016105689190613626565b505050900390565b606081604051602001610ef69190613e4c565b6001600160a01b039182166000908152600290930160205260409092208054919092166001600160a01b0319909116179055565b6001600160a01b039182166000908152600190930160205260409092208054919092166001600160a01b0319909116179055565b816001600160a01b0316836001600160a01b03167f9ae84ac2ad8f721c2e62d211eca0ae34951726f8834913af6c5ebb81610bb1f8836040516125759190613626565b60405180910390a3505050565b60006103d1670de0b6b3a76400006118a6846020015160200151606001518560400151611f9190919063ffffffff16565b60006103d1670de0b6b3a76400006118a6846020015160200151604001518560400151611f9190919063ffffffff16565b6000828201838110156104625760405162461bcd60e51b8152600401610568906137ee565b60606323b872dd60e01b84848460405160240161262893929190613579565b60408051601f198184030181529190526020810180516001600160e01b03166001600160e01b031990931692909217909152949350505050565b600081836126835760405162461bcd60e51b81526004016105689190613626565b50600083858161268f57fe5b0495945050505050565b606081604051602001610ef6919061359d565b815160208082015160408084015160608581015185890151608090970151935191966121859630969592939192918a910161336e565b606082600001518360200151846040015185606001518660800151866040516020016121859695949392919061330e565b600061046283833060008060ff60f81b83868660405160200161273994939291906133fc565b60408051808303601f1901815291905280516020909101206001600160a01b031695945050505050565b60408051808201909152600081526060602082015290565b60408051608081018252600080825260208201819052918101829052606081019190915290565b6040805160808101909152806000815260006020820152606060408201819052016127cb61277b565b905290565b604080518082019091526000808252602082015290565b61032a8061401d83390190565b604051806040016040528061280761284b565b81526020016127cb6128a0565b6040805160c0810182526000808252602082018190529181018290526060808201839052608082019290925260a081019190915290565b604051806060016040528061285e612814565b815260200161286b6128d5565b8152602001600081525090565b6040518060800160405280600081526020016000815260200160008152602001600081525090565b6040518060a0016040528060008019168152602001600081526020016000801916815260200160008152602001606081525090565b604051806040016040528060006001600160a01b031681526020016127cb612878565b80356103d181613fe3565b600082601f830112612913578081fd5b813561292661292182613f75565b613f4f565b81815291506020808301908481018184028601820187101561294757600080fd5b60005b8481101561296f57813561295d81614006565b8452928201929082019060010161294a565b505050505092915050565b600082601f83011261298a578081fd5b813561299861292182613f75565b818152915060208083019084810160005b8481101561296f5781358701604080601f19838c030112156129ca57600080fd5b6129d381613f4f565b6129df8b8785016128f8565b8152818301356001600160401b038111156129f957600080fd5b612a078c8883870101612c3d565b82880152508652505092820192908201906001016129a9565b600082601f830112612a30578081fd5b8135612a3e61292182613f75565b8181529150602080830190848101604080850287018301881015612a6157600080fd5b6000805b86811015612ab45782848b031215612a7b578182fd5b612a8483613f4f565b8435612a8f81613fe3565b815284860135612a9e81613fe3565b8187015286529484019492820192600101612a65565b5050505050505092915050565b600082601f830112612ad1578081fd5b8135612adf61292182613f75565b818152915060208083019084810160005b8481101561296f5781358701606080601f19838c03011215612b1157600080fd5b612b1a81613f4f565b612b268b878501612c8b565b81526040612b368c8286016128f8565b87830152828401356001600160401b03811115612b5257600080fd5b612b608d8983880101612903565b9183019190915250865250509282019290820190600101612af0565b600082601f830112612b8c578081fd5b8135612b9a61292182613f75565b8181529150602080830190848101608080850287018301881015612bbd57600080fd5b6000805b86811015612ab45782848b031215612bd7578182fd5b612be083613f4f565b612bea8b86612c32565b8152612bf88b8787016128f8565b868201526040612c0a8c8288016128f8565b908201526060612c1c8c8783016128f8565b9082015286529484019492820192600101612bc1565b80356103d181613ff8565b600082601f830112612c4d578081fd5b8135612c5b61292182613f94565b9150808252836020828501011115612c7257600080fd5b8060208401602084013760009082016020015292915050565b8035600381106103d157600080fd5b600060608284031215612cab578081fd5b612cb56060613f4f565b905081356001600160401b0380821115612cce57600080fd5b81840160c08187031215612ce157600080fd5b612ceb60c0613f4f565b9250612cf786826128f8565b8352612d0686602083016128f8565b60208401526040810135604084015260608101356060840152612d2c8660808301612c32565b608084015260a081013582811115612d4357600080fd5b612d4f8782840161297a565b60a08501525050818352602084013560208401526040840135915080821115612d7757600080fd5b50612d8484828501612c3d565b60408301525092915050565b600060a08284031215612da1578081fd5b612dab60a0613f4f565b90508135815260208201356020820152604082013560408201526060820135606082015260808201356001600160401b03811115612de857600080fd5b612df484828501612c3d565b60808301525092915050565b600060208284031215612e11578081fd5b813561046281613fe3565b600060208284031215612e2d578081fd5b815161046281613fe3565b60008060008060008060c08789031215612e50578182fd5b8635612e5b81613fe3565b95506020870135612e6b81613fe3565b94506040870135612e7b81613fe3565b959894975094956060810135955060808101359460a0909101359350915050565b60008060408385031215612eae578182fd5b8235612eb981613fe3565b91506020830135612ec981614006565b809150509250929050565b600060208284031215612ee5578081fd5b815161046281613ff8565b600060208284031215612f01578081fd5b5035919050565b600060208284031215612f19578081fd5b81356001600160401b03811115612f2e578182fd5b610ccd84828501612c3d565b60008060408385031215612f4c578182fd5b82356001600160401b0380821115612f62578384fd5b612f6e86838701612c3d565b93506020850135915080821115612f83578283fd5b50612f9085828601612c3d565b9150509250929050565b600080600060608486031215612fae578081fd5b83356001600160401b03811115612fc3578182fd5b612fcf86828701612c9a565b9660208601359650604090950135949350505050565b60006020808385031215612ff7578182fd5b82516001600160401b038082111561300d578384fd5b8185016040818803121561301f578485fd5b6130296040613f4f565b9250805161303681613ff8565b83528084015182811115613048578586fd5b019050601f81018613613059578384fd5b805161306761292182613f94565b818152878583850101111561307a578586fd5b61308982868301878601613fb7565b9383019390935250949350505050565b6000602082840312156130aa578081fd5b81356001600160401b03808211156130c0578283fd5b818401606081870312156130d2578384fd5b6130dc6060613f4f565b92508035828111156130ec578485fd5b6130f887828401612c9a565b84525060208101358281111561310c578485fd5b61311887828401612d90565b60208501525060408101358281111561312f578485fd5b61313b8782840161297a565b6040850152509195945050505050565b600080600080848603610100811215613162578283fd5b60a081121561316f578283fd5b5061317a60a0613f4f565b853561318581613fe3565b80825250602086013560208201526040860135604082015260608601356060820152608086013560808201528094505060a08501356001600160401b03808211156131ce578384fd5b6131da88838901612ac1565b945060c08701359150808211156131ef578384fd5b6131fb88838901612b7c565b935060e0870135915080821115613210578283fd5b5061321d87828801612a20565b91505092959194509250565b60006020828403121561323a578081fd5b815161ffff81168114610462578182fd5b60006020828403121561325c578081fd5b5051919050565b600060208284031215613274578081fd5b815160ff81168114610462578182fd5b600060018060a01b038251168352602082015160406020850152610ccd60408501825b600081518084526132bf816020860160208601613fb7565b601f01601f19169290920160200192915050565b60018060a01b038151168252602081015180516020840152602081015160408401526040810151606084015260608101516080840152505050565b60006bffffffffffffffffffffffff19808960601b168352808860601b1660148401525085602883015284604883015283151560f81b6068830152825161335c816069850160208701613fb7565b91909101606901979650505050505050565b60006bffffffffffffffffffffffff19808a60601b168352808960601b1660148401525086602883015285604883015284606883015283151560f81b608883015282516133c2816089850160208701613fb7565b9190910160890198975050505050505050565b60609290921b6001600160601b03191682526001600160e01b031916601482015260180190565b6001600160f81b031994909416845260609290921b6001600160601b03191660018401526015830152603582015260550190565b92835260609190911b6001600160601b0319166020830152603482015260540190565b9283526020830191909152604082015260600190565b9182526001600160e01b031916602082015260240190565b60008251613493818460208701613fb7565b9190910192915050565b7f19457468657265756d205369676e6564204d6573736167653a0a3332000000008152601c810191909152603c0190565b90815260200190565b6001600160a01b0391909116815260200190565b6001600160a01b03929092168252602082015260400190565b6001600160a01b039384168152919092166020820152901515604082015260600190565b600060018060a01b03808a16835280891660208401525086604083015285606083015284608083015260e060a083015261356560e08301856132a7565b90508260c083015298975050505050505050565b6001600160a01b039384168152919092166020820152604081019190915260600190565b6000602080830181845280855180835260408601915060408482028701019250838701855b828110156135f057603f198886030184526135de858351613284565b945092850192908501906001016135c2565b5092979650505050505050565b901515815260200190565b93845260ff9290921660208401526040830152606082015260800190565b60006020825261046260208301846132a7565b60006040825261364c60408301856132a7565b828103602084015261365e81856132a7565b95945050505050565b60208082526018908201527f45434453413a20696e76616c6964207369676e61747572650000000000000000604082015260600190565b60208082526022908201527f70726f78792068617320616c7265616479206265656e20696e697469616c697a604082015261195960f21b606082015260800190565b6020808252818101527f437265617465323a2062797465636f6465206c656e677468206973207a65726f604082015260600190565b6020808252601490820152731d1a5b595bdd5d081a5b9cdd59999a58da595b9d60621b604082015260600190565b6020808252601f908201527f45434453413a20696e76616c6964207369676e6174757265206c656e67746800604082015260600190565b60208082526026908201527f4f776e61626c653a206e6577206f776e657220697320746865207a65726f206160408201526564647265737360d01b606082015260800190565b6020808252601490820152731ad9595c195c881c185e5bdd5d0819985a5b195960621b604082015260600190565b6020808252601b908201527f536166654d6174683a206164646974696f6e206f766572666c6f770000000000604082015260600190565b6020808252602c908201527f737570706c696564206574686572206973206e6f7420657175616c20746f206760408201526b185cc81c995c5d595cdd195960a21b606082015260800190565b6020808252601a908201527f6661696c656420746f207265706179206c6f73742066756e6473000000000000604082015260600190565b6020808252601390820152727365747570207068617365206661696c75726560681b604082015260600190565b60208082526022908201527f45434453413a20696e76616c6964207369676e6174757265202773272076616c604082015261756560f01b606082015260800190565b60208082526024908201527f696e73756666696369656e742066756e647320696e206c6971756964697479206040820152631c1bdbdb60e21b606082015260800190565b6020808252601d908201527f6e6f742061207265676973746572656420626f72726f772070726f7879000000604082015260600190565b60208082526037908201527f6973206e6f742061206c6f616e20726571756573742c20747279207573696e6760408201527f2065786563757465536869667453616e73426f72726f77000000000000000000606082015260800190565b60208082526022908201527f45434453413a20696e76616c6964207369676e6174757265202776272076616c604082015261756560f01b606082015260800190565b60208082526019908201527f437265617465323a204661696c6564206f6e206465706c6f7900000000000000604082015260600190565b6020808252601f908201527f6661696c656420746f2072657475726e20626f6e6420746f206b656570657200604082015260600190565b60208082526021908201527f536166654d6174683a206d756c7469706c69636174696f6e206f766572666c6f6040820152607760f81b606082015260800190565b60208082526024908201527f6c69717569646974792072657175657374207369676e61747572652072656a6560408201526318dd195960e21b606082015260800190565b6020808252818101527f4f776e61626c653a2063616c6c6572206973206e6f7420746865206f776e6572604082015260600190565b60208082526029908201527f696e636f72726563742067617320737570706c696564207769746820676173206040820152681c995c5d595cdd195960ba1b606082015260800190565b602080825260169082015275189bdb99081cdd589b5a5cdcda5bdb8819985a5b195960521b604082015260600190565b6020808252600e908201526d18dc99585d194c8819985a5b195960921b604082015260600190565b60208082526045908201527f63616e2774207a6970206d6f64756c65207265676973746174696f6e733a206d60408201527f6f64756c65732e6c656e67746820213d206d6f64756c6544657461696c732e6c6060820152640cadccee8d60db1b608082015260a00190565b6020808252818101527f6e6f7420612072656769737465726564206c697175696469747920746f6b656e604082015260600190565b60208082526017908201527f6c6f616e207265736f6c7574696f6e206661696c757265000000000000000000604082015260600190565b60208082526021908201527f6661696c656420746f2072657061792074686520676f7665726e696e672044416040820152604f60f81b606082015260800190565b602080825260129082015271626f6e642062656c6f77206d696e696d756d60701b604082015260600190565b6020808252603e908201527f74686520746f6b656e20737570706c696564206973206e6f742061207368696660408201527f74657220746f6b656e202d2d20646563696d616c7320746f6f20686967680000606082015260800190565b6020808252601d908201527f437265617465323a20696e73756666696369656e742062616c616e6365000000604082015260600190565b6020808252601490820152736c6f616e2065786365656473206d6178696d756d60601b604082015260600190565b918252602082015260400190565b8151151581526020808301516001600160a01b0390811691830191909152604080840151821690830152606092830151169181019190915260800190565b6020808252825160e08383015280516001600160a01b039081166101008501528183015116610120840152604081015161014084015260608101516101608401526080810151151561018084015260a0015160c06101a08401528051600092916101c0850191829190613ebf81846134ce565b9350839250859181860284019086015b82841015613efb578482038652613ee7828251613284565b958701956001949094019391508601613ecf565b50858901519450613f0f60408901866132d3565b604089015160e089015280965050505050505092915050565b6000602082528251151560208301526020830151604080840152610ccd60608401826132a7565b6040518181016001600160401b0381118282101715613f6d57600080fd5b604052919050565b60006001600160401b03821115613f8a578081fd5b5060209081020190565b60006001600160401b03821115613fa9578081fd5b50601f01601f191660200190565b60005b83811015613fd2578181015183820152602001613fba565b838111156104cb5750506000910152565b6001600160a01b038116811461048357600080fd5b801515811461048357600080fd5b6001600160e01b03198116811461048357600080fdfe608060405234801561001057600080fd5b5061030a806100206000396000f3fe60806040526004361061001e5760003560e01c80638e03e6cd14610023575b600080fd5b6100366100313660046101d7565b610038565b005b6001600160a01b03811615610103576100de82826001600160a01b03166370a08231306040518263ffffffff1660e01b81526004016100779190610260565b60206040518083038186803b15801561008f57600080fd5b505afa1580156100a3573d6000803e3d6000fd5b505050506040513d601f19601f820116820180604052508101906100c7919061020f565b6001600160a01b038416919063ffffffff61010f16565b6101035760405162461bcd60e51b81526004016100fa9061028d565b60405180910390fd5b816001600160a01b0316ff5b600080846001600160a01b03166101268585610181565b6040516101339190610227565b6000604051808303816000865af19150503d8060008114610170576040519150601f19603f3d011682016040523d82523d6000602084013e610175565b606091505b50909695505050505050565b606063a9059cbb60e01b838360405160240161019e929190610274565b60408051601f198184030181529190526020810180516001600160e01b03166001600160e01b0319909316929092179091529392505050565b600080604083850312156101e9578182fd5b82356101f4816102bc565b91506020830135610204816102bc565b809150509250929050565b600060208284031215610220578081fd5b5051919050565b60008251815b81811015610247576020818601810151858301520161022d565b818111156102555782828501525b509190910192915050565b6001600160a01b0391909116815260200190565b6001600160a01b03929092168252602082015260400190565b602080825260159082015274657263323020666f7277617264206661696c75726560581b604082015260600190565b6001600160a01b03811681146102d157600080fd5b5056fea26469706673582212200f3b761d54a24eb3fcaf20aa57aa69c7bf2e84b6dc31df20eac7d7aca63dce5a64736f6c63430006080033a264697066735822122079d3807c5108062c79a9449364e8ffc8af1cda9e3af3c1e3d73971a48ce1c54e64736f6c63430006080033",
  "immutableReferences": {},
  "source": "pragma experimental ABIEncoderV2;\n// SPDX-License-Identifier: MIT\npragma solidity ^0.6.0;\n\nimport { Ownable } from \"@openzeppelin/contracts/access/Ownable.sol\";\nimport { IShifterRegistry } from \"./interfaces/IShifterRegistry.sol\";\nimport { IShifter } from \"./interfaces/IShifter.sol\";\nimport { ShifterPoolLib } from \"./ShifterPoolLib.sol\";\nimport { ShifterBorrowProxyLib } from \"./ShifterBorrowProxyLib.sol\";\nimport { ShifterBorrowProxyFactoryLib } from \"./ShifterBorrowProxyFactoryLib.sol\";\nimport { ShifterBorrowProxy } from \"./ShifterBorrowProxy.sol\";\nimport { BorrowProxy } from \"./BorrowProxy.sol\";\nimport { BorrowProxyLib } from \"./BorrowProxyLib.sol\";\nimport { TokenUtils } from \"./utils/TokenUtils.sol\";\nimport { ViewExecutor } from \"./utils/ViewExecutor.sol\";\nimport { LiquidityToken } from \"./LiquidityToken.sol\";\nimport { SandboxLib } from \"./utils/sandbox/SandboxLib.sol\";\nimport { SafeViewExecutor } from \"./utils/sandbox/SafeViewExecutor.sol\";\nimport { FactoryLib } from \"./FactoryLib.sol\";\nimport { NullCloneConstructor } from \"./NullCloneConstructor.sol\";\nimport { AssetForwarderLib } from \"./adapters/lib/AssetForwarderLib.sol\";\nimport { AssetForwarder } from \"./adapters/lib/AssetForwarder.sol\";\nimport { ERC20 } from \"@openzeppelin/contracts/token/ERC20/ERC20.sol\";\nimport { StringLib } from \"./utils/StringLib.sol\";\nimport { ExtLib } from \"./utils/ExtLib.sol\";\nimport { SafeMath } from \"@openzeppelin/contracts/math/SafeMath.sol\";\n\ncontract ShifterPool is Ownable, SafeViewExecutor, NullCloneConstructor {\n  using SandboxLib for *;\n  using SafeMath for *;\n  using ShifterPoolLib for *;\n  using TokenUtils for *;\n  using StringLib for *;\n  using ExtLib for *;\n  using ShifterBorrowProxyLib for *;\n  using ShifterBorrowProxyFactoryLib for *;\n  using BorrowProxyLib for *;\n  ShifterPoolLib.Isolate isolate;\n  constructor() Ownable() public {\n    isolate.genesis = block.number;\n  }\n  function setup(ShifterPoolLib.SetupParams memory params, BorrowProxyLib.ModuleDetails[] memory moduleDetails, BorrowProxyLib.Module[] memory modules, ShifterPoolLib.LiquidityTokenLaunch[] memory tokenLaunches) public onlyOwner {\n    require(modules.length == moduleDetails.length, \"can't zip module registations: modules.length != moduleDetails.length\");\n    isolate.shifterRegistry = params.shifterRegistry;\n    isolate.maxLoan = params.maxLoan;\n    isolate.minTimeout = params.minTimeout;\n    isolate.poolFee = params.poolFee;\n    isolate.daoFee = params.daoFee;\n    for (uint256 i = 0; i < modules.length; i++) {\n      BorrowProxyLib.ModuleRegistration memory registration = BorrowProxyLib.ModuleRegistration({\n        module: modules[i],\n        target: moduleDetails[i].target,\n        sigs: moduleDetails[i].sigs,\n        moduleType: moduleDetails[i].moduleType\n      });\n      isolate.registry.registryRegisterModule(registration);\n    }\n    for (uint256 i = 0; i < tokenLaunches.length; i++) {\n      ShifterPoolLib.LiquidityTokenLaunch memory launch = tokenLaunches[i];\n      isolate.tokenToLiquidityToken[launch.token] = launch.liqToken;\n    }\n  }\n  function getLiquidityTokenForTokenHandler(address token) public view returns (address) {\n    return isolate.tokenToLiquidityToken[token];\n  }\n  bytes32 constant BORROW_PROXY_IMPLEMENTATION_SALT = 0xfe1e3164ba4910db3c9afd049cd8feb4552390569c846692e6df4ac68aeaa90e;\n  function deployBorrowProxyImplementation() public {\n    isolate.borrowProxyImplementation = isolate.makeBorrowProxy(BORROW_PROXY_IMPLEMENTATION_SALT);\n  }\n  function deployAssetForwarderImplementation() public {\n    isolate.assetForwarderImplementation = AssetForwarderLib.deployAssetForwarder();\n  }\n\n  function deployAssetForwarderClone(bytes32 salt) public returns (address created) {\n\n    created = FactoryLib.create2Clone(isolate.assetForwarderImplementation, uint256(keccak256(abi.encodePacked(AssetForwarderLib.GET_ASSET_FORWARDER_IMPLEMENTATION_SALT(), msg.sender, salt))));\n\n  }\n  function getAssetForwarderImplementationHandler() public view returns (address implementation) {\n    return isolate.assetForwarderImplementation;\n  }\n  function deployBorrowProxyClone(bytes32 salt) internal returns (address payable created) {\n    created = address(uint160(FactoryLib.create2Clone(isolate.borrowProxyImplementation, uint256(salt))));\n  }\n  function validateUnderMaxLoan(ShifterBorrowProxyLib.LiquidityRequestParcel memory parcel) internal view returns (bool) {\n    uint8 decimals = ERC20(parcel.request.token).decimals();\n    require(decimals <= 18, \"the token supplied is not a shifter token -- decimals too high\");\n    require(parcel.request.amount / 10**(18 - uint256(decimals)) <= isolate.maxLoan, \"loan exceeds maximum\");\n  }\n  function _executeBorrow(ShifterBorrowProxyLib.LiquidityRequestParcel memory liquidityRequestParcel, uint256 bond, uint256 timeoutExpiry) internal returns (address payable proxyAddress) {\n    require(liquidityRequestParcel.request.forbidLoan == false, \"is not a loan request, try using executeShiftSansBorrow\");\n    require(\n      liquidityRequestParcel.gasRequested == msg.value,\n      \"supplied ether is not equal to gas requested\"\n  \n    );\n    require(\n      liquidityRequestParcel.validateSignature(\n        liquidityRequestParcel.computeLiquidityRequestHash()\n      ),\n      \"liquidity request signature rejected\"\n    );\n    ShifterBorrowProxyLib.LiquidityRequest memory liquidityRequest = liquidityRequestParcel.request;\n    bytes32 borrowerSalt = liquidityRequest.computeBorrowerSalt();\n    liquidityRequest.actions = new ShifterBorrowProxyLib.InitializationAction[](0);\n    ShifterBorrowProxyLib.ProxyRecord memory proxyRecord = ShifterBorrowProxyLib.ProxyRecord({\n      request: liquidityRequest,\n      loan: ShifterBorrowProxyLib.LenderRecord(\n        msg.sender,\n        isolate.computeLoanParams(liquidityRequest.amount, bond, timeoutExpiry)\n      ),\n      expected: liquidityRequest.amount.computeExpectedAmount(address(isolate.getShifter(liquidityRequest.token)), liquidityRequest.token).sub(35e3)\n    });\n    proxyAddress = address(uint160(deployBorrowProxyClone(borrowerSalt)));\n    ShifterPoolLib.mapBorrowProxy(isolate, proxyAddress, proxyRecord);\n    isolate.issueLoan(liquidityRequest.token, proxyAddress, proxyRecord.computePostFee());\n    require(liquidityRequest.token.transferTokenFrom(msg.sender, address(this), bond), \"bond submission failed\");\n  }\n  function executeBorrow(ShifterBorrowProxyLib.LiquidityRequestParcel memory liquidityRequestParcel, uint256 bond, uint256 timeoutExpiry) public payable {\n    ShifterBorrowProxyLib.InitializationAction[] memory actions = liquidityRequestParcel.request.actions;\n    validateUnderMaxLoan(liquidityRequestParcel);\n    address payable proxyAddress = _executeBorrow(liquidityRequestParcel, bond, timeoutExpiry);\n    proxyAddress.setupBorrowProxy(liquidityRequestParcel.request.borrower, liquidityRequestParcel.request.token, false);\n    proxyAddress.sendInitializationActions(actions);\n  }\n  function executeShiftSansBorrow(ShifterBorrowProxyLib.SansBorrowShiftParcel memory parcel) public payable {\n    (address payable proxyAddress, ShifterBorrowProxyLib.InitializationAction[] memory actions) = _executeShiftSansBorrow(parcel);\n    if (actions.length != 0) proxyAddress.sendInitializationActions(actions);\n  }\n  function _executeShiftSansBorrow(ShifterBorrowProxyLib.SansBorrowShiftParcel memory parcel) internal returns (address payable proxyAddress, ShifterBorrowProxyLib.InitializationAction[] memory actions) {\n    ShifterBorrowProxyLib.TriggerParcel memory triggerParcel = ShifterBorrowProxyLib.TriggerParcel({\n      record: ShifterBorrowProxyLib.ProxyRecord({\n        expected: parcel.liquidityRequestParcel.request.amount,\n        request: parcel.liquidityRequestParcel.request,\n        loan: ShifterBorrowProxyLib.LenderRecord({\n          keeper: msg.sender,\n          params: isolate.computeLoanParams(parcel.liquidityRequestParcel.request.amount, parcel.liquidityRequestParcel.request.amount / 10, 1000)\n        })\n      }),\n      shiftParameters: ShifterBorrowProxyLib.ShiftParameters({\n        txhash: parcel.shiftParameters.txhash,\n        amount: parcel.shiftParameters.amount,\n        vout: parcel.shiftParameters.vout,\n        pHash: parcel.shiftParameters.pHash,\n        darknodeSignature: parcel.shiftParameters.darknodeSignature\n      })\n    });\n    require(\n      parcel.liquidityRequestParcel.validateSignature(\n        parcel.liquidityRequestParcel.computeLiquidityRequestHash()\n      ),\n      \"liquidity request signature rejected\"\n    );\n    bytes32 borrowerSalt = parcel.liquidityRequestParcel.request.computeBorrowerSalt();\n    proxyAddress = address(uint160(isolate.borrowProxyImplementation.deriveBorrowerAddress(borrowerSalt)));\n    require(!proxyAddress.isContract(), \"proxy has already been initialized\");\n    isolate.borrowProxyController.mapProxyRecord(proxyAddress, abi.encodePacked(uint256(1)));\n    uint256 fee = triggerParcel.record.computeAdjustedKeeperFee(parcel.shiftParameters.amount);\n    deployBorrowProxyClone(borrowerSalt);\n    proxyAddress.setupBorrowProxy(parcel.liquidityRequestParcel.request.borrower, parcel.liquidityRequestParcel.request.token, true);\n    if (parcel.liquidityRequestParcel.request.borrower != msg.sender && msg.value == parcel.liquidityRequestParcel.gasRequested) {\n      parcel.liquidityRequestParcel.request.borrower.transfer(msg.value);\n      ShifterPoolLib.sendMint(proxyAddress, address(isolate.getShifter(parcel.liquidityRequestParcel.request.token)), parcel.liquidityRequestParcel.request.token, parcel.shiftParameters.pHash, parcel.shiftParameters.amount, triggerParcel.computeNHash(), parcel.shiftParameters.darknodeSignature, fee);\n      require(parcel.liquidityRequestParcel.request.token.sendToken(msg.sender, fee), \"keeper payout failed\");\n      actions = parcel.liquidityRequestParcel.request.actions;\n    } else if (parcel.liquidityRequestParcel.request.borrower == msg.sender) {\n      ShifterPoolLib.sendMint(proxyAddress, address(isolate.getShifter(parcel.liquidityRequestParcel.request.token)), parcel.liquidityRequestParcel.request.token, parcel.shiftParameters.pHash, parcel.shiftParameters.amount, triggerParcel.computeNHash(), parcel.shiftParameters.darknodeSignature, 0);\n      actions = parcel.actions;\n    }\n    else revert(\"incorrect gas supplied with gas requested\");\n  }\n  function validateProxyRecordHandler(bytes memory proxyRecord) public view returns (bool) {\n    return isolate.borrowProxyController.validateProxyRecord(msg.sender, proxyRecord);\n  }\n  function getProxyTokenHandler(address proxyAddress) public view returns (address) {\n    return isolate.borrowProxyController.getProxyToken(proxyAddress);\n  }\n  function getProxyOwnerHandler(address user) public view returns (address) {\n    return isolate.borrowProxyController.getProxyOwner(user);\n  }\n  function getShifterHandler(address token) public view returns (IShifter) {\n    return isolate.getShifter(token);\n  }\n  function getLiquidityTokenHandler(address token) public view returns (LiquidityToken) {\n    return LiquidityToken(isolate.getLiquidityToken(token));\n  }\n  function fetchModuleHandler(address to, bytes4 sig) public view returns (BorrowProxyLib.Module memory) {\n    return isolate.registry.resolveModule(to, sig);\n  }\n  function relayResolveLoan(address token, address liquidityToken, address keeper, uint256 bond, uint256 repay, uint256 originalAmount) public returns (bool) {\n    require(isolate.borrowProxyController.proxyInitializerRecord[msg.sender] != bytes32(0x0), \"not a registered borrow proxy\");\n    if (repay < originalAmount) {\n      if (repay + bond < originalAmount) {\n        repay = repay + bond;\n        bond = 0;\n      } else {\n        bond -= originalAmount - repay;\n        repay = originalAmount;\n      }\n    }\n    if (bond != 0) require(token.sendToken(keeper, bond), \"failed to return bond to keeper\");\n    if (repay != 0) {\n       (uint256 amount, uint256 daoAmount) = ShifterPoolLib.splitForDAO(repay, isolate.daoFee);\n       require(token.sendToken(liquidityToken, amount), \"failed to repay lost funds\");\n       require(token.sendToken(owner(), daoAmount), \"failed to repay the governing DAO\");\n    }\n    require(LiquidityToken(liquidityToken).resolveLoan(msg.sender), \"loan resolution failure\");\n    return true;\n  }\n}\n",
  "sourcePath": "/home/ray/0confirmation/packages/0confirmation-sol/contracts/ShifterPool.sol",
  "compiler": {
    "name": "solc",
    "version": "0.6.8+commit.0bbfe453.Emscripten.clang"
  },
  "schemaVersion": "3.2.0",
  "updatedAt": "2020-06-18T22:30:02.786Z",
  "networkType": "ethereum",
  "devdoc": {
    "methods": {
      "owner()": {
        "details": "Returns the address of the current owner."
      },
      "renounceOwnership()": {
        "details": "Leaves the contract without owner. It will not be possible to call `onlyOwner` functions anymore. Can only be called by the current owner.     * NOTE: Renouncing ownership will leave the contract without an owner, thereby removing any functionality that is only available to the owner."
      },
      "transferOwnership(address)": {
        "details": "Transfers ownership of the contract to a new account (`newOwner`). Can only be called by the current owner."
      }
    }
  },
  "userdoc": {
    "methods": {}
  }
}