{
  "contractName": "ShifterBorrowProxy",
  "abi": [
    {
      "inputs": [],
      "stateMutability": "nonpayable",
      "type": "constructor"
    },
    {
      "stateMutability": "payable",
      "type": "fallback"
    },
    {
      "inputs": [
        {
          "internalType": "bytes",
          "name": "creationCode",
          "type": "bytes"
        },
        {
          "internalType": "bytes",
          "name": "context",
          "type": "bytes"
        }
      ],
      "name": "_executeSafeView",
      "outputs": [],
      "stateMutability": "nonpayable",
      "type": "function"
    },
    {
      "inputs": [
        {
          "internalType": "bytes",
          "name": "consData",
          "type": "bytes"
        }
      ],
      "name": "cloneConstructor",
      "outputs": [],
      "stateMutability": "nonpayable",
      "type": "function"
    },
    {
      "inputs": [
        {
          "internalType": "address",
          "name": "to",
          "type": "address"
        },
        {
          "internalType": "uint256",
          "name": "value",
          "type": "uint256"
        },
        {
          "internalType": "bytes",
          "name": "payload",
          "type": "bytes"
        }
      ],
      "name": "proxy",
      "outputs": [],
      "stateMutability": "nonpayable",
      "type": "function"
    },
    {
      "inputs": [
        {
          "internalType": "bytes",
          "name": "creationCode",
          "type": "bytes"
        },
        {
          "internalType": "bytes",
          "name": "context",
          "type": "bytes"
        }
      ],
      "name": "query",
      "outputs": [
        {
          "components": [
            {
              "internalType": "bool",
              "name": "success",
              "type": "bool"
            },
            {
              "internalType": "bytes",
              "name": "data",
              "type": "bytes"
            }
          ],
          "internalType": "struct SafeViewLib.SafeViewResult",
          "name": "",
          "type": "tuple"
        }
      ],
      "stateMutability": "nonpayable",
      "type": "function"
    },
    {
      "inputs": [
        {
          "internalType": "address",
          "name": "owner",
          "type": "address"
        },
        {
          "internalType": "address",
          "name": "token",
          "type": "address"
        },
        {
          "internalType": "bool",
          "name": "unbound",
          "type": "bool"
        }
      ],
      "name": "setup",
      "outputs": [
        {
          "internalType": "bool",
          "name": "",
          "type": "bool"
        }
      ],
      "stateMutability": "nonpayable",
      "type": "function"
    },
    {
      "stateMutability": "payable",
      "type": "receive"
    },
    {
      "inputs": [
        {
          "internalType": "bytes",
          "name": "data",
          "type": "bytes"
        }
      ],
      "name": "repayLoan",
      "outputs": [
        {
          "internalType": "bool",
          "name": "",
          "type": "bool"
        }
      ],
      "stateMutability": "nonpayable",
      "type": "function"
    },
    {
      "inputs": [
        {
          "internalType": "bytes",
          "name": "data",
          "type": "bytes"
        }
      ],
      "name": "defaultLoan",
      "outputs": [
        {
          "internalType": "bool",
          "name": "",
          "type": "bool"
        }
      ],
      "stateMutability": "nonpayable",
      "type": "function"
    },
    {
      "inputs": [
        {
          "components": [
            {
              "internalType": "address",
              "name": "to",
              "type": "address"
            },
            {
              "internalType": "bytes",
              "name": "txData",
              "type": "bytes"
            }
          ],
          "internalType": "struct ShifterBorrowProxyLib.InitializationAction[]",
          "name": "actions",
          "type": "tuple[]"
        }
      ],
      "name": "receiveInitializationActions",
      "outputs": [],
      "stateMutability": "nonpayable",
      "type": "function"
    }
  ],
  "bytecode": "0x608060405234801561001057600080fd5b5061324e806100206000396000f3fe60806040526004361061007f5760003560e01c806356b8e1461161004e57806356b8e1461461012b5780635f7d2b571461014b5780635fe759581461016b578063c4ddf3631461018b57610086565b80632692f25a1461008857806329c8702d146100a857806334686eaf146100de57806352e831dd1461010b57610086565b3661008657005b005b34801561009457600080fd5b506100866100a33660046124d3565b6101ab565b3480156100b457600080fd5b506100c86100c3366004612489565b6103d1565b6040516100d59190612b2a565b60405180910390f35b3480156100ea57600080fd5b506100fe6100f936600461267b565b610455565b6040516100d591906130fb565b34801561011757600080fd5b50610086610126366004612649565b610476565b34801561013757600080fd5b506100c8610146366004612649565b610479565b34801561015757600080fd5b5061008661016636600461267b565b61082d565b34801561017757600080fd5b50610086610186366004612529565b610878565b34801561019757600080fd5b506100c86101a6366004612649565b6108af565b6001546001600160a01b03163314806101ce57506000546001600160a01b031633145b806101d857503330145b6101fd5760405162461bcd60e51b81526004016101f490612d23565b60405180910390fd5b60006102196102148383600463ffffffff610d8316565b610dac565b60e01b9050610226612013565b6102386000868463ffffffff610dc916565b6002546001600160a01b03166020820152600054909150600160a01b900460ff1680156102685750604081015151155b1561030b5760006060866001600160a01b0316868660405161028a9190612a5d565b60006040518083038185875af1925050503d80600081146102c7576040519150601f19603f3d011682016040523d82523d6000602084013e6102cc565b606091505b5091509150816102f8576102df81610e7c565b60405162461bcd60e51b81526004016101f49190612b64565b6103028282610f6f565b505050506103cc565b6103188160400151610f84565b6103345760405162461bcd60e51b81526004016101f490612c5a565b6000606061034983868863ffffffff610f9616565b915091508161035b576102df81610e7c565b60408084015101516001600160a01b03161561038b57604080840151015161038b9060079063ffffffff6110a616565b6040830151606001516001600160a01b0316156103bd576040830151606001516103bd9060099063ffffffff6110a616565b6103c78282610f6f565b505050505b505050565b6001546000906001600160a01b0316156103fd5760405162461bcd60e51b81526004016101f490612bd1565b5060008054600180546001600160a01b039687166001600160a01b0319918216178255931515600160a01b0260ff60a01b19928516331792909216919091179091556002805493909416929091169190911790915590565b61045d612037565b61046d838363ffffffff61110116565b90505b92915050565b50565b60065460009060ff161561049f5760405162461bcd60e51b81526004016101f490612c2f565b600054600160a01b900460ff16156104c95760405162461bcd60e51b81526004016101f490612da3565b6104d282611172565b6104ee5760405162461bcd60e51b81526004016101f490612cc0565b6104f661204f565b6104ff836111f5565b600880546040805160208084028201810190925282815293945060609392919083018282801561055857602002820191906000526020600020905b81546001600160a01b0316815260019091019060200180831161053a575b50505050509050438260200151602001516000015110610821576006805461ff0019166101001790556004545b81518110156105dd576207a1205a10806105c157506105bf8282815181106105a957fe5b60200260200101516001600160a01b0316611211565b155b156105d55760045550600091506108289050565b600101610585565b5080516004908155600080548451602001516040516370a0823160e01b81526001600160a01b039283169491909216916370a082319161061f91309101612a79565b60206040518083038186803b15801561063757600080fd5b505afa15801561064b573d6000803e3d6000fd5b505050506040513d601f19601f8201168201806040525081019061066f919061291e565b845160200151909150610692906001600160a01b0316838363ffffffff61129216565b6106ae5760405162461bcd60e51b81526004016101f490612ec2565b60208085015181015101518451606001518210156106e85784516060015182038111156106e457845160600151820390036106e8565b5060005b8451602001516040516303cc556d60e51b8152828403916001600160a01b0386169163801874ec9190839063798aada090610727908490600401612a79565b60206040518083038186803b15801561073f57600080fd5b505afa158015610753573d6000803e3d6000fd5b505050506040513d601f19601f8201168201806040525081019061077791906126db565b60208a0151516040516001600160e01b031960e086901b1681526107a49392919088908890600401612a8d565b602060405180830381600087803b1580156107be57600080fd5b505af11580156107d2573d6000803e3d6000fd5b505050506040513d601f19601f820116820180604052508101906107f6919061262d565b6108125760405162461bcd60e51b81526004016101f490612e8b565b60019650505050505050610828565b6000925050505b919050565b6000610842600061083c611304565b85611328565b905060606108676108626001600160a01b0384168563ffffffff61139a16565b611424565b90506108728161144d565b50505050565b6000546001600160a01b031633146108a25760405162461bcd60e51b81526004016101f490612cee565b6108ab81611455565b5050565b60006108b961206f565b6108c2836116df565b604080516000808252602082019092529192506108f5565b6108e2612037565b8152602001906001900390816108da5790505b5081515160a0015280516109119061090c906116fb565b611172565b61092d5760405162461bcd60e51b81526004016101f490612cc0565b600654610100900460ff16156109555760405162461bcd60e51b81526004016101f490612e54565b805180516060015160009161096f9163ffffffff61170e16565b60008054845151602001516040516303cc556d60e51b815293945091926001600160a01b039091169163798aada0916109ab9190600401612a79565b60206040518083038186803b1580156109c357600080fd5b505afa1580156109d7573d6000803e3d6000fd5b505050506040513d601f19601f820116820180604052508101906109fb91906126db565b60065490915060009060ff16610b90576006805460ff19166001179055600054845151602001516040516307ef1e3760e21b81526001600160a01b0390921691631fbc78dc91610a4d91600401612a79565b60206040518083038186803b158015610a6557600080fd5b505afa158015610a79573d6000803e3d6000fd5b505050506040513d601f19601f82011682018060405250810190610a9d91906126db565b6001600160a01b031663159ab14d85602001516040015186600001516000015160600151610aca88611747565b8860200151606001516040518563ffffffff1660e01b8152600401610af29493929190612b35565b602060405180830381600087803b158015610b0c57600080fd5b505af1158015610b20573d6000803e3d6000fd5b505050506040513d601f19601f82011682018060405250810190610b44919061291e565b600381905584515160200151909150610b6f906001600160a01b03168385840363ffffffff61129216565b610b8b5760405162461bcd60e51b81526004016101f490612c91565b610b95565b506003545b600a80546040805160208084028201810190925282815260609390929091830182828015610bec57602002820191906000526020600020905b81546001600160a01b03168152600190910190602001808311610bce575b50506005549394505050505b8151811015610c53576207a1205a1080610c345750610c32828281518110610c1c57fe5b60200260200101516001600160a01b0316611760565b155b15610c4b5760055550600094506108289350505050565b600101610bf8565b506000805460ff60a01b1916600160a01b17905584516020808201515191510151610c90916001600160a01b03909116908663ffffffff61129216565b610cac5760405162461bcd60e51b81526004016101f490612c01565b600080548651805160209081015191810151805190820151909101516040516320061d3b60e21b81526001600160a01b039094169463801874ec94610cfa94938a9390929091600401612a8d565b602060405180830381600087803b158015610d1457600080fd5b505af1158015610d28573d6000803e3d6000fd5b505050506040513d601f19601f82011682018060405250810190610d4c919061262d565b610d685760405162461bcd60e51b81526004016101f490612e11565b8451805151610d7691611778565b5060019695505050505050565b610d8b61208f565b610d9584846117bd565b815260208101919091526040810191909152919050565b8051602082015160009190610dc182826117c4565b949350505050565b610dd1612013565b604080516060810182526001600160a01b03808616825260028701548116602083015286548351630220891b60e51b81529293840192911690634411236090610e209088908890600401612ac1565b608060405180830381600087803b158015610e3a57600080fd5b505af1158015610e4e573d6000803e3d6000fd5b505050506040513d601f19601f82011682018060405250810190610e729190612729565b9052949350505050565b6060815160001415610ec2575060408051808201909152601c81527f636170747572656420656d7074792072657665727420627566666572000000006020820152610828565b6308c379a0610ed76102148460006004610d83565b63ffffffff1614610f02576040518060600160405280603f81526020016131da603f91399050610828565b6060610f1d610f1884600463ffffffff6117e116565b611805565b9050805160001415610f6457505060408051808201909152601d81527f636170747572656420656d70747920726576657274206d6573736167650000006020820152610828565b6060610dc182611874565b81610f7c57805181602001fd5b805181602001f35b602001516001600160a01b0316151590565b60006060600060608660400151602001516001600160a01b03165a6110496040518061010001604052808b60400151602001516001600160a01b031681526020018b60400151604001516001600160a01b031681526020018b60400151606001516001600160a01b031681526020018b602001516001600160a01b03168152602001326001600160a01b031681526020018b600001516001600160a01b031681526020018981526020018a81525061188a565b6040516110569190612a5d565b6000604051808303818686f4925050503d8060008114611092576040519150601f19603f3d011682016040523d82523d6000602084013e611097565b606091505b50909890975095505050505050565b6001600160a01b03811660009081526020839052604090205460ff16156110cc576108ab565b6001808301805491820181556000908152602090200180546001600160a01b0383166001600160a01b03199091161790555050565b611109612037565b60603061111685856118dd565b6040516111239190612a5d565b6000604051808303816000865af19150503d8060008114611160576040519150601f19603f3d011682016040523d82523d6000602084013e611165565b606091505b50915050610dc181611933565b600080546040516308f6049560e01b81526001600160a01b03909116906308f60495906111a3908590600401612b64565b602060405180830381600087803b1580156111bd57600080fd5b505af11580156111d1573d6000803e3d6000fd5b505050506040513d601f19601f82011682018060405250810190610470919061262d565b6111fd61204f565b818060200190518101906104709190612791565b6000806060836001600160a01b03166112298561194f565b6040516112369190612a5d565b600060405180830381855af49150503d8060008114611271576040519150601f19603f3d011682016040523d82523d6000602084013e611276565b606091505b509150915081611289576102df81610e7c565b610dc181611992565b600080846001600160a01b03166112a985856119a8565b6040516112b69190612a5d565b6000604051808303816000865af19150503d80600081146112f3576040519150601f19603f3d011682016040523d82523d6000602084013e6112f8565b606091505b50909695505050505050565b7fad53495153c7c363e98a26920ec679e0e687636458f6908c91cf6deadb19080190565b6000808447101561134b5760405162461bcd60e51b81526004016101f490612f0c565b82516113695760405162461bcd60e51b81526004016101f490612b9c565b8383516020850187f590506001600160a01b038116610dc15760405162461bcd60e51b81526004016101f490612d6c565b6113a2612037565b60006060846001600160a01b03166113b9856119c5565b6040516113c69190612a5d565b600060405180830381855af49150503d8060008114611401576040519150601f19603f3d011682016040523d82523d6000602084013e611406565b606091505b50604080518082019091529115158252602082015295945050505050565b60608160405160200161143791906130fb565b6040516020818303038152906040529050919050565b805160208201fd5b606061145f612037565b611468836119e0565b905060005b83518110156116ca5760608260200151828151811061148857fe5b6020026020010151905060006001600160a01b0316816000815181106114aa57fe5b6020026020010151600001516001600160a01b031614156115cf576114e6816000815181106114d557fe5b602002602001015160200151611b48565b6001600160a01b031683526114f9612037565b61151c8260008151811061150957fe5b6020026020010151602001518486611b7e565b60408051600080825260208201909252919250508260008151811061153d57fe5b602090810291909101810151015280511561157d5761156d8460200151846115688460200151611c0b565b611c21565b6115785750506116ca565b6115cd565b80602001518260008151811061158f57fe5b6020026020010151606001819052508060000151826000815181106115b057fe5b6020026020010151604001901515908115158152505050506116c2565b505b826020015182815181106115df57fe5b6020026020010151905060008090505b81518110156116bf5760006060306001600160a01b031661162285858151811061161557fe5b6020026020010151611d20565b60405161162f9190612a5d565b6000604051808303816000865af19150503d806000811461166c576040519150601f19603f3d011682016040523d82523d6000602084013e611671565b606091505b50915091508184848151811061168357fe5b60200260200101516040019015159081151581525050808484815181106116a657fe5b60209081029190910101516060015250506001016115ef565b50505b60010161146d565b506116d88160200151611d46565b9392505050565b6116e761206f565b818060200190518101906104709190612842565b6060816040516020016114379190613053565b600061046d670de0b6b3a764000061173b8560200151602001516060015185611e4a90919063ffffffff16565b9063ffffffff611e8416565b600061175282611ec6565b805190602001209050919050565b6000806060836001600160a01b031661122985611eed565b816001600160a01b03167fde947e8b6051ad11f984637f1fd1be5fc4b62225fcbf933475f7783ac5e2bd5f826040516117b19190613053565b60405180910390a25050565b0160200190565b6000600180600884021b0380836020038503511691505092915050565b6117e961208f565b81835110156117f757825191505b61046d838384865103610d83565b6020810151606090806001600160401b038111801561182357600080fd5b506040519080825280601f01601f19166020018201604052801561184e576020820181803683370190505b508351909250600061185f84611f30565b905061186c818385611f36565b505050919050565b60608180602001905181019061047091906126f7565b6060633c52e5a160e01b826040516024016118a59190612f43565b60408051601f198184030181529190526020810180516001600160e01b03166001600160e01b03199093169290921790915292915050565b6060635f7d2b5760e01b83836040516024016118fa929190612b77565b60408051601f198184030181529190526020810180516001600160e01b03166001600160e01b0319909316929092179091529392505050565b61193b612037565b8180602001905181019061047091906127c3565b6060816040516024016119629190612a79565b60408051601f198184030181529190526020810180516001600160e01b03166305f0caad60e31b17905292915050565b600081806020019051810190610470919061262d565b606063a9059cbb60e01b83836040516024016118fa929190612b11565b60606309c5eabe60e01b826040516024016118a59190612b64565b6119e8612037565b606082516001600160401b0381118015611a0157600080fd5b50604051908082528060200260200182016040528015611a3557816020015b6060815260200190600190039081611a205790505b50905060005b8351811015611b2b5760408051600180825281830190925290816020015b611a616120b0565b815260200190600190039081611a5957905050828281518110611a8057fe5b6020026020010181905250838181518110611a9757fe5b602002602001015160000151828281518110611aaf57fe5b6020026020010151600081518110611ac357fe5b60209081029190910101516001600160a01b0390911690528351849082908110611ae957fe5b602002602001015160200151828281518110611b0157fe5b6020026020010151600081518110611b1557fe5b6020908102919091018101510152600101611a3b565b506040805180820190915260008152602081019190915292915050565b60006104707fad53495153c7c363e98a26920ec679e0e687636458f6908c91cf6deadb19080160001b8380519060200120611f74565b611b86612037565b611b8e6120d6565b82516001600160a01b031660208201528315611be957606083602001518581518110611bb657fe5b602002602001015190508051600014611be75780600182510381518110611bd957fe5b602090810291909101015182525b505b611c02611bf582611f81565b869063ffffffff61110116565b95945050505050565b60608180602001905181019061047091906125fb565b6000606082516001600160401b0381118015611c3c57600080fd5b50604051908082528060200260200182016040528015611c7657816020015b611c636120b0565b815260200190600190039081611c5b5790505b50905060005b8151811015611cfc57838181518110611c9157fe5b602002602001015160200151828281518110611ca957fe5b602002602001015160200181905250838181518110611cc457fe5b602002602001015160000151828281518110611cdc57fe5b60209081029190910101516001600160a01b039091169052600101611c7c565b5080858581518110611d0a57fe5b6020908102919091010152511515949350505050565b80516020820151604051606092631349792d60e11b926118a59260009190602401612ae4565b60606000805b8351811015611d7b57838181518110611d6157fe5b602002602001015151820191508080600101915050611d4c565b50806001600160401b0381118015611d9257600080fd5b50604051908082528060200260200182016040528015611dcc57816020015b611db96120b0565b815260200190600190039081611db15790505b5091506000805b845181101561186c5760005b858281518110611deb57fe5b602002602001015151811015611e4157858281518110611e0757fe5b60200260200101518181518110611e1a57fe5b6020026020010151858481518110611e2e57fe5b6020908102919091010152600101611ddf565b50600101611dd3565b600082611e5957506000610470565b82820282848281611e6657fe5b041461046d5760405162461bcd60e51b81526004016101f490612dd0565b600061046d83836040518060400160405280601a81526020017f536166654d6174683a206469766973696f6e206279207a65726f000000000000815250611f94565b80515160409081015160208084015180519082015193516060946114379493909101612a47565b606081604051602401611f009190612a79565b60408051601f198184030181529190526020810180516001600160e01b0316639f7c73e960e01b17905292915050565b60200190565b5b60208110611f56578151835260209283019290910190601f1901611f37565b600180600883602003021b0380845116811984511617845250505050565b600061046d838330611fcb565b6060816040516020016114379190612fd8565b60008183611fb55760405162461bcd60e51b81526004016101f49190612b64565b506000838581611fc157fe5b0495945050505050565b60008060ff60f81b838686604051602001611fe99493929190612a0e565b60408051808303601f1901815291905280516020909101206001600160a01b031695945050505050565b60408051606081018252600080825260208201529081016120326120f6565b905290565b60408051808201909152600081526060602082015290565b604051806040016040528061206261211d565b8152602001612032612154565b604051806040016040528061208261204f565b8152602001612032612177565b60405180606001604052806000815260200160008152602001600081525090565b604080516080810182526000808252606060208301819052928201528181019190915290565b60405180604001604052806120e96120b0565b8152600060209091015290565b60408051608081018252600080825260208201819052918101829052606081019190915290565b6040805160c0810182526000808252602082018190529181018290526060808201839052608082019290925260a081019190915290565b604051806040016040528060006001600160a01b0316815260200161203261219d565b604080516080810182526000808252602082018190529181019190915260608082015290565b6040518060800160405280600081526020016000815260200160008152602001600081525090565b8035610470816131b6565b8051610470816131b6565b600082601f8301126121eb578081fd5b81516121fe6121f982613148565b613122565b818152915060208083019084810160005b848110156122875781518701604080601f19838c0301121561223057600080fd5b61223981613122565b85830151612246816131b6565b8152828201516001600160401b0381111561226057600080fd5b61226e8c88838701016122eb565b828801525086525050928201929082019060010161220f565b505050505092915050565b8051610470816131cb565b600082601f8301126122ad578081fd5b81356122bb6121f982613167565b91508082528360208285010111156122d257600080fd5b8060208401602084013760009082016020015292915050565b600082601f8301126122fb578081fd5b81516123096121f982613167565b915080825283602082850101111561232057600080fd5b61233181602084016020860161318a565b5092915050565b600081830360a081121561234a578182fd5b6123546040613122565b91508251612361816131b6565b82526080601f198201121561237557600080fd5b506123806080613122565b602083015181526040830151602082015260608301516040820152608083015160608201528060208301525092915050565b600060c082840312156123c3578081fd5b6123cd6040613122565b905081516001600160401b03808211156123e657600080fd5b81840160c081870312156123f957600080fd5b61240360c0613122565b925061240f86826121d0565b835261241e86602083016121d0565b602084015260408101516040840152606081015160608401526124448660808301612292565b608084015260a08101518281111561245b57600080fd5b612467878284016121db565b60a0850152505050815261247e8360208401612338565b602082015292915050565b60008060006060848603121561249d578283fd5b83356124a8816131b6565b925060208401356124b8816131b6565b915060408401356124c8816131cb565b809150509250925092565b6000806000606084860312156124e7578081fd5b83356124f2816131b6565b92506020840135915060408401356001600160401b03811115612513578182fd5b61251f8682870161229d565b9150509250925092565b6000602080838503121561253b578182fd5b82356001600160401b0380821115612551578384fd5b81850186601f820112612562578485fd5b803592506125726121f984613148565b83815284810190828601875b868110156125ec5781358501604080601f19838f0301121561259e578a8bfd5b6125a781613122565b6125b38e8c85016121c5565b815281830135898111156125c5578c8dfd5b6125d38f8d8387010161229d565b828d01525086525050928701929087019060010161257e565b50909998505050505050505050565b60006020828403121561260c578081fd5b81516001600160401b03811115612621578182fd5b610dc1848285016121db565b60006020828403121561263e578081fd5b815161046d816131cb565b60006020828403121561265a578081fd5b81356001600160401b0381111561266f578182fd5b610dc18482850161229d565b6000806040838503121561268d578182fd5b82356001600160401b03808211156126a3578384fd5b6126af8683870161229d565b935060208501359150808211156126c4578283fd5b506126d18582860161229d565b9150509250929050565b6000602082840312156126ec578081fd5b815161046d816131b6565b600060208284031215612708578081fd5b81516001600160401b0381111561271d578182fd5b610dc1848285016122eb565b60006080828403121561273a578081fd5b6127446080613122565b825161274f816131cb565b8152602083015161275f816131b6565b60208201526040830151612772816131b6565b60408201526060830151612785816131b6565b60608201529392505050565b6000602082840312156127a2578081fd5b81516001600160401b038111156127b7578182fd5b610dc1848285016123b2565b6000602082840312156127d4578081fd5b81516001600160401b03808211156127ea578283fd5b818401604081870312156127fc578384fd5b6128066040613122565b92508051612813816131cb565b8352602081015182811115612826578485fd5b612832878284016122eb565b6020850152509195945050505050565b600060208284031215612853578081fd5b81516001600160401b0380821115612869578283fd5b8184016040818703121561287b578384fd5b6128856040613122565b9250805182811115612895578485fd5b6128a1878284016123b2565b8452506020810151828111156128b5578485fd5b808201608081890312156128c7578586fd5b6128d16080613122565b925080518352602081015160208401526040810151604084015260608101519150838211156128fe578586fd5b61290a888383016122eb565b606084015250506020830152509392505050565b60006020828403121561292f578081fd5b5051919050565b6001600160a01b03169052565b6000815180845260208085018081965082840281019150828601855b858110156129a9578284038952815180516001600160a01b0316855285810151604087870181905290612994828801826129bc565b9b88019b96505050918501915060010161295f565b5091979650505050505050565b15159052565b600081518084526129d481602086016020860161318a565b601f01601f19169290920160200192915050565b805182526020810151602083015260408101516040830152606081015160608301525050565b6001600160f81b031994909416845260609290921b6bffffffffffffffffffffffff191660018401526015830152603582015260550190565b9283526020830191909152604082015260600190565b60008251612a6f81846020870161318a565b9190910192915050565b6001600160a01b0391909116815260200190565b6001600160a01b03958616815293851660208501529190931660408301526060820192909252608081019190915260a00190565b6001600160a01b039290921682526001600160e01b031916602082015260400190565b6001600160a01b038416815260ff83166020820152606060408201819052600090611c02908301846129bc565b6001600160a01b03929092168252602082015260400190565b901515815260200190565b600085825284602083015283604083015260806060830152612b5a60808301846129bc565b9695505050505050565b60006020825261046d60208301846129bc565b600060408252612b8a60408301856129bc565b8281036020840152611c0281856129bc565b6020808252818101527f437265617465323a2062797465636f6465206c656e677468206973207a65726f604082015260600190565b60208082526016908201527563616e277420696e697469616c697a6520747769636560501b604082015260600190565b6020808252601490820152731ad9595c195c881c185e5bdd5d0819985a5b195960621b604082015260600190565b6020808252601190820152701b1bd85b8818995a5b99c81c995c185a59607a1b604082015260600190565b6020808252601f908201527f66756e6374696f6e2068616e646c6572206e6f74207265676973746572656400604082015260600190565b6020808252601590820152741d1bdad95b881d1c985b9cd9995c8819985a5b1959605a1b604082015260600190565b6020808252601490820152731c1c9bde1e481c9958dbdc99081a5b9d985b1a5960621b604082015260600190565b6020808252818101527f6d7573742062652063616c6c65642066726f6d207368696674657220706f6f6c604082015260600190565b60208082526029908201527f626f72726f772070726f78792063616e206f6e6c792062652075736564206279604082015268103137b93937bbb2b960b91b606082015260800190565b60208082526019908201527f437265617465323a204661696c6564206f6e206465706c6f7900000000000000604082015260600190565b6020808252601390820152721b1bd85b88185b1c9958591e481c995c185a59606a1b604082015260600190565b60208082526021908201527f536166654d6174683a206d756c7469706c69636174696f6e206f766572666c6f6040820152607760f81b606082015260800190565b60208082526023908201527f6c6f616e207265736f6c7574696f6e206e6f74696669636174696f6e206661696040820152621b195960ea1b606082015260800190565b60208082526019908201527f70726f7879206973206265696e67206c69717569646174656400000000000000604082015260600190565b60208082526017908201527f6c6f616e207265736f6c7574696f6e206661696c757265000000000000000000604082015260600190565b6020808252602a908201527f6661696c656420746f207472616e73666572207265636c61696d65642066756e604082015269191cc81d1bc81c1bdbdb60b21b606082015260800190565b6020808252601d908201527f437265617465323a20696e73756666696369656e742062616c616e6365000000604082015260600190565b60006020825260018060a01b03808451166020840152806020850151166040840152506040830151612f786060840182612936565b506060830151612f8b6080840182612936565b506080830151612f9e60a0840182612936565b5060a0830151612fb160c0840182612936565b5060c083015160e083015260e0830151610100808185015250610dc16101208401826129bc565b60006020825282516040602084015260018060a01b03808251166060850152602082015160808086015261300f60e08601826129bc565b6040840151151560a08701526060840151868203605f190160c0880152915061303881836129bc565b93505050806020860151166040850152508091505092915050565b600060208252825160c0602084015261307060e084018251612936565b6020810151613083610100850182612936565b506040810151610120840152606081015161014084015260808101516130ad6101608501826129b6565b5060a081015160c06101808501526130c96101a0850182612943565b91505060208401516130df604085018251612936565b60208101516130f160608601826129e8565b5090949350505050565b6000602082528251151560208301526020830151604080840152610dc160608401826129bc565b6040518181016001600160401b038111828210171561314057600080fd5b604052919050565b60006001600160401b0382111561315d578081fd5b5060209081020190565b60006001600160401b0382111561317c578081fd5b50601f01601f191660200190565b60005b838110156131a557818101518382015260200161318d565b838111156108725750506000910152565b6001600160a01b038116811461047657600080fd5b801515811461047657600080fdfe6361707475726564206120726576657274206572726f722c2062757420697420646f65736e277420636f6e666f726d20746f20746865207374616e64617264a264697066735822122095acfc7fdcf63ff9caf102850473821a9bdde967d79d3b98e2f3e38de647297564736f6c63430006060033",
  "immutableReferences": {},
  "source": "pragma solidity ^0.6.0;\npragma experimental ABIEncoderV2;\n\nimport { BorrowProxy } from \"./BorrowProxy.sol\";\nimport { ShifterPool } from \"./ShifterPool.sol\";\nimport { ShifterBorrowProxyLib } from \"./ShifterBorrowProxyLib.sol\";\nimport { ILiquidationModule } from \"./interfaces/ILiquidationModule.sol\";\nimport { TokenUtils } from \"./utils/TokenUtils.sol\";\nimport { LiquidityToken } from \"./LiquidityToken.sol\";\nimport { IERC20 } from \"openzeppelin-solidity/contracts/token/ERC20/IERC20.sol\";\nimport { SafeViewExecutor } from \"./utils/sandbox/SafeViewExecutor.sol\";\nimport { SandboxLib } from \"./utils/sandbox/SandboxLib.sol\";\nimport { StringLib } from \"./utils/StringLib.sol\";\nimport { NullCloneConstructor } from \"./NullCloneConstructor.sol\";\n\ncontract ShifterBorrowProxy is BorrowProxy, SafeViewExecutor, NullCloneConstructor {\n  using ShifterBorrowProxyLib for *;\n  using StringLib for *;\n  using SandboxLib for *;\n  using TokenUtils for *;\n  constructor() BorrowProxy() public {}\n  uint256 constant MINIMUM_GAS_CONTINUE = 5e5;\n  function repayLoan(bytes memory data) public returns (bool) {\n    (ShifterBorrowProxyLib.TriggerParcel memory parcel) = data.decodeTriggerParcel();\n    parcel.record.request.actions = new ShifterBorrowProxyLib.InitializationAction[](0);\n    require(validateProxyRecord(parcel.record.encodeProxyRecord()), \"proxy record invalid\");\n    require(!isolate.isLiquidating, \"proxy is being liquidated\");\n    uint256 fee = parcel.record.computeAdjustedKeeperFee(parcel.record.request.amount);\n    LiquidityToken liquidityToken = ShifterPool(isolate.masterAddress).getLiquidityTokenHandler(parcel.record.request.token);\n    uint256 amount;\n    if (!isolate.isRepaying) {\n      isolate.isRepaying = true;\n      isolate.actualizedShift = amount = ShifterPool(isolate.masterAddress).getShifterHandler(parcel.record.request.token).mint(parcel.shiftParameters.pHash, parcel.record.request.amount, parcel.computeNHash(), parcel.shiftParameters.darknodeSignature);\n      require(parcel.record.request.token.sendToken(address(liquidityToken), amount - fee), \"token transfer failed\");\n    } else amount = isolate.actualizedShift;\n    address[] memory set = isolate.repaymentSet.set;\n    for (uint256 i = isolate.repaymentIndex; i < set.length; i++) {\n      if (gasleft() < MINIMUM_GAS_CONTINUE || !set[i].delegateRepay()) {\n        isolate.repaymentIndex = i;\n        return false;\n      }\n    }\n    isolate.unbound = true;\n    require(parcel.record.request.token.sendToken(parcel.record.loan.keeper, fee), \"keeper payout failed\");\n    require(ShifterPool(isolate.masterAddress).relayResolveLoan(parcel.record.request.token, address(liquidityToken), parcel.record.loan.keeper, parcel.record.loan.params.bond, 0), \"loan resolution notification failed\");\n    ShifterBorrowProxyLib.emitShifterBorrowProxyRepaid(parcel.record.request.borrower, parcel.record);\n    return true;\n  }\n  function defaultLoan(bytes memory data) public returns (bool) {\n    require(!isolate.isRepaying, \"loan being repaid\");\n    require(!isolate.unbound, \"loan already repaid\");\n    require(validateProxyRecord(data), \"proxy record invalid\");\n    ShifterBorrowProxyLib.ProxyRecord memory record = data.decodeProxyRecord();\n    address[] memory set = isolate.liquidationSet.set;\n    if (record.loan.params.timeoutExpiry >= block.number) {\n      isolate.isLiquidating = true;\n      for (uint256 i = isolate.liquidationIndex; i < set.length; i++) {\n        if (gasleft() < MINIMUM_GAS_CONTINUE || !set[i].delegateLiquidate()) {\n          isolate.liquidationIndex = i;\n          return false;\n        }\n      }\n      isolate.liquidationIndex = set.length;\n      ShifterPool pool = ShifterPool(isolate.masterAddress);\n      uint256 postBalance = IERC20(record.request.token).balanceOf(address(this));\n      require(record.request.token.sendToken(address(pool), postBalance), \"failed to transfer reclaimed funds to pool\");\n      uint256 bond = record.loan.params.bond;\n      if (postBalance < record.request.amount) {\n        if (bond > postBalance - record.request.amount) {\n          bond -= (postBalance - record.request.amount);\n        } else {\n          bond = 0;\n        }\n      }\n      uint256 repay = postBalance - bond;\n      require(pool.relayResolveLoan(record.request.token, address(pool.getLiquidityTokenHandler(record.request.token)), record.loan.keeper, bond, repay), \"loan resolution failure\");\n      return true;\n    }\n    return false;\n  }\n  function receiveInitializationActions(ShifterBorrowProxyLib.InitializationAction[] memory actions) public {\n    require(msg.sender == address(isolate.masterAddress), \"must be called from shifter pool\");\n    actions.processActions();\n  }\n  fallback() external payable override {}\n  receive() external payable override {}\n}\n",
  "sourcePath": "/home/ray/0confirmation/packages/0confirmation-sol/contracts/ShifterBorrowProxy.sol",
  "compiler": {
    "name": "solc",
    "version": "0.6.6+commit.6c089d02.Emscripten.clang"
  },
  "schemaVersion": "3.1.0",
  "updatedAt": "2020-05-12T17:32:21.817Z",
  "devdoc": {
    "methods": {}
  },
  "userdoc": {
    "methods": {}
  }
}