{
  "contractName": "ShifterPool",
  "abi": [
    {
      "inputs": [],
      "stateMutability": "nonpayable",
      "type": "constructor"
    },
    {
      "anonymous": false,
      "inputs": [
        {
          "indexed": true,
          "internalType": "address",
          "name": "previousOwner",
          "type": "address"
        },
        {
          "indexed": true,
          "internalType": "address",
          "name": "newOwner",
          "type": "address"
        }
      ],
      "name": "OwnershipTransferred",
      "type": "event"
    },
    {
      "inputs": [
        {
          "internalType": "bytes",
          "name": "creationCode",
          "type": "bytes"
        },
        {
          "internalType": "bytes",
          "name": "context",
          "type": "bytes"
        }
      ],
      "name": "_executeSafeView",
      "outputs": [],
      "stateMutability": "nonpayable",
      "type": "function"
    },
    {
      "inputs": [],
      "name": "owner",
      "outputs": [
        {
          "internalType": "address",
          "name": "",
          "type": "address"
        }
      ],
      "stateMutability": "view",
      "type": "function"
    },
    {
      "inputs": [
        {
          "internalType": "bytes",
          "name": "creationCode",
          "type": "bytes"
        },
        {
          "internalType": "bytes",
          "name": "context",
          "type": "bytes"
        }
      ],
      "name": "query",
      "outputs": [
        {
          "components": [
            {
              "internalType": "bool",
              "name": "success",
              "type": "bool"
            },
            {
              "internalType": "bytes",
              "name": "data",
              "type": "bytes"
            }
          ],
          "internalType": "struct SafeViewLib.SafeViewResult",
          "name": "",
          "type": "tuple"
        }
      ],
      "stateMutability": "nonpayable",
      "type": "function"
    },
    {
      "inputs": [],
      "name": "renounceOwnership",
      "outputs": [],
      "stateMutability": "nonpayable",
      "type": "function"
    },
    {
      "inputs": [
        {
          "internalType": "address",
          "name": "newOwner",
          "type": "address"
        }
      ],
      "name": "transferOwnership",
      "outputs": [],
      "stateMutability": "nonpayable",
      "type": "function"
    },
    {
      "inputs": [
        {
          "internalType": "bytes",
          "name": "consData",
          "type": "bytes"
        }
      ],
      "name": "cloneConstructor",
      "outputs": [],
      "stateMutability": "nonpayable",
      "type": "function"
    },
    {
      "inputs": [
        {
          "internalType": "address",
          "name": "shifterRegistry",
          "type": "address"
        },
        {
          "internalType": "uint256",
          "name": "minTimeout",
          "type": "uint256"
        },
        {
          "internalType": "uint256",
          "name": "poolFee",
          "type": "uint256"
        },
        {
          "components": [
            {
              "internalType": "enum BorrowProxyLib.ModuleRegistrationType",
              "name": "moduleType",
              "type": "uint8"
            },
            {
              "internalType": "address",
              "name": "target",
              "type": "address"
            },
            {
              "internalType": "bytes4[]",
              "name": "sigs",
              "type": "bytes4[]"
            },
            {
              "components": [
                {
                  "internalType": "bool",
                  "name": "isPrecompiled",
                  "type": "bool"
                },
                {
                  "internalType": "address",
                  "name": "assetSubmodule",
                  "type": "address"
                },
                {
                  "internalType": "address",
                  "name": "liquidationSubmodule",
                  "type": "address"
                },
                {
                  "internalType": "address",
                  "name": "repaymentSubmodule",
                  "type": "address"
                }
              ],
              "internalType": "struct BorrowProxyLib.Module",
              "name": "module",
              "type": "tuple"
            }
          ],
          "internalType": "struct BorrowProxyLib.ModuleRegistration[]",
          "name": "modules",
          "type": "tuple[]"
        },
        {
          "components": [
            {
              "internalType": "address",
              "name": "token",
              "type": "address"
            },
            {
              "internalType": "address",
              "name": "liqToken",
              "type": "address"
            }
          ],
          "internalType": "struct ShifterPoolLib.LiquidityTokenLaunch[]",
          "name": "tokenLaunches",
          "type": "tuple[]"
        }
      ],
      "name": "setup",
      "outputs": [],
      "stateMutability": "nonpayable",
      "type": "function"
    },
    {
      "inputs": [],
      "name": "deployBorrowProxyImplementation",
      "outputs": [],
      "stateMutability": "nonpayable",
      "type": "function"
    },
    {
      "inputs": [
        {
          "internalType": "bytes32",
          "name": "salt",
          "type": "bytes32"
        }
      ],
      "name": "deployBorrowProxyClone",
      "outputs": [
        {
          "internalType": "address payable",
          "name": "created",
          "type": "address"
        }
      ],
      "stateMutability": "nonpayable",
      "type": "function"
    },
    {
      "inputs": [
        {
          "components": [
            {
              "components": [
                {
                  "internalType": "address payable",
                  "name": "borrower",
                  "type": "address"
                },
                {
                  "internalType": "address",
                  "name": "token",
                  "type": "address"
                },
                {
                  "internalType": "bytes32",
                  "name": "nonce",
                  "type": "bytes32"
                },
                {
                  "internalType": "uint256",
                  "name": "amount",
                  "type": "uint256"
                },
                {
                  "internalType": "bool",
                  "name": "forbidLoan",
                  "type": "bool"
                },
                {
                  "components": [
                    {
                      "internalType": "address",
                      "name": "to",
                      "type": "address"
                    },
                    {
                      "internalType": "bytes",
                      "name": "txData",
                      "type": "bytes"
                    }
                  ],
                  "internalType": "struct ShifterBorrowProxyLib.InitializationAction[]",
                  "name": "actions",
                  "type": "tuple[]"
                }
              ],
              "internalType": "struct ShifterBorrowProxyLib.LiquidityRequest",
              "name": "request",
              "type": "tuple"
            },
            {
              "internalType": "uint256",
              "name": "gasRequested",
              "type": "uint256"
            },
            {
              "internalType": "bytes",
              "name": "signature",
              "type": "bytes"
            }
          ],
          "internalType": "struct ShifterBorrowProxyLib.LiquidityRequestParcel",
          "name": "liquidityRequestParcel",
          "type": "tuple"
        },
        {
          "internalType": "uint256",
          "name": "bond",
          "type": "uint256"
        },
        {
          "internalType": "uint256",
          "name": "timeoutExpiry",
          "type": "uint256"
        }
      ],
      "name": "executeBorrow",
      "outputs": [],
      "stateMutability": "payable",
      "type": "function"
    },
    {
      "inputs": [
        {
          "internalType": "bytes",
          "name": "proxyRecord",
          "type": "bytes"
        }
      ],
      "name": "validateProxyRecordHandler",
      "outputs": [
        {
          "internalType": "bool",
          "name": "",
          "type": "bool"
        }
      ],
      "stateMutability": "view",
      "type": "function"
    },
    {
      "inputs": [
        {
          "internalType": "address",
          "name": "proxyAddress",
          "type": "address"
        }
      ],
      "name": "getProxyTokenHandler",
      "outputs": [
        {
          "internalType": "address",
          "name": "",
          "type": "address"
        }
      ],
      "stateMutability": "view",
      "type": "function"
    },
    {
      "inputs": [
        {
          "internalType": "address",
          "name": "user",
          "type": "address"
        }
      ],
      "name": "getProxyOwnerHandler",
      "outputs": [
        {
          "internalType": "address",
          "name": "",
          "type": "address"
        }
      ],
      "stateMutability": "view",
      "type": "function"
    },
    {
      "inputs": [
        {
          "internalType": "address",
          "name": "token",
          "type": "address"
        }
      ],
      "name": "getShifterHandler",
      "outputs": [
        {
          "internalType": "contract IShifter",
          "name": "",
          "type": "address"
        }
      ],
      "stateMutability": "view",
      "type": "function"
    },
    {
      "inputs": [
        {
          "internalType": "address",
          "name": "token",
          "type": "address"
        }
      ],
      "name": "getLiquidityTokenHandler",
      "outputs": [
        {
          "internalType": "contract LiquidityToken",
          "name": "",
          "type": "address"
        }
      ],
      "stateMutability": "view",
      "type": "function"
    },
    {
      "inputs": [
        {
          "internalType": "address",
          "name": "to",
          "type": "address"
        },
        {
          "internalType": "bytes4",
          "name": "sig",
          "type": "bytes4"
        }
      ],
      "name": "fetchModuleHandler",
      "outputs": [
        {
          "components": [
            {
              "internalType": "bool",
              "name": "isPrecompiled",
              "type": "bool"
            },
            {
              "internalType": "address",
              "name": "assetSubmodule",
              "type": "address"
            },
            {
              "internalType": "address",
              "name": "liquidationSubmodule",
              "type": "address"
            },
            {
              "internalType": "address",
              "name": "repaymentSubmodule",
              "type": "address"
            }
          ],
          "internalType": "struct BorrowProxyLib.Module",
          "name": "",
          "type": "tuple"
        }
      ],
      "stateMutability": "view",
      "type": "function"
    },
    {
      "inputs": [
        {
          "internalType": "address",
          "name": "token",
          "type": "address"
        },
        {
          "internalType": "address",
          "name": "liquidityToken",
          "type": "address"
        },
        {
          "internalType": "address",
          "name": "keeper",
          "type": "address"
        },
        {
          "internalType": "uint256",
          "name": "bond",
          "type": "uint256"
        },
        {
          "internalType": "uint256",
          "name": "repay",
          "type": "uint256"
        }
      ],
      "name": "relayResolveLoan",
      "outputs": [
        {
          "internalType": "bool",
          "name": "",
          "type": "bool"
        }
      ],
      "stateMutability": "nonpayable",
      "type": "function"
    }
  ],
  "bytecode": "0x608060405234801561001057600080fd5b5060006100246001600160e01b0361007716565b600080546001600160a01b0319166001600160a01b0383169081178255604051929350917f8be0079c531659141344cd1fd0a4f28419497f9722a3daafe3b4186f6b6457e0908290a3504360015561007b565b3390565b61318c806200008b6000396000f3fe6080604052600436106100fe5760003560e01c8063715018a6116100955780638da5cb5b116100645780638da5cb5b146102ac578063dc74245e146102c1578063e6c1f074146102d4578063ea82c9b3146102f4578063f2fde38b14610314576100fe565b8063715018a614610237578063781e874f1461024c578063798aada01461026c578063801874ec1461028c576100fe565b806344112360116100d157806344112360146101b357806352e831dd146101e05780635f7d2b571461020257806363091aa314610222576100fe565b806308f60495146101035780631fbc78dc1461013957806329658b021461016657806334686eaf14610186575b600080fd5b34801561010f57600080fd5b5061012361011e36600461244a565b610334565b6040516101309190612943565b60405180910390f35b34801561014557600080fd5b5061015961015436600461220a565b61034e565b6040516101309190612878565b34801561017257600080fd5b5061015961018136600461220a565b610361565b34801561019257600080fd5b506101a66101a136600461247d565b610374565b604051610130919061305c565b3480156101bf57600080fd5b506101d36101ce36600461229c565b610393565b6040516101309190612f76565b3480156101ec57600080fd5b506102006101fb3660046123e0565b6103ad565b005b34801561020e57600080fd5b5061020061021d36600461247d565b6103b1565b34801561022e57600080fd5b506102006103fc565b34801561024357600080fd5b5061020061044f565b34801561025857600080fd5b506101596102673660046123c8565b6104d7565b34801561027857600080fd5b5061015961028736600461220a565b6104f0565b34801561029857600080fd5b506101236102a7366004612242565b610503565b3480156102b857600080fd5b5061015961064d565b6102006102cf3660046124de565b61065c565b3480156102e057600080fd5b506101596102ef36600461220a565b6106c5565b34801561030057600080fd5b5061020061030f3660046122d4565b6106d8565b34801561032057600080fd5b5061020061032f36600461220a565b610816565b60006103486009338463ffffffff6108cc16565b92915050565b600061034860018363ffffffff6108f216565b600061034860098363ffffffff61097516565b61037c611d78565b61038c838363ffffffff61099816565b9392505050565b61039b611d90565b61038c600d848463ffffffff610a1116565b5050565b60006103c660006103c0610aff565b85610b23565b905060606103eb6103e66001600160a01b0384168563ffffffff610b9516565b610c1f565b90506103f681610c48565b50505050565b61042d60017ffe1e3164ba4910db3c9afd049cd8feb4552390569c846692e6df4ac68aeaa90e63ffffffff610c5016565b600280546001600160a01b0319166001600160a01b0392909216919091179055565b610457610cb8565b6000546001600160a01b0390811691161461048d5760405162461bcd60e51b815260040161048490612e0c565b60405180910390fd5b600080546040516001600160a01b03909116907f8be0079c531659141344cd1fd0a4f28419497f9722a3daafe3b4186f6b6457e0908390a3600080546001600160a01b0319169055565b600254600090610348906001600160a01b031683610cbc565b600061034860018363ffffffff610d0c16565b3360009081526009602052604081205461052f5760405162461bcd60e51b815260040161048490612ca0565b821561056b5761054f6001600160a01b038716858563ffffffff610d4816565b61056b5760405162461bcd60e51b815260040161048490612d50565b81156105a75761058b6001600160a01b038716868463ffffffff610d4816565b6105a75760405162461bcd60e51b815260040161048490612b89565b60405163c3275c7960e01b81526001600160a01b0386169063c3275c79906105d3903390600401612878565b602060405180830381600087803b1580156105ed57600080fd5b505af1158015610601573d6000803e3d6000fd5b505050506040513d601f19601f8201168201806040525081019061062591906123ac565b6106415760405162461bcd60e51b815260040161048490612ece565b50600195945050505050565b6000546001600160a01b031690565b6000610669848484610dba565b90506000610676826104d7565b8551805160209091015191925061069e916001600160a01b038416919063ffffffff610fbb16565b845160a001516106be906001600160a01b0383169063ffffffff61105c16565b5050505050565b600061034860098363ffffffff6110b616565b6106e0610cb8565b6000546001600160a01b0390811691161461070d5760405162461bcd60e51b815260040161048490612e0c565b6003546001600160a01b0316156107365760405162461bcd60e51b815260040161048490612c73565b600380546001600160a01b0319166001600160a01b0387161790556004849055600583905560005b82518110156107a25761076f611db7565b83828151811061077b57fe5b60209081029190910101519050610799600d8263ffffffff6110d916565b5060010161075e565b5060005b815181101561080e576107b7611de5565b8282815181106107c357fe5b6020908102919091018101518082015190516001600160a01b0390811660009081526008909352604090922080546001600160a01b03191692909116919091179055506001016107a6565b505050505050565b61081e610cb8565b6000546001600160a01b0390811691161461084b5760405162461bcd60e51b815260040161048490612e0c565b6001600160a01b0381166108715760405162461bcd60e51b815260040161048490612ac0565b600080546040516001600160a01b03808516939216917f8be0079c531659141344cd1fd0a4f28419497f9722a3daafe3b4186f6b6457e091a3600080546001600160a01b0319166001600160a01b0392909216919091179055565b80516020918201206001600160a01b039290921660009081529290526040909120541490565b600282015460405163028c4f4160e41b81526000916001600160a01b0316906328c4f41090610925908590600401612878565b60206040518083038186803b15801561093d57600080fd5b505afa158015610951573d6000803e3d6000fd5b505050506040513d601f19601f8201168201806040525081019061038c9190612226565b6001600160a01b0380821660009081526002840160205260409020541692915050565b6109a0611d78565b6060306109ad858561118f565b6040516109ba919061282b565b6000604051808303816000865af19150503d80600081146109f7576040519150601f19603f3d011682016040523d82523d6000602084013e6109fc565b606091505b50915050610a09816111e5565b949350505050565b610a19611d90565b610a21611d90565b846000610a2e8686611201565b815260208082019290925260409081016000208151608081018352815460ff8116151582526001600160a01b0361010090910481169482019490945260018201548416928101929092526002015490911660608201529050610a8f81611229565b610a0957846000610aa0868661123b565b815260208082019290925260409081016000208151608081018352815460ff81161515825261010090046001600160a01b0390811694820194909452600182015484169281019290925260020154909116606082015295945050505050565b7fad53495153c7c363e98a26920ec679e0e687636458f6908c91cf6deadb19080190565b60008084471015610b465760405162461bcd60e51b815260040161048490612f31565b8251610b645760405162461bcd60e51b815260040161048490612a26565b8383516020850187f590506001600160a01b038116610a095760405162461bcd60e51b815260040161048490612d19565b610b9d611d78565b60006060846001600160a01b0316610bb485611256565b604051610bc1919061282b565b600060405180830381855af49150503d8060008114610bfc576040519150601f19603f3d011682016040523d82523d6000602084013e610c01565b606091505b50604080518082019091529115158252602082015295945050505050565b606081604051602001610c32919061305c565b6040516020818303038152906040529050919050565b805160208201fd5b60405163dd678a0760e01b815260009073__ShifterBorrowProxyFactoryLib__________9063dd678a0790610c8c9086908690600401612f68565b60206040518083038186803b158015610ca457600080fd5b505af4158015610951573d6000803e3d6000fd5b3390565b60006060610cc9846112a9565b80519091508390602083018282826000f5945050506001600160a01b038316610d045760405162461bcd60e51b815260040161048490612e71565b505092915050565b6001600160a01b0380821660009081526007840160205260408120549091168061038c5760405162461bcd60e51b815260040161048490612e99565b600080846001600160a01b0316610d5f8585611410565b604051610d6c919061282b565b6000604051808303816000865af19150503d8060008114610da9576040519150601f19603f3d011682016040523d82523d6000602084013e610dae565b606091505b50909695505050505050565b600034846020015114610ddf5760405162461bcd60e51b815260040161048490612b3d565b610df8610deb8561142d565b859063ffffffff61144616565b610e145760405162461bcd60e51b815260040161048490612dc8565b610e1c611dfc565b508351610e2881611477565b600254604051635eadff7960e11b815291935060009173__ShifterBorrowProxyFactoryLib__________9163bd5bfef291610e72916001600160a01b031690879060040161288c565b60206040518083038186803b158015610e8a57600080fd5b505af4158015610e9e573d6000803e3d6000fd5b505050506040513d601f19601f82011682018060405250810190610ec29190612226565b9050610ed560098263ffffffff61148216565b15610ef25760405162461bcd60e51b8152600401610484906129e4565b610efa611e33565b60405180604001604052808481526020016040518060400160405280336001600160a01b03168152602001610f4187606001518b8b60016114a0909392919063ffffffff16565b905290529050610f53600183836115a0565b610f75836020015183610f658461163f565b600192919063ffffffff61167716565b6020830151610f95906001600160a01b031633308963ffffffff61171c16565b610fb15760405162461bcd60e51b815260040161048490612e41565b5050509392505050565b604051632d34ba7960e01b81526001600160a01b03841690632d34ba7990610fe990859085906004016128a5565b602060405180830381600087803b15801561100357600080fd5b505af1158015611017573d6000803e3d6000fd5b505050506040513d601f19601f8201168201806040525081019061103b91906123ac565b6110575760405162461bcd60e51b815260040161048490612bc0565b505050565b604051630bfceb2b60e31b81526001600160a01b03831690635fe75958906110889084906004016128e3565b600060405180830381600087803b1580156110a257600080fd5b505af115801561080e573d6000803e3d6000fd5b6001600160a01b0380821660009081526001840160205260409020541692915050565b6001815160028111156110e857fe5b14156111375760005b816040015151811015611131576111298383602001518460400151848151811061111757fe5b60200260200101518560600151611790565b6001016110f1565b506103ad565b60028151600281111561114657fe5b14156103ad5760005b816040015151811015611057576111878383602001518460400151848151811061117557fe5b6020026020010151856060015161181a565b60010161114f565b6060635f7d2b5760e01b83836040516024016111ac92919061297f565b60408051601f198184030181529190526020810180516001600160e01b03166001600160e01b0319909316929092179091529392505050565b6111ed611d78565b81806020019051810190610348919061258c565b60008061120d84611828565b9050611219818461182c565b8051906020012091505092915050565b602001516001600160a01b0316151590565b60006112478383611858565b80519060200120905092915050565b60606309c5eabe60e01b82604051602401611271919061296c565b60408051601f198184030181529190526020810180516001600160e01b03166001600160e01b03199093169290921790915292915050565b60408051600081526020810190915260609081906112ca906044810161296c565b60408051601f198184030181529190526020810180516001600160e01b03166352e831dd60e01b179052805190915060630167ffffffffffffffff8111801561131257600080fd5b506040519080825280601f01601f19166020018201604052801561133d576020820181803683370190505b507f3d3d606380380380913d393d73bebebebebebebebebebebebebebebebebebebe6020820152600160601b308102602d8301527f5af4602a57600080fd5b602d8060366000396000f3363d3d373d3d3d363d73be6041830152840260608201526e5af43d82803e903d91602b57fd5bf360881b6074820152915060005b8151811015611409578181815181106113d057fe5b602001015160f81c60f81b8382606301815181106113ea57fe5b60200101906001600160f81b031916908160001a9053506001016113bb565b5050919050565b606063a9059cbb60e01b83836040516024016111ac92919061288c565b60006114388261186d565b805190602001209050919050565b600061145e6114548361188d565b84604001516118bd565b8351516001600160a01b03908116911614905092915050565b6000611438826119eb565b6001600160a01b031660009081526020919091526040902054151590565b6114a8611e53565b84600301548210156114cc5760405162461bcd60e51b815260040161048490612a5b565b60006114e7670de0b6b3a7640000606463ffffffff611a0716565b9050611502670de0b6b3a7640000606463ffffffff611a0716565b61152a8661151e87670de0b6b3a764000063ffffffff611a4916565b9063ffffffff611a0716565b116115475760405162461bcd60e51b815260040161048490612f05565b6000848610611569576115648661151e848863ffffffff611a4916565b61156b565b815b905060405180608001604052808543018152602001868152602001886004015481526020018281525092505050949350505050565b60606115ab82611a83565b8251602001519091506115ca906008860190859063ffffffff611a9616565b8151516115e3906008860190859063ffffffff611aca16565b8151516040516001600160a01b03909116903480156108fc02916000818181858888f1935050505015801561161c573d6000803e3d6000fd5b5061163160088501848363ffffffff611afe16565b8151516103f6908483611b21565b600061034861166561165084611b71565b61165985611ba6565b9063ffffffff611bdb16565b8351606001519063ffffffff611c0016565b6116818484610d0c565b6001600160a01b031663185cc75183836040518363ffffffff1660e01b81526004016116ae92919061288c565b602060405180830381600087803b1580156116c857600080fd5b505af11580156116dc573d6000803e3d6000fd5b505050506040513d601f19601f8201168201806040525081019061170091906123ac565b6103f65760405162461bcd60e51b815260040161048490612c2f565b600080856001600160a01b0316611734868686611c42565b604051611741919061282b565b6000604051808303816000865af19150503d806000811461177e576040519150601f19603f3d011682016040523d82523d6000602084013e611783565b606091505b5090979650505050505050565b8084600061179e8686611201565b81526020808201929092526040908101600020835181549385015160ff1990941690151517610100600160a81b0319166101006001600160a01b0394851602178155908301516001820180546001600160a01b031990811692851692909217905560609093015160029091018054909316911617905550505050565b8084600061179e868661123b565b3f90565b60608282604051602001611841929190612813565b604051602081830303815290604052905092915050565b606082826040516020016118419291906127e7565b606080611881836000015160a00151611c9b565b905061038c8382611cae565b6000816040516020016118a09190612847565b604051602081830303815290604052805190602001209050919050565b600081516041146118e05760405162461bcd60e51b815260040161048490612a89565b60208201516040830151606084015160001a7f7fffffffffffffffffffffffffffffff5d576e7357a4501ddfe92f46681b20a08211156119325760405162461bcd60e51b815260040161048490612bed565b8060ff16601b1415801561194a57508060ff16601c14155b156119675760405162461bcd60e51b815260040161048490612cd7565b60006001878386866040516000815260200160405260405161198c949392919061294e565b6020604051602081039080840390855afa1580156119ae573d6000803e3d6000fd5b5050604051601f1901519150506001600160a01b0381166119e15760405162461bcd60e51b8152600401610484906129ad565b9695505050505050565b6060806119fb8360a00151611c9b565b905061038c8382611ce4565b600061038c83836040518060400160405280601a81526020017f536166654d6174683a206469766973696f6e206279207a65726f000000000000815250611d15565b600082611a5857506000610348565b82820282848281611a6557fe5b041461038c5760405162461bcd60e51b815260040161048490612d87565b606081604051602001610c329190612fb4565b6001600160a01b039182166000908152600290930160205260409092208054919092166001600160a01b0319909116179055565b6001600160a01b039182166000908152600190930160205260409092208054919092166001600160a01b0319909116179055565b80516020918201206001600160a01b039092166000908152929052604090912055565b816001600160a01b0316836001600160a01b03167f9ae84ac2ad8f721c2e62d211eca0ae34951726f8834913af6c5ebb81610bb1f883604051611b64919061296c565b60405180910390a3505050565b6000610348670de0b6b3a764000061151e84602001516020015160600151856000015160600151611a4990919063ffffffff16565b6000610348670de0b6b3a764000061151e84602001516020015160400151856000015160600151611a4990919063ffffffff16565b60008282018381101561038c5760405162461bcd60e51b815260040161048490612b06565b600061038c83836040518060400160405280601e81526020017f536166654d6174683a207375627472616374696f6e206f766572666c6f770000815250611d4c565b60606323b872dd60e01b848484604051602401611c61939291906128bf565b60408051601f198184030181529190526020810180516001600160e01b03166001600160e01b031990931692909217909152949350505050565b606081604051602001610c3291906128e3565b815160208082015160408084015160608581015185890151608090970151935191966118419630969592939192918a9101612780565b6060826000015183602001518460400151856060015186608001518660405160200161184196959493929190612720565b60008183611d365760405162461bcd60e51b8152600401610484919061296c565b506000838581611d4257fe5b0495945050505050565b60008184841115611d705760405162461bcd60e51b8152600401610484919061296c565b505050900390565b60408051808201909152600081526060602082015290565b60408051608081018252600080825260208201819052918101829052606081019190915290565b604080516080810190915280600081526000602082015260606040820181905201611de0611d90565b905290565b604080518082019091526000808252602082015290565b6040805160c0810182526000808252602082018190529181018290526060808201839052608082019290925260a081019190915290565b6040518060400160405280611e46611dfc565b8152602001611de0611e7b565b6040518060800160405280600081526020016000815260200160008152602001600081525090565b604051806040016040528060006001600160a01b03168152602001611de0611e53565b600082601f830112611eae578081fd5b8135611ec1611ebc826130aa565b613083565b8181529150602080830190848101604080850287018301881015611ee457600080fd5b6000805b86811015611f375782848b031215611efe578182fd5b611f0783613083565b8435611f128161311a565b815284860135611f218161311a565b8187015286529484019492820192600101611ee8565b5050505050505092915050565b600082601f830112611f54578081fd5b8135611f62611ebc826130ca565b9150808252836020828501011115611f7957600080fd5b8060208401602084013760009082016020015292915050565b600060c08284031215611fa3578081fd5b611fad60c0613083565b90508135611fba8161311a565b8152602082810135611fcb8161311a565b8282015260408381013581840152606080850135908401526080840135611ff181613132565b608084015260a084013567ffffffffffffffff8082111561201157600080fd5b81860187601f82011261202357600080fd5b80359250612033611ebc846130aa565b8381528581019082870160005b868110156120ae578135850188601f19828f0301121561205f57600080fd5b61206889613083565b8a8201356120758161311a565b8152818a01358881111561208857600080fd5b6120968f8d83860101611f44565b828d0152508552509288019290880190600101612040565b505060a08801525094979650505050505050565b600060e082840312156120d3578081fd5b6120dd6080613083565b90508135600381106120ee57600080fd5b81526020828101356120ff8161311a565b82820152604083013567ffffffffffffffff81111561211d57600080fd5b80840185601f82011261212f57600080fd5b8035915061213f611ebc836130aa565b828152838101908285018585028401860189101561215c57600080fd5b600093505b8484101561218857803561217481613140565b835260019390930192918501918501612161565b5080604087015250505050506121a183606084016121ac565b606082015292915050565b6000608082840312156121bd578081fd5b6121c76080613083565b905081356121d481613132565b815260208201356121e48161311a565b602082015260408201356121f78161311a565b604082015260608201356121a18161311a565b60006020828403121561221b578081fd5b813561038c8161311a565b600060208284031215612237578081fd5b815161038c8161311a565b600080600080600060a08688031215612259578081fd5b85356122648161311a565b945060208601356122748161311a565b935060408601356122848161311a565b94979396509394606081013594506080013592915050565b600080604083850312156122ae578182fd5b82356122b98161311a565b915060208301356122c981613140565b809150509250929050565b600080600080600060a086880312156122eb578283fd5b85356122f68161311a565b9450602086810135945060408701359350606087013567ffffffffffffffff80821115612321578384fd5b8189018a601f820112612332578485fd5b80359250612342611ebc846130aa565b83815284810190828601875b86811015612377576123658f8984358801016120c2565b8452928701929087019060010161234e565b509097505050506080890135925080831115612391578384fd5b505061239f88828901611e9e565b9150509295509295909350565b6000602082840312156123bd578081fd5b815161038c81613132565b6000602082840312156123d9578081fd5b5035919050565b600080602083850312156123f2578182fd5b823567ffffffffffffffff80821115612409578384fd5b81850186601f82011261241a578485fd5b803592508183111561242a578485fd5b86602084830101111561243b578485fd5b60200196919550909350505050565b60006020828403121561245b578081fd5b813567ffffffffffffffff811115612471578182fd5b610a0984828501611f44565b6000806040838503121561248f578182fd5b823567ffffffffffffffff808211156124a6578384fd5b6124b286838701611f44565b935060208501359150808211156124c7578283fd5b506124d485828601611f44565b9150509250929050565b6000806000606084860312156124f2578081fd5b833567ffffffffffffffff80821115612509578283fd5b8186016060818903121561251b578384fd5b6125256060613083565b9250803582811115612535578485fd5b61254189828401611f92565b8452506020810135602084015260408101358281111561255f578485fd5b61256b89828401611f44565b60408501525050508093505060208401359150604084013590509250925092565b6000602080838503121561259e578182fd5b825167ffffffffffffffff808211156125b5578384fd5b818501604081880312156125c7578485fd5b6125d16040613083565b925080516125de81613132565b835280840151828111156125f0578586fd5b019050601f81018613612601578384fd5b805161260f611ebc826130ca565b8181528785838501011115612622578586fd5b612631828683018786016130ee565b9383019390935250949350505050565b6001600160a01b03169052565b6000815180845260208085018081965082840281019150828601855b858110156126945782840389526126828483516126d3565b9885019893509084019060010161266a565b5091979650505050505050565b15159052565b600081518084526126bf8160208601602086016130ee565b601f01601f19169290920160200192915050565b600060018060a01b038251168352602082015160406020850152610a0960408501826126a7565b805182526020810151602083015260408101516040830152606081015160608301525050565b60006bffffffffffffffffffffffff19808960601b168352808860601b1660148401525085602883015284604883015283151560f81b6068830152825161276e8160698501602087016130ee565b91909101606901979650505050505050565b60006bffffffffffffffffffffffff19808a60601b168352808960601b1660148401525086602883015285604883015284606883015283151560f81b608883015282516127d48160898501602087016130ee565b9190910160890198975050505050505050565b60609290921b6bffffffffffffffffffffffff191682526001600160e01b031916601482015260180190565b9182526001600160e01b031916602082015260240190565b6000825161283d8184602087016130ee565b9190910192915050565b7f19457468657265756d205369676e6564204d6573736167653a0a3332000000008152601c810191909152603c0190565b6001600160a01b0391909116815260200190565b6001600160a01b03929092168252602082015260400190565b6001600160a01b0392831681529116602082015260400190565b6001600160a01b039384168152919092166020820152604081019190915260600190565b6000602080830181845280855180835260408601915060408482028701019250838701855b8281101561293657603f198886030184526129248583516126d3565b94509285019290850190600101612908565b5092979650505050505050565b901515815260200190565b93845260ff9290921660208401526040830152606082015260800190565b60006020825261038c60208301846126a7565b60006040825261299260408301856126a7565b82810360208401526129a481856126a7565b95945050505050565b60208082526018908201527f45434453413a20696e76616c6964207369676e61747572650000000000000000604082015260600190565b60208082526022908201527f70726f78792068617320616c7265616479206265656e20696e697469616c697a604082015261195960f21b606082015260800190565b6020808252818101527f437265617465323a2062797465636f6465206c656e677468206973207a65726f604082015260600190565b6020808252601490820152731d1a5b595bdd5d081a5b9cdd59999a58da595b9d60621b604082015260600190565b6020808252601f908201527f45434453413a20696e76616c6964207369676e6174757265206c656e67746800604082015260600190565b60208082526026908201527f4f776e61626c653a206e6577206f776e657220697320746865207a65726f206160408201526564647265737360d01b606082015260800190565b6020808252601b908201527f536166654d6174683a206164646974696f6e206f766572666c6f770000000000604082015260600190565b6020808252602c908201527f737570706c696564206574686572206973206e6f7420657175616c20746f206760408201526b185cc81c995c5d595cdd195960a21b606082015260800190565b6020808252601a908201527f6661696c656420746f207265706179206c6f73742066756e6473000000000000604082015260600190565b6020808252601390820152727365747570207068617365206661696c75726560681b604082015260600190565b60208082526022908201527f45434453413a20696e76616c6964207369676e6174757265202773272076616c604082015261756560f01b606082015260800190565b60208082526024908201527f696e73756666696369656e742066756e647320696e206c6971756964697479206040820152631c1bdbdb60e21b606082015260800190565b602080825260139082015272185b1c9958591e481a5b9a5d1a585b1a5e9959606a1b604082015260600190565b6020808252601d908201527f6e6f742061207265676973746572656420626f72726f772070726f7879000000604082015260600190565b60208082526022908201527f45434453413a20696e76616c6964207369676e6174757265202776272076616c604082015261756560f01b606082015260800190565b60208082526019908201527f437265617465323a204661696c6564206f6e206465706c6f7900000000000000604082015260600190565b6020808252601f908201527f6661696c656420746f2072657475726e20626f6e6420746f206b656570657200604082015260600190565b60208082526021908201527f536166654d6174683a206d756c7469706c69636174696f6e206f766572666c6f6040820152607760f81b606082015260800190565b60208082526024908201527f6c69717569646974792072657175657374207369676e61747572652072656a6560408201526318dd195960e21b606082015260800190565b6020808252818101527f4f776e61626c653a2063616c6c6572206973206e6f7420746865206f776e6572604082015260600190565b602080825260169082015275189bdb99081cdd589b5a5cdcda5bdb8819985a5b195960521b604082015260600190565b6020808252600e908201526d18dc99585d194c8819985a5b195960921b604082015260600190565b6020808252818101527f6e6f7420612072656769737465726564206c697175696469747920746f6b656e604082015260600190565b60208082526017908201527f6c6f616e207265736f6c7574696f6e206661696c757265000000000000000000604082015260600190565b602080825260129082015271626f6e642062656c6f77206d696e696d756d60701b604082015260600190565b6020808252601d908201527f437265617465323a20696e73756666696369656e742062616c616e6365000000604082015260600190565b918252602082015260400190565b8151151581526020808301516001600160a01b0390811691830191909152604080840151821690830152606092830151169181019190915260800190565b600060208252825160c06020840152612fd160e084018251612641565b6020810151612fe4610100850182612641565b5060408101516101208401526060810151610140840152608081015161300e6101608501826126a1565b5060a081015160c061018085015261302a6101a085018261264e565b9150506020840151613040604085018251612641565b602081015161305260608601826126fa565b5090949350505050565b6000602082528251151560208301526020830151604080840152610a0960608401826126a7565b60405181810167ffffffffffffffff811182821017156130a257600080fd5b604052919050565b600067ffffffffffffffff8211156130c0578081fd5b5060209081020190565b600067ffffffffffffffff8211156130e0578081fd5b50601f01601f191660200190565b60005b838110156131095781810151838201526020016130f1565b838111156103f65750506000910152565b6001600160a01b038116811461312f57600080fd5b50565b801515811461312f57600080fd5b6001600160e01b03198116811461312f57600080fdfea2646970667358221220ce11041d9145af0d3f7bfb5db776cd28690ce136fa56c3c89dd268680cf5f6bd64736f6c63430006060033",
  "immutableReferences": {},
  "source": "pragma solidity ^0.6.0;\npragma experimental ABIEncoderV2;\n\nimport { Ownable } from \"openzeppelin-solidity/contracts/access/Ownable.sol\";\nimport { IShifterRegistry } from \"./interfaces/IShifterRegistry.sol\";\nimport { IShifter } from \"./interfaces/IShifter.sol\";\nimport { ShifterPoolLib } from \"./ShifterPoolLib.sol\";\nimport { ShifterBorrowProxyLib } from \"./ShifterBorrowProxyLib.sol\";\nimport { ShifterBorrowProxyFactoryLib } from \"./ShifterBorrowProxyFactoryLib.sol\";\nimport { ShifterBorrowProxy } from \"./ShifterBorrowProxy.sol\";\nimport { BorrowProxy } from \"./BorrowProxy.sol\";\nimport { BorrowProxyLib } from \"./BorrowProxyLib.sol\";\nimport { TokenUtils } from \"./utils/TokenUtils.sol\";\nimport { ViewExecutor } from \"./utils/ViewExecutor.sol\";\nimport { LiquidityToken } from \"./LiquidityToken.sol\";\nimport { SandboxLib } from \"./utils/sandbox/SandboxLib.sol\";\nimport { SafeViewExecutor } from \"./utils/sandbox/SafeViewExecutor.sol\";\nimport { Create2CloneFactory } from \"./utils/Create2CloneFactory.sol\";\n\ncontract ShifterPool is Ownable, SafeViewExecutor, Create2CloneFactory {\n  using SandboxLib for *;\n  using ShifterPoolLib for *;\n  using TokenUtils for *;\n  using ShifterBorrowProxyLib for *;\n  using ShifterBorrowProxyFactoryLib for *;\n  using BorrowProxyLib for *;\n  ShifterPoolLib.Isolate isolate;\n  function cloneConstructor(bytes calldata consData) external override {\n    // do nothing\n  }\n  constructor() Ownable() public {\n    isolate.genesis = block.number;\n  }\n  function setup(address shifterRegistry, uint256 minTimeout, uint256 poolFee, BorrowProxyLib.ModuleRegistration[] memory modules, ShifterPoolLib.LiquidityTokenLaunch[] memory tokenLaunches) public onlyOwner {\n    require(isolate.shifterRegistry == address(0x0), \"already initialized\");\n    isolate.shifterRegistry = shifterRegistry;\n    isolate.minTimeout = minTimeout;\n    isolate.poolFee = poolFee;\n    for (uint256 i = 0; i < modules.length; i++) {\n      BorrowProxyLib.ModuleRegistration memory registration = modules[i];\n      isolate.registry.registryRegisterModule(registration);\n    }\n    for (uint256 i = 0; i < tokenLaunches.length; i++) {\n      ShifterPoolLib.LiquidityTokenLaunch memory launch = tokenLaunches[i];\n      isolate.tokenToLiquidityToken[launch.token] = launch.liqToken;\n    }\n  }\n  bytes32 constant BORROW_PROXY_IMPLEMENTATION_SALT = 0xfe1e3164ba4910db3c9afd049cd8feb4552390569c846692e6df4ac68aeaa90e;\n  function deployBorrowProxyImplementation() public {\n    isolate.borrowProxyImplementation = isolate.makeBorrowProxy(BORROW_PROXY_IMPLEMENTATION_SALT);\n  }\n  function deployBorrowProxyClone(bytes32 salt) public returns (address payable created) {\n    created = address(uint160(create2Clone(isolate.borrowProxyImplementation, uint256(salt))));\n  }\n  function _executeBorrow(ShifterBorrowProxyLib.LiquidityRequestParcel memory liquidityRequestParcel, uint256 bond, uint256 timeoutExpiry) internal returns (bytes32 borrowerSalt) {\n    require(\n      liquidityRequestParcel.gasRequested == msg.value,\n      \"supplied ether is not equal to gas requested\"\n    );\n    require(\n      liquidityRequestParcel.validateSignature(\n        liquidityRequestParcel.computeLiquidityRequestHash()\n      ),\n      \"liquidity request signature rejected\"\n    );\n    ShifterBorrowProxyLib.LiquidityRequest memory liquidityRequest = liquidityRequestParcel.request;\n    borrowerSalt = liquidityRequest.computeBorrowerSalt();\n    address payable proxyAddress = address(uint160(isolate.borrowProxyImplementation.deriveBorrowerAddress(borrowerSalt)));\n    require(!isolate.borrowProxyController.isInitialized(proxyAddress), \"proxy has already been initialized\");\n    ShifterBorrowProxyLib.ProxyRecord memory proxyRecord = ShifterBorrowProxyLib.ProxyRecord({\n      request: liquidityRequest,\n      loan: ShifterBorrowProxyLib.LenderRecord(\n        msg.sender,\n        isolate.computeLoanParams(liquidityRequest.amount, bond, timeoutExpiry)\n      )\n    });\n    ShifterPoolLib.mapBorrowProxy(isolate, proxyAddress, proxyRecord);\n    isolate.issueLoan(liquidityRequest.token, proxyAddress, proxyRecord.computePostFee());\n    require(liquidityRequest.token.transferTokenFrom(msg.sender, address(this), bond), \"bond submission failed\");\n    return borrowerSalt;\n  }\n  function executeBorrow(ShifterBorrowProxyLib.LiquidityRequestParcel memory liquidityRequestParcel, uint256 bond, uint256 timeoutExpiry) public payable {\n    bytes32 salt = _executeBorrow(liquidityRequestParcel, bond, timeoutExpiry);\n    address payable proxyAddress = deployBorrowProxyClone(salt);\n    proxyAddress.setupBorrowProxy(liquidityRequestParcel.request.borrower, liquidityRequestParcel.request.token);\n    proxyAddress.sendInitializationActions(liquidityRequestParcel.request.actions);\n  }\n  function validateProxyRecordHandler(bytes memory proxyRecord) public view returns (bool) {\n    return isolate.borrowProxyController.validateProxyRecord(msg.sender, proxyRecord);\n  }\n  function getProxyTokenHandler(address proxyAddress) public view returns (address) {\n    return isolate.borrowProxyController.getProxyToken(proxyAddress);\n  }\n  function getProxyOwnerHandler(address user) public view returns (address) {\n    return isolate.borrowProxyController.getProxyOwner(user);\n  }\n  function getShifterHandler(address token) public view returns (IShifter) {\n    return isolate.getShifter(token);\n  }\n  function getLiquidityTokenHandler(address token) public view returns (LiquidityToken) {\n    return LiquidityToken(isolate.getLiquidityToken(token));\n  }\n  function fetchModuleHandler(address to, bytes4 sig) public view returns (BorrowProxyLib.Module memory) {\n    return isolate.registry.resolveModule(to, sig);\n  }\n  function relayResolveLoan(address token, address liquidityToken, address keeper, uint256 bond, uint256 repay) public returns (bool) {\n    require(isolate.borrowProxyController.proxyInitializerRecord[msg.sender] != bytes32(0x0), \"not a registered borrow proxy\");\n    if (bond != 0) require(token.sendToken(keeper, bond), \"failed to return bond to keeper\");\n    if (repay != 0) require(token.sendToken(liquidityToken, repay), \"failed to repay lost funds\");\n    require(LiquidityToken(liquidityToken).resolveLoan(msg.sender), \"loan resolution failure\");\n    return true;\n  }\n}\n",
  "sourcePath": "/home/ray/0confirmation/packages/0confirmation-sol/contracts/ShifterPool.sol",
  "compiler": {
    "name": "solc",
    "version": "0.6.6+commit.6c089d02.Emscripten.clang"
  },
  "schemaVersion": "3.1.0",
  "updatedAt": "2020-04-29T06:07:13.887Z",
  "devdoc": {
    "methods": {
      "owner()": {
        "details": "Returns the address of the current owner."
      },
      "renounceOwnership()": {
        "details": "Leaves the contract without owner. It will not be possible to call `onlyOwner` functions anymore. Can only be called by the current owner.     * NOTE: Renouncing ownership will leave the contract without an owner, thereby removing any functionality that is only available to the owner."
      },
      "transferOwnership(address)": {
        "details": "Transfers ownership of the contract to a new account (`newOwner`). Can only be called by the current owner."
      }
    }
  },
  "userdoc": {
    "methods": {}
  }
}