{
  "contractName": "ShifterBorrowProxy",
  "abi": [
    {
      "inputs": [],
      "stateMutability": "nonpayable",
      "type": "constructor"
    },
    {
      "stateMutability": "payable",
      "type": "fallback"
    },
    {
      "inputs": [
        {
          "internalType": "address",
          "name": "delegateTo",
          "type": "address"
        },
        {
          "internalType": "bytes",
          "name": "callData",
          "type": "bytes"
        }
      ],
      "name": "_executeQuery",
      "outputs": [
        {
          "internalType": "bytes",
          "name": "",
          "type": "bytes"
        }
      ],
      "stateMutability": "nonpayable",
      "type": "function"
    },
    {
      "inputs": [
        {
          "internalType": "bytes",
          "name": "creationCode",
          "type": "bytes"
        },
        {
          "internalType": "bytes",
          "name": "context",
          "type": "bytes"
        }
      ],
      "name": "_executeSafeView",
      "outputs": [],
      "stateMutability": "nonpayable",
      "type": "function"
    },
    {
      "inputs": [
        {
          "internalType": "address",
          "name": "to",
          "type": "address"
        },
        {
          "internalType": "uint256",
          "name": "value",
          "type": "uint256"
        },
        {
          "internalType": "bytes",
          "name": "payload",
          "type": "bytes"
        }
      ],
      "name": "proxy",
      "outputs": [],
      "stateMutability": "nonpayable",
      "type": "function"
    },
    {
      "inputs": [
        {
          "internalType": "address",
          "name": "viewLogic",
          "type": "address"
        },
        {
          "internalType": "bytes",
          "name": "payload",
          "type": "bytes"
        }
      ],
      "name": "query",
      "outputs": [
        {
          "internalType": "bytes",
          "name": "",
          "type": "bytes"
        }
      ],
      "stateMutability": "view",
      "type": "function"
    },
    {
      "inputs": [
        {
          "internalType": "bytes",
          "name": "creationCode",
          "type": "bytes"
        },
        {
          "internalType": "bytes",
          "name": "context",
          "type": "bytes"
        }
      ],
      "name": "safeQuery",
      "outputs": [
        {
          "components": [
            {
              "internalType": "bool",
              "name": "success",
              "type": "bool"
            },
            {
              "internalType": "bytes",
              "name": "data",
              "type": "bytes"
            }
          ],
          "internalType": "struct SafeViewLib.SafeViewResult",
          "name": "",
          "type": "tuple"
        }
      ],
      "stateMutability": "nonpayable",
      "type": "function"
    },
    {
      "inputs": [
        {
          "internalType": "address",
          "name": "owner",
          "type": "address"
        },
        {
          "internalType": "address",
          "name": "token",
          "type": "address"
        }
      ],
      "name": "setup",
      "outputs": [
        {
          "internalType": "bool",
          "name": "",
          "type": "bool"
        }
      ],
      "stateMutability": "nonpayable",
      "type": "function"
    },
    {
      "stateMutability": "payable",
      "type": "receive"
    },
    {
      "inputs": [
        {
          "internalType": "bytes",
          "name": "data",
          "type": "bytes"
        }
      ],
      "name": "repayLoan",
      "outputs": [
        {
          "internalType": "bool",
          "name": "",
          "type": "bool"
        }
      ],
      "stateMutability": "nonpayable",
      "type": "function"
    },
    {
      "inputs": [
        {
          "internalType": "bytes",
          "name": "data",
          "type": "bytes"
        }
      ],
      "name": "defaultLoan",
      "outputs": [
        {
          "internalType": "bool",
          "name": "",
          "type": "bool"
        }
      ],
      "stateMutability": "nonpayable",
      "type": "function"
    },
    {
      "inputs": [
        {
          "components": [
            {
              "internalType": "address",
              "name": "to",
              "type": "address"
            },
            {
              "internalType": "bytes",
              "name": "txData",
              "type": "bytes"
            }
          ],
          "internalType": "struct ShifterBorrowProxyLib.InitializationAction[]",
          "name": "actions",
          "type": "tuple[]"
        }
      ],
      "name": "receiveInitializationActions",
      "outputs": [
        {
          "components": [
            {
              "components": [
                {
                  "components": [
                    {
                      "internalType": "address",
                      "name": "to",
                      "type": "address"
                    },
                    {
                      "internalType": "bytes",
                      "name": "txData",
                      "type": "bytes"
                    }
                  ],
                  "internalType": "struct ShifterBorrowProxyLib.InitializationAction",
                  "name": "input",
                  "type": "tuple"
                },
                {
                  "components": [
                    {
                      "internalType": "bool",
                      "name": "success",
                      "type": "bool"
                    },
                    {
                      "internalType": "bytes",
                      "name": "returnData",
                      "type": "bytes"
                    }
                  ],
                  "internalType": "struct SandboxLib.Result",
                  "name": "output",
                  "type": "tuple"
                }
              ],
              "internalType": "struct SandboxLib.ProtectedExecution[]",
              "name": "trace",
              "type": "tuple[]"
            },
            {
              "internalType": "uint256",
              "name": "pc",
              "type": "uint256"
            }
          ],
          "internalType": "struct SandboxLib.Context",
          "name": "context",
          "type": "tuple"
        }
      ],
      "stateMutability": "nonpayable",
      "type": "function"
    }
  ],
  "bytecode": "0x608060405234801561001057600080fd5b50613016806100206000396000f3fe60806040526004361061008a5760003560e01c80635f7d2b57116100595780635f7d2b57146101365780635fe7595814610156578063c4ddf36314610183578063f07827c7146101a3578063fd00430c146101d057610091565b806323e3b730146100935780632692f25a146100c95780632d34ba79146100e957806356b8e1461461011657610091565b3661009157005b005b34801561009f57600080fd5b506100b36100ae3660046121f6565b6101f0565b6040516100c09190612899565b60405180910390f35b3480156100d557600080fd5b506100916100e4366004612243565b61028f565b3480156100f557600080fd5b506101096101043660046121be565b61051c565b6040516100c0919061285f565b34801561012257600080fd5b50610109610131366004612388565b610586565b34801561014257600080fd5b506100916101513660046123ba565b61093a565b34801561016257600080fd5b50610176610171366004612299565b610a23565b6040516100c09190612d2a565b34801561018f57600080fd5b5061010961019e366004612388565b610a5e565b3480156101af57600080fd5b506101c36101be3660046123ba565b610ef2565b6040516100c09190612ebe565b3480156101dc57600080fd5b506100b36101eb3660046121f6565b610f11565b606033301461021a5760405162461bcd60e51b815260040161021190612991565b60405180910390fd5b60006060846001600160a01b0316846040516102369190612788565b600060405180830381855af49150503d8060008114610271576040519150601f19603f3d011682016040523d82523d6000602084013e610276565b606091505b50915091508161028557600080fd5b9150505b92915050565b6001546001600160a01b03163314806102b257506000546001600160a01b031633145b6102ce5760405162461bcd60e51b815260040161021190612aac565b60006102ea6102e58383600463ffffffff610fa616565b610fcf565b60e01b90506102f7611d69565b604051632f1a48af60e01b815273__BorrowProxyLib________________________90632f1a48af906103339060009089908790600401612dc3565b60c06040518083038186803b15801561034b57600080fd5b505af415801561035f573d6000803e3d6000fd5b505050506040513d601f19601f820116820180604052508101906103839190612490565b6002546001600160a01b03166020820152600054909150600160a01b900460ff1680156103b35750604081015151155b156104565760006060866001600160a01b031686866040516103d59190612788565b60006040518083038185875af1925050503d8060008114610412576040519150601f19603f3d011682016040523d82523d6000602084013e610417565b606091505b5091509150816104435761042a81610fec565b60405162461bcd60e51b81526004016102119190612899565b61044d82826110df565b50505050610517565b61046381604001516110f4565b61047f5760405162461bcd60e51b81526004016102119061295a565b6000606061049483868863ffffffff61110616565b91509150816104a65761042a81610fec565b60408084015101516001600160a01b0316156104d65760408084015101516104d69060079063ffffffff61121616565b6040830151606001516001600160a01b031615610508576040830151606001516105089060099063ffffffff61121616565b61051282826110df565b505050505b505050565b6001546000906001600160a01b0316156105485760405162461bcd60e51b8152600401610211906128d1565b5060008054336001600160a01b0319918216179091556001805482166001600160a01b03948516178155600280549092169290931691909117905590565b60065460009060ff16156105ac5760405162461bcd60e51b81526004016102119061292f565b600054600160a01b900460ff16156105d65760405162461bcd60e51b815260040161021190612b2c565b6105df82611270565b6105fb5760405162461bcd60e51b815260040161021190612a49565b610603611d8d565b61060c836112f3565b600880546040805160208084028201810190925282815293945060609392919083018282801561066557602002820191906000526020600020905b81546001600160a01b03168152600190910190602001808311610647575b5050505050905043826020015160200151600001511061092e576006805461ff0019166101001790556004545b81518110156106ea576207a1205a10806106ce57506106cc8282815181106106b657fe5b60200260200101516001600160a01b031661130f565b155b156106e25760045550600091506109359050565b600101610692565b5080516004908155600080548451602001516040516370a0823160e01b81526001600160a01b039283169491909216916370a082319161072c913091016127a4565b60206040518083038186803b15801561074457600080fd5b505afa158015610758573d6000803e3d6000fd5b505050506040513d601f19601f8201168201806040525081019061077c919061269e565b84516020015190915061079f906001600160a01b0316838363ffffffff61139016565b6107bb5760405162461bcd60e51b815260040161021190612c4b565b60208085015181015101518451606001518210156107f55784516060015182038111156107f157845160600151820390036107f5565b5060005b8451602001516040516303cc556d60e51b8152828403916001600160a01b0386169163801874ec9190839063798aada0906108349084906004016127a4565b60206040518083038186803b15801561084c57600080fd5b505afa158015610860573d6000803e3d6000fd5b505050506040513d601f19601f820116820180604052508101906108849190612410565b60208a0151516040516001600160e01b031960e086901b1681526108b193929190889088906004016127b8565b602060405180830381600087803b1580156108cb57600080fd5b505af11580156108df573d6000803e3d6000fd5b505050506040513d601f19601f82011682018060405250810190610903919061236c565b61091f5760405162461bcd60e51b815260040161021190612c14565b60019650505050505050610935565b6000925050505b919050565b3033146109595760405162461bcd60e51b8152600401610211906129d3565b60006109857fad53495153c7c363e98a26920ec679e0e687636458f6908c91cf6deadb19080184611402565b905060606109aa6109a56001600160a01b0384168563ffffffff61143716565b6114c1565b90506000826001600160a01b03166109c06114ea565b6040516109cd9190612788565b6000604051808303816000865af19150503d8060008114610a0a576040519150601f19603f3d011682016040523d82523d6000602084013e610a0f565b606091505b50509050610a1c82611516565b5050505050565b610a2b611dad565b6000546001600160a01b03163314610a555760405162461bcd60e51b815260040161021190612a77565b6102898261151e565b6000610a68611dc7565b610a7183611628565b9050610a88610a838260000151611644565b611270565b610aa45760405162461bcd60e51b815260040161021190612a49565b600654610100900460ff1615610acc5760405162461bcd60e51b815260040161021190612bdd565b8051805160600151600091610ae69163ffffffff61165716565b60008054845151602001516040516303cc556d60e51b815293945091926001600160a01b039091169163798aada091610b2291906004016127a4565b60206040518083038186803b158015610b3a57600080fd5b505afa158015610b4e573d6000803e3d6000fd5b505050506040513d601f19601f82011682018060405250810190610b729190612410565b60065490915060009060ff16610cff576006805460ff19166001179055600054845151602001516040516307ef1e3760e21b81526001600160a01b0390921691631fbc78dc91610bc4916004016127a4565b60206040518083038186803b158015610bdc57600080fd5b505afa158015610bf0573d6000803e3d6000fd5b505050506040513d601f19601f82011682018060405250810190610c149190612410565b6001600160a01b031663159ab14d856060015186600001516000015160600151610c3d88611690565b88608001516040518563ffffffff1660e01b8152600401610c61949392919061286a565b602060405180830381600087803b158015610c7b57600080fd5b505af1158015610c8f573d6000803e3d6000fd5b505050506040513d601f19601f82011682018060405250810190610cb3919061269e565b600381905584515160200151909150610cde906001600160a01b03168385840363ffffffff61139016565b610cfa5760405162461bcd60e51b815260040161021190612a1a565b610d04565b506003545b600a80546040805160208084028201810190925282815260609390929091830182828015610d5b57602002820191906000526020600020905b81546001600160a01b03168152600190910190602001808311610d3d575b50506005549394505050505b8151811015610dc2576207a1205a1080610da35750610da1828281518110610d8b57fe5b60200260200101516001600160a01b03166116a9565b155b15610dba5760055550600094506109359350505050565b600101610d67565b506000805460ff60a01b1916600160a01b17905584516020808201515191510151610dff916001600160a01b03909116908663ffffffff61139016565b610e1b5760405162461bcd60e51b815260040161021190612901565b600080548651805160209081015191810151805190820151909101516040516320061d3b60e21b81526001600160a01b039094169463801874ec94610e6994938a93909290916004016127b8565b602060405180830381600087803b158015610e8357600080fd5b505af1158015610e97573d6000803e3d6000fd5b505050506040513d601f19601f82011682018060405250810190610ebb919061236c565b610ed75760405162461bcd60e51b815260040161021190612b9a565b8451805151610ee5916116c1565b5060019695505050505050565b610efa611dfe565b610f0a838363ffffffff61170616565b9392505050565b606060006060846001600160a01b0316610f2b8686611777565b604051610f389190612788565b600060405180830381855afa9150503d8060008114610f73576040519150601f19603f3d011682016040523d82523d6000602084013e610f78565b606091505b5091509150818190610f9d5760405162461bcd60e51b81526004016102119190612899565b50949350505050565b610fae611e16565b610fb884846117bd565b815260208101919091526040810191909152919050565b8051602082015160009190610fe482826117c4565b949350505050565b6060815160001415611032575060408051808201909152601c81527f636170747572656420656d7074792072657665727420627566666572000000006020820152610935565b6308c379a06110476102e58460006004610fa6565b63ffffffff1614611072576040518060600160405280603f8152602001612fa2603f91399050610935565b606061108d61108884600463ffffffff6117e116565b611805565b90508051600014156110d457505060408051808201909152601d81527f636170747572656420656d70747920726576657274206d6573736167650000006020820152610935565b6060610fe482611874565b816110ec57805181602001fd5b805181602001f35b602001516001600160a01b0316151590565b60006060600060608660400151602001516001600160a01b03165a6111b96040518061010001604052808b60400151602001516001600160a01b031681526020018b60400151604001516001600160a01b031681526020018b60400151606001516001600160a01b031681526020018b602001516001600160a01b03168152602001326001600160a01b031681526020018b600001516001600160a01b031681526020018981526020018a81525061188a565b6040516111c69190612788565b6000604051808303818686f4925050503d8060008114611202576040519150601f19603f3d011682016040523d82523d6000602084013e611207565b606091505b50909890975095505050505050565b6001600160a01b03811660009081526020839052604090205460ff161561123c5761126c565b6001828101805491820181556000908152602090200180546001600160a01b0319166001600160a01b0383161790555b5050565b600080546040516308f6049560e01b81526001600160a01b03909116906308f60495906112a1908590600401612899565b602060405180830381600087803b1580156112bb57600080fd5b505af11580156112cf573d6000803e3d6000fd5b505050506040513d601f19601f82011682018060405250810190610289919061236c565b6112fb611d8d565b818060200190518101906102899190612541565b6000806060836001600160a01b0316611327856118dd565b6040516113349190612788565b600060405180830381855af49150503d806000811461136f576040519150601f19603f3d011682016040523d82523d6000602084013e611374565b606091505b5091509150816113875761042a81610fec565b610fe481611920565b600080846001600160a01b03166113a78585611936565b6040516113b49190612788565b6000604051808303816000865af19150503d80600081146113f1576040519150601f19603f3d011682016040523d82523d6000602084013e6113f6565b606091505b50909695505050505050565b600080838351602085016000f590506001600160a01b038116610f0a5760405162461bcd60e51b815260040161021190612af5565b61143f611dfe565b60006060846001600160a01b03166114568561198c565b6040516114639190612788565b600060405180830381855af49150503d806000811461149e576040519150601f19603f3d011682016040523d82523d6000602084013e6114a3565b606091505b50604080518082019091529115158252602082015295945050505050565b6060816040516020016114d49190612ebe565b6040516020818303038152906040529050919050565b6040805160048152602481019091526020810180516001600160e01b031663083197ef60e41b17905290565b805160208201fd5b611526611dad565b61152e611dad565b611537836119a7565b905061154281611a60565b8251816020015110156102895761155881611a70565b611560611e37565b61156982611a81565b9050611573611dfe565b50805180516001600160a01b0316158015611594575061159283611aa9565b155b156115a0575050611618565b60006060306115ae84611b66565b6040516115bb9190612788565b6000604051808303816000865af19150503d80600081146115f8576040519150601f19603f3d011682016040523d82523d6000602084013e6115fd565b606091505b50602095860180519215159092529051909401939093525050505b6020810180516001019052611542565b611630611dc7565b8180602001905181019061028991906125f1565b6060816040516020016114d49190612dec565b6000610f0a670de0b6b3a76400006116848560200151602001516060015185611b8c90919063ffffffff16565b9063ffffffff611bc616565b600061169b82611c08565b805190602001209050919050565b6000806060836001600160a01b031661132785611c2d565b816001600160a01b03167fde947e8b6051ad11f984637f1fd1be5fc4b62225fcbf933475f7783ac5e2bd5f826040516116fa9190612dec565b60405180910390a25050565b61170e611dfe565b60603061171b8585611c70565b6040516117289190612788565b6000604051808303816000865af19150503d8060008114611765576040519150601f19603f3d011682016040523d82523d6000602084013e61176a565b606091505b5091505061028581611c8d565b6060828260405160240161178c9291906127ec565b60408051601f198184030181529190526020810180516001600160e01b031663023e3b7360e41b1790529392505050565b0160200190565b6000600180600884021b0380836020038503511691505092915050565b6117e9611e16565b81835110156117f757825191505b610f0a838384865103610fa6565b6020810151606090806001600160401b038111801561182357600080fd5b506040519080825280601f01601f19166020018201604052801561184e576020820181803683370190505b508351909250600061185f84611ca9565b905061186c818385611caf565b505050919050565b606081806020019051810190610289919061242c565b6060633c52e5a160e01b826040516024016118a59190612c95565b60408051601f198184030181529190526020810180516001600160e01b03166001600160e01b03199093169290921790915292915050565b6060816040516024016118f091906127a4565b60408051601f198184030181529190526020810180516001600160e01b03166305f0caad60e31b17905292915050565b600081806020019051810190610289919061236c565b606063a9059cbb60e01b8383604051602401611953929190612846565b60408051601f198184030181529190526020810180516001600160e01b03166001600160e01b0319909316929092179091529392505050565b60606309c5eabe60e01b826040516024016118a59190612899565b6119af611dad565b606082516001600160401b03811180156119c857600080fd5b50604051908082528060200260200182016040528015611a0257816020015b6119ef611e37565b8152602001906001900390816119e75790505b50905060005b8351811015611a4557838181518110611a1d57fe5b6020026020010151828281518110611a3157fe5b602090810291909101015152600101611a08565b50604080518082019091529081526000602082015292915050565b8051611a6d906000611ced565b50565b805180516105178260018301611ced565b611a89611e37565b8151602083015181518110611a9a57fe5b60200260200101519050919050565b6000611ab3611e37565b611abc83611a81565b9050611ac783611cf1565b611acf611dfe565b611aed611adb85611d03565b8351602001519063ffffffff61170616565b9050611af884611a70565b6040805160008152602080820190925283519091015280511580611b1a575080515b15611b2a57600092505050610935565b611b32611dfe565b611b3f8260200151611d16565b6020818101518551909101525192516001600160a01b039093169092525060019392505050565b80516020820151604051606092631349792d60e11b926118a59260009190602401612810565b600082611b9b57506000610289565b82820282848281611ba857fe5b0414610f0a5760405162461bcd60e51b815260040161021190612b59565b6000610f0a83836040518060400160405280601a81526020017f536166654d6174683a206469766973696f6e206279207a65726f000000000000815250611d32565b8051516040908101516020808401518385015193516060946114d49493909101612772565b606081604051602401611c4091906127a4565b60408051601f198184030181529190526020810180516001600160e01b0316639f7c73e960e01b17905292915050565b6060635f7d2b5760e01b83836040516024016119539291906128ac565b611c95611dfe565b818060200190518101906102899190612573565b60200190565b5b60208110611ccf578151835260209283019290910190601f1901611cb0565b600180600883602003021b0380845116811984511617845250505050565b9052565b80518051611a6d919060001901611ced565b6060816040516020016114d49190612d2a565b611d1e611dfe565b81806020019051810190610289919061245e565b60008183611d535760405162461bcd60e51b81526004016102119190612899565b506000838581611d5f57fe5b0495945050505050565b6040805160608101825260008082526020820152908101611d88611e57565b905290565b6040518060400160405280611da0611e7e565b8152602001611d88611eb5565b604051806040016040528060608152602001600081525090565b6040518060a00160405280611dda611d8d565b81526000602082018190526040820181905260608083019190915260809091015290565b60408051808201909152600081526060602082015290565b60405180606001604052806000815260200160008152602001600081525090565b6040518060400160405280611e4a611dfe565b8152602001611d88611dfe565b60408051608081018252600080825260208201819052918101829052606081019190915290565b6040805160c0810182526000808252602082018190529181018290526060808201839052608082019290925260a081019190915290565b604051806040016040528060006001600160a01b03168152602001611d886040518060800160405280600081526020016000815260200160008152602001600081525090565b600082601f830112611f0b578081fd5b8151611f1e611f1982612ef7565b612ed1565b818152915060208083019084810160005b84811015611f5857611f46888484518a010161200e565b84529282019290820190600101611f2f565b505050505092915050565b8051801515811461028957600080fd5b600082601f830112611f83578081fd5b8135611f91611f1982612f16565b9150808252836020828501011115611fa857600080fd5b8060208401602084013760009082016020015292915050565b600082601f830112611fd1578081fd5b8151611fdf611f1982612f16565b9150808252836020828501011115611ff657600080fd5b612007816020840160208601612f4e565b5092915050565b60006040828403121561201f578081fd5b6120296040612ed1565b9050815161203681612f7e565b815260208201516001600160401b0381111561205157600080fd5b61205d84828501611fc1565b60208301525092915050565b600081830360a081121561207b578182fd5b6120856040612ed1565b9150825161209281612f7e565b82526080601f19820112156120a657600080fd5b506120b16080612ed1565b602083015181526040830151602082015260608301516040820152608083015160608201528060208301525092915050565b600060c082840312156120f4578081fd5b6120fe6040612ed1565b905081516001600160401b038082111561211757600080fd5b81840160c0818703121561212a57600080fd5b61213460c0612ed1565b9250805161214181612f7e565b8352602081015161215181612f7e565b8060208501525060408101516040840152606081015160608401526121798660808301611f63565b608084015260a08101518281111561219057600080fd5b61219c87828401611efb565b60a085015250505081526121b38360208401612069565b602082015292915050565b600080604083850312156121d0578182fd5b82356121db81612f7e565b915060208301356121eb81612f7e565b809150509250929050565b60008060408385031215612208578182fd5b823561221381612f7e565b915060208301356001600160401b0381111561222d578182fd5b61223985828601611f73565b9150509250929050565b600080600060608486031215612257578081fd5b833561226281612f7e565b92506020840135915060408401356001600160401b03811115612283578182fd5b61228f86828701611f73565b9150509250925092565b600060208083850312156122ab578182fd5b82356001600160401b03808211156122c1578384fd5b81850186601f8201126122d2578485fd5b803592506122e2611f1984612ef7565b83815284810190828601875b8681101561235d5781358501604080601f19838f0301121561230e578a8bfd5b61231781612ed1565b8a83013561232481612f7e565b81528282013589811115612336578c8dfd5b6123448f8d83870101611f73565b828d0152508652505092870192908701906001016122ee565b50909998505050505050505050565b60006020828403121561237d578081fd5b8151610f0a81612f93565b600060208284031215612399578081fd5b81356001600160401b038111156123ae578182fd5b61028584828501611f73565b600080604083850312156123cc578182fd5b82356001600160401b03808211156123e2578384fd5b6123ee86838701611f73565b93506020850135915080821115612403578283fd5b5061223985828601611f73565b600060208284031215612421578081fd5b8151610f0a81612f7e565b60006020828403121561243d578081fd5b81516001600160401b03811115612452578182fd5b61028584828501611fc1565b60006020828403121561246f578081fd5b81516001600160401b03811115612484578182fd5b6102858482850161200e565b600081830360c08112156124a2578182fd5b6124ac6060612ed1565b83516124b781612f7e565b815260208401516124c781612f7e565b60208201526080603f19830112156124dd578283fd5b6124e76080612ed1565b915060408401516124f781612f93565b8252606084015161250781612f7e565b6020830152608084015161251a81612f7e565b604083015260a084015161252d81612f7e565b606083015260408101919091529392505050565b600060208284031215612552578081fd5b81516001600160401b03811115612567578182fd5b610285848285016120e3565b600060208284031215612584578081fd5b81516001600160401b038082111561259a578283fd5b818401604081870312156125ac578384fd5b6125b66040612ed1565b92506125c28682611f63565b83526020810151828111156125d5578485fd5b6125e187828401611fc1565b6020850152509195945050505050565b600060208284031215612602578081fd5b81516001600160401b0380821115612618578283fd5b81840160a0818703121561262a578384fd5b61263460a0612ed1565b9250805182811115612644578485fd5b612650878284016120e3565b845250602081015160208401526040810151604084015260608101516060840152608081015182811115612682578485fd5b61268e87828401611fc1565b6080850152509195945050505050565b6000602082840312156126af578081fd5b5051919050565b6001600160a01b03169052565b600081518084526126db816020860160208601612f4e565b601f01601f19169290920160200192915050565b600060018060a01b03825116835260208201516040602085015261028560408501826126c3565b60018060a01b038151168252602081015180516020840152602081015160408401526040810151606084015260608101516080840152505050565b600081511515835260208201516040602085015261028560408501826126c3565b9283526020830191909152604082015260600190565b6000825161279a818460208701612f4e565b9190910192915050565b6001600160a01b0391909116815260200190565b6001600160a01b03958616815293851660208501529190931660408301526060820192909252608081019190915260a00190565b6001600160a01b0383168152604060208201819052600090610fe4908301846126c3565b6001600160a01b038416815260ff8316602082015260606040820181905260009061283d908301846126c3565b95945050505050565b6001600160a01b03929092168252602082015260400190565b901515815260200190565b60008582528460208301528360408301526080606083015261288f60808301846126c3565b9695505050505050565b600060208252610f0a60208301846126c3565b6000604082526128bf60408301856126c3565b828103602084015261283d81856126c3565b60208082526016908201527563616e277420696e697469616c697a6520747769636560501b604082015260600190565b6020808252601490820152731ad9595c195c881c185e5bdd5d0819985a5b195960621b604082015260600190565b6020808252601190820152701b1bd85b8818995a5b99c81c995c185a59607a1b604082015260600190565b6020808252601f908201527f66756e6374696f6e2068616e646c6572206e6f74207265676973746572656400604082015260600190565b60208082526022908201527f756e617574686f72697a65642076696577206c617965722064656c656761746960408201526137b760f11b606082015260800190565b60208082526027908201527f7361666520766965772063616e206f6e6c792062652074726967676572656420604082015266313c9039b2b63360c91b606082015260800190565b6020808252601590820152741d1bdad95b881d1c985b9cd9995c8819985a5b1959605a1b604082015260600190565b6020808252601490820152731c1c9bde1e481c9958dbdc99081a5b9d985b1a5960621b604082015260600190565b6020808252818101527f6d7573742062652063616c6c65642066726f6d207368696674657220706f6f6c604082015260600190565b60208082526029908201527f626f72726f772070726f78792063616e206f6e6c792062652075736564206279604082015268103137b93937bbb2b960b91b606082015260800190565b60208082526019908201527f437265617465323a204661696c6564206f6e206465706c6f7900000000000000604082015260600190565b6020808252601390820152721b1bd85b88185b1c9958591e481c995c185a59606a1b604082015260600190565b60208082526021908201527f536166654d6174683a206d756c7469706c69636174696f6e206f766572666c6f6040820152607760f81b606082015260800190565b60208082526023908201527f6c6f616e207265736f6c7574696f6e206e6f74696669636174696f6e206661696040820152621b195960ea1b606082015260800190565b60208082526019908201527f70726f7879206973206265696e67206c69717569646174656400000000000000604082015260600190565b60208082526017908201527f6c6f616e207265736f6c7574696f6e206661696c757265000000000000000000604082015260600190565b6020808252602a908201527f6661696c656420746f207472616e73666572207265636c61696d65642066756e604082015269191cc81d1bc81c1bdbdb60b21b606082015260800190565b60006020825260018060a01b03808451166020840152806020850151166040840152506040830151612cca60608401826126b6565b506060830151612cdd60808401826126b6565b506080830151612cf060a08401826126b6565b5060a0830151612d0360c08401826126b6565b5060c083015160e083015260e08301516101008081850152506102856101208401826126c3565b6000602080835260608301845160408084870152828251808552608088019150608086820289010194508584018794505b81851015612dad57888603607f1901835280518051858852612d7f868901826126ef565b8983015191508881038a8a0152612d968183612751565b985050506001959095019450918601918601612d5b565b5050509290950151939091019290925250919050565b9283526001600160a01b039190911660208301526001600160e01b031916604082015260600190565b60006020808352835160c0828501526101a08401612e0a8251612f42565b60e0860152828201516001600160a01b0316610100860152604082015161012086015260608201516101408601526080820151151561016086015260a09091015160c06101808601528051829190612e628184612f39565b9350839250859181860284019086015b82841015612e9e578482038652612e8a8282516126ef565b958701956001949094019391508601612e72565b50858901519450612eb26040890186612716565b98975050505050505050565b600060208252610f0a6020830184612751565b6040518181016001600160401b0381118282101715612eef57600080fd5b604052919050565b60006001600160401b03821115612f0c578081fd5b5060209081020190565b60006001600160401b03821115612f2b578081fd5b50601f01601f191660200190565b90815260200190565b6001600160a01b031690565b60005b83811015612f69578181015183820152602001612f51565b83811115612f78576000848401525b50505050565b6001600160a01b0381168114611a6d57600080fd5b8015158114611a6d57600080fdfe6361707475726564206120726576657274206572726f722c2062757420697420646f65736e277420636f6e666f726d20746f20746865207374616e64617264a2646970667358221220251fb883dae3c5ce0a619fde150378f5bdd448b191b0a4f92673a2182c38b35664736f6c63430006060033",
  "source": "pragma solidity ^0.6.0;\npragma experimental ABIEncoderV2;\n\nimport { BorrowProxy } from \"./BorrowProxy.sol\";\nimport { ShifterPool } from \"./ShifterPool.sol\";\nimport { ShifterBorrowProxyLib } from \"./ShifterBorrowProxyLib.sol\";\nimport { ILiquidationModule } from \"./interfaces/ILiquidationModule.sol\";\nimport { TokenUtils } from \"./utils/TokenUtils.sol\";\nimport { LiquidityToken } from \"./LiquidityToken.sol\";\nimport { IERC20 } from \"openzeppelin-solidity/contracts/token/ERC20/IERC20.sol\";\nimport { SafeViewExecutor } from \"./utils/SafeView.sol\";\nimport { SandboxLib } from \"./SandboxLib.sol\";\n\ncontract ShifterBorrowProxy is BorrowProxy, SafeViewExecutor {\n  using ShifterBorrowProxyLib for *;\n  using SandboxLib for *;\n  using TokenUtils for *;\n  constructor() BorrowProxy() public {}\n  uint256 constant MINIMUM_GAS_CONTINUE = 5e5;\n  function repayLoan(bytes memory data) public returns (bool) {\n    (ShifterBorrowProxyLib.TriggerParcel memory parcel) = data.decodeTriggerParcel();\n    require(validateProxyRecord(parcel.record.encodeProxyRecord()), \"proxy record invalid\");\n    require(!isolate.isLiquidating, \"proxy is being liquidated\");\n    uint256 fee = parcel.record.computeAdjustedKeeperFee(parcel.record.request.amount);\n    LiquidityToken liquidityToken = ShifterPool(isolate.masterAddress).getLiquidityTokenHandler(parcel.record.request.token);\n    uint256 amount;\n    if (!isolate.isRepaying) {\n      isolate.isRepaying = true;\n      isolate.actualizedShift = amount = ShifterPool(isolate.masterAddress).getShifterHandler(parcel.record.request.token).mint(parcel.pHash, parcel.record.request.amount, parcel.computeNHash(), parcel.darknodeSignature);\n      require(parcel.record.request.token.sendToken(address(liquidityToken), amount - fee), \"token transfer failed\");\n    } else amount = isolate.actualizedShift;\n    address[] memory set = isolate.repaymentSet.set;\n    for (uint256 i = isolate.repaymentIndex; i < set.length; i++) {\n      if (gasleft() < MINIMUM_GAS_CONTINUE || !set[i].delegateRepay()) {\n        isolate.repaymentIndex = i;\n        return false;\n      }\n    }\n    isolate.unbound = true;\n    require(parcel.record.request.token.sendToken(parcel.record.loan.keeper, fee), \"keeper payout failed\");\n    require(ShifterPool(isolate.masterAddress).relayResolveLoan(parcel.record.request.token, address(liquidityToken), parcel.record.loan.keeper, parcel.record.loan.params.bond, 0), \"loan resolution notification failed\");\n    ShifterBorrowProxyLib.emitShifterBorrowProxyRepaid(parcel.record.request.borrower, parcel.record);\n    return true;\n  }\n  function defaultLoan(bytes memory data) public returns (bool) {\n    require(!isolate.isRepaying, \"loan being repaid\");\n    require(!isolate.unbound, \"loan already repaid\");\n    require(validateProxyRecord(data), \"proxy record invalid\");\n    ShifterBorrowProxyLib.ProxyRecord memory record = data.decodeProxyRecord();\n    address[] memory set = isolate.liquidationSet.set;\n    if (record.loan.params.timeoutExpiry >= block.number) {\n      isolate.isLiquidating = true;\n      for (uint256 i = isolate.liquidationIndex; i < set.length; i++) {\n        if (gasleft() < MINIMUM_GAS_CONTINUE || !set[i].delegateLiquidate()) {\n          isolate.liquidationIndex = i;\n          return false;\n        }\n      }\n      isolate.liquidationIndex = set.length;\n      ShifterPool pool = ShifterPool(isolate.masterAddress);\n      uint256 postBalance = IERC20(record.request.token).balanceOf(address(this));\n      require(record.request.token.sendToken(address(pool), postBalance), \"failed to transfer reclaimed funds to pool\");\n      uint256 bond = record.loan.params.bond;\n      if (postBalance < record.request.amount) {\n        if (bond > postBalance - record.request.amount) {\n          bond -= (postBalance - record.request.amount);\n        } else {\n          bond = 0;\n        }\n      }\n      uint256 repay = postBalance - bond;\n      require(pool.relayResolveLoan(record.request.token, address(pool.getLiquidityTokenHandler(record.request.token)), record.loan.keeper, bond, repay), \"loan resolution failure\");\n      return true;\n    }\n    return false;\n  }\n  function receiveInitializationActions(ShifterBorrowProxyLib.InitializationAction[] memory actions) public returns (SandboxLib.Context memory context) {\n    require(msg.sender == address(isolate.masterAddress), \"must be called from shifter pool\");\n    context = actions.processActions();\n  }\n  fallback() external payable override {}\n  receive() external payable override {}\n}\n",
  "sourcePath": "/home/ray/0confirmation/packages/0confirmation-sol/contracts/ShifterBorrowProxy.sol",
  "compiler": {
    "name": "solc",
    "version": "0.6.6+commit.6c089d02.Emscripten.clang"
  },
  "schemaVersion": "3.0.23",
  "updatedAt": "2020-04-23T03:22:45.193Z",
  "devdoc": {
    "methods": {}
  },
  "userdoc": {
    "methods": {}
  }
}