{
  "contractName": "ShifterPool",
  "abi": [
    {
      "anonymous": false,
      "inputs": [
        {
          "indexed": true,
          "internalType": "address",
          "name": "previousOwner",
          "type": "address"
        },
        {
          "indexed": true,
          "internalType": "address",
          "name": "newOwner",
          "type": "address"
        }
      ],
      "name": "OwnershipTransferred",
      "type": "event"
    },
    {
      "inputs": [
        {
          "internalType": "address",
          "name": "delegateTo",
          "type": "address"
        },
        {
          "internalType": "bytes",
          "name": "callData",
          "type": "bytes"
        }
      ],
      "name": "_executeQuery",
      "outputs": [
        {
          "internalType": "bytes",
          "name": "",
          "type": "bytes"
        }
      ],
      "stateMutability": "nonpayable",
      "type": "function"
    },
    {
      "inputs": [],
      "name": "owner",
      "outputs": [
        {
          "internalType": "address",
          "name": "",
          "type": "address"
        }
      ],
      "stateMutability": "view",
      "type": "function"
    },
    {
      "inputs": [
        {
          "internalType": "address",
          "name": "viewLogic",
          "type": "address"
        },
        {
          "internalType": "bytes",
          "name": "payload",
          "type": "bytes"
        }
      ],
      "name": "query",
      "outputs": [
        {
          "internalType": "bytes",
          "name": "",
          "type": "bytes"
        }
      ],
      "stateMutability": "view",
      "type": "function"
    },
    {
      "inputs": [],
      "name": "renounceOwnership",
      "outputs": [],
      "stateMutability": "nonpayable",
      "type": "function"
    },
    {
      "inputs": [
        {
          "internalType": "address",
          "name": "newOwner",
          "type": "address"
        }
      ],
      "name": "transferOwnership",
      "outputs": [],
      "stateMutability": "nonpayable",
      "type": "function"
    },
    {
      "inputs": [
        {
          "internalType": "address",
          "name": "shifterRegistry",
          "type": "address"
        },
        {
          "internalType": "uint256",
          "name": "minTimeout",
          "type": "uint256"
        },
        {
          "internalType": "uint256",
          "name": "poolFee",
          "type": "uint256"
        },
        {
          "components": [
            {
              "internalType": "enum BorrowProxyLib.ModuleRegistrationType",
              "name": "moduleType",
              "type": "uint8"
            },
            {
              "internalType": "address",
              "name": "target",
              "type": "address"
            },
            {
              "internalType": "bytes4[]",
              "name": "sigs",
              "type": "bytes4[]"
            },
            {
              "components": [
                {
                  "internalType": "address",
                  "name": "assetSubmodule",
                  "type": "address"
                },
                {
                  "internalType": "address",
                  "name": "liquidationSubmodule",
                  "type": "address"
                },
                {
                  "internalType": "address",
                  "name": "repaymentSubmodule",
                  "type": "address"
                }
              ],
              "internalType": "struct BorrowProxyLib.Module",
              "name": "module",
              "type": "tuple"
            }
          ],
          "internalType": "struct BorrowProxyLib.ModuleRegistration[]",
          "name": "modules",
          "type": "tuple[]"
        },
        {
          "components": [
            {
              "internalType": "address",
              "name": "token",
              "type": "address"
            },
            {
              "internalType": "address",
              "name": "liqToken",
              "type": "address"
            }
          ],
          "internalType": "struct ShifterPoolLib.LiquidityTokenLaunch[]",
          "name": "tokenLaunches",
          "type": "tuple[]"
        }
      ],
      "name": "setup",
      "outputs": [],
      "stateMutability": "nonpayable",
      "type": "function"
    },
    {
      "inputs": [
        {
          "components": [
            {
              "components": [
                {
                  "internalType": "address payable",
                  "name": "borrower",
                  "type": "address"
                },
                {
                  "internalType": "address",
                  "name": "token",
                  "type": "address"
                },
                {
                  "internalType": "bytes32",
                  "name": "nonce",
                  "type": "bytes32"
                },
                {
                  "internalType": "uint256",
                  "name": "amount",
                  "type": "uint256"
                }
              ],
              "internalType": "struct ShifterBorrowProxyLib.LiquidityRequest",
              "name": "request",
              "type": "tuple"
            },
            {
              "internalType": "uint256",
              "name": "gasRequested",
              "type": "uint256"
            },
            {
              "components": [
                {
                  "internalType": "address",
                  "name": "to",
                  "type": "address"
                },
                {
                  "internalType": "bytes",
                  "name": "txData",
                  "type": "bytes"
                }
              ],
              "internalType": "struct ShifterBorrowProxyLib.InitializationAction[]",
              "name": "actions",
              "type": "tuple[]"
            },
            {
              "internalType": "bytes",
              "name": "signature",
              "type": "bytes"
            }
          ],
          "internalType": "struct ShifterBorrowProxyLib.LiquidityRequestParcel",
          "name": "liquidityRequestParcel",
          "type": "tuple"
        },
        {
          "internalType": "uint256",
          "name": "bond",
          "type": "uint256"
        },
        {
          "internalType": "uint256",
          "name": "timeoutExpiry",
          "type": "uint256"
        }
      ],
      "name": "executeBorrow",
      "outputs": [],
      "stateMutability": "payable",
      "type": "function"
    },
    {
      "inputs": [
        {
          "internalType": "bytes",
          "name": "proxyRecord",
          "type": "bytes"
        }
      ],
      "name": "validateProxyRecordHandler",
      "outputs": [
        {
          "internalType": "bool",
          "name": "",
          "type": "bool"
        }
      ],
      "stateMutability": "view",
      "type": "function"
    },
    {
      "inputs": [
        {
          "internalType": "address",
          "name": "user",
          "type": "address"
        }
      ],
      "name": "getProxyOwnerHandler",
      "outputs": [
        {
          "internalType": "address",
          "name": "",
          "type": "address"
        }
      ],
      "stateMutability": "view",
      "type": "function"
    },
    {
      "inputs": [
        {
          "internalType": "address",
          "name": "token",
          "type": "address"
        }
      ],
      "name": "getShifterHandler",
      "outputs": [
        {
          "internalType": "contract IShifter",
          "name": "",
          "type": "address"
        }
      ],
      "stateMutability": "view",
      "type": "function"
    },
    {
      "inputs": [
        {
          "internalType": "address",
          "name": "token",
          "type": "address"
        }
      ],
      "name": "getLiquidityTokenHandler",
      "outputs": [
        {
          "internalType": "contract LiquidityToken",
          "name": "",
          "type": "address"
        }
      ],
      "stateMutability": "view",
      "type": "function"
    },
    {
      "inputs": [
        {
          "internalType": "address",
          "name": "to",
          "type": "address"
        },
        {
          "internalType": "bytes4",
          "name": "sig",
          "type": "bytes4"
        }
      ],
      "name": "fetchModuleHandler",
      "outputs": [
        {
          "components": [
            {
              "internalType": "address",
              "name": "assetSubmodule",
              "type": "address"
            },
            {
              "internalType": "address",
              "name": "liquidationSubmodule",
              "type": "address"
            },
            {
              "internalType": "address",
              "name": "repaymentSubmodule",
              "type": "address"
            }
          ],
          "internalType": "struct BorrowProxyLib.Module",
          "name": "",
          "type": "tuple"
        }
      ],
      "stateMutability": "view",
      "type": "function"
    },
    {
      "inputs": [
        {
          "internalType": "address",
          "name": "token",
          "type": "address"
        },
        {
          "internalType": "address",
          "name": "liquidityToken",
          "type": "address"
        },
        {
          "internalType": "address",
          "name": "keeper",
          "type": "address"
        },
        {
          "internalType": "uint256",
          "name": "bond",
          "type": "uint256"
        },
        {
          "internalType": "uint256",
          "name": "repay",
          "type": "uint256"
        }
      ],
      "name": "relayResolveLoan",
      "outputs": [
        {
          "internalType": "bool",
          "name": "",
          "type": "bool"
        }
      ],
      "stateMutability": "nonpayable",
      "type": "function"
    }
  ],
  "bytecode": "0x608060405260006100176001600160e01b0361006616565b600080546001600160a01b0319166001600160a01b0383169081178255604051929350917f8be0079c531659141344cd1fd0a4f28419497f9722a3daafe3b4186f6b6457e0908290a35061006a565b3390565b614a8d806100796000396000f3fe6080604052600436106100c25760003560e01c8063798aada01161007f5780638da5cb5b116100595780638da5cb5b1461020e578063e6c1f07414610223578063f2fde38b14610243578063fd00430c14610263576100c2565b8063798aada0146101ae578063801874ec146101ce57806384a5b9a2146101ee576100c2565b806308f60495146100c75780631fbc78dc146100fd57806323e3b7301461012a57806344112360146101575780636b0decf314610184578063715018a614610199575b600080fd5b3480156100d357600080fd5b506100e76100e2366004611e62565b610283565b6040516100f49190612253565b60405180910390f35b34801561010957600080fd5b5061011d610118366004611c6e565b61029d565b6040516100f4919061212c565b34801561013657600080fd5b5061014a610145366004611d1c565b6102b0565b6040516100f4919061227c565b34801561016357600080fd5b50610177610172366004611ce4565b61034d565b6040516100f49190612866565b610197610192366004611eb1565b61036e565b005b3480156101a557600080fd5b506101976106ff565b3480156101ba57600080fd5b5061011d6101c9366004611c6e565b61077e565b3480156101da57600080fd5b506100e76101e9366004611c8a565b610791565b3480156101fa57600080fd5b50610197610209366004611d6a565b6108db565b34801561021a57600080fd5b5061011d610a19565b34801561022f57600080fd5b5061011d61023e366004611c6e565b610a28565b34801561024f57600080fd5b5061019761025e366004611c6e565b610a3b565b34801561026f57600080fd5b5061014a61027e366004611d1c565b610a7c565b60006102976007338463ffffffff610b4216565b92915050565b600061029760018363ffffffff610b6816565b60603330146102da5760405162461bcd60e51b81526004016102d190612513565b60405180910390fd5b60006060846001600160a01b0316846040516102f691906120df565b600060405180830381855af49150503d8060008114610331576040519150601f19603f3d011682016040523d82523d6000602084013e610336565b606091505b50915091508161034557600080fd5b949350505050565b61035561185f565b610367600a848463ffffffff610be816565b9392505050565b348360200151146103915760405162461bcd60e51b81526004016102d190612421565b600061039c84610cb4565b90506103ae848263ffffffff610d1616565b6103ca5760405162461bcd60e51b81526004016102d1906126ee565b6103d261187f565b50835160006103e082610d47565b905060006103ed82610d70565b905061040060078263ffffffff610da616565b1561041d5760405162461bcd60e51b81526004016102d1906122c6565b6104256118a6565b338152606084015161044190600190898963ffffffff610dc416565b602082015261044e6118ce565b60405180604001604052808681526020018381525090506060816040516020016104789190612895565b60405160208183030381529060405290506104a186602001516001610ec490919063ffffffff16565b6001600160a01b031663185cc751856104b985610f00565b6040518363ffffffff1660e01b81526004016104d6929190612140565b602060405180830381600087803b1580156104f057600080fd5b505af1158015610504573d6000803e3d6000fd5b505050506040513d601f19601f820116820180604052506105289190810190611e42565b6105445760405162461bcd60e51b81526004016102d190612555565b6105566007858363ffffffff610f3816565b855161056c90600790869063ffffffff610f5b16565b85516040516001600160a01b03909116903480156108fc02916000818181858888f193505050501580156105a4573d6000803e3d6000fd5b5060208601516105c5906001600160a01b031633308c63ffffffff610f8f16565b6105e15760405162461bcd60e51b81526004016102d190612767565b836001600160a01b03166105f486611035565b6001600160a01b03161461061a5760405162461bcd60e51b81526004016102d1906123ea565b85516040516366d3820360e01b81526001600160a01b038616916366d3820391610647919060040161212c565b602060405180830381600087803b15801561066157600080fd5b505af1158015610675573d6000803e3d6000fd5b505050506040513d601f19601f820116820180604052506106999190810190611e42565b6106b55760405162461bcd60e51b81526004016102d1906124a4565b60408a01516106ca908563ffffffff61106316565b6106e65760405162461bcd60e51b81526004016102d190612797565b85516106f39085836110ad565b50505050505050505050565b6107076110fd565b6000546001600160a01b039081169116146107345760405162461bcd60e51b81526004016102d190612732565b600080546040516001600160a01b03909116907f8be0079c531659141344cd1fd0a4f28419497f9722a3daafe3b4186f6b6457e0908390a3600080546001600160a01b0319169055565b600061029760018363ffffffff610ec416565b336000908152600760205260408120546107bd5760405162461bcd60e51b81526004016102d1906125c6565b82156107f9576107dd6001600160a01b038716858563ffffffff61110116565b6107f95760405162461bcd60e51b81526004016102d190612676565b8115610835576108196001600160a01b038716868463ffffffff61110116565b6108355760405162461bcd60e51b81526004016102d19061246d565b60405163c3275c7960e01b81526001600160a01b0386169063c3275c799061086190339060040161212c565b602060405180830381600087803b15801561087b57600080fd5b505af115801561088f573d6000803e3d6000fd5b505050506040513d601f19601f820116820180604052506108b39190810190611e42565b6108cf5760405162461bcd60e51b81526004016102d190612803565b50600195945050505050565b6108e36110fd565b6000546001600160a01b039081169116146109105760405162461bcd60e51b81526004016102d190612732565b6001546001600160a01b0316156109395760405162461bcd60e51b81526004016102d190612599565b600180546001600160a01b0319166001600160a01b0387161790556002849055600383905560005b82518110156109a5576109726118ee565b83828151811061097e57fe5b6020908102919091010151905061099c600a8263ffffffff6111a416565b50600101610961565b5060005b8151811015610a11576109ba611917565b8282815181106109c657fe5b6020908102919091018101518082015190516001600160a01b0390811660009081526006909352604090922080546001600160a01b03191692909116919091179055506001016109a9565b505050505050565b6000546001600160a01b031690565b600061029760078363ffffffff61126016565b610a436110fd565b6000546001600160a01b03908116911614610a705760405162461bcd60e51b81526004016102d190612732565b610a7981611283565b50565b606060006060846001600160a01b03168585604051602401610a9f92919061217d565b60408051601f198184030181529181526020820180516001600160e01b031663023e3b7360e41b17905251610ad491906120df565b600060405180830381855afa9150503d8060008114610b0f576040519150601f19603f3d011682016040523d82523d6000602084013e610b14565b606091505b5091509150818190610b395760405162461bcd60e51b81526004016102d1919061227c565b50949350505050565b80516020918201206001600160a01b039290921660009081529290526040909120541490565b815460405163028c4f4160e41b81526000916001600160a01b0316906328c4f41090610b9890859060040161212c565b60206040518083038186803b158015610bb057600080fd5b505afa158015610bc4573d6000803e3d6000fd5b505050506040513d601f19601f820116820180604052506103679190810190611e95565b610bf061185f565b610bf861185f565b846000610c058686611304565b81526020808201929092526040908101600020815160608101835281546001600160a01b0390811682526001830154811694820194909452600290910154909216908201529050610c558161133c565b61034557846000610c66868661134b565b81526020808201929092526040908101600020815160608101835281546001600160a01b03908116825260018301548116948201949094526002909101549092169082015295945050505050565b6000308260000151602001518360000151604001518460000151606001518560200151610ce4876040015161137e565b604051602001610cf996959493929190612011565b604051602081830303815290604052805190602001209050919050565b6000610d2e610d24836113a7565b84606001516113ba565b8351516001600160a01b03908116911614905092915050565b60008160000151826020015183604001518460600151604051602001610cf99493929190611fe3565b60006102978260405180602001610d869061192e565b6020820181038252601f19601f82011660405250805190602001206114e8565b6001600160a01b031660009081526020919091526040902054151590565b610dcc61193b565b8460010154821015610df05760405162461bcd60e51b81526004016102d190612308565b6000610e0b670de0b6b3a7640000606463ffffffff6114f516565b9050610e26670de0b6b3a7640000606463ffffffff6114f516565b610e4e86610e4287670de0b6b3a764000063ffffffff61153716565b9063ffffffff6114f516565b11610e6b5760405162461bcd60e51b81526004016102d19061283a565b6000848610610e8d57610e8886610e42848863ffffffff61153716565b610e8f565b815b905060405180608001604052808543018152602001868152602001886002015481526020018281525092505050949350505050565b6001600160a01b038082166000908152600584016020526040812054909116806103675760405162461bcd60e51b81526004016102d1906127ce565b6000610297610f26610f1184611571565b610f1a856115a6565b9063ffffffff6115db16565b8351606001519063ffffffff61160016565b80516020918201206001600160a01b039092166000908152929052604090912055565b6001600160a01b039182166000908152600190930160205260409092208054919092166001600160a01b0319909116179055565b600080856001600160a01b0316858585604051602401610fb193929190612159565b60408051601f198184030181529181526020820180516001600160e01b03166323b872dd60e01b17905251610fe691906120df565b6000604051808303816000865af19150503d8060008114611023576040519150601f19603f3d011682016040523d82523d6000602084013e611028565b606091505b5090979650505050505050565b6000610297826040518060200161104b9061192e565b601f1982820381018352601f90910116604052611642565b6000805b83518110156110a35761108d84828151811061107f57fe5b602002602001015184611677565b61109b576000915050610297565b600101611067565b5060019392505050565b816001600160a01b0316836001600160a01b03167f9ae84ac2ad8f721c2e62d211eca0ae34951726f8834913af6c5ebb81610bb1f8836040516110f0919061227c565b60405180910390a3505050565b3390565b600080846001600160a01b03168484604051602401611121929190612140565b60408051601f198184030181529181526020820180516001600160e01b031663a9059cbb60e01b1790525161115691906120df565b6000604051808303816000865af19150503d8060008114611193576040519150601f19603f3d011682016040523d82523d6000602084013e611198565b606091505b50909695505050505050565b6001815160028111156111b357fe5b14156112025760005b8160400151518110156111fc576111f4838360200151846040015184815181106111e257fe5b60200260200101518560600151611736565b6001016111bc565b5061125c565b60028151600281111561121157fe5b141561125c5760005b81604001515181101561125a576112528383602001518460400151848151811061124057fe5b602002602001015185606001516117a6565b60010161121a565b505b5050565b6001600160a01b0380821660009081526001840160205260409020541692915050565b6001600160a01b0381166112a95760405162461bcd60e51b81526004016102d19061236d565b600080546040516001600160a01b03808516939216917f8be0079c531659141344cd1fd0a4f28419497f9722a3daafe3b4186f6b6457e091a3600080546001600160a01b0319166001600160a01b0392909216919091179055565b604051600090833f9061131d90829085906020016120c7565b6040516020818303038152906040528051906020012091505092915050565b516001600160a01b0316151590565b6000828260405160200161136092919061206c565b60405160208183030381529060405280519060200120905092915050565b60608160405160200161139191906121d7565b6040516020818303038152906040529050919050565b600081604051602001610cf991906120fb565b600081516041146113dd5760405162461bcd60e51b81526004016102d190612336565b60208201516040830151606084015160001a7f7fffffffffffffffffffffffffffffff5d576e7357a4501ddfe92f46681b20a082111561142f5760405162461bcd60e51b81526004016102d1906124d1565b8060ff16601b1415801561144757508060ff16601c14155b156114645760405162461bcd60e51b81526004016102d1906125fd565b600060018783868660405160008152602001604052604051611489949392919061225e565b6020604051602081039080840390855afa1580156114ab573d6000803e3d6000fd5b5050604051601f1901519150506001600160a01b0381166114de5760405162461bcd60e51b81526004016102d19061228f565b9695505050505050565b60006103678383306117b4565b600061036783836040518060400160405280601a81526020017f536166654d6174683a206469766973696f6e206279207a65726f0000000000008152506117fc565b60008261154657506000610297565b8282028284828161155357fe5b04146103675760405162461bcd60e51b81526004016102d1906126ad565b6000610297670de0b6b3a7640000610e428460200151602001516060015185600001516060015161153790919063ffffffff16565b6000610297670de0b6b3a7640000610e428460200151602001516040015185600001516060015161153790919063ffffffff16565b6000828201838110156103675760405162461bcd60e51b81526004016102d1906123b3565b600061036783836040518060400160405280601e81526020017f536166654d6174683a207375627472616374696f6e206f766572666c6f770000815250611833565b600080838351602085016000f590506001600160a01b0381166103675760405162461bcd60e51b81526004016102d19061263f565b600080826001600160a01b03165a85516020870151604051631349792d60e11b926116aa929091600091906024016121a1565b60408051601f198184030181529181526020820180516001600160e01b03166001600160e01b03199094169390931790925290516116e891906120df565b60006040518083038160008787f1925050503d8060008114611726576040519150601f19603f3d011682016040523d82523d6000602084013e61172b565b606091505b509095945050505050565b808460006117448686611304565b81526020808201929092526040908101600020835181546001600160a01b039182166001600160a01b03199182161783559385015160018301805491831691861691909117905593909101516002909101805491909316911617905550505050565b80846000611744868661134b565b60008060ff60f81b8386866040516020016117d29493929190612093565b60408051808303601f1901815291905280516020909101206001600160a01b031695945050505050565b6000818361181d5760405162461bcd60e51b81526004016102d1919061227c565b50600083858161182957fe5b0495945050505050565b600081848411156118575760405162461bcd60e51b81526004016102d1919061227c565b505050900390565b604080516060810182526000808252602082018190529181019190915290565b60408051608081018252600080825260208201819052918101829052606081019190915290565b604051806040016040528060006001600160a01b031681526020016118c961193b565b905290565b60405180604001604052806118e161187f565b81526020016118c96118a6565b6040805160808101909152806000815260006020820152606060408201819052016118c961185f565b604080518082019091526000808252602082015290565b6120b2806129a683390190565b6040518060800160405280600081526020016000815260200160008152602001600081525090565b80356102978161297a565b600082601f83011261197e578081fd5b813561199161198c8261292a565b612903565b818152915060208083019084810160005b84811015611a1b5781358701604080601f19838c030112156119c357600080fd5b6119cc81612903565b858301356119d98161297a565b81528282013567ffffffffffffffff8111156119f457600080fd5b611a028c8883870101611ac5565b82880152508652505092820192908201906001016119a2565b505050505092915050565b600082601f830112611a36578081fd5b8135611a4461198c8261292a565b8181529150602080830190848101604080850287018301881015611a6757600080fd5b6000805b86811015611ab85782848b031215611a81578182fd5b611a8a83612903565b611a948b86611963565b8152611aa28b878701611963565b8187015286529484019492820192600101611a6b565b5050505050505092915050565b600082601f830112611ad5578081fd5b813567ffffffffffffffff811115611aeb578182fd5b611afe601f8201601f1916602001612903565b9150808252836020828501011115611b1557600080fd5b8060208401602084013760009082016020015292915050565b600060c08284031215611b3f578081fd5b611b496080612903565b9050813560038110611b5a57600080fd5b8152602082810135611b6b8161297a565b82820152604083013567ffffffffffffffff811115611b8957600080fd5b80840185601f820112611b9b57600080fd5b80359150611bab61198c8361292a565b8281528381019082850185850284018601891015611bc857600080fd5b600093505b84841015611bf4578035611be08161298f565b835260019390930192918501918501611bcd565b508060408701525050505050611c0d8360608401611c18565b606082015292915050565b600060608284031215611c29578081fd5b611c336060612903565b90508135611c408161297a565b81526020820135611c508161297a565b60208201526040820135611c638161297a565b604082015292915050565b600060208284031215611c7f578081fd5b81356103678161297a565b600080600080600060a08688031215611ca1578081fd5b8535611cac8161297a565b94506020860135611cbc8161297a565b93506040860135611ccc8161297a565b94979396509394606081013594506080013592915050565b60008060408385031215611cf6578182fd5b8235611d018161297a565b91506020830135611d118161298f565b809150509250929050565b60008060408385031215611d2e578182fd5b8235611d398161297a565b9150602083013567ffffffffffffffff811115611d54578182fd5b611d6085828601611ac5565b9150509250929050565b600080600080600060a08688031215611d81578283fd5b8535611d8c8161297a565b9450602086810135945060408701359350606087013567ffffffffffffffff80821115611db7578384fd5b8189018a601f820112611dc8578485fd5b80359250611dd861198c8461292a565b83815284810190828601875b86811015611e0d57611dfb8f898435880101611b2e565b84529287019290870190600101611de4565b509097505050506080890135925080831115611e27578384fd5b5050611e3588828901611a26565b9150509295509295909350565b600060208284031215611e53578081fd5b81518015158114610367578182fd5b600060208284031215611e73578081fd5b813567ffffffffffffffff811115611e89578182fd5b61034584828501611ac5565b600060208284031215611ea6578081fd5b81516103678161297a565b600080600060608486031215611ec5578081fd5b833567ffffffffffffffff80821115611edc578283fd5b818601808803925060e0831215611ef1578384fd5b611efb6080612903565b6080841215611f08578485fd5b611f126080612903565b93508135611f1f8161297a565b84526020820135611f2f8161297a565b8060208601525060408201356040850152606082013560608501528381526080820135602082015260a0820135935082841115611f6a578485fd5b611f768985840161196e565b604082015260c0820135935082841115611f8e578485fd5b611f9a89858401611ac5565b606082015298602088013598506040909701359695505050505050565b60008151808452611fcf81602086016020860161294a565b601f01601f19169290920160200192915050565b6001600160601b0319606095861b811682529390941b90921660148401526028830152604882015260680190565b60006bffffffffffffffffffffffff19808960601b168352808860601b16601484015250856028830152846048830152836068830152825161205a81608885016020870161294a565b91909101608801979650505050505050565b60609290921b6001600160601b03191682526001600160e01b031916601482015260180190565b6001600160f81b031994909416845260609290921b6001600160601b03191660018401526015830152603582015260550190565b9182526001600160e01b031916602082015260240190565b600082516120f181846020870161294a565b9190910192915050565b7f19457468657265756d205369676e6564204d6573736167653a0a3332000000008152601c810191909152603c0190565b6001600160a01b0391909116815260200190565b6001600160a01b03929092168252602082015260400190565b6001600160a01b039384168152919092166020820152604081019190915260600190565b6001600160a01b038316815260406020820181905260009061034590830184611fb7565b6001600160a01b038416815260ff831660208201526060604082018190526000906121ce90830184611fb7565b95945050505050565b60208082528251828201819052600091906040908185019080840286018301878501865b8381101561224557888303603f19018552815180516001600160a01b031684528781015188850188905261223188860182611fb7565b9689019694505050908601906001016121fb565b509098975050505050505050565b901515815260200190565b93845260ff9290921660208401526040830152606082015260800190565b6000602082526103676020830184611fb7565b60208082526018908201527f45434453413a20696e76616c6964207369676e61747572650000000000000000604082015260600190565b60208082526022908201527f70726f78792068617320616c7265616479206265656e20696e697469616c697a604082015261195960f21b606082015260800190565b6020808252601490820152731d1a5b595bdd5d081a5b9cdd59999a58da595b9d60621b604082015260600190565b6020808252601f908201527f45434453413a20696e76616c6964207369676e6174757265206c656e67746800604082015260600190565b60208082526026908201527f4f776e61626c653a206e6577206f776e657220697320746865207a65726f206160408201526564647265737360d01b606082015260800190565b6020808252601b908201527f536166654d6174683a206164646974696f6e206f766572666c6f770000000000604082015260600190565b60208082526017908201527f70726f7879206465706c6f796d656e74206661696c6564000000000000000000604082015260600190565b6020808252602c908201527f737570706c696564206574686572206973206e6f7420657175616c20746f206760408201526b185cc81c995c5d595cdd195960a21b606082015260800190565b6020808252601a908201527f6661696c656420746f207265706179206c6f73742066756e6473000000000000604082015260600190565b6020808252601390820152727365747570207068617365206661696c75726560681b604082015260600190565b60208082526022908201527f45434453413a20696e76616c6964207369676e6174757265202773272076616c604082015261756560f01b606082015260800190565b60208082526022908201527f756e617574686f72697a65642076696577206c617965722064656c656761746960408201526137b760f11b606082015260800190565b60208082526024908201527f696e73756666696369656e742066756e647320696e206c6971756964697479206040820152631c1bdbdb60e21b606082015260800190565b602080825260139082015272185b1c9958591e481a5b9a5d1a585b1a5e9959606a1b604082015260600190565b6020808252601d908201527f6e6f742061207265676973746572656420626f72726f772070726f7879000000604082015260600190565b60208082526022908201527f45434453413a20696e76616c6964207369676e6174757265202776272076616c604082015261756560f01b606082015260800190565b60208082526019908201527f437265617465323a204661696c6564206f6e206465706c6f7900000000000000604082015260600190565b6020808252601f908201527f6661696c656420746f2072657475726e20626f6e6420746f206b656570657200604082015260600190565b60208082526021908201527f536166654d6174683a206d756c7469706c69636174696f6e206f766572666c6f6040820152607760f81b606082015260800190565b60208082526024908201527f6c69717569646974792072657175657374207369676e61747572652072656a6560408201526318dd195960e21b606082015260800190565b6020808252818101527f4f776e61626c653a2063616c6c6572206973206e6f7420746865206f776e6572604082015260600190565b602080825260169082015275189bdb99081cdd589b5a5cdcda5bdb8819985a5b195960521b604082015260600190565b6020808252601a908201527f696e6969616c697a6174696f6e20616374696f6e73206661696c000000000000604082015260600190565b6020808252818101527f6e6f7420612072656769737465726564206c697175696469747920746f6b656e604082015260600190565b60208082526017908201527f6c6f616e207265736f6c7574696f6e206661696c757265000000000000000000604082015260600190565b602080825260129082015271626f6e642062656c6f77206d696e696d756d60701b604082015260600190565b81516001600160a01b039081168252602080840151821690830152604092830151169181019190915260600190565b815180516001600160a01b0390811683526020808301518216818501526040808401518186015260609384015184860152948101518051909216608085015290810151805160a08501529081015160c08401529283015160e083015291909101516101008201526101200190565b60405181810167ffffffffffffffff8111828210171561292257600080fd5b604052919050565b600067ffffffffffffffff821115612940578081fd5b5060209081020190565b60005b8381101561296557818101518382015260200161294d565b83811115612974576000848401525b50505050565b6001600160a01b0381168114610a7957600080fd5b6001600160e01b031981168114610a7957600080fdfe608060405234801561001057600080fd5b50612092806100206000396000f3fe6080604052600436106100595760003560e01c806323e3b730146100625780632692f25a1461009857806356b8e146146100b857806366d38203146100e5578063c4ddf36314610105578063fd00430c1461012557610060565b3661006057005b005b34801561006e57600080fd5b5061008261007d36600461178f565b610145565b60405161008f9190611c22565b60405180910390f35b3480156100a457600080fd5b506100606100b33660046117dd565b6101e4565b3480156100c457600080fd5b506100d86100d3366004611854565b610431565b60405161008f9190611be8565b3480156100f157600080fd5b506100d8610100366004611773565b6107f0565b34801561011157600080fd5b506100d8610120366004611854565b61084d565b34801561013157600080fd5b5061008261014036600461178f565b610d03565b606033301461016f5760405162461bcd60e51b815260040161016690611cf5565b60405180910390fd5b60006060846001600160a01b03168460405161018b9190611aef565b600060405180830381855af49150503d80600081146101c6576040519150601f19603f3d011682016040523d82523d6000602084013e6101cb565b606091505b5091509150816101da57600080fd5b9150505b92915050565b6001546001600160a01b031633148061020757506000546001600160a01b031633145b6102235760405162461bcd60e51b815260040161016690611d94565b600054600160a01b900460ff16156102c85760006060846001600160a01b031684846040516102529190611aef565b60006040518083038185875af1925050503d806000811461028f576040519150601f19603f3d011682016040523d82523d6000602084013e610294565b606091505b5091509150816102c0576102a781610dc9565b60405162461bcd60e51b81526004016101669190611c22565b805160208201f35b60006102e46102df8383600463ffffffff610ecf16565b610eec565b60e01b90506102f16114b5565b604051632f1a48af60e01b815273__BorrowProxyLib________________________90632f1a48af9061032d9060009089908790600401611f46565b60806040518083038186803b15801561034557600080fd5b505af4158015610359573d6000803e3d6000fd5b505050506040513d601f19601f8201168201806040525061037d91908101906118d6565b905061038c8160200151610f0e565b6103a85760405162461bcd60e51b815260040161016690611cbe565b600060606103bd83868863ffffffff610f1d16565b91509150816103cf576102a781610dc9565b60208084015101516001600160a01b0316156103ff5760208084015101516103ff9060069063ffffffff610fdb16565b6020830151604001516001600160a01b0316156102c0576020830151604001516102c09060089063ffffffff610fdb16565b60055460009060ff16156104575760405162461bcd60e51b815260040161016690611c93565b600054600160a01b900460ff16156104815760405162461bcd60e51b815260040161016690611ddd565b61048a82611035565b6104a65760405162461bcd60e51b815260040161016690611d66565b6104ae6114dd565b828060200190516104c29190810190611961565b600780546040805160208084028201810190925282815293945060609392919083018282801561051b57602002820191906000526020600020905b81546001600160a01b031681526001909101906020018083116104fd575b505050505090504382602001516020015160000151106107e4576005805461ff0019166101001790556003545b81518110156105a0576207a1205a1080610584575061058282828151811061056c57fe5b60200260200101516001600160a01b03166110b8565b155b156105985760035550600091506107eb9050565b600101610548565b508051600355600080548351602001516040516370a0823160e01b81526001600160a01b039283169392909116906370a08231906105e2903090600401611b0b565b60206040518083038186803b1580156105fa57600080fd5b505afa15801561060e573d6000803e3d6000fd5b505050506040513d601f19601f820116820180604052506106329190810190611a1f565b845160200151909150610655906001600160a01b0316838363ffffffff61119116565b6106715760405162461bcd60e51b815260040161016690611efc565b60208085015181015101518451606001518210156106ab5784516060015182038111156106a757845160600151820390036106ab565b5060005b8451602001516040516303cc556d60e51b8152828403916001600160a01b0386169163801874ec9190839063798aada0906106ea908490600401611b0b565b60206040518083038186803b15801561070257600080fd5b505afa158015610716573d6000803e3d6000fd5b505050506040513d601f19601f8201168201806040525061073a9190810190611887565b60208a0151516040516001600160e01b031960e086901b1681526107679392919088908890600401611b77565b602060405180830381600087803b15801561078157600080fd5b505af1158015610795573d6000803e3d6000fd5b505050506040513d601f19601f820116820180604052506107b99190810190611834565b6107d55760405162461bcd60e51b815260040161016690611ec5565b600196505050505050506107eb565b6000925050505b919050565b6001546000906001600160a01b03161561081c5760405162461bcd60e51b815260040161016690611c35565b50600080546001600160a01b03199081163317909155600180546001600160a01b0384169216919091178155919050565b60006108576114fd565b8280602001905161086b919081019061197d565b905061089981600001516040516020016108859190611f6f565b604051602081830303815290604052611035565b6108b55760405162461bcd60e51b815260040161016690611d66565b600554610100900460ff16156108dd5760405162461bcd60e51b815260040161016690611e8e565b80518051606001516000916108f79163ffffffff61123416565b60008054845151602001516040516303cc556d60e51b815293945091926001600160a01b039091169163798aada0916109339190600401611b0b565b60206040518083038186803b15801561094b57600080fd5b505afa15801561095f573d6000803e3d6000fd5b505050506040513d601f19601f820116820180604052506109839190810190611887565b60055490915060009060ff16610b10576005805460ff19166001179055600054845151602001516040516307ef1e3760e21b81526001600160a01b0390921691631fbc78dc916109d591600401611b0b565b60206040518083038186803b1580156109ed57600080fd5b505afa158015610a01573d6000803e3d6000fd5b505050506040513d601f19601f82011682018060405250610a259190810190611887565b6001600160a01b031663bb4a1d8c856060015186600001516000015160600151610a4e88611274565b88608001516040518563ffffffff1660e01b8152600401610a729493929190611bf3565b602060405180830381600087803b158015610a8c57600080fd5b505af1158015610aa0573d6000803e3d6000fd5b505050506040513d601f19601f82011682018060405250610ac49190810190611a1f565b600281905584515160200151909150610aef906001600160a01b03168385840363ffffffff61119116565b610b0b5760405162461bcd60e51b815260040161016690611d37565b610b15565b506002545b600980546040805160208084028201810190925282815260609390929091830182828015610b6c57602002820191906000526020600020905b81546001600160a01b03168152600190910190602001808311610b4e575b50506004549394505050505b8151811015610bd3576207a1205a1080610bb45750610bb2828281518110610b9c57fe5b60200260200101516001600160a01b03166112b6565b155b15610bcb5760045550600094506107eb9350505050565b600101610b78565b506000805460ff60a01b1916600160a01b17905584516020808201515191510151610c10916001600160a01b03909116908663ffffffff61119116565b610c2c5760405162461bcd60e51b815260040161016690611c65565b600080548651805160209081015191810151805190820151909101516040516320061d3b60e21b81526001600160a01b039094169463801874ec94610c7a94938a9390929091600401611b77565b602060405180830381600087803b158015610c9457600080fd5b505af1158015610ca8573d6000803e3d6000fd5b505050506040513d601f19601f82011682018060405250610ccc9190810190611834565b610ce85760405162461bcd60e51b815260040161016690611e4b565b8451805151610cf69161130b565b5060019695505050505050565b606060006060846001600160a01b03168585604051602401610d26929190611bab565b60408051601f198184030181529181526020820180516001600160e01b031663023e3b7360e41b17905251610d5b9190611aef565b600060405180830381855afa9150503d8060008114610d96576040519150601f19603f3d011682016040523d82523d6000602084013e610d9b565b606091505b5091509150818190610dc05760405162461bcd60e51b81526004016101669190611c22565b50949350505050565b6060815160001415610e0f575060408051808201909152601c81527f636170747572656420656d70747920726576657274206275666665720000000060208201526107eb565b6308c379a0610e246102df8460006004610ecf565b63ffffffff1614610e4f576040518060600160405280603f815260200161201e603f913990506107eb565b6060610e6a610e6584600463ffffffff61135016565b611374565b9050805160001415610eb157505060408051808201909152601d81527f636170747572656420656d70747920726576657274206d65737361676500000060208201526107eb565b606081806020019051610ec791908101906118a3565b949350505050565b610ed7611534565b92820160209081018452830152604082015290565b805160209182015191829003900351600160089092029190911b600019011690565b516001600160a01b0316151590565b60006060600060608660200151600001516001600160a01b03165a8860200151600001518960200151602001518a6020015160400151328c600001518b8d604051602001610f719796959493929190611b1f565b60408051601f1981840301815290829052610f8b91611aef565b6000604051808303818686f4925050503d8060008114610fc7576040519150601f19603f3d011682016040523d82523d6000602084013e610fcc565b606091505b50909890975095505050505050565b6001600160a01b03811660009081526020839052604090205460ff161561100157611031565b6001828101805491820181556000908152602090200180546001600160a01b0319166001600160a01b0383161790555b5050565b600080546040516308f6049560e01b81526001600160a01b03909116906308f6049590611066908590600401611c22565b602060405180830381600087803b15801561108057600080fd5b505af1158015611094573d6000803e3d6000fd5b505050506040513d601f19601f820116820180604052506101de9190810190611834565b6000806060836001600160a01b0316846040516024016110d89190611b0b565b60408051601f198184030181529181526020820180516001600160e01b03166305f0caad60e31b1790525161110d9190611aef565b600060405180830381855af49150503d8060008114611148576040519150601f19603f3d011682016040523d82523d6000602084013e61114d565b606091505b50915091508051602014611166576000925050506107eb565b60008180602001905161117c9190810190611834565b90508280156111885750805b95945050505050565b600080846001600160a01b031684846040516024016111b1929190611bcf565b60408051601f198184030181529181526020820180516001600160e01b031663a9059cbb60e01b179052516111e69190611aef565b6000604051808303816000865af19150503d8060008114611223576040519150601f19603f3d011682016040523d82523d6000602084013e611228565b606091505b50909695505050505050565b600061126d670de0b6b3a764000061126185602001516020015160600151856113c490919063ffffffff16565b9063ffffffff6113fe16565b9392505050565b8051516040908101516020808401518385015193516000946112999493909101611ad9565b604051602081830303815290604052805190602001209050919050565b6000806060836001600160a01b0316846040516024016112d69190611b0b565b60408051601f198184030181529181526020820180516001600160e01b0316639f7c73e960e01b1790525161110d9190611aef565b816001600160a01b03167f8118f0dfd16240978600a1121acd44dd113e1071790496f111043c87672720bf826040516113449190611f6f565b60405180910390a25050565b611358611534565b818351101561136657825191505b61126d838384865103610ecf565b60208082015160408051828152601f19601f840116810190930190526060918180156113a7576020820181803883390190505b508351909250602083016113bc818385611440565b505050919050565b6000826113d3575060006101de565b828202828482816113e057fe5b041461126d5760405162461bcd60e51b815260040161016690611e0a565b600061126d83836040518060400160405280601a81526020017f536166654d6174683a206469766973696f6e206279207a65726f00000000000081525061147e565b5b60208110611460578151835260209283019290910190601f1901611441565b600180600883602003021b0380845116811984511617845250505050565b6000818361149f5760405162461bcd60e51b81526004016101669190611c22565b5060008385816114ab57fe5b0495945050505050565b604051806040016040528060006001600160a01b031681526020016114d8611555565b905290565b60405180604001604052806114f0611575565b81526020016114d861159c565b6040518060a001604052806115106114dd565b81526000602082018190526040820181905260608083019190915260809091015290565b60405180606001604052806000815260200160008152602001600081525090565b604080516060810182526000808252602082018190529181019190915290565b60408051608081018252600080825260208201819052918101829052606081019190915290565b604051806040016040528060006001600160a01b031681526020016114d86040518060800160405280600081526020016000815260200160008152602001600081525090565b600082601f8301126115f2578081fd5b815161160561160082611fa5565b611f7e565b915080825283602082850101111561161c57600080fd5b61162d816020840160208601611fd5565b5092915050565b600082601f830112611644578081fd5b813561165261160082611fa5565b915080825283602082850101111561166957600080fd5b8060208401602084013760009082016020015292915050565b6000818303610120811215611695578182fd5b61169f6040611f7e565b915060808112156116af57600080fd5b6116b96080611f7e565b83516116c481612005565b815260208401516116d481612005565b60208201526040848101519082015260608085015190820152825260a0607f198201121561170157600080fd5b61170b6040611f7e565b608084015161171981612005565b81526080609f198301121561172d57600080fd5b6117376080611f7e565b915060a0840151825260c0840151602083015260e084015160408301526101008401516060830152816020820152806020840152505092915050565b600060208284031215611784578081fd5b813561126d81612005565b600080604083850312156117a1578081fd5b82356117ac81612005565b9150602083013567ffffffffffffffff8111156117c7578182fd5b6117d385828601611634565b9150509250929050565b6000806000606084860312156117f1578081fd5b83356117fc81612005565b925060208401359150604084013567ffffffffffffffff81111561181e578182fd5b61182a86828701611634565b9150509250925092565b600060208284031215611845578081fd5b8151801515811461126d578182fd5b600060208284031215611865578081fd5b813567ffffffffffffffff81111561187b578182fd5b610ec784828501611634565b600060208284031215611898578081fd5b815161126d81612005565b6000602082840312156118b4578081fd5b815167ffffffffffffffff8111156118ca578182fd5b610ec7848285016115e2565b600081830360808112156118e8578182fd5b6118f26040611f7e565b83516118fd81612005565b81526060601f1983011215611910578283fd5b61191a6060611f7e565b9150602084015161192a81612005565b8252604084015161193a81612005565b6020830152606084015161194d81612005565b604083015260208101919091529392505050565b60006101208284031215611973578081fd5b61126d8383611682565b60006020828403121561198e578081fd5b815167ffffffffffffffff808211156119a5578283fd5b8184016101a081870312156119b8578384fd5b6119c260a0611f7e565b92506119ce8682611682565b835261012081015160208401526101408101516040840152610160810151606084015261018081015182811115611a03578485fd5b611a0f878284016115e2565b6080850152509195945050505050565b600060208284031215611a30578081fd5b5051919050565b60008151808452611a4f816020860160208601611fd5565b601f01601f19169290920160200192915050565b805160018060a01b03808251168452806020830151166020850152506040810151604084015260608101516060840152506020810151611aa38151611fc9565b60808401526020810151805160a0850152602081015160c0850152604081015160e0850152606081015161010085015250505050565b9283526020830191909152604082015260600190565b60008251611b01818460208701611fd5565b9190910192915050565b6001600160a01b0391909116815260200190565b6001600160a01b0388811682528781166020830152868116604083015285811660608301528416608082015260a0810183905260e060c08201819052600090611b6a90830184611a37565b9998505050505050505050565b6001600160a01b03958616815293851660208501529190931660408301526060820192909252608081019190915260a00190565b6001600160a01b0383168152604060208201819052600090610ec790830184611a37565b6001600160a01b03929092168252602082015260400190565b901515815260200190565b600085825284602083015283604083015260806060830152611c186080830184611a37565b9695505050505050565b60006020825261126d6020830184611a37565b60208082526016908201527563616e277420696e697469616c697a6520747769636560501b604082015260600190565b6020808252601490820152731ad9595c195c881c185e5bdd5d0819985a5b195960621b604082015260600190565b6020808252601190820152701b1bd85b8818995a5b99c81c995c185a59607a1b604082015260600190565b6020808252601f908201527f66756e6374696f6e2068616e646c6572206e6f74207265676973746572656400604082015260600190565b60208082526022908201527f756e617574686f72697a65642076696577206c617965722064656c656761746960408201526137b760f11b606082015260800190565b6020808252601590820152741d1bdad95b881d1c985b9cd9995c8819985a5b1959605a1b604082015260600190565b6020808252601490820152731c1c9bde1e481c9958dbdc99081a5b9d985b1a5960621b604082015260600190565b60208082526029908201527f626f72726f772070726f78792063616e206f6e6c792062652075736564206279604082015268103137b93937bbb2b960b91b606082015260800190565b6020808252601390820152721b1bd85b88185b1c9958591e481c995c185a59606a1b604082015260600190565b60208082526021908201527f536166654d6174683a206d756c7469706c69636174696f6e206f766572666c6f6040820152607760f81b606082015260800190565b60208082526023908201527f6c6f616e207265736f6c7574696f6e206e6f74696669636174696f6e206661696040820152621b195960ea1b606082015260800190565b60208082526019908201527f70726f7879206973206265696e67206c69717569646174656400000000000000604082015260600190565b60208082526017908201527f6c6f616e207265736f6c7574696f6e206661696c757265000000000000000000604082015260600190565b6020808252602a908201527f6661696c656420746f207472616e73666572207265636c61696d65642066756e604082015269191cc81d1bc81c1bdbdb60b21b606082015260800190565b9283526001600160a01b039190911660208301526001600160e01b031916604082015260600190565b61012081016101de8284611a63565b60405181810167ffffffffffffffff81118282101715611f9d57600080fd5b604052919050565b600067ffffffffffffffff821115611fbb578081fd5b50601f01601f191660200190565b6001600160a01b031690565b60005b83811015611ff0578181015183820152602001611fd8565b83811115611fff576000848401525b50505050565b6001600160a01b038116811461201a57600080fd5b5056fe6361707475726564206120726576657274206572726f722c2062757420697420646f65736e277420636f6e666f726d20746f20746865207374616e64617264a26469706673582212207eb437a91c1d13f77c9f804e23519bdb9429fbc0dc64be99fbfc7b5640e6bb1b64736f6c63430006020033a2646970667358221220236eb32d2823005331a6a5f4a6ec3d90e04bb6fa1be7ad1310fb6da9d0f5ec6064736f6c63430006020033",
  "source": "pragma solidity ^0.6.0;\npragma experimental ABIEncoderV2;\n\nimport { Ownable } from \"openzeppelin-solidity/contracts/access/Ownable.sol\";\nimport { IShifterRegistry } from \"./interfaces/IShifterRegistry.sol\";\nimport { IShifter } from \"./interfaces/IShifter.sol\";\nimport { ShifterPoolLib } from \"./ShifterPoolLib.sol\";\nimport { ShifterBorrowProxyLib } from \"./ShifterBorrowProxyLib.sol\";\nimport { ShifterBorrowProxyFactoryLib } from \"./ShifterBorrowProxyFactoryLib.sol\";\nimport { BorrowProxy } from \"./BorrowProxy.sol\";\nimport { BorrowProxyLib } from \"./BorrowProxyLib.sol\";\nimport { TokenUtils } from \"./utils/TokenUtils.sol\";\nimport { ViewExecutor } from \"./utils/ViewExecutor.sol\";\nimport { LiquidityToken } from \"./LiquidityToken.sol\";\n\ncontract ShifterPool is Ownable, ViewExecutor {\n  using ShifterPoolLib for *;\n  using TokenUtils for *;\n  using ShifterBorrowProxyLib for *;\n  using ShifterBorrowProxyFactoryLib for *;\n  using BorrowProxyLib for *;\n  ShifterPoolLib.Isolate isolate;\n  function setup(address shifterRegistry, uint256 minTimeout, uint256 poolFee, BorrowProxyLib.ModuleRegistration[] memory modules, ShifterPoolLib.LiquidityTokenLaunch[] memory tokenLaunches) public onlyOwner {\n    require(isolate.shifterRegistry == address(0x0), \"already initialized\");\n    isolate.shifterRegistry = shifterRegistry;\n    isolate.minTimeout = minTimeout;\n    isolate.poolFee = poolFee;\n    for (uint256 i = 0; i < modules.length; i++) {\n      BorrowProxyLib.ModuleRegistration memory registration = modules[i];\n      isolate.registry.registryRegisterModule(registration);\n    }\n    for (uint256 i = 0; i < tokenLaunches.length; i++) {\n      ShifterPoolLib.LiquidityTokenLaunch memory launch = tokenLaunches[i];\n      isolate.tokenToLiquidityToken[launch.token] = launch.liqToken;\n    }\n  }\n  function executeBorrow(ShifterBorrowProxyLib.LiquidityRequestParcel memory liquidityRequestParcel, uint256 bond, uint256 timeoutExpiry) public payable {\n    require(liquidityRequestParcel.gasRequested == msg.value, \"supplied ether is not equal to gas requested\");\n    bytes32 requestHash = liquidityRequestParcel.computeLiquidityRequestHash();\n    require(liquidityRequestParcel.validateSignature(requestHash), \"liquidity request signature rejected\");\n    ShifterBorrowProxyLib.LiquidityRequest memory liquidityRequest = liquidityRequestParcel.request;\n    bytes32 borrowerSalt = liquidityRequest.computeBorrowerSalt();\n    address payable proxyAddress = address(uint160(borrowerSalt.deriveBorrowerAddress()));\n    require(!isolate.borrowProxyController.isInitialized(proxyAddress), \"proxy has already been initialized\");\n    ShifterBorrowProxyLib.LenderRecord memory loan;\n    loan.keeper = msg.sender;\n    loan.params = isolate.computeLoanParams(liquidityRequest.amount, bond, timeoutExpiry);\n    ShifterBorrowProxyLib.ProxyRecord memory proxyRecord = ShifterBorrowProxyLib.ProxyRecord({\n      request: liquidityRequest,\n      loan: loan\n    });\n    bytes memory data = abi.encode(proxyRecord);\n    require(LiquidityToken(isolate.getLiquidityToken(liquidityRequest.token)).loan(proxyAddress, proxyRecord.computePostFee()), \"insufficient funds in liquidity pool\");\n    isolate.borrowProxyController.mapProxyRecord(proxyAddress, data);\n    isolate.borrowProxyController.setProxyOwner(proxyAddress, liquidityRequest.borrower);\n    liquidityRequest.borrower.transfer(msg.value);\n    require(liquidityRequest.token.transferTokenFrom(msg.sender, address(this), bond), \"bond submission failed\");\n    require(borrowerSalt.deployBorrowProxy() == proxyAddress, \"proxy deployment failed\");\n    require(BorrowProxy(proxyAddress).setup(liquidityRequest.borrower), \"setup phase failure\");\n    require(liquidityRequestParcel.actions.triggerActions(proxyAddress), \"iniialization actions fail\");\n    \n    BorrowProxyLib.emitBorrowProxyMade(liquidityRequest.borrower, proxyAddress, data);\n  }\n  function validateProxyRecordHandler(bytes memory proxyRecord) public view returns (bool) {\n    return isolate.borrowProxyController.validateProxyRecord(msg.sender, proxyRecord);\n  }\n  function getProxyOwnerHandler(address user) public view returns (address) {\n    return isolate.borrowProxyController.getProxyOwner(user);\n  }\n  function getShifterHandler(address token) public view returns (IShifter) {\n    return isolate.getShifter(token);\n  }\n  function getLiquidityTokenHandler(address token) public view returns (LiquidityToken) {\n    return LiquidityToken(isolate.getLiquidityToken(token));\n  }\n  function fetchModuleHandler(address to, bytes4 sig) public view returns (BorrowProxyLib.Module memory) {\n    return isolate.registry.resolveModule(to, sig);\n  }\n  function relayResolveLoan(address token, address liquidityToken, address keeper, uint256 bond, uint256 repay) public returns (bool) {\n    require(isolate.borrowProxyController.proxyInitializerRecord[msg.sender] != bytes32(0x0), \"not a registered borrow proxy\");\n    if (bond != 0) require(token.sendToken(keeper, bond), \"failed to return bond to keeper\");\n    if (repay != 0) require(token.sendToken(liquidityToken, repay), \"failed to repay lost funds\");\n    require(LiquidityToken(liquidityToken).resolveLoan(msg.sender), \"loan resolution failure\");\n    return true;\n  }\n}\n",
  "sourcePath": "/home/ray/0confirmation/packages/0confirmation-sol/contracts/ShifterPool.sol",
  "compiler": {
    "name": "solc",
    "version": "0.6.2+commit.bacdbe57.Emscripten.clang"
  },
  "schemaVersion": "3.0.23",
  "updatedAt": "2020-04-05T23:53:40.854Z",
  "devdoc": {
    "methods": {
      "owner()": {
        "details": "Returns the address of the current owner."
      },
      "renounceOwnership()": {
        "details": "Leaves the contract without owner. It will not be possible to call `onlyOwner` functions anymore. Can only be called by the current owner.     * NOTE: Renouncing ownership will leave the contract without an owner, thereby removing any functionality that is only available to the owner."
      },
      "transferOwnership(address)": {
        "details": "Transfers ownership of the contract to a new account (`newOwner`). Can only be called by the current owner."
      }
    }
  },
  "userdoc": {
    "methods": {}
  }
}