{
  "contractName": "ShifterPool",
  "abi": [
    {
      "anonymous": false,
      "inputs": [
        {
          "indexed": true,
          "internalType": "address",
          "name": "previousOwner",
          "type": "address"
        },
        {
          "indexed": true,
          "internalType": "address",
          "name": "newOwner",
          "type": "address"
        }
      ],
      "name": "OwnershipTransferred",
      "type": "event"
    },
    {
      "inputs": [
        {
          "internalType": "address",
          "name": "delegateTo",
          "type": "address"
        },
        {
          "internalType": "bytes",
          "name": "callData",
          "type": "bytes"
        }
      ],
      "name": "_executeQuery",
      "outputs": [
        {
          "internalType": "bytes",
          "name": "",
          "type": "bytes"
        }
      ],
      "stateMutability": "nonpayable",
      "type": "function"
    },
    {
      "inputs": [],
      "name": "owner",
      "outputs": [
        {
          "internalType": "address",
          "name": "",
          "type": "address"
        }
      ],
      "stateMutability": "view",
      "type": "function"
    },
    {
      "inputs": [
        {
          "internalType": "address",
          "name": "viewLogic",
          "type": "address"
        },
        {
          "internalType": "bytes",
          "name": "payload",
          "type": "bytes"
        }
      ],
      "name": "query",
      "outputs": [
        {
          "internalType": "bytes",
          "name": "",
          "type": "bytes"
        }
      ],
      "stateMutability": "view",
      "type": "function"
    },
    {
      "inputs": [],
      "name": "renounceOwnership",
      "outputs": [],
      "stateMutability": "nonpayable",
      "type": "function"
    },
    {
      "inputs": [
        {
          "internalType": "address",
          "name": "newOwner",
          "type": "address"
        }
      ],
      "name": "transferOwnership",
      "outputs": [],
      "stateMutability": "nonpayable",
      "type": "function"
    },
    {
      "inputs": [
        {
          "internalType": "address",
          "name": "shifterRegistry",
          "type": "address"
        },
        {
          "internalType": "uint256",
          "name": "minTimeout",
          "type": "uint256"
        },
        {
          "internalType": "uint256",
          "name": "poolFee",
          "type": "uint256"
        },
        {
          "components": [
            {
              "internalType": "enum BorrowProxyLib.ModuleRegistrationType",
              "name": "moduleType",
              "type": "uint8"
            },
            {
              "internalType": "address",
              "name": "target",
              "type": "address"
            },
            {
              "internalType": "bytes4[]",
              "name": "sigs",
              "type": "bytes4[]"
            },
            {
              "components": [
                {
                  "internalType": "bool",
                  "name": "isPrecompiled",
                  "type": "bool"
                },
                {
                  "internalType": "address",
                  "name": "assetSubmodule",
                  "type": "address"
                },
                {
                  "internalType": "address",
                  "name": "liquidationSubmodule",
                  "type": "address"
                },
                {
                  "internalType": "address",
                  "name": "repaymentSubmodule",
                  "type": "address"
                }
              ],
              "internalType": "struct BorrowProxyLib.Module",
              "name": "module",
              "type": "tuple"
            }
          ],
          "internalType": "struct BorrowProxyLib.ModuleRegistration[]",
          "name": "modules",
          "type": "tuple[]"
        },
        {
          "components": [
            {
              "internalType": "address",
              "name": "token",
              "type": "address"
            },
            {
              "internalType": "address",
              "name": "liqToken",
              "type": "address"
            }
          ],
          "internalType": "struct ShifterPoolLib.LiquidityTokenLaunch[]",
          "name": "tokenLaunches",
          "type": "tuple[]"
        }
      ],
      "name": "setup",
      "outputs": [],
      "stateMutability": "nonpayable",
      "type": "function"
    },
    {
      "inputs": [
        {
          "components": [
            {
              "components": [
                {
                  "internalType": "address payable",
                  "name": "borrower",
                  "type": "address"
                },
                {
                  "internalType": "address",
                  "name": "token",
                  "type": "address"
                },
                {
                  "internalType": "bytes32",
                  "name": "nonce",
                  "type": "bytes32"
                },
                {
                  "internalType": "uint256",
                  "name": "amount",
                  "type": "uint256"
                }
              ],
              "internalType": "struct ShifterBorrowProxyLib.LiquidityRequest",
              "name": "request",
              "type": "tuple"
            },
            {
              "internalType": "uint256",
              "name": "gasRequested",
              "type": "uint256"
            },
            {
              "components": [
                {
                  "internalType": "address",
                  "name": "to",
                  "type": "address"
                },
                {
                  "internalType": "bytes",
                  "name": "txData",
                  "type": "bytes"
                }
              ],
              "internalType": "struct ShifterBorrowProxyLib.InitializationAction[]",
              "name": "actions",
              "type": "tuple[]"
            },
            {
              "internalType": "bytes",
              "name": "signature",
              "type": "bytes"
            }
          ],
          "internalType": "struct ShifterBorrowProxyLib.LiquidityRequestParcel",
          "name": "liquidityRequestParcel",
          "type": "tuple"
        },
        {
          "internalType": "uint256",
          "name": "bond",
          "type": "uint256"
        },
        {
          "internalType": "uint256",
          "name": "timeoutExpiry",
          "type": "uint256"
        }
      ],
      "name": "executeBorrow",
      "outputs": [],
      "stateMutability": "payable",
      "type": "function"
    },
    {
      "inputs": [
        {
          "internalType": "bytes",
          "name": "proxyRecord",
          "type": "bytes"
        }
      ],
      "name": "validateProxyRecordHandler",
      "outputs": [
        {
          "internalType": "bool",
          "name": "",
          "type": "bool"
        }
      ],
      "stateMutability": "view",
      "type": "function"
    },
    {
      "inputs": [
        {
          "internalType": "address",
          "name": "proxyAddress",
          "type": "address"
        }
      ],
      "name": "getProxyTokenHandler",
      "outputs": [
        {
          "internalType": "address",
          "name": "",
          "type": "address"
        }
      ],
      "stateMutability": "view",
      "type": "function"
    },
    {
      "inputs": [
        {
          "internalType": "address",
          "name": "user",
          "type": "address"
        }
      ],
      "name": "getProxyOwnerHandler",
      "outputs": [
        {
          "internalType": "address",
          "name": "",
          "type": "address"
        }
      ],
      "stateMutability": "view",
      "type": "function"
    },
    {
      "inputs": [
        {
          "internalType": "address",
          "name": "token",
          "type": "address"
        }
      ],
      "name": "getShifterHandler",
      "outputs": [
        {
          "internalType": "contract IShifter",
          "name": "",
          "type": "address"
        }
      ],
      "stateMutability": "view",
      "type": "function"
    },
    {
      "inputs": [
        {
          "internalType": "address",
          "name": "token",
          "type": "address"
        }
      ],
      "name": "getLiquidityTokenHandler",
      "outputs": [
        {
          "internalType": "contract LiquidityToken",
          "name": "",
          "type": "address"
        }
      ],
      "stateMutability": "view",
      "type": "function"
    },
    {
      "inputs": [
        {
          "internalType": "address",
          "name": "to",
          "type": "address"
        },
        {
          "internalType": "bytes4",
          "name": "sig",
          "type": "bytes4"
        }
      ],
      "name": "fetchModuleHandler",
      "outputs": [
        {
          "components": [
            {
              "internalType": "bool",
              "name": "isPrecompiled",
              "type": "bool"
            },
            {
              "internalType": "address",
              "name": "assetSubmodule",
              "type": "address"
            },
            {
              "internalType": "address",
              "name": "liquidationSubmodule",
              "type": "address"
            },
            {
              "internalType": "address",
              "name": "repaymentSubmodule",
              "type": "address"
            }
          ],
          "internalType": "struct BorrowProxyLib.Module",
          "name": "",
          "type": "tuple"
        }
      ],
      "stateMutability": "view",
      "type": "function"
    },
    {
      "inputs": [
        {
          "internalType": "address",
          "name": "token",
          "type": "address"
        },
        {
          "internalType": "address",
          "name": "liquidityToken",
          "type": "address"
        },
        {
          "internalType": "address",
          "name": "keeper",
          "type": "address"
        },
        {
          "internalType": "uint256",
          "name": "bond",
          "type": "uint256"
        },
        {
          "internalType": "uint256",
          "name": "repay",
          "type": "uint256"
        }
      ],
      "name": "relayResolveLoan",
      "outputs": [
        {
          "internalType": "bool",
          "name": "",
          "type": "bool"
        }
      ],
      "stateMutability": "nonpayable",
      "type": "function"
    }
  ],
  "bytecode": "0x608060405260006100176001600160e01b0361006616565b600080546001600160a01b0319166001600160a01b0383169081178255604051929350917f8be0079c531659141344cd1fd0a4f28419497f9722a3daafe3b4186f6b6457e0908290a35061006a565b3390565b614ff8806200007a6000396000f3fe6080604052600436106100dd5760003560e01c8063798aada01161007f578063e6c1f07411610059578063e6c1f0741461023e578063ea82c9b31461025e578063f2fde38b1461027e578063fd00430c1461029e576100dd565b8063798aada0146101e9578063801874ec146102095780638da5cb5b14610229576100dd565b806329658b02116100bb57806329658b021461017257806344112360146101925780636b0decf3146101bf578063715018a6146101d4576100dd565b806308f60495146100e25780631fbc78dc1461011857806323e3b73014610145575b600080fd5b3480156100ee57600080fd5b506101026100fd3660046121e4565b6102be565b60405161010f9190612658565b60405180910390f35b34801561012457600080fd5b50610138610133366004611fe8565b6102da565b60405161010f9190612520565b34801561015157600080fd5b506101656101603660046120a2565b6102ed565b60405161010f9190612681565b34801561017e57600080fd5b5061013861018d366004611fe8565b61038c565b34801561019e57600080fd5b506101b26101ad36600461205e565b61039f565b60405161010f9190612c6b565b6101d26101cd3660046122a9565b6103c0565b005b3480156101e057600080fd5b506101d2610757565b3480156101f557600080fd5b50610138610204366004611fe8565b6107d6565b34801561021557600080fd5b50610102610224366004612004565b6107e9565b34801561023557600080fd5b50610138610933565b34801561024a57600080fd5b50610138610259366004611fe8565b610942565b34801561026a57600080fd5b506101d26102793660046120f0565b610955565b34801561028a57600080fd5b506101d2610299366004611fe8565b610a93565b3480156102aa57600080fd5b506101656102b93660046120a2565b610ad4565b60006102d26007338463ffffffff610b9a16565b90505b919050565b60006102d260018363ffffffff610bc016565b60603330146103175760405162461bcd60e51b815260040161030e90612918565b60405180910390fd5b60006060846001600160a01b03168460405161033391906124d3565b600060405180830381855af49150503d806000811461036e576040519150601f19603f3d011682016040523d82523d6000602084013e610373565b606091505b50915091508161038257600080fd5b9150505b92915050565b60006102d260078363ffffffff610c4016565b6103a7611bd6565b6103b9600b848463ffffffff610c6316565b9392505050565b348360200151146103e35760405162461bcd60e51b815260040161030e90612826565b60006103ee84610d53565b9050610400848263ffffffff610db516565b61041c5760405162461bcd60e51b815260040161030e90612af3565b610424611bd6565b508351600061043282610de6565b9050600061043f82610e0f565b905061045260078263ffffffff610e4516565b1561046f5760405162461bcd60e51b815260040161030e906126cb565b610477611bfd565b338152606084015161049390600190898963ffffffff610e6316565b60208201526104a0611c25565b604051806040016040528086815260200183815250905060606104c282610f63565b90506104dc86602001516001610f8c90919063ffffffff16565b6001600160a01b031663185cc751856104f485610fc8565b6040518363ffffffff1660e01b815260040161051192919061254e565b602060405180830381600087803b15801561052b57600080fd5b505af115801561053f573d6000803e3d6000fd5b505050506040513d601f19601f8201168201806040525081019061056391906121c8565b61057f5760405162461bcd60e51b815260040161030e9061295a565b6105916007858363ffffffff61100016565b60208601516105aa90600790869063ffffffff61102316565b85516105c090600790869063ffffffff61105716565b85516040516001600160a01b03909116903480156108fc02916000818181858888f193505050501580156105f8573d6000803e3d6000fd5b506020860151610619906001600160a01b031633308c63ffffffff61108b16565b6106355760405162461bcd60e51b815260040161030e90612b6c565b836001600160a01b031661064886611131565b6001600160a01b03161461066e5760405162461bcd60e51b815260040161030e906127ef565b85516020870151604051632d34ba7960e01b81526001600160a01b03871692632d34ba799261069f92600401612534565b602060405180830381600087803b1580156106b957600080fd5b505af11580156106cd573d6000803e3d6000fd5b505050506040513d601f19601f820116820180604052508101906106f191906121c8565b61070d5760405162461bcd60e51b815260040161030e906128a9565b60408a0151610722908563ffffffff61115f16565b61073e5760405162461bcd60e51b815260040161030e90612b9c565b855161074b9085836111a9565b50505050505050505050565b61075f6111f9565b6000546001600160a01b0390811691161461078c5760405162461bcd60e51b815260040161030e90612b37565b600080546040516001600160a01b03909116907f8be0079c531659141344cd1fd0a4f28419497f9722a3daafe3b4186f6b6457e0908390a3600080546001600160a01b0319169055565b60006102d260018363ffffffff610f8c16565b336000908152600760205260408120546108155760405162461bcd60e51b815260040161030e906129cb565b8215610851576108356001600160a01b038716858563ffffffff6111fd16565b6108515760405162461bcd60e51b815260040161030e90612a7b565b811561088d576108716001600160a01b038716868463ffffffff6111fd16565b61088d5760405162461bcd60e51b815260040161030e90612872565b60405163c3275c7960e01b81526001600160a01b0386169063c3275c79906108b9903390600401612520565b602060405180830381600087803b1580156108d357600080fd5b505af11580156108e7573d6000803e3d6000fd5b505050506040513d601f19601f8201168201806040525081019061090b91906121c8565b6109275760405162461bcd60e51b815260040161030e90612c08565b50600195945050505050565b6000546001600160a01b031690565b60006102d260078363ffffffff6112a016565b61095d6111f9565b6000546001600160a01b0390811691161461098a5760405162461bcd60e51b815260040161030e90612b37565b6001546001600160a01b0316156109b35760405162461bcd60e51b815260040161030e9061299e565b600180546001600160a01b0319166001600160a01b0387161790556002849055600383905560005b8251811015610a1f576109ec611c45565b8382815181106109f857fe5b60209081029190910101519050610a16600b8263ffffffff6112c316565b506001016109db565b5060005b8151811015610a8b57610a34611c6e565b828281518110610a4057fe5b6020908102919091018101518082015190516001600160a01b0390811660009081526006909352604090922080546001600160a01b0319169290911691909117905550600101610a23565b505050505050565b610a9b6111f9565b6000546001600160a01b03908116911614610ac85760405162461bcd60e51b815260040161030e90612b37565b610ad18161137f565b50565b606060006060846001600160a01b03168585604051602401610af792919061258b565b60408051601f198184030181529181526020820180516001600160e01b031663023e3b7360e41b17905251610b2c91906124d3565b600060405180830381855afa9150503d8060008114610b67576040519150601f19603f3d011682016040523d82523d6000602084013e610b6c565b606091505b5091509150818190610b915760405162461bcd60e51b815260040161030e9190612681565b50949350505050565b80516020918201206001600160a01b039290921660009081529290526040909120541490565b815460405163028c4f4160e41b81526000916001600160a01b0316906328c4f41090610bf0908590600401612520565b60206040518083038186803b158015610c0857600080fd5b505afa158015610c1c573d6000803e3d6000fd5b505050506040513d601f19601f820116820180604052508101906103b99190612217565b6001600160a01b0380821660009081526002840160205260409020541692915050565b610c6b611bd6565b610c73611bd6565b846000610c808686611400565b815260208082019290925260409081016000208151608081018352815460ff8116151582526001600160a01b0361010090910481169482019490945260018201548416928101929092526002015490911660608201529050610ce181611440565b610d4b57846000610cf28686611452565b815260208082019290925260409081016000208151608081018352815460ff8116151582526001600160a01b03610100909104811694820194909452600182015484169281019290925260020154909116606082015290505b949350505050565b6000308260000151602001518360000151604001518460000151606001518560200151610d838760400151611485565b604051602001610d9896959493929190612405565b604051602081830303815290604052805190602001209050919050565b6000610dcd610dc383611498565b84606001516114ab565b8351516001600160a01b03908116911614905092915050565b60008160000151826020015183604001518460600151604051602001610d9894939291906123d7565b60006102d28260405180602001610e2590611c85565b6020820181038252601f19601f82011660405250805190602001206115d9565b6001600160a01b031660009081526020919091526040902054151590565b610e6b611c92565b8460010154821015610e8f5760405162461bcd60e51b815260040161030e9061270d565b6000610eaa670de0b6b3a7640000606463ffffffff6115e616565b9050610ec5670de0b6b3a7640000606463ffffffff6115e616565b610eed86610ee187670de0b6b3a764000063ffffffff61162816565b9063ffffffff6115e616565b11610f0a5760405162461bcd60e51b815260040161030e90612c3f565b6000848610610f2c57610f2786610ee1848863ffffffff61162816565b610f2e565b815b905060405180608001604052808543018152602001868152602001886002015481526020018281525092505050949350505050565b606081604051602001610f769190612ca9565b6040516020818303038152906040529050919050565b6001600160a01b038082166000908152600584016020526040812054909116806103b95760405162461bcd60e51b815260040161030e90612bd3565b60006102d2610fee610fd984611662565b610fe285611697565b9063ffffffff6116cc16565b8351606001519063ffffffff6116f116565b80516020918201206001600160a01b039092166000908152929052604090912055565b6001600160a01b039182166000908152600290930160205260409092208054919092166001600160a01b0319909116179055565b6001600160a01b039182166000908152600190930160205260409092208054919092166001600160a01b0319909116179055565b600080856001600160a01b03168585856040516024016110ad93929190612567565b60408051601f198184030181529181526020820180516001600160e01b03166323b872dd60e01b179052516110e291906124d3565b6000604051808303816000865af19150503d806000811461111f576040519150601f19603f3d011682016040523d82523d6000602084013e611124565b606091505b5090979650505050505050565b60006102d2826040518060200161114790611c85565b601f1982820381018352601f90910116604052611733565b6000805b835181101561119f5761118984828151811061117b57fe5b602002602001015184611768565b611197576000915050610386565b600101611163565b5060019392505050565b816001600160a01b0316836001600160a01b03167f9ae84ac2ad8f721c2e62d211eca0ae34951726f8834913af6c5ebb81610bb1f8836040516111ec9190612681565b60405180910390a3505050565b3390565b600080846001600160a01b0316848460405160240161121d92919061254e565b60408051601f198184030181529181526020820180516001600160e01b031663a9059cbb60e01b1790525161125291906124d3565b6000604051808303816000865af19150503d806000811461128f576040519150601f19603f3d011682016040523d82523d6000602084013e611294565b606091505b50909695505050505050565b6001600160a01b0380821660009081526001840160205260409020541692915050565b6001815160028111156112d257fe5b14156113215760005b81604001515181101561131b576113138383602001518460400151848151811061130157fe5b60200260200101518560600151611852565b6001016112db565b5061137b565b60028151600281111561133057fe5b141561137b5760005b816040015151811015611379576113718383602001518460400151848151811061135f57fe5b602002602001015185606001516118dc565b600101611339565b505b5050565b6001600160a01b0381166113a55760405162461bcd60e51b815260040161030e90612772565b600080546040516001600160a01b03808516939216917f8be0079c531659141344cd1fd0a4f28419497f9722a3daafe3b4186f6b6457e091a3600080546001600160a01b0319166001600160a01b0392909216919091179055565b60008061140c846118ea565b905080836040516020016114219291906124bb565b6040516020818303038152906040528051906020012091505092915050565b602001516001600160a01b0316151590565b60008282604051602001611467929190612460565b60405160208183030381529060405280519060200120905092915050565b606081604051602001610f7691906125dc565b600081604051602001610d9891906124ef565b600081516041146114ce5760405162461bcd60e51b815260040161030e9061273b565b60208201516040830151606084015160001a7f7fffffffffffffffffffffffffffffff5d576e7357a4501ddfe92f46681b20a08211156115205760405162461bcd60e51b815260040161030e906128d6565b8060ff16601b1415801561153857508060ff16601c14155b156115555760405162461bcd60e51b815260040161030e90612a02565b60006001878386866040516000815260200160405260405161157a9493929190612663565b6020604051602081039080840390855afa15801561159c573d6000803e3d6000fd5b5050604051601f1901519150506001600160a01b0381166115cf5760405162461bcd60e51b815260040161030e90612694565b9695505050505050565b60006103b98383306118ee565b60006103b983836040518060400160405280601a81526020017f536166654d6174683a206469766973696f6e206279207a65726f000000000000815250611936565b60008261163757506000610386565b8282028284828161164457fe5b04146103b95760405162461bcd60e51b815260040161030e90612ab2565b60006102d2670de0b6b3a7640000610ee18460200151602001516060015185600001516060015161162890919063ffffffff16565b60006102d2670de0b6b3a7640000610ee18460200151602001516040015185600001516060015161162890919063ffffffff16565b6000828201838110156103b95760405162461bcd60e51b815260040161030e906127b8565b60006103b983836040518060400160405280601e81526020017f536166654d6174683a207375627472616374696f6e206f766572666c6f77000081525061196d565b600080838351602085016000f590506001600160a01b0381166103b95760405162461bcd60e51b815260040161030e90612a44565b6000806060836001600160a01b03165a86516020880151604051631349792d60e11b9261179d929091600091906024016125af565b60408051601f198184030181529181526020820180516001600160e01b03166001600160e01b03199094169390931790925290516117db91906124d3565b60006040518083038160008787f1925050503d8060008114611819576040519150601f19603f3d011682016040523d82523d6000602084013e61181e565b606091505b50915091508161184a5761183181611999565b60405162461bcd60e51b815260040161030e9190612681565b509392505050565b808460006118608686611400565b81526020808201929092526040908101600020835181549385015160ff1990941690151517610100600160a81b0319166101006001600160a01b0394851602178155908301516001820180546001600160a01b031990811692851692909217905560609093015160029091018054909316911617905550505050565b808460006118608686611452565b3f90565b60008060ff60f81b83868660405160200161190c9493929190612487565b60408051808303601f1901815291905280516020909101206001600160a01b031695945050505050565b600081836119575760405162461bcd60e51b815260040161030e9190612681565b50600083858161196357fe5b0495945050505050565b600081848411156119915760405162461bcd60e51b815260040161030e9190612681565b505050900390565b60608151600014156119df575060408051808201909152601c81527f636170747572656420656d70747920726576657274206275666665720000000060208201526102d5565b6308c379a06119f96119f48460006004611a9c565b611ac5565b63ffffffff1614611a24576040518060600160405280603f8152602001614f84603f913990506102d5565b6060611a3f611a3a84600463ffffffff611ada16565b611afe565b9050805160001415611a8657505060408051808201909152601d81527f636170747572656420656d70747920726576657274206d65737361676500000060208201526102d5565b606081806020019051810190610d4b9190612233565b611aa4611cba565b611aae8484611b6e565b815260208101919091526040810191909152919050565b8051602082015160009190610d4b8282611b75565b611ae2611cba565b8183511015611af057825191505b6103b9838384865103611a9c565b60208101516060908067ffffffffffffffff81118015611b1d57600080fd5b506040519080825280601f01601f191660200182016040528015611b48576020820181803683370190505b5083519092506000611b5984611b92565b9050611b66818385611b98565b505050919050565b0160200190565b6000600180600884021b0380836020038503511691505092915050565b60200190565b5b60208110611bb8578151835260209283019290910190601f1901611b99565b600180600883602003021b0380845116811984511617845250505050565b60408051608081018252600080825260208201819052918101829052606081019190915290565b604051806040016040528060006001600160a01b03168152602001611c20611c92565b905290565b6040518060400160405280611c38611bd6565b8152602001611c20611bfd565b604080516080810190915280600081526000602082015260606040820181905201611c20611bd6565b604080518082019091526000808252602082015290565b6121a180612de383390190565b6040518060800160405280600081526020016000815260200160008152602001600081525090565b60405180606001604052806000815260200160008152602001600081525090565b803561038681612db2565b600082601f830112611cf6578081fd5b8135611d09611d0482612d3e565b612d17565b818152915060208083019084810160005b84811015611d935781358701604080601f19838c03011215611d3b57600080fd5b611d4481612d17565b85830135611d5181612db2565b81528282013567ffffffffffffffff811115611d6c57600080fd5b611d7a8c8883870101611e57565b8288015250865250509282019290820190600101611d1a565b505050505092915050565b600082601f830112611dae578081fd5b8135611dbc611d0482612d3e565b8181529150602080830190848101604080850287018301881015611ddf57600080fd5b6000805b86811015611e325782848b031215611df9578182fd5b611e0283612d17565b8435611e0d81612db2565b815284860135611e1c81612db2565b8187015286529484019492820192600101611de3565b5050505050505092915050565b80356001600160e01b03198116811461038657600080fd5b600082601f830112611e67578081fd5b8135611e75611d0482612d5e565b9150808252836020828501011115611e8c57600080fd5b8060208401602084013760009082016020015292915050565b600060e08284031215611eb6578081fd5b611ec06080612d17565b90508135611ecd81612dd5565b8152602082810135611ede81612db2565b82820152604083013567ffffffffffffffff811115611efc57600080fd5b80840185601f820112611f0e57600080fd5b80359150611f1e611d0483612d3e565b8281528381019082850185850284018601891015611f3b57600080fd5b600093505b84841015611f6657611f528982611e3f565b835260019390930192918501918501611f40565b508060408701525050505050611f7f8360608401611f8a565b606082015292915050565b600060808284031215611f9b578081fd5b611fa56080612d17565b90508135611fb281612dc7565b81526020820135611fc281612db2565b60208201526040820135611fd581612db2565b60408201526060820135611f7f81612db2565b600060208284031215611ff9578081fd5b81356103b981612db2565b600080600080600060a0868803121561201b578081fd5b853561202681612db2565b9450602086013561203681612db2565b9350604086013561204681612db2565b94979396509394606081013594506080013592915050565b60008060408385031215612070578182fd5b823561207b81612db2565b915060208301356001600160e01b031981168114612097578182fd5b809150509250929050565b600080604083850312156120b4578182fd5b82356120bf81612db2565b9150602083013567ffffffffffffffff8111156120da578182fd5b6120e685828601611e57565b9150509250929050565b600080600080600060a08688031215612107578283fd5b853561211281612db2565b9450602086810135945060408701359350606087013567ffffffffffffffff8082111561213d578384fd5b8189018a601f82011261214e578485fd5b8035925061215e611d0484612d3e565b83815284810190828601875b86811015612193576121818f898435880101611ea5565b8452928701929087019060010161216a565b5090975050505060808901359250808311156121ad578384fd5b50506121bb88828901611d9e565b9150509295509295909350565b6000602082840312156121d9578081fd5b81516103b981612dc7565b6000602082840312156121f5578081fd5b813567ffffffffffffffff81111561220b578182fd5b610d4b84828501611e57565b600060208284031215612228578081fd5b81516103b981612db2565b600060208284031215612244578081fd5b815167ffffffffffffffff81111561225a578182fd5b80830184601f82011261226b578283fd5b8051915061227b611d0483612d5e565b82815285602084840101111561228f578384fd5b6122a0836020830160208501612d82565b95945050505050565b6000806000606084860312156122bd578081fd5b833567ffffffffffffffff808211156122d4578283fd5b818601808803925060e08312156122e9578384fd5b6122f36080612d17565b6080841215612300578485fd5b61230a6080612d17565b93506123168983611cdb565b84526123258960208401611cdb565b602085015260408201356040850152606082013560608501528381526080820135602082015260a082013593508284111561235e578485fd5b61236a89858401611ce6565b604082015260c0820135935082841115612382578485fd5b61238e89858401611e57565b606082015298602088013598506040909701359695505050505050565b600081518084526123c3816020860160208601612d82565b601f01601f19169290920160200192915050565b6001600160601b0319606095861b811682529390941b90921660148401526028830152604882015260680190565b60006bffffffffffffffffffffffff19808960601b168352808860601b16601484015250856028830152846048830152836068830152825161244e816088850160208701612d82565b91909101608801979650505050505050565b60609290921b6001600160601b03191682526001600160e01b031916601482015260180190565b6001600160f81b031994909416845260609290921b6001600160601b03191660018401526015830152603582015260550190565b9182526001600160e01b031916602082015260240190565b600082516124e5818460208701612d82565b9190910192915050565b7f19457468657265756d205369676e6564204d6573736167653a0a3332000000008152601c810191909152603c0190565b6001600160a01b0391909116815260200190565b6001600160a01b0392831681529116602082015260400190565b6001600160a01b03929092168252602082015260400190565b6001600160a01b039384168152919092166020820152604081019190915260600190565b6001600160a01b0383168152604060208201819052600090610d4b908301846123ab565b6001600160a01b038416815260ff831660208201526060604082018190526000906122a0908301846123ab565b60208082528251828201819052600091906040908185019080840286018301878501865b8381101561264a57888303603f19018552815180516001600160a01b0316845287810151888501889052612636888601826123ab565b968901969450505090860190600101612600565b509098975050505050505050565b901515815260200190565b93845260ff9290921660208401526040830152606082015260800190565b6000602082526103b960208301846123ab565b60208082526018908201527f45434453413a20696e76616c6964207369676e61747572650000000000000000604082015260600190565b60208082526022908201527f70726f78792068617320616c7265616479206265656e20696e697469616c697a604082015261195960f21b606082015260800190565b6020808252601490820152731d1a5b595bdd5d081a5b9cdd59999a58da595b9d60621b604082015260600190565b6020808252601f908201527f45434453413a20696e76616c6964207369676e6174757265206c656e67746800604082015260600190565b60208082526026908201527f4f776e61626c653a206e6577206f776e657220697320746865207a65726f206160408201526564647265737360d01b606082015260800190565b6020808252601b908201527f536166654d6174683a206164646974696f6e206f766572666c6f770000000000604082015260600190565b60208082526017908201527f70726f7879206465706c6f796d656e74206661696c6564000000000000000000604082015260600190565b6020808252602c908201527f737570706c696564206574686572206973206e6f7420657175616c20746f206760408201526b185cc81c995c5d595cdd195960a21b606082015260800190565b6020808252601a908201527f6661696c656420746f207265706179206c6f73742066756e6473000000000000604082015260600190565b6020808252601390820152727365747570207068617365206661696c75726560681b604082015260600190565b60208082526022908201527f45434453413a20696e76616c6964207369676e6174757265202773272076616c604082015261756560f01b606082015260800190565b60208082526022908201527f756e617574686f72697a65642076696577206c617965722064656c656761746960408201526137b760f11b606082015260800190565b60208082526024908201527f696e73756666696369656e742066756e647320696e206c6971756964697479206040820152631c1bdbdb60e21b606082015260800190565b602080825260139082015272185b1c9958591e481a5b9a5d1a585b1a5e9959606a1b604082015260600190565b6020808252601d908201527f6e6f742061207265676973746572656420626f72726f772070726f7879000000604082015260600190565b60208082526022908201527f45434453413a20696e76616c6964207369676e6174757265202776272076616c604082015261756560f01b606082015260800190565b60208082526019908201527f437265617465323a204661696c6564206f6e206465706c6f7900000000000000604082015260600190565b6020808252601f908201527f6661696c656420746f2072657475726e20626f6e6420746f206b656570657200604082015260600190565b60208082526021908201527f536166654d6174683a206d756c7469706c69636174696f6e206f766572666c6f6040820152607760f81b606082015260800190565b60208082526024908201527f6c69717569646974792072657175657374207369676e61747572652072656a6560408201526318dd195960e21b606082015260800190565b6020808252818101527f4f776e61626c653a2063616c6c6572206973206e6f7420746865206f776e6572604082015260600190565b602080825260169082015275189bdb99081cdd589b5a5cdcda5bdb8819985a5b195960521b604082015260600190565b6020808252601a908201527f696e6969616c697a6174696f6e20616374696f6e73206661696c000000000000604082015260600190565b6020808252818101527f6e6f7420612072656769737465726564206c697175696469747920746f6b656e604082015260600190565b60208082526017908201527f6c6f616e207265736f6c7574696f6e206661696c757265000000000000000000604082015260600190565b602080825260129082015271626f6e642062656c6f77206d696e696d756d60701b604082015260600190565b8151151581526020808301516001600160a01b0390811691830191909152604080840151821690830152606092830151169181019190915260800190565b815180516001600160a01b0390811683526020808301518216818501526040808401518186015260609384015184860152948101518051909216608085015290810151805160a08501529081015160c08401529283015160e083015291909101516101008201526101200190565b60405181810167ffffffffffffffff81118282101715612d3657600080fd5b604052919050565b600067ffffffffffffffff821115612d54578081fd5b5060209081020190565b600067ffffffffffffffff821115612d74578081fd5b50601f01601f191660200190565b60005b83811015612d9d578181015183820152602001612d85565b83811115612dac576000848401525b50505050565b6001600160a01b0381168114610ad157600080fd5b8015158114610ad157600080fd5b60038110610ad157600080fdfe608060405234801561001057600080fd5b50612181806100206000396000f3fe6080604052600436106100595760003560e01c806323e3b730146100625780632692f25a146100985780632d34ba79146100b857806356b8e146146100e5578063c4ddf36314610105578063fd00430c1461012557610060565b3661006057005b005b34801561006e57600080fd5b5061008261007d366004611866565b610145565b60405161008f9190611cb0565b60405180910390f35b3480156100a457600080fd5b506100606100b33660046118b4565b6101e4565b3480156100c457600080fd5b506100d86100d336600461182e565b610471565b60405161008f9190611c76565b3480156100f157600080fd5b506100d8610100366004611927565b6104db565b34801561011157600080fd5b506100d8610120366004611927565b61088f565b34801561013157600080fd5b50610082610140366004611866565b610d23565b606033301461016f5760405162461bcd60e51b815260040161016690611d83565b60405180910390fd5b60006060846001600160a01b03168460405161018b9190611b72565b600060405180830381855af49150503d80600081146101c6576040519150601f19603f3d011682016040523d82523d6000602084013e6101cb565b606091505b5091509150816101da57600080fd5b9150505b92915050565b6001546001600160a01b031633148061020757506000546001600160a01b031633145b6102235760405162461bcd60e51b815260040161016690611e22565b600061023f61023a8383600463ffffffff610de916565b610e12565b60e01b905061024c61158b565b604051632f1a48af60e01b815273__BorrowProxyLib________________________90632f1a48af906102889060009089908790600401611fd4565b60c06040518083038186803b1580156102a057600080fd5b505af41580156102b4573d6000803e3d6000fd5b505050506040513d601f19601f820116820180604052508101906102d891906119a9565b6002546001600160a01b03166020820152600054909150600160a01b900460ff1680156103085750604081015151155b156103ab5760006060866001600160a01b0316868660405161032a9190611b72565b60006040518083038185875af1925050503d8060008114610367576040519150601f19603f3d011682016040523d82523d6000602084013e61036c565b606091505b5091509150816103985761037f81610e2f565b60405162461bcd60e51b81526004016101669190611cb0565b6103a28282610f2d565b5050505061046c565b6103b88160400151610f42565b6103d45760405162461bcd60e51b815260040161016690611d4c565b600060606103e983868863ffffffff610f5416565b91509150816103fb5761037f81610e2f565b60408084015101516001600160a01b03161561042b57604080840151015161042b9060079063ffffffff61101816565b6040830151606001516001600160a01b03161561045d5760408301516060015161045d9060099063ffffffff61101816565b6104678282610f2d565b505050505b505050565b6001546000906001600160a01b03161561049d5760405162461bcd60e51b815260040161016690611cc3565b5060008054336001600160a01b0319918216179091556001805482166001600160a01b03948516178155600280549092169290931691909117905590565b60065460009060ff16156105015760405162461bcd60e51b815260040161016690611d21565b600054600160a01b900460ff161561052b5760405162461bcd60e51b815260040161016690611e6b565b61053482611072565b6105505760405162461bcd60e51b815260040161016690611df4565b6105586115af565b610561836110f5565b60088054604080516020808402820181019092528281529394506060939291908301828280156105ba57602002820191906000526020600020905b81546001600160a01b0316815260019091019060200180831161059c575b50505050509050438260200151602001516000015110610883576006805461ff0019166101001790556004545b815181101561063f576207a1205a1080610623575061062182828151811061060b57fe5b60200260200101516001600160a01b0316611111565b155b1561063757600455506000915061088a9050565b6001016105e7565b5080516004908155600080548451602001516040516370a0823160e01b81526001600160a01b039283169491909216916370a082319161068191309101611b8e565b60206040518083038186803b15801561069957600080fd5b505afa1580156106ad573d6000803e3d6000fd5b505050506040513d601f19601f820116820180604052508101906106d19190611b18565b8451602001519091506106f4906001600160a01b0316838363ffffffff6111d816565b6107105760405162461bcd60e51b815260040161016690611f8a565b602080850151810151015184516060015182101561074a578451606001518203811115610746578451606001518203900361074a565b5060005b8451602001516040516303cc556d60e51b8152828403916001600160a01b0386169163801874ec9190839063798aada090610789908490600401611b8e565b60206040518083038186803b1580156107a157600080fd5b505afa1580156107b5573d6000803e3d6000fd5b505050506040513d601f19601f820116820180604052508101906107d9919061195a565b60208a0151516040516001600160e01b031960e086901b1681526108069392919088908890600401611c05565b602060405180830381600087803b15801561082057600080fd5b505af1158015610834573d6000803e3d6000fd5b505050506040513d601f19601f82011682018060405250810190610858919061190b565b6108745760405162461bcd60e51b815260040161016690611f53565b6001965050505050505061088a565b6000925050505b919050565b60006108996115cf565b6108a28361127b565b90506108b96108b48260000151611297565b611072565b6108d55760405162461bcd60e51b815260040161016690611df4565b600654610100900460ff16156108fd5760405162461bcd60e51b815260040161016690611f1c565b80518051606001516000916109179163ffffffff6112c016565b60008054845151602001516040516303cc556d60e51b815293945091926001600160a01b039091169163798aada0916109539190600401611b8e565b60206040518083038186803b15801561096b57600080fd5b505afa15801561097f573d6000803e3d6000fd5b505050506040513d601f19601f820116820180604052508101906109a3919061195a565b60065490915060009060ff16610b30576006805460ff19166001179055600054845151602001516040516307ef1e3760e21b81526001600160a01b0390921691631fbc78dc916109f591600401611b8e565b60206040518083038186803b158015610a0d57600080fd5b505afa158015610a21573d6000803e3d6000fd5b505050506040513d601f19601f82011682018060405250810190610a45919061195a565b6001600160a01b031663bb4a1d8c856060015186600001516000015160600151610a6e88611300565b88608001516040518563ffffffff1660e01b8152600401610a929493929190611c81565b602060405180830381600087803b158015610aac57600080fd5b505af1158015610ac0573d6000803e3d6000fd5b505050506040513d601f19601f82011682018060405250810190610ae49190611b18565b600381905584515160200151909150610b0f906001600160a01b03168385840363ffffffff6111d816565b610b2b5760405162461bcd60e51b815260040161016690611dc5565b610b35565b506003545b600a80546040805160208084028201810190925282815260609390929091830182828015610b8c57602002820191906000526020600020905b81546001600160a01b03168152600190910190602001808311610b6e575b50506005549394505050505b8151811015610bf3576207a1205a1080610bd45750610bd2828281518110610bbc57fe5b60200260200101516001600160a01b0316611342565b155b15610beb57600555506000945061088a9350505050565b600101610b98565b506000805460ff60a01b1916600160a01b17905584516020808201515191510151610c30916001600160a01b03909116908663ffffffff6111d816565b610c4c5760405162461bcd60e51b815260040161016690611cf3565b600080548651805160209081015191810151805190820151909101516040516320061d3b60e21b81526001600160a01b039094169463801874ec94610c9a94938a9390929091600401611c05565b602060405180830381600087803b158015610cb457600080fd5b505af1158015610cc8573d6000803e3d6000fd5b505050506040513d601f19601f82011682018060405250810190610cec919061190b565b610d085760405162461bcd60e51b815260040161016690611ed9565b8451805151610d1691611397565b5060019695505050505050565b606060006060846001600160a01b03168585604051602401610d46929190611c39565b60408051601f198184030181529181526020820180516001600160e01b031663023e3b7360e41b17905251610d7b9190611b72565b600060405180830381855afa9150503d8060008114610db6576040519150601f19603f3d011682016040523d82523d6000602084013e610dbb565b606091505b5091509150818190610de05760405162461bcd60e51b81526004016101669190611cb0565b50949350505050565b610df1611606565b610dfb84846113dc565b815260208101919091526040810191909152919050565b8051602082015160009190610e2782826113e3565b949350505050565b6060815160001415610e75575060408051808201909152601c81527f636170747572656420656d707479207265766572742062756666657200000000602082015261088a565b6308c379a0610e8a61023a8460006004610de9565b63ffffffff1614610eb5576040518060600160405280603f815260200161210d603f9139905061088a565b6060610ed0610ecb84600463ffffffff61140016565b611424565b9050805160001415610f1757505060408051808201909152601d81527f636170747572656420656d70747920726576657274206d657373616765000000602082015261088a565b606081806020019051810190610e279190611976565b81610f3a57805181602001fd5b805181602001f35b602001516001600160a01b0316151590565b60006060600060608660400151602001516001600160a01b03165a8860400151602001518960400151604001518a60400151606001518b60200151328d600001518c8e604051602001610fae989796959493929190611ba2565b60408051601f1981840301815290829052610fc891611b72565b6000604051808303818686f4925050503d8060008114611004576040519150601f19603f3d011682016040523d82523d6000602084013e611009565b606091505b50909890975095505050505050565b6001600160a01b03811660009081526020839052604090205460ff161561103e5761106e565b6001828101805491820181556000908152602090200180546001600160a01b0319166001600160a01b0383161790555b5050565b600080546040516308f6049560e01b81526001600160a01b03909116906308f60495906110a3908590600401611cb0565b602060405180830381600087803b1580156110bd57600080fd5b505af11580156110d1573d6000803e3d6000fd5b505050506040513d601f19601f820116820180604052508101906101de919061190b565b6110fd6115af565b818060200190518101906101de9190611a5a565b6000806060836001600160a01b0316846040516024016111319190611b8e565b60408051601f198184030181529181526020820180516001600160e01b03166305f0caad60e31b179052516111669190611b72565b600060405180830381855af49150503d80600081146111a1576040519150601f19603f3d011682016040523d82523d6000602084013e6111a6565b606091505b5091509150816111b95761037f81610e2f565b6000818060200190518101906111cf919061190b565b95945050505050565b600080846001600160a01b031684846040516024016111f8929190611c5d565b60408051601f198184030181529181526020820180516001600160e01b031663a9059cbb60e01b1790525161122d9190611b72565b6000604051808303816000865af19150503d806000811461126a576040519150601f19603f3d011682016040523d82523d6000602084013e61126f565b606091505b50909695505050505050565b6112836115cf565b818060200190518101906101de9190611a76565b6060816040516020016112aa9190611ffd565b6040516020818303038152906040529050919050565b60006112f9670de0b6b3a76400006112ed856020015160200151606001518561149490919063ffffffff16565b9063ffffffff6114ce16565b9392505050565b8051516040908101516020808401518385015193516000946113259493909101611b5c565b604051602081830303815290604052805190602001209050919050565b6000806060836001600160a01b0316846040516024016113629190611b8e565b60408051601f198184030181529181526020820180516001600160e01b0316639f7c73e960e01b179052516111669190611b72565b816001600160a01b03167f8118f0dfd16240978600a1121acd44dd113e1071790496f111043c87672720bf826040516113d09190611ffd565b60405180910390a25050565b0160200190565b6000600180600884021b0380836020038503511691505092915050565b611408611606565b818351101561141657825191505b6112f9838384865103610de9565b60208101516060908067ffffffffffffffff8111801561144357600080fd5b506040519080825280601f01601f19166020018201604052801561146e576020820181803683370190505b508351909250600061147f84611510565b905061148c818385611516565b505050919050565b6000826114a3575060006101de565b828202828482816114b057fe5b04146112f95760405162461bcd60e51b815260040161016690611e98565b60006112f983836040518060400160405280601a81526020017f536166654d6174683a206469766973696f6e206279207a65726f000000000000815250611554565b60200190565b5b60208110611536578151835260209283019290910190601f1901611517565b600180600883602003021b0380845116811984511617845250505050565b600081836115755760405162461bcd60e51b81526004016101669190611cb0565b50600083858161158157fe5b0495945050505050565b60408051606081018252600080825260208201529081016115aa611627565b905290565b60405180604001604052806115c2611627565b81526020016115aa61164e565b6040518060a001604052806115e26115af565b81526000602082018190526040820181905260608083019190915260809091015290565b60405180606001604052806000815260200160008152602001600081525090565b60408051608081018252600080825260208201819052918101829052606081019190915290565b604051806040016040528060006001600160a01b031681526020016115aa6040518060800160405280600081526020016000815260200160008152602001600081525090565b80516101de816120e6565b600082601f8301126116af578081fd5b81356116c26116bd82612092565b61206b565b91508082528360208285010111156116d957600080fd5b8060208401602084013760009082016020015292915050565b600082601f830112611702578081fd5b81516117106116bd82612092565b915080825283602082850101111561172757600080fd5b6117388160208401602086016120b6565b5092915050565b6000818303610120811215611752578182fd5b61175c604061206b565b9150608081121561176c57600080fd5b611776608061206b565b6117808585611694565b815261178f8560208601611694565b60208201526040848101519082015260608085015190820152825260a0607f19820112156117bc57600080fd5b6117c6604061206b565b60808401516117d4816120e6565b81526080609f19830112156117e857600080fd5b6117f2608061206b565b915060a0840151825260c0840151602083015260e084015160408301526101008401516060830152816020820152806020840152505092915050565b60008060408385031215611840578182fd5b823561184b816120e6565b9150602083013561185b816120e6565b809150509250929050565b60008060408385031215611878578182fd5b8235611883816120e6565b9150602083013567ffffffffffffffff81111561189e578182fd5b6118aa8582860161169f565b9150509250929050565b6000806000606084860312156118c8578081fd5b83356118d3816120e6565b925060208401359150604084013567ffffffffffffffff8111156118f5578182fd5b6119018682870161169f565b9150509250925092565b60006020828403121561191c578081fd5b81516112f9816120fe565b600060208284031215611938578081fd5b813567ffffffffffffffff81111561194e578182fd5b610e278482850161169f565b60006020828403121561196b578081fd5b81516112f9816120e6565b600060208284031215611987578081fd5b815167ffffffffffffffff81111561199d578182fd5b610e27848285016116f2565b600081830360c08112156119bb578182fd5b6119c5606061206b565b83516119d0816120e6565b815260208401516119e0816120e6565b60208201526080603f19830112156119f6578283fd5b611a00608061206b565b91506040840151611a10816120fe565b82526060840151611a20816120e6565b60208301526080840151611a33816120e6565b604083015260a0840151611a46816120e6565b606083015260408101919091529392505050565b60006101208284031215611a6c578081fd5b6112f9838361173f565b600060208284031215611a87578081fd5b815167ffffffffffffffff80821115611a9e578283fd5b8184016101a08187031215611ab1578384fd5b611abb60a061206b565b9250611ac7868261173f565b835261012081015160208401526101408101516040840152610160810151606084015261018081015182811115611afc578485fd5b611b08878284016116f2565b6080850152509195945050505050565b600060208284031215611b29578081fd5b5051919050565b60008151808452611b488160208601602086016120b6565b601f01601f19169290920160200192915050565b9283526020830191909152604082015260600190565b60008251611b848184602087016120b6565b9190910192915050565b6001600160a01b0391909116815260200190565b6001600160a01b0389811682528881166020830152878116604083015286811660608301528581166080830152841660a082015260c0810183905261010060e08201819052600090611bf683820185611b30565b9b9a5050505050505050505050565b6001600160a01b03958616815293851660208501529190931660408301526060820192909252608081019190915260a00190565b6001600160a01b0383168152604060208201819052600090610e2790830184611b30565b6001600160a01b03929092168252602082015260400190565b901515815260200190565b600085825284602083015283604083015260806060830152611ca66080830184611b30565b9695505050505050565b6000602082526112f96020830184611b30565b60208082526016908201527563616e277420696e697469616c697a6520747769636560501b604082015260600190565b6020808252601490820152731ad9595c195c881c185e5bdd5d0819985a5b195960621b604082015260600190565b6020808252601190820152701b1bd85b8818995a5b99c81c995c185a59607a1b604082015260600190565b6020808252601f908201527f66756e6374696f6e2068616e646c6572206e6f74207265676973746572656400604082015260600190565b60208082526022908201527f756e617574686f72697a65642076696577206c617965722064656c656761746960408201526137b760f11b606082015260800190565b6020808252601590820152741d1bdad95b881d1c985b9cd9995c8819985a5b1959605a1b604082015260600190565b6020808252601490820152731c1c9bde1e481c9958dbdc99081a5b9d985b1a5960621b604082015260600190565b60208082526029908201527f626f72726f772070726f78792063616e206f6e6c792062652075736564206279604082015268103137b93937bbb2b960b91b606082015260800190565b6020808252601390820152721b1bd85b88185b1c9958591e481c995c185a59606a1b604082015260600190565b60208082526021908201527f536166654d6174683a206d756c7469706c69636174696f6e206f766572666c6f6040820152607760f81b606082015260800190565b60208082526023908201527f6c6f616e207265736f6c7574696f6e206e6f74696669636174696f6e206661696040820152621b195960ea1b606082015260800190565b60208082526019908201527f70726f7879206973206265696e67206c69717569646174656400000000000000604082015260600190565b60208082526017908201527f6c6f616e207265736f6c7574696f6e206661696c757265000000000000000000604082015260600190565b6020808252602a908201527f6661696c656420746f207472616e73666572207265636c61696d65642066756e604082015269191cc81d1bc81c1bdbdb60b21b606082015260800190565b9283526001600160a01b039190911660208301526001600160e01b031916604082015260600190565b815180516001600160a01b0390811683526020808301518216818501526040808401518186015260609384015184860152948101518051909216608085015290810151805160a08501529081015160c08401529283015160e083015291909101516101008201526101200190565b60405181810167ffffffffffffffff8111828210171561208a57600080fd5b604052919050565b600067ffffffffffffffff8211156120a8578081fd5b50601f01601f191660200190565b60005b838110156120d15781810151838201526020016120b9565b838111156120e0576000848401525b50505050565b6001600160a01b03811681146120fb57600080fd5b50565b80151581146120fb57600080fdfe6361707475726564206120726576657274206572726f722c2062757420697420646f65736e277420636f6e666f726d20746f20746865207374616e64617264a26469706673582212206da890e9e63ca5e1eccf06283e7fffd474b38736d056dcfae03b00e8c24b62ce64736f6c634300060500336361707475726564206120726576657274206572726f722c2062757420697420646f65736e277420636f6e666f726d20746f20746865207374616e64617264a26469706673582212205768ec1bcf027c6cec4d89411416749b0f4f6464df14724e67f15435c13487fc64736f6c63430006050033",
  "source": "pragma solidity ^0.6.0;\npragma experimental ABIEncoderV2;\n\nimport { Ownable } from \"openzeppelin-solidity/contracts/access/Ownable.sol\";\nimport { IShifterRegistry } from \"./interfaces/IShifterRegistry.sol\";\nimport { IShifter } from \"./interfaces/IShifter.sol\";\nimport { ShifterPoolLib } from \"./ShifterPoolLib.sol\";\nimport { ShifterBorrowProxyLib } from \"./ShifterBorrowProxyLib.sol\";\nimport { ShifterBorrowProxyFactoryLib } from \"./ShifterBorrowProxyFactoryLib.sol\";\nimport { BorrowProxy } from \"./BorrowProxy.sol\";\nimport { BorrowProxyLib } from \"./BorrowProxyLib.sol\";\nimport { TokenUtils } from \"./utils/TokenUtils.sol\";\nimport { ViewExecutor } from \"./utils/ViewExecutor.sol\";\nimport { LiquidityToken } from \"./LiquidityToken.sol\";\n\ncontract ShifterPool is Ownable, ViewExecutor {\n  using ShifterPoolLib for *;\n  using TokenUtils for *;\n  using ShifterBorrowProxyLib for *;\n  using ShifterBorrowProxyFactoryLib for *;\n  using BorrowProxyLib for *;\n  ShifterPoolLib.Isolate isolate;\n  function setup(address shifterRegistry, uint256 minTimeout, uint256 poolFee, BorrowProxyLib.ModuleRegistration[] memory modules, ShifterPoolLib.LiquidityTokenLaunch[] memory tokenLaunches) public onlyOwner {\n    require(isolate.shifterRegistry == address(0x0), \"already initialized\");\n    isolate.shifterRegistry = shifterRegistry;\n    isolate.minTimeout = minTimeout;\n    isolate.poolFee = poolFee;\n    for (uint256 i = 0; i < modules.length; i++) {\n      BorrowProxyLib.ModuleRegistration memory registration = modules[i];\n      isolate.registry.registryRegisterModule(registration);\n    }\n    for (uint256 i = 0; i < tokenLaunches.length; i++) {\n      ShifterPoolLib.LiquidityTokenLaunch memory launch = tokenLaunches[i];\n      isolate.tokenToLiquidityToken[launch.token] = launch.liqToken;\n    }\n  }\n  function executeBorrow(ShifterBorrowProxyLib.LiquidityRequestParcel memory liquidityRequestParcel, uint256 bond, uint256 timeoutExpiry) public payable {\n    require(liquidityRequestParcel.gasRequested == msg.value, \"supplied ether is not equal to gas requested\");\n    bytes32 requestHash = liquidityRequestParcel.computeLiquidityRequestHash();\n    require(liquidityRequestParcel.validateSignature(requestHash), \"liquidity request signature rejected\");\n    ShifterBorrowProxyLib.LiquidityRequest memory liquidityRequest = liquidityRequestParcel.request;\n    bytes32 borrowerSalt = liquidityRequest.computeBorrowerSalt();\n    address payable proxyAddress = address(uint160(borrowerSalt.deriveBorrowerAddress()));\n    require(!isolate.borrowProxyController.isInitialized(proxyAddress), \"proxy has already been initialized\");\n    ShifterBorrowProxyLib.LenderRecord memory loan;\n    loan.keeper = msg.sender;\n    loan.params = isolate.computeLoanParams(liquidityRequest.amount, bond, timeoutExpiry);\n    ShifterBorrowProxyLib.ProxyRecord memory proxyRecord = ShifterBorrowProxyLib.ProxyRecord({\n      request: liquidityRequest,\n      loan: loan\n    });\n    bytes memory data = proxyRecord.encodeProxyRecord();\n    require(LiquidityToken(isolate.getLiquidityToken(liquidityRequest.token)).loan(proxyAddress, proxyRecord.computePostFee()), \"insufficient funds in liquidity pool\");\n    isolate.borrowProxyController.mapProxyRecord(proxyAddress, data);\n    isolate.borrowProxyController.setProxyToken(proxyAddress, liquidityRequest.token);\n    isolate.borrowProxyController.setProxyOwner(proxyAddress, liquidityRequest.borrower);\n    liquidityRequest.borrower.transfer(msg.value);\n    require(liquidityRequest.token.transferTokenFrom(msg.sender, address(this), bond), \"bond submission failed\");\n    require(borrowerSalt.deployBorrowProxy() == proxyAddress, \"proxy deployment failed\");\n    require(BorrowProxy(proxyAddress).setup(liquidityRequest.borrower, liquidityRequest.token), \"setup phase failure\");\n    require(liquidityRequestParcel.actions.triggerActions(proxyAddress), \"iniialization actions fail\");\n    \n    BorrowProxyLib.emitBorrowProxyMade(liquidityRequest.borrower, proxyAddress, data);\n  }\n  function validateProxyRecordHandler(bytes memory proxyRecord) public view returns (bool) {\n    return isolate.borrowProxyController.validateProxyRecord(msg.sender, proxyRecord);\n  }\n  function getProxyTokenHandler(address proxyAddress) public view returns (address) {\n    return isolate.borrowProxyController.getProxyToken(proxyAddress);\n  }\n  function getProxyOwnerHandler(address user) public view returns (address) {\n    return isolate.borrowProxyController.getProxyOwner(user);\n  }\n  function getShifterHandler(address token) public view returns (IShifter) {\n    return isolate.getShifter(token);\n  }\n  function getLiquidityTokenHandler(address token) public view returns (LiquidityToken) {\n    return LiquidityToken(isolate.getLiquidityToken(token));\n  }\n  function fetchModuleHandler(address to, bytes4 sig) public view returns (BorrowProxyLib.Module memory) {\n    return isolate.registry.resolveModule(to, sig);\n  }\n  function relayResolveLoan(address token, address liquidityToken, address keeper, uint256 bond, uint256 repay) public returns (bool) {\n    require(isolate.borrowProxyController.proxyInitializerRecord[msg.sender] != bytes32(0x0), \"not a registered borrow proxy\");\n    if (bond != 0) require(token.sendToken(keeper, bond), \"failed to return bond to keeper\");\n    if (repay != 0) require(token.sendToken(liquidityToken, repay), \"failed to repay lost funds\");\n    require(LiquidityToken(liquidityToken).resolveLoan(msg.sender), \"loan resolution failure\");\n    return true;\n  }\n}\n",
  "sourcePath": "/home/ray/0confirmation/packages/0confirmation-sol/contracts/ShifterPool.sol",
  "compiler": {
    "name": "solc",
    "version": "0.6.5+commit.f956cc89.Emscripten.clang"
  },
  "schemaVersion": "3.0.23",
  "updatedAt": "2020-04-14T15:30:33.824Z",
  "devdoc": {
    "methods": {
      "owner()": {
        "details": "Returns the address of the current owner."
      },
      "renounceOwnership()": {
        "details": "Leaves the contract without owner. It will not be possible to call `onlyOwner` functions anymore. Can only be called by the current owner.     * NOTE: Renouncing ownership will leave the contract without an owner, thereby removing any functionality that is only available to the owner."
      },
      "transferOwnership(address)": {
        "details": "Transfers ownership of the contract to a new account (`newOwner`). Can only be called by the current owner."
      }
    }
  },
  "userdoc": {
    "methods": {}
  }
}