{
  "contractName": "ShifterPool",
  "abi": [
    {
      "anonymous": false,
      "inputs": [
        {
          "indexed": true,
          "internalType": "address",
          "name": "previousOwner",
          "type": "address"
        },
        {
          "indexed": true,
          "internalType": "address",
          "name": "newOwner",
          "type": "address"
        }
      ],
      "name": "OwnershipTransferred",
      "type": "event"
    },
    {
      "inputs": [],
      "name": "isOwner",
      "outputs": [
        {
          "internalType": "bool",
          "name": "",
          "type": "bool"
        }
      ],
      "stateMutability": "view",
      "type": "function",
      "constant": true
    },
    {
      "inputs": [],
      "name": "owner",
      "outputs": [
        {
          "internalType": "address",
          "name": "",
          "type": "address"
        }
      ],
      "stateMutability": "view",
      "type": "function",
      "constant": true
    },
    {
      "inputs": [],
      "name": "renounceOwnership",
      "outputs": [],
      "stateMutability": "nonpayable",
      "type": "function"
    },
    {
      "inputs": [
        {
          "internalType": "address",
          "name": "newOwner",
          "type": "address"
        }
      ],
      "name": "transferOwnership",
      "outputs": [],
      "stateMutability": "nonpayable",
      "type": "function"
    },
    {
      "inputs": [
        {
          "internalType": "address",
          "name": "shifterRegistry",
          "type": "address"
        },
        {
          "internalType": "uint256",
          "name": "poolFee",
          "type": "uint256"
        },
        {
          "components": [
            {
              "internalType": "enum BorrowProxyLib.ModuleRegistrationType",
              "name": "moduleType",
              "type": "uint8"
            },
            {
              "internalType": "address",
              "name": "target",
              "type": "address"
            },
            {
              "internalType": "bytes4[]",
              "name": "sigs",
              "type": "bytes4[]"
            },
            {
              "components": [
                {
                  "internalType": "address",
                  "name": "assetHandler",
                  "type": "address"
                },
                {
                  "internalType": "address",
                  "name": "liquidationModule",
                  "type": "address"
                }
              ],
              "internalType": "struct BorrowProxyLib.Module",
              "name": "module",
              "type": "tuple"
            }
          ],
          "internalType": "struct BorrowProxyLib.ModuleRegistration[]",
          "name": "modules",
          "type": "tuple[]"
        },
        {
          "components": [
            {
              "internalType": "address",
              "name": "token",
              "type": "address"
            },
            {
              "internalType": "address",
              "name": "liqToken",
              "type": "address"
            }
          ],
          "internalType": "struct ShifterPoolLib.LiquidityTokenLaunch[]",
          "name": "tokenLaunches",
          "type": "tuple[]"
        }
      ],
      "name": "setup",
      "outputs": [],
      "stateMutability": "nonpayable",
      "type": "function"
    },
    {
      "inputs": [
        {
          "components": [
            {
              "components": [
                {
                  "internalType": "address payable",
                  "name": "borrower",
                  "type": "address"
                },
                {
                  "internalType": "address",
                  "name": "token",
                  "type": "address"
                },
                {
                  "internalType": "bytes32",
                  "name": "nonce",
                  "type": "bytes32"
                },
                {
                  "internalType": "uint256",
                  "name": "amount",
                  "type": "uint256"
                }
              ],
              "internalType": "struct ShifterBorrowProxyLib.LiquidityRequest",
              "name": "request",
              "type": "tuple"
            },
            {
              "internalType": "uint256",
              "name": "gasRequested",
              "type": "uint256"
            },
            {
              "internalType": "bytes",
              "name": "signature",
              "type": "bytes"
            }
          ],
          "internalType": "struct ShifterBorrowProxyLib.LiquidityRequestParcel",
          "name": "liquidityRequestParcel",
          "type": "tuple"
        },
        {
          "internalType": "uint256",
          "name": "bond",
          "type": "uint256"
        },
        {
          "internalType": "uint256",
          "name": "timeoutExpiry",
          "type": "uint256"
        }
      ],
      "name": "executeBorrow",
      "outputs": [],
      "stateMutability": "payable",
      "type": "function",
      "payable": true
    },
    {
      "inputs": [
        {
          "internalType": "bytes",
          "name": "proxyRecord",
          "type": "bytes"
        }
      ],
      "name": "validateProxyRecordHandler",
      "outputs": [
        {
          "internalType": "bool",
          "name": "",
          "type": "bool"
        }
      ],
      "stateMutability": "view",
      "type": "function",
      "constant": true
    },
    {
      "inputs": [],
      "name": "getProxyOwnerHandler",
      "outputs": [
        {
          "internalType": "address",
          "name": "",
          "type": "address"
        }
      ],
      "stateMutability": "view",
      "type": "function",
      "constant": true
    },
    {
      "inputs": [
        {
          "internalType": "address",
          "name": "token",
          "type": "address"
        }
      ],
      "name": "getShifterHandler",
      "outputs": [
        {
          "internalType": "contract IShifter",
          "name": "",
          "type": "address"
        }
      ],
      "stateMutability": "view",
      "type": "function",
      "constant": true
    },
    {
      "inputs": [
        {
          "internalType": "address",
          "name": "token",
          "type": "address"
        }
      ],
      "name": "getLiquidityTokenHandler",
      "outputs": [
        {
          "internalType": "contract LiquidityToken",
          "name": "",
          "type": "address"
        }
      ],
      "stateMutability": "view",
      "type": "function",
      "constant": true
    },
    {
      "inputs": [
        {
          "internalType": "address",
          "name": "token",
          "type": "address"
        },
        {
          "internalType": "address",
          "name": "liquidityToken",
          "type": "address"
        },
        {
          "internalType": "address",
          "name": "keeper",
          "type": "address"
        },
        {
          "internalType": "uint256",
          "name": "bond",
          "type": "uint256"
        },
        {
          "internalType": "uint256",
          "name": "repay",
          "type": "uint256"
        }
      ],
      "name": "relayResolveLoan",
      "outputs": [
        {
          "internalType": "bool",
          "name": "",
          "type": "bool"
        }
      ],
      "stateMutability": "nonpayable",
      "type": "function"
    }
  ],
  "bytecode": "0x6080604052600062000016620000ba60201b60201c565b9050806000806101000a81548173ffffffffffffffffffffffffffffffffffffffff021916908373ffffffffffffffffffffffffffffffffffffffff1602179055508073ffffffffffffffffffffffffffffffffffffffff16600073ffffffffffffffffffffffffffffffffffffffff167f8be0079c531659141344cd1fd0a4f28419497f9722a3daafe3b4186f6b6457e060405160405180910390a350620000c2565b600033905090565b614d6680620000d26000396000f3fe608060405260043610620000aa5760003560e01c8063801874ec116200006d578063801874ec14620001c55780638da5cb5b14620002095780638f32d59b1462000239578063daf9b8241462000269578063f2fde38b1462000289578063f5e043b014620002b757620000aa565b806308f6049514620000af5780631fbc78dc14620000f3578063715018a61462000137578063798aada014620001515780637b3b00be1462000195575b600080fd5b348015620000bc57600080fd5b50620000db6004803603620000d5919081019062002aaa565b620002e5565b604051620000ea9190620037cd565b60405180910390f35b3480156200010057600080fd5b506200011f600480360362000119919081019062002932565b62000309565b6040516200012e91906200385b565b60405180910390f35b3480156200014457600080fd5b506200014f62000328565b005b3480156200015e57600080fd5b506200017d600480360362000177919081019062002932565b62000433565b6040516200018c919062003878565b60405180910390f35b348015620001a257600080fd5b50620001ad62000452565b604051620001bc919062003729565b60405180910390f35b348015620001d257600080fd5b50620001f16004803603620001eb91908101906200295e565b62000472565b604051620002009190620037cd565b60405180910390f35b3480156200021657600080fd5b50620002216200069c565b60405162000230919062003729565b60405180910390f35b3480156200024657600080fd5b5062000251620006c5565b604051620002609190620037cd565b60405180910390f35b62000287600480360362000281919081019062002b1b565b62000725565b005b3480156200029657600080fd5b50620002b56004803603620002af919081019062002932565b62000bef565b005b348015620002c457600080fd5b50620002e36004803603620002dd9190810190620029e0565b62000c49565b005b6000620003023383600160050162000ec69092919063ffffffff16565b9050919050565b60006200032182600162000f1c90919063ffffffff16565b9050919050565b62000332620006c5565b62000374576040517f08c379a00000000000000000000000000000000000000000000000000000000081526004016200036b9062003b1d565b60405180910390fd5b600073ffffffffffffffffffffffffffffffffffffffff166000809054906101000a900473ffffffffffffffffffffffffffffffffffffffff1673ffffffffffffffffffffffffffffffffffffffff167f8be0079c531659141344cd1fd0a4f28419497f9722a3daafe3b4186f6b6457e060405160405180910390a360008060006101000a81548173ffffffffffffffffffffffffffffffffffffffff021916908373ffffffffffffffffffffffffffffffffffffffff160217905550565b60006200044b82600162000fd990919063ffffffff16565b9050919050565b60006200046d336001600501620010bd90919063ffffffff16565b905090565b60008060001b600160050160000160003373ffffffffffffffffffffffffffffffffffffffff1673ffffffffffffffffffffffffffffffffffffffff16815260200190815260200160002054141562000502576040517f08c379a0000000000000000000000000000000000000000000000000000000008152600401620004f99062003a51565b60405180910390fd5b600083146200057b576200053884848873ffffffffffffffffffffffffffffffffffffffff16620011299092919063ffffffff16565b6200057a576040517f08c379a0000000000000000000000000000000000000000000000000000000008152600401620005719062003ab7565b60405180910390fd5b5b60008214620005f457620005b185838873ffffffffffffffffffffffffffffffffffffffff16620011299092919063ffffffff16565b620005f3576040517f08c379a0000000000000000000000000000000000000000000000000000000008152600401620005ea90620039c9565b60405180910390fd5b5b8473ffffffffffffffffffffffffffffffffffffffff1663c3275c79336040518263ffffffff1660e01b81526004016200062f919062003746565b602060405180830381600087803b1580156200064a57600080fd5b505af11580156200065f573d6000803e3d6000fd5b505050506040513d601f19601f8201168201806040525062000685919081019062002a7e565b6200068f57600080fd5b6001905095945050505050565b60008060009054906101000a900473ffffffffffffffffffffffffffffffffffffffff16905090565b60008060009054906101000a900473ffffffffffffffffffffffffffffffffffffffff1673ffffffffffffffffffffffffffffffffffffffff166200070962001237565b73ffffffffffffffffffffffffffffffffffffffff1614905090565b348360200151146200076e576040517f08c379a00000000000000000000000000000000000000000000000000000000081526004016200076590620039a7565b60405180910390fd5b60006200077b846200123f565b90506200079281856200129390919063ffffffff16565b620007d4576040517f08c379a0000000000000000000000000000000000000000000000000000000008152600401620007cb9062003afb565b60405180910390fd5b620007de62002168565b846000015190506000620007f282620012e3565b9050600062000801826200132b565b90506200081c8160016005016200136c90919063ffffffff16565b156200085f576040517f08c379a00000000000000000000000000000000000000000000000000000000081526004016200085690620038db565b60405180910390fd5b62000869620021bf565b33816000019073ffffffffffffffffffffffffffffffffffffffff16908173ffffffffffffffffffffffffffffffffffffffff1681525050620008bf846060015188886001620013be909392919063ffffffff16565b8160200181905250620008d1620021f7565b6040518060400160405280868152602001838152509050606081604051602001620008fd919062003ba5565b6040516020818303038152906040529050620009288660200151600162000fd990919063ffffffff16565b73ffffffffffffffffffffffffffffffffffffffff1663185cc751856200094f8562001535565b6040518363ffffffff1660e01b81526004016200096e929190620037a0565b602060405180830381600087803b1580156200098957600080fd5b505af11580156200099e573d6000803e3d6000fd5b505050506040513d601f19601f82011682018060405250620009c4919081019062002a7e565b62000a06576040517f08c379a0000000000000000000000000000000000000000000000000000000008152600401620009fd9062003a0d565b60405180910390fd5b62000a2184826001600501620015839092919063ffffffff16565b62000a408487600001516001600501620015d59092919063ffffffff16565b856000015173ffffffffffffffffffffffffffffffffffffffff166108fc349081150290604051600060405180830381858888f1935050505015801562000a8b573d6000803e3d6000fd5b5062000abf33308b896020015173ffffffffffffffffffffffffffffffffffffffff166200165a909392919063ffffffff16565b62000b01576040517f08c379a000000000000000000000000000000000000000000000000000000000815260040162000af89062003b3f565b60405180910390fd5b8373ffffffffffffffffffffffffffffffffffffffff1662000b23866200176b565b73ffffffffffffffffffffffffffffffffffffffff161462000b7c576040517f08c379a000000000000000000000000000000000000000000000000000000000815260040162000b739062003985565b60405180910390fd5b8373ffffffffffffffffffffffffffffffffffffffff163373ffffffffffffffffffffffffffffffffffffffff167f9ae84ac2ad8f721c2e62d211eca0ae34951726f8834913af6c5ebb81610bb1f88360405162000bdb919062003837565b60405180910390a350505050505050505050565b62000bf9620006c5565b62000c3b576040517f08c379a000000000000000000000000000000000000000000000000000000000815260040162000c329062003b1d565b60405180910390fd5b62000c4681620017ab565b50565b62000c53620006c5565b62000c95576040517f08c379a000000000000000000000000000000000000000000000000000000000815260040162000c8c9062003b1d565b60405180910390fd5b600073ffffffffffffffffffffffffffffffffffffffff16600160000160009054906101000a900473ffffffffffffffffffffffffffffffffffffffff1673ffffffffffffffffffffffffffffffffffffffff161462000d2c576040517f08c379a000000000000000000000000000000000000000000000000000000000815260040162000d239062003a2f565b60405180910390fd5b83600160000160006101000a81548173ffffffffffffffffffffffffffffffffffffffff021916908373ffffffffffffffffffffffffffffffffffffffff16021790555082600180018190555060008090505b825181101562000df55762000d9362002221565b83828151811062000da057fe5b6020026020010151905060008090505b81604001515181101562000de55762000dd7826001600801620018dc90919063ffffffff16565b808060010191505062000db0565b5050808060010191505062000d7f565b5060008090505b815181101562000ebf5762000e1062002273565b82828151811062000e1d57fe5b60200260200101519050806020015160016004016000836000015173ffffffffffffffffffffffffffffffffffffffff1673ffffffffffffffffffffffffffffffffffffffff16815260200190815260200160002060006101000a81548173ffffffffffffffffffffffffffffffffffffffff021916908373ffffffffffffffffffffffffffffffffffffffff16021790555050808060010191505062000dfc565b5050505050565b600081805190602001208460000160008573ffffffffffffffffffffffffffffffffffffffff1673ffffffffffffffffffffffffffffffffffffffff168152602001908152602001600020541490509392505050565b60008260000160009054906101000a900473ffffffffffffffffffffffffffffffffffffffff1673ffffffffffffffffffffffffffffffffffffffff166328c4f410836040518263ffffffff1660e01b815260040162000f7d919062003729565b60206040518083038186803b15801562000f9657600080fd5b505afa15801562000fab573d6000803e3d6000fd5b505050506040513d601f19601f8201168201806040525062000fd1919081019062002aef565b905092915050565b6000808360040160008473ffffffffffffffffffffffffffffffffffffffff1673ffffffffffffffffffffffffffffffffffffffff16815260200190815260200160002060009054906101000a900473ffffffffffffffffffffffffffffffffffffffff169050600073ffffffffffffffffffffffffffffffffffffffff168173ffffffffffffffffffffffffffffffffffffffff161415620010b3576040517f08c379a0000000000000000000000000000000000000000000000000000000008152600401620010aa9062003b61565b60405180910390fd5b8091505092915050565b60008260010160008373ffffffffffffffffffffffffffffffffffffffff1673ffffffffffffffffffffffffffffffffffffffff16815260200190815260200160002060009054906101000a900473ffffffffffffffffffffffffffffffffffffffff16905092915050565b6000808473ffffffffffffffffffffffffffffffffffffffff16848460405160240162001158929190620037a0565b6040516020818303038152906040527fa9059cbb000000000000000000000000000000000000000000000000000000007bffffffffffffffffffffffffffffffffffffffffffffffffffffffff19166020820180517bffffffffffffffffffffffffffffffffffffffffffffffffffffffff8381831617835250505050604051620011e4919062003710565b6000604051808303816000865af19150503d806000811462001223576040519150601f19603f3d011682016040523d82523d6000602084013e62001228565b606091505b50509050809150509392505050565b600033905090565b6000816000015160200151826000015160400151836000015160600151846020015160405160200162001276949392919062003604565b604051602081830303815290604052805190602001209050919050565b6000620012a5828460400151620019d5565b73ffffffffffffffffffffffffffffffffffffffff1683600001516000015173ffffffffffffffffffffffffffffffffffffffff1614905092915050565b600081600001518260200151836040015184606001516040516020016200130e9493929190620035ae565b604051602081830303815290604052805190602001209050919050565b60006200136582604051806020016200134490620022b9565b6020820181038252601f19601f820116604052508051906020012062001bd6565b9050919050565b60008060001b8360000160008473ffffffffffffffffffffffffffffffffffffffff1673ffffffffffffffffffffffffffffffffffffffff168152602001908152602001600020541415905092915050565b620013c8620022c7565b620186a0430182101562001413576040517f08c379a00000000000000000000000000000000000000000000000000000000081526004016200140a90620038fd565b60405180910390fd5b6000620014336064670de0b6b3a764000062001bed90919063ffffffff16565b9050620014536064670de0b6b3a764000062001bed90919063ffffffff16565b620014848662001475670de0b6b3a76400008862001c3990919063ffffffff16565b62001bed90919063ffffffff16565b11620014c7576040517f08c379a0000000000000000000000000000000000000000000000000000000008152600401620014be9062003b83565b60405180910390fd5b60008486106200150057620014fa86620014eb878562001c3990919063ffffffff16565b62001bed90919063ffffffff16565b62001502565b815b90506040518060800160405280858152602001868152602001886001015481526020018281525092505050949350505050565b60006200157c620015646200154a8462001caf565b620015558562001cfd565b62001d4b90919063ffffffff16565b83600001516060015162001da390919063ffffffff16565b9050919050565b80805190602001208360000160008473ffffffffffffffffffffffffffffffffffffffff1673ffffffffffffffffffffffffffffffffffffffff16815260200190815260200160002081905550505050565b808360010160008473ffffffffffffffffffffffffffffffffffffffff1673ffffffffffffffffffffffffffffffffffffffff16815260200190815260200160002060006101000a81548173ffffffffffffffffffffffffffffffffffffffff021916908373ffffffffffffffffffffffffffffffffffffffff160217905550505050565b6000808573ffffffffffffffffffffffffffffffffffffffff168585856040516024016200168b9392919062003763565b6040516020818303038152906040527f23b872dd000000000000000000000000000000000000000000000000000000007bffffffffffffffffffffffffffffffffffffffffffffffffffffffff19166020820180517bffffffffffffffffffffffffffffffffffffffffffffffffffffffff838183161783525050505060405162001717919062003710565b6000604051808303816000865af19150503d806000811462001756576040519150601f19603f3d011682016040523d82523d6000602084013e6200175b565b606091505b5050905080915050949350505050565b60006060604051806020016200178190620022b9565b6020820181038252601f19601f820116604052509050620017a3838262001def565b915050919050565b600073ffffffffffffffffffffffffffffffffffffffff168173ffffffffffffffffffffffffffffffffffffffff1614156200181e576040517f08c379a0000000000000000000000000000000000000000000000000000000008152600401620018159062003941565b60405180910390fd5b8073ffffffffffffffffffffffffffffffffffffffff166000809054906101000a900473ffffffffffffffffffffffffffffffffffffffff1673ffffffffffffffffffffffffffffffffffffffff167f8be0079c531659141344cd1fd0a4f28419497f9722a3daafe3b4186f6b6457e060405160405180910390a3806000806101000a81548173ffffffffffffffffffffffffffffffffffffffff021916908373ffffffffffffffffffffffffffffffffffffffff16021790555050565b60016002811115620018ea57fe5b81600001516002811115620018fb57fe5b1415620019595760008090505b816040015151811015620019525762001944838360200151846040015184815181106200193157fe5b6020026020010151856060015162001e7b565b808060010191505062001908565b50620019d1565b6002808111156200196657fe5b816000015160028111156200197757fe5b1415620019d05760008090505b816040015151811015620019ce57620019c083836020015184604001518481518110620019ad57fe5b6020026020010151856060015162001f33565b808060010191505062001984565b505b5b5050565b6000604182511462001a1e576040517f08c379a000000000000000000000000000000000000000000000000000000000815260040162001a15906200391f565b60405180910390fd5b60008060006020850151925060408501519150606085015160001a90507f7fffffffffffffffffffffffffffffff5d576e7357a4501ddfe92f46681b20a08260001c111562001aa4576040517f08c379a000000000000000000000000000000000000000000000000000000000815260040162001a9b90620039eb565b60405180910390fd5b601b8160ff161415801562001abd5750601c8160ff1614155b1562001b00576040517f08c379a000000000000000000000000000000000000000000000000000000000815260040162001af79062003a73565b60405180910390fd5b60006001878386866040516000815260200160405260405162001b279493929190620037ea565b6020604051602081039080840390855afa15801562001b4a573d6000803e3d6000fd5b505050602060405103519050600073ffffffffffffffffffffffffffffffffffffffff168173ffffffffffffffffffffffffffffffffffffffff16141562001bc9576040517f08c379a000000000000000000000000000000000000000000000000000000000815260040162001bc090620038b9565b60405180910390fd5b8094505050505092915050565b600062001be583833062001feb565b905092915050565b600062001c3183836040518060400160405280601a81526020017f536166654d6174683a206469766973696f6e206279207a65726f00000000000081525062002035565b905092915050565b60008083141562001c4e576000905062001ca9565b600082840290508284828162001c6057fe5b041462001ca4576040517f08c379a000000000000000000000000000000000000000000000000000000000815260040162001c9b9062003ad9565b60405180910390fd5b809150505b92915050565b600062001cf6670de0b6b3a764000062001ce78460200151602001516060015185600001516060015162001c3990919063ffffffff16565b62001bed90919063ffffffff16565b9050919050565b600062001d44670de0b6b3a764000062001d358460200151602001516040015185600001516060015162001c3990919063ffffffff16565b62001bed90919063ffffffff16565b9050919050565b60008082840190508381101562001d99576040517f08c379a000000000000000000000000000000000000000000000000000000000815260040162001d909062003963565b60405180910390fd5b8091505092915050565b600062001de783836040518060400160405280601e81526020017f536166654d6174683a207375627472616374696f6e206f766572666c6f7700008152506200209a565b905092915050565b600080838351602085016000f59050600073ffffffffffffffffffffffffffffffffffffffff168173ffffffffffffffffffffffffffffffffffffffff16141562001e71576040517f08c379a000000000000000000000000000000000000000000000000000000000815260040162001e689062003a95565b60405180910390fd5b8091505092915050565b8084600001600062001e8e8686620020f8565b815260200190815260200160002060008201518160000160006101000a81548173ffffffffffffffffffffffffffffffffffffffff021916908373ffffffffffffffffffffffffffffffffffffffff16021790555060208201518160010160006101000a81548173ffffffffffffffffffffffffffffffffffffffff021916908373ffffffffffffffffffffffffffffffffffffffff16021790555090505050505050565b8084600001600062001f46868662002133565b815260200190815260200160002060008201518160000160006101000a81548173ffffffffffffffffffffffffffffffffffffffff021916908373ffffffffffffffffffffffffffffffffffffffff16021790555060208201518160010160006101000a81548173ffffffffffffffffffffffffffffffffffffffff021916908373ffffffffffffffffffffffffffffffffffffffff16021790555090505050505050565b60008060ff60f81b8386866040516020016200200b94939291906200368a565b604051602081830303815290604052805190602001209050606081901b60601c9150509392505050565b600080831182906200207f576040517f08c379a000000000000000000000000000000000000000000000000000000000815260040162002076919062003895565b60405180910390fd5b5060008385816200208c57fe5b049050809150509392505050565b6000838311158290620020e5576040517f08c379a0000000000000000000000000000000000000000000000000000000008152600401620020dc919062003895565b60405180910390fd5b5060008385039050809150509392505050565b600080833f9050808360405160200162002114929190620036e0565b6040516020818303038152906040528051906020012091505092915050565b600082826040516020016200214a9291906200365a565b60405160208183030381529060405280519060200120905092915050565b6040518060800160405280600073ffffffffffffffffffffffffffffffffffffffff168152602001600073ffffffffffffffffffffffffffffffffffffffff16815260200160008019168152602001600081525090565b6040518060400160405280600073ffffffffffffffffffffffffffffffffffffffff168152602001620021f1620022ef565b81525090565b60405180604001604052806200220c62002317565b81526020016200221b6200236e565b81525090565b6040518060800160405280600060028111156200223a57fe5b8152602001600073ffffffffffffffffffffffffffffffffffffffff168152602001606081526020016200226d620023a6565b81525090565b6040518060400160405280600073ffffffffffffffffffffffffffffffffffffffff168152602001600073ffffffffffffffffffffffffffffffffffffffff1681525090565b610d2c806200400583390190565b6040518060800160405280600081526020016000815260200160008152602001600081525090565b6040518060800160405280600081526020016000815260200160008152602001600081525090565b6040518060800160405280600073ffffffffffffffffffffffffffffffffffffffff168152602001600073ffffffffffffffffffffffffffffffffffffffff16815260200160008019168152602001600081525090565b6040518060400160405280600073ffffffffffffffffffffffffffffffffffffffff168152602001620023a0620022ef565b81525090565b6040518060400160405280600073ffffffffffffffffffffffffffffffffffffffff168152602001600073ffffffffffffffffffffffffffffffffffffffff1681525090565b600081359050620023fd8162003f3d565b92915050565b600081359050620024148162003f57565b92915050565b600082601f8301126200242c57600080fd5b8135620024436200243d8262003bf1565b62003bc3565b915081818352602084019350602081019050838560208402820111156200246957600080fd5b60005b838110156200249d5781620024828882620025df565b8452602084019350602083019250506001810190506200246c565b5050505092915050565b600082601f830112620024b957600080fd5b8135620024d0620024ca8262003c1a565b62003bc3565b91508181835260208401935060208101905083856040840282011115620024f657600080fd5b60005b838110156200252a57816200250f8882620027dd565b845260208401935060408301925050600181019050620024f9565b5050505092915050565b600082601f8301126200254657600080fd5b81356200255d620025578262003c43565b62003bc3565b9150818183526020840193506020810190508360005b83811015620025a757813586016200258c888262002830565b84526020840193506020830192505060018101905062002573565b5050505092915050565b600081519050620025c28162003f71565b92915050565b600081359050620025d98162003f8b565b92915050565b600081359050620025f08162003fa5565b92915050565b600082601f8301126200260857600080fd5b81356200261f620026198262003c6c565b62003bc3565b915080825260208301602083018583830111156200263c57600080fd5b6200264983828462003e76565b50505092915050565b600082601f8301126200266457600080fd5b81356200267b620026758262003c99565b62003bc3565b915080825260208301602083018583830111156200269857600080fd5b620026a583828462003e76565b50505092915050565b600081519050620026bf8162003fbf565b92915050565b600081359050620026d68162003fd9565b92915050565b600060c08284031215620026ef57600080fd5b620026fb606062003bc3565b905060006200270d848285016200275e565b600083015250608062002723848285016200291b565b60208301525060a082013567ffffffffffffffff8111156200274457600080fd5b6200275284828501620025f6565b60408301525092915050565b6000608082840312156200277157600080fd5b6200277d608062003bc3565b905060006200278f8482850162002403565b6000830152506020620027a584828501620023ec565b6020830152506040620027bb84828501620025c8565b6040830152506060620027d1848285016200291b565b60608301525092915050565b600060408284031215620027f057600080fd5b620027fc604062003bc3565b905060006200280e84828501620023ec565b60008301525060206200282484828501620023ec565b60208301525092915050565b600060a082840312156200284357600080fd5b6200284f608062003bc3565b905060006200286184828501620026c5565b60008301525060206200287784828501620023ec565b602083015250604082013567ffffffffffffffff8111156200289857600080fd5b620028a6848285016200241a565b6040830152506060620028bc84828501620028c8565b60608301525092915050565b600060408284031215620028db57600080fd5b620028e7604062003bc3565b90506000620028f984828501620023ec565b60008301525060206200290f84828501620023ec565b60208301525092915050565b6000813590506200292c8162003fea565b92915050565b6000602082840312156200294557600080fd5b60006200295584828501620023ec565b91505092915050565b600080600080600060a086880312156200297757600080fd5b60006200298788828901620023ec565b95505060206200299a88828901620023ec565b9450506040620029ad88828901620023ec565b9350506060620029c0888289016200291b565b9250506080620029d3888289016200291b565b9150509295509295909350565b60008060008060808587031215620029f757600080fd5b600062002a0787828801620023ec565b945050602062002a1a878288016200291b565b935050604085013567ffffffffffffffff81111562002a3857600080fd5b62002a468782880162002534565b925050606085013567ffffffffffffffff81111562002a6457600080fd5b62002a7287828801620024a7565b91505092959194509250565b60006020828403121562002a9157600080fd5b600062002aa184828501620025b1565b91505092915050565b60006020828403121562002abd57600080fd5b600082013567ffffffffffffffff81111562002ad857600080fd5b62002ae68482850162002652565b91505092915050565b60006020828403121562002b0257600080fd5b600062002b1284828501620026ae565b91505092915050565b60008060006060848603121562002b3157600080fd5b600084013567ffffffffffffffff81111562002b4c57600080fd5b62002b5a86828701620026dc565b935050602062002b6d868287016200291b565b925050604062002b80868287016200291b565b9150509250925092565b62002b958162003dea565b82525050565b62002ba68162003d1d565b82525050565b62002bc162002bbb8262003d1d565b62003ecf565b82525050565b62002bd28162003d09565b82525050565b62002be38162003d09565b82525050565b62002bfe62002bf88262003d09565b62003ebb565b82525050565b62002c0f8162003d31565b82525050565b62002c2a62002c248262003d3d565b62003ee3565b82525050565b62002c3b8162003d69565b82525050565b62002c4c8162003d69565b82525050565b62002c6762002c618262003d69565b62003eed565b82525050565b62002c8262002c7c8262003d73565b62003ef7565b82525050565b600062002c958262003cc6565b62002ca1818562003cdc565b935062002cb381856020860162003e85565b62002cbe8162003f1f565b840191505092915050565b600062002cd68262003cc6565b62002ce2818562003ced565b935062002cf481856020860162003e85565b80840191505092915050565b62002d0b8162003dfe565b82525050565b62002d1c8162003e26565b82525050565b600062002d2f8262003cd1565b62002d3b818562003cf8565b935062002d4d81856020860162003e85565b62002d588162003f1f565b840191505092915050565b600062002d7260188362003cf8565b91507f45434453413a20696e76616c6964207369676e617475726500000000000000006000830152602082019050919050565b600062002db460228362003cf8565b91507f70726f78792068617320616c7265616479206265656e20696e697469616c697a60008301527f65640000000000000000000000000000000000000000000000000000000000006020830152604082019050919050565b600062002e1c60148362003cf8565b91507f74696d656f757420696e73756666696369656e740000000000000000000000006000830152602082019050919050565b600062002e5e601f8362003cf8565b91507f45434453413a20696e76616c6964207369676e6174757265206c656e677468006000830152602082019050919050565b600062002ea060268362003cf8565b91507f4f776e61626c653a206e6577206f776e657220697320746865207a65726f206160008301527f64647265737300000000000000000000000000000000000000000000000000006020830152604082019050919050565b600062002f08601b8362003cf8565b91507f536166654d6174683a206164646974696f6e206f766572666c6f7700000000006000830152602082019050919050565b600062002f4a60178362003cf8565b91507f70726f7879206465706c6f796d656e74206661696c65640000000000000000006000830152602082019050919050565b600062002f8c602c8362003cf8565b91507f737570706c696564206574686572206973206e6f7420657175616c20746f206760008301527f61732072657175657374656400000000000000000000000000000000000000006020830152604082019050919050565b600062002ff4601a8362003cf8565b91507f6661696c656420746f207265706179206c6f73742066756e64730000000000006000830152602082019050919050565b60006200303660228362003cf8565b91507f45434453413a20696e76616c6964207369676e6174757265202773272076616c60008301527f75650000000000000000000000000000000000000000000000000000000000006020830152604082019050919050565b60006200309e60248362003cf8565b91507f696e73756666696369656e742066756e647320696e206c69717569646974792060008301527f706f6f6c000000000000000000000000000000000000000000000000000000006020830152604082019050919050565b60006200310660138362003cf8565b91507f616c726561647920696e697469616c697a6564000000000000000000000000006000830152602082019050919050565b600062003148601d8362003cf8565b91507f6e6f742061207265676973746572656420626f72726f772070726f78790000006000830152602082019050919050565b60006200318a60228362003cf8565b91507f45434453413a20696e76616c6964207369676e6174757265202776272076616c60008301527f75650000000000000000000000000000000000000000000000000000000000006020830152604082019050919050565b6000620031f260198362003cf8565b91507f437265617465323a204661696c6564206f6e206465706c6f79000000000000006000830152602082019050919050565b600062003234601f8362003cf8565b91507f6661696c656420746f2072657475726e20626f6e6420746f206b6565706572006000830152602082019050919050565b60006200327660218362003cf8565b91507f536166654d6174683a206d756c7469706c69636174696f6e206f766572666c6f60008301527f77000000000000000000000000000000000000000000000000000000000000006020830152604082019050919050565b6000620032de60248362003cf8565b91507f6c69717569646974792072657175657374207369676e61747572652072656a6560008301527f63746564000000000000000000000000000000000000000000000000000000006020830152604082019050919050565b60006200334660208362003cf8565b91507f4f776e61626c653a2063616c6c6572206973206e6f7420746865206f776e65726000830152602082019050919050565b60006200338860168362003cf8565b91507f626f6e64207375626d697373696f6e206661696c6564000000000000000000006000830152602082019050919050565b6000620033ca60208362003cf8565b91507f6e6f7420612072656769737465726564206c697175696469747920746f6b656e6000830152602082019050919050565b60006200340c60128362003cf8565b91507f626f6e642062656c6f77206d696e696d756d00000000000000000000000000006000830152602082019050919050565b60808201600082015162003457600085018262003560565b5060208201516200346c602085018262003560565b50604082015162003481604085018262003560565b50606082015162003496606085018262003560565b50505050565b60a082016000820151620034b4600085018262002bc7565b506020820151620034c960208501826200343f565b50505050565b608082016000820151620034e7600085018262002b9b565b506020820151620034fc602085018262002bc7565b50604082015162003511604085018262002c30565b50606082015162003526606085018262003560565b50505050565b61012082016000820151620035456000850182620034cf565b5060208201516200355a60808501826200349c565b50505050565b6200356b8162003dd3565b82525050565b6200357c8162003dd3565b82525050565b62003597620035918262003dd3565b62003f15565b82525050565b620035a88162003ddd565b82525050565b6000620035bc828762002bac565b601482019150620035ce828662002be9565b601482019150620035e0828562002c52565b602082019150620035f2828462003582565b60208201915081905095945050505050565b600062003612828762002be9565b60148201915062003624828662002c52565b60208201915062003636828562003582565b60208201915062003648828462003582565b60208201915081905095945050505050565b600062003668828562002be9565b6014820191506200367a828462002c6d565b6004820191508190509392505050565b600062003698828762002c15565b600182019150620036aa828662002be9565b601482019150620036bc828562002c52565b602082019150620036ce828462002c52565b60208201915081905095945050505050565b6000620036ee828562002c52565b60208201915062003700828462002c6d565b6004820191508190509392505050565b60006200371e828462002cc9565b915081905092915050565b600060208201905062003740600083018462002bd8565b92915050565b60006020820190506200375d600083018462002b8a565b92915050565b60006060820190506200377a600083018662002bd8565b62003789602083018562002bd8565b62003798604083018462003571565b949350505050565b6000604082019050620037b7600083018562002bd8565b620037c6602083018462003571565b9392505050565b6000602082019050620037e4600083018462002c04565b92915050565b600060808201905062003801600083018762002c41565b6200381060208301866200359d565b6200381f604083018562002c41565b6200382e606083018462002c41565b95945050505050565b6000602082019050818103600083015262003853818462002c88565b905092915050565b600060208201905062003872600083018462002d00565b92915050565b60006020820190506200388f600083018462002d11565b92915050565b60006020820190508181036000830152620038b1818462002d22565b905092915050565b60006020820190508181036000830152620038d48162002d63565b9050919050565b60006020820190508181036000830152620038f68162002da5565b9050919050565b60006020820190508181036000830152620039188162002e0d565b9050919050565b600060208201905081810360008301526200393a8162002e4f565b9050919050565b600060208201905081810360008301526200395c8162002e91565b9050919050565b600060208201905081810360008301526200397e8162002ef9565b9050919050565b60006020820190508181036000830152620039a08162002f3b565b9050919050565b60006020820190508181036000830152620039c28162002f7d565b9050919050565b60006020820190508181036000830152620039e48162002fe5565b9050919050565b6000602082019050818103600083015262003a068162003027565b9050919050565b6000602082019050818103600083015262003a28816200308f565b9050919050565b6000602082019050818103600083015262003a4a81620030f7565b9050919050565b6000602082019050818103600083015262003a6c8162003139565b9050919050565b6000602082019050818103600083015262003a8e816200317b565b9050919050565b6000602082019050818103600083015262003ab081620031e3565b9050919050565b6000602082019050818103600083015262003ad28162003225565b9050919050565b6000602082019050818103600083015262003af48162003267565b9050919050565b6000602082019050818103600083015262003b1681620032cf565b9050919050565b6000602082019050818103600083015262003b388162003337565b9050919050565b6000602082019050818103600083015262003b5a8162003379565b9050919050565b6000602082019050818103600083015262003b7c81620033bb565b9050919050565b6000602082019050818103600083015262003b9e81620033fd565b9050919050565b60006101208201905062003bbd60008301846200352c565b92915050565b6000604051905081810181811067ffffffffffffffff8211171562003be757600080fd5b8060405250919050565b600067ffffffffffffffff82111562003c0957600080fd5b602082029050602081019050919050565b600067ffffffffffffffff82111562003c3257600080fd5b602082029050602081019050919050565b600067ffffffffffffffff82111562003c5b57600080fd5b602082029050602081019050919050565b600067ffffffffffffffff82111562003c8457600080fd5b601f19601f8301169050602081019050919050565b600067ffffffffffffffff82111562003cb157600080fd5b601f19601f8301169050602081019050919050565b600081519050919050565b600081519050919050565b600082825260208201905092915050565b600081905092915050565b600082825260208201905092915050565b600062003d168262003db3565b9050919050565b600062003d2a8262003db3565b9050919050565b60008115159050919050565b60007fff0000000000000000000000000000000000000000000000000000000000000082169050919050565b6000819050919050565b60007fffffffff0000000000000000000000000000000000000000000000000000000082169050919050565b600062003dac8262003d09565b9050919050565b600073ffffffffffffffffffffffffffffffffffffffff82169050919050565b6000819050919050565b600060ff82169050919050565b600062003df78262003e4e565b9050919050565b600062003e0b8262003e12565b9050919050565b600062003e1f8262003db3565b9050919050565b600062003e338262003e3a565b9050919050565b600062003e478262003db3565b9050919050565b600062003e5b8262003e62565b9050919050565b600062003e6f8262003db3565b9050919050565b82818337600083830152505050565b60005b8381101562003ea557808201518184015260208101905062003e88565b8381111562003eb5576000848401525b50505050565b600062003ec88262003f01565b9050919050565b600062003edc8262003f01565b9050919050565b6000819050919050565b6000819050919050565b6000819050919050565b600062003f0e8262003f30565b9050919050565b6000819050919050565b6000601f19601f8301169050919050565b60008160601b9050919050565b62003f488162003d09565b811462003f5457600080fd5b50565b62003f628162003d1d565b811462003f6e57600080fd5b50565b62003f7c8162003d31565b811462003f8857600080fd5b50565b62003f968162003d69565b811462003fa257600080fd5b50565b62003fb08162003d73565b811462003fbc57600080fd5b50565b62003fca8162003d9f565b811462003fd657600080fd5b50565b6003811062003fe757600080fd5b50565b62003ff58162003dd3565b81146200400157600080fd5b5056fe608060405234801561001057600080fd5b50336000800160006101000a81548173ffffffffffffffffffffffffffffffffffffffff021916908373ffffffffffffffffffffffffffffffffffffffff1602179055506000800160009054906101000a900473ffffffffffffffffffffffffffffffffffffffff1673ffffffffffffffffffffffffffffffffffffffff16637b3b00be6040518163ffffffff1660e01b8152600401602060405180830381600087803b1580156100c057600080fd5b505af11580156100d4573d6000803e3d6000fd5b505050506040513d601f19601f820116820180604052506100f89190810190610155565b600060010160006101000a81548173ffffffffffffffffffffffffffffffffffffffff021916908373ffffffffffffffffffffffffffffffffffffffff1602179055506101c7565b60008151905061014f816101b0565b92915050565b60006020828403121561016757600080fd5b600061017584828501610140565b91505092915050565b600061018982610190565b9050919050565b600073ffffffffffffffffffffffffffffffffffffffff82169050919050565b6101b98161017e565b81146101c457600080fd5b50565b610b56806101d66000396000f3fe608060405234801561001057600080fd5b506004361061002b5760003560e01c80632692f25a14610030575b600080fd5b61004a60048036036100459190810190610646565b61004c565b005b600060010160009054906101000a900473ffffffffffffffffffffffffffffffffffffffff1673ffffffffffffffffffffffffffffffffffffffff163373ffffffffffffffffffffffffffffffffffffffff16146100df576040517f08c379a00000000000000000000000000000000000000000000000000000000081526004016100d690610932565b60405180910390fd5b6000800160149054906101000a900460ff16156101b357600060608473ffffffffffffffffffffffffffffffffffffffff1684846040516101209190610871565b60006040518083038185875af1925050503d806000811461015d576040519150601f19603f3d011682016040523d82523d6000602084013e610162565b606091505b50915091508181906101aa576040517f08c379a00000000000000000000000000000000000000000000000000000000081526004016101a191906108f0565b60405180910390fd5b50805160208201f35b60006101d46101cf60006004856102dc9092919063ffffffff16565b610314565b60001c60e01b90506101e461047e565b600073__BorrowProxyLib________________________632f1a48af909187856040518463ffffffff1660e01b815260040161022293929190610952565b60606040518083038186803b15801561023a57600080fd5b505af415801561024e573d6000803e3d6000fd5b505050506040513d601f19601f8201168201806040525061027291908101906106ad565b90506102818160200151610343565b6102c0576040517f08c379a00000000000000000000000000000000000000000000000000000000081526004016102b790610912565b60405180910390fd5b6102d58385836103809092919063ffffffff16565b5050505050565b6102e46104b4565b60006020850184019050808260000181815250508282602001818152505083826040018181525050509392505050565b60008082600001519050600083602001519050600180600883021b038082602003840351169350505050919050565b60008073ffffffffffffffffffffffffffffffffffffffff16826000015173ffffffffffffffffffffffffffffffffffffffff1614159050919050565b6000606084602001516000015173ffffffffffffffffffffffffffffffffffffffff1685602001516000015186602001516020015132886000015187896040516020016103d296959493929190610888565b6040516020818303038152906040526040516103ee9190610871565b600060405180830381855af49150503d8060008114610429576040519150601f19603f3d011682016040523d82523d6000602084013e61042e565b606091505b5091509150818190610476576040517f08c379a000000000000000000000000000000000000000000000000000000000815260040161046d91906108f0565b60405180910390fd5b505050505050565b6040518060400160405280600073ffffffffffffffffffffffffffffffffffffffff1681526020016104ae6104d5565b81525090565b60405180606001604052806000815260200160008152602001600081525090565b6040518060400160405280600073ffffffffffffffffffffffffffffffffffffffff168152602001600073ffffffffffffffffffffffffffffffffffffffff1681525090565b60008135905061052a81610af2565b92915050565b60008151905061053f81610af2565b92915050565b600082601f83011261055657600080fd5b8135610569610564826109b6565b610989565b9150808252602083016020830185838301111561058557600080fd5b610590838284610a9f565b50505092915050565b6000606082840312156105ab57600080fd5b6105b56040610989565b905060006105c584828501610530565b60008301525060206105d9848285016105e5565b60208301525092915050565b6000604082840312156105f757600080fd5b6106016040610989565b9050600061061184828501610530565b600083015250602061062584828501610530565b60208301525092915050565b60008135905061064081610b09565b92915050565b60008060006060848603121561065b57600080fd5b60006106698682870161051b565b935050602061067a86828701610631565b925050604084013567ffffffffffffffff81111561069757600080fd5b6106a386828701610545565b9150509250925092565b6000606082840312156106bf57600080fd5b60006106cd84828501610599565b91505092915050565b6106df81610a37565b82525050565b6106ee81610a25565b82525050565b6106fd81610a25565b82525050565b61070c81610a49565b82525050565b600061071d826109e2565b61072781856109f8565b9350610737818560208601610aae565b61074081610ae1565b840191505092915050565b6000610756826109e2565b6107608185610a09565b9350610770818560208601610aae565b80840191505092915050565b6000610787826109ed565b6107918185610a14565b93506107a1818560208601610aae565b6107aa81610ae1565b840191505092915050565b60006107c2601f83610a14565b91507f66756e6374696f6e2068616e646c6572206e6f742072656769737465726564006000830152602082019050919050565b6000610802602983610a14565b91507f626f72726f772070726f78792063616e206f6e6c79206265207573656420627960008301527f20626f72726f77657200000000000000000000000000000000000000000000006020830152604082019050919050565b8082525050565b61086b81610a95565b82525050565b600061087d828461074b565b915081905092915050565b600060c08201905061089d60008301896106e5565b6108aa60208301886106e5565b6108b760408301876106d6565b6108c460608301866106e5565b6108d16080830185610862565b81810360a08301526108e38184610712565b9050979650505050505050565b6000602082019050818103600083015261090a818461077c565b905092915050565b6000602082019050818103600083015261092b816107b5565b9050919050565b6000602082019050818103600083015261094b816107f5565b9050919050565b6000606082019050610967600083018661085b565b61097460208301856106f4565b6109816040830184610703565b949350505050565b6000604051905081810181811067ffffffffffffffff821117156109ac57600080fd5b8060405250919050565b600067ffffffffffffffff8211156109cd57600080fd5b601f19601f8301169050602081019050919050565b600081519050919050565b600081519050919050565b600082825260208201905092915050565b600081905092915050565b600082825260208201905092915050565b6000610a3082610a75565b9050919050565b6000610a4282610a75565b9050919050565b60007fffffffff0000000000000000000000000000000000000000000000000000000082169050919050565b600073ffffffffffffffffffffffffffffffffffffffff82169050919050565b6000819050919050565b82818337600083830152505050565b60005b83811015610acc578082015181840152602081019050610ab1565b83811115610adb576000848401525b50505050565b6000601f19601f8301169050919050565b610afb81610a25565b8114610b0657600080fd5b50565b610b1281610a95565b8114610b1d57600080fd5b5056fea264697066735822122062d4a0aa3bf8b05e238260a139b0bdb99e232009ee271aa12d0024b2de2b9ce064736f6c63430006030033a2646970667358221220209d2b447c2f0800735ee96610670ed47f2d018a2cd3ef898a20dc511e4e0e6964736f6c63430006030033",
  "source": "pragma solidity ^0.6.2;\npragma experimental ABIEncoderV2;\n\nimport { Ownable } from \"openzeppelin-solidity/contracts/ownership/Ownable.sol\";\nimport { IShifterRegistry } from \"./interfaces/IShifterRegistry.sol\";\nimport { IShifter } from \"./interfaces/IShifter.sol\";\nimport { ShifterPoolLib } from \"./ShifterPoolLib.sol\";\nimport { ShifterBorrowProxyLib } from \"./ShifterBorrowProxyLib.sol\";\nimport { BorrowProxy } from \"./BorrowProxy.sol\";\nimport { BorrowProxyLib } from \"./BorrowProxyLib.sol\";\nimport { BorrowProxyFactoryLib } from \"./BorrowProxyFactoryLib.sol\";\nimport { TokenUtils } from \"./utils/TokenUtils.sol\";\nimport { LiquidityToken } from \"./LiquidityToken.sol\";\n\ncontract ShifterPool is Ownable {\n  using ShifterPoolLib for *;\n  using TokenUtils for *;\n  using ShifterBorrowProxyLib for *;\n  using BorrowProxyLib for *;\n  using BorrowProxyFactoryLib for *;\n  ShifterPoolLib.Isolate isolate;\n  function setup(address shifterRegistry, uint256 poolFee, BorrowProxyLib.ModuleRegistration[] memory modules, ShifterPoolLib.LiquidityTokenLaunch[] memory tokenLaunches) public onlyOwner {\n    require(isolate.shifterRegistry == address(0x0), \"already initialized\");\n    isolate.shifterRegistry = shifterRegistry;\n    isolate.poolFee = poolFee;\n    for (uint256 i = 0; i < modules.length; i++) {\n      BorrowProxyLib.ModuleRegistration memory registration = modules[i];\n      for (uint256 j = 0; j < registration.sigs.length; j++) {\n        isolate.registry.registryRegisterModule(registration);\n      }\n    }\n    for (uint256 i = 0; i < tokenLaunches.length; i++) {\n      ShifterPoolLib.LiquidityTokenLaunch memory launch = tokenLaunches[i];\n      isolate.tokenToLiquidityToken[launch.token] = launch.liqToken;\n    }\n  }\n  function executeBorrow(ShifterBorrowProxyLib.LiquidityRequestParcel memory liquidityRequestParcel, uint256 bond, uint256 timeoutExpiry) public payable {\n    require(liquidityRequestParcel.gasRequested == msg.value, \"supplied ether is not equal to gas requested\");\n    bytes32 requestHash = liquidityRequestParcel.computeLiquidityRequestHash();\n    require(liquidityRequestParcel.validateSignature(requestHash), \"liquidity request signature rejected\");\n    ShifterBorrowProxyLib.LiquidityRequest memory liquidityRequest = liquidityRequestParcel.request;\n    bytes32 borrowerSalt = liquidityRequest.computeBorrowerSalt();\n    address proxyAddress = borrowerSalt.deriveBorrowerAddress();\n    require(!isolate.borrowProxyController.isInitialized(proxyAddress), \"proxy has already been initialized\");\n    ShifterBorrowProxyLib.LenderRecord memory loan;\n    loan.keeper = msg.sender;\n    loan.params = isolate.computeLoanParams(liquidityRequest.amount, bond, timeoutExpiry);\n    ShifterBorrowProxyLib.ProxyRecord memory proxyRecord = ShifterBorrowProxyLib.ProxyRecord({\n      request: liquidityRequest,\n      loan: loan\n    });\n    bytes memory data = abi.encode(proxyRecord);\n    require(LiquidityToken(isolate.getLiquidityToken(liquidityRequest.token)).loan(proxyAddress, proxyRecord.computePostFee()), \"insufficient funds in liquidity pool\");\n    isolate.borrowProxyController.mapProxyRecord(proxyAddress, data);\n    isolate.borrowProxyController.setProxyOwner(proxyAddress, liquidityRequest.borrower);\n    liquidityRequest.borrower.transfer(msg.value);\n    require(liquidityRequest.token.transferTokenFrom(msg.sender, address(this), bond), \"bond submission failed\");\n    require(borrowerSalt.deployBorrowProxy() == proxyAddress, \"proxy deployment failed\");\n    emit BorrowProxyLib.BorrowProxyMade(msg.sender, proxyAddress, data);\n  }\n  function validateProxyRecordHandler(bytes memory proxyRecord) public view returns (bool) {\n    return isolate.borrowProxyController.validateProxyRecord(msg.sender, proxyRecord);\n  }\n  function getProxyOwnerHandler() public view returns (address) {\n    return isolate.borrowProxyController.getProxyOwner(msg.sender);\n  }\n  function getShifterHandler(address token) public view returns (IShifter) {\n    return isolate.getShifter(token);\n  }\n  function getLiquidityTokenHandler(address token) public view returns (LiquidityToken) {\n    return LiquidityToken(isolate.getLiquidityToken(token));\n  }\n  function relayResolveLoan(address token, address liquidityToken, address keeper, uint256 bond, uint256 repay) public returns (bool) {\n    require(isolate.borrowProxyController.proxyInitializerRecord[msg.sender] != bytes32(0x0), \"not a registered borrow proxy\");\n    if (bond != 0) require(token.sendToken(keeper, bond), \"failed to return bond to keeper\");\n    if (repay != 0) require(token.sendToken(liquidityToken, repay), \"failed to repay lost funds\");\n    require(LiquidityToken(liquidityToken).resolveLoan(msg.sender));\n    return true;\n  }\n}\n",
  "sourcePath": "/home/ray/0confirmation/packages/0confirmation-sol/contracts/ShifterPool.sol",
  "compiler": {
    "name": "solc",
    "version": "0.6.3+commit.8dda9521.Emscripten.clang"
  },
  "schemaVersion": "3.0.23",
  "updatedAt": "2020-03-14T06:17:36.856Z",
  "networkType": "ethereum",
  "devdoc": {
    "methods": {
      "isOwner()": {
        "details": "Returns true if the caller is the current owner."
      },
      "owner()": {
        "details": "Returns the address of the current owner."
      },
      "renounceOwnership()": {
        "details": "Leaves the contract without owner. It will not be possible to call `onlyOwner` functions anymore. Can only be called by the current owner.     * NOTE: Renouncing ownership will leave the contract without an owner, thereby removing any functionality that is only available to the owner."
      },
      "transferOwnership(address)": {
        "details": "Transfers ownership of the contract to a new account (`newOwner`). Can only be called by the current owner."
      }
    }
  },
  "userdoc": {
    "methods": {}
  }
}