{
  "contractName": "ShifterPool",
  "abi": [
    {
      "inputs": [],
      "stateMutability": "nonpayable",
      "type": "constructor"
    },
    {
      "anonymous": false,
      "inputs": [
        {
          "indexed": true,
          "internalType": "address",
          "name": "previousOwner",
          "type": "address"
        },
        {
          "indexed": true,
          "internalType": "address",
          "name": "newOwner",
          "type": "address"
        }
      ],
      "name": "OwnershipTransferred",
      "type": "event"
    },
    {
      "inputs": [
        {
          "internalType": "bytes",
          "name": "creationCode",
          "type": "bytes"
        },
        {
          "internalType": "bytes",
          "name": "context",
          "type": "bytes"
        }
      ],
      "name": "_executeSafeView",
      "outputs": [],
      "stateMutability": "nonpayable",
      "type": "function"
    },
    {
      "inputs": [
        {
          "internalType": "bytes",
          "name": "consData",
          "type": "bytes"
        }
      ],
      "name": "cloneConstructor",
      "outputs": [],
      "stateMutability": "nonpayable",
      "type": "function"
    },
    {
      "inputs": [],
      "name": "owner",
      "outputs": [
        {
          "internalType": "address",
          "name": "",
          "type": "address"
        }
      ],
      "stateMutability": "view",
      "type": "function"
    },
    {
      "inputs": [
        {
          "internalType": "bytes",
          "name": "creationCode",
          "type": "bytes"
        },
        {
          "internalType": "bytes",
          "name": "context",
          "type": "bytes"
        }
      ],
      "name": "query",
      "outputs": [
        {
          "components": [
            {
              "internalType": "bool",
              "name": "success",
              "type": "bool"
            },
            {
              "internalType": "bytes",
              "name": "data",
              "type": "bytes"
            }
          ],
          "internalType": "struct SafeViewLib.SafeViewResult",
          "name": "",
          "type": "tuple"
        }
      ],
      "stateMutability": "nonpayable",
      "type": "function"
    },
    {
      "inputs": [],
      "name": "renounceOwnership",
      "outputs": [],
      "stateMutability": "nonpayable",
      "type": "function"
    },
    {
      "inputs": [
        {
          "internalType": "address",
          "name": "newOwner",
          "type": "address"
        }
      ],
      "name": "transferOwnership",
      "outputs": [],
      "stateMutability": "nonpayable",
      "type": "function"
    },
    {
      "inputs": [
        {
          "internalType": "address",
          "name": "shifterRegistry",
          "type": "address"
        },
        {
          "internalType": "uint256",
          "name": "minTimeout",
          "type": "uint256"
        },
        {
          "internalType": "uint256",
          "name": "poolFee",
          "type": "uint256"
        },
        {
          "components": [
            {
              "internalType": "enum BorrowProxyLib.ModuleRegistrationType",
              "name": "moduleType",
              "type": "uint8"
            },
            {
              "internalType": "address",
              "name": "target",
              "type": "address"
            },
            {
              "internalType": "bytes4[]",
              "name": "sigs",
              "type": "bytes4[]"
            },
            {
              "components": [
                {
                  "internalType": "bool",
                  "name": "isPrecompiled",
                  "type": "bool"
                },
                {
                  "internalType": "address",
                  "name": "assetSubmodule",
                  "type": "address"
                },
                {
                  "internalType": "address",
                  "name": "liquidationSubmodule",
                  "type": "address"
                },
                {
                  "internalType": "address",
                  "name": "repaymentSubmodule",
                  "type": "address"
                }
              ],
              "internalType": "struct BorrowProxyLib.Module",
              "name": "module",
              "type": "tuple"
            }
          ],
          "internalType": "struct BorrowProxyLib.ModuleRegistration[]",
          "name": "modules",
          "type": "tuple[]"
        },
        {
          "components": [
            {
              "internalType": "address",
              "name": "token",
              "type": "address"
            },
            {
              "internalType": "address",
              "name": "liqToken",
              "type": "address"
            }
          ],
          "internalType": "struct ShifterPoolLib.LiquidityTokenLaunch[]",
          "name": "tokenLaunches",
          "type": "tuple[]"
        }
      ],
      "name": "setup",
      "outputs": [],
      "stateMutability": "nonpayable",
      "type": "function"
    },
    {
      "inputs": [],
      "name": "deployBorrowProxyImplementation",
      "outputs": [],
      "stateMutability": "nonpayable",
      "type": "function"
    },
    {
      "inputs": [
        {
          "components": [
            {
              "components": [
                {
                  "internalType": "address payable",
                  "name": "borrower",
                  "type": "address"
                },
                {
                  "internalType": "address",
                  "name": "token",
                  "type": "address"
                },
                {
                  "internalType": "bytes32",
                  "name": "nonce",
                  "type": "bytes32"
                },
                {
                  "internalType": "uint256",
                  "name": "amount",
                  "type": "uint256"
                },
                {
                  "internalType": "bool",
                  "name": "forbidLoan",
                  "type": "bool"
                },
                {
                  "components": [
                    {
                      "internalType": "address",
                      "name": "to",
                      "type": "address"
                    },
                    {
                      "internalType": "bytes",
                      "name": "txData",
                      "type": "bytes"
                    }
                  ],
                  "internalType": "struct ShifterBorrowProxyLib.InitializationAction[]",
                  "name": "actions",
                  "type": "tuple[]"
                }
              ],
              "internalType": "struct ShifterBorrowProxyLib.LiquidityRequest",
              "name": "request",
              "type": "tuple"
            },
            {
              "internalType": "uint256",
              "name": "gasRequested",
              "type": "uint256"
            },
            {
              "internalType": "bytes",
              "name": "signature",
              "type": "bytes"
            }
          ],
          "internalType": "struct ShifterBorrowProxyLib.LiquidityRequestParcel",
          "name": "liquidityRequestParcel",
          "type": "tuple"
        },
        {
          "internalType": "uint256",
          "name": "bond",
          "type": "uint256"
        },
        {
          "internalType": "uint256",
          "name": "timeoutExpiry",
          "type": "uint256"
        }
      ],
      "name": "executeBorrow",
      "outputs": [],
      "stateMutability": "payable",
      "type": "function"
    },
    {
      "inputs": [
        {
          "internalType": "bytes",
          "name": "proxyRecord",
          "type": "bytes"
        }
      ],
      "name": "validateProxyRecordHandler",
      "outputs": [
        {
          "internalType": "bool",
          "name": "",
          "type": "bool"
        }
      ],
      "stateMutability": "view",
      "type": "function"
    },
    {
      "inputs": [
        {
          "internalType": "address",
          "name": "proxyAddress",
          "type": "address"
        }
      ],
      "name": "getProxyTokenHandler",
      "outputs": [
        {
          "internalType": "address",
          "name": "",
          "type": "address"
        }
      ],
      "stateMutability": "view",
      "type": "function"
    },
    {
      "inputs": [
        {
          "internalType": "address",
          "name": "user",
          "type": "address"
        }
      ],
      "name": "getProxyOwnerHandler",
      "outputs": [
        {
          "internalType": "address",
          "name": "",
          "type": "address"
        }
      ],
      "stateMutability": "view",
      "type": "function"
    },
    {
      "inputs": [
        {
          "internalType": "address",
          "name": "token",
          "type": "address"
        }
      ],
      "name": "getShifterHandler",
      "outputs": [
        {
          "internalType": "contract IShifter",
          "name": "",
          "type": "address"
        }
      ],
      "stateMutability": "view",
      "type": "function"
    },
    {
      "inputs": [
        {
          "internalType": "address",
          "name": "token",
          "type": "address"
        }
      ],
      "name": "getLiquidityTokenHandler",
      "outputs": [
        {
          "internalType": "contract LiquidityToken",
          "name": "",
          "type": "address"
        }
      ],
      "stateMutability": "view",
      "type": "function"
    },
    {
      "inputs": [
        {
          "internalType": "address",
          "name": "to",
          "type": "address"
        },
        {
          "internalType": "bytes4",
          "name": "sig",
          "type": "bytes4"
        }
      ],
      "name": "fetchModuleHandler",
      "outputs": [
        {
          "components": [
            {
              "internalType": "bool",
              "name": "isPrecompiled",
              "type": "bool"
            },
            {
              "internalType": "address",
              "name": "assetSubmodule",
              "type": "address"
            },
            {
              "internalType": "address",
              "name": "liquidationSubmodule",
              "type": "address"
            },
            {
              "internalType": "address",
              "name": "repaymentSubmodule",
              "type": "address"
            }
          ],
          "internalType": "struct BorrowProxyLib.Module",
          "name": "",
          "type": "tuple"
        }
      ],
      "stateMutability": "view",
      "type": "function"
    },
    {
      "inputs": [
        {
          "internalType": "address",
          "name": "token",
          "type": "address"
        },
        {
          "internalType": "address",
          "name": "liquidityToken",
          "type": "address"
        },
        {
          "internalType": "address",
          "name": "keeper",
          "type": "address"
        },
        {
          "internalType": "uint256",
          "name": "bond",
          "type": "uint256"
        },
        {
          "internalType": "uint256",
          "name": "repay",
          "type": "uint256"
        }
      ],
      "name": "relayResolveLoan",
      "outputs": [
        {
          "internalType": "bool",
          "name": "",
          "type": "bool"
        }
      ],
      "stateMutability": "nonpayable",
      "type": "function"
    }
  ],
  "bytecode": "0x608060405234801561001057600080fd5b5060006100246001600160e01b0361007716565b600080546001600160a01b0319166001600160a01b0383169081178255604051929350917f8be0079c531659141344cd1fd0a4f28419497f9722a3daafe3b4186f6b6457e0908290a3504360015561007b565b3390565b613117806200008b6000396000f3fe6080604052600436106100f35760003560e01c8063715018a61161008a578063dc74245e11610059578063dc74245e14610296578063e6c1f074146102a9578063ea82c9b3146102c9578063f2fde38b146102e9576100f3565b8063715018a61461022c578063798aada014610241578063801874ec146102615780638da5cb5b14610281576100f3565b806344112360116100c657806344112360146101a857806352e831dd146101d55780635f7d2b57146101f757806363091aa314610217576100f3565b806308f60495146100f85780631fbc78dc1461012e57806329658b021461015b57806334686eaf1461017b575b600080fd5b34801561010457600080fd5b506101186101133660046123ad565b610309565b60405161012591906128b9565b60405180910390f35b34801561013a57600080fd5b5061014e6101493660046121ef565b610323565b60405161012591906127ee565b34801561016757600080fd5b5061014e6101763660046121ef565b610336565b34801561018757600080fd5b5061019b6101963660046123e0565b610349565b6040516101259190612fea565b3480156101b457600080fd5b506101c86101c3366004612281565b610368565b6040516101259190612eec565b3480156101e157600080fd5b506101f56101f03660046123ad565b610382565b005b34801561020357600080fd5b506101f56102123660046123e0565b610385565b34801561022357600080fd5b506101f56103d0565b34801561023857600080fd5b506101f5610423565b34801561024d57600080fd5b5061014e61025c3660046121ef565b6104ab565b34801561026d57600080fd5b5061011861027c366004612227565b6104be565b34801561028d57600080fd5b5061014e610608565b6101f56102a4366004612441565b610617565b3480156102b557600080fd5b5061014e6102c43660046121ef565b610680565b3480156102d557600080fd5b506101f56102e43660046122b9565b610693565b3480156102f557600080fd5b506101f56103043660046121ef565b6107d1565b600061031d6009338463ffffffff61088716565b92915050565b600061031d60018363ffffffff6108ad16565b600061031d60098363ffffffff61093016565b610351611d54565b610361838363ffffffff61095316565b9392505050565b610370611d6c565b610361600d848463ffffffff6109cc16565b50565b600061039a6000610394610aba565b85610ade565b905060606103bf6103ba6001600160a01b0384168563ffffffff610b5016565b610bda565b90506103ca81610c03565b50505050565b61040160017ffe1e3164ba4910db3c9afd049cd8feb4552390569c846692e6df4ac68aeaa90e63ffffffff610c0b16565b600280546001600160a01b0319166001600160a01b0392909216919091179055565b61042b610c73565b6000546001600160a01b039081169116146104615760405162461bcd60e51b815260040161045890612d82565b60405180910390fd5b600080546040516001600160a01b03909116907f8be0079c531659141344cd1fd0a4f28419497f9722a3daafe3b4186f6b6457e0908390a3600080546001600160a01b0319169055565b600061031d60018363ffffffff610c7716565b336000908152600960205260408120546104ea5760405162461bcd60e51b815260040161045890612c16565b82156105265761050a6001600160a01b038716858563ffffffff610cb316565b6105265760405162461bcd60e51b815260040161045890612cc6565b8115610562576105466001600160a01b038716868463ffffffff610cb316565b6105625760405162461bcd60e51b815260040161045890612aff565b60405163c3275c7960e01b81526001600160a01b0386169063c3275c799061058e9033906004016127ee565b602060405180830381600087803b1580156105a857600080fd5b505af11580156105bc573d6000803e3d6000fd5b505050506040513d601f19601f820116820180604052508101906105e09190612391565b6105fc5760405162461bcd60e51b815260040161045890612e44565b50600195945050505050565b6000546001600160a01b031690565b6000610624848484610d25565b9050600061063182610eae565b85518051602090910151919250610659916001600160a01b038416919063ffffffff610ec716565b845160a00151610679906001600160a01b0383169063ffffffff610f6816565b5050505050565b600061031d60098363ffffffff610fc216565b61069b610c73565b6000546001600160a01b039081169116146106c85760405162461bcd60e51b815260040161045890612d82565b6003546001600160a01b0316156106f15760405162461bcd60e51b815260040161045890612be9565b600380546001600160a01b0319166001600160a01b0387161790556004849055600583905560005b825181101561075d5761072a611d93565b83828151811061073657fe5b60209081029190910101519050610754600d8263ffffffff610fe516565b50600101610719565b5060005b81518110156107c957610772611dc1565b82828151811061077e57fe5b6020908102919091018101518082015190516001600160a01b0390811660009081526008909352604090922080546001600160a01b0319169290911691909117905550600101610761565b505050505050565b6107d9610c73565b6000546001600160a01b039081169116146108065760405162461bcd60e51b815260040161045890612d82565b6001600160a01b03811661082c5760405162461bcd60e51b815260040161045890612a36565b600080546040516001600160a01b03808516939216917f8be0079c531659141344cd1fd0a4f28419497f9722a3daafe3b4186f6b6457e091a3600080546001600160a01b0319166001600160a01b0392909216919091179055565b80516020918201206001600160a01b039290921660009081529290526040909120541490565b600282015460405163028c4f4160e41b81526000916001600160a01b0316906328c4f410906108e09085906004016127ee565b60206040518083038186803b1580156108f857600080fd5b505afa15801561090c573d6000803e3d6000fd5b505050506040513d601f19601f82011682018060405250810190610361919061220b565b6001600160a01b0380821660009081526002840160205260409020541692915050565b61095b611d54565b606030610968858561109f565b60405161097591906127a1565b6000604051808303816000865af19150503d80600081146109b2576040519150601f19603f3d011682016040523d82523d6000602084013e6109b7565b606091505b509150506109c4816110f5565b949350505050565b6109d4611d6c565b6109dc611d6c565b8460006109e98686611111565b815260208082019290925260409081016000208151608081018352815460ff8116151582526001600160a01b0361010090910481169482019490945260018201548416928101929092526002015490911660608201529050610a4a81611139565b6109c457846000610a5b868661114b565b815260208082019290925260409081016000208151608081018352815460ff81161515825261010090046001600160a01b0390811694820194909452600182015484169281019290925260020154909116606082015295945050505050565b7fad53495153c7c363e98a26920ec679e0e687636458f6908c91cf6deadb19080190565b60008084471015610b015760405162461bcd60e51b815260040161045890612ea7565b8251610b1f5760405162461bcd60e51b81526004016104589061299c565b8383516020850187f590506001600160a01b0381166109c45760405162461bcd60e51b815260040161045890612c8f565b610b58611d54565b60006060846001600160a01b0316610b6f85611166565b604051610b7c91906127a1565b600060405180830381855af49150503d8060008114610bb7576040519150601f19603f3d011682016040523d82523d6000602084013e610bbc565b606091505b50604080518082019091529115158252602082015295945050505050565b606081604051602001610bed9190612fea565b6040516020818303038152906040529050919050565b805160208201fd5b60405163dd678a0760e01b815260009073__ShifterBorrowProxyFactoryLib__________9063dd678a0790610c479086908690600401612ede565b60206040518083038186803b158015610c5f57600080fd5b505af415801561090c573d6000803e3d6000fd5b3390565b6001600160a01b038082166000908152600784016020526040812054909116806103615760405162461bcd60e51b815260040161045890612e0f565b600080846001600160a01b0316610cca85856111b9565b604051610cd791906127a1565b6000604051808303816000865af19150503d8060008114610d14576040519150601f19603f3d011682016040523d82523d6000602084013e610d19565b606091505b50909695505050505050565b600034846020015114610d4a5760405162461bcd60e51b815260040161045890612ab3565b610d63610d56856111d6565b859063ffffffff6111ef16565b610d7f5760405162461bcd60e51b815260040161045890612d3e565b610d87611dd8565b508351610d9381611220565b600254909250600090610db5906001600160a01b03168463ffffffff61122b16565b9050610dc860098263ffffffff61123716565b15610de55760405162461bcd60e51b81526004016104589061295a565b610ded611e0f565b60405180604001604052808481526020016040518060400160405280336001600160a01b03168152602001610e3487606001518b8b6001611255909392919063ffffffff16565b905290529050610e4660018383611355565b610e68836020015183610e58846113f4565b600192919063ffffffff61142c16565b6020830151610e88906001600160a01b031633308963ffffffff6114d116565b610ea45760405162461bcd60e51b815260040161045890612db7565b5050509392505050565b60025460009061031d906001600160a01b031683611545565b604051632d34ba7960e01b81526001600160a01b03841690632d34ba7990610ef5908590859060040161281b565b602060405180830381600087803b158015610f0f57600080fd5b505af1158015610f23573d6000803e3d6000fd5b505050506040513d601f19601f82011682018060405250810190610f479190612391565b610f635760405162461bcd60e51b815260040161045890612b36565b505050565b604051630bfceb2b60e31b81526001600160a01b03831690635fe7595890610f94908490600401612859565b600060405180830381600087803b158015610fae57600080fd5b505af11580156107c9573d6000803e3d6000fd5b6001600160a01b0380821660009081526001840160205260409020541692915050565b600181516002811115610ff457fe5b14156110435760005b81604001515181101561103d576110358383602001518460400151848151811061102357fe5b60200260200101518560600151611595565b600101610ffd565b5061109b565b60028151600281111561105257fe5b141561109b5760005b816040015151811015610f63576110938383602001518460400151848151811061108157fe5b6020026020010151856060015161161f565b60010161105b565b5050565b6060635f7d2b5760e01b83836040516024016110bc9291906128f5565b60408051601f198184030181529190526020810180516001600160e01b03166001600160e01b0319909316929092179091529392505050565b6110fd611d54565b8180602001905181019061031d91906124ef565b60008061111d8461162d565b90506111298184611631565b8051906020012091505092915050565b602001516001600160a01b0316151590565b6000611157838361165d565b80519060200120905092915050565b60606309c5eabe60e01b8260405160240161118191906128e2565b60408051601f198184030181529190526020810180516001600160e01b03166001600160e01b03199093169290921790915292915050565b606063a9059cbb60e01b83836040516024016110bc929190612802565b60006111e182611672565b805190602001209050919050565b60006112076111fd83611692565b84604001516116c2565b8351516001600160a01b03908116911614905092915050565b60006111e1826117f0565b6000610361838361180c565b6001600160a01b031660009081526020919091526040902054151590565b61125d611e2f565b84600301548210156112815760405162461bcd60e51b8152600401610458906129d1565b600061129c670de0b6b3a7640000606463ffffffff61182716565b90506112b7670de0b6b3a7640000606463ffffffff61182716565b6112df866112d387670de0b6b3a764000063ffffffff61186916565b9063ffffffff61182716565b116112fc5760405162461bcd60e51b815260040161045890612e7b565b600084861061131e57611319866112d3848863ffffffff61186916565b611320565b815b905060405180608001604052808543018152602001868152602001886004015481526020018281525092505050949350505050565b6060611360826118a3565b82516020015190915061137f906008860190859063ffffffff6118b616565b815151611398906008860190859063ffffffff6118ea16565b8151516040516001600160a01b03909116903480156108fc02916000818181858888f193505050501580156113d1573d6000803e3d6000fd5b506113e660088501848363ffffffff61191e16565b8151516103ca908483611941565b600061031d61141a61140584611991565b61140e856119c6565b9063ffffffff6119fb16565b8351606001519063ffffffff611a2016565b6114368484610c77565b6001600160a01b031663185cc75183836040518363ffffffff1660e01b8152600401611463929190612802565b602060405180830381600087803b15801561147d57600080fd5b505af1158015611491573d6000803e3d6000fd5b505050506040513d601f19601f820116820180604052508101906114b59190612391565b6103ca5760405162461bcd60e51b815260040161045890612ba5565b600080856001600160a01b03166114e9868686611a62565b6040516114f691906127a1565b6000604051808303816000865af19150503d8060008114611533576040519150601f19603f3d011682016040523d82523d6000602084013e611538565b606091505b5090979650505050505050565b6000606061155284611abb565b80519091508390602083018282826000f5945050506001600160a01b03831661158d5760405162461bcd60e51b815260040161045890612de7565b505092915050565b808460006115a38686611111565b81526020808201929092526040908101600020835181549385015160ff1990941690151517610100600160a81b0319166101006001600160a01b0394851602178155908301516001820180546001600160a01b031990811692851692909217905560609093015160029091018054909316911617905550505050565b808460006115a3868661114b565b3f90565b60608282604051602001611646929190612789565b604051602081830303815290604052905092915050565b60608282604051602001611646929190612724565b606080611686836000015160a00151611c22565b90506103618382611c35565b6000816040516020016116a591906127bd565b604051602081830303815290604052805190602001209050919050565b600081516041146116e55760405162461bcd60e51b8152600401610458906129ff565b60208201516040830151606084015160001a7f7fffffffffffffffffffffffffffffff5d576e7357a4501ddfe92f46681b20a08211156117375760405162461bcd60e51b815260040161045890612b63565b8060ff16601b1415801561174f57508060ff16601c14155b1561176c5760405162461bcd60e51b815260040161045890612c4d565b60006001878386866040516000815260200160405260405161179194939291906128c4565b6020604051602081039080840390855afa1580156117b3573d6000803e3d6000fd5b5050604051601f1901519150506001600160a01b0381166117e65760405162461bcd60e51b815260040161045890612923565b9695505050505050565b6060806118008360a00151611c22565b90506103618382611c6b565b60006103618261181b85611abb565b80519060200120611c9c565b600061036183836040518060400160405280601a81526020017f536166654d6174683a206469766973696f6e206279207a65726f000000000000815250611ca9565b6000826118785750600061031d565b8282028284828161188557fe5b04146103615760405162461bcd60e51b815260040161045890612cfd565b606081604051602001610bed9190612f2a565b6001600160a01b039182166000908152600290930160205260409092208054919092166001600160a01b0319909116179055565b6001600160a01b039182166000908152600190930160205260409092208054919092166001600160a01b0319909116179055565b80516020918201206001600160a01b039092166000908152929052604090912055565b816001600160a01b0316836001600160a01b03167f9ae84ac2ad8f721c2e62d211eca0ae34951726f8834913af6c5ebb81610bb1f88360405161198491906128e2565b60405180910390a3505050565b600061031d670de0b6b3a76400006112d38460200151602001516060015185600001516060015161186990919063ffffffff16565b600061031d670de0b6b3a76400006112d38460200151602001516040015185600001516060015161186990919063ffffffff16565b6000828201838110156103615760405162461bcd60e51b815260040161045890612a7c565b600061036183836040518060400160405280601e81526020017f536166654d6174683a207375627472616374696f6e206f766572666c6f770000815250611ce0565b60606323b872dd60e01b848484604051602401611a8193929190612835565b60408051601f198184030181529190526020810180516001600160e01b03166001600160e01b031990931692909217909152949350505050565b6040805160008152602081019091526060908190611adc90604481016128e2565b60408051601f198184030181529190526020810180516001600160e01b03166352e831dd60e01b179052805190915060630167ffffffffffffffff81118015611b2457600080fd5b506040519080825280601f01601f191660200182016040528015611b4f576020820181803683370190505b507f3d3d606380380380913d393d73bebebebebebebebebebebebebebebebebebebe6020820152600160601b308102602d8301527f5af4602a57600080fd5b602d8060366000396000f3363d3d373d3d3d363d73be6041830152840260608201526e5af43d82803e903d91602b57fd5bf360881b6074820152915060005b8151811015611c1b57818181518110611be257fe5b602001015160f81c60f81b838260630181518110611bfc57fe5b60200101906001600160f81b031916908160001a905350600101611bcd565b5050919050565b606081604051602001610bed9190612859565b815160208082015160408084015160608581015185890151608090970151935191966116469630969592939192918a91016126bd565b606082600001518360200151846040015185606001518660800151866040516020016116469695949392919061265d565b6000610361838330611d0c565b60008183611cca5760405162461bcd60e51b815260040161045891906128e2565b506000838581611cd657fe5b0495945050505050565b60008184841115611d045760405162461bcd60e51b815260040161045891906128e2565b505050900390565b60008060ff60f81b838686604051602001611d2a9493929190612750565b60408051808303601f1901815291905280516020909101206001600160a01b031695945050505050565b60408051808201909152600081526060602082015290565b60408051608081018252600080825260208201819052918101829052606081019190915290565b604080516080810190915280600081526000602082015260606040820181905201611dbc611d6c565b905290565b604080518082019091526000808252602082015290565b6040805160c0810182526000808252602082018190529181018290526060808201839052608082019290925260a081019190915290565b6040518060400160405280611e22611dd8565b8152602001611dbc611e57565b6040518060800160405280600081526020016000815260200160008152602001600081525090565b604051806040016040528060006001600160a01b03168152602001611dbc611e2f565b803561031d816130a8565b600082601f830112611e95578081fd5b8135611ea8611ea382613038565b613011565b8181529150602080830190848101604080850287018301881015611ecb57600080fd5b6000805b86811015611f1c5782848b031215611ee5578182fd5b611eee83613011565b611ef88b86611e7a565b8152611f068b878701611e7a565b8187015286529484019492820192600101611ecf565b5050505050505092915050565b600082601f830112611f39578081fd5b8135611f47611ea382613058565b9150808252836020828501011115611f5e57600080fd5b8060208401602084013760009082016020015292915050565b600060c08284031215611f88578081fd5b611f9260c0613011565b90508135611f9f816130a8565b8152602082810135611fb0816130a8565b8282015260408381013581840152606080850135908401526080840135611fd6816130bd565b608084015260a084013567ffffffffffffffff80821115611ff657600080fd5b81860187601f82011261200857600080fd5b80359250612018611ea384613038565b8381528581019082870160005b86811015612093578135850188601f19828f0301121561204457600080fd5b61204d89613011565b8a82013561205a816130a8565b8152818a01358881111561206d57600080fd5b61207b8f8d83860101611f29565b828d0152508552509288019290880190600101612025565b505060a08801525094979650505050505050565b600060e082840312156120b8578081fd5b6120c26080613011565b90508135600381106120d357600080fd5b81526020828101356120e4816130a8565b82820152604083013567ffffffffffffffff81111561210257600080fd5b80840185601f82011261211457600080fd5b80359150612124611ea383613038565b828152838101908285018585028401860189101561214157600080fd5b600093505b8484101561216d578035612159816130cb565b835260019390930192918501918501612146565b5080604087015250505050506121868360608401612191565b606082015292915050565b6000608082840312156121a2578081fd5b6121ac6080613011565b905081356121b9816130bd565b815260208201356121c9816130a8565b602082015260408201356121dc816130a8565b60408201526060820135612186816130a8565b600060208284031215612200578081fd5b8135610361816130a8565b60006020828403121561221c578081fd5b8151610361816130a8565b600080600080600060a0868803121561223e578081fd5b8535612249816130a8565b94506020860135612259816130a8565b93506040860135612269816130a8565b94979396509394606081013594506080013592915050565b60008060408385031215612293578182fd5b823561229e816130a8565b915060208301356122ae816130cb565b809150509250929050565b600080600080600060a086880312156122d0578283fd5b85356122db816130a8565b9450602086810135945060408701359350606087013567ffffffffffffffff80821115612306578384fd5b8189018a601f820112612317578485fd5b80359250612327611ea384613038565b83815284810190828601875b8681101561235c5761234a8f8984358801016120a7565b84529287019290870190600101612333565b509097505050506080890135925080831115612376578384fd5b505061238488828901611e85565b9150509295509295909350565b6000602082840312156123a2578081fd5b8151610361816130bd565b6000602082840312156123be578081fd5b813567ffffffffffffffff8111156123d4578182fd5b6109c484828501611f29565b600080604083850312156123f2578182fd5b823567ffffffffffffffff80821115612409578384fd5b61241586838701611f29565b9350602085013591508082111561242a578283fd5b5061243785828601611f29565b9150509250929050565b600080600060608486031215612455578081fd5b833567ffffffffffffffff8082111561246c578283fd5b8186016060818903121561247e578384fd5b6124886060613011565b9250803582811115612498578485fd5b6124a489828401611f77565b845250602081013560208401526040810135828111156124c2578485fd5b6124ce89828401611f29565b60408501525050508093505060208401359150604084013590509250925092565b60006020808385031215612501578182fd5b825167ffffffffffffffff80821115612518578384fd5b8185016040818803121561252a578485fd5b6125346040613011565b92508051612541816130bd565b83528084015182811115612553578586fd5b019050601f81018613612564578384fd5b8051612572611ea382613058565b8181528785838501011115612585578586fd5b6125948286830187860161307c565b9383019390935250949350505050565b600060018060a01b0382511683526020820151604060208501526109c46040850182612631565b6001600160a01b03169052565b6000815180845260208085018081965082840281019150828601855b8581101561261e57828403895261260c8483516125a4565b988501989350908401906001016125f4565b5091979650505050505050565b15159052565b6000815180845261264981602086016020860161307c565b601f01601f19169290920160200192915050565b60006bffffffffffffffffffffffff19808960601b168352808860601b1660148401525085602883015284604883015283151560f81b606883015282516126ab81606985016020870161307c565b91909101606901979650505050505050565b60006bffffffffffffffffffffffff19808a60601b168352808960601b1660148401525086602883015285604883015284606883015283151560f81b6088830152825161271181608985016020870161307c565b9190910160890198975050505050505050565b60609290921b6bffffffffffffffffffffffff191682526001600160e01b031916601482015260180190565b6001600160f81b031994909416845260609290921b6bffffffffffffffffffffffff191660018401526015830152603582015260550190565b9182526001600160e01b031916602082015260240190565b600082516127b381846020870161307c565b9190910192915050565b7f19457468657265756d205369676e6564204d6573736167653a0a3332000000008152601c810191909152603c0190565b6001600160a01b0391909116815260200190565b6001600160a01b03929092168252602082015260400190565b6001600160a01b0392831681529116602082015260400190565b6001600160a01b039384168152919092166020820152604081019190915260600190565b6000602080830181845280855180835260408601915060408482028701019250838701855b828110156128ac57603f1988860301845261289a8583516125a4565b9450928501929085019060010161287e565b5092979650505050505050565b901515815260200190565b93845260ff9290921660208401526040830152606082015260800190565b6000602082526103616020830184612631565b6000604082526129086040830185612631565b828103602084015261291a8185612631565b95945050505050565b60208082526018908201527f45434453413a20696e76616c6964207369676e61747572650000000000000000604082015260600190565b60208082526022908201527f70726f78792068617320616c7265616479206265656e20696e697469616c697a604082015261195960f21b606082015260800190565b6020808252818101527f437265617465323a2062797465636f6465206c656e677468206973207a65726f604082015260600190565b6020808252601490820152731d1a5b595bdd5d081a5b9cdd59999a58da595b9d60621b604082015260600190565b6020808252601f908201527f45434453413a20696e76616c6964207369676e6174757265206c656e67746800604082015260600190565b60208082526026908201527f4f776e61626c653a206e6577206f776e657220697320746865207a65726f206160408201526564647265737360d01b606082015260800190565b6020808252601b908201527f536166654d6174683a206164646974696f6e206f766572666c6f770000000000604082015260600190565b6020808252602c908201527f737570706c696564206574686572206973206e6f7420657175616c20746f206760408201526b185cc81c995c5d595cdd195960a21b606082015260800190565b6020808252601a908201527f6661696c656420746f207265706179206c6f73742066756e6473000000000000604082015260600190565b6020808252601390820152727365747570207068617365206661696c75726560681b604082015260600190565b60208082526022908201527f45434453413a20696e76616c6964207369676e6174757265202773272076616c604082015261756560f01b606082015260800190565b60208082526024908201527f696e73756666696369656e742066756e647320696e206c6971756964697479206040820152631c1bdbdb60e21b606082015260800190565b602080825260139082015272185b1c9958591e481a5b9a5d1a585b1a5e9959606a1b604082015260600190565b6020808252601d908201527f6e6f742061207265676973746572656420626f72726f772070726f7879000000604082015260600190565b60208082526022908201527f45434453413a20696e76616c6964207369676e6174757265202776272076616c604082015261756560f01b606082015260800190565b60208082526019908201527f437265617465323a204661696c6564206f6e206465706c6f7900000000000000604082015260600190565b6020808252601f908201527f6661696c656420746f2072657475726e20626f6e6420746f206b656570657200604082015260600190565b60208082526021908201527f536166654d6174683a206d756c7469706c69636174696f6e206f766572666c6f6040820152607760f81b606082015260800190565b60208082526024908201527f6c69717569646974792072657175657374207369676e61747572652072656a6560408201526318dd195960e21b606082015260800190565b6020808252818101527f4f776e61626c653a2063616c6c6572206973206e6f7420746865206f776e6572604082015260600190565b602080825260169082015275189bdb99081cdd589b5a5cdcda5bdb8819985a5b195960521b604082015260600190565b6020808252600e908201526d18dc99585d194c8819985a5b195960921b604082015260600190565b6020808252818101527f6e6f7420612072656769737465726564206c697175696469747920746f6b656e604082015260600190565b60208082526017908201527f6c6f616e207265736f6c7574696f6e206661696c757265000000000000000000604082015260600190565b602080825260129082015271626f6e642062656c6f77206d696e696d756d60701b604082015260600190565b6020808252601d908201527f437265617465323a20696e73756666696369656e742062616c616e6365000000604082015260600190565b918252602082015260400190565b8151151581526020808301516001600160a01b0390811691830191909152604080840151821690830152606092830151169181019190915260800190565b60006020808352835160c082850152612f4760e0850182516125cb565b81810151612f596101008601826125cb565b50604081015161012085015260608101516101408501526080810151612f8361016086018261262b565b5060a081015160c0610180860152612f9f6101a08601826125d8565b9150508185015160018060a01b0381511660408601528281015180516060870152838101516080870152604081015160a0870152606081015160c08701525050809250505092915050565b60006020825282511515602083015260208301516040808401526109c46060840182612631565b60405181810167ffffffffffffffff8111828210171561303057600080fd5b604052919050565b600067ffffffffffffffff82111561304e578081fd5b5060209081020190565b600067ffffffffffffffff82111561306e578081fd5b50601f01601f191660200190565b60005b8381101561309757818101518382015260200161307f565b838111156103ca5750506000910152565b6001600160a01b038116811461038257600080fd5b801515811461038257600080fd5b6001600160e01b03198116811461038257600080fdfea2646970667358221220c09641a1875499c7eaae27368a4d984de4b5f935ba97a24ab571cbef59e6438764736f6c63430006060033",
  "immutableReferences": {},
  "source": "pragma solidity ^0.6.0;\npragma experimental ABIEncoderV2;\n\nimport { Ownable } from \"openzeppelin-solidity/contracts/access/Ownable.sol\";\nimport { IShifterRegistry } from \"./interfaces/IShifterRegistry.sol\";\nimport { IShifter } from \"./interfaces/IShifter.sol\";\nimport { ShifterPoolLib } from \"./ShifterPoolLib.sol\";\nimport { ShifterBorrowProxyLib } from \"./ShifterBorrowProxyLib.sol\";\nimport { ShifterBorrowProxyFactoryLib } from \"./ShifterBorrowProxyFactoryLib.sol\";\nimport { ShifterBorrowProxy } from \"./ShifterBorrowProxy.sol\";\nimport { BorrowProxy } from \"./BorrowProxy.sol\";\nimport { BorrowProxyLib } from \"./BorrowProxyLib.sol\";\nimport { TokenUtils } from \"./utils/TokenUtils.sol\";\nimport { ViewExecutor } from \"./utils/ViewExecutor.sol\";\nimport { LiquidityToken } from \"./LiquidityToken.sol\";\nimport { SandboxLib } from \"./utils/sandbox/SandboxLib.sol\";\nimport { SafeViewExecutor } from \"./utils/sandbox/SafeViewExecutor.sol\";\nimport { FactoryLib } from \"./FactoryLib.sol\";\nimport { NullCloneConstructor } from \"./NullCloneConstructor.sol\";\n\ncontract ShifterPool is Ownable, SafeViewExecutor, NullCloneConstructor {\n  using SandboxLib for *;\n  using ShifterPoolLib for *;\n  using TokenUtils for *;\n  using ShifterBorrowProxyLib for *;\n  using ShifterBorrowProxyFactoryLib for *;\n  using BorrowProxyLib for *;\n  ShifterPoolLib.Isolate isolate;\n  constructor() Ownable() public {\n    isolate.genesis = block.number;\n  }\n  function setup(address shifterRegistry, uint256 minTimeout, uint256 poolFee, BorrowProxyLib.ModuleRegistration[] memory modules, ShifterPoolLib.LiquidityTokenLaunch[] memory tokenLaunches) public onlyOwner {\n    require(isolate.shifterRegistry == address(0x0), \"already initialized\");\n    isolate.shifterRegistry = shifterRegistry;\n    isolate.minTimeout = minTimeout;\n    isolate.poolFee = poolFee;\n    for (uint256 i = 0; i < modules.length; i++) {\n      BorrowProxyLib.ModuleRegistration memory registration = modules[i];\n      isolate.registry.registryRegisterModule(registration);\n    }\n    for (uint256 i = 0; i < tokenLaunches.length; i++) {\n      ShifterPoolLib.LiquidityTokenLaunch memory launch = tokenLaunches[i];\n      isolate.tokenToLiquidityToken[launch.token] = launch.liqToken;\n    }\n  }\n  bytes32 constant BORROW_PROXY_IMPLEMENTATION_SALT = 0xfe1e3164ba4910db3c9afd049cd8feb4552390569c846692e6df4ac68aeaa90e;\n  function deployBorrowProxyImplementation() public {\n    isolate.borrowProxyImplementation = isolate.makeBorrowProxy(BORROW_PROXY_IMPLEMENTATION_SALT);\n  }\n  function deployBorrowProxyClone(bytes32 salt) internal returns (address payable created) {\n    created = address(uint160(FactoryLib.create2Clone(isolate.borrowProxyImplementation, uint256(salt))));\n  }\n  function _executeBorrow(ShifterBorrowProxyLib.LiquidityRequestParcel memory liquidityRequestParcel, uint256 bond, uint256 timeoutExpiry) internal returns (bytes32 borrowerSalt) {\n    require(\n      liquidityRequestParcel.gasRequested == msg.value,\n      \"supplied ether is not equal to gas requested\"\n    );\n    require(\n      liquidityRequestParcel.validateSignature(\n        liquidityRequestParcel.computeLiquidityRequestHash()\n      ),\n      \"liquidity request signature rejected\"\n    );\n    ShifterBorrowProxyLib.LiquidityRequest memory liquidityRequest = liquidityRequestParcel.request;\n    borrowerSalt = liquidityRequest.computeBorrowerSalt();\n    address payable proxyAddress = address(uint160(isolate.borrowProxyImplementation.deriveBorrowerAddress(borrowerSalt)));\n    require(!isolate.borrowProxyController.isInitialized(proxyAddress), \"proxy has already been initialized\");\n    ShifterBorrowProxyLib.ProxyRecord memory proxyRecord = ShifterBorrowProxyLib.ProxyRecord({\n      request: liquidityRequest,\n      loan: ShifterBorrowProxyLib.LenderRecord(\n        msg.sender,\n        isolate.computeLoanParams(liquidityRequest.amount, bond, timeoutExpiry)\n      )\n    });\n    ShifterPoolLib.mapBorrowProxy(isolate, proxyAddress, proxyRecord);\n    isolate.issueLoan(liquidityRequest.token, proxyAddress, proxyRecord.computePostFee());\n    require(liquidityRequest.token.transferTokenFrom(msg.sender, address(this), bond), \"bond submission failed\");\n    return borrowerSalt;\n  }\n  function executeBorrow(ShifterBorrowProxyLib.LiquidityRequestParcel memory liquidityRequestParcel, uint256 bond, uint256 timeoutExpiry) public payable {\n    bytes32 salt = _executeBorrow(liquidityRequestParcel, bond, timeoutExpiry);\n    address payable proxyAddress = deployBorrowProxyClone(salt);\n    proxyAddress.setupBorrowProxy(liquidityRequestParcel.request.borrower, liquidityRequestParcel.request.token);\n    proxyAddress.sendInitializationActions(liquidityRequestParcel.request.actions);\n  }\n  function validateProxyRecordHandler(bytes memory proxyRecord) public view returns (bool) {\n    return isolate.borrowProxyController.validateProxyRecord(msg.sender, proxyRecord);\n  }\n  function getProxyTokenHandler(address proxyAddress) public view returns (address) {\n    return isolate.borrowProxyController.getProxyToken(proxyAddress);\n  }\n  function getProxyOwnerHandler(address user) public view returns (address) {\n    return isolate.borrowProxyController.getProxyOwner(user);\n  }\n  function getShifterHandler(address token) public view returns (IShifter) {\n    return isolate.getShifter(token);\n  }\n  function getLiquidityTokenHandler(address token) public view returns (LiquidityToken) {\n    return LiquidityToken(isolate.getLiquidityToken(token));\n  }\n  function fetchModuleHandler(address to, bytes4 sig) public view returns (BorrowProxyLib.Module memory) {\n    return isolate.registry.resolveModule(to, sig);\n  }\n  function relayResolveLoan(address token, address liquidityToken, address keeper, uint256 bond, uint256 repay) public returns (bool) {\n    require(isolate.borrowProxyController.proxyInitializerRecord[msg.sender] != bytes32(0x0), \"not a registered borrow proxy\");\n    if (bond != 0) require(token.sendToken(keeper, bond), \"failed to return bond to keeper\");\n    if (repay != 0) require(token.sendToken(liquidityToken, repay), \"failed to repay lost funds\");\n    require(LiquidityToken(liquidityToken).resolveLoan(msg.sender), \"loan resolution failure\");\n    return true;\n  }\n}\n",
  "sourcePath": "/home/ray/0confirmation/packages/0confirmation-sol/contracts/ShifterPool.sol",
  "compiler": {
    "name": "solc",
    "version": "0.6.6+commit.6c089d02.Emscripten.clang"
  },
  "schemaVersion": "3.1.0",
  "updatedAt": "2020-05-03T06:45:27.452Z",
  "devdoc": {
    "methods": {
      "owner()": {
        "details": "Returns the address of the current owner."
      },
      "renounceOwnership()": {
        "details": "Leaves the contract without owner. It will not be possible to call `onlyOwner` functions anymore. Can only be called by the current owner.     * NOTE: Renouncing ownership will leave the contract without an owner, thereby removing any functionality that is only available to the owner."
      },
      "transferOwnership(address)": {
        "details": "Transfers ownership of the contract to a new account (`newOwner`). Can only be called by the current owner."
      }
    }
  },
  "userdoc": {
    "methods": {}
  }
}