{
  "contractName": "ShifterBorrowProxy",
  "abi": [
    {
      "inputs": [],
      "stateMutability": "nonpayable",
      "type": "constructor"
    },
    {
      "stateMutability": "payable",
      "type": "fallback"
    },
    {
      "inputs": [
        {
          "internalType": "address",
          "name": "delegateTo",
          "type": "address"
        },
        {
          "internalType": "bytes",
          "name": "callData",
          "type": "bytes"
        }
      ],
      "name": "_executeQuery",
      "outputs": [
        {
          "internalType": "bytes",
          "name": "",
          "type": "bytes"
        }
      ],
      "stateMutability": "nonpayable",
      "type": "function"
    },
    {
      "inputs": [
        {
          "internalType": "address",
          "name": "to",
          "type": "address"
        },
        {
          "internalType": "uint256",
          "name": "value",
          "type": "uint256"
        },
        {
          "internalType": "bytes",
          "name": "payload",
          "type": "bytes"
        }
      ],
      "name": "proxy",
      "outputs": [],
      "stateMutability": "nonpayable",
      "type": "function"
    },
    {
      "inputs": [
        {
          "internalType": "address",
          "name": "viewLogic",
          "type": "address"
        },
        {
          "internalType": "bytes",
          "name": "payload",
          "type": "bytes"
        }
      ],
      "name": "query",
      "outputs": [
        {
          "internalType": "bytes",
          "name": "",
          "type": "bytes"
        }
      ],
      "stateMutability": "view",
      "type": "function"
    },
    {
      "inputs": [
        {
          "internalType": "address",
          "name": "owner",
          "type": "address"
        },
        {
          "internalType": "address",
          "name": "token",
          "type": "address"
        }
      ],
      "name": "setup",
      "outputs": [
        {
          "internalType": "bool",
          "name": "",
          "type": "bool"
        }
      ],
      "stateMutability": "nonpayable",
      "type": "function"
    },
    {
      "stateMutability": "payable",
      "type": "receive"
    },
    {
      "inputs": [
        {
          "internalType": "bytes",
          "name": "data",
          "type": "bytes"
        }
      ],
      "name": "repayLoan",
      "outputs": [
        {
          "internalType": "bool",
          "name": "",
          "type": "bool"
        }
      ],
      "stateMutability": "nonpayable",
      "type": "function"
    },
    {
      "inputs": [
        {
          "internalType": "bytes",
          "name": "data",
          "type": "bytes"
        }
      ],
      "name": "defaultLoan",
      "outputs": [
        {
          "internalType": "bool",
          "name": "",
          "type": "bool"
        }
      ],
      "stateMutability": "nonpayable",
      "type": "function"
    }
  ],
  "bytecode": "0x608060405234801561001057600080fd5b50612181806100206000396000f3fe6080604052600436106100595760003560e01c806323e3b730146100625780632692f25a146100985780632d34ba79146100b857806356b8e146146100e5578063c4ddf36314610105578063fd00430c1461012557610060565b3661006057005b005b34801561006e57600080fd5b5061008261007d366004611866565b610145565b60405161008f9190611cb0565b60405180910390f35b3480156100a457600080fd5b506100606100b33660046118b4565b6101e4565b3480156100c457600080fd5b506100d86100d336600461182e565b610471565b60405161008f9190611c76565b3480156100f157600080fd5b506100d8610100366004611927565b6104db565b34801561011157600080fd5b506100d8610120366004611927565b61088f565b34801561013157600080fd5b50610082610140366004611866565b610d23565b606033301461016f5760405162461bcd60e51b815260040161016690611d83565b60405180910390fd5b60006060846001600160a01b03168460405161018b9190611b72565b600060405180830381855af49150503d80600081146101c6576040519150601f19603f3d011682016040523d82523d6000602084013e6101cb565b606091505b5091509150816101da57600080fd5b9150505b92915050565b6001546001600160a01b031633148061020757506000546001600160a01b031633145b6102235760405162461bcd60e51b815260040161016690611e22565b600061023f61023a8383600463ffffffff610de916565b610e12565b60e01b905061024c61158b565b604051632f1a48af60e01b815273__BorrowProxyLib________________________90632f1a48af906102889060009089908790600401611fd4565b60c06040518083038186803b1580156102a057600080fd5b505af41580156102b4573d6000803e3d6000fd5b505050506040513d601f19601f820116820180604052508101906102d891906119a9565b6002546001600160a01b03166020820152600054909150600160a01b900460ff1680156103085750604081015151155b156103ab5760006060866001600160a01b0316868660405161032a9190611b72565b60006040518083038185875af1925050503d8060008114610367576040519150601f19603f3d011682016040523d82523d6000602084013e61036c565b606091505b5091509150816103985761037f81610e2f565b60405162461bcd60e51b81526004016101669190611cb0565b6103a28282610f2d565b5050505061046c565b6103b88160400151610f42565b6103d45760405162461bcd60e51b815260040161016690611d4c565b600060606103e983868863ffffffff610f5416565b91509150816103fb5761037f81610e2f565b60408084015101516001600160a01b03161561042b57604080840151015161042b9060079063ffffffff61101816565b6040830151606001516001600160a01b03161561045d5760408301516060015161045d9060099063ffffffff61101816565b6104678282610f2d565b505050505b505050565b6001546000906001600160a01b03161561049d5760405162461bcd60e51b815260040161016690611cc3565b5060008054336001600160a01b0319918216179091556001805482166001600160a01b03948516178155600280549092169290931691909117905590565b60065460009060ff16156105015760405162461bcd60e51b815260040161016690611d21565b600054600160a01b900460ff161561052b5760405162461bcd60e51b815260040161016690611e6b565b61053482611072565b6105505760405162461bcd60e51b815260040161016690611df4565b6105586115af565b610561836110f5565b60088054604080516020808402820181019092528281529394506060939291908301828280156105ba57602002820191906000526020600020905b81546001600160a01b0316815260019091019060200180831161059c575b50505050509050438260200151602001516000015110610883576006805461ff0019166101001790556004545b815181101561063f576207a1205a1080610623575061062182828151811061060b57fe5b60200260200101516001600160a01b0316611111565b155b1561063757600455506000915061088a9050565b6001016105e7565b5080516004908155600080548451602001516040516370a0823160e01b81526001600160a01b039283169491909216916370a082319161068191309101611b8e565b60206040518083038186803b15801561069957600080fd5b505afa1580156106ad573d6000803e3d6000fd5b505050506040513d601f19601f820116820180604052508101906106d19190611b18565b8451602001519091506106f4906001600160a01b0316838363ffffffff6111d816565b6107105760405162461bcd60e51b815260040161016690611f8a565b602080850151810151015184516060015182101561074a578451606001518203811115610746578451606001518203900361074a565b5060005b8451602001516040516303cc556d60e51b8152828403916001600160a01b0386169163801874ec9190839063798aada090610789908490600401611b8e565b60206040518083038186803b1580156107a157600080fd5b505afa1580156107b5573d6000803e3d6000fd5b505050506040513d601f19601f820116820180604052508101906107d9919061195a565b60208a0151516040516001600160e01b031960e086901b1681526108069392919088908890600401611c05565b602060405180830381600087803b15801561082057600080fd5b505af1158015610834573d6000803e3d6000fd5b505050506040513d601f19601f82011682018060405250810190610858919061190b565b6108745760405162461bcd60e51b815260040161016690611f53565b6001965050505050505061088a565b6000925050505b919050565b60006108996115cf565b6108a28361127b565b90506108b96108b48260000151611297565b611072565b6108d55760405162461bcd60e51b815260040161016690611df4565b600654610100900460ff16156108fd5760405162461bcd60e51b815260040161016690611f1c565b80518051606001516000916109179163ffffffff6112c016565b60008054845151602001516040516303cc556d60e51b815293945091926001600160a01b039091169163798aada0916109539190600401611b8e565b60206040518083038186803b15801561096b57600080fd5b505afa15801561097f573d6000803e3d6000fd5b505050506040513d601f19601f820116820180604052508101906109a3919061195a565b60065490915060009060ff16610b30576006805460ff19166001179055600054845151602001516040516307ef1e3760e21b81526001600160a01b0390921691631fbc78dc916109f591600401611b8e565b60206040518083038186803b158015610a0d57600080fd5b505afa158015610a21573d6000803e3d6000fd5b505050506040513d601f19601f82011682018060405250810190610a45919061195a565b6001600160a01b031663bb4a1d8c856060015186600001516000015160600151610a6e88611300565b88608001516040518563ffffffff1660e01b8152600401610a929493929190611c81565b602060405180830381600087803b158015610aac57600080fd5b505af1158015610ac0573d6000803e3d6000fd5b505050506040513d601f19601f82011682018060405250810190610ae49190611b18565b600381905584515160200151909150610b0f906001600160a01b03168385840363ffffffff6111d816565b610b2b5760405162461bcd60e51b815260040161016690611dc5565b610b35565b506003545b600a80546040805160208084028201810190925282815260609390929091830182828015610b8c57602002820191906000526020600020905b81546001600160a01b03168152600190910190602001808311610b6e575b50506005549394505050505b8151811015610bf3576207a1205a1080610bd45750610bd2828281518110610bbc57fe5b60200260200101516001600160a01b0316611342565b155b15610beb57600555506000945061088a9350505050565b600101610b98565b506000805460ff60a01b1916600160a01b17905584516020808201515191510151610c30916001600160a01b03909116908663ffffffff6111d816565b610c4c5760405162461bcd60e51b815260040161016690611cf3565b600080548651805160209081015191810151805190820151909101516040516320061d3b60e21b81526001600160a01b039094169463801874ec94610c9a94938a9390929091600401611c05565b602060405180830381600087803b158015610cb457600080fd5b505af1158015610cc8573d6000803e3d6000fd5b505050506040513d601f19601f82011682018060405250810190610cec919061190b565b610d085760405162461bcd60e51b815260040161016690611ed9565b8451805151610d1691611397565b5060019695505050505050565b606060006060846001600160a01b03168585604051602401610d46929190611c39565b60408051601f198184030181529181526020820180516001600160e01b031663023e3b7360e41b17905251610d7b9190611b72565b600060405180830381855afa9150503d8060008114610db6576040519150601f19603f3d011682016040523d82523d6000602084013e610dbb565b606091505b5091509150818190610de05760405162461bcd60e51b81526004016101669190611cb0565b50949350505050565b610df1611606565b610dfb84846113dc565b815260208101919091526040810191909152919050565b8051602082015160009190610e2782826113e3565b949350505050565b6060815160001415610e75575060408051808201909152601c81527f636170747572656420656d707479207265766572742062756666657200000000602082015261088a565b6308c379a0610e8a61023a8460006004610de9565b63ffffffff1614610eb5576040518060600160405280603f815260200161210d603f9139905061088a565b6060610ed0610ecb84600463ffffffff61140016565b611424565b9050805160001415610f1757505060408051808201909152601d81527f636170747572656420656d70747920726576657274206d657373616765000000602082015261088a565b606081806020019051810190610e279190611976565b81610f3a57805181602001fd5b805181602001f35b602001516001600160a01b0316151590565b60006060600060608660400151602001516001600160a01b03165a8860400151602001518960400151604001518a60400151606001518b60200151328d600001518c8e604051602001610fae989796959493929190611ba2565b60408051601f1981840301815290829052610fc891611b72565b6000604051808303818686f4925050503d8060008114611004576040519150601f19603f3d011682016040523d82523d6000602084013e611009565b606091505b50909890975095505050505050565b6001600160a01b03811660009081526020839052604090205460ff161561103e5761106e565b6001828101805491820181556000908152602090200180546001600160a01b0319166001600160a01b0383161790555b5050565b600080546040516308f6049560e01b81526001600160a01b03909116906308f60495906110a3908590600401611cb0565b602060405180830381600087803b1580156110bd57600080fd5b505af11580156110d1573d6000803e3d6000fd5b505050506040513d601f19601f820116820180604052508101906101de919061190b565b6110fd6115af565b818060200190518101906101de9190611a5a565b6000806060836001600160a01b0316846040516024016111319190611b8e565b60408051601f198184030181529181526020820180516001600160e01b03166305f0caad60e31b179052516111669190611b72565b600060405180830381855af49150503d80600081146111a1576040519150601f19603f3d011682016040523d82523d6000602084013e6111a6565b606091505b5091509150816111b95761037f81610e2f565b6000818060200190518101906111cf919061190b565b95945050505050565b600080846001600160a01b031684846040516024016111f8929190611c5d565b60408051601f198184030181529181526020820180516001600160e01b031663a9059cbb60e01b1790525161122d9190611b72565b6000604051808303816000865af19150503d806000811461126a576040519150601f19603f3d011682016040523d82523d6000602084013e61126f565b606091505b50909695505050505050565b6112836115cf565b818060200190518101906101de9190611a76565b6060816040516020016112aa9190611ffd565b6040516020818303038152906040529050919050565b60006112f9670de0b6b3a76400006112ed856020015160200151606001518561149490919063ffffffff16565b9063ffffffff6114ce16565b9392505050565b8051516040908101516020808401518385015193516000946113259493909101611b5c565b604051602081830303815290604052805190602001209050919050565b6000806060836001600160a01b0316846040516024016113629190611b8e565b60408051601f198184030181529181526020820180516001600160e01b0316639f7c73e960e01b179052516111669190611b72565b816001600160a01b03167f8118f0dfd16240978600a1121acd44dd113e1071790496f111043c87672720bf826040516113d09190611ffd565b60405180910390a25050565b0160200190565b6000600180600884021b0380836020038503511691505092915050565b611408611606565b818351101561141657825191505b6112f9838384865103610de9565b60208101516060908067ffffffffffffffff8111801561144357600080fd5b506040519080825280601f01601f19166020018201604052801561146e576020820181803683370190505b508351909250600061147f84611510565b905061148c818385611516565b505050919050565b6000826114a3575060006101de565b828202828482816114b057fe5b04146112f95760405162461bcd60e51b815260040161016690611e98565b60006112f983836040518060400160405280601a81526020017f536166654d6174683a206469766973696f6e206279207a65726f000000000000815250611554565b60200190565b5b60208110611536578151835260209283019290910190601f1901611517565b600180600883602003021b0380845116811984511617845250505050565b600081836115755760405162461bcd60e51b81526004016101669190611cb0565b50600083858161158157fe5b0495945050505050565b60408051606081018252600080825260208201529081016115aa611627565b905290565b60405180604001604052806115c2611627565b81526020016115aa61164e565b6040518060a001604052806115e26115af565b81526000602082018190526040820181905260608083019190915260809091015290565b60405180606001604052806000815260200160008152602001600081525090565b60408051608081018252600080825260208201819052918101829052606081019190915290565b604051806040016040528060006001600160a01b031681526020016115aa6040518060800160405280600081526020016000815260200160008152602001600081525090565b80516101de816120e6565b600082601f8301126116af578081fd5b81356116c26116bd82612092565b61206b565b91508082528360208285010111156116d957600080fd5b8060208401602084013760009082016020015292915050565b600082601f830112611702578081fd5b81516117106116bd82612092565b915080825283602082850101111561172757600080fd5b6117388160208401602086016120b6565b5092915050565b6000818303610120811215611752578182fd5b61175c604061206b565b9150608081121561176c57600080fd5b611776608061206b565b6117808585611694565b815261178f8560208601611694565b60208201526040848101519082015260608085015190820152825260a0607f19820112156117bc57600080fd5b6117c6604061206b565b60808401516117d4816120e6565b81526080609f19830112156117e857600080fd5b6117f2608061206b565b915060a0840151825260c0840151602083015260e084015160408301526101008401516060830152816020820152806020840152505092915050565b60008060408385031215611840578182fd5b823561184b816120e6565b9150602083013561185b816120e6565b809150509250929050565b60008060408385031215611878578182fd5b8235611883816120e6565b9150602083013567ffffffffffffffff81111561189e578182fd5b6118aa8582860161169f565b9150509250929050565b6000806000606084860312156118c8578081fd5b83356118d3816120e6565b925060208401359150604084013567ffffffffffffffff8111156118f5578182fd5b6119018682870161169f565b9150509250925092565b60006020828403121561191c578081fd5b81516112f9816120fe565b600060208284031215611938578081fd5b813567ffffffffffffffff81111561194e578182fd5b610e278482850161169f565b60006020828403121561196b578081fd5b81516112f9816120e6565b600060208284031215611987578081fd5b815167ffffffffffffffff81111561199d578182fd5b610e27848285016116f2565b600081830360c08112156119bb578182fd5b6119c5606061206b565b83516119d0816120e6565b815260208401516119e0816120e6565b60208201526080603f19830112156119f6578283fd5b611a00608061206b565b91506040840151611a10816120fe565b82526060840151611a20816120e6565b60208301526080840151611a33816120e6565b604083015260a0840151611a46816120e6565b606083015260408101919091529392505050565b60006101208284031215611a6c578081fd5b6112f9838361173f565b600060208284031215611a87578081fd5b815167ffffffffffffffff80821115611a9e578283fd5b8184016101a08187031215611ab1578384fd5b611abb60a061206b565b9250611ac7868261173f565b835261012081015160208401526101408101516040840152610160810151606084015261018081015182811115611afc578485fd5b611b08878284016116f2565b6080850152509195945050505050565b600060208284031215611b29578081fd5b5051919050565b60008151808452611b488160208601602086016120b6565b601f01601f19169290920160200192915050565b9283526020830191909152604082015260600190565b60008251611b848184602087016120b6565b9190910192915050565b6001600160a01b0391909116815260200190565b6001600160a01b0389811682528881166020830152878116604083015286811660608301528581166080830152841660a082015260c0810183905261010060e08201819052600090611bf683820185611b30565b9b9a5050505050505050505050565b6001600160a01b03958616815293851660208501529190931660408301526060820192909252608081019190915260a00190565b6001600160a01b0383168152604060208201819052600090610e2790830184611b30565b6001600160a01b03929092168252602082015260400190565b901515815260200190565b600085825284602083015283604083015260806060830152611ca66080830184611b30565b9695505050505050565b6000602082526112f96020830184611b30565b60208082526016908201527563616e277420696e697469616c697a6520747769636560501b604082015260600190565b6020808252601490820152731ad9595c195c881c185e5bdd5d0819985a5b195960621b604082015260600190565b6020808252601190820152701b1bd85b8818995a5b99c81c995c185a59607a1b604082015260600190565b6020808252601f908201527f66756e6374696f6e2068616e646c6572206e6f74207265676973746572656400604082015260600190565b60208082526022908201527f756e617574686f72697a65642076696577206c617965722064656c656761746960408201526137b760f11b606082015260800190565b6020808252601590820152741d1bdad95b881d1c985b9cd9995c8819985a5b1959605a1b604082015260600190565b6020808252601490820152731c1c9bde1e481c9958dbdc99081a5b9d985b1a5960621b604082015260600190565b60208082526029908201527f626f72726f772070726f78792063616e206f6e6c792062652075736564206279604082015268103137b93937bbb2b960b91b606082015260800190565b6020808252601390820152721b1bd85b88185b1c9958591e481c995c185a59606a1b604082015260600190565b60208082526021908201527f536166654d6174683a206d756c7469706c69636174696f6e206f766572666c6f6040820152607760f81b606082015260800190565b60208082526023908201527f6c6f616e207265736f6c7574696f6e206e6f74696669636174696f6e206661696040820152621b195960ea1b606082015260800190565b60208082526019908201527f70726f7879206973206265696e67206c69717569646174656400000000000000604082015260600190565b60208082526017908201527f6c6f616e207265736f6c7574696f6e206661696c757265000000000000000000604082015260600190565b6020808252602a908201527f6661696c656420746f207472616e73666572207265636c61696d65642066756e604082015269191cc81d1bc81c1bdbdb60b21b606082015260800190565b9283526001600160a01b039190911660208301526001600160e01b031916604082015260600190565b815180516001600160a01b0390811683526020808301518216818501526040808401518186015260609384015184860152948101518051909216608085015290810151805160a08501529081015160c08401529283015160e083015291909101516101008201526101200190565b60405181810167ffffffffffffffff8111828210171561208a57600080fd5b604052919050565b600067ffffffffffffffff8211156120a8578081fd5b50601f01601f191660200190565b60005b838110156120d15781810151838201526020016120b9565b838111156120e0576000848401525b50505050565b6001600160a01b03811681146120fb57600080fd5b50565b80151581146120fb57600080fdfe6361707475726564206120726576657274206572726f722c2062757420697420646f65736e277420636f6e666f726d20746f20746865207374616e64617264a26469706673582212206da890e9e63ca5e1eccf06283e7fffd474b38736d056dcfae03b00e8c24b62ce64736f6c63430006050033",
  "source": "pragma solidity ^0.6.0;\npragma experimental ABIEncoderV2;\n\nimport { BorrowProxy } from \"./BorrowProxy.sol\";\nimport { ShifterPool } from \"./ShifterPool.sol\";\nimport { ShifterBorrowProxyLib } from \"./ShifterBorrowProxyLib.sol\";\nimport { ILiquidationModule } from \"./interfaces/ILiquidationModule.sol\";\nimport { TokenUtils } from \"./utils/TokenUtils.sol\";\nimport { LiquidityToken } from \"./LiquidityToken.sol\";\nimport { IERC20 } from \"openzeppelin-solidity/contracts/token/ERC20/IERC20.sol\";\n\ncontract ShifterBorrowProxy is BorrowProxy {\n  using ShifterBorrowProxyLib for *;\n  using TokenUtils for *;\n  constructor() BorrowProxy() public {}\n  uint256 constant MINIMUM_GAS_CONTINUE = 5e5;\n  function repayLoan(bytes memory data) public returns (bool) {\n    (ShifterBorrowProxyLib.TriggerParcel memory parcel) = data.decodeTriggerParcel();\n    require(validateProxyRecord(parcel.record.encodeProxyRecord()), \"proxy record invalid\");\n    require(!isolate.isLiquidating, \"proxy is being liquidated\");\n    uint256 fee = parcel.record.computeAdjustedKeeperFee(parcel.record.request.amount);\n    LiquidityToken liquidityToken = ShifterPool(isolate.masterAddress).getLiquidityTokenHandler(parcel.record.request.token);\n    uint256 amount;\n    if (!isolate.isRepaying) {\n      isolate.isRepaying = true;\n      isolate.actualizedShift = amount = ShifterPool(isolate.masterAddress).getShifterHandler(parcel.record.request.token).shiftIn(parcel.pHash, parcel.record.request.amount, parcel.computeNHash(), parcel.darknodeSignature);\n      require(parcel.record.request.token.sendToken(address(liquidityToken), amount - fee), \"token transfer failed\");\n    } else amount = isolate.actualizedShift;\n    address[] memory set = isolate.repaymentSet.set;\n    for (uint256 i = isolate.repaymentIndex; i < set.length; i++) {\n      if (gasleft() < MINIMUM_GAS_CONTINUE || !set[i].delegateRepay()) {\n        isolate.repaymentIndex = i;\n        return false;\n      }\n    }\n    isolate.unbound = true;\n    require(parcel.record.request.token.sendToken(parcel.record.loan.keeper, fee), \"keeper payout failed\");\n    require(ShifterPool(isolate.masterAddress).relayResolveLoan(parcel.record.request.token, address(liquidityToken), parcel.record.loan.keeper, parcel.record.loan.params.bond, 0), \"loan resolution notification failed\");\n    ShifterBorrowProxyLib.emitShifterBorrowProxyRepaid(parcel.record.request.borrower, parcel.record);\n    return true;\n  }\n  function defaultLoan(bytes memory data) public returns (bool) {\n    require(!isolate.isRepaying, \"loan being repaid\");\n    require(!isolate.unbound, \"loan already repaid\");\n    require(validateProxyRecord(data), \"proxy record invalid\");\n    ShifterBorrowProxyLib.ProxyRecord memory record = data.decodeProxyRecord();\n    address[] memory set = isolate.liquidationSet.set;\n    if (record.loan.params.timeoutExpiry >= block.number) {\n      isolate.isLiquidating = true;\n      for (uint256 i = isolate.liquidationIndex; i < set.length; i++) {\n        if (gasleft() < MINIMUM_GAS_CONTINUE || !set[i].delegateLiquidate()) {\n          isolate.liquidationIndex = i;\n          return false;\n        }\n      }\n      isolate.liquidationIndex = set.length;\n      ShifterPool pool = ShifterPool(isolate.masterAddress);\n      uint256 postBalance = IERC20(record.request.token).balanceOf(address(this));\n      require(record.request.token.sendToken(address(pool), postBalance), \"failed to transfer reclaimed funds to pool\");\n      uint256 bond = record.loan.params.bond;\n      if (postBalance < record.request.amount) {\n        if (bond > postBalance - record.request.amount) {\n          bond -= (postBalance - record.request.amount);\n        } else {\n          bond = 0;\n        }\n      }\n      uint256 repay = postBalance - bond;\n      require(pool.relayResolveLoan(record.request.token, address(pool.getLiquidityTokenHandler(record.request.token)), record.loan.keeper, bond, repay), \"loan resolution failure\");\n      return true;\n    }\n    return false;\n  }\n  fallback() external payable override {}\n  receive() external payable override {}\n}\n",
  "sourcePath": "/home/ray/0confirmation/packages/0confirmation-sol/contracts/ShifterBorrowProxy.sol",
  "compiler": {
    "name": "solc",
    "version": "0.6.5+commit.f956cc89.Emscripten.clang"
  },
  "schemaVersion": "3.0.23",
  "updatedAt": "2020-04-14T15:30:33.800Z",
  "devdoc": {
    "methods": {}
  },
  "userdoc": {
    "methods": {}
  }
}