{
  "contractName": "ShifterBorrowProxy",
  "abi": [
    {
      "stateMutability": "payable",
      "type": "fallback"
    },
    {
      "inputs": [
        {
          "internalType": "bytes",
          "name": "creationCode",
          "type": "bytes"
        },
        {
          "internalType": "bytes",
          "name": "context",
          "type": "bytes"
        }
      ],
      "name": "_executeSafeView",
      "outputs": [],
      "stateMutability": "nonpayable",
      "type": "function"
    },
    {
      "inputs": [
        {
          "internalType": "bytes",
          "name": "consData",
          "type": "bytes"
        }
      ],
      "name": "cloneConstructor",
      "outputs": [],
      "stateMutability": "nonpayable",
      "type": "function"
    },
    {
      "inputs": [
        {
          "internalType": "address",
          "name": "to",
          "type": "address"
        },
        {
          "internalType": "uint256",
          "name": "value",
          "type": "uint256"
        },
        {
          "internalType": "bytes",
          "name": "payload",
          "type": "bytes"
        }
      ],
      "name": "proxy",
      "outputs": [],
      "stateMutability": "nonpayable",
      "type": "function"
    },
    {
      "inputs": [
        {
          "internalType": "bytes",
          "name": "creationCode",
          "type": "bytes"
        },
        {
          "internalType": "bytes",
          "name": "context",
          "type": "bytes"
        }
      ],
      "name": "query",
      "outputs": [
        {
          "components": [
            {
              "internalType": "bool",
              "name": "success",
              "type": "bool"
            },
            {
              "internalType": "bytes",
              "name": "data",
              "type": "bytes"
            }
          ],
          "internalType": "struct SafeViewLib.SafeViewResult",
          "name": "",
          "type": "tuple"
        }
      ],
      "stateMutability": "nonpayable",
      "type": "function"
    },
    {
      "inputs": [
        {
          "internalType": "address",
          "name": "owner",
          "type": "address"
        },
        {
          "internalType": "address",
          "name": "token",
          "type": "address"
        },
        {
          "internalType": "bool",
          "name": "unbound",
          "type": "bool"
        }
      ],
      "name": "setup",
      "outputs": [
        {
          "internalType": "bool",
          "name": "",
          "type": "bool"
        }
      ],
      "stateMutability": "nonpayable",
      "type": "function"
    },
    {
      "stateMutability": "payable",
      "type": "receive"
    },
    {
      "inputs": [
        {
          "internalType": "bytes",
          "name": "data",
          "type": "bytes"
        }
      ],
      "name": "repayLoan",
      "outputs": [
        {
          "internalType": "bool",
          "name": "",
          "type": "bool"
        }
      ],
      "stateMutability": "nonpayable",
      "type": "function"
    },
    {
      "inputs": [
        {
          "internalType": "bytes",
          "name": "data",
          "type": "bytes"
        }
      ],
      "name": "defaultLoan",
      "outputs": [
        {
          "internalType": "bool",
          "name": "",
          "type": "bool"
        }
      ],
      "stateMutability": "nonpayable",
      "type": "function"
    },
    {
      "inputs": [
        {
          "components": [
            {
              "internalType": "address",
              "name": "to",
              "type": "address"
            },
            {
              "internalType": "bytes",
              "name": "txData",
              "type": "bytes"
            }
          ],
          "internalType": "struct ShifterBorrowProxyLib.InitializationAction[]",
          "name": "actions",
          "type": "tuple[]"
        }
      ],
      "name": "receiveInitializationActions",
      "outputs": [],
      "stateMutability": "nonpayable",
      "type": "function"
    }
  ],
  "bytecode": "0x608060405234801561001057600080fd5b506132d8806100206000396000f3fe60806040526004361061007f5760003560e01c806356b8e1461161004e57806356b8e1461461012b5780635f7d2b571461014b5780635fe759581461016b578063c4ddf3631461018b57610086565b80632692f25a1461008857806329c8702d146100a857806334686eaf146100de57806352e831dd1461010b57610086565b3661008657005b005b34801561009457600080fd5b506100866100a33660046125d2565b6101ab565b3480156100b457600080fd5b506100c86100c3366004612588565b6103d1565b6040516100d59190612c07565b60405180910390f35b3480156100ea57600080fd5b506100fe6100f936600461277b565b610458565b6040516100d59190613185565b34801561011757600080fd5b50610086610126366004612749565b610479565b34801561013757600080fd5b506100c8610146366004612749565b61047c565b34801561015757600080fd5b5061008661016636600461277b565b6104b3565b34801561017757600080fd5b50610086610186366004612628565b6104fe565b34801561019757600080fd5b506100c86101a6366004612749565b610535565b6001546001600160a01b03163314806101ce57506000546001600160a01b031633145b806101d857503330145b6101fd5760405162461bcd60e51b81526004016101f490612dc7565b60405180910390fd5b60006102196102148383600463ffffffff61058c16565b6105b5565b60e01b905061022661211a565b6102386000868463ffffffff6105d216565b6002546001600160a01b03166020820152600054909150600160a01b900460ff1680156102685750604081015151155b1561030b5760006060866001600160a01b0316868660405161028a9190612b20565b60006040518083038185875af1925050503d80600081146102c7576040519150601f19603f3d011682016040523d82523d6000602084013e6102cc565b606091505b5091509150816102f8576102df81610685565b60405162461bcd60e51b81526004016101f49190612c37565b6103028282610778565b505050506103cc565b610318816040015161078d565b6103345760405162461bcd60e51b81526004016101f490612d2d565b6000606061034983868863ffffffff61079f16565b915091508161035b576102df81610685565b60408084015101516001600160a01b03161561038b57604080840151015161038b9060079063ffffffff6108af16565b6040830151606001516001600160a01b0316156103bd576040830151606001516103bd9060099063ffffffff6108af16565b6103c78282610778565b505050505b505050565b6001546000906001600160a01b0316156103fd5760405162461bcd60e51b81526004016101f490612ca4565b5060008054600180546001600160a01b03199081166001600160a01b03888116919091178355339382169390931760ff60a01b1916600160a01b861515021790935560028054909316918516919091179091555b9392505050565b61046061213e565b610470838363ffffffff61090a16565b90505b92915050565b50565b600080610487612156565b6000806104938661097b565b93509350935093506104a784848484610b7a565b9450505050505b919050565b60006104c860006104c2610c9f565b85610cc3565b905060606104ed6104e86001600160a01b0384168563ffffffff610d3516565b610dbf565b90506104f881610de8565b50505050565b6000546001600160a01b031633146105285760405162461bcd60e51b81526004016101f490612d92565b61053181610df0565b5050565b600080610540612156565b60008061054c86611073565b935093509350935061056084848484610b7a565b1561057f5782515161057290846112b3565b60019450505050506104ae565b60009450505050506104ae565b610594612176565b61059e84846112f8565b815260208101919091526040810191909152919050565b80516020820151600091906105ca82826112ff565b949350505050565b6105da61211a565b604080516060810182526001600160a01b03808616825260028701548116602083015286548351630220891b60e51b815292938401929116906344112360906106299088908890600401612b9e565b608060405180830381600087803b15801561064357600080fd5b505af1158015610657573d6000803e3d6000fd5b505050506040513d601f19601f8201168201806040525081019061067b9190612829565b9052949350505050565b60608151600014156106cb575060408051808201909152601c81527f636170747572656420656d70747920726576657274206275666665720000000060208201526104ae565b6308c379a06106e0610214846000600461058c565b63ffffffff161461070b576040518060600160405280603f8152602001613264603f913990506104ae565b606061072661072184600463ffffffff61131c16565b611340565b905080516000141561076d57505060408051808201909152601d81527f636170747572656420656d70747920726576657274206d65737361676500000060208201526104ae565b60606105ca826113af565b8161078557805181602001fd5b805181602001f35b602001516001600160a01b0316151590565b60006060600060608660400151602001516001600160a01b03165a6108526040518061010001604052808b60400151602001516001600160a01b031681526020018b60400151604001516001600160a01b031681526020018b60400151606001516001600160a01b031681526020018b602001516001600160a01b03168152602001326001600160a01b031681526020018b600001516001600160a01b031681526020018981526020018a8152506113c5565b60405161085f9190612b20565b6000604051808303818686f4925050503d806000811461089b576040519150601f19603f3d011682016040523d82523d6000602084013e6108a0565b606091505b50909890975095505050505050565b6001600160a01b03811660009081526020839052604090205460ff16156108d557610531565b6001808301805491820181556000908152602090200180546001600160a01b0383166001600160a01b03199091161790555050565b61091261213e565b60603061091f8585611418565b60405161092c9190612b20565b6000604051808303816000865af19150503d8060008114610969576040519150601f19603f3d011682016040523d82523d6000602084013e61096e565b606091505b509150506105ca8161146e565b6000610985612156565b600654600090819060ff16156109ad5760405162461bcd60e51b81526004016101f490612d02565b600054600160a01b900460ff16156109d75760405162461bcd60e51b81526004016101f490612e47565b6109e08561148a565b6109fc5760405162461bcd60e51b81526004016101f490612d64565b610a058561150d565b6008805460408051602080840282018101909252828152939650606093929190830182828015610a5e57602002820191906000526020600020905b81546001600160a01b03168152600190910190602001808311610a40575b50505050509050438460200151602001516000015110610b6c576006805461ff0019166101001790556004545b8151811015610ae1576207a1205a1080610ac75750610ac5828281518110610aaf57fe5b60200260200101516001600160a01b0316611529565b155b15610ad9576004555060009350610b73565b600101610a8b565b5080516004556000548451602001516001600160a01b039091169350610b0790306115aa565b845160600151909250821015610b63578360000151606001518203846020015160200151602001511115610b54578351606001516020808601518101510180519184039091039052610b63565b60208085015181015160009101525b60019450610b71565b600094505b505b9193509193565b60008415610c94576000610b9684866000015160200151611629565b855160200151909150610bb8906001600160a01b03168563ffffffff6116a816565b610bd45760405162461bcd60e51b81526004016101f490612eb5565b845160209081015181870151805190830151909201516040516320061d3b60e21b81526001600160a01b0388169363801874ec93610c1c939092879291908a90600401612b6a565b602060405180830381600087803b158015610c3657600080fd5b505af1158015610c4a573d6000803e3d6000fd5b505050506040513d601f19601f82011682018060405250810190610c6e919061272d565b610c8a5760405162461bcd60e51b81526004016101f490612f35565b60019150506105ca565b506000949350505050565b7fad53495153c7c363e98a26920ec679e0e687636458f6908c91cf6deadb19080190565b60008084471015610ce65760405162461bcd60e51b81526004016101f490612f6c565b8251610d045760405162461bcd60e51b81526004016101f490612c6f565b8383516020850187f590506001600160a01b0381166105ca5760405162461bcd60e51b81526004016101f490612e10565b610d3d61213e565b60006060846001600160a01b0316610d548561170a565b604051610d619190612b20565b600060405180830381855af49150503d8060008114610d9c576040519150601f19603f3d011682016040523d82523d6000602084013e610da1565b606091505b50604080518082019091529115158252602082015295945050505050565b606081604051602001610dd29190613185565b6040516020818303038152906040529050919050565b805160208201fd5b6060610dfa61213e565b610e0383611725565b905060005b835181101561106557606082602001518281518110610e2357fe5b6020026020010151905060006001600160a01b031681600081518110610e4557fe5b6020026020010151600001516001600160a01b03161415610f6a57610e8181600081518110610e7057fe5b60200260200101516020015161188d565b6001600160a01b03168352610e9461213e565b610eb782600081518110610ea457fe5b60200260200101516020015184866118c3565b604080516000808252602082019092529192505082600081518110610ed857fe5b6020908102919091018101510152805115610f1857610f08846020015184610f038460200151611950565b611966565b610f13575050611065565b610f68565b806020015182600081518110610f2a57fe5b602002602001015160600181905250806000015182600081518110610f4b57fe5b60200260200101516040019015159081151581525050505061105d565b505b82602001518281518110610f7a57fe5b6020026020010151905060008090505b815181101561105a5760006060306001600160a01b0316610fbd858581518110610fb057fe5b6020026020010151611a65565b604051610fca9190612b20565b6000604051808303816000865af19150503d8060008114611007576040519150601f19603f3d011682016040523d82523d6000602084013e61100c565b606091505b50915091508184848151811061101e57fe5b602002602001015160400190151590811515815250508084848151811061104157fe5b6020908102919091010151606001525050600101610f8a565b50505b600101610e08565b506104518160200151611a8b565b600061107d612156565b600080611088612197565b61109186611b8f565b805160408051600080825260208201909252919650919250906110ca565b6110b761213e565b8152602001906001900390816110af5790505b5081515160a0015280516110e6906110e190611bab565b61148a565b6111025760405162461bcd60e51b81526004016101f490612d64565b600654610100900460ff161561112a5760405162461bcd60e51b81526004016101f490612efe565b80518051606001516000916111449163ffffffff611bbe16565b600080546006546001600160a01b0390911696509192509060ff16611185576006805460ff1916600117905561117983611bf7565b6003819055905061118a565b506003545b600a805460408051602080840282018101909252828152606093909290918301828280156111e157602002820191906000526020600020905b81546001600160a01b031681526001909101906020018083116111c3575b50506005549394505050505b815181101561124a576207a1205a1080611229575061122782828151811061121157fe5b60200260200101516001600160a01b0316611cb1565b155b15611242576005555060009650869350610b7392505050565b6001016111ed565b506000805460ff60a01b1916600160a01b17905583516020808201515191510151611287916001600160a01b03909116908563ffffffff611cc916565b6112a35760405162461bcd60e51b81526004016101f490612cd4565b5060019650039150509193509193565b816001600160a01b03167fde947e8b6051ad11f984637f1fd1be5fc4b62225fcbf933475f7783ac5e2bd5f826040516112ec91906130b3565b60405180910390a25050565b0160200190565b6000600180600884021b0380836020038503511691505092915050565b611324612176565b818351101561133257825191505b61047083838486510361058c565b6020810151606090806001600160401b038111801561135e57600080fd5b506040519080825280601f01601f191660200182016040528015611389576020820181803683370190505b508351909250600061139a84611d3b565b90506113a7818385611d41565b505050919050565b60608180602001905181019061047391906127f7565b6060633c52e5a160e01b826040516024016113e09190612fa3565b60408051601f198184030181529190526020810180516001600160e01b03166001600160e01b03199093169290921790915292915050565b6060635f7d2b5760e01b8383604051602401611435929190612c4a565b60408051601f198184030181529190526020810180516001600160e01b03166001600160e01b0319909316929092179091529392505050565b61147661213e565b8180602001905181019061047391906128c3565b600080546040516308f6049560e01b81526001600160a01b03909116906308f60495906114bb908590600401612c37565b602060405180830381600087803b1580156114d557600080fd5b505af11580156114e9573d6000803e3d6000fd5b505050506040513d601f19601f82011682018060405250810190610473919061272d565b611515612156565b818060200190518101906104739190612891565b6000806060836001600160a01b031661154185611d7f565b60405161154e9190612b20565b600060405180830381855af49150503d8060008114611589576040519150601f19603f3d011682016040523d82523d6000602084013e61158e565b606091505b5091509150816115a1576102df81610685565b6105ca81611dc2565b6040516370a0823160e01b81526000906001600160a01b038416906370a08231906115d9908590600401612b3c565b60206040518083038186803b1580156115f157600080fd5b505afa158015611605573d6000803e3d6000fd5b505050506040513d601f19601f820116820180604052508101906104709190612a1e565b6040516303cc556d60e51b81526000906001600160a01b0384169063798aada090611658908590600401612b3c565b60206040518083038186803b15801561167057600080fd5b505afa158015611684573d6000803e3d6000fd5b505050506040513d601f19601f8201168201806040525081019061047091906127db565b6000806116b6843085611dd8565b90506001600160fe1b038111156116d1576001915050610473565b80158015906116e957506116e784306000611e77565b155b156116f8576000915050610473565b6105ca84846001600160ff1b03611e77565b60606309c5eabe60e01b826040516024016113e09190612c37565b61172d61213e565b606082516001600160401b038111801561174657600080fd5b5060405190808252806020026020018201604052801561177a57816020015b60608152602001906001900390816117655790505b50905060005b83518110156118705760408051600180825281830190925290816020015b6117a66121b7565b81526020019060019003908161179e579050508282815181106117c557fe5b60200260200101819052508381815181106117dc57fe5b6020026020010151600001518282815181106117f457fe5b602002602001015160008151811061180857fe5b60209081029190910101516001600160a01b039091169052835184908290811061182e57fe5b60200260200101516020015182828151811061184657fe5b602002602001015160008151811061185a57fe5b6020908102919091018101510152600101611780565b506040805180820190915260008152602081019190915292915050565b60006104737fad53495153c7c363e98a26920ec679e0e687636458f6908c91cf6deadb19080160001b8380519060200120611e8e565b6118cb61213e565b6118d36121dd565b82516001600160a01b03166020820152831561192e576060836020015185815181106118fb57fe5b60200260200101519050805160001461192c578060018251038151811061191e57fe5b602090810291909101015182525b505b61194761193a82611e9b565b869063ffffffff61090a16565b95945050505050565b60608180602001905181019061047391906126fb565b6000606082516001600160401b038111801561198157600080fd5b506040519080825280602002602001820160405280156119bb57816020015b6119a86121b7565b8152602001906001900390816119a05790505b50905060005b8151811015611a41578381815181106119d657fe5b6020026020010151602001518282815181106119ee57fe5b602002602001015160200181905250838181518110611a0957fe5b602002602001015160000151828281518110611a2157fe5b60209081029190910101516001600160a01b0390911690526001016119c1565b5080858581518110611a4f57fe5b6020908102919091010152511515949350505050565b80516020820151604051606092631349792d60e11b926113e09260009190602401612bc1565b60606000805b8351811015611ac057838181518110611aa657fe5b602002602001015151820191508080600101915050611a91565b50806001600160401b0381118015611ad757600080fd5b50604051908082528060200260200182016040528015611b1157816020015b611afe6121b7565b815260200190600190039081611af65790505b5091506000805b84518110156113a75760005b858281518110611b3057fe5b602002602001015151811015611b8657858281518110611b4c57fe5b60200260200101518181518110611b5f57fe5b6020026020010151858481518110611b7357fe5b6020908102919091010152600101611b24565b50600101611b18565b611b97612197565b818060200190518101906104739190612942565b606081604051602001610dd291906130b3565b6000610470670de0b6b3a7640000611beb8560200151602001516060015185611eae90919063ffffffff16565b9063ffffffff611ee816565b80515160200151600090611c0a90611f2a565b6001600160a01b031663159ab14d83602001516040015184600001516000015160600151611c3786611fab565b8660200151606001516040518563ffffffff1660e01b8152600401611c5f9493929190612c12565b602060405180830381600087803b158015611c7957600080fd5b505af1158015611c8d573d6000803e3d6000fd5b505050506040513d601f19601f820116820180604052508101906104739190612a1e565b6000806060836001600160a01b031661154185611fc4565b600080846001600160a01b0316611ce08585612007565b604051611ced9190612b20565b6000604051808303816000865af19150503d8060008114611d2a576040519150601f19603f3d011682016040523d82523d6000602084013e611d2f565b606091505b50909695505050505050565b60200190565b5b60208110611d61578151835260209283019290910190601f1901611d42565b600180600883602003021b0380845116811984511617845250505050565b606081604051602401611d929190612b3c565b60408051601f198184030181529190526020810180516001600160e01b03166305f0caad60e31b17905292915050565b600081806020019051810190610473919061272d565b6000806060856001600160a01b0316611df18686612024565b604051611dfe9190612b20565b6000604051808303816000865af19150503d8060008114611e3b576040519150601f19603f3d011682016040523d82523d6000602084013e611e40565b606091505b5091509150811580611e5457508051602014155b15611e6457600192505050610451565b611e6d81612041565b9695505050505050565b600080846001600160a01b0316611ce08585612057565b6000610470838330612074565b606081604051602001610dd29190613038565b600082611ebd57506000610473565b82820282848281611eca57fe5b04146104705760405162461bcd60e51b81526004016101f490612e74565b600061047083836040518060400160405280601a81526020017f536166654d6174683a206469766973696f6e206279207a65726f0000000000008152506120bc565b600080546040516307ef1e3760e21b81526001600160a01b0390911690631fbc78dc90611f5b908590600401612b3c565b60206040518083038186803b158015611f7357600080fd5b505afa158015611f87573d6000803e3d6000fd5b505050506040513d601f19601f8201168201806040525081019061047391906127db565b6000611fb6826120f3565b805190602001209050919050565b606081604051602401611fd79190612b3c565b60408051601f198184030181529190526020810180516001600160e01b0316639f7c73e960e01b17905292915050565b606063a9059cbb60e01b8383604051602401611435929190612bee565b606063dd62ed3e60e01b8383604051602401611435929190612b50565b6000818060200190518101906104739190612a1e565b606063095ea7b360e01b8383604051602401611435929190612bee565b60008060ff60f81b8386866040516020016120929493929190612ad1565b60408051808303601f1901815291905280516020909101206001600160a01b031695945050505050565b600081836120dd5760405162461bcd60e51b81526004016101f49190612c37565b5060008385816120e957fe5b0495945050505050565b8051516040908101516020808401518051908201519351606094610dd29493909101612b0a565b60408051606081018252600080825260208201529081016121396121fd565b905290565b60408051808201909152600081526060602082015290565b6040518060400160405280612169612224565b815260200161213961225b565b60405180606001604052806000815260200160008152602001600081525090565b60405180604001604052806121aa612156565b815260200161213961227e565b604080516080810182526000808252606060208301819052928201528181019190915290565b60405180604001604052806121f06121b7565b8152600060209091015290565b60408051608081018252600080825260208201819052918101829052606081019190915290565b6040805160c0810182526000808252602082018190529181018290526060808201839052608082019290925260a081019190915290565b604051806040016040528060006001600160a01b031681526020016121396122a4565b604080516080810182526000808252602082018190529181019190915260608082015290565b6040518060800160405280600081526020016000815260200160008152602001600081525090565b805161047381613240565b600082601f8301126122e7578081fd5b81516122fa6122f5826131d2565b6131ac565b818152915060208083019084810160005b848110156123825781518701604080601f19838c0301121561232c57600080fd5b612335816131ac565b6123418b8785016122cc565b8152818301516001600160401b0381111561235b57600080fd5b6123698c88838701016123e6565b828801525086525050928201929082019060010161230b565b505050505092915050565b805161047381613255565b600082601f8301126123a8578081fd5b81356123b66122f5826131f1565b91508082528360208285010111156123cd57600080fd5b8060208401602084013760009082016020015292915050565b600082601f8301126123f6578081fd5b81516124046122f5826131f1565b915080825283602082850101111561241b57600080fd5b61242c816020840160208601613214565b5092915050565b600081830360a0811215612445578182fd5b61244f60406131ac565b9150825161245c81613240565b82526080601f198201121561247057600080fd5b5061247b60806131ac565b602083015181526040830151602082015260608301516040820152608083015160608201528060208301525092915050565b600060c082840312156124be578081fd5b6124c860406131ac565b905081516001600160401b03808211156124e157600080fd5b81840160c081870312156124f457600080fd5b6124fe60c06131ac565b9250805161250b81613240565b8352602081015161251b81613240565b806020850152506040810151604084015260608101516060840152612543866080830161238d565b608084015260a08101518281111561255a57600080fd5b612566878284016122d7565b60a0850152505050815261257d8360208401612433565b602082015292915050565b60008060006060848603121561259c578283fd5b83356125a781613240565b925060208401356125b781613240565b915060408401356125c781613255565b809150509250925092565b6000806000606084860312156125e6578081fd5b83356125f181613240565b92506020840135915060408401356001600160401b03811115612612578182fd5b61261e86828701612398565b9150509250925092565b6000602080838503121561263a578182fd5b82356001600160401b0380821115612650578384fd5b81850186601f820112612661578485fd5b803592506126716122f5846131d2565b83815284810190828601875b868110156126ec5781358501604080601f19838f0301121561269d578a8bfd5b6126a6816131ac565b8a8301356126b381613240565b815282820135898111156126c5578c8dfd5b6126d38f8d83870101612398565b828d01525086525050928701929087019060010161267d565b50909998505050505050505050565b60006020828403121561270c578081fd5b81516001600160401b03811115612721578182fd5b6105ca848285016122d7565b60006020828403121561273e578081fd5b815161047081613255565b60006020828403121561275a578081fd5b81356001600160401b0381111561276f578182fd5b6105ca84828501612398565b6000806040838503121561278d578182fd5b82356001600160401b03808211156127a3578384fd5b6127af86838701612398565b935060208501359150808211156127c4578283fd5b506127d185828601612398565b9150509250929050565b6000602082840312156127ec578081fd5b815161047081613240565b600060208284031215612808578081fd5b81516001600160401b0381111561281d578182fd5b6105ca848285016123e6565b60006080828403121561283a578081fd5b61284460806131ac565b825161284f81613255565b8152602083015161285f81613240565b6020820152604083015161287281613240565b6040820152606083015161288581613240565b60608201529392505050565b6000602082840312156128a2578081fd5b81516001600160401b038111156128b7578182fd5b6105ca848285016124ad565b6000602082840312156128d4578081fd5b81516001600160401b03808211156128ea578283fd5b818401604081870312156128fc578384fd5b61290660406131ac565b9250805161291381613255565b8352602081015182811115612926578485fd5b612932878284016123e6565b6020850152509195945050505050565b600060208284031215612953578081fd5b81516001600160401b0380821115612969578283fd5b8184016040818703121561297b578384fd5b61298560406131ac565b9250805182811115612995578485fd5b6129a1878284016124ad565b8452506020810151828111156129b5578485fd5b808201608081890312156129c7578586fd5b6129d160806131ac565b925080518352602081015160208401526040810151604084015260608101519150838211156129fe578586fd5b612a0a888383016123e6565b606084015250506020830152509392505050565b600060208284031215612a2f578081fd5b5051919050565b6001600160a01b03169052565b60008151808452612a5b816020860160208601613214565b601f01601f19169290920160200192915050565b600060018060a01b0382511683526020820151604060208501526105ca6040850182612a43565b60018060a01b038151168252602081015180516020840152602081015160408401526040810151606084015260608101516080840152505050565b6001600160f81b031994909416845260609290921b6bffffffffffffffffffffffff191660018401526015830152603582015260550190565b9283526020830191909152604082015260600190565b60008251612b32818460208701613214565b9190910192915050565b6001600160a01b0391909116815260200190565b6001600160a01b0392831681529116602082015260400190565b6001600160a01b03958616815293851660208501529190931660408301526060820192909252608081019190915260a00190565b6001600160a01b039290921682526001600160e01b031916602082015260400190565b6001600160a01b038416815260ff8316602082015260606040820181905260009061194790830184612a43565b6001600160a01b03929092168252602082015260400190565b901515815260200190565b600085825284602083015283604083015260806060830152611e6d6080830184612a43565b6000602082526104706020830184612a43565b600060408252612c5d6040830185612a43565b82810360208401526119478185612a43565b6020808252818101527f437265617465323a2062797465636f6465206c656e677468206973207a65726f604082015260600190565b60208082526016908201527563616e277420696e697469616c697a6520747769636560501b604082015260600190565b6020808252601490820152731ad9595c195c881c185e5bdd5d0819985a5b195960621b604082015260600190565b6020808252601190820152701b1bd85b8818995a5b99c81c995c185a59607a1b604082015260600190565b6020808252601f908201527f66756e6374696f6e2068616e646c6572206e6f74207265676973746572656400604082015260600190565b6020808252601490820152731c1c9bde1e481c9958dbdc99081a5b9d985b1a5960621b604082015260600190565b6020808252818101527f6d7573742062652063616c6c65642066726f6d207368696674657220706f6f6c604082015260600190565b60208082526029908201527f626f72726f772070726f78792063616e206f6e6c792062652075736564206279604082015268103137b93937bbb2b960b91b606082015260800190565b60208082526019908201527f437265617465323a204661696c6564206f6e206465706c6f7900000000000000604082015260600190565b6020808252601390820152721b1bd85b88185b1c9958591e481c995c185a59606a1b604082015260600190565b60208082526021908201527f536166654d6174683a206d756c7469706c69636174696f6e206f766572666c6f6040820152607760f81b606082015260800190565b60208082526029908201527f6661696c656420746f20617070726f766520706f6f6c20666f7220746f6b656e604082015268103a3930b739b332b960b91b606082015260800190565b60208082526019908201527f70726f7879206973206265696e67206c69717569646174656400000000000000604082015260600190565b60208082526017908201527f6c6f616e207265736f6c7574696f6e206661696c757265000000000000000000604082015260600190565b6020808252601d908201527f437265617465323a20696e73756666696369656e742062616c616e6365000000604082015260600190565b60006020825260018060a01b03808451166020840152806020850151166040840152506040830151612fd86060840182612a36565b506060830151612feb6080840182612a36565b506080830151612ffe60a0840182612a36565b5060a083015161301160c0840182612a36565b5060c083015160e083015260e08301516101008081850152506105ca610120840182612a43565b60006020825282516040602084015260018060a01b03808251166060850152602082015160808086015261306f60e0860182612a43565b6040840151151560a08701526060840151868203605f190160c088015291506130988183612a43565b93505050806020860151166040850152508091505092915050565b6020808252825160c083830181905281516001600160a01b0390811660e08601528284015116610100850152604082015161012085015260608201516101408501526080820151151561016085015260a09091015161018084019190915280516101a08401819052600092916101c0808601929184019185918186028801015b81831015613166576101bf19888203018552613150818551612a6f565b9486019493860193600193909301929050613133565b8589015194506131796040890186612a96565b98975050505050505050565b60006020825282511515602083015260208301516040808401526105ca6060840182612a43565b6040518181016001600160401b03811182821017156131ca57600080fd5b604052919050565b60006001600160401b038211156131e7578081fd5b5060209081020190565b60006001600160401b03821115613206578081fd5b50601f01601f191660200190565b60005b8381101561322f578181015183820152602001613217565b838111156104f85750506000910152565b6001600160a01b038116811461047957600080fd5b801515811461047957600080fdfe6361707475726564206120726576657274206572726f722c2062757420697420646f65736e277420636f6e666f726d20746f20746865207374616e64617264a2646970667358221220f7a592811190967c5bb6c1173b7662b1363f8afaa09e8dce734c2ff74f9b8b3164736f6c63430006080033",
  "immutableReferences": {},
  "source": "// SPDX-License-Identifier: MIT\npragma solidity ^0.6.0;\npragma experimental ABIEncoderV2;\n\nimport { TokenUtils } from \"./utils/TokenUtils.sol\";\nimport { LiquidityToken } from \"./LiquidityToken.sol\";\nimport { IERC20 } from \"@openzeppelin/contracts/token/ERC20/IERC20.sol\";\nimport { SafeViewExecutor } from \"./utils/sandbox/SafeViewExecutor.sol\";\nimport { SandboxLib } from \"./utils/sandbox/SandboxLib.sol\";\nimport { StringLib } from \"./utils/StringLib.sol\";\nimport { NullCloneConstructor } from \"./NullCloneConstructor.sol\";\nimport { BorrowProxy } from \"./BorrowProxy.sol\";\nimport { ShifterBorrowProxyLib } from \"./ShifterBorrowProxyLib.sol\";\nimport { ShifterPool } from \"./ShifterPool.sol\";\nimport { IShifter } from \"./interfaces/IShifter.sol\";\n\ncontract ShifterBorrowProxy is BorrowProxy, SafeViewExecutor, NullCloneConstructor {\n  using ShifterBorrowProxyLib for *;\n  using StringLib for *;\n  using SandboxLib for *;\n  using TokenUtils for *;\n  uint256 constant MINIMUM_GAS_CONTINUE = 5e5;\n  function getShifter(address token) internal view returns (IShifter shifter) {\n    shifter = ShifterPool(isolate.masterAddress).getShifterHandler(token);\n  }\n  function mint(ShifterBorrowProxyLib.TriggerParcel memory parcel) internal returns (uint256 amount) {\n    amount = getShifter(parcel.record.request.token).mint(parcel.shiftParameters.pHash, parcel.record.request.amount, parcel.computeNHash(), parcel.shiftParameters.darknodeSignature);\n  }\n  function repayLoan(bytes memory data) public returns (bool) {\n    (bool success, ShifterBorrowProxyLib.ProxyRecord memory record, address pool, uint256 repayAmount) = _repayLoan(data);\n    if (maybeRelayResolveLoan(success, record, pool, repayAmount)) {\n      ShifterBorrowProxyLib.emitShifterBorrowProxyRepaid(record.request.borrower, record);\n      return true;\n    } else return false;\n  }\n  function _repayLoan(bytes memory data) internal returns (bool success, ShifterBorrowProxyLib.ProxyRecord memory record, address pool, uint256 repayAmount) {\n    (ShifterBorrowProxyLib.TriggerParcel memory parcel) = data.decodeTriggerParcel();\n    record = parcel.record;\n    parcel.record.request.actions = new ShifterBorrowProxyLib.InitializationAction[](0);\n    require(validateProxyRecord(parcel.record.encodeProxyRecord()), \"proxy record invalid\");\n    require(!isolate.isLiquidating, \"proxy is being liquidated\");\n    uint256 fee = parcel.record.computeAdjustedKeeperFee(parcel.record.request.amount);\n    pool = isolate.masterAddress;\n    uint256 amount;\n    if (!isolate.isRepaying) {\n      isolate.isRepaying = true;\n      isolate.actualizedShift = amount = mint(parcel);\n    } else amount = isolate.actualizedShift;\n    address[] memory set = isolate.repaymentSet.set;\n    for (uint256 i = isolate.repaymentIndex; i < set.length; i++) {\n      if (gasleft() < MINIMUM_GAS_CONTINUE || !set[i].delegateRepay()) {\n        isolate.repaymentIndex = i;\n        return (false, record, pool, 0);\n      }\n    }\n    isolate.unbound = true;\n    require(parcel.record.request.token.sendToken(parcel.record.loan.keeper, fee), \"keeper payout failed\");\n    repayAmount = amount - fee;\n    success = true;\n  }\n  function getBalanceOf(address token, address user) internal view returns (uint256) {\n    return IERC20(token).balanceOf(user);\n  }\n  function getLiquidityToken(address pool, address token) internal view returns (address liqToken) {\n    liqToken = address(ShifterPool(pool).getLiquidityTokenHandler(token));\n  }\n  function maybeRelayResolveLoan(bool success, ShifterBorrowProxyLib.ProxyRecord memory record, address pool, uint256 repayPool) internal returns (bool) {\n    if (success) {\n      address liqToken = getLiquidityToken(pool, record.request.token);\n      require(record.request.token.approveForMaxIfNeeded(pool), \"failed to approve pool for token transfer\");\n      require(ShifterPool(pool).relayResolveLoan(record.request.token, liqToken, record.loan.keeper, record.loan.params.bond, repayPool), \"loan resolution failure\");\n      return true;\n    }\n    return false;\n  }\n  function defaultLoan(bytes memory data) public returns (bool) {\n    (bool success, ShifterBorrowProxyLib.ProxyRecord memory record, address pool, uint256 postBalance) = _defaultLoan(data);\n    return maybeRelayResolveLoan(success, record, pool, postBalance);\n  }\n  function _defaultLoan(bytes memory data) internal returns (bool success, ShifterBorrowProxyLib.ProxyRecord memory record, address pool, uint256 postBalance) {\n    require(!isolate.isRepaying, \"loan being repaid\");\n    require(!isolate.unbound, \"loan already repaid\");\n    require(validateProxyRecord(data), \"proxy record invalid\");\n    record = data.decodeProxyRecord();\n    address[] memory set = isolate.liquidationSet.set;\n    if (record.loan.params.timeoutExpiry >= block.number) {\n      isolate.isLiquidating = true;\n      for (uint256 i = isolate.liquidationIndex; i < set.length; i++) {\n        if (gasleft() < MINIMUM_GAS_CONTINUE || !set[i].delegateLiquidate()) {\n          isolate.liquidationIndex = i;\n          return (false, record, pool, postBalance);\n        }\n      }\n      isolate.liquidationIndex = set.length;\n      pool = isolate.masterAddress;\n      postBalance = getBalanceOf(record.request.token, address(this));\n      if (postBalance < record.request.amount) {\n        if (record.loan.params.bond > postBalance - record.request.amount) {\n          record.loan.params.bond -= (postBalance - record.request.amount);\n        } else {\n          record.loan.params.bond = 0;\n        }\n      }\n      success = true;\n    } else {\n      success = false;\n    }\n  }\n  function receiveInitializationActions(ShifterBorrowProxyLib.InitializationAction[] memory actions) public {\n    require(msg.sender == address(isolate.masterAddress), \"must be called from shifter pool\");\n    actions.processActions();\n  }\n  fallback() external payable override {}\n  receive() external payable override {}\n}\n",
  "sourcePath": "/home/ray/0confirmation/packages/0confirmation-sol/contracts/ShifterBorrowProxy.sol",
  "compiler": {
    "name": "solc",
    "version": "0.6.8+commit.0bbfe453.Emscripten.clang"
  },
  "schemaVersion": "3.2.0",
  "updatedAt": "2020-05-30T00:45:45.711Z",
  "devdoc": {
    "methods": {}
  },
  "userdoc": {
    "methods": {}
  }
}