{
  "contractName": "ShifterBorrowProxy",
  "abi": [
    {
      "inputs": [],
      "stateMutability": "nonpayable",
      "type": "constructor"
    },
    {
      "inputs": [
        {
          "internalType": "address",
          "name": "delegateTo",
          "type": "address"
        },
        {
          "internalType": "bytes",
          "name": "callData",
          "type": "bytes"
        }
      ],
      "name": "_executeQuery",
      "outputs": [
        {
          "internalType": "bytes",
          "name": "",
          "type": "bytes"
        }
      ],
      "stateMutability": "nonpayable",
      "type": "function"
    },
    {
      "inputs": [
        {
          "internalType": "address",
          "name": "to",
          "type": "address"
        },
        {
          "internalType": "uint256",
          "name": "value",
          "type": "uint256"
        },
        {
          "internalType": "bytes",
          "name": "payload",
          "type": "bytes"
        }
      ],
      "name": "proxy",
      "outputs": [],
      "stateMutability": "nonpayable",
      "type": "function"
    },
    {
      "inputs": [
        {
          "internalType": "address",
          "name": "viewLogic",
          "type": "address"
        },
        {
          "internalType": "bytes",
          "name": "payload",
          "type": "bytes"
        }
      ],
      "name": "query",
      "outputs": [
        {
          "internalType": "bytes",
          "name": "",
          "type": "bytes"
        }
      ],
      "stateMutability": "view",
      "type": "function"
    },
    {
      "inputs": [
        {
          "internalType": "bytes",
          "name": "data",
          "type": "bytes"
        }
      ],
      "name": "repayLoan",
      "outputs": [
        {
          "internalType": "bool",
          "name": "",
          "type": "bool"
        }
      ],
      "stateMutability": "nonpayable",
      "type": "function"
    },
    {
      "inputs": [
        {
          "internalType": "bytes",
          "name": "data",
          "type": "bytes"
        }
      ],
      "name": "defaultLoan",
      "outputs": [
        {
          "internalType": "bool",
          "name": "",
          "type": "bool"
        }
      ],
      "stateMutability": "nonpayable",
      "type": "function"
    }
  ],
  "bytecode": "0x60806040523480156200001157600080fd5b50336000800160006101000a81548173ffffffffffffffffffffffffffffffffffffffff021916908373ffffffffffffffffffffffffffffffffffffffff1602179055506000800160009054906101000a900473ffffffffffffffffffffffffffffffffffffffff1673ffffffffffffffffffffffffffffffffffffffff16637b3b00be6040518163ffffffff1660e01b8152600401602060405180830381600087803b158015620000c257600080fd5b505af1158015620000d7573d6000803e3d6000fd5b505050506040513d601f19601f82011682018060405250620000fd91908101906200015d565b600060010160006101000a81548173ffffffffffffffffffffffffffffffffffffffff021916908373ffffffffffffffffffffffffffffffffffffffff160217905550620001d7565b6000815190506200015781620001bd565b92915050565b6000602082840312156200017057600080fd5b6000620001808482850162000146565b91505092915050565b600062000196826200019d565b9050919050565b600073ffffffffffffffffffffffffffffffffffffffff82169050919050565b620001c88162000189565b8114620001d457600080fd5b50565b6127ba80620001e76000396000f3fe608060405234801561001057600080fd5b50600436106100575760003560e01c806323e3b7301461005c5780632692f25a1461008c57806356b8e146146100a8578063c4ddf363146100d8578063fd00430c14610108575b600080fd5b61007660048036036100719190810190611b3c565b610138565b60405161008391906123d6565b60405180910390f35b6100a660048036036100a19190810190611b90565b6101f5565b005b6100c260048036036100bd9190810190611c20565b610485565b6040516100cf919061236f565b60405180910390f35b6100f260048036036100ed9190810190611c20565b610900565b6040516100ff919061236f565b60405180910390f35b610122600480360361011d9190810190611b3c565b610de4565b60405161012f91906123d6565b60405180910390f35b60603073ffffffffffffffffffffffffffffffffffffffff163373ffffffffffffffffffffffffffffffffffffffff161461017257600080fd5b600060608473ffffffffffffffffffffffffffffffffffffffff168460405161019b91906121d6565b600060405180830381855af49150503d80600081146101d6576040519150601f19603f3d011682016040523d82523d6000602084013e6101db565b606091505b5091509150816101ea57600080fd5b809250505092915050565b600060010160009054906101000a900473ffffffffffffffffffffffffffffffffffffffff1673ffffffffffffffffffffffffffffffffffffffff163373ffffffffffffffffffffffffffffffffffffffff1614610288576040517f08c379a000000000000000000000000000000000000000000000000000000000815260040161027f9061243a565b60405180910390fd5b6000800160149054906101000a900460ff161561035c57600060608473ffffffffffffffffffffffffffffffffffffffff1684846040516102c991906121d6565b60006040518083038185875af1925050503d8060008114610306576040519150601f19603f3d011682016040523d82523d6000602084013e61030b565b606091505b5091509150818190610353576040517f08c379a000000000000000000000000000000000000000000000000000000000815260040161034a91906123f8565b60405180910390fd5b50805160208201f35b600061037d6103786000600485610ef89092919063ffffffff16565b610f30565b60001c60e01b905061038d61153d565b600073__BorrowProxyLib________________________632f1a48af909187856040518463ffffffff1660e01b81526004016103cb9392919061249a565b60606040518083038186803b1580156103e357600080fd5b505af41580156103f7573d6000803e3d6000fd5b505050506040513d601f19601f8201168201806040525061041b9190810190611cb3565b905061042a8160200151610f5f565b610469576040517f08c379a00000000000000000000000000000000000000000000000000000000081526004016104609061241a565b60405180910390fd5b61047e838583610f9c9092919063ffffffff16565b5050505050565b60006104908261109a565b61049957600080fd5b6104a1611573565b828060200190516104b59190810190611cdc565b90506060600060050160010180548060200260200160405190810160405280929190818152602001828054801561054157602002820191906000526020600020905b8160009054906101000a900473ffffffffffffffffffffffffffffffffffffffff1673ffffffffffffffffffffffffffffffffffffffff16815260200190600101908083116104f7575b505050505090504382602001516020015160000151106108f457600060030160009054906101000a900460ff1661060d5781600001516020015173ffffffffffffffffffffffffffffffffffffffff166370a08231306040518263ffffffff1660e01b81526004016105b391906121ed565b60206040518083038186803b1580156105cb57600080fd5b505afa1580156105df573d6000803e3d6000fd5b505050506040513d601f19601f820116820180604052506106039190810190611d47565b6000600401819055505b6001600060030160006101000a81548160ff0219169083151502179055506000806002015490505b81518110156106a657620493e05a108061067e575061067c82828151811061065957fe5b602002602001015173ffffffffffffffffffffffffffffffffffffffff16611152565b155b156106995780600060020181905550600093505050506108fb565b8080600101915050610635565b50805160006002018190555060008060000160009054906101000a900473ffffffffffffffffffffffffffffffffffffffff169050600080600401549050600084600001516020015173ffffffffffffffffffffffffffffffffffffffff166370a08231306040518263ffffffff1660e01b815260040161072791906121ed565b60206040518083038186803b15801561073f57600080fd5b505afa158015610753573d6000803e3d6000fd5b505050506040513d601f19601f820116820180604052506107779190810190611d47565b905060008282039050600080821261078f5781610792565b60005b8760000151606001510390508473ffffffffffffffffffffffffffffffffffffffff1663801874ec8860000151602001518773ffffffffffffffffffffffffffffffffffffffff1663798aada08b60000151602001516040518263ffffffff1660e01b815260040161080491906121ed565b60206040518083038186803b15801561081c57600080fd5b505afa158015610830573d6000803e3d6000fd5b505050506040513d601f19601f820116820180604052506108549190810190611c8a565b8a6020015160000151858c600001516060015103866040518663ffffffff1660e01b81526004016108899594939291906122c3565b602060405180830381600087803b1580156108a357600080fd5b505af11580156108b7573d6000803e3d6000fd5b505050506040513d601f19601f820116820180604052506108db9190810190611bf7565b6108e457600080fd5b60019750505050505050506108fb565b6000925050505b919050565b600061090a611599565b8280602001905161091e9190810190611d06565b905061094c816000015160405160200161093891906124d1565b60405160208183030381529060405261109a565b61095557600080fd5b600060030160009054906101000a900460ff161561097257600080fd5b60008060000160009054906101000a900473ffffffffffffffffffffffffffffffffffffffff1673ffffffffffffffffffffffffffffffffffffffff16631fbc78dc836000015160000151602001516040518263ffffffff1660e01b81526004016109dd91906121ed565b60206040518083038186803b1580156109f557600080fd5b505afa158015610a09573d6000803e3d6000fd5b505050506040513d601f19601f82011682018060405250610a2d9190810190611c61565b73ffffffffffffffffffffffffffffffffffffffff1663bb4a1d8c836060015184600001516000015160600151610a638661128f565b86608001516040518563ffffffff1660e01b8152600401610a87949392919061238a565b602060405180830381600087803b158015610aa157600080fd5b505af1158015610ab5573d6000803e3d6000fd5b505050506040513d601f19601f82011682018060405250610ad99190810190611d47565b90506000610af48284600001516112d790919063ffffffff16565b905060016000800160146101000a81548160ff02191690831515021790555060008060000160009054906101000a900473ffffffffffffffffffffffffffffffffffffffff1673ffffffffffffffffffffffffffffffffffffffff1663798aada0856000015160000151602001516040518263ffffffff1660e01b8152600401610b7e91906121ed565b60206040518083038186803b158015610b9657600080fd5b505afa158015610baa573d6000803e3d6000fd5b505050506040513d601f19601f82011682018060405250610bce9190810190611c8a565b9050610c09818385038660000151600001516020015173ffffffffffffffffffffffffffffffffffffffff1661131a9092919063ffffffff16565b610c1257600080fd5b610c5584600001516020015160000151838660000151600001516020015173ffffffffffffffffffffffffffffffffffffffff1661131a9092919063ffffffff16565b610c5e57600080fd5b6000800160009054906101000a900473ffffffffffffffffffffffffffffffffffffffff1673ffffffffffffffffffffffffffffffffffffffff1663801874ec856000015160000151602001518387600001516020015160000151886000015160200151602001516020015160006040518663ffffffff1660e01b8152600401610cec959493929190612270565b602060405180830381600087803b158015610d0657600080fd5b505af1158015610d1a573d6000803e3d6000fd5b505050506040513d601f19601f82011682018060405250610d3e9190810190611bf7565b610d7d576040517f08c379a0000000000000000000000000000000000000000000000000000000008152600401610d749061247a565b60405180910390fd5b8360000151600001516000015173ffffffffffffffffffffffffffffffffffffffff167f8118f0dfd16240978600a1121acd44dd113e1071790496f111043c87672720bf8560000151604051610dd391906124d1565b60405180910390a250505050919050565b6060600060608473ffffffffffffffffffffffffffffffffffffffff168585604051602401610e14929190612316565b6040516020818303038152906040527f23e3b730000000000000000000000000000000000000000000000000000000007bffffffffffffffffffffffffffffffffffffffffffffffffffffffff19166020820180517bffffffffffffffffffffffffffffffffffffffffffffffffffffffff8381831617835250505050604051610e9e91906121d6565b600060405180830381855afa9150503d8060008114610ed9576040519150601f19603f3d011682016040523d82523d6000602084013e610ede565b606091505b509150915081610eed57600080fd5b809250505092915050565b610f006115d7565b60006020850184019050808260000181815250508282602001818152505083826040018181525050509392505050565b60008082600001519050600083602001519050600180600883021b038082602003840351169350505050919050565b60008073ffffffffffffffffffffffffffffffffffffffff16826000015173ffffffffffffffffffffffffffffffffffffffff1614159050919050565b6000606084602001516000015173ffffffffffffffffffffffffffffffffffffffff168560200151600001518660200151602001513288600001518789604051602001610fee96959493929190612208565b60405160208183030381529060405260405161100a91906121d6565b600060405180830381855af49150503d8060008114611045576040519150601f19603f3d011682016040523d82523d6000602084013e61104a565b606091505b5091509150818190611092576040517f08c379a000000000000000000000000000000000000000000000000000000000815260040161108991906123f8565b60405180910390fd5b505050505050565b60008060000160009054906101000a900473ffffffffffffffffffffffffffffffffffffffff1673ffffffffffffffffffffffffffffffffffffffff166308f60495836040518263ffffffff1660e01b81526004016110f991906123d6565b602060405180830381600087803b15801561111357600080fd5b505af1158015611127573d6000803e3d6000fd5b505050506040513d601f19601f8201168201806040525061114b9190810190611bf7565b9050919050565b60008060608373ffffffffffffffffffffffffffffffffffffffff168460405160240161117f91906121ed565b6040516020818303038152906040527f2f865568000000000000000000000000000000000000000000000000000000007bffffffffffffffffffffffffffffffffffffffffffffffffffffffff19166020820180517bffffffffffffffffffffffffffffffffffffffffffffffffffffffff838183161783525050505060405161120991906121d6565b600060405180830381855af49150503d8060008114611244576040519150601f19603f3d011682016040523d82523d6000602084013e611249565b606091505b509150915060208151146112625760009250505061128a565b6000818060200190516112789190810190611bf7565b90508280156112845750805b93505050505b919050565b600081600001516000015160400151826020015183604001516040516020016112ba93929190612199565b604051602081830303815290604052805190602001209050919050565b6000611312670de0b6b3a7640000611304856020015160200151606001518561142290919063ffffffff16565b61149290919063ffffffff16565b905092915050565b6000808473ffffffffffffffffffffffffffffffffffffffff168484604051602401611347929190612346565b6040516020818303038152906040527fa9059cbb000000000000000000000000000000000000000000000000000000007bffffffffffffffffffffffffffffffffffffffffffffffffffffffff19166020820180517bffffffffffffffffffffffffffffffffffffffffffffffffffffffff83818316178352505050506040516113d191906121d6565b6000604051808303816000865af19150503d806000811461140e576040519150601f19603f3d011682016040523d82523d6000602084013e611413565b606091505b50509050809150509392505050565b600080831415611435576000905061148c565b600082840290508284828161144657fe5b0414611487576040517f08c379a000000000000000000000000000000000000000000000000000000000815260040161147e9061245a565b60405180910390fd5b809150505b92915050565b60006114d483836040518060400160405280601a81526020017f536166654d6174683a206469766973696f6e206279207a65726f0000000000008152506114dc565b905092915050565b60008083118290611523576040517f08c379a000000000000000000000000000000000000000000000000000000000815260040161151a91906123f8565b60405180910390fd5b50600083858161152f57fe5b049050809150509392505050565b6040518060400160405280600073ffffffffffffffffffffffffffffffffffffffff16815260200161156d6115f8565b81525090565b604051806040016040528061158661163e565b8152602001611593611695565b81525090565b6040518060a001604052806115ac6116cb565b8152602001600080191681526020016000801916815260200160008019168152602001606081525090565b60405180606001604052806000815260200160008152602001600081525090565b6040518060400160405280600073ffffffffffffffffffffffffffffffffffffffff168152602001600073ffffffffffffffffffffffffffffffffffffffff1681525090565b6040518060800160405280600073ffffffffffffffffffffffffffffffffffffffff168152602001600073ffffffffffffffffffffffffffffffffffffffff16815260200160008019168152602001600081525090565b6040518060400160405280600073ffffffffffffffffffffffffffffffffffffffff1681526020016116c56116f1565b81525090565b60405180604001604052806116de61163e565b81526020016116eb611695565b81525090565b6040518060800160405280600081526020016000815260200160008152602001600081525090565b600081359050611728816126e3565b92915050565b60008151905061173d816126e3565b92915050565b600081519050611752816126fa565b92915050565b60008151905061176781612711565b92915050565b60008151905061177c81612728565b92915050565b600082601f83011261179357600080fd5b81516117a66117a18261251a565b6124ed565b915080825260208301602083018583830111156117c257600080fd5b6117cd838284612695565b50505092915050565b600082601f8301126117e757600080fd5b81356117fa6117f582612546565b6124ed565b9150808252602083016020830185838301111561181657600080fd5b611821838284612686565b50505092915050565b6000815190506118398161273f565b92915050565b60008151905061184e81612756565b92915050565b60006080828403121561186657600080fd5b61187060806124ed565b9050600061188084828501611b27565b600083015250602061189484828501611b27565b60208301525060406118a884828501611b27565b60408301525060606118bc84828501611b27565b60608301525092915050565b600060a082840312156118da57600080fd5b6118e460406124ed565b905060006118f48482850161172e565b600083015250602061190884828501611854565b60208301525092915050565b60006080828403121561192657600080fd5b61193060806124ed565b9050600061194084828501611743565b60008301525060206119548482850161172e565b60208301525060406119688482850161176d565b604083015250606061197c84828501611b27565b60608301525092915050565b60006060828403121561199a57600080fd5b6119a460406124ed565b905060006119b48482850161172e565b60008301525060206119c8848285016119d4565b60208301525092915050565b6000604082840312156119e657600080fd5b6119f060406124ed565b90506000611a008482850161172e565b6000830152506020611a148482850161172e565b60208301525092915050565b60006101208284031215611a3357600080fd5b611a3d60406124ed565b90506000611a4d84828501611914565b6000830152506080611a61848285016118c8565b60208301525092915050565b60006101a08284031215611a8057600080fd5b611a8a60a06124ed565b90506000611a9a84828501611a20565b600083015250610120611aaf8482850161176d565b602083015250610140611ac48482850161176d565b604083015250610160611ad98482850161176d565b60608301525061018082015167ffffffffffffffff811115611afa57600080fd5b611b0684828501611782565b60808301525092915050565b600081359050611b218161276d565b92915050565b600081519050611b368161276d565b92915050565b60008060408385031215611b4f57600080fd5b6000611b5d85828601611719565b925050602083013567ffffffffffffffff811115611b7a57600080fd5b611b86858286016117d6565b9150509250929050565b600080600060608486031215611ba557600080fd5b6000611bb386828701611719565b9350506020611bc486828701611b12565b925050604084013567ffffffffffffffff811115611be157600080fd5b611bed868287016117d6565b9150509250925092565b600060208284031215611c0957600080fd5b6000611c1784828501611758565b91505092915050565b600060208284031215611c3257600080fd5b600082013567ffffffffffffffff811115611c4c57600080fd5b611c58848285016117d6565b91505092915050565b600060208284031215611c7357600080fd5b6000611c818482850161182a565b91505092915050565b600060208284031215611c9c57600080fd5b6000611caa8482850161183f565b91505092915050565b600060608284031215611cc557600080fd5b6000611cd384828501611988565b91505092915050565b60006101208284031215611cef57600080fd5b6000611cfd84828501611a20565b91505092915050565b600060208284031215611d1857600080fd5b600082015167ffffffffffffffff811115611d3257600080fd5b611d3e84828501611a6d565b91505092915050565b600060208284031215611d5957600080fd5b6000611d6784828501611b27565b91505092915050565b611d79816125d2565b82525050565b611d88816125d2565b82525050565b611d97816125c0565b82525050565b611da6816125c0565b82525050565b611db5816125c0565b82525050565b611dc4816125e4565b82525050565b611dd3816125f0565b82525050565b611de2816125f0565b82525050565b611df9611df4826125f0565b6126c8565b82525050565b611e08816125fa565b82525050565b6000611e198261257d565b611e238185612593565b9350611e33818560208601612695565b611e3c816126d2565b840191505092915050565b6000611e528261257d565b611e5c81856125a4565b9350611e6c818560208601612695565b80840191505092915050565b6000611e8382612572565b611e8d8185612593565b9350611e9d818560208601612695565b611ea6816126d2565b840191505092915050565b611eba81612674565b82525050565b6000611ecb82612588565b611ed581856125af565b9350611ee5818560208601612695565b611eee816126d2565b840191505092915050565b6000611f06601f836125af565b91507f66756e6374696f6e2068616e646c6572206e6f742072656769737465726564006000830152602082019050919050565b6000611f466029836125af565b91507f626f72726f772070726f78792063616e206f6e6c79206265207573656420627960008301527f20626f72726f77657200000000000000000000000000000000000000000000006020830152604082019050919050565b6000611fac6021836125af565b91507f536166654d6174683a206d756c7469706c69636174696f6e206f766572666c6f60008301527f77000000000000000000000000000000000000000000000000000000000000006020830152604082019050919050565b60006120126023836125af565b91507f6c6f616e207265736f6c7574696f6e206e6f74696669636174696f6e2066616960008301527f6c656400000000000000000000000000000000000000000000000000000000006020830152604082019050919050565b608082016000820151612081600085018261217b565b506020820151612094602085018261217b565b5060408201516120a7604085018261217b565b5060608201516120ba606085018261217b565b50505050565b60a0820160008201516120d66000850182611d8e565b5060208201516120e9602085018261206b565b50505050565b6080820160008201516121056000850182611d70565b5060208201516121186020850182611d8e565b50604082015161212b6040850182611dca565b50606082015161213e606085018261217b565b50505050565b8082525050565b6101208201600082015161216260008501826120ef565b50602082015161217560808501826120c0565b50505050565b6121848161266a565b82525050565b6121938161266a565b82525050565b60006121a58286611de8565b6020820191506121b58285611de8565b6020820191506121c58284611de8565b602082019150819050949350505050565b60006121e28284611e47565b915081905092915050565b60006020820190506122026000830184611d9d565b92915050565b600060c08201905061221d6000830189611d9d565b61222a6020830188611d9d565b6122376040830187611d7f565b6122446060830186611d9d565b612251608083018561218a565b81810360a08301526122638184611e0e565b9050979650505050505050565b600060a0820190506122856000830188611d9d565b6122926020830187611d9d565b61229f6040830186611d9d565b6122ac606083018561218a565b6122b96080830184611eb1565b9695505050505050565b600060a0820190506122d86000830188611d9d565b6122e56020830187611d9d565b6122f26040830186611d9d565b6122ff606083018561218a565b61230c608083018461218a565b9695505050505050565b600060408201905061232b6000830185611d9d565b818103602083015261233d8184611e0e565b90509392505050565b600060408201905061235b6000830185611d9d565b612368602083018461218a565b9392505050565b60006020820190506123846000830184611dbb565b92915050565b600060808201905061239f6000830187611dd9565b6123ac602083018661218a565b6123b96040830185611dd9565b81810360608301526123cb8184611e78565b905095945050505050565b600060208201905081810360008301526123f08184611e0e565b905092915050565b600060208201905081810360008301526124128184611ec0565b905092915050565b6000602082019050818103600083015261243381611ef9565b9050919050565b6000602082019050818103600083015261245381611f39565b9050919050565b6000602082019050818103600083015261247381611f9f565b9050919050565b6000602082019050818103600083015261249381612005565b9050919050565b60006060820190506124af6000830186612144565b6124bc6020830185611dac565b6124c96040830184611dff565b949350505050565b6000610120820190506124e7600083018461214b565b92915050565b6000604051905081810181811067ffffffffffffffff8211171561251057600080fd5b8060405250919050565b600067ffffffffffffffff82111561253157600080fd5b601f19601f8301169050602081019050919050565b600067ffffffffffffffff82111561255d57600080fd5b601f19601f8301169050602081019050919050565b600081519050919050565b600081519050919050565b600081519050919050565b600082825260208201905092915050565b600081905092915050565b600082825260208201905092915050565b60006125cb8261264a565b9050919050565b60006125dd8261264a565b9050919050565b60008115159050919050565b6000819050919050565b60007fffffffff0000000000000000000000000000000000000000000000000000000082169050919050565b6000612631826125c0565b9050919050565b6000612643826125c0565b9050919050565b600073ffffffffffffffffffffffffffffffffffffffff82169050919050565b6000819050919050565b600061267f8261266a565b9050919050565b82818337600083830152505050565b60005b838110156126b3578082015181840152602081019050612698565b838111156126c2576000848401525b50505050565b6000819050919050565b6000601f19601f8301169050919050565b6126ec816125c0565b81146126f757600080fd5b50565b612703816125d2565b811461270e57600080fd5b50565b61271a816125e4565b811461272557600080fd5b50565b612731816125f0565b811461273c57600080fd5b50565b61274881612626565b811461275357600080fd5b50565b61275f81612638565b811461276a57600080fd5b50565b6127768161266a565b811461278157600080fd5b5056fea264697066735822122036fa9e27e31a96310956cfe64705592f83e31e22b541af635cfa544dbfd2e2f864736f6c63430006030033",
  "source": "pragma solidity ^0.6.2;\npragma experimental ABIEncoderV2;\n\nimport { BorrowProxy } from \"./BorrowProxy.sol\";\nimport { ShifterPool } from \"./ShifterPool.sol\";\nimport { ShifterBorrowProxyLib } from \"./ShifterBorrowProxyLib.sol\";\nimport { ILiquidationModule } from \"./interfaces/ILiquidationModule.sol\";\nimport { TokenUtils } from \"./utils/TokenUtils.sol\";\nimport { LiquidityToken } from \"./LiquidityToken.sol\";\nimport { IERC20 } from \"openzeppelin-solidity/contracts/token/ERC20/IERC20.sol\";\n\ncontract ShifterBorrowProxy is BorrowProxy {\n  using ShifterBorrowProxyLib for *;\n  using TokenUtils for *;\n  constructor() BorrowProxy() public {}\n  function repayLoan(bytes memory data) public returns (bool) {\n    (ShifterBorrowProxyLib.TriggerParcel memory parcel) = abi.decode(data, (ShifterBorrowProxyLib.TriggerParcel));\n    require(validateProxyRecord(abi.encode(parcel.record)));\n    require(!isolate.isLiquidating);\n    uint256 amount = ShifterPool(isolate.masterAddress).getShifterHandler(parcel.record.request.token).shiftIn(parcel.pHash, parcel.record.request.amount, parcel.computeNHash(), parcel.darknodeSignature);\n    uint256 fee = parcel.record.computeAdjustedKeeperFee(amount);\n    isolate.unbound = true;\n    LiquidityToken liquidityToken = ShifterPool(isolate.masterAddress).getLiquidityTokenHandler(parcel.record.request.token);\n    require(parcel.record.request.token.sendToken(address(liquidityToken), amount - fee));\n    require(parcel.record.request.token.sendToken(parcel.record.loan.keeper, fee));\n    require(ShifterPool(isolate.masterAddress).relayResolveLoan(parcel.record.request.token, address(liquidityToken), parcel.record.loan.keeper, parcel.record.loan.params.bond, 0), \"loan resolution notification failed\");\n    emit ShifterBorrowProxyLib.ShifterBorrowProxyRepaid(parcel.record.request.borrower, parcel.record);\n  }\n  function defaultLoan(bytes memory data) public returns (bool) {\n    require(validateProxyRecord(data));\n    (ShifterBorrowProxyLib.ProxyRecord memory record) = abi.decode(data, (ShifterBorrowProxyLib.ProxyRecord));\n    address[] memory set = isolate.liquidationSet.set;\n    if (record.loan.params.timeoutExpiry >= block.number) {\n      if (!isolate.isLiquidating) isolate.preBalance = IERC20(record.request.token).balanceOf(address(this));\n      isolate.isLiquidating = true;\n      for (uint256 i = isolate.liquidationIndex; i < set.length; i++) {\n        if (gasleft() < 3e5 || !set[i].delegateLiquidate()) {\n          isolate.liquidationIndex = i;\n          return false;\n        }\n      }\n      isolate.liquidationIndex = set.length;\n      ShifterPool pool = ShifterPool(isolate.masterAddress);\n      uint256 preBalance = isolate.preBalance;\n      uint256 postBalance = IERC20(record.request.token).balanceOf(address(this));\n      int256 reclaimed = int256(postBalance) - int256(preBalance);\n      uint256 repay = uint256(int256(record.request.amount) - (reclaimed < 0 ? 0 : reclaimed));\n      require(pool.relayResolveLoan(record.request.token, address(pool.getLiquidityTokenHandler(record.request.token)), record.loan.keeper, record.request.amount - repay, repay));\n      return true;\n    }\n    return false;\n  }\n}\n",
  "sourcePath": "/home/ray/0confirmation/packages/0confirmation-sol/contracts/ShifterBorrowProxy.sol",
  "compiler": {
    "name": "solc",
    "version": "0.6.3+commit.8dda9521.Emscripten.clang"
  },
  "schemaVersion": "3.0.23",
  "updatedAt": "2020-03-20T20:56:08.324Z",
  "devdoc": {
    "methods": {}
  },
  "userdoc": {
    "methods": {}
  }
}