{
  "contractName": "ShifterPool",
  "abi": [
    {
      "anonymous": false,
      "inputs": [
        {
          "indexed": true,
          "internalType": "address",
          "name": "previousOwner",
          "type": "address"
        },
        {
          "indexed": true,
          "internalType": "address",
          "name": "newOwner",
          "type": "address"
        }
      ],
      "name": "OwnershipTransferred",
      "type": "event"
    },
    {
      "inputs": [],
      "name": "isOwner",
      "outputs": [
        {
          "internalType": "bool",
          "name": "",
          "type": "bool"
        }
      ],
      "stateMutability": "view",
      "type": "function"
    },
    {
      "inputs": [],
      "name": "owner",
      "outputs": [
        {
          "internalType": "address",
          "name": "",
          "type": "address"
        }
      ],
      "stateMutability": "view",
      "type": "function"
    },
    {
      "inputs": [],
      "name": "renounceOwnership",
      "outputs": [],
      "stateMutability": "nonpayable",
      "type": "function"
    },
    {
      "inputs": [
        {
          "internalType": "address",
          "name": "newOwner",
          "type": "address"
        }
      ],
      "name": "transferOwnership",
      "outputs": [],
      "stateMutability": "nonpayable",
      "type": "function"
    },
    {
      "inputs": [
        {
          "internalType": "address",
          "name": "shifterRegistry",
          "type": "address"
        },
        {
          "internalType": "uint256",
          "name": "poolFee",
          "type": "uint256"
        },
        {
          "components": [
            {
              "internalType": "enum BorrowProxyLib.ModuleRegistrationType",
              "name": "moduleType",
              "type": "uint8"
            },
            {
              "internalType": "address",
              "name": "target",
              "type": "address"
            },
            {
              "internalType": "bytes4[]",
              "name": "sigs",
              "type": "bytes4[]"
            },
            {
              "components": [
                {
                  "internalType": "address",
                  "name": "assetHandler",
                  "type": "address"
                },
                {
                  "internalType": "address",
                  "name": "liquidationModule",
                  "type": "address"
                }
              ],
              "internalType": "struct BorrowProxyLib.Module",
              "name": "module",
              "type": "tuple"
            }
          ],
          "internalType": "struct BorrowProxyLib.ModuleRegistration[]",
          "name": "modules",
          "type": "tuple[]"
        },
        {
          "components": [
            {
              "internalType": "address",
              "name": "token",
              "type": "address"
            },
            {
              "internalType": "address",
              "name": "liqToken",
              "type": "address"
            }
          ],
          "internalType": "struct ShifterPoolLib.LiquidityTokenLaunch[]",
          "name": "tokenLaunches",
          "type": "tuple[]"
        }
      ],
      "name": "setup",
      "outputs": [],
      "stateMutability": "nonpayable",
      "type": "function"
    },
    {
      "inputs": [
        {
          "components": [
            {
              "components": [
                {
                  "internalType": "address payable",
                  "name": "borrower",
                  "type": "address"
                },
                {
                  "internalType": "address",
                  "name": "token",
                  "type": "address"
                },
                {
                  "internalType": "bytes32",
                  "name": "nonce",
                  "type": "bytes32"
                },
                {
                  "internalType": "uint256",
                  "name": "amount",
                  "type": "uint256"
                }
              ],
              "internalType": "struct ShifterBorrowProxyLib.LiquidityRequest",
              "name": "request",
              "type": "tuple"
            },
            {
              "internalType": "uint256",
              "name": "gasRequested",
              "type": "uint256"
            },
            {
              "internalType": "bytes",
              "name": "signature",
              "type": "bytes"
            }
          ],
          "internalType": "struct ShifterBorrowProxyLib.LiquidityRequestParcel",
          "name": "liquidityRequestParcel",
          "type": "tuple"
        },
        {
          "internalType": "uint256",
          "name": "bond",
          "type": "uint256"
        },
        {
          "internalType": "uint256",
          "name": "timeoutExpiry",
          "type": "uint256"
        }
      ],
      "name": "executeBorrow",
      "outputs": [],
      "stateMutability": "payable",
      "type": "function"
    },
    {
      "inputs": [
        {
          "internalType": "bytes",
          "name": "proxyRecord",
          "type": "bytes"
        }
      ],
      "name": "validateProxyRecordHandler",
      "outputs": [
        {
          "internalType": "bool",
          "name": "",
          "type": "bool"
        }
      ],
      "stateMutability": "view",
      "type": "function"
    },
    {
      "inputs": [],
      "name": "getProxyOwnerHandler",
      "outputs": [
        {
          "internalType": "address",
          "name": "",
          "type": "address"
        }
      ],
      "stateMutability": "view",
      "type": "function"
    },
    {
      "inputs": [
        {
          "internalType": "address",
          "name": "token",
          "type": "address"
        }
      ],
      "name": "getShifterHandler",
      "outputs": [
        {
          "internalType": "contract IShifter",
          "name": "",
          "type": "address"
        }
      ],
      "stateMutability": "view",
      "type": "function"
    },
    {
      "inputs": [
        {
          "internalType": "address",
          "name": "token",
          "type": "address"
        }
      ],
      "name": "getLiquidityTokenHandler",
      "outputs": [
        {
          "internalType": "contract LiquidityToken",
          "name": "",
          "type": "address"
        }
      ],
      "stateMutability": "view",
      "type": "function"
    },
    {
      "inputs": [
        {
          "internalType": "address",
          "name": "token",
          "type": "address"
        },
        {
          "internalType": "address",
          "name": "liquidityToken",
          "type": "address"
        },
        {
          "internalType": "address",
          "name": "keeper",
          "type": "address"
        },
        {
          "internalType": "uint256",
          "name": "bond",
          "type": "uint256"
        },
        {
          "internalType": "uint256",
          "name": "repay",
          "type": "uint256"
        }
      ],
      "name": "relayResolveLoan",
      "outputs": [
        {
          "internalType": "bool",
          "name": "",
          "type": "bool"
        }
      ],
      "stateMutability": "nonpayable",
      "type": "function"
    }
  ],
  "bytecode": "0x608060405260006100146100b760201b60201c565b9050806000806101000a81548173ffffffffffffffffffffffffffffffffffffffff021916908373ffffffffffffffffffffffffffffffffffffffff1602179055508073ffffffffffffffffffffffffffffffffffffffff16600073ffffffffffffffffffffffffffffffffffffffff167f8be0079c531659141344cd1fd0a4f28419497f9722a3daafe3b4186f6b6457e060405160405180910390a3506100bf565b600033905090565b614a9780620000cf6000396000f3fe608060405260043610620000aa5760003560e01c8063801874ec116200006d578063801874ec14620001c55780638da5cb5b14620002095780638f32d59b1462000239578063daf9b8241462000269578063f2fde38b1462000289578063f5e043b014620002b757620000aa565b806308f6049514620000af5780631fbc78dc14620000f3578063715018a61462000137578063798aada014620001515780637b3b00be1462000195575b600080fd5b348015620000bc57600080fd5b50620000db6004803603620000d59190810190620029b7565b620002e5565b604051620000ea919062003586565b60405180910390f35b3480156200010057600080fd5b506200011f60048036036200011991908101906200283f565b62000309565b6040516200012e919062003614565b60405180910390f35b3480156200014457600080fd5b506200014f62000328565b005b3480156200015e57600080fd5b506200017d60048036036200017791908101906200283f565b62000433565b6040516200018c919062003631565b60405180910390f35b348015620001a257600080fd5b50620001ad62000452565b604051620001bc9190620034e2565b60405180910390f35b348015620001d257600080fd5b50620001f16004803603620001eb91908101906200286b565b62000472565b60405162000200919062003586565b60405180910390f35b3480156200021657600080fd5b50620002216200069c565b604051620002309190620034e2565b60405180910390f35b3480156200024657600080fd5b5062000251620006c5565b60405162000260919062003586565b60405180910390f35b62000287600480360362000281919081019062002a28565b62000725565b005b3480156200029657600080fd5b50620002b56004803603620002af91908101906200283f565b62000bef565b005b348015620002c457600080fd5b50620002e36004803603620002dd9190810190620028ed565b62000c49565b005b6000620003023383600160050162000ec69092919063ffffffff16565b9050919050565b60006200032182600162000f1c90919063ffffffff16565b9050919050565b62000332620006c5565b62000374576040517f08c379a00000000000000000000000000000000000000000000000000000000081526004016200036b906200384e565b60405180910390fd5b600073ffffffffffffffffffffffffffffffffffffffff166000809054906101000a900473ffffffffffffffffffffffffffffffffffffffff1673ffffffffffffffffffffffffffffffffffffffff167f8be0079c531659141344cd1fd0a4f28419497f9722a3daafe3b4186f6b6457e060405160405180910390a360008060006101000a81548173ffffffffffffffffffffffffffffffffffffffff021916908373ffffffffffffffffffffffffffffffffffffffff160217905550565b60006200044b82600162000fd990919063ffffffff16565b9050919050565b60006200046d336001600501620010bd90919063ffffffff16565b905090565b60008060001b600160050160000160003373ffffffffffffffffffffffffffffffffffffffff1673ffffffffffffffffffffffffffffffffffffffff16815260200190815260200160002054141562000502576040517f08c379a0000000000000000000000000000000000000000000000000000000008152600401620004f990620037a4565b60405180910390fd5b600083146200057b576200053884848873ffffffffffffffffffffffffffffffffffffffff16620011299092919063ffffffff16565b6200057a576040517f08c379a00000000000000000000000000000000000000000000000000000000081526004016200057190620037e8565b60405180910390fd5b5b60008214620005f457620005b185838873ffffffffffffffffffffffffffffffffffffffff16620011299092919063ffffffff16565b620005f3576040517f08c379a0000000000000000000000000000000000000000000000000000000008152600401620005ea906200373e565b60405180910390fd5b5b8473ffffffffffffffffffffffffffffffffffffffff1663c3275c79336040518263ffffffff1660e01b81526004016200062f9190620034ff565b602060405180830381600087803b1580156200064a57600080fd5b505af11580156200065f573d6000803e3d6000fd5b505050506040513d601f19601f820116820180604052506200068591908101906200298b565b6200068f57600080fd5b6001905095945050505050565b60008060009054906101000a900473ffffffffffffffffffffffffffffffffffffffff16905090565b60008060009054906101000a900473ffffffffffffffffffffffffffffffffffffffff1673ffffffffffffffffffffffffffffffffffffffff166200070962001237565b73ffffffffffffffffffffffffffffffffffffffff1614905090565b348360200151146200076e576040517f08c379a000000000000000000000000000000000000000000000000000000000815260040162000765906200371c565b60405180910390fd5b60006200077b846200123f565b90506200079281856200129390919063ffffffff16565b620007d4576040517f08c379a0000000000000000000000000000000000000000000000000000000008152600401620007cb906200382c565b60405180910390fd5b620007de62002075565b846000015190506000620007f282620012e3565b9050600062000801826200132b565b90506200081c8160016005016200136590919063ffffffff16565b156200085f576040517f08c379a0000000000000000000000000000000000000000000000000000000008152600401620008569062003672565b60405180910390fd5b62000869620020cc565b33816000019073ffffffffffffffffffffffffffffffffffffffff16908173ffffffffffffffffffffffffffffffffffffffff1681525050620008bf846060015188886001620013b7909392919063ffffffff16565b8160200181905250620008d162002104565b6040518060400160405280868152602001838152509050606081604051602001620008fd9190620038d6565b6040516020818303038152906040529050620009288660200151600162000fd990919063ffffffff16565b73ffffffffffffffffffffffffffffffffffffffff1663185cc751856200094f856200152e565b6040518363ffffffff1660e01b81526004016200096e92919062003559565b602060405180830381600087803b1580156200098957600080fd5b505af11580156200099e573d6000803e3d6000fd5b505050506040513d601f19601f82011682018060405250620009c491908101906200298b565b62000a06576040517f08c379a0000000000000000000000000000000000000000000000000000000008152600401620009fd9062003760565b60405180910390fd5b62000a21848260016005016200157c9092919063ffffffff16565b62000a408487600001516001600501620015ce9092919063ffffffff16565b856000015173ffffffffffffffffffffffffffffffffffffffff166108fc349081150290604051600060405180830381858888f1935050505015801562000a8b573d6000803e3d6000fd5b5062000abf33308b896020015173ffffffffffffffffffffffffffffffffffffffff1662001653909392919063ffffffff16565b62000b01576040517f08c379a000000000000000000000000000000000000000000000000000000000815260040162000af89062003870565b60405180910390fd5b8373ffffffffffffffffffffffffffffffffffffffff1662000b238662001764565b73ffffffffffffffffffffffffffffffffffffffff161462000b7c576040517f08c379a000000000000000000000000000000000000000000000000000000000815260040162000b7390620036fa565b60405180910390fd5b8373ffffffffffffffffffffffffffffffffffffffff163373ffffffffffffffffffffffffffffffffffffffff167f9ae84ac2ad8f721c2e62d211eca0ae34951726f8834913af6c5ebb81610bb1f88360405162000bdb9190620035f0565b60405180910390a350505050505050505050565b62000bf9620006c5565b62000c3b576040517f08c379a000000000000000000000000000000000000000000000000000000000815260040162000c32906200384e565b60405180910390fd5b62000c4681620017a4565b50565b62000c53620006c5565b62000c95576040517f08c379a000000000000000000000000000000000000000000000000000000000815260040162000c8c906200384e565b60405180910390fd5b600073ffffffffffffffffffffffffffffffffffffffff16600160000160009054906101000a900473ffffffffffffffffffffffffffffffffffffffff1673ffffffffffffffffffffffffffffffffffffffff161462000d2c576040517f08c379a000000000000000000000000000000000000000000000000000000000815260040162000d239062003782565b60405180910390fd5b83600160000160006101000a81548173ffffffffffffffffffffffffffffffffffffffff021916908373ffffffffffffffffffffffffffffffffffffffff16021790555082600180018190555060008090505b825181101562000df55762000d936200212e565b83828151811062000da057fe5b6020026020010151905060008090505b81604001515181101562000de55762000dd7826001600801620018d590919063ffffffff16565b808060010191505062000db0565b5050808060010191505062000d7f565b5060008090505b815181101562000ebf5762000e1062002180565b82828151811062000e1d57fe5b60200260200101519050806020015160016004016000836000015173ffffffffffffffffffffffffffffffffffffffff1673ffffffffffffffffffffffffffffffffffffffff16815260200190815260200160002060006101000a81548173ffffffffffffffffffffffffffffffffffffffff021916908373ffffffffffffffffffffffffffffffffffffffff16021790555050808060010191505062000dfc565b5050505050565b600081805190602001208460000160008573ffffffffffffffffffffffffffffffffffffffff1673ffffffffffffffffffffffffffffffffffffffff168152602001908152602001600020541490509392505050565b60008260000160009054906101000a900473ffffffffffffffffffffffffffffffffffffffff1673ffffffffffffffffffffffffffffffffffffffff166328c4f410836040518263ffffffff1660e01b815260040162000f7d9190620034e2565b60206040518083038186803b15801562000f9657600080fd5b505afa15801562000fab573d6000803e3d6000fd5b505050506040513d601f19601f8201168201806040525062000fd19190810190620029fc565b905092915050565b6000808360040160008473ffffffffffffffffffffffffffffffffffffffff1673ffffffffffffffffffffffffffffffffffffffff16815260200190815260200160002060009054906101000a900473ffffffffffffffffffffffffffffffffffffffff169050600073ffffffffffffffffffffffffffffffffffffffff168173ffffffffffffffffffffffffffffffffffffffff161415620010b3576040517f08c379a0000000000000000000000000000000000000000000000000000000008152600401620010aa9062003892565b60405180910390fd5b8091505092915050565b60008260010160008373ffffffffffffffffffffffffffffffffffffffff1673ffffffffffffffffffffffffffffffffffffffff16815260200190815260200160002060009054906101000a900473ffffffffffffffffffffffffffffffffffffffff16905092915050565b6000808473ffffffffffffffffffffffffffffffffffffffff1684846040516024016200115892919062003559565b6040516020818303038152906040527fa9059cbb000000000000000000000000000000000000000000000000000000007bffffffffffffffffffffffffffffffffffffffffffffffffffffffff19166020820180517bffffffffffffffffffffffffffffffffffffffffffffffffffffffff8381831617835250505050604051620011e49190620034c9565b6000604051808303816000865af19150503d806000811462001223576040519150601f19603f3d011682016040523d82523d6000602084013e62001228565b606091505b50509050809150509392505050565b600033905090565b60008160000151602001518260000151604001518360000151606001518460200151604051602001620012769493929190620033bd565b604051602081830303815290604052805190602001209050919050565b6000620012a5828460400151620019ce565b73ffffffffffffffffffffffffffffffffffffffff1683600001516000015173ffffffffffffffffffffffffffffffffffffffff1614905092915050565b600081600001518260200151836040015184606001516040516020016200130e949392919062003367565b604051602081830303815290604052805190602001209050919050565b60006200135e82604051806020016200134490620021c6565b6020820181038252601f19601f8201166040525062001ac4565b9050919050565b60008060001b8360000160008473ffffffffffffffffffffffffffffffffffffffff1673ffffffffffffffffffffffffffffffffffffffff168152602001908152602001600020541415905092915050565b620013c1620021d4565b620186a043018210156200140c576040517f08c379a0000000000000000000000000000000000000000000000000000000008152600401620014039062003694565b60405180910390fd5b60006200142c6064670de0b6b3a764000062001adb90919063ffffffff16565b90506200144c6064670de0b6b3a764000062001adb90919063ffffffff16565b6200147d866200146e670de0b6b3a76400008862001b2790919063ffffffff16565b62001adb90919063ffffffff16565b11620014c0576040517f08c379a0000000000000000000000000000000000000000000000000000000008152600401620014b790620038b4565b60405180910390fd5b6000848610620014f957620014f386620014e4878562001b2790919063ffffffff16565b62001adb90919063ffffffff16565b620014fb565b815b90506040518060800160405280858152602001868152602001886001015481526020018281525092505050949350505050565b6000620015756200155d620015438462001b9d565b6200154e8562001beb565b62001c3990919063ffffffff16565b83600001516060015162001c9190919063ffffffff16565b9050919050565b80805190602001208360000160008473ffffffffffffffffffffffffffffffffffffffff1673ffffffffffffffffffffffffffffffffffffffff16815260200190815260200160002081905550505050565b808360010160008473ffffffffffffffffffffffffffffffffffffffff1673ffffffffffffffffffffffffffffffffffffffff16815260200190815260200160002060006101000a81548173ffffffffffffffffffffffffffffffffffffffff021916908373ffffffffffffffffffffffffffffffffffffffff160217905550505050565b6000808573ffffffffffffffffffffffffffffffffffffffff1685858560405160240162001684939291906200351c565b6040516020818303038152906040527f23b872dd000000000000000000000000000000000000000000000000000000007bffffffffffffffffffffffffffffffffffffffffffffffffffffffff19166020820180517bffffffffffffffffffffffffffffffffffffffffffffffffffffffff8381831617835250505050604051620017109190620034c9565b6000604051808303816000865af19150503d80600081146200174f576040519150601f19603f3d011682016040523d82523d6000602084013e62001754565b606091505b5050905080915050949350505050565b60006060604051806020016200177a90620021c6565b6020820181038252601f19601f8201166040525090506200179c838262001cdd565b915050919050565b600073ffffffffffffffffffffffffffffffffffffffff168173ffffffffffffffffffffffffffffffffffffffff16141562001817576040517f08c379a00000000000000000000000000000000000000000000000000000000081526004016200180e90620036b6565b60405180910390fd5b8073ffffffffffffffffffffffffffffffffffffffff166000809054906101000a900473ffffffffffffffffffffffffffffffffffffffff1673ffffffffffffffffffffffffffffffffffffffff167f8be0079c531659141344cd1fd0a4f28419497f9722a3daafe3b4186f6b6457e060405160405180910390a3806000806101000a81548173ffffffffffffffffffffffffffffffffffffffff021916908373ffffffffffffffffffffffffffffffffffffffff16021790555050565b60016002811115620018e357fe5b81600001516002811115620018f457fe5b1415620019525760008090505b8160400151518110156200194b576200193d838360200151846040015184815181106200192a57fe5b6020026020010151856060015162001d69565b808060010191505062001901565b50620019ca565b6002808111156200195f57fe5b816000015160028111156200197057fe5b1415620019c95760008090505b816040015151811015620019c757620019b983836020015184604001518481518110620019a657fe5b6020026020010151856060015162001e21565b80806001019150506200197d565b505b5b5050565b60006041825114620019e4576000905062001abe565b60008060006020850151925060408501519150606085015160001a90507f7fffffffffffffffffffffffffffffff5d576e7357a4501ddfe92f46681b20a08260001c111562001a3a576000935050505062001abe565b601b8160ff161415801562001a535750601c8160ff1614155b1562001a66576000935050505062001abe565b6001868285856040516000815260200160405260405162001a8b9493929190620035a3565b6020604051602081039080840390855afa15801562001aae573d6000803e3d6000fd5b5050506020604051035193505050505b92915050565b600062001ad383833062001ed9565b905092915050565b600062001b1f83836040518060400160405280601a81526020017f536166654d6174683a206469766973696f6e206279207a65726f00000000000081525062001ef8565b905092915050565b60008083141562001b3c576000905062001b97565b600082840290508284828162001b4e57fe5b041462001b92576040517f08c379a000000000000000000000000000000000000000000000000000000000815260040162001b89906200380a565b60405180910390fd5b809150505b92915050565b600062001be4670de0b6b3a764000062001bd58460200151602001516060015185600001516060015162001b2790919063ffffffff16565b62001adb90919063ffffffff16565b9050919050565b600062001c32670de0b6b3a764000062001c238460200151602001516040015185600001516060015162001b2790919063ffffffff16565b62001adb90919063ffffffff16565b9050919050565b60008082840190508381101562001c87576040517f08c379a000000000000000000000000000000000000000000000000000000000815260040162001c7e90620036d8565b60405180910390fd5b8091505092915050565b600062001cd583836040518060400160405280601e81526020017f536166654d6174683a207375627472616374696f6e206f766572666c6f77000081525062001f5d565b905092915050565b600080838351602085016000f59050600073ffffffffffffffffffffffffffffffffffffffff168173ffffffffffffffffffffffffffffffffffffffff16141562001d5f576040517f08c379a000000000000000000000000000000000000000000000000000000000815260040162001d5690620037c6565b60405180910390fd5b8091505092915050565b8084600001600062001d7c868662001fbb565b815260200190815260200160002060008201518160000160006101000a81548173ffffffffffffffffffffffffffffffffffffffff021916908373ffffffffffffffffffffffffffffffffffffffff16021790555060208201518160010160006101000a81548173ffffffffffffffffffffffffffffffffffffffff021916908373ffffffffffffffffffffffffffffffffffffffff16021790555090505050505050565b8084600001600062001e34868662001ff6565b815260200190815260200160002060008201518160000160006101000a81548173ffffffffffffffffffffffffffffffffffffffff021916908373ffffffffffffffffffffffffffffffffffffffff16021790555060208201518160010160006101000a81548173ffffffffffffffffffffffffffffffffffffffff021916908373ffffffffffffffffffffffffffffffffffffffff16021790555090505050505050565b600062001eef848480519060200120846200202b565b90509392505050565b6000808311829062001f42576040517f08c379a000000000000000000000000000000000000000000000000000000000815260040162001f3991906200364e565b60405180910390fd5b50600083858162001f4f57fe5b049050809150509392505050565b600083831115829062001fa8576040517f08c379a000000000000000000000000000000000000000000000000000000000815260040162001f9f91906200364e565b60405180910390fd5b5060008385039050809150509392505050565b600080833f9050808360405160200162001fd792919062003499565b6040516020818303038152906040528051906020012091505092915050565b600082826040516020016200200d92919062003413565b60405160208183030381529060405280519060200120905092915050565b60008060ff60f81b8386866040516020016200204b949392919062003443565b604051602081830303815290604052805190602001209050606081901b60601c9150509392505050565b6040518060800160405280600073ffffffffffffffffffffffffffffffffffffffff168152602001600073ffffffffffffffffffffffffffffffffffffffff16815260200160008019168152602001600081525090565b6040518060400160405280600073ffffffffffffffffffffffffffffffffffffffff168152602001620020fe620021fc565b81525090565b60405180604001604052806200211962002224565b8152602001620021286200227b565b81525090565b6040518060800160405280600060028111156200214757fe5b8152602001600073ffffffffffffffffffffffffffffffffffffffff168152602001606081526020016200217a620022b3565b81525090565b6040518060400160405280600073ffffffffffffffffffffffffffffffffffffffff168152602001600073ffffffffffffffffffffffffffffffffffffffff1681525090565b610d2c8062003d3683390190565b6040518060800160405280600081526020016000815260200160008152602001600081525090565b6040518060800160405280600081526020016000815260200160008152602001600081525090565b6040518060800160405280600073ffffffffffffffffffffffffffffffffffffffff168152602001600073ffffffffffffffffffffffffffffffffffffffff16815260200160008019168152602001600081525090565b6040518060400160405280600073ffffffffffffffffffffffffffffffffffffffff168152602001620022ad620021fc565b81525090565b6040518060400160405280600073ffffffffffffffffffffffffffffffffffffffff168152602001600073ffffffffffffffffffffffffffffffffffffffff1681525090565b6000813590506200230a8162003c6e565b92915050565b600081359050620023218162003c88565b92915050565b600082601f8301126200233957600080fd5b8135620023506200234a8262003922565b620038f4565b915081818352602084019350602081019050838560208402820111156200237657600080fd5b60005b83811015620023aa57816200238f8882620024ec565b84526020840193506020830192505060018101905062002379565b5050505092915050565b600082601f830112620023c657600080fd5b8135620023dd620023d7826200394b565b620038f4565b915081818352602084019350602081019050838560408402820111156200240357600080fd5b60005b838110156200243757816200241c8882620026ea565b84526020840193506040830192505060018101905062002406565b5050505092915050565b600082601f8301126200245357600080fd5b81356200246a620024648262003974565b620038f4565b9150818183526020840193506020810190508360005b83811015620024b457813586016200249988826200273d565b84526020840193506020830192505060018101905062002480565b5050505092915050565b600081519050620024cf8162003ca2565b92915050565b600081359050620024e68162003cbc565b92915050565b600081359050620024fd8162003cd6565b92915050565b600082601f8301126200251557600080fd5b81356200252c62002526826200399d565b620038f4565b915080825260208301602083018583830111156200254957600080fd5b6200255683828462003ba7565b50505092915050565b600082601f8301126200257157600080fd5b8135620025886200258282620039ca565b620038f4565b91508082526020830160208301858383011115620025a557600080fd5b620025b283828462003ba7565b50505092915050565b600081519050620025cc8162003cf0565b92915050565b600081359050620025e38162003d0a565b92915050565b600060c08284031215620025fc57600080fd5b620026086060620038f4565b905060006200261a848285016200266b565b6000830152506080620026308482850162002828565b60208301525060a082013567ffffffffffffffff8111156200265157600080fd5b6200265f8482850162002503565b60408301525092915050565b6000608082840312156200267e57600080fd5b6200268a6080620038f4565b905060006200269c8482850162002310565b6000830152506020620026b284828501620022f9565b6020830152506040620026c884828501620024d5565b6040830152506060620026de8482850162002828565b60608301525092915050565b600060408284031215620026fd57600080fd5b620027096040620038f4565b905060006200271b84828501620022f9565b60008301525060206200273184828501620022f9565b60208301525092915050565b600060a082840312156200275057600080fd5b6200275c6080620038f4565b905060006200276e84828501620025d2565b60008301525060206200278484828501620022f9565b602083015250604082013567ffffffffffffffff811115620027a557600080fd5b620027b38482850162002327565b6040830152506060620027c984828501620027d5565b60608301525092915050565b600060408284031215620027e857600080fd5b620027f46040620038f4565b905060006200280684828501620022f9565b60008301525060206200281c84828501620022f9565b60208301525092915050565b600081359050620028398162003d1b565b92915050565b6000602082840312156200285257600080fd5b60006200286284828501620022f9565b91505092915050565b600080600080600060a086880312156200288457600080fd5b60006200289488828901620022f9565b9550506020620028a788828901620022f9565b9450506040620028ba88828901620022f9565b9350506060620028cd8882890162002828565b9250506080620028e08882890162002828565b9150509295509295909350565b600080600080608085870312156200290457600080fd5b60006200291487828801620022f9565b9450506020620029278782880162002828565b935050604085013567ffffffffffffffff8111156200294557600080fd5b620029538782880162002441565b925050606085013567ffffffffffffffff8111156200297157600080fd5b6200297f87828801620023b4565b91505092959194509250565b6000602082840312156200299e57600080fd5b6000620029ae84828501620024be565b91505092915050565b600060208284031215620029ca57600080fd5b600082013567ffffffffffffffff811115620029e557600080fd5b620029f3848285016200255f565b91505092915050565b60006020828403121562002a0f57600080fd5b600062002a1f84828501620025bb565b91505092915050565b60008060006060848603121562002a3e57600080fd5b600084013567ffffffffffffffff81111562002a5957600080fd5b62002a6786828701620025e9565b935050602062002a7a8682870162002828565b925050604062002a8d8682870162002828565b9150509250925092565b62002aa28162003b1b565b82525050565b62002ab38162003a4e565b82525050565b62002ace62002ac88262003a4e565b62003c00565b82525050565b62002adf8162003a3a565b82525050565b62002af08162003a3a565b82525050565b62002b0b62002b058262003a3a565b62003bec565b82525050565b62002b1c8162003a62565b82525050565b62002b3762002b318262003a6e565b62003c14565b82525050565b62002b488162003a9a565b82525050565b62002b598162003a9a565b82525050565b62002b7462002b6e8262003a9a565b62003c1e565b82525050565b62002b8f62002b898262003aa4565b62003c28565b82525050565b600062002ba282620039f7565b62002bae818562003a0d565b935062002bc081856020860162003bb6565b62002bcb8162003c50565b840191505092915050565b600062002be382620039f7565b62002bef818562003a1e565b935062002c0181856020860162003bb6565b80840191505092915050565b62002c188162003b2f565b82525050565b62002c298162003b57565b82525050565b600062002c3c8262003a02565b62002c48818562003a29565b935062002c5a81856020860162003bb6565b62002c658162003c50565b840191505092915050565b600062002c7f60228362003a29565b91507f70726f78792068617320616c7265616479206265656e20696e697469616c697a60008301527f65640000000000000000000000000000000000000000000000000000000000006020830152604082019050919050565b600062002ce760148362003a29565b91507f74696d656f757420696e73756666696369656e740000000000000000000000006000830152602082019050919050565b600062002d2960268362003a29565b91507f4f776e61626c653a206e6577206f776e657220697320746865207a65726f206160008301527f64647265737300000000000000000000000000000000000000000000000000006020830152604082019050919050565b600062002d91601b8362003a29565b91507f536166654d6174683a206164646974696f6e206f766572666c6f7700000000006000830152602082019050919050565b600062002dd360178362003a29565b91507f70726f7879206465706c6f796d656e74206661696c65640000000000000000006000830152602082019050919050565b600062002e15602c8362003a29565b91507f737570706c696564206574686572206973206e6f7420657175616c20746f206760008301527f61732072657175657374656400000000000000000000000000000000000000006020830152604082019050919050565b600062002e7d601a8362003a29565b91507f6661696c656420746f207265706179206c6f73742066756e64730000000000006000830152602082019050919050565b600062002ebf60248362003a29565b91507f696e73756666696369656e742066756e647320696e206c69717569646974792060008301527f706f6f6c000000000000000000000000000000000000000000000000000000006020830152604082019050919050565b600062002f2760138362003a29565b91507f616c726561647920696e697469616c697a6564000000000000000000000000006000830152602082019050919050565b600062002f69601d8362003a29565b91507f6e6f742061207265676973746572656420626f72726f772070726f78790000006000830152602082019050919050565b600062002fab60198362003a29565b91507f437265617465323a204661696c6564206f6e206465706c6f79000000000000006000830152602082019050919050565b600062002fed601f8362003a29565b91507f6661696c656420746f2072657475726e20626f6e6420746f206b6565706572006000830152602082019050919050565b60006200302f60218362003a29565b91507f536166654d6174683a206d756c7469706c69636174696f6e206f766572666c6f60008301527f77000000000000000000000000000000000000000000000000000000000000006020830152604082019050919050565b60006200309760248362003a29565b91507f6c69717569646974792072657175657374207369676e61747572652072656a6560008301527f63746564000000000000000000000000000000000000000000000000000000006020830152604082019050919050565b6000620030ff60208362003a29565b91507f4f776e61626c653a2063616c6c6572206973206e6f7420746865206f776e65726000830152602082019050919050565b60006200314160168362003a29565b91507f626f6e64207375626d697373696f6e206661696c6564000000000000000000006000830152602082019050919050565b60006200318360208362003a29565b91507f6e6f7420612072656769737465726564206c697175696469747920746f6b656e6000830152602082019050919050565b6000620031c560128362003a29565b91507f626f6e642062656c6f77206d696e696d756d00000000000000000000000000006000830152602082019050919050565b60808201600082015162003210600085018262003319565b50602082015162003225602085018262003319565b5060408201516200323a604085018262003319565b5060608201516200324f606085018262003319565b50505050565b60a0820160008201516200326d600085018262002ad4565b506020820151620032826020850182620031f8565b50505050565b608082016000820151620032a0600085018262002aa8565b506020820151620032b5602085018262002ad4565b506040820151620032ca604085018262002b3d565b506060820151620032df606085018262003319565b50505050565b61012082016000820151620032fe600085018262003288565b50602082015162003313608085018262003255565b50505050565b620033248162003b04565b82525050565b620033358162003b04565b82525050565b620033506200334a8262003b04565b62003c46565b82525050565b620033618162003b0e565b82525050565b600062003375828762002ab9565b60148201915062003387828662002af6565b60148201915062003399828562002b5f565b602082019150620033ab82846200333b565b60208201915081905095945050505050565b6000620033cb828762002af6565b601482019150620033dd828662002b5f565b602082019150620033ef82856200333b565b6020820191506200340182846200333b565b60208201915081905095945050505050565b600062003421828562002af6565b60148201915062003433828462002b7a565b6004820191508190509392505050565b600062003451828762002b22565b60018201915062003463828662002af6565b60148201915062003475828562002b5f565b60208201915062003487828462002b5f565b60208201915081905095945050505050565b6000620034a7828562002b5f565b602082019150620034b9828462002b7a565b6004820191508190509392505050565b6000620034d7828462002bd6565b915081905092915050565b6000602082019050620034f9600083018462002ae5565b92915050565b600060208201905062003516600083018462002a97565b92915050565b600060608201905062003533600083018662002ae5565b62003542602083018562002ae5565b6200355160408301846200332a565b949350505050565b600060408201905062003570600083018562002ae5565b6200357f60208301846200332a565b9392505050565b60006020820190506200359d600083018462002b11565b92915050565b6000608082019050620035ba600083018762002b4e565b620035c9602083018662003356565b620035d8604083018562002b4e565b620035e7606083018462002b4e565b95945050505050565b600060208201905081810360008301526200360c818462002b95565b905092915050565b60006020820190506200362b600083018462002c0d565b92915050565b600060208201905062003648600083018462002c1e565b92915050565b600060208201905081810360008301526200366a818462002c2f565b905092915050565b600060208201905081810360008301526200368d8162002c70565b9050919050565b60006020820190508181036000830152620036af8162002cd8565b9050919050565b60006020820190508181036000830152620036d18162002d1a565b9050919050565b60006020820190508181036000830152620036f38162002d82565b9050919050565b60006020820190508181036000830152620037158162002dc4565b9050919050565b60006020820190508181036000830152620037378162002e06565b9050919050565b60006020820190508181036000830152620037598162002e6e565b9050919050565b600060208201905081810360008301526200377b8162002eb0565b9050919050565b600060208201905081810360008301526200379d8162002f18565b9050919050565b60006020820190508181036000830152620037bf8162002f5a565b9050919050565b60006020820190508181036000830152620037e18162002f9c565b9050919050565b60006020820190508181036000830152620038038162002fde565b9050919050565b60006020820190508181036000830152620038258162003020565b9050919050565b60006020820190508181036000830152620038478162003088565b9050919050565b600060208201905081810360008301526200386981620030f0565b9050919050565b600060208201905081810360008301526200388b8162003132565b9050919050565b60006020820190508181036000830152620038ad8162003174565b9050919050565b60006020820190508181036000830152620038cf81620031b6565b9050919050565b600061012082019050620038ee6000830184620032e5565b92915050565b6000604051905081810181811067ffffffffffffffff821117156200391857600080fd5b8060405250919050565b600067ffffffffffffffff8211156200393a57600080fd5b602082029050602081019050919050565b600067ffffffffffffffff8211156200396357600080fd5b602082029050602081019050919050565b600067ffffffffffffffff8211156200398c57600080fd5b602082029050602081019050919050565b600067ffffffffffffffff821115620039b557600080fd5b601f19601f8301169050602081019050919050565b600067ffffffffffffffff821115620039e257600080fd5b601f19601f8301169050602081019050919050565b600081519050919050565b600081519050919050565b600082825260208201905092915050565b600081905092915050565b600082825260208201905092915050565b600062003a478262003ae4565b9050919050565b600062003a5b8262003ae4565b9050919050565b60008115159050919050565b60007fff0000000000000000000000000000000000000000000000000000000000000082169050919050565b6000819050919050565b60007fffffffff0000000000000000000000000000000000000000000000000000000082169050919050565b600062003add8262003a3a565b9050919050565b600073ffffffffffffffffffffffffffffffffffffffff82169050919050565b6000819050919050565b600060ff82169050919050565b600062003b288262003b7f565b9050919050565b600062003b3c8262003b43565b9050919050565b600062003b508262003ae4565b9050919050565b600062003b648262003b6b565b9050919050565b600062003b788262003ae4565b9050919050565b600062003b8c8262003b93565b9050919050565b600062003ba08262003ae4565b9050919050565b82818337600083830152505050565b60005b8381101562003bd657808201518184015260208101905062003bb9565b8381111562003be6576000848401525b50505050565b600062003bf98262003c32565b9050919050565b600062003c0d8262003c32565b9050919050565b6000819050919050565b6000819050919050565b6000819050919050565b600062003c3f8262003c61565b9050919050565b6000819050919050565b6000601f19601f8301169050919050565b60008160601b9050919050565b62003c798162003a3a565b811462003c8557600080fd5b50565b62003c938162003a4e565b811462003c9f57600080fd5b50565b62003cad8162003a62565b811462003cb957600080fd5b50565b62003cc78162003a9a565b811462003cd357600080fd5b50565b62003ce18162003aa4565b811462003ced57600080fd5b50565b62003cfb8162003ad0565b811462003d0757600080fd5b50565b6003811062003d1857600080fd5b50565b62003d268162003b04565b811462003d3257600080fd5b5056fe608060405234801561001057600080fd5b50336000800160006101000a81548173ffffffffffffffffffffffffffffffffffffffff021916908373ffffffffffffffffffffffffffffffffffffffff1602179055506000800160009054906101000a900473ffffffffffffffffffffffffffffffffffffffff1673ffffffffffffffffffffffffffffffffffffffff16637b3b00be6040518163ffffffff1660e01b8152600401602060405180830381600087803b1580156100c057600080fd5b505af11580156100d4573d6000803e3d6000fd5b505050506040513d601f19601f820116820180604052506100f89190810190610155565b600060010160006101000a81548173ffffffffffffffffffffffffffffffffffffffff021916908373ffffffffffffffffffffffffffffffffffffffff1602179055506101c7565b60008151905061014f816101b0565b92915050565b60006020828403121561016757600080fd5b600061017584828501610140565b91505092915050565b600061018982610190565b9050919050565b600073ffffffffffffffffffffffffffffffffffffffff82169050919050565b6101b98161017e565b81146101c457600080fd5b50565b610b56806101d66000396000f3fe608060405234801561001057600080fd5b506004361061002b5760003560e01c80632692f25a14610030575b600080fd5b61004a60048036036100459190810190610646565b61004c565b005b600060010160009054906101000a900473ffffffffffffffffffffffffffffffffffffffff1673ffffffffffffffffffffffffffffffffffffffff163373ffffffffffffffffffffffffffffffffffffffff16146100df576040517f08c379a00000000000000000000000000000000000000000000000000000000081526004016100d690610932565b60405180910390fd5b6000800160149054906101000a900460ff16156101b357600060608473ffffffffffffffffffffffffffffffffffffffff1684846040516101209190610871565b60006040518083038185875af1925050503d806000811461015d576040519150601f19603f3d011682016040523d82523d6000602084013e610162565b606091505b50915091508181906101aa576040517f08c379a00000000000000000000000000000000000000000000000000000000081526004016101a191906108f0565b60405180910390fd5b50805160208201f35b60006101d46101cf60006004856102dc9092919063ffffffff16565b610314565b60001c60e01b90506101e461047e565b600073__BorrowProxyLib________________________632f1a48af909187856040518463ffffffff1660e01b815260040161022293929190610952565b60606040518083038186803b15801561023a57600080fd5b505af415801561024e573d6000803e3d6000fd5b505050506040513d601f19601f8201168201806040525061027291908101906106ad565b90506102818160200151610343565b6102c0576040517f08c379a00000000000000000000000000000000000000000000000000000000081526004016102b790610912565b60405180910390fd5b6102d58385836103809092919063ffffffff16565b5050505050565b6102e46104b4565b60006020850184019050808260000181815250508282602001818152505083826040018181525050509392505050565b60008082600001519050600083602001519050600180600883021b038082602003840351169350505050919050565b60008073ffffffffffffffffffffffffffffffffffffffff16826000015173ffffffffffffffffffffffffffffffffffffffff1614159050919050565b6000606084602001516000015173ffffffffffffffffffffffffffffffffffffffff1685602001516000015186602001516020015132886000015187896040516020016103d296959493929190610888565b6040516020818303038152906040526040516103ee9190610871565b600060405180830381855af49150503d8060008114610429576040519150601f19603f3d011682016040523d82523d6000602084013e61042e565b606091505b5091509150818190610476576040517f08c379a000000000000000000000000000000000000000000000000000000000815260040161046d91906108f0565b60405180910390fd5b505050505050565b6040518060400160405280600073ffffffffffffffffffffffffffffffffffffffff1681526020016104ae6104d5565b81525090565b60405180606001604052806000815260200160008152602001600081525090565b6040518060400160405280600073ffffffffffffffffffffffffffffffffffffffff168152602001600073ffffffffffffffffffffffffffffffffffffffff1681525090565b60008135905061052a81610af2565b92915050565b60008151905061053f81610af2565b92915050565b600082601f83011261055657600080fd5b8135610569610564826109b6565b610989565b9150808252602083016020830185838301111561058557600080fd5b610590838284610a9f565b50505092915050565b6000606082840312156105ab57600080fd5b6105b56040610989565b905060006105c584828501610530565b60008301525060206105d9848285016105e5565b60208301525092915050565b6000604082840312156105f757600080fd5b6106016040610989565b9050600061061184828501610530565b600083015250602061062584828501610530565b60208301525092915050565b60008135905061064081610b09565b92915050565b60008060006060848603121561065b57600080fd5b60006106698682870161051b565b935050602061067a86828701610631565b925050604084013567ffffffffffffffff81111561069757600080fd5b6106a386828701610545565b9150509250925092565b6000606082840312156106bf57600080fd5b60006106cd84828501610599565b91505092915050565b6106df81610a37565b82525050565b6106ee81610a25565b82525050565b6106fd81610a25565b82525050565b61070c81610a49565b82525050565b600061071d826109e2565b61072781856109f8565b9350610737818560208601610aae565b61074081610ae1565b840191505092915050565b6000610756826109e2565b6107608185610a09565b9350610770818560208601610aae565b80840191505092915050565b6000610787826109ed565b6107918185610a14565b93506107a1818560208601610aae565b6107aa81610ae1565b840191505092915050565b60006107c2601f83610a14565b91507f66756e6374696f6e2068616e646c6572206e6f742072656769737465726564006000830152602082019050919050565b6000610802602983610a14565b91507f626f72726f772070726f78792063616e206f6e6c79206265207573656420627960008301527f20626f72726f77657200000000000000000000000000000000000000000000006020830152604082019050919050565b8082525050565b61086b81610a95565b82525050565b600061087d828461074b565b915081905092915050565b600060c08201905061089d60008301896106e5565b6108aa60208301886106e5565b6108b760408301876106d6565b6108c460608301866106e5565b6108d16080830185610862565b81810360a08301526108e38184610712565b9050979650505050505050565b6000602082019050818103600083015261090a818461077c565b905092915050565b6000602082019050818103600083015261092b816107b5565b9050919050565b6000602082019050818103600083015261094b816107f5565b9050919050565b6000606082019050610967600083018661085b565b61097460208301856106f4565b6109816040830184610703565b949350505050565b6000604051905081810181811067ffffffffffffffff821117156109ac57600080fd5b8060405250919050565b600067ffffffffffffffff8211156109cd57600080fd5b601f19601f8301169050602081019050919050565b600081519050919050565b600081519050919050565b600082825260208201905092915050565b600081905092915050565b600082825260208201905092915050565b6000610a3082610a75565b9050919050565b6000610a4282610a75565b9050919050565b60007fffffffff0000000000000000000000000000000000000000000000000000000082169050919050565b600073ffffffffffffffffffffffffffffffffffffffff82169050919050565b6000819050919050565b82818337600083830152505050565b60005b83811015610acc578082015181840152602081019050610ab1565b83811115610adb576000848401525b50505050565b6000601f19601f8301169050919050565b610afb81610a25565b8114610b0657600080fd5b50565b610b1281610a95565b8114610b1d57600080fd5b5056fea26469706673582212207cf410ef307ab245135b4eeba00fb6d1e52a26db59c927e529a384191cddb2ee64736f6c63430006030033a26469706673582212202ed4ede431b066a9ecef18caca5cd5cf524304598e7e8ae77f22c45debc2716f64736f6c63430006030033",
  "source": "pragma solidity ^0.6.2;\npragma experimental ABIEncoderV2;\n\nimport { Ownable } from \"openzeppelin-solidity/contracts/ownership/Ownable.sol\";\nimport { IShifterRegistry } from \"./interfaces/IShifterRegistry.sol\";\nimport { IShifter } from \"./interfaces/IShifter.sol\";\nimport { ShifterPoolLib } from \"./ShifterPoolLib.sol\";\nimport { ShifterBorrowProxyLib } from \"./ShifterBorrowProxyLib.sol\";\nimport { BorrowProxy } from \"./BorrowProxy.sol\";\nimport { BorrowProxyLib } from \"./BorrowProxyLib.sol\";\nimport { TokenUtils } from \"./utils/TokenUtils.sol\";\nimport { LiquidityToken } from \"./LiquidityToken.sol\";\n\ncontract ShifterPool is Ownable {\n  using ShifterPoolLib for *;\n  using TokenUtils for *;\n  using ShifterBorrowProxyLib for *;\n  using BorrowProxyLib for *;\n  ShifterPoolLib.Isolate isolate;\n  function setup(address shifterRegistry, uint256 poolFee, BorrowProxyLib.ModuleRegistration[] memory modules, ShifterPoolLib.LiquidityTokenLaunch[] memory tokenLaunches) public onlyOwner {\n    require(isolate.shifterRegistry == address(0x0), \"already initialized\");\n    isolate.shifterRegistry = shifterRegistry;\n    isolate.poolFee = poolFee;\n    for (uint256 i = 0; i < modules.length; i++) {\n      BorrowProxyLib.ModuleRegistration memory registration = modules[i];\n      for (uint256 j = 0; j < registration.sigs.length; j++) {\n        isolate.registry.registryRegisterModule(registration);\n      }\n    }\n    for (uint256 i = 0; i < tokenLaunches.length; i++) {\n      ShifterPoolLib.LiquidityTokenLaunch memory launch = tokenLaunches[i];\n      isolate.tokenToLiquidityToken[launch.token] = launch.liqToken;\n    }\n  }\n  function executeBorrow(ShifterBorrowProxyLib.LiquidityRequestParcel memory liquidityRequestParcel, uint256 bond, uint256 timeoutExpiry) public payable {\n    require(liquidityRequestParcel.gasRequested == msg.value, \"supplied ether is not equal to gas requested\");\n    bytes32 requestHash = liquidityRequestParcel.computeLiquidityRequestHash();\n    require(liquidityRequestParcel.validateSignature(requestHash), \"liquidity request signature rejected\");\n    ShifterBorrowProxyLib.LiquidityRequest memory liquidityRequest = liquidityRequestParcel.request;\n    bytes32 borrowerSalt = liquidityRequest.computeBorrowerSalt();\n    address proxyAddress = borrowerSalt.deriveBorrowerAddress();\n    require(!isolate.borrowProxyController.isInitialized(proxyAddress), \"proxy has already been initialized\");\n    ShifterBorrowProxyLib.LenderRecord memory loan;\n    loan.keeper = msg.sender;\n    loan.params = isolate.computeLoanParams(liquidityRequest.amount, bond, timeoutExpiry);\n    ShifterBorrowProxyLib.ProxyRecord memory proxyRecord = ShifterBorrowProxyLib.ProxyRecord({\n      request: liquidityRequest,\n      loan: loan\n    });\n    bytes memory data = abi.encode(proxyRecord);\n    require(LiquidityToken(isolate.getLiquidityToken(liquidityRequest.token)).loan(proxyAddress, proxyRecord.computePostFee()), \"insufficient funds in liquidity pool\");\n    isolate.borrowProxyController.mapProxyRecord(proxyAddress, data);\n    isolate.borrowProxyController.setProxyOwner(proxyAddress, liquidityRequest.borrower);\n    liquidityRequest.borrower.transfer(msg.value);\n    require(liquidityRequest.token.transferTokenFrom(msg.sender, address(this), bond), \"bond submission failed\");\n    require(borrowerSalt.deployBorrowProxy() == proxyAddress, \"proxy deployment failed\");\n    emit BorrowProxyLib.BorrowProxyMade(msg.sender, proxyAddress, data);\n  }\n  function validateProxyRecordHandler(bytes memory proxyRecord) public view returns (bool) {\n    return isolate.borrowProxyController.validateProxyRecord(msg.sender, proxyRecord);\n  }\n  function getProxyOwnerHandler() public view returns (address) {\n    return isolate.borrowProxyController.getProxyOwner(msg.sender);\n  }\n  function getShifterHandler(address token) public view returns (IShifter) {\n    return isolate.getShifter(token);\n  }\n  function getLiquidityTokenHandler(address token) public view returns (LiquidityToken) {\n    return LiquidityToken(isolate.getLiquidityToken(token));\n  }\n  function relayResolveLoan(address token, address liquidityToken, address keeper, uint256 bond, uint256 repay) public returns (bool) {\n    require(isolate.borrowProxyController.proxyInitializerRecord[msg.sender] != bytes32(0x0), \"not a registered borrow proxy\");\n    if (bond != 0) require(token.sendToken(keeper, bond), \"failed to return bond to keeper\");\n    if (repay != 0) require(token.sendToken(liquidityToken, repay), \"failed to repay lost funds\");\n    require(LiquidityToken(liquidityToken).resolveLoan(msg.sender));\n    return true;\n  }\n}\n",
  "sourcePath": "/home/ray/0confirmation-mono/packages/0confirmation-sol/contracts/ShifterPool.sol",
  "compiler": {
    "name": "solc",
    "version": "0.6.3+commit.8dda9521.Linux.g++"
  },
  "schemaVersion": "3.0.23",
  "updatedAt": "2020-03-04T05:41:35.543Z",
  "devdoc": {
    "methods": {
      "isOwner()": {
        "details": "Returns true if the caller is the current owner."
      },
      "owner()": {
        "details": "Returns the address of the current owner."
      },
      "renounceOwnership()": {
        "details": "Leaves the contract without owner. It will not be possible to call `onlyOwner` functions anymore. Can only be called by the current owner.     * NOTE: Renouncing ownership will leave the contract without an owner, thereby removing any functionality that is only available to the owner."
      },
      "transferOwnership(address)": {
        "details": "Transfers ownership of the contract to a new account (`newOwner`). Can only be called by the current owner."
      }
    }
  },
  "userdoc": {
    "methods": {}
  }
}