{
  "contractName": "ShifterPool",
  "abi": [
    {
      "anonymous": false,
      "inputs": [
        {
          "indexed": true,
          "internalType": "address",
          "name": "previousOwner",
          "type": "address"
        },
        {
          "indexed": true,
          "internalType": "address",
          "name": "newOwner",
          "type": "address"
        }
      ],
      "name": "OwnershipTransferred",
      "type": "event"
    },
    {
      "inputs": [
        {
          "internalType": "address",
          "name": "delegateTo",
          "type": "address"
        },
        {
          "internalType": "bytes",
          "name": "callData",
          "type": "bytes"
        }
      ],
      "name": "_executeQuery",
      "outputs": [
        {
          "internalType": "bytes",
          "name": "",
          "type": "bytes"
        }
      ],
      "stateMutability": "nonpayable",
      "type": "function"
    },
    {
      "inputs": [],
      "name": "owner",
      "outputs": [
        {
          "internalType": "address",
          "name": "",
          "type": "address"
        }
      ],
      "stateMutability": "view",
      "type": "function"
    },
    {
      "inputs": [
        {
          "internalType": "address",
          "name": "viewLogic",
          "type": "address"
        },
        {
          "internalType": "bytes",
          "name": "payload",
          "type": "bytes"
        }
      ],
      "name": "query",
      "outputs": [
        {
          "internalType": "bytes",
          "name": "",
          "type": "bytes"
        }
      ],
      "stateMutability": "view",
      "type": "function"
    },
    {
      "inputs": [],
      "name": "renounceOwnership",
      "outputs": [],
      "stateMutability": "nonpayable",
      "type": "function"
    },
    {
      "inputs": [
        {
          "internalType": "address",
          "name": "newOwner",
          "type": "address"
        }
      ],
      "name": "transferOwnership",
      "outputs": [],
      "stateMutability": "nonpayable",
      "type": "function"
    },
    {
      "inputs": [
        {
          "internalType": "address",
          "name": "shifterRegistry",
          "type": "address"
        },
        {
          "internalType": "uint256",
          "name": "poolFee",
          "type": "uint256"
        },
        {
          "components": [
            {
              "internalType": "enum BorrowProxyLib.ModuleRegistrationType",
              "name": "moduleType",
              "type": "uint8"
            },
            {
              "internalType": "address",
              "name": "target",
              "type": "address"
            },
            {
              "internalType": "bytes4[]",
              "name": "sigs",
              "type": "bytes4[]"
            },
            {
              "components": [
                {
                  "internalType": "address",
                  "name": "assetHandler",
                  "type": "address"
                },
                {
                  "internalType": "address",
                  "name": "liquidationModule",
                  "type": "address"
                }
              ],
              "internalType": "struct BorrowProxyLib.Module",
              "name": "module",
              "type": "tuple"
            }
          ],
          "internalType": "struct BorrowProxyLib.ModuleRegistration[]",
          "name": "modules",
          "type": "tuple[]"
        },
        {
          "components": [
            {
              "internalType": "address",
              "name": "token",
              "type": "address"
            },
            {
              "internalType": "address",
              "name": "liqToken",
              "type": "address"
            }
          ],
          "internalType": "struct ShifterPoolLib.LiquidityTokenLaunch[]",
          "name": "tokenLaunches",
          "type": "tuple[]"
        }
      ],
      "name": "setup",
      "outputs": [],
      "stateMutability": "nonpayable",
      "type": "function"
    },
    {
      "inputs": [
        {
          "components": [
            {
              "components": [
                {
                  "internalType": "address payable",
                  "name": "borrower",
                  "type": "address"
                },
                {
                  "internalType": "address",
                  "name": "token",
                  "type": "address"
                },
                {
                  "internalType": "bytes32",
                  "name": "nonce",
                  "type": "bytes32"
                },
                {
                  "internalType": "uint256",
                  "name": "amount",
                  "type": "uint256"
                }
              ],
              "internalType": "struct ShifterBorrowProxyLib.LiquidityRequest",
              "name": "request",
              "type": "tuple"
            },
            {
              "internalType": "uint256",
              "name": "gasRequested",
              "type": "uint256"
            },
            {
              "internalType": "bytes",
              "name": "signature",
              "type": "bytes"
            }
          ],
          "internalType": "struct ShifterBorrowProxyLib.LiquidityRequestParcel",
          "name": "liquidityRequestParcel",
          "type": "tuple"
        },
        {
          "internalType": "uint256",
          "name": "bond",
          "type": "uint256"
        },
        {
          "internalType": "uint256",
          "name": "timeoutExpiry",
          "type": "uint256"
        }
      ],
      "name": "executeBorrow",
      "outputs": [],
      "stateMutability": "payable",
      "type": "function"
    },
    {
      "inputs": [
        {
          "internalType": "bytes",
          "name": "proxyRecord",
          "type": "bytes"
        }
      ],
      "name": "validateProxyRecordHandler",
      "outputs": [
        {
          "internalType": "bool",
          "name": "",
          "type": "bool"
        }
      ],
      "stateMutability": "view",
      "type": "function"
    },
    {
      "inputs": [
        {
          "internalType": "address",
          "name": "user",
          "type": "address"
        }
      ],
      "name": "getProxyOwnerHandler",
      "outputs": [
        {
          "internalType": "address",
          "name": "",
          "type": "address"
        }
      ],
      "stateMutability": "view",
      "type": "function"
    },
    {
      "inputs": [
        {
          "internalType": "address",
          "name": "token",
          "type": "address"
        }
      ],
      "name": "getShifterHandler",
      "outputs": [
        {
          "internalType": "contract IShifter",
          "name": "",
          "type": "address"
        }
      ],
      "stateMutability": "view",
      "type": "function"
    },
    {
      "inputs": [
        {
          "internalType": "address",
          "name": "token",
          "type": "address"
        }
      ],
      "name": "getLiquidityTokenHandler",
      "outputs": [
        {
          "internalType": "contract LiquidityToken",
          "name": "",
          "type": "address"
        }
      ],
      "stateMutability": "view",
      "type": "function"
    },
    {
      "inputs": [
        {
          "internalType": "address",
          "name": "to",
          "type": "address"
        },
        {
          "internalType": "bytes4",
          "name": "sig",
          "type": "bytes4"
        }
      ],
      "name": "fetchModuleHandler",
      "outputs": [
        {
          "components": [
            {
              "internalType": "address",
              "name": "assetHandler",
              "type": "address"
            },
            {
              "internalType": "address",
              "name": "liquidationModule",
              "type": "address"
            }
          ],
          "internalType": "struct BorrowProxyLib.Module",
          "name": "",
          "type": "tuple"
        }
      ],
      "stateMutability": "view",
      "type": "function"
    },
    {
      "inputs": [
        {
          "internalType": "address",
          "name": "token",
          "type": "address"
        },
        {
          "internalType": "address",
          "name": "liquidityToken",
          "type": "address"
        },
        {
          "internalType": "address",
          "name": "keeper",
          "type": "address"
        },
        {
          "internalType": "uint256",
          "name": "bond",
          "type": "uint256"
        },
        {
          "internalType": "uint256",
          "name": "repay",
          "type": "uint256"
        }
      ],
      "name": "relayResolveLoan",
      "outputs": [
        {
          "internalType": "bool",
          "name": "",
          "type": "bool"
        }
      ],
      "stateMutability": "nonpayable",
      "type": "function"
    }
  ],
  "bytecode": "0x608060405260006100176001600160e01b0361006616565b600080546001600160a01b0319166001600160a01b0383169081178255604051929350917f8be0079c531659141344cd1fd0a4f28419497f9722a3daafe3b4186f6b6457e0908290a35061006a565b3390565b614371806100796000396000f3fe6080604052600436106100c25760003560e01c8063801874ec1161007f578063e6c1f07411610059578063e6c1f07414610203578063f2fde38b14610223578063f5e043b014610243578063fd00430c14610263576100c2565b8063801874ec146101bb5780638da5cb5b146101db578063daf9b824146101f0576100c2565b806308f60495146100c75780631fbc78dc146100fd57806323e3b7301461012a5780634411236014610157578063715018a614610184578063798aada01461019b575b600080fd5b3480156100d357600080fd5b506100e76100e2366004611ba0565b610283565b6040516100f49190611e98565b60405180910390f35b34801561010957600080fd5b5061011d6101183660046119b6565b61029d565b6040516100f49190611e23565b34801561013657600080fd5b5061014a610145366004611a64565b6102b0565b6040516100f49190611ec1565b34801561016357600080fd5b50610177610172366004611a2c565b61034d565b6040516100f49190612474565b34801561019057600080fd5b5061019961036e565b005b3480156101a757600080fd5b5061011d6101b63660046119b6565b6103ed565b3480156101c757600080fd5b506100e76101d63660046119d2565b610400565b3480156101e757600080fd5b5061011d61054a565b6101996101fe366004611bef565b610559565b34801561020f57600080fd5b5061011d61021e3660046119b6565b6108b9565b34801561022f57600080fd5b5061019961023e3660046119b6565b6108cc565b34801561024f57600080fd5b5061019961025e366004611ab2565b61090d565b34801561026f57600080fd5b5061014a61027e366004611a64565b610a5e565b60006102976006338463ffffffff610b2416565b92915050565b600061029760018363ffffffff610b4a16565b60603330146102da5760405162461bcd60e51b81526004016102d190612158565b60405180910390fd5b60006060846001600160a01b0316846040516102f69190611dd6565b600060405180830381855af49150503d8060008114610331576040519150601f19603f3d011682016040523d82523d6000602084013e610336565b606091505b50915091508161034557600080fd5b949350505050565b6103556116c3565b6103676009848463ffffffff610bca16565b9392505050565b610376610c7c565b6000546001600160a01b039081169116146103a35760405162461bcd60e51b81526004016102d190612377565b600080546040516001600160a01b03909116907f8be0079c531659141344cd1fd0a4f28419497f9722a3daafe3b4186f6b6457e0908390a3600080546001600160a01b0319169055565b600061029760018363ffffffff610c8016565b3360009081526006602052604081205461042c5760405162461bcd60e51b81526004016102d19061220b565b82156104685761044c6001600160a01b038716858563ffffffff610cbc16565b6104685760405162461bcd60e51b81526004016102d1906122bb565b81156104a4576104886001600160a01b038716868463ffffffff610cbc16565b6104a45760405162461bcd60e51b81526004016102d1906120b2565b60405163c3275c7960e01b81526001600160a01b0386169063c3275c79906104d0903390600401611e23565b602060405180830381600087803b1580156104ea57600080fd5b505af11580156104fe573d6000803e3d6000fd5b505050506040513d601f19601f820116820180604052506105229190810190611b80565b61053e5760405162461bcd60e51b81526004016102d190612411565b50600195945050505050565b6000546001600160a01b031690565b3483602001511461057c5760405162461bcd60e51b81526004016102d190612066565b600061058784610d5f565b9050610599848263ffffffff610da916565b6105b55760405162461bcd60e51b81526004016102d190612333565b6105bd6116da565b50835160006105cb82610dda565b905060006105d882610e03565b90506105eb60068263ffffffff610e3916565b156106085760405162461bcd60e51b81526004016102d190611f0b565b610610611701565b338152606084015161062c90600190898963ffffffff610e5716565b6020820152610639611729565b60405180604001604052808681526020018381525090506060816040516020016106639190612497565b604051602081830303815290604052905061068c86602001516001610c8090919063ffffffff16565b6001600160a01b031663185cc751856106a485610f56565b6040518363ffffffff1660e01b81526004016106c1929190611e37565b602060405180830381600087803b1580156106db57600080fd5b505af11580156106ef573d6000803e3d6000fd5b505050506040513d601f19601f820116820180604052506107139190810190611b80565b61072f5760405162461bcd60e51b81526004016102d19061219a565b6107416006858363ffffffff610f8e16565b855161075790600690869063ffffffff610fb116565b85516040516001600160a01b03909116903480156108fc02916000818181858888f1935050505015801561078f573d6000803e3d6000fd5b5060208601516107b0906001600160a01b031633308c63ffffffff610fe516565b6107cc5760405162461bcd60e51b81526004016102d1906123ac565b836001600160a01b03166107df8661108b565b6001600160a01b0316146108055760405162461bcd60e51b81526004016102d19061202f565b85516040516366d3820360e01b81526001600160a01b038616916366d38203916108329190600401611e23565b602060405180830381600087803b15801561084c57600080fd5b505af1158015610860573d6000803e3d6000fd5b505050506040513d601f19601f820116820180604052506108849190810190611b80565b6108a05760405162461bcd60e51b81526004016102d1906120e9565b85516108ad9085836110b9565b50505050505050505050565b600061029760068363ffffffff61110916565b6108d4610c7c565b6000546001600160a01b039081169116146109015760405162461bcd60e51b81526004016102d190612377565b61090a8161112c565b50565b610915610c7c565b6000546001600160a01b039081169116146109425760405162461bcd60e51b81526004016102d190612377565b6001546001600160a01b03161561096b5760405162461bcd60e51b81526004016102d1906121de565b600180546001600160a01b0319166001600160a01b038616179055600283905560005b82518110156109eb5761099f611749565b8382815181106109ab57fe5b6020026020010151905060008090505b8160400151518110156109e1576109d960098363ffffffff6111ad16565b6001016109bb565b505060010161098e565b5060005b8151811015610a5757610a006116c3565b828281518110610a0c57fe5b6020908102919091018101518082015190516001600160a01b0390811660009081526005909352604090922080546001600160a01b03191692909116919091179055506001016109ef565b5050505050565b606060006060846001600160a01b03168585604051602401610a81929190611e74565b60408051601f198184030181529181526020820180516001600160e01b031663023e3b7360e41b17905251610ab69190611dd6565b600060405180830381855afa9150503d8060008114610af1576040519150601f19603f3d011682016040523d82523d6000602084013e610af6565b606091505b5091509150818190610b1b5760405162461bcd60e51b81526004016102d19190611ec1565b50949350505050565b80516020918201206001600160a01b039290921660009081529290526040909120541490565b815460405163028c4f4160e41b81526000916001600160a01b0316906328c4f41090610b7a908590600401611e23565b60206040518083038186803b158015610b9257600080fd5b505afa158015610ba6573d6000803e3d6000fd5b505050506040513d601f19601f820116820180604052506103679190810190611bd3565b610bd26116c3565b610bda6116c3565b846000610be78686611269565b81526020808201929092526040908101600020815180830190925280546001600160a01b03908116835260019091015416918101919091529050610c2a816112a1565b61034557846000610c3b86866112b0565b81526020808201929092526040908101600020815180830190925280546001600160a01b039081168352600190910154169181019190915295945050505050565b3390565b6001600160a01b038082166000908152600484016020526040812054909116806103675760405162461bcd60e51b81526004016102d1906123dc565b600080846001600160a01b03168484604051602401610cdc929190611e37565b60408051601f198184030181529181526020820180516001600160e01b031663a9059cbb60e01b17905251610d119190611dd6565b6000604051808303816000865af19150503d8060008114610d4e576040519150601f19603f3d011682016040523d82523d6000602084013e610d53565b606091505b50909695505050505050565b8051602080820151604080840151606090940151838601519151600095610d8c9530959491939201611d2d565b604051602081830303815290604052805190602001209050919050565b6000610dc1610db7836112e3565b84604001516112f6565b8351516001600160a01b03908116911614905092915050565b60008160000151826020015183604001518460600151604051602001610d8c9493929190611cff565b60006102978260405180602001610e1990611772565b6020820181038252601f19601f8201166040525080519060200120611424565b6001600160a01b031660009081526020919091526040902054151590565b610e5f61177f565b620186a0821015610e825760405162461bcd60e51b81526004016102d190611f4d565b6000610e9d670de0b6b3a7640000606463ffffffff61143116565b9050610eb8670de0b6b3a7640000606463ffffffff61143116565b610ee086610ed487670de0b6b3a764000063ffffffff61147316565b9063ffffffff61143116565b11610efd5760405162461bcd60e51b81526004016102d190612448565b6000848610610f1f57610f1a86610ed4848863ffffffff61147316565b610f21565b815b905060405180608001604052808543018152602001868152602001886001015481526020018281525092505050949350505050565b6000610297610f7c610f67846114ad565b610f70856114e2565b9063ffffffff61151716565b8351606001519063ffffffff61153c16565b80516020918201206001600160a01b039092166000908152929052604090912055565b6001600160a01b039182166000908152600190930160205260409092208054919092166001600160a01b0319909116179055565b600080856001600160a01b031685858560405160240161100793929190611e50565b60408051601f198184030181529181526020820180516001600160e01b03166323b872dd60e01b1790525161103c9190611dd6565b6000604051808303816000865af19150503d8060008114611079576040519150601f19603f3d011682016040523d82523d6000602084013e61107e565b606091505b5090979650505050505050565b600061029782604051806020016110a190611772565b601f1982820381018352601f9091011660405261157e565b816001600160a01b0316836001600160a01b03167f9ae84ac2ad8f721c2e62d211eca0ae34951726f8834913af6c5ebb81610bb1f8836040516110fc9190611ec1565b60405180910390a3505050565b6001600160a01b0380821660009081526001840160205260409020541692915050565b6001600160a01b0381166111525760405162461bcd60e51b81526004016102d190611fb2565b600080546040516001600160a01b03808516939216917f8be0079c531659141344cd1fd0a4f28419497f9722a3daafe3b4186f6b6457e091a3600080546001600160a01b0319166001600160a01b0392909216919091179055565b6001815160028111156111bc57fe5b141561120b5760005b816040015151811015611205576111fd838360200151846040015184815181106111eb57fe5b602002602001015185606001516115b3565b6001016111c5565b50611265565b60028151600281111561121a57fe5b14156112655760005b8160400151518110156112635761125b8383602001518460400151848151811061124957fe5b6020026020010151856060015161160a565b600101611223565b505b5050565b604051600090833f906112829082908590602001611dbe565b6040516020818303038152906040528051906020012091505092915050565b516001600160a01b0316151590565b600082826040516020016112c5929190611d63565b60405160208183030381529060405280519060200120905092915050565b600081604051602001610d8c9190611df2565b600081516041146113195760405162461bcd60e51b81526004016102d190611f7b565b60208201516040830151606084015160001a7f7fffffffffffffffffffffffffffffff5d576e7357a4501ddfe92f46681b20a082111561136b5760405162461bcd60e51b81526004016102d190612116565b8060ff16601b1415801561138357508060ff16601c14155b156113a05760405162461bcd60e51b81526004016102d190612242565b6000600187838686604051600081526020016040526040516113c59493929190611ea3565b6020604051602081039080840390855afa1580156113e7573d6000803e3d6000fd5b5050604051601f1901519150506001600160a01b03811661141a5760405162461bcd60e51b81526004016102d190611ed4565b9695505050505050565b6000610367838330611618565b600061036783836040518060400160405280601a81526020017f536166654d6174683a206469766973696f6e206279207a65726f000000000000815250611660565b60008261148257506000610297565b8282028284828161148f57fe5b04146103675760405162461bcd60e51b81526004016102d1906122f2565b6000610297670de0b6b3a7640000610ed48460200151602001516060015185600001516060015161147390919063ffffffff16565b6000610297670de0b6b3a7640000610ed48460200151602001516040015185600001516060015161147390919063ffffffff16565b6000828201838110156103675760405162461bcd60e51b81526004016102d190611ff8565b600061036783836040518060400160405280601e81526020017f536166654d6174683a207375627472616374696f6e206f766572666c6f770000815250611697565b600080838351602085016000f590506001600160a01b0381166103675760405162461bcd60e51b81526004016102d190612284565b808460006115c18686611269565b8152602080820192909252604001600020825181546001600160a01b03199081166001600160a01b03928316178355939092015160019091018054909316911617905550505050565b808460006115c186866112b0565b60008060ff60f81b8386866040516020016116369493929190611d8a565b60408051808303601f1901815291905280516020909101206001600160a01b031695945050505050565b600081836116815760405162461bcd60e51b81526004016102d19190611ec1565b50600083858161168d57fe5b0495945050505050565b600081848411156116bb5760405162461bcd60e51b81526004016102d19190611ec1565b505050900390565b604080518082019091526000808252602082015290565b60408051608081018252600080825260208201819052918101829052606081019190915290565b604051806040016040528060006001600160a01b0316815260200161172461177f565b905290565b604051806040016040528061173c6116da565b8152602001611724611701565b6040805160808101909152806000815260006020820152606060408201819052016117246116c3565b611d94806125a883390190565b6040518060800160405280600081526020016000815260200160008152602001600081525090565b600082601f8301126117b7578081fd5b81356117ca6117c58261252c565b612505565b81815291506020808301908481016040808502870183018810156117ed57600080fd5b60005b85811015611814576118028984611889565b855293830193918101916001016117f0565b50505050505092915050565b600082601f830112611830578081fd5b813567ffffffffffffffff811115611846578182fd5b611859601f8201601f1916602001612505565b915080825283602082850101111561187057600080fd5b8060208401602084013760009082016020015292915050565b60006040828403121561189a578081fd5b6118a46040612505565b905081356118b18161257c565b815260208201356118c18161257c565b602082015292915050565b600060a082840312156118dd578081fd5b6118e76080612505565b90508135600381106118f857600080fd5b81526020828101356119098161257c565b82820152604083013567ffffffffffffffff81111561192757600080fd5b80840185601f82011261193957600080fd5b803591506119496117c58361252c565b828152838101908285018585028401860189101561196657600080fd5b600093505b8484101561199257803561197e81612591565b83526001939093019291850191850161196b565b5080604087015250505050506119ab8360608401611889565b606082015292915050565b6000602082840312156119c7578081fd5b81356103678161257c565b600080600080600060a086880312156119e9578081fd5b85356119f48161257c565b94506020860135611a048161257c565b93506040860135611a148161257c565b94979396509394606081013594506080013592915050565b60008060408385031215611a3e578182fd5b8235611a498161257c565b91506020830135611a5981612591565b809150509250929050565b60008060408385031215611a76578081fd5b8235611a818161257c565b9150602083013567ffffffffffffffff811115611a9c578182fd5b611aa885828601611820565b9150509250929050565b60008060008060808587031215611ac7578182fd5b8435611ad28161257c565b93506020858101359350604086013567ffffffffffffffff80821115611af6578485fd5b81880189601f820112611b07578586fd5b80359250611b176117c58461252c565b83815284810190828601885b86811015611b4c57611b3a8e8984358801016118cc565b84529287019290870190600101611b23565b509097505050506060880135925080831115611b66578384fd5b5050611b74878288016117a7565b91505092959194509250565b600060208284031215611b91578081fd5b81518015158114610367578182fd5b600060208284031215611bb1578081fd5b813567ffffffffffffffff811115611bc7578182fd5b61034584828501611820565b600060208284031215611be4578081fd5b81516103678161257c565b600080600060608486031215611c03578081fd5b833567ffffffffffffffff80821115611c1a578283fd5b818601808803925060c0831215611c2f578384fd5b611c396060612505565b6080841215611c46578485fd5b611c506080612505565b93508135611c5d8161257c565b84526020820135611c6d8161257c565b8060208601525060408201356040850152606082013560608501528381526080820135602082015260a0820135935082841115611ca8578485fd5b611cb489858401611820565b6040828101919091529099602089013599509701359695505050505050565b60008151808452611ceb81602086016020860161254c565b601f01601f19169290920160200192915050565b6001600160601b0319606095861b811682529390941b90921660148401526028830152604882015260680190565b6001600160601b0319606096871b811682529490951b909316601485015260288401919091526048830152606882015260880190565b60609290921b6001600160601b03191682526001600160e01b031916601482015260180190565b6001600160f81b031994909416845260609290921b6001600160601b03191660018401526015830152603582015260550190565b9182526001600160e01b031916602082015260240190565b60008251611de881846020870161254c565b9190910192915050565b7f19457468657265756d205369676e6564204d6573736167653a0a3332000000008152601c810191909152603c0190565b6001600160a01b0391909116815260200190565b6001600160a01b03929092168252602082015260400190565b6001600160a01b039384168152919092166020820152604081019190915260600190565b6001600160a01b038316815260406020820181905260009061034590830184611cd3565b901515815260200190565b93845260ff9290921660208401526040830152606082015260800190565b6000602082526103676020830184611cd3565b60208082526018908201527f45434453413a20696e76616c6964207369676e61747572650000000000000000604082015260600190565b60208082526022908201527f70726f78792068617320616c7265616479206265656e20696e697469616c697a604082015261195960f21b606082015260800190565b6020808252601490820152731d1a5b595bdd5d081a5b9cdd59999a58da595b9d60621b604082015260600190565b6020808252601f908201527f45434453413a20696e76616c6964207369676e6174757265206c656e67746800604082015260600190565b60208082526026908201527f4f776e61626c653a206e6577206f776e657220697320746865207a65726f206160408201526564647265737360d01b606082015260800190565b6020808252601b908201527f536166654d6174683a206164646974696f6e206f766572666c6f770000000000604082015260600190565b60208082526017908201527f70726f7879206465706c6f796d656e74206661696c6564000000000000000000604082015260600190565b6020808252602c908201527f737570706c696564206574686572206973206e6f7420657175616c20746f206760408201526b185cc81c995c5d595cdd195960a21b606082015260800190565b6020808252601a908201527f6661696c656420746f207265706179206c6f73742066756e6473000000000000604082015260600190565b6020808252601390820152727365747570207068617365206661696c75726560681b604082015260600190565b60208082526022908201527f45434453413a20696e76616c6964207369676e6174757265202773272076616c604082015261756560f01b606082015260800190565b60208082526022908201527f756e617574686f72697a65642076696577206c617965722064656c656761746960408201526137b760f11b606082015260800190565b60208082526024908201527f696e73756666696369656e742066756e647320696e206c6971756964697479206040820152631c1bdbdb60e21b606082015260800190565b602080825260139082015272185b1c9958591e481a5b9a5d1a585b1a5e9959606a1b604082015260600190565b6020808252601d908201527f6e6f742061207265676973746572656420626f72726f772070726f7879000000604082015260600190565b60208082526022908201527f45434453413a20696e76616c6964207369676e6174757265202776272076616c604082015261756560f01b606082015260800190565b60208082526019908201527f437265617465323a204661696c6564206f6e206465706c6f7900000000000000604082015260600190565b6020808252601f908201527f6661696c656420746f2072657475726e20626f6e6420746f206b656570657200604082015260600190565b60208082526021908201527f536166654d6174683a206d756c7469706c69636174696f6e206f766572666c6f6040820152607760f81b606082015260800190565b60208082526024908201527f6c69717569646974792072657175657374207369676e61747572652072656a6560408201526318dd195960e21b606082015260800190565b6020808252818101527f4f776e61626c653a2063616c6c6572206973206e6f7420746865206f776e6572604082015260600190565b602080825260169082015275189bdb99081cdd589b5a5cdcda5bdb8819985a5b195960521b604082015260600190565b6020808252818101527f6e6f7420612072656769737465726564206c697175696469747920746f6b656e604082015260600190565b60208082526017908201527f6c6f616e207265736f6c7574696f6e206661696c757265000000000000000000604082015260600190565b602080825260129082015271626f6e642062656c6f77206d696e696d756d60701b604082015260600190565b81516001600160a01b039081168252602092830151169181019190915260400190565b815180516001600160a01b0390811683526020808301518216818501526040808401518186015260609384015184860152948101518051909216608085015290810151805160a08501529081015160c08401529283015160e083015291909101516101008201526101200190565b60405181810167ffffffffffffffff8111828210171561252457600080fd5b604052919050565b600067ffffffffffffffff821115612542578081fd5b5060209081020190565b60005b8381101561256757818101518382015260200161254f565b83811115612576576000848401525b50505050565b6001600160a01b038116811461090a57600080fd5b6001600160e01b03198116811461090a57600080fdfe608060405234801561001057600080fd5b50611d74806100206000396000f3fe6080604052600436106100595760003560e01c806323e3b730146100625780632692f25a1461009857806356b8e146146100b857806366d38203146100e5578063c4ddf36314610105578063fd00430c1461012557610060565b3661006057005b005b34801561006e57600080fd5b5061008261007d366004611548565b610145565b60405161008f91906119b2565b60405180910390f35b3480156100a457600080fd5b506100606100b3366004611596565b6101e4565b3480156100c457600080fd5b506100d86100d336600461160d565b6103ba565b60405161008f9190611978565b3480156100f157600080fd5b506100d861010036600461152c565b610770565b34801561011157600080fd5b506100d861012036600461160d565b6107cd565b34801561013157600080fd5b50610082610140366004611548565b610b8b565b606033301461016f5760405162461bcd60e51b815260040161016690611a5a565b60405180910390fd5b60006060846001600160a01b03168460405161018b9190611888565b600060405180830381855af49150503d80600081146101c6576040519150601f19603f3d011682016040523d82523d6000602084013e6101cb565b606091505b5091509150816101da57600080fd5b9150505b92915050565b6001546001600160a01b0316331461020e5760405162461bcd60e51b815260040161016690611af9565b600054600160a01b900460ff16156102b35760006060846001600160a01b0316848460405161023d9190611888565b60006040518083038185875af1925050503d806000811461027a576040519150601f19603f3d011682016040523d82523d6000602084013e61027f565b606091505b5091509150816102ab5761029281610c51565b60405162461bcd60e51b815260040161016691906119b2565b805160208201f35b60006102cf6102ca8383600463ffffffff610d5716565b610d74565b60e01b90506102dc611277565b604051632f1a48af60e01b815273__BorrowProxyLib________________________90632f1a48af906103189060009089908790600401611c34565b60606040518083038186803b15801561033057600080fd5b505af4158015610344573d6000803e3d6000fd5b505050506040513d601f19601f82011682018060405250610368919081019061168f565b90506103778160200151610d96565b6103935760405162461bcd60e51b815260040161016690611a23565b600060606103a883868863ffffffff610da516565b91509150816102ab5761029281610c51565b60006103c582610e4c565b6103e15760405162461bcd60e51b815260040161016690611acb565b6103e961129f565b828060200190516103fd9190810190611709565b600680546040805160208084028201810190925282815293945060609392919083018282801561045657602002820191906000526020600020905b81546001600160a01b03168152600190910190602001808311610438575b505050505090504382602001516020015160000151106107645760035460ff16610501578151602001516040516370a0823160e01b81526001600160a01b03909116906370a08231906104ad9030906004016118a4565b60206040518083038186803b1580156104c557600080fd5b505afa1580156104d9573d6000803e3d6000fd5b505050506040513d601f19601f820116820180604052506104fd91908101906117c7565b6004555b6003805460ff191660011790556002545b815181101561056a57620493e05a108061054e575061054c82828151811061053657fe5b60200260200101516001600160a01b0316610ecf565b155b1561056257600255506000915061076b9050565b600101610512565b50805160025560008054600480548551602001516040516370a0823160e01b81526001600160a01b03948516959294929391909216916370a08231916105b2913091016118a4565b60206040518083038186803b1580156105ca57600080fd5b505afa1580156105de573d6000803e3d6000fd5b505050506040513d601f19601f8201168201806040525061060291908101906117c7565b905081810360008082126106165781610619565b60005b875160608101516020909101516040516303cc556d60e51b81529290910392506001600160a01b0387169163801874ec9190839063798aada0906106619084906004016118a4565b60206040518083038186803b15801561067957600080fd5b505afa15801561068d573d6000803e3d6000fd5b505050506040513d601f19601f820116820180604052506106b19190810190611640565b60208b0151518b51606001516040516001600160e01b031960e087901b1681526106e694939291889003908890600401611907565b602060405180830381600087803b15801561070057600080fd5b505af1158015610714573d6000803e3d6000fd5b505050506040513d601f19601f8201168201806040525061073891908101906115ed565b6107545760405162461bcd60e51b815260040161016690611bfd565b600197505050505050505061076b565b6000925050505b919050565b6001546000906001600160a01b03161561079c5760405162461bcd60e51b8152600401610166906119c5565b50600080546001600160a01b03199081163317909155600180546001600160a01b0384169216919091178155919050565b60006107d76112bf565b828060200190516107eb9190810190611725565b905061081981600001516040516020016108059190611c5d565b604051602081830303815290604052610e4c565b6108355760405162461bcd60e51b815260040161016690611acb565b60035460ff16156108585760405162461bcd60e51b815260040161016690611bc6565b60008054825151602001516040516307ef1e3760e21b81526001600160a01b0390921691631fbc78dc9161088e916004016118a4565b60206040518083038186803b1580156108a657600080fd5b505afa1580156108ba573d6000803e3d6000fd5b505050506040513d601f19601f820116820180604052506108de9190810190611640565b6001600160a01b031663bb4a1d8c83606001518460000151600001516060015161090786610fa8565b86608001516040518563ffffffff1660e01b815260040161092b9493929190611983565b602060405180830381600087803b15801561094557600080fd5b505af1158015610959573d6000803e3d6000fd5b505050506040513d601f19601f8201168201806040525061097d91908101906117c7565b8251909150600090610995908363ffffffff610fea16565b6000805460ff60a01b1916600160a01b17808255855151602001516040516303cc556d60e51b815293945091926001600160a01b039091169163798aada0916109e191906004016118a4565b60206040518083038186803b1580156109f957600080fd5b505afa158015610a0d573d6000803e3d6000fd5b505050506040513d601f19601f82011682018060405250610a319190810190611640565b84515160200151909150610a57906001600160a01b03168284860363ffffffff61102a16565b610a735760405162461bcd60e51b815260040161016690611a9c565b83516020808201515191510151610a9c916001600160a01b03909116908463ffffffff61102a16565b610ab85760405162461bcd60e51b8152600401610166906119f5565b600080548551805160209081015191810151805190820151909101516040516320061d3b60e21b81526001600160a01b039094169463801874ec94610b069493889390929091600401611907565b602060405180830381600087803b158015610b2057600080fd5b505af1158015610b34573d6000803e3d6000fd5b505050506040513d601f19601f82011682018060405250610b5891908101906115ed565b610b745760405162461bcd60e51b815260040161016690611b83565b8351805151610b82916110cd565b50505050919050565b606060006060846001600160a01b03168585604051602401610bae92919061193b565b60408051601f198184030181529181526020820180516001600160e01b031663023e3b7360e41b17905251610be39190611888565b600060405180830381855afa9150503d8060008114610c1e576040519150601f19603f3d011682016040523d82523d6000602084013e610c23565b606091505b5091509150818190610c485760405162461bcd60e51b815260040161016691906119b2565b50949350505050565b6060815160001415610c97575060408051808201909152601c81527f636170747572656420656d707479207265766572742062756666657200000000602082015261076b565b6308c379a0610cac6102ca8460006004610d57565b63ffffffff1614610cd7576040518060600160405280603f8152602001611d00603f9139905061076b565b6060610cf2610ced84600463ffffffff61111216565b611136565b9050805160001415610d3957505060408051808201909152601d81527f636170747572656420656d70747920726576657274206d657373616765000000602082015261076b565b606081806020019051610d4f919081019061165c565b949350505050565b610d5f6112f6565b92820160209081018452830152604082015290565b805160209182015191829003900351600160089092029190911b600019011690565b516001600160a01b0316151590565b60006060600060608660200151600001516001600160a01b03165a6020808a01518051908201518b51604051610de2943292918d918f91016118b8565b60408051601f1981840301815290829052610dfc91611888565b6000604051808303818686f4925050503d8060008114610e38576040519150601f19603f3d011682016040523d82523d6000602084013e610e3d565b606091505b50909890975095505050505050565b600080546040516308f6049560e01b81526001600160a01b03909116906308f6049590610e7d9085906004016119b2565b602060405180830381600087803b158015610e9757600080fd5b505af1158015610eab573d6000803e3d6000fd5b505050506040513d601f19601f820116820180604052506101de91908101906115ed565b6000806060836001600160a01b031684604051602401610eef91906118a4565b60408051601f198184030181529181526020820180516001600160e01b03166305f0caad60e31b17905251610f249190611888565b600060405180830381855af49150503d8060008114610f5f576040519150601f19603f3d011682016040523d82523d6000602084013e610f64565b606091505b50915091508051602014610f7d5760009250505061076b565b600081806020019051610f9391908101906115ed565b9050828015610f9f5750805b95945050505050565b805151604090810151602080840151838501519351600094610fcd9493909101611872565b604051602081830303815290604052805190602001209050919050565b6000611023670de0b6b3a7640000611017856020015160200151606001518561118690919063ffffffff16565b9063ffffffff6111c016565b9392505050565b600080846001600160a01b0316848460405160240161104a92919061195f565b60408051601f198184030181529181526020820180516001600160e01b031663a9059cbb60e01b1790525161107f9190611888565b6000604051808303816000865af19150503d80600081146110bc576040519150601f19603f3d011682016040523d82523d6000602084013e6110c1565b606091505b50909695505050505050565b816001600160a01b03167f8118f0dfd16240978600a1121acd44dd113e1071790496f111043c87672720bf826040516111069190611c5d565b60405180910390a25050565b61111a6112f6565b818351101561112857825191505b611023838384865103610d57565b60208082015160408051828152601f19601f84011681019093019052606091818015611169576020820181803883390190505b5083519092506020830161117e818385611202565b505050919050565b600082611195575060006101de565b828202828482816111a257fe5b04146110235760405162461bcd60e51b815260040161016690611b42565b600061102383836040518060400160405280601a81526020017f536166654d6174683a206469766973696f6e206279207a65726f000000000000815250611240565b5b60208110611222578151835260209283019290910190601f1901611203565b600180600883602003021b0380845116811984511617845250505050565b600081836112615760405162461bcd60e51b815260040161016691906119b2565b50600083858161126d57fe5b0495945050505050565b604051806040016040528060006001600160a01b0316815260200161129a611317565b905290565b60405180604001604052806112b261132e565b815260200161129a611355565b6040518060a001604052806112d261129f565b81526000602082018190526040820181905260608083019190915260809091015290565b60405180606001604052806000815260200160008152602001600081525090565b604080518082019091526000808252602082015290565b60408051608081018252600080825260208201819052918101829052606081019190915290565b604051806040016040528060006001600160a01b0316815260200161129a6040518060800160405280600081526020016000815260200160008152602001600081525090565b600082601f8301126113ab578081fd5b81516113be6113b982611c93565b611c6c565b91508082528360208285010111156113d557600080fd5b6113e6816020840160208601611cb7565b5092915050565b600082601f8301126113fd578081fd5b813561140b6113b982611c93565b915080825283602082850101111561142257600080fd5b8060208401602084013760009082016020015292915050565b600081830361012081121561144e578182fd5b6114586040611c6c565b9150608081121561146857600080fd5b6114726080611c6c565b835161147d81611ce7565b8152602084015161148d81611ce7565b60208201526040848101519082015260608085015190820152825260a0607f19820112156114ba57600080fd5b6114c46040611c6c565b60808401516114d281611ce7565b81526080609f19830112156114e657600080fd5b6114f06080611c6c565b915060a0840151825260c0840151602083015260e084015160408301526101008401516060830152816020820152806020840152505092915050565b60006020828403121561153d578081fd5b813561102381611ce7565b6000806040838503121561155a578081fd5b823561156581611ce7565b9150602083013567ffffffffffffffff811115611580578182fd5b61158c858286016113ed565b9150509250929050565b6000806000606084860312156115aa578081fd5b83356115b581611ce7565b925060208401359150604084013567ffffffffffffffff8111156115d7578182fd5b6115e3868287016113ed565b9150509250925092565b6000602082840312156115fe578081fd5b81518015158114611023578182fd5b60006020828403121561161e578081fd5b813567ffffffffffffffff811115611634578182fd5b610d4f848285016113ed565b600060208284031215611651578081fd5b815161102381611ce7565b60006020828403121561166d578081fd5b815167ffffffffffffffff811115611683578182fd5b610d4f8482850161139b565b600081830360608112156116a1578182fd5b6116ab6040611c6c565b83516116b681611ce7565b81526040601f19830112156116c9578283fd5b6116d36040611c6c565b915060208401516116e381611ce7565b825260408401516116f381611ce7565b6020838101919091528101919091529392505050565b6000610120828403121561171b578081fd5b611023838361143b565b600060208284031215611736578081fd5b815167ffffffffffffffff8082111561174d578283fd5b8184016101a08187031215611760578384fd5b61176a60a0611c6c565b9250611776868261143b565b8352610120810151602084015261014081015160408401526101608101516060840152610180810151828111156117ab578485fd5b6117b78782840161139b565b6080850152509195945050505050565b6000602082840312156117d8578081fd5b5051919050565b600081518084526117f7816020860160208601611cb7565b601f01601f19169290920160200192915050565b805180516001600160a01b0390811684526020808301518216818601526040808401518187015260609384015184870152938101518051909216608086015290810151805160a08601529081015160c08501529182015160e0840152015161010090910152565b9283526020830191909152604082015260600190565b6000825161189a818460208701611cb7565b9190910192915050565b6001600160a01b0391909116815260200190565b6001600160a01b03878116825286811660208301528581166040830152841660608201526080810183905260c060a082018190526000906118fb908301846117df565b98975050505050505050565b6001600160a01b03958616815293851660208501529190931660408301526060820192909252608081019190915260a00190565b6001600160a01b0383168152604060208201819052600090610d4f908301846117df565b6001600160a01b03929092168252602082015260400190565b901515815260200190565b6000858252846020830152836040830152608060608301526119a860808301846117df565b9695505050505050565b60006020825261102360208301846117df565b60208082526016908201527563616e277420696e697469616c697a6520747769636560501b604082015260600190565b6020808252601490820152731ad9595c195c881c185e5bdd5d0819985a5b195960621b604082015260600190565b6020808252601f908201527f66756e6374696f6e2068616e646c6572206e6f74207265676973746572656400604082015260600190565b60208082526022908201527f756e617574686f72697a65642076696577206c617965722064656c656761746960408201526137b760f11b606082015260800190565b6020808252601590820152741d1bdad95b881d1c985b9cd9995c8819985a5b1959605a1b604082015260600190565b6020808252601490820152731c1c9bde1e481c9958dbdc99081a5b9d985b1a5960621b604082015260600190565b60208082526029908201527f626f72726f772070726f78792063616e206f6e6c792062652075736564206279604082015268103137b93937bbb2b960b91b606082015260800190565b60208082526021908201527f536166654d6174683a206d756c7469706c69636174696f6e206f766572666c6f6040820152607760f81b606082015260800190565b60208082526023908201527f6c6f616e207265736f6c7574696f6e206e6f74696669636174696f6e206661696040820152621b195960ea1b606082015260800190565b60208082526019908201527f70726f7879206973206265696e67206c69717569646174656400000000000000604082015260600190565b60208082526017908201527f6c6f616e207265736f6c7574696f6e206661696c757265000000000000000000604082015260600190565b9283526001600160a01b039190911660208301526001600160e01b031916604082015260600190565b61012081016101de828461180b565b60405181810167ffffffffffffffff81118282101715611c8b57600080fd5b604052919050565b600067ffffffffffffffff821115611ca9578081fd5b50601f01601f191660200190565b60005b83811015611cd2578181015183820152602001611cba565b83811115611ce1576000848401525b50505050565b6001600160a01b0381168114611cfc57600080fd5b5056fe6361707475726564206120726576657274206572726f722c2062757420697420646f65736e277420636f6e666f726d20746f20746865207374616e64617264a2646970667358221220c175f2770cdbc165a91762cc0dbd8944582869a86868fd1a97da01162a90b2fa64736f6c63430006020033a26469706673582212206952825e1971eb85f6f6e0bd0287d30cadb5bdad2025d9b48e393fa90368038d64736f6c63430006020033",
  "source": "pragma solidity ^0.6.0;\npragma experimental ABIEncoderV2;\n\nimport { Ownable } from \"openzeppelin-solidity/contracts/access/Ownable.sol\";\nimport { IShifterRegistry } from \"./interfaces/IShifterRegistry.sol\";\nimport { IShifter } from \"./interfaces/IShifter.sol\";\nimport { ShifterPoolLib } from \"./ShifterPoolLib.sol\";\nimport { ShifterBorrowProxyLib } from \"./ShifterBorrowProxyLib.sol\";\nimport { ShifterBorrowProxyFactoryLib } from \"./ShifterBorrowProxyFactoryLib.sol\";\nimport { BorrowProxy } from \"./BorrowProxy.sol\";\nimport { BorrowProxyLib } from \"./BorrowProxyLib.sol\";\nimport { TokenUtils } from \"./utils/TokenUtils.sol\";\nimport { ViewExecutor } from \"./utils/ViewExecutor.sol\";\nimport { LiquidityToken } from \"./LiquidityToken.sol\";\n\ncontract ShifterPool is Ownable, ViewExecutor {\n  using ShifterPoolLib for *;\n  using TokenUtils for *;\n  using ShifterBorrowProxyLib for *;\n  using ShifterBorrowProxyFactoryLib for *;\n  using BorrowProxyLib for *;\n  ShifterPoolLib.Isolate isolate;\n  function setup(address shifterRegistry, uint256 poolFee, BorrowProxyLib.ModuleRegistration[] memory modules, ShifterPoolLib.LiquidityTokenLaunch[] memory tokenLaunches) public onlyOwner {\n    require(isolate.shifterRegistry == address(0x0), \"already initialized\");\n    isolate.shifterRegistry = shifterRegistry;\n    isolate.poolFee = poolFee;\n    for (uint256 i = 0; i < modules.length; i++) {\n      BorrowProxyLib.ModuleRegistration memory registration = modules[i];\n      for (uint256 j = 0; j < registration.sigs.length; j++) {\n        isolate.registry.registryRegisterModule(registration);\n      }\n    }\n    for (uint256 i = 0; i < tokenLaunches.length; i++) {\n      ShifterPoolLib.LiquidityTokenLaunch memory launch = tokenLaunches[i];\n      isolate.tokenToLiquidityToken[launch.token] = launch.liqToken;\n    }\n  }\n  function executeBorrow(ShifterBorrowProxyLib.LiquidityRequestParcel memory liquidityRequestParcel, uint256 bond, uint256 timeoutExpiry) public payable {\n    require(liquidityRequestParcel.gasRequested == msg.value, \"supplied ether is not equal to gas requested\");\n    bytes32 requestHash = liquidityRequestParcel.computeLiquidityRequestHash();\n    require(liquidityRequestParcel.validateSignature(requestHash), \"liquidity request signature rejected\");\n    ShifterBorrowProxyLib.LiquidityRequest memory liquidityRequest = liquidityRequestParcel.request;\n    bytes32 borrowerSalt = liquidityRequest.computeBorrowerSalt();\n    address payable proxyAddress = address(uint160(borrowerSalt.deriveBorrowerAddress()));\n    require(!isolate.borrowProxyController.isInitialized(proxyAddress), \"proxy has already been initialized\");\n    ShifterBorrowProxyLib.LenderRecord memory loan;\n    loan.keeper = msg.sender;\n    loan.params = isolate.computeLoanParams(liquidityRequest.amount, bond, timeoutExpiry);\n    ShifterBorrowProxyLib.ProxyRecord memory proxyRecord = ShifterBorrowProxyLib.ProxyRecord({\n      request: liquidityRequest,\n      loan: loan\n    });\n    bytes memory data = abi.encode(proxyRecord);\n    require(LiquidityToken(isolate.getLiquidityToken(liquidityRequest.token)).loan(proxyAddress, proxyRecord.computePostFee()), \"insufficient funds in liquidity pool\");\n    isolate.borrowProxyController.mapProxyRecord(proxyAddress, data);\n    isolate.borrowProxyController.setProxyOwner(proxyAddress, liquidityRequest.borrower);\n    liquidityRequest.borrower.transfer(msg.value);\n    require(liquidityRequest.token.transferTokenFrom(msg.sender, address(this), bond), \"bond submission failed\");\n    require(borrowerSalt.deployBorrowProxy() == proxyAddress, \"proxy deployment failed\");\n    require(BorrowProxy(proxyAddress).setup(liquidityRequest.borrower), \"setup phase failure\");\n    BorrowProxyLib.emitBorrowProxyMade(liquidityRequest.borrower, proxyAddress, data);\n  }\n  function validateProxyRecordHandler(bytes memory proxyRecord) public view returns (bool) {\n    return isolate.borrowProxyController.validateProxyRecord(msg.sender, proxyRecord);\n  }\n  function getProxyOwnerHandler(address user) public view returns (address) {\n    return isolate.borrowProxyController.getProxyOwner(user);\n  }\n  function getShifterHandler(address token) public view returns (IShifter) {\n    return isolate.getShifter(token);\n  }\n  function getLiquidityTokenHandler(address token) public view returns (LiquidityToken) {\n    return LiquidityToken(isolate.getLiquidityToken(token));\n  }\n  function fetchModuleHandler(address to, bytes4 sig) public view returns (BorrowProxyLib.Module memory) {\n    return isolate.registry.resolveModule(to, sig);\n  }\n  function relayResolveLoan(address token, address liquidityToken, address keeper, uint256 bond, uint256 repay) public returns (bool) {\n    require(isolate.borrowProxyController.proxyInitializerRecord[msg.sender] != bytes32(0x0), \"not a registered borrow proxy\");\n    if (bond != 0) require(token.sendToken(keeper, bond), \"failed to return bond to keeper\");\n    if (repay != 0) require(token.sendToken(liquidityToken, repay), \"failed to repay lost funds\");\n    require(LiquidityToken(liquidityToken).resolveLoan(msg.sender), \"loan resolution failure\");\n    return true;\n  }\n}\n",
  "sourcePath": "/home/ray/0confirmation/packages/0confirmation-sol/contracts/ShifterPool.sol",
  "compiler": {
    "name": "solc",
    "version": "0.6.2+commit.bacdbe57.Emscripten.clang"
  },
  "schemaVersion": "3.0.23",
  "updatedAt": "2020-04-04T04:47:50.988Z",
  "devdoc": {
    "methods": {
      "owner()": {
        "details": "Returns the address of the current owner."
      },
      "renounceOwnership()": {
        "details": "Leaves the contract without owner. It will not be possible to call `onlyOwner` functions anymore. Can only be called by the current owner.     * NOTE: Renouncing ownership will leave the contract without an owner, thereby removing any functionality that is only available to the owner."
      },
      "transferOwnership(address)": {
        "details": "Transfers ownership of the contract to a new account (`newOwner`). Can only be called by the current owner."
      }
    }
  },
  "userdoc": {
    "methods": {}
  }
}