{
  "contractName": "ShifterPool",
  "abi": [
    {
      "inputs": [],
      "stateMutability": "nonpayable",
      "type": "constructor"
    },
    {
      "anonymous": false,
      "inputs": [
        {
          "indexed": true,
          "internalType": "address",
          "name": "previousOwner",
          "type": "address"
        },
        {
          "indexed": true,
          "internalType": "address",
          "name": "newOwner",
          "type": "address"
        }
      ],
      "name": "OwnershipTransferred",
      "type": "event"
    },
    {
      "inputs": [
        {
          "internalType": "bytes",
          "name": "creationCode",
          "type": "bytes"
        },
        {
          "internalType": "bytes",
          "name": "context",
          "type": "bytes"
        }
      ],
      "name": "_executeSafeView",
      "outputs": [],
      "stateMutability": "nonpayable",
      "type": "function"
    },
    {
      "inputs": [
        {
          "internalType": "bytes",
          "name": "consData",
          "type": "bytes"
        }
      ],
      "name": "cloneConstructor",
      "outputs": [],
      "stateMutability": "nonpayable",
      "type": "function"
    },
    {
      "inputs": [],
      "name": "owner",
      "outputs": [
        {
          "internalType": "address",
          "name": "",
          "type": "address"
        }
      ],
      "stateMutability": "view",
      "type": "function"
    },
    {
      "inputs": [
        {
          "internalType": "bytes",
          "name": "creationCode",
          "type": "bytes"
        },
        {
          "internalType": "bytes",
          "name": "context",
          "type": "bytes"
        }
      ],
      "name": "query",
      "outputs": [
        {
          "components": [
            {
              "internalType": "bool",
              "name": "success",
              "type": "bool"
            },
            {
              "internalType": "bytes",
              "name": "data",
              "type": "bytes"
            }
          ],
          "internalType": "struct SafeViewLib.SafeViewResult",
          "name": "",
          "type": "tuple"
        }
      ],
      "stateMutability": "nonpayable",
      "type": "function"
    },
    {
      "inputs": [],
      "name": "renounceOwnership",
      "outputs": [],
      "stateMutability": "nonpayable",
      "type": "function"
    },
    {
      "inputs": [
        {
          "internalType": "address",
          "name": "newOwner",
          "type": "address"
        }
      ],
      "name": "transferOwnership",
      "outputs": [],
      "stateMutability": "nonpayable",
      "type": "function"
    },
    {
      "inputs": [
        {
          "internalType": "address",
          "name": "shifterRegistry",
          "type": "address"
        },
        {
          "internalType": "uint256",
          "name": "minTimeout",
          "type": "uint256"
        },
        {
          "internalType": "uint256",
          "name": "poolFee",
          "type": "uint256"
        },
        {
          "components": [
            {
              "internalType": "enum BorrowProxyLib.ModuleRegistrationType",
              "name": "moduleType",
              "type": "uint8"
            },
            {
              "internalType": "address",
              "name": "target",
              "type": "address"
            },
            {
              "internalType": "bytes4[]",
              "name": "sigs",
              "type": "bytes4[]"
            }
          ],
          "internalType": "struct BorrowProxyLib.ModuleDetails[]",
          "name": "moduleDetails",
          "type": "tuple[]"
        },
        {
          "components": [
            {
              "internalType": "bool",
              "name": "isPrecompiled",
              "type": "bool"
            },
            {
              "internalType": "address",
              "name": "assetSubmodule",
              "type": "address"
            },
            {
              "internalType": "address",
              "name": "liquidationSubmodule",
              "type": "address"
            },
            {
              "internalType": "address",
              "name": "repaymentSubmodule",
              "type": "address"
            }
          ],
          "internalType": "struct BorrowProxyLib.Module[]",
          "name": "modules",
          "type": "tuple[]"
        },
        {
          "components": [
            {
              "internalType": "address",
              "name": "token",
              "type": "address"
            },
            {
              "internalType": "address",
              "name": "liqToken",
              "type": "address"
            }
          ],
          "internalType": "struct ShifterPoolLib.LiquidityTokenLaunch[]",
          "name": "tokenLaunches",
          "type": "tuple[]"
        }
      ],
      "name": "setup",
      "outputs": [],
      "stateMutability": "nonpayable",
      "type": "function"
    },
    {
      "inputs": [
        {
          "internalType": "address",
          "name": "token",
          "type": "address"
        }
      ],
      "name": "getLiquidityTokenForTokenHandler",
      "outputs": [
        {
          "internalType": "address",
          "name": "",
          "type": "address"
        }
      ],
      "stateMutability": "view",
      "type": "function"
    },
    {
      "inputs": [],
      "name": "deployBorrowProxyImplementation",
      "outputs": [],
      "stateMutability": "nonpayable",
      "type": "function"
    },
    {
      "inputs": [],
      "name": "deployAssetForwarderImplementation",
      "outputs": [],
      "stateMutability": "nonpayable",
      "type": "function"
    },
    {
      "inputs": [
        {
          "internalType": "bytes32",
          "name": "salt",
          "type": "bytes32"
        }
      ],
      "name": "deployAssetForwarderClone",
      "outputs": [
        {
          "internalType": "address",
          "name": "created",
          "type": "address"
        }
      ],
      "stateMutability": "nonpayable",
      "type": "function"
    },
    {
      "inputs": [],
      "name": "getAssetForwarderImplementationHandler",
      "outputs": [
        {
          "internalType": "address",
          "name": "implementation",
          "type": "address"
        }
      ],
      "stateMutability": "view",
      "type": "function"
    },
    {
      "inputs": [
        {
          "components": [
            {
              "components": [
                {
                  "internalType": "address payable",
                  "name": "borrower",
                  "type": "address"
                },
                {
                  "internalType": "address",
                  "name": "token",
                  "type": "address"
                },
                {
                  "internalType": "bytes32",
                  "name": "nonce",
                  "type": "bytes32"
                },
                {
                  "internalType": "uint256",
                  "name": "amount",
                  "type": "uint256"
                },
                {
                  "internalType": "bool",
                  "name": "forbidLoan",
                  "type": "bool"
                },
                {
                  "components": [
                    {
                      "internalType": "address",
                      "name": "to",
                      "type": "address"
                    },
                    {
                      "internalType": "bytes",
                      "name": "txData",
                      "type": "bytes"
                    }
                  ],
                  "internalType": "struct ShifterBorrowProxyLib.InitializationAction[]",
                  "name": "actions",
                  "type": "tuple[]"
                }
              ],
              "internalType": "struct ShifterBorrowProxyLib.LiquidityRequest",
              "name": "request",
              "type": "tuple"
            },
            {
              "internalType": "uint256",
              "name": "gasRequested",
              "type": "uint256"
            },
            {
              "internalType": "bytes",
              "name": "signature",
              "type": "bytes"
            }
          ],
          "internalType": "struct ShifterBorrowProxyLib.LiquidityRequestParcel",
          "name": "liquidityRequestParcel",
          "type": "tuple"
        },
        {
          "internalType": "uint256",
          "name": "bond",
          "type": "uint256"
        },
        {
          "internalType": "uint256",
          "name": "timeoutExpiry",
          "type": "uint256"
        }
      ],
      "name": "executeBorrow",
      "outputs": [],
      "stateMutability": "payable",
      "type": "function"
    },
    {
      "inputs": [
        {
          "components": [
            {
              "components": [
                {
                  "components": [
                    {
                      "internalType": "address payable",
                      "name": "borrower",
                      "type": "address"
                    },
                    {
                      "internalType": "address",
                      "name": "token",
                      "type": "address"
                    },
                    {
                      "internalType": "bytes32",
                      "name": "nonce",
                      "type": "bytes32"
                    },
                    {
                      "internalType": "uint256",
                      "name": "amount",
                      "type": "uint256"
                    },
                    {
                      "internalType": "bool",
                      "name": "forbidLoan",
                      "type": "bool"
                    },
                    {
                      "components": [
                        {
                          "internalType": "address",
                          "name": "to",
                          "type": "address"
                        },
                        {
                          "internalType": "bytes",
                          "name": "txData",
                          "type": "bytes"
                        }
                      ],
                      "internalType": "struct ShifterBorrowProxyLib.InitializationAction[]",
                      "name": "actions",
                      "type": "tuple[]"
                    }
                  ],
                  "internalType": "struct ShifterBorrowProxyLib.LiquidityRequest",
                  "name": "request",
                  "type": "tuple"
                },
                {
                  "internalType": "uint256",
                  "name": "gasRequested",
                  "type": "uint256"
                },
                {
                  "internalType": "bytes",
                  "name": "signature",
                  "type": "bytes"
                }
              ],
              "internalType": "struct ShifterBorrowProxyLib.LiquidityRequestParcel",
              "name": "liquidityRequestParcel",
              "type": "tuple"
            },
            {
              "components": [
                {
                  "internalType": "bytes32",
                  "name": "txhash",
                  "type": "bytes32"
                },
                {
                  "internalType": "uint256",
                  "name": "vout",
                  "type": "uint256"
                },
                {
                  "internalType": "bytes32",
                  "name": "pHash",
                  "type": "bytes32"
                },
                {
                  "internalType": "bytes",
                  "name": "darknodeSignature",
                  "type": "bytes"
                }
              ],
              "internalType": "struct ShifterBorrowProxyLib.ShiftParameters",
              "name": "shiftParameters",
              "type": "tuple"
            },
            {
              "components": [
                {
                  "internalType": "address",
                  "name": "to",
                  "type": "address"
                },
                {
                  "internalType": "bytes",
                  "name": "txData",
                  "type": "bytes"
                }
              ],
              "internalType": "struct ShifterBorrowProxyLib.InitializationAction[]",
              "name": "actions",
              "type": "tuple[]"
            }
          ],
          "internalType": "struct ShifterBorrowProxyLib.SansBorrowShiftParcel",
          "name": "parcel",
          "type": "tuple"
        }
      ],
      "name": "executeShiftSansBorrow",
      "outputs": [],
      "stateMutability": "payable",
      "type": "function"
    },
    {
      "inputs": [
        {
          "internalType": "bytes",
          "name": "proxyRecord",
          "type": "bytes"
        }
      ],
      "name": "validateProxyRecordHandler",
      "outputs": [
        {
          "internalType": "bool",
          "name": "",
          "type": "bool"
        }
      ],
      "stateMutability": "view",
      "type": "function"
    },
    {
      "inputs": [
        {
          "internalType": "address",
          "name": "proxyAddress",
          "type": "address"
        }
      ],
      "name": "getProxyTokenHandler",
      "outputs": [
        {
          "internalType": "address",
          "name": "",
          "type": "address"
        }
      ],
      "stateMutability": "view",
      "type": "function"
    },
    {
      "inputs": [
        {
          "internalType": "address",
          "name": "user",
          "type": "address"
        }
      ],
      "name": "getProxyOwnerHandler",
      "outputs": [
        {
          "internalType": "address",
          "name": "",
          "type": "address"
        }
      ],
      "stateMutability": "view",
      "type": "function"
    },
    {
      "inputs": [
        {
          "internalType": "address",
          "name": "token",
          "type": "address"
        }
      ],
      "name": "getShifterHandler",
      "outputs": [
        {
          "internalType": "contract IShifter",
          "name": "",
          "type": "address"
        }
      ],
      "stateMutability": "view",
      "type": "function"
    },
    {
      "inputs": [
        {
          "internalType": "address",
          "name": "token",
          "type": "address"
        }
      ],
      "name": "getLiquidityTokenHandler",
      "outputs": [
        {
          "internalType": "contract LiquidityToken",
          "name": "",
          "type": "address"
        }
      ],
      "stateMutability": "view",
      "type": "function"
    },
    {
      "inputs": [
        {
          "internalType": "address",
          "name": "to",
          "type": "address"
        },
        {
          "internalType": "bytes4",
          "name": "sig",
          "type": "bytes4"
        }
      ],
      "name": "fetchModuleHandler",
      "outputs": [
        {
          "components": [
            {
              "internalType": "bool",
              "name": "isPrecompiled",
              "type": "bool"
            },
            {
              "internalType": "address",
              "name": "assetSubmodule",
              "type": "address"
            },
            {
              "internalType": "address",
              "name": "liquidationSubmodule",
              "type": "address"
            },
            {
              "internalType": "address",
              "name": "repaymentSubmodule",
              "type": "address"
            }
          ],
          "internalType": "struct BorrowProxyLib.Module",
          "name": "",
          "type": "tuple"
        }
      ],
      "stateMutability": "view",
      "type": "function"
    },
    {
      "inputs": [
        {
          "internalType": "address",
          "name": "token",
          "type": "address"
        },
        {
          "internalType": "address",
          "name": "liquidityToken",
          "type": "address"
        },
        {
          "internalType": "address",
          "name": "keeper",
          "type": "address"
        },
        {
          "internalType": "uint256",
          "name": "bond",
          "type": "uint256"
        },
        {
          "internalType": "uint256",
          "name": "repay",
          "type": "uint256"
        }
      ],
      "name": "relayResolveLoan",
      "outputs": [
        {
          "internalType": "bool",
          "name": "",
          "type": "bool"
        }
      ],
      "stateMutability": "nonpayable",
      "type": "function"
    }
  ],
  "bytecode": "0x60806040523480156200001157600080fd5b506000620000276001600160e01b036200007b16565b600080546001600160a01b0319166001600160a01b0383169081178255604051929350917f8be0079c531659141344cd1fd0a4f28419497f9722a3daafe3b4186f6b6457e0908290a350436001556200007f565b3390565b613eef806200008f6000396000f3fe60806040526004361061012a5760003560e01c806365ba837a116100ab57806393e93abe1161006f57806393e93abe1461031557806397e4da5a1461032a578063d0a80e311461034a578063dc74245e1461036a578063e6c1f0741461037d578063f2fde38b1461039d5761012a565b806365ba837a14610296578063715018a6146102ab578063798aada0146102c0578063801874ec146102e05780638da5cb5b146103005761012a565b806334686eaf116100f257806334686eaf146101e7578063441123601461021457806352e831dd146102415780635f7d2b571461026157806363091aa3146102815761012a565b806308f604951461012f5780631fbc78dc146101655780632593b0531461019257806329658b02146101b25780632b19a598146101d2575b600080fd5b34801561013b57600080fd5b5061014f61014a366004612be7565b6103bd565b60405161015c9190613216565b60405180910390f35b34801561017157600080fd5b5061018561018036600461296f565b6103d7565b60405161015c9190613125565b34801561019e57600080fd5b506101856101ad366004612bcf565b6103ea565b3480156101be57600080fd5b506101856101cd36600461296f565b610467565b6101e56101e0366004612d78565b61047a565b005b3480156101f357600080fd5b50610207610202366004612c19565b6104b2565b60405161015c9190613a9b565b34801561022057600080fd5b5061023461022f366004612a01565b6104d1565b60405161015c91906139b5565b34801561024d57600080fd5b506101e561025c366004612be7565b6104eb565b34801561026d57600080fd5b506101e561027c366004612c19565b6104ee565b34801561028d57600080fd5b506101e5610539565b3480156102a257600080fd5b5061018561058c565b3480156102b757600080fd5b506101e561059b565b3480156102cc57600080fd5b506101856102db36600461296f565b61061a565b3480156102ec57600080fd5b5061014f6102fb3660046129a7565b61062d565b34801561030c57600080fd5b50610185610777565b34801561032157600080fd5b506101e5610786565b34801561033657600080fd5b506101e5610345366004612a39565b6107b0565b34801561035657600080fd5b5061018561036536600461296f565b61095f565b6101e5610378366004612c79565b61097d565b34801561038957600080fd5b5061018561039836600461296f565b6109e8565b3480156103a957600080fd5b506101e56103b836600461296f565b6109fb565b60006103d1600a338463ffffffff610ab116565b92915050565b60006103d160018363ffffffff610ad716565b60006103fd600a3363ffffffff610b5a16565b6104225760405162461bcd60e51b8152600401610419906132dc565b60405180910390fd5b6003546103d1906001600160a01b031661043a610b78565b8460405160200161044c929190613093565b60405160208183030381529060405280519060200120610b9c565b60006103d1600a8363ffffffff610ba816565b6000606061048783610bcb565b9150915080516000146104ad576104ad6001600160a01b0383168263ffffffff610f2616565b505050565b6104ba612417565b6104ca838363ffffffff610f8016565b9392505050565b6104d961242f565b6104ca600e848463ffffffff610ff916565b50565b600061050360006104fd6110e7565b8561110b565b905060606105286105236001600160a01b0384168563ffffffff61117d16565b611207565b905061053381611230565b50505050565b61056a60017ffe1e3164ba4910db3c9afd049cd8feb4552390569c846692e6df4ac68aeaa90e63ffffffff61123816565b600280546001600160a01b0319166001600160a01b0392909216919091179055565b6003546001600160a01b031690565b6105a36112a0565b6000546001600160a01b039081169116146105d05760405162461bcd60e51b8152600401610419906137a5565b600080546040516001600160a01b03909116907f8be0079c531659141344cd1fd0a4f28419497f9722a3daafe3b4186f6b6457e0908390a3600080546001600160a01b0319169055565b60006103d160018363ffffffff6112a416565b336000908152600a60205260408120546106595760405162461bcd60e51b8152600401610419906135dc565b8215610695576106796001600160a01b038716858563ffffffff6112e016565b6106955760405162461bcd60e51b8152600401610419906136e9565b81156106d1576106b56001600160a01b038716868463ffffffff6112e016565b6106d15760405162461bcd60e51b8152600401610419906134f2565b60405163c3275c7960e01b81526001600160a01b0386169063c3275c79906106fd903390600401613125565b602060405180830381600087803b15801561071757600080fd5b505af115801561072b573d6000803e3d6000fd5b505050506040513d601f19601f8201168201806040525081019061074f9190612bb3565b61076b5760405162461bcd60e51b81526004016104199061391b565b50600195945050505050565b6000546001600160a01b031690565b61078e611352565b600380546001600160a01b0319166001600160a01b0392909216919091179055565b6107b86112a0565b6000546001600160a01b039081169116146107e55760405162461bcd60e51b8152600401610419906137a5565b82518251146108065760405162461bcd60e51b81526004016104199061387b565b600480546001600160a01b0319166001600160a01b0388161790556005859055600684905560005b82518110156108ea5761083f612456565b604051806080016040528086848151811061085657fe5b602002602001015160000151600281111561086d57fe5b815260200186848151811061087e57fe5b6020026020010151602001516001600160a01b031681526020018684815181106108a457fe5b60200260200101516040015181526020018584815181106108c157fe5b6020908102919091010151905290506108e1600e8263ffffffff6113aa16565b5060010161082e565b5060005b8151811015610956576108ff612484565b82828151811061090b57fe5b6020908102919091018101518082015190516001600160a01b0390811660009081526009909352604090922080546001600160a01b03191692909116919091179055506001016108ee565b50505050505050565b6001600160a01b039081166000908152600960205260409020541690565b825160a001516000610990858585611464565b9050600061099d82611648565b865180516020909101519192506109c7916001600160a01b0384169190600063ffffffff61166116565b6109e06001600160a01b0382168463ffffffff610f2616565b505050505050565b60006103d1600a8363ffffffff6116ff16565b610a036112a0565b6000546001600160a01b03908116911614610a305760405162461bcd60e51b8152600401610419906137a5565b6001600160a01b038116610a565760405162461bcd60e51b8152600401610419906133fb565b600080546040516001600160a01b03808516939216917f8be0079c531659141344cd1fd0a4f28419497f9722a3daafe3b4186f6b6457e091a3600080546001600160a01b0319166001600160a01b0392909216919091179055565b80516020918201206001600160a01b039290921660009081529290526040909120541490565b600382015460405163028c4f4160e41b81526000916001600160a01b0316906328c4f41090610b0a908590600401613125565b60206040518083038186803b158015610b2257600080fd5b505afa158015610b36573d6000803e3d6000fd5b505050506040513d601f19601f820116820180604052508101906104ca919061298b565b6001600160a01b031660009081526020919091526040902054151590565b7f6b6f6b75258f8f4cdb6ef275682bc2be3e8b970e5e4417113bd1ea53622d907e90565b60006104ca8383611722565b6001600160a01b0380821660009081526002840160205260409020541692915050565b60006060610bd761249b565b60408051608081018252855151818301908152825180840190935233835286515160609081015192938493918401916020820190610c1e90600190600a81046103e8611772565b90529052815260408051608081018252602088810180515183528051820151838301528051840151938301939093529151606090810151908201529101528451909150610c7c90610c6e90611872565b85519063ffffffff61188b16565b610c985760405162461bcd60e51b815260040161041990613761565b835151600090610ca7906118bc565b600254909150610cc6906001600160a01b03168263ffffffff6118c716565b9350610cd9600a8563ffffffff610b5a16565b15610cf65760405162461bcd60e51b81526004016104199061331f565b610d2b846001604051602001610d0c919061311c565b60408051601f19818403018152919052600a919063ffffffff6118d316565b84515160200151610d449060019063ffffffff610ad716565b6001600160a01b031663159ab14d86602001516040015187600001516000015160600151610d71866118f6565b8960200151606001516040518563ffffffff1660e01b8152600401610d999493929190613221565b602060405180830381600087803b158015610db357600080fd5b505af1158015610dc7573d6000803e3d6000fd5b505050506040513d601f19601f82011682018060405250810190610deb9190612e77565b50845151606001518251600091610e08919063ffffffff61190116565b9050610e1382611648565b508551518051602090910151610e3b916001600160a01b03881691600163ffffffff61166116565b855151516001600160a01b03163314801590610e5b575085516020015134145b15610ee657855151516040516001600160a01b03909116903480156108fc02916000818181858888f19350505050158015610e9a573d6000803e3d6000fd5b5085515160200151610ebc906001600160a01b0316338363ffffffff6112e016565b610ed85760405162461bcd60e51b815260040161041990613441565b85515160a001519350610f1e565b855151516001600160a01b0316331415610f065785604001519350610f1e565b60405162461bcd60e51b8152600401610419906137da565b505050915091565b604051630bfceb2b60e31b81526001600160a01b03831690635fe7595890610f5290849060040161319a565b600060405180830381600087803b158015610f6c57600080fd5b505af11580156109e0573d6000803e3d6000fd5b610f88612417565b606030610f95858561192e565b604051610fa291906130cf565b6000604051808303816000865af19150503d8060008114610fdf576040519150601f19603f3d011682016040523d82523d6000602084013e610fe4565b606091505b50915050610ff181611984565b949350505050565b61100161242f565b61100961242f565b84600061101686866119a0565b815260208082019290925260409081016000208151608081018352815460ff8116151582526001600160a01b0361010090910481169482019490945260018201548416928101929092526002015490911660608201529050611077816119c8565b610ff15784600061108886866119da565b815260208082019290925260409081016000208151608081018352815460ff81161515825261010090046001600160a01b0390811694820194909452600182015484169281019290925260020154909116606082015295945050505050565b7fad53495153c7c363e98a26920ec679e0e687636458f6908c91cf6deadb19080190565b6000808447101561112e5760405162461bcd60e51b81526004016104199061397e565b825161114c5760405162461bcd60e51b815260040161041990613361565b8383516020850187f590506001600160a01b038116610ff15760405162461bcd60e51b8152600401610419906136b2565b611185612417565b60006060846001600160a01b031661119c856119f5565b6040516111a991906130cf565b600060405180830381855af49150503d80600081146111e4576040519150601f19603f3d011682016040523d82523d6000602084013e6111e9565b606091505b50604080518082019091529115158252602082015295945050505050565b60608160405160200161121a9190613a9b565b6040516020818303038152906040529050919050565b805160208201fd5b60405163dd678a0760e01b815260009073__ShifterBorrowProxyFactoryLib__________9063dd678a07906112749086908690600401613093565b60206040518083038186803b15801561128c57600080fd5b505af4158015610b36573d6000803e3d6000fd5b3390565b6001600160a01b038082166000908152600884016020526040812054909116806104ca5760405162461bcd60e51b8152600401610419906138e6565b600080846001600160a01b03166112f78585611a48565b60405161130491906130cf565b6000604051808303816000865af19150503d8060008114611341576040519150601f19603f3d011682016040523d82523d6000602084013e611346565b606091505b50909695505050505050565b60006113a560007f6b6f6b75258f8f4cdb6ef275682bc2be3e8b970e5e4417113bd1ea53622d907e60001b6040518060200161138d906124bb565b601f1982820381018352601f9091011660405261110b565b905090565b6001815160028111156113b957fe5b14156114085760005b816040015151811015611402576113fa838360200151846040015184815181106113e857fe5b60200260200101518560600151611a65565b6001016113c2565b50611460565b60028151600281111561141757fe5b14156114605760005b8160400151518110156104ad576114588383602001518460400151848151811061144657fe5b60200260200101518560600151611aef565b600101611420565b5050565b8251608001516000901561148a5760405162461bcd60e51b815260040161041990613613565b348460200151146114ad5760405162461bcd60e51b8152600401610419906134a6565b6114c66114b985611872565b859063ffffffff61188b16565b6114e25760405162461bcd60e51b815260040161041990613761565b6114ea6124c8565b5083516114f6816118bc565b600254909250600090611518906001600160a01b03168463ffffffff6118c716565b905061152b600a8263ffffffff610b5a16565b156115485760405162461bcd60e51b81526004016104199061331f565b6040805160008082526020820190925290611579565b611566612417565b81526020019060019003908161155e5790505b5060a08301526115876124ff565b60405180604001604052808481526020016040518060400160405280336001600160a01b031681526020016115ce87606001518b8b6001611772909392919063ffffffff16565b9052905290506115e060018383611afd565b6116028360200151836115f284611b9c565b600192919063ffffffff611bd416565b6020830151611622906001600160a01b031633308963ffffffff611c7916565b61163e5760405162461bcd60e51b815260040161041990613823565b5050509392505050565b6002546000906103d1906001600160a01b031683611722565b6040516329c8702d60e01b81526001600160a01b038516906329c8702d9061169190869086908690600401613152565b602060405180830381600087803b1580156116ab57600080fd5b505af11580156116bf573d6000803e3d6000fd5b505050506040513d601f19601f820116820180604052508101906116e39190612bb3565b6105335760405162461bcd60e51b815260040161041990613529565b6001600160a01b0380821660009081526001840160205260409020541692915050565b6000606061172f84611ced565b80519091508390602083018282826000f5945050506001600160a01b03831661176a5760405162461bcd60e51b815260040161041990613853565b505092915050565b61177a61251f565b846004015482101561179e5760405162461bcd60e51b815260040161041990613396565b60006117b9670de0b6b3a7640000606463ffffffff611e5316565b90506117d4670de0b6b3a7640000606463ffffffff611e5316565b6117fc866117f087670de0b6b3a764000063ffffffff611e9516565b9063ffffffff611e5316565b116118195760405162461bcd60e51b815260040161041990613952565b600084861061183b57611836866117f0848863ffffffff611e9516565b61183d565b815b905060405180608001604052808543018152602001868152602001886005015481526020018281525092505050949350505050565b600061187d82611ecf565b805190602001209050919050565b60006118a361189983611eef565b8460400151611f1f565b8351516001600160a01b03908116911614905092915050565b600061187d8261204d565b60006104ca8383612069565b80516020918201206001600160a01b039092166000908152929052604090912055565b600061187d82612084565b60006104ca670de0b6b3a76400006117f08560200151602001516060015185611e9590919063ffffffff16565b6060635f7d2b5760e01b838360405160240161194b929190613277565b60408051601f198184030181529190526020810180516001600160e01b03166001600160e01b0319909316929092179091529392505050565b61198c612417565b818060200190518101906103d19190612cc4565b6000806119ac846120ab565b90506119b881846120af565b8051906020012091505092915050565b602001516001600160a01b0316151590565b60006119e683836120db565b80519060200120905092915050565b60606309c5eabe60e01b82604051602401611a109190613264565b60408051601f198184030181529190526020810180516001600160e01b03166001600160e01b03199093169290921790915292915050565b606063a9059cbb60e01b838360405160240161194b929190613139565b80846000611a7386866119a0565b81526020808201929092526040908101600020835181549385015160ff1990941690151517610100600160a81b0319166101006001600160a01b0394851602178155908301516001820180546001600160a01b031990811692851692909217905560609093015160029091018054909316911617905550505050565b80846000611a7386866119da565b6060611b08826120f0565b825160200151909150611b27906009860190859063ffffffff61210316565b815151611b40906009860190859063ffffffff61213716565b8151516040516001600160a01b03909116903480156108fc02916000818181858888f19350505050158015611b79573d6000803e3d6000fd5b50611b8e60098501848363ffffffff6118d316565b81515161053390848361216b565b60006103d1611bc2611bad846121bb565b611bb6856121f0565b9063ffffffff61222516565b8351606001519063ffffffff61224a16565b611bde84846112a4565b6001600160a01b031663185cc75183836040518363ffffffff1660e01b8152600401611c0b929190613139565b602060405180830381600087803b158015611c2557600080fd5b505af1158015611c39573d6000803e3d6000fd5b505050506040513d601f19601f82011682018060405250810190611c5d9190612bb3565b6105335760405162461bcd60e51b815260040161041990613598565b600080856001600160a01b0316611c9186868661228c565b604051611c9e91906130cf565b6000604051808303816000865af19150503d8060008114611cdb576040519150601f19603f3d011682016040523d82523d6000602084013e611ce0565b606091505b5090979650505050505050565b6040805160008152602081019091526060908190611d0e9060448101613264565b60408051601f198184030181529190526020810180516001600160e01b03166352e831dd60e01b17905280519091506063016001600160401b0381118015611d5557600080fd5b506040519080825280601f01601f191660200182016040528015611d80576020820181803683370190505b507f3d3d606380380380913d393d73bebebebebebebebebebebebebebebebebebebe6020820152600160601b308102602d8301527f5af4602a57600080fd5b602d8060366000396000f3363d3d373d3d3d363d73be6041830152840260608201526e5af43d82803e903d91602b57fd5bf360881b6074820152915060005b8151811015611e4c57818181518110611e1357fe5b602001015160f81c60f81b838260630181518110611e2d57fe5b60200101906001600160f81b031916908160001a905350600101611dfe565b5050919050565b60006104ca83836040518060400160405280601a81526020017f536166654d6174683a206469766973696f6e206279207a65726f0000000000008152506122e5565b600082611ea4575060006103d1565b82820282848281611eb157fe5b04146104ca5760405162461bcd60e51b815260040161041990613720565b606080611ee3836000015160a0015161231c565b90506104ca838261232f565b600081604051602001611f0291906130eb565b604051602081830303815290604052805190602001209050919050565b60008151604114611f425760405162461bcd60e51b8152600401610419906133c4565b60208201516040830151606084015160001a7f7fffffffffffffffffffffffffffffff5d576e7357a4501ddfe92f46681b20a0821115611f945760405162461bcd60e51b815260040161041990613556565b8060ff16601b14158015611fac57508060ff16601c14155b15611fc95760405162461bcd60e51b815260040161041990613670565b600060018783868660405160008152602001604052604051611fee9493929190613246565b6020604051602081039080840390855afa158015612010573d6000803e3d6000fd5b5050604051601f1901519150506001600160a01b0381166120435760405162461bcd60e51b8152600401610419906132a5565b9695505050505050565b60608061205d8360a0015161231c565b90506104ca8382612365565b60006104ca8261207885611ced565b80519060200120612396565b805151604090810151602080840151805190820151935160609461121a94939091016130a1565b3f90565b606082826040516020016120c49291906130b7565b604051602081830303815290604052905092915050565b606082826040516020016120c492919061302e565b60608160405160200161121a91906139f3565b6001600160a01b039182166000908152600290930160205260409092208054919092166001600160a01b0319909116179055565b6001600160a01b039182166000908152600190930160205260409092208054919092166001600160a01b0319909116179055565b816001600160a01b0316836001600160a01b03167f9ae84ac2ad8f721c2e62d211eca0ae34951726f8834913af6c5ebb81610bb1f8836040516121ae9190613264565b60405180910390a3505050565b60006103d1670de0b6b3a76400006117f084602001516020015160600151856000015160600151611e9590919063ffffffff16565b60006103d1670de0b6b3a76400006117f084602001516020015160400151856000015160600151611e9590919063ffffffff16565b6000828201838110156104ca5760405162461bcd60e51b81526004016104199061346f565b60006104ca83836040518060400160405280601e81526020017f536166654d6174683a207375627472616374696f6e206f766572666c6f7700008152506123a3565b60606323b872dd60e01b8484846040516024016122ab93929190613176565b60408051601f198184030181529190526020810180516001600160e01b03166001600160e01b031990931692909217909152949350505050565b600081836123065760405162461bcd60e51b81526004016104199190613264565b50600083858161231257fe5b0495945050505050565b60608160405160200161121a919061319a565b815160208082015160408084015160608581015185890151608090970151935191966120c49630969592939192918a9101612fc7565b606082600001518360200151846040015185606001518660800151866040516020016120c496959493929190612f67565b60006104ca8383306123cf565b600081848411156123c75760405162461bcd60e51b81526004016104199190613264565b505050900390565b60008060ff60f81b8386866040516020016123ed949392919061305a565b60408051808303601f1901815291905280516020909101206001600160a01b031695945050505050565b60408051808201909152600081526060602082015290565b60408051608081018252600080825260208201819052918101829052606081019190915290565b60408051608081019091528060008152600060208201526060604082018190520161247f61242f565b905290565b604080518082019091526000808252602082015290565b60405180604001604052806124ae6124ff565b815260200161247f612547565b61032a80613b9083390190565b6040805160c0810182526000808252602082018190529181018290526060808201839052608082019290925260a081019190915290565b60405180604001604052806125126124c8565b815260200161247f61256d565b6040518060800160405280600081526020016000815260200160008152602001600081525090565b604080516080810182526000808252602082018190529181019190915260608082015290565b604051806040016040528060006001600160a01b0316815260200161247f61251f565b80356103d181613b56565b600082601f8301126125ab578081fd5b81356125be6125b982613ae8565b613ac2565b8181529150602080830190848101818402860182018710156125df57600080fd5b60005b848110156126075781356125f581613b79565b845292820192908201906001016125e2565b505050505092915050565b600082601f830112612622578081fd5b81356126306125b982613ae8565b818152915060208083019084810160005b848110156126075781358701604080601f19838c0301121561266257600080fd5b61266b81613ac2565b6126778b878501612590565b8152818301356001600160401b0381111561269157600080fd5b61269f8c8883870101612818565b8288015250865250509282019290820190600101612641565b600082601f8301126126c8578081fd5b81356126d66125b982613ae8565b81815291506020808301908481016040808502870183018810156126f957600080fd5b6000805b8681101561274a5782848b031215612713578182fd5b61271c83613ac2565b6127268b86612590565b81526127348b878701612590565b81870152865294840194928201926001016126fd565b5050505050505092915050565b600082601f830112612767578081fd5b81356127756125b982613ae8565b818152915060208083019084810160808085028701830188101561279857600080fd5b6000805b8681101561274a5782848b0312156127b2578182fd5b6127bb83613ac2565b6127c58b8661280d565b81526127d38b878701612590565b8682015260406127e58c828801612590565b9082015260606127f78c878301612590565b908201528652948401949282019260010161279c565b80356103d181613b6b565b600082601f830112612828578081fd5b81356128366125b982613b07565b915080825283602082850101111561284d57600080fd5b8060208401602084013760009082016020015292915050565b8035600381106103d157600080fd5b600060608284031215612886578081fd5b6128906060613ac2565b905081356001600160401b03808211156128a957600080fd5b81840160c081870312156128bc57600080fd5b6128c660c0613ac2565b925080356128d381613b56565b835260208101356128e381613b56565b80602085015250604081013560408401526060810135606084015261290b866080830161280d565b608084015260a08101358281111561292257600080fd5b61292e87828401612612565b60a0850152505081835260208401356020840152604084013591508082111561295657600080fd5b5061296384828501612818565b60408301525092915050565b600060208284031215612980578081fd5b81356104ca81613b56565b60006020828403121561299c578081fd5b81516104ca81613b56565b600080600080600060a086880312156129be578081fd5b85356129c981613b56565b945060208601356129d981613b56565b935060408601356129e981613b56565b94979396509394606081013594506080013592915050565b60008060408385031215612a13578182fd5b8235612a1e81613b56565b91506020830135612a2e81613b79565b809150509250929050565b60008060008060008060c08789031215612a51578384fd5b612a5b8735613b56565b8635955060208701359450604087013593506001600160401b0360608801351115612a84578081fd5b6060870135870188601f820112612a99578182fd5b612aa66125b98235613ae8565b81358152602080820191908301845b8435811015612b4f576060823586018e03601f19011215612ad4578586fd5b612ade6060613ac2565b612aee8e60208535890101612866565b8152612b008e60408535890101612590565b60208201526001600160401b0360608435880101351115612b1f578687fd5b612b358e8435880160608101350160200161259b565b604082015284526020938401939190910190600101612ab5565b50508095505050506001600160401b0360808801351115612b6e578081fd5b612b7e8860808901358901612757565b91506001600160401b0360a08801351115612b97578081fd5b612ba78860a089013589016126b8565b90509295509295509295565b600060208284031215612bc4578081fd5b81516104ca81613b6b565b600060208284031215612be0578081fd5b5035919050565b600060208284031215612bf8578081fd5b81356001600160401b03811115612c0d578182fd5b610ff184828501612818565b60008060408385031215612c2b578182fd5b82356001600160401b0380821115612c41578384fd5b612c4d86838701612818565b93506020850135915080821115612c62578283fd5b50612c6f85828601612818565b9150509250929050565b600080600060608486031215612c8d578081fd5b83356001600160401b03811115612ca2578182fd5b612cae86828701612875565b9660208601359650604090950135949350505050565b60006020808385031215612cd6578182fd5b82516001600160401b0380821115612cec578384fd5b81850160408188031215612cfe578485fd5b612d086040613ac2565b92508051612d1581613b6b565b83528084015182811115612d27578586fd5b019050601f81018613612d38578384fd5b8051612d466125b982613b07565b8181528785838501011115612d59578586fd5b612d6882868301878601613b2a565b9383019390935250949350505050565b600060208284031215612d89578081fd5b81356001600160401b0380821115612d9f578283fd5b81840160608187031215612db1578384fd5b612dbb6060613ac2565b9250803582811115612dcb578485fd5b612dd787828401612875565b845250602081013582811115612deb578485fd5b80820160808189031215612dfd578586fd5b612e076080613ac2565b9150803582526020810135602083015260408101356040830152606081013584811115612e32578687fd5b612e3e89828401612818565b606084015250506020840152604081013582811115612e5b578485fd5b612e6787828401612612565b6040850152509195945050505050565b600060208284031215612e88578081fd5b5051919050565b6001600160a01b03169052565b6000815180845260208085018081965082840281019150828601855b85811015612f02578284038952815180516001600160a01b0316855285810151604087870181905290612eed82880182612f15565b9b88019b965050509185019150600101612eb8565b5091979650505050505050565b15159052565b60008151808452612f2d816020860160208601613b2a565b601f01601f19169290920160200192915050565b805182526020810151602083015260408101516040830152606081015160608301525050565b60006bffffffffffffffffffffffff19808960601b168352808860601b1660148401525085602883015284604883015283151560f81b60688301528251612fb5816069850160208701613b2a565b91909101606901979650505050505050565b60006bffffffffffffffffffffffff19808a60601b168352808960601b1660148401525086602883015285604883015284606883015283151560f81b6088830152825161301b816089850160208701613b2a565b9190910160890198975050505050505050565b60609290921b6bffffffffffffffffffffffff191682526001600160e01b031916601482015260180190565b6001600160f81b031994909416845260609290921b6bffffffffffffffffffffffff191660018401526015830152603582015260550190565b918252602082015260400190565b9283526020830191909152604082015260600190565b9182526001600160e01b031916602082015260240190565b600082516130e1818460208701613b2a565b9190910192915050565b7f19457468657265756d205369676e6564204d6573736167653a0a3332000000008152601c810191909152603c0190565b90815260200190565b6001600160a01b0391909116815260200190565b6001600160a01b03929092168252602082015260400190565b6001600160a01b039384168152919092166020820152901515604082015260600190565b6001600160a01b039384168152919092166020820152604081019190915260600190565b60208082528251828201819052600091906040908185019080840286018301878501865b8381101561320857888303603f19018552815180516001600160a01b03168452878101518885018890526131f488860182612f15565b9689019694505050908601906001016131be565b509098975050505050505050565b901515815260200190565b6000858252846020830152836040830152608060608301526120436080830184612f15565b93845260ff9290921660208401526040830152606082015260800190565b6000602082526104ca6020830184612f15565b60006040825261328a6040830185612f15565b828103602084015261329c8185612f15565b95945050505050565b60208082526018908201527f45434453413a20696e76616c6964207369676e61747572650000000000000000604082015260600190565b60208082526023908201527f6f6e6c7920626f72726f772070726f78792063616e2063616c6c2066756e637460408201526234b7b760e91b606082015260800190565b60208082526022908201527f70726f78792068617320616c7265616479206265656e20696e697469616c697a604082015261195960f21b606082015260800190565b6020808252818101527f437265617465323a2062797465636f6465206c656e677468206973207a65726f604082015260600190565b6020808252601490820152731d1a5b595bdd5d081a5b9cdd59999a58da595b9d60621b604082015260600190565b6020808252601f908201527f45434453413a20696e76616c6964207369676e6174757265206c656e67746800604082015260600190565b60208082526026908201527f4f776e61626c653a206e6577206f776e657220697320746865207a65726f206160408201526564647265737360d01b606082015260800190565b6020808252601490820152731ad9595c195c881c185e5bdd5d0819985a5b195960621b604082015260600190565b6020808252601b908201527f536166654d6174683a206164646974696f6e206f766572666c6f770000000000604082015260600190565b6020808252602c908201527f737570706c696564206574686572206973206e6f7420657175616c20746f206760408201526b185cc81c995c5d595cdd195960a21b606082015260800190565b6020808252601a908201527f6661696c656420746f207265706179206c6f73742066756e6473000000000000604082015260600190565b6020808252601390820152727365747570207068617365206661696c75726560681b604082015260600190565b60208082526022908201527f45434453413a20696e76616c6964207369676e6174757265202773272076616c604082015261756560f01b606082015260800190565b60208082526024908201527f696e73756666696369656e742066756e647320696e206c6971756964697479206040820152631c1bdbdb60e21b606082015260800190565b6020808252601d908201527f6e6f742061207265676973746572656420626f72726f772070726f7879000000604082015260600190565b60208082526037908201527f6973206e6f742061206c6f616e20726571756573742c20747279207573696e6760408201527f2065786563757465536869667453616e73426f72726f77000000000000000000606082015260800190565b60208082526022908201527f45434453413a20696e76616c6964207369676e6174757265202776272076616c604082015261756560f01b606082015260800190565b60208082526019908201527f437265617465323a204661696c6564206f6e206465706c6f7900000000000000604082015260600190565b6020808252601f908201527f6661696c656420746f2072657475726e20626f6e6420746f206b656570657200604082015260600190565b60208082526021908201527f536166654d6174683a206d756c7469706c69636174696f6e206f766572666c6f6040820152607760f81b606082015260800190565b60208082526024908201527f6c69717569646974792072657175657374207369676e61747572652072656a6560408201526318dd195960e21b606082015260800190565b6020808252818101527f4f776e61626c653a2063616c6c6572206973206e6f7420746865206f776e6572604082015260600190565b60208082526029908201527f696e636f72726563742067617320737570706c696564207769746820676173206040820152681c995c5d595cdd195960ba1b606082015260800190565b602080825260169082015275189bdb99081cdd589b5a5cdcda5bdb8819985a5b195960521b604082015260600190565b6020808252600e908201526d18dc99585d194c8819985a5b195960921b604082015260600190565b60208082526045908201527f63616e2774207a6970206d6f64756c65207265676973746174696f6e733a206d60408201527f6f64756c65732e6c656e67746820213d206d6f64756c6544657461696c732e6c6060820152640cadccee8d60db1b608082015260a00190565b6020808252818101527f6e6f7420612072656769737465726564206c697175696469747920746f6b656e604082015260600190565b60208082526017908201527f6c6f616e207265736f6c7574696f6e206661696c757265000000000000000000604082015260600190565b602080825260129082015271626f6e642062656c6f77206d696e696d756d60701b604082015260600190565b6020808252601d908201527f437265617465323a20696e73756666696369656e742062616c616e6365000000604082015260600190565b8151151581526020808301516001600160a01b0390811691830191909152604080840151821690830152606092830151169181019190915260800190565b600060208252825160c06020840152613a1060e084018251612e8f565b6020810151613a23610100850182612e8f565b50604081015161012084015260608101516101408401526080810151613a4d610160850182612f0f565b5060a081015160c0610180850152613a696101a0850182612e9c565b9150506020840151613a7f604085018251612e8f565b6020810151613a916060860182612f41565b5090949350505050565b6000602082528251151560208301526020830151604080840152610ff16060840182612f15565b6040518181016001600160401b0381118282101715613ae057600080fd5b604052919050565b60006001600160401b03821115613afd578081fd5b5060209081020190565b60006001600160401b03821115613b1c578081fd5b50601f01601f191660200190565b60005b83811015613b45578181015183820152602001613b2d565b838111156105335750506000910152565b6001600160a01b03811681146104eb57600080fd5b80151581146104eb57600080fd5b6001600160e01b0319811681146104eb57600080fdfe608060405234801561001057600080fd5b5061030a806100206000396000f3fe60806040526004361061001e5760003560e01c80638e03e6cd14610023575b600080fd5b6100366100313660046101d7565b610038565b005b6001600160a01b03811615610103576100de82826001600160a01b03166370a08231306040518263ffffffff1660e01b81526004016100779190610260565b60206040518083038186803b15801561008f57600080fd5b505afa1580156100a3573d6000803e3d6000fd5b505050506040513d601f19601f820116820180604052508101906100c7919061020f565b6001600160a01b038416919063ffffffff61010f16565b6101035760405162461bcd60e51b81526004016100fa9061028d565b60405180910390fd5b816001600160a01b0316ff5b600080846001600160a01b03166101268585610181565b6040516101339190610227565b6000604051808303816000865af19150503d8060008114610170576040519150601f19603f3d011682016040523d82523d6000602084013e610175565b606091505b50909695505050505050565b606063a9059cbb60e01b838360405160240161019e929190610274565b60408051601f198184030181529190526020810180516001600160e01b03166001600160e01b0319909316929092179091529392505050565b600080604083850312156101e9578182fd5b82356101f4816102bc565b91506020830135610204816102bc565b809150509250929050565b600060208284031215610220578081fd5b5051919050565b60008251815b81811015610247576020818601810151858301520161022d565b818111156102555782828501525b509190910192915050565b6001600160a01b0391909116815260200190565b6001600160a01b03929092168252602082015260400190565b602080825260159082015274657263323020666f7277617264206661696c75726560581b604082015260600190565b6001600160a01b03811681146102d157600080fd5b5056fea264697066735822122094f85e76b41145869d922e4f5d3d1e827d35728cd99607020e45a85d95e2223864736f6c63430006080033a2646970667358221220ab8a60853159fa14b0811d4e46ad2f783ea89d27c459804ad655caf2e4c1256964736f6c63430006080033",
  "immutableReferences": {},
  "source": "pragma solidity ^0.6.0;\npragma experimental ABIEncoderV2;\n\nimport { Ownable } from \"openzeppelin-solidity/contracts/access/Ownable.sol\";\nimport { IShifterRegistry } from \"./interfaces/IShifterRegistry.sol\";\nimport { IShifter } from \"./interfaces/IShifter.sol\";\nimport { ShifterPoolLib } from \"./ShifterPoolLib.sol\";\nimport { ShifterBorrowProxyLib } from \"./ShifterBorrowProxyLib.sol\";\nimport { ShifterBorrowProxyFactoryLib } from \"./ShifterBorrowProxyFactoryLib.sol\";\nimport { ShifterBorrowProxy } from \"./ShifterBorrowProxy.sol\";\nimport { BorrowProxy } from \"./BorrowProxy.sol\";\nimport { BorrowProxyLib } from \"./BorrowProxyLib.sol\";\nimport { TokenUtils } from \"./utils/TokenUtils.sol\";\nimport { ViewExecutor } from \"./utils/ViewExecutor.sol\";\nimport { LiquidityToken } from \"./LiquidityToken.sol\";\nimport { SandboxLib } from \"./utils/sandbox/SandboxLib.sol\";\nimport { SafeViewExecutor } from \"./utils/sandbox/SafeViewExecutor.sol\";\nimport { FactoryLib } from \"./FactoryLib.sol\";\nimport { NullCloneConstructor } from \"./NullCloneConstructor.sol\";\nimport { AssetForwarderLib } from \"./adapters/lib/AssetForwarderLib.sol\";\nimport { AssetForwarder } from \"./adapters/lib/AssetForwarder.sol\";\n\ncontract ShifterPool is Ownable, SafeViewExecutor, NullCloneConstructor {\n  using SandboxLib for *;\n  using ShifterPoolLib for *;\n  using TokenUtils for *;\n  using ShifterBorrowProxyLib for *;\n  using ShifterBorrowProxyFactoryLib for *;\n  using BorrowProxyLib for *;\n  ShifterPoolLib.Isolate isolate;\n  constructor() Ownable() public {\n    isolate.genesis = block.number;\n  }\n  function setup(address shifterRegistry, uint256 minTimeout, uint256 poolFee, BorrowProxyLib.ModuleDetails[] memory moduleDetails, BorrowProxyLib.Module[] memory modules, ShifterPoolLib.LiquidityTokenLaunch[] memory tokenLaunches) public onlyOwner {\n    require(modules.length == moduleDetails.length, \"can't zip module registations: modules.length != moduleDetails.length\");\n    isolate.shifterRegistry = shifterRegistry;\n    isolate.minTimeout = minTimeout;\n    isolate.poolFee = poolFee;\n    for (uint256 i = 0; i < modules.length; i++) {\n      BorrowProxyLib.ModuleRegistration memory registration = BorrowProxyLib.ModuleRegistration({\n        module: modules[i],\n        target: moduleDetails[i].target,\n        sigs: moduleDetails[i].sigs,\n        moduleType: moduleDetails[i].moduleType\n      });\n      isolate.registry.registryRegisterModule(registration);\n    }\n    for (uint256 i = 0; i < tokenLaunches.length; i++) {\n      ShifterPoolLib.LiquidityTokenLaunch memory launch = tokenLaunches[i];\n      isolate.tokenToLiquidityToken[launch.token] = launch.liqToken;\n    }\n  }\n  function getLiquidityTokenForTokenHandler(address token) public view returns (address) {\n    return isolate.tokenToLiquidityToken[token];\n  }\n  bytes32 constant BORROW_PROXY_IMPLEMENTATION_SALT = 0xfe1e3164ba4910db3c9afd049cd8feb4552390569c846692e6df4ac68aeaa90e;\n  function deployBorrowProxyImplementation() public {\n    isolate.borrowProxyImplementation = isolate.makeBorrowProxy(BORROW_PROXY_IMPLEMENTATION_SALT);\n  }\n  function deployAssetForwarderImplementation() public {\n    isolate.assetForwarderImplementation = AssetForwarderLib.deployAssetForwarder();\n  }\n  modifier onlyBorrowProxy {\n    require(isolate.borrowProxyController.isInitialized(msg.sender), \"only borrow proxy can call function\");\n    _;\n  }\n\n  function deployAssetForwarderClone(bytes32 salt) public onlyBorrowProxy returns (address created) {\n\n    created = AssetForwarderLib.deployAssetForwarderClone(isolate.assetForwarderImplementation, keccak256(abi.encodePacked(AssetForwarderLib.GET_ASSET_FORWARDER_IMPLEMENTATION_SALT(), salt)));\n\n  }\n  function getAssetForwarderImplementationHandler() public view returns (address implementation) {\n    return isolate.assetForwarderImplementation;\n  }\n  function deployBorrowProxyClone(bytes32 salt) internal returns (address payable created) {\n    created = address(uint160(FactoryLib.create2Clone(isolate.borrowProxyImplementation, uint256(salt))));\n  }\n  function _executeBorrow(ShifterBorrowProxyLib.LiquidityRequestParcel memory liquidityRequestParcel, uint256 bond, uint256 timeoutExpiry) internal returns (bytes32 borrowerSalt) {\n    require(liquidityRequestParcel.request.forbidLoan == false, \"is not a loan request, try using executeShiftSansBorrow\");\n    require(\n      liquidityRequestParcel.gasRequested == msg.value,\n      \"supplied ether is not equal to gas requested\"\n    );\n    require(\n      liquidityRequestParcel.validateSignature(\n        liquidityRequestParcel.computeLiquidityRequestHash()\n      ),\n      \"liquidity request signature rejected\"\n    );\n    ShifterBorrowProxyLib.LiquidityRequest memory liquidityRequest = liquidityRequestParcel.request;\n    borrowerSalt = liquidityRequest.computeBorrowerSalt();\n    address payable proxyAddress = address(uint160(isolate.borrowProxyImplementation.deriveBorrowerAddress(borrowerSalt)));\n    require(!isolate.borrowProxyController.isInitialized(proxyAddress), \"proxy has already been initialized\");\n    liquidityRequest.actions = new ShifterBorrowProxyLib.InitializationAction[](0);\n    ShifterBorrowProxyLib.ProxyRecord memory proxyRecord = ShifterBorrowProxyLib.ProxyRecord({\n      request: liquidityRequest,\n      loan: ShifterBorrowProxyLib.LenderRecord(\n        msg.sender,\n        isolate.computeLoanParams(liquidityRequest.amount, bond, timeoutExpiry)\n      )\n    });\n    ShifterPoolLib.mapBorrowProxy(isolate, proxyAddress, proxyRecord);\n    isolate.issueLoan(liquidityRequest.token, proxyAddress, proxyRecord.computePostFee());\n    require(liquidityRequest.token.transferTokenFrom(msg.sender, address(this), bond), \"bond submission failed\");\n    return borrowerSalt;\n  }\n  function executeBorrow(ShifterBorrowProxyLib.LiquidityRequestParcel memory liquidityRequestParcel, uint256 bond, uint256 timeoutExpiry) public payable {\n    ShifterBorrowProxyLib.InitializationAction[] memory actions = liquidityRequestParcel.request.actions;\n    bytes32 salt = _executeBorrow(liquidityRequestParcel, bond, timeoutExpiry);\n    address payable proxyAddress = deployBorrowProxyClone(salt);\n    proxyAddress.setupBorrowProxy(liquidityRequestParcel.request.borrower, liquidityRequestParcel.request.token, false);\n    proxyAddress.sendInitializationActions(actions);\n  }\n  function executeShiftSansBorrow(ShifterBorrowProxyLib.SansBorrowShiftParcel memory parcel) public payable {\n    (address payable proxyAddress, ShifterBorrowProxyLib.InitializationAction[] memory actions) = _executeShiftSansBorrow(parcel);\n    if (actions.length != 0) proxyAddress.sendInitializationActions(actions);\n  }\n  function _executeShiftSansBorrow(ShifterBorrowProxyLib.SansBorrowShiftParcel memory parcel) internal returns (address payable proxyAddress, ShifterBorrowProxyLib.InitializationAction[] memory actions) {\n    ShifterBorrowProxyLib.TriggerParcel memory triggerParcel = ShifterBorrowProxyLib.TriggerParcel({\n      record: ShifterBorrowProxyLib.ProxyRecord({\n        request: parcel.liquidityRequestParcel.request,\n        loan: ShifterBorrowProxyLib.LenderRecord({\n          keeper: msg.sender,\n          params: isolate.computeLoanParams(parcel.liquidityRequestParcel.request.amount, parcel.liquidityRequestParcel.request.amount / 10, 1000)\n        })\n      }),\n      shiftParameters: ShifterBorrowProxyLib.ShiftParameters({\n        txhash: parcel.shiftParameters.txhash,\n        vout: parcel.shiftParameters.vout,\n        pHash: parcel.shiftParameters.pHash,\n        darknodeSignature: parcel.shiftParameters.darknodeSignature\n      })\n    });\n    require(\n      parcel.liquidityRequestParcel.validateSignature(\n        parcel.liquidityRequestParcel.computeLiquidityRequestHash()\n      ),\n      \"liquidity request signature rejected\"\n    );\n    bytes32 borrowerSalt = parcel.liquidityRequestParcel.request.computeBorrowerSalt();\n    proxyAddress = address(uint160(isolate.borrowProxyImplementation.deriveBorrowerAddress(borrowerSalt)));\n    require(!isolate.borrowProxyController.isInitialized(proxyAddress), \"proxy has already been initialized\");\n    isolate.borrowProxyController.mapProxyRecord(proxyAddress, abi.encodePacked(uint256(1)));\n    isolate.getShifter(parcel.liquidityRequestParcel.request.token).mint(parcel.shiftParameters.pHash, parcel.liquidityRequestParcel.request.amount, triggerParcel.computeNHash(), parcel.shiftParameters.darknodeSignature);\n    uint256 fee = triggerParcel.record.computeAdjustedKeeperFee(parcel.liquidityRequestParcel.request.amount);\n    deployBorrowProxyClone(borrowerSalt);\n    proxyAddress.setupBorrowProxy(parcel.liquidityRequestParcel.request.borrower, parcel.liquidityRequestParcel.request.token, true);\n    if (parcel.liquidityRequestParcel.request.borrower != msg.sender && msg.value == parcel.liquidityRequestParcel.gasRequested) {\n      parcel.liquidityRequestParcel.request.borrower.transfer(msg.value);\n      require(parcel.liquidityRequestParcel.request.token.sendToken(msg.sender, fee), \"keeper payout failed\");\n      actions = parcel.liquidityRequestParcel.request.actions;\n    } else if (parcel.liquidityRequestParcel.request.borrower == msg.sender) actions = parcel.actions;\n    else revert(\"incorrect gas supplied with gas requested\");\n  }\n  function validateProxyRecordHandler(bytes memory proxyRecord) public view returns (bool) {\n    return isolate.borrowProxyController.validateProxyRecord(msg.sender, proxyRecord);\n  }\n  function getProxyTokenHandler(address proxyAddress) public view returns (address) {\n    return isolate.borrowProxyController.getProxyToken(proxyAddress);\n  }\n  function getProxyOwnerHandler(address user) public view returns (address) {\n    return isolate.borrowProxyController.getProxyOwner(user);\n  }\n  function getShifterHandler(address token) public view returns (IShifter) {\n    return isolate.getShifter(token);\n  }\n  function getLiquidityTokenHandler(address token) public view returns (LiquidityToken) {\n    return LiquidityToken(isolate.getLiquidityToken(token));\n  }\n  function fetchModuleHandler(address to, bytes4 sig) public view returns (BorrowProxyLib.Module memory) {\n    return isolate.registry.resolveModule(to, sig);\n  }\n  function relayResolveLoan(address token, address liquidityToken, address keeper, uint256 bond, uint256 repay) public returns (bool) {\n    require(isolate.borrowProxyController.proxyInitializerRecord[msg.sender] != bytes32(0x0), \"not a registered borrow proxy\");\n    if (bond != 0) require(token.sendToken(keeper, bond), \"failed to return bond to keeper\");\n    if (repay != 0) require(token.sendToken(liquidityToken, repay), \"failed to repay lost funds\");\n    require(LiquidityToken(liquidityToken).resolveLoan(msg.sender), \"loan resolution failure\");\n    return true;\n  }\n}\n",
  "sourcePath": "/home/ray/0confirmation/packages/0confirmation-sol/contracts/ShifterPool.sol",
  "compiler": {
    "name": "solc",
    "version": "0.6.8+commit.0bbfe453.Emscripten.clang"
  },
  "schemaVersion": "3.2.0",
  "updatedAt": "2020-05-24T16:14:30.477Z",
  "devdoc": {
    "methods": {
      "owner()": {
        "details": "Returns the address of the current owner."
      },
      "renounceOwnership()": {
        "details": "Leaves the contract without owner. It will not be possible to call `onlyOwner` functions anymore. Can only be called by the current owner.     * NOTE: Renouncing ownership will leave the contract without an owner, thereby removing any functionality that is only available to the owner."
      },
      "transferOwnership(address)": {
        "details": "Transfers ownership of the contract to a new account (`newOwner`). Can only be called by the current owner."
      }
    }
  },
  "userdoc": {
    "methods": {}
  }
}