{
  "contractName": "ShifterBorrowProxy",
  "abi": [
    {
      "inputs": [],
      "stateMutability": "nonpayable",
      "type": "constructor"
    },
    {
      "stateMutability": "payable",
      "type": "fallback"
    },
    {
      "inputs": [
        {
          "internalType": "bytes",
          "name": "creationCode",
          "type": "bytes"
        },
        {
          "internalType": "bytes",
          "name": "context",
          "type": "bytes"
        }
      ],
      "name": "_executeSafeView",
      "outputs": [],
      "stateMutability": "nonpayable",
      "type": "function"
    },
    {
      "inputs": [
        {
          "internalType": "address",
          "name": "to",
          "type": "address"
        },
        {
          "internalType": "uint256",
          "name": "value",
          "type": "uint256"
        },
        {
          "internalType": "bytes",
          "name": "payload",
          "type": "bytes"
        }
      ],
      "name": "proxy",
      "outputs": [],
      "stateMutability": "nonpayable",
      "type": "function"
    },
    {
      "inputs": [
        {
          "internalType": "bytes",
          "name": "creationCode",
          "type": "bytes"
        },
        {
          "internalType": "bytes",
          "name": "context",
          "type": "bytes"
        }
      ],
      "name": "safeQuery",
      "outputs": [
        {
          "components": [
            {
              "internalType": "bool",
              "name": "success",
              "type": "bool"
            },
            {
              "internalType": "bytes",
              "name": "data",
              "type": "bytes"
            }
          ],
          "internalType": "struct SafeViewLib.SafeViewResult",
          "name": "",
          "type": "tuple"
        }
      ],
      "stateMutability": "nonpayable",
      "type": "function"
    },
    {
      "inputs": [
        {
          "internalType": "address",
          "name": "owner",
          "type": "address"
        },
        {
          "internalType": "address",
          "name": "token",
          "type": "address"
        }
      ],
      "name": "setup",
      "outputs": [
        {
          "internalType": "bool",
          "name": "",
          "type": "bool"
        }
      ],
      "stateMutability": "nonpayable",
      "type": "function"
    },
    {
      "stateMutability": "payable",
      "type": "receive"
    },
    {
      "inputs": [
        {
          "internalType": "bytes",
          "name": "data",
          "type": "bytes"
        }
      ],
      "name": "repayLoan",
      "outputs": [
        {
          "internalType": "bool",
          "name": "",
          "type": "bool"
        }
      ],
      "stateMutability": "nonpayable",
      "type": "function"
    },
    {
      "inputs": [
        {
          "internalType": "bytes",
          "name": "data",
          "type": "bytes"
        }
      ],
      "name": "defaultLoan",
      "outputs": [
        {
          "internalType": "bool",
          "name": "",
          "type": "bool"
        }
      ],
      "stateMutability": "nonpayable",
      "type": "function"
    },
    {
      "inputs": [
        {
          "components": [
            {
              "internalType": "address",
              "name": "to",
              "type": "address"
            },
            {
              "internalType": "bytes",
              "name": "txData",
              "type": "bytes"
            }
          ],
          "internalType": "struct ShifterBorrowProxyLib.InitializationAction[]",
          "name": "actions",
          "type": "tuple[]"
        }
      ],
      "name": "receiveInitializationActions",
      "outputs": [
        {
          "components": [
            {
              "internalType": "address",
              "name": "preprocessorAddress",
              "type": "address"
            },
            {
              "components": [
                {
                  "internalType": "address",
                  "name": "to",
                  "type": "address"
                },
                {
                  "internalType": "bytes",
                  "name": "txData",
                  "type": "bytes"
                },
                {
                  "internalType": "bool",
                  "name": "success",
                  "type": "bool"
                },
                {
                  "internalType": "bytes",
                  "name": "returnData",
                  "type": "bytes"
                }
              ],
              "internalType": "struct SandboxLib.ProtectedExecution[]",
              "name": "trace",
              "type": "tuple[]"
            }
          ],
          "internalType": "struct SandboxLib.Context",
          "name": "context",
          "type": "tuple"
        }
      ],
      "stateMutability": "nonpayable",
      "type": "function"
    }
  ],
  "bytecode": "0x608060405234801561001057600080fd5b50612e23806100206000396000f3fe6080604052600436106100745760003560e01c80635f7d2b571161004e5780635f7d2b57146100f35780635fe7595814610113578063c4ddf36314610140578063f07827c7146101605761007b565b80632692f25a1461007d5780632d34ba791461009d57806356b8e146146100d35761007b565b3661007b57005b005b34801561008957600080fd5b5061007b6100983660046120b1565b61018d565b3480156100a957600080fd5b506100bd6100b8366004612079565b61042d565b6040516100ca91906126cd565b60405180910390f35b3480156100df57600080fd5b506100bd6100ee3660046121f9565b61049b565b3480156100ff57600080fd5b5061007b61010e36600461222b565b61084f565b34801561011f57600080fd5b5061013361012e366004612107565b610900565b6040516100ca9190612b0f565b34801561014c57600080fd5b506100bd61015b3660046121f9565b61093b565b34801561016c57600080fd5b5061018061017b36600461222b565b610dcf565b6040516100ca9190612cc5565b6001546001600160a01b03163314806101b057506000546001600160a01b031633145b806101ba57503330145b6101df5760405162461bcd60e51b81526004016101d690612891565b60405180910390fd5b60006101fb6101f68383600463ffffffff610dee16565b610e17565b60e01b9050610208611c26565b604051632f1a48af60e01b815273__BorrowProxyLib________________________90632f1a48af906102449060009089908790600401612bca565b60c06040518083038186803b15801561025c57600080fd5b505af4158015610270573d6000803e3d6000fd5b505050506040513d601f19601f82011682018060405250810190610294919061230b565b6002546001600160a01b03166020820152600054909150600160a01b900460ff1680156102c45750604081015151155b156103675760006060866001600160a01b031686866040516102e6919061261a565b60006040518083038185875af1925050503d8060008114610323576040519150601f19603f3d011682016040523d82523d6000602084013e610328565b606091505b5091509150816103545761033b81610e34565b60405162461bcd60e51b81526004016101d69190612707565b61035e8282610f27565b50505050610428565b6103748160400151610f3c565b6103905760405162461bcd60e51b81526004016101d6906127c8565b600060606103a583868863ffffffff610f4e16565b91509150816103b75761033b81610e34565b60408084015101516001600160a01b0316156103e75760408084015101516103e79060079063ffffffff61105e16565b6040830151606001516001600160a01b031615610419576040830151606001516104199060099063ffffffff61105e16565b6104238282610f27565b505050505b505050565b6001546000906001600160a01b0316156104595760405162461bcd60e51b81526004016101d69061273f565b5060008054336001600160a01b0319918216179091556001805482166001600160a01b0385811691909117825560028054909316908416179091555b92915050565b60065460009060ff16156104c15760405162461bcd60e51b81526004016101d69061279d565b600054600160a01b900460ff16156104eb5760405162461bcd60e51b81526004016101d690612911565b6104f4826110b8565b6105105760405162461bcd60e51b81526004016101d69061282e565b610518611c4a565b6105218361113b565b600880546040805160208084028201810190925282815293945060609392919083018282801561057a57602002820191906000526020600020905b81546001600160a01b0316815260019091019060200180831161055c575b50505050509050438260200151602001516000015110610843576006805461ff0019166101001790556004545b81518110156105ff576207a1205a10806105e357506105e18282815181106105cb57fe5b60200260200101516001600160a01b0316611157565b155b156105f757600455506000915061084a9050565b6001016105a7565b5080516004908155600080548451602001516040516370a0823160e01b81526001600160a01b039283169491909216916370a082319161064191309101612636565b60206040518083038186803b15801561065957600080fd5b505afa15801561066d573d6000803e3d6000fd5b505050506040513d601f19601f820116820180604052508101906106919190612518565b8451602001519091506106b4906001600160a01b0316838363ffffffff6111d816565b6106d05760405162461bcd60e51b81526004016101d690612a30565b602080850151810151015184516060015182101561070a578451606001518203811115610706578451606001518203900361070a565b5060005b8451602001516040516303cc556d60e51b8152828403916001600160a01b0386169163801874ec9190839063798aada090610749908490600401612636565b60206040518083038186803b15801561076157600080fd5b505afa158015610775573d6000803e3d6000fd5b505050506040513d601f19601f82011682018060405250810190610799919061228b565b60208a0151516040516001600160e01b031960e086901b1681526107c6939291908890889060040161264a565b602060405180830381600087803b1580156107e057600080fd5b505af11580156107f4573d6000803e3d6000fd5b505050506040513d601f19601f8201168201806040525081019061081891906121d9565b6108345760405162461bcd60e51b81526004016101d6906129f9565b6001965050505050505061084a565b6000925050505b919050565b600061086261085c61124a565b8461126e565b905060606108876108826001600160a01b0384168563ffffffff6112a316565b61132d565b90506000826001600160a01b031661089d611356565b6040516108aa919061261a565b6000604051808303816000865af19150503d80600081146108e7576040519150601f19603f3d011682016040523d82523d6000602084013e6108ec565b606091505b505090506108f982611382565b5050505050565b610908611c6a565b6000546001600160a01b031633146109325760405162461bcd60e51b81526004016101d69061285c565b6104958261138a565b6000610945611c82565b61094e8361161e565b9050610965610960826000015161163a565b6110b8565b6109815760405162461bcd60e51b81526004016101d69061282e565b600654610100900460ff16156109a95760405162461bcd60e51b81526004016101d6906129c2565b80518051606001516000916109c39163ffffffff61164d16565b60008054845151602001516040516303cc556d60e51b815293945091926001600160a01b039091169163798aada0916109ff9190600401612636565b60206040518083038186803b158015610a1757600080fd5b505afa158015610a2b573d6000803e3d6000fd5b505050506040513d601f19601f82011682018060405250810190610a4f919061228b565b60065490915060009060ff16610bdc576006805460ff19166001179055600054845151602001516040516307ef1e3760e21b81526001600160a01b0390921691631fbc78dc91610aa191600401612636565b60206040518083038186803b158015610ab957600080fd5b505afa158015610acd573d6000803e3d6000fd5b505050506040513d601f19601f82011682018060405250810190610af1919061228b565b6001600160a01b031663159ab14d856060015186600001516000015160600151610b1a88611686565b88608001516040518563ffffffff1660e01b8152600401610b3e94939291906126d8565b602060405180830381600087803b158015610b5857600080fd5b505af1158015610b6c573d6000803e3d6000fd5b505050506040513d601f19601f82011682018060405250810190610b909190612518565b600381905584515160200151909150610bbb906001600160a01b03168385840363ffffffff6111d816565b610bd75760405162461bcd60e51b81526004016101d6906127ff565b610be1565b506003545b600a80546040805160208084028201810190925282815260609390929091830182828015610c3857602002820191906000526020600020905b81546001600160a01b03168152600190910190602001808311610c1a575b50506005549394505050505b8151811015610c9f576207a1205a1080610c805750610c7e828281518110610c6857fe5b60200260200101516001600160a01b031661169f565b155b15610c9757600555506000945061084a9350505050565b600101610c44565b506000805460ff60a01b1916600160a01b17905584516020808201515191510151610cdc916001600160a01b03909116908663ffffffff6111d816565b610cf85760405162461bcd60e51b81526004016101d69061276f565b600080548651805160209081015191810151805190820151909101516040516320061d3b60e21b81526001600160a01b039094169463801874ec94610d4694938a939092909160040161264a565b602060405180830381600087803b158015610d6057600080fd5b505af1158015610d74573d6000803e3d6000fd5b505050506040513d601f19601f82011682018060405250810190610d9891906121d9565b610db45760405162461bcd60e51b81526004016101d69061297f565b8451805151610dc2916116b7565b5060019695505050505050565b610dd7611c6a565b610de7838363ffffffff6116fc16565b9392505050565b610df6611cb9565b610e00848461176d565b815260208101919091526040810191909152919050565b8051602082015160009190610e2c8282611774565b949350505050565b6060815160001415610e7a575060408051808201909152601c81527f636170747572656420656d707479207265766572742062756666657200000000602082015261084a565b6308c379a0610e8f6101f68460006004610dee565b63ffffffff1614610eba576040518060600160405280603f8152602001612daf603f9139905061084a565b6060610ed5610ed084600463ffffffff61179116565b6117b5565b9050805160001415610f1c57505060408051808201909152601d81527f636170747572656420656d70747920726576657274206d657373616765000000602082015261084a565b6060610e2c82611824565b81610f3457805181602001fd5b805181602001f35b602001516001600160a01b0316151590565b60006060600060608660400151602001516001600160a01b03165a6110016040518061010001604052808b60400151602001516001600160a01b031681526020018b60400151604001516001600160a01b031681526020018b60400151606001516001600160a01b031681526020018b602001516001600160a01b03168152602001326001600160a01b031681526020018b600001516001600160a01b031681526020018981526020018a81525061183a565b60405161100e919061261a565b6000604051808303818686f4925050503d806000811461104a576040519150601f19603f3d011682016040523d82523d6000602084013e61104f565b606091505b50909890975095505050505050565b6001600160a01b03811660009081526020839052604090205460ff1615611084576110b4565b6001828101805491820181556000908152602090200180546001600160a01b0319166001600160a01b0383161790555b5050565b600080546040516308f6049560e01b81526001600160a01b03909116906308f60495906110e9908590600401612707565b602060405180830381600087803b15801561110357600080fd5b505af1158015611117573d6000803e3d6000fd5b505050506040513d601f19601f8201168201806040525081019061049591906121d9565b611143611c4a565b8180602001905181019061049591906123bb565b6000806060836001600160a01b031661116f8561188d565b60405161117c919061261a565b600060405180830381855af49150503d80600081146111b7576040519150601f19603f3d011682016040523d82523d6000602084013e6111bc565b606091505b5091509150816111cf5761033b81610e34565b610e2c816118d0565b600080846001600160a01b03166111ef85856118e6565b6040516111fc919061261a565b6000604051808303816000865af19150503d8060008114611239576040519150601f19603f3d011682016040523d82523d6000602084013e61123e565b606091505b50909695505050505050565b7fad53495153c7c363e98a26920ec679e0e687636458f6908c91cf6deadb19080190565b600080838351602085016000f590506001600160a01b038116610de75760405162461bcd60e51b81526004016101d6906128da565b6112ab611c6a565b60006060846001600160a01b03166112c28561193c565b6040516112cf919061261a565b600060405180830381855af49150503d806000811461130a576040519150601f19603f3d011682016040523d82523d6000602084013e61130f565b606091505b50604080518082019091529115158252602082015295945050505050565b6060816040516020016113409190612cc5565b6040516020818303038152906040529050919050565b6040805160048152602481019091526020810180516001600160e01b031663083197ef60e41b17905290565b805160208201fd5b611392611c6a565b606082516001600160401b03811180156113ab57600080fd5b506040519080825280602002602001820160405280156113e557816020015b6113d2611cda565b8152602001906001900390816113ca5790505b50905060005b835181101561146c5783818151811061140057fe5b60200260200101516000015182828151811061141857fe5b60209081029190910101516001600160a01b039091169052835184908290811061143e57fe5b60200260200101516020015182828151811061145657fe5b60209081029190910181015101526001016113eb565b50611475611c6a565b5060408051808201909152600081526020810182905261149481611957565b60005b8451811015611616576114a982611969565b6114b1611cda565b6020830151805160001981019081106114c657fe5b6020026020010151905060006001600160a01b031681600001516001600160a01b0316141561159c576114f88361197d565b6115058160200151611992565b6001600160a01b03168352611518611c6a565b611535611524856119c8565b60208401519063ffffffff6116fc16565b905061154084611969565b604080516000815260208082019092529083015280511561158257611563611c6a565b61157082602001516119db565b905061157c83826119f7565b5061159a565b6020810151606083015251151560409091015261160e565b505b60006060306115aa84611a0f565b6040516115b7919061261a565b6000604051808303816000865af19150503d80600081146115f4576040519150601f19603f3d011682016040523d82523d6000602084013e6115f9565b606091505b50901515604085015260609093019290925250505b600101611497565b509392505050565b611626611c82565b81806020019051810190610495919061246b565b6060816040516020016113409190612bf3565b6000610de7670de0b6b3a764000061167a8560200151602001516060015185611a3590919063ffffffff16565b9063ffffffff611a6f16565b600061169182611ab1565b805190602001209050919050565b6000806060836001600160a01b031661116f85611ad6565b816001600160a01b03167fde947e8b6051ad11f984637f1fd1be5fc4b62225fcbf933475f7783ac5e2bd5f826040516116f09190612bf3565b60405180910390a25050565b611704611c6a565b6060306117118585611b19565b60405161171e919061261a565b6000604051808303816000865af19150503d806000811461175b576040519150601f19603f3d011682016040523d82523d6000602084013e611760565b606091505b50915050610e2c81611b36565b0160200190565b6000600180600884021b0380836020038503511691505092915050565b611799611cb9565b81835110156117a757825191505b610de7838384865103610dee565b6020810151606090806001600160401b03811180156117d357600080fd5b506040519080825280601f01601f1916602001820160405280156117fe576020820181803683370190505b508351909250600061180f84611b52565b905061181c818385611b58565b505050919050565b60608180602001905181019061049591906122a7565b6060633c52e5a160e01b826040516024016118559190612a7a565b60408051601f198184030181529190526020810180516001600160e01b03166001600160e01b03199093169290921790915292915050565b6060816040516024016118a09190612636565b60408051601f198184030181529190526020810180516001600160e01b03166305f0caad60e31b17905292915050565b60008180602001905181019061049591906121d9565b606063a9059cbb60e01b83836040516024016119039291906126b4565b60408051601f198184030181529190526020810180516001600160e01b03166001600160e01b0319909316929092179091529392505050565b60606309c5eabe60e01b826040516024016118559190612707565b61196681602001516000611b96565b50565b602081015180516104288260018301611b96565b60208101518051611966919060001901611b96565b60006104957fad53495153c7c363e98a26920ec679e0e687636458f6908c91cf6deadb19080160001b8380519060200120611b9a565b6060816040516020016113409190612b0f565b6119e3611c6a565b8180602001905181019061049591906122d9565b60208082015190830152516001600160a01b03169052565b80516020820151604051606092631349792d60e11b92611855926000919060240161267e565b600082611a4457506000610495565b82820282848281611a5157fe5b0414610de75760405162461bcd60e51b81526004016101d69061293e565b6000610de783836040518060400160405280601a81526020017f536166654d6174683a206469766973696f6e206279207a65726f000000000000815250611ba7565b8051516040908101516020808401518385015193516060946113409493909101612604565b606081604051602401611ae99190612636565b60408051601f198184030181529190526020810180516001600160e01b0316639f7c73e960e01b17905292915050565b6060635f7d2b5760e01b838360405160240161190392919061271a565b611b3e611c6a565b8180602001905181019061049591906123ed565b60200190565b5b60208110611b78578151835260209283019290910190601f1901611b59565b600180600883602003021b0380845116811984511617845250505050565b9052565b6000610de7838330611bde565b60008183611bc85760405162461bcd60e51b81526004016101d69190612707565b506000838581611bd457fe5b0495945050505050565b60008060ff60f81b838686604051602001611bfc94939291906125cb565b60408051808303601f1901815291905280516020909101206001600160a01b031695945050505050565b6040805160608101825260008082526020820152908101611c45611d00565b905290565b6040518060400160405280611c5d611d27565b8152602001611c45611d5e565b60408051808201909152600081526060602082015290565b6040518060a00160405280611c95611c4a565b81526000602082018190526040820181905260608083019190915260809091015290565b60405180606001604052806000815260200160008152602001600081525090565b604080516080810182526000808252606060208301819052928201528181019190915290565b60408051608081018252600080825260208201819052918101829052606081019190915290565b6040805160c0810182526000808252602082018190529181018290526060808201839052608082019290925260a081019190915290565b604051806040016040528060006001600160a01b03168152602001611c456040518060800160405280600081526020016000815260200160008152602001600081525090565b803561049581612d99565b805161049581612d99565b600082601f830112611dca578081fd5b8151611ddd611dd882612d12565b612cec565b818152915060208083019084810160005b84811015611e1757611e05888484518a0101611ecd565b84529282019290820190600101611dee565b505050505092915050565b8051801515811461049557600080fd5b600082601f830112611e42578081fd5b8135611e50611dd882612d31565b9150808252836020828501011115611e6757600080fd5b8060208401602084013760009082016020015292915050565b600082601f830112611e90578081fd5b8151611e9e611dd882612d31565b9150808252836020828501011115611eb557600080fd5b611ec6816020840160208601612d69565b5092915050565b600060408284031215611ede578081fd5b611ee86040612cec565b90508151611ef581612d99565b815260208201516001600160401b03811115611f1057600080fd5b611f1c84828501611e80565b60208301525092915050565b600081830360a0811215611f3a578182fd5b611f446040612cec565b91508251611f5181612d99565b82526080601f1982011215611f6557600080fd5b50611f706080612cec565b602083015181526040830151602082015260608301516040820152608083015160608201528060208301525092915050565b600060c08284031215611fb3578081fd5b611fbd6040612cec565b905081516001600160401b0380821115611fd657600080fd5b81840160c08187031215611fe957600080fd5b611ff360c0612cec565b9250611fff8682611daf565b835261200e8660208301611daf565b602084015260408101516040840152606081015160608401526120348660808301611e22565b608084015260a08101518281111561204b57600080fd5b61205787828401611dba565b60a0850152505050815261206e8360208401611f28565b602082015292915050565b6000806040838503121561208b578182fd5b823561209681612d99565b915060208301356120a681612d99565b809150509250929050565b6000806000606084860312156120c5578081fd5b83356120d081612d99565b92506020840135915060408401356001600160401b038111156120f1578182fd5b6120fd86828701611e32565b9150509250925092565b60006020808385031215612119578182fd5b82356001600160401b038082111561212f578384fd5b81850186601f820112612140578485fd5b80359250612150611dd884612d12565b83815284810190828601875b868110156121ca5781358501604080601f19838f0301121561217c578a8bfd5b61218581612cec565b6121918e8c8501611da4565b815281830135898111156121a3578c8dfd5b6121b18f8d83870101611e32565b828d01525086525050928701929087019060010161215c565b50909998505050505050505050565b6000602082840312156121ea578081fd5b81518015158114610de7578182fd5b60006020828403121561220a578081fd5b81356001600160401b0381111561221f578182fd5b610e2c84828501611e32565b6000806040838503121561223d578182fd5b82356001600160401b0380821115612253578384fd5b61225f86838701611e32565b93506020850135915080821115612274578283fd5b5061228185828601611e32565b9150509250929050565b60006020828403121561229c578081fd5b8151610de781612d99565b6000602082840312156122b8578081fd5b81516001600160401b038111156122cd578182fd5b610e2c84828501611e80565b6000602082840312156122ea578081fd5b81516001600160401b038111156122ff578182fd5b610e2c84828501611ecd565b600081830360c081121561231d578182fd5b6123276060612cec565b835161233281612d99565b8152602084015161234281612d99565b60208201526080603f1983011215612358578283fd5b6123626080612cec565b91506123718560408601611e22565b8252606084015161238181612d99565b6020830152608084015161239481612d99565b604083015260a08401516123a781612d99565b606083015260408101919091529392505050565b6000602082840312156123cc578081fd5b81516001600160401b038111156123e1578182fd5b610e2c84828501611fa2565b6000602082840312156123fe578081fd5b81516001600160401b0380821115612414578283fd5b81840160408187031215612426578384fd5b6124306040612cec565b925061243c8682611e22565b835260208101518281111561244f578485fd5b61245b87828401611e80565b6020850152509195945050505050565b60006020828403121561247c578081fd5b81516001600160401b0380821115612492578283fd5b81840160a081870312156124a4578384fd5b6124ae60a0612cec565b92508051828111156124be578485fd5b6124ca87828401611fa2565b8452506020810151602084015260408101516040840152606081015160608401526080810151828111156124fc578485fd5b61250887828401611e80565b6080850152509195945050505050565b600060208284031215612529578081fd5b5051919050565b600060018060a01b038251168352602082015160406020850152610e2c6040850182612564565b6001600160a01b03169052565b6000815180845261257c816020860160208601612d69565b601f01601f19169290920160200192915050565b60018060a01b038151168252602081015180516020840152602081015160408401526040810151606084015260608101516080840152505050565b6001600160f81b031994909416845260609290921b6bffffffffffffffffffffffff191660018401526015830152603582015260550190565b9283526020830191909152604082015260600190565b6000825161262c818460208701612d69565b9190910192915050565b6001600160a01b0391909116815260200190565b6001600160a01b03958616815293851660208501529190931660408301526060820192909252608081019190915260a00190565b6001600160a01b038416815260ff831660208201526060604082018190526000906126ab90830184612564565b95945050505050565b6001600160a01b03929092168252602082015260400190565b901515815260200190565b6000858252846020830152836040830152608060608301526126fd6080830184612564565b9695505050505050565b600060208252610de76020830184612564565b60006040825261272d6040830185612564565b82810360208401526126ab8185612564565b60208082526016908201527563616e277420696e697469616c697a6520747769636560501b604082015260600190565b6020808252601490820152731ad9595c195c881c185e5bdd5d0819985a5b195960621b604082015260600190565b6020808252601190820152701b1bd85b8818995a5b99c81c995c185a59607a1b604082015260600190565b6020808252601f908201527f66756e6374696f6e2068616e646c6572206e6f74207265676973746572656400604082015260600190565b6020808252601590820152741d1bdad95b881d1c985b9cd9995c8819985a5b1959605a1b604082015260600190565b6020808252601490820152731c1c9bde1e481c9958dbdc99081a5b9d985b1a5960621b604082015260600190565b6020808252818101527f6d7573742062652063616c6c65642066726f6d207368696674657220706f6f6c604082015260600190565b60208082526029908201527f626f72726f772070726f78792063616e206f6e6c792062652075736564206279604082015268103137b93937bbb2b960b91b606082015260800190565b60208082526019908201527f437265617465323a204661696c6564206f6e206465706c6f7900000000000000604082015260600190565b6020808252601390820152721b1bd85b88185b1c9958591e481c995c185a59606a1b604082015260600190565b60208082526021908201527f536166654d6174683a206d756c7469706c69636174696f6e206f766572666c6f6040820152607760f81b606082015260800190565b60208082526023908201527f6c6f616e207265736f6c7574696f6e206e6f74696669636174696f6e206661696040820152621b195960ea1b606082015260800190565b60208082526019908201527f70726f7879206973206265696e67206c69717569646174656400000000000000604082015260600190565b60208082526017908201527f6c6f616e207265736f6c7574696f6e206661696c757265000000000000000000604082015260600190565b6020808252602a908201527f6661696c656420746f207472616e73666572207265636c61696d65642066756e604082015269191cc81d1bc81c1bdbdb60b21b606082015260800190565b60006020825260018060a01b03808451166020840152806020850151166040840152506040830151612aaf6060840182612557565b506060830151612ac26080840182612557565b506080830151612ad560a0840182612557565b5060a0830151612ae860c0840182612557565b5060c083015160e083015260e0830151610100808185015250610e2c610120840182612564565b60006020808352606080840160018060a01b038087511684870152838701516040808189015283825180865260809550858a019150858882028b01018885018a95505b82861015612bba57607f198c830301845280518781511683528a810151898c850152612b808a850182612564565b878301511515888601528b83015191508481038c860152612ba18183612564565b60019990990198968d019694505050908a019050612b52565b509b9a5050505050505050505050565b9283526001600160a01b039190911660208301526001600160e01b031916604082015260600190565b60006020808352835160c0828501526101a08401612c118251612d5d565b60e0860152828201516001600160a01b0316610100860152604082015161012086015260608201516101408601526080820151151561016086015260a09091015160c06101808601528051829190612c698184612d54565b9350839250859181860284019086015b82841015612ca5578482038652612c91828251612530565b958701956001949094019391508601612c79565b50858901519450612cb96040890186612590565b98975050505050505050565b6000602082528251151560208301526020830151604080840152610e2c6060840182612564565b6040518181016001600160401b0381118282101715612d0a57600080fd5b604052919050565b60006001600160401b03821115612d27578081fd5b5060209081020190565b60006001600160401b03821115612d46578081fd5b50601f01601f191660200190565b90815260200190565b6001600160a01b031690565b60005b83811015612d84578181015183820152602001612d6c565b83811115612d93576000848401525b50505050565b6001600160a01b038116811461196657600080fdfe6361707475726564206120726576657274206572726f722c2062757420697420646f65736e277420636f6e666f726d20746f20746865207374616e64617264a26469706673582212206361a89fc2e693cbeae0b49a3a3d6d56628c423e1bb30e54f8ceb60c693103ad64736f6c63430006060033",
  "source": "pragma solidity ^0.6.0;\npragma experimental ABIEncoderV2;\n\nimport { BorrowProxy } from \"./BorrowProxy.sol\";\nimport { ShifterPool } from \"./ShifterPool.sol\";\nimport { ShifterBorrowProxyLib } from \"./ShifterBorrowProxyLib.sol\";\nimport { ILiquidationModule } from \"./interfaces/ILiquidationModule.sol\";\nimport { TokenUtils } from \"./utils/TokenUtils.sol\";\nimport { LiquidityToken } from \"./LiquidityToken.sol\";\nimport { IERC20 } from \"openzeppelin-solidity/contracts/token/ERC20/IERC20.sol\";\nimport { SafeViewExecutor } from \"./utils/SafeView.sol\";\nimport { SandboxLib } from \"./SandboxLib.sol\";\n\ncontract ShifterBorrowProxy is BorrowProxy, SafeViewExecutor {\n  using ShifterBorrowProxyLib for *;\n  using SandboxLib for *;\n  using TokenUtils for *;\n  constructor() BorrowProxy() public {}\n  uint256 constant MINIMUM_GAS_CONTINUE = 5e5;\n  function repayLoan(bytes memory data) public returns (bool) {\n    (ShifterBorrowProxyLib.TriggerParcel memory parcel) = data.decodeTriggerParcel();\n    require(validateProxyRecord(parcel.record.encodeProxyRecord()), \"proxy record invalid\");\n    require(!isolate.isLiquidating, \"proxy is being liquidated\");\n    uint256 fee = parcel.record.computeAdjustedKeeperFee(parcel.record.request.amount);\n    LiquidityToken liquidityToken = ShifterPool(isolate.masterAddress).getLiquidityTokenHandler(parcel.record.request.token);\n    uint256 amount;\n    if (!isolate.isRepaying) {\n      isolate.isRepaying = true;\n      isolate.actualizedShift = amount = ShifterPool(isolate.masterAddress).getShifterHandler(parcel.record.request.token).mint(parcel.pHash, parcel.record.request.amount, parcel.computeNHash(), parcel.darknodeSignature);\n      require(parcel.record.request.token.sendToken(address(liquidityToken), amount - fee), \"token transfer failed\");\n    } else amount = isolate.actualizedShift;\n    address[] memory set = isolate.repaymentSet.set;\n    for (uint256 i = isolate.repaymentIndex; i < set.length; i++) {\n      if (gasleft() < MINIMUM_GAS_CONTINUE || !set[i].delegateRepay()) {\n        isolate.repaymentIndex = i;\n        return false;\n      }\n    }\n    isolate.unbound = true;\n    require(parcel.record.request.token.sendToken(parcel.record.loan.keeper, fee), \"keeper payout failed\");\n    require(ShifterPool(isolate.masterAddress).relayResolveLoan(parcel.record.request.token, address(liquidityToken), parcel.record.loan.keeper, parcel.record.loan.params.bond, 0), \"loan resolution notification failed\");\n    ShifterBorrowProxyLib.emitShifterBorrowProxyRepaid(parcel.record.request.borrower, parcel.record);\n    return true;\n  }\n  function defaultLoan(bytes memory data) public returns (bool) {\n    require(!isolate.isRepaying, \"loan being repaid\");\n    require(!isolate.unbound, \"loan already repaid\");\n    require(validateProxyRecord(data), \"proxy record invalid\");\n    ShifterBorrowProxyLib.ProxyRecord memory record = data.decodeProxyRecord();\n    address[] memory set = isolate.liquidationSet.set;\n    if (record.loan.params.timeoutExpiry >= block.number) {\n      isolate.isLiquidating = true;\n      for (uint256 i = isolate.liquidationIndex; i < set.length; i++) {\n        if (gasleft() < MINIMUM_GAS_CONTINUE || !set[i].delegateLiquidate()) {\n          isolate.liquidationIndex = i;\n          return false;\n        }\n      }\n      isolate.liquidationIndex = set.length;\n      ShifterPool pool = ShifterPool(isolate.masterAddress);\n      uint256 postBalance = IERC20(record.request.token).balanceOf(address(this));\n      require(record.request.token.sendToken(address(pool), postBalance), \"failed to transfer reclaimed funds to pool\");\n      uint256 bond = record.loan.params.bond;\n      if (postBalance < record.request.amount) {\n        if (bond > postBalance - record.request.amount) {\n          bond -= (postBalance - record.request.amount);\n        } else {\n          bond = 0;\n        }\n      }\n      uint256 repay = postBalance - bond;\n      require(pool.relayResolveLoan(record.request.token, address(pool.getLiquidityTokenHandler(record.request.token)), record.loan.keeper, bond, repay), \"loan resolution failure\");\n      return true;\n    }\n    return false;\n  }\n  function receiveInitializationActions(ShifterBorrowProxyLib.InitializationAction[] memory actions) public returns (SandboxLib.Context memory context) {\n    require(msg.sender == address(isolate.masterAddress), \"must be called from shifter pool\");\n    context = actions.processActions();\n  }\n  fallback() external payable override {}\n  receive() external payable override {}\n}\n",
  "sourcePath": "/home/ray/0confirmation/packages/0confirmation-sol/contracts/ShifterBorrowProxy.sol",
  "compiler": {
    "name": "solc",
    "version": "0.6.6+commit.6c089d02.Emscripten.clang"
  },
  "schemaVersion": "3.0.23",
  "updatedAt": "2020-04-23T09:11:10.090Z",
  "devdoc": {
    "methods": {}
  },
  "userdoc": {
    "methods": {}
  }
}