{
  "contractName": "ShifterBorrowProxyFactoryLib",
  "abi": [
    {
      "inputs": [
        {
          "internalType": "address",
          "name": "target",
          "type": "address"
        },
        {
          "internalType": "bytes32",
          "name": "salt",
          "type": "bytes32"
        }
      ],
      "name": "deriveBorrowerAddress",
      "outputs": [
        {
          "internalType": "address",
          "name": "",
          "type": "address"
        }
      ],
      "stateMutability": "view",
      "type": "function"
    }
  ],
  "bytecode": "0x61368e610026600b82828239805160001a60731461001957fe5b30600052607381538281f3fe73000000000000000000000000000000000000000030146080604052600436106100405760003560e01c8063bd5bfef214610045578063dd678a071461006e575b600080fd5b61005861005336600461032c565b61008e565b60405161006591906103bc565b60405180910390f35b81801561007a57600080fd5b50610058610089366004610362565b6100b0565b60006100a98261009d856100e0565b80519060200120610247565b9392505050565b60006100a9600083604051806020016100c89061031f565b601f1982820381018352601f90910116604052610254565b604080516000815260208101909152606090819061010190604481016103d0565b60408051601f198184030181529190526020810180516001600160e01b03166352e831dd60e01b179052805190915060630167ffffffffffffffff8111801561014957600080fd5b506040519080825280601f01601f191660200182016040528015610174576020820181803683370190505b507f3d3d606380380380913d393d73bebebebebebebebebebebebebebebebebebebe6020820152600160601b308102602d8301527f5af4602a57600080fd5b602d8060366000396000f3363d3d373d3d3d363d73be6041830152840260608201526e5af43d82803e903d91602b57fd5bf360881b6074820152915060005b81518110156102405781818151811061020757fe5b602001015160f81c60f81b83826063018151811061022157fe5b60200101906001600160f81b031916908160001a9053506001016101f2565b5050919050565b60006100a98383306102d7565b600080844710156102805760405162461bcd60e51b81526004016102779061048f565b60405180910390fd5b825161029e5760405162461bcd60e51b815260040161027790610423565b8383516020850187f590506001600160a01b0381166102cf5760405162461bcd60e51b815260040161027790610458565b949350505050565b60008060ff60f81b8386866040516020016102f59493929190610383565b60408051808303601f1901815291905280516020909101206001600160a01b031695945050505050565b613192806104c783390190565b6000806040838503121561033e578182fd5b82356001600160a01b0381168114610354578283fd5b946020939093013593505050565b60008060408385031215610374578182fd5b50508035926020909101359150565b6001600160f81b031994909416845260609290921b6bffffffffffffffffffffffff191660018401526015830152603582015260550190565b6001600160a01b0391909116815260200190565b6000602080835283518082850152825b818110156103fc578581018301518582016040015282016103e0565b8181111561040d5783604083870101525b50601f01601f1916929092016040019392505050565b6020808252818101527f437265617465323a2062797465636f6465206c656e677468206973207a65726f604082015260600190565b60208082526019908201527f437265617465323a204661696c6564206f6e206465706c6f7900000000000000604082015260600190565b6020808252601d908201527f437265617465323a20696e73756666696369656e742062616c616e636500000060408201526060019056fe608060405234801561001057600080fd5b50613172806100206000396000f3fe6080604052600436106100745760003560e01c806356b8e1461161004e57806356b8e146146101005780635f7d2b57146101205780635fe7595814610140578063c4ddf363146101605761007b565b80632692f25a1461007d5780632d34ba791461009d57806334686eaf146100d35761007b565b3661007b57005b005b34801561008957600080fd5b5061007b610098366004612425565b610180565b3480156100a957600080fd5b506100bd6100b83660046123ed565b6103a6565b6040516100ca9190612a4b565b60405180910390f35b3480156100df57600080fd5b506100f36100ee3660046125ce565b610414565b6040516100ca919061301c565b34801561010c57600080fd5b506100bd61011b36600461259c565b610433565b34801561012c57600080fd5b5061007b61013b3660046125ce565b6107e7565b34801561014c57600080fd5b5061007b61015b36600461247b565b610832565b34801561016c57600080fd5b506100bd61017b36600461259c565b610873565b6001546001600160a01b03163314806101a357506000546001600160a01b031633145b806101ad57503330145b6101d25760405162461bcd60e51b81526004016101c990612c44565b60405180910390fd5b60006101ee6101e98383600463ffffffff610d0716565b610d30565b60e01b90506101fb611f8e565b61020d6000868463ffffffff610d4d16565b6002546001600160a01b03166020820152600054909150600160a01b900460ff16801561023d5750604081015151155b156102e05760006060866001600160a01b0316868660405161025f919061297e565b60006040518083038185875af1925050503d806000811461029c576040519150601f19603f3d011682016040523d82523d6000602084013e6102a1565b606091505b5091509150816102cd576102b481610e00565b60405162461bcd60e51b81526004016101c99190612a85565b6102d78282610ef3565b505050506103a1565b6102ed8160400151610f08565b6103095760405162461bcd60e51b81526004016101c990612b7b565b6000606061031e83868863ffffffff610f1a16565b9150915081610330576102b481610e00565b60408084015101516001600160a01b0316156103605760408084015101516103609060079063ffffffff61102a16565b6040830151606001516001600160a01b031615610392576040830151606001516103929060099063ffffffff61102a16565b61039c8282610ef3565b505050505b505050565b6001546000906001600160a01b0316156103d25760405162461bcd60e51b81526004016101c990612af2565b5060008054336001600160a01b0319918216179091556001805482166001600160a01b0385811691909117825560028054909316908416179091555b92915050565b61041c611fb2565b61042c838363ffffffff61108516565b9392505050565b60065460009060ff16156104595760405162461bcd60e51b81526004016101c990612b50565b600054600160a01b900460ff16156104835760405162461bcd60e51b81526004016101c990612cc4565b61048c826110f6565b6104a85760405162461bcd60e51b81526004016101c990612be1565b6104b0611fca565b6104b983611179565b600880546040805160208084028201810190925282815293945060609392919083018282801561051257602002820191906000526020600020905b81546001600160a01b031681526001909101906020018083116104f4575b505050505090504382602001516020015160000151106107db576006805461ff0019166101001790556004545b8151811015610597576207a1205a108061057b575061057982828151811061056357fe5b60200260200101516001600160a01b0316611195565b155b1561058f5760045550600091506107e29050565b60010161053f565b5080516004908155600080548451602001516040516370a0823160e01b81526001600160a01b039283169491909216916370a08231916105d99130910161299a565b60206040518083038186803b1580156105f157600080fd5b505afa158015610605573d6000803e3d6000fd5b505050506040513d601f19601f820116820180604052508101906106299190612842565b84516020015190915061064c906001600160a01b0316838363ffffffff61121616565b6106685760405162461bcd60e51b81526004016101c990612de3565b60208085015181015101518451606001518210156106a257845160600151820381111561069e57845160600151820390036106a2565b5060005b8451602001516040516303cc556d60e51b8152828403916001600160a01b0386169163801874ec9190839063798aada0906106e190849060040161299a565b60206040518083038186803b1580156106f957600080fd5b505afa15801561070d573d6000803e3d6000fd5b505050506040513d601f19601f82011682018060405250810190610731919061262e565b60208a0151516040516001600160e01b031960e086901b16815261075e93929190889088906004016129ae565b602060405180830381600087803b15801561077857600080fd5b505af115801561078c573d6000803e3d6000fd5b505050506040513d601f19601f820116820180604052508101906107b09190612580565b6107cc5760405162461bcd60e51b81526004016101c990612dac565b600196505050505050506107e2565b6000925050505b919050565b60006107fc60006107f6611288565b856112ac565b9050606061082161081c6001600160a01b0384168563ffffffff61131e16565b6113a8565b905061082c816113d1565b50505050565b6000546001600160a01b0316331461085c5760405162461bcd60e51b81526004016101c990612c0f565b6060610867826113d9565b905061086f30825b5050565b600061087d611fea565b6108868361165c565b905061089d6108988260000151611678565b6110f6565b6108b95760405162461bcd60e51b81526004016101c990612be1565b600654610100900460ff16156108e15760405162461bcd60e51b81526004016101c990612d75565b80518051606001516000916108fb9163ffffffff61168b16565b60008054845151602001516040516303cc556d60e51b815293945091926001600160a01b039091169163798aada091610937919060040161299a565b60206040518083038186803b15801561094f57600080fd5b505afa158015610963573d6000803e3d6000fd5b505050506040513d601f19601f82011682018060405250810190610987919061262e565b60065490915060009060ff16610b14576006805460ff19166001179055600054845151602001516040516307ef1e3760e21b81526001600160a01b0390921691631fbc78dc916109d99160040161299a565b60206040518083038186803b1580156109f157600080fd5b505afa158015610a05573d6000803e3d6000fd5b505050506040513d601f19601f82011682018060405250810190610a29919061262e565b6001600160a01b031663159ab14d856060015186600001516000015160600151610a52886116c4565b88608001516040518563ffffffff1660e01b8152600401610a769493929190612a56565b602060405180830381600087803b158015610a9057600080fd5b505af1158015610aa4573d6000803e3d6000fd5b505050506040513d601f19601f82011682018060405250810190610ac89190612842565b600381905584515160200151909150610af3906001600160a01b03168385840363ffffffff61121616565b610b0f5760405162461bcd60e51b81526004016101c990612bb2565b610b19565b506003545b600a80546040805160208084028201810190925282815260609390929091830182828015610b7057602002820191906000526020600020905b81546001600160a01b03168152600190910190602001808311610b52575b50506005549394505050505b8151811015610bd7576207a1205a1080610bb85750610bb6828281518110610ba057fe5b60200260200101516001600160a01b03166116dd565b155b15610bcf5760055550600094506107e29350505050565b600101610b7c565b506000805460ff60a01b1916600160a01b17905584516020808201515191510151610c14916001600160a01b03909116908663ffffffff61121616565b610c305760405162461bcd60e51b81526004016101c990612b22565b600080548651805160209081015191810151805190820151909101516040516320061d3b60e21b81526001600160a01b039094169463801874ec94610c7e94938a93909290916004016129ae565b602060405180830381600087803b158015610c9857600080fd5b505af1158015610cac573d6000803e3d6000fd5b505050506040513d601f19601f82011682018060405250810190610cd09190612580565b610cec5760405162461bcd60e51b81526004016101c990612d32565b8451805151610cfa916116f5565b5060019695505050505050565b610d0f612021565b610d19848461173a565b815260208101919091526040810191909152919050565b8051602082015160009190610d458282611741565b949350505050565b610d55611f8e565b604080516060810182526001600160a01b03808616825260028701548116602083015286548351630220891b60e51b81529293840192911690634411236090610da490889088906004016129e2565b608060405180830381600087803b158015610dbe57600080fd5b505af1158015610dd2573d6000803e3d6000fd5b505050506040513d601f19601f82011682018060405250810190610df6919061267c565b9052949350505050565b6060815160001415610e46575060408051808201909152601c81527f636170747572656420656d70747920726576657274206275666665720000000060208201526107e2565b6308c379a0610e5b6101e98460006004610d07565b63ffffffff1614610e86576040518060600160405280603f81526020016130fe603f913990506107e2565b6060610ea1610e9c84600463ffffffff61175e16565b611782565b9050805160001415610ee857505060408051808201909152601d81527f636170747572656420656d70747920726576657274206d65737361676500000060208201526107e2565b6060610d45826117f1565b81610f0057805181602001fd5b805181602001f35b602001516001600160a01b0316151590565b60006060600060608660400151602001516001600160a01b03165a610fcd6040518061010001604052808b60400151602001516001600160a01b031681526020018b60400151604001516001600160a01b031681526020018b60400151606001516001600160a01b031681526020018b602001516001600160a01b03168152602001326001600160a01b031681526020018b600001516001600160a01b031681526020018981526020018a815250611807565b604051610fda919061297e565b6000604051808303818686f4925050503d8060008114611016576040519150601f19603f3d011682016040523d82523d6000602084013e61101b565b606091505b50909890975095505050505050565b6001600160a01b03811660009081526020839052604090205460ff16156110505761086f565b6001808301805491820181556000908152602090200180546001600160a01b0383166001600160a01b03199091161790555050565b61108d611fb2565b60603061109a858561185a565b6040516110a7919061297e565b6000604051808303816000865af19150503d80600081146110e4576040519150601f19603f3d011682016040523d82523d6000602084013e6110e9565b606091505b50915050610d45816118b0565b600080546040516308f6049560e01b81526001600160a01b03909116906308f6049590611127908590600401612a85565b602060405180830381600087803b15801561114157600080fd5b505af1158015611155573d6000803e3d6000fd5b505050506040513d601f19601f8201168201806040525081019061040e9190612580565b611181611fca565b8180602001905181019061040e91906126e4565b6000806060836001600160a01b03166111ad856118cc565b6040516111ba919061297e565b600060405180830381855af49150503d80600081146111f5576040519150601f19603f3d011682016040523d82523d6000602084013e6111fa565b606091505b50915091508161120d576102b481610e00565b610d458161190f565b600080846001600160a01b031661122d8585611925565b60405161123a919061297e565b6000604051808303816000865af19150503d8060008114611277576040519150601f19603f3d011682016040523d82523d6000602084013e61127c565b606091505b50909695505050505050565b7fad53495153c7c363e98a26920ec679e0e687636458f6908c91cf6deadb19080190565b600080844710156112cf5760405162461bcd60e51b81526004016101c990612e2d565b82516112ed5760405162461bcd60e51b81526004016101c990612abd565b8383516020850187f590506001600160a01b038116610d455760405162461bcd60e51b81526004016101c990612c8d565b611326611fb2565b60006060846001600160a01b031661133d85611942565b60405161134a919061297e565b600060405180830381855af49150503d8060008114611385576040519150601f19603f3d011682016040523d82523d6000602084013e61138a565b606091505b50604080518082019091529115158252602082015295945050505050565b6060816040516020016113bb919061301c565b6040516020818303038152906040529050919050565b805160208201fd5b60606113e3611fb2565b6113ec8361195d565b905060005b835181101561164e5760608260200151828151811061140c57fe5b6020026020010151905060006001600160a01b03168160008151811061142e57fe5b6020026020010151600001516001600160a01b031614156115535761146a8160008151811061145957fe5b602002602001015160200151611ac5565b6001600160a01b0316835261147d611fb2565b6114a08260008151811061148d57fe5b6020026020010151602001518486611afb565b6040805160008082526020820190925291925050826000815181106114c157fe5b6020908102919091018101510152805115611501576114f18460200151846114ec8460200151611b88565b611b9e565b6114fc57505061164e565b611551565b80602001518260008151811061151357fe5b60200260200101516060018190525080600001518260008151811061153457fe5b602002602001015160400190151590811515815250505050611646565b505b8260200151828151811061156357fe5b6020026020010151905060008090505b81518110156116435760006060306001600160a01b03166115a685858151811061159957fe5b6020026020010151611c9d565b6040516115b3919061297e565b6000604051808303816000865af19150503d80600081146115f0576040519150601f19603f3d011682016040523d82523d6000602084013e6115f5565b606091505b50915091508184848151811061160757fe5b602002602001015160400190151590811515815250508084848151811061162a57fe5b6020908102919091010151606001525050600101611573565b50505b6001016113f1565b5061042c8160200151611cc3565b611664611fea565b8180602001905181019061040e9190612795565b6060816040516020016113bb9190612f74565b600061042c670de0b6b3a76400006116b88560200151602001516060015185611dc790919063ffffffff16565b9063ffffffff611e0116565b60006116cf82611e43565b805190602001209050919050565b6000806060836001600160a01b03166111ad85611e68565b816001600160a01b03167fde947e8b6051ad11f984637f1fd1be5fc4b62225fcbf933475f7783ac5e2bd5f8260405161172e9190612f74565b60405180910390a25050565b0160200190565b6000600180600884021b0380836020038503511691505092915050565b611766612021565b818351101561177457825191505b61042c838384865103610d07565b6020810151606090806001600160401b03811180156117a057600080fd5b506040519080825280601f01601f1916602001820160405280156117cb576020820181803683370190505b50835190925060006117dc84611eab565b90506117e9818385611eb1565b505050919050565b60608180602001905181019061040e919061264a565b6060633c52e5a160e01b826040516024016118229190612e64565b60408051601f198184030181529190526020810180516001600160e01b03166001600160e01b03199093169290921790915292915050565b6060635f7d2b5760e01b8383604051602401611877929190612a98565b60408051601f198184030181529190526020810180516001600160e01b03166001600160e01b0319909316929092179091529392505050565b6118b8611fb2565b8180602001905181019061040e9190612716565b6060816040516024016118df919061299a565b60408051601f198184030181529190526020810180516001600160e01b03166305f0caad60e31b17905292915050565b60008180602001905181019061040e9190612580565b606063a9059cbb60e01b8383604051602401611877929190612a32565b60606309c5eabe60e01b826040516024016118229190612a85565b611965611fb2565b606082516001600160401b038111801561197e57600080fd5b506040519080825280602002602001820160405280156119b257816020015b606081526020019060019003908161199d5790505b50905060005b8351811015611aa85760408051600180825281830190925290816020015b6119de612042565b8152602001906001900390816119d6579050508282815181106119fd57fe5b6020026020010181905250838181518110611a1457fe5b602002602001015160000151828281518110611a2c57fe5b6020026020010151600081518110611a4057fe5b60209081029190910101516001600160a01b0390911690528351849082908110611a6657fe5b602002602001015160200151828281518110611a7e57fe5b6020026020010151600081518110611a9257fe5b60209081029190910181015101526001016119b8565b506040805180820190915260008152602081019190915292915050565b600061040e7fad53495153c7c363e98a26920ec679e0e687636458f6908c91cf6deadb19080160001b8380519060200120611eef565b611b03611fb2565b611b0b612068565b82516001600160a01b031660208201528315611b6657606083602001518581518110611b3357fe5b602002602001015190508051600014611b645780600182510381518110611b5657fe5b602090810291909101015182525b505b611b7f611b7282611efc565b869063ffffffff61108516565b95945050505050565b60608180602001905181019061040e919061254e565b6000606082516001600160401b0381118015611bb957600080fd5b50604051908082528060200260200182016040528015611bf357816020015b611be0612042565b815260200190600190039081611bd85790505b50905060005b8151811015611c7957838181518110611c0e57fe5b602002602001015160200151828281518110611c2657fe5b602002602001015160200181905250838181518110611c4157fe5b602002602001015160000151828281518110611c5957fe5b60209081029190910101516001600160a01b039091169052600101611bf9565b5080858581518110611c8757fe5b6020908102919091010152511515949350505050565b80516020820151604051606092631349792d60e11b926118229260009190602401612a05565b60606000805b8351811015611cf857838181518110611cde57fe5b602002602001015151820191508080600101915050611cc9565b50806001600160401b0381118015611d0f57600080fd5b50604051908082528060200260200182016040528015611d4957816020015b611d36612042565b815260200190600190039081611d2e5790505b5091506000805b84518110156117e95760005b858281518110611d6857fe5b602002602001015151811015611dbe57858281518110611d8457fe5b60200260200101518181518110611d9757fe5b6020026020010151858481518110611dab57fe5b6020908102919091010152600101611d5c565b50600101611d50565b600082611dd65750600061040e565b82820282848281611de357fe5b041461042c5760405162461bcd60e51b81526004016101c990612cf1565b600061042c83836040518060400160405280601a81526020017f536166654d6174683a206469766973696f6e206279207a65726f000000000000815250611f0f565b8051516040908101516020808401518385015193516060946113bb9493909101612968565b606081604051602401611e7b919061299a565b60408051601f198184030181529190526020810180516001600160e01b0316639f7c73e960e01b17905292915050565b60200190565b5b60208110611ed1578151835260209283019290910190601f1901611eb2565b600180600883602003021b0380845116811984511617845250505050565b600061042c838330611f46565b6060816040516020016113bb9190612ef9565b60008183611f305760405162461bcd60e51b81526004016101c99190612a85565b506000838581611f3c57fe5b0495945050505050565b60008060ff60f81b838686604051602001611f64949392919061292f565b60408051808303601f1901815291905280516020909101206001600160a01b031695945050505050565b6040805160608101825260008082526020820152908101611fad612088565b905290565b60408051808201909152600081526060602082015290565b6040518060400160405280611fdd6120af565b8152602001611fad6120e6565b6040518060a00160405280611ffd611fca565b81526000602082018190526040820181905260608083019190915260809091015290565b60405180606001604052806000815260200160008152602001600081525090565b604080516080810182526000808252606060208301819052928201528181019190915290565b604051806040016040528061207b612042565b8152600060209091015290565b60408051608081018252600080825260208201819052918101829052606081019190915290565b6040805160c0810182526000808252602082018190529181018290526060808201839052608082019290925260a081019190915290565b604051806040016040528060006001600160a01b03168152602001611fad6040518060800160405280600081526020016000815260200160008152602001600081525090565b805161040e816130d7565b600082601f830112612147578081fd5b815161215a61215582613069565b613043565b818152915060208083019084810160005b848110156121e25781518701604080601f19838c0301121561218c57600080fd5b61219581613043565b6121a18b87850161212c565b8152818301516001600160401b038111156121bb57600080fd5b6121c98c888387010161224b565b828801525086525050928201929082019060010161216b565b505050505092915050565b8051801515811461040e57600080fd5b600082601f83011261220d578081fd5b813561221b61215582613088565b915080825283602082850101111561223257600080fd5b8060208401602084013760009082016020015292915050565b600082601f83011261225b578081fd5b815161226961215582613088565b915080825283602082850101111561228057600080fd5b6122918160208401602086016130ab565b5092915050565b600081830360a08112156122aa578182fd5b6122b46040613043565b915082516122c1816130d7565b82526080601f19820112156122d557600080fd5b506122e06080613043565b602083015181526040830151602082015260608301516040820152608083015160608201528060208301525092915050565b600060c08284031215612323578081fd5b61232d6040613043565b905081516001600160401b038082111561234657600080fd5b81840160c0818703121561235957600080fd5b61236360c0613043565b92508051612370816130d7565b83526020810151612380816130d7565b8060208501525060408101516040840152606081015160608401526123a886608083016121ed565b608084015260a0810151828111156123bf57600080fd5b6123cb87828401612137565b60a085015250505081526123e28360208401612298565b602082015292915050565b600080604083850312156123ff578182fd5b823561240a816130d7565b9150602083013561241a816130d7565b809150509250929050565b600080600060608486031215612439578081fd5b8335612444816130d7565b92506020840135915060408401356001600160401b03811115612465578182fd5b612471868287016121fd565b9150509250925092565b6000602080838503121561248d578182fd5b82356001600160401b03808211156124a3578384fd5b81850186601f8201126124b4578485fd5b803592506124c461215584613069565b83815284810190828601875b8681101561253f5781358501604080601f19838f030112156124f0578a8bfd5b6124f981613043565b8a830135612506816130d7565b81528282013589811115612518578c8dfd5b6125268f8d838701016121fd565b828d0152508652505092870192908701906001016124d0565b50909998505050505050505050565b60006020828403121561255f578081fd5b81516001600160401b03811115612574578182fd5b610d4584828501612137565b600060208284031215612591578081fd5b815161042c816130ef565b6000602082840312156125ad578081fd5b81356001600160401b038111156125c2578182fd5b610d45848285016121fd565b600080604083850312156125e0578182fd5b82356001600160401b03808211156125f6578384fd5b612602868387016121fd565b93506020850135915080821115612617578283fd5b50612624858286016121fd565b9150509250929050565b60006020828403121561263f578081fd5b815161042c816130d7565b60006020828403121561265b578081fd5b81516001600160401b03811115612670578182fd5b610d458482850161224b565b60006080828403121561268d578081fd5b6126976080613043565b82516126a2816130ef565b815260208301516126b2816130d7565b602082015260408301516126c5816130d7565b604082015260608301516126d8816130d7565b60608201529392505050565b6000602082840312156126f5578081fd5b81516001600160401b0381111561270a578182fd5b610d4584828501612312565b600060208284031215612727578081fd5b81516001600160401b038082111561273d578283fd5b8184016040818703121561274f578384fd5b6127596040613043565b92508051612766816130ef565b8352602081015182811115612779578485fd5b6127858782840161224b565b6020850152509195945050505050565b6000602082840312156127a6578081fd5b81516001600160401b03808211156127bc578283fd5b81840160a081870312156127ce578384fd5b6127d860a0613043565b92508051828111156127e8578485fd5b6127f487828401612312565b845250602081015160208401526040810151604084015260608101516060840152608081015182811115612826578485fd5b6128328782840161224b565b6080850152509195945050505050565b600060208284031215612853578081fd5b5051919050565b6001600160a01b03169052565b6000815180845260208085019450848183028601828601855b858110156128ca578383038952815180516001600160a01b03168452858101516040878601819052906128b5828701826128dd565b9b88019b955050509185019150600101612880565b5090979650505050505050565b15159052565b600081518084526128f58160208601602086016130ab565b601f01601f19169290920160200192915050565b805182526020810151602083015260408101516040830152606081015160608301525050565b6001600160f81b031994909416845260609290921b6bffffffffffffffffffffffff191660018401526015830152603582015260550190565b9283526020830191909152604082015260600190565b600082516129908184602087016130ab565b9190910192915050565b6001600160a01b0391909116815260200190565b6001600160a01b03958616815293851660208501529190931660408301526060820192909252608081019190915260a00190565b6001600160a01b039290921682526001600160e01b031916602082015260400190565b6001600160a01b038416815260ff83166020820152606060408201819052600090611b7f908301846128dd565b6001600160a01b03929092168252602082015260400190565b901515815260200190565b600085825284602083015283604083015260806060830152612a7b60808301846128dd565b9695505050505050565b60006020825261042c60208301846128dd565b600060408252612aab60408301856128dd565b8281036020840152611b7f81856128dd565b6020808252818101527f437265617465323a2062797465636f6465206c656e677468206973207a65726f604082015260600190565b60208082526016908201527563616e277420696e697469616c697a6520747769636560501b604082015260600190565b6020808252601490820152731ad9595c195c881c185e5bdd5d0819985a5b195960621b604082015260600190565b6020808252601190820152701b1bd85b8818995a5b99c81c995c185a59607a1b604082015260600190565b6020808252601f908201527f66756e6374696f6e2068616e646c6572206e6f74207265676973746572656400604082015260600190565b6020808252601590820152741d1bdad95b881d1c985b9cd9995c8819985a5b1959605a1b604082015260600190565b6020808252601490820152731c1c9bde1e481c9958dbdc99081a5b9d985b1a5960621b604082015260600190565b6020808252818101527f6d7573742062652063616c6c65642066726f6d207368696674657220706f6f6c604082015260600190565b60208082526029908201527f626f72726f772070726f78792063616e206f6e6c792062652075736564206279604082015268103137b93937bbb2b960b91b606082015260800190565b60208082526019908201527f437265617465323a204661696c6564206f6e206465706c6f7900000000000000604082015260600190565b6020808252601390820152721b1bd85b88185b1c9958591e481c995c185a59606a1b604082015260600190565b60208082526021908201527f536166654d6174683a206d756c7469706c69636174696f6e206f766572666c6f6040820152607760f81b606082015260800190565b60208082526023908201527f6c6f616e207265736f6c7574696f6e206e6f74696669636174696f6e206661696040820152621b195960ea1b606082015260800190565b60208082526019908201527f70726f7879206973206265696e67206c69717569646174656400000000000000604082015260600190565b60208082526017908201527f6c6f616e207265736f6c7574696f6e206661696c757265000000000000000000604082015260600190565b6020808252602a908201527f6661696c656420746f207472616e73666572207265636c61696d65642066756e604082015269191cc81d1bc81c1bdbdb60b21b606082015260800190565b6020808252601d908201527f437265617465323a20696e73756666696369656e742062616c616e6365000000604082015260600190565b60006020825260018060a01b03808451166020840152806020850151166040840152506040830151612e99606084018261285a565b506060830151612eac608084018261285a565b506080830151612ebf60a084018261285a565b5060a0830151612ed260c084018261285a565b5060c083015160e083015260e0830151610100808185015250610d456101208401826128dd565b60006020825282516040602084015260018060a01b038082511660608501526020820151608080860152612f3060e08601826128dd565b6040840151151560a08701526060840151868203605f190160c08801529150612f5981836128dd565b93505050806020860151166040850152508091505092915050565b600060208252825160c06020840152612f9160e08401825161285a565b6020810151612fa461010085018261285a565b50604081015161012084015260608101516101408401526080810151612fce6101608501826128d7565b5060a081015160c0610180850152612fea6101a0850182612867565b915050602084015161300060408501825161285a565b60208101516130126060860182612909565b5090949350505050565b6000602082528251151560208301526020830151604080840152610d4560608401826128dd565b6040518181016001600160401b038111828210171561306157600080fd5b604052919050565b60006001600160401b0382111561307e578081fd5b5060209081020190565b60006001600160401b0382111561309d578081fd5b50601f01601f191660200190565b60005b838110156130c65781810151838201526020016130ae565b8381111561082c5750506000910152565b6001600160a01b03811681146130ec57600080fd5b50565b80151581146130ec57600080fdfe6361707475726564206120726576657274206572726f722c2062757420697420646f65736e277420636f6e666f726d20746f20746865207374616e64617264a2646970667358221220d321af5462c6158cbdb72c0ea923c30d4d68590e6a135be8a5dd97d0f94efa2a64736f6c63430006060033a264697066735822122032177e890683e67b575dd62b15e5e9162fd756fde00c9839e2eb6863fccbb07d64736f6c63430006060033",
  "immutableReferences": {},
  "source": "pragma solidity ^0.6.0;\npragma experimental ABIEncoderV2;\n\nimport { Create2 } from \"openzeppelin-solidity/contracts/utils/Create2.sol\";\nimport { ShifterBorrowProxy } from \"./ShifterBorrowProxy.sol\";\nimport { ShifterPoolLib } from \"./ShifterPoolLib.sol\";\n\nlibrary ShifterBorrowProxyFactoryLib {\n  function deployBorrowProxy(ShifterPoolLib.Isolate storage /* isolate */, bytes32 salt) external returns (address output) {\n    output = Create2.deploy(0, salt, type(ShifterBorrowProxy).creationCode);\n  }\n  function deriveBorrowerAddress(address target, bytes32 salt) external view returns (address) {\n    return Create2.computeAddress(salt, keccak256(computeCreationCode(target)));\n  }\n  function computeCreationCode(address target) internal view returns (bytes memory clone) {\n      bytes memory consData = abi.encodeWithSignature(\"cloneConstructor(bytes)\", new bytes(0));\n      clone = new bytes(99 + consData.length);\n      assembly {\n        mstore(add(clone, 0x20),\n           0x3d3d606380380380913d393d73bebebebebebebebebebebebebebebebebebebe)\n        mstore(add(clone, 0x2d),\n           mul(address(), 0x01000000000000000000000000))\n        mstore(add(clone, 0x41),\n           0x5af4602a57600080fd5b602d8060366000396000f3363d3d373d3d3d363d73be)\n           mstore(add(clone, 0x60),\n           mul(target, 0x01000000000000000000000000))\n        mstore(add(clone, 116),\n           0x5af43d82803e903d91602b57fd5bf30000000000000000000000000000000000)\n      }\n      for (uint256 i = 0; i < consData.length; i++) {\n        clone[i + 99] = consData[i];\n      }\n  }\n}\n",
  "sourcePath": "/home/ray/0confirmation/packages/0confirmation-sol/contracts/ShifterBorrowProxyFactoryLib.sol",
  "compiler": {
    "name": "solc",
    "version": "0.6.6+commit.6c089d02.Emscripten.clang"
  },
  "schemaVersion": "3.1.0",
  "updatedAt": "2020-04-29T06:07:13.879Z",
  "devdoc": {
    "methods": {}
  },
  "userdoc": {
    "methods": {}
  }
}