{
  "contractName": "ShifterPool",
  "abi": [
    {
      "anonymous": false,
      "inputs": [
        {
          "indexed": true,
          "internalType": "address",
          "name": "previousOwner",
          "type": "address"
        },
        {
          "indexed": true,
          "internalType": "address",
          "name": "newOwner",
          "type": "address"
        }
      ],
      "name": "OwnershipTransferred",
      "type": "event"
    },
    {
      "inputs": [
        {
          "internalType": "address",
          "name": "delegateTo",
          "type": "address"
        },
        {
          "internalType": "bytes",
          "name": "callData",
          "type": "bytes"
        }
      ],
      "name": "_executeQuery",
      "outputs": [
        {
          "internalType": "bytes",
          "name": "",
          "type": "bytes"
        }
      ],
      "stateMutability": "nonpayable",
      "type": "function"
    },
    {
      "inputs": [],
      "name": "owner",
      "outputs": [
        {
          "internalType": "address",
          "name": "",
          "type": "address"
        }
      ],
      "stateMutability": "view",
      "type": "function"
    },
    {
      "inputs": [
        {
          "internalType": "address",
          "name": "viewLogic",
          "type": "address"
        },
        {
          "internalType": "bytes",
          "name": "payload",
          "type": "bytes"
        }
      ],
      "name": "query",
      "outputs": [
        {
          "internalType": "bytes",
          "name": "",
          "type": "bytes"
        }
      ],
      "stateMutability": "view",
      "type": "function"
    },
    {
      "inputs": [],
      "name": "renounceOwnership",
      "outputs": [],
      "stateMutability": "nonpayable",
      "type": "function"
    },
    {
      "inputs": [
        {
          "internalType": "address",
          "name": "newOwner",
          "type": "address"
        }
      ],
      "name": "transferOwnership",
      "outputs": [],
      "stateMutability": "nonpayable",
      "type": "function"
    },
    {
      "inputs": [
        {
          "internalType": "address",
          "name": "shifterRegistry",
          "type": "address"
        },
        {
          "internalType": "uint256",
          "name": "poolFee",
          "type": "uint256"
        },
        {
          "components": [
            {
              "internalType": "enum BorrowProxyLib.ModuleRegistrationType",
              "name": "moduleType",
              "type": "uint8"
            },
            {
              "internalType": "address",
              "name": "target",
              "type": "address"
            },
            {
              "internalType": "bytes4[]",
              "name": "sigs",
              "type": "bytes4[]"
            },
            {
              "components": [
                {
                  "internalType": "address",
                  "name": "assetHandler",
                  "type": "address"
                },
                {
                  "internalType": "address",
                  "name": "liquidationModule",
                  "type": "address"
                }
              ],
              "internalType": "struct BorrowProxyLib.Module",
              "name": "module",
              "type": "tuple"
            }
          ],
          "internalType": "struct BorrowProxyLib.ModuleRegistration[]",
          "name": "modules",
          "type": "tuple[]"
        },
        {
          "components": [
            {
              "internalType": "address",
              "name": "token",
              "type": "address"
            },
            {
              "internalType": "address",
              "name": "liqToken",
              "type": "address"
            }
          ],
          "internalType": "struct ShifterPoolLib.LiquidityTokenLaunch[]",
          "name": "tokenLaunches",
          "type": "tuple[]"
        }
      ],
      "name": "setup",
      "outputs": [],
      "stateMutability": "nonpayable",
      "type": "function"
    },
    {
      "inputs": [],
      "name": "getBorrowProxyCreationCode",
      "outputs": [
        {
          "internalType": "bytes",
          "name": "",
          "type": "bytes"
        }
      ],
      "stateMutability": "pure",
      "type": "function"
    },
    {
      "inputs": [
        {
          "components": [
            {
              "components": [
                {
                  "internalType": "address payable",
                  "name": "borrower",
                  "type": "address"
                },
                {
                  "internalType": "address",
                  "name": "token",
                  "type": "address"
                },
                {
                  "internalType": "bytes32",
                  "name": "nonce",
                  "type": "bytes32"
                },
                {
                  "internalType": "uint256",
                  "name": "amount",
                  "type": "uint256"
                }
              ],
              "internalType": "struct ShifterBorrowProxyLib.LiquidityRequest",
              "name": "request",
              "type": "tuple"
            },
            {
              "internalType": "uint256",
              "name": "gasRequested",
              "type": "uint256"
            },
            {
              "internalType": "bytes",
              "name": "signature",
              "type": "bytes"
            }
          ],
          "internalType": "struct ShifterBorrowProxyLib.LiquidityRequestParcel",
          "name": "liquidityRequestParcel",
          "type": "tuple"
        },
        {
          "internalType": "uint256",
          "name": "bond",
          "type": "uint256"
        },
        {
          "internalType": "uint256",
          "name": "timeoutExpiry",
          "type": "uint256"
        }
      ],
      "name": "executeBorrow",
      "outputs": [],
      "stateMutability": "payable",
      "type": "function"
    },
    {
      "inputs": [
        {
          "internalType": "bytes",
          "name": "proxyRecord",
          "type": "bytes"
        }
      ],
      "name": "validateProxyRecordHandler",
      "outputs": [
        {
          "internalType": "bool",
          "name": "",
          "type": "bool"
        }
      ],
      "stateMutability": "view",
      "type": "function"
    },
    {
      "inputs": [],
      "name": "getProxyOwnerHandler",
      "outputs": [
        {
          "internalType": "address",
          "name": "",
          "type": "address"
        }
      ],
      "stateMutability": "view",
      "type": "function"
    },
    {
      "inputs": [
        {
          "internalType": "address",
          "name": "token",
          "type": "address"
        }
      ],
      "name": "getShifterHandler",
      "outputs": [
        {
          "internalType": "contract IShifter",
          "name": "",
          "type": "address"
        }
      ],
      "stateMutability": "view",
      "type": "function"
    },
    {
      "inputs": [
        {
          "internalType": "address",
          "name": "token",
          "type": "address"
        }
      ],
      "name": "getLiquidityTokenHandler",
      "outputs": [
        {
          "internalType": "contract LiquidityToken",
          "name": "",
          "type": "address"
        }
      ],
      "stateMutability": "view",
      "type": "function"
    },
    {
      "inputs": [
        {
          "internalType": "address",
          "name": "token",
          "type": "address"
        },
        {
          "internalType": "address",
          "name": "liquidityToken",
          "type": "address"
        },
        {
          "internalType": "address",
          "name": "keeper",
          "type": "address"
        },
        {
          "internalType": "uint256",
          "name": "bond",
          "type": "uint256"
        },
        {
          "internalType": "uint256",
          "name": "repay",
          "type": "uint256"
        }
      ],
      "name": "relayResolveLoan",
      "outputs": [
        {
          "internalType": "bool",
          "name": "",
          "type": "bool"
        }
      ],
      "stateMutability": "nonpayable",
      "type": "function"
    }
  ],
  "bytecode": "0x6080604052600062000016620000ba60201b60201c565b9050806000806101000a81548173ffffffffffffffffffffffffffffffffffffffff021916908373ffffffffffffffffffffffffffffffffffffffff1602179055508073ffffffffffffffffffffffffffffffffffffffff16600073ffffffffffffffffffffffffffffffffffffffff167f8be0079c531659141344cd1fd0a4f28419497f9722a3daafe3b4186f6b6457e060405160405180910390a350620000c2565b600033905090565b61562980620000d26000396000f3fe608060405260043610620000d45760003560e01c8063801874ec116200008b578063f2fde38b1162000061578063f2fde38b14620002c7578063f5e043b014620002f5578063f95fdd111462000323578063fd00430c146200035357620000d4565b8063801874ec14620002335780638da5cb5b1462000277578063daf9b82414620002a757620000d4565b806308f6049514620000d95780631fbc78dc146200011d57806323e3b7301462000161578063715018a614620001a5578063798aada014620001bf5780637b3b00be1462000203575b600080fd5b348015620000e657600080fd5b50620001056004803603620000ff919081019062002eee565b62000397565b60405162000114919062003d48565b60405180910390f35b3480156200012a57600080fd5b5062000149600480360362000143919081019062002d1c565b620003bb565b60405162000158919062003dd6565b60405180910390f35b3480156200016e57600080fd5b506200018d600480360362000187919081019062002dca565b620003da565b6040516200019c919062003db2565b60405180910390f35b348015620001b257600080fd5b50620001bd6200049d565b005b348015620001cc57600080fd5b50620001eb6004803603620001e5919081019062002d1c565b620005f7565b604051620001fa919062003df3565b60405180910390f35b3480156200021057600080fd5b506200021b62000616565b6040516200022a919062003c70565b60405180910390f35b3480156200024057600080fd5b506200025f600480360362000259919081019062002d48565b62000636565b6040516200026e919062003d48565b60405180910390f35b3480156200028457600080fd5b506200028f62000860565b6040516200029e919062003c70565b60405180910390f35b620002c56004803603620002bf919081019062002f5f565b62000889565b005b348015620002d457600080fd5b50620002f36004803603620002ed919081019062002d1c565b62000d57565b005b3480156200030257600080fd5b506200032160048036036200031b919081019062002e24565b62000e00565b005b3480156200033057600080fd5b506200033b620010cc565b6040516200034a919062003db2565b60405180910390f35b3480156200036057600080fd5b506200037f600480360362000379919081019062002dca565b620010f9565b6040516200038e919062003db2565b60405180910390f35b6000620003b433836001600501620012149092919063ffffffff16565b9050919050565b6000620003d38260016200126a90919063ffffffff16565b9050919050565b60603073ffffffffffffffffffffffffffffffffffffffff163373ffffffffffffffffffffffffffffffffffffffff16146200041557600080fd5b600060608473ffffffffffffffffffffffffffffffffffffffff168460405162000440919062003c2d565b600060405180830381855af49150503d80600081146200047d576040519150601f19603f3d011682016040523d82523d6000602084013e62000482565b606091505b5091509150816200049257600080fd5b809250505092915050565b620004a762001327565b73ffffffffffffffffffffffffffffffffffffffff166000809054906101000a900473ffffffffffffffffffffffffffffffffffffffff1673ffffffffffffffffffffffffffffffffffffffff161462000538576040517f08c379a00000000000000000000000000000000000000000000000000000000081526004016200052f90620040ba565b60405180910390fd5b600073ffffffffffffffffffffffffffffffffffffffff166000809054906101000a900473ffffffffffffffffffffffffffffffffffffffff1673ffffffffffffffffffffffffffffffffffffffff167f8be0079c531659141344cd1fd0a4f28419497f9722a3daafe3b4186f6b6457e060405160405180910390a360008060006101000a81548173ffffffffffffffffffffffffffffffffffffffff021916908373ffffffffffffffffffffffffffffffffffffffff160217905550565b60006200060f8260016200132f90919063ffffffff16565b9050919050565b6000620006313360016005016200141390919063ffffffff16565b905090565b60008060001b600160050160000160003373ffffffffffffffffffffffffffffffffffffffff1673ffffffffffffffffffffffffffffffffffffffff168152602001908152602001600020541415620006c6576040517f08c379a0000000000000000000000000000000000000000000000000000000008152600401620006bd9062003fee565b60405180910390fd5b600083146200073f57620006fc84848873ffffffffffffffffffffffffffffffffffffffff166200147f9092919063ffffffff16565b6200073e576040517f08c379a0000000000000000000000000000000000000000000000000000000008152600401620007359062004054565b60405180910390fd5b5b60008214620007b8576200077585838873ffffffffffffffffffffffffffffffffffffffff166200147f9092919063ffffffff16565b620007b7576040517f08c379a0000000000000000000000000000000000000000000000000000000008152600401620007ae9062003f66565b60405180910390fd5b5b8473ffffffffffffffffffffffffffffffffffffffff1663c3275c79336040518263ffffffff1660e01b8152600401620007f3919062003c8d565b602060405180830381600087803b1580156200080e57600080fd5b505af115801562000823573d6000803e3d6000fd5b505050506040513d601f19601f8201168201806040525062000849919081019062002ec2565b6200085357600080fd5b6001905095945050505050565b60008060009054906101000a900473ffffffffffffffffffffffffffffffffffffffff16905090565b34836020015114620008d2576040517f08c379a0000000000000000000000000000000000000000000000000000000008152600401620008c99062003f44565b60405180910390fd5b6000620008df846200158d565b9050620008f68185620015e390919063ffffffff16565b62000938576040517f08c379a00000000000000000000000000000000000000000000000000000000081526004016200092f9062004098565b60405180910390fd5b6200094262002552565b84600001519050600062000956826200163d565b90506000620009658262001685565b905062000980816001600501620016c690919063ffffffff16565b15620009c3576040517f08c379a0000000000000000000000000000000000000000000000000000000008152600401620009ba9062003e56565b60405180910390fd5b620009cd620025a9565b33816000019073ffffffffffffffffffffffffffffffffffffffff16908173ffffffffffffffffffffffffffffffffffffffff168152505062000a2384606001518888600162001718909392919063ffffffff16565b816020018190525062000a35620025e1565b604051806040016040528086815260200183815250905060608160405160200162000a61919062004164565b604051602081830303815290604052905062000a8c866020015160016200132f90919063ffffffff16565b73ffffffffffffffffffffffffffffffffffffffff1663185cc7518562000ab3856200188f565b6040518363ffffffff1660e01b815260040162000ad292919062003d1b565b602060405180830381600087803b15801562000aed57600080fd5b505af115801562000b02573d6000803e3d6000fd5b505050506040513d601f19601f8201168201806040525062000b28919081019062002ec2565b62000b6a576040517f08c379a000000000000000000000000000000000000000000000000000000000815260040162000b619062003faa565b60405180910390fd5b62000b8584826001600501620018dd9092919063ffffffff16565b62000ba484876000015160016005016200192f9092919063ffffffff16565b856000015173ffffffffffffffffffffffffffffffffffffffff166108fc349081150290604051600060405180830381858888f1935050505015801562000bef573d6000803e3d6000fd5b5062000c2333308b896020015173ffffffffffffffffffffffffffffffffffffffff16620019b4909392919063ffffffff16565b62000c65576040517f08c379a000000000000000000000000000000000000000000000000000000000815260040162000c5c90620040dc565b60405180910390fd5b8373ffffffffffffffffffffffffffffffffffffffff1662000c878662001a55565b73ffffffffffffffffffffffffffffffffffffffff161462000ce0576040517f08c379a000000000000000000000000000000000000000000000000000000000815260040162000cd79062003f22565b60405180910390fd5b8373ffffffffffffffffffffffffffffffffffffffff16866000015173ffffffffffffffffffffffffffffffffffffffff167f9ae84ac2ad8f721c2e62d211eca0ae34951726f8834913af6c5ebb81610bb1f88360405162000d43919062003db2565b60405180910390a350505050505050505050565b62000d6162001327565b73ffffffffffffffffffffffffffffffffffffffff166000809054906101000a900473ffffffffffffffffffffffffffffffffffffffff1673ffffffffffffffffffffffffffffffffffffffff161462000df2576040517f08c379a000000000000000000000000000000000000000000000000000000000815260040162000de990620040ba565b60405180910390fd5b62000dfd8162001ad5565b50565b62000e0a62001327565b73ffffffffffffffffffffffffffffffffffffffff166000809054906101000a900473ffffffffffffffffffffffffffffffffffffffff1673ffffffffffffffffffffffffffffffffffffffff161462000e9b576040517f08c379a000000000000000000000000000000000000000000000000000000000815260040162000e9290620040ba565b60405180910390fd5b600073ffffffffffffffffffffffffffffffffffffffff16600160000160009054906101000a900473ffffffffffffffffffffffffffffffffffffffff1673ffffffffffffffffffffffffffffffffffffffff161462000f32576040517f08c379a000000000000000000000000000000000000000000000000000000000815260040162000f299062003fcc565b60405180910390fd5b83600160000160006101000a81548173ffffffffffffffffffffffffffffffffffffffff021916908373ffffffffffffffffffffffffffffffffffffffff16021790555082600180018190555060008090505b825181101562000ffb5762000f996200260b565b83828151811062000fa657fe5b6020026020010151905060008090505b81604001515181101562000feb5762000fdd82600160080162001c0690919063ffffffff16565b808060010191505062000fb6565b5050808060010191505062000f85565b5060008090505b8151811015620010c557620010166200265d565b8282815181106200102357fe5b60200260200101519050806020015160016004016000836000015173ffffffffffffffffffffffffffffffffffffffff1673ffffffffffffffffffffffffffffffffffffffff16815260200190815260200160002060006101000a81548173ffffffffffffffffffffffffffffffffffffffff021916908373ffffffffffffffffffffffffffffffffffffffff16021790555050808060010191505062001002565b5050505050565b606060405180602001620010e090620026a3565b6020820181038252601f19601f82011660405250905090565b6060600060608473ffffffffffffffffffffffffffffffffffffffff1685856040516024016200112b92919062003ce7565b6040516020818303038152906040527f23e3b730000000000000000000000000000000000000000000000000000000007bffffffffffffffffffffffffffffffffffffffffffffffffffffffff19166020820180517bffffffffffffffffffffffffffffffffffffffffffffffffffffffff8381831617835250505050604051620011b7919062003c2d565b600060405180830381855afa9150503d8060008114620011f4576040519150601f19603f3d011682016040523d82523d6000602084013e620011f9565b606091505b5091509150816200120957600080fd5b809250505092915050565b600081805190602001208460000160008573ffffffffffffffffffffffffffffffffffffffff1673ffffffffffffffffffffffffffffffffffffffff168152602001908152602001600020541490509392505050565b60008260000160009054906101000a900473ffffffffffffffffffffffffffffffffffffffff1673ffffffffffffffffffffffffffffffffffffffff166328c4f410836040518263ffffffff1660e01b8152600401620012cb919062003c70565b60206040518083038186803b158015620012e457600080fd5b505afa158015620012f9573d6000803e3d6000fd5b505050506040513d601f19601f820116820180604052506200131f919081019062002f33565b905092915050565b600033905090565b6000808360040160008473ffffffffffffffffffffffffffffffffffffffff1673ffffffffffffffffffffffffffffffffffffffff16815260200190815260200160002060009054906101000a900473ffffffffffffffffffffffffffffffffffffffff169050600073ffffffffffffffffffffffffffffffffffffffff168173ffffffffffffffffffffffffffffffffffffffff16141562001409576040517f08c379a00000000000000000000000000000000000000000000000000000000081526004016200140090620040fe565b60405180910390fd5b8091505092915050565b60008260010160008373ffffffffffffffffffffffffffffffffffffffff1673ffffffffffffffffffffffffffffffffffffffff16815260200190815260200160002060009054906101000a900473ffffffffffffffffffffffffffffffffffffffff16905092915050565b6000808473ffffffffffffffffffffffffffffffffffffffff168484604051602401620014ae92919062003d1b565b6040516020818303038152906040527fa9059cbb000000000000000000000000000000000000000000000000000000007bffffffffffffffffffffffffffffffffffffffffffffffffffffffff19166020820180517bffffffffffffffffffffffffffffffffffffffffffffffffffffffff83818316178352505050506040516200153a919062003c2d565b6000604051808303816000865af19150503d806000811462001579576040519150601f19603f3d011682016040523d82523d6000602084013e6200157e565b606091505b50509050809150509392505050565b6000308260000151602001518360000151604001518460000151606001518560200151604051602001620015c695949392919062003b0e565b604051602081830303815290604052805190602001209050919050565b6000620015ff620015f48362001cff565b846040015162001d31565b73ffffffffffffffffffffffffffffffffffffffff1683600001516000015173ffffffffffffffffffffffffffffffffffffffff1614905092915050565b6000816000015182602001518360400151846060015160405160200162001668949392919062003ab8565b604051602081830303815290604052805190602001209050919050565b6000620016bf82604051806020016200169e90620026a3565b6020820181038252601f19601f820116604052508051906020012062001f32565b9050919050565b60008060001b8360000160008473ffffffffffffffffffffffffffffffffffffffff1673ffffffffffffffffffffffffffffffffffffffff168152602001908152602001600020541415905092915050565b62001722620026b1565b620186a08210156200176b576040517f08c379a0000000000000000000000000000000000000000000000000000000008152600401620017629062003e9a565b60405180910390fd5b60006200178b6064670de0b6b3a764000062001f4990919063ffffffff16565b9050620017ab6064670de0b6b3a764000062001f4990919063ffffffff16565b620017dc86620017cd670de0b6b3a76400008862001f9590919063ffffffff16565b62001f4990919063ffffffff16565b116200181f576040517f08c379a0000000000000000000000000000000000000000000000000000000008152600401620018169062004120565b60405180910390fd5b60008486106200185857620018528662001843878562001f9590919063ffffffff16565b62001f4990919063ffffffff16565b6200185a565b815b905060405180608001604052808543018152602001868152602001886001015481526020018281525092505050949350505050565b6000620018d6620018be620018a4846200200b565b620018af8562002059565b620020a790919063ffffffff16565b836000015160600151620020ff90919063ffffffff16565b9050919050565b80805190602001208360000160008473ffffffffffffffffffffffffffffffffffffffff1673ffffffffffffffffffffffffffffffffffffffff16815260200190815260200160002081905550505050565b808360010160008473ffffffffffffffffffffffffffffffffffffffff1673ffffffffffffffffffffffffffffffffffffffff16815260200190815260200160002060006101000a81548173ffffffffffffffffffffffffffffffffffffffff021916908373ffffffffffffffffffffffffffffffffffffffff160217905550505050565b60008473ffffffffffffffffffffffffffffffffffffffff166323b872dd8585856040518463ffffffff1660e01b8152600401620019f59392919062003caa565b602060405180830381600087803b15801562001a1057600080fd5b505af115801562001a25573d6000803e3d6000fd5b505050506040513d601f19601f8201168201806040525062001a4b919081019062002ec2565b9050949350505050565b6000813073ffffffffffffffffffffffffffffffffffffffff167f097f4e23be3ed1f72b6fb3def69c52b9d2d3d0478759e8ac4b1c0fa005d8deb860405160405180910390a362001ace6000836040518060200162001ab490620026a3565b6020820181038252601f19601f820116604052506200214b565b9050919050565b600073ffffffffffffffffffffffffffffffffffffffff168173ffffffffffffffffffffffffffffffffffffffff16141562001b48576040517f08c379a000000000000000000000000000000000000000000000000000000000815260040162001b3f9062003ede565b60405180910390fd5b8073ffffffffffffffffffffffffffffffffffffffff166000809054906101000a900473ffffffffffffffffffffffffffffffffffffffff1673ffffffffffffffffffffffffffffffffffffffff167f8be0079c531659141344cd1fd0a4f28419497f9722a3daafe3b4186f6b6457e060405160405180910390a3806000806101000a81548173ffffffffffffffffffffffffffffffffffffffff021916908373ffffffffffffffffffffffffffffffffffffffff16021790555050565b6001600281111562001c1457fe5b8160000151600281111562001c2557fe5b141562001c835760008090505b81604001515181101562001c7c5762001c6e8383602001518460400151848151811062001c5b57fe5b6020026020010151856060015162002265565b808060010191505062001c32565b5062001cfb565b60028081111562001c9057fe5b8160000151600281111562001ca157fe5b141562001cfa5760008090505b81604001515181101562001cf85762001cea8383602001518460400151848151811062001cd757fe5b602002602001015185606001516200231d565b808060010191505062001cae565b505b5b5050565b60008160405160200162001d14919062003c46565b604051602081830303815290604052805190602001209050919050565b6000604182511462001d7a576040517f08c379a000000000000000000000000000000000000000000000000000000000815260040162001d719062003ebc565b60405180910390fd5b60008060006020850151925060408501519150606085015160001a90507f7fffffffffffffffffffffffffffffff5d576e7357a4501ddfe92f46681b20a08260001c111562001e00576040517f08c379a000000000000000000000000000000000000000000000000000000000815260040162001df79062003f88565b60405180910390fd5b601b8160ff161415801562001e195750601c8160ff1614155b1562001e5c576040517f08c379a000000000000000000000000000000000000000000000000000000000815260040162001e539062004010565b60405180910390fd5b60006001878386866040516000815260200160405260405162001e83949392919062003d65565b6020604051602081039080840390855afa15801562001ea6573d6000803e3d6000fd5b505050602060405103519050600073ffffffffffffffffffffffffffffffffffffffff168173ffffffffffffffffffffffffffffffffffffffff16141562001f25576040517f08c379a000000000000000000000000000000000000000000000000000000000815260040162001f1c9062003e34565b60405180910390fd5b8094505050505092915050565b600062001f41838330620023d5565b905092915050565b600062001f8d83836040518060400160405280601a81526020017f536166654d6174683a206469766973696f6e206279207a65726f0000000000008152506200241f565b905092915050565b60008083141562001faa576000905062002005565b600082840290508284828162001fbc57fe5b041462002000576040517f08c379a000000000000000000000000000000000000000000000000000000000815260040162001ff79062004076565b60405180910390fd5b809150505b92915050565b600062002052670de0b6b3a7640000620020438460200151602001516060015185600001516060015162001f9590919063ffffffff16565b62001f4990919063ffffffff16565b9050919050565b6000620020a0670de0b6b3a7640000620020918460200151602001516040015185600001516060015162001f9590919063ffffffff16565b62001f4990919063ffffffff16565b9050919050565b600080828401905083811015620020f5576040517f08c379a0000000000000000000000000000000000000000000000000000000008152600401620020ec9062003f00565b60405180910390fd5b8091505092915050565b60006200214383836040518060400160405280601e81526020017f536166654d6174683a207375627472616374696f6e206f766572666c6f77000081525062002484565b905092915050565b6000808447101562002194576040517f08c379a00000000000000000000000000000000000000000000000000000000081526004016200218b9062004142565b60405180910390fd5b600083511415620021dc576040517f08c379a0000000000000000000000000000000000000000000000000000000008152600401620021d39062003e78565b60405180910390fd5b8383516020850187f59050600073ffffffffffffffffffffffffffffffffffffffff168173ffffffffffffffffffffffffffffffffffffffff1614156200225a576040517f08c379a0000000000000000000000000000000000000000000000000000000008152600401620022519062004032565b60405180910390fd5b809150509392505050565b80846000016000620022788686620024e2565b815260200190815260200160002060008201518160000160006101000a81548173ffffffffffffffffffffffffffffffffffffffff021916908373ffffffffffffffffffffffffffffffffffffffff16021790555060208201518160010160006101000a81548173ffffffffffffffffffffffffffffffffffffffff021916908373ffffffffffffffffffffffffffffffffffffffff16021790555090505050505050565b808460000160006200233086866200251d565b815260200190815260200160002060008201518160000160006101000a81548173ffffffffffffffffffffffffffffffffffffffff021916908373ffffffffffffffffffffffffffffffffffffffff16021790555060208201518160010160006101000a81548173ffffffffffffffffffffffffffffffffffffffff021916908373ffffffffffffffffffffffffffffffffffffffff16021790555090505050505050565b60008060ff60f81b838686604051602001620023f5949392919062003ba7565b604051602081830303815290604052805190602001209050606081901b60601c9150509392505050565b6000808311829062002469576040517f08c379a000000000000000000000000000000000000000000000000000000000815260040162002460919062003e10565b60405180910390fd5b5060008385816200247657fe5b049050809150509392505050565b6000838311158290620024cf576040517f08c379a0000000000000000000000000000000000000000000000000000000008152600401620024c6919062003e10565b60405180910390fd5b5060008385039050809150509392505050565b600080833f90508083604051602001620024fe92919062003bfd565b6040516020818303038152906040528051906020012091505092915050565b600082826040516020016200253492919062003b77565b60405160208183030381529060405280519060200120905092915050565b6040518060800160405280600073ffffffffffffffffffffffffffffffffffffffff168152602001600073ffffffffffffffffffffffffffffffffffffffff16815260200160008019168152602001600081525090565b6040518060400160405280600073ffffffffffffffffffffffffffffffffffffffff168152602001620025db620026d9565b81525090565b6040518060400160405280620025f662002701565b81526020016200260562002758565b81525090565b6040518060800160405280600060028111156200262457fe5b8152602001600073ffffffffffffffffffffffffffffffffffffffff168152602001606081526020016200265762002790565b81525090565b6040518060400160405280600073ffffffffffffffffffffffffffffffffffffffff168152602001600073ffffffffffffffffffffffffffffffffffffffff1681525090565b61102580620045cf83390190565b6040518060800160405280600081526020016000815260200160008152602001600081525090565b6040518060800160405280600081526020016000815260200160008152602001600081525090565b6040518060800160405280600073ffffffffffffffffffffffffffffffffffffffff168152602001600073ffffffffffffffffffffffffffffffffffffffff16815260200160008019168152602001600081525090565b6040518060400160405280600073ffffffffffffffffffffffffffffffffffffffff1681526020016200278a620026d9565b81525090565b6040518060400160405280600073ffffffffffffffffffffffffffffffffffffffff168152602001600073ffffffffffffffffffffffffffffffffffffffff1681525090565b600081359050620027e78162004507565b92915050565b600081359050620027fe8162004521565b92915050565b600082601f8301126200281657600080fd5b81356200282d6200282782620041b0565b62004182565b915081818352602084019350602081019050838560208402820111156200285357600080fd5b60005b838110156200288757816200286c8882620029c9565b84526020840193506020830192505060018101905062002856565b5050505092915050565b600082601f830112620028a357600080fd5b8135620028ba620028b482620041d9565b62004182565b91508181835260208401935060208101905083856040840282011115620028e057600080fd5b60005b83811015620029145781620028f9888262002bc7565b845260208401935060408301925050600181019050620028e3565b5050505092915050565b600082601f8301126200293057600080fd5b813562002947620029418262004202565b62004182565b9150818183526020840193506020810190508360005b8381101562002991578135860162002976888262002c1a565b8452602084019350602083019250506001810190506200295d565b5050505092915050565b600081519050620029ac816200453b565b92915050565b600081359050620029c38162004555565b92915050565b600081359050620029da816200456f565b92915050565b600082601f830112620029f257600080fd5b813562002a0962002a03826200422b565b62004182565b9150808252602083016020830185838301111562002a2657600080fd5b62002a3383828462004440565b50505092915050565b600082601f83011262002a4e57600080fd5b813562002a6562002a5f8262004258565b62004182565b9150808252602083016020830185838301111562002a8257600080fd5b62002a8f83828462004440565b50505092915050565b60008151905062002aa98162004589565b92915050565b60008135905062002ac081620045a3565b92915050565b600060c0828403121562002ad957600080fd5b62002ae5606062004182565b9050600062002af78482850162002b48565b600083015250608062002b0d8482850162002d05565b60208301525060a082013567ffffffffffffffff81111562002b2e57600080fd5b62002b3c84828501620029e0565b60408301525092915050565b60006080828403121562002b5b57600080fd5b62002b67608062004182565b9050600062002b7984828501620027ed565b600083015250602062002b8f84828501620027d6565b602083015250604062002ba584828501620029b2565b604083015250606062002bbb8482850162002d05565b60608301525092915050565b60006040828403121562002bda57600080fd5b62002be6604062004182565b9050600062002bf884828501620027d6565b600083015250602062002c0e84828501620027d6565b60208301525092915050565b600060a0828403121562002c2d57600080fd5b62002c39608062004182565b9050600062002c4b8482850162002aaf565b600083015250602062002c6184828501620027d6565b602083015250604082013567ffffffffffffffff81111562002c8257600080fd5b62002c908482850162002804565b604083015250606062002ca68482850162002cb2565b60608301525092915050565b60006040828403121562002cc557600080fd5b62002cd1604062004182565b9050600062002ce384828501620027d6565b600083015250602062002cf984828501620027d6565b60208301525092915050565b60008135905062002d1681620045b4565b92915050565b60006020828403121562002d2f57600080fd5b600062002d3f84828501620027d6565b91505092915050565b600080600080600060a0868803121562002d6157600080fd5b600062002d7188828901620027d6565b955050602062002d8488828901620027d6565b945050604062002d9788828901620027d6565b935050606062002daa8882890162002d05565b925050608062002dbd8882890162002d05565b9150509295509295909350565b6000806040838503121562002dde57600080fd5b600062002dee85828601620027d6565b925050602083013567ffffffffffffffff81111562002e0c57600080fd5b62002e1a8582860162002a3c565b9150509250929050565b6000806000806080858703121562002e3b57600080fd5b600062002e4b87828801620027d6565b945050602062002e5e8782880162002d05565b935050604085013567ffffffffffffffff81111562002e7c57600080fd5b62002e8a878288016200291e565b925050606085013567ffffffffffffffff81111562002ea857600080fd5b62002eb68782880162002891565b91505092959194509250565b60006020828403121562002ed557600080fd5b600062002ee5848285016200299b565b91505092915050565b60006020828403121562002f0157600080fd5b600082013567ffffffffffffffff81111562002f1c57600080fd5b62002f2a8482850162002a3c565b91505092915050565b60006020828403121562002f4657600080fd5b600062002f568482850162002a98565b91505092915050565b60008060006060848603121562002f7557600080fd5b600084013567ffffffffffffffff81111562002f9057600080fd5b62002f9e8682870162002ac6565b935050602062002fb18682870162002d05565b925050604062002fc48682870162002d05565b9150509250925092565b62002fd981620043b4565b82525050565b62002fea81620042e7565b82525050565b6200300562002fff82620042e7565b62004499565b82525050565b6200301681620042d3565b82525050565b6200302781620042d3565b82525050565b620030426200303c82620042d3565b62004485565b82525050565b6200305381620042fb565b82525050565b6200306e620030688262004307565b620044ad565b82525050565b6200307f8162004333565b82525050565b620030908162004333565b82525050565b620030ab620030a58262004333565b620044b7565b82525050565b620030c6620030c0826200433d565b620044c1565b82525050565b6000620030d98262004285565b620030e581856200429b565b9350620030f78185602086016200444f565b6200310281620044e9565b840191505092915050565b60006200311a8262004285565b620031268185620042ac565b9350620031388185602086016200444f565b80840191505092915050565b6200314f81620043c8565b82525050565b6200316081620043f0565b82525050565b6000620031738262004290565b6200317f8185620042b7565b9350620031918185602086016200444f565b6200319c81620044e9565b840191505092915050565b6000620031b6601883620042b7565b91507f45434453413a20696e76616c6964207369676e617475726500000000000000006000830152602082019050919050565b6000620031f8602283620042b7565b91507f70726f78792068617320616c7265616479206265656e20696e697469616c697a60008301527f65640000000000000000000000000000000000000000000000000000000000006020830152604082019050919050565b600062003260602083620042b7565b91507f437265617465323a2062797465636f6465206c656e677468206973207a65726f6000830152602082019050919050565b6000620032a2601483620042b7565b91507f74696d656f757420696e73756666696369656e740000000000000000000000006000830152602082019050919050565b6000620032e4601f83620042b7565b91507f45434453413a20696e76616c6964207369676e6174757265206c656e677468006000830152602082019050919050565b600062003326601c83620042c8565b91507f19457468657265756d205369676e6564204d6573736167653a0a3332000000006000830152601c82019050919050565b600062003368602683620042b7565b91507f4f776e61626c653a206e6577206f776e657220697320746865207a65726f206160008301527f64647265737300000000000000000000000000000000000000000000000000006020830152604082019050919050565b6000620033d0601b83620042b7565b91507f536166654d6174683a206164646974696f6e206f766572666c6f7700000000006000830152602082019050919050565b600062003412601783620042b7565b91507f70726f7879206465706c6f796d656e74206661696c65640000000000000000006000830152602082019050919050565b600062003454602c83620042b7565b91507f737570706c696564206574686572206973206e6f7420657175616c20746f206760008301527f61732072657175657374656400000000000000000000000000000000000000006020830152604082019050919050565b6000620034bc601a83620042b7565b91507f6661696c656420746f207265706179206c6f73742066756e64730000000000006000830152602082019050919050565b6000620034fe602283620042b7565b91507f45434453413a20696e76616c6964207369676e6174757265202773272076616c60008301527f75650000000000000000000000000000000000000000000000000000000000006020830152604082019050919050565b600062003566602483620042b7565b91507f696e73756666696369656e742066756e647320696e206c69717569646974792060008301527f706f6f6c000000000000000000000000000000000000000000000000000000006020830152604082019050919050565b6000620035ce601383620042b7565b91507f616c726561647920696e697469616c697a6564000000000000000000000000006000830152602082019050919050565b600062003610601d83620042b7565b91507f6e6f742061207265676973746572656420626f72726f772070726f78790000006000830152602082019050919050565b600062003652602283620042b7565b91507f45434453413a20696e76616c6964207369676e6174757265202776272076616c60008301527f75650000000000000000000000000000000000000000000000000000000000006020830152604082019050919050565b6000620036ba601983620042b7565b91507f437265617465323a204661696c6564206f6e206465706c6f79000000000000006000830152602082019050919050565b6000620036fc601f83620042b7565b91507f6661696c656420746f2072657475726e20626f6e6420746f206b6565706572006000830152602082019050919050565b60006200373e602183620042b7565b91507f536166654d6174683a206d756c7469706c69636174696f6e206f766572666c6f60008301527f77000000000000000000000000000000000000000000000000000000000000006020830152604082019050919050565b6000620037a6602483620042b7565b91507f6c69717569646974792072657175657374207369676e61747572652072656a6560008301527f63746564000000000000000000000000000000000000000000000000000000006020830152604082019050919050565b60006200380e602083620042b7565b91507f4f776e61626c653a2063616c6c6572206973206e6f7420746865206f776e65726000830152602082019050919050565b600062003850601683620042b7565b91507f626f6e64207375626d697373696f6e206661696c6564000000000000000000006000830152602082019050919050565b600062003892602083620042b7565b91507f6e6f7420612072656769737465726564206c697175696469747920746f6b656e6000830152602082019050919050565b6000620038d4601283620042b7565b91507f626f6e642062656c6f77206d696e696d756d00000000000000000000000000006000830152602082019050919050565b600062003916601d83620042b7565b91507f437265617465323a20696e73756666696369656e742062616c616e63650000006000830152602082019050919050565b60808201600082015162003961600085018262003a6a565b50602082015162003976602085018262003a6a565b5060408201516200398b604085018262003a6a565b506060820151620039a0606085018262003a6a565b50505050565b60a082016000820151620039be60008501826200300b565b506020820151620039d3602085018262003949565b50505050565b608082016000820151620039f1600085018262002fdf565b50602082015162003a0660208501826200300b565b50604082015162003a1b604085018262003074565b50606082015162003a30606085018262003a6a565b50505050565b6101208201600082015162003a4f6000850182620039d9565b50602082015162003a646080850182620039a6565b50505050565b62003a75816200439d565b82525050565b62003a86816200439d565b82525050565b62003aa162003a9b826200439d565b620044df565b82525050565b62003ab281620043a7565b82525050565b600062003ac6828762002ff0565b60148201915062003ad882866200302d565b60148201915062003aea828562003096565b60208201915062003afc828462003a8c565b60208201915081905095945050505050565b600062003b1c82886200302d565b60148201915062003b2e82876200302d565b60148201915062003b40828662003096565b60208201915062003b52828562003a8c565b60208201915062003b64828462003a8c565b6020820191508190509695505050505050565b600062003b8582856200302d565b60148201915062003b978284620030b1565b6004820191508190509392505050565b600062003bb5828762003059565b60018201915062003bc782866200302d565b60148201915062003bd9828562003096565b60208201915062003beb828462003096565b60208201915081905095945050505050565b600062003c0b828562003096565b60208201915062003c1d8284620030b1565b6004820191508190509392505050565b600062003c3b82846200310d565b915081905092915050565b600062003c538262003317565b915062003c61828462003096565b60208201915081905092915050565b600060208201905062003c8760008301846200301c565b92915050565b600060208201905062003ca4600083018462002fce565b92915050565b600060608201905062003cc160008301866200301c565b62003cd060208301856200301c565b62003cdf604083018462003a7b565b949350505050565b600060408201905062003cfe60008301856200301c565b818103602083015262003d128184620030cc565b90509392505050565b600060408201905062003d3260008301856200301c565b62003d41602083018462003a7b565b9392505050565b600060208201905062003d5f600083018462003048565b92915050565b600060808201905062003d7c600083018762003085565b62003d8b602083018662003aa7565b62003d9a604083018562003085565b62003da9606083018462003085565b95945050505050565b6000602082019050818103600083015262003dce8184620030cc565b905092915050565b600060208201905062003ded600083018462003144565b92915050565b600060208201905062003e0a600083018462003155565b92915050565b6000602082019050818103600083015262003e2c818462003166565b905092915050565b6000602082019050818103600083015262003e4f81620031a7565b9050919050565b6000602082019050818103600083015262003e7181620031e9565b9050919050565b6000602082019050818103600083015262003e938162003251565b9050919050565b6000602082019050818103600083015262003eb58162003293565b9050919050565b6000602082019050818103600083015262003ed781620032d5565b9050919050565b6000602082019050818103600083015262003ef98162003359565b9050919050565b6000602082019050818103600083015262003f1b81620033c1565b9050919050565b6000602082019050818103600083015262003f3d8162003403565b9050919050565b6000602082019050818103600083015262003f5f8162003445565b9050919050565b6000602082019050818103600083015262003f8181620034ad565b9050919050565b6000602082019050818103600083015262003fa381620034ef565b9050919050565b6000602082019050818103600083015262003fc58162003557565b9050919050565b6000602082019050818103600083015262003fe781620035bf565b9050919050565b60006020820190508181036000830152620040098162003601565b9050919050565b600060208201905081810360008301526200402b8162003643565b9050919050565b600060208201905081810360008301526200404d81620036ab565b9050919050565b600060208201905081810360008301526200406f81620036ed565b9050919050565b6000602082019050818103600083015262004091816200372f565b9050919050565b60006020820190508181036000830152620040b38162003797565b9050919050565b60006020820190508181036000830152620040d581620037ff565b9050919050565b60006020820190508181036000830152620040f78162003841565b9050919050565b60006020820190508181036000830152620041198162003883565b9050919050565b600060208201905081810360008301526200413b81620038c5565b9050919050565b600060208201905081810360008301526200415d8162003907565b9050919050565b6000610120820190506200417c600083018462003a36565b92915050565b6000604051905081810181811067ffffffffffffffff82111715620041a657600080fd5b8060405250919050565b600067ffffffffffffffff821115620041c857600080fd5b602082029050602081019050919050565b600067ffffffffffffffff821115620041f157600080fd5b602082029050602081019050919050565b600067ffffffffffffffff8211156200421a57600080fd5b602082029050602081019050919050565b600067ffffffffffffffff8211156200424357600080fd5b601f19601f8301169050602081019050919050565b600067ffffffffffffffff8211156200427057600080fd5b601f19601f8301169050602081019050919050565b600081519050919050565b600081519050919050565b600082825260208201905092915050565b600081905092915050565b600082825260208201905092915050565b600081905092915050565b6000620042e0826200437d565b9050919050565b6000620042f4826200437d565b9050919050565b60008115159050919050565b60007fff0000000000000000000000000000000000000000000000000000000000000082169050919050565b6000819050919050565b60007fffffffff0000000000000000000000000000000000000000000000000000000082169050919050565b60006200437682620042d3565b9050919050565b600073ffffffffffffffffffffffffffffffffffffffff82169050919050565b6000819050919050565b600060ff82169050919050565b6000620043c18262004418565b9050919050565b6000620043d582620043dc565b9050919050565b6000620043e9826200437d565b9050919050565b6000620043fd8262004404565b9050919050565b600062004411826200437d565b9050919050565b600062004425826200442c565b9050919050565b600062004439826200437d565b9050919050565b82818337600083830152505050565b60005b838110156200446f57808201518184015260208101905062004452565b838111156200447f576000848401525b50505050565b60006200449282620044cb565b9050919050565b6000620044a682620044cb565b9050919050565b6000819050919050565b6000819050919050565b6000819050919050565b6000620044d882620044fa565b9050919050565b6000819050919050565b6000601f19601f8301169050919050565b60008160601b9050919050565b6200451281620042d3565b81146200451e57600080fd5b50565b6200452c81620042e7565b81146200453857600080fd5b50565b6200454681620042fb565b81146200455257600080fd5b50565b620045608162004333565b81146200456c57600080fd5b50565b6200457a816200433d565b81146200458657600080fd5b50565b620045948162004369565b8114620045a057600080fd5b50565b60038110620045b157600080fd5b50565b620045bf816200439d565b8114620045cb57600080fd5b5056fe608060405234801561001057600080fd5b50336000800160006101000a81548173ffffffffffffffffffffffffffffffffffffffff021916908373ffffffffffffffffffffffffffffffffffffffff1602179055506000800160009054906101000a900473ffffffffffffffffffffffffffffffffffffffff1673ffffffffffffffffffffffffffffffffffffffff16637b3b00be6040518163ffffffff1660e01b8152600401602060405180830381600087803b1580156100c057600080fd5b505af11580156100d4573d6000803e3d6000fd5b505050506040513d601f19601f820116820180604052506100f89190810190610155565b600060010160006101000a81548173ffffffffffffffffffffffffffffffffffffffff021916908373ffffffffffffffffffffffffffffffffffffffff1602179055506101c7565b60008151905061014f816101b0565b92915050565b60006020828403121561016757600080fd5b600061017584828501610140565b91505092915050565b600061018982610190565b9050919050565b600073ffffffffffffffffffffffffffffffffffffffff82169050919050565b6101b98161017e565b81146101c457600080fd5b50565b610e4f806101d66000396000f3fe608060405234801561001057600080fd5b50600436106100415760003560e01c806323e3b730146100465780632692f25a14610076578063fd00430c14610092575b600080fd5b610060600480360361005b9190810190610899565b6100c2565b60405161006d9190610bc7565b60405180910390f35b610090600480360361008b91908101906108ed565b61017f565b005b6100ac60048036036100a79190810190610899565b610414565b6040516100b99190610bc7565b60405180910390f35b60603073ffffffffffffffffffffffffffffffffffffffff163373ffffffffffffffffffffffffffffffffffffffff16146100fc57600080fd5b600060608473ffffffffffffffffffffffffffffffffffffffff16846040516101259190610b18565b600060405180830381855af49150503d8060008114610160576040519150601f19603f3d011682016040523d82523d6000602084013e610165565b606091505b50915091508161017457600080fd5b809250505092915050565b600060010160009054906101000a900473ffffffffffffffffffffffffffffffffffffffff1673ffffffffffffffffffffffffffffffffffffffff163373ffffffffffffffffffffffffffffffffffffffff1614610212576040517f08c379a000000000000000000000000000000000000000000000000000000000815260040161020990610c2b565b60405180910390fd5b6000800160149054906101000a900460ff16156102e657600060608473ffffffffffffffffffffffffffffffffffffffff1684846040516102539190610b18565b60006040518083038185875af1925050503d8060008114610290576040519150601f19603f3d011682016040523d82523d6000602084013e610295565b606091505b50915091508181906102dd576040517f08c379a00000000000000000000000000000000000000000000000000000000081526004016102d49190610be9565b60405180910390fd5b50805160208201f35b600061030761030260006004856105289092919063ffffffff16565b610560565b60001c60e01b90506103176106d1565b600073__BorrowProxyLib________________________632f1a48af909187856040518463ffffffff1660e01b815260040161035593929190610c4b565b60606040518083038186803b15801561036d57600080fd5b505af4158015610381573d6000803e3d6000fd5b505050506040513d601f19601f820116820180604052506103a59190810190610954565b90506103b4816020015161058f565b6103f3576040517f08c379a00000000000000000000000000000000000000000000000000000000081526004016103ea90610c0b565b60405180910390fd5b606061040a8486846105cc9092919063ffffffff16565b9050805160208201f35b6060600060608473ffffffffffffffffffffffffffffffffffffffff168585604051602401610444929190610b97565b6040516020818303038152906040527f23e3b730000000000000000000000000000000000000000000000000000000007bffffffffffffffffffffffffffffffffffffffffffffffffffffffff19166020820180517bffffffffffffffffffffffffffffffffffffffffffffffffffffffff83818316178352505050506040516104ce9190610b18565b600060405180830381855afa9150503d8060008114610509576040519150601f19603f3d011682016040523d82523d6000602084013e61050e565b606091505b50915091508161051d57600080fd5b809250505092915050565b610530610707565b60006020850184019050808260000181815250508282602001818152505083826040018181525050509392505050565b60008082600001519050600083602001519050600180600883021b038082602003840351169350505050919050565b60008073ffffffffffffffffffffffffffffffffffffffff16826000015173ffffffffffffffffffffffffffffffffffffffff1614159050919050565b60606000606085602001516000015173ffffffffffffffffffffffffffffffffffffffff16866020015160000151876020015160200151328960000151888a60405160200161062096959493929190610b2f565b60405160208183030381529060405260405161063c9190610b18565b600060405180830381855af49150503d8060008114610677576040519150601f19603f3d011682016040523d82523d6000602084013e61067c565b606091505b50915091508181906106c4576040517f08c379a00000000000000000000000000000000000000000000000000000000081526004016106bb9190610be9565b60405180910390fd5b5080925050509392505050565b6040518060400160405280600073ffffffffffffffffffffffffffffffffffffffff168152602001610701610728565b81525090565b60405180606001604052806000815260200160008152602001600081525090565b6040518060400160405280600073ffffffffffffffffffffffffffffffffffffffff168152602001600073ffffffffffffffffffffffffffffffffffffffff1681525090565b60008135905061077d81610deb565b92915050565b60008151905061079281610deb565b92915050565b600082601f8301126107a957600080fd5b81356107bc6107b782610caf565b610c82565b915080825260208301602083018583830111156107d857600080fd5b6107e3838284610d98565b50505092915050565b6000606082840312156107fe57600080fd5b6108086040610c82565b9050600061081884828501610783565b600083015250602061082c84828501610838565b60208301525092915050565b60006040828403121561084a57600080fd5b6108546040610c82565b9050600061086484828501610783565b600083015250602061087884828501610783565b60208301525092915050565b60008135905061089381610e02565b92915050565b600080604083850312156108ac57600080fd5b60006108ba8582860161076e565b925050602083013567ffffffffffffffff8111156108d757600080fd5b6108e385828601610798565b9150509250929050565b60008060006060848603121561090257600080fd5b60006109108682870161076e565b935050602061092186828701610884565b925050604084013567ffffffffffffffff81111561093e57600080fd5b61094a86828701610798565b9150509250925092565b60006060828403121561096657600080fd5b6000610974848285016107ec565b91505092915050565b61098681610d30565b82525050565b61099581610d1e565b82525050565b6109a481610d1e565b82525050565b6109b381610d42565b82525050565b60006109c482610cdb565b6109ce8185610cf1565b93506109de818560208601610da7565b6109e781610dda565b840191505092915050565b60006109fd82610cdb565b610a078185610d02565b9350610a17818560208601610da7565b80840191505092915050565b6000610a2e82610ce6565b610a388185610d0d565b9350610a48818560208601610da7565b610a5181610dda565b840191505092915050565b6000610a69601f83610d0d565b91507f66756e6374696f6e2068616e646c6572206e6f742072656769737465726564006000830152602082019050919050565b6000610aa9602983610d0d565b91507f626f72726f772070726f78792063616e206f6e6c79206265207573656420627960008301527f20626f72726f77657200000000000000000000000000000000000000000000006020830152604082019050919050565b8082525050565b610b1281610d8e565b82525050565b6000610b2482846109f2565b915081905092915050565b600060c082019050610b44600083018961098c565b610b51602083018861098c565b610b5e604083018761097d565b610b6b606083018661098c565b610b786080830185610b09565b81810360a0830152610b8a81846109b9565b9050979650505050505050565b6000604082019050610bac600083018561098c565b8181036020830152610bbe81846109b9565b90509392505050565b60006020820190508181036000830152610be181846109b9565b905092915050565b60006020820190508181036000830152610c038184610a23565b905092915050565b60006020820190508181036000830152610c2481610a5c565b9050919050565b60006020820190508181036000830152610c4481610a9c565b9050919050565b6000606082019050610c606000830186610b02565b610c6d602083018561099b565b610c7a60408301846109aa565b949350505050565b6000604051905081810181811067ffffffffffffffff82111715610ca557600080fd5b8060405250919050565b600067ffffffffffffffff821115610cc657600080fd5b601f19601f8301169050602081019050919050565b600081519050919050565b600081519050919050565b600082825260208201905092915050565b600081905092915050565b600082825260208201905092915050565b6000610d2982610d6e565b9050919050565b6000610d3b82610d6e565b9050919050565b60007fffffffff0000000000000000000000000000000000000000000000000000000082169050919050565b600073ffffffffffffffffffffffffffffffffffffffff82169050919050565b6000819050919050565b82818337600083830152505050565b60005b83811015610dc5578082015181840152602081019050610daa565b83811115610dd4576000848401525b50505050565b6000601f19601f8301169050919050565b610df481610d1e565b8114610dff57600080fd5b50565b610e0b81610d8e565b8114610e1657600080fd5b5056fea264697066735822122091d2f2b25d5e55ca3827941d04065ead4ac21616d9aefcf3e17538a90221c2db64736f6c63430006030033a2646970667358221220245559c3a2984dd59ef76fd3ffce8a8048e1c22ac1689afaf9a13da6f0a450fc64736f6c63430006030033",
  "source": "pragma solidity ^0.6.2;\npragma experimental ABIEncoderV2;\n\nimport { Ownable } from \"openzeppelin-solidity/contracts/access/Ownable.sol\";\nimport { IShifterRegistry } from \"./interfaces/IShifterRegistry.sol\";\nimport { IShifter } from \"./interfaces/IShifter.sol\";\nimport { ShifterPoolLib } from \"./ShifterPoolLib.sol\";\nimport { ShifterBorrowProxyLib } from \"./ShifterBorrowProxyLib.sol\";\nimport { BorrowProxy } from \"./BorrowProxy.sol\";\nimport { BorrowProxyLib } from \"./BorrowProxyLib.sol\";\nimport { BorrowProxyFactoryLib } from \"./BorrowProxyFactoryLib.sol\";\nimport { TokenUtils } from \"./utils/TokenUtils.sol\";\nimport { ViewExecutor } from \"./utils/ViewExecutor.sol\";\nimport { LiquidityToken } from \"./LiquidityToken.sol\";\n\ncontract ShifterPool is Ownable, ViewExecutor {\n  using ShifterPoolLib for *;\n  using TokenUtils for *;\n  using ShifterBorrowProxyLib for *;\n  using BorrowProxyLib for *;\n  using BorrowProxyFactoryLib for *;\n  ShifterPoolLib.Isolate isolate;\n  function setup(address shifterRegistry, uint256 poolFee, BorrowProxyLib.ModuleRegistration[] memory modules, ShifterPoolLib.LiquidityTokenLaunch[] memory tokenLaunches) public onlyOwner {\n    require(isolate.shifterRegistry == address(0x0), \"already initialized\");\n    isolate.shifterRegistry = shifterRegistry;\n    isolate.poolFee = poolFee;\n    for (uint256 i = 0; i < modules.length; i++) {\n      BorrowProxyLib.ModuleRegistration memory registration = modules[i];\n      for (uint256 j = 0; j < registration.sigs.length; j++) {\n        isolate.registry.registryRegisterModule(registration);\n      }\n    }\n    for (uint256 i = 0; i < tokenLaunches.length; i++) {\n      ShifterPoolLib.LiquidityTokenLaunch memory launch = tokenLaunches[i];\n      isolate.tokenToLiquidityToken[launch.token] = launch.liqToken;\n    }\n  }\n  function getBorrowProxyCreationCode() public pure returns (bytes memory) {\n    return type(BorrowProxy).creationCode;\n  }\n  function executeBorrow(ShifterBorrowProxyLib.LiquidityRequestParcel memory liquidityRequestParcel, uint256 bond, uint256 timeoutExpiry) public payable {\n    require(liquidityRequestParcel.gasRequested == msg.value, \"supplied ether is not equal to gas requested\");\n    bytes32 requestHash = liquidityRequestParcel.computeLiquidityRequestHash();\n    require(liquidityRequestParcel.validateSignature(requestHash), \"liquidity request signature rejected\");\n    ShifterBorrowProxyLib.LiquidityRequest memory liquidityRequest = liquidityRequestParcel.request;\n    bytes32 borrowerSalt = liquidityRequest.computeBorrowerSalt();\n    address proxyAddress = borrowerSalt.deriveBorrowerAddress();\n    require(!isolate.borrowProxyController.isInitialized(proxyAddress), \"proxy has already been initialized\");\n    ShifterBorrowProxyLib.LenderRecord memory loan;\n    loan.keeper = msg.sender;\n    loan.params = isolate.computeLoanParams(liquidityRequest.amount, bond, timeoutExpiry);\n    ShifterBorrowProxyLib.ProxyRecord memory proxyRecord = ShifterBorrowProxyLib.ProxyRecord({\n      request: liquidityRequest,\n      loan: loan\n    });\n    bytes memory data = abi.encode(proxyRecord);\n    require(LiquidityToken(isolate.getLiquidityToken(liquidityRequest.token)).loan(proxyAddress, proxyRecord.computePostFee()), \"insufficient funds in liquidity pool\");\n    isolate.borrowProxyController.mapProxyRecord(proxyAddress, data);\n    isolate.borrowProxyController.setProxyOwner(proxyAddress, liquidityRequest.borrower);\n    liquidityRequest.borrower.transfer(msg.value);\n    require(liquidityRequest.token.transferTokenFrom(msg.sender, address(this), bond), \"bond submission failed\");\n    require(borrowerSalt.deployBorrowProxy() == proxyAddress, \"proxy deployment failed\");\n    emit BorrowProxyLib.BorrowProxyMade(liquidityRequest.borrower, proxyAddress, data);\n  }\n  function validateProxyRecordHandler(bytes memory proxyRecord) public view returns (bool) {\n    return isolate.borrowProxyController.validateProxyRecord(msg.sender, proxyRecord);\n  }\n  function getProxyOwnerHandler() public view returns (address) {\n    return isolate.borrowProxyController.getProxyOwner(msg.sender);\n  }\n  function getShifterHandler(address token) public view returns (IShifter) {\n    return isolate.getShifter(token);\n  }\n  function getLiquidityTokenHandler(address token) public view returns (LiquidityToken) {\n    return LiquidityToken(isolate.getLiquidityToken(token));\n  }\n  function relayResolveLoan(address token, address liquidityToken, address keeper, uint256 bond, uint256 repay) public returns (bool) {\n    require(isolate.borrowProxyController.proxyInitializerRecord[msg.sender] != bytes32(0x0), \"not a registered borrow proxy\");\n    if (bond != 0) require(token.sendToken(keeper, bond), \"failed to return bond to keeper\");\n    if (repay != 0) require(token.sendToken(liquidityToken, repay), \"failed to repay lost funds\");\n    require(LiquidityToken(liquidityToken).resolveLoan(msg.sender));\n    return true;\n  }\n}\n",
  "sourcePath": "/home/ray/0confirmation/packages/0confirmation-sol/contracts/ShifterPool.sol",
  "compiler": {
    "name": "solc",
    "version": "0.6.3+commit.8dda9521.Emscripten.clang"
  },
  "schemaVersion": "3.0.23",
  "updatedAt": "2020-04-02T22:57:31.419Z",
  "devdoc": {
    "methods": {
      "owner()": {
        "details": "Returns the address of the current owner."
      },
      "renounceOwnership()": {
        "details": "Leaves the contract without owner. It will not be possible to call `onlyOwner` functions anymore. Can only be called by the current owner.     * NOTE: Renouncing ownership will leave the contract without an owner, thereby removing any functionality that is only available to the owner."
      },
      "transferOwnership(address)": {
        "details": "Transfers ownership of the contract to a new account (`newOwner`). Can only be called by the current owner."
      }
    }
  },
  "userdoc": {
    "methods": {}
  }
}