{
  "contractName": "ShifterPool",
  "abi": [
    {
      "anonymous": false,
      "inputs": [
        {
          "indexed": true,
          "internalType": "address",
          "name": "previousOwner",
          "type": "address"
        },
        {
          "indexed": true,
          "internalType": "address",
          "name": "newOwner",
          "type": "address"
        }
      ],
      "name": "OwnershipTransferred",
      "type": "event"
    },
    {
      "inputs": [
        {
          "internalType": "address",
          "name": "delegateTo",
          "type": "address"
        },
        {
          "internalType": "bytes",
          "name": "callData",
          "type": "bytes"
        }
      ],
      "name": "_executeQuery",
      "outputs": [
        {
          "internalType": "bytes",
          "name": "",
          "type": "bytes"
        }
      ],
      "stateMutability": "nonpayable",
      "type": "function"
    },
    {
      "inputs": [],
      "name": "owner",
      "outputs": [
        {
          "internalType": "address",
          "name": "",
          "type": "address"
        }
      ],
      "stateMutability": "view",
      "type": "function"
    },
    {
      "inputs": [
        {
          "internalType": "address",
          "name": "viewLogic",
          "type": "address"
        },
        {
          "internalType": "bytes",
          "name": "payload",
          "type": "bytes"
        }
      ],
      "name": "query",
      "outputs": [
        {
          "internalType": "bytes",
          "name": "",
          "type": "bytes"
        }
      ],
      "stateMutability": "view",
      "type": "function"
    },
    {
      "inputs": [],
      "name": "renounceOwnership",
      "outputs": [],
      "stateMutability": "nonpayable",
      "type": "function"
    },
    {
      "inputs": [
        {
          "internalType": "address",
          "name": "newOwner",
          "type": "address"
        }
      ],
      "name": "transferOwnership",
      "outputs": [],
      "stateMutability": "nonpayable",
      "type": "function"
    },
    {
      "inputs": [
        {
          "internalType": "address",
          "name": "shifterRegistry",
          "type": "address"
        },
        {
          "internalType": "uint256",
          "name": "poolFee",
          "type": "uint256"
        },
        {
          "components": [
            {
              "internalType": "enum BorrowProxyLib.ModuleRegistrationType",
              "name": "moduleType",
              "type": "uint8"
            },
            {
              "internalType": "address",
              "name": "target",
              "type": "address"
            },
            {
              "internalType": "bytes4[]",
              "name": "sigs",
              "type": "bytes4[]"
            },
            {
              "components": [
                {
                  "internalType": "address",
                  "name": "assetHandler",
                  "type": "address"
                },
                {
                  "internalType": "address",
                  "name": "liquidationModule",
                  "type": "address"
                }
              ],
              "internalType": "struct BorrowProxyLib.Module",
              "name": "module",
              "type": "tuple"
            }
          ],
          "internalType": "struct BorrowProxyLib.ModuleRegistration[]",
          "name": "modules",
          "type": "tuple[]"
        },
        {
          "components": [
            {
              "internalType": "address",
              "name": "token",
              "type": "address"
            },
            {
              "internalType": "address",
              "name": "liqToken",
              "type": "address"
            }
          ],
          "internalType": "struct ShifterPoolLib.LiquidityTokenLaunch[]",
          "name": "tokenLaunches",
          "type": "tuple[]"
        }
      ],
      "name": "setup",
      "outputs": [],
      "stateMutability": "nonpayable",
      "type": "function"
    },
    {
      "inputs": [
        {
          "components": [
            {
              "components": [
                {
                  "internalType": "address payable",
                  "name": "borrower",
                  "type": "address"
                },
                {
                  "internalType": "address",
                  "name": "token",
                  "type": "address"
                },
                {
                  "internalType": "bytes32",
                  "name": "nonce",
                  "type": "bytes32"
                },
                {
                  "internalType": "uint256",
                  "name": "amount",
                  "type": "uint256"
                }
              ],
              "internalType": "struct ShifterBorrowProxyLib.LiquidityRequest",
              "name": "request",
              "type": "tuple"
            },
            {
              "internalType": "uint256",
              "name": "gasRequested",
              "type": "uint256"
            },
            {
              "internalType": "bytes",
              "name": "signature",
              "type": "bytes"
            }
          ],
          "internalType": "struct ShifterBorrowProxyLib.LiquidityRequestParcel",
          "name": "liquidityRequestParcel",
          "type": "tuple"
        },
        {
          "internalType": "uint256",
          "name": "bond",
          "type": "uint256"
        },
        {
          "internalType": "uint256",
          "name": "timeoutExpiry",
          "type": "uint256"
        }
      ],
      "name": "executeBorrow",
      "outputs": [],
      "stateMutability": "payable",
      "type": "function"
    },
    {
      "inputs": [
        {
          "internalType": "bytes",
          "name": "proxyRecord",
          "type": "bytes"
        }
      ],
      "name": "validateProxyRecordHandler",
      "outputs": [
        {
          "internalType": "bool",
          "name": "",
          "type": "bool"
        }
      ],
      "stateMutability": "view",
      "type": "function"
    },
    {
      "inputs": [],
      "name": "getProxyOwnerHandler",
      "outputs": [
        {
          "internalType": "address",
          "name": "",
          "type": "address"
        }
      ],
      "stateMutability": "view",
      "type": "function"
    },
    {
      "inputs": [
        {
          "internalType": "address",
          "name": "token",
          "type": "address"
        }
      ],
      "name": "getShifterHandler",
      "outputs": [
        {
          "internalType": "contract IShifter",
          "name": "",
          "type": "address"
        }
      ],
      "stateMutability": "view",
      "type": "function"
    },
    {
      "inputs": [
        {
          "internalType": "address",
          "name": "token",
          "type": "address"
        }
      ],
      "name": "getLiquidityTokenHandler",
      "outputs": [
        {
          "internalType": "contract LiquidityToken",
          "name": "",
          "type": "address"
        }
      ],
      "stateMutability": "view",
      "type": "function"
    },
    {
      "inputs": [
        {
          "internalType": "address",
          "name": "token",
          "type": "address"
        },
        {
          "internalType": "address",
          "name": "liquidityToken",
          "type": "address"
        },
        {
          "internalType": "address",
          "name": "keeper",
          "type": "address"
        },
        {
          "internalType": "uint256",
          "name": "bond",
          "type": "uint256"
        },
        {
          "internalType": "uint256",
          "name": "repay",
          "type": "uint256"
        }
      ],
      "name": "relayResolveLoan",
      "outputs": [
        {
          "internalType": "bool",
          "name": "",
          "type": "bool"
        }
      ],
      "stateMutability": "nonpayable",
      "type": "function"
    }
  ],
  "bytecode": "0x6080604052600062000016620000ba60201b60201c565b9050806000806101000a81548173ffffffffffffffffffffffffffffffffffffffff021916908373ffffffffffffffffffffffffffffffffffffffff1602179055508073ffffffffffffffffffffffffffffffffffffffff16600073ffffffffffffffffffffffffffffffffffffffff167f8be0079c531659141344cd1fd0a4f28419497f9722a3daafe3b4186f6b6457e060405160405180910390a350620000c2565b600033905090565b61547c80620000d26000396000f3fe608060405260043610620000b65760003560e01c8063801874ec116200006d578063801874ec14620002155780638da5cb5b1462000259578063daf9b8241462000289578063f2fde38b14620002a9578063f5e043b014620002d7578063fd00430c146200030557620000b6565b806308f6049514620000bb5780631fbc78dc14620000ff57806323e3b7301462000143578063715018a61462000187578063798aada014620001a15780637b3b00be14620001e5575b600080fd5b348015620000c857600080fd5b50620000e76004803603620000e1919081019062002e15565b62000349565b604051620000f6919062003beb565b60405180910390f35b3480156200010c57600080fd5b506200012b600480360362000125919081019062002c43565b6200036d565b6040516200013a919062003c79565b60405180910390f35b3480156200015057600080fd5b506200016f600480360362000169919081019062002cf1565b6200038c565b6040516200017e919062003c55565b60405180910390f35b3480156200019457600080fd5b506200019f6200044f565b005b348015620001ae57600080fd5b50620001cd6004803603620001c7919081019062002c43565b620005a9565b604051620001dc919062003c96565b60405180910390f35b348015620001f257600080fd5b50620001fd620005c8565b6040516200020c919062003b13565b60405180910390f35b3480156200022257600080fd5b506200024160048036036200023b919081019062002c6f565b620005e8565b60405162000250919062003beb565b60405180910390f35b3480156200026657600080fd5b506200027162000812565b60405162000280919062003b13565b60405180910390f35b620002a76004803603620002a1919081019062002e86565b6200083b565b005b348015620002b657600080fd5b50620002d56004803603620002cf919081019062002c43565b62000d09565b005b348015620002e457600080fd5b50620003036004803603620002fd919081019062002d4b565b62000db2565b005b3480156200031257600080fd5b506200033160048036036200032b919081019062002cf1565b6200107e565b60405162000340919062003c55565b60405180910390f35b60006200036633836001600501620011999092919063ffffffff16565b9050919050565b600062000385826001620011ef90919063ffffffff16565b9050919050565b60603073ffffffffffffffffffffffffffffffffffffffff163373ffffffffffffffffffffffffffffffffffffffff1614620003c757600080fd5b600060608473ffffffffffffffffffffffffffffffffffffffff1684604051620003f2919062003ad0565b600060405180830381855af49150503d80600081146200042f576040519150601f19603f3d011682016040523d82523d6000602084013e62000434565b606091505b5091509150816200044457600080fd5b809250505092915050565b62000459620012ac565b73ffffffffffffffffffffffffffffffffffffffff166000809054906101000a900473ffffffffffffffffffffffffffffffffffffffff1673ffffffffffffffffffffffffffffffffffffffff1614620004ea576040517f08c379a0000000000000000000000000000000000000000000000000000000008152600401620004e19062003f3b565b60405180910390fd5b600073ffffffffffffffffffffffffffffffffffffffff166000809054906101000a900473ffffffffffffffffffffffffffffffffffffffff1673ffffffffffffffffffffffffffffffffffffffff167f8be0079c531659141344cd1fd0a4f28419497f9722a3daafe3b4186f6b6457e060405160405180910390a360008060006101000a81548173ffffffffffffffffffffffffffffffffffffffff021916908373ffffffffffffffffffffffffffffffffffffffff160217905550565b6000620005c1826001620012b490919063ffffffff16565b9050919050565b6000620005e33360016005016200139890919063ffffffff16565b905090565b60008060001b600160050160000160003373ffffffffffffffffffffffffffffffffffffffff1673ffffffffffffffffffffffffffffffffffffffff16815260200190815260200160002054141562000678576040517f08c379a00000000000000000000000000000000000000000000000000000000081526004016200066f9062003e6f565b60405180910390fd5b60008314620006f157620006ae84848873ffffffffffffffffffffffffffffffffffffffff16620014049092919063ffffffff16565b620006f0576040517f08c379a0000000000000000000000000000000000000000000000000000000008152600401620006e79062003ed5565b60405180910390fd5b5b600082146200076a576200072785838873ffffffffffffffffffffffffffffffffffffffff16620014049092919063ffffffff16565b62000769576040517f08c379a0000000000000000000000000000000000000000000000000000000008152600401620007609062003de7565b60405180910390fd5b5b8473ffffffffffffffffffffffffffffffffffffffff1663c3275c79336040518263ffffffff1660e01b8152600401620007a5919062003b30565b602060405180830381600087803b158015620007c057600080fd5b505af1158015620007d5573d6000803e3d6000fd5b505050506040513d601f19601f82011682018060405250620007fb919081019062002de9565b6200080557600080fd5b6001905095945050505050565b60008060009054906101000a900473ffffffffffffffffffffffffffffffffffffffff16905090565b3483602001511462000884576040517f08c379a00000000000000000000000000000000000000000000000000000000081526004016200087b9062003dc5565b60405180910390fd5b6000620008918462001512565b9050620008a881856200156890919063ffffffff16565b620008ea576040517f08c379a0000000000000000000000000000000000000000000000000000000008152600401620008e19062003f19565b60405180910390fd5b620008f462002479565b8460000151905060006200090882620015c2565b9050600062000917826200160a565b9050620009328160016005016200164b90919063ffffffff16565b1562000975576040517f08c379a00000000000000000000000000000000000000000000000000000000081526004016200096c9062003cf9565b60405180910390fd5b6200097f620024d0565b33816000019073ffffffffffffffffffffffffffffffffffffffff16908173ffffffffffffffffffffffffffffffffffffffff1681525050620009d58460600151888860016200169d909392919063ffffffff16565b8160200181905250620009e762002508565b604051806040016040528086815260200183815250905060608160405160200162000a13919062003fc3565b604051602081830303815290604052905062000a3e86602001516001620012b490919063ffffffff16565b73ffffffffffffffffffffffffffffffffffffffff1663185cc7518562000a658562001814565b6040518363ffffffff1660e01b815260040162000a8492919062003bbe565b602060405180830381600087803b15801562000a9f57600080fd5b505af115801562000ab4573d6000803e3d6000fd5b505050506040513d601f19601f8201168201806040525062000ada919081019062002de9565b62000b1c576040517f08c379a000000000000000000000000000000000000000000000000000000000815260040162000b139062003e2b565b60405180910390fd5b62000b3784826001600501620018629092919063ffffffff16565b62000b568487600001516001600501620018b49092919063ffffffff16565b856000015173ffffffffffffffffffffffffffffffffffffffff166108fc349081150290604051600060405180830381858888f1935050505015801562000ba1573d6000803e3d6000fd5b5062000bd533308b896020015173ffffffffffffffffffffffffffffffffffffffff1662001939909392919063ffffffff16565b62000c17576040517f08c379a000000000000000000000000000000000000000000000000000000000815260040162000c0e9062003f5d565b60405180910390fd5b8373ffffffffffffffffffffffffffffffffffffffff1662000c398662001a4a565b73ffffffffffffffffffffffffffffffffffffffff161462000c92576040517f08c379a000000000000000000000000000000000000000000000000000000000815260040162000c899062003da3565b60405180910390fd5b8373ffffffffffffffffffffffffffffffffffffffff16866000015173ffffffffffffffffffffffffffffffffffffffff167f9ae84ac2ad8f721c2e62d211eca0ae34951726f8834913af6c5ebb81610bb1f88360405162000cf5919062003c55565b60405180910390a350505050505050505050565b62000d13620012ac565b73ffffffffffffffffffffffffffffffffffffffff166000809054906101000a900473ffffffffffffffffffffffffffffffffffffffff1673ffffffffffffffffffffffffffffffffffffffff161462000da4576040517f08c379a000000000000000000000000000000000000000000000000000000000815260040162000d9b9062003f3b565b60405180910390fd5b62000daf8162001a8a565b50565b62000dbc620012ac565b73ffffffffffffffffffffffffffffffffffffffff166000809054906101000a900473ffffffffffffffffffffffffffffffffffffffff1673ffffffffffffffffffffffffffffffffffffffff161462000e4d576040517f08c379a000000000000000000000000000000000000000000000000000000000815260040162000e449062003f3b565b60405180910390fd5b600073ffffffffffffffffffffffffffffffffffffffff16600160000160009054906101000a900473ffffffffffffffffffffffffffffffffffffffff1673ffffffffffffffffffffffffffffffffffffffff161462000ee4576040517f08c379a000000000000000000000000000000000000000000000000000000000815260040162000edb9062003e4d565b60405180910390fd5b83600160000160006101000a81548173ffffffffffffffffffffffffffffffffffffffff021916908373ffffffffffffffffffffffffffffffffffffffff16021790555082600180018190555060008090505b825181101562000fad5762000f4b62002532565b83828151811062000f5857fe5b6020026020010151905060008090505b81604001515181101562000f9d5762000f8f82600160080162001bbb90919063ffffffff16565b808060010191505062000f68565b5050808060010191505062000f37565b5060008090505b8151811015620010775762000fc862002584565b82828151811062000fd557fe5b60200260200101519050806020015160016004016000836000015173ffffffffffffffffffffffffffffffffffffffff1673ffffffffffffffffffffffffffffffffffffffff16815260200190815260200160002060006101000a81548173ffffffffffffffffffffffffffffffffffffffff021916908373ffffffffffffffffffffffffffffffffffffffff16021790555050808060010191505062000fb4565b5050505050565b6060600060608473ffffffffffffffffffffffffffffffffffffffff168585604051602401620010b092919062003b8a565b6040516020818303038152906040527f23e3b730000000000000000000000000000000000000000000000000000000007bffffffffffffffffffffffffffffffffffffffffffffffffffffffff19166020820180517bffffffffffffffffffffffffffffffffffffffffffffffffffffffff83818316178352505050506040516200113c919062003ad0565b600060405180830381855afa9150503d806000811462001179576040519150601f19603f3d011682016040523d82523d6000602084013e6200117e565b606091505b5091509150816200118e57600080fd5b809250505092915050565b600081805190602001208460000160008573ffffffffffffffffffffffffffffffffffffffff1673ffffffffffffffffffffffffffffffffffffffff168152602001908152602001600020541490509392505050565b60008260000160009054906101000a900473ffffffffffffffffffffffffffffffffffffffff1673ffffffffffffffffffffffffffffffffffffffff166328c4f410836040518263ffffffff1660e01b815260040162001250919062003b13565b60206040518083038186803b1580156200126957600080fd5b505afa1580156200127e573d6000803e3d6000fd5b505050506040513d601f19601f82011682018060405250620012a4919081019062002e5a565b905092915050565b600033905090565b6000808360040160008473ffffffffffffffffffffffffffffffffffffffff1673ffffffffffffffffffffffffffffffffffffffff16815260200190815260200160002060009054906101000a900473ffffffffffffffffffffffffffffffffffffffff169050600073ffffffffffffffffffffffffffffffffffffffff168173ffffffffffffffffffffffffffffffffffffffff1614156200138e576040517f08c379a0000000000000000000000000000000000000000000000000000000008152600401620013859062003f7f565b60405180910390fd5b8091505092915050565b60008260010160008373ffffffffffffffffffffffffffffffffffffffff1673ffffffffffffffffffffffffffffffffffffffff16815260200190815260200160002060009054906101000a900473ffffffffffffffffffffffffffffffffffffffff16905092915050565b6000808473ffffffffffffffffffffffffffffffffffffffff1684846040516024016200143392919062003bbe565b6040516020818303038152906040527fa9059cbb000000000000000000000000000000000000000000000000000000007bffffffffffffffffffffffffffffffffffffffffffffffffffffffff19166020820180517bffffffffffffffffffffffffffffffffffffffffffffffffffffffff8381831617835250505050604051620014bf919062003ad0565b6000604051808303816000865af19150503d8060008114620014fe576040519150601f19603f3d011682016040523d82523d6000602084013e62001503565b606091505b50509050809150509392505050565b60003082600001516020015183600001516040015184600001516060015185602001516040516020016200154b959493929190620039b1565b604051602081830303815290604052805190602001209050919050565b600062001584620015798362001cb4565b846040015162001ce6565b73ffffffffffffffffffffffffffffffffffffffff1683600001516000015173ffffffffffffffffffffffffffffffffffffffff1614905092915050565b60008160000151826020015183604001518460600151604051602001620015ed94939291906200395b565b604051602081830303815290604052805190602001209050919050565b60006200164482604051806020016200162390620025ca565b6020820181038252601f19601f820116604052508051906020012062001ee7565b9050919050565b60008060001b8360000160008473ffffffffffffffffffffffffffffffffffffffff1673ffffffffffffffffffffffffffffffffffffffff168152602001908152602001600020541415905092915050565b620016a7620025d8565b620186a04301821015620016f2576040517f08c379a0000000000000000000000000000000000000000000000000000000008152600401620016e99062003d1b565b60405180910390fd5b6000620017126064670de0b6b3a764000062001efe90919063ffffffff16565b9050620017326064670de0b6b3a764000062001efe90919063ffffffff16565b620017638662001754670de0b6b3a76400008862001f4a90919063ffffffff16565b62001efe90919063ffffffff16565b11620017a6576040517f08c379a00000000000000000000000000000000000000000000000000000000081526004016200179d9062003fa1565b60405180910390fd5b6000848610620017df57620017d986620017ca878562001f4a90919063ffffffff16565b62001efe90919063ffffffff16565b620017e1565b815b90506040518060800160405280858152602001868152602001886001015481526020018281525092505050949350505050565b60006200185b62001843620018298462001fc0565b62001834856200200e565b6200205c90919063ffffffff16565b836000015160600151620020b490919063ffffffff16565b9050919050565b80805190602001208360000160008473ffffffffffffffffffffffffffffffffffffffff1673ffffffffffffffffffffffffffffffffffffffff16815260200190815260200160002081905550505050565b808360010160008473ffffffffffffffffffffffffffffffffffffffff1673ffffffffffffffffffffffffffffffffffffffff16815260200190815260200160002060006101000a81548173ffffffffffffffffffffffffffffffffffffffff021916908373ffffffffffffffffffffffffffffffffffffffff160217905550505050565b6000808573ffffffffffffffffffffffffffffffffffffffff168585856040516024016200196a9392919062003b4d565b6040516020818303038152906040527f23b872dd000000000000000000000000000000000000000000000000000000007bffffffffffffffffffffffffffffffffffffffffffffffffffffffff19166020820180517bffffffffffffffffffffffffffffffffffffffffffffffffffffffff8381831617835250505050604051620019f6919062003ad0565b6000604051808303816000865af19150503d806000811462001a35576040519150601f19603f3d011682016040523d82523d6000602084013e62001a3a565b606091505b5050905080915050949350505050565b600060606040518060200162001a6090620025ca565b6020820181038252601f19601f82011660405250905062001a82838262002100565b915050919050565b600073ffffffffffffffffffffffffffffffffffffffff168173ffffffffffffffffffffffffffffffffffffffff16141562001afd576040517f08c379a000000000000000000000000000000000000000000000000000000000815260040162001af49062003d5f565b60405180910390fd5b8073ffffffffffffffffffffffffffffffffffffffff166000809054906101000a900473ffffffffffffffffffffffffffffffffffffffff1673ffffffffffffffffffffffffffffffffffffffff167f8be0079c531659141344cd1fd0a4f28419497f9722a3daafe3b4186f6b6457e060405160405180910390a3806000806101000a81548173ffffffffffffffffffffffffffffffffffffffff021916908373ffffffffffffffffffffffffffffffffffffffff16021790555050565b6001600281111562001bc957fe5b8160000151600281111562001bda57fe5b141562001c385760008090505b81604001515181101562001c315762001c238383602001518460400151848151811062001c1057fe5b602002602001015185606001516200218c565b808060010191505062001be7565b5062001cb0565b60028081111562001c4557fe5b8160000151600281111562001c5657fe5b141562001caf5760008090505b81604001515181101562001cad5762001c9f8383602001518460400151848151811062001c8c57fe5b6020026020010151856060015162002244565b808060010191505062001c63565b505b5b5050565b60008160405160200162001cc9919062003ae9565b604051602081830303815290604052805190602001209050919050565b6000604182511462001d2f576040517f08c379a000000000000000000000000000000000000000000000000000000000815260040162001d269062003d3d565b60405180910390fd5b60008060006020850151925060408501519150606085015160001a90507f7fffffffffffffffffffffffffffffff5d576e7357a4501ddfe92f46681b20a08260001c111562001db5576040517f08c379a000000000000000000000000000000000000000000000000000000000815260040162001dac9062003e09565b60405180910390fd5b601b8160ff161415801562001dce5750601c8160ff1614155b1562001e11576040517f08c379a000000000000000000000000000000000000000000000000000000000815260040162001e089062003e91565b60405180910390fd5b60006001878386866040516000815260200160405260405162001e38949392919062003c08565b6020604051602081039080840390855afa15801562001e5b573d6000803e3d6000fd5b505050602060405103519050600073ffffffffffffffffffffffffffffffffffffffff168173ffffffffffffffffffffffffffffffffffffffff16141562001eda576040517f08c379a000000000000000000000000000000000000000000000000000000000815260040162001ed19062003cd7565b60405180910390fd5b8094505050505092915050565b600062001ef6838330620022fc565b905092915050565b600062001f4283836040518060400160405280601a81526020017f536166654d6174683a206469766973696f6e206279207a65726f00000000000081525062002346565b905092915050565b60008083141562001f5f576000905062001fba565b600082840290508284828162001f7157fe5b041462001fb5576040517f08c379a000000000000000000000000000000000000000000000000000000000815260040162001fac9062003ef7565b60405180910390fd5b809150505b92915050565b600062002007670de0b6b3a764000062001ff88460200151602001516060015185600001516060015162001f4a90919063ffffffff16565b62001efe90919063ffffffff16565b9050919050565b600062002055670de0b6b3a7640000620020468460200151602001516040015185600001516060015162001f4a90919063ffffffff16565b62001efe90919063ffffffff16565b9050919050565b600080828401905083811015620020aa576040517f08c379a0000000000000000000000000000000000000000000000000000000008152600401620020a19062003d81565b60405180910390fd5b8091505092915050565b6000620020f883836040518060400160405280601e81526020017f536166654d6174683a207375627472616374696f6e206f766572666c6f770000815250620023ab565b905092915050565b600080838351602085016000f59050600073ffffffffffffffffffffffffffffffffffffffff168173ffffffffffffffffffffffffffffffffffffffff16141562002182576040517f08c379a0000000000000000000000000000000000000000000000000000000008152600401620021799062003eb3565b60405180910390fd5b8091505092915050565b808460000160006200219f868662002409565b815260200190815260200160002060008201518160000160006101000a81548173ffffffffffffffffffffffffffffffffffffffff021916908373ffffffffffffffffffffffffffffffffffffffff16021790555060208201518160010160006101000a81548173ffffffffffffffffffffffffffffffffffffffff021916908373ffffffffffffffffffffffffffffffffffffffff16021790555090505050505050565b8084600001600062002257868662002444565b815260200190815260200160002060008201518160000160006101000a81548173ffffffffffffffffffffffffffffffffffffffff021916908373ffffffffffffffffffffffffffffffffffffffff16021790555060208201518160010160006101000a81548173ffffffffffffffffffffffffffffffffffffffff021916908373ffffffffffffffffffffffffffffffffffffffff16021790555090505050505050565b60008060ff60f81b8386866040516020016200231c949392919062003a4a565b604051602081830303815290604052805190602001209050606081901b60601c9150509392505050565b6000808311829062002390576040517f08c379a000000000000000000000000000000000000000000000000000000000815260040162002387919062003cb3565b60405180910390fd5b5060008385816200239d57fe5b049050809150509392505050565b6000838311158290620023f6576040517f08c379a0000000000000000000000000000000000000000000000000000000008152600401620023ed919062003cb3565b60405180910390fd5b5060008385039050809150509392505050565b600080833f905080836040516020016200242592919062003aa0565b6040516020818303038152906040528051906020012091505092915050565b600082826040516020016200245b92919062003a1a565b60405160208183030381529060405280519060200120905092915050565b6040518060800160405280600073ffffffffffffffffffffffffffffffffffffffff168152602001600073ffffffffffffffffffffffffffffffffffffffff16815260200160008019168152602001600081525090565b6040518060400160405280600073ffffffffffffffffffffffffffffffffffffffff1681526020016200250262002600565b81525090565b60405180604001604052806200251d62002628565b81526020016200252c6200267f565b81525090565b6040518060800160405280600060028111156200254b57fe5b8152602001600073ffffffffffffffffffffffffffffffffffffffff168152602001606081526020016200257e620026b7565b81525090565b6040518060400160405280600073ffffffffffffffffffffffffffffffffffffffff168152602001600073ffffffffffffffffffffffffffffffffffffffff1681525090565b611019806200442e83390190565b6040518060800160405280600081526020016000815260200160008152602001600081525090565b6040518060800160405280600081526020016000815260200160008152602001600081525090565b6040518060800160405280600073ffffffffffffffffffffffffffffffffffffffff168152602001600073ffffffffffffffffffffffffffffffffffffffff16815260200160008019168152602001600081525090565b6040518060400160405280600073ffffffffffffffffffffffffffffffffffffffff168152602001620026b162002600565b81525090565b6040518060400160405280600073ffffffffffffffffffffffffffffffffffffffff168152602001600073ffffffffffffffffffffffffffffffffffffffff1681525090565b6000813590506200270e8162004366565b92915050565b600081359050620027258162004380565b92915050565b600082601f8301126200273d57600080fd5b8135620027546200274e826200400f565b62003fe1565b915081818352602084019350602081019050838560208402820111156200277a57600080fd5b60005b83811015620027ae5781620027938882620028f0565b8452602084019350602083019250506001810190506200277d565b5050505092915050565b600082601f830112620027ca57600080fd5b8135620027e1620027db8262004038565b62003fe1565b915081818352602084019350602081019050838560408402820111156200280757600080fd5b60005b838110156200283b578162002820888262002aee565b8452602084019350604083019250506001810190506200280a565b5050505092915050565b600082601f8301126200285757600080fd5b81356200286e620028688262004061565b62003fe1565b9150818183526020840193506020810190508360005b83811015620028b857813586016200289d888262002b41565b84526020840193506020830192505060018101905062002884565b5050505092915050565b600081519050620028d3816200439a565b92915050565b600081359050620028ea81620043b4565b92915050565b6000813590506200290181620043ce565b92915050565b600082601f8301126200291957600080fd5b8135620029306200292a826200408a565b62003fe1565b915080825260208301602083018583830111156200294d57600080fd5b6200295a8382846200429f565b50505092915050565b600082601f8301126200297557600080fd5b81356200298c6200298682620040b7565b62003fe1565b91508082526020830160208301858383011115620029a957600080fd5b620029b68382846200429f565b50505092915050565b600081519050620029d081620043e8565b92915050565b600081359050620029e78162004402565b92915050565b600060c0828403121562002a0057600080fd5b62002a0c606062003fe1565b9050600062002a1e8482850162002a6f565b600083015250608062002a348482850162002c2c565b60208301525060a082013567ffffffffffffffff81111562002a5557600080fd5b62002a638482850162002907565b60408301525092915050565b60006080828403121562002a8257600080fd5b62002a8e608062003fe1565b9050600062002aa08482850162002714565b600083015250602062002ab684828501620026fd565b602083015250604062002acc84828501620028d9565b604083015250606062002ae28482850162002c2c565b60608301525092915050565b60006040828403121562002b0157600080fd5b62002b0d604062003fe1565b9050600062002b1f84828501620026fd565b600083015250602062002b3584828501620026fd565b60208301525092915050565b600060a0828403121562002b5457600080fd5b62002b60608062003fe1565b9050600062002b7284828501620029d6565b600083015250602062002b8884828501620026fd565b602083015250604082013567ffffffffffffffff81111562002ba957600080fd5b62002bb7848285016200272b565b604083015250606062002bcd8482850162002bd9565b60608301525092915050565b60006040828403121562002bec57600080fd5b62002bf8604062003fe1565b9050600062002c0a84828501620026fd565b600083015250602062002c2084828501620026fd565b60208301525092915050565b60008135905062002c3d8162004413565b92915050565b60006020828403121562002c5657600080fd5b600062002c6684828501620026fd565b91505092915050565b600080600080600060a0868803121562002c8857600080fd5b600062002c9888828901620026fd565b955050602062002cab88828901620026fd565b945050604062002cbe88828901620026fd565b935050606062002cd18882890162002c2c565b925050608062002ce48882890162002c2c565b9150509295509295909350565b6000806040838503121562002d0557600080fd5b600062002d1585828601620026fd565b925050602083013567ffffffffffffffff81111562002d3357600080fd5b62002d418582860162002963565b9150509250929050565b6000806000806080858703121562002d6257600080fd5b600062002d7287828801620026fd565b945050602062002d858782880162002c2c565b935050604085013567ffffffffffffffff81111562002da357600080fd5b62002db18782880162002845565b925050606085013567ffffffffffffffff81111562002dcf57600080fd5b62002ddd87828801620027b8565b91505092959194509250565b60006020828403121562002dfc57600080fd5b600062002e0c84828501620028c2565b91505092915050565b60006020828403121562002e2857600080fd5b600082013567ffffffffffffffff81111562002e4357600080fd5b62002e518482850162002963565b91505092915050565b60006020828403121562002e6d57600080fd5b600062002e7d84828501620029bf565b91505092915050565b60008060006060848603121562002e9c57600080fd5b600084013567ffffffffffffffff81111562002eb757600080fd5b62002ec586828701620029ed565b935050602062002ed88682870162002c2c565b925050604062002eeb8682870162002c2c565b9150509250925092565b62002f008162004213565b82525050565b62002f118162004146565b82525050565b62002f2c62002f268262004146565b620042f8565b82525050565b62002f3d8162004132565b82525050565b62002f4e8162004132565b82525050565b62002f6962002f638262004132565b620042e4565b82525050565b62002f7a816200415a565b82525050565b62002f9562002f8f8262004166565b6200430c565b82525050565b62002fa68162004192565b82525050565b62002fb78162004192565b82525050565b62002fd262002fcc8262004192565b62004316565b82525050565b62002fed62002fe7826200419c565b62004320565b82525050565b60006200300082620040e4565b6200300c8185620040fa565b93506200301e818560208601620042ae565b620030298162004348565b840191505092915050565b60006200304182620040e4565b6200304d81856200410b565b93506200305f818560208601620042ae565b80840191505092915050565b620030768162004227565b82525050565b62003087816200424f565b82525050565b60006200309a82620040ef565b620030a6818562004116565b9350620030b8818560208601620042ae565b620030c38162004348565b840191505092915050565b6000620030dd60188362004116565b91507f45434453413a20696e76616c6964207369676e617475726500000000000000006000830152602082019050919050565b60006200311f60228362004116565b91507f70726f78792068617320616c7265616479206265656e20696e697469616c697a60008301527f65640000000000000000000000000000000000000000000000000000000000006020830152604082019050919050565b60006200318760148362004116565b91507f74696d656f757420696e73756666696369656e740000000000000000000000006000830152602082019050919050565b6000620031c9601f8362004116565b91507f45434453413a20696e76616c6964207369676e6174757265206c656e677468006000830152602082019050919050565b60006200320b601c8362004127565b91507f19457468657265756d205369676e6564204d6573736167653a0a3332000000006000830152601c82019050919050565b60006200324d60268362004116565b91507f4f776e61626c653a206e6577206f776e657220697320746865207a65726f206160008301527f64647265737300000000000000000000000000000000000000000000000000006020830152604082019050919050565b6000620032b5601b8362004116565b91507f536166654d6174683a206164646974696f6e206f766572666c6f7700000000006000830152602082019050919050565b6000620032f760178362004116565b91507f70726f7879206465706c6f796d656e74206661696c65640000000000000000006000830152602082019050919050565b600062003339602c8362004116565b91507f737570706c696564206574686572206973206e6f7420657175616c20746f206760008301527f61732072657175657374656400000000000000000000000000000000000000006020830152604082019050919050565b6000620033a1601a8362004116565b91507f6661696c656420746f207265706179206c6f73742066756e64730000000000006000830152602082019050919050565b6000620033e360228362004116565b91507f45434453413a20696e76616c6964207369676e6174757265202773272076616c60008301527f75650000000000000000000000000000000000000000000000000000000000006020830152604082019050919050565b60006200344b60248362004116565b91507f696e73756666696369656e742066756e647320696e206c69717569646974792060008301527f706f6f6c000000000000000000000000000000000000000000000000000000006020830152604082019050919050565b6000620034b360138362004116565b91507f616c726561647920696e697469616c697a6564000000000000000000000000006000830152602082019050919050565b6000620034f5601d8362004116565b91507f6e6f742061207265676973746572656420626f72726f772070726f78790000006000830152602082019050919050565b60006200353760228362004116565b91507f45434453413a20696e76616c6964207369676e6174757265202776272076616c60008301527f75650000000000000000000000000000000000000000000000000000000000006020830152604082019050919050565b60006200359f60198362004116565b91507f437265617465323a204661696c6564206f6e206465706c6f79000000000000006000830152602082019050919050565b6000620035e1601f8362004116565b91507f6661696c656420746f2072657475726e20626f6e6420746f206b6565706572006000830152602082019050919050565b60006200362360218362004116565b91507f536166654d6174683a206d756c7469706c69636174696f6e206f766572666c6f60008301527f77000000000000000000000000000000000000000000000000000000000000006020830152604082019050919050565b60006200368b60248362004116565b91507f6c69717569646974792072657175657374207369676e61747572652072656a6560008301527f63746564000000000000000000000000000000000000000000000000000000006020830152604082019050919050565b6000620036f360208362004116565b91507f4f776e61626c653a2063616c6c6572206973206e6f7420746865206f776e65726000830152602082019050919050565b60006200373560168362004116565b91507f626f6e64207375626d697373696f6e206661696c6564000000000000000000006000830152602082019050919050565b60006200377760208362004116565b91507f6e6f7420612072656769737465726564206c697175696469747920746f6b656e6000830152602082019050919050565b6000620037b960128362004116565b91507f626f6e642062656c6f77206d696e696d756d00000000000000000000000000006000830152602082019050919050565b6080820160008201516200380460008501826200390d565b5060208201516200381960208501826200390d565b5060408201516200382e60408501826200390d565b5060608201516200384360608501826200390d565b50505050565b60a08201600082015162003861600085018262002f32565b506020820151620038766020850182620037ec565b50505050565b60808201600082015162003894600085018262002f06565b506020820151620038a9602085018262002f32565b506040820151620038be604085018262002f9b565b506060820151620038d360608501826200390d565b50505050565b61012082016000820151620038f260008501826200387c565b50602082015162003907608085018262003849565b50505050565b6200391881620041fc565b82525050565b6200392981620041fc565b82525050565b620039446200393e82620041fc565b6200433e565b82525050565b620039558162004206565b82525050565b600062003969828762002f17565b6014820191506200397b828662002f54565b6014820191506200398d828562002fbd565b6020820191506200399f82846200392f565b60208201915081905095945050505050565b6000620039bf828862002f54565b601482019150620039d1828762002f54565b601482019150620039e3828662002fbd565b602082019150620039f582856200392f565b60208201915062003a0782846200392f565b6020820191508190509695505050505050565b600062003a28828562002f54565b60148201915062003a3a828462002fd8565b6004820191508190509392505050565b600062003a58828762002f80565b60018201915062003a6a828662002f54565b60148201915062003a7c828562002fbd565b60208201915062003a8e828462002fbd565b60208201915081905095945050505050565b600062003aae828562002fbd565b60208201915062003ac0828462002fd8565b6004820191508190509392505050565b600062003ade828462003034565b915081905092915050565b600062003af682620031fc565b915062003b04828462002fbd565b60208201915081905092915050565b600060208201905062003b2a600083018462002f43565b92915050565b600060208201905062003b47600083018462002ef5565b92915050565b600060608201905062003b64600083018662002f43565b62003b73602083018562002f43565b62003b8260408301846200391e565b949350505050565b600060408201905062003ba1600083018562002f43565b818103602083015262003bb5818462002ff3565b90509392505050565b600060408201905062003bd5600083018562002f43565b62003be460208301846200391e565b9392505050565b600060208201905062003c02600083018462002f6f565b92915050565b600060808201905062003c1f600083018762002fac565b62003c2e60208301866200394a565b62003c3d604083018562002fac565b62003c4c606083018462002fac565b95945050505050565b6000602082019050818103600083015262003c71818462002ff3565b905092915050565b600060208201905062003c9060008301846200306b565b92915050565b600060208201905062003cad60008301846200307c565b92915050565b6000602082019050818103600083015262003ccf81846200308d565b905092915050565b6000602082019050818103600083015262003cf281620030ce565b9050919050565b6000602082019050818103600083015262003d148162003110565b9050919050565b6000602082019050818103600083015262003d368162003178565b9050919050565b6000602082019050818103600083015262003d5881620031ba565b9050919050565b6000602082019050818103600083015262003d7a816200323e565b9050919050565b6000602082019050818103600083015262003d9c81620032a6565b9050919050565b6000602082019050818103600083015262003dbe81620032e8565b9050919050565b6000602082019050818103600083015262003de0816200332a565b9050919050565b6000602082019050818103600083015262003e028162003392565b9050919050565b6000602082019050818103600083015262003e2481620033d4565b9050919050565b6000602082019050818103600083015262003e46816200343c565b9050919050565b6000602082019050818103600083015262003e6881620034a4565b9050919050565b6000602082019050818103600083015262003e8a81620034e6565b9050919050565b6000602082019050818103600083015262003eac8162003528565b9050919050565b6000602082019050818103600083015262003ece8162003590565b9050919050565b6000602082019050818103600083015262003ef081620035d2565b9050919050565b6000602082019050818103600083015262003f128162003614565b9050919050565b6000602082019050818103600083015262003f34816200367c565b9050919050565b6000602082019050818103600083015262003f5681620036e4565b9050919050565b6000602082019050818103600083015262003f788162003726565b9050919050565b6000602082019050818103600083015262003f9a8162003768565b9050919050565b6000602082019050818103600083015262003fbc81620037aa565b9050919050565b60006101208201905062003fdb6000830184620038d9565b92915050565b6000604051905081810181811067ffffffffffffffff821117156200400557600080fd5b8060405250919050565b600067ffffffffffffffff8211156200402757600080fd5b602082029050602081019050919050565b600067ffffffffffffffff8211156200405057600080fd5b602082029050602081019050919050565b600067ffffffffffffffff8211156200407957600080fd5b602082029050602081019050919050565b600067ffffffffffffffff821115620040a257600080fd5b601f19601f8301169050602081019050919050565b600067ffffffffffffffff821115620040cf57600080fd5b601f19601f8301169050602081019050919050565b600081519050919050565b600081519050919050565b600082825260208201905092915050565b600081905092915050565b600082825260208201905092915050565b600081905092915050565b60006200413f82620041dc565b9050919050565b60006200415382620041dc565b9050919050565b60008115159050919050565b60007fff0000000000000000000000000000000000000000000000000000000000000082169050919050565b6000819050919050565b60007fffffffff0000000000000000000000000000000000000000000000000000000082169050919050565b6000620041d58262004132565b9050919050565b600073ffffffffffffffffffffffffffffffffffffffff82169050919050565b6000819050919050565b600060ff82169050919050565b6000620042208262004277565b9050919050565b600062004234826200423b565b9050919050565b60006200424882620041dc565b9050919050565b60006200425c8262004263565b9050919050565b60006200427082620041dc565b9050919050565b600062004284826200428b565b9050919050565b60006200429882620041dc565b9050919050565b82818337600083830152505050565b60005b83811015620042ce578082015181840152602081019050620042b1565b83811115620042de576000848401525b50505050565b6000620042f1826200432a565b9050919050565b600062004305826200432a565b9050919050565b6000819050919050565b6000819050919050565b6000819050919050565b6000620043378262004359565b9050919050565b6000819050919050565b6000601f19601f8301169050919050565b60008160601b9050919050565b620043718162004132565b81146200437d57600080fd5b50565b6200438b8162004146565b81146200439757600080fd5b50565b620043a5816200415a565b8114620043b157600080fd5b50565b620043bf8162004192565b8114620043cb57600080fd5b50565b620043d9816200419c565b8114620043e557600080fd5b50565b620043f381620041c8565b8114620043ff57600080fd5b50565b600381106200441057600080fd5b50565b6200441e81620041fc565b81146200442a57600080fd5b5056fe608060405234801561001057600080fd5b50336000800160006101000a81548173ffffffffffffffffffffffffffffffffffffffff021916908373ffffffffffffffffffffffffffffffffffffffff1602179055506000800160009054906101000a900473ffffffffffffffffffffffffffffffffffffffff1673ffffffffffffffffffffffffffffffffffffffff16637b3b00be6040518163ffffffff1660e01b8152600401602060405180830381600087803b1580156100c057600080fd5b505af11580156100d4573d6000803e3d6000fd5b505050506040513d601f19601f820116820180604052506100f89190810190610155565b600060010160006101000a81548173ffffffffffffffffffffffffffffffffffffffff021916908373ffffffffffffffffffffffffffffffffffffffff1602179055506101c7565b60008151905061014f816101b0565b92915050565b60006020828403121561016757600080fd5b600061017584828501610140565b91505092915050565b600061018982610190565b9050919050565b600073ffffffffffffffffffffffffffffffffffffffff82169050919050565b6101b98161017e565b81146101c457600080fd5b50565b610e43806101d66000396000f3fe608060405234801561001057600080fd5b50600436106100415760003560e01c806323e3b730146100465780632692f25a14610076578063fd00430c14610092575b600080fd5b610060600480360361005b919081019061088d565b6100c2565b60405161006d9190610bbb565b60405180910390f35b610090600480360361008b91908101906108e1565b61017f565b005b6100ac60048036036100a7919081019061088d565b61040f565b6040516100b99190610bbb565b60405180910390f35b60603073ffffffffffffffffffffffffffffffffffffffff163373ffffffffffffffffffffffffffffffffffffffff16146100fc57600080fd5b600060608473ffffffffffffffffffffffffffffffffffffffff16846040516101259190610b0c565b600060405180830381855af49150503d8060008114610160576040519150601f19603f3d011682016040523d82523d6000602084013e610165565b606091505b50915091508161017457600080fd5b809250505092915050565b600060010160009054906101000a900473ffffffffffffffffffffffffffffffffffffffff1673ffffffffffffffffffffffffffffffffffffffff163373ffffffffffffffffffffffffffffffffffffffff1614610212576040517f08c379a000000000000000000000000000000000000000000000000000000000815260040161020990610c1f565b60405180910390fd5b6000800160149054906101000a900460ff16156102e657600060608473ffffffffffffffffffffffffffffffffffffffff1684846040516102539190610b0c565b60006040518083038185875af1925050503d8060008114610290576040519150601f19603f3d011682016040523d82523d6000602084013e610295565b606091505b50915091508181906102dd576040517f08c379a00000000000000000000000000000000000000000000000000000000081526004016102d49190610bdd565b60405180910390fd5b50805160208201f35b600061030761030260006004856105239092919063ffffffff16565b61055b565b60001c60e01b90506103176106c5565b600073__BorrowProxyLib________________________632f1a48af909187856040518463ffffffff1660e01b815260040161035593929190610c3f565b60606040518083038186803b15801561036d57600080fd5b505af4158015610381573d6000803e3d6000fd5b505050506040513d601f19601f820116820180604052506103a59190810190610948565b90506103b4816020015161058a565b6103f3576040517f08c379a00000000000000000000000000000000000000000000000000000000081526004016103ea90610bff565b60405180910390fd5b6104088385836105c79092919063ffffffff16565b5050505050565b6060600060608473ffffffffffffffffffffffffffffffffffffffff16858560405160240161043f929190610b8b565b6040516020818303038152906040527f23e3b730000000000000000000000000000000000000000000000000000000007bffffffffffffffffffffffffffffffffffffffffffffffffffffffff19166020820180517bffffffffffffffffffffffffffffffffffffffffffffffffffffffff83818316178352505050506040516104c99190610b0c565b600060405180830381855afa9150503d8060008114610504576040519150601f19603f3d011682016040523d82523d6000602084013e610509565b606091505b50915091508161051857600080fd5b809250505092915050565b61052b6106fb565b60006020850184019050808260000181815250508282602001818152505083826040018181525050509392505050565b60008082600001519050600083602001519050600180600883021b038082602003840351169350505050919050565b60008073ffffffffffffffffffffffffffffffffffffffff16826000015173ffffffffffffffffffffffffffffffffffffffff1614159050919050565b6000606084602001516000015173ffffffffffffffffffffffffffffffffffffffff16856020015160000151866020015160200151328860000151878960405160200161061996959493929190610b23565b6040516020818303038152906040526040516106359190610b0c565b600060405180830381855af49150503d8060008114610670576040519150601f19603f3d011682016040523d82523d6000602084013e610675565b606091505b50915091508181906106bd576040517f08c379a00000000000000000000000000000000000000000000000000000000081526004016106b49190610bdd565b60405180910390fd5b505050505050565b6040518060400160405280600073ffffffffffffffffffffffffffffffffffffffff1681526020016106f561071c565b81525090565b60405180606001604052806000815260200160008152602001600081525090565b6040518060400160405280600073ffffffffffffffffffffffffffffffffffffffff168152602001600073ffffffffffffffffffffffffffffffffffffffff1681525090565b60008135905061077181610ddf565b92915050565b60008151905061078681610ddf565b92915050565b600082601f83011261079d57600080fd5b81356107b06107ab82610ca3565b610c76565b915080825260208301602083018583830111156107cc57600080fd5b6107d7838284610d8c565b50505092915050565b6000606082840312156107f257600080fd5b6107fc6040610c76565b9050600061080c84828501610777565b60008301525060206108208482850161082c565b60208301525092915050565b60006040828403121561083e57600080fd5b6108486040610c76565b9050600061085884828501610777565b600083015250602061086c84828501610777565b60208301525092915050565b60008135905061088781610df6565b92915050565b600080604083850312156108a057600080fd5b60006108ae85828601610762565b925050602083013567ffffffffffffffff8111156108cb57600080fd5b6108d78582860161078c565b9150509250929050565b6000806000606084860312156108f657600080fd5b600061090486828701610762565b935050602061091586828701610878565b925050604084013567ffffffffffffffff81111561093257600080fd5b61093e8682870161078c565b9150509250925092565b60006060828403121561095a57600080fd5b6000610968848285016107e0565b91505092915050565b61097a81610d24565b82525050565b61098981610d12565b82525050565b61099881610d12565b82525050565b6109a781610d36565b82525050565b60006109b882610ccf565b6109c28185610ce5565b93506109d2818560208601610d9b565b6109db81610dce565b840191505092915050565b60006109f182610ccf565b6109fb8185610cf6565b9350610a0b818560208601610d9b565b80840191505092915050565b6000610a2282610cda565b610a2c8185610d01565b9350610a3c818560208601610d9b565b610a4581610dce565b840191505092915050565b6000610a5d601f83610d01565b91507f66756e6374696f6e2068616e646c6572206e6f742072656769737465726564006000830152602082019050919050565b6000610a9d602983610d01565b91507f626f72726f772070726f78792063616e206f6e6c79206265207573656420627960008301527f20626f72726f77657200000000000000000000000000000000000000000000006020830152604082019050919050565b8082525050565b610b0681610d82565b82525050565b6000610b1882846109e6565b915081905092915050565b600060c082019050610b386000830189610980565b610b456020830188610980565b610b526040830187610971565b610b5f6060830186610980565b610b6c6080830185610afd565b81810360a0830152610b7e81846109ad565b9050979650505050505050565b6000604082019050610ba06000830185610980565b8181036020830152610bb281846109ad565b90509392505050565b60006020820190508181036000830152610bd581846109ad565b905092915050565b60006020820190508181036000830152610bf78184610a17565b905092915050565b60006020820190508181036000830152610c1881610a50565b9050919050565b60006020820190508181036000830152610c3881610a90565b9050919050565b6000606082019050610c546000830186610af6565b610c61602083018561098f565b610c6e604083018461099e565b949350505050565b6000604051905081810181811067ffffffffffffffff82111715610c9957600080fd5b8060405250919050565b600067ffffffffffffffff821115610cba57600080fd5b601f19601f8301169050602081019050919050565b600081519050919050565b600081519050919050565b600082825260208201905092915050565b600081905092915050565b600082825260208201905092915050565b6000610d1d82610d62565b9050919050565b6000610d2f82610d62565b9050919050565b60007fffffffff0000000000000000000000000000000000000000000000000000000082169050919050565b600073ffffffffffffffffffffffffffffffffffffffff82169050919050565b6000819050919050565b82818337600083830152505050565b60005b83811015610db9578082015181840152602081019050610d9e565b83811115610dc8576000848401525b50505050565b6000601f19601f8301169050919050565b610de881610d12565b8114610df357600080fd5b50565b610dff81610d82565b8114610e0a57600080fd5b5056fea26469706673582212206a12b04f1e0bfbce81c6519657ae8f1fabed232dca860fa914147d617c05c79a64736f6c63430006030033a264697066735822122062157016ac1abcfb90fb60e9e68cbefbab4905fdd286f3a40f3bdeb36aff3c3164736f6c63430006030033",
  "source": "pragma solidity ^0.6.2;\npragma experimental ABIEncoderV2;\n\nimport { Ownable } from \"openzeppelin-solidity/contracts/access/Ownable.sol\";\nimport { IShifterRegistry } from \"./interfaces/IShifterRegistry.sol\";\nimport { IShifter } from \"./interfaces/IShifter.sol\";\nimport { ShifterPoolLib } from \"./ShifterPoolLib.sol\";\nimport { ShifterBorrowProxyLib } from \"./ShifterBorrowProxyLib.sol\";\nimport { BorrowProxy } from \"./BorrowProxy.sol\";\nimport { BorrowProxyLib } from \"./BorrowProxyLib.sol\";\nimport { BorrowProxyFactoryLib } from \"./BorrowProxyFactoryLib.sol\";\nimport { TokenUtils } from \"./utils/TokenUtils.sol\";\nimport { ViewExecutor } from \"./utils/ViewExecutor.sol\";\nimport { LiquidityToken } from \"./LiquidityToken.sol\";\n\ncontract ShifterPool is Ownable, ViewExecutor {\n  using ShifterPoolLib for *;\n  using TokenUtils for *;\n  using ShifterBorrowProxyLib for *;\n  using BorrowProxyLib for *;\n  using BorrowProxyFactoryLib for *;\n  ShifterPoolLib.Isolate isolate;\n  function setup(address shifterRegistry, uint256 poolFee, BorrowProxyLib.ModuleRegistration[] memory modules, ShifterPoolLib.LiquidityTokenLaunch[] memory tokenLaunches) public onlyOwner {\n    require(isolate.shifterRegistry == address(0x0), \"already initialized\");\n    isolate.shifterRegistry = shifterRegistry;\n    isolate.poolFee = poolFee;\n    for (uint256 i = 0; i < modules.length; i++) {\n      BorrowProxyLib.ModuleRegistration memory registration = modules[i];\n      for (uint256 j = 0; j < registration.sigs.length; j++) {\n        isolate.registry.registryRegisterModule(registration);\n      }\n    }\n    for (uint256 i = 0; i < tokenLaunches.length; i++) {\n      ShifterPoolLib.LiquidityTokenLaunch memory launch = tokenLaunches[i];\n      isolate.tokenToLiquidityToken[launch.token] = launch.liqToken;\n    }\n  }\n  function executeBorrow(ShifterBorrowProxyLib.LiquidityRequestParcel memory liquidityRequestParcel, uint256 bond, uint256 timeoutExpiry) public payable {\n    require(liquidityRequestParcel.gasRequested == msg.value, \"supplied ether is not equal to gas requested\");\n    bytes32 requestHash = liquidityRequestParcel.computeLiquidityRequestHash();\n    require(liquidityRequestParcel.validateSignature(requestHash), \"liquidity request signature rejected\");\n    ShifterBorrowProxyLib.LiquidityRequest memory liquidityRequest = liquidityRequestParcel.request;\n    bytes32 borrowerSalt = liquidityRequest.computeBorrowerSalt();\n    address proxyAddress = borrowerSalt.deriveBorrowerAddress();\n    require(!isolate.borrowProxyController.isInitialized(proxyAddress), \"proxy has already been initialized\");\n    ShifterBorrowProxyLib.LenderRecord memory loan;\n    loan.keeper = msg.sender;\n    loan.params = isolate.computeLoanParams(liquidityRequest.amount, bond, timeoutExpiry);\n    ShifterBorrowProxyLib.ProxyRecord memory proxyRecord = ShifterBorrowProxyLib.ProxyRecord({\n      request: liquidityRequest,\n      loan: loan\n    });\n    bytes memory data = abi.encode(proxyRecord);\n    require(LiquidityToken(isolate.getLiquidityToken(liquidityRequest.token)).loan(proxyAddress, proxyRecord.computePostFee()), \"insufficient funds in liquidity pool\");\n    isolate.borrowProxyController.mapProxyRecord(proxyAddress, data);\n    isolate.borrowProxyController.setProxyOwner(proxyAddress, liquidityRequest.borrower);\n    liquidityRequest.borrower.transfer(msg.value);\n    require(liquidityRequest.token.transferTokenFrom(msg.sender, address(this), bond), \"bond submission failed\");\n    require(borrowerSalt.deployBorrowProxy() == proxyAddress, \"proxy deployment failed\");\n    emit BorrowProxyLib.BorrowProxyMade(liquidityRequest.borrower, proxyAddress, data);\n  }\n  function validateProxyRecordHandler(bytes memory proxyRecord) public view returns (bool) {\n    return isolate.borrowProxyController.validateProxyRecord(msg.sender, proxyRecord);\n  }\n  function getProxyOwnerHandler() public view returns (address) {\n    return isolate.borrowProxyController.getProxyOwner(msg.sender);\n  }\n  function getShifterHandler(address token) public view returns (IShifter) {\n    return isolate.getShifter(token);\n  }\n  function getLiquidityTokenHandler(address token) public view returns (LiquidityToken) {\n    return LiquidityToken(isolate.getLiquidityToken(token));\n  }\n  function relayResolveLoan(address token, address liquidityToken, address keeper, uint256 bond, uint256 repay) public returns (bool) {\n    require(isolate.borrowProxyController.proxyInitializerRecord[msg.sender] != bytes32(0x0), \"not a registered borrow proxy\");\n    if (bond != 0) require(token.sendToken(keeper, bond), \"failed to return bond to keeper\");\n    if (repay != 0) require(token.sendToken(liquidityToken, repay), \"failed to repay lost funds\");\n    require(LiquidityToken(liquidityToken).resolveLoan(msg.sender));\n    return true;\n  }\n}\n",
  "sourcePath": "/home/ray/0confirmation/packages/0confirmation-sol/contracts/ShifterPool.sol",
  "compiler": {
    "name": "solc",
    "version": "0.6.3+commit.8dda9521.Emscripten.clang"
  },
  "schemaVersion": "3.0.23",
  "updatedAt": "2020-03-20T18:48:13.840Z",
  "devdoc": {
    "methods": {
      "owner()": {
        "details": "Returns the address of the current owner."
      },
      "renounceOwnership()": {
        "details": "Leaves the contract without owner. It will not be possible to call `onlyOwner` functions anymore. Can only be called by the current owner.     * NOTE: Renouncing ownership will leave the contract without an owner, thereby removing any functionality that is only available to the owner."
      },
      "transferOwnership(address)": {
        "details": "Transfers ownership of the contract to a new account (`newOwner`). Can only be called by the current owner."
      }
    }
  },
  "userdoc": {
    "methods": {}
  }
}