{
  "contractName": "ShifterPool",
  "abi": [
    {
      "inputs": [],
      "stateMutability": "nonpayable",
      "type": "constructor"
    },
    {
      "anonymous": false,
      "inputs": [
        {
          "indexed": true,
          "internalType": "address",
          "name": "previousOwner",
          "type": "address"
        },
        {
          "indexed": true,
          "internalType": "address",
          "name": "newOwner",
          "type": "address"
        }
      ],
      "name": "OwnershipTransferred",
      "type": "event"
    },
    {
      "inputs": [
        {
          "internalType": "bytes",
          "name": "creationCode",
          "type": "bytes"
        },
        {
          "internalType": "bytes",
          "name": "context",
          "type": "bytes"
        }
      ],
      "name": "_executeSafeView",
      "outputs": [],
      "stateMutability": "nonpayable",
      "type": "function"
    },
    {
      "inputs": [
        {
          "internalType": "bytes",
          "name": "consData",
          "type": "bytes"
        }
      ],
      "name": "cloneConstructor",
      "outputs": [],
      "stateMutability": "nonpayable",
      "type": "function"
    },
    {
      "inputs": [],
      "name": "owner",
      "outputs": [
        {
          "internalType": "address",
          "name": "",
          "type": "address"
        }
      ],
      "stateMutability": "view",
      "type": "function"
    },
    {
      "inputs": [
        {
          "internalType": "bytes",
          "name": "creationCode",
          "type": "bytes"
        },
        {
          "internalType": "bytes",
          "name": "context",
          "type": "bytes"
        }
      ],
      "name": "query",
      "outputs": [
        {
          "components": [
            {
              "internalType": "bool",
              "name": "success",
              "type": "bool"
            },
            {
              "internalType": "bytes",
              "name": "data",
              "type": "bytes"
            }
          ],
          "internalType": "struct SafeViewLib.SafeViewResult",
          "name": "",
          "type": "tuple"
        }
      ],
      "stateMutability": "nonpayable",
      "type": "function"
    },
    {
      "inputs": [],
      "name": "renounceOwnership",
      "outputs": [],
      "stateMutability": "nonpayable",
      "type": "function"
    },
    {
      "inputs": [
        {
          "internalType": "address",
          "name": "newOwner",
          "type": "address"
        }
      ],
      "name": "transferOwnership",
      "outputs": [],
      "stateMutability": "nonpayable",
      "type": "function"
    },
    {
      "inputs": [
        {
          "components": [
            {
              "internalType": "address",
              "name": "shifterRegistry",
              "type": "address"
            },
            {
              "internalType": "uint256",
              "name": "minTimeout",
              "type": "uint256"
            },
            {
              "internalType": "uint256",
              "name": "poolFee",
              "type": "uint256"
            },
            {
              "internalType": "uint256",
              "name": "maxLoan",
              "type": "uint256"
            }
          ],
          "internalType": "struct ShifterPoolLib.SetupParams",
          "name": "params",
          "type": "tuple"
        },
        {
          "components": [
            {
              "internalType": "enum BorrowProxyLib.ModuleRegistrationType",
              "name": "moduleType",
              "type": "uint8"
            },
            {
              "internalType": "address",
              "name": "target",
              "type": "address"
            },
            {
              "internalType": "bytes4[]",
              "name": "sigs",
              "type": "bytes4[]"
            }
          ],
          "internalType": "struct BorrowProxyLib.ModuleDetails[]",
          "name": "moduleDetails",
          "type": "tuple[]"
        },
        {
          "components": [
            {
              "internalType": "bool",
              "name": "isPrecompiled",
              "type": "bool"
            },
            {
              "internalType": "address",
              "name": "assetSubmodule",
              "type": "address"
            },
            {
              "internalType": "address",
              "name": "liquidationSubmodule",
              "type": "address"
            },
            {
              "internalType": "address",
              "name": "repaymentSubmodule",
              "type": "address"
            }
          ],
          "internalType": "struct BorrowProxyLib.Module[]",
          "name": "modules",
          "type": "tuple[]"
        },
        {
          "components": [
            {
              "internalType": "address",
              "name": "token",
              "type": "address"
            },
            {
              "internalType": "address",
              "name": "liqToken",
              "type": "address"
            }
          ],
          "internalType": "struct ShifterPoolLib.LiquidityTokenLaunch[]",
          "name": "tokenLaunches",
          "type": "tuple[]"
        }
      ],
      "name": "setup",
      "outputs": [],
      "stateMutability": "nonpayable",
      "type": "function"
    },
    {
      "inputs": [
        {
          "internalType": "address",
          "name": "token",
          "type": "address"
        }
      ],
      "name": "getLiquidityTokenForTokenHandler",
      "outputs": [
        {
          "internalType": "address",
          "name": "",
          "type": "address"
        }
      ],
      "stateMutability": "view",
      "type": "function"
    },
    {
      "inputs": [],
      "name": "deployBorrowProxyImplementation",
      "outputs": [],
      "stateMutability": "nonpayable",
      "type": "function"
    },
    {
      "inputs": [],
      "name": "deployAssetForwarderImplementation",
      "outputs": [],
      "stateMutability": "nonpayable",
      "type": "function"
    },
    {
      "inputs": [
        {
          "internalType": "bytes32",
          "name": "salt",
          "type": "bytes32"
        }
      ],
      "name": "deployAssetForwarderClone",
      "outputs": [
        {
          "internalType": "address",
          "name": "created",
          "type": "address"
        }
      ],
      "stateMutability": "nonpayable",
      "type": "function"
    },
    {
      "inputs": [],
      "name": "getAssetForwarderImplementationHandler",
      "outputs": [
        {
          "internalType": "address",
          "name": "implementation",
          "type": "address"
        }
      ],
      "stateMutability": "view",
      "type": "function"
    },
    {
      "inputs": [
        {
          "components": [
            {
              "components": [
                {
                  "internalType": "address payable",
                  "name": "borrower",
                  "type": "address"
                },
                {
                  "internalType": "address",
                  "name": "token",
                  "type": "address"
                },
                {
                  "internalType": "bytes32",
                  "name": "nonce",
                  "type": "bytes32"
                },
                {
                  "internalType": "uint256",
                  "name": "amount",
                  "type": "uint256"
                },
                {
                  "internalType": "bool",
                  "name": "forbidLoan",
                  "type": "bool"
                },
                {
                  "components": [
                    {
                      "internalType": "address",
                      "name": "to",
                      "type": "address"
                    },
                    {
                      "internalType": "bytes",
                      "name": "txData",
                      "type": "bytes"
                    }
                  ],
                  "internalType": "struct ShifterBorrowProxyLib.InitializationAction[]",
                  "name": "actions",
                  "type": "tuple[]"
                }
              ],
              "internalType": "struct ShifterBorrowProxyLib.LiquidityRequest",
              "name": "request",
              "type": "tuple"
            },
            {
              "internalType": "uint256",
              "name": "gasRequested",
              "type": "uint256"
            },
            {
              "internalType": "bytes",
              "name": "signature",
              "type": "bytes"
            }
          ],
          "internalType": "struct ShifterBorrowProxyLib.LiquidityRequestParcel",
          "name": "liquidityRequestParcel",
          "type": "tuple"
        },
        {
          "internalType": "uint256",
          "name": "bond",
          "type": "uint256"
        },
        {
          "internalType": "uint256",
          "name": "timeoutExpiry",
          "type": "uint256"
        }
      ],
      "name": "executeBorrow",
      "outputs": [],
      "stateMutability": "payable",
      "type": "function"
    },
    {
      "inputs": [
        {
          "components": [
            {
              "components": [
                {
                  "components": [
                    {
                      "internalType": "address payable",
                      "name": "borrower",
                      "type": "address"
                    },
                    {
                      "internalType": "address",
                      "name": "token",
                      "type": "address"
                    },
                    {
                      "internalType": "bytes32",
                      "name": "nonce",
                      "type": "bytes32"
                    },
                    {
                      "internalType": "uint256",
                      "name": "amount",
                      "type": "uint256"
                    },
                    {
                      "internalType": "bool",
                      "name": "forbidLoan",
                      "type": "bool"
                    },
                    {
                      "components": [
                        {
                          "internalType": "address",
                          "name": "to",
                          "type": "address"
                        },
                        {
                          "internalType": "bytes",
                          "name": "txData",
                          "type": "bytes"
                        }
                      ],
                      "internalType": "struct ShifterBorrowProxyLib.InitializationAction[]",
                      "name": "actions",
                      "type": "tuple[]"
                    }
                  ],
                  "internalType": "struct ShifterBorrowProxyLib.LiquidityRequest",
                  "name": "request",
                  "type": "tuple"
                },
                {
                  "internalType": "uint256",
                  "name": "gasRequested",
                  "type": "uint256"
                },
                {
                  "internalType": "bytes",
                  "name": "signature",
                  "type": "bytes"
                }
              ],
              "internalType": "struct ShifterBorrowProxyLib.LiquidityRequestParcel",
              "name": "liquidityRequestParcel",
              "type": "tuple"
            },
            {
              "components": [
                {
                  "internalType": "bytes32",
                  "name": "txhash",
                  "type": "bytes32"
                },
                {
                  "internalType": "uint256",
                  "name": "vout",
                  "type": "uint256"
                },
                {
                  "internalType": "bytes32",
                  "name": "pHash",
                  "type": "bytes32"
                },
                {
                  "internalType": "bytes",
                  "name": "darknodeSignature",
                  "type": "bytes"
                }
              ],
              "internalType": "struct ShifterBorrowProxyLib.ShiftParameters",
              "name": "shiftParameters",
              "type": "tuple"
            },
            {
              "components": [
                {
                  "internalType": "address",
                  "name": "to",
                  "type": "address"
                },
                {
                  "internalType": "bytes",
                  "name": "txData",
                  "type": "bytes"
                }
              ],
              "internalType": "struct ShifterBorrowProxyLib.InitializationAction[]",
              "name": "actions",
              "type": "tuple[]"
            }
          ],
          "internalType": "struct ShifterBorrowProxyLib.SansBorrowShiftParcel",
          "name": "parcel",
          "type": "tuple"
        }
      ],
      "name": "executeShiftSansBorrow",
      "outputs": [],
      "stateMutability": "payable",
      "type": "function"
    },
    {
      "inputs": [
        {
          "internalType": "bytes",
          "name": "proxyRecord",
          "type": "bytes"
        }
      ],
      "name": "validateProxyRecordHandler",
      "outputs": [
        {
          "internalType": "bool",
          "name": "",
          "type": "bool"
        }
      ],
      "stateMutability": "view",
      "type": "function"
    },
    {
      "inputs": [
        {
          "internalType": "address",
          "name": "proxyAddress",
          "type": "address"
        }
      ],
      "name": "getProxyTokenHandler",
      "outputs": [
        {
          "internalType": "address",
          "name": "",
          "type": "address"
        }
      ],
      "stateMutability": "view",
      "type": "function"
    },
    {
      "inputs": [
        {
          "internalType": "address",
          "name": "user",
          "type": "address"
        }
      ],
      "name": "getProxyOwnerHandler",
      "outputs": [
        {
          "internalType": "address",
          "name": "",
          "type": "address"
        }
      ],
      "stateMutability": "view",
      "type": "function"
    },
    {
      "inputs": [
        {
          "internalType": "address",
          "name": "token",
          "type": "address"
        }
      ],
      "name": "getShifterHandler",
      "outputs": [
        {
          "internalType": "contract IShifter",
          "name": "",
          "type": "address"
        }
      ],
      "stateMutability": "view",
      "type": "function"
    },
    {
      "inputs": [
        {
          "internalType": "address",
          "name": "token",
          "type": "address"
        }
      ],
      "name": "getLiquidityTokenHandler",
      "outputs": [
        {
          "internalType": "contract LiquidityToken",
          "name": "",
          "type": "address"
        }
      ],
      "stateMutability": "view",
      "type": "function"
    },
    {
      "inputs": [
        {
          "internalType": "address",
          "name": "to",
          "type": "address"
        },
        {
          "internalType": "bytes4",
          "name": "sig",
          "type": "bytes4"
        }
      ],
      "name": "fetchModuleHandler",
      "outputs": [
        {
          "components": [
            {
              "internalType": "bool",
              "name": "isPrecompiled",
              "type": "bool"
            },
            {
              "internalType": "address",
              "name": "assetSubmodule",
              "type": "address"
            },
            {
              "internalType": "address",
              "name": "liquidationSubmodule",
              "type": "address"
            },
            {
              "internalType": "address",
              "name": "repaymentSubmodule",
              "type": "address"
            }
          ],
          "internalType": "struct BorrowProxyLib.Module",
          "name": "",
          "type": "tuple"
        }
      ],
      "stateMutability": "view",
      "type": "function"
    },
    {
      "inputs": [
        {
          "internalType": "address",
          "name": "token",
          "type": "address"
        },
        {
          "internalType": "address",
          "name": "liquidityToken",
          "type": "address"
        },
        {
          "internalType": "address",
          "name": "keeper",
          "type": "address"
        },
        {
          "internalType": "uint256",
          "name": "bond",
          "type": "uint256"
        },
        {
          "internalType": "uint256",
          "name": "repay",
          "type": "uint256"
        }
      ],
      "name": "relayResolveLoan",
      "outputs": [
        {
          "internalType": "bool",
          "name": "",
          "type": "bool"
        }
      ],
      "stateMutability": "nonpayable",
      "type": "function"
    }
  ],
  "bytecode": "0x60806040523480156200001157600080fd5b506000620000276001600160e01b036200007b16565b600080546001600160a01b0319166001600160a01b0383169081178255604051929350917f8be0079c531659141344cd1fd0a4f28419497f9722a3daafe3b4186f6b6457e0908290a350436001556200007f565b3390565b614006806200008f6000396000f3fe60806040526004361061012a5760003560e01c806363091aa3116100ab5780638da5cb5b1161006f5780638da5cb5b1461032057806393e93abe14610335578063d0a80e311461034a578063dc74245e1461036a578063e6c1f0741461037d578063f2fde38b1461039d5761012a565b806363091aa3146102a157806365ba837a146102b6578063715018a6146102cb578063798aada0146102e0578063801874ec146103005761012a565b80632b19a598116100f25780632b19a598146101f457806334686eaf14610207578063441123601461023457806352e831dd146102615780635f7d2b57146102815761012a565b806308f604951461012f5780631fbc78dc146101655780632342fd10146101925780632593b053146101b457806329658b02146101d4575b600080fd5b34801561013b57600080fd5b5061014f61014a366004612c0e565b6103bd565b60405161015c91906132d7565b60405180910390f35b34801561017157600080fd5b50610185610180366004612b10565b6103d7565b60405161015c9190613202565b34801561019e57600080fd5b506101b26101ad366004612e51565b6103ea565b005b3480156101c057600080fd5b506101856101cf366004612bf6565b6105b4565b3480156101e057600080fd5b506101856101ef366004612b10565b610601565b6101b2610202366004612d9f565b610614565b34801561021357600080fd5b50610227610222366004612c40565b61064c565b60405161015c9190613bb2565b34801561024057600080fd5b5061025461024f366004612ba2565b61066b565b60405161015c9190613acc565b34801561026d57600080fd5b506101b261027c366004612c0e565b610685565b34801561028d57600080fd5b506101b261029c366004612c40565b610688565b3480156102ad57600080fd5b506101b26106d3565b3480156102c257600080fd5b50610185610726565b3480156102d757600080fd5b506101b2610735565b3480156102ec57600080fd5b506101856102fb366004612b10565b6107b4565b34801561030c57600080fd5b5061014f61031b366004612b48565b6107c7565b34801561032c57600080fd5b50610185610911565b34801561034157600080fd5b506101b2610920565b34801561035657600080fd5b50610185610365366004612b10565b61094a565b6101b2610378366004612ca0565b610968565b34801561038957600080fd5b50610185610398366004612b10565b6109c8565b3480156103a957600080fd5b506101b26103b8366004612b10565b6109db565b60006103d1600b338463ffffffff610a9116565b92915050565b60006103d160018363ffffffff610ab716565b6103f2610b3a565b6000546001600160a01b039081169116146104285760405162461bcd60e51b815260040161041f90613823565b60405180910390fd5b82518251146104495760405162461bcd60e51b815260040161041f906138f9565b8351600480546001600160a01b0319166001600160a01b0390921691909117905560608401516007556020840151600555604084015160065560005b825181101561054157610496612497565b60405180608001604052808684815181106104ad57fe5b60200260200101516000015160028111156104c457fe5b81526020018684815181106104d557fe5b6020026020010151602001516001600160a01b031681526020018684815181106104fb57fe5b602002602001015160400151815260200185848151811061051857fe5b602090810291909101015190529050610538600f8263ffffffff610b3e16565b50600101610485565b5060005b81518110156105ad576105566124c5565b82828151811061056257fe5b6020908102919091018101518082015190516001600160a01b039081166000908152600a909352604090922080546001600160a01b0319169290911691909117905550600101610545565b5050505050565b6003546000906103d1906001600160a01b03166105cf610bf8565b33856040516020016105e39392919061315b565b6040516020818303038152906040528051906020012060001c610c1c565b60006103d1600b8363ffffffff610c6c16565b6000606061062183610c8f565b915091508051600014610647576106476001600160a01b0383168263ffffffff610fea16565b505050565b6106546124dc565b610664838363ffffffff61104c16565b9392505050565b6106736124f4565b610664600f848463ffffffff6110c516565b50565b600061069d60006106976111b3565b856111d7565b905060606106c26106bd6001600160a01b0384168563ffffffff61124916565b6112d3565b90506106cd816112fc565b50505050565b61070460017ffe1e3164ba4910db3c9afd049cd8feb4552390569c846692e6df4ac68aeaa90e63ffffffff61130416565b600280546001600160a01b0319166001600160a01b0392909216919091179055565b6003546001600160a01b031690565b61073d610b3a565b6000546001600160a01b0390811691161461076a5760405162461bcd60e51b815260040161041f90613823565b600080546040516001600160a01b03909116907f8be0079c531659141344cd1fd0a4f28419497f9722a3daafe3b4186f6b6457e0908390a3600080546001600160a01b0319169055565b60006103d160018363ffffffff61136c16565b336000908152600b60205260408120546107f35760405162461bcd60e51b815260040161041f9061365a565b821561082f576108136001600160a01b038716858563ffffffff6113a816565b61082f5760405162461bcd60e51b815260040161041f90613767565b811561086b5761084f6001600160a01b038716868463ffffffff6113a816565b61086b5760405162461bcd60e51b815260040161041f90613570565b60405163c3275c7960e01b81526001600160a01b0386169063c3275c7990610897903390600401613202565b602060405180830381600087803b1580156108b157600080fd5b505af11580156108c5573d6000803e3d6000fd5b505050506040513d601f19601f820116820180604052508101906108e99190612bda565b6109055760405162461bcd60e51b815260040161041f90613999565b50600195945050505050565b6000546001600160a01b031690565b61092861141a565b600380546001600160a01b0319166001600160a01b0392909216919091179055565b6001600160a01b039081166000908152600a60205260409020541690565b825160a0015161097784611472565b506000610985858585611554565b855180516020909101519192506109af916001600160a01b0384169190600063ffffffff6116f516565b6105ad6001600160a01b0382168363ffffffff610fea16565b60006103d1600b8363ffffffff61179316565b6109e3610b3a565b6000546001600160a01b03908116911614610a105760405162461bcd60e51b815260040161041f90613823565b6001600160a01b038116610a365760405162461bcd60e51b815260040161041f90613479565b600080546040516001600160a01b03808516939216917f8be0079c531659141344cd1fd0a4f28419497f9722a3daafe3b4186f6b6457e091a3600080546001600160a01b0319166001600160a01b0392909216919091179055565b80516020918201206001600160a01b039290921660009081529290526040909120541490565b600382015460405163028c4f4160e41b81526000916001600160a01b0316906328c4f41090610aea908590600401613202565b60206040518083038186803b158015610b0257600080fd5b505afa158015610b16573d6000803e3d6000fd5b505050506040513d601f19601f820116820180604052508101906106649190612b2c565b3390565b600181516002811115610b4d57fe5b1415610b9c5760005b816040015151811015610b9657610b8e83836020015184604001518481518110610b7c57fe5b602002602001015185606001516117b6565b600101610b56565b50610bf4565b600281516002811115610bab57fe5b1415610bf45760005b81604001515181101561064757610bec83836020015184604001518481518110610bda57fe5b60200260200101518560600151611840565b600101610bb4565b5050565b7f6b6f6b75258f8f4cdb6ef275682bc2be3e8b970e5e4417113bd1ea53622d907e90565b60006060610c298461184e565b80519091508390602083018282826000f5945050506001600160a01b038316610c645760405162461bcd60e51b815260040161041f906138d1565b505092915050565b6001600160a01b0380821660009081526002840160205260409020541692915050565b60006060610c9b61251b565b60408051608081018252855151818301908152825180840190935233835286515160609081015192938493918401916020820190610ce290600190600a81046103e861185a565b90529052815260408051608081018252602088810180515183528051820151838301528051840151938301939093529151606090810151908201529101528451909150610d4090610d329061195a565b85519063ffffffff61197316565b610d5c5760405162461bcd60e51b815260040161041f906137df565b835151600090610d6b906119a4565b600254909150610d8a906001600160a01b03168263ffffffff6119af16565b9350610d9d600b8563ffffffff6119bb16565b15610dba5760405162461bcd60e51b815260040161041f9061339d565b610def846001604051602001610dd091906131f9565b60408051601f19818403018152919052600b919063ffffffff6119d916565b84515160200151610e089060019063ffffffff610ab716565b6001600160a01b031663159ab14d86602001516040015187600001516000015160600151610e35866119fc565b8960200151606001516040518563ffffffff1660e01b8152600401610e5d94939291906132e2565b602060405180830381600087803b158015610e7757600080fd5b505af1158015610e8b573d6000803e3d6000fd5b505050506040513d601f19601f82011682018060405250810190610eaf9190612f21565b50845151606001518251600091610ecc919063ffffffff611a0716565b9050610ed782611a34565b508551518051602090910151610eff916001600160a01b03881691600163ffffffff6116f516565b855151516001600160a01b03163314801590610f1f575085516020015134145b15610faa57855151516040516001600160a01b03909116903480156108fc02916000818181858888f19350505050158015610f5e573d6000803e3d6000fd5b5085515160200151610f80906001600160a01b0316338363ffffffff6113a816565b610f9c5760405162461bcd60e51b815260040161041f906134bf565b85515160a001519350610fe2565b855151516001600160a01b0316331415610fca5785604001519350610fe2565b60405162461bcd60e51b815260040161041f90613858565b505050915091565b604051630bfceb2b60e31b81526001600160a01b03831690635fe7595890611016908490600401613277565b600060405180830381600087803b15801561103057600080fd5b505af1158015611044573d6000803e3d6000fd5b505050505050565b6110546124dc565b6060306110618585611a4d565b60405161106e91906131ac565b6000604051808303816000865af19150503d80600081146110ab576040519150601f19603f3d011682016040523d82523d6000602084013e6110b0565b606091505b509150506110bd81611aa3565b949350505050565b6110cd6124f4565b6110d56124f4565b8460006110e28686611abf565b815260208082019290925260409081016000208151608081018352815460ff8116151582526001600160a01b036101009091048116948201949094526001820154841692810192909252600201549091166060820152905061114381611ae7565b6110bd578460006111548686611af9565b815260208082019290925260409081016000208151608081018352815460ff81161515825261010090046001600160a01b0390811694820194909452600182015484169281019290925260020154909116606082015295945050505050565b7fad53495153c7c363e98a26920ec679e0e687636458f6908c91cf6deadb19080190565b600080844710156111fa5760405162461bcd60e51b815260040161041f90613a59565b82516112185760405162461bcd60e51b815260040161041f906133df565b8383516020850187f590506001600160a01b0381166110bd5760405162461bcd60e51b815260040161041f90613730565b6112516124dc565b60006060846001600160a01b031661126885611b14565b60405161127591906131ac565b600060405180830381855af49150503d80600081146112b0576040519150601f19603f3d011682016040523d82523d6000602084013e6112b5565b606091505b50604080518082019091529115158252602082015295945050505050565b6060816040516020016112e69190613bb2565b6040516020818303038152906040529050919050565b805160208201fd5b60405163dd678a0760e01b815260009073__ShifterBorrowProxyFactoryLib__________9063dd678a07906113409086908690600401613abe565b60206040518083038186803b15801561135857600080fd5b505af4158015610b16573d6000803e3d6000fd5b6001600160a01b038082166000908152600984016020526040812054909116806106645760405162461bcd60e51b815260040161041f90613964565b600080846001600160a01b03166113bf8585611b67565b6040516113cc91906131ac565b6000604051808303816000865af19150503d8060008114611409576040519150601f19603f3d011682016040523d82523d6000602084013e61140e565b606091505b50909695505050505050565b600061146d60007f6b6f6b75258f8f4cdb6ef275682bc2be3e8b970e5e4417113bd1ea53622d907e60001b604051806020016114559061253b565b601f1982820381018352601f909101166040526111d7565b905090565b6000808260000151602001516001600160a01b031663313ce5676040518163ffffffff1660e01b815260040160206040518083038186803b1580156114b657600080fd5b505afa1580156114ca573d6000803e3d6000fd5b505050506040513d601f19601f820116820180604052508101906114ee9190612f39565b905060128160ff1611156115145760405162461bcd60e51b815260040161041f906139fc565b60075483516060015160ff8316601203600a0a908161152f57fe5b04111561154e5760405162461bcd60e51b815260040161041f90613a90565b50919050565b8251608001516000901561157a5760405162461bcd60e51b815260040161041f90613691565b3484602001511461159d5760405162461bcd60e51b815260040161041f90613524565b6115b66115a98561195a565b859063ffffffff61197316565b6115d25760405162461bcd60e51b815260040161041f906137df565b6115da612548565b50835160006115e8826119a4565b6040805160008082526020820190925291925061161b565b6116086124dc565b8152602001906001900390816116005790505b5060a083015261162961257f565b60405180604001604052808481526020016040518060400160405280336001600160a01b0316815260200161167087606001518b8b600161185a909392919063ffffffff16565b90529052905061167f82611a34565b935061168d60018583611b84565b6116af83602001518561169f84611c23565b600192919063ffffffff611c5b16565b60208301516116cf906001600160a01b031633308963ffffffff611d0016565b6116eb5760405162461bcd60e51b815260040161041f906138a1565b5050509392505050565b6040516329c8702d60e01b81526001600160a01b038516906329c8702d906117259086908690869060040161322f565b602060405180830381600087803b15801561173f57600080fd5b505af1158015611753573d6000803e3d6000fd5b505050506040513d601f19601f820116820180604052508101906117779190612bda565b6106cd5760405162461bcd60e51b815260040161041f906135a7565b6001600160a01b0380821660009081526001840160205260409020541692915050565b808460006117c48686611abf565b81526020808201929092526040908101600020835181549385015160ff1990941690151517610100600160a81b0319166101006001600160a01b0394851602178155908301516001820180546001600160a01b031990811692851692909217905560609093015160029091018054909316911617905550505050565b808460006117c48686611af9565b60606103d13083611d74565b61186261259f565b84600401548210156118865760405162461bcd60e51b815260040161041f90613414565b60006118a1670de0b6b3a7640000606463ffffffff611ed316565b90506118bc670de0b6b3a7640000606463ffffffff611ed316565b6118e4866118d887670de0b6b3a764000063ffffffff611f1516565b9063ffffffff611ed316565b116119015760405162461bcd60e51b815260040161041f906139d0565b60008486106119235761191e866118d8848863ffffffff611f1516565b611925565b815b905060405180608001604052808543018152602001868152602001886005015481526020018281525092505050949350505050565b600061196582611f4f565b805190602001209050919050565b600061198b61198183611f6f565b8460400151611f9f565b8351516001600160a01b03908116911614905092915050565b6000611965826120cd565b600061066483836120e9565b6001600160a01b031660009081526020919091526040902054151590565b80516020918201206001600160a01b039092166000908152929052604090912055565b600061196582612104565b6000610664670de0b6b3a76400006118d88560200151602001516060015185611f1590919063ffffffff16565b6002546000906103d1906001600160a01b031683610c1c565b6060635f7d2b5760e01b8383604051602401611a6a929190613338565b60408051601f198184030181529190526020810180516001600160e01b03166001600160e01b0319909316929092179091529392505050565b611aab6124dc565b818060200190518101906103d19190612ceb565b600080611acb8461212b565b9050611ad7818461212f565b8051906020012091505092915050565b602001516001600160a01b0316151590565b6000611b05838361215b565b80519060200120905092915050565b60606309c5eabe60e01b82604051602401611b2f9190613325565b60408051601f198184030181529190526020810180516001600160e01b03166001600160e01b03199093169290921790915292915050565b606063a9059cbb60e01b8383604051602401611a6a929190613216565b6060611b8f82612170565b825160200151909150611bae90600a860190859063ffffffff61218316565b815151611bc790600a860190859063ffffffff6121b716565b8151516040516001600160a01b03909116903480156108fc02916000818181858888f19350505050158015611c00573d6000803e3d6000fd5b50611c15600a8501848363ffffffff6119d916565b8151516106cd9084836121eb565b60006103d1611c49611c348461223b565b611c3d85612270565b9063ffffffff6122a516565b8351606001519063ffffffff6122ca16565b611c65848461136c565b6001600160a01b031663185cc75183836040518363ffffffff1660e01b8152600401611c92929190613216565b602060405180830381600087803b158015611cac57600080fd5b505af1158015611cc0573d6000803e3d6000fd5b505050506040513d601f19601f82011682018060405250810190611ce49190612bda565b6106cd5760405162461bcd60e51b815260040161041f90613616565b600080856001600160a01b0316611d1886868661230c565b604051611d2591906131ac565b6000604051808303816000865af19150503d8060008114611d62576040519150601f19603f3d011682016040523d82523d6000602084013e611d67565b606091505b5090979650505050505050565b6040805160008152602081019091526060908190611d959060448101613325565b60408051601f198184030181529190526020810180516001600160e01b03166352e831dd60e01b17905280519091506063016001600160401b0381118015611ddc57600080fd5b506040519080825280601f01601f191660200182016040528015611e07576020820181803683370190505b507f3d3d606380380380913d393d73bebebebebebebebebebebebebebebebebebebe6020820152600160601b858102602d8301527f5af4602a57600080fd5b602d8060366000396000f3363d3d373d3d3d363d73be6041830152840260608201526e5af43d82803e903d91602b57fd5bf360881b6074820152915060005b8151811015610c6457818181518110611e9a57fe5b602001015160f81c60f81b838260630181518110611eb457fe5b60200101906001600160f81b031916908160001a905350600101611e85565b600061066483836040518060400160405280601a81526020017f536166654d6174683a206469766973696f6e206279207a65726f000000000000815250612365565b600082611f24575060006103d1565b82820282848281611f3157fe5b04146106645760405162461bcd60e51b815260040161041f9061379e565b606080611f63836000015160a0015161239c565b905061066483826123af565b600081604051602001611f8291906131c8565b604051602081830303815290604052805190602001209050919050565b60008151604114611fc25760405162461bcd60e51b815260040161041f90613442565b60208201516040830151606084015160001a7f7fffffffffffffffffffffffffffffff5d576e7357a4501ddfe92f46681b20a08211156120145760405162461bcd60e51b815260040161041f906135d4565b8060ff16601b1415801561202c57508060ff16601c14155b156120495760405162461bcd60e51b815260040161041f906136ee565b60006001878386866040516000815260200160405260405161206e9493929190613307565b6020604051602081039080840390855afa158015612090573d6000803e3d6000fd5b5050604051601f1901519150506001600160a01b0381166120c35760405162461bcd60e51b815260040161041f90613366565b9695505050505050565b6060806120dd8360a0015161239c565b905061066483826123e5565b6000610664826120f88561184e565b80519060200120612416565b80515160409081015160208084015180519082015193516060946112e6949390910161317e565b3f90565b60608282604051602001612144929190613194565b604051602081830303815290604052905092915050565b60608282604051602001612144929190613100565b6060816040516020016112e69190613b0a565b6001600160a01b039182166000908152600290930160205260409092208054919092166001600160a01b0319909116179055565b6001600160a01b039182166000908152600190930160205260409092208054919092166001600160a01b0319909116179055565b816001600160a01b0316836001600160a01b03167f9ae84ac2ad8f721c2e62d211eca0ae34951726f8834913af6c5ebb81610bb1f88360405161222e9190613325565b60405180910390a3505050565b60006103d1670de0b6b3a76400006118d884602001516020015160600151856000015160600151611f1590919063ffffffff16565b60006103d1670de0b6b3a76400006118d884602001516020015160400151856000015160600151611f1590919063ffffffff16565b6000828201838110156106645760405162461bcd60e51b815260040161041f906134ed565b600061066483836040518060400160405280601e81526020017f536166654d6174683a207375627472616374696f6e206f766572666c6f770000815250612423565b60606323b872dd60e01b84848460405160240161232b93929190613253565b60408051601f198184030181529190526020810180516001600160e01b03166001600160e01b031990931692909217909152949350505050565b600081836123865760405162461bcd60e51b815260040161041f9190613325565b50600083858161239257fe5b0495945050505050565b6060816040516020016112e69190613277565b815160208082015160408084015160608581015185890151608090970151935191966121449630969592939192918a9101613099565b6060826000015183602001518460400151856060015186608001518660405160200161214496959493929190613039565b600061066483833061244f565b600081848411156124475760405162461bcd60e51b815260040161041f9190613325565b505050900390565b60008060ff60f81b83868660405160200161246d9493929190613127565b60408051808303601f1901815291905280516020909101206001600160a01b031695945050505050565b6040805160808101909152806000815260006020820152606060408201819052016124c06124f4565b905290565b604080518082019091526000808252602082015290565b60408051808201909152600081526060602082015290565b60408051608081018252600080825260208201819052918101829052606081019190915290565b604051806040016040528061252e61257f565b81526020016124c06125c7565b61032a80613ca783390190565b6040805160c0810182526000808252602082018190529181018290526060808201839052608082019290925260a081019190915290565b6040518060400160405280612592612548565b81526020016124c06125ed565b6040518060800160405280600081526020016000815260200160008152602001600081525090565b604080516080810182526000808252602082018190529181019190915260608082015290565b604051806040016040528060006001600160a01b031681526020016124c061259f565b80356103d181613c6d565b600082601f83011261262b578081fd5b813561263e61263982613bff565b613bd9565b81815291506020808301908481018184028601820187101561265f57600080fd5b60005b8481101561268757813561267581613c90565b84529282019290820190600101612662565b505050505092915050565b600082601f8301126126a2578081fd5b81356126b061263982613bff565b818152915060208083019084810160005b848110156126875781358701604080601f19838c030112156126e257600080fd5b6126eb81613bd9565b6126f78b878501612610565b8152818301356001600160401b0381111561271157600080fd5b61271f8c8883870101612953565b82880152508652505092820192908201906001016126c1565b600082601f830112612748578081fd5b813561275661263982613bff565b818152915060208083019084810160408085028701830188101561277957600080fd5b6000805b868110156127ca5782848b031215612793578182fd5b61279c83613bd9565b6127a68b86612610565b81526127b48b878701612610565b818701528652948401949282019260010161277d565b5050505050505092915050565b600082601f8301126127e7578081fd5b81356127f561263982613bff565b818152915060208083019084810160005b848110156126875781358701606080601f19838c0301121561282757600080fd5b61283081613bd9565b61283c8b8785016129a1565b8152604061284c8c828601612610565b87830152828401356001600160401b0381111561286857600080fd5b6128768d898388010161261b565b9183019190915250865250509282019290820190600101612806565b600082601f8301126128a2578081fd5b81356128b061263982613bff565b81815291506020808301908481016080808502870183018810156128d357600080fd5b6000805b868110156127ca5782848b0312156128ed578182fd5b6128f683613bd9565b6129008b86612948565b815261290e8b878701612610565b8682015260406129208c828801612610565b9082015260606129328c878301612610565b90820152865294840194928201926001016128d7565b80356103d181613c82565b600082601f830112612963578081fd5b813561297161263982613c1e565b915080825283602082850101111561298857600080fd5b8060208401602084013760009082016020015292915050565b8035600381106103d157600080fd5b6000606082840312156129c1578081fd5b6129cb6060613bd9565b905081356001600160401b03808211156129e457600080fd5b81840160c081870312156129f757600080fd5b612a0160c0613bd9565b92508035612a0e81613c6d565b83526020810135612a1e81613c6d565b806020850152506040810135604084015260608101356060840152612a468660808301612948565b608084015260a081013582811115612a5d57600080fd5b612a6987828401612692565b60a08501525050818352602084013560208401526040840135915080821115612a9157600080fd5b50612a9e84828501612953565b60408301525092915050565b600060808284031215612abb578081fd5b612ac56080613bd9565b905081358152602082013560208201526040820135604082015260608201356001600160401b03811115612af857600080fd5b612b0484828501612953565b60608301525092915050565b600060208284031215612b21578081fd5b813561066481613c6d565b600060208284031215612b3d578081fd5b815161066481613c6d565b600080600080600060a08688031215612b5f578081fd5b8535612b6a81613c6d565b94506020860135612b7a81613c6d565b93506040860135612b8a81613c6d565b94979396509394606081013594506080013592915050565b60008060408385031215612bb4578182fd5b8235612bbf81613c6d565b91506020830135612bcf81613c90565b809150509250929050565b600060208284031215612beb578081fd5b815161066481613c82565b600060208284031215612c07578081fd5b5035919050565b600060208284031215612c1f578081fd5b81356001600160401b03811115612c34578182fd5b6110bd84828501612953565b60008060408385031215612c52578182fd5b82356001600160401b0380821115612c68578384fd5b612c7486838701612953565b93506020850135915080821115612c89578283fd5b50612c9685828601612953565b9150509250929050565b600080600060608486031215612cb4578081fd5b83356001600160401b03811115612cc9578182fd5b612cd5868287016129b0565b9660208601359650604090950135949350505050565b60006020808385031215612cfd578182fd5b82516001600160401b0380821115612d13578384fd5b81850160408188031215612d25578485fd5b612d2f6040613bd9565b92508051612d3c81613c82565b83528084015182811115612d4e578586fd5b019050601f81018613612d5f578384fd5b8051612d6d61263982613c1e565b8181528785838501011115612d80578586fd5b612d8f82868301878601613c41565b9383019390935250949350505050565b600060208284031215612db0578081fd5b81356001600160401b0380821115612dc6578283fd5b81840160608187031215612dd8578384fd5b612de26060613bd9565b9250803582811115612df2578485fd5b612dfe878284016129b0565b845250602081013582811115612e12578485fd5b612e1e87828401612aaa565b602085015250604081013582811115612e35578485fd5b612e4187828401612692565b6040850152509195945050505050565b60008060008084860360e0811215612e67578283fd5b6080811215612e74578283fd5b50612e7f6080613bd9565b612e898787612610565b81526020860135602082015260408601356040820152606086013560608201528094505060808501356001600160401b0380821115612ec6578384fd5b612ed2888389016127d7565b945060a0870135915080821115612ee7578384fd5b612ef388838901612892565b935060c0870135915080821115612f08578283fd5b50612f1587828801612738565b91505092959194509250565b600060208284031215612f32578081fd5b5051919050565b600060208284031215612f4a578081fd5b815160ff81168114610664578182fd5b600060018060a01b0382511683526020820151604060208501526110bd6040850182612fe7565b6001600160a01b03169052565b6000815180845260208085018081965082840281019150828601855b85811015612fd4578284038952612fc2848351612f5a565b98850198935090840190600101612faa565b5091979650505050505050565b15159052565b60008151808452612fff816020860160208601613c41565b601f01601f19169290920160200192915050565b805182526020810151602083015260408101516040830152606081015160608301525050565b60006bffffffffffffffffffffffff19808960601b168352808860601b1660148401525085602883015284604883015283151560f81b60688301528251613087816069850160208701613c41565b91909101606901979650505050505050565b60006bffffffffffffffffffffffff19808a60601b168352808960601b1660148401525086602883015285604883015284606883015283151560f81b608883015282516130ed816089850160208701613c41565b9190910160890198975050505050505050565b60609290921b6001600160601b03191682526001600160e01b031916601482015260180190565b6001600160f81b031994909416845260609290921b6001600160601b03191660018401526015830152603582015260550190565b92835260609190911b6001600160601b0319166020830152603482015260540190565b9283526020830191909152604082015260600190565b9182526001600160e01b031916602082015260240190565b600082516131be818460208701613c41565b9190910192915050565b7f19457468657265756d205369676e6564204d6573736167653a0a3332000000008152601c810191909152603c0190565b90815260200190565b6001600160a01b0391909116815260200190565b6001600160a01b03929092168252602082015260400190565b6001600160a01b039384168152919092166020820152901515604082015260600190565b6001600160a01b039384168152919092166020820152604081019190915260600190565b6000602080830181845280855180835260408601915060408482028701019250838701855b828110156132ca57603f198886030184526132b8858351612f5a565b9450928501929085019060010161329c565b5092979650505050505050565b901515815260200190565b6000858252846020830152836040830152608060608301526120c36080830184612fe7565b93845260ff9290921660208401526040830152606082015260800190565b6000602082526106646020830184612fe7565b60006040825261334b6040830185612fe7565b828103602084015261335d8185612fe7565b95945050505050565b60208082526018908201527f45434453413a20696e76616c6964207369676e61747572650000000000000000604082015260600190565b60208082526022908201527f70726f78792068617320616c7265616479206265656e20696e697469616c697a604082015261195960f21b606082015260800190565b6020808252818101527f437265617465323a2062797465636f6465206c656e677468206973207a65726f604082015260600190565b6020808252601490820152731d1a5b595bdd5d081a5b9cdd59999a58da595b9d60621b604082015260600190565b6020808252601f908201527f45434453413a20696e76616c6964207369676e6174757265206c656e67746800604082015260600190565b60208082526026908201527f4f776e61626c653a206e6577206f776e657220697320746865207a65726f206160408201526564647265737360d01b606082015260800190565b6020808252601490820152731ad9595c195c881c185e5bdd5d0819985a5b195960621b604082015260600190565b6020808252601b908201527f536166654d6174683a206164646974696f6e206f766572666c6f770000000000604082015260600190565b6020808252602c908201527f737570706c696564206574686572206973206e6f7420657175616c20746f206760408201526b185cc81c995c5d595cdd195960a21b606082015260800190565b6020808252601a908201527f6661696c656420746f207265706179206c6f73742066756e6473000000000000604082015260600190565b6020808252601390820152727365747570207068617365206661696c75726560681b604082015260600190565b60208082526022908201527f45434453413a20696e76616c6964207369676e6174757265202773272076616c604082015261756560f01b606082015260800190565b60208082526024908201527f696e73756666696369656e742066756e647320696e206c6971756964697479206040820152631c1bdbdb60e21b606082015260800190565b6020808252601d908201527f6e6f742061207265676973746572656420626f72726f772070726f7879000000604082015260600190565b60208082526037908201527f6973206e6f742061206c6f616e20726571756573742c20747279207573696e6760408201527f2065786563757465536869667453616e73426f72726f77000000000000000000606082015260800190565b60208082526022908201527f45434453413a20696e76616c6964207369676e6174757265202776272076616c604082015261756560f01b606082015260800190565b60208082526019908201527f437265617465323a204661696c6564206f6e206465706c6f7900000000000000604082015260600190565b6020808252601f908201527f6661696c656420746f2072657475726e20626f6e6420746f206b656570657200604082015260600190565b60208082526021908201527f536166654d6174683a206d756c7469706c69636174696f6e206f766572666c6f6040820152607760f81b606082015260800190565b60208082526024908201527f6c69717569646974792072657175657374207369676e61747572652072656a6560408201526318dd195960e21b606082015260800190565b6020808252818101527f4f776e61626c653a2063616c6c6572206973206e6f7420746865206f776e6572604082015260600190565b60208082526029908201527f696e636f72726563742067617320737570706c696564207769746820676173206040820152681c995c5d595cdd195960ba1b606082015260800190565b602080825260169082015275189bdb99081cdd589b5a5cdcda5bdb8819985a5b195960521b604082015260600190565b6020808252600e908201526d18dc99585d194c8819985a5b195960921b604082015260600190565b60208082526045908201527f63616e2774207a6970206d6f64756c65207265676973746174696f6e733a206d60408201527f6f64756c65732e6c656e67746820213d206d6f64756c6544657461696c732e6c6060820152640cadccee8d60db1b608082015260a00190565b6020808252818101527f6e6f7420612072656769737465726564206c697175696469747920746f6b656e604082015260600190565b60208082526017908201527f6c6f616e207265736f6c7574696f6e206661696c757265000000000000000000604082015260600190565b602080825260129082015271626f6e642062656c6f77206d696e696d756d60701b604082015260600190565b6020808252603e908201527f74686520746f6b656e20737570706c696564206973206e6f742061207368696660408201527f74657220746f6b656e202d2d20646563696d616c7320746f6f20686967680000606082015260800190565b6020808252601d908201527f437265617465323a20696e73756666696369656e742062616c616e6365000000604082015260600190565b6020808252601490820152736c6f616e2065786365656473206d6178696d756d60601b604082015260600190565b918252602082015260400190565b8151151581526020808301516001600160a01b0390811691830191909152604080840151821690830152606092830151169181019190915260800190565b600060208252825160c06020840152613b2760e084018251612f81565b6020810151613b3a610100850182612f81565b50604081015161012084015260608101516101408401526080810151613b64610160850182612fe1565b5060a081015160c0610180850152613b806101a0850182612f8e565b9150506020840151613b96604085018251612f81565b6020810151613ba86060860182613013565b5090949350505050565b60006020825282511515602083015260208301516040808401526110bd6060840182612fe7565b6040518181016001600160401b0381118282101715613bf757600080fd5b604052919050565b60006001600160401b03821115613c14578081fd5b5060209081020190565b60006001600160401b03821115613c33578081fd5b50601f01601f191660200190565b60005b83811015613c5c578181015183820152602001613c44565b838111156106cd5750506000910152565b6001600160a01b038116811461068557600080fd5b801515811461068557600080fd5b6001600160e01b03198116811461068557600080fdfe608060405234801561001057600080fd5b5061030a806100206000396000f3fe60806040526004361061001e5760003560e01c80638e03e6cd14610023575b600080fd5b6100366100313660046101d7565b610038565b005b6001600160a01b03811615610103576100de82826001600160a01b03166370a08231306040518263ffffffff1660e01b81526004016100779190610260565b60206040518083038186803b15801561008f57600080fd5b505afa1580156100a3573d6000803e3d6000fd5b505050506040513d601f19601f820116820180604052508101906100c7919061020f565b6001600160a01b038416919063ffffffff61010f16565b6101035760405162461bcd60e51b81526004016100fa9061028d565b60405180910390fd5b816001600160a01b0316ff5b600080846001600160a01b03166101268585610181565b6040516101339190610227565b6000604051808303816000865af19150503d8060008114610170576040519150601f19603f3d011682016040523d82523d6000602084013e610175565b606091505b50909695505050505050565b606063a9059cbb60e01b838360405160240161019e929190610274565b60408051601f198184030181529190526020810180516001600160e01b03166001600160e01b0319909316929092179091529392505050565b600080604083850312156101e9578182fd5b82356101f4816102bc565b91506020830135610204816102bc565b809150509250929050565b600060208284031215610220578081fd5b5051919050565b60008251815b81811015610247576020818601810151858301520161022d565b818111156102555782828501525b509190910192915050565b6001600160a01b0391909116815260200190565b6001600160a01b03929092168252602082015260400190565b602080825260159082015274657263323020666f7277617264206661696c75726560581b604082015260600190565b6001600160a01b03811681146102d157600080fd5b5056fea2646970667358221220718542a2af22fd262c218154d0ca9d1d244e81f20df3cd582bcd50873ea5a97764736f6c63430006080033a2646970667358221220e4d3dd708e0da92186366a97857e497fea46a09fbbc7cc620c45e0c520668fdd64736f6c63430006080033",
  "immutableReferences": {},
  "source": "// SPDX-License-Identifier: MIT\npragma solidity ^0.6.0;\npragma experimental ABIEncoderV2;\n\nimport { Ownable } from \"@openzeppelin/contracts/access/Ownable.sol\";\nimport { IShifterRegistry } from \"./interfaces/IShifterRegistry.sol\";\nimport { IShifter } from \"./interfaces/IShifter.sol\";\nimport { ShifterPoolLib } from \"./ShifterPoolLib.sol\";\nimport { ShifterBorrowProxyLib } from \"./ShifterBorrowProxyLib.sol\";\nimport { ShifterBorrowProxyFactoryLib } from \"./ShifterBorrowProxyFactoryLib.sol\";\nimport { ShifterBorrowProxy } from \"./ShifterBorrowProxy.sol\";\nimport { BorrowProxy } from \"./BorrowProxy.sol\";\nimport { BorrowProxyLib } from \"./BorrowProxyLib.sol\";\nimport { TokenUtils } from \"./utils/TokenUtils.sol\";\nimport { ViewExecutor } from \"./utils/ViewExecutor.sol\";\nimport { LiquidityToken } from \"./LiquidityToken.sol\";\nimport { SandboxLib } from \"./utils/sandbox/SandboxLib.sol\";\nimport { SafeViewExecutor } from \"./utils/sandbox/SafeViewExecutor.sol\";\nimport { FactoryLib } from \"./FactoryLib.sol\";\nimport { NullCloneConstructor } from \"./NullCloneConstructor.sol\";\nimport { AssetForwarderLib } from \"./adapters/lib/AssetForwarderLib.sol\";\nimport { AssetForwarder } from \"./adapters/lib/AssetForwarder.sol\";\nimport { ERC20 } from \"@openzeppelin/contracts/token/ERC20/ERC20.sol\";\n\ncontract ShifterPool is Ownable, SafeViewExecutor, NullCloneConstructor {\n  using SandboxLib for *;\n  using ShifterPoolLib for *;\n  using TokenUtils for *;\n  using ShifterBorrowProxyLib for *;\n  using ShifterBorrowProxyFactoryLib for *;\n  using BorrowProxyLib for *;\n  ShifterPoolLib.Isolate isolate;\n  constructor() Ownable() public {\n    isolate.genesis = block.number;\n  }\n  function setup(ShifterPoolLib.SetupParams memory params, BorrowProxyLib.ModuleDetails[] memory moduleDetails, BorrowProxyLib.Module[] memory modules, ShifterPoolLib.LiquidityTokenLaunch[] memory tokenLaunches) public onlyOwner {\n    require(modules.length == moduleDetails.length, \"can't zip module registations: modules.length != moduleDetails.length\");\n    isolate.shifterRegistry = params.shifterRegistry;\n    isolate.maxLoan = params.maxLoan;\n    isolate.minTimeout = params.minTimeout;\n    isolate.poolFee = params.poolFee;\n    for (uint256 i = 0; i < modules.length; i++) {\n      BorrowProxyLib.ModuleRegistration memory registration = BorrowProxyLib.ModuleRegistration({\n        module: modules[i],\n        target: moduleDetails[i].target,\n        sigs: moduleDetails[i].sigs,\n        moduleType: moduleDetails[i].moduleType\n      });\n      isolate.registry.registryRegisterModule(registration);\n    }\n    for (uint256 i = 0; i < tokenLaunches.length; i++) {\n      ShifterPoolLib.LiquidityTokenLaunch memory launch = tokenLaunches[i];\n      isolate.tokenToLiquidityToken[launch.token] = launch.liqToken;\n    }\n  }\n  function getLiquidityTokenForTokenHandler(address token) public view returns (address) {\n    return isolate.tokenToLiquidityToken[token];\n  }\n  bytes32 constant BORROW_PROXY_IMPLEMENTATION_SALT = 0xfe1e3164ba4910db3c9afd049cd8feb4552390569c846692e6df4ac68aeaa90e;\n  function deployBorrowProxyImplementation() public {\n    isolate.borrowProxyImplementation = isolate.makeBorrowProxy(BORROW_PROXY_IMPLEMENTATION_SALT);\n  }\n  function deployAssetForwarderImplementation() public {\n    isolate.assetForwarderImplementation = AssetForwarderLib.deployAssetForwarder();\n  }\n\n  function deployAssetForwarderClone(bytes32 salt) public returns (address created) {\n\n    created = FactoryLib.create2Clone(isolate.assetForwarderImplementation, uint256(keccak256(abi.encodePacked(AssetForwarderLib.GET_ASSET_FORWARDER_IMPLEMENTATION_SALT(), msg.sender, salt))));\n\n  }\n  function getAssetForwarderImplementationHandler() public view returns (address implementation) {\n    return isolate.assetForwarderImplementation;\n  }\n  function deployBorrowProxyClone(bytes32 salt) internal returns (address payable created) {\n    created = address(uint160(FactoryLib.create2Clone(isolate.borrowProxyImplementation, uint256(salt))));\n  }\n  function validateUnderMaxLoan(ShifterBorrowProxyLib.LiquidityRequestParcel memory parcel) internal view returns (bool) {\n    uint8 decimals = ERC20(parcel.request.token).decimals();\n    require(decimals <= 18, \"the token supplied is not a shifter token -- decimals too high\");\n    require(parcel.request.amount / 10**(18 - uint256(decimals)) <= isolate.maxLoan, \"loan exceeds maximum\");\n  }\n  function _executeBorrow(ShifterBorrowProxyLib.LiquidityRequestParcel memory liquidityRequestParcel, uint256 bond, uint256 timeoutExpiry) internal returns (address payable proxyAddress) {\n    require(liquidityRequestParcel.request.forbidLoan == false, \"is not a loan request, try using executeShiftSansBorrow\");\n    require(\n      liquidityRequestParcel.gasRequested == msg.value,\n      \"supplied ether is not equal to gas requested\"\n  \n    );\n    require(\n      liquidityRequestParcel.validateSignature(\n        liquidityRequestParcel.computeLiquidityRequestHash()\n      ),\n      \"liquidity request signature rejected\"\n    );\n    ShifterBorrowProxyLib.LiquidityRequest memory liquidityRequest = liquidityRequestParcel.request;\n    bytes32 borrowerSalt = liquidityRequest.computeBorrowerSalt();\n    liquidityRequest.actions = new ShifterBorrowProxyLib.InitializationAction[](0);\n    ShifterBorrowProxyLib.ProxyRecord memory proxyRecord = ShifterBorrowProxyLib.ProxyRecord({\n      request: liquidityRequest,\n      loan: ShifterBorrowProxyLib.LenderRecord(\n        msg.sender,\n        isolate.computeLoanParams(liquidityRequest.amount, bond, timeoutExpiry)\n      )\n    });\n    proxyAddress = address(uint160(deployBorrowProxyClone(borrowerSalt)));\n    ShifterPoolLib.mapBorrowProxy(isolate, proxyAddress, proxyRecord);\n    isolate.issueLoan(liquidityRequest.token, proxyAddress, proxyRecord.computePostFee());\n    require(liquidityRequest.token.transferTokenFrom(msg.sender, address(this), bond), \"bond submission failed\");\n  }\n  function executeBorrow(ShifterBorrowProxyLib.LiquidityRequestParcel memory liquidityRequestParcel, uint256 bond, uint256 timeoutExpiry) public payable {\n    ShifterBorrowProxyLib.InitializationAction[] memory actions = liquidityRequestParcel.request.actions;\n    validateUnderMaxLoan(liquidityRequestParcel);\n    address payable proxyAddress = _executeBorrow(liquidityRequestParcel, bond, timeoutExpiry);\n    proxyAddress.setupBorrowProxy(liquidityRequestParcel.request.borrower, liquidityRequestParcel.request.token, false);\n    proxyAddress.sendInitializationActions(actions);\n  }\n  function executeShiftSansBorrow(ShifterBorrowProxyLib.SansBorrowShiftParcel memory parcel) public payable {\n    (address payable proxyAddress, ShifterBorrowProxyLib.InitializationAction[] memory actions) = _executeShiftSansBorrow(parcel);\n    if (actions.length != 0) proxyAddress.sendInitializationActions(actions);\n  }\n  function _executeShiftSansBorrow(ShifterBorrowProxyLib.SansBorrowShiftParcel memory parcel) internal returns (address payable proxyAddress, ShifterBorrowProxyLib.InitializationAction[] memory actions) {\n    ShifterBorrowProxyLib.TriggerParcel memory triggerParcel = ShifterBorrowProxyLib.TriggerParcel({\n      record: ShifterBorrowProxyLib.ProxyRecord({\n        request: parcel.liquidityRequestParcel.request,\n        loan: ShifterBorrowProxyLib.LenderRecord({\n          keeper: msg.sender,\n          params: isolate.computeLoanParams(parcel.liquidityRequestParcel.request.amount, parcel.liquidityRequestParcel.request.amount / 10, 1000)\n        })\n      }),\n      shiftParameters: ShifterBorrowProxyLib.ShiftParameters({\n        txhash: parcel.shiftParameters.txhash,\n        vout: parcel.shiftParameters.vout,\n        pHash: parcel.shiftParameters.pHash,\n        darknodeSignature: parcel.shiftParameters.darknodeSignature\n      })\n    });\n    require(\n      parcel.liquidityRequestParcel.validateSignature(\n        parcel.liquidityRequestParcel.computeLiquidityRequestHash()\n      ),\n      \"liquidity request signature rejected\"\n    );\n    bytes32 borrowerSalt = parcel.liquidityRequestParcel.request.computeBorrowerSalt();\n    proxyAddress = address(uint160(isolate.borrowProxyImplementation.deriveBorrowerAddress(borrowerSalt)));\n    require(!isolate.borrowProxyController.isInitialized(proxyAddress), \"proxy has already been initialized\");\n    isolate.borrowProxyController.mapProxyRecord(proxyAddress, abi.encodePacked(uint256(1)));\n    isolate.getShifter(parcel.liquidityRequestParcel.request.token).mint(parcel.shiftParameters.pHash, parcel.liquidityRequestParcel.request.amount, triggerParcel.computeNHash(), parcel.shiftParameters.darknodeSignature);\n    uint256 fee = triggerParcel.record.computeAdjustedKeeperFee(parcel.liquidityRequestParcel.request.amount);\n    deployBorrowProxyClone(borrowerSalt);\n    proxyAddress.setupBorrowProxy(parcel.liquidityRequestParcel.request.borrower, parcel.liquidityRequestParcel.request.token, true);\n    if (parcel.liquidityRequestParcel.request.borrower != msg.sender && msg.value == parcel.liquidityRequestParcel.gasRequested) {\n      parcel.liquidityRequestParcel.request.borrower.transfer(msg.value);\n      require(parcel.liquidityRequestParcel.request.token.sendToken(msg.sender, fee), \"keeper payout failed\");\n      actions = parcel.liquidityRequestParcel.request.actions;\n    } else if (parcel.liquidityRequestParcel.request.borrower == msg.sender) actions = parcel.actions;\n    else revert(\"incorrect gas supplied with gas requested\");\n  }\n  function validateProxyRecordHandler(bytes memory proxyRecord) public view returns (bool) {\n    return isolate.borrowProxyController.validateProxyRecord(msg.sender, proxyRecord);\n  }\n  function getProxyTokenHandler(address proxyAddress) public view returns (address) {\n    return isolate.borrowProxyController.getProxyToken(proxyAddress);\n  }\n  function getProxyOwnerHandler(address user) public view returns (address) {\n    return isolate.borrowProxyController.getProxyOwner(user);\n  }\n  function getShifterHandler(address token) public view returns (IShifter) {\n    return isolate.getShifter(token);\n  }\n  function getLiquidityTokenHandler(address token) public view returns (LiquidityToken) {\n    return LiquidityToken(isolate.getLiquidityToken(token));\n  }\n  function fetchModuleHandler(address to, bytes4 sig) public view returns (BorrowProxyLib.Module memory) {\n    return isolate.registry.resolveModule(to, sig);\n  }\n  function relayResolveLoan(address token, address liquidityToken, address keeper, uint256 bond, uint256 repay) public returns (bool) {\n    require(isolate.borrowProxyController.proxyInitializerRecord[msg.sender] != bytes32(0x0), \"not a registered borrow proxy\");\n    if (bond != 0) require(token.sendToken(keeper, bond), \"failed to return bond to keeper\");\n    if (repay != 0) require(token.sendToken(liquidityToken, repay), \"failed to repay lost funds\");\n    require(LiquidityToken(liquidityToken).resolveLoan(msg.sender), \"loan resolution failure\");\n    return true;\n  }\n}\n",
  "sourcePath": "/home/ray/0confirmation/packages/0confirmation-sol/contracts/ShifterPool.sol",
  "compiler": {
    "name": "solc",
    "version": "0.6.8+commit.0bbfe453.Emscripten.clang"
  },
  "schemaVersion": "3.2.0",
  "updatedAt": "2020-05-29T16:17:28.359Z",
  "devdoc": {
    "methods": {
      "owner()": {
        "details": "Returns the address of the current owner."
      },
      "renounceOwnership()": {
        "details": "Leaves the contract without owner. It will not be possible to call `onlyOwner` functions anymore. Can only be called by the current owner.     * NOTE: Renouncing ownership will leave the contract without an owner, thereby removing any functionality that is only available to the owner."
      },
      "transferOwnership(address)": {
        "details": "Transfers ownership of the contract to a new account (`newOwner`). Can only be called by the current owner."
      }
    }
  },
  "userdoc": {
    "methods": {}
  }
}