{
  "contractName": "ShifterBorrowProxy",
  "abi": [
    {
      "inputs": [],
      "stateMutability": "nonpayable",
      "type": "constructor"
    },
    {
      "stateMutability": "payable",
      "type": "fallback"
    },
    {
      "inputs": [
        {
          "internalType": "address",
          "name": "delegateTo",
          "type": "address"
        },
        {
          "internalType": "bytes",
          "name": "callData",
          "type": "bytes"
        }
      ],
      "name": "_executeQuery",
      "outputs": [
        {
          "internalType": "bytes",
          "name": "",
          "type": "bytes"
        }
      ],
      "stateMutability": "nonpayable",
      "type": "function"
    },
    {
      "inputs": [
        {
          "internalType": "address",
          "name": "to",
          "type": "address"
        },
        {
          "internalType": "uint256",
          "name": "value",
          "type": "uint256"
        },
        {
          "internalType": "bytes",
          "name": "payload",
          "type": "bytes"
        }
      ],
      "name": "proxy",
      "outputs": [],
      "stateMutability": "nonpayable",
      "type": "function"
    },
    {
      "inputs": [
        {
          "internalType": "address",
          "name": "viewLogic",
          "type": "address"
        },
        {
          "internalType": "bytes",
          "name": "payload",
          "type": "bytes"
        }
      ],
      "name": "query",
      "outputs": [
        {
          "internalType": "bytes",
          "name": "",
          "type": "bytes"
        }
      ],
      "stateMutability": "view",
      "type": "function"
    },
    {
      "inputs": [
        {
          "internalType": "address",
          "name": "owner",
          "type": "address"
        }
      ],
      "name": "setup",
      "outputs": [
        {
          "internalType": "bool",
          "name": "",
          "type": "bool"
        }
      ],
      "stateMutability": "nonpayable",
      "type": "function"
    },
    {
      "stateMutability": "payable",
      "type": "receive"
    },
    {
      "inputs": [
        {
          "internalType": "bytes",
          "name": "data",
          "type": "bytes"
        }
      ],
      "name": "repayLoan",
      "outputs": [
        {
          "internalType": "bool",
          "name": "",
          "type": "bool"
        }
      ],
      "stateMutability": "nonpayable",
      "type": "function"
    },
    {
      "inputs": [
        {
          "internalType": "bytes",
          "name": "data",
          "type": "bytes"
        }
      ],
      "name": "defaultLoan",
      "outputs": [
        {
          "internalType": "bool",
          "name": "",
          "type": "bool"
        }
      ],
      "stateMutability": "nonpayable",
      "type": "function"
    }
  ],
  "bytecode": "0x608060405234801561001057600080fd5b50612092806100206000396000f3fe6080604052600436106100595760003560e01c806323e3b730146100625780632692f25a1461009857806356b8e146146100b857806366d38203146100e5578063c4ddf36314610105578063fd00430c1461012557610060565b3661006057005b005b34801561006e57600080fd5b5061008261007d36600461178f565b610145565b60405161008f9190611c22565b60405180910390f35b3480156100a457600080fd5b506100606100b33660046117dd565b6101e4565b3480156100c457600080fd5b506100d86100d3366004611854565b610431565b60405161008f9190611be8565b3480156100f157600080fd5b506100d8610100366004611773565b6107f0565b34801561011157600080fd5b506100d8610120366004611854565b61084d565b34801561013157600080fd5b5061008261014036600461178f565b610d03565b606033301461016f5760405162461bcd60e51b815260040161016690611cf5565b60405180910390fd5b60006060846001600160a01b03168460405161018b9190611aef565b600060405180830381855af49150503d80600081146101c6576040519150601f19603f3d011682016040523d82523d6000602084013e6101cb565b606091505b5091509150816101da57600080fd5b9150505b92915050565b6001546001600160a01b031633148061020757506000546001600160a01b031633145b6102235760405162461bcd60e51b815260040161016690611d94565b600054600160a01b900460ff16156102c85760006060846001600160a01b031684846040516102529190611aef565b60006040518083038185875af1925050503d806000811461028f576040519150601f19603f3d011682016040523d82523d6000602084013e610294565b606091505b5091509150816102c0576102a781610dc9565b60405162461bcd60e51b81526004016101669190611c22565b805160208201f35b60006102e46102df8383600463ffffffff610ecf16565b610eec565b60e01b90506102f16114b5565b604051632f1a48af60e01b815273__BorrowProxyLib________________________90632f1a48af9061032d9060009089908790600401611f46565b60806040518083038186803b15801561034557600080fd5b505af4158015610359573d6000803e3d6000fd5b505050506040513d601f19601f8201168201806040525061037d91908101906118d6565b905061038c8160200151610f0e565b6103a85760405162461bcd60e51b815260040161016690611cbe565b600060606103bd83868863ffffffff610f1d16565b91509150816103cf576102a781610dc9565b60208084015101516001600160a01b0316156103ff5760208084015101516103ff9060069063ffffffff610fdb16565b6020830151604001516001600160a01b0316156102c0576020830151604001516102c09060089063ffffffff610fdb16565b60055460009060ff16156104575760405162461bcd60e51b815260040161016690611c93565b600054600160a01b900460ff16156104815760405162461bcd60e51b815260040161016690611ddd565b61048a82611035565b6104a65760405162461bcd60e51b815260040161016690611d66565b6104ae6114dd565b828060200190516104c29190810190611961565b600780546040805160208084028201810190925282815293945060609392919083018282801561051b57602002820191906000526020600020905b81546001600160a01b031681526001909101906020018083116104fd575b505050505090504382602001516020015160000151106107e4576005805461ff0019166101001790556003545b81518110156105a0576207a1205a1080610584575061058282828151811061056c57fe5b60200260200101516001600160a01b03166110b8565b155b156105985760035550600091506107eb9050565b600101610548565b508051600355600080548351602001516040516370a0823160e01b81526001600160a01b039283169392909116906370a08231906105e2903090600401611b0b565b60206040518083038186803b1580156105fa57600080fd5b505afa15801561060e573d6000803e3d6000fd5b505050506040513d601f19601f820116820180604052506106329190810190611a1f565b845160200151909150610655906001600160a01b0316838363ffffffff61119116565b6106715760405162461bcd60e51b815260040161016690611efc565b60208085015181015101518451606001518210156106ab5784516060015182038111156106a757845160600151820390036106ab565b5060005b8451602001516040516303cc556d60e51b8152828403916001600160a01b0386169163801874ec9190839063798aada0906106ea908490600401611b0b565b60206040518083038186803b15801561070257600080fd5b505afa158015610716573d6000803e3d6000fd5b505050506040513d601f19601f8201168201806040525061073a9190810190611887565b60208a0151516040516001600160e01b031960e086901b1681526107679392919088908890600401611b77565b602060405180830381600087803b15801561078157600080fd5b505af1158015610795573d6000803e3d6000fd5b505050506040513d601f19601f820116820180604052506107b99190810190611834565b6107d55760405162461bcd60e51b815260040161016690611ec5565b600196505050505050506107eb565b6000925050505b919050565b6001546000906001600160a01b03161561081c5760405162461bcd60e51b815260040161016690611c35565b50600080546001600160a01b03199081163317909155600180546001600160a01b0384169216919091178155919050565b60006108576114fd565b8280602001905161086b919081019061197d565b905061089981600001516040516020016108859190611f6f565b604051602081830303815290604052611035565b6108b55760405162461bcd60e51b815260040161016690611d66565b600554610100900460ff16156108dd5760405162461bcd60e51b815260040161016690611e8e565b80518051606001516000916108f79163ffffffff61123416565b60008054845151602001516040516303cc556d60e51b815293945091926001600160a01b039091169163798aada0916109339190600401611b0b565b60206040518083038186803b15801561094b57600080fd5b505afa15801561095f573d6000803e3d6000fd5b505050506040513d601f19601f820116820180604052506109839190810190611887565b60055490915060009060ff16610b10576005805460ff19166001179055600054845151602001516040516307ef1e3760e21b81526001600160a01b0390921691631fbc78dc916109d591600401611b0b565b60206040518083038186803b1580156109ed57600080fd5b505afa158015610a01573d6000803e3d6000fd5b505050506040513d601f19601f82011682018060405250610a259190810190611887565b6001600160a01b031663bb4a1d8c856060015186600001516000015160600151610a4e88611274565b88608001516040518563ffffffff1660e01b8152600401610a729493929190611bf3565b602060405180830381600087803b158015610a8c57600080fd5b505af1158015610aa0573d6000803e3d6000fd5b505050506040513d601f19601f82011682018060405250610ac49190810190611a1f565b600281905584515160200151909150610aef906001600160a01b03168385840363ffffffff61119116565b610b0b5760405162461bcd60e51b815260040161016690611d37565b610b15565b506002545b600980546040805160208084028201810190925282815260609390929091830182828015610b6c57602002820191906000526020600020905b81546001600160a01b03168152600190910190602001808311610b4e575b50506004549394505050505b8151811015610bd3576207a1205a1080610bb45750610bb2828281518110610b9c57fe5b60200260200101516001600160a01b03166112b6565b155b15610bcb5760045550600094506107eb9350505050565b600101610b78565b506000805460ff60a01b1916600160a01b17905584516020808201515191510151610c10916001600160a01b03909116908663ffffffff61119116565b610c2c5760405162461bcd60e51b815260040161016690611c65565b600080548651805160209081015191810151805190820151909101516040516320061d3b60e21b81526001600160a01b039094169463801874ec94610c7a94938a9390929091600401611b77565b602060405180830381600087803b158015610c9457600080fd5b505af1158015610ca8573d6000803e3d6000fd5b505050506040513d601f19601f82011682018060405250610ccc9190810190611834565b610ce85760405162461bcd60e51b815260040161016690611e4b565b8451805151610cf69161130b565b5060019695505050505050565b606060006060846001600160a01b03168585604051602401610d26929190611bab565b60408051601f198184030181529181526020820180516001600160e01b031663023e3b7360e41b17905251610d5b9190611aef565b600060405180830381855afa9150503d8060008114610d96576040519150601f19603f3d011682016040523d82523d6000602084013e610d9b565b606091505b5091509150818190610dc05760405162461bcd60e51b81526004016101669190611c22565b50949350505050565b6060815160001415610e0f575060408051808201909152601c81527f636170747572656420656d70747920726576657274206275666665720000000060208201526107eb565b6308c379a0610e246102df8460006004610ecf565b63ffffffff1614610e4f576040518060600160405280603f815260200161201e603f913990506107eb565b6060610e6a610e6584600463ffffffff61135016565b611374565b9050805160001415610eb157505060408051808201909152601d81527f636170747572656420656d70747920726576657274206d65737361676500000060208201526107eb565b606081806020019051610ec791908101906118a3565b949350505050565b610ed7611534565b92820160209081018452830152604082015290565b805160209182015191829003900351600160089092029190911b600019011690565b516001600160a01b0316151590565b60006060600060608660200151600001516001600160a01b03165a8860200151600001518960200151602001518a6020015160400151328c600001518b8d604051602001610f719796959493929190611b1f565b60408051601f1981840301815290829052610f8b91611aef565b6000604051808303818686f4925050503d8060008114610fc7576040519150601f19603f3d011682016040523d82523d6000602084013e610fcc565b606091505b50909890975095505050505050565b6001600160a01b03811660009081526020839052604090205460ff161561100157611031565b6001828101805491820181556000908152602090200180546001600160a01b0319166001600160a01b0383161790555b5050565b600080546040516308f6049560e01b81526001600160a01b03909116906308f6049590611066908590600401611c22565b602060405180830381600087803b15801561108057600080fd5b505af1158015611094573d6000803e3d6000fd5b505050506040513d601f19601f820116820180604052506101de9190810190611834565b6000806060836001600160a01b0316846040516024016110d89190611b0b565b60408051601f198184030181529181526020820180516001600160e01b03166305f0caad60e31b1790525161110d9190611aef565b600060405180830381855af49150503d8060008114611148576040519150601f19603f3d011682016040523d82523d6000602084013e61114d565b606091505b50915091508051602014611166576000925050506107eb565b60008180602001905161117c9190810190611834565b90508280156111885750805b95945050505050565b600080846001600160a01b031684846040516024016111b1929190611bcf565b60408051601f198184030181529181526020820180516001600160e01b031663a9059cbb60e01b179052516111e69190611aef565b6000604051808303816000865af19150503d8060008114611223576040519150601f19603f3d011682016040523d82523d6000602084013e611228565b606091505b50909695505050505050565b600061126d670de0b6b3a764000061126185602001516020015160600151856113c490919063ffffffff16565b9063ffffffff6113fe16565b9392505050565b8051516040908101516020808401518385015193516000946112999493909101611ad9565b604051602081830303815290604052805190602001209050919050565b6000806060836001600160a01b0316846040516024016112d69190611b0b565b60408051601f198184030181529181526020820180516001600160e01b0316639f7c73e960e01b1790525161110d9190611aef565b816001600160a01b03167f8118f0dfd16240978600a1121acd44dd113e1071790496f111043c87672720bf826040516113449190611f6f565b60405180910390a25050565b611358611534565b818351101561136657825191505b61126d838384865103610ecf565b60208082015160408051828152601f19601f840116810190930190526060918180156113a7576020820181803883390190505b508351909250602083016113bc818385611440565b505050919050565b6000826113d3575060006101de565b828202828482816113e057fe5b041461126d5760405162461bcd60e51b815260040161016690611e0a565b600061126d83836040518060400160405280601a81526020017f536166654d6174683a206469766973696f6e206279207a65726f00000000000081525061147e565b5b60208110611460578151835260209283019290910190601f1901611441565b600180600883602003021b0380845116811984511617845250505050565b6000818361149f5760405162461bcd60e51b81526004016101669190611c22565b5060008385816114ab57fe5b0495945050505050565b604051806040016040528060006001600160a01b031681526020016114d8611555565b905290565b60405180604001604052806114f0611575565b81526020016114d861159c565b6040518060a001604052806115106114dd565b81526000602082018190526040820181905260608083019190915260809091015290565b60405180606001604052806000815260200160008152602001600081525090565b604080516060810182526000808252602082018190529181019190915290565b60408051608081018252600080825260208201819052918101829052606081019190915290565b604051806040016040528060006001600160a01b031681526020016114d86040518060800160405280600081526020016000815260200160008152602001600081525090565b600082601f8301126115f2578081fd5b815161160561160082611fa5565b611f7e565b915080825283602082850101111561161c57600080fd5b61162d816020840160208601611fd5565b5092915050565b600082601f830112611644578081fd5b813561165261160082611fa5565b915080825283602082850101111561166957600080fd5b8060208401602084013760009082016020015292915050565b6000818303610120811215611695578182fd5b61169f6040611f7e565b915060808112156116af57600080fd5b6116b96080611f7e565b83516116c481612005565b815260208401516116d481612005565b60208201526040848101519082015260608085015190820152825260a0607f198201121561170157600080fd5b61170b6040611f7e565b608084015161171981612005565b81526080609f198301121561172d57600080fd5b6117376080611f7e565b915060a0840151825260c0840151602083015260e084015160408301526101008401516060830152816020820152806020840152505092915050565b600060208284031215611784578081fd5b813561126d81612005565b600080604083850312156117a1578081fd5b82356117ac81612005565b9150602083013567ffffffffffffffff8111156117c7578182fd5b6117d385828601611634565b9150509250929050565b6000806000606084860312156117f1578081fd5b83356117fc81612005565b925060208401359150604084013567ffffffffffffffff81111561181e578182fd5b61182a86828701611634565b9150509250925092565b600060208284031215611845578081fd5b8151801515811461126d578182fd5b600060208284031215611865578081fd5b813567ffffffffffffffff81111561187b578182fd5b610ec784828501611634565b600060208284031215611898578081fd5b815161126d81612005565b6000602082840312156118b4578081fd5b815167ffffffffffffffff8111156118ca578182fd5b610ec7848285016115e2565b600081830360808112156118e8578182fd5b6118f26040611f7e565b83516118fd81612005565b81526060601f1983011215611910578283fd5b61191a6060611f7e565b9150602084015161192a81612005565b8252604084015161193a81612005565b6020830152606084015161194d81612005565b604083015260208101919091529392505050565b60006101208284031215611973578081fd5b61126d8383611682565b60006020828403121561198e578081fd5b815167ffffffffffffffff808211156119a5578283fd5b8184016101a081870312156119b8578384fd5b6119c260a0611f7e565b92506119ce8682611682565b835261012081015160208401526101408101516040840152610160810151606084015261018081015182811115611a03578485fd5b611a0f878284016115e2565b6080850152509195945050505050565b600060208284031215611a30578081fd5b5051919050565b60008151808452611a4f816020860160208601611fd5565b601f01601f19169290920160200192915050565b805160018060a01b03808251168452806020830151166020850152506040810151604084015260608101516060840152506020810151611aa38151611fc9565b60808401526020810151805160a0850152602081015160c0850152604081015160e0850152606081015161010085015250505050565b9283526020830191909152604082015260600190565b60008251611b01818460208701611fd5565b9190910192915050565b6001600160a01b0391909116815260200190565b6001600160a01b0388811682528781166020830152868116604083015285811660608301528416608082015260a0810183905260e060c08201819052600090611b6a90830184611a37565b9998505050505050505050565b6001600160a01b03958616815293851660208501529190931660408301526060820192909252608081019190915260a00190565b6001600160a01b0383168152604060208201819052600090610ec790830184611a37565b6001600160a01b03929092168252602082015260400190565b901515815260200190565b600085825284602083015283604083015260806060830152611c186080830184611a37565b9695505050505050565b60006020825261126d6020830184611a37565b60208082526016908201527563616e277420696e697469616c697a6520747769636560501b604082015260600190565b6020808252601490820152731ad9595c195c881c185e5bdd5d0819985a5b195960621b604082015260600190565b6020808252601190820152701b1bd85b8818995a5b99c81c995c185a59607a1b604082015260600190565b6020808252601f908201527f66756e6374696f6e2068616e646c6572206e6f74207265676973746572656400604082015260600190565b60208082526022908201527f756e617574686f72697a65642076696577206c617965722064656c656761746960408201526137b760f11b606082015260800190565b6020808252601590820152741d1bdad95b881d1c985b9cd9995c8819985a5b1959605a1b604082015260600190565b6020808252601490820152731c1c9bde1e481c9958dbdc99081a5b9d985b1a5960621b604082015260600190565b60208082526029908201527f626f72726f772070726f78792063616e206f6e6c792062652075736564206279604082015268103137b93937bbb2b960b91b606082015260800190565b6020808252601390820152721b1bd85b88185b1c9958591e481c995c185a59606a1b604082015260600190565b60208082526021908201527f536166654d6174683a206d756c7469706c69636174696f6e206f766572666c6f6040820152607760f81b606082015260800190565b60208082526023908201527f6c6f616e207265736f6c7574696f6e206e6f74696669636174696f6e206661696040820152621b195960ea1b606082015260800190565b60208082526019908201527f70726f7879206973206265696e67206c69717569646174656400000000000000604082015260600190565b60208082526017908201527f6c6f616e207265736f6c7574696f6e206661696c757265000000000000000000604082015260600190565b6020808252602a908201527f6661696c656420746f207472616e73666572207265636c61696d65642066756e604082015269191cc81d1bc81c1bdbdb60b21b606082015260800190565b9283526001600160a01b039190911660208301526001600160e01b031916604082015260600190565b61012081016101de8284611a63565b60405181810167ffffffffffffffff81118282101715611f9d57600080fd5b604052919050565b600067ffffffffffffffff821115611fbb578081fd5b50601f01601f191660200190565b6001600160a01b031690565b60005b83811015611ff0578181015183820152602001611fd8565b83811115611fff576000848401525b50505050565b6001600160a01b038116811461201a57600080fd5b5056fe6361707475726564206120726576657274206572726f722c2062757420697420646f65736e277420636f6e666f726d20746f20746865207374616e64617264a2646970667358221220bbe1b80d7db7bac2b014074b4228d919db71eb7f0a16c720473641429d28c15d64736f6c63430006020033",
  "source": "pragma solidity ^0.6.0;\npragma experimental ABIEncoderV2;\n\nimport { BorrowProxy } from \"./BorrowProxy.sol\";\nimport { ShifterPool } from \"./ShifterPool.sol\";\nimport { ShifterBorrowProxyLib } from \"./ShifterBorrowProxyLib.sol\";\nimport { ILiquidationModule } from \"./interfaces/ILiquidationModule.sol\";\nimport { TokenUtils } from \"./utils/TokenUtils.sol\";\nimport { LiquidityToken } from \"./LiquidityToken.sol\";\nimport { IERC20 } from \"openzeppelin-solidity/contracts/token/ERC20/IERC20.sol\";\n\ncontract ShifterBorrowProxy is BorrowProxy {\n  using ShifterBorrowProxyLib for *;\n  using TokenUtils for *;\n  constructor() BorrowProxy() public {}\n  uint256 constant MINIMUM_GAS_CONTINUE = 5e5;\n  function repayLoan(bytes memory data) public returns (bool) {\n    (ShifterBorrowProxyLib.TriggerParcel memory parcel) = abi.decode(data, (ShifterBorrowProxyLib.TriggerParcel));\n    require(validateProxyRecord(abi.encode(parcel.record)), \"proxy record invalid\");\n    require(!isolate.isLiquidating, \"proxy is being liquidated\");\n    uint256 fee = parcel.record.computeAdjustedKeeperFee(parcel.record.request.amount);\n    LiquidityToken liquidityToken = ShifterPool(isolate.masterAddress).getLiquidityTokenHandler(parcel.record.request.token);\n    uint256 amount;\n    if (!isolate.isRepaying) {\n      isolate.isRepaying = true;\n      isolate.actualizedShift = amount = ShifterPool(isolate.masterAddress).getShifterHandler(parcel.record.request.token).shiftIn(parcel.pHash, parcel.record.request.amount, parcel.computeNHash(), parcel.darknodeSignature);\n      require(parcel.record.request.token.sendToken(address(liquidityToken), amount - fee), \"token transfer failed\");\n    } else amount = isolate.actualizedShift;\n    address[] memory set = isolate.repaymentSet.set;\n    for (uint256 i = isolate.repaymentIndex; i < set.length; i++) {\n      if (gasleft() < MINIMUM_GAS_CONTINUE || !set[i].delegateRepay()) {\n        isolate.repaymentIndex = i;\n        return false;\n      }\n    }\n    isolate.unbound = true;\n    require(parcel.record.request.token.sendToken(parcel.record.loan.keeper, fee), \"keeper payout failed\");\n    require(ShifterPool(isolate.masterAddress).relayResolveLoan(parcel.record.request.token, address(liquidityToken), parcel.record.loan.keeper, parcel.record.loan.params.bond, 0), \"loan resolution notification failed\");\n    ShifterBorrowProxyLib.emitShifterBorrowProxyRepaid(parcel.record.request.borrower, parcel.record);\n    return true;\n  }\n  function defaultLoan(bytes memory data) public returns (bool) {\n    require(!isolate.isRepaying, \"loan being repaid\");\n    require(!isolate.unbound, \"loan already repaid\");\n    require(validateProxyRecord(data), \"proxy record invalid\");\n    (ShifterBorrowProxyLib.ProxyRecord memory record) = abi.decode(data, (ShifterBorrowProxyLib.ProxyRecord));\n    address[] memory set = isolate.liquidationSet.set;\n    if (record.loan.params.timeoutExpiry >= block.number) {\n      isolate.isLiquidating = true;\n      for (uint256 i = isolate.liquidationIndex; i < set.length; i++) {\n        if (gasleft() < MINIMUM_GAS_CONTINUE || !set[i].delegateLiquidate()) {\n          isolate.liquidationIndex = i;\n          return false;\n        }\n      }\n      isolate.liquidationIndex = set.length;\n      ShifterPool pool = ShifterPool(isolate.masterAddress);\n      uint256 postBalance = IERC20(record.request.token).balanceOf(address(this));\n      require(record.request.token.sendToken(address(pool), postBalance), \"failed to transfer reclaimed funds to pool\");\n      uint256 bond = record.loan.params.bond;\n      if (postBalance < record.request.amount) {\n        if (bond > postBalance - record.request.amount) {\n          bond -= (postBalance - record.request.amount);\n        } else {\n          bond = 0;\n        }\n      }\n      uint256 repay = postBalance - bond;\n      require(pool.relayResolveLoan(record.request.token, address(pool.getLiquidityTokenHandler(record.request.token)), record.loan.keeper, bond, repay), \"loan resolution failure\");\n      return true;\n    }\n    return false;\n  }\n  fallback() external payable override {}\n  receive() external payable override {}\n}\n",
  "sourcePath": "/home/ray/0confirmation/packages/0confirmation-sol/contracts/ShifterBorrowProxy.sol",
  "compiler": {
    "name": "solc",
    "version": "0.6.2+commit.bacdbe57.Emscripten.clang"
  },
  "schemaVersion": "3.0.23",
  "updatedAt": "2020-04-05T23:24:01.643Z",
  "devdoc": {
    "methods": {}
  },
  "userdoc": {
    "methods": {}
  }
}