{
  "contractName": "SimpleBurnLiquidationModuleLib",
  "abi": [
    {
      "inputs": [],
      "name": "computeIsolatePointer",
      "outputs": [
        {
          "internalType": "uint256",
          "name": "",
          "type": "uint256"
        }
      ],
      "stateMutability": "pure",
      "type": "function"
    }
  ],
  "bytecode": "0x60dd610025600b82828239805160001a60731461001857fe5b30600052607381538281f3fe730000000000000000000000000000000000000000301460806040526004361060335760003560e01c8063d7885a06146038575b600080fd5b603e6052565b60405160499190609e565b60405180910390f35b6000604051602001606190607f565b6040516020818303038152906040528051906020012060001c905090565b7234b9b7b630ba329739b4b6b8363296b13ab93760691b815260130190565b9081526020019056fea2646970667358221220ce7c920e9d86ee9489af775e2181d10d519272726c28620134c281de8ad30f7664736f6c63430006080033",
  "immutableReferences": {},
  "source": "pragma solidity ^0.6.0;\npragma experimental ABIEncoderV2;\n\nimport { AddressSetLib } from \"../../utils/AddressSetLib.sol\";\nimport { BorrowProxyLib } from \"../../BorrowProxyLib.sol\";\nimport { IERC20 } from \"openzeppelin-solidity/contracts/token/ERC20/IERC20.sol\";\nimport { TokenUtils } from \"../../utils/TokenUtils.sol\";\nimport { ModuleLib } from \"../lib/ModuleLib.sol\";\nimport { SimpleBurnLiquidationModule } from \"./SimpleBurnLiquidationModule.sol\";\n\nlibrary SimpleBurnLiquidationModuleLib {\n  struct Isolate {\n    address routerAddress;\n    address erc20Module;\n    uint256 liquidated;\n    AddressSetLib.AddressSet toLiquidate;\n  }\n  struct ExternalIsolate {\n    address routerAddress;\n    address erc20Module;\n  }\n  function computeIsolatePointer() public pure returns (uint256) {\n    return uint256(keccak256(abi.encodePacked(\"isolate.simple-burn\")));\n  }\n  function getCastStorageType() internal pure returns (function (uint256) internal pure returns (Isolate storage) swap) {\n    function (uint256) internal returns (uint256) cast = ModuleLib.cast;\n    assembly {\n      swap := cast\n    }\n  }\n  function toIsolatePointer(uint256 key) internal pure returns (Isolate storage) {\n    return getCastStorageType()(key);\n  }\n  function getIsolatePointer() internal pure returns (Isolate storage) {\n    return toIsolatePointer(computeIsolatePointer());\n  }\n}\n",
  "sourcePath": "/home/ray/0confirmation/packages/0confirmation-sol/contracts/adapters/liquidity/SimpleBurnLiquidationModuleLib.sol",
  "compiler": {
    "name": "solc",
    "version": "0.6.8+commit.0bbfe453.Emscripten.clang"
  },
  "schemaVersion": "3.2.0",
  "updatedAt": "2020-05-24T16:14:30.606Z",
  "devdoc": {
    "methods": {}
  },
  "userdoc": {
    "methods": {}
  }
}