{
  "contractName": "SimpleBurnLiquidationModuleLib",
  "abi": [
    {
      "inputs": [
        {
          "internalType": "address",
          "name": "instance",
          "type": "address"
        }
      ],
      "name": "computeIsolatePointer",
      "outputs": [
        {
          "internalType": "uint256",
          "name": "",
          "type": "uint256"
        }
      ],
      "stateMutability": "pure",
      "type": "function"
    }
  ],
  "bytecode": "0x610247610026600b82828239805160001a60731461001957fe5b30600052607381538281f3fe73000000000000000000000000000000000000000030146080604052600436106100355760003560e01c80638cb6e1911461003a575b600080fd5b610054600480360361004f91908101906100b2565b61006a565b6040516100619190610167565b60405180910390f35b60008160405160200161007d9190610141565b6040516020818303038152906040528051906020012060001c9050919050565b6000813590506100ac816101fa565b92915050565b6000602082840312156100c457600080fd5b60006100d28482850161009d565b91505092915050565b6100ec6100e78261018d565b6101c9565b82525050565b60006100ff601383610182565b91507f69736f6c6174652e73696d706c652d6275726e000000000000000000000000006000830152601382019050919050565b61013b816101bf565b82525050565b600061014c826100f2565b915061015882846100db565b60148201915081905092915050565b600060208201905061017c6000830184610132565b92915050565b600081905092915050565b60006101988261019f565b9050919050565b600073ffffffffffffffffffffffffffffffffffffffff82169050919050565b6000819050919050565b60006101d4826101db565b9050919050565b60006101e6826101ed565b9050919050565b60008160601b9050919050565b6102038161018d565b811461020e57600080fd5b5056fea2646970667358221220a26958251b8ab009fd831a40d76b7e967a10ae02a71d211522e8cd1aa8dd405064736f6c63430006030033",
  "source": "pragma solidity ^0.6.2;\npragma experimental ABIEncoderV2;\n\nimport { AddressSetLib } from \"../../utils/AddressSetLib.sol\";\nimport { BorrowProxyLib } from \"../../BorrowProxyLib.sol\";\nimport { IUniswapExchange } from \"../../interfaces/IUniswapExchange.sol\";\nimport { IUniswapFactory } from \"../../interfaces/IUniswapFactory.sol\";\nimport { IERC20 } from \"openzeppelin-solidity/contracts/token/ERC20/IERC20.sol\";\nimport { TokenUtils } from \"../../utils/TokenUtils.sol\";\nimport { SimpleBurnLiquidationModule } from \"./SimpleBurnLiquidationModule.sol\";\n\nlibrary SimpleBurnLiquidationModuleLib {\n  struct Isolate {\n    address factoryAddress;\n    address liquidateTo;\n    uint256 liquidated;\n    AddressSetLib.AddressSet toLiquidate;\n  }\n  struct ExternalIsolate {\n    address factoryAddress;\n    address liquidateTo;\n  }\n  function computeIsolatePointer(address instance) public pure returns (uint256) {\n    return uint256(keccak256(abi.encodePacked(\"isolate.simple-burn\", instance)));\n  }\n  function cast(uint256 v) internal pure returns (uint256) {\n    return v;\n  }\n  function toIsolatePointer(uint256 key) internal returns (Isolate storage) {\n    function (uint256) internal returns (Isolate storage) swap;\n    function (uint256) internal returns (uint256) real = cast;\n    assembly {\n      swap := real\n    }\n    return swap(key);\n  }\n  function getIsolatePointer(address moduleAddress) internal returns (Isolate storage) {\n    return toIsolatePointer(computeIsolatePointer(moduleAddress));\n  }\n  function getExternalIsolate(address moduleAddress) internal returns (ExternalIsolate memory) {\n    return SimpleBurnLiquidationModule(moduleAddress).getExternalIsolateHandler();\n  }\n}\n",
  "sourcePath": "/home/ray/0confirmation/packages/0confirmation-sol/contracts/adapters/liquidity/SimpleBurnLiquidationModuleLib.sol",
  "compiler": {
    "name": "solc",
    "version": "0.6.3+commit.8dda9521.Emscripten.clang"
  },
  "schemaVersion": "3.0.23",
  "updatedAt": "2020-04-02T22:57:31.450Z",
  "devdoc": {
    "methods": {}
  },
  "userdoc": {
    "methods": {}
  }
}