{
  "contractName": "SimpleBurnLiquidationModule",
  "abi": [
    {
      "inputs": [
        {
          "internalType": "address",
          "name": "factoryAddress",
          "type": "address"
        },
        {
          "internalType": "address",
          "name": "liquidateTo",
          "type": "address"
        }
      ],
      "stateMutability": "nonpayable",
      "type": "constructor"
    },
    {
      "inputs": [
        {
          "internalType": "address",
          "name": "moduleAddress",
          "type": "address"
        },
        {
          "internalType": "bytes",
          "name": "payload",
          "type": "bytes"
        }
      ],
      "name": "notify",
      "outputs": [
        {
          "internalType": "bool",
          "name": "",
          "type": "bool"
        }
      ],
      "stateMutability": "nonpayable",
      "type": "function"
    },
    {
      "inputs": [
        {
          "internalType": "address",
          "name": "moduleAddress",
          "type": "address"
        }
      ],
      "name": "liquidate",
      "outputs": [
        {
          "internalType": "bool",
          "name": "",
          "type": "bool"
        }
      ],
      "stateMutability": "nonpayable",
      "type": "function"
    },
    {
      "inputs": [
        {
          "internalType": "address",
          "name": "instance",
          "type": "address"
        }
      ],
      "name": "computeIsolatePointer",
      "outputs": [
        {
          "internalType": "uint256",
          "name": "",
          "type": "uint256"
        }
      ],
      "stateMutability": "pure",
      "type": "function",
      "constant": true
    },
    {
      "inputs": [],
      "name": "getExternalIsolateHandler",
      "outputs": [
        {
          "components": [
            {
              "internalType": "address",
              "name": "factoryAddress",
              "type": "address"
            },
            {
              "internalType": "address",
              "name": "liquidateTo",
              "type": "address"
            }
          ],
          "internalType": "struct SimpleBurnLiquidationModule.ExternalIsolate",
          "name": "",
          "type": "tuple"
        }
      ],
      "stateMutability": "nonpayable",
      "type": "function"
    }
  ],
  "bytecode": "0x60806040523480156200001157600080fd5b50604051620014b8380380620014b883398181016040526200003791908101906200019c565b60006200004a30620000db60201b60201c565b9050828160000160006101000a81548173ffffffffffffffffffffffffffffffffffffffff021916908373ffffffffffffffffffffffffffffffffffffffff160217905550818160010160006101000a81548173ffffffffffffffffffffffffffffffffffffffff021916908373ffffffffffffffffffffffffffffffffffffffff160217905550505050620002f2565b6000620000fe620000f2836200010560201b60201c565b6200013a60201b60201c565b9050919050565b6000816040516020016200011a91906200023a565b6040516020818303038152906040528051906020012060001c9050919050565b60006200018360201b62000a63176200018360201b62000a63176200017960201b62000a1317905080915062000170848360201c565b92505050919050565b6000819050919050565bfe5b6000815190506200019681620002d8565b92915050565b60008060408385031215620001b057600080fd5b6000620001c08582860162000185565b9250506020620001d38582860162000185565b9150509250929050565b620001f2620001ec826200026f565b620002a3565b82525050565b60006200020760138362000264565b91507f69736f6c6174652e73696d706c652d6275726e000000000000000000000000006000830152601382019050919050565b60006200024782620001f8565b9150620002558284620001dd565b60148201915081905092915050565b600081905092915050565b60006200027c8262000283565b9050919050565b600073ffffffffffffffffffffffffffffffffffffffff82169050919050565b6000620002b082620002b7565b9050919050565b6000620002c482620002cb565b9050919050565b60008160601b9050919050565b620002e3816200026f565b8114620002ef57600080fd5b50565b6111b680620003026000396000f3fe608060405234801561001057600080fd5b506004361061004c5760003560e01c80632f865568146100515780638cb6e19114610081578063966ff7a8146100b1578063fa1fd28c146100cf575b600080fd5b61006b60048036036100669190810190610b6e565b6100ff565b6040516100789190610eb3565b60405180910390f35b61009b60048036036100969190810190610b6e565b6106e9565b6040516100a89190610f32565b60405180910390f35b6100b961071c565b6040516100c69190610f17565b60405180910390f35b6100e960048036036100e49190810190610bc0565b6107c0565b6040516100f69190610eb3565b60405180910390f35b60008061010b83610808565b905060008160000160009054906101000a900473ffffffffffffffffffffffffffffffffffffffff1690506000826002015490505b826003016001018054905081101561048e57620493e05a101561017257808360020181905550600093505050506106e4565b600083600301600101828154811061018657fe5b9060005260206000200160009054906101000a900473ffffffffffffffffffffffffffffffffffffffff16905060008173ffffffffffffffffffffffffffffffffffffffff166370a08231306040518263ffffffff1660e01b81526004016101ee9190610e1d565b60206040518083038186803b15801561020657600080fd5b505afa15801561021a573d6000803e3d6000fd5b505050506040513d601f19601f8201168201806040525061023e9190810190610c66565b905060008473ffffffffffffffffffffffffffffffffffffffff166306f2bf62846040518263ffffffff1660e01b815260040161027b9190610e1d565b60206040518083038186803b15801561029357600080fd5b505afa1580156102a7573d6000803e3d6000fd5b505050506040513d601f19601f820116820180604052506102cb9190810190610b97565b90508273ffffffffffffffffffffffffffffffffffffffff1663095ea7b38260006040518363ffffffff1660e01b8152600401610309929190610e38565b602060405180830381600087803b15801561032357600080fd5b505af1158015610337573d6000803e3d6000fd5b505050506040513d601f19601f8201168201806040525061035b9190810190610c14565b508273ffffffffffffffffffffffffffffffffffffffff1663095ea7b382846040518363ffffffff1660e01b8152600401610397929190610e61565b602060405180830381600087803b1580156103b157600080fd5b505af11580156103c5573d6000803e3d6000fd5b505050506040513d601f19601f820116820180604052506103e99190810190610c14565b508073ffffffffffffffffffffffffffffffffffffffff166395e3c50b836000600143016040518463ffffffff1660e01b815260040161042b93929190610f4d565b602060405180830381600087803b15801561044557600080fd5b505af1158015610459573d6000803e3d6000fd5b505050506040513d601f19601f8201168201806040525061047d9190810190610c66565b505050508080600101915050610140565b610496610a1d565b8573ffffffffffffffffffffffffffffffffffffffff1663966ff7a86040518163ffffffff1660e01b81526004016040805180830381600087803b1580156104dd57600080fd5b505af11580156104f1573d6000803e3d6000fd5b505050506040513d601f19601f820116820180604052506105159190810190610c3d565b905060008373ffffffffffffffffffffffffffffffffffffffff166306f2bf6283602001516040518263ffffffff1660e01b81526004016105569190610e1d565b60206040518083038186803b15801561056e57600080fd5b505afa158015610582573d6000803e3d6000fd5b505050506040513d601f19601f820116820180604052506105a69190810190610b97565b73ffffffffffffffffffffffffffffffffffffffff1663f39b5b9b476000600143016040518463ffffffff1660e01b81526004016105e5929190610ece565b6020604051808303818588803b1580156105fe57600080fd5b505af1158015610612573d6000803e3d6000fd5b50505050506040513d601f19601f820116820180604052506106379190810190610c66565b905082856002018190555060006106976000800160009054906101000a900473ffffffffffffffffffffffffffffffffffffffff1683856020015173ffffffffffffffffffffffffffffffffffffffff166108229092919063ffffffff16565b9050806106d9576040517f08c379a00000000000000000000000000000000000000000000000000000000081526004016106d090610ef7565b60405180910390fd5b600196505050505050505b919050565b6000816040516020016106fc9190610df7565b6040516020818303038152906040528051906020012060001c9050919050565b610724610a1d565b600061072f30610808565b905060405180604001604052808260000160009054906101000a900473ffffffffffffffffffffffffffffffffffffffff1673ffffffffffffffffffffffffffffffffffffffff1681526020018260010160009054906101000a900473ffffffffffffffffffffffffffffffffffffffff1673ffffffffffffffffffffffffffffffffffffffff1681525091505090565b600080828060200190516107d79190810190610b97565b905060006107e485610808565b90506107fc828260030161092a90919063ffffffff16565b60019250505092915050565b600061081b610816836106e9565b6109ed565b9050919050565b6000808473ffffffffffffffffffffffffffffffffffffffff16848460405160240161084f929190610e8a565b6040516020818303038152906040527fa9059cbb000000000000000000000000000000000000000000000000000000007bffffffffffffffffffffffffffffffffffffffffffffffffffffffff19166020820180517bffffffffffffffffffffffffffffffffffffffffffffffffffffffff83818316178352505050506040516108d99190610de0565b6000604051808303816000865af19150503d8060008114610916576040519150601f19603f3d011682016040523d82523d6000602084013e61091b565b606091505b50509050809150509392505050565b8160000160008273ffffffffffffffffffffffffffffffffffffffff1673ffffffffffffffffffffffffffffffffffffffff16815260200190815260200160002060009054906101000a900460ff1615610983576109e9565b81600101819080600181540180825580915050600190039060005260206000200160009091909190916101000a81548173ffffffffffffffffffffffffffffffffffffffff021916908373ffffffffffffffffffffffffffffffffffffffff1602179055505b5050565b6000610a63610a63610a139050809150610a0a848363ffffffff16565b92505050919050565b6000819050919050565b6040518060400160405280600073ffffffffffffffffffffffffffffffffffffffff168152602001600073ffffffffffffffffffffffffffffffffffffffff1681525090565bfe5b600081359050610a7481611124565b92915050565b600081519050610a8981611124565b92915050565b600081519050610a9e8161113b565b92915050565b600081519050610ab381611152565b92915050565b600082601f830112610aca57600080fd5b8135610add610ad882610fb1565b610f84565b91508082526020830160208301858383011115610af957600080fd5b610b048382846110b1565b50505092915050565b600060408284031215610b1f57600080fd5b610b296040610f84565b90506000610b3984828501610a7a565b6000830152506020610b4d84828501610a7a565b60208301525092915050565b600081519050610b6881611169565b92915050565b600060208284031215610b8057600080fd5b6000610b8e84828501610a65565b91505092915050565b600060208284031215610ba957600080fd5b6000610bb784828501610a8f565b91505092915050565b60008060408385031215610bd357600080fd5b6000610be185828601610a65565b925050602083013567ffffffffffffffff811115610bfe57600080fd5b610c0a85828601610ab9565b9150509250929050565b600060208284031215610c2657600080fd5b6000610c3484828501610aa4565b91505092915050565b600060408284031215610c4f57600080fd5b6000610c5d84828501610b0d565b91505092915050565b600060208284031215610c7857600080fd5b6000610c8684828501610b59565b91505092915050565b610c9881611069565b82525050565b610ca78161100f565b82525050565b610cb68161100f565b82525050565b610ccd610cc88261100f565b6110f3565b82525050565b610cdc81611033565b82525050565b6000610ced82610fdd565b610cf78185610fe8565b9350610d078185602086016110c0565b80840191505092915050565b610d1c8161107b565b82525050565b6000610d2f601383611004565b91507f69736f6c6174652e73696d706c652d6275726e000000000000000000000000006000830152601382019050919050565b6000610d6f602083610ff3565b91507f6c69717569646174656420746f6b656e207472616e73666572206661696c65646000830152602082019050919050565b604082016000820151610db86000850182610c9e565b506020820151610dcb6020850182610c9e565b50505050565b610dda8161105f565b82525050565b6000610dec8284610ce2565b915081905092915050565b6000610e0282610d22565b9150610e0e8284610cbc565b60148201915081905092915050565b6000602082019050610e326000830184610cad565b92915050565b6000604082019050610e4d6000830185610c8f565b610e5a6020830184610d13565b9392505050565b6000604082019050610e766000830185610c8f565b610e836020830184610dd1565b9392505050565b6000604082019050610e9f6000830185610cad565b610eac6020830184610dd1565b9392505050565b6000602082019050610ec86000830184610cd3565b92915050565b6000604082019050610ee36000830185610d13565b610ef06020830184610dd1565b9392505050565b60006020820190508181036000830152610f1081610d62565b9050919050565b6000604082019050610f2c6000830184610da2565b92915050565b6000602082019050610f476000830184610dd1565b92915050565b6000606082019050610f626000830186610dd1565b610f6f6020830185610d13565b610f7c6040830184610dd1565b949350505050565b6000604051905081810181811067ffffffffffffffff82111715610fa757600080fd5b8060405250919050565b600067ffffffffffffffff821115610fc857600080fd5b601f19601f8301169050602081019050919050565b600081519050919050565b600081905092915050565b600082825260208201905092915050565b600081905092915050565b600061101a8261103f565b9050919050565b600061102c8261103f565b9050919050565b60008115159050919050565b600073ffffffffffffffffffffffffffffffffffffffff82169050919050565b6000819050919050565b60006110748261108d565b9050919050565b60006110868261105f565b9050919050565b60006110988261109f565b9050919050565b60006110aa8261103f565b9050919050565b82818337600083830152505050565b60005b838110156110de5780820151818401526020810190506110c3565b838111156110ed576000848401525b50505050565b60006110fe82611105565b9050919050565b600061111082611117565b9050919050565b60008160601b9050919050565b61112d8161100f565b811461113857600080fd5b50565b61114481611021565b811461114f57600080fd5b50565b61115b81611033565b811461116657600080fd5b50565b6111728161105f565b811461117d57600080fd5b5056fea26469706673582212204525ef79a832d8bb98b571c06fbfb00789e79069dd7adeb6cbe8d60afd10d0a264736f6c63430006030033",
  "source": "pragma solidity ^0.6.2;\npragma experimental ABIEncoderV2;\n\nimport { AddressSetLib } from \"../../utils/AddressSetLib.sol\";\nimport { BorrowProxyLib } from \"../../BorrowProxyLib.sol\";\nimport { IUniswapExchange } from \"../../interfaces/IUniswapExchange.sol\";\nimport { IUniswapFactory } from \"../../interfaces/IUniswapFactory.sol\";\nimport { IERC20 } from \"openzeppelin-solidity/contracts/token/ERC20/IERC20.sol\";\nimport { TokenUtils } from \"../../utils/TokenUtils.sol\";\n\ncontract SimpleBurnLiquidationModule {\n  BorrowProxyLib.ProxyIsolate proxyIsolate;\n  using AddressSetLib for *;\n  using TokenUtils for *;\n  struct Isolate {\n    address factoryAddress;\n    address liquidateTo;\n    uint256 liquidated;\n    AddressSetLib.AddressSet toLiquidate;\n  }\n  struct ExternalIsolate {\n    address factoryAddress;\n    address liquidateTo;\n  }\n  constructor(address factoryAddress, address liquidateTo) public {\n    Isolate storage isolate = getIsolatePointer(address(this));\n    isolate.factoryAddress = factoryAddress;\n    isolate.liquidateTo = liquidateTo;\n  }\n  function notify(address moduleAddress, bytes memory payload) public returns (bool) {\n    (address token) = abi.decode(payload, (address));\n    Isolate storage isolate = getIsolatePointer(moduleAddress);\n    isolate.toLiquidate.insert(token);\n    return true;\n  }\n  function liquidate(address moduleAddress) public returns (bool) {\n    Isolate storage isolate = getIsolatePointer(moduleAddress);\n    IUniswapFactory factory = IUniswapFactory(isolate.factoryAddress);\n    uint256 i;\n    for (i = isolate.liquidated; i < isolate.toLiquidate.set.length; i++) {\n      if (gasleft() < 3e5) {\n        isolate.liquidated = i;\n        return false;\n      }\n      address tokenAddress = isolate.toLiquidate.set[i];\n      uint256 tokenBalance = IERC20(tokenAddress).balanceOf(address(this));\n      address payable exchangeAddress = factory.getExchange(tokenAddress);\n      IERC20(tokenAddress).approve(exchangeAddress, 0); // needed for many tokens\n      IERC20(tokenAddress).approve(exchangeAddress, tokenBalance);\n      IUniswapExchange(exchangeAddress).tokenToEthSwapInput(tokenBalance, 0, block.number + 1);\n    }\n    ExternalIsolate memory externalIsolate = SimpleBurnLiquidationModule(moduleAddress).getExternalIsolateHandler();\n    uint256 received = IUniswapExchange(factory.getExchange(externalIsolate.liquidateTo)).ethToTokenSwapInput.value(address(this).balance)(0, block.number + 1);\n    isolate.liquidated = i;\n    bool success = externalIsolate.liquidateTo.sendToken(proxyIsolate.masterAddress, received);\n    require(success, \"liquidated token transfer failed\");\n    return true;\n  }\n  function computeIsolatePointer(address instance) public pure returns (uint256) {\n    return uint256(keccak256(abi.encodePacked(\"isolate.simple-burn\", instance)));\n  }\n  function cast(uint256 v) internal pure returns (uint256) {\n    return v;\n  }\n  function toIsolatePointer(uint256 key) internal returns (Isolate storage) {\n    function (uint256) internal returns (Isolate storage) swap;\n    function (uint256) internal returns (uint256) real = cast;\n    assembly {\n      swap := real\n    }\n    return swap(key);\n  }\n  function getIsolatePointer(address moduleAddress) internal returns (Isolate storage) {\n    return toIsolatePointer(computeIsolatePointer(moduleAddress));\n  }\n  function getExternalIsolateHandler() external returns (ExternalIsolate memory) {\n    Isolate storage isolate = getIsolatePointer(address(this));\n    return ExternalIsolate({\n      factoryAddress: isolate.factoryAddress,\n      liquidateTo: isolate.liquidateTo\n    });\n  }\n  function getExternalIsolate(address moduleAddress) internal returns (ExternalIsolate memory) {\n    return SimpleBurnLiquidationModule(moduleAddress).getExternalIsolateHandler();\n  }\n}\n",
  "sourcePath": "/home/ray/0confirmation/packages/0confirmation-sol/contracts/adapters/liquidity/SimpleBurnLiquidationModule.sol",
  "compiler": {
    "name": "solc",
    "version": "0.6.3+commit.8dda9521.Emscripten.clang"
  },
  "schemaVersion": "3.0.23",
  "updatedAt": "2020-03-14T20:06:41.308Z",
  "networkType": "ethereum",
  "devdoc": {
    "methods": {}
  },
  "userdoc": {
    "methods": {}
  }
}