{
  "contractName": "SimpleBurnLiquidationModule",
  "abi": [
    {
      "inputs": [
        {
          "internalType": "address",
          "name": "factoryAddress",
          "type": "address"
        },
        {
          "internalType": "address",
          "name": "liquidateTo",
          "type": "address"
        }
      ],
      "stateMutability": "nonpayable",
      "type": "constructor"
    },
    {
      "inputs": [
        {
          "internalType": "address",
          "name": "",
          "type": "address"
        },
        {
          "internalType": "bytes",
          "name": "payload",
          "type": "bytes"
        }
      ],
      "name": "notify",
      "outputs": [
        {
          "internalType": "bool",
          "name": "",
          "type": "bool"
        }
      ],
      "stateMutability": "nonpayable",
      "type": "function"
    },
    {
      "inputs": [
        {
          "internalType": "address",
          "name": "moduleAddress",
          "type": "address"
        }
      ],
      "name": "liquidate",
      "outputs": [
        {
          "internalType": "bool",
          "name": "",
          "type": "bool"
        }
      ],
      "stateMutability": "nonpayable",
      "type": "function"
    },
    {
      "inputs": [],
      "name": "getExternalIsolateHandler",
      "outputs": [
        {
          "components": [
            {
              "internalType": "address",
              "name": "factoryAddress",
              "type": "address"
            },
            {
              "internalType": "address",
              "name": "liquidateTo",
              "type": "address"
            }
          ],
          "internalType": "struct SimpleBurnLiquidationModuleLib.ExternalIsolate",
          "name": "",
          "type": "tuple"
        }
      ],
      "stateMutability": "nonpayable",
      "type": "function"
    }
  ],
  "bytecode": "0x60806040523480156200001157600080fd5b50604051620013893803806200138983398101604081905262000034916200010a565b60006200004b6200008260201b6200057d1760201c565b80546001600160a01b039485166001600160a01b03199182161782556001909101805493909416921691909117909155506200018a565b6000620000aa6200009b6001600160e01b03620000af16565b6001600160e01b03620000e016565b905090565b6000604051602001620000c29062000148565b6040516020818303038152906040528051906020012060001c905090565b600062000107602090811b62000a3017908190620000ff90859083901c565b949350505050565b90565b600080604083850312156200011d578182fd5b82516200012a8162000171565b60208401519092506200013d8162000171565b809150509250929050565b7f69736f6c6174652e73696d706c652d6275726e00000000000000000000000000815260130190565b6001600160a01b03811681146200018757600080fd5b50565b6111ef806200019a6000396000f3fe608060405234801561001057600080fd5b50600436106100415760003560e01c80632f86556814610046578063966ff7a81461006f578063fa1fd28c14610084575b600080fd5b610059610054366004610abe565b610097565b6040516100669190610cf2565b60405180910390f35b6100776104d4565b6040516100669190610df3565b610059610092366004610af6565b610513565b60006100a1610558565b6100ad575060006104cf565b60006100b761057d565b90506100c1610a98565b836001600160a01b031663966ff7a86040518163ffffffff1660e01b81526004016040805180830381600087803b1580156100fb57600080fd5b505af115801561010f573d6000803e3d6000fd5b505050506040513d601f19601f820116820180604052506101339190810190610bb4565b8254602082015160028501549293506001600160a01b039091169160005b600486015482101561037457600086600301600101838154811061017157fe5b6000918252602090912001546001600160a01b03908116915084168114156101995750610369565b620493e05a10156101bc57505060029094019390935550600092506104cf915050565b6040516370a0823160e01b81526000906001600160a01b038316906370a08231906101eb903090600401610cab565b60206040518083038186803b15801561020357600080fd5b505afa158015610217573d6000803e3d6000fd5b505050506040513d601f19601f8201168201806040525061023b9190810190610bf6565b90506000866001600160a01b03166306f2bf62846040518263ffffffff1660e01b815260040161026b9190610cab565b60206040518083038186803b15801561028357600080fd5b505afa158015610297573d6000803e3d6000fd5b505050506040513d601f19601f820116820180604052506102bb9190810190610ada565b90506102d66001600160a01b0384168263ffffffff61059416565b5060405163ddf7e1a760e01b81526001600160a01b0382169063ddf7e1a79061030f908590600090819060014301908d90600401610e01565b602060405180830381600087803b15801561032957600080fd5b505af115801561033d573d6000803e3d6000fd5b505050506040513d601f19601f820116820180604052506103619190810190610bf6565b840193505050505b600190910190610151565b6040516303795fb160e11b81526001600160a01b038516906306f2bf62906103a0908690600401610cab565b60206040518083038186803b1580156103b857600080fd5b505afa1580156103cc573d6000803e3d6000fd5b505050506040513d601f19601f820116820180604052506103f09190810190610ada565b6001600160a01b031663f39b5b9b476000436001016040518463ffffffff1660e01b8152600401610422929190610cfd565b6020604051808303818588803b15801561043b57600080fd5b505af115801561044f573d6000803e3d6000fd5b50505050506040513d601f19601f820116820180604052506104749190810190610bf6565b6002870183905560008054929091019161049b906001600160a01b038681169116846105fe565b9050806104c35760405162461bcd60e51b81526004016104ba90610dbe565b60405180910390fd5b60019750505050505050505b919050565b6104dc610a98565b60006104e661057d565b6040805180820190915281546001600160a01b039081168252600190920154909116602082015291505090565b6000808280602001905161052a9190810190610ada565b9050600061053661057d565b905061054b600382018363ffffffff6106a316565b6001925050505b92915050565b6000806105636106fd565b905060405162461bcd60e51b81526004016104ba90610d0b565b600061058f61058a610791565b6107c0565b905090565b6000806105a28430856107d3565b90506001600160fe1b038111156105bd576001915050610552565b80158015906105d557506105d3843060006108b1565b155b156105e4576000915050610552565b6105f684846001600160ff1b036108b1565b949350505050565b600080846001600160a01b0316848460405160240161061e929190610cd9565b60408051601f198184030181529181526020820180516001600160e01b031663a9059cbb60e01b179052516106539190610c29565b6000604051808303816000865af19150503d8060008114610690576040519150601f19603f3d011682016040523d82523d6000602084013e610695565b606091505b5090925050505b9392505050565b6001600160a01b03811660009081526020839052604090205460ff16156106c9576106f9565b6001828101805491820181556000908152602090200180546001600160a01b0319166001600160a01b0383161790555b5050565b600061058f61058a61093d565b8254811015610788576207a1205a10156107735761076e83600001828154811061073057fe5b60009182526020918290206040805180820190915260029092020180546001600160a01b039081168352600190910154169181019190915282610959565b610780565b60028301555060006104cf565b60010161070a565b50600192915050565b60006040516020016107a290610c62565b6040516020818303038152906040528051906020012060001c905090565b6000610a30806105f68463ffffffff8316565b6000806060856001600160a01b031685856040516024016107f5929190610cbf565b60408051601f198184030181529181526020820180516001600160e01b0316636eb1769f60e11b1790525161082a9190610c29565b6000604051808303816000865af19150503d8060008114610867576040519150601f19603f3d011682016040523d82523d6000602084013e61086c565b606091505b509150915081158061088057508051602014155b156108905760019250505061069c565b6000818060200190516108a69190810190610bf6565b979650505050505050565b600080846001600160a01b031663095ea7b385856040518363ffffffff1660e01b81526004016108e2929190610cd9565b602060405180830381600087803b1580156108fc57600080fd5b505af1158015610910573d6000803e3d6000fd5b505050506040513d601f19601f820116820180604052506109349190810190610b94565b95945050505050565b600060405161094b90610c81565b604051908190039020905090565b600061098e61096783610a33565b60405161097660208201610ab1565b601f1982820381018352601f90910116604052610a63565b6040516389dc052560e01b81529091506001600160a01b038216906389dc0525906109bd908690600401610df3565b602060405180830381600087803b1580156109d757600080fd5b505af11580156109eb573d6000803e3d6000fd5b505050506040513d601f19601f82011682018060405250610a0f9190810190610b94565b610a2b5760405162461bcd60e51b81526004016104ba90610d29565b505050565b90565b600081604051602001610a469190610ca2565b604051602081830303815290604052805190602001209050919050565b600080838351602085016000f590506001600160a01b03811661069c5760405162461bcd60e51b81526004016104ba90610d87565b604080518082019091526000808252602082015290565bfe5b61034d80610e6d83390190565b600060208284031215610acf578081fd5b813561069c81610e54565b600060208284031215610aeb578081fd5b815161069c81610e54565b60008060408385031215610b08578081fd5b8235610b1381610e54565b915060208381013567ffffffffffffffff80821115610b30578384fd5b81860187601f820112610b41578485fd5b8035925081831115610b51578485fd5b610b63601f8401601f19168501610e2d565b91508282528784848301011115610b78578485fd5b8284820185840137509081019091019190915290939092509050565b600060208284031215610ba5578081fd5b8151801515811461069c578182fd5b600060408284031215610bc5578081fd5b610bcf6040610e2d565b8251610bda81610e54565b81526020830151610bea81610e54565b60208201529392505050565b600060208284031215610c07578081fd5b5051919050565b80516001600160a01b03908116835260209182015116910152565b60008251815b81811015610c495760208186018101518583015201610c2f565b81811115610c575782828501525b509190910192915050565b7234b9b7b630ba329739b4b6b8363296b13ab93760691b815260130190565b7434b9b7b630ba329732b931991816b0b230b83a32b960591b815260150190565b90815260200190565b6001600160a01b0391909116815260200190565b6001600160a01b0392831681529116602082015260400190565b6001600160a01b03929092168252602082015260400190565b901515815260200190565b918252602082015260400190565b6020808252600490820152630776f6f760e41b604082015260600190565b602080825260409082018190527f7568206f682c20657363726f77656420746f6b656e20776f756c646e27742072908201527f657475726e20746f20626f72726f772070726f78792c2074727920616761696e606082015260800190565b60208082526019908201527f437265617465323a204661696c6564206f6e206465706c6f7900000000000000604082015260600190565b6020808252818101527f6c69717569646174656420746f6b656e207472616e73666572206661696c6564604082015260600190565b604081016105528284610c0e565b9485526020850193909352604084019190915260608301526001600160a01b0316608082015260a00190565b60405181810167ffffffffffffffff81118282101715610e4c57600080fd5b604052919050565b6001600160a01b0381168114610e6957600080fd5b5056fe608060405234801561001057600080fd5b5061032d806100206000396000f3fe608060405234801561001057600080fd5b50600436106100365760003560e01c80636582a3bc1461003b57806389dc052514610064575b600080fd5b61004e6100493660046101fc565b610077565b60405161005b91906102d4565b60405180910390f35b61004e6100723660046101fc565b610122565b60008061011d836000015184602001516001600160a01b03166370a08231306040518263ffffffff1660e01b81526004016100b291906102a7565b60206040518083038186803b1580156100ca57600080fd5b505afa1580156100de573d6000803e3d6000fd5b505050506040513d601f19601f820116820180604052506101029190810190610256565b60208601516001600160a01b0316919063ffffffff61015916565b905033ff5b60008061011d3384602001516001600160a01b03166370a08231306040518263ffffffff1660e01b81526004016100b291906102a7565b600080846001600160a01b031684846040516024016101799291906102bb565b60408051601f198184030181529181526020820180516001600160e01b031663a9059cbb60e01b179052516101ae919061026e565b6000604051808303816000865af19150503d80600081146101eb576040519150601f19603f3d011682016040523d82523d6000602084013e6101f0565b606091505b50909695505050505050565b60006040828403121561020d578081fd5b6040516040810181811067ffffffffffffffff8211171561022c578283fd5b604052823561023a816102df565b8152602083013561024a816102df565b60208201529392505050565b600060208284031215610267578081fd5b5051919050565b60008251815b8181101561028e5760208186018101518583015201610274565b8181111561029c5782828501525b509190910192915050565b6001600160a01b0391909116815260200190565b6001600160a01b03929092168252602082015260400190565b901515815260200190565b6001600160a01b03811681146102f457600080fd5b5056fea26469706673582212204bc67b94c8f73f148c121f1302f4ee6ad96ec1537bff656ea0a2d2bc8600313264736f6c63430006020033a2646970667358221220531ba8527b21bda009d76cc40a503383fe768b023ef44b342cec23e27738062c64736f6c63430006020033",
  "source": "pragma solidity ^0.6.0;\npragma experimental ABIEncoderV2;\n\nimport { AddressSetLib } from \"../../utils/AddressSetLib.sol\";\nimport { BorrowProxyLib } from \"../../BorrowProxyLib.sol\";\nimport { IUniswapExchange } from \"../../interfaces/IUniswapExchange.sol\";\nimport { IUniswapFactory } from \"../../interfaces/IUniswapFactory.sol\";\nimport { IERC20 } from \"openzeppelin-solidity/contracts/token/ERC20/IERC20.sol\";\nimport { TokenUtils } from \"../../utils/TokenUtils.sol\";\nimport { SimpleBurnLiquidationModuleLib } from \"./SimpleBurnLiquidationModuleLib.sol\";\nimport { ERC20AdapterLib } from \"../assets/erc20/ERC20AdapterLib.sol\";\n\ncontract SimpleBurnLiquidationModule {\n  using AddressSetLib for *;\n  using TokenUtils for *;\n  BorrowProxyLib.ProxyIsolate proxyIsolate;\n  constructor(address factoryAddress, address liquidateTo) public {\n    SimpleBurnLiquidationModuleLib.Isolate storage isolate = SimpleBurnLiquidationModuleLib.getIsolatePointer();\n    isolate.factoryAddress = factoryAddress;\n    isolate.liquidateTo = liquidateTo;\n  }\n  function notify(address /* moduleAddress */, bytes memory payload) public returns (bool) {\n    (address token) = abi.decode(payload, (address));\n    SimpleBurnLiquidationModuleLib.Isolate storage isolate = SimpleBurnLiquidationModuleLib.getIsolatePointer();\n    isolate.toLiquidate.insert(token);\n    return true;\n  }\n  function liquidate(address moduleAddress) public returns (bool) {\n    if (!ERC20AdapterLib.liquidate()) return false;\n    SimpleBurnLiquidationModuleLib.Isolate storage isolate = SimpleBurnLiquidationModuleLib.getIsolatePointer();\n    SimpleBurnLiquidationModuleLib.ExternalIsolate memory externalIsolate = SimpleBurnLiquidationModule(moduleAddress).getExternalIsolateHandler();\n    IUniswapFactory factory = IUniswapFactory(isolate.factoryAddress);\n    address liquidateTo = externalIsolate.liquidateTo;\n    uint256 i;\n    uint256 received = 0;\n    for (i = isolate.liquidated; i < isolate.toLiquidate.set.length; i++) {\n      address tokenAddress = isolate.toLiquidate.set[i];\n      if (liquidateTo == tokenAddress) continue;\n      if (gasleft() < 3e5) {\n        isolate.liquidated = i;\n        return false;\n      }\n      uint256 tokenBalance = IERC20(tokenAddress).balanceOf(address(this));\n      address payable exchangeAddress = factory.getExchange(tokenAddress);\n      tokenAddress.approveForMaxIfNeeded(exchangeAddress);\n      received += IUniswapExchange(exchangeAddress).tokenToTokenSwapInput(tokenBalance, 0, 0, block.number + 1, liquidateTo);\n    }\n    received += IUniswapExchange(factory.getExchange(liquidateTo)).ethToTokenSwapInput.value(address(this).balance)(0, block.number + 1);\n    isolate.liquidated = i;\n    bool success = liquidateTo.sendToken(proxyIsolate.masterAddress, received);\n    require(success, \"liquidated token transfer failed\");\n    return true;\n  }\n  function getExternalIsolateHandler() external returns (SimpleBurnLiquidationModuleLib.ExternalIsolate memory) {\n    SimpleBurnLiquidationModuleLib.Isolate storage isolate = SimpleBurnLiquidationModuleLib.getIsolatePointer();\n    return SimpleBurnLiquidationModuleLib.ExternalIsolate({\n      factoryAddress: isolate.factoryAddress,\n      liquidateTo: isolate.liquidateTo\n    });\n  }\n}\n",
  "sourcePath": "/home/ray/0confirmation/packages/0confirmation-sol/contracts/adapters/liquidity/SimpleBurnLiquidationModule.sol",
  "compiler": {
    "name": "solc",
    "version": "0.6.2+commit.bacdbe57.Emscripten.clang"
  },
  "schemaVersion": "3.0.23",
  "updatedAt": "2020-04-06T00:31:40.744Z",
  "devdoc": {
    "methods": {}
  },
  "userdoc": {
    "methods": {}
  }
}