{
  "contractName": "SimpleBurnLiquidationModuleLib",
  "abi": [
    {
      "inputs": [],
      "name": "computeIsolatePointer",
      "outputs": [
        {
          "internalType": "uint256",
          "name": "",
          "type": "uint256"
        }
      ],
      "stateMutability": "pure",
      "type": "function"
    }
  ],
  "bytecode": "0x60dd610025600b82828239805160001a60731461001857fe5b30600052607381538281f3fe730000000000000000000000000000000000000000301460806040526004361060335760003560e01c8063d7885a06146038575b600080fd5b603e6052565b60405160499190609e565b60405180910390f35b6000604051602001606190607f565b6040516020818303038152906040528051906020012060001c905090565b7234b9b7b630ba329739b4b6b8363296b13ab93760691b815260130190565b9081526020019056fea264697066735822122079ed0fa7a050c07ee1741e7a83884fb4221e8e3b4e1cc98100631c770f23cf4e64736f6c63430006040033",
  "source": "pragma solidity ^0.6.0;\npragma experimental ABIEncoderV2;\n\nimport { AddressSetLib } from \"../../utils/AddressSetLib.sol\";\nimport { BorrowProxyLib } from \"../../BorrowProxyLib.sol\";\nimport { IUniswapExchange } from \"../../interfaces/IUniswapExchange.sol\";\nimport { IUniswapFactory } from \"../../interfaces/IUniswapFactory.sol\";\nimport { IERC20 } from \"openzeppelin-solidity/contracts/token/ERC20/IERC20.sol\";\nimport { TokenUtils } from \"../../utils/TokenUtils.sol\";\nimport { SimpleBurnLiquidationModule } from \"./SimpleBurnLiquidationModule.sol\";\n\nlibrary SimpleBurnLiquidationModuleLib {\n  struct Isolate {\n    address factoryAddress;\n    address liquidateTo;\n    uint256 liquidated;\n    AddressSetLib.AddressSet toLiquidate;\n  }\n  struct ExternalIsolate {\n    address factoryAddress;\n    address liquidateTo;\n  }\n  function computeIsolatePointer() public pure returns (uint256) {\n    return uint256(keccak256(abi.encodePacked(\"isolate.simple-burn\")));\n  }\n  function cast(uint256 v) internal pure returns (uint256) {\n    return v;\n  }\n  function toIsolatePointer(uint256 key) internal returns (Isolate storage) {\n    function (uint256) internal returns (Isolate storage) swap;\n    function (uint256) internal returns (uint256) real = cast;\n    assembly {\n      swap := real\n    }\n    return swap(key);\n  }\n  function getIsolatePointer() internal returns (Isolate storage) {\n    return toIsolatePointer(computeIsolatePointer());\n  }\n  function getExternalIsolate(address moduleAddress) internal returns (ExternalIsolate memory) {\n    return SimpleBurnLiquidationModule(moduleAddress).getExternalIsolateHandler();\n  }\n}\n",
  "sourcePath": "/home/ray/0confirmation/packages/0confirmation-sol/contracts/adapters/liquidity/SimpleBurnLiquidationModuleLib.sol",
  "compiler": {
    "name": "solc",
    "version": "0.6.4+commit.1dca32f3.Emscripten.clang"
  },
  "schemaVersion": "3.0.23",
  "updatedAt": "2020-04-06T03:54:46.640Z",
  "devdoc": {
    "methods": {}
  },
  "userdoc": {
    "methods": {}
  }
}