{
  "contractName": "SimpleBurnLiquidationModule",
  "abi": [
    {
      "inputs": [
        {
          "internalType": "address",
          "name": "routerAddress",
          "type": "address"
        },
        {
          "internalType": "address",
          "name": "erc20Module",
          "type": "address"
        }
      ],
      "stateMutability": "nonpayable",
      "type": "constructor"
    },
    {
      "inputs": [
        {
          "internalType": "address",
          "name": "",
          "type": "address"
        },
        {
          "internalType": "bytes",
          "name": "payload",
          "type": "bytes"
        }
      ],
      "name": "notify",
      "outputs": [
        {
          "internalType": "bool",
          "name": "",
          "type": "bool"
        }
      ],
      "stateMutability": "nonpayable",
      "type": "function"
    },
    {
      "inputs": [
        {
          "internalType": "address",
          "name": "moduleAddress",
          "type": "address"
        }
      ],
      "name": "liquidate",
      "outputs": [
        {
          "internalType": "bool",
          "name": "",
          "type": "bool"
        }
      ],
      "stateMutability": "nonpayable",
      "type": "function"
    },
    {
      "inputs": [],
      "name": "getExternalIsolateHandler",
      "outputs": [
        {
          "internalType": "address",
          "name": "",
          "type": "address"
        },
        {
          "internalType": "address",
          "name": "",
          "type": "address"
        }
      ],
      "stateMutability": "view",
      "type": "function"
    }
  ],
  "bytecode": "0x60806040523480156200001157600080fd5b5060405162000f4a38038062000f4a833981016040819052620000349162000117565b60006200004b6200008260201b6200033b1760201c565b80546001600160a01b039485166001600160a01b031991821617825560019091018054939094169216919091179091555062000197565b6000620000aa6200009b6001600160e01b03620000af16565b6001600160e01b03620000e016565b905090565b6000604051602001620000c29062000155565b6040516020818303038152906040528051906020012060001c905090565b6000620000ff82620000fa6001600160e01b036200010516565b60201c565b92915050565b620009f86200011460201b1790565b90565b600080604083850312156200012a578182fd5b825162000137816200017e565b60208401519092506200014a816200017e565b809150509250929050565b7f69736f6c6174652e73696d706c652d6275726e00000000000000000000000000815260130190565b6001600160a01b03811681146200019457600080fd5b50565b610da380620001a76000396000f3fe608060405234801561001057600080fd5b50600436106100415760003560e01c80632f86556814610046578063966ff7a81461006f578063fa1fd28c14610085575b600080fd5b6100596100543660046109fd565b610098565b6040516100669190610c85565b60405180910390f35b6100776102c1565b604051610066929190610c52565b610059610093366004610a6e565b6102eb565b60006100a46000610330565b6100b0575060006102bc565b60006100ba61033b565b6002549091506001600160a01b031660006100d482610352565b905060006100e1866103d3565b5090508060006100f082610450565b60028701549091505b60048701548110156102a957600087600301600101828154811061011957fe5b6000918252602090912001546001600160a01b039081169150871681141561014157506102a1565b620493e05a1015610165575060029096019590955550600094506102bc9350505050565b6040516370a0823160e01b81526000906001600160a01b038316906370a0823190610194903090600401610c3e565b60206040518083038186803b1580156101ac57600080fd5b505afa1580156101c0573d6000803e3d6000fd5b505050506040513d601f19601f820116820180604052508101906101e49190610ba4565b905060606101f383868b61048b565b905061020e6001600160a01b0384168763ffffffff61053e16565b506040516338ed173960e01b81526001600160a01b038716906338ed17399061024690859060019086908e9042840190600401610c9e565b600060405180830381600087803b15801561026057600080fd5b505af1158015610274573d6000803e3d6000fd5b505050506040513d6000823e601f3d908101601f1916820160405261029c9190810190610b0c565b505050505b6001016100f9565b6002909601959095555060019450505050505b919050565b60008060006102ce61033b565b80546001909101546001600160a01b039182169450169150509091565b600080828060200190518101906103029190610a19565b9050600061030e61033b565b9050610323600382018363ffffffff6105a816565b6001925050505b92915050565b600061032a82610602565b600061034d6103486106b8565b6106e7565b905090565b6000805460405163d0a80e3160e01b81526001600160a01b039091169063d0a80e3190610383908590600401610c3e565b60206040518083038186803b15801561039b57600080fd5b505afa1580156103af573d6000803e3d6000fd5b505050506040513d601f19601f8201168201806040525081019061032a9190610a19565b600080826001600160a01b031663966ff7a86040518163ffffffff1660e01b8152600401604080518083038186803b15801561040e57600080fd5b505afa158015610422573d6000803e3d6000fd5b505050506040513d601f19601f820116820180604052508101906104469190610a35565b9094909350915050565b6000816001600160a01b031663ad5c46486040518163ffffffff1660e01b815260040160206040518083038186803b15801561039b57600080fd5b6040805160038082526080820190925260609160208201838036833701905050905083816000815181106104bb57fe5b60200260200101906001600160a01b031690816001600160a01b03168152505082816001815181106104e957fe5b60200260200101906001600160a01b031690816001600160a01b031681525050818160028151811061051757fe5b60200260200101906001600160a01b031690816001600160a01b0316815250509392505050565b60008061054c8430856106fd565b90506001600160fe1b0381111561056757600191505061032a565b801580159061057f575061057d8430600061079e565b155b1561058e57600091505061032a565b6105a084846001600160ff1b0361079e565b949350505050565b6001600160a01b03811660009081526020839052604090205460ff16156105ce576105fe565b6001828101805491820181556000908152602090200180546001600160a01b0319166001600160a01b0383161790555b5050565b60008061060d610810565b600181015490915060ff1661062d576001818101805460ff191690911790555b60028101545b81548110156106ae576207a1205a1015610655576002909101555060006102bc565b6106a68483600001838154811061066857fe5b60009182526020918290206040805180820190915260029092020180546001600160a01b03908116835260019091015416918101919091528361081d565b600101610633565b5060019392505050565b60006040516020016106c990610bf5565b6040516020818303038152906040528051906020012060001c905090565b600061032a826106f561091d565b63ffffffff16565b6000806060856001600160a01b03166107168686610923565b6040516107239190610bbc565b6000604051808303816000865af19150503d8060008114610760576040519150601f19603f3d011682016040523d82523d6000602084013e610765565b606091505b509150915081158061077957508051602014155b1561078957600192505050610797565b61079281610979565b925050505b9392505050565b600080846001600160a01b03166107b5858561098f565b6040516107c29190610bbc565b6000604051808303816000865af19150503d80600081146107ff576040519150601f19603f3d011682016040523d82523d6000602084013e610804565b606091505b50909695505050505050565b600061034d6103486109ac565b600073__ShifterPoolLib________________________63cc8a253a85610843856109c8565b6040518363ffffffff1660e01b8152600401610860929190610c90565b60206040518083038186803b15801561087857600080fd5b505af415801561088c573d6000803e3d6000fd5b505050506040513d601f19601f820116820180604052508101906108b09190610a19565b6020840151604051638e03e6cd60e01b81529192506001600160a01b03831691638e03e6cd916108e591309190600401610c52565b600060405180830381600087803b1580156108ff57600080fd5b505af1158015610913573d6000803e3d6000fd5b5050505050505050565b6109f890565b606063dd62ed3e60e01b8383604051602401610940929190610c52565b60408051601f198184030181529190526020810180516001600160e01b03166001600160e01b0319909316929092179091529392505050565b60008180602001905181019061032a9190610ba4565b606063095ea7b360e01b8383604051602401610940929190610c6c565b60006040516109ba90610c14565b604051908190039020905090565b6000816040516020016109db9190610c35565b604051602081830303815290604052805190602001209050919050565b90565bfe5b600060208284031215610a0e578081fd5b813561079781610d55565b600060208284031215610a2a578081fd5b815161079781610d55565b60008060408385031215610a47578081fd5b8251610a5281610d55565b6020840151909250610a6381610d55565b809150509250929050565b60008060408385031215610a80578182fd5b8235610a8b81610d55565b915060208381013567ffffffffffffffff80821115610aa8578384fd5b81860187601f820112610ab9578485fd5b8035925081831115610ac9578485fd5b610adb601f8401601f19168501610d0e565b91508282528784848301011115610af0578485fd5b8284820185840137509081019091019190915290939092509050565b60006020808385031215610b1e578182fd5b825167ffffffffffffffff811115610b34578283fd5b80840185601f820112610b45578384fd5b80519150610b5a610b5583610d35565b610d0e565b8281528381019082850185850284018601891015610b76578687fd5b8693505b84841015610b98578051835260019390930192918501918501610b7a565b50979650505050505050565b600060208284031215610bb5578081fd5b5051919050565b60008251815b81811015610bdc5760208186018101518583015201610bc2565b81811115610bea5782828501525b509190910192915050565b7234b9b7b630ba329739b4b6b8363296b13ab93760691b815260130190565b7434b9b7b630ba329732b931991816b0b230b83a32b960591b815260150190565b90815260200190565b6001600160a01b0391909116815260200190565b6001600160a01b0392831681529116602082015260400190565b6001600160a01b03929092168252602082015260400190565b901515815260200190565b918252602082015260400190565b600060a082018783526020878185015260a0604085015281875180845260c0860191508289019350845b81811015610ced5784516001600160a01b031683529383019391830191600101610cc8565b50506001600160a01b03969096166060850152505050608001529392505050565b60405181810167ffffffffffffffff81118282101715610d2d57600080fd5b604052919050565b600067ffffffffffffffff821115610d4b578081fd5b5060209081020190565b6001600160a01b0381168114610d6a57600080fd5b5056fea264697066735822122039986ccda8f3386a76a4d1ce05c4ba5648fc1975613c32865f7396303d2bba2d64736f6c63430006060033",
  "immutableReferences": {},
  "source": "pragma solidity ^0.6.0;\npragma experimental ABIEncoderV2;\n\nimport { AddressSetLib } from \"../../utils/AddressSetLib.sol\";\nimport { BorrowProxyLib } from \"../../BorrowProxyLib.sol\";\nimport { IERC20 } from \"openzeppelin-solidity/contracts/token/ERC20/IERC20.sol\";\nimport { TokenUtils } from \"../../utils/TokenUtils.sol\";\nimport { SimpleBurnLiquidationModuleLib } from \"./SimpleBurnLiquidationModuleLib.sol\";\nimport { ERC20AdapterLib } from \"../assets/erc20/ERC20AdapterLib.sol\";\nimport { UniswapV2AdapterLib } from \"../assets/uniswap-v2/UniswapV2AdapterLib.sol\";\nimport { IUniswapV2Router01 } from \"@uniswap/v2-periphery/contracts/interfaces/IUniswapV2Router01.sol\";\nimport { ShifterPool } from \"../../ShifterPool.sol\";\n\ncontract SimpleBurnLiquidationModule {\n  using AddressSetLib for *;\n  using TokenUtils for *;\n  using UniswapV2AdapterLib for *;\n  BorrowProxyLib.ProxyIsolate proxyIsolate;\n  constructor(address routerAddress, address erc20Module) public {\n    SimpleBurnLiquidationModuleLib.Isolate storage isolate = SimpleBurnLiquidationModuleLib.getIsolatePointer();\n    isolate.routerAddress = routerAddress;\n    isolate.erc20Module = erc20Module;\n  }\n  function notify(address /* moduleAddress */, bytes memory payload) public returns (bool) {\n    (address token) = abi.decode(payload, (address));\n    SimpleBurnLiquidationModuleLib.Isolate storage isolate = SimpleBurnLiquidationModuleLib.getIsolatePointer();\n    isolate.toLiquidate.insert(token);\n    return true;\n  }\n  function fetchExternals(address moduleAddress) internal view returns (address routerAddress, address erc20Module) {\n    (routerAddress, erc20Module) = SimpleBurnLiquidationModule(moduleAddress).getExternalIsolateHandler();\n  }\n  function fetchLiquidityToken(address liquidateTo) internal view returns (address) {\n    return ShifterPool(proxyIsolate.masterAddress).getLiquidityTokenForTokenHandler(liquidateTo);\n  }\n  function getWETH(IUniswapV2Router01 router) internal pure returns (address) {\n    return router.WETH();\n  }\n  function liquidate(address moduleAddress) public returns (bool) {\n    if (!ERC20AdapterLib.liquidate(proxyIsolate)) return false;\n    SimpleBurnLiquidationModuleLib.Isolate storage isolate = SimpleBurnLiquidationModuleLib.getIsolatePointer();\n    address liquidateTo = address(uint160(proxyIsolate.token));\n    address liquidityToken = fetchLiquidityToken(liquidateTo);\n    (address routerAddress, /* address erc20Module */) = fetchExternals(moduleAddress);\n    IUniswapV2Router01 router = IUniswapV2Router01(routerAddress);\n    address WETH = getWETH(router);\n    uint256 i;\n    for (i = isolate.liquidated; i < isolate.toLiquidate.set.length; i++) {\n      address tokenAddress = isolate.toLiquidate.set[i];\n      if (liquidateTo == tokenAddress) continue;\n      if (gasleft() < 3e5) {\n        isolate.liquidated = i;\n        return false;\n      }\n      uint256 tokenBalance = IERC20(tokenAddress).balanceOf(address(this));\n      address[] memory path = UniswapV2AdapterLib.generatePathForToken(tokenAddress, WETH, liquidateTo);\n      tokenAddress.approveForMaxIfNeeded(address(router));\n      router.swapExactTokensForTokens(tokenBalance, 1, path, liquidityToken, block.timestamp + 1);\n    }\n    isolate.liquidated = i;\n    return true;\n  }\n  function getExternalIsolateHandler() external view returns (address, address) {\n    SimpleBurnLiquidationModuleLib.Isolate storage isolate = SimpleBurnLiquidationModuleLib.getIsolatePointer();\n    return (isolate.routerAddress, isolate.erc20Module);\n  }\n}\n",
  "sourcePath": "/home/ray/0confirmation/packages/0confirmation-sol/contracts/adapters/liquidity/SimpleBurnLiquidationModule.sol",
  "compiler": {
    "name": "solc",
    "version": "0.6.6+commit.6c089d02.Emscripten.clang"
  },
  "schemaVersion": "3.1.0",
  "updatedAt": "2020-05-24T01:50:15.718Z",
  "devdoc": {
    "methods": {}
  },
  "userdoc": {
    "methods": {}
  }
}