{
  "contractName": "SimpleBurnLiquidationModule",
  "abi": [
    {
      "inputs": [
        {
          "internalType": "address",
          "name": "factoryAddress",
          "type": "address"
        }
      ],
      "stateMutability": "nonpayable",
      "type": "constructor"
    },
    {
      "inputs": [
        {
          "internalType": "address",
          "name": "",
          "type": "address"
        },
        {
          "internalType": "bytes",
          "name": "payload",
          "type": "bytes"
        }
      ],
      "name": "notify",
      "outputs": [
        {
          "internalType": "bool",
          "name": "",
          "type": "bool"
        }
      ],
      "stateMutability": "nonpayable",
      "type": "function"
    },
    {
      "inputs": [],
      "name": "liquidate",
      "outputs": [
        {
          "internalType": "bool",
          "name": "",
          "type": "bool"
        }
      ],
      "stateMutability": "nonpayable",
      "type": "function"
    },
    {
      "inputs": [],
      "name": "getExternalIsolateHandler",
      "outputs": [
        {
          "components": [
            {
              "internalType": "address",
              "name": "factoryAddress",
              "type": "address"
            }
          ],
          "internalType": "struct SimpleBurnLiquidationModuleLib.ExternalIsolate",
          "name": "",
          "type": "tuple"
        }
      ],
      "stateMutability": "view",
      "type": "function"
    }
  ],
  "bytecode": "0x60806040523480156200001157600080fd5b506040516200120738038062001207833981016040819052620000349162000106565b60006200004b6200007160201b620004db1760201c565b80546001600160a01b0319166001600160a01b039390931692909217909155506200015f565b6000620000996200008a6001600160e01b036200009e16565b6001600160e01b03620000cf16565b905090565b6000604051602001620000b19062000136565b6040516020818303038152906040528051906020012060001c905090565b6000620000ee82620000e96001600160e01b03620000f416565b60201c565b92915050565b620004476200010360201b1790565b90565b60006020828403121562000118578081fd5b81516001600160a01b03811681146200012f578182fd5b9392505050565b7f69736f6c6174652e73696d706c652d6275726e00000000000000000000000000815260130190565b611098806200016f6000396000f3fe608060405234801561001057600080fd5b50600436106100415760003560e01c806328a0702514610046578063966ff7a814610064578063fa1fd28c14610079575b600080fd5b61004e61008c565b60405161005b9190610bb7565b60405180910390f35b61006c61044a565b60405161005b9190610ca8565b61004e610087366004610a26565b61047a565b60006100966104bf565b6100a257506000610447565b60006100ac6104db565b805460025460018301549293506001600160a01b039182169291169060005b60038501548210156102ed5760008560020160010183815481106100eb57fe5b6000918252602090912001546001600160a01b039081169150841681141561011357506102e2565b620493e05a101561013557505060019093019290925550600091506104479050565b6040516370a0823160e01b81526000906001600160a01b038316906370a0823190610164903090600401610b70565b60206040518083038186803b15801561017c57600080fd5b505afa158015610190573d6000803e3d6000fd5b505050506040513d601f19601f820116820180604052508101906101b49190610ad6565b90506000866001600160a01b03166306f2bf62846040518263ffffffff1660e01b81526004016101e49190610b70565b60206040518083038186803b1580156101fc57600080fd5b505afa158015610210573d6000803e3d6000fd5b505050506040513d601f19601f820116820180604052508101906102349190610a0a565b905061024f6001600160a01b0384168263ffffffff6104f216565b5060405163ddf7e1a760e01b81526001600160a01b0382169063ddf7e1a790610288908590600090819060014301908d90600401610cbb565b602060405180830381600087803b1580156102a257600080fd5b505af11580156102b6573d6000803e3d6000fd5b505050506040513d601f19601f820116820180604052508101906102da9190610ad6565b840193505050505b6001909101906100cb565b6040516303795fb160e11b81526001600160a01b038516906306f2bf6290610319908690600401610b70565b60206040518083038186803b15801561033157600080fd5b505afa158015610345573d6000803e3d6000fd5b505050506040513d601f19601f820116820180604052508101906103699190610a0a565b6001600160a01b031663f39b5b9b476000436001016040518463ffffffff1660e01b815260040161039b929190610bc2565b6020604051808303818588803b1580156103b457600080fd5b505af11580156103c8573d6000803e3d6000fd5b50505050506040513d601f19601f820116820180604052508101906103ed9190610ad6565b60018601839055600080549290910191610414906001600160a01b0386811691168461055c565b90508061043c5760405162461bcd60e51b815260040161043390610c3c565b60405180910390fd5b600196505050505050505b90565b6104526109e9565b600061045c6104db565b604080516020810190915290546001600160a01b0316815291505090565b600080828060200190518101906104919190610a0a565b9050600061049d6104db565b90506104b2600282018363ffffffff6105d016565b6001925050505b92915050565b6000806104ca61062a565b90506104d581610637565b91505090565b60006104ed6104e86106e1565b610710565b905090565b600080610500843085610726565b90506001600160fe1b0381111561051b5760019150506104b9565b80158015906105335750610531843060006107c5565b155b156105425760009150506104b9565b61055484846001600160ff1b036107c5565b949350505050565b600080846001600160a01b031661057385856107dc565b6040516105809190610aee565b6000604051808303816000865af19150503d80600081146105bd576040519150601f19603f3d011682016040523d82523d6000602084013e6105c2565b606091505b5090925050505b9392505050565b6001600160a01b03811660009081526020839052604090205460ff16156105f657610626565b6001828101805491820181556000908152602090200180546001600160a01b0319166001600160a01b0383161790555b5050565b60006104ed6104e8610832565b600181015460009060ff16610657576001828101805460ff191690911790555b60028201545b82548110156106d6576207a1205a101561067e5760028301555060006106dc565b6106ce83600001828154811061069057fe5b60009182526020918290206040805180820190915260029092020180546001600160a01b03908116835260019091015416918101919091528261084e565b60010161065d565b50600190505b919050565b60006040516020016106f290610b27565b6040516020818303038152906040528051906020012060001c905090565b60006104b98261071e6108f1565b63ffffffff16565b6000806060856001600160a01b031661073f86866108f7565b60405161074c9190610aee565b6000604051808303816000865af19150503d8060008114610789576040519150601f19603f3d011682016040523d82523d6000602084013e61078e565b606091505b50915091508115806107a257508051602014155b156107b2576001925050506105c9565b6107bb81610914565b9695505050505050565b600080846001600160a01b0316610573858561092a565b606063a9059cbb60e01b83836040516024016107f9929190610b9e565b60408051601f198184030181529190526020810180516001600160e01b03166001600160e01b0319909316929092179091529392505050565b600060405161084090610b46565b604051908190039020905090565b6000610885600061085e84610947565b60405161086d602082016109fb565b601f1982820381018352601f90910116604052610977565b6020840151604051638e03e6cd60e01b81529192506001600160a01b03831691638e03e6cd916108ba91309190600401610b84565b600060405180830381600087803b1580156108d457600080fd5b505af11580156108e8573d6000803e3d6000fd5b50505050505050565b61044790565b606063dd62ed3e60e01b83836040516024016107f9929190610b84565b6000818060200190518101906104b99190610ad6565b606063095ea7b360e01b83836040516024016107f9929190610b9e565b60008160405160200161095a9190610b67565b604051602081830303815290604052805190602001209050919050565b6000808447101561099a5760405162461bcd60e51b815260040161043390610c71565b82516109b85760405162461bcd60e51b815260040161043390610bd0565b8383516020850187f590506001600160a01b0381166105545760405162461bcd60e51b815260040161043390610c05565b60408051602081019091526000815290565b61035780610d0c83390190565bfe5b600060208284031215610a1b578081fd5b81516105c981610cf3565b60008060408385031215610a38578081fd5b8235610a4381610cf3565b9150602083013567ffffffffffffffff80821115610a5f578283fd5b81850186601f820112610a70578384fd5b8035925081831115610a80578384fd5b604051601f8401601f191681016020018381118282101715610aa0578586fd5b604052838152818401602001881015610ab7578485fd5b610ac8846020830160208501610ce7565b809450505050509250929050565b600060208284031215610ae7578081fd5b5051919050565b60008251815b81811015610b0e5760208186018101518583015201610af4565b81811115610b1c5782828501525b509190910192915050565b7234b9b7b630ba329739b4b6b8363296b13ab93760691b815260130190565b7434b9b7b630ba329732b931991816b0b230b83a32b960591b815260150190565b90815260200190565b6001600160a01b0391909116815260200190565b6001600160a01b0392831681529116602082015260400190565b6001600160a01b03929092168252602082015260400190565b901515815260200190565b918252602082015260400190565b6020808252818101527f437265617465323a2062797465636f6465206c656e677468206973207a65726f604082015260600190565b60208082526019908201527f437265617465323a204661696c6564206f6e206465706c6f7900000000000000604082015260600190565b6020808252818101527f6c69717569646174656420746f6b656e207472616e73666572206661696c6564604082015260600190565b6020808252601d908201527f437265617465323a20696e73756666696369656e742062616c616e6365000000604082015260600190565b90516001600160a01b0316815260200190565b9485526020850193909352604084019190915260608301526001600160a01b0316608082015260a00190565b82818337506000910152565b6001600160a01b0381168114610d0857600080fd5b5056fe608060405234801561001057600080fd5b50610337806100206000396000f3fe608060405234801561001057600080fd5b506004361061002b5760003560e01c80638e03e6cd14610030575b600080fd5b61005e6004803603604081101561004657600080fd5b506001600160a01b0381358116916020013516610060565b005b4715610109576000826001600160a01b0316475a6040519091906000818181858888f193505050503d80600081146100b4576040519150601f19603f3d011682016040523d82523d6000602084013e6100b9565b606091505b5050905080610107576040805162461bcd60e51b8152602060048201526015602482015274657468657220666f7277617264206661696c75726560581b604482015290519081900360640190fd5b505b6001600160a01b038116156101f057604080516370a0823160e01b815230600482015290516101a79184916001600160a01b038516916370a08231916024808301926020929190829003018186803b15801561016457600080fd5b505afa158015610178573d6000803e3d6000fd5b505050506040513d602081101561018e57600080fd5b50516001600160a01b038416919063ffffffff6101fc16565b6101f0576040805162461bcd60e51b8152602060048201526015602482015274657263323020666f7277617264206661696c75726560581b604482015290519081900360640190fd5b816001600160a01b0316ff5b600080846001600160a01b031661021385856102b5565b6040518082805190602001908083835b602083106102425780518252601f199092019160209182019101610223565b6001836020036101000a0380198251168184511680821785525050505050509050019150506000604051808303816000865af19150503d80600081146102a4576040519150601f19603f3d011682016040523d82523d6000602084013e6102a9565b606091505b50909695505050505050565b604080516001600160a01b0390931660248401526044808401929092528051808403909201825260649092019091526020810180516001600160e01b031663a9059cbb60e01b1790529056fea2646970667358221220a97de453b2a54bb233754795a6baacc1428ef9ceb47b226fde7e88d35c23a61b64736f6c63430006060033a264697066735822122008f63d837361a912dbe61061822f6a3808e3287be93f11cb271957f575fce7b264736f6c63430006060033",
  "immutableReferences": {},
  "source": "pragma solidity ^0.6.0;\npragma experimental ABIEncoderV2;\n\nimport { AddressSetLib } from \"../../utils/AddressSetLib.sol\";\nimport { BorrowProxyLib } from \"../../BorrowProxyLib.sol\";\nimport { IUniswapExchange } from \"../../interfaces/IUniswapExchange.sol\";\nimport { IUniswapFactory } from \"../../interfaces/IUniswapFactory.sol\";\nimport { IERC20 } from \"openzeppelin-solidity/contracts/token/ERC20/IERC20.sol\";\nimport { TokenUtils } from \"../../utils/TokenUtils.sol\";\nimport { SimpleBurnLiquidationModuleLib } from \"./SimpleBurnLiquidationModuleLib.sol\";\nimport { ERC20AdapterLib } from \"../assets/erc20/ERC20AdapterLib.sol\";\n\ncontract SimpleBurnLiquidationModule {\n  using AddressSetLib for *;\n  using TokenUtils for *;\n  BorrowProxyLib.ProxyIsolate proxyIsolate;\n  constructor(address factoryAddress) public {\n    SimpleBurnLiquidationModuleLib.Isolate storage isolate = SimpleBurnLiquidationModuleLib.getIsolatePointer();\n    isolate.factoryAddress = factoryAddress;\n  }\n  function notify(address /* moduleAddress */, bytes memory payload) public returns (bool) {\n    (address token) = abi.decode(payload, (address));\n    SimpleBurnLiquidationModuleLib.Isolate storage isolate = SimpleBurnLiquidationModuleLib.getIsolatePointer();\n    isolate.toLiquidate.insert(token);\n    return true;\n  }\n  function liquidate() public returns (bool) {\n    if (!ERC20AdapterLib.liquidate()) return false;\n    SimpleBurnLiquidationModuleLib.Isolate storage isolate = SimpleBurnLiquidationModuleLib.getIsolatePointer();\n    IUniswapFactory factory = IUniswapFactory(isolate.factoryAddress);\n    address liquidateTo = address(uint160(proxyIsolate.token));\n    uint256 i;\n    uint256 received = 0;\n    for (i = isolate.liquidated; i < isolate.toLiquidate.set.length; i++) {\n      address tokenAddress = isolate.toLiquidate.set[i];\n      if (liquidateTo == tokenAddress) continue;\n      if (gasleft() < 3e5) {\n        isolate.liquidated = i;\n        return false;\n      }\n      uint256 tokenBalance = IERC20(tokenAddress).balanceOf(address(this));\n      address payable exchangeAddress = factory.getExchange(tokenAddress);\n      tokenAddress.approveForMaxIfNeeded(exchangeAddress);\n      received += IUniswapExchange(exchangeAddress).tokenToTokenSwapInput(tokenBalance, 0, 0, block.number + 1, liquidateTo);\n    }\n    received += IUniswapExchange(factory.getExchange(liquidateTo)).ethToTokenSwapInput{ value: address(this).balance }(0, block.number + 1);\n    isolate.liquidated = i;\n    bool success = liquidateTo.sendToken(proxyIsolate.masterAddress, received);\n    require(success, \"liquidated token transfer failed\");\n    return true;\n  }\n  function getExternalIsolateHandler() external view returns (SimpleBurnLiquidationModuleLib.ExternalIsolate memory) {\n    SimpleBurnLiquidationModuleLib.Isolate storage isolate = SimpleBurnLiquidationModuleLib.getIsolatePointer();\n    return SimpleBurnLiquidationModuleLib.ExternalIsolate({\n      factoryAddress: isolate.factoryAddress\n    });\n  }\n}\n",
  "sourcePath": "/home/ray/0confirmation/packages/0confirmation-sol/contracts/adapters/liquidity/SimpleBurnLiquidationModule.sol",
  "compiler": {
    "name": "solc",
    "version": "0.6.6+commit.6c089d02.Emscripten.clang"
  },
  "schemaVersion": "3.1.0",
  "updatedAt": "2020-04-24T21:00:31.207Z",
  "devdoc": {
    "methods": {}
  },
  "userdoc": {
    "methods": {}
  }
}