{
  "contractName": "StringTest",
  "abi": [
    {
      "constant": true,
      "inputs": [
        {
          "internalType": "uint256",
          "name": "_i",
          "type": "uint256"
        }
      ],
      "name": "fromUint",
      "outputs": [
        {
          "internalType": "string",
          "name": "",
          "type": "string"
        }
      ],
      "payable": false,
      "stateMutability": "pure",
      "type": "function"
    },
    {
      "constant": true,
      "inputs": [
        {
          "internalType": "bytes32",
          "name": "_value",
          "type": "bytes32"
        }
      ],
      "name": "fromBytes32",
      "outputs": [
        {
          "internalType": "string",
          "name": "",
          "type": "string"
        }
      ],
      "payable": false,
      "stateMutability": "pure",
      "type": "function"
    },
    {
      "constant": true,
      "inputs": [
        {
          "internalType": "address",
          "name": "_addr",
          "type": "address"
        }
      ],
      "name": "fromAddress",
      "outputs": [
        {
          "internalType": "string",
          "name": "",
          "type": "string"
        }
      ],
      "payable": false,
      "stateMutability": "pure",
      "type": "function"
    },
    {
      "constant": true,
      "inputs": [
        {
          "internalType": "string",
          "name": "a",
          "type": "string"
        },
        {
          "internalType": "string",
          "name": "b",
          "type": "string"
        },
        {
          "internalType": "string",
          "name": "c",
          "type": "string"
        },
        {
          "internalType": "string",
          "name": "d",
          "type": "string"
        }
      ],
      "name": "add4",
      "outputs": [
        {
          "internalType": "string",
          "name": "",
          "type": "string"
        }
      ],
      "payable": false,
      "stateMutability": "pure",
      "type": "function"
    }
  ],
  "bytecode": "0x608060405234801561001057600080fd5b50610d51806100206000396000f3fe608060405234801561001057600080fd5b506004361061004c5760003560e01c80634abd3462146100515780637d3d11d01461034a578063b72e717d146103f1578063e3814b19146104ae575b600080fd5b6102cf6004803603608081101561006757600080fd5b810190808035906020019064010000000081111561008457600080fd5b82018360208201111561009657600080fd5b803590602001918460018302840111640100000000831117156100b857600080fd5b91908080601f016020809104026020016040519081016040528093929190818152602001838380828437600081840152601f19601f8201169050808301925050505050505091929192908035906020019064010000000081111561011b57600080fd5b82018360208201111561012d57600080fd5b8035906020019184600183028401116401000000008311171561014f57600080fd5b91908080601f016020809104026020016040519081016040528093929190818152602001838380828437600081840152601f19601f820116905080830192505050505050509192919290803590602001906401000000008111156101b257600080fd5b8201836020820111156101c457600080fd5b803590602001918460018302840111640100000000831117156101e657600080fd5b91908080601f016020809104026020016040519081016040528093929190818152602001838380828437600081840152601f19601f8201169050808301925050505050505091929192908035906020019064010000000081111561024957600080fd5b82018360208201111561025b57600080fd5b8035906020019184600183028401116401000000008311171561027d57600080fd5b91908080601f016020809104026020016040519081016040528093929190818152602001838380828437600081840152601f19601f820116905080830192505050505050509192919290505050610555565b6040518080602001828103825283818151815260200191508051906020019080838360005b8381101561030f5780820151818401526020810190506102f4565b50505050905090810190601f16801561033c5780820380516001836020036101000a031916815260200191505b509250505060405180910390f35b6103766004803603602081101561036057600080fd5b810190808035906020019092919050505061056d565b6040518080602001828103825283818151815260200191508051906020019080838360005b838110156103b657808201518184015260208101905061039b565b50505050905090810190601f1680156103e35780820380516001836020036101000a031916815260200191505b509250505060405180910390f35b6104336004803603602081101561040757600080fd5b81019080803573ffffffffffffffffffffffffffffffffffffffff16906020019092919050505061057f565b6040518080602001828103825283818151815260200191508051906020019080838360005b83811015610473578082015181840152602081019050610458565b50505050905090810190601f1680156104a05780820380516001836020036101000a031916815260200191505b509250505060405180910390f35b6104da600480360360208110156104c457600080fd5b8101908080359060200190929190505050610591565b6040518080602001828103825283818151815260200191508051906020019080838360005b8381101561051a5780820151818401526020810190506104ff565b50505050905090810190601f1680156105475780820380516001836020036101000a031916815260200191505b509250505060405180910390f35b6060610563858585856105a3565b9050949350505050565b606061057882610713565b9050919050565b606061058a8261096e565b9050919050565b606061059c82610bef565b9050919050565b6060848484846040516020018085805190602001908083835b602083106105df57805182526020820191506020810190506020830392506105bc565b6001836020036101000a03801982511681845116808217855250505050505090500184805190602001908083835b60208310610630578051825260208201915060208101905060208303925061060d565b6001836020036101000a03801982511681845116808217855250505050505090500183805190602001908083835b60208310610681578051825260208201915060208101905060208303925061065e565b6001836020036101000a03801982511681845116808217855250505050505090500182805190602001908083835b602083106106d257805182526020820191506020810190506020830392506106af565b6001836020036101000a0380198251168184511680821785525050505050509050019450505050506040516020818303038152906040529050949350505050565b6060806040518060400160405280601081526020017f30313233343536373839616263646566000000000000000000000000000000008152509050606060426040519080825280601f01601f1916602001820160405280156107845781602001600182028038833980820191505090505b5090507f3000000000000000000000000000000000000000000000000000000000000000816000815181106107b557fe5b60200101907effffffffffffffffffffffffffffffffffffffffffffffffffffffffffffff1916908160001a9053507f78000000000000000000000000000000000000000000000000000000000000008160018151811061081257fe5b60200101907effffffffffffffffffffffffffffffffffffffffffffffffffffffffffffff1916908160001a90535060008090505b60208110156109635782600486836020811061085f57fe5b1a60f81b7effffffffffffffffffffffffffffffffffffffffffffffffffffffffffffff1916901c60f81c60ff168151811061089757fe5b602001015160f81c60f81b8260028302600201815181106108b457fe5b60200101907effffffffffffffffffffffffffffffffffffffffffffffffffffffffffffff1916908160001a90535082600f60f81b8683602081106108f557fe5b1a60f81b1660f81c60ff168151811061090a57fe5b602001015160f81c60f81b82600283026003018151811061092757fe5b60200101907effffffffffffffffffffffffffffffffffffffffffffffffffffffffffffff1916908160001a9053508080600101915050610847565b508092505050919050565b606060008273ffffffffffffffffffffffffffffffffffffffff1660001b905060606040518060400160405280601081526020017f303132333435363738396162636465660000000000000000000000000000000081525090506060602a6040519080825280601f01601f1916602001820160405280156109fe5781602001600182028038833980820191505090505b5090507f300000000000000000000000000000000000000000000000000000000000000081600081518110610a2f57fe5b60200101907effffffffffffffffffffffffffffffffffffffffffffffffffffffffffffff1916908160001a9053507f780000000000000000000000000000000000000000000000000000000000000081600181518110610a8c57fe5b60200101907effffffffffffffffffffffffffffffffffffffffffffffffffffffffffffff1916908160001a90535060008090505b6014811015610be35782600485600c840160208110610adc57fe5b1a60f81b7effffffffffffffffffffffffffffffffffffffffffffffffffffffffffffff1916901c60f81c60ff1681518110610b1457fe5b602001015160f81c60f81b826002830260020181518110610b3157fe5b60200101907effffffffffffffffffffffffffffffffffffffffffffffffffffffffffffff1916908160001a90535082600f60f81b85600c840160208110610b7557fe5b1a60f81b1660f81c60ff1681518110610b8a57fe5b602001015160f81c60f81b826002830260030181518110610ba757fe5b60200101907effffffffffffffffffffffffffffffffffffffffffffffffffffffffffffff1916908160001a9053508080600101915050610ac1565b50809350505050919050565b60606000821415610c37576040518060400160405280600181526020017f30000000000000000000000000000000000000000000000000000000000000008152509050610d17565b600082905060005b60008214610c61578080600101915050600a8281610c5957fe5b049150610c3f565b6060816040519080825280601f01601f191660200182016040528015610c965781602001600182028038833980820191505090505b50905060006001830390505b60008614610d0f57600a8681610cb457fe5b0660300160f81b82828060019003935081518110610cce57fe5b60200101907effffffffffffffffffffffffffffffffffffffffffffffffffffffffffffff1916908160001a905350600a8681610d0757fe5b049550610ca2565b819450505050505b91905056fea265627a7a723158207c4be71ca8af031e8981ba61d33b68e7aa412f85c269be1bb5e94c76fd801efc64736f6c634300050c0032",
  "source": "pragma solidity 0.5.12;\n\nimport { String } from \"../libraries/String.sol\";\n\n/// @dev StringTest exposes the internal functions of String.sol\ncontract StringTest {\n\n    function fromUint(uint _i) public pure returns(string memory) {\n        return String.fromUint(_i);\n    }\n\n    function fromBytes32(bytes32 _value) public pure returns(string memory) {\n        return String.fromBytes32(_value);\n    }\n\n    function fromAddress(address _addr) public pure returns(string memory) {\n        return String.fromAddress(_addr);\n    }\n\n    function add4(string memory a, string memory b, string memory c, string memory d) public pure returns (string memory) {\n        return String.add4(a, b, c, d);\n    }\n}\n",
  "sourcePath": "/home/ray/0confirmation-mono/node_modules/darknode-sol/contracts/test/StringTest.sol",
  "compiler": {
    "name": "solc",
    "version": "0.5.12+commit.7709ece9.Linux.g++"
  },
  "schemaVersion": "3.0.23",
  "updatedAt": "2020-03-08T19:15:48.096Z",
  "devdoc": {
    "details": "StringTest exposes the internal functions of String.sol",
    "methods": {}
  },
  "userdoc": {
    "methods": {}
  }
}