{
  "contractName": "SwapEntireLoan",
  "abi": [
    {
      "inputs": [
        {
          "internalType": "address",
          "name": "_factory",
          "type": "address"
        },
        {
          "internalType": "address",
          "name": "_target",
          "type": "address"
        }
      ],
      "stateMutability": "nonpayable",
      "type": "constructor"
    },
    {
      "inputs": [
        {
          "internalType": "bytes",
          "name": "data",
          "type": "bytes"
        }
      ],
      "name": "execute",
      "outputs": [
        {
          "components": [
            {
              "internalType": "address",
              "name": "to",
              "type": "address"
            },
            {
              "internalType": "bytes",
              "name": "txData",
              "type": "bytes"
            }
          ],
          "internalType": "struct ShifterBorrowProxyLib.InitializationAction[]",
          "name": "result",
          "type": "tuple[]"
        }
      ],
      "stateMutability": "view",
      "type": "function"
    }
  ],
  "bytecode": "0x608060405234801561001057600080fd5b5060405161077d38038061077d83398101604081905261002f91610060565b600b80546001600160a01b039384166001600160a01b031991821617909155600c80549290931691161790556100b1565b60008060408385031215610072578182fd5b825161007d81610099565b602084015190925061008e81610099565b809150509250929050565b6001600160a01b03811681146100ae57600080fd5b50565b6106bd806100c06000396000f3fe608060405234801561001057600080fd5b506004361061002b5760003560e01c806309c5eabe14610030575b600080fd5b61004361003e366004610378565b610059565b6040516100509190610516565b60405180910390f35b60606100636102a1565b61006c836101f4565b6002546040516370a0823160e01b81529192506101ed9163ddf7e1a760e01b916001600160a01b0316906370a08231906100aa903090600401610502565b60206040518083038186803b1580156100c257600080fd5b505afa1580156100d6573d6000803e3d6000fd5b505050506040513d601f19601f820116820180604052508101906100fa91906104ea565b600c5460405161012292916001918291428301916001600160a01b03909116906024016105ad565b60408051601f198184030181529181526020820180516001600160e01b03166001600160e01b031990941693909317909252600b5460025492516303795fb160e11b815291926001600160a01b03918216926306f2bf6292610188921690600401610502565b60206040518083038186803b1580156101a057600080fd5b505afa1580156101b4573d6000803e3d6000fd5b505050506040513d601f19601f820116820180604052508101906101d8919061035c565b6001600160a01b03169063ffffffff61020b16565b9392505050565b6101fc6102a1565b61020582610233565b92915050565b60606101ed6040518060400160405280856001600160a01b031681526020018481525061024f565b61023b6102a1565b8180602001905181019061020591906103ef565b604080516001808252818301909252606091816020015b61026e6102c1565b815260200190600190039081610266579050509050818160008151811061029157fe5b6020026020010181905250919050565b60405180604001604052806102b46102d9565b8152600060209091015290565b60408051808201909152600081526060602082015290565b604080516080810182526000808252606060208301819052928201528181019190915290565b80516102058161066f565b600082601f83011261031a578081fd5b815161032d61032882610606565b6105df565b915080825283602082850101111561034457600080fd5b61035581602084016020860161063f565b5092915050565b60006020828403121561036d578081fd5b81516101ed8161066f565b600060208284031215610389578081fd5b813567ffffffffffffffff81111561039f578182fd5b80830184601f8201126103b0578283fd5b803591506103c061032883610606565b8281528560208484010111156103d4578384fd5b82602083016020830137918201602001929092529392505050565b600060208284031215610400578081fd5b815167ffffffffffffffff80821115610417578283fd5b81840160408187031215610429578384fd5b61043360406105df565b9250805182811115610443578485fd5b80820160808189031215610455578586fd5b61045f60806105df565b9150805161046c8161066f565b825260208101518481111561047f578687fd5b61048b8982840161030a565b602084015250604081015180151581146104a3578687fd5b60408301526060810151848111156104b9578687fd5b6104c58982840161030a565b6060840152505083526104db86602083016102ff565b60208401525090949350505050565b6000602082840312156104fb578081fd5b5051919050565b6001600160a01b0391909116815260200190565b60208082528251828201819052600091906040908185019080840286018301878501865b8381101561059f57603f1989840301855281516105578151610633565b84528701518784018790528051906105718289870161062a565b61057e83828c850161063f565b96890196601f92909201601f1916919091019350509086019060010161053a565b509098975050505050505050565b94855260ff938416602086015291909216604084015260608301919091526001600160a01b0316608082015260a00190565b60405181810167ffffffffffffffff811182821017156105fe57600080fd5b604052919050565b600067ffffffffffffffff82111561061c578081fd5b50601f01601f191660200190565b90815260200190565b6001600160a01b031690565b60005b8381101561065a578181015183820152602001610642565b83811115610669576000848401525b50505050565b6001600160a01b038116811461068457600080fd5b5056fea2646970667358221220531d90354c2147ee636b5399ab666df664dd9f742765c970bcc0ab32a802993e64736f6c63430006060033",
  "immutableReferences": {},
  "source": "pragma solidity ^0.6.0;\npragma experimental ABIEncoderV2;\n\nimport { PreprocessorLib } from \"./lib/PreprocessorLib.sol\";\nimport { IERC20 } from \"openzeppelin-solidity/contracts/token/ERC20/IERC20.sol\";\nimport { IUniswapExchange } from \"../interfaces/IUniswapExchange.sol\";\nimport { IUniswapFactory } from \"../interfaces/IUniswapFactory.sol\";\nimport { ShifterBorrowProxyLib } from \"../ShifterBorrowProxyLib.sol\";\nimport { SandboxLib } from \"../utils/sandbox/SandboxLib.sol\";\nimport { BorrowProxyLib } from \"../BorrowProxyLib.sol\";\n\ncontract SwapEntireLoan {\n  using PreprocessorLib for *;\n  BorrowProxyLib.ProxyIsolate isolate;\n  address factory;\n  address target;\n  constructor(address _factory, address _target) public {\n    factory = _factory;\n    target = _target;\n  }\n  function execute(bytes memory data) view public returns (ShifterBorrowProxyLib.InitializationAction[] memory result) {\n    SandboxLib.ExecutionContext memory context = data.toContext();\n    result = IUniswapFactory(factory)\n      .getExchange(isolate.token)\n      .sendTransaction(abi.encodeWithSelector(\n        IUniswapExchange.tokenToTokenSwapInput.selector,\n        IERC20(isolate.token).balanceOf(address(this)),\n        1,\n        1,\n        block.timestamp + 1,\n        target));\n  }\n}\n",
  "sourcePath": "/home/ray/0confirmation/packages/0confirmation-sol/contracts/preprocessors/SwapEntireLoan.sol",
  "compiler": {
    "name": "solc",
    "version": "0.6.6+commit.6c089d02.Emscripten.clang"
  },
  "schemaVersion": "3.1.0",
  "updatedAt": "2020-04-26T05:25:59.868Z",
  "devdoc": {
    "methods": {}
  },
  "userdoc": {
    "methods": {}
  }
}