{
  "contractName": "SwapEntireLoan",
  "abi": [
    {
      "inputs": [
        {
          "internalType": "address",
          "name": "_factory",
          "type": "address"
        },
        {
          "internalType": "address",
          "name": "_target",
          "type": "address"
        }
      ],
      "stateMutability": "nonpayable",
      "type": "constructor"
    },
    {
      "inputs": [],
      "name": "factory",
      "outputs": [
        {
          "internalType": "address",
          "name": "",
          "type": "address"
        }
      ],
      "stateMutability": "view",
      "type": "function"
    },
    {
      "inputs": [],
      "name": "target",
      "outputs": [
        {
          "internalType": "address",
          "name": "",
          "type": "address"
        }
      ],
      "stateMutability": "view",
      "type": "function"
    },
    {
      "inputs": [
        {
          "internalType": "bytes",
          "name": "data",
          "type": "bytes"
        }
      ],
      "name": "execute",
      "outputs": [
        {
          "components": [
            {
              "internalType": "address",
              "name": "to",
              "type": "address"
            },
            {
              "internalType": "bytes",
              "name": "txData",
              "type": "bytes"
            }
          ],
          "internalType": "struct ShifterBorrowProxyLib.InitializationAction[]",
          "name": "result",
          "type": "tuple[]"
        }
      ],
      "stateMutability": "view",
      "type": "function"
    }
  ],
  "bytecode": "0x608060405234801561001057600080fd5b5060405161089338038061089383398101604081905261002f91610060565b600b80546001600160a01b039384166001600160a01b031991821617909155600c80549290931691161790556100b1565b60008060408385031215610072578182fd5b825161007d81610099565b602084015190925061008e81610099565b809150509250929050565b6001600160a01b03811681146100ae57600080fd5b50565b6107d3806100c06000396000f3fe608060405234801561001057600080fd5b50600436106100415760003560e01c806309c5eabe14610046578063c45a01551461006f578063d4b8399214610084575b600080fd5b6100596100543660046104a4565b61008c565b6040516100669190610642565b60405180910390f35b610077610302565b604051610066919061062e565b610077610311565b60606100966103cd565b61009f83610320565b6002546040516370a0823160e01b81529192506102fb9163ddf7e1a760e01b916001600160a01b0316906370a08231906100dd90309060040161062e565b60206040518083038186803b1580156100f557600080fd5b505afa158015610109573d6000803e3d6000fd5b505050506040513d601f19601f8201168201806040525081019061012d9190610616565b6001804260010186602001516001600160a01b031663d4b839926040518163ffffffff1660e01b815260040160206040518083038186803b15801561017157600080fd5b505afa158015610185573d6000803e3d6000fd5b505050506040513d601f19601f820116820180604052508101906101a99190610488565b6040516024016101bd9594939291906106d8565b604051602081830303815290604052906001600160e01b0319166020820180516001600160e01b03838183161783525050505082602001516001600160a01b031663c45a01556040518163ffffffff1660e01b815260040160206040518083038186803b15801561022d57600080fd5b505afa158015610241573d6000803e3d6000fd5b505050506040513d601f19601f820116820180604052508101906102659190610488565b6002546040516303795fb160e11b81526001600160a01b03928316926306f2bf62926102969291169060040161062e565b60206040518083038186803b1580156102ae57600080fd5b505afa1580156102c2573d6000803e3d6000fd5b505050506040513d601f19601f820116820180604052508101906102e69190610488565b6001600160a01b03169063ffffffff61033716565b9392505050565b600b546001600160a01b031681565b600c546001600160a01b031681565b6103286103cd565b6103318261035f565b92915050565b60606102fb6040518060400160405280856001600160a01b031681526020018481525061037b565b6103676103cd565b81806020019051810190610331919061051b565b604080516001808252818301909252606091816020015b61039a6103ed565b81526020019060019003908161039257905050905081816000815181106103bd57fe5b6020026020010181905250919050565b60405180604001604052806103e0610405565b8152600060209091015290565b60408051808201909152600081526060602082015290565b604080516080810182526000808252606060208301819052928201528181019190915290565b805161033181610785565b600082601f830112610446578081fd5b815161045961045482610731565b61070a565b915080825283602082850101111561047057600080fd5b610481816020840160208601610755565b5092915050565b600060208284031215610499578081fd5b81516102fb81610785565b6000602082840312156104b5578081fd5b813567ffffffffffffffff8111156104cb578182fd5b80830184601f8201126104dc578283fd5b803591506104ec61045483610731565b828152856020848401011115610500578384fd5b82602083016020830137918201602001929092529392505050565b60006020828403121561052c578081fd5b815167ffffffffffffffff80821115610543578283fd5b81840160408187031215610555578384fd5b61055f604061070a565b925080518281111561056f578485fd5b80820160808189031215610581578586fd5b61058b608061070a565b9150805161059881610785565b82526020810151848111156105ab578687fd5b6105b789828401610436565b602084015250604081015180151581146105cf578687fd5b60408301526060810151848111156105e5578687fd5b6105f189828401610436565b606084015250508352610607866020830161042b565b60208401525090949350505050565b600060208284031215610627578081fd5b5051919050565b6001600160a01b0391909116815260200190565b60208082528251828201819052600091906040908185019080840286018301878501865b838110156106ca57888303603f19018552815180516001600160a01b0316845287015187840187905280518785018190529060606106a983828801848d01610755565b96890196601f92909201601f19169490940101925090860190600101610666565b509098975050505050505050565b94855260ff938416602086015291909216604084015260608301919091526001600160a01b0316608082015260a00190565b60405181810167ffffffffffffffff8111828210171561072957600080fd5b604052919050565b600067ffffffffffffffff821115610747578081fd5b50601f01601f191660200190565b60005b83811015610770578181015183820152602001610758565b8381111561077f576000848401525b50505050565b6001600160a01b038116811461079a57600080fd5b5056fea264697066735822122025291667dede8ce7e51475581c5bd874ecf178079b8d7d49088d3285433c1d6964736f6c63430006060033",
  "immutableReferences": {},
  "source": "pragma solidity ^0.6.0;\npragma experimental ABIEncoderV2;\n\nimport { PreprocessorLib } from \"./lib/PreprocessorLib.sol\";\nimport { IUniswapExchange } from \"../interfaces/IUniswapExchange.sol\";\nimport { IUniswapFactory } from \"../interfaces/IUniswapFactory.sol\";\nimport { ShifterBorrowProxyLib } from \"../ShifterBorrowProxyLib.sol\";\nimport { SandboxLib } from \"../utils/sandbox/SandboxLib.sol\";\nimport { BorrowProxyLib } from \"../BorrowProxyLib.sol\";\nimport { IERC20 } from \"openzeppelin-solidity/contracts/token/ERC20/IERC20.sol\";\nimport { StringLib } from \"../utils/StringLib.sol\";\n\ncontract SwapEntireLoan {\n  using PreprocessorLib for *;\n  using StringLib for *;\n  BorrowProxyLib.ProxyIsolate isolate;\n  address public factory;\n  address public target;\n  constructor(address _factory, address _target) public {\n    factory = _factory;\n    target = _target;\n  }\n  function execute(bytes memory data) view public returns (ShifterBorrowProxyLib.InitializationAction[] memory result) {\n    SandboxLib.ExecutionContext memory context = data.toContext();\n    result = IUniswapFactory(SwapEntireLoan(context.preprocessorAddress).factory())\n      .getExchange(isolate.token)\n      .sendTransaction(abi.encodeWithSelector(\n        IUniswapExchange.tokenToTokenSwapInput.selector,\n        IERC20(isolate.token).balanceOf(address(this)),\n        1,\n        1,\n        block.timestamp + 1,\n        SwapEntireLoan(context.preprocessorAddress).target()));\n  }\n}\n",
  "sourcePath": "/Users/ray/0confirmation/packages/0confirmation-sol/contracts/preprocessors/SwapEntireLoan.sol",
  "compiler": {
    "name": "solc",
    "version": "0.6.6+commit.6c089d02.Emscripten.clang"
  },
  "schemaVersion": "3.1.0",
  "updatedAt": "2020-04-27T10:27:50.971Z",
  "devdoc": {
    "methods": {}
  },
  "userdoc": {
    "methods": {}
  }
}