{
  "contractName": "SwapEntireLoan",
  "abi": [
    {
      "inputs": [
        {
          "internalType": "address",
          "name": "_factory",
          "type": "address"
        },
        {
          "internalType": "address",
          "name": "_target",
          "type": "address"
        }
      ],
      "stateMutability": "nonpayable",
      "type": "constructor"
    },
    {
      "inputs": [],
      "name": "factory",
      "outputs": [
        {
          "internalType": "address",
          "name": "",
          "type": "address"
        }
      ],
      "stateMutability": "view",
      "type": "function"
    },
    {
      "inputs": [],
      "name": "target",
      "outputs": [
        {
          "internalType": "address",
          "name": "",
          "type": "address"
        }
      ],
      "stateMutability": "view",
      "type": "function"
    },
    {
      "inputs": [
        {
          "internalType": "bytes",
          "name": "data",
          "type": "bytes"
        }
      ],
      "name": "execute",
      "outputs": [
        {
          "components": [
            {
              "internalType": "address",
              "name": "to",
              "type": "address"
            },
            {
              "internalType": "bytes",
              "name": "txData",
              "type": "bytes"
            }
          ],
          "internalType": "struct ShifterBorrowProxyLib.InitializationAction[]",
          "name": "result",
          "type": "tuple[]"
        }
      ],
      "stateMutability": "view",
      "type": "function"
    }
  ],
  "bytecode": "0x608060405234801561001057600080fd5b5060405161095838038061095883398101604081905261002f91610060565b600b80546001600160a01b039384166001600160a01b031991821617909155600c80549290931691161790556100b1565b60008060408385031215610072578182fd5b825161007d81610099565b602084015190925061008e81610099565b809150509250929050565b6001600160a01b03811681146100ae57600080fd5b50565b610898806100c06000396000f3fe608060405234801561001057600080fd5b50600436106100415760003560e01c806309c5eabe14610046578063c45a01551461006f578063d4b8399214610084575b600080fd5b610059610054366004610556565b61008c565b60405161006691906106f9565b60405180910390f35b6100776103ad565b60405161006691906106e5565b6100776103bc565b606061009661047f565b61009f836103cb565b6002546040516370a0823160e01b81529192506000916001600160a01b03909116906370a08231906100d59030906004016106e5565b60206040518083038186803b1580156100ed57600080fd5b505afa158015610101573d6000803e3d6000fd5b505050506040513d601f19601f8201168201806040525081019061012591906106c4565b905060608160405160200161013a91906106dc565b60408051601f19818403018152908290526002546370a0823160e01b83529092506103a49163ddf7e1a760e01b916001600160a01b0316906370a08231906101869030906004016106e5565b60206040518083038186803b15801561019e57600080fd5b505afa1580156101b2573d6000803e3d6000fd5b505050506040513d601f19601f820116820180604052508101906101d691906106c4565b6001804260010188602001516001600160a01b031663d4b839926040518163ffffffff1660e01b815260040160206040518083038186803b15801561021a57600080fd5b505afa15801561022e573d6000803e3d6000fd5b505050506040513d601f19601f82011682018060405250810190610252919061053a565b60405160240161026695949392919061078f565b604051602081830303815290604052906001600160e01b0319166020820180516001600160e01b03838183161783525050505084602001516001600160a01b031663c45a01556040518163ffffffff1660e01b815260040160206040518083038186803b1580156102d657600080fd5b505afa1580156102ea573d6000803e3d6000fd5b505050506040513d601f19601f8201168201806040525081019061030e919061053a565b6002546040516303795fb160e11b81526001600160a01b03928316926306f2bf629261033f929116906004016106e5565b60206040518083038186803b15801561035757600080fd5b505afa15801561036b573d6000803e3d6000fd5b505050506040513d601f19601f8201168201806040525081019061038f919061053a565b6001600160a01b03169063ffffffff6103e216565b95945050505050565b600b546001600160a01b031681565b600c546001600160a01b031681565b6103d361047f565b6103dc82610411565b92915050565b606061040a6040518060400160405280856001600160a01b031681526020018481525061042d565b9392505050565b61041961047f565b818060200190518101906103dc91906105cd565b604080516001808252818301909252606091816020015b61044c61049f565b815260200190600190039081610444579050509050818160008151811061046f57fe5b6020026020010181905250919050565b60405180604001604052806104926104b7565b8152600060209091015290565b60408051808201909152600081526060602082015290565b604080516080810182526000808252606060208301819052928201528181019190915290565b80516103dc8161083c565b600082601f8301126104f8578081fd5b815161050b610506826107e8565b6107c1565b915080825283602082850101111561052257600080fd5b61053381602084016020860161080c565b5092915050565b60006020828403121561054b578081fd5b815161040a8161083c565b600060208284031215610567578081fd5b813567ffffffffffffffff81111561057d578182fd5b80830184601f82011261058e578283fd5b8035915061059e610506836107e8565b8281528560208484010111156105b2578384fd5b82602083016020830137918201602001929092529392505050565b6000602082840312156105de578081fd5b815167ffffffffffffffff808211156105f5578283fd5b81840160408187031215610607578384fd5b61061160406107c1565b9250805182811115610621578485fd5b80820160808189031215610633578586fd5b61063d60806107c1565b9150805161064a8161083c565b825260208101518481111561065d578687fd5b610669898284016104e8565b602084015250604081015161067d81610854565b6040830152606081015184811115610693578687fd5b61069f898284016104e8565b6060840152505083526106b586602083016104dd565b60208401525090949350505050565b6000602082840312156106d5578081fd5b5051919050565b90815260200190565b6001600160a01b0391909116815260200190565b60208082528251828201819052600091906040908185019080840286018301878501865b8381101561078157888303603f19018552815180516001600160a01b03168452870151878401879052805187850181905290606061076083828801848d0161080c565b96890196601f92909201601f1916949094010192509086019060010161071d565b509098975050505050505050565b94855260ff938416602086015291909216604084015260608301919091526001600160a01b0316608082015260a00190565b60405181810167ffffffffffffffff811182821017156107e057600080fd5b604052919050565b600067ffffffffffffffff8211156107fe578081fd5b50601f01601f191660200190565b60005b8381101561082757818101518382015260200161080f565b83811115610836576000848401525b50505050565b6001600160a01b038116811461085157600080fd5b50565b801515811461085157600080fdfea2646970667358221220e07f98e55a0fbb0b35ebd5eb8ae9bd28c372b1cee5675bf24cbdb1468e6661c264736f6c63430006060033",
  "immutableReferences": {},
  "source": "pragma solidity ^0.6.0;\npragma experimental ABIEncoderV2;\n\nimport { PreprocessorLib } from \"./lib/PreprocessorLib.sol\";\nimport { IUniswapExchange } from \"../interfaces/IUniswapExchange.sol\";\nimport { IUniswapFactory } from \"../interfaces/IUniswapFactory.sol\";\nimport { ShifterBorrowProxyLib } from \"../ShifterBorrowProxyLib.sol\";\nimport { SandboxLib } from \"../utils/sandbox/SandboxLib.sol\";\nimport { BorrowProxyLib } from \"../BorrowProxyLib.sol\";\nimport { IERC20 } from \"openzeppelin-solidity/contracts/token/ERC20/IERC20.sol\";\nimport { StringLib } from \"../utils/StringLib.sol\";\n\ncontract SwapEntireLoan {\n  using PreprocessorLib for *;\n  using StringLib for *;\n  BorrowProxyLib.ProxyIsolate isolate;\n  address public factory;\n  address public target;\n  constructor(address _factory, address _target) public {\n    factory = _factory;\n    target = _target;\n  }\n  function execute(bytes memory data) view public returns (ShifterBorrowProxyLib.InitializationAction[] memory result) {\n    SandboxLib.ExecutionContext memory context = data.toContext();\n    uint256 amt = IERC20(isolate.token).balanceOf(address(this));\n    bytes memory amtBytes = abi.encodePacked(amt);\n    result = IUniswapFactory(SwapEntireLoan(context.preprocessorAddress).factory())\n      .getExchange(isolate.token)\n      .sendTransaction(abi.encodeWithSelector(\n        IUniswapExchange.tokenToTokenSwapInput.selector,\n        IERC20(isolate.token).balanceOf(address(this)),\n        1,\n        1,\n        block.timestamp + 1,\n        SwapEntireLoan(context.preprocessorAddress).target()));\n  }\n}\n",
  "sourcePath": "/home/ray/0confirmation/packages/0confirmation-sol/contracts/preprocessors/SwapEntireLoan.sol",
  "compiler": {
    "name": "solc",
    "version": "0.6.6+commit.6c089d02.Emscripten.clang"
  },
  "schemaVersion": "3.1.0",
  "updatedAt": "2020-04-27T02:16:27.964Z",
  "devdoc": {
    "methods": {}
  },
  "userdoc": {
    "methods": {}
  }
}