{
  "contractName": "SwapEntireLoan",
  "abi": [
    {
      "inputs": [],
      "name": "factory",
      "outputs": [
        {
          "internalType": "address",
          "name": "",
          "type": "address"
        }
      ],
      "stateMutability": "view",
      "type": "function"
    },
    {
      "inputs": [],
      "name": "target",
      "outputs": [
        {
          "internalType": "address",
          "name": "",
          "type": "address"
        }
      ],
      "stateMutability": "view",
      "type": "function"
    },
    {
      "inputs": [
        {
          "internalType": "bytes",
          "name": "consData",
          "type": "bytes"
        }
      ],
      "name": "setup",
      "outputs": [],
      "stateMutability": "nonpayable",
      "type": "function"
    },
    {
      "inputs": [
        {
          "internalType": "bytes",
          "name": "data",
          "type": "bytes"
        }
      ],
      "name": "execute",
      "outputs": [
        {
          "components": [
            {
              "internalType": "address",
              "name": "to",
              "type": "address"
            },
            {
              "internalType": "bytes",
              "name": "txData",
              "type": "bytes"
            }
          ],
          "internalType": "struct ShifterBorrowProxyLib.InitializationAction[]",
          "name": "result",
          "type": "tuple[]"
        }
      ],
      "stateMutability": "view",
      "type": "function"
    }
  ],
  "bytecode": "0x608060405234801561001057600080fd5b5061086f806100206000396000f3fe608060405234801561001057600080fd5b506004361061004c5760003560e01c806309c5eabe146100515780639ded06df1461007a578063c45a01551461008f578063d4b83992146100a4575b600080fd5b61006461005f366004610540565b6100ac565b60405161007191906106de565b60405180910390f35b61008d610088366004610540565b610322565b005b610097610365565b60405161007191906106ca565b610097610374565b60606100b6610430565b6100bf83610383565b6002546040516370a0823160e01b815291925061031b9163ddf7e1a760e01b916001600160a01b0316906370a08231906100fd9030906004016106ca565b60206040518083038186803b15801561011557600080fd5b505afa158015610129573d6000803e3d6000fd5b505050506040513d601f19601f8201168201806040525081019061014d91906106b2565b6001804260010186602001516001600160a01b031663d4b839926040518163ffffffff1660e01b815260040160206040518083038186803b15801561019157600080fd5b505afa1580156101a5573d6000803e3d6000fd5b505050506040513d601f19601f820116820180604052508101906101c991906104eb565b6040516024016101dd959493929190610774565b604051602081830303815290604052906001600160e01b0319166020820180516001600160e01b03838183161783525050505082602001516001600160a01b031663c45a01556040518163ffffffff1660e01b815260040160206040518083038186803b15801561024d57600080fd5b505afa158015610261573d6000803e3d6000fd5b505050506040513d601f19601f8201168201806040525081019061028591906104eb565b6002546040516303795fb160e11b81526001600160a01b03928316926306f2bf62926102b6929116906004016106ca565b60206040518083038186803b1580156102ce57600080fd5b505afa1580156102e2573d6000803e3d6000fd5b505050506040513d601f19601f8201168201806040525081019061030691906104eb565b6001600160a01b03169063ffffffff61039a16565b9392505050565b808060200190518101906103369190610507565b600c80546001600160a01b039283166001600160a01b031991821617909155600b805492909316911617905550565b600b546001600160a01b031681565b600c546001600160a01b031681565b61038b610430565b610394826103c2565b92915050565b606061031b6040518060400160405280856001600160a01b03168152602001848152506103de565b6103ca610430565b8180602001905181019061039491906105b7565b604080516001808252818301909252606091816020015b6103fd610450565b8152602001906001900390816103f5579050509050818160008151811061042057fe5b6020026020010181905250919050565b6040518060400160405280610443610468565b8152600060209091015290565b60408051808201909152600081526060602082015290565b604080516080810182526000808252606060208301819052928201528181019190915290565b805161039481610821565b600082601f8301126104a9578081fd5b81516104bc6104b7826107cd565b6107a6565b91508082528360208285010111156104d357600080fd5b6104e48160208401602086016107f1565b5092915050565b6000602082840312156104fc578081fd5b815161031b81610821565b60008060408385031215610519578081fd5b825161052481610821565b602084015190925061053581610821565b809150509250929050565b600060208284031215610551578081fd5b813567ffffffffffffffff811115610567578182fd5b80830184601f820112610578578283fd5b803591506105886104b7836107cd565b82815285602084840101111561059c578384fd5b82602083016020830137918201602001929092529392505050565b6000602082840312156105c8578081fd5b815167ffffffffffffffff808211156105df578283fd5b818401604081870312156105f1578384fd5b6105fb60406107a6565b925080518281111561060b578485fd5b8082016080818903121561061d578586fd5b61062760806107a6565b9150805161063481610821565b8252602081015184811115610647578687fd5b61065389828401610499565b6020840152506040810151801515811461066b578687fd5b6040830152606081015184811115610681578687fd5b61068d89828401610499565b6060840152505083526106a3866020830161048e565b60208401525090949350505050565b6000602082840312156106c3578081fd5b5051919050565b6001600160a01b0391909116815260200190565b60208082528251828201819052600091906040908185019080840286018301878501865b8381101561076657888303603f19018552815180516001600160a01b03168452870151878401879052805187850181905290606061074583828801848d016107f1565b96890196601f92909201601f19169490940101925090860190600101610702565b509098975050505050505050565b94855260ff938416602086015291909216604084015260608301919091526001600160a01b0316608082015260a00190565b60405181810167ffffffffffffffff811182821017156107c557600080fd5b604052919050565b600067ffffffffffffffff8211156107e3578081fd5b50601f01601f191660200190565b60005b8381101561080c5781810151838201526020016107f4565b8381111561081b576000848401525b50505050565b6001600160a01b038116811461083657600080fd5b5056fea2646970667358221220801af04ac4c1d6d38ae09ac54f3633e6feb0b745772c0f45c7bedd1121cea91464736f6c63430006060033",
  "immutableReferences": {},
  "source": "pragma solidity ^0.6.0;\npragma experimental ABIEncoderV2;\n\nimport { PreprocessorLib } from \"./lib/PreprocessorLib.sol\";\nimport { IUniswapExchange } from \"../interfaces/IUniswapExchange.sol\";\nimport { IUniswapFactory } from \"../interfaces/IUniswapFactory.sol\";\nimport { ShifterBorrowProxyLib } from \"../ShifterBorrowProxyLib.sol\";\nimport { SandboxLib } from \"../utils/sandbox/SandboxLib.sol\";\nimport { BorrowProxyLib } from \"../BorrowProxyLib.sol\";\nimport { IERC20 } from \"openzeppelin-solidity/contracts/token/ERC20/IERC20.sol\";\nimport { StringLib } from \"../utils/StringLib.sol\";\n\ncontract SwapEntireLoan {\n  using PreprocessorLib for *;\n  using StringLib for *;\n  BorrowProxyLib.ProxyIsolate isolate;\n  address public factory;\n  address public target;\n  function setup(bytes memory consData) public {\n    (factory, target) = abi.decode(consData, (address, address));\n  }\n  function execute(bytes memory data) view public returns (ShifterBorrowProxyLib.InitializationAction[] memory result) {\n    SandboxLib.ExecutionContext memory context = data.toContext();\n    result = IUniswapFactory(SwapEntireLoan(context.preprocessorAddress).factory())\n      .getExchange(isolate.token)\n      .sendTransaction(abi.encodeWithSelector(\n        IUniswapExchange.tokenToTokenSwapInput.selector,\n        IERC20(isolate.token).balanceOf(address(this)),\n        1,\n        1,\n        block.timestamp + 1,\n        SwapEntireLoan(context.preprocessorAddress).target()));\n  }\n}\n",
  "sourcePath": "/home/ray/0confirmation/packages/0confirmation-sol/contracts/preprocessors/SwapEntireLoan.sol",
  "compiler": {
    "name": "solc",
    "version": "0.6.6+commit.6c089d02.Emscripten.clang"
  },
  "schemaVersion": "3.1.0",
  "updatedAt": "2020-05-03T06:07:18.922Z",
  "devdoc": {
    "methods": {}
  },
  "userdoc": {
    "methods": {}
  }
}