{
  "contractName": "TransferAll",
  "abi": [
    {
      "inputs": [
        {
          "internalType": "address",
          "name": "_token",
          "type": "address"
        },
        {
          "internalType": "address",
          "name": "_target",
          "type": "address"
        }
      ],
      "stateMutability": "nonpayable",
      "type": "constructor"
    },
    {
      "inputs": [],
      "name": "target",
      "outputs": [
        {
          "internalType": "address",
          "name": "",
          "type": "address"
        }
      ],
      "stateMutability": "view",
      "type": "function"
    },
    {
      "inputs": [],
      "name": "token",
      "outputs": [
        {
          "internalType": "address",
          "name": "",
          "type": "address"
        }
      ],
      "stateMutability": "view",
      "type": "function"
    },
    {
      "inputs": [
        {
          "internalType": "bytes",
          "name": "data",
          "type": "bytes"
        }
      ],
      "name": "execute",
      "outputs": [
        {
          "components": [
            {
              "internalType": "address",
              "name": "to",
              "type": "address"
            },
            {
              "internalType": "bytes",
              "name": "txData",
              "type": "bytes"
            }
          ],
          "internalType": "struct ShifterBorrowProxyLib.InitializationAction[]",
          "name": "",
          "type": "tuple[]"
        }
      ],
      "stateMutability": "view",
      "type": "function"
    }
  ],
  "bytecode": "0x608060405234801561001057600080fd5b506040516107f33803806107f383398101604081905261002f91610060565b600080546001600160a01b039384166001600160a01b031991821617909155600180549290931691161790556100b1565b60008060408385031215610072578182fd5b825161007d81610099565b602084015190925061008e81610099565b809150509250929050565b6001600160a01b03811681146100ae57600080fd5b50565b610733806100c06000396000f3fe608060405234801561001057600080fd5b50600436106100415760003560e01c806309c5eabe14610046578063d4b839921461006f578063fc0c546a14610084575b600080fd5b610059610054366004610420565b61008c565b60405161006691906105d6565b60405180910390f35b610077610273565b60405161006691906105a9565b610077610282565b606061009661033e565b61009f83610291565b905061026c63a9059cbb60e01b82602001516001600160a01b031663d4b839926040518163ffffffff1660e01b815260040160206040518083038186803b1580156100e957600080fd5b505afa1580156100fd573d6000803e3d6000fd5b505050506040513d601f19601f820116820180604052508101906101219190610405565b83602001516001600160a01b031663fc0c546a6040518163ffffffff1660e01b815260040160206040518083038186803b15801561015e57600080fd5b505afa158015610172573d6000803e3d6000fd5b505050506040513d601f19601f820116820180604052508101906101969190610405565b6001600160a01b03166370a08231306040518263ffffffff1660e01b81526004016101c191906105a9565b60206040518083038186803b1580156101d957600080fd5b505afa1580156101ed573d6000803e3d6000fd5b505050506040513d601f19601f820116820180604052508101906102119190610591565b6040516024016102229291906105bd565b60408051601f198184030181529190526020810180516001600160e01b03166001600160e01b0319909316929092179091526000546001600160a01b03169063ffffffff6102a816565b9392505050565b6001546001600160a01b031681565b6000546001600160a01b031681565b61029961033e565b6102a2826102d0565b92915050565b606061026c6040518060400160405280856001600160a01b03168152602001848152506102ec565b6102d861033e565b818060200190518101906102a29190610497565b604080516001808252818301909252606091816020015b61030b61035e565b815260200190600190039081610303579050509050818160008151811061032e57fe5b6020026020010181905250919050565b6040518060400160405280610351610376565b8152600060209091015290565b60408051808201909152600081526060602082015290565b604080516080810182526000808252606060208301819052928201528181019190915290565b80516001600160a01b03811681146102a257600080fd5b600082601f8301126103c3578081fd5b81516103d66103d182610694565b61066d565b91508082528360208285010111156103ed57600080fd5b6103fe8160208401602086016106cd565b5092915050565b600060208284031215610416578081fd5b61026c838361039c565b600060208284031215610431578081fd5b813567ffffffffffffffff811115610447578182fd5b80830184601f820112610458578283fd5b803591506104686103d183610694565b82815285602084840101111561047c578384fd5b82602083016020830137918201602001929092529392505050565b6000602082840312156104a8578081fd5b815167ffffffffffffffff808211156104bf578283fd5b818401604081870312156104d1578384fd5b6104db604061066d565b92508051828111156104eb578485fd5b808201608081890312156104fd578586fd5b610507608061066d565b9150610513888261039c565b8252602081015184811115610526578687fd5b610532898284016103b3565b6020840152506040810151801515811461054a578687fd5b6040830152606081015184811115610560578687fd5b61056c898284016103b3565b606084015250508352610582866020830161039c565b60208401525090949350505050565b6000602082840312156105a2578081fd5b5051919050565b6001600160a01b0391909116815260200190565b6001600160a01b03929092168252602082015260400190565b60208082528251828201819052600091906040908185019080840286018301878501865b8381101561065f57603f19898403018552815161061781516106c1565b8452870151878401879052805190610631828987016106b8565b61063e83828c85016106cd565b96890196601f92909201601f191691909101935050908601906001016105fa565b509098975050505050505050565b60405181810167ffffffffffffffff8111828210171561068c57600080fd5b604052919050565b600067ffffffffffffffff8211156106aa578081fd5b50601f01601f191660200190565b90815260200190565b6001600160a01b031690565b60005b838110156106e85781810151838201526020016106d0565b838111156106f7576000848401525b5050505056fea26469706673582212202a7782d83ef96a9052ba7adbf50edeafc486c046fd0ea09e3a51f5cba1ff07b264736f6c63430006060033",
  "immutableReferences": {},
  "source": "pragma solidity ^0.6.0;\npragma experimental ABIEncoderV2;\n\nimport { PreprocessorLib } from \"./lib/PreprocessorLib.sol\";\nimport { IERC20 } from \"openzeppelin-solidity/contracts/token/ERC20/IERC20.sol\";\nimport { ShifterBorrowProxyLib } from \"../ShifterBorrowProxyLib.sol\";\nimport { SandboxLib } from \"../utils/sandbox/SandboxLib.sol\";\n\ncontract TransferAll {\n  using PreprocessorLib for *;\n  address public token;\n  address public target;\n  constructor(address _token, address _target) public {\n    token = _token;\n    target = _target;\n  }\n  function execute(bytes memory data) view public returns (ShifterBorrowProxyLib.InitializationAction[] memory) {\n    SandboxLib.ExecutionContext memory context = data.toContext();\n    return token.sendTransaction(abi.encodeWithSelector(IERC20.transfer.selector, TransferAll(context.preprocessorAddress).target(), IERC20(TransferAll(context.preprocessorAddress).token()).balanceOf(address(this))));\n  }\n}\n",
  "sourcePath": "/home/ray/0confirmation/packages/0confirmation-sol/contracts/preprocessors/TransferAll.sol",
  "compiler": {
    "name": "solc",
    "version": "0.6.6+commit.6c089d02.Emscripten.clang"
  },
  "schemaVersion": "3.1.0",
  "updatedAt": "2020-04-25T20:41:37.043Z",
  "devdoc": {
    "methods": {}
  },
  "userdoc": {
    "methods": {}
  }
}