{
  "contractName": "TransferAll",
  "abi": [
    {
      "inputs": [],
      "name": "target",
      "outputs": [
        {
          "internalType": "address",
          "name": "",
          "type": "address"
        }
      ],
      "stateMutability": "view",
      "type": "function"
    },
    {
      "inputs": [],
      "name": "token",
      "outputs": [
        {
          "internalType": "address",
          "name": "",
          "type": "address"
        }
      ],
      "stateMutability": "view",
      "type": "function"
    },
    {
      "inputs": [
        {
          "internalType": "bytes",
          "name": "consData",
          "type": "bytes"
        }
      ],
      "name": "setup",
      "outputs": [],
      "stateMutability": "nonpayable",
      "type": "function"
    },
    {
      "inputs": [
        {
          "internalType": "bytes",
          "name": "data",
          "type": "bytes"
        }
      ],
      "name": "execute",
      "outputs": [
        {
          "components": [
            {
              "internalType": "address",
              "name": "to",
              "type": "address"
            },
            {
              "internalType": "bytes",
              "name": "txData",
              "type": "bytes"
            }
          ],
          "internalType": "struct ShifterBorrowProxyLib.InitializationAction[]",
          "name": "",
          "type": "tuple[]"
        }
      ],
      "stateMutability": "view",
      "type": "function"
    }
  ],
  "bytecode": "0x608060405234801561001057600080fd5b50610844806100206000396000f3fe608060405234801561001057600080fd5b506004361061004c5760003560e01c806309c5eabe146100515780639ded06df1461007a578063d4b839921461008f578063fc0c546a146100a4575b600080fd5b61006461005f366004610524565b6100ac565b60405161007191906106d7565b60405180910390f35b61008d610088366004610524565b610306565b005b610097610349565b60405161007191906106aa565b610097610358565b60606100b6610414565b6100bf83610367565b90506102ff63a9059cbb60e01b82602001516001600160a01b031663d4b839926040518163ffffffff1660e01b815260040160206040518083038186803b15801561010957600080fd5b505afa15801561011d573d6000803e3d6000fd5b505050506040513d601f19601f8201168201806040525081019061014191906104cf565b83602001516001600160a01b031663fc0c546a6040518163ffffffff1660e01b815260040160206040518083038186803b15801561017e57600080fd5b505afa158015610192573d6000803e3d6000fd5b505050506040513d601f19601f820116820180604052508101906101b691906104cf565b6001600160a01b03166370a08231306040518263ffffffff1660e01b81526004016101e191906106aa565b60206040518083038186803b1580156101f957600080fd5b505afa15801561020d573d6000803e3d6000fd5b505050506040513d601f19601f820116820180604052508101906102319190610692565b6040516024016102429291906106be565b604051602081830303815290604052906001600160e01b0319166020820180516001600160e01b03838183161783525050505082602001516001600160a01b031663fc0c546a6040518163ffffffff1660e01b815260040160206040518083038186803b1580156102b257600080fd5b505afa1580156102c6573d6000803e3d6000fd5b505050506040513d601f19601f820116820180604052508101906102ea91906104cf565b6001600160a01b03169063ffffffff61037e16565b9392505050565b8080602001905181019061031a91906104eb565b600c80546001600160a01b039283166001600160a01b031991821617909155600b805492909316911617905550565b600c546001600160a01b031681565b600b546001600160a01b031681565b61036f610414565b610378826103a6565b92915050565b60606102ff6040518060400160405280856001600160a01b03168152602001848152506103c2565b6103ae610414565b81806020019051810190610378919061059b565b604080516001808252818301909252606091816020015b6103e1610434565b8152602001906001900390816103d9579050509050818160008151811061040457fe5b6020026020010181905250919050565b604051806040016040528061042761044c565b8152600060209091015290565b60408051808201909152600081526060602082015290565b604080516080810182526000808252606060208301819052928201528181019190915290565b8051610378816107e8565b600082601f83011261048d578081fd5b81516104a061049b82610794565b61076d565b91508082528360208285010111156104b757600080fd5b6104c88160208401602086016107b8565b5092915050565b6000602082840312156104e0578081fd5b81516102ff816107e8565b600080604083850312156104fd578081fd5b8251610508816107e8565b6020840151909250610519816107e8565b809150509250929050565b600060208284031215610535578081fd5b813567ffffffffffffffff81111561054b578182fd5b80830184601f82011261055c578283fd5b8035915061056c61049b83610794565b828152856020848401011115610580578384fd5b82602083016020830137918201602001929092529392505050565b6000602082840312156105ac578081fd5b815167ffffffffffffffff808211156105c3578283fd5b818401604081870312156105d5578384fd5b6105df604061076d565b92508051828111156105ef578485fd5b80820160808189031215610601578586fd5b61060b608061076d565b91508051610618816107e8565b825260208101518481111561062b578687fd5b6106378982840161047d565b602084015250604081015161064b81610800565b6040830152606081015184811115610661578687fd5b61066d8982840161047d565b6060840152505083526106838660208301610472565b60208401525090949350505050565b6000602082840312156106a3578081fd5b5051919050565b6001600160a01b0391909116815260200190565b6001600160a01b03929092168252602082015260400190565b60208082528251828201819052600091906040908185019080840286018301878501865b8381101561075f57888303603f19018552815180516001600160a01b03168452870151878401879052805187850181905290606061073e83828801848d016107b8565b96890196601f92909201601f191694909401019250908601906001016106fb565b509098975050505050505050565b60405181810167ffffffffffffffff8111828210171561078c57600080fd5b604052919050565b600067ffffffffffffffff8211156107aa578081fd5b50601f01601f191660200190565b60005b838110156107d35781810151838201526020016107bb565b838111156107e2576000848401525b50505050565b6001600160a01b03811681146107fd57600080fd5b50565b80151581146107fd57600080fdfea26469706673582212209221b531290c8bea2693086df7da967d1d07ef63fe7d1b58bce0b04a8c2df35f64736f6c63430006080033",
  "immutableReferences": {},
  "source": "// SPDX-License-Identifier: MIT\npragma solidity ^0.6.0;\npragma experimental ABIEncoderV2;\n\nimport { PreprocessorLib } from \"./lib/PreprocessorLib.sol\";\nimport { IERC20 } from \"@openzeppelin/contracts/token/ERC20/IERC20.sol\";\nimport { ShifterBorrowProxyLib } from \"../ShifterBorrowProxyLib.sol\";\nimport { SandboxLib } from \"../utils/sandbox/SandboxLib.sol\";\nimport { BorrowProxyLib } from \"../BorrowProxyLib.sol\";\n\ncontract TransferAll {\n  using PreprocessorLib for *;\n  BorrowProxyLib.ProxyIsolate isolate;\n  address public token;\n  address public target;\n  function setup(bytes memory consData) public {\n    (token, target) = abi.decode(consData, (address, address));\n  }\n  function execute(bytes memory data) view public returns (ShifterBorrowProxyLib.InitializationAction[] memory) {\n    SandboxLib.ExecutionContext memory context = data.toContext();\n    return TransferAll(context.preprocessorAddress).token().sendTransaction(abi.encodeWithSelector(IERC20.transfer.selector, TransferAll(context.preprocessorAddress).target(), IERC20(TransferAll(context.preprocessorAddress).token()).balanceOf(address(this))));\n  }\n}\n",
  "sourcePath": "/home/ray/0confirmation/packages/0confirmation-sol/contracts/preprocessors/TransferAll.sol",
  "compiler": {
    "name": "solc",
    "version": "0.6.8+commit.0bbfe453.Emscripten.clang"
  },
  "schemaVersion": "3.2.0",
  "updatedAt": "2020-05-29T19:52:43.387Z",
  "devdoc": {
    "methods": {}
  },
  "userdoc": {
    "methods": {}
  }
}