{
  "contractName": "TransferAll",
  "abi": [
    {
      "inputs": [
        {
          "internalType": "address",
          "name": "_token",
          "type": "address"
        },
        {
          "internalType": "address",
          "name": "_target",
          "type": "address"
        }
      ],
      "stateMutability": "nonpayable",
      "type": "constructor"
    },
    {
      "inputs": [],
      "name": "target",
      "outputs": [
        {
          "internalType": "address",
          "name": "",
          "type": "address"
        }
      ],
      "stateMutability": "view",
      "type": "function"
    },
    {
      "inputs": [],
      "name": "token",
      "outputs": [
        {
          "internalType": "address",
          "name": "",
          "type": "address"
        }
      ],
      "stateMutability": "view",
      "type": "function"
    },
    {
      "inputs": [
        {
          "internalType": "bytes",
          "name": "data",
          "type": "bytes"
        }
      ],
      "name": "execute",
      "outputs": [
        {
          "components": [
            {
              "internalType": "address",
              "name": "to",
              "type": "address"
            },
            {
              "internalType": "bytes",
              "name": "txData",
              "type": "bytes"
            }
          ],
          "internalType": "struct ShifterBorrowProxyLib.InitializationAction[]",
          "name": "",
          "type": "tuple[]"
        }
      ],
      "stateMutability": "view",
      "type": "function"
    }
  ],
  "bytecode": "0x608060405234801561001057600080fd5b5060405161087338038061087383398101604081905261002f91610060565b600b80546001600160a01b039384166001600160a01b031991821617909155600c80549290931691161790556100b1565b60008060408385031215610072578182fd5b825161007d81610099565b602084015190925061008e81610099565b809150509250929050565b6001600160a01b03811681146100ae57600080fd5b50565b6107b3806100c06000396000f3fe608060405234801561001057600080fd5b50600436106100415760003560e01c806309c5eabe14610046578063d4b839921461006f578063fc0c546a14610084575b600080fd5b610059610054366004610493565b61008c565b6040516100669190610646565b60405180910390f35b6100776102e6565b6040516100669190610619565b6100776102f5565b60606100966103b1565b61009f83610304565b90506102df63a9059cbb60e01b82602001516001600160a01b031663d4b839926040518163ffffffff1660e01b815260040160206040518083038186803b1580156100e957600080fd5b505afa1580156100fd573d6000803e3d6000fd5b505050506040513d601f19601f820116820180604052508101906101219190610478565b83602001516001600160a01b031663fc0c546a6040518163ffffffff1660e01b815260040160206040518083038186803b15801561015e57600080fd5b505afa158015610172573d6000803e3d6000fd5b505050506040513d601f19601f820116820180604052508101906101969190610478565b6001600160a01b03166370a08231306040518263ffffffff1660e01b81526004016101c19190610619565b60206040518083038186803b1580156101d957600080fd5b505afa1580156101ed573d6000803e3d6000fd5b505050506040513d601f19601f820116820180604052508101906102119190610601565b60405160240161022292919061062d565b604051602081830303815290604052906001600160e01b0319166020820180516001600160e01b03838183161783525050505082602001516001600160a01b031663fc0c546a6040518163ffffffff1660e01b815260040160206040518083038186803b15801561029257600080fd5b505afa1580156102a6573d6000803e3d6000fd5b505050506040513d601f19601f820116820180604052508101906102ca9190610478565b6001600160a01b03169063ffffffff61031b16565b9392505050565b600c546001600160a01b031681565b600b546001600160a01b031681565b61030c6103b1565b61031582610343565b92915050565b60606102df6040518060400160405280856001600160a01b031681526020018481525061035f565b61034b6103b1565b81806020019051810190610315919061050a565b604080516001808252818301909252606091816020015b61037e6103d1565b81526020019060019003908161037657905050905081816000815181106103a157fe5b6020026020010181905250919050565b60405180604001604052806103c46103e9565b8152600060209091015290565b60408051808201909152600081526060602082015290565b604080516080810182526000808252606060208301819052928201528181019190915290565b80516001600160a01b038116811461031557600080fd5b600082601f830112610436578081fd5b815161044961044482610703565b6106dc565b915080825283602082850101111561046057600080fd5b610471816020840160208601610727565b5092915050565b600060208284031215610489578081fd5b6102df838361040f565b6000602082840312156104a4578081fd5b813567ffffffffffffffff8111156104ba578182fd5b80830184601f8201126104cb578283fd5b803591506104db61044483610703565b8281528560208484010111156104ef578384fd5b82602083016020830137918201602001929092529392505050565b60006020828403121561051b578081fd5b815167ffffffffffffffff80821115610532578283fd5b81840160408187031215610544578384fd5b61054e60406106dc565b925080518281111561055e578485fd5b80820160808189031215610570578586fd5b61057a60806106dc565b9150805161058781610757565b825260208101518481111561059a578687fd5b6105a689828401610426565b60208401525060408101516105ba8161076f565b60408301526060810151848111156105d0578687fd5b6105dc89828401610426565b6060840152505083526105f2866020830161040f565b60208401525090949350505050565b600060208284031215610612578081fd5b5051919050565b6001600160a01b0391909116815260200190565b6001600160a01b03929092168252602082015260400190565b60208082528251828201819052600091906040908185019080840286018301878501865b838110156106ce57888303603f19018552815180516001600160a01b0316845287015187840187905280518785018190529060606106ad83828801848d01610727565b96890196601f92909201601f1916949094010192509086019060010161066a565b509098975050505050505050565b60405181810167ffffffffffffffff811182821017156106fb57600080fd5b604052919050565b600067ffffffffffffffff821115610719578081fd5b50601f01601f191660200190565b60005b8381101561074257818101518382015260200161072a565b83811115610751576000848401525b50505050565b6001600160a01b038116811461076c57600080fd5b50565b801515811461076c57600080fdfea2646970667358221220ef8bff92f94a47489ae512227c148296cd4aa3358f3e2d2886801913189a085a64736f6c63430006060033",
  "immutableReferences": {},
  "source": "pragma solidity ^0.6.0;\npragma experimental ABIEncoderV2;\n\nimport { PreprocessorLib } from \"./lib/PreprocessorLib.sol\";\nimport { IERC20 } from \"openzeppelin-solidity/contracts/token/ERC20/IERC20.sol\";\nimport { ShifterBorrowProxyLib } from \"../ShifterBorrowProxyLib.sol\";\nimport { SandboxLib } from \"../utils/sandbox/SandboxLib.sol\";\nimport { BorrowProxyLib } from \"../BorrowProxyLib.sol\";\n\ncontract TransferAll {\n  using PreprocessorLib for *;\n  BorrowProxyLib.ProxyIsolate isolate;\n  address public token;\n  address public target;\n  constructor(address _token, address _target) public {\n    token = _token;\n    target = _target;\n  }\n  function execute(bytes memory data) view public returns (ShifterBorrowProxyLib.InitializationAction[] memory) {\n    SandboxLib.ExecutionContext memory context = data.toContext();\n    return TransferAll(context.preprocessorAddress).token().sendTransaction(abi.encodeWithSelector(IERC20.transfer.selector, TransferAll(context.preprocessorAddress).target(), IERC20(TransferAll(context.preprocessorAddress).token()).balanceOf(address(this))));\n  }\n}\n",
  "sourcePath": "/root/0confirmation/packages/0confirmation-sol/contracts/preprocessors/TransferAll.sol",
  "compiler": {
    "name": "solc",
    "version": "0.6.6+commit.6c089d02.Emscripten.clang"
  },
  "schemaVersion": "3.1.0",
  "updatedAt": "2020-04-27T04:30:15.815Z",
  "devdoc": {
    "methods": {}
  },
  "userdoc": {
    "methods": {}
  }
}