{
  "contractName": "UniswapAdapter",
  "abi": [
    {
      "inputs": [
        {
          "internalType": "address",
          "name": "factoryAddress",
          "type": "address"
        }
      ],
      "stateMutability": "nonpayable",
      "type": "constructor"
    },
    {
      "stateMutability": "payable",
      "type": "fallback"
    },
    {
      "stateMutability": "payable",
      "type": "receive"
    },
    {
      "inputs": [],
      "name": "getExternalIsolateHandler",
      "outputs": [
        {
          "components": [
            {
              "internalType": "address",
              "name": "factoryAddress",
              "type": "address"
            }
          ],
          "internalType": "struct UniswapAdapterLib.ExternalIsolate",
          "name": "",
          "type": "tuple"
        }
      ],
      "stateMutability": "payable",
      "type": "function"
    },
    {
      "inputs": [],
      "name": "getSignatures",
      "outputs": [
        {
          "internalType": "bytes4[]",
          "name": "retval",
          "type": "bytes4[]"
        }
      ],
      "stateMutability": "pure",
      "type": "function"
    }
  ],
  "bytecode": "0x60806040523480156200001157600080fd5b5060405162001fc238038062001fc28339810160408190526200003491620000fe565b60006200004c306200007260201b6200152f1760201c565b80546001600160a01b0319166001600160a01b039390931692909217909155506200016c565b60006200009b6200008c836001600160e01b03620000a116565b6001600160e01b03620000d416565b92915050565b600081604051602001620000b691906200012e565b60408051601f19818403018152919052805160209091012092915050565b6000620000fb602090811b6200168f17908190620000f390859083901c565b949350505050565b90565b60006020828403121562000110578081fd5b81516001600160a01b038116811462000127578182fd5b9392505050565b7f69736f6c6174652e756e69737761702d61646170746572000000000000000000815260609190911b6001600160601b0319166017820152602b0190565b611e46806200017c6000396000f3fe60806040526004361061002d5760003560e01c8063966ff7a814610a37578063ad6f80ff14610a5557610034565b3661003457005b6000808080606061004536836116f0565b9550955095505094509450600061005c8685610a77565b9150506000606061006c84610b38565b90925090506000806001600160e01b031984166389f2a87160e01b14806100a357506001600160e01b0319841663fd11c22360e01b145b806100be57506001600160e01b031984166395e3c50b60e01b145b806100d957506001600160e01b0319841663013efd8b60e01b145b806100f457506001600160e01b0319841663cd7724c360e01b145b8061010f57506001600160e01b03198416632cf4a43160e11b145b8061012a57506001600160e01b031984166395b68fe760e01b145b8061014557506001600160e01b031984166309903d8b60e21b145b8061016057506001600160e01b031984166313aedd4b60e31b145b8061017b57506001600160e01b0319841663422f104360e01b145b8061019657506001600160e01b03198416637c45f8ad60e11b145b156101a057610946565b6001600160e01b0319841663f39b5b9b60e01b14156101e2576000838060200190516101cf9190810190611827565b50905080156101dc578592505b50610946565b6001600160e01b0319841663ad65d76d60e01b14156102625760008084806020019051610212919081019061184a565b9250509150306001600160a01b0316816001600160a01b0316146102515760405162461bcd60e51b815260040161024890611b49565b60405180910390fd5b811561025b578693505b5050610946565b6001600160e01b03198416636b1d4db760e01b1415610291576000838060200190516101cf9190810190611827565b6001600160e01b0319841663016ae6c760e31b14156102c15760008084806020019051610212919081019061184a565b6001600160e01b03198416637237e03160e01b14156103ca57600080600080868060200190516102f49190810190611882565b9350935093509350306001600160a01b0316816001600160a01b03161461032d5760405162461bcd60e51b815260040161024890611b49565b6103466001600160a01b038a168d63ffffffff610b7b16565b6103625760405162461bcd60e51b815260040161024890611b80565b637237e03160e01b848484610375610be7565b6040516024016103889493929190611c48565b60408051601f198184030181529190526020810180516001600160e01b03166001600160e01b0319909316929092179091529950600194506109469350505050565b6001600160e01b0319841663d4e4841d60e01b141561045c576000838060200190516103f99190810190611882565b935050506001600160a01b038216301490506104275760405162461bcd60e51b815260040161024890611b49565b6104406001600160a01b0387168a63ffffffff610b7b16565b6101dc5760405162461bcd60e51b815260040161024890611b80565b6001600160e01b0319841663ddf7e1a760e01b14156104f9576000806000808680602001905161048f91908101906118c2565b94505093509350935060008411806104a75750600083115b806104b25750600082115b156104bb578095505b6104d46001600160a01b038a168d63ffffffff610b7b16565b6104f05760405162461bcd60e51b815260040161024890611b80565b50505050610946565b6001600160e01b0319841663f552d91b60e01b14156105c35760008060008060008780602001905161052e919081019061190e565b955095505094509450945060008511806105485750600084115b806105535750600083115b1561055c578096505b6001600160a01b03821630146105845760405162461bcd60e51b815260040161024890611b49565b61059d6001600160a01b038b168e63ffffffff610b7b16565b6105b95760405162461bcd60e51b815260040161024890611b80565b5050505050610946565b6001600160e01b0319841663b040d54560e01b141561063657600080600080868060200190516105f691908101906118c2565b9450509350935093506000841180156104b2575060008311806104b2575081156104bb578095506104d46001600160a01b038a168d63ffffffff610b7b16565b6001600160e01b0319841663f3c0efe960e01b14156106c05760008060008060008780602001905161066b919081019061190e565b955095505094509450945060008511801561068e57508315158061068e57508215155b15610697578096505b6001600160a01b0382163014156105845760405162461bcd60e51b815260040161024890611b49565b6001600160e01b0319841663b1cb43bf60e01b14156107a957600080848060200190516106f091908101906118c2565b94505050509150600082111561077457806001600160a01b0316639d76ea586040518163ffffffff1660e01b815260040160206040518083038186803b15801561073957600080fd5b505afa15801561074d573d6000803e3d6000fd5b505050506040513d601f19601f8201168201806040525061077191908101906116d4565b93505b61078d6001600160a01b0388168b63ffffffff610b7b16565b61025b5760405162461bcd60e51b815260040161024890611b80565b6001600160e01b0319841663761c251f60e11b14156108cc576000806000858060200190516107db919081019061190e565b955095505050509250306001600160a01b0316826001600160a01b0316146108155760405162461bcd60e51b815260040161024890611b49565b821561088f57806001600160a01b0316639d76ea586040518163ffffffff1660e01b815260040160206040518083038186803b15801561085457600080fd5b505afa158015610868573d6000803e3d6000fd5b505050506040513d601f19601f8201168201806040525061088c91908101906116d4565b94505b6108a86001600160a01b0389168c63ffffffff610b7b16565b6108c45760405162461bcd60e51b815260040161024890611b80565b505050610946565b6001600160e01b0319841663ea650c7d60e01b14156108fc57600080848060200190516106f091908101906118c2565b6001600160e01b0319841663981a132760e01b141561092e576000806000858060200190516107db919081019061190e565b60405162461bcd60e51b815260040161024890611b12565b6001600160a01b038216156109ab5761098f826040516020016109699190611a04565b60408051601f198184030181529190526001600160a01b038b169063ffffffff610c4516565b6109ab5760405162461bcd60e51b815260040161024890611bee565b60006060896001600160a01b0316895a908a6040516109ca91906119a5565b600060405180830381858888f193505050503d8060008114610a08576040519150601f19603f3d011682016040523d82523d6000602084013e610a0d565b606091505b50915091508215610a2157610a2130610ce5565b8115610a2f57805181602001f35b805181602001fd5b610a3f610d9b565b604051610a4c9190611c35565b60405180910390f35b348015610a6157600080fd5b50610a6a610dc9565b604051610a4c9190611a8d565b6000806000610a85856112b7565b90506000816001600160a01b03166359770438866040518263ffffffff1660e01b8152600401610ab59190611a04565b60206040518083038186803b158015610acd57600080fd5b505afa158015610ae1573d6000803e3d6000fd5b505050506040513d601f19601f82011682018060405250610b0591908101906116d4565b90506001600160a01b038116610b2d5760405162461bcd60e51b815260040161024890611adb565b909590945092505050565b60006060610b56610b518484600463ffffffff6112c916565b6112e6565b60e01b9150610b74610b6f84600463ffffffff61130816565b611333565b9050915091565b600080610b89843085611383565b90506001600160fe1b03811115610ba4576001915050610be1565b8015801590610bbc5750610bba84306000611461565b155b15610bcb576000915050610be1565b610bdd84846001600160ff1b03611461565b9150505b92915050565b6000610c407f3e8d8e49b9a35f50b96f6ba4b93e0fc6c1d66a2e1c04975ef848d7031c8158a460001b60405180602001610c2090611692565b6020820181038252601f19601f82011660405250805190602001206114ed565b905090565b600080836001600160a01b03168484604051602401610c65929190611a32565b60408051601f198184030181529181526020820180516001600160e01b0316633e87f4a360e21b17905251610c9a91906119a5565b600060405180830381855af49150503d8060008114610cd5576040519150601f19603f3d011682016040523d82523d6000602084013e610cda565b606091505b509095945050505050565b6000610d367f3e8d8e49b9a35f50b96f6ba4b93e0fc6c1d66a2e1c04975ef848d7031c8158a460001b60405180602001610d1e90611692565b601f1982820381018352601f909101166040526114fa565b60405163080f44a960e11b81529091506001600160a01b0382169063101e895290610d65908590600401611a04565b600060405180830381600087803b158015610d7f57600080fd5b505af1158015610d93573d6000803e3d6000fd5b505050505050565b610da361169f565b610dac3061152f565b604080516020810190915290546001600160a01b03168152905090565b604080516019808252610340820190925260609160208201610320803883390190505090506389f2a87160e01b81600081518110610e0357fe5b6001600160e01b031990921660209283029190910190910152805163fd11c22360e01b9082906001908110610e3457fe5b6001600160e01b03199092166020928302919091019091015280516395e3c50b60e01b9082906002908110610e6557fe5b6001600160e01b031990921660209283029190910190910152805163013efd8b60e01b9082906003908110610e9657fe5b6001600160e01b031990921660209283029190910190910152805163cd7724c360e01b9082906004908110610ec757fe5b6001600160e01b0319909216602092830291909101909101528051632cf4a43160e11b9082906005908110610ef857fe5b6001600160e01b03199092166020928302919091019091015280516395b68fe760e01b9082906006908110610f2957fe5b6001600160e01b03199092166020928302919091019091015280516309903d8b60e21b9082906007908110610f5a57fe5b6001600160e01b03199092166020928302919091019091015280516313aedd4b60e31b9082906008908110610f8b57fe5b6001600160e01b031990921660209283029190910190910152805163422f104360e01b9082906009908110610fbc57fe5b6001600160e01b0319909216602092830291909101909101528051637c45f8ad60e11b908290600a908110610fed57fe5b6001600160e01b031990921660209283029190910190910152805163f39b5b9b60e01b908290600b90811061101e57fe5b6001600160e01b031990921660209283029190910190910152805163ad65d76d60e01b908290600c90811061104f57fe5b6001600160e01b0319909216602092830291909101909101528051636b1d4db760e01b908290600d90811061108057fe5b6001600160e01b031990921660209283029190910190910152805163016ae6c760e31b908290600e9081106110b157fe5b6001600160e01b0319909216602092830291909101909101528051637237e03160e01b908290600f9081106110e257fe5b6001600160e01b031990921660209283029190910190910152805163d4e4841d60e01b908290601090811061111357fe5b6001600160e01b031990921660209283029190910190910152805163ddf7e1a760e01b908290601190811061114457fe5b6001600160e01b031990921660209283029190910190910152805163f552d91b60e01b908290601290811061117557fe5b6001600160e01b031990921660209283029190910190910152805163b040d54560e01b90829060139081106111a657fe5b6001600160e01b031990921660209283029190910190910152805163f3c0efe960e01b90829060149081106111d757fe5b6001600160e01b031990921660209283029190910190910152805163b1cb43bf60e01b908290601590811061120857fe5b6001600160e01b031990921660209283029190910190910152805163761c251f60e11b908290601690811061123957fe5b6001600160e01b031990921660209283029190910190910152805163ea650c7d60e01b908290601790811061126a57fe5b6001600160e01b031990921660209283029190910190910152805163981a132760e01b908290601890811061129b57fe5b6001600160e01b03199092166020928302919091019091015290565b60006112c282611542565b5192915050565b6112d16116b1565b92820160209081018452830152604082015290565b805160209182015191829003900351600160089092029190911b600019011690565b6113106116b1565b818351101561131e57825191505b61132c8383848651036112c9565b9392505050565b60208082015160408051828152601f19601f84011681019093019052606091818015611366576020820181803883390190505b5083519092506020830161137b8183856115bd565b505050919050565b6000806060856001600160a01b031685856040516024016113a5929190611a18565b60408051601f198184030181529181526020820180516001600160e01b0316636eb1769f60e11b179052516113da91906119a5565b6000604051808303816000865af19150503d8060008114611417576040519150601f19603f3d011682016040523d82523d6000602084013e61141c565b606091505b509150915081158061143057508051602014155b156114405760019250505061132c565b600081806020019051611456919081019061180f565b979650505050505050565b600080846001600160a01b031663095ea7b385856040518363ffffffff1660e01b8152600401611492929190611a74565b602060405180830381600087803b1580156114ac57600080fd5b505af11580156114c0573d6000803e3d6000fd5b505050506040513d601f19601f820116820180604052506114e491908101906117c0565b95945050505050565b600061132c8383306115fb565b600080838351602085016000f590506001600160a01b03811661132c5760405162461bcd60e51b815260040161024890611bb7565b6000610be161153d83611643565b611674565b61154a61169f565b816001600160a01b031663966ff7a86040518163ffffffff1660e01b8152600401602060405180830381600087803b15801561158557600080fd5b505af1158015611599573d6000803e3d6000fd5b505050506040513d601f19601f82011682018060405250610be191908101906117e0565b5b602081106115dd578151835260209283019290910190601f19016115be565b600180600883602003021b0380845116811984511617845250505050565b60008060ff60f81b838686604051602001611619949392919061196c565b60408051808303601f1901815291905280516020909101206001600160a01b031695945050505050565b60008160405160200161165691906119c1565b60408051601f19818403018152919052805160209091012092915050565b600061168f806116878463ffffffff8316565b949350505050565b90565b61010580611d0c83390190565b60408051602081019091526000815290565b60405180606001604052806000815260200160008152602001600081525090565bfe5b6000602082840312156116e5578081fd5b815161132c81611cf3565b60008060008060008060c08789031215611708578182fd5b863561171381611cf3565b9550602087013561172381611cf3565b9450604087013561173381611cf3565b9350606087013561174381611cf3565b92506080870135915060a087013567ffffffffffffffff811115611765578182fd5b80880189601f820112611776578283fd5b8035915061178b61178683611c93565b611c6c565b8281528a602084840101111561179f578384fd5b6117b0836020830160208501611cb7565b8093505050509295509295509295565b6000602082840312156117d1578081fd5b8151801515811461132c578182fd5b6000602082840312156117f1578081fd5b6117fb6020611c6c565b825161180681611cf3565b81529392505050565b600060208284031215611820578081fd5b5051919050565b60008060408385031215611839578182fd5b505080516020909101519092909150565b60008060006060848603121561185e578283fd5b8351925060208401519150604084015161187781611cf3565b809150509250925092565b60008060008060808587031215611897578384fd5b84519350602085015192506040850151915060608501516118b781611cf3565b939692955090935050565b600080600080600060a086880312156118d9578081fd5b85519450602086015193506040860151925060608601519150608086015161190081611cf3565b809150509295509295909350565b60008060008060008060c08789031215611926578182fd5b86519550602087015194506040870151935060608701519250608087015161194d81611cf3565b60a088015190925061195e81611cf3565b809150509295509295509295565b6001600160f81b031994909416845260609290921b6bffffffffffffffffffffffff191660018401526015830152603582015260550190565b600082516119b7818460208701611cc3565b9190910192915050565b7f69736f6c6174652e756e69737761702d61646170746572000000000000000000815260609190911b6bffffffffffffffffffffffff19166017820152602b0190565b6001600160a01b0391909116815260200190565b6001600160a01b0392831681529116602082015260400190565b600060018060a01b0384168252604060208301528251806040840152611a5f816060850160208701611cc3565b601f01601f1916919091016060019392505050565b6001600160a01b03929092168252602082015260400190565b6020808252825182820181905260009190848201906040850190845b81811015611acf5783516001600160e01b03191683529284019291840191600101611aa9565b50909695505050505050565b6020808252601a908201527f6e6f7420612076616c696420756e6973776170206d61726b6574000000000000604082015260600190565b60208082526019908201527f756e737570706f7274656420636f6e74726163742063616c6c00000000000000604082015260600190565b6020808252601e908201527f726563697069656e74206d75737420626520626f72726f772070726f78790000604082015260600190565b60208082526018908201527f617070726f76616c206f6620746f6b656e206661696c65640000000000000000604082015260600190565b60208082526019908201527f437265617465323a204661696c6564206f6e206465706c6f7900000000000000604082015260600190565b60208082526027908201527f6c69717569646174696f6e206d6f64756c65206e6f74696669636174696f6e206040820152666661696c75726560c81b606082015260800190565b90516001600160a01b0316815260200190565b938452602084019290925260408301526001600160a01b0316606082015260800190565b60405181810167ffffffffffffffff81118282101715611c8b57600080fd5b604052919050565b600067ffffffffffffffff821115611ca9578081fd5b50601f01601f191660200190565b82818337506000910152565b60005b83811015611cde578181015183820152602001611cc6565b83811115611ced576000848401525b50505050565b6001600160a01b0381168114611d0857600080fd5b5056fe608060405234801561001057600080fd5b5060e68061001f6000396000f3fe6080604052348015600f57600080fd5b506004361060285760003560e01c8063101e895214602d575b600080fd5b605060048036036020811015604157600080fd5b50356001600160a01b03166052565b005b806001600160a01b0316475a6040519091906000818181858888f193505050503d8060008114609c576040519150601f19603f3d011682016040523d82523d6000602084013e60a1565b606091505b505050806001600160a01b0316fffea2646970667358221220d518af077d6068511767d56df4a97545715a1507f3eec4e317312e72101900db64736f6c63430006020033a26469706673582212201997ff3b6a653152d9f68ff141dcc6594d0d69f7b69789f3596c7055b7c2427d64736f6c63430006020033",
  "source": "pragma solidity ^0.6.0;\npragma experimental ABIEncoderV2;\n\nimport { ILiquidationModule } from \"../../../interfaces/ILiquidationModule.sol\";\nimport { UniswapAdapterLib } from \"./UniswapAdapterLib.sol\";\nimport { SliceLib } from \"../../../utils/SliceLib.sol\";\nimport { BorrowProxyLib } from \"../../../BorrowProxyLib.sol\";\nimport { ShifterBorrowProxyLib } from \"../../../ShifterBorrowProxyLib.sol\";\nimport { IUniswapFactory } from \"../../../interfaces/IUniswapFactory.sol\";\nimport { IUniswapExchange } from \"../../../interfaces/IUniswapExchange.sol\";\nimport { TokenUtils } from \"../../../utils/TokenUtils.sol\";\nimport { EtherForwarder } from \"./EtherForwarder.sol\";\n\ncontract UniswapAdapter {\n  using SliceLib for *;\n  using BorrowProxyLib for *;\n  using ShifterBorrowProxyLib for *;\n  using UniswapAdapterLib for *;\n  using TokenUtils for *;\n  constructor(address factoryAddress) public {\n    UniswapAdapterLib.ExternalIsolate storage isolate = UniswapAdapterLib.getIsolatePointer(address(this));\n    isolate.factoryAddress = factoryAddress;\n  }\n  function getExternalIsolateHandler() external payable returns (UniswapAdapterLib.ExternalIsolate memory) {\n    return UniswapAdapterLib.getIsolatePointer(address(this));\n  }\n  function getSignatures() public pure returns (bytes4[] memory retval) {\n    retval = new bytes4[](25);\n    retval[0] = IUniswapExchange.getInputPrice.selector;\n    retval[1] = IUniswapExchange.getOutputPrice.selector;\n    retval[2] = IUniswapExchange.tokenToEthSwapInput.selector;\n    retval[3] = IUniswapExchange.tokenToEthSwapOutput.selector;\n    retval[4] = IUniswapExchange.getEthToTokenInputPrice.selector;\n    retval[5] = IUniswapExchange.getEthToTokenOutputPrice.selector;\n    retval[6] = IUniswapExchange.getTokenToEthInputPrice.selector;\n    retval[7] = IUniswapExchange.getTokenToEthOutputPrice.selector;\n    retval[8] = IUniswapExchange.tokenAddress.selector;\n    retval[9] = IUniswapExchange.addLiquidity.selector;\n    retval[10] = IUniswapExchange.removeLiquidity.selector;\n    retval[11] = IUniswapExchange.ethToTokenSwapInput.selector;\n    retval[12] = IUniswapExchange.ethToTokenTransferInput.selector;\n    retval[13] = IUniswapExchange.ethToTokenSwapOutput.selector;\n    retval[14] = IUniswapExchange.ethToTokenTransferOutput.selector;\n    retval[15] = IUniswapExchange.tokenToEthTransferInput.selector;\n    retval[16] = IUniswapExchange.tokenToEthTransferOutput.selector;\n    retval[17] = IUniswapExchange.tokenToTokenSwapInput.selector;\n    retval[18] = IUniswapExchange.tokenToTokenTransferInput.selector;\n    retval[19] = IUniswapExchange.tokenToTokenSwapOutput.selector;\n    retval[20] = IUniswapExchange.tokenToTokenTransferOutput.selector;\n    retval[21] = IUniswapExchange.tokenToExchangeSwapInput.selector;\n    retval[22] = IUniswapExchange.tokenToExchangeTransferInput.selector;\n    retval[23] = IUniswapExchange.tokenToExchangeSwapOutput.selector;\n    retval[24] = IUniswapExchange.tokenToExchangeTransferOutput.selector;\n  }\n  receive() payable external {\n    // no impl\n  }\n  fallback() payable external {\n    (address payable moduleAddress, address liquidationModule, /* address txOrigin */, address to, uint256 value, bytes memory payload) = abi.decode(msg.data, (address, address, address, address, uint256, bytes));\n    (/* IUniswapFactory factory */, address tokenAddress) = UniswapAdapterLib.validateExchange(moduleAddress, to);\n    (bytes4 sig, bytes memory args) = payload.splitPayload();\n    address newToken;\n    bool usedForwarder = false;\n    if (\n      sig == IUniswapExchange.getInputPrice.selector ||\n      sig == IUniswapExchange.getOutputPrice.selector ||\n      sig == IUniswapExchange.tokenToEthSwapInput.selector ||\n      sig == IUniswapExchange.tokenToEthSwapOutput.selector ||\n      sig == IUniswapExchange.getEthToTokenInputPrice.selector ||\n      sig == IUniswapExchange.getEthToTokenOutputPrice.selector ||\n      sig == IUniswapExchange.getTokenToEthInputPrice.selector ||\n      sig == IUniswapExchange.getTokenToEthOutputPrice.selector ||\n      sig == IUniswapExchange.tokenAddress.selector ||\n      sig == IUniswapExchange.addLiquidity.selector ||\n      sig == IUniswapExchange.removeLiquidity.selector\n    ) {}\n    else if (sig == IUniswapExchange.ethToTokenSwapInput.selector) {\n      (uint256 min_tokens, /* uint256 deadline */) = abi.decode(args, (uint256,uint256));\n      if (min_tokens > 0) newToken = tokenAddress;\n    } else if (sig == IUniswapExchange.ethToTokenTransferInput.selector) {\n      (uint256 min_tokens, /* uint256 deadline */, address recipient) = abi.decode(args, (uint256,uint256,address));\n      require(recipient == address(this), \"recipient must be borrow proxy\"); // \"this\" is the proxy wallet context\n      if (min_tokens > 0) newToken = tokenAddress;\n    } else if (sig == IUniswapExchange.ethToTokenSwapOutput.selector) {\n      (uint256 tokens_bought, /* uint256 deadline */) = abi.decode(args, (uint256,uint256));\n      if (tokens_bought > 0) newToken = tokenAddress;\n    } else if (sig == IUniswapExchange.ethToTokenTransferOutput.selector) {\n      (uint256 tokens_bought, /* uint256 deadline */, address recipient) = abi.decode(args, (uint256,uint256,address));\n      require(recipient == address(this), \"recipient must be borrow proxy\");\n      if (tokens_bought > 0) newToken = tokenAddress;\n    } else if (sig == IUniswapExchange.tokenToEthTransferInput.selector) {\n      (uint256 tokens_sold, uint256 min_eth, uint256 deadline, address recipient) = abi.decode(args, (uint256,uint256,uint256,address));\n      require(recipient == address(this), \"recipient must be borrow proxy\");\n      require(tokenAddress.approveForMaxIfNeeded(to), \"approval of token failed\");\n      payload = abi.encodeWithSelector(IUniswapExchange.tokenToEthTransferInput.selector, tokens_sold, min_eth, deadline, UniswapAdapterLib.computeForwarderAddress());\n      usedForwarder = true;\n    } else if (sig == IUniswapExchange.tokenToEthTransferOutput.selector) {\n      (/* uint256 eth_bought */, /* uint256 max_tokens */, /* uint256 deadline */, address recipient) = abi.decode(args, (uint256, uint256, uint256, address));\n      require(recipient == address(this), \"recipient must be borrow proxy\");\n      require(tokenAddress.approveForMaxIfNeeded(to), \"approval of token failed\");\n    } else if (sig == IUniswapExchange.tokenToTokenSwapInput.selector) {\n      (uint256 tokens_sold, uint256 min_tokens_bought, uint256 min_eth_bought, /* uint256 deadline */, address payable token_addr) = abi.decode(args, (uint256, uint256, uint256, uint256, address));\n      if (tokens_sold > 0 || min_tokens_bought > 0 || min_eth_bought > 0) newToken = token_addr;\n      require(tokenAddress.approveForMaxIfNeeded(to), \"approval of token failed\");\n    } else if (sig == IUniswapExchange.tokenToTokenTransferInput.selector) {\n      (uint256 tokens_sold, uint256 min_tokens_bought, uint256 min_eth_bought, /* uint256 deadline */, address recipient, address payable token_addr) = abi.decode(args, (uint256, uint256, uint256, uint256, address, address));\n      if (tokens_sold > 0 || min_tokens_bought > 0 || min_eth_bought > 0) newToken = token_addr;\n      require(recipient == address(this), \"recipient must be borrow proxy\");\n      require(tokenAddress.approveForMaxIfNeeded(to), \"approval of token failed\");\n    } else if (sig == IUniswapExchange.tokenToTokenSwapOutput.selector) {\n      (uint256 tokens_bought, uint256 max_tokens_sold, uint256 max_eth_sold, /* uint256 deadline */, address payable token_addr) = abi.decode(args, (uint256, uint256, uint256, uint256, address));\n      if (tokens_bought > 0 && (max_tokens_sold > 0 || max_eth_sold > 0)) newToken = token_addr;\n      require(tokenAddress.approveForMaxIfNeeded(to), \"approval of token failed\");\n    } else if (sig == IUniswapExchange.tokenToTokenTransferOutput.selector) {\n      (uint256 tokens_bought, uint256 max_tokens_sold, uint256 max_eth_sold, /* uint256 deadline */, address recipient, address payable token_addr) = abi.decode(args, (uint256, uint256, uint256, uint256, address, address));\n      if (tokens_bought > 0 && (max_tokens_sold != 0 || max_eth_sold != 0)) newToken = token_addr;\n      require(recipient != address(this), \"recipient must be borrow proxy\");\n      require(tokenAddress.approveForMaxIfNeeded(to), \"approval of token failed\");\n    } else if (sig == IUniswapExchange.tokenToExchangeSwapInput.selector) {\n      (uint256 tokens_sold, /* uint256 min_tokens_bought */, /* uint256 min_eth_bought */, /* uint256 deadline */, address payable exchange_addr) = abi.decode(args, (uint256, uint256, uint256, uint256, address));\n      if (tokens_sold > 0) newToken = IUniswapExchange(exchange_addr).tokenAddress();\n      require(tokenAddress.approveForMaxIfNeeded(to), \"approval of token failed\");\n    } else if (sig == IUniswapExchange.tokenToExchangeTransferInput.selector) {\n      (uint256 tokens_sold, /* uint256 min_tokens_bought */, /* uint256 min_eth_bought */, /* uint256 deadline */, address recipient, address payable exchange_addr) = abi.decode(args, (uint256, uint256, uint256, uint256, address, address));\n      require(recipient == address(this), \"recipient must be borrow proxy\");\n      if (tokens_sold > 0) newToken = IUniswapExchange(exchange_addr).tokenAddress();\n      require(tokenAddress.approveForMaxIfNeeded(to), \"approval of token failed\");\n    } else if (sig == IUniswapExchange.tokenToExchangeSwapOutput.selector) {\n      (uint256 tokens_bought, /* uint256 max_tokens_sold */, /* uint256 max_eth_sold */, /* uint256 deadline */, address payable exchange_addr) = abi.decode(args, (uint256, uint256, uint256, uint256, address));\n      if (tokens_bought > 0) newToken = IUniswapExchange(exchange_addr).tokenAddress();\n      require(tokenAddress.approveForMaxIfNeeded(to), \"approval of token failed\");\n    } else if (sig == IUniswapExchange.tokenToExchangeTransferOutput.selector) {\n      (uint256 tokens_bought, /* uint256 max_tokens_sold */, /* uint256 max_eth_sold */, /* uint256 deadline */, address payable recipient, address payable exchange_addr) = abi.decode(args, (uint256, uint256, uint256, uint256, address, address));\n      require(recipient == address(this), \"recipient must be borrow proxy\");\n      if (tokens_bought > 0) newToken = IUniswapExchange(exchange_addr).tokenAddress();\n      require(tokenAddress.approveForMaxIfNeeded(to), \"approval of token failed\");\n    } else revert(\"unsupported contract call\");\n    if (newToken != address(0x0)) require(liquidationModule.delegateNotify(abi.encode(newToken)), \"liquidation module notification failure\");\n    (bool success, bytes memory retval) = to.call.value(value).gas(gasleft())(payload);\n    if (usedForwarder) UniswapAdapterLib.callForwarder(address(this));\n    if (success) assembly {\n      return(add(0x20, retval), mload(retval))\n    } else assembly {\n      revert(add(0x20, retval), mload(retval))\n    }\n  }\n}\n",
  "sourcePath": "/home/ray/0confirmation/packages/0confirmation-sol/contracts/adapters/assets/uniswap/UniswapAdapter.sol",
  "compiler": {
    "name": "solc",
    "version": "0.6.2+commit.bacdbe57.Emscripten.clang"
  },
  "schemaVersion": "3.0.23",
  "updatedAt": "2020-04-04T05:15:20.009Z",
  "devdoc": {
    "methods": {}
  },
  "userdoc": {
    "methods": {}
  }
}