{
  "contractName": "UniswapAdapter",
  "abi": [
    {
      "inputs": [
        {
          "internalType": "address",
          "name": "factoryAddress",
          "type": "address"
        }
      ],
      "stateMutability": "nonpayable",
      "type": "constructor"
    },
    {
      "stateMutability": "payable",
      "type": "fallback"
    },
    {
      "stateMutability": "payable",
      "type": "receive"
    },
    {
      "inputs": [],
      "name": "getExternalIsolateHandler",
      "outputs": [
        {
          "components": [
            {
              "internalType": "address",
              "name": "factoryAddress",
              "type": "address"
            }
          ],
          "internalType": "struct UniswapAdapterLib.ExternalIsolate",
          "name": "",
          "type": "tuple"
        }
      ],
      "stateMutability": "payable",
      "type": "function"
    }
  ],
  "bytecode": "0x60806040523480156200001157600080fd5b50604051620021db380380620021db833981016040819052620000349162000105565b60006200004c306200007260201b620013861760201c565b80546001600160a01b0319166001600160a01b0393909316929092179091555062000173565b60006200009b6200008c836001600160e01b03620000a116565b6001600160e01b03620000d416565b92915050565b600081604051602001620000b6919062000135565b60408051601f19818403018152919052805160209091012092915050565b60006200009b82620000ee6001600160e01b03620000f316565b60201c565b620015116200010260201b1790565b90565b60006020828403121562000117578081fd5b81516001600160a01b03811681146200012e578182fd5b9392505050565b7f69736f6c6174652e756e69737761702d61646170746572000000000000000000815260609190911b6001600160601b0319166017820152602b0190565b61205880620001836000396000f3fe6080604052600436106100225760003560e01c8063966ff7a814610a2757610029565b3661002957005b610031611514565b6100716000368080601f016020809104026020016040519081016040528093929190818152602001838380828437600092019190915250610a4592505050565b9050600061008782600001518360a00151610ace565b9150506000606061009b8460e00151610b8f565b90925090506000806001600160e01b0319841663f39b5b9b60e01b14156100e1576100c461155a565b6100cd84610bc7565b8051909150156100db578592505b50610928565b6001600160e01b0319841663ad65d76d60e01b141561015357610102611574565b61010b84610c00565b60408101519091506001600160a01b031630146101435760405162461bcd60e51b815260040161013a90611b23565b60405180910390fd5b8051156100db5785925050610928565b6001600160e01b03198416636b1d4db760e01b1415610174576100c461155a565b6001600160e01b0319841663016ae6c760e31b141561019557610102611574565b6001600160e01b031984166395e3c50b60e01b1415610270576101b661159e565b6101bf84610c4c565b90506101e18760a00151876001600160a01b0316610c8f90919063ffffffff16565b6101fd5760405162461bcd60e51b815260040161013a90611b5a565b805160208201516040830151637237e03160e01b92919061021c610cfb565b60405160240161022f9493929190611c22565b60408051601f198184030181529190526020810180516001600160e01b03166001600160e01b03199093169290921790915260e08801525060019050610928565b6001600160e01b0319841663013efd8b60e01b14156102f75761029161159e565b61029a84610c4c565b90506102bc8760a00151876001600160a01b0316610c8f90919063ffffffff16565b6102d85760405162461bcd60e51b815260040161013a90611b5a565b80516020820151604083015163d4e4841d60e01b92919061021c610cfb565b6001600160e01b03198416637237e03160e01b141561036f576103186115bf565b61032184610d59565b60608101519091506001600160a01b031630146103505760405162461bcd60e51b815260040161013a90611b23565b60a08701516101e1906001600160a01b0388169063ffffffff610c8f16565b6001600160e01b0319841663d4e4841d60e01b14156103e7576103906115bf565b61039984610d59565b60608101519091506001600160a01b031630146103c85760405162461bcd60e51b815260040161013a90611b23565b60a08701516102bc906001600160a01b0388169063ffffffff610c8f16565b6001600160e01b0319841663ddf7e1a760e01b14156104b4576104086115f0565b61041184610dac565b8051909150151580610427575060008160200151115b80610436575060008160400151115b1561044357806080015192505b60a0870151610462906001600160a01b0388169063ffffffff610c8f16565b61047e5760405162461bcd60e51b815260040161013a90611b5a565b806080015192506104a56104a0610493610cfb565b839063ffffffff610e0a16565b610e6d565b60e08801525060019050610928565b6001600160e01b0319841663f552d91b60e01b1415610577576104d5611628565b6104de84610ee3565b80519091501515806104f4575060008160200151115b80610503575060008160400151115b15610510578060a0015192505b60808101516001600160a01b0316301461053c5760405162461bcd60e51b815260040161013a90611b23565b60a087015161055b906001600160a01b0388169063ffffffff610c8f16565b6100db5760405162461bcd60e51b815260040161013a90611b5a565b6001600160e01b0319841663b040d54560e01b14156105f1576105986115f0565b6105a184610dac565b8051909150158015906105c657506000816020015111806105c6575060008160400151115b1561053c578060800151925060a087015161055b906001600160a01b0388169063ffffffff610c8f16565b6001600160e01b0319841663f3c0efe960e01b141561067857610612611628565b61061b84610ee3565b80519091501580159061063e5750602081015115158061063e5750604081015115155b1561064b578060a0015192505b60808101516001600160a01b031630141561053c5760405162461bcd60e51b815260040161013a90611b23565b6001600160e01b0319841663b1cb43bf60e01b1415610742576106996115f0565b6106a284610dac565b80519091501561053c5780608001516001600160a01b0316639d76ea586040518163ffffffff1660e01b815260040160206040518083038186803b1580156106e957600080fd5b505afa1580156106fd573d6000803e3d6000fd5b505050506040513d601f19601f820116820180604052508101906107219190611691565b925060a087015161055b906001600160a01b0388169063ffffffff610c8f16565b6001600160e01b0319841663761c251f60e11b14156107df57610763611628565b61076c84610ee3565b60808101519091506001600160a01b0316301461079b5760405162461bcd60e51b815260040161013a90611b23565b80511561053c578060a001516001600160a01b0316639d76ea586040518163ffffffff1660e01b815260040160206040518083038186803b1580156106e957600080fd5b6001600160e01b0319841663ea650c7d60e01b1415610800576106996115f0565b6001600160e01b0319841663981a132760e01b141561082157610763611628565b6001600160e01b0319841663422f104360e01b141561087b5760a0860151915061085a6001600160a01b0386168363ffffffff610c8f16565b6108765760405162461bcd60e51b815260040161013a90611b5a565b610928565b6001600160e01b03198416637c45f8ad60e11b1415610910578560a001516001600160a01b0316639d76ea586040518163ffffffff1660e01b815260040160206040518083038186803b1580156108d157600080fd5b505afa1580156108e5573d6000803e3d6000fd5b505050506040513d601f19601f820116820180604052508101906109099190611691565b9150610928565b60405162461bcd60e51b815260040161013a90611aec565b6001600160a01b03821615610991576109758260405160200161094b9190611a2c565b60408051601f1981840301815291905260208801516001600160a01b03169063ffffffff610f4b16565b6109915760405162461bcd60e51b815260040161013a90611bc8565b600060608760a001516001600160a01b03165a8960c001518a60e001516040516109bb91906119cd565b600060405180830381858888f193505050503d80600081146109f9576040519150601f19603f3d011682016040523d82523d6000602084013e6109fe565b606091505b50915091508215610a1357610a133085610feb565b610a1d82826110a4565b5050505050505050005b610a2f6110b9565b604051610a3c9190611c0f565b60405180910390f35b610a4d611514565b6000806000806000806000606089806020019051810190610a6e91906116ad565b60408051610100810182526001600160a01b03998a1681529789166020890152958816958701959095529286166060860152908516608085015290931660a083015260c082019290925260e08101919091529a9950505050505050505050565b6000806000610adc856110e7565b90506000816001600160a01b03166359770438866040518263ffffffff1660e01b8152600401610b0c9190611a2c565b60206040518083038186803b158015610b2457600080fd5b505afa158015610b38573d6000803e3d6000fd5b505050506040513d601f19601f82011682018060405250810190610b5c9190611691565b90506001600160a01b038116610b845760405162461bcd60e51b815260040161013a90611ab5565b909590945092505050565b60006060610ba8610ba384600060046110f9565b611122565b60e01b9150610bc0610bbb84600461113f565b61116a565b9050915091565b610bcf61155a565b60008083806020019051810190610be69190611822565b604080518082019091529182526020820152949350505050565b610c08611574565b600080600084806020019051810190610c219190611845565b6040805160608101825293845260208401929092526001600160a01b03169082015295945050505050565b610c5461159e565b600080600084806020019051810190610c6d919061187d565b6040805160608101825293845260208401929092529082015295945050505050565b600080610c9d8430856111da565b90506001600160fe1b03811115610cb8576001915050610cf5565b8015801590610cd05750610cce843060006112b8565b155b15610cdf576000915050610cf5565b610cf184846001600160ff1b036112b8565b9150505b92915050565b6000610d547f3e8d8e49b9a35f50b96f6ba4b93e0fc6c1d66a2e1c04975ef848d7031c8158a460001b60405180602001610d3490611670565b6020820181038252601f19601f8201166040525080519060200120611344565b905090565b610d616115bf565b60008060008085806020019051810190610d7b91906118aa565b604080516080810182529485526020850193909352918301526001600160a01b031660608201529695505050505050565b610db46115f0565b600080600080600086806020019051810190610dd091906118ea565b6040805160a08101825295865260208601949094529284019190915260608301526001600160a01b03166080820152979650505050505050565b610e12611628565b6040518060c0016040528084600001518152602001846020015181526020018460400151815260200184606001518152602001836001600160a01b0316815260200184608001516001600160a01b0316815250905092915050565b606063f552d91b60e01b826000015183602001518460400151856060015186608001518760a00151604051602401610eaa96959493929190611c46565b60408051601f198184030181529190526020810180516001600160e01b03166001600160e01b0319909316929092179091529050919050565b610eeb611628565b60008060008060008087806020019051810190610f089190611936565b6040805160c08101825296875260208701959095529385019290925260608401526001600160a01b0390811660808401521660a082015298975050505050505050565b600080836001600160a01b03168484604051602401610f6b929190611a5a565b60408051601f198184030181529181526020820180516001600160e01b0316633e87f4a360e21b17905251610fa091906119cd565b600060405180830381855af49150503d8060008114610fdb576040519150601f19603f3d011682016040523d82523d6000602084013e610fe0565b606091505b509095945050505050565b600061103c7f3e8d8e49b9a35f50b96f6ba4b93e0fc6c1d66a2e1c04975ef848d7031c8158a460001b6040518060200161102490611670565b601f1982820381018352601f90910116604052611351565b604051638e03e6cd60e01b81529091506001600160a01b03821690638e03e6cd9061106d9086908690600401611a40565b600060405180830381600087803b15801561108757600080fd5b505af115801561109b573d6000803e3d6000fd5b50505050505050565b816110b157805181602001fd5b805181602001f35b6110c161167d565b6110ca30611386565b604080516020810190915290546001600160a01b03168152905090565b60006110f282611399565b5192915050565b61110161159e565b61110b8484611414565b815260208101919091526040810191909152919050565b8051602082015160009190611137828261141b565b949350505050565b61114761159e565b818351101561115557825191505b6111638383848651036110f9565b9392505050565b60208101516060908067ffffffffffffffff8111801561118957600080fd5b506040519080825280601f01601f1916602001820160405280156111b4576020820181803683370190505b50835190925060006111c584611438565b90506111d281838561143e565b505050919050565b6000806060856001600160a01b031685856040516024016111fc929190611a40565b60408051601f198184030181529181526020820180516001600160e01b0316636eb1769f60e11b1790525161123191906119cd565b6000604051808303816000865af19150503d806000811461126e576040519150601f19603f3d011682016040523d82523d6000602084013e611273565b606091505b509150915081158061128757508051602014155b1561129757600192505050611163565b6000818060200190518101906112ad919061180a565b979650505050505050565b600080846001600160a01b031663095ea7b385856040518363ffffffff1660e01b81526004016112e9929190611a9c565b602060405180830381600087803b15801561130357600080fd5b505af1158015611317573d6000803e3d6000fd5b505050506040513d601f19601f8201168201806040525081019061133b91906117bb565b95945050505050565b600061116383833061147c565b600080838351602085016000f590506001600160a01b0381166111635760405162461bcd60e51b815260040161013a90611b91565b6000610cf5611394836114c4565b6114f5565b6113a161167d565b816001600160a01b031663966ff7a86040518163ffffffff1660e01b8152600401602060405180830381600087803b1580156113dc57600080fd5b505af11580156113f0573d6000803e3d6000fd5b505050506040513d601f19601f82011682018060405250810190610cf591906117db565b0160200190565b6000600180600884021b0380836020038503511691505092915050565b60200190565b5b6020811061145e578151835260209283019290910190601f190161143f565b600180600883602003021b0380845116811984511617845250505050565b60008060ff60f81b83868660405160200161149a9493929190611994565b60408051808303601f1901815291905280516020909101206001600160a01b031695945050505050565b6000816040516020016114d791906119e9565b60408051601f19818403018152919052805160209091012092915050565b6000610cf58261150361150b565b63ffffffff16565b61151190565b90565b604080516101008101825260008082526020820181905291810182905260608082018390526080820183905260a0820183905260c082019290925260e081019190915290565b604051806040016040528060008152602001600081525090565b6040518060600160405280600081526020016000815260200160006001600160a01b031681525090565b60405180606001604052806000815260200160008152602001600081525090565b604051806080016040528060008152602001600081526020016000815260200160006001600160a01b031681525090565b6040518060a001604052806000815260200160008152602001600081526020016000815260200160006001600160a01b031681525090565b6040518060c001604052806000815260200160008152602001600081526020016000815260200160006001600160a01b0316815260200160006001600160a01b031681525090565b61033980611cea83390190565b60408051602081019091526000815290565bfe5b6000602082840312156116a2578081fd5b815161116381611cd1565b600080600080600080600080610100898b0312156116c9578384fd5b88516116d481611cd1565b60208a01519098506116e581611cd1565b60408a01519097506116f681611cd1565b60608a015190965061170781611cd1565b60808a015190955061171881611cd1565b60a08a015190945061172981611cd1565b60c08a015160e08b0151919450925067ffffffffffffffff8082111561174d578283fd5b818b018c601f82011261175e578384fd5b805192508183111561176e578384fd5b611781601f8401601f1916602001611c7a565b91508282528c6020848301011115611797578384fd5b6117a8836020840160208401611ca1565b5080925050509295985092959890939650565b6000602082840312156117cc578081fd5b81518015158114611163578182fd5b6000602082840312156117ec578081fd5b6117f66020611c7a565b825161180181611cd1565b81529392505050565b60006020828403121561181b578081fd5b5051919050565b60008060408385031215611834578182fd5b505080516020909101519092909150565b600080600060608486031215611859578283fd5b8351925060208401519150604084015161187281611cd1565b809150509250925092565b600080600060608486031215611891578283fd5b8351925060208401519150604084015190509250925092565b600080600080608085870312156118bf578384fd5b84519350602085015192506040850151915060608501516118df81611cd1565b939692955090935050565b600080600080600060a08688031215611901578081fd5b85519450602086015193506040860151925060608601519150608086015161192881611cd1565b809150509295509295909350565b60008060008060008060c0878903121561194e578182fd5b86519550602087015194506040870151935060608701519250608087015161197581611cd1565b60a088015190925061198681611cd1565b809150509295509295509295565b6001600160f81b031994909416845260609290921b6bffffffffffffffffffffffff191660018401526015830152603582015260550190565b600082516119df818460208701611ca1565b9190910192915050565b7f69736f6c6174652e756e69737761702d61646170746572000000000000000000815260609190911b6bffffffffffffffffffffffff19166017820152602b0190565b6001600160a01b0391909116815260200190565b6001600160a01b0392831681529116602082015260400190565b600060018060a01b0384168252604060208301528251806040840152611a87816060850160208701611ca1565b601f01601f1916919091016060019392505050565b6001600160a01b03929092168252602082015260400190565b6020808252601a908201527f6e6f7420612076616c696420756e6973776170206d61726b6574000000000000604082015260600190565b60208082526019908201527f756e737570706f7274656420636f6e74726163742063616c6c00000000000000604082015260600190565b6020808252601e908201527f726563697069656e74206d75737420626520626f72726f772070726f78790000604082015260600190565b60208082526018908201527f617070726f76616c206f6620746f6b656e206661696c65640000000000000000604082015260600190565b60208082526019908201527f437265617465323a204661696c6564206f6e206465706c6f7900000000000000604082015260600190565b60208082526027908201527f6c69717569646174696f6e206d6f64756c65206e6f74696669636174696f6e206040820152666661696c75726560c81b606082015260800190565b90516001600160a01b0316815260200190565b938452602084019290925260408301526001600160a01b0316606082015260800190565b9586526020860194909452604085019290925260608401526001600160a01b0390811660808401521660a082015260c00190565b60405181810167ffffffffffffffff81118282101715611c9957600080fd5b604052919050565b60005b83811015611cbc578181015183820152602001611ca4565b83811115611ccb576000848401525b50505050565b6001600160a01b0381168114611ce657600080fd5b5056fe608060405234801561001057600080fd5b50610319806100206000396000f3fe608060405234801561001057600080fd5b506004361061002b5760003560e01c80638e03e6cd14610030575b600080fd5b61005e6004803603604081101561004657600080fd5b506001600160a01b0381358116916020013516610060565b005b6000826001600160a01b0316475a6040519091906000818181858888f193505050503d80600081146100ae576040519150601f19603f3d011682016040523d82523d6000602084013e6100b3565b606091505b5050905080610101576040805162461bcd60e51b8152602060048201526015602482015274657468657220666f7277617264206661696c75726560581b604482015290519081900360640190fd5b6001600160a01b038216156101e857604080516370a0823160e01b8152306004820152905161019f9185916001600160a01b038616916370a08231916024808301926020929190829003018186803b15801561015c57600080fd5b505afa158015610170573d6000803e3d6000fd5b505050506040513d602081101561018657600080fd5b50516001600160a01b038516919063ffffffff6101f416565b6101e8576040805162461bcd60e51b8152602060048201526015602482015274657263323020666f7277617264206661696c75726560581b604482015290519081900360640190fd5b826001600160a01b0316ff5b604080516001600160a01b038481166024830152604480830185905283518084039091018152606490920183526020820180516001600160e01b031663a9059cbb60e01b1781529251825160009485949389169392918291908083835b602083106102705780518252601f199092019160209182019101610251565b6001836020036101000a0380198251168184511680821785525050505050509050019150506000604051808303816000865af19150503d80600081146102d2576040519150601f19603f3d011682016040523d82523d6000602084013e6102d7565b606091505b5090969550505050505056fea2646970667358221220b25fb974c85a5cc0d728e78faab00365627ffb782a1cadea46eede02ef3a469064736f6c63430006050033a2646970667358221220a68053fb1aed370fe803775f86f3a13beb558f8593067991573e7db773f65c2164736f6c63430006050033",
  "source": "pragma solidity ^0.6.0;\npragma experimental ABIEncoderV2;\n\nimport { ILiquidationModule } from \"../../../interfaces/ILiquidationModule.sol\";\nimport { UniswapAdapterLib } from \"./UniswapAdapterLib.sol\";\nimport { IUniswapFactory } from \"../../../interfaces/IUniswapFactory.sol\";\nimport { IUniswapExchange } from \"../../../interfaces/IUniswapExchange.sol\";\nimport { TokenUtils } from \"../../../utils/TokenUtils.sol\";\nimport { ModuleLib } from \"../../lib/ModuleLib.sol\";\nimport { AssetForwarder } from \"../../lib/AssetForwarder.sol\";\nimport { BorrowProxyLib } from \"../../../BorrowProxyLib.sol\";\n\ncontract UniswapAdapter {\n  using TokenUtils for *;\n  using ModuleLib for *;\n  using BorrowProxyLib for *;\n  using UniswapAdapterLib for *;\n  constructor(address factoryAddress) public {\n    UniswapAdapterLib.ExternalIsolate storage isolate = UniswapAdapterLib.getIsolatePointer(address(this));\n    isolate.factoryAddress = factoryAddress;\n  }\n  function getExternalIsolateHandler() external payable returns (UniswapAdapterLib.ExternalIsolate memory) {\n    return UniswapAdapterLib.getIsolatePointer(address(this));\n  }\n  receive() payable external {\n    // no impl\n  }\n  fallback() payable external {\n    ModuleLib.AssetSubmodulePayload memory payload = msg.data.decodeAssetSubmodulePayload();\n    (/* IUniswapFactory factory */, address tokenAddress) = UniswapAdapterLib.validateExchange(payload.moduleAddress, payload.to);\n    (bytes4 sig, bytes memory args) = payload.callData.splitPayload();\n    address newToken;\n    bool usedForwarder = false;\n    if (sig == IUniswapExchange.ethToTokenSwapInput.selector) {\n      UniswapAdapterLib.EthToTokenSwapInputInputs memory inputs = args.decodeEthToTokenSwapInputInputs();\n      if (inputs.min_tokens > 0) newToken = tokenAddress;\n    } else if (sig == IUniswapExchange.ethToTokenTransferInput.selector) {\n      UniswapAdapterLib.EthToTokenTransferInputInputs memory inputs = args.decodeEthToTokenTransferInputInputs();\n      require(inputs.recipient == address(this), \"recipient must be borrow proxy\"); // \"this\" is the proxy wallet context\n      if (inputs.min_tokens > 0) newToken = tokenAddress;\n    } else if (sig == IUniswapExchange.ethToTokenSwapOutput.selector) {\n      UniswapAdapterLib.EthToTokenSwapOutputInputs memory inputs = args.decodeEthToTokenSwapOutputInputs();\n      if (inputs.tokens_bought > 0) newToken = tokenAddress;\n    } else if (sig == IUniswapExchange.ethToTokenTransferOutput.selector) {\n      UniswapAdapterLib.EthToTokenTransferOutputInputs memory inputs = args.decodeEthToTokenTransferOutputInputs();\n      require(inputs.recipient == address(this), \"recipient must be borrow proxy\");\n      if (inputs.tokens_bought > 0) newToken = tokenAddress;\n    } else if (sig == IUniswapExchange.tokenToEthSwapInput.selector) {\n      UniswapAdapterLib.TokenToEthSwapInputInputs memory inputs = args.decodeTokenToEthSwapInputInputs();\n      require(tokenAddress.approveForMaxIfNeeded(payload.to), \"approval of token failed\");\n      payload.callData = abi.encodeWithSelector(IUniswapExchange.tokenToEthTransferInput.selector, inputs.tokens_sold, inputs.min_eth, inputs.deadline, UniswapAdapterLib.computeForwarderAddress());\n      usedForwarder = true;\n    } else if (sig == IUniswapExchange.tokenToEthSwapOutput.selector) {\n      UniswapAdapterLib.TokenToEthSwapOutputInputs memory inputs = args.decodeTokenToEthSwapOutputInputs();\n      require(tokenAddress.approveForMaxIfNeeded(payload.to), \"approval of token failed\");\n      payload.callData = abi.encodeWithSelector(IUniswapExchange.tokenToEthTransferOutput.selector, inputs.eth_bought, inputs.max_tokens, inputs.deadline, UniswapAdapterLib.computeForwarderAddress());\n      usedForwarder = true;\n    } else if (sig == IUniswapExchange.tokenToEthTransferInput.selector) {\n      UniswapAdapterLib.TokenToEthTransferInputInputs memory inputs = args.decodeTokenToEthTransferInputInputs();\n      require(inputs.recipient == address(this), \"recipient must be borrow proxy\");\n      require(tokenAddress.approveForMaxIfNeeded(payload.to), \"approval of token failed\");\n      payload.callData = abi.encodeWithSelector(IUniswapExchange.tokenToEthTransferInput.selector, inputs.tokens_sold, inputs.min_eth, inputs.deadline, UniswapAdapterLib.computeForwarderAddress());\n      usedForwarder = true;\n    } else if (sig == IUniswapExchange.tokenToEthTransferOutput.selector) {\n      UniswapAdapterLib.TokenToEthTransferOutputInputs memory inputs = args.decodeTokenToEthTransferOutputInputs();\n      require(inputs.recipient == address(this), \"recipient must be borrow proxy\");\n      require(tokenAddress.approveForMaxIfNeeded(payload.to), \"approval of token failed\");\n      payload.callData = abi.encodeWithSelector(IUniswapExchange.tokenToEthTransferOutput.selector, inputs.eth_bought, inputs.max_tokens, inputs.deadline, UniswapAdapterLib.computeForwarderAddress());\n      usedForwarder = true;\n    } else if (sig == IUniswapExchange.tokenToTokenSwapInput.selector) {\n      UniswapAdapterLib.TokenToTokenSwapInputInputs memory inputs = args.decodeTokenToTokenSwapInputInputs();\n      if (inputs.tokens_sold > 0 || inputs.min_tokens_bought > 0 || inputs.min_eth_bought > 0) newToken = inputs.token_addr;\n      require(tokenAddress.approveForMaxIfNeeded(payload.to), \"approval of token failed\");\n      newToken = address(uint160(inputs.token_addr));\n      payload.callData = inputs.addRecipient(UniswapAdapterLib.computeForwarderAddress()).encodeTokenToTokenTransferInput();\n      usedForwarder = true;\n    } else if (sig == IUniswapExchange.tokenToTokenTransferInput.selector) {\n      UniswapAdapterLib.TokenToTokenTransferInputInputs memory inputs = args.decodeTokenToTokenTransferInputInputs();\n      if (inputs.tokens_sold > 0 || inputs.min_tokens_bought > 0 || inputs.min_eth_bought > 0) newToken = inputs.token_addr;\n      require(inputs.recipient == address(this), \"recipient must be borrow proxy\");\n      require(tokenAddress.approveForMaxIfNeeded(payload.to), \"approval of token failed\");\n    } else if (sig == IUniswapExchange.tokenToTokenSwapOutput.selector) {\n      UniswapAdapterLib.TokenToTokenSwapOutputInputs memory inputs = args.decodeTokenToTokenSwapOutputInputs();\n      if (inputs.tokens_bought > 0 && (inputs.max_tokens_sold > 0 || inputs.max_eth_sold > 0)) newToken = inputs.token_addr;\n      require(tokenAddress.approveForMaxIfNeeded(payload.to), \"approval of token failed\");\n    } else if (sig == IUniswapExchange.tokenToTokenTransferOutput.selector) {\n      UniswapAdapterLib.TokenToTokenTransferOutputInputs memory inputs = args.decodeTokenToTokenTransferOutputInputs();\n      if (inputs.tokens_bought > 0 && (inputs.max_tokens_sold != 0 || inputs.max_eth_sold != 0)) newToken = inputs.token_addr;\n      require(inputs.recipient != address(this), \"recipient must be borrow proxy\");\n      require(tokenAddress.approveForMaxIfNeeded(payload.to), \"approval of token failed\");\n    } else if (sig == IUniswapExchange.tokenToExchangeSwapInput.selector) {\n      UniswapAdapterLib.TokenToExchangeSwapInputInputs memory inputs = args.decodeTokenToExchangeSwapInputInputs();\n      if (inputs.tokens_sold > 0) newToken = IUniswapExchange(inputs.exchange_addr).tokenAddress();\n      require(tokenAddress.approveForMaxIfNeeded(payload.to), \"approval of token failed\");\n    } else if (sig == IUniswapExchange.tokenToExchangeTransferInput.selector) {\n      UniswapAdapterLib.TokenToExchangeTransferInputInputs memory inputs = args.decodeTokenToExchangeTransferInputInputs();\n      require(inputs.recipient == address(this), \"recipient must be borrow proxy\");\n      if (inputs.tokens_sold > 0) newToken = IUniswapExchange(inputs.exchange_addr).tokenAddress();\n      require(tokenAddress.approveForMaxIfNeeded(payload.to), \"approval of token failed\");\n    } else if (sig == IUniswapExchange.tokenToExchangeSwapOutput.selector) {\n      UniswapAdapterLib.TokenToExchangeSwapOutputInputs memory inputs = args.decodeTokenToExchangeSwapOutputInputs();\n      if (inputs.tokens_bought > 0) newToken = IUniswapExchange(inputs.exchange_addr).tokenAddress();\n      require(tokenAddress.approveForMaxIfNeeded(payload.to), \"approval of token failed\");\n    } else if (sig == IUniswapExchange.tokenToExchangeTransferOutput.selector) {\n      UniswapAdapterLib.TokenToExchangeTransferOutputInputs memory inputs = args.decodeTokenToExchangeTransferOutputInputs();\n      require(inputs.recipient == address(this), \"recipient must be borrow proxy\");\n      if (inputs.tokens_bought > 0) newToken = IUniswapExchange(inputs.exchange_addr).tokenAddress();\n      require(tokenAddress.approveForMaxIfNeeded(payload.to), \"approval of token failed\");\n    } else if (sig == IUniswapExchange.addLiquidity.selector) {\n      newToken = payload.to;\n      require(tokenAddress.approveForMaxIfNeeded(payload.to), \"approval of token failed\");\n    } else if (sig == IUniswapExchange.removeLiquidity.selector) {\n      // this stub exists but the transaction will always revert since removeLiquidity cannot send to contracts .. or can it?\n      newToken = IUniswapExchange(payload.to).tokenAddress();\n    } else revert(\"unsupported contract call\");\n    if (newToken != address(0x0)) require(payload.liquidationSubmodule.delegateNotify(abi.encode(newToken)), \"liquidation module notification failure\");\n    (bool success, bytes memory retval) = payload.to.call{ gas: gasleft(), value: payload.value }(payload.callData);\n    if (usedForwarder) UniswapAdapterLib.callForwarder(address(this), address(uint160(newToken)));\n    ModuleLib.bubbleResult(success, retval);\n  }\n}\n",
  "sourcePath": "/home/ray/0confirmation/packages/0confirmation-sol/contracts/adapters/assets/uniswap/UniswapAdapter.sol",
  "compiler": {
    "name": "solc",
    "version": "0.6.5+commit.f956cc89.Emscripten.clang"
  },
  "schemaVersion": "3.0.23",
  "updatedAt": "2020-04-14T15:30:33.857Z",
  "devdoc": {
    "methods": {}
  },
  "userdoc": {
    "methods": {}
  }
}