{
  "contractName": "UniswapAdapterLib",
  "abi": [
    {
      "inputs": [
        {
          "internalType": "address",
          "name": "instance",
          "type": "address"
        }
      ],
      "name": "computeIsolatePointer",
      "outputs": [
        {
          "internalType": "uint256",
          "name": "",
          "type": "uint256"
        }
      ],
      "stateMutability": "pure",
      "type": "function"
    }
  ],
  "bytecode": "0x610105610025600b82828239805160001a607314601857fe5b30600052607381538281f3fe730000000000000000000000000000000000000000301460806040526004361060335760003560e01c80638cb6e191146038575b600080fd5b605b60048036036020811015604c57600080fd5b50356001600160a01b0316606d565b60408051918252519081900360200190f35b604080517f69736f6c6174652e756e69737761702d6164617074657200000000000000000060208083019190915260609390931b6bffffffffffffffffffffffff191660378201528151808203602b018152604b90910190915280519101209056fea26469706673582212202ac6178b8df1ebd4ad1e4a521ca1fe1d469c4064e03ccbff8d645e215b83179164736f6c63430006020033",
  "source": "pragma solidity ^0.6.0;\n\nimport { UniswapAdapter } from \"./UniswapAdapter.sol\";\nimport { IUniswapFactory } from \"../../../interfaces/IUniswapFactory.sol\";\nimport { IUniswapExchange } from \"../../../interfaces/IUniswapExchange.sol\";\nimport { SliceLib } from \"../../../utils/SliceLib.sol\";\nimport { BorrowProxyLib } from \"../../../BorrowProxyLib.sol\";\nimport { ShifterBorrowProxyLib } from \"../../../ShifterBorrowProxyLib.sol\";\n\nlibrary UniswapAdapterLib {\n  using SliceLib for *;\n  using BorrowProxyLib for *;\n  using ShifterBorrowProxyLib for *;\n  struct ExternalIsolate {\n    address factoryAddress;\n  }\n  function cast(uint256 v) internal pure returns (uint256) {\n    return v;\n  }\n  function computeIsolatePointer(address instance) public pure returns (uint256) {\n    return uint256(keccak256(abi.encodePacked(\"isolate.uniswap-adapter\", instance)));\n  }\n  function toIsolatePointer(uint256 key) internal returns (ExternalIsolate storage) {\n    function (uint256) internal returns (ExternalIsolate storage) swap;\n    function (uint256) internal returns (uint256) real = cast;\n    assembly {\n      swap := real\n    }\n    return swap(key);\n  }\n  function getIsolatePointer(address instance) internal returns (ExternalIsolate storage) {\n    return toIsolatePointer(computeIsolatePointer(instance));\n  }\n  function getExternalIsolate(address payable moduleAddress) internal returns (ExternalIsolate memory) {\n    return UniswapAdapter(moduleAddress).getExternalIsolateHandler();\n  }\n  function getFactory(address payable moduleAddress) internal returns (IUniswapFactory) {\n    return IUniswapFactory(getExternalIsolate(moduleAddress).factoryAddress);\n  }\n  function validateExchange(address payable moduleAddress, address to) internal returns (IUniswapFactory, address) {\n    IUniswapFactory factory = getFactory(moduleAddress);\n    address tokenAddress = factory.getToken(to);\n    require(tokenAddress != address(0x0), \"not a valid uniswap market\");\n    return (factory, tokenAddress);\n  }\n  function splitPayload(bytes memory payload) internal pure returns (bytes4 sig, bytes memory args) {\n    sig = bytes4(payload.toSlice(0, 4).asWord());\n    args = payload.toSlice(4).copy();\n  }\n}\n",
  "sourcePath": "/home/ray/0confirmation/packages/0confirmation-sol/contracts/adapters/assets/uniswap/UniswapAdapterLib.sol",
  "compiler": {
    "name": "solc",
    "version": "0.6.2+commit.bacdbe57.Emscripten.clang"
  },
  "schemaVersion": "3.0.23",
  "updatedAt": "2020-04-03T22:51:59.744Z",
  "devdoc": {
    "methods": {}
  },
  "userdoc": {
    "methods": {}
  }
}