{
  "contractName": "UniswapAdapterLib",
  "abi": [
    {
      "inputs": [
        {
          "internalType": "address",
          "name": "instance",
          "type": "address"
        }
      ],
      "name": "computeIsolatePointer",
      "outputs": [
        {
          "internalType": "uint256",
          "name": "",
          "type": "uint256"
        }
      ],
      "stateMutability": "pure",
      "type": "function"
    }
  ],
  "bytecode": "0x610105610025600b82828239805160001a607314601857fe5b30600052607381538281f3fe730000000000000000000000000000000000000000301460806040526004361060335760003560e01c80638cb6e191146038575b600080fd5b605b60048036036020811015604c57600080fd5b50356001600160a01b0316606d565b60408051918252519081900360200190f35b604080517f69736f6c6174652e756e69737761702d6164617074657200000000000000000060208083019190915260609390931b6bffffffffffffffffffffffff191660378201528151808203602b018152604b90910190915280519101209056fea26469706673582212206498feed4cbabd471a52690d150eee3c1927e1d4e0b824169d60bd5efe4617a464736f6c63430006050033",
  "source": "pragma solidity ^0.6.0;\n\nimport { UniswapAdapter } from \"./UniswapAdapter.sol\";\nimport { IUniswapFactory } from \"../../../interfaces/IUniswapFactory.sol\";\nimport { IUniswapExchange } from \"../../../interfaces/IUniswapExchange.sol\";\nimport { BorrowProxyLib } from \"../../../BorrowProxyLib.sol\";\nimport { ShifterBorrowProxyLib } from \"../../../ShifterBorrowProxyLib.sol\";\nimport { Create2 } from \"openzeppelin-solidity/contracts/utils/Create2.sol\";\nimport { ModuleLib } from \"../../lib/ModuleLib.sol\";\nimport { AssetForwarder } from \"../../lib/AssetForwarder.sol\";\n\nlibrary UniswapAdapterLib {\n  using BorrowProxyLib for *;\n  using ShifterBorrowProxyLib for *;\n  bytes32 constant ETHER_FORWARDER_SALT = 0x3e8d8e49b9a35f50b96f6ba4b93e0fc6c1d66a2e1c04975ef848d7031c8158a4; // keccak(\"uniswap-adapter.ether-forwarder\")\n  struct ExternalIsolate {\n    address factoryAddress;\n  }\n  struct TokenToTokenSwapInputInputs {\n    uint256 tokens_sold;\n    uint256 min_tokens_bought;\n    uint256 min_eth_bought;\n    uint256 deadline;\n    address payable token_addr;\n  }\n  struct TokenToTokenTransferInputInputs {\n    uint256 tokens_sold;\n    uint256 min_tokens_bought;\n    uint256 min_eth_bought;\n    uint256 deadline;\n    address recipient;\n    address payable token_addr;\n  }\n  function decodeTokenToTokenTransferInputInputs(bytes memory args) internal pure returns (TokenToTokenTransferInputInputs memory) {\n    (uint256 tokens_sold, uint256 min_tokens_bought, uint256 min_eth_bought, uint256 deadline, address recipient, address payable token_addr) = abi.decode(args, (uint256, uint256, uint256, uint256, address, address));\n    return TokenToTokenTransferInputInputs({\n      tokens_sold: tokens_sold,\n      min_tokens_bought: min_tokens_bought,\n      min_eth_bought: min_eth_bought,\n      deadline: deadline,\n      recipient: recipient,\n      token_addr: token_addr\n    });\n  }\n  function addRecipient(TokenToTokenSwapInputInputs memory input, address recipient) internal pure returns (TokenToTokenTransferInputInputs memory) {\n    return TokenToTokenTransferInputInputs({\n      tokens_sold: input.tokens_sold,\n      min_tokens_bought: input.min_tokens_bought,\n      min_eth_bought: input.min_eth_bought,\n      deadline: input.deadline,\n      recipient: recipient,\n      token_addr: input.token_addr\n    });\n  }\n  function encodeTokenToTokenTransferInput(TokenToTokenTransferInputInputs memory input) internal pure returns (bytes memory) {\n    return abi.encodeWithSelector(IUniswapExchange.tokenToTokenTransferInput.selector, input.tokens_sold, input.min_tokens_bought, input.min_eth_bought, input.deadline, input.recipient, input.token_addr);\n  }\n  function decodeTokenToTokenSwapInputInputs(bytes memory args) internal pure returns (TokenToTokenSwapInputInputs memory) {\n    (uint256 tokens_sold, uint256 min_tokens_bought, uint256 min_eth_bought, uint256 deadline, address payable token_addr) = abi.decode(args, (uint256, uint256, uint256, uint256, address));\n    return TokenToTokenSwapInputInputs({\n      tokens_sold: tokens_sold,\n      min_tokens_bought: min_tokens_bought,\n      min_eth_bought: min_eth_bought,\n      deadline: deadline,\n      token_addr: token_addr\n    });\n  }\n  struct EthToTokenSwapInputInputs {\n    uint256 min_tokens;\n    uint256 deadline;\n  }\n  function decodeEthToTokenSwapInputInputs(bytes memory args) internal pure returns (EthToTokenSwapInputInputs memory) {\n    (uint256 min_tokens, uint256 deadline) = abi.decode(args, (uint256,uint256));\n    return EthToTokenSwapInputInputs({\n      min_tokens: min_tokens,\n      deadline: deadline\n    });\n  }\n  struct EthToTokenTransferInputInputs {\n    uint256 min_tokens;\n    uint256 deadline;\n    address recipient;\n  }\n  function decodeEthToTokenTransferInputInputs(bytes memory args) internal pure returns (EthToTokenTransferInputInputs memory) {\n    (uint256 min_tokens, uint256 deadline, address recipient) = abi.decode(args, (uint256,uint256,address));\n    return EthToTokenTransferInputInputs({\n      min_tokens: min_tokens,\n      deadline: deadline,\n      recipient: recipient\n    });\n  }\n  struct EthToTokenSwapOutputInputs {\n    uint256 tokens_bought;\n    uint256 deadline;\n  }\n  function decodeEthToTokenSwapOutputInputs(bytes memory args) internal pure returns (EthToTokenSwapOutputInputs memory) {\n    (uint256 tokens_bought, uint256 deadline) = abi.decode(args, (uint256,uint256));\n    return EthToTokenSwapOutputInputs({\n      tokens_bought: tokens_bought,\n      deadline: deadline\n    });\n  }\n  struct EthToTokenTransferOutputInputs {\n    uint256 tokens_bought;\n    uint256 deadline;\n    address recipient;\n  }\n  function decodeEthToTokenTransferOutputInputs(bytes memory args) internal pure returns (EthToTokenTransferOutputInputs memory) {\n    (uint256 tokens_bought, uint256 deadline, address recipient) = abi.decode(args, (uint256,uint256,address));\n    return EthToTokenTransferOutputInputs({\n      tokens_bought: tokens_bought,\n      deadline: deadline,\n      recipient: recipient\n    });\n  }\n  struct TokenToEthSwapInputInputs {\n    uint256 tokens_sold;\n    uint256 min_eth;\n    uint256 deadline;\n  }\n  function decodeTokenToEthSwapInputInputs(bytes memory args) internal pure returns (TokenToEthSwapInputInputs memory) {\n    (uint256 tokens_sold, uint256 min_eth, uint256 deadline) = abi.decode(args, (uint256,uint256,uint256));\n    return TokenToEthSwapInputInputs({\n      tokens_sold: tokens_sold,\n      min_eth: min_eth,\n      deadline: deadline\n    });\n  }\n  struct TokenToEthSwapOutputInputs {\n    uint256 eth_bought;\n    uint256 max_tokens;\n    uint256 deadline;\n  }\n  function decodeTokenToEthSwapOutputInputs(bytes memory args) internal pure returns (TokenToEthSwapOutputInputs memory) {\n    (uint256 eth_bought, uint256 max_tokens, uint256 deadline) = abi.decode(args, (uint256,uint256,uint256));\n    return TokenToEthSwapOutputInputs({\n      eth_bought: eth_bought,\n      max_tokens: max_tokens,\n      deadline: deadline\n    });\n  }\n  struct TokenToEthTransferInputInputs {\n    uint256 tokens_sold;\n    uint256 min_eth;\n    uint256 deadline;\n    address payable recipient;\n  }\n  function decodeTokenToEthTransferInputInputs(bytes memory args) internal pure returns (TokenToEthTransferInputInputs memory) {\n    (uint256 tokens_sold, uint256 min_eth, uint256 deadline, address payable recipient) = abi.decode(args, (uint256,uint256,uint256,address));\n    return TokenToEthTransferInputInputs({\n      tokens_sold: tokens_sold,\n      min_eth: min_eth,\n      deadline: deadline,\n      recipient: recipient\n    });\n  }\n  struct TokenToEthTransferOutputInputs {\n    uint256 eth_bought;\n    uint256 max_tokens;\n    uint256 deadline;\n    address payable recipient;\n  }\n  function decodeTokenToEthTransferOutputInputs(bytes memory args) internal pure returns (TokenToEthTransferOutputInputs memory) {\n    (uint256 eth_bought, uint256 max_tokens, uint256 deadline, address payable recipient) = abi.decode(args, (uint256, uint256, uint256, address));\n    return TokenToEthTransferOutputInputs({\n      eth_bought: eth_bought,\n      max_tokens: max_tokens,\n      deadline: deadline,\n      recipient: recipient\n    });\n  }\n  struct TokenToTokenSwapOutputInputs {\n    uint256 tokens_bought;\n    uint256 max_tokens_sold;\n    uint256 max_eth_sold;\n    uint256 deadline;\n    address payable token_addr;\n  }\n  function decodeTokenToTokenSwapOutputInputs(bytes memory args) internal pure returns (TokenToTokenSwapOutputInputs memory) {\n    (uint256 tokens_bought, uint256 max_tokens_sold, uint256 max_eth_sold, uint256 deadline, address payable token_addr) = abi.decode(args, (uint256, uint256, uint256, uint256, address));\n    return TokenToTokenSwapOutputInputs({\n      tokens_bought: tokens_bought,\n      max_tokens_sold: max_tokens_sold,\n      max_eth_sold: max_eth_sold,\n      deadline: deadline,\n      token_addr: token_addr\n    });\n  }\n  struct TokenToTokenTransferOutputInputs {\n    uint256 tokens_bought;\n    uint256 max_tokens_sold;\n    uint256 max_eth_sold;\n    uint256 deadline;\n    address payable recipient;\n    address payable token_addr;\n  }\n  function decodeTokenToTokenTransferOutputInputs(bytes memory args) internal pure returns (TokenToTokenTransferOutputInputs memory) {\n    (uint256 tokens_bought, uint256 max_tokens_sold, uint256 max_eth_sold, uint256 deadline, address payable recipient, address payable token_addr) = abi.decode(args, (uint256, uint256, uint256, uint256, address, address));\n    return TokenToTokenTransferOutputInputs({\n      tokens_bought: tokens_bought,\n      max_tokens_sold: max_tokens_sold,\n      max_eth_sold: max_eth_sold,\n      deadline: deadline,\n      recipient: recipient,\n      token_addr: token_addr\n    });\n  }\n  struct TokenToExchangeSwapInputInputs {\n    uint256 tokens_sold;\n    uint256 min_tokens_bought;\n    uint256 min_eth_bought;\n    uint256 deadline;\n    address payable exchange_addr;\n  }\n  function decodeTokenToExchangeSwapInputInputs(bytes memory args) internal pure returns (TokenToExchangeSwapInputInputs memory) {\n    (uint256 tokens_sold, uint256 min_tokens_bought, uint256 min_eth_bought, uint256 deadline, address payable exchange_addr) = abi.decode(args, (uint256, uint256, uint256, uint256, address));\n    return TokenToExchangeSwapInputInputs({\n      tokens_sold: tokens_sold,\n      min_tokens_bought: min_tokens_bought,\n      min_eth_bought: min_eth_bought,\n      deadline: deadline,\n      exchange_addr: exchange_addr\n    });\n  }\n  struct TokenToExchangeTransferInputInputs {\n    uint256 tokens_sold;\n    uint256 min_tokens_bought;\n    uint256 min_eth_bought;\n    uint256 deadline;\n    address payable recipient;\n    address payable exchange_addr;\n  }\n  function decodeTokenToExchangeTransferInputInputs(bytes memory args) internal pure returns (TokenToExchangeTransferInputInputs memory) {\n    (uint256 tokens_sold, uint256 min_tokens_bought, uint256 min_eth_bought, uint256 deadline, address payable recipient, address payable exchange_addr) = abi.decode(args, (uint256, uint256, uint256, uint256, address, address));\n    return TokenToExchangeTransferInputInputs({\n      tokens_sold: tokens_sold,\n      min_tokens_bought: min_tokens_bought,\n      min_eth_bought: min_eth_bought,\n      deadline: deadline,\n      recipient: recipient,\n      exchange_addr: exchange_addr\n    });\n  }\n  struct TokenToExchangeSwapOutputInputs {\n    uint256 tokens_bought;\n    uint256 max_tokens_sold;\n    uint256 max_eth_sold;\n    uint256 deadline;\n    address payable exchange_addr;\n  }\n  function decodeTokenToExchangeSwapOutputInputs(bytes memory args) internal pure returns (TokenToExchangeSwapOutputInputs memory) {\n    (uint256 tokens_bought, uint256 max_tokens_sold, uint256 max_eth_sold, uint256 deadline, address payable exchange_addr) = abi.decode(args, (uint256, uint256, uint256, uint256, address));\n    return TokenToExchangeSwapOutputInputs({\n      tokens_bought: tokens_bought,\n      max_tokens_sold: max_tokens_sold,\n      max_eth_sold: max_eth_sold,\n      deadline: deadline,\n      exchange_addr: exchange_addr\n    });\n  }\n  struct TokenToExchangeTransferOutputInputs {\n    uint256 tokens_bought;\n    uint256 max_tokens_sold;\n    uint256 max_eth_sold;\n    uint256 deadline;\n    address payable recipient;\n    address payable exchange_addr;\n  }\n  function decodeTokenToExchangeTransferOutputInputs(bytes memory args) internal pure returns (TokenToExchangeTransferOutputInputs memory) {\n    (uint256 tokens_bought, uint256 max_tokens_sold, uint256 max_eth_sold, uint256 deadline, address payable recipient, address payable exchange_addr) = abi.decode(args, (uint256, uint256, uint256, uint256, address, address));\n    return TokenToExchangeTransferOutputInputs({\n      tokens_bought: tokens_bought,\n      max_tokens_sold: max_tokens_sold,\n      max_eth_sold: max_eth_sold,\n      deadline: deadline,\n      recipient: recipient,\n      exchange_addr: exchange_addr\n    });\n  }\n  struct AddLiquidityInputs {\n    uint256 min_liquidity;\n    uint256 max_tokens;\n    uint256 deadline;\n  }\n  function decodeAddLiquidityInputs(bytes memory args) internal pure returns (AddLiquidityInputs memory) {\n    (uint256 min_liquidity, uint256 max_tokens, uint256 deadline) = abi.decode(args, (uint256, uint256, uint256));\n    return AddLiquidityInputs({\n      min_liquidity: min_liquidity,\n      max_tokens: max_tokens,\n      deadline: deadline\n    });\n  }\n  function computeIsolatePointer(address instance) public pure returns (uint256) {\n    return uint256(keccak256(abi.encodePacked(\"isolate.uniswap-adapter\", instance)));\n  }\n  function computeForwarderAddress() internal view returns (address) {\n    return Create2.computeAddress(ETHER_FORWARDER_SALT, keccak256(type(AssetForwarder).creationCode));\n  }\n  function callForwarder(address payable target, address payable token) internal {\n    address forwarder = Create2.deploy(ETHER_FORWARDER_SALT, type(AssetForwarder).creationCode);\n    AssetForwarder(forwarder).forwardAsset(target, token);\n  }\n  function getCastStorageType() internal pure returns (function (uint256) internal pure returns (ExternalIsolate storage) swap) {\n    function (uint256) internal returns (uint256) cast = ModuleLib.cast;\n    assembly {\n      swap := cast\n    }\n  }\n  function toIsolatePointer(uint256 key) internal pure returns (ExternalIsolate storage) {\n    return getCastStorageType()(key);\n  }\n  function getIsolatePointer(address instance) internal pure returns (ExternalIsolate storage) {\n    return toIsolatePointer(computeIsolatePointer(instance));\n  }\n  function getExternalIsolate(address payable moduleAddress) internal returns (ExternalIsolate memory) {\n    return UniswapAdapter(moduleAddress).getExternalIsolateHandler();\n  }\n  function getFactory(address payable moduleAddress) internal returns (IUniswapFactory) {\n    return IUniswapFactory(getExternalIsolate(moduleAddress).factoryAddress);\n  }\n  function validateExchange(address payable moduleAddress, address to) internal returns (IUniswapFactory, address) {\n    IUniswapFactory factory = getFactory(moduleAddress);\n    address tokenAddress = factory.getToken(to);\n    require(tokenAddress != address(0x0), \"not a valid uniswap market\");\n    return (factory, tokenAddress);\n  }\n}\n",
  "sourcePath": "/home/ray/0confirmation/packages/0confirmation-sol/contracts/adapters/assets/uniswap/UniswapAdapterLib.sol",
  "compiler": {
    "name": "solc",
    "version": "0.6.5+commit.f956cc89.Emscripten.clang"
  },
  "schemaVersion": "3.0.23",
  "updatedAt": "2020-04-24T06:53:32.925Z",
  "devdoc": {
    "methods": {}
  },
  "userdoc": {
    "methods": {}
  }
}