{
  "contractName": "UniswapAdapter",
  "abi": [
    {
      "inputs": [
        {
          "internalType": "address",
          "name": "factoryAddress",
          "type": "address"
        }
      ],
      "stateMutability": "nonpayable",
      "type": "constructor"
    },
    {
      "stateMutability": "payable",
      "type": "fallback"
    },
    {
      "stateMutability": "payable",
      "type": "receive"
    },
    {
      "inputs": [],
      "name": "getExternalIsolateHandler",
      "outputs": [
        {
          "components": [
            {
              "internalType": "address",
              "name": "factoryAddress",
              "type": "address"
            }
          ],
          "internalType": "struct UniswapAdapterLib.ExternalIsolate",
          "name": "",
          "type": "tuple"
        }
      ],
      "stateMutability": "payable",
      "type": "function"
    }
  ],
  "bytecode": "0x60806040523480156200001157600080fd5b5060405162001b0f38038062001b0f833981016040819052620000349162000105565b60006200004c306200007260201b62000e291760201c565b80546001600160a01b0319166001600160a01b0393909316929092179091555062000173565b60006200009b6200008c836001600160e01b03620000a116565b6001600160e01b03620000d416565b92915050565b600081604051602001620000b6919062000135565b60408051601f19818403018152919052805160209091012092915050565b60006200009b82620000ee6001600160e01b03620000f316565b60201c565b62000fb46200010260201b1790565b90565b60006020828403121562000117578081fd5b81516001600160a01b03811681146200012e578182fd5b9392505050565b7f69736f6c6174652e756e69737761702d61646170746572000000000000000000815260609190911b6001600160601b0319166017820152602b0190565b61198c80620001836000396000f3fe6080604052600436106100225760003560e01c8063966ff7a8146105d457610029565b3661002957005b610031610fb7565b6100716000368080601f0160208091040260200160405190810160405280939291908181526020018383808284376000920191909152506105f292505050565b905060006100878260000151836080015161066f565b9150506000606061009b8460c00151610730565b90925090506000806001600160e01b031984166389f2a87160e01b14806100d257506001600160e01b0319841663fd11c22360e01b145b806100ed57506001600160e01b0319841663cd7724c360e01b145b8061010857506001600160e01b03198416632cf4a43160e11b145b8061012357506001600160e01b031984166395b68fe760e01b145b8061013e57506001600160e01b031984166309903d8b60e21b145b8061015957506001600160e01b031984166313aedd4b60e31b145b8061017457506001600160e01b0319841663422f104360e01b145b8061018f57506001600160e01b03198416637c45f8ad60e11b145b15610199576104d5565b6001600160e01b0319841663f39b5b9b60e01b14156101d7576101ba610ff5565b6101c384610768565b8051909150156101d1578592505b506104d5565b6001600160e01b0319841663ad65d76d60e01b1415610249576101f861100f565b610201846107a1565b60408101519091506001600160a01b031630146102395760405162461bcd60e51b8152600401610230906114db565b60405180910390fd5b8051156101d157859250506104d5565b6001600160e01b03198416636b1d4db760e01b141561026a576101ba610ff5565b6001600160e01b0319841663016ae6c760e31b141561028b576101f861100f565b6001600160e01b031984166395e3c50b60e01b1415610369576000806000858060200190518101906102bd91906112d3565b9250925092506102e38960800151896001600160a01b03166107ed90919063ffffffff16565b6102ff5760405162461bcd60e51b815260040161023090611512565b637237e03160e01b838383610312610859565b60405160240161032594939291906115da565b60408051601f198184030181529190526020810180516001600160e01b03166001600160e01b03199093169290921790915260c08a015250600192506104d5915050565b6001600160e01b0319841663013efd8b60e01b14156103f05760008060008580602001905181019061039b91906112d3565b9250925092506103c18960800151896001600160a01b03166107ed90919063ffffffff16565b6103dd5760405162461bcd60e51b815260040161023090611512565b63d4e4841d60e01b838383610312610859565b6001600160e01b0319841663ddf7e1a760e01b14156104bd57610411611039565b61041a846108b7565b8051909150151580610430575060008160200151115b8061043f575060008160400151115b1561044c57806080015192505b608087015161046b906001600160a01b0388169063ffffffff6107ed16565b6104875760405162461bcd60e51b815260040161023090611512565b806080015192506104ae6104a961049c610859565b839063ffffffff61091516565b610978565b60c088015250600190506104d5565b60405162461bcd60e51b8152600401610230906114a4565b6001600160a01b0382161561053e57610522826040516020016104f891906113e4565b60408051601f1981840301815291905260208801516001600160a01b03169063ffffffff6109ee16565b61053e5760405162461bcd60e51b815260040161023090611580565b6000606087608001516001600160a01b03165a8960a001518a60c001516040516105689190611385565b600060405180830381858888f193505050503d80600081146105a6576040519150601f19603f3d011682016040523d82523d6000602084013e6105ab565b606091505b509150915082156105c0576105c03085610a8e565b6105ca8282610b47565b5050505050505050005b6105dc610b5c565b6040516105e991906115c7565b60405180910390f35b6105fa610fb7565b6000806000806000806060888060200190518101906106199190611117565b6040805160e0810182526001600160a01b0398891681529688166020880152948716948601949094529185166060850152909316608083015260a082019290925260c08101919091529998505050505050505050565b600080600061067d85610b8a565b90506000816001600160a01b03166359770438866040518263ffffffff1660e01b81526004016106ad91906113e4565b60206040518083038186803b1580156106c557600080fd5b505afa1580156106d9573d6000803e3d6000fd5b505050506040513d601f19601f820116820180604052508101906106fd91906110fb565b90506001600160a01b0381166107255760405162461bcd60e51b81526004016102309061146d565b909590945092505050565b600060606107496107448460006004610b9c565b610bc5565b60e01b915061076161075c846004610be2565b610c0d565b9050915091565b610770610ff5565b600080838060200190518101906107879190611278565b604080518082019091529182526020820152949350505050565b6107a961100f565b6000806000848060200190518101906107c2919061129b565b6040805160608101825293845260208401929092526001600160a01b03169082015295945050505050565b6000806107fb843085610c7d565b90506001600160fe1b03811115610816576001915050610853565b801580159061082e575061082c84306000610d5b565b155b1561083d576000915050610853565b61084f84846001600160ff1b03610d5b565b9150505b92915050565b60006108b27f3e8d8e49b9a35f50b96f6ba4b93e0fc6c1d66a2e1c04975ef848d7031c8158a460001b6040518060200161089290611071565b6020820181038252601f19601f8201166040525080519060200120610de7565b905090565b6108bf611039565b6000806000806000868060200190518101906108db9190611300565b6040805160a08101825295865260208601949094529284019190915260608301526001600160a01b03166080820152979650505050505050565b61091d61107e565b6040518060c0016040528084600001518152602001846020015181526020018460400151815260200184606001518152602001836001600160a01b0316815260200184608001516001600160a01b0316815250905092915050565b606063f552d91b60e01b826000015183602001518460400151856060015186608001518760a001516040516024016109b5969594939291906115fe565b60408051601f198184030181529190526020810180516001600160e01b03166001600160e01b0319909316929092179091529050919050565b600080836001600160a01b03168484604051602401610a0e929190611412565b60408051601f198184030181529181526020820180516001600160e01b0316633e87f4a360e21b17905251610a439190611385565b600060405180830381855af49150503d8060008114610a7e576040519150601f19603f3d011682016040523d82523d6000602084013e610a83565b606091505b509095945050505050565b6000610adf7f3e8d8e49b9a35f50b96f6ba4b93e0fc6c1d66a2e1c04975ef848d7031c8158a460001b60405180602001610ac790611071565b601f1982820381018352601f90910116604052610df4565b6040516395ccf8bf60e01b81529091506001600160a01b038216906395ccf8bf90610b1090869086906004016113f8565b600060405180830381600087803b158015610b2a57600080fd5b505af1158015610b3e573d6000803e3d6000fd5b50505050505050565b81610b5457805181602001fd5b805181602001f35b610b646110c6565b610b6d30610e29565b604080516020810190915290546001600160a01b03168152905090565b6000610b9582610e3c565b5192915050565b610ba46110d8565b610bae8484610eb7565b815260208101919091526040810191909152919050565b8051602082015160009190610bda8282610ebe565b949350505050565b610bea6110d8565b8183511015610bf857825191505b610c06838384865103610b9c565b9392505050565b60208101516060908067ffffffffffffffff81118015610c2c57600080fd5b506040519080825280601f01601f191660200182016040528015610c57576020820181803683370190505b5083519092506000610c6884610edb565b9050610c75818385610ee1565b505050919050565b6000806060856001600160a01b03168585604051602401610c9f9291906113f8565b60408051601f198184030181529181526020820180516001600160e01b0316636eb1769f60e11b17905251610cd49190611385565b6000604051808303816000865af19150503d8060008114610d11576040519150601f19603f3d011682016040523d82523d6000602084013e610d16565b606091505b5091509150811580610d2a57508051602014155b15610d3a57600192505050610c06565b600081806020019051810190610d509190611260565b979650505050505050565b600080846001600160a01b031663095ea7b385856040518363ffffffff1660e01b8152600401610d8c929190611454565b602060405180830381600087803b158015610da657600080fd5b505af1158015610dba573d6000803e3d6000fd5b505050506040513d601f19601f82011682018060405250810190610dde9190611211565b95945050505050565b6000610c06838330610f1f565b600080838351602085016000f590506001600160a01b038116610c065760405162461bcd60e51b815260040161023090611549565b6000610853610e3783610f67565b610f98565b610e446110c6565b816001600160a01b031663966ff7a86040518163ffffffff1660e01b8152600401602060405180830381600087803b158015610e7f57600080fd5b505af1158015610e93573d6000803e3d6000fd5b505050506040513d601f19601f820116820180604052508101906108539190611231565b0160200190565b6000600180600884021b0380836020038503511691505092915050565b60200190565b5b60208110610f01578151835260209283019290910190601f1901610ee2565b600180600883602003021b0380845116811984511617845250505050565b60008060ff60f81b838686604051602001610f3d949392919061134c565b60408051808303601f1901815291905280516020909101206001600160a01b031695945050505050565b600081604051602001610f7a91906113a1565b60408051601f19818403018152919052805160209091012092915050565b600061085382610fa6610fae565b63ffffffff16565b610fb490565b90565b6040805160e08101825260008082526020820181905291810182905260608082018390526080820183905260a082019290925260c081019190915290565b604051806040016040528060008152602001600081525090565b6040518060600160405280600081526020016000815260200160006001600160a01b031681525090565b6040518060a001604052806000815260200160008152602001600081526020016000815260200160006001600160a01b031681525090565b6102b5806116a283390190565b6040518060c001604052806000815260200160008152602001600081526020016000815260200160006001600160a01b0316815260200160006001600160a01b031681525090565b60408051602081019091526000815290565b60405180606001604052806000815260200160008152602001600081525090565bfe5b60006020828403121561110c578081fd5b8151610c0681611689565b600080600080600080600060e0888a031215611131578283fd5b875161113c81611689565b602089015190975061114d81611689565b604089015190965061115e81611689565b606089015190955061116f81611689565b608089015190945061118081611689565b60a089015160c08a0151919450925067ffffffffffffffff808211156111a4578283fd5b818a018b601f8201126111b5578384fd5b80519250818311156111c5578384fd5b6111d8601f8401601f1916602001611632565b91508282528b60208483010111156111ee578384fd5b6111ff836020840160208401611659565b50809250505092959891949750929550565b600060208284031215611222578081fd5b81518015158114610c06578182fd5b600060208284031215611242578081fd5b61124c6020611632565b825161125781611689565b81529392505050565b600060208284031215611271578081fd5b5051919050565b6000806040838503121561128a578182fd5b505080516020909101519092909150565b6000806000606084860312156112af578283fd5b835192506020840151915060408401516112c881611689565b809150509250925092565b6000806000606084860312156112e7578283fd5b8351925060208401519150604084015190509250925092565b600080600080600060a08688031215611317578081fd5b85519450602086015193506040860151925060608601519150608086015161133e81611689565b809150509295509295909350565b6001600160f81b031994909416845260609290921b6bffffffffffffffffffffffff191660018401526015830152603582015260550190565b60008251611397818460208701611659565b9190910192915050565b7f69736f6c6174652e756e69737761702d61646170746572000000000000000000815260609190911b6bffffffffffffffffffffffff19166017820152602b0190565b6001600160a01b0391909116815260200190565b6001600160a01b0392831681529116602082015260400190565b600060018060a01b038416825260406020830152825180604084015261143f816060850160208701611659565b601f01601f1916919091016060019392505050565b6001600160a01b03929092168252602082015260400190565b6020808252601a908201527f6e6f7420612076616c696420756e6973776170206d61726b6574000000000000604082015260600190565b60208082526019908201527f756e737570706f7274656420636f6e74726163742063616c6c00000000000000604082015260600190565b6020808252601e908201527f726563697069656e74206d75737420626520626f72726f772070726f78790000604082015260600190565b60208082526018908201527f617070726f76616c206f6620746f6b656e206661696c65640000000000000000604082015260600190565b60208082526019908201527f437265617465323a204661696c6564206f6e206465706c6f7900000000000000604082015260600190565b60208082526027908201527f6c69717569646174696f6e206d6f64756c65206e6f74696669636174696f6e206040820152666661696c75726560c81b606082015260800190565b90516001600160a01b0316815260200190565b938452602084019290925260408301526001600160a01b0316606082015260800190565b9586526020860194909452604085019290925260608401526001600160a01b0390811660808401521660a082015260c00190565b60405181810167ffffffffffffffff8111828210171561165157600080fd5b604052919050565b60005b8381101561167457818101518382015260200161165c565b83811115611683576000848401525b50505050565b6001600160a01b038116811461169e57600080fd5b5056fe608060405234801561001057600080fd5b50610295806100206000396000f3fe608060405234801561001057600080fd5b506004361061002b5760003560e01c806395ccf8bf14610030575b600080fd5b61005e6004803603604081101561004657600080fd5b506001600160a01b0381358116916020013516610060565b005b6000826001600160a01b0316475a6040519091906000818181858888f193505050503d80600081146100ae576040519150601f19603f3d011682016040523d82523d6000602084013e6100b3565b606091505b5050905080610102576040805162461bcd60e51b81526020600482015260166024820152756574686572207472616e73666572206661696c75726560501b604482015290519081900360640190fd5b6001600160a01b0382161561025357604080516370a0823160e01b815230600482015290516001600160a01b0384169163a9059cbb91869184916370a0823191602480820192602092909190829003018186803b15801561016257600080fd5b505afa158015610176573d6000803e3d6000fd5b505050506040513d602081101561018c57600080fd5b5051604080516001600160e01b031960e086901b1681526001600160a01b03909316600484015260248301919091525160448083019260209291908290030181600087803b1580156101dd57600080fd5b505af11580156101f1573d6000803e3d6000fd5b505050506040513d602081101561020757600080fd5b5051610253576040805162461bcd60e51b81526020600482015260166024820152756572633230207472616e73666572206661696c75726560501b604482015290519081900360640190fd5b826001600160a01b0316fffea26469706673582212207bda2fd1f4ccbb08b600359973bdc15fbf5abbce94e7034b0b75a311a64b083364736f6c63430006050033a2646970667358221220676d6c7aeeaf94f6e1ddee5ad30ac37496287e85a1549a63b4c416f35e0ad19264736f6c63430006050033",
  "source": "pragma solidity ^0.6.0;\npragma experimental ABIEncoderV2;\n\nimport { ILiquidationModule } from \"../../../interfaces/ILiquidationModule.sol\";\nimport { UniswapAdapterLib } from \"./UniswapAdapterLib.sol\";\nimport { IUniswapFactory } from \"../../../interfaces/IUniswapFactory.sol\";\nimport { IUniswapExchange } from \"../../../interfaces/IUniswapExchange.sol\";\nimport { TokenUtils } from \"../../../utils/TokenUtils.sol\";\nimport { ModuleLib } from \"../../lib/ModuleLib.sol\";\nimport { EtherForwarder } from \"./EtherForwarder.sol\";\nimport { BorrowProxyLib } from \"../../../BorrowProxyLib.sol\";\n\ncontract UniswapAdapter {\n  using TokenUtils for *;\n  using ModuleLib for *;\n  using BorrowProxyLib for *;\n  using UniswapAdapterLib for *;\n  constructor(address factoryAddress) public {\n    UniswapAdapterLib.ExternalIsolate storage isolate = UniswapAdapterLib.getIsolatePointer(address(this));\n    isolate.factoryAddress = factoryAddress;\n  }\n  function getExternalIsolateHandler() external payable returns (UniswapAdapterLib.ExternalIsolate memory) {\n    return UniswapAdapterLib.getIsolatePointer(address(this));\n  }\n  receive() payable external {\n    // no impl\n  }\n  fallback() payable external {\n    ModuleLib.AssetSubmodulePayload memory payload = msg.data.decodeAssetSubmodulePayload();\n    (/* IUniswapFactory factory */, address tokenAddress) = UniswapAdapterLib.validateExchange(payload.moduleAddress, payload.to);\n    (bytes4 sig, bytes memory args) = payload.callData.splitPayload();\n    address newToken;\n    bool usedForwarder = false;\n    if (\n      sig == IUniswapExchange.getInputPrice.selector ||\n      sig == IUniswapExchange.getOutputPrice.selector ||\n      sig == IUniswapExchange.getEthToTokenInputPrice.selector ||\n      sig == IUniswapExchange.getEthToTokenOutputPrice.selector ||\n      sig == IUniswapExchange.getTokenToEthInputPrice.selector ||\n      sig == IUniswapExchange.getTokenToEthOutputPrice.selector || sig == IUniswapExchange.tokenAddress.selector ||\n      sig == IUniswapExchange.addLiquidity.selector ||\n      sig == IUniswapExchange.removeLiquidity.selector\n    ) {}\n    else if (sig == IUniswapExchange.ethToTokenSwapInput.selector) {\n      UniswapAdapterLib.EthToTokenSwapInputInputs memory inputs = args.decodeEthToTokenSwapInputInputs();\n      if (inputs.min_tokens > 0) newToken = tokenAddress;\n    } else if (sig == IUniswapExchange.ethToTokenTransferInput.selector) {\n      UniswapAdapterLib.EthToTokenTransferInputInputs memory inputs = args.decodeEthToTokenTransferInputInputs();\n      require(inputs.recipient == address(this), \"recipient must be borrow proxy\"); // \"this\" is the proxy wallet context\n      if (inputs.min_tokens > 0) newToken = tokenAddress;\n    } else if (sig == IUniswapExchange.ethToTokenSwapOutput.selector) {\n      UniswapAdapterLib.EthToTokenSwapOutputInputs memory inputs = args.decodeEthToTokenSwapOutputInputs();\n      if (inputs.tokens_bought > 0) newToken = tokenAddress;\n    } else if (sig == IUniswapExchange.ethToTokenTransferOutput.selector) {\n      UniswapAdapterLib.EthToTokenTransferOutputInputs memory inputs = args.decodeEthToTokenTransferOutputInputs();\n      require(inputs.recipient == address(this), \"recipient must be borrow proxy\");\n      if (inputs.tokens_bought > 0) newToken = tokenAddress;\n    } else if (sig == IUniswapExchange.tokenToEthSwapInput.selector) {\n      (uint256 tokens_sold, uint256 min_eth, uint256 deadline) = abi.decode(args, (uint256,uint256,uint256));\n      require(tokenAddress.approveForMaxIfNeeded(payload.to), \"approval of token failed\");\n      payload.callData = abi.encodeWithSelector(IUniswapExchange.tokenToEthTransferInput.selector, tokens_sold, min_eth, deadline, UniswapAdapterLib.computeForwarderAddress());\n      usedForwarder = true;\n    } else if (sig == IUniswapExchange.tokenToEthSwapOutput.selector) {\n      (uint256 eth_bought, uint256 max_tokens, uint256 deadline) = abi.decode(args, (uint256,uint256,uint256));\n      require(tokenAddress.approveForMaxIfNeeded(payload.to), \"approval of token failed\");\n      payload.callData = abi.encodeWithSelector(IUniswapExchange.tokenToEthTransferOutput.selector, eth_bought, max_tokens, deadline, UniswapAdapterLib.computeForwarderAddress());\n      usedForwarder = true;\n/*\n    } else if (sig == IUniswapExchange.tokenToEthTransferInput.selector) {\n      (uint256 tokens_sold, uint256 min_eth, uint256 deadline, address recipient) = abi.decode(args, (uint256,uint256,uint256,address));\n      require(recipient == address(this), \"recipient must be borrow proxy\");\n      require(tokenAddress.approveForMaxIfNeeded(payload.to), \"approval of token failed\");\n      payload.callData = abi.encodeWithSelector(IUniswapExchange.tokenToEthTransferInput.selector, tokens_sold, min_eth, deadline, UniswapAdapterLib.computeForwarderAddress());\n      usedForwarder = true;\n    } else if (sig == IUniswapExchange.tokenToEthTransferOutput.selector) {\n      (uint256 eth_bought, uint256 max_tokens, uint256 deadline, address recipient) = abi.decode(args, (uint256, uint256, uint256, address));\n      require(recipient == address(this), \"recipient must be borrow proxy\");\n      require(tokenAddress.approveForMaxIfNeeded(payload.to), \"approval of token failed\");\n      payload.callData = abi.encodeWithSelector(IUniswapExchange.tokenToEthTransferOutput.selector, eth_bought, max_tokens, deadline, UniswapAdapterLib.computeForwarderAddress());\n      usedForwarder = true;\n*/\n    } else if (sig == IUniswapExchange.tokenToTokenSwapInput.selector) {\n      UniswapAdapterLib.TokenToTokenSwapInputInputs memory inputs = args.decodeTokenToTokenSwapInputInputs();\n      if (inputs.tokens_sold > 0 || inputs.min_tokens_bought > 0 || inputs.min_eth_bought > 0) newToken = inputs.token_addr;\n      require(tokenAddress.approveForMaxIfNeeded(payload.to), \"approval of token failed\");\n      newToken = address(uint160(inputs.token_addr));\n      payload.callData = inputs.addRecipient(UniswapAdapterLib.computeForwarderAddress()).encodeTokenToTokenTransferInput();\n      usedForwarder = true;\n/*\n    } else if (sig == IUniswapExchange.tokenToTokenTransferInput.selector) {\n      (uint256 tokens_sold, uint256 min_tokens_bought, uint256 min_eth_bought, uint256 deadline, address recipient, address payable token_addr) = abi.decode(args, (uint256, uint256, uint256, uint256, address, address));\n      if (tokens_sold > 0 || min_tokens_bought > 0 || min_eth_bought > 0) newToken = token_addr;\n      require(recipient == address(this), \"recipient must be borrow proxy\");\n      require(tokenAddress.approveForMaxIfNeeded(payload.to), \"approval of token failed\");\n    } else if (sig == IUniswapExchange.tokenToTokenSwapOutput.selector) {\n      (uint256 tokens_bought, uint256 max_tokens_sold, uint256 max_eth_sold, uint256 deadline, address payable token_addr) = abi.decode(args, (uint256, uint256, uint256, uint256, address));\n      if (tokens_bought > 0 && (max_tokens_sold > 0 || max_eth_sold > 0)) newToken = token_addr;\n      require(tokenAddress.approveForMaxIfNeeded(payload.to), \"approval of token failed\");\n    } else if (sig == IUniswapExchange.tokenToTokenTransferOutput.selector) {\n      (uint256 tokens_bought, uint256 max_tokens_sold, uint256 max_eth_sold, uint256 deadline, address recipient, address payable token_addr) = abi.decode(args, (uint256, uint256, uint256, uint256, address, address));\n      if (tokens_bought > 0 && (max_tokens_sold != 0 || max_eth_sold != 0)) newToken = token_addr;\n      require(recipient != address(this), \"recipient must be borrow proxy\");\n      require(tokenAddress.approveForMaxIfNeeded(payload.to), \"approval of token failed\");\n    } else if (sig == IUniswapExchange.tokenToExchangeSwapInput.selector) {\n      (uint256 tokens_sold, uint256 min_tokens_bought, uint256 min_eth_bought, uint256 deadline, address payable exchange_addr) = abi.decode(args, (uint256, uint256, uint256, uint256, address));\n      if (tokens_sold > 0) newToken = IUniswapExchange(exchange_addr).tokenAddress();\n      require(tokenAddress.approveForMaxIfNeeded(payload.to), \"approval of token failed\");\n    } else if (sig == IUniswapExchange.tokenToExchangeTransferInput.selector) {\n      (uint256 tokens_sold, uint256 min_tokens_bought, uint256 min_eth_bought, uint256 deadline, address recipient, address payable exchange_addr) = abi.decode(args, (uint256, uint256, uint256, uint256, address, address));\n      require(recipient == address(this), \"recipient must be borrow proxy\");\n      if (tokens_sold > 0) newToken = IUniswapExchange(exchange_addr).tokenAddress();\n      require(tokenAddress.approveForMaxIfNeeded(payload.to), \"approval of token failed\");\n    } else if (sig == IUniswapExchange.tokenToExchangeSwapOutput.selector) {\n      (uint256 tokens_bought, uint256 max_tokens_sold, uint256 max_eth_sold, uint256 deadline, address payable exchange_addr) = abi.decode(args, (uint256, uint256, uint256, uint256, address));\n      if (tokens_bought > 0) newToken = IUniswapExchange(exchange_addr).tokenAddress();\n      require(tokenAddress.approveForMaxIfNeeded(payload.to), \"approval of token failed\");\n    } else if (sig == IUniswapExchange.tokenToExchangeTransferOutput.selector) {\n      (uint256 tokens_bought, uint256 max_tokens_sold, uint256 max_eth_sold, uint256 deadline, address payable recipient, address payable exchange_addr) = abi.decode(args, (uint256, uint256, uint256, uint256, address, address));\n      require(recipient == address(this), \"recipient must be borrow proxy\");\n      if (tokens_bought > 0) newToken = IUniswapExchange(exchange_addr).tokenAddress();\n      require(tokenAddress.approveForMaxIfNeeded(payload.to), \"approval of token failed\");\n*/\n    } else revert(\"unsupported contract call\");\n    if (newToken != address(0x0)) require(payload.liquidationSubmodule.delegateNotify(abi.encode(newToken)), \"liquidation module notification failure\");\n    (bool success, bytes memory retval) = payload.to.call{ gas: gasleft(), value: payload.value }(payload.callData);\n    if (usedForwarder) UniswapAdapterLib.callForwarder(address(this), newToken);\n    ModuleLib.bubbleResult(success, retval);\n  }\n}\n",
  "sourcePath": "/home/ray/0confirmation/packages/0confirmation-sol/contracts/adapters/assets/uniswap/UniswapAdapter.sol",
  "compiler": {
    "name": "solc",
    "version": "0.6.5+commit.f956cc89.Emscripten.clang"
  },
  "schemaVersion": "3.0.23",
  "updatedAt": "2020-04-07T22:29:13.814Z",
  "devdoc": {
    "methods": {}
  },
  "userdoc": {
    "methods": {}
  }
}