{
  "contractName": "UniswapTradeAbsorb",
  "abi": [
    {
      "inputs": [
        {
          "internalType": "address",
          "name": "_target",
          "type": "address"
        }
      ],
      "stateMutability": "nonpayable",
      "type": "constructor"
    },
    {
      "inputs": [],
      "name": "destroy",
      "outputs": [],
      "stateMutability": "nonpayable",
      "type": "function"
    },
    {
      "inputs": [],
      "name": "target",
      "outputs": [
        {
          "internalType": "address",
          "name": "",
          "type": "address"
        }
      ],
      "stateMutability": "view",
      "type": "function"
    },
    {
      "inputs": [
        {
          "internalType": "bytes",
          "name": "inputs",
          "type": "bytes"
        }
      ],
      "name": "execute",
      "outputs": [
        {
          "components": [
            {
              "internalType": "address",
              "name": "to",
              "type": "address"
            },
            {
              "internalType": "bytes",
              "name": "txData",
              "type": "bytes"
            }
          ],
          "internalType": "struct ShifterBorrowProxyLib.InitializationAction",
          "name": "",
          "type": "tuple"
        }
      ],
      "stateMutability": "view",
      "type": "function"
    }
  ],
  "bytecode": "0x608060405234801561001057600080fd5b5060405161076e38038061076e83398101604081905261002f91610054565b600080546001600160a01b0319166001600160a01b0392909216919091179055610082565b600060208284031215610065578081fd5b81516001600160a01b038116811461007b578182fd5b9392505050565b6106dd806100916000396000f3fe608060405234801561001057600080fd5b50600436106100415760003560e01c806309c5eabe1461004657806383197ef01461006f578063d4b8399214610079575b600080fd5b610059610054366004610440565b61008e565b60405161006691906105be565b60405180910390f35b6100776101a3565b005b6100816101a6565b6040516100669190610591565b610096610254565b61009e61026c565b6100a7836101b5565b90506100b1610286565b8151805160001981019081106100c357fe5b6020026020010151905060006100e08260200151602001516101cc565b905060008260000151600001516001600160a01b0316639d76ea586040518163ffffffff1660e01b815260040160206040518083038186803b15801561012557600080fd5b505afa158015610139573d6000803e3d6000fd5b505050506040513d601f19601f8201168201806040525081019061015d919061041e565b90506040518060400160405280826001600160a01b031681526020016101976000809054906101000a90046001600160a01b0316856101e2565b90529695505050505050565b33ff5b6000546001600160a01b031681565b6101bd61026c565b6101c682610238565b92915050565b6000818060200190518101906101c69190610579565b606063a9059cbb60e01b83836040516024016101ff9291906105a5565b60408051601f198184030181529190526020810180516001600160e01b03166001600160e01b0319909316929092179091529392505050565b61024061026c565b818060200190518101906101c691906104b7565b60408051808201909152600081526060602082015290565b604051806040016040528060608152602001600081525090565b6040518060400160405280610299610254565b81526020016102a6610254565b905290565b80516001600160a01b03811681146101c657600080fd5b600082601f8301126102d2578081fd5b81516102e56102e082610653565b61060c565b91508082528360208285010111156102fc57600080fd5b61030d816020840160208601610677565b5092915050565b600060408284031215610325578081fd5b61032f604061060c565b9050815167ffffffffffffffff8082111561034957600080fd5b8184016040818703121561035c57600080fd5b610366604061060c565b925061037286826102ab565b835260208101518281111561038657600080fd5b610392878284016102c2565b6020850152505081835260208401519150808211156103b057600080fd5b506103bd848285016103c9565b60208301525092915050565b6000604082840312156103da578081fd5b6103e4604061060c565b9050815180151581146103f657600080fd5b8152602082015167ffffffffffffffff81111561041257600080fd5b6103bd848285016102c2565b60006020828403121561042f578081fd5b61043983836102ab565b9392505050565b600060208284031215610451578081fd5b813567ffffffffffffffff811115610467578182fd5b80830184601f820112610478578283fd5b803591506104886102e083610653565b82815285602084840101111561049c578384fd5b82602083016020830137918201602001929092529392505050565b600060208083850312156104c9578182fd5b825167ffffffffffffffff808211156104e0578384fd5b818501604081880312156104f2578485fd5b6104fc604061060c565b925080518281111561050c578586fd5b81019150601f8201871361051e578485fd5b815161052c6102e082610633565b81815285810190848701885b848110156105615761054f8c8a84518a0101610314565b84529288019290880190600101610538565b50508552505083015192820192909252949350505050565b60006020828403121561058a578081fd5b5051919050565b6001600160a01b0391909116815260200190565b6001600160a01b03929092168252602082015260400190565b60006020825260018060a01b038351166020830152602083015160408084015280518060608501526105f7816080860160208501610677565b601f01601f1916929092016080019392505050565b60405181810167ffffffffffffffff8111828210171561062b57600080fd5b604052919050565b600067ffffffffffffffff821115610649578081fd5b5060209081020190565b600067ffffffffffffffff821115610669578081fd5b50601f01601f191660200190565b60005b8381101561069257818101518382015260200161067a565b838111156106a1576000848401525b5050505056fea26469706673582212202f0d84d0d3f20217322a8fddf223cd4a03547de6fed0976f0c9d7df18cf88df864736f6c63430006060033",
  "source": "pragma solidity ^0.6.0;\npragma experimental ABIEncoderV2;\n\nimport { Preprocessor } from \"./lib/Preprocessor.sol\";\nimport { ShifterBorrowProxyLib } from \"../ShifterBorrowProxyLib.sol\";\nimport { SandboxLib } from \"../SandboxLib.sol\";\nimport { IERC20 } from \"openzeppelin-solidity/contracts/token/ERC20/IERC20.sol\";\nimport { IUniswapExchange } from \"../interfaces/IUniswapExchange.sol\";\nimport { TokenUtils } from \"../utils/TokenUtils.sol\";\n\ncontract UniswapTradeAbsorb is Preprocessor {\n  using TokenUtils for *;\n  address public target;\n  constructor(address _target) public {\n    target = _target;\n  }\n  function decodeUniswapResult(bytes memory input) internal pure returns (uint256 result) {\n    (result) = abi.decode(input, (uint256));\n  }\n  function execute(bytes memory inputs) public view returns (ShifterBorrowProxyLib.InitializationAction memory) {\n    SandboxLib.Context memory context = inputs.toContext();\n    SandboxLib.ProtectedExecution memory execution = context.trace[context.trace.length - 1];\n    uint256 amount = decodeUniswapResult(execution.output.returnData);\n    address token = IUniswapExchange(address(uint160(execution.input.to))).tokenAddress();\n    return ShifterBorrowProxyLib.InitializationAction({\n      to: token,\n      txData: TokenUtils.encodeTransfer(target, amount)\n    });\n  }\n}\n",
  "sourcePath": "/home/ray/0confirmation/packages/0confirmation-sol/contracts/preprocessors/UniswapTradeAbsorb.sol",
  "compiler": {
    "name": "solc",
    "version": "0.6.6+commit.6c089d02.Emscripten.clang"
  },
  "schemaVersion": "3.0.23",
  "updatedAt": "2020-04-23T03:22:45.318Z",
  "devdoc": {
    "methods": {}
  },
  "userdoc": {
    "methods": {}
  }
}