{
  "contractName": "UniswapAdapter",
  "abi": [
    {
      "inputs": [
        {
          "internalType": "address",
          "name": "factoryAddress",
          "type": "address"
        }
      ],
      "stateMutability": "nonpayable",
      "type": "constructor"
    },
    {
      "stateMutability": "payable",
      "type": "receive"
    },
    {
      "inputs": [
        {
          "internalType": "address",
          "name": "instance",
          "type": "address"
        }
      ],
      "name": "computeIsolatePointer",
      "outputs": [
        {
          "internalType": "uint256",
          "name": "",
          "type": "uint256"
        }
      ],
      "stateMutability": "pure",
      "type": "function"
    },
    {
      "inputs": [],
      "name": "getExternalIsolateHandler",
      "outputs": [
        {
          "components": [
            {
              "internalType": "address",
              "name": "factoryAddress",
              "type": "address"
            }
          ],
          "internalType": "struct UniswapAdapter.ExternalIsolate",
          "name": "",
          "type": "tuple"
        }
      ],
      "stateMutability": "payable",
      "type": "function"
    },
    {
      "inputs": [],
      "name": "getSignatures",
      "outputs": [
        {
          "internalType": "bytes4[]",
          "name": "retval",
          "type": "bytes4[]"
        }
      ],
      "stateMutability": "pure",
      "type": "function"
    }
  ],
  "bytecode": "0x60806040523480156200001157600080fd5b5060405162002c4238038062002c42833981810160405262000037919081019062000158565b60006200004a826200009760201b60201c565b9050818160000160006101000a81548173ffffffffffffffffffffffffffffffffffffffff021916908373ffffffffffffffffffffffffffffffffffffffff160217905550505062000299565b6000620000ba620000ae83620000c160201b60201c565b620000f660201b60201c565b9050919050565b600081604051602001620000d69190620001e1565b6040516020818303038152906040528051906020012060001c9050919050565b60006200013f60201b62002006176200013f60201b62002006176200013560201b62001fb21790508091506200012c848360201c565b92505050919050565b6000819050919050565bfe5b60008151905062000152816200027f565b92915050565b6000602082840312156200016b57600080fd5b60006200017b8482850162000141565b91505092915050565b62000199620001938262000216565b6200024a565b82525050565b6000620001ae6017836200020b565b91507f69736f6c6174652e756e69737761702d616461707465720000000000000000006000830152601782019050919050565b6000620001ee826200019f565b9150620001fc828462000184565b60148201915081905092915050565b600081905092915050565b600062000223826200022a565b9050919050565b600073ffffffffffffffffffffffffffffffffffffffff82169050919050565b600062000257826200025e565b9050919050565b60006200026b8262000272565b9050919050565b60008160601b9050919050565b6200028a8162000216565b81146200029657600080fd5b50565b61299980620002a96000396000f3fe6080604052600436106100385760003560e01c80638cb6e19114611046578063966ff7a814611083578063ad6f80ff146110a157611041565b366110415760008060008060606000366100559190810190612164565b9550955095505094509450600061006c86856110cc565b9150506000606061007c846111e8565b9150915060006389f2a87160e01b7bffffffffffffffffffffffffffffffffffffffffffffffffffffffff1916837bffffffffffffffffffffffffffffffffffffffffffffffffffffffff19161480610119575063fd11c22360e01b7bffffffffffffffffffffffffffffffffffffffffffffffffffffffff1916837bffffffffffffffffffffffffffffffffffffffffffffffffffffffff1916145b8061016857506395e3c50b60e01b7bffffffffffffffffffffffffffffffffffffffffffffffffffffffff1916837bffffffffffffffffffffffffffffffffffffffffffffffffffffffff1916145b806101b7575063013efd8b60e01b7bffffffffffffffffffffffffffffffffffffffffffffffffffffffff1916837bffffffffffffffffffffffffffffffffffffffffffffffffffffffff1916145b80610206575063cd7724c360e01b7bffffffffffffffffffffffffffffffffffffffffffffffffffffffff1916837bffffffffffffffffffffffffffffffffffffffffffffffffffffffff1916145b8061025557506359e9486260e01b7bffffffffffffffffffffffffffffffffffffffffffffffffffffffff1916837bffffffffffffffffffffffffffffffffffffffffffffffffffffffff1916145b806102a457506395b68fe760e01b7bffffffffffffffffffffffffffffffffffffffffffffffffffffffff1916837bffffffffffffffffffffffffffffffffffffffffffffffffffffffff1916145b806102f35750632640f62c60e01b7bffffffffffffffffffffffffffffffffffffffffffffffffffffffff1916837bffffffffffffffffffffffffffffffffffffffffffffffffffffffff1916145b806103425750639d76ea5860e01b7bffffffffffffffffffffffffffffffffffffffffffffffffffffffff1916837bffffffffffffffffffffffffffffffffffffffffffffffffffffffff1916145b80610391575063422f104360e01b7bffffffffffffffffffffffffffffffffffffffffffffffffffffffff1916837bffffffffffffffffffffffffffffffffffffffffffffffffffffffff1916145b806103e0575063f88bf15a60e01b7bffffffffffffffffffffffffffffffffffffffffffffffffffffffff1916837bffffffffffffffffffffffffffffffffffffffffffffffffffffffff1916145b156103ea57610f34565b63f39b5b9b60e01b7bffffffffffffffffffffffffffffffffffffffffffffffffffffffff1916837bffffffffffffffffffffffffffffffffffffffffffffffffffffffff191614156104635760008280602001905161044d919081019061222e565b509050600081111561045d578491505b50610f33565b63ad65d76d60e01b7bffffffffffffffffffffffffffffffffffffffffffffffffffffffff1916837bffffffffffffffffffffffffffffffffffffffffffffffffffffffff1916141561051857600080838060200190516104c7919081019061226a565b92505091503073ffffffffffffffffffffffffffffffffffffffff168173ffffffffffffffffffffffffffffffffffffffff161461050457600080fd5b6000821115610511578592505b5050610f32565b636b1d4db760e01b7bffffffffffffffffffffffffffffffffffffffffffffffffffffffff1916837bffffffffffffffffffffffffffffffffffffffffffffffffffffffff191614156105915760008280602001905161057b919081019061222e565b509050600081111561058b578491505b50610f31565b630b57363860e01b7bffffffffffffffffffffffffffffffffffffffffffffffffffffffff1916837bffffffffffffffffffffffffffffffffffffffffffffffffffffffff1916141561064657600080838060200190516105f5919081019061226a565b92505091503073ffffffffffffffffffffffffffffffffffffffff168173ffffffffffffffffffffffffffffffffffffffff161461063257600080fd5b600082111561063f578592505b5050610f30565b637237e03160e01b7bffffffffffffffffffffffffffffffffffffffffffffffffffffffff1916837bffffffffffffffffffffffffffffffffffffffffffffffffffffffff191614156106ec576000828060200190516106a991908101906122b9565b93505050503073ffffffffffffffffffffffffffffffffffffffff168173ffffffffffffffffffffffffffffffffffffffff16146106e657600080fd5b50610f2f565b63d4e4841d60e01b7bffffffffffffffffffffffffffffffffffffffffffffffffffffffff1916837bffffffffffffffffffffffffffffffffffffffffffffffffffffffff191614156107925760008280602001905161074f91908101906122b9565b93505050503073ffffffffffffffffffffffffffffffffffffffff168173ffffffffffffffffffffffffffffffffffffffff161461078c57600080fd5b50610f2e565b63ddf7e1a760e01b7bffffffffffffffffffffffffffffffffffffffffffffffffffffffff1916837bffffffffffffffffffffffffffffffffffffffffffffffffffffffff1916141561082e57600080600080858060200190516107f9919081019061231c565b94505093509350935060008411806108115750600083115b8061081c5750600082115b15610825578094505b50505050610f2d565b63f552d91b60e01b7bffffffffffffffffffffffffffffffffffffffffffffffffffffffff1916837bffffffffffffffffffffffffffffffffffffffffffffffffffffffff19161415610907576000806000806000868060200190516108979190810190612393565b955095505094509450945060008511806108b15750600084115b806108bc5750600083115b156108c5578095505b3073ffffffffffffffffffffffffffffffffffffffff168273ffffffffffffffffffffffffffffffffffffffff16146108fd57600080fd5b5050505050610f2c565b63b040d54560e01b7bffffffffffffffffffffffffffffffffffffffffffffffffffffffff1916837bffffffffffffffffffffffffffffffffffffffffffffffffffffffff191614156109a4576000806000808580602001905161096e919081019061231c565b945050935093509350600084118015610992575060008311806109915750600082115b5b1561099b578094505b50505050610f2b565b63f3c0efe960e01b7bffffffffffffffffffffffffffffffffffffffffffffffffffffffff1916837bffffffffffffffffffffffffffffffffffffffffffffffffffffffff19161415610a8157600080600080600086806020019051610a0d9190810190612393565b9550955050945094509450600085118015610a355750600084141580610a34575060008314155b5b15610a3e578095505b3073ffffffffffffffffffffffffffffffffffffffff168273ffffffffffffffffffffffffffffffffffffffff161415610a7757600080fd5b5050505050610f2a565b63b1cb43bf60e01b7bffffffffffffffffffffffffffffffffffffffffffffffffffffffff1916837bffffffffffffffffffffffffffffffffffffffffffffffffffffffff19161415610b7d5760008083806020019051610ae5919081019061231c565b945050505091506000821115610b76578073ffffffffffffffffffffffffffffffffffffffff16639d76ea586040518163ffffffff1660e01b815260040160206040518083038186803b158015610b3b57600080fd5b505afa158015610b4f573d6000803e3d6000fd5b505050506040513d601f19601f82011682018060405250610b73919081019061213b565b92505b5050610f29565b63ec384a3e60e01b7bffffffffffffffffffffffffffffffffffffffffffffffffffffffff1916837bffffffffffffffffffffffffffffffffffffffffffffffffffffffff19161415610cb657600080600084806020019051610be39190810190612393565b9550955050505092503073ffffffffffffffffffffffffffffffffffffffff168273ffffffffffffffffffffffffffffffffffffffff1614610c2457600080fd5b6000831115610cae578073ffffffffffffffffffffffffffffffffffffffff16639d76ea586040518163ffffffff1660e01b815260040160206040518083038186803b158015610c7357600080fd5b505afa158015610c87573d6000803e3d6000fd5b505050506040513d601f19601f82011682018060405250610cab919081019061213b565b93505b505050610f28565b63ea650c7d60e01b7bffffffffffffffffffffffffffffffffffffffffffffffffffffffff1916837bffffffffffffffffffffffffffffffffffffffffffffffffffffffff19161415610db25760008083806020019051610d1a919081019061231c565b945050505091506000821115610dab578073ffffffffffffffffffffffffffffffffffffffff16639d76ea586040518163ffffffff1660e01b815260040160206040518083038186803b158015610d7057600080fd5b505afa158015610d84573d6000803e3d6000fd5b505050506040513d601f19601f82011682018060405250610da8919081019061213b565b92505b5050610f27565b63981a132760e01b7bffffffffffffffffffffffffffffffffffffffffffffffffffffffff1916837bffffffffffffffffffffffffffffffffffffffffffffffffffffffff19161415610eeb57600080600084806020019051610e189190810190612393565b9550955050505092503073ffffffffffffffffffffffffffffffffffffffff168273ffffffffffffffffffffffffffffffffffffffff1614610e5957600080fd5b6000831115610ee3578073ffffffffffffffffffffffffffffffffffffffff16639d76ea586040518163ffffffff1660e01b815260040160206040518083038186803b158015610ea857600080fd5b505afa158015610ebc573d6000803e3d6000fd5b505050506040513d601f19601f82011682018060405250610ee0919081019061213b565b93505b505050610f26565b6040517f08c379a0000000000000000000000000000000000000000000000000000000008152600401610f1d906126f5565b60405180910390fd5b5b5b5b5b5b5b5b5b5b5b5b5b5b5b600073ffffffffffffffffffffffffffffffffffffffff168173ffffffffffffffffffffffffffffffffffffffff1614610fba57610fb081604051602001610f7c9190612668565b6040516020818303038152906040528973ffffffffffffffffffffffffffffffffffffffff1661123090919063ffffffff16565b610fb957600080fd5b5b600060608873ffffffffffffffffffffffffffffffffffffffff168888604051610fe4919061262b565b60006040518083038185875af1925050503d8060008114611021576040519150601f19603f3d011682016040523d82523d6000602084013e611026565b606091505b5091509150811561103957805181602001f35b805181602001fd5b600080fd5b34801561105257600080fd5b5061106d60048036036110689190810190612112565b611335565b60405161107a9190612730565b60405180910390f35b61108b611368565b6040516110989190612715565b60405180910390f35b3480156110ad57600080fd5b506110b66113df565b6040516110c391906126b3565b60405180910390f35b60008060006110da85611d90565b905060008173ffffffffffffffffffffffffffffffffffffffff166359770438866040518263ffffffff1660e01b81526004016111179190612668565b60206040518083038186803b15801561112f57600080fd5b505afa158015611143573d6000803e3d6000fd5b505050506040513d601f19601f82011682018060405250611167919081019061213b565b9050600073ffffffffffffffffffffffffffffffffffffffff168173ffffffffffffffffffffffffffffffffffffffff1614156111d9576040517f08c379a00000000000000000000000000000000000000000000000000000000081526004016111d0906126d5565b60405180910390fd5b81819350935050509250929050565b6000606061120b6112066000600486611da69092919063ffffffff16565b611dde565b9150611229611224600485611e0d90919063ffffffff16565b611e39565b9050915091565b6000808373ffffffffffffffffffffffffffffffffffffffff16848460405160240161125d929190612683565b6040516020818303038152906040527ffa1fd28c000000000000000000000000000000000000000000000000000000007bffffffffffffffffffffffffffffffffffffffffffffffffffffffff19166020820180517bffffffffffffffffffffffffffffffffffffffffffffffffffffffff83818316178352505050506040516112e7919061262b565b600060405180830381855af49150503d8060008114611322576040519150601f19603f3d011682016040523d82523d6000602084013e611327565b606091505b505090508091505092915050565b6000816040516020016113489190612642565b6040516020818303038152906040528051906020012060001c9050919050565b611370611fbc565b61137930611ea1565b6040518060200160405290816000820160009054906101000a900473ffffffffffffffffffffffffffffffffffffffff1673ffffffffffffffffffffffffffffffffffffffff1673ffffffffffffffffffffffffffffffffffffffff1681525050905090565b606060196040519080825280602002602001820160405280156114115781602001602082028036833780820191505090505b5090506389f2a87160e01b8160008151811061142957fe5b60200260200101907bffffffffffffffffffffffffffffffffffffffffffffffffffffffff191690817bffffffffffffffffffffffffffffffffffffffffffffffffffffffff19168152505063fd11c22360e01b8160018151811061148a57fe5b60200260200101907bffffffffffffffffffffffffffffffffffffffffffffffffffffffff191690817bffffffffffffffffffffffffffffffffffffffffffffffffffffffff1916815250506395e3c50b60e01b816002815181106114eb57fe5b60200260200101907bffffffffffffffffffffffffffffffffffffffffffffffffffffffff191690817bffffffffffffffffffffffffffffffffffffffffffffffffffffffff19168152505063013efd8b60e01b8160038151811061154c57fe5b60200260200101907bffffffffffffffffffffffffffffffffffffffffffffffffffffffff191690817bffffffffffffffffffffffffffffffffffffffffffffffffffffffff19168152505063cd7724c360e01b816004815181106115ad57fe5b60200260200101907bffffffffffffffffffffffffffffffffffffffffffffffffffffffff191690817bffffffffffffffffffffffffffffffffffffffffffffffffffffffff1916815250506359e9486260e01b8160058151811061160e57fe5b60200260200101907bffffffffffffffffffffffffffffffffffffffffffffffffffffffff191690817bffffffffffffffffffffffffffffffffffffffffffffffffffffffff1916815250506395b68fe760e01b8160068151811061166f57fe5b60200260200101907bffffffffffffffffffffffffffffffffffffffffffffffffffffffff191690817bffffffffffffffffffffffffffffffffffffffffffffffffffffffff191681525050632640f62c60e01b816007815181106116d057fe5b60200260200101907bffffffffffffffffffffffffffffffffffffffffffffffffffffffff191690817bffffffffffffffffffffffffffffffffffffffffffffffffffffffff191681525050639d76ea5860e01b8160088151811061173157fe5b60200260200101907bffffffffffffffffffffffffffffffffffffffffffffffffffffffff191690817bffffffffffffffffffffffffffffffffffffffffffffffffffffffff19168152505063422f104360e01b8160098151811061179257fe5b60200260200101907bffffffffffffffffffffffffffffffffffffffffffffffffffffffff191690817bffffffffffffffffffffffffffffffffffffffffffffffffffffffff19168152505063f88bf15a60e01b81600a815181106117f357fe5b60200260200101907bffffffffffffffffffffffffffffffffffffffffffffffffffffffff191690817bffffffffffffffffffffffffffffffffffffffffffffffffffffffff19168152505063f39b5b9b60e01b81600b8151811061185457fe5b60200260200101907bffffffffffffffffffffffffffffffffffffffffffffffffffffffff191690817bffffffffffffffffffffffffffffffffffffffffffffffffffffffff19168152505063ad65d76d60e01b81600c815181106118b557fe5b60200260200101907bffffffffffffffffffffffffffffffffffffffffffffffffffffffff191690817bffffffffffffffffffffffffffffffffffffffffffffffffffffffff191681525050636b1d4db760e01b81600d8151811061191657fe5b60200260200101907bffffffffffffffffffffffffffffffffffffffffffffffffffffffff191690817bffffffffffffffffffffffffffffffffffffffffffffffffffffffff191681525050630b57363860e01b81600e8151811061197757fe5b60200260200101907bffffffffffffffffffffffffffffffffffffffffffffffffffffffff191690817bffffffffffffffffffffffffffffffffffffffffffffffffffffffff191681525050637237e03160e01b81600f815181106119d857fe5b60200260200101907bffffffffffffffffffffffffffffffffffffffffffffffffffffffff191690817bffffffffffffffffffffffffffffffffffffffffffffffffffffffff19168152505063d4e4841d60e01b81601081518110611a3957fe5b60200260200101907bffffffffffffffffffffffffffffffffffffffffffffffffffffffff191690817bffffffffffffffffffffffffffffffffffffffffffffffffffffffff19168152505063ddf7e1a760e01b81601181518110611a9a57fe5b60200260200101907bffffffffffffffffffffffffffffffffffffffffffffffffffffffff191690817bffffffffffffffffffffffffffffffffffffffffffffffffffffffff19168152505063f552d91b60e01b81601281518110611afb57fe5b60200260200101907bffffffffffffffffffffffffffffffffffffffffffffffffffffffff191690817bffffffffffffffffffffffffffffffffffffffffffffffffffffffff19168152505063b040d54560e01b81601381518110611b5c57fe5b60200260200101907bffffffffffffffffffffffffffffffffffffffffffffffffffffffff191690817bffffffffffffffffffffffffffffffffffffffffffffffffffffffff19168152505063f3c0efe960e01b81601481518110611bbd57fe5b60200260200101907bffffffffffffffffffffffffffffffffffffffffffffffffffffffff191690817bffffffffffffffffffffffffffffffffffffffffffffffffffffffff19168152505063b1cb43bf60e01b81601581518110611c1e57fe5b60200260200101907bffffffffffffffffffffffffffffffffffffffffffffffffffffffff191690817bffffffffffffffffffffffffffffffffffffffffffffffffffffffff19168152505063ec384a3e60e01b81601681518110611c7f57fe5b60200260200101907bffffffffffffffffffffffffffffffffffffffffffffffffffffffff191690817bffffffffffffffffffffffffffffffffffffffffffffffffffffffff19168152505063ea650c7d60e01b81601781518110611ce057fe5b60200260200101907bffffffffffffffffffffffffffffffffffffffffffffffffffffffff191690817bffffffffffffffffffffffffffffffffffffffffffffffffffffffff19168152505063981a132760e01b81601881518110611d4157fe5b60200260200101907bffffffffffffffffffffffffffffffffffffffffffffffffffffffff191690817bffffffffffffffffffffffffffffffffffffffffffffffffffffffff19168152505090565b6000611d9b82611ebb565b600001519050919050565b611dae611fe5565b60006020850184019050808260000181815250508282602001818152505083826040018181525050509392505050565b60008082600001519050600083602001519050600180600883021b038082602003840351169350505050919050565b611e15611fe5565b8183511015611e2357825191505b611e31838384865103611da6565b905092915050565b6060600082602001519050806040519080825280601f01601f191660200182016040528015611e775781602001600182028036833780820191505090505b5091506000836000015160001b90506000602084019050611e99818385611f4a565b505050919050565b6000611eb4611eaf83611335565b611f8c565b9050919050565b611ec3611fbc565b8173ffffffffffffffffffffffffffffffffffffffff1663966ff7a86040518163ffffffff1660e01b8152600401602060405180830381600087803b158015611f0b57600080fd5b505af1158015611f1f573d6000803e3d6000fd5b505050506040513d601f19601f82011682018060405250611f439190810190612205565b9050919050565b5b60208110611f6e5781518352602083019250602082019150602081039050611f4b565b600180600883602003021b0380845116811984511617845250505050565b6000612006612006611fb29050809150611fa9848363ffffffff16565b92505050919050565b6000819050919050565b6040518060200160405280600073ffffffffffffffffffffffffffffffffffffffff1681525090565b60405180606001604052806000815260200160008152602001600081525090565bfe5b6000813590506120178161291e565b92915050565b60008151905061202c8161291e565b92915050565b60008135905061204181612935565b92915050565b60008151905061205681612935565b92915050565b600082601f83011261206d57600080fd5b813561208061207b82612778565b61274b565b9150808252602083016020830185838301111561209c57600080fd5b6120a783828461289a565b50505092915050565b6000602082840312156120c257600080fd5b6120cc602061274b565b905060006120dc8482850161201d565b60008301525092915050565b6000813590506120f78161294c565b92915050565b60008151905061210c8161294c565b92915050565b60006020828403121561212457600080fd5b600061213284828501612008565b91505092915050565b60006020828403121561214d57600080fd5b600061215b8482850161201d565b91505092915050565b60008060008060008060c0878903121561217d57600080fd5b600061218b89828a01612032565b965050602061219c89828a01612032565b95505060406121ad89828a01612032565b94505060606121be89828a01612032565b93505060806121cf89828a016120e8565b92505060a087013567ffffffffffffffff8111156121ec57600080fd5b6121f889828a0161205c565b9150509295509295509295565b60006020828403121561221757600080fd5b6000612225848285016120b0565b91505092915050565b6000806040838503121561224157600080fd5b600061224f858286016120fd565b9250506020612260858286016120fd565b9150509250929050565b60008060006060848603121561227f57600080fd5b600061228d868287016120fd565b935050602061229e868287016120fd565b92505060406122af86828701612047565b9150509250925092565b600080600080608085870312156122cf57600080fd5b60006122dd878288016120fd565b94505060206122ee878288016120fd565b93505060406122ff878288016120fd565b925050606061231087828801612047565b91505092959194509250565b600080600080600060a0868803121561233457600080fd5b6000612342888289016120fd565b9550506020612353888289016120fd565b9450506040612364888289016120fd565b9350506060612375888289016120fd565b925050608061238688828901612047565b9150509295509295909350565b60008060008060008060c087890312156123ac57600080fd5b60006123ba89828a016120fd565b96505060206123cb89828a016120fd565b95505060406123dc89828a016120fd565b94505060606123ed89828a016120fd565b93505060806123fe89828a01612047565b92505060a061240f89828a01612047565b9150509295509295509295565b600061242883836124c7565b60208301905092915050565b61243d81612820565b82525050565b61244c81612820565b82525050565b61246361245e82612820565b6128dc565b82525050565b6000612474826127b4565b61247e81856127d7565b9350612489836127a4565b8060005b838110156124ba5781516124a1888261241c565b97506124ac836127ca565b92505060018101905061248d565b5085935050505092915050565b6124d081612844565b82525050565b60006124e1826127bf565b6124eb81856127e8565b93506124fb8185602086016128a9565b61250481612900565b840191505092915050565b600061251a826127bf565b61252481856127f9565b93506125348185602086016128a9565b80840191505092915050565b600061254d601a83612804565b91507f6e6f7420612076616c696420756e6973776170206d61726b65740000000000006000830152602082019050919050565b600061258d601983612804565b91507f756e737570706f7274656420636f6e74726163742063616c6c000000000000006000830152602082019050919050565b60006125cd601783612815565b91507f69736f6c6174652e756e69737761702d616461707465720000000000000000006000830152601782019050919050565b6020820160008201516126166000850182612434565b50505050565b61262581612890565b82525050565b6000612637828461250f565b915081905092915050565b600061264d826125c0565b91506126598284612452565b60148201915081905092915050565b600060208201905061267d6000830184612443565b92915050565b60006040820190506126986000830185612443565b81810360208301526126aa81846124d6565b90509392505050565b600060208201905081810360008301526126cd8184612469565b905092915050565b600060208201905081810360008301526126ee81612540565b9050919050565b6000602082019050818103600083015261270e81612580565b9050919050565b600060208201905061272a6000830184612600565b92915050565b6000602082019050612745600083018461261c565b92915050565b6000604051905081810181811067ffffffffffffffff8211171561276e57600080fd5b8060405250919050565b600067ffffffffffffffff82111561278f57600080fd5b601f19601f8301169050602081019050919050565b6000819050602082019050919050565b600081519050919050565b600081519050919050565b6000602082019050919050565b600082825260208201905092915050565b600082825260208201905092915050565b600081905092915050565b600082825260208201905092915050565b600081905092915050565b600061282b82612870565b9050919050565b600061283d82612870565b9050919050565b60007fffffffff0000000000000000000000000000000000000000000000000000000082169050919050565b600073ffffffffffffffffffffffffffffffffffffffff82169050919050565b6000819050919050565b82818337600083830152505050565b60005b838110156128c75780820151818401526020810190506128ac565b838111156128d6576000848401525b50505050565b60006128e7826128ee565b9050919050565b60006128f982612911565b9050919050565b6000601f19601f8301169050919050565b60008160601b9050919050565b61292781612820565b811461293257600080fd5b50565b61293e81612832565b811461294957600080fd5b50565b61295581612890565b811461296057600080fd5b5056fea264697066735822122047d067ea2cc80715be80b4542ab66b220986405f1e44e98243aa934c46a5345b64736f6c63430006030033",
  "source": "pragma solidity ^0.6.2;\npragma experimental ABIEncoderV2;\n\nimport { ILiquidationModule } from \"../../../interfaces/ILiquidationModule.sol\";\nimport { IUniswapFactory } from \"../../../interfaces/IUniswapFactory.sol\";\nimport { IUniswapExchange } from \"../../../interfaces/IUniswapExchange.sol\";\nimport { SliceLib } from \"../../../utils/SliceLib.sol\";\nimport { BorrowProxyLib } from \"../../../BorrowProxyLib.sol\";\nimport { ShifterBorrowProxyLib } from \"../../../ShifterBorrowProxyLib.sol\";\n\ncontract UniswapAdapter {\n  using SliceLib for *;\n  using BorrowProxyLib for *;\n  using ShifterBorrowProxyLib for *;\n  struct ExternalIsolate {\n    address factoryAddress;\n  }\n  constructor(address factoryAddress) public {\n    ExternalIsolate storage isolate = getIsolatePointer(factoryAddress);\n    isolate.factoryAddress = factoryAddress;\n  }\n  function computeIsolatePointer(address instance) public pure returns (uint256) {\n    return uint256(keccak256(abi.encodePacked(\"isolate.uniswap-adapter\", instance)));\n  }\n  function cast(uint256 v) internal pure returns (uint256) {\n    return v;\n  }\n  function toIsolatePointer(uint256 key) internal returns (ExternalIsolate storage) {\n    function (uint256) internal returns (ExternalIsolate storage) swap;\n    function (uint256) internal returns (uint256) real = cast;\n    assembly {\n      swap := real\n    }\n    return swap(key);\n  }\n  function getIsolatePointer(address instance) internal returns (ExternalIsolate storage) {\n    return toIsolatePointer(computeIsolatePointer(instance));\n  }\n  function getExternalIsolateHandler() external payable returns (ExternalIsolate memory) {\n    return getIsolatePointer(address(this));\n  }\n  function getExternalIsolate(address payable moduleAddress) internal returns (ExternalIsolate memory) {\n    return UniswapAdapter(moduleAddress).getExternalIsolateHandler();\n  }\n  function getFactory(address payable moduleAddress) internal returns (IUniswapFactory) {\n    return IUniswapFactory(getExternalIsolate(moduleAddress).factoryAddress);\n  }\n  function validateExchange(address payable moduleAddress, address to) internal returns (IUniswapFactory, address) {\n    IUniswapFactory factory = getFactory(moduleAddress);\n    address tokenAddress = factory.getToken(to);\n    require(tokenAddress != address(0x0), \"not a valid uniswap market\");\n    return (factory, tokenAddress);\n  }\n  function splitPayload(bytes memory payload) internal pure returns (bytes4 sig, bytes memory args) {\n    sig = bytes4(payload.toSlice(0, 4).asWord());\n    args = payload.toSlice(4).copy();\n  }\n  function getSignatures() public pure returns (bytes4[] memory retval) {\n    retval = new bytes4[](25);\n    retval[0] = IUniswapExchange.getInputPrice.selector;\n    retval[1] = IUniswapExchange.getOutputPrice.selector;\n    retval[2] = IUniswapExchange.tokenToEthSwapInput.selector;\n    retval[3] = IUniswapExchange.tokenToEthSwapOutput.selector;\n    retval[4] = IUniswapExchange.getEthToTokenInputPrice.selector;\n    retval[5] = IUniswapExchange.getEthToTokenOutputPrice.selector;\n    retval[6] = IUniswapExchange.getTokenToEthInputPrice.selector;\n    retval[7] = IUniswapExchange.getTokenToEthOutputPrice.selector;\n    retval[8] = IUniswapExchange.tokenAddress.selector;\n    retval[9] = IUniswapExchange.addLiquidity.selector;\n    retval[10] = IUniswapExchange.removeLiquidity.selector;\n    retval[11] = IUniswapExchange.ethToTokenSwapInput.selector;\n    retval[12] = IUniswapExchange.ethToTokenTransferInput.selector;\n    retval[13] = IUniswapExchange.ethToTokenSwapOutput.selector;\n    retval[14] = IUniswapExchange.ethToTokenTransferOutput.selector;\n    retval[15] = IUniswapExchange.tokenToEthTransferInput.selector;\n    retval[16] = IUniswapExchange.tokenToEthTransferOutput.selector;\n    retval[17] = IUniswapExchange.tokenToTokenSwapInput.selector;\n    retval[18] = IUniswapExchange.tokenToTokenTransferInput.selector;\n    retval[19] = IUniswapExchange.tokenToTokenSwapOutput.selector;\n    retval[20] = IUniswapExchange.tokenToTokenTransferOutput.selector;\n    retval[21] = IUniswapExchange.tokenToExchangeSwapInput.selector;\n    retval[22] = IUniswapExchange.tokenToExchangeTransferInput.selector;\n    retval[23] = IUniswapExchange.tokenToExchangeSwapOutput.selector;\n    retval[24] = IUniswapExchange.tokenToExchangeTransferOutput.selector;\n  }\n  receive() payable external {\n    (address payable moduleAddress, address liquidationModule, /* address txOrigin */, address to, uint256 value, bytes memory payload) = abi.decode(msg.data, (address, address, address, address, uint256, bytes));\n    (/* IUniswapFactory factory */, address tokenAddress) = validateExchange(moduleAddress, to);\n    (bytes4 sig, bytes memory args) = splitPayload(payload);\n    address newToken;\n    if (\n      sig == IUniswapExchange.getInputPrice.selector ||\n      sig == IUniswapExchange.getOutputPrice.selector ||\n      sig == IUniswapExchange.tokenToEthSwapInput.selector ||\n      sig == IUniswapExchange.tokenToEthSwapOutput.selector ||\n      sig == IUniswapExchange.getEthToTokenInputPrice.selector ||\n      sig == IUniswapExchange.getEthToTokenOutputPrice.selector ||\n      sig == IUniswapExchange.getTokenToEthInputPrice.selector ||\n      sig == IUniswapExchange.getTokenToEthOutputPrice.selector ||\n      sig == IUniswapExchange.tokenAddress.selector ||\n      sig == IUniswapExchange.addLiquidity.selector ||\n      sig == IUniswapExchange.removeLiquidity.selector\n    ) {}\n    else if (sig == IUniswapExchange.ethToTokenSwapInput.selector) {\n      (uint256 min_tokens, /* uint256 deadline */) = abi.decode(args, (uint256,uint256));\n      if (min_tokens > 0) newToken = tokenAddress;\n    } else if (sig == IUniswapExchange.ethToTokenTransferInput.selector) {\n      (uint256 min_tokens, /* uint256 deadline */, address recipient) = abi.decode(args, (uint256,uint256,address));\n      require(recipient == address(this)); // \"this\" is the proxy wallet context\n      if (min_tokens > 0) newToken = tokenAddress;\n    } else if (sig == IUniswapExchange.ethToTokenSwapOutput.selector) {\n      (uint256 tokens_bought, /* uint256 deadline */) = abi.decode(args, (uint256,uint256));\n      if (tokens_bought > 0) newToken = tokenAddress;\n    } else if (sig == IUniswapExchange.ethToTokenTransferOutput.selector) {\n      (uint256 tokens_bought, /* uint256 deadline */, address recipient) = abi.decode(args, (uint256,uint256,address));\n      require(recipient == address(this));\n      if (tokens_bought > 0) newToken = tokenAddress;\n    } else if (sig == IUniswapExchange.tokenToEthTransferInput.selector) {\n      (/* uint256 tokens_sold */, /* uint256 min_eth */, /* uint256 deadline */, address recipient) = abi.decode(args, (uint256,uint256,uint256,address));\n      require(recipient == address(this));\n    } else if (sig == IUniswapExchange.tokenToEthTransferOutput.selector) {\n      (/* uint256 eth_bought */, /* uint256 max_tokens */, /* uint256 deadline */, address recipient) = abi.decode(args, (uint256, uint256, uint256, address));\n      require(recipient == address(this));\n    } else if (sig == IUniswapExchange.tokenToTokenSwapInput.selector) {\n      (uint256 tokens_sold, uint256 min_tokens_bought, uint256 min_eth_bought, /* uint256 deadline */, address payable token_addr) = abi.decode(args, (uint256, uint256, uint256, uint256, address));\n      if (tokens_sold > 0 || min_tokens_bought > 0 || min_eth_bought > 0) newToken = token_addr;\n    } else if (sig == IUniswapExchange.tokenToTokenTransferInput.selector) {\n      (uint256 tokens_sold, uint256 min_tokens_bought, uint256 min_eth_bought, /* uint256 deadline */, address recipient, address payable token_addr) = abi.decode(args, (uint256, uint256, uint256, uint256, address, address));\n      if (tokens_sold > 0 || min_tokens_bought > 0 || min_eth_bought > 0) newToken = token_addr;\n      require(recipient == address(this));\n    } else if (sig == IUniswapExchange.tokenToTokenSwapOutput.selector) {\n      (uint256 tokens_bought, uint256 max_tokens_sold, uint256 max_eth_sold, /* uint256 deadline */, address payable token_addr) = abi.decode(args, (uint256, uint256, uint256, uint256, address));\n      if (tokens_bought > 0 && (max_tokens_sold > 0 || max_eth_sold > 0)) newToken = token_addr;\n    } else if (sig == IUniswapExchange.tokenToTokenTransferOutput.selector) {\n      (uint256 tokens_bought, uint256 max_tokens_sold, uint256 max_eth_sold, /* uint256 deadline */, address recipient, address payable token_addr) = abi.decode(args, (uint256, uint256, uint256, uint256, address, address));\n      if (tokens_bought > 0 && (max_tokens_sold != 0 || max_eth_sold != 0)) newToken = token_addr;\n      require(recipient != address(this));\n    } else if (sig == IUniswapExchange.tokenToExchangeSwapInput.selector) {\n      (uint256 tokens_sold, /* uint256 min_tokens_bought */, /* uint256 min_eth_bought */, /* uint256 deadline */, address payable exchange_addr) = abi.decode(args, (uint256, uint256, uint256, uint256, address));\n      if (tokens_sold > 0) newToken = IUniswapExchange(exchange_addr).tokenAddress();\n    } else if (sig == IUniswapExchange.tokenToExchangeTransferInput.selector) {\n      (uint256 tokens_sold, /* uint256 min_tokens_bought */, /* uint256 min_eth_bought */, /* uint256 deadline */, address recipient, address payable exchange_addr) = abi.decode(args, (uint256, uint256, uint256, uint256, address, address));\n      require(recipient == address(this));\n      if (tokens_sold > 0) newToken = IUniswapExchange(exchange_addr).tokenAddress();\n    } else if (sig == IUniswapExchange.tokenToExchangeSwapOutput.selector) {\n      (uint256 tokens_bought, /* uint256 max_tokens_sold */, /* uint256 max_eth_sold */, /* uint256 deadline */, address payable exchange_addr) = abi.decode(args, (uint256, uint256, uint256, uint256, address));\n      if (tokens_bought > 0) newToken = IUniswapExchange(exchange_addr).tokenAddress();\n    } else if (sig == IUniswapExchange.tokenToExchangeTransferOutput.selector) {\n      (uint256 tokens_bought, /* uint256 max_tokens_sold */, /* uint256 max_eth_sold */, /* uint256 deadline */, address payable recipient, address payable exchange_addr) = abi.decode(args, (uint256, uint256, uint256, uint256, address, address));\n      require(recipient == address(this));\n      if (tokens_bought > 0) newToken = IUniswapExchange(exchange_addr).tokenAddress();\n    } else revert(\"unsupported contract call\");\n    if (newToken != address(0x0)) require(liquidationModule.delegateNotify(abi.encode(newToken)));\n    (bool success, bytes memory retval) = to.call.value(value)(payload);\n    if (success) assembly {\n      return(add(0x20, retval), mload(retval))\n    } else assembly {\n      revert(add(0x20, retval), mload(retval))\n    }\n  }\n}\n",
  "sourcePath": "/home/ray/0confirmation-mono/packages/0confirmation-sol/contracts/adapters/assets/uniswap/UniswapAdapter.sol",
  "compiler": {
    "name": "solc",
    "version": "0.6.3+commit.8dda9521.Linux.g++"
  },
  "schemaVersion": "3.0.23",
  "updatedAt": "2020-03-02T07:04:26.492Z",
  "devdoc": {
    "methods": {}
  },
  "userdoc": {
    "methods": {}
  }
}