{
  "contractName": "UniswapTradeAbsorb",
  "abi": [
    {
      "inputs": [
        {
          "internalType": "address",
          "name": "_target",
          "type": "address"
        }
      ],
      "stateMutability": "nonpayable",
      "type": "constructor"
    },
    {
      "inputs": [],
      "name": "destroy",
      "outputs": [],
      "stateMutability": "nonpayable",
      "type": "function"
    },
    {
      "inputs": [],
      "name": "target",
      "outputs": [
        {
          "internalType": "address",
          "name": "",
          "type": "address"
        }
      ],
      "stateMutability": "view",
      "type": "function"
    },
    {
      "inputs": [
        {
          "internalType": "bytes",
          "name": "input",
          "type": "bytes"
        }
      ],
      "name": "execute",
      "outputs": [
        {
          "components": [
            {
              "internalType": "address",
              "name": "to",
              "type": "address"
            },
            {
              "internalType": "bytes",
              "name": "txData",
              "type": "bytes"
            }
          ],
          "internalType": "struct ShifterBorrowProxyLib.InitializationAction",
          "name": "result",
          "type": "tuple"
        }
      ],
      "stateMutability": "view",
      "type": "function"
    }
  ],
  "bytecode": "0x608060405234801561001057600080fd5b5060405161099c38038061099c83398101604081905261002f91610054565b600080546001600160a01b0319166001600160a01b0392909216919091179055610082565b600060208284031215610065578081fd5b81516001600160a01b038116811461007b578182fd5b9392505050565b61090b806100916000396000f3fe608060405234801561001057600080fd5b50600436106100415760003560e01c806309c5eabe1461004657806383197ef01461006f578063d4b8399214610079575b600080fd5b610059610054366004610600565b61008e565b60405161006691906107d4565b60405180910390f35b6100776101b9565b005b6100816101bc565b60405161006691906107a7565b61009661045d565b61009e61045d565b6100a7836101cb565b90506100b1610475565b6020820151805160001981019081106100c657fe5b60200260200101519050600060606100e183602001516101e2565b9150915060006100f4846060015161021a565b90506100fe61049b565b61010783610244565b9050600086600001516001600160a01b031663d4b839926040518163ffffffff1660e01b815260040160206040518083038186803b15801561014857600080fd5b505afa15801561015c573d6000803e3d6000fd5b505050506040513d601f19601f8201168201806040525081019061018091906105e4565b9050604051806040016040528083608001516001600160a01b031681526020016101aa83866102a2565b90529998505050505050505050565b33ff5b6000546001600160a01b031681565b6101d361045d565b6101dc826102f8565b92915050565b600060606101fb6101f68460006004610314565b61033d565b60e01b915061021361020e84600461035a565b610385565b9050915091565b600061023161020e8383602063ffffffff61031416565b8060200190518101906101dc9190610743565b61024c61049b565b600080600080600086806020019051810190610268919061075b565b6040805160a08101825295865260208601949094529284019190915260608301526001600160a01b03166080820152979650505050505050565b606063a9059cbb60e01b83836040516024016102bf9291906107bb565b60408051601f198184030181529190526020810180516001600160e01b03166001600160e01b0319909316929092179091529392505050565b61030061045d565b818060200190518101906101dc9190610677565b61031c6104d3565b61032684846103f5565b815260208101919091526040810191909152919050565b805160208201516000919061035282826103fc565b949350505050565b6103626104d3565b818351101561037057825191505b61037e838384865103610314565b9392505050565b60208101516060908067ffffffffffffffff811180156103a457600080fd5b506040519080825280601f01601f1916602001820160405280156103cf576020820181803683370190505b50835190925060006103e084610419565b90506103ed81838561041f565b505050919050565b0160200190565b6000600180600884021b0380836020038503511691505092915050565b60200190565b5b6020811061043f578151835260209283019290910190601f1901610420565b600180600883602003021b0380845116811984511617845250505050565b60408051808201909152600081526060602082015290565b604080516080810182526000808252606060208301819052928201528181019190915290565b6040518060a001604052806000815260200160008152602001600081526020016000815260200160006001600160a01b031681525090565b60405180606001604052806000815260200160008152602001600081525090565b600082601f830112610504578081fd5b815161051761051282610869565b610822565b915080825283602082850101111561052e57600080fd5b61053f81602084016020860161088d565b5092915050565b600060808284031215610557578081fd5b6105616080610822565b9050815161056e816108bd565b8152602082015167ffffffffffffffff8082111561058b57600080fd5b610597858386016104f4565b60208401526040840151915081151582146105b157600080fd5b81604084015260608401519150808211156105cb57600080fd5b506105d8848285016104f4565b60608301525092915050565b6000602082840312156105f5578081fd5b815161037e816108bd565b600060208284031215610611578081fd5b813567ffffffffffffffff811115610627578182fd5b80830184601f820112610638578283fd5b8035915061064861051283610869565b82815285602084840101111561065c578384fd5b82602083016020830137918201602001929092529392505050565b60006020808385031215610689578182fd5b825167ffffffffffffffff808211156106a0578384fd5b818501604081880312156106b2578485fd5b6106bc6040610822565b925080516106c9816108bd565b835280840151828111156106db578586fd5b019050601f810186136106ec578384fd5b80516106fa61051282610849565b81815284810190838601875b8481101561072f5761071d8b898451890101610546565b84529287019290870190600101610706565b505094840194909452509095945050505050565b600060208284031215610754578081fd5b5051919050565b600080600080600060a08688031215610772578081fd5b855194506020860151935060408601519250606086015191506080860151610799816108bd565b809150509295509295909350565b6001600160a01b0391909116815260200190565b6001600160a01b03929092168252602082015260400190565b60006020825260018060a01b0383511660208301526020830151604080840152805180606085015261080d81608086016020850161088d565b601f01601f1916929092016080019392505050565b60405181810167ffffffffffffffff8111828210171561084157600080fd5b604052919050565b600067ffffffffffffffff82111561085f578081fd5b5060209081020190565b600067ffffffffffffffff82111561087f578081fd5b50601f01601f191660200190565b60005b838110156108a8578181015183820152602001610890565b838111156108b7576000848401525b50505050565b6001600160a01b03811681146108d257600080fd5b5056fea264697066735822122092503f4bff4cddcc7833aed900de9a91cc89ba0aba68cf11541c01f24e1547c464736f6c63430006060033",
  "source": "pragma solidity ^0.6.0;\npragma experimental ABIEncoderV2;\n\nimport { Preprocessor } from \"./lib/Preprocessor.sol\";\nimport { ShifterBorrowProxyLib } from \"../ShifterBorrowProxyLib.sol\";\nimport { SandboxLib } from \"../SandboxLib.sol\";\nimport { IERC20 } from \"openzeppelin-solidity/contracts/token/ERC20/IERC20.sol\";\nimport { IUniswapExchange } from \"../interfaces/IUniswapExchange.sol\";\nimport { TokenUtils } from \"../utils/TokenUtils.sol\";\nimport { SliceLib } from \"../utils/SliceLib.sol\";\nimport { UniswapAdapterLib } from \"../adapters/assets/uniswap/UniswapAdapterLib.sol\";\nimport { ModuleLib } from \"../adapters/lib/ModuleLib.sol\";\n\ncontract UniswapTradeAbsorb is Preprocessor {\n  using TokenUtils for *;\n  using SliceLib for *;\n  using ModuleLib for *;\n  using UniswapAdapterLib for *;\n  address public target;\n  constructor(address _target) public {\n    target = _target;\n  }\n  function decodeUniswapResult(bytes memory input) internal pure returns (uint256 result) {\n    (result) = abi.decode(input.toSlice(0, 0x20).copy(), (uint256));\n  }\n  function execute(bytes memory input) public view returns (ShifterBorrowProxyLib.InitializationAction memory result) {\n    SandboxLib.Context memory context = input.toContext();\n    SandboxLib.ProtectedExecution memory execution = context.trace[context.trace.length - 1];\n    (bytes4 sig, bytes memory payload) = execution.txData.splitPayload();\n    uint256 amount = decodeUniswapResult(execution.returnData);\n    UniswapAdapterLib.TokenToTokenSwapInputInputs memory inputs = payload.decodeTokenToTokenSwapInputInputs();\n    address destination = UniswapTradeAbsorb(context.preprocessorAddress).target();\n    return ShifterBorrowProxyLib.InitializationAction({\n      to: inputs.token_addr,\n      txData: TokenUtils.encodeTransfer(destination, amount)\n    });\n  }\n}\n",
  "sourcePath": "/home/ray/0confirmation/packages/0confirmation-sol/contracts/preprocessors/UniswapTradeAbsorb.sol",
  "compiler": {
    "name": "solc",
    "version": "0.6.6+commit.6c089d02.Emscripten.clang"
  },
  "schemaVersion": "3.0.23",
  "updatedAt": "2020-04-23T09:11:10.206Z",
  "devdoc": {
    "methods": {}
  },
  "userdoc": {
    "methods": {}
  }
}