{
  "contractName": "UniswapAdapter",
  "abi": [
    {
      "inputs": [
        {
          "internalType": "address",
          "name": "factoryAddress",
          "type": "address"
        }
      ],
      "stateMutability": "nonpayable",
      "type": "constructor"
    },
    {
      "stateMutability": "payable",
      "type": "receive"
    },
    {
      "inputs": [],
      "name": "getExternalIsolateHandler",
      "outputs": [
        {
          "components": [
            {
              "internalType": "address",
              "name": "factoryAddress",
              "type": "address"
            }
          ],
          "internalType": "struct UniswapAdapterLib.ExternalIsolate",
          "name": "",
          "type": "tuple"
        }
      ],
      "stateMutability": "payable",
      "type": "function"
    },
    {
      "inputs": [],
      "name": "getSignatures",
      "outputs": [
        {
          "internalType": "bytes4[]",
          "name": "retval",
          "type": "bytes4[]"
        }
      ],
      "stateMutability": "pure",
      "type": "function"
    }
  ],
  "bytecode": "0x60806040523480156200001157600080fd5b5060405162002b9738038062002b9783398181016040526200003791908101906200015d565b60006200004f826200009c60201b62001e261760201c565b9050818160000160006101000a81548173ffffffffffffffffffffffffffffffffffffffff021916908373ffffffffffffffffffffffffffffffffffffffff16021790555050506200029e565b6000620000bf620000b383620000c660201b60201c565b620000fb60201b60201c565b9050919050565b600081604051602001620000db9190620001e6565b6040516020818303038152906040528051906020012060001c9050919050565b60006200014460201b62001fbe176200014460201b62001fbe176200013a60201b62001f6a17905080915062000131848360201c565b92505050919050565b6000819050919050565bfe5b600081519050620001578162000284565b92915050565b6000602082840312156200017057600080fd5b6000620001808482850162000146565b91505092915050565b6200019e62000198826200021b565b6200024f565b82525050565b6000620001b360178362000210565b91507f69736f6c6174652e756e69737761702d616461707465720000000000000000006000830152601782019050919050565b6000620001f382620001a4565b915062000201828462000189565b60148201915081905092915050565b600081905092915050565b600062000228826200022f565b9050919050565b600073ffffffffffffffffffffffffffffffffffffffff82169050919050565b60006200025c8262000263565b9050919050565b6000620002708262000277565b9050919050565b60008160601b9050919050565b6200028f816200021b565b81146200029b57600080fd5b50565b6128e980620002ae6000396000f3fe60806040526004361061002d5760003560e01c8063966ff7a81461103b578063ad6f80ff1461105957611036565b3661103657600080600080606060003661004a91908101906120de565b955095509550509450945060006100618685611084565b91505060006060610071846111a0565b9150915060006389f2a87160e01b7bffffffffffffffffffffffffffffffffffffffffffffffffffffffff1916837bffffffffffffffffffffffffffffffffffffffffffffffffffffffff1916148061010e575063fd11c22360e01b7bffffffffffffffffffffffffffffffffffffffffffffffffffffffff1916837bffffffffffffffffffffffffffffffffffffffffffffffffffffffff1916145b8061015d57506395e3c50b60e01b7bffffffffffffffffffffffffffffffffffffffffffffffffffffffff1916837bffffffffffffffffffffffffffffffffffffffffffffffffffffffff1916145b806101ac575063013efd8b60e01b7bffffffffffffffffffffffffffffffffffffffffffffffffffffffff1916837bffffffffffffffffffffffffffffffffffffffffffffffffffffffff1916145b806101fb575063cd7724c360e01b7bffffffffffffffffffffffffffffffffffffffffffffffffffffffff1916837bffffffffffffffffffffffffffffffffffffffffffffffffffffffff1916145b8061024a57506359e9486260e01b7bffffffffffffffffffffffffffffffffffffffffffffffffffffffff1916837bffffffffffffffffffffffffffffffffffffffffffffffffffffffff1916145b8061029957506395b68fe760e01b7bffffffffffffffffffffffffffffffffffffffffffffffffffffffff1916837bffffffffffffffffffffffffffffffffffffffffffffffffffffffff1916145b806102e85750632640f62c60e01b7bffffffffffffffffffffffffffffffffffffffffffffffffffffffff1916837bffffffffffffffffffffffffffffffffffffffffffffffffffffffff1916145b806103375750639d76ea5860e01b7bffffffffffffffffffffffffffffffffffffffffffffffffffffffff1916837bffffffffffffffffffffffffffffffffffffffffffffffffffffffff1916145b80610386575063422f104360e01b7bffffffffffffffffffffffffffffffffffffffffffffffffffffffff1916837bffffffffffffffffffffffffffffffffffffffffffffffffffffffff1916145b806103d5575063f88bf15a60e01b7bffffffffffffffffffffffffffffffffffffffffffffffffffffffff1916837bffffffffffffffffffffffffffffffffffffffffffffffffffffffff1916145b156103df57610f29565b63f39b5b9b60e01b7bffffffffffffffffffffffffffffffffffffffffffffffffffffffff1916837bffffffffffffffffffffffffffffffffffffffffffffffffffffffff191614156104585760008280602001905161044291908101906121a8565b5090506000811115610452578491505b50610f28565b63ad65d76d60e01b7bffffffffffffffffffffffffffffffffffffffffffffffffffffffff1916837bffffffffffffffffffffffffffffffffffffffffffffffffffffffff1916141561050d57600080838060200190516104bc91908101906121e4565b92505091503073ffffffffffffffffffffffffffffffffffffffff168173ffffffffffffffffffffffffffffffffffffffff16146104f957600080fd5b6000821115610506578592505b5050610f27565b636b1d4db760e01b7bffffffffffffffffffffffffffffffffffffffffffffffffffffffff1916837bffffffffffffffffffffffffffffffffffffffffffffffffffffffff191614156105865760008280602001905161057091908101906121a8565b5090506000811115610580578491505b50610f26565b630b57363860e01b7bffffffffffffffffffffffffffffffffffffffffffffffffffffffff1916837bffffffffffffffffffffffffffffffffffffffffffffffffffffffff1916141561063b57600080838060200190516105ea91908101906121e4565b92505091503073ffffffffffffffffffffffffffffffffffffffff168173ffffffffffffffffffffffffffffffffffffffff161461062757600080fd5b6000821115610634578592505b5050610f25565b637237e03160e01b7bffffffffffffffffffffffffffffffffffffffffffffffffffffffff1916837bffffffffffffffffffffffffffffffffffffffffffffffffffffffff191614156106e15760008280602001905161069e9190810190612233565b93505050503073ffffffffffffffffffffffffffffffffffffffff168173ffffffffffffffffffffffffffffffffffffffff16146106db57600080fd5b50610f24565b63d4e4841d60e01b7bffffffffffffffffffffffffffffffffffffffffffffffffffffffff1916837bffffffffffffffffffffffffffffffffffffffffffffffffffffffff19161415610787576000828060200190516107449190810190612233565b93505050503073ffffffffffffffffffffffffffffffffffffffff168173ffffffffffffffffffffffffffffffffffffffff161461078157600080fd5b50610f23565b63ddf7e1a760e01b7bffffffffffffffffffffffffffffffffffffffffffffffffffffffff1916837bffffffffffffffffffffffffffffffffffffffffffffffffffffffff1916141561082357600080600080858060200190516107ee9190810190612296565b94505093509350935060008411806108065750600083115b806108115750600082115b1561081a578094505b50505050610f22565b63f552d91b60e01b7bffffffffffffffffffffffffffffffffffffffffffffffffffffffff1916837bffffffffffffffffffffffffffffffffffffffffffffffffffffffff191614156108fc5760008060008060008680602001905161088c919081019061230d565b955095505094509450945060008511806108a65750600084115b806108b15750600083115b156108ba578095505b3073ffffffffffffffffffffffffffffffffffffffff168273ffffffffffffffffffffffffffffffffffffffff16146108f257600080fd5b5050505050610f21565b63b040d54560e01b7bffffffffffffffffffffffffffffffffffffffffffffffffffffffff1916837bffffffffffffffffffffffffffffffffffffffffffffffffffffffff1916141561099957600080600080858060200190516109639190810190612296565b945050935093509350600084118015610987575060008311806109865750600082115b5b15610990578094505b50505050610f20565b63f3c0efe960e01b7bffffffffffffffffffffffffffffffffffffffffffffffffffffffff1916837bffffffffffffffffffffffffffffffffffffffffffffffffffffffff19161415610a7657600080600080600086806020019051610a02919081019061230d565b9550955050945094509450600085118015610a2a5750600084141580610a29575060008314155b5b15610a33578095505b3073ffffffffffffffffffffffffffffffffffffffff168273ffffffffffffffffffffffffffffffffffffffff161415610a6c57600080fd5b5050505050610f1f565b63b1cb43bf60e01b7bffffffffffffffffffffffffffffffffffffffffffffffffffffffff1916837bffffffffffffffffffffffffffffffffffffffffffffffffffffffff19161415610b725760008083806020019051610ada9190810190612296565b945050505091506000821115610b6b578073ffffffffffffffffffffffffffffffffffffffff16639d76ea586040518163ffffffff1660e01b815260040160206040518083038186803b158015610b3057600080fd5b505afa158015610b44573d6000803e3d6000fd5b505050506040513d601f19601f82011682018060405250610b6891908101906120b5565b92505b5050610f1e565b63ec384a3e60e01b7bffffffffffffffffffffffffffffffffffffffffffffffffffffffff1916837bffffffffffffffffffffffffffffffffffffffffffffffffffffffff19161415610cab57600080600084806020019051610bd8919081019061230d565b9550955050505092503073ffffffffffffffffffffffffffffffffffffffff168273ffffffffffffffffffffffffffffffffffffffff1614610c1957600080fd5b6000831115610ca3578073ffffffffffffffffffffffffffffffffffffffff16639d76ea586040518163ffffffff1660e01b815260040160206040518083038186803b158015610c6857600080fd5b505afa158015610c7c573d6000803e3d6000fd5b505050506040513d601f19601f82011682018060405250610ca091908101906120b5565b93505b505050610f1d565b63ea650c7d60e01b7bffffffffffffffffffffffffffffffffffffffffffffffffffffffff1916837bffffffffffffffffffffffffffffffffffffffffffffffffffffffff19161415610da75760008083806020019051610d0f9190810190612296565b945050505091506000821115610da0578073ffffffffffffffffffffffffffffffffffffffff16639d76ea586040518163ffffffff1660e01b815260040160206040518083038186803b158015610d6557600080fd5b505afa158015610d79573d6000803e3d6000fd5b505050506040513d601f19601f82011682018060405250610d9d91908101906120b5565b92505b5050610f1c565b63981a132760e01b7bffffffffffffffffffffffffffffffffffffffffffffffffffffffff1916837bffffffffffffffffffffffffffffffffffffffffffffffffffffffff19161415610ee057600080600084806020019051610e0d919081019061230d565b9550955050505092503073ffffffffffffffffffffffffffffffffffffffff168273ffffffffffffffffffffffffffffffffffffffff1614610e4e57600080fd5b6000831115610ed8578073ffffffffffffffffffffffffffffffffffffffff16639d76ea586040518163ffffffff1660e01b815260040160206040518083038186803b158015610e9d57600080fd5b505afa158015610eb1573d6000803e3d6000fd5b505050506040513d601f19601f82011682018060405250610ed591908101906120b5565b93505b505050610f1b565b6040517f08c379a0000000000000000000000000000000000000000000000000000000008152600401610f1290612660565b60405180910390fd5b5b5b5b5b5b5b5b5b5b5b5b5b5b5b600073ffffffffffffffffffffffffffffffffffffffff168173ffffffffffffffffffffffffffffffffffffffff1614610faf57610fa581604051602001610f7191906125d3565b6040516020818303038152906040528973ffffffffffffffffffffffffffffffffffffffff166111e890919063ffffffff16565b610fae57600080fd5b5b600060608873ffffffffffffffffffffffffffffffffffffffff168888604051610fd99190612596565b60006040518083038185875af1925050503d8060008114611016576040519150601f19603f3d011682016040523d82523d6000602084013e61101b565b606091505b5091509150811561102e57805181602001f35b805181602001fd5b600080fd5b6110436112ed565b6040516110509190612680565b60405180910390f35b34801561106557600080fd5b5061106e611364565b60405161107b919061261e565b60405180910390f35b600080600061109285611d15565b905060008173ffffffffffffffffffffffffffffffffffffffff166359770438866040518263ffffffff1660e01b81526004016110cf91906125d3565b60206040518083038186803b1580156110e757600080fd5b505afa1580156110fb573d6000803e3d6000fd5b505050506040513d601f19601f8201168201806040525061111f91908101906120b5565b9050600073ffffffffffffffffffffffffffffffffffffffff168173ffffffffffffffffffffffffffffffffffffffff161415611191576040517f08c379a000000000000000000000000000000000000000000000000000000000815260040161118890612640565b60405180910390fd5b81819350935050509250929050565b600060606111c36111be6000600486611d2b9092919063ffffffff16565b611d63565b91506111e16111dc600485611d9290919063ffffffff16565b611dbe565b9050915091565b6000808373ffffffffffffffffffffffffffffffffffffffff1684846040516024016112159291906125ee565b6040516020818303038152906040527ffa1fd28c000000000000000000000000000000000000000000000000000000007bffffffffffffffffffffffffffffffffffffffffffffffffffffffff19166020820180517bffffffffffffffffffffffffffffffffffffffffffffffffffffffff838183161783525050505060405161129f9190612596565b600060405180830381855af49150503d80600081146112da576040519150601f19603f3d011682016040523d82523d6000602084013e6112df565b606091505b505090508091505092915050565b6112f5611f74565b6112fe30611e26565b6040518060200160405290816000820160009054906101000a900473ffffffffffffffffffffffffffffffffffffffff1673ffffffffffffffffffffffffffffffffffffffff1673ffffffffffffffffffffffffffffffffffffffff1681525050905090565b606060196040519080825280602002602001820160405280156113965781602001602082028036833780820191505090505b5090506389f2a87160e01b816000815181106113ae57fe5b60200260200101907bffffffffffffffffffffffffffffffffffffffffffffffffffffffff191690817bffffffffffffffffffffffffffffffffffffffffffffffffffffffff19168152505063fd11c22360e01b8160018151811061140f57fe5b60200260200101907bffffffffffffffffffffffffffffffffffffffffffffffffffffffff191690817bffffffffffffffffffffffffffffffffffffffffffffffffffffffff1916815250506395e3c50b60e01b8160028151811061147057fe5b60200260200101907bffffffffffffffffffffffffffffffffffffffffffffffffffffffff191690817bffffffffffffffffffffffffffffffffffffffffffffffffffffffff19168152505063013efd8b60e01b816003815181106114d157fe5b60200260200101907bffffffffffffffffffffffffffffffffffffffffffffffffffffffff191690817bffffffffffffffffffffffffffffffffffffffffffffffffffffffff19168152505063cd7724c360e01b8160048151811061153257fe5b60200260200101907bffffffffffffffffffffffffffffffffffffffffffffffffffffffff191690817bffffffffffffffffffffffffffffffffffffffffffffffffffffffff1916815250506359e9486260e01b8160058151811061159357fe5b60200260200101907bffffffffffffffffffffffffffffffffffffffffffffffffffffffff191690817bffffffffffffffffffffffffffffffffffffffffffffffffffffffff1916815250506395b68fe760e01b816006815181106115f457fe5b60200260200101907bffffffffffffffffffffffffffffffffffffffffffffffffffffffff191690817bffffffffffffffffffffffffffffffffffffffffffffffffffffffff191681525050632640f62c60e01b8160078151811061165557fe5b60200260200101907bffffffffffffffffffffffffffffffffffffffffffffffffffffffff191690817bffffffffffffffffffffffffffffffffffffffffffffffffffffffff191681525050639d76ea5860e01b816008815181106116b657fe5b60200260200101907bffffffffffffffffffffffffffffffffffffffffffffffffffffffff191690817bffffffffffffffffffffffffffffffffffffffffffffffffffffffff19168152505063422f104360e01b8160098151811061171757fe5b60200260200101907bffffffffffffffffffffffffffffffffffffffffffffffffffffffff191690817bffffffffffffffffffffffffffffffffffffffffffffffffffffffff19168152505063f88bf15a60e01b81600a8151811061177857fe5b60200260200101907bffffffffffffffffffffffffffffffffffffffffffffffffffffffff191690817bffffffffffffffffffffffffffffffffffffffffffffffffffffffff19168152505063f39b5b9b60e01b81600b815181106117d957fe5b60200260200101907bffffffffffffffffffffffffffffffffffffffffffffffffffffffff191690817bffffffffffffffffffffffffffffffffffffffffffffffffffffffff19168152505063ad65d76d60e01b81600c8151811061183a57fe5b60200260200101907bffffffffffffffffffffffffffffffffffffffffffffffffffffffff191690817bffffffffffffffffffffffffffffffffffffffffffffffffffffffff191681525050636b1d4db760e01b81600d8151811061189b57fe5b60200260200101907bffffffffffffffffffffffffffffffffffffffffffffffffffffffff191690817bffffffffffffffffffffffffffffffffffffffffffffffffffffffff191681525050630b57363860e01b81600e815181106118fc57fe5b60200260200101907bffffffffffffffffffffffffffffffffffffffffffffffffffffffff191690817bffffffffffffffffffffffffffffffffffffffffffffffffffffffff191681525050637237e03160e01b81600f8151811061195d57fe5b60200260200101907bffffffffffffffffffffffffffffffffffffffffffffffffffffffff191690817bffffffffffffffffffffffffffffffffffffffffffffffffffffffff19168152505063d4e4841d60e01b816010815181106119be57fe5b60200260200101907bffffffffffffffffffffffffffffffffffffffffffffffffffffffff191690817bffffffffffffffffffffffffffffffffffffffffffffffffffffffff19168152505063ddf7e1a760e01b81601181518110611a1f57fe5b60200260200101907bffffffffffffffffffffffffffffffffffffffffffffffffffffffff191690817bffffffffffffffffffffffffffffffffffffffffffffffffffffffff19168152505063f552d91b60e01b81601281518110611a8057fe5b60200260200101907bffffffffffffffffffffffffffffffffffffffffffffffffffffffff191690817bffffffffffffffffffffffffffffffffffffffffffffffffffffffff19168152505063b040d54560e01b81601381518110611ae157fe5b60200260200101907bffffffffffffffffffffffffffffffffffffffffffffffffffffffff191690817bffffffffffffffffffffffffffffffffffffffffffffffffffffffff19168152505063f3c0efe960e01b81601481518110611b4257fe5b60200260200101907bffffffffffffffffffffffffffffffffffffffffffffffffffffffff191690817bffffffffffffffffffffffffffffffffffffffffffffffffffffffff19168152505063b1cb43bf60e01b81601581518110611ba357fe5b60200260200101907bffffffffffffffffffffffffffffffffffffffffffffffffffffffff191690817bffffffffffffffffffffffffffffffffffffffffffffffffffffffff19168152505063ec384a3e60e01b81601681518110611c0457fe5b60200260200101907bffffffffffffffffffffffffffffffffffffffffffffffffffffffff191690817bffffffffffffffffffffffffffffffffffffffffffffffffffffffff19168152505063ea650c7d60e01b81601781518110611c6557fe5b60200260200101907bffffffffffffffffffffffffffffffffffffffffffffffffffffffff191690817bffffffffffffffffffffffffffffffffffffffffffffffffffffffff19168152505063981a132760e01b81601881518110611cc657fe5b60200260200101907bffffffffffffffffffffffffffffffffffffffffffffffffffffffff191690817bffffffffffffffffffffffffffffffffffffffffffffffffffffffff19168152505090565b6000611d2082611e40565b600001519050919050565b611d33611f9d565b60006020850184019050808260000181815250508282602001818152505083826040018181525050509392505050565b60008082600001519050600083602001519050600180600883021b038082602003840351169350505050919050565b611d9a611f9d565b8183511015611da857825191505b611db6838384865103611d2b565b905092915050565b6060600082602001519050806040519080825280601f01601f191660200182016040528015611dfc5781602001600182028036833780820191505090505b5091506000836000015160001b90506000602084019050611e1e818385611ecf565b505050919050565b6000611e39611e3483611f11565b611f44565b9050919050565b611e48611f74565b8173ffffffffffffffffffffffffffffffffffffffff1663966ff7a86040518163ffffffff1660e01b8152600401602060405180830381600087803b158015611e9057600080fd5b505af1158015611ea4573d6000803e3d6000fd5b505050506040513d601f19601f82011682018060405250611ec8919081019061217f565b9050919050565b5b60208110611ef35781518352602083019250602082019150602081039050611ed0565b600180600883602003021b0380845116811984511617845250505050565b600081604051602001611f2491906125ad565b6040516020818303038152906040528051906020012060001c9050919050565b6000611fbe611fbe611f6a9050809150611f61848363ffffffff16565b92505050919050565b6000819050919050565b6040518060200160405280600073ffffffffffffffffffffffffffffffffffffffff1681525090565b60405180606001604052806000815260200160008152602001600081525090565bfe5b600081519050611fcf8161286e565b92915050565b600081359050611fe481612885565b92915050565b600081519050611ff981612885565b92915050565b600082601f83011261201057600080fd5b813561202361201e826126c8565b61269b565b9150808252602083016020830185838301111561203f57600080fd5b61204a8382846127ea565b50505092915050565b60006020828403121561206557600080fd5b61206f602061269b565b9050600061207f84828501611fc0565b60008301525092915050565b60008135905061209a8161289c565b92915050565b6000815190506120af8161289c565b92915050565b6000602082840312156120c757600080fd5b60006120d584828501611fc0565b91505092915050565b60008060008060008060c087890312156120f757600080fd5b600061210589828a01611fd5565b965050602061211689828a01611fd5565b955050604061212789828a01611fd5565b945050606061213889828a01611fd5565b935050608061214989828a0161208b565b92505060a087013567ffffffffffffffff81111561216657600080fd5b61217289828a01611fff565b9150509295509295509295565b60006020828403121561219157600080fd5b600061219f84828501612053565b91505092915050565b600080604083850312156121bb57600080fd5b60006121c9858286016120a0565b92505060206121da858286016120a0565b9150509250929050565b6000806000606084860312156121f957600080fd5b6000612207868287016120a0565b9350506020612218868287016120a0565b925050604061222986828701611fea565b9150509250925092565b6000806000806080858703121561224957600080fd5b6000612257878288016120a0565b9450506020612268878288016120a0565b9350506040612279878288016120a0565b925050606061228a87828801611fea565b91505092959194509250565b600080600080600060a086880312156122ae57600080fd5b60006122bc888289016120a0565b95505060206122cd888289016120a0565b94505060406122de888289016120a0565b93505060606122ef888289016120a0565b925050608061230088828901611fea565b9150509295509295909350565b60008060008060008060c0878903121561232657600080fd5b600061233489828a016120a0565b965050602061234589828a016120a0565b955050604061235689828a016120a0565b945050606061236789828a016120a0565b935050608061237889828a01611fea565b92505060a061238989828a01611fea565b9150509295509295509295565b60006123a28383612441565b60208301905092915050565b6123b781612770565b82525050565b6123c681612770565b82525050565b6123dd6123d882612770565b61282c565b82525050565b60006123ee82612704565b6123f88185612727565b9350612403836126f4565b8060005b8381101561243457815161241b8882612396565b97506124268361271a565b925050600181019050612407565b5085935050505092915050565b61244a81612794565b82525050565b600061245b8261270f565b6124658185612738565b93506124758185602086016127f9565b61247e81612850565b840191505092915050565b60006124948261270f565b61249e8185612749565b93506124ae8185602086016127f9565b80840191505092915050565b60006124c7601a83612754565b91507f6e6f7420612076616c696420756e6973776170206d61726b65740000000000006000830152602082019050919050565b6000612507601983612754565b91507f756e737570706f7274656420636f6e74726163742063616c6c000000000000006000830152602082019050919050565b6000612547601783612765565b91507f69736f6c6174652e756e69737761702d616461707465720000000000000000006000830152601782019050919050565b60208201600082015161259060008501826123ae565b50505050565b60006125a28284612489565b915081905092915050565b60006125b88261253a565b91506125c482846123cc565b60148201915081905092915050565b60006020820190506125e860008301846123bd565b92915050565b600060408201905061260360008301856123bd565b81810360208301526126158184612450565b90509392505050565b6000602082019050818103600083015261263881846123e3565b905092915050565b60006020820190508181036000830152612659816124ba565b9050919050565b60006020820190508181036000830152612679816124fa565b9050919050565b6000602082019050612695600083018461257a565b92915050565b6000604051905081810181811067ffffffffffffffff821117156126be57600080fd5b8060405250919050565b600067ffffffffffffffff8211156126df57600080fd5b601f19601f8301169050602081019050919050565b6000819050602082019050919050565b600081519050919050565b600081519050919050565b6000602082019050919050565b600082825260208201905092915050565b600082825260208201905092915050565b600081905092915050565b600082825260208201905092915050565b600081905092915050565b600061277b826127c0565b9050919050565b600061278d826127c0565b9050919050565b60007fffffffff0000000000000000000000000000000000000000000000000000000082169050919050565b600073ffffffffffffffffffffffffffffffffffffffff82169050919050565b6000819050919050565b82818337600083830152505050565b60005b838110156128175780820151818401526020810190506127fc565b83811115612826576000848401525b50505050565b60006128378261283e565b9050919050565b600061284982612861565b9050919050565b6000601f19601f8301169050919050565b60008160601b9050919050565b61287781612770565b811461288257600080fd5b50565b61288e81612782565b811461289957600080fd5b50565b6128a5816127e0565b81146128b057600080fd5b5056fea2646970667358221220542d7d78fdee38a6b9fe7ef97fec571bb7c7436b1ddb78ee76d17cafea90241864736f6c63430006030033",
  "source": "pragma solidity ^0.6.2;\npragma experimental ABIEncoderV2;\n\nimport { ILiquidationModule } from \"../../../interfaces/ILiquidationModule.sol\";\nimport { UniswapAdapterLib } from \"./UniswapAdapterLib.sol\";\nimport { SliceLib } from \"../../../utils/SliceLib.sol\";\nimport { BorrowProxyLib } from \"../../../BorrowProxyLib.sol\";\nimport { ShifterBorrowProxyLib } from \"../../../ShifterBorrowProxyLib.sol\";\nimport { IUniswapFactory } from \"../../../interfaces/IUniswapFactory.sol\";\nimport { IUniswapExchange } from \"../../../interfaces/IUniswapExchange.sol\";\n\ncontract UniswapAdapter {\n  using SliceLib for *;\n  using BorrowProxyLib for *;\n  using ShifterBorrowProxyLib for *;\n  using UniswapAdapterLib for *;\n  constructor(address factoryAddress) public {\n    UniswapAdapterLib.ExternalIsolate storage isolate = UniswapAdapterLib.getIsolatePointer(factoryAddress);\n    isolate.factoryAddress = factoryAddress;\n  }\n  function getExternalIsolateHandler() external payable returns (UniswapAdapterLib.ExternalIsolate memory) {\n    return UniswapAdapterLib.getIsolatePointer(address(this));\n  }\n  function getSignatures() public pure returns (bytes4[] memory retval) {\n    retval = new bytes4[](25);\n    retval[0] = IUniswapExchange.getInputPrice.selector;\n    retval[1] = IUniswapExchange.getOutputPrice.selector;\n    retval[2] = IUniswapExchange.tokenToEthSwapInput.selector;\n    retval[3] = IUniswapExchange.tokenToEthSwapOutput.selector;\n    retval[4] = IUniswapExchange.getEthToTokenInputPrice.selector;\n    retval[5] = IUniswapExchange.getEthToTokenOutputPrice.selector;\n    retval[6] = IUniswapExchange.getTokenToEthInputPrice.selector;\n    retval[7] = IUniswapExchange.getTokenToEthOutputPrice.selector;\n    retval[8] = IUniswapExchange.tokenAddress.selector;\n    retval[9] = IUniswapExchange.addLiquidity.selector;\n    retval[10] = IUniswapExchange.removeLiquidity.selector;\n    retval[11] = IUniswapExchange.ethToTokenSwapInput.selector;\n    retval[12] = IUniswapExchange.ethToTokenTransferInput.selector;\n    retval[13] = IUniswapExchange.ethToTokenSwapOutput.selector;\n    retval[14] = IUniswapExchange.ethToTokenTransferOutput.selector;\n    retval[15] = IUniswapExchange.tokenToEthTransferInput.selector;\n    retval[16] = IUniswapExchange.tokenToEthTransferOutput.selector;\n    retval[17] = IUniswapExchange.tokenToTokenSwapInput.selector;\n    retval[18] = IUniswapExchange.tokenToTokenTransferInput.selector;\n    retval[19] = IUniswapExchange.tokenToTokenSwapOutput.selector;\n    retval[20] = IUniswapExchange.tokenToTokenTransferOutput.selector;\n    retval[21] = IUniswapExchange.tokenToExchangeSwapInput.selector;\n    retval[22] = IUniswapExchange.tokenToExchangeTransferInput.selector;\n    retval[23] = IUniswapExchange.tokenToExchangeSwapOutput.selector;\n    retval[24] = IUniswapExchange.tokenToExchangeTransferOutput.selector;\n  }\n  receive() payable external {\n    (address payable moduleAddress, address liquidationModule, /* address txOrigin */, address to, uint256 value, bytes memory payload) = abi.decode(msg.data, (address, address, address, address, uint256, bytes));\n    (/* IUniswapFactory factory */, address tokenAddress) = UniswapAdapterLib.validateExchange(moduleAddress, to);\n    (bytes4 sig, bytes memory args) = payload.splitPayload();\n    address newToken;\n    if (\n      sig == IUniswapExchange.getInputPrice.selector ||\n      sig == IUniswapExchange.getOutputPrice.selector ||\n      sig == IUniswapExchange.tokenToEthSwapInput.selector ||\n      sig == IUniswapExchange.tokenToEthSwapOutput.selector ||\n      sig == IUniswapExchange.getEthToTokenInputPrice.selector ||\n      sig == IUniswapExchange.getEthToTokenOutputPrice.selector ||\n      sig == IUniswapExchange.getTokenToEthInputPrice.selector ||\n      sig == IUniswapExchange.getTokenToEthOutputPrice.selector ||\n      sig == IUniswapExchange.tokenAddress.selector ||\n      sig == IUniswapExchange.addLiquidity.selector ||\n      sig == IUniswapExchange.removeLiquidity.selector\n    ) {}\n    else if (sig == IUniswapExchange.ethToTokenSwapInput.selector) {\n      (uint256 min_tokens, /* uint256 deadline */) = abi.decode(args, (uint256,uint256));\n      if (min_tokens > 0) newToken = tokenAddress;\n    } else if (sig == IUniswapExchange.ethToTokenTransferInput.selector) {\n      (uint256 min_tokens, /* uint256 deadline */, address recipient) = abi.decode(args, (uint256,uint256,address));\n      require(recipient == address(this)); // \"this\" is the proxy wallet context\n      if (min_tokens > 0) newToken = tokenAddress;\n    } else if (sig == IUniswapExchange.ethToTokenSwapOutput.selector) {\n      (uint256 tokens_bought, /* uint256 deadline */) = abi.decode(args, (uint256,uint256));\n      if (tokens_bought > 0) newToken = tokenAddress;\n    } else if (sig == IUniswapExchange.ethToTokenTransferOutput.selector) {\n      (uint256 tokens_bought, /* uint256 deadline */, address recipient) = abi.decode(args, (uint256,uint256,address));\n      require(recipient == address(this));\n      if (tokens_bought > 0) newToken = tokenAddress;\n    } else if (sig == IUniswapExchange.tokenToEthTransferInput.selector) {\n      (/* uint256 tokens_sold */, /* uint256 min_eth */, /* uint256 deadline */, address recipient) = abi.decode(args, (uint256,uint256,uint256,address));\n      require(recipient == address(this));\n    } else if (sig == IUniswapExchange.tokenToEthTransferOutput.selector) {\n      (/* uint256 eth_bought */, /* uint256 max_tokens */, /* uint256 deadline */, address recipient) = abi.decode(args, (uint256, uint256, uint256, address));\n      require(recipient == address(this));\n    } else if (sig == IUniswapExchange.tokenToTokenSwapInput.selector) {\n      (uint256 tokens_sold, uint256 min_tokens_bought, uint256 min_eth_bought, /* uint256 deadline */, address payable token_addr) = abi.decode(args, (uint256, uint256, uint256, uint256, address));\n      if (tokens_sold > 0 || min_tokens_bought > 0 || min_eth_bought > 0) newToken = token_addr;\n    } else if (sig == IUniswapExchange.tokenToTokenTransferInput.selector) {\n      (uint256 tokens_sold, uint256 min_tokens_bought, uint256 min_eth_bought, /* uint256 deadline */, address recipient, address payable token_addr) = abi.decode(args, (uint256, uint256, uint256, uint256, address, address));\n      if (tokens_sold > 0 || min_tokens_bought > 0 || min_eth_bought > 0) newToken = token_addr;\n      require(recipient == address(this));\n    } else if (sig == IUniswapExchange.tokenToTokenSwapOutput.selector) {\n      (uint256 tokens_bought, uint256 max_tokens_sold, uint256 max_eth_sold, /* uint256 deadline */, address payable token_addr) = abi.decode(args, (uint256, uint256, uint256, uint256, address));\n      if (tokens_bought > 0 && (max_tokens_sold > 0 || max_eth_sold > 0)) newToken = token_addr;\n    } else if (sig == IUniswapExchange.tokenToTokenTransferOutput.selector) {\n      (uint256 tokens_bought, uint256 max_tokens_sold, uint256 max_eth_sold, /* uint256 deadline */, address recipient, address payable token_addr) = abi.decode(args, (uint256, uint256, uint256, uint256, address, address));\n      if (tokens_bought > 0 && (max_tokens_sold != 0 || max_eth_sold != 0)) newToken = token_addr;\n      require(recipient != address(this));\n    } else if (sig == IUniswapExchange.tokenToExchangeSwapInput.selector) {\n      (uint256 tokens_sold, /* uint256 min_tokens_bought */, /* uint256 min_eth_bought */, /* uint256 deadline */, address payable exchange_addr) = abi.decode(args, (uint256, uint256, uint256, uint256, address));\n      if (tokens_sold > 0) newToken = IUniswapExchange(exchange_addr).tokenAddress();\n    } else if (sig == IUniswapExchange.tokenToExchangeTransferInput.selector) {\n      (uint256 tokens_sold, /* uint256 min_tokens_bought */, /* uint256 min_eth_bought */, /* uint256 deadline */, address recipient, address payable exchange_addr) = abi.decode(args, (uint256, uint256, uint256, uint256, address, address));\n      require(recipient == address(this));\n      if (tokens_sold > 0) newToken = IUniswapExchange(exchange_addr).tokenAddress();\n    } else if (sig == IUniswapExchange.tokenToExchangeSwapOutput.selector) {\n      (uint256 tokens_bought, /* uint256 max_tokens_sold */, /* uint256 max_eth_sold */, /* uint256 deadline */, address payable exchange_addr) = abi.decode(args, (uint256, uint256, uint256, uint256, address));\n      if (tokens_bought > 0) newToken = IUniswapExchange(exchange_addr).tokenAddress();\n    } else if (sig == IUniswapExchange.tokenToExchangeTransferOutput.selector) {\n      (uint256 tokens_bought, /* uint256 max_tokens_sold */, /* uint256 max_eth_sold */, /* uint256 deadline */, address payable recipient, address payable exchange_addr) = abi.decode(args, (uint256, uint256, uint256, uint256, address, address));\n      require(recipient == address(this));\n      if (tokens_bought > 0) newToken = IUniswapExchange(exchange_addr).tokenAddress();\n    } else revert(\"unsupported contract call\");\n    if (newToken != address(0x0)) require(liquidationModule.delegateNotify(abi.encode(newToken)));\n    (bool success, bytes memory retval) = to.call.value(value)(payload);\n    if (success) assembly {\n      return(add(0x20, retval), mload(retval))\n    } else assembly {\n      revert(add(0x20, retval), mload(retval))\n    }\n  }\n}\n",
  "sourcePath": "/home/ray/0confirmation/packages/0confirmation-sol/contracts/adapters/assets/uniswap/UniswapAdapter.sol",
  "compiler": {
    "name": "solc",
    "version": "0.6.3+commit.8dda9521.Emscripten.clang"
  },
  "schemaVersion": "3.0.23",
  "updatedAt": "2020-04-01T21:20:31.886Z",
  "devdoc": {
    "methods": {}
  },
  "userdoc": {
    "methods": {}
  }
}