{
  "contractName": "UniswapTradeAbsorb",
  "abi": [
    {
      "inputs": [
        {
          "internalType": "address",
          "name": "_target",
          "type": "address"
        }
      ],
      "stateMutability": "nonpayable",
      "type": "constructor"
    },
    {
      "inputs": [],
      "name": "target",
      "outputs": [
        {
          "internalType": "address",
          "name": "",
          "type": "address"
        }
      ],
      "stateMutability": "view",
      "type": "function"
    },
    {
      "inputs": [
        {
          "internalType": "bytes",
          "name": "input",
          "type": "bytes"
        }
      ],
      "name": "execute",
      "outputs": [
        {
          "components": [
            {
              "internalType": "address",
              "name": "to",
              "type": "address"
            },
            {
              "internalType": "bytes",
              "name": "txData",
              "type": "bytes"
            }
          ],
          "internalType": "struct ShifterBorrowProxyLib.InitializationAction",
          "name": "result",
          "type": "tuple"
        }
      ],
      "stateMutability": "view",
      "type": "function"
    }
  ],
  "bytecode": "0x608060405234801561001057600080fd5b5060405161098038038061098083398101604081905261002f91610054565b600080546001600160a01b0319166001600160a01b0392909216919091179055610082565b600060208284031215610065578081fd5b81516001600160a01b038116811461007b578182fd5b9392505050565b6108ef806100916000396000f3fe608060405234801561001057600080fd5b50600436106100365760003560e01c806309c5eabe1461003b578063d4b8399214610064575b600080fd5b61004e6100493660046105e4565b610079565b60405161005b91906107b8565b60405180910390f35b61006c6101a0565b60405161005b919061078b565b610081610441565b610089610441565b610092836101af565b905061009c610459565b6020820151805160001981019081106100b157fe5b6020026020010151905060606100ca82602001516101c6565b91505060006100dc83606001516101fe565b90506100e661047f565b6100ef83610228565b9050600085600001516001600160a01b031663d4b839926040518163ffffffff1660e01b815260040160206040518083038186803b15801561013057600080fd5b505afa158015610144573d6000803e3d6000fd5b505050506040513d601f19601f8201168201806040525081019061016891906105c8565b9050604051806040016040528083608001516001600160a01b031681526020016101928386610286565b905298975050505050505050565b6000546001600160a01b031681565b6101b7610441565b6101c0826102dc565b92915050565b600060606101df6101da84600060046102f8565b610321565b60e01b91506101f76101f284600461033e565b610369565b9050915091565b60006102156101f28383602063ffffffff6102f816565b8060200190518101906101c09190610727565b61023061047f565b60008060008060008680602001905181019061024c919061073f565b6040805160a08101825295865260208601949094529284019190915260608301526001600160a01b03166080820152979650505050505050565b606063a9059cbb60e01b83836040516024016102a392919061079f565b60408051601f198184030181529190526020810180516001600160e01b03166001600160e01b0319909316929092179091529392505050565b6102e4610441565b818060200190518101906101c0919061065b565b6103006104b7565b61030a84846103d9565b815260208101919091526040810191909152919050565b805160208201516000919061033682826103e0565b949350505050565b6103466104b7565b818351101561035457825191505b6103628383848651036102f8565b9392505050565b60208101516060908067ffffffffffffffff8111801561038857600080fd5b506040519080825280601f01601f1916602001820160405280156103b3576020820181803683370190505b50835190925060006103c4846103fd565b90506103d1818385610403565b505050919050565b0160200190565b6000600180600884021b0380836020038503511691505092915050565b60200190565b5b60208110610423578151835260209283019290910190601f1901610404565b600180600883602003021b0380845116811984511617845250505050565b60408051808201909152600081526060602082015290565b604080516080810182526000808252606060208301819052928201528181019190915290565b6040518060a001604052806000815260200160008152602001600081526020016000815260200160006001600160a01b031681525090565b60405180606001604052806000815260200160008152602001600081525090565b600082601f8301126104e8578081fd5b81516104fb6104f68261084d565b610806565b915080825283602082850101111561051257600080fd5b610523816020840160208601610871565b5092915050565b60006080828403121561053b578081fd5b6105456080610806565b90508151610552816108a1565b8152602082015167ffffffffffffffff8082111561056f57600080fd5b61057b858386016104d8565b602084015260408401519150811515821461059557600080fd5b81604084015260608401519150808211156105af57600080fd5b506105bc848285016104d8565b60608301525092915050565b6000602082840312156105d9578081fd5b8151610362816108a1565b6000602082840312156105f5578081fd5b813567ffffffffffffffff81111561060b578182fd5b80830184601f82011261061c578283fd5b8035915061062c6104f68361084d565b828152856020848401011115610640578384fd5b82602083016020830137918201602001929092529392505050565b6000602080838503121561066d578182fd5b825167ffffffffffffffff80821115610684578384fd5b81850160408188031215610696578485fd5b6106a06040610806565b925080516106ad816108a1565b835280840151828111156106bf578586fd5b019050601f810186136106d0578384fd5b80516106de6104f68261082d565b81815284810190838601875b84811015610713576107018b89845189010161052a565b845292870192908701906001016106ea565b505094840194909452509095945050505050565b600060208284031215610738578081fd5b5051919050565b600080600080600060a08688031215610756578081fd5b85519450602086015193506040860151925060608601519150608086015161077d816108a1565b809150509295509295909350565b6001600160a01b0391909116815260200190565b6001600160a01b03929092168252602082015260400190565b60006020825260018060a01b038351166020830152602083015160408084015280518060608501526107f1816080860160208501610871565b601f01601f1916929092016080019392505050565b60405181810167ffffffffffffffff8111828210171561082557600080fd5b604052919050565b600067ffffffffffffffff821115610843578081fd5b5060209081020190565b600067ffffffffffffffff821115610863578081fd5b50601f01601f191660200190565b60005b8381101561088c578181015183820152602001610874565b8381111561089b576000848401525b50505050565b6001600160a01b03811681146108b657600080fd5b5056fea26469706673582212209c72fea995a3a235825f9da3bb8a715c00195845a23e4a65c6e0a4865bff7e8164736f6c63430006060033",
  "immutableReferences": {},
  "source": "pragma solidity ^0.6.0;\npragma experimental ABIEncoderV2;\n\nimport { Preprocessor } from \"./lib/Preprocessor.sol\";\nimport { ShifterBorrowProxyLib } from \"../ShifterBorrowProxyLib.sol\";\nimport { SandboxLib } from \"../SandboxLib.sol\";\nimport { IERC20 } from \"openzeppelin-solidity/contracts/token/ERC20/IERC20.sol\";\nimport { IUniswapExchange } from \"../interfaces/IUniswapExchange.sol\";\nimport { TokenUtils } from \"../utils/TokenUtils.sol\";\nimport { SliceLib } from \"../utils/SliceLib.sol\";\nimport { UniswapAdapterLib } from \"../adapters/assets/uniswap/UniswapAdapterLib.sol\";\nimport { ModuleLib } from \"../adapters/lib/ModuleLib.sol\";\nimport { PreprocessorLib } from \"./lib/PreprocessorLib.sol\";\n\ncontract UniswapTradeAbsorb {\n  using TokenUtils for *;\n  using SliceLib for *;\n  using ModuleLib for *;\n  using UniswapAdapterLib for *;\n  using PreprocessorLib for *;\n  address public target;\n  constructor(address _target) public {\n    target = _target;\n  }\n  function decodeUniswapResult(bytes memory input) internal pure returns (uint256 result) {\n    (result) = abi.decode(input.toSlice(0, 0x20).copy(), (uint256));\n  }\n  function execute(bytes memory input) public view returns (ShifterBorrowProxyLib.InitializationAction memory result) {\n    SandboxLib.Context memory context = input.toContext();\n    SandboxLib.ProtectedExecution memory execution = context.trace[context.trace.length - 1];\n    (/* bytes4 sig */, bytes memory payload) = execution.txData.splitPayload();\n    uint256 amount = decodeUniswapResult(execution.returnData);\n    UniswapAdapterLib.TokenToTokenSwapInputInputs memory inputs = payload.decodeTokenToTokenSwapInputInputs();\n    address destination = UniswapTradeAbsorb(context.preprocessorAddress).target();\n    return ShifterBorrowProxyLib.InitializationAction({\n      to: inputs.token_addr,\n      txData: TokenUtils.encodeTransfer(destination, amount)\n    });\n  }\n}\n",
  "sourcePath": "/home/ray/0confirmation/packages/0confirmation-sol/contracts/preprocessors/UniswapTradeAbsorb.sol",
  "compiler": {
    "name": "solc",
    "version": "0.6.6+commit.6c089d02.Emscripten.clang"
  },
  "schemaVersion": "3.1.0",
  "updatedAt": "2020-04-24T21:00:31.235Z",
  "devdoc": {
    "methods": {}
  },
  "userdoc": {
    "methods": {}
  }
}