{
  "contractName": "V2SwapAndDrop",
  "abi": [
    {
      "inputs": [],
      "name": "recipient",
      "outputs": [
        {
          "internalType": "address",
          "name": "",
          "type": "address"
        }
      ],
      "stateMutability": "view",
      "type": "function",
      "constant": true
    },
    {
      "inputs": [],
      "name": "router",
      "outputs": [
        {
          "internalType": "address",
          "name": "",
          "type": "address"
        }
      ],
      "stateMutability": "view",
      "type": "function",
      "constant": true
    },
    {
      "inputs": [],
      "name": "token",
      "outputs": [
        {
          "internalType": "address",
          "name": "",
          "type": "address"
        }
      ],
      "stateMutability": "view",
      "type": "function",
      "constant": true
    },
    {
      "inputs": [
        {
          "internalType": "bytes",
          "name": "consData",
          "type": "bytes"
        }
      ],
      "name": "setup",
      "outputs": [],
      "stateMutability": "nonpayable",
      "type": "function"
    },
    {
      "inputs": [
        {
          "internalType": "bytes",
          "name": "data",
          "type": "bytes"
        }
      ],
      "name": "execute",
      "outputs": [
        {
          "components": [
            {
              "internalType": "address",
              "name": "to",
              "type": "address"
            },
            {
              "internalType": "bytes",
              "name": "txData",
              "type": "bytes"
            }
          ],
          "internalType": "struct ShifterBorrowProxyLib.InitializationAction[]",
          "name": "result",
          "type": "tuple[]"
        }
      ],
      "stateMutability": "view",
      "type": "function",
      "constant": true
    }
  ],
  "bytecode": "0x608060405234801561001057600080fd5b50610a99806100206000396000f3fe608060405234801561001057600080fd5b50600436106100575760003560e01c806309c5eabe1461005c57806366d003ac146100855780639ded06df1461009a578063f887ea40146100af578063fc0c546a146100b7575b600080fd5b61006f61006a366004610732565b6100bf565b60405161007c91906108ca565b60405180910390f35b61008d6103a8565b60405161007c91906108b6565b6100ad6100a8366004610732565b6103b7565b005b61008d61040b565b61008d61041a565b60606100c96105ff565b6100d283610429565b90506000816020015190506000816001600160a01b031663f887ea406040518163ffffffff1660e01b815260040160206040518083038186803b15801561011857600080fd5b505afa15801561012c573d6000803e3d6000fd5b505050506040513d601f19601f8201168201806040525081019061015091906106ca565b905060008060020160009054906101000a90046001600160a01b03169050606061025b82846001600160a01b031663ad5c46486040518163ffffffff1660e01b815260040160206040518083038186803b1580156101ad57600080fd5b505afa1580156101c1573d6000803e3d6000fd5b505050506040513d601f19601f820116820180604052508101906101e591906106ca565b866001600160a01b031663fc0c546a6040518163ffffffff1660e01b815260040160206040518083038186803b15801561021e57600080fd5b505afa158015610232573d6000803e3d6000fd5b505050506040513d601f19601f8201168201806040525081019061025691906106ca565b610440565b905061039d6103876040518060a00160405280856001600160a01b03166370a08231306040518263ffffffff1660e01b815260040161029a91906108b6565b60206040518083038186803b1580156102b257600080fd5b505afa1580156102c6573d6000803e3d6000fd5b505050506040513d601f19601f820116820180604052508101906102ea919061089e565b815260200160018152602001848152602001876001600160a01b03166366d003ac6040518163ffffffff1660e01b815260040160206040518083038186803b15801561033557600080fd5b505afa158015610349573d6000803e3d6000fd5b505050506040513d601f19601f8201168201806040525081019061036d91906106ca565b6001600160a01b03168152602001426001018152506104f3565b6001600160a01b0385169063ffffffff61056216565b979650505050505050565b600d546001600160a01b031681565b808060200190518101906103cb91906106e6565b600d80546001600160a01b039283166001600160a01b031991821617909155600c805493831693821693909317909255600b805491909316911617905550565b600b546001600160a01b031681565b600c546001600160a01b031681565b6104316105ff565b61043a82610591565b92915050565b60408051600380825260808201909252606091602082018380368337019050509050838160008151811061047057fe5b60200260200101906001600160a01b031690816001600160a01b031681525050828160018151811061049e57fe5b60200260200101906001600160a01b031690816001600160a01b03168152505081816002815181106104cc57fe5b60200260200101906001600160a01b031690816001600160a01b0316815250509392505050565b60606338ed173960e01b8260000151836020015184604001518560600151866080015160405160240161052a959493929190610960565b60408051601f198184030181529190526020810180516001600160e01b03166001600160e01b03199093169290921790915292915050565b606061058a6040518060400160405280856001600160a01b03168152602001848152506105ad565b9392505050565b6105996105ff565b8180602001905181019061043a91906107a9565b604080516001808252818301909252606091816020015b6105cc61061f565b8152602001906001900390816105c457905050905081816000815181106105ef57fe5b6020026020010181905250919050565b6040518060400160405280610612610637565b8152600060209091015290565b60408051808201909152600081526060602082015290565b604080516080810182526000808252606060208301819052928201528181019190915290565b805161043a81610a4b565b8051801515811461043a57600080fd5b600082601f830112610688578081fd5b815161069b610696826109f7565b6109d0565b91508082528360208285010111156106b257600080fd5b6106c3816020840160208601610a1b565b5092915050565b6000602082840312156106db578081fd5b815161058a81610a4b565b6000806000606084860312156106fa578182fd5b835161070581610a4b565b602085015190935061071681610a4b565b604085015190925061072781610a4b565b809150509250925092565b600060208284031215610743578081fd5b813567ffffffffffffffff811115610759578182fd5b80830184601f82011261076a578283fd5b8035915061077a610696836109f7565b82815285602084840101111561078e578384fd5b82602083016020830137918201602001929092529392505050565b6000602082840312156107ba578081fd5b815167ffffffffffffffff808211156107d1578283fd5b818401604081870312156107e3578384fd5b6107ed60406109d0565b92508051828111156107fd578485fd5b8082016080818903121561080f578586fd5b61081960806109d0565b9150610825888261065d565b8252602081015184811115610838578687fd5b61084489828401610678565b6020840152506108578860408301610668565b604083015260608101518481111561086d578687fd5b61087989828401610678565b60608401525050835261088f866020830161065d565b60208401525090949350505050565b6000602082840312156108af578081fd5b5051919050565b6001600160a01b0391909116815260200190565b60208082528251828201819052600091906040908185019080840286018301878501865b8381101561095257888303603f19018552815180516001600160a01b03168452870151878401879052805187850181905290606061093183828801848d01610a1b565b96890196601f92909201601f191694909401019250908601906001016108ee565b509098975050505050505050565b600060a082018783526020878185015260a0604085015281875180845260c0860191508289019350845b818110156109af5784516001600160a01b03168352938301939183019160010161098a565b50506001600160a01b03969096166060850152505050608001529392505050565b60405181810167ffffffffffffffff811182821017156109ef57600080fd5b604052919050565b600067ffffffffffffffff821115610a0d578081fd5b50601f01601f191660200190565b60005b83811015610a36578181015183820152602001610a1e565b83811115610a45576000848401525b50505050565b6001600160a01b0381168114610a6057600080fd5b5056fea264697066735822122025714006f51e585478a53f8383d4f1db109e357893d012d7364fddc3953faf8764736f6c63430006080033",
  "immutableReferences": {},
  "source": "pragma experimental ABIEncoderV2;\n// SPDX-License-Identifier: MIT\npragma solidity ^0.6.0;\n\nimport { PreprocessorLib } from \"./lib/PreprocessorLib.sol\";\nimport { ShifterBorrowProxyLib } from \"../ShifterBorrowProxyLib.sol\";\nimport { SandboxLib } from \"../utils/sandbox/SandboxLib.sol\";\nimport { BorrowProxyLib } from \"../BorrowProxyLib.sol\";\nimport { IERC20 } from \"@openzeppelin/contracts/token/ERC20/IERC20.sol\";\nimport { StringLib } from \"../utils/StringLib.sol\";\nimport { IUniswapV2Router01 } from \"@uniswap/v2-periphery/contracts/interfaces/IUniswapV2Router01.sol\";\nimport { IUniswapV2Pair } from \"@uniswap/v2-core/contracts/interfaces/IUniswapV2Pair.sol\";\nimport { UniswapV2AdapterLib } from \"../adapters/assets/uniswap-v2/UniswapV2AdapterLib.sol\";\nimport { SafeMath } from \"@openzeppelin/contracts/math/SafeMath.sol\";\n\ncontract V2SwapAndDrop {\n  using SafeMath for uint256;\n  using UniswapV2AdapterLib for *;\n  using PreprocessorLib for *;\n  BorrowProxyLib.ProxyIsolate isolate;\n  address public router;\n  address public token;\n  address public recipient;\n  function setup(bytes memory consData) public {\n    (router, token, recipient) = abi.decode(consData, (address, address, address));\n  }\n  function execute(bytes memory data) view public returns (ShifterBorrowProxyLib.InitializationAction[] memory result) {\n    SandboxLib.ExecutionContext memory context = data.toContext();\n    V2SwapAndDrop self = V2SwapAndDrop(context.preprocessorAddress);\n    IUniswapV2Router01 selfRouter = IUniswapV2Router01(self.router());\n    address borrowToken = isolate.token;\n    address[] memory path = UniswapV2AdapterLib.generatePathForToken(borrowToken, selfRouter.WETH(), self.token());\n    return address(selfRouter).sendTransaction(UniswapV2AdapterLib.SwapExactTokensForTokensInputs({\n      amountIn: IERC20(borrowToken).balanceOf(address(this)),\n      amountOutMin: 1,\n      path: path,\n      to: self.recipient(),\n      deadline: block.timestamp + 1\n    }).encodeWithSelector());\n  }\n}\n",
  "sourcePath": "/home/ray/0confirmation/packages/0confirmation-sol/contracts/preprocessors/V2SwapAndDrop.sol",
  "compiler": {
    "name": "solc",
    "version": "0.6.8+commit.0bbfe453.Emscripten.clang"
  },
  "schemaVersion": "3.2.0",
  "updatedAt": "2020-06-15T22:12:09.364Z",
  "networkType": "ethereum",
  "devdoc": {
    "methods": {}
  },
  "userdoc": {
    "methods": {}
  }
}