{
  "contractName": "Vesting",
  "abi": [
    {
      "inputs": [
        {
          "internalType": "contract ShifterRegistry",
          "name": "_registry",
          "type": "address"
        }
      ],
      "payable": false,
      "stateMutability": "nonpayable",
      "type": "constructor"
    },
    {
      "anonymous": false,
      "inputs": [
        {
          "indexed": true,
          "internalType": "address",
          "name": "previousOwner",
          "type": "address"
        },
        {
          "indexed": true,
          "internalType": "address",
          "name": "newOwner",
          "type": "address"
        }
      ],
      "name": "OwnershipTransferred",
      "type": "event"
    },
    {
      "constant": true,
      "inputs": [],
      "name": "isOwner",
      "outputs": [
        {
          "internalType": "bool",
          "name": "",
          "type": "bool"
        }
      ],
      "payable": false,
      "stateMutability": "view",
      "type": "function"
    },
    {
      "constant": true,
      "inputs": [],
      "name": "owner",
      "outputs": [
        {
          "internalType": "address",
          "name": "",
          "type": "address"
        }
      ],
      "payable": false,
      "stateMutability": "view",
      "type": "function"
    },
    {
      "constant": true,
      "inputs": [],
      "name": "registry",
      "outputs": [
        {
          "internalType": "contract ShifterRegistry",
          "name": "",
          "type": "address"
        }
      ],
      "payable": false,
      "stateMutability": "view",
      "type": "function"
    },
    {
      "constant": false,
      "inputs": [],
      "name": "renounceOwnership",
      "outputs": [],
      "payable": false,
      "stateMutability": "nonpayable",
      "type": "function"
    },
    {
      "constant": true,
      "inputs": [
        {
          "internalType": "address",
          "name": "",
          "type": "address"
        }
      ],
      "name": "schedules",
      "outputs": [
        {
          "internalType": "uint256",
          "name": "startTime",
          "type": "uint256"
        },
        {
          "internalType": "uint16",
          "name": "duration",
          "type": "uint16"
        },
        {
          "internalType": "uint256",
          "name": "amount",
          "type": "uint256"
        },
        {
          "internalType": "uint256",
          "name": "monthsClaimed",
          "type": "uint256"
        },
        {
          "internalType": "uint256",
          "name": "amountClaimed",
          "type": "uint256"
        }
      ],
      "payable": false,
      "stateMutability": "view",
      "type": "function"
    },
    {
      "constant": false,
      "inputs": [
        {
          "internalType": "address",
          "name": "newOwner",
          "type": "address"
        }
      ],
      "name": "transferOwnership",
      "outputs": [],
      "payable": false,
      "stateMutability": "nonpayable",
      "type": "function"
    },
    {
      "constant": false,
      "inputs": [
        {
          "internalType": "address",
          "name": "_beneficiary",
          "type": "address"
        },
        {
          "internalType": "uint256",
          "name": "_startTime",
          "type": "uint256"
        },
        {
          "internalType": "uint16",
          "name": "_duration",
          "type": "uint16"
        },
        {
          "internalType": "uint256",
          "name": "_amount",
          "type": "uint256"
        },
        {
          "internalType": "bytes32",
          "name": "_nHash",
          "type": "bytes32"
        },
        {
          "internalType": "bytes",
          "name": "_sig",
          "type": "bytes"
        }
      ],
      "name": "addVestingSchedule",
      "outputs": [],
      "payable": false,
      "stateMutability": "nonpayable",
      "type": "function"
    },
    {
      "constant": false,
      "inputs": [
        {
          "internalType": "bytes",
          "name": "_to",
          "type": "bytes"
        }
      ],
      "name": "claim",
      "outputs": [],
      "payable": false,
      "stateMutability": "nonpayable",
      "type": "function"
    },
    {
      "constant": true,
      "inputs": [
        {
          "internalType": "address",
          "name": "_to",
          "type": "address"
        }
      ],
      "name": "calculateClaimable",
      "outputs": [
        {
          "internalType": "uint256",
          "name": "",
          "type": "uint256"
        },
        {
          "internalType": "uint256",
          "name": "",
          "type": "uint256"
        }
      ],
      "payable": false,
      "stateMutability": "view",
      "type": "function"
    }
  ],
  "bytecode": "0x608060405234801561001057600080fd5b506040516116043803806116048339818101604052602081101561003357600080fd5b8101908080519060200190929190505050600061005461013960201b60201c565b9050806000806101000a81548173ffffffffffffffffffffffffffffffffffffffff021916908373ffffffffffffffffffffffffffffffffffffffff1602179055508073ffffffffffffffffffffffffffffffffffffffff16600073ffffffffffffffffffffffffffffffffffffffff167f8be0079c531659141344cd1fd0a4f28419497f9722a3daafe3b4186f6b6457e060405160405180910390a35080600160006101000a81548173ffffffffffffffffffffffffffffffffffffffff021916908373ffffffffffffffffffffffffffffffffffffffff16021790555050610141565b600033905090565b6114b4806101506000396000f3fe608060405234801561001057600080fd5b50600436106100935760003560e01c80638da5cb5b116100665780638da5cb5b1461022d5780638f32d59b14610277578063c63ff8dd14610299578063f2fde38b14610312578063fe7b00071461035657610093565b8063627189f614610098578063715018a61461015d5780637b1039991461016757806380c3780f146101b1575b600080fd5b61015b600480360360c08110156100ae57600080fd5b81019080803573ffffffffffffffffffffffffffffffffffffffff16906020019092919080359060200190929190803561ffff16906020019092919080359060200190929190803590602001909291908035906020019064010000000081111561011757600080fd5b82018360208201111561012957600080fd5b8035906020019184600183028401116401000000008311171561014b57600080fd5b90919293919293905050506103b5565b005b6101656108bd565b005b61016f6109f6565b604051808273ffffffffffffffffffffffffffffffffffffffff1673ffffffffffffffffffffffffffffffffffffffff16815260200191505060405180910390f35b6101f3600480360360208110156101c757600080fd5b81019080803573ffffffffffffffffffffffffffffffffffffffff169060200190929190505050610a1c565b604051808681526020018561ffff1661ffff1681526020018481526020018381526020018281526020019550505050505060405180910390f35b610235610a60565b604051808273ffffffffffffffffffffffffffffffffffffffff1673ffffffffffffffffffffffffffffffffffffffff16815260200191505060405180910390f35b61027f610a89565b604051808215151515815260200191505060405180910390f35b610310600480360360208110156102af57600080fd5b81019080803590602001906401000000008111156102cc57600080fd5b8201836020820111156102de57600080fd5b8035906020019184600183028401116401000000008311171561030057600080fd5b9091929391929390505050610ae7565b005b6103546004803603602081101561032857600080fd5b81019080803573ffffffffffffffffffffffffffffffffffffffff169060200190929190505050610d9a565b005b6103986004803603602081101561036c57600080fd5b81019080803573ffffffffffffffffffffffffffffffffffffffff169060200190929190505050610e20565b604051808381526020018281526020019250505060405180910390f35b6103bd610a89565b61042f576040517f08c379a00000000000000000000000000000000000000000000000000000000081526004018080602001828103825260208152602001807f4f776e61626c653a2063616c6c6572206973206e6f7420746865206f776e657281525060200191505060405180910390fd5b6000600260008973ffffffffffffffffffffffffffffffffffffffff1673ffffffffffffffffffffffffffffffffffffffff16815260200190815260200160002060000154146104e7576040517f08c379a000000000000000000000000000000000000000000000000000000000815260040180806020018281038252601f8152602001807f76657374696e67207363686564756c6520616c7265616479206578697374730081525060200191505060405180910390fd5b6000841161055d576040517f08c379a000000000000000000000000000000000000000000000000000000000815260040180806020018281038252601d8152602001807f616d6f756e74206d7573742062652067726561746572207468616e203000000081525060200191505060405180910390fd5b60008561ffff16116105ba576040517f08c379a00000000000000000000000000000000000000000000000000000000081526004018080602001828103825260218152602001806114186021913960400191505060405180910390fd5b6000878787604051602001808473ffffffffffffffffffffffffffffffffffffffff1673ffffffffffffffffffffffffffffffffffffffff1681526020018381526020018261ffff1661ffff16815260200193505050506040516020818303038152906040528051906020012090506000600160009054906101000a900473ffffffffffffffffffffffffffffffffffffffff1673ffffffffffffffffffffffffffffffffffffffff166392a29e306040518163ffffffff1660e01b81526004018080602001828103825260048152602001807f7a4254430000000000000000000000000000000000000000000000000000000081525060200191505060206040518083038186803b1580156106cf57600080fd5b505afa1580156106e3573d6000803e3d6000fd5b505050506040513d60208110156106f957600080fd5b810190808051906020019092919050505073ffffffffffffffffffffffffffffffffffffffff1663bb4a1d8c83888888886040518663ffffffff1660e01b815260040180868152602001858152602001848152602001806020018281038252848482818152602001925080828437600081840152601f19601f8201169050808301925050509650505050505050602060405180830381600087803b1580156107a057600080fd5b505af11580156107b4573d6000803e3d6000fd5b505050506040513d60208110156107ca57600080fd5b810190808051906020019092919050505090506107e56113e4565b6040518060a0016040528060008b146107fe578a610800565b425b81526020018961ffff168152602001838152602001600081526020016000815250905080600260008c73ffffffffffffffffffffffffffffffffffffffff1673ffffffffffffffffffffffffffffffffffffffff1681526020019081526020016000206000820151816000015560208201518160010160006101000a81548161ffff021916908361ffff16021790555060408201518160020155606082015181600301556080820151816004015590505050505050505050505050565b6108c5610a89565b610937576040517f08c379a00000000000000000000000000000000000000000000000000000000081526004018080602001828103825260208152602001807f4f776e61626c653a2063616c6c6572206973206e6f7420746865206f776e657281525060200191505060405180910390fd5b600073ffffffffffffffffffffffffffffffffffffffff166000809054906101000a900473ffffffffffffffffffffffffffffffffffffffff1673ffffffffffffffffffffffffffffffffffffffff167f8be0079c531659141344cd1fd0a4f28419497f9722a3daafe3b4186f6b6457e060405160405180910390a360008060006101000a81548173ffffffffffffffffffffffffffffffffffffffff021916908373ffffffffffffffffffffffffffffffffffffffff160217905550565b600160009054906101000a900473ffffffffffffffffffffffffffffffffffffffff1681565b60026020528060005260406000206000915090508060000154908060010160009054906101000a900461ffff16908060020154908060030154908060040154905085565b60008060009054906101000a900473ffffffffffffffffffffffffffffffffffffffff16905090565b60008060009054906101000a900473ffffffffffffffffffffffffffffffffffffffff1673ffffffffffffffffffffffffffffffffffffffff16610acb610f57565b73ffffffffffffffffffffffffffffffffffffffff1614905090565b600080610af333610e20565b809250819350505060008111610b71576040517f08c379a00000000000000000000000000000000000000000000000000000000081526004018080602001828103825260138152602001807f6e6f20616d6f756e7420636c61696d61626c650000000000000000000000000081525060200191505060405180910390fd5b6000600260003373ffffffffffffffffffffffffffffffffffffffff1673ffffffffffffffffffffffffffffffffffffffff1681526020019081526020016000209050610bcb838260030154610f5f90919063ffffffff16565b8160030181905550610bea828260040154610f5f90919063ffffffff16565b8160040181905550600160009054906101000a900473ffffffffffffffffffffffffffffffffffffffff1673ffffffffffffffffffffffffffffffffffffffff166392a29e306040518163ffffffff1660e01b81526004018080602001828103825260048152602001807f7a4254430000000000000000000000000000000000000000000000000000000081525060200191505060206040518083038186803b158015610c9657600080fd5b505afa158015610caa573d6000803e3d6000fd5b505050506040513d6020811015610cc057600080fd5b810190808051906020019092919050505073ffffffffffffffffffffffffffffffffffffffff16638723c3778686856040518463ffffffff1660e01b815260040180806020018381526020018281038252858582818152602001925080828437600081840152601f19601f820116905080830192505050945050505050602060405180830381600087803b158015610d5757600080fd5b505af1158015610d6b573d6000803e3d6000fd5b505050506040513d6020811015610d8157600080fd5b8101908080519060200190929190505050505050505050565b610da2610a89565b610e14576040517f08c379a00000000000000000000000000000000000000000000000000000000081526004018080602001828103825260208152602001807f4f776e61626c653a2063616c6c6572206973206e6f7420746865206f776e657281525060200191505060405180910390fd5b610e1d81610fe7565b50565b6000806000600260008573ffffffffffffffffffffffffffffffffffffffff1673ffffffffffffffffffffffffffffffffffffffff1681526020019081526020016000209050600081600201541480610e7c5750806000015442105b15610e94576000808191508090509250925050610f52565b6000610ead82600001544261112b90919063ffffffff16565b90506000610ec7622819a08361117590919063ffffffff16565b90506000610f018460030154610ef38660010160009054906101000a900461ffff1661ffff16856111bf565b61112b90919063ffffffff16565b90506000610f448560010160009054906101000a900461ffff1661ffff16610f368488600201546111d890919063ffffffff16565b61117590919063ffffffff16565b905081819650965050505050505b915091565b600033905090565b600080828401905083811015610fdd576040517f08c379a000000000000000000000000000000000000000000000000000000000815260040180806020018281038252601b8152602001807f536166654d6174683a206164646974696f6e206f766572666c6f77000000000081525060200191505060405180910390fd5b8091505092915050565b600073ffffffffffffffffffffffffffffffffffffffff168173ffffffffffffffffffffffffffffffffffffffff16141561106d576040517f08c379a00000000000000000000000000000000000000000000000000000000081526004018080602001828103825260268152602001806114396026913960400191505060405180910390fd5b8073ffffffffffffffffffffffffffffffffffffffff166000809054906101000a900473ffffffffffffffffffffffffffffffffffffffff1673ffffffffffffffffffffffffffffffffffffffff167f8be0079c531659141344cd1fd0a4f28419497f9722a3daafe3b4186f6b6457e060405160405180910390a3806000806101000a81548173ffffffffffffffffffffffffffffffffffffffff021916908373ffffffffffffffffffffffffffffffffffffffff16021790555050565b600061116d83836040518060400160405280601e81526020017f536166654d6174683a207375627472616374696f6e206f766572666c6f77000081525061125e565b905092915050565b60006111b783836040518060400160405280601a81526020017f536166654d6174683a206469766973696f6e206279207a65726f00000000000081525061131e565b905092915050565b60008183106111ce57816111d0565b825b905092915050565b6000808314156111eb5760009050611258565b60008284029050828482816111fc57fe5b0414611253576040517f08c379a000000000000000000000000000000000000000000000000000000000815260040180806020018281038252602181526020018061145f6021913960400191505060405180910390fd5b809150505b92915050565b600083831115829061130b576040517f08c379a00000000000000000000000000000000000000000000000000000000081526004018080602001828103825283818151815260200191508051906020019080838360005b838110156112d05780820151818401526020810190506112b5565b50505050905090810190601f1680156112fd5780820380516001836020036101000a031916815260200191505b509250505060405180910390fd5b5060008385039050809150509392505050565b600080831182906113ca576040517f08c379a00000000000000000000000000000000000000000000000000000000081526004018080602001828103825283818151815260200191508051906020019080838360005b8381101561138f578082015181840152602081019050611374565b50505050905090810190601f1680156113bc5780820380516001836020036101000a031916815260200191505b509250505060405180910390fd5b5060008385816113d657fe5b049050809150509392505050565b6040518060a0016040528060008152602001600061ffff168152602001600081526020016000815260200160008152509056fe6475726174696f6e206d757374206265206174206c656173742031206d6f6e74684f776e61626c653a206e6577206f776e657220697320746865207a65726f2061646472657373536166654d6174683a206d756c7469706c69636174696f6e206f766572666c6f77a265627a7a723158209429731d49e4fa203f72f4dfccab97aa4ec5f5d2610ae957417f16be14d6ccc664736f6c634300050c0032",
  "source": "pragma solidity 0.5.12;\n\nimport \"../ShifterRegistry.sol\";\nimport \"openzeppelin-solidity/contracts/math/Math.sol\";\nimport \"openzeppelin-solidity/contracts/math/SafeMath.sol\";\nimport \"openzeppelin-solidity/contracts/ownership/Ownable.sol\";\n\ncontract Vesting is Ownable {\n    using SafeMath for uint256;\n\n    ShifterRegistry public registry;\n\n    uint256 private constant SECONDS_PER_MONTH = 365 days / 12;\n\n    /// @notice Defines the fields required for a vesting schedule.\n    struct VestingSchedule {\n        // The start time (in seconds since Unix epoch) at which the vesting\n        // period should begin.\n        uint256 startTime;\n\n        // The number of months for the vesting period.\n        uint16 duration;\n\n        // The total amount of Bitcoin apart of the vesting schedule.\n        uint256 amount;\n\n        // The number of months claimed by the user.\n        uint256 monthsClaimed;\n\n        // The total amount of Bitcoin claimed by the user.\n        uint256 amountClaimed;\n    }\n\n    /// @notice Mapping of a beneficiary address to a vesting schedule. Each\n    //          beneficiary can have a maximum of 1 vesting schedule.\n    mapping (address => VestingSchedule) public schedules;\n\n    /// @notice The contract constructor.\n    /// @param _registry The Shifter registry contract address.\n    constructor(ShifterRegistry _registry) public {\n        registry = _registry;\n    }\n\n    /// @notice Allows the contract owner to add a vesting schedule for a\n    ///         beneficiary.\n    /// @param _amount The amount of Bitcoin provided to the Darknodes in Sats.\n    /// @param _nHash The hash of the nonce returned by the Darknodes.\n    /// @param _sig The signature returned by the Darknodes.\n    /// @param _beneficiary The address of the recipient entitled to claim the vested tokens.\n    /// @param _startTime The start time (in seconds since Unix epoch) at which the vesting\n    ///                   period should begin.\n    /// @param _duration The number of months for the vesting period.\n    function addVestingSchedule(\n        // Payload\n        address        _beneficiary,\n        uint256        _startTime,\n        uint16         _duration,\n        // Required\n        uint256        _amount,\n        bytes32        _nHash,\n        bytes calldata _sig\n    ) external onlyOwner {\n        require(schedules[_beneficiary].startTime == 0, \"vesting schedule already exists\");\n        require(_amount > 0, \"amount must be greater than 0\");\n        require(_duration > 0, \"duration must be at least 1 month\");\n\n        // Construct the payload hash and mint new tokens using the Shifter\n        // contract. This will verify the signature to ensure the Darknodes have\n        // received the Bitcoin.\n        bytes32 pHash = keccak256(abi.encode(_beneficiary, _startTime, _duration));\n        uint256 finalAmount = registry.getShifterBySymbol(\"zBTC\").shiftIn(pHash, _amount, _nHash, _sig);\n\n        // Construct a vesting schedule and assign it to the beneficiary.\n        VestingSchedule memory schedule = VestingSchedule({\n            startTime: _startTime == 0 ? now : _startTime,\n            duration: _duration,\n            amount: finalAmount,\n            monthsClaimed: 0,\n            amountClaimed: 0\n        });\n\n        schedules[_beneficiary] = schedule;\n    }\n\n    /// @notice Allows a beneficiary to withdraw their vested Bitcoin.\n    /// @param _to The Bitcoin address to which the beneficiary will receive\n    ///            their Bitcoin.\n    function claim(bytes calldata _to) external {\n        // Calculate the claimable amount for the caller of the function.\n        uint256 monthsClaimable;\n        uint256 amountClaimable;\n        (monthsClaimable, amountClaimable) = calculateClaimable(msg.sender);\n\n        require(amountClaimable > 0, \"no amount claimable\");\n\n        // Update the claimed details in the vesting schedule.\n        VestingSchedule storage schedule = schedules[msg.sender];\n        schedule.monthsClaimed = schedule.monthsClaimed.add(monthsClaimable);\n        schedule.amountClaimed = schedule.amountClaimed.add(amountClaimable);\n\n        // Shift out the tokens using the Shifter contract. This will burn the\n        // tokens after taking a fee. The Darknodes will watch for this event to\n        // transfer the user the Bitcoin.\n        registry.getShifterBySymbol(\"zBTC\").shiftOut(_to, amountClaimable);\n    }\n\n    /// @notice Retrieves the claimable amount for a given beneficiary.\n    /// @param _to The Ethereum address of the beneficiary.\n    function calculateClaimable(address _to) public view returns (uint256, uint256) {\n        VestingSchedule storage schedule = schedules[_to];\n\n        // Return if the vesting schedule does not exist or has not yet started.\n        if (schedule.amount == 0 || now < schedule.startTime) {\n            return (0, 0);\n        }\n\n        // Calculate the months elapsed since the start of the vesting period.\n        uint256 elapsedTime = now.sub(schedule.startTime);\n        uint256 elapsedMonths = elapsedTime.div(SECONDS_PER_MONTH);\n\n        // Calculate the months elapsed and amount claimable since the last\n        // claim attempt.\n        uint256 monthsClaimable = Math.min(schedule.duration, elapsedMonths).sub(schedule.monthsClaimed);\n        uint256 amountClaimable = schedule.amount.mul(monthsClaimable).div(schedule.duration);\n\n        return (monthsClaimable, amountClaimable);\n    }\n}",
  "sourcePath": "/home/ray/0confirmation-mono/node_modules/darknode-sol/contracts/Shifter/examples/Vesting.sol",
  "compiler": {
    "name": "solc",
    "version": "0.5.12+commit.7709ece9.Linux.g++"
  },
  "schemaVersion": "3.0.23",
  "updatedAt": "2020-03-08T19:15:48.082Z",
  "devdoc": {
    "methods": {
      "addVestingSchedule(address,uint256,uint16,uint256,bytes32,bytes)": {
        "params": {
          "_amount": "The amount of Bitcoin provided to the Darknodes in Sats.",
          "_beneficiary": "The address of the recipient entitled to claim the vested tokens.",
          "_duration": "The number of months for the vesting period.",
          "_nHash": "The hash of the nonce returned by the Darknodes.",
          "_sig": "The signature returned by the Darknodes.",
          "_startTime": "The start time (in seconds since Unix epoch) at which the vesting                   period should begin."
        }
      },
      "calculateClaimable(address)": {
        "params": {
          "_to": "The Ethereum address of the beneficiary."
        }
      },
      "claim(bytes)": {
        "params": {
          "_to": "The Bitcoin address to which the beneficiary will receive            their Bitcoin."
        }
      },
      "constructor": {
        "params": {
          "_registry": "The Shifter registry contract address."
        }
      },
      "isOwner()": {
        "details": "Returns true if the caller is the current owner."
      },
      "owner()": {
        "details": "Returns the address of the current owner."
      },
      "renounceOwnership()": {
        "details": "Leaves the contract without owner. It will not be possible to call `onlyOwner` functions anymore. Can only be called by the current owner.     * NOTE: Renouncing ownership will leave the contract without an owner, thereby removing any functionality that is only available to the owner."
      },
      "transferOwnership(address)": {
        "details": "Transfers ownership of the contract to a new account (`newOwner`). Can only be called by the current owner."
      }
    }
  },
  "userdoc": {
    "methods": {
      "addVestingSchedule(address,uint256,uint16,uint256,bytes32,bytes)": {
        "notice": "Allows the contract owner to add a vesting schedule for a         beneficiary."
      },
      "calculateClaimable(address)": {
        "notice": "Retrieves the claimable amount for a given beneficiary."
      },
      "claim(bytes)": {
        "notice": "Allows a beneficiary to withdraw their vested Bitcoin."
      },
      "constructor": "The contract constructor."
    }
  }
}