{
  "contractName": "ViewExecutor",
  "abi": [
    {
      "inputs": [
        {
          "internalType": "address",
          "name": "viewLogic",
          "type": "address"
        },
        {
          "internalType": "bytes",
          "name": "payload",
          "type": "bytes"
        }
      ],
      "name": "query",
      "outputs": [
        {
          "internalType": "bytes",
          "name": "",
          "type": "bytes"
        }
      ],
      "stateMutability": "view",
      "type": "function"
    },
    {
      "inputs": [
        {
          "internalType": "address",
          "name": "delegateTo",
          "type": "address"
        },
        {
          "internalType": "bytes",
          "name": "callData",
          "type": "bytes"
        }
      ],
      "name": "_executeQuery",
      "outputs": [
        {
          "internalType": "bytes",
          "name": "",
          "type": "bytes"
        }
      ],
      "stateMutability": "nonpayable",
      "type": "function"
    }
  ],
  "bytecode": "0x608060405234801561001057600080fd5b506104e9806100206000396000f3fe608060405234801561001057600080fd5b50600436106100365760003560e01c806323e3b7301461003b578063fd00430c14610173575b600080fd5b6100fe6004803603604081101561005157600080fd5b73ffffffffffffffffffffffffffffffffffffffff823516919081019060408101602082013564010000000081111561008957600080fd5b82018360208201111561009b57600080fd5b803590602001918460018302840111640100000000831117156100bd57600080fd5b91908080601f016020809104026020016040519081016040528093929190818152602001838380828437600092019190915250929550610236945050505050565b6040805160208082528351818301528351919283929083019185019080838360005b83811015610138578181015183820152602001610120565b50505050905090810190601f1680156101655780820380516001836020036101000a031916815260200191505b509250505060405180910390f35b6100fe6004803603604081101561018957600080fd5b73ffffffffffffffffffffffffffffffffffffffff82351691908101906040810160208201356401000000008111156101c157600080fd5b8201836020820111156101d357600080fd5b803590602001918460018302840111640100000000831117156101f557600080fd5b91908080601f01602080910402602001604051908101604052809392919081815260200183838082843760009201919091525092955061030b945050505050565b606033301461024457600080fd5b600060608473ffffffffffffffffffffffffffffffffffffffff16846040518082805190602001908083835b6020831061028f5780518252601f199092019160209182019101610270565b6001836020036101000a038019825116818451168082178552505050505050905001915050600060405180830381855af49150503d80600081146102ef576040519150601f19603f3d011682016040523d82523d6000602084013e6102f4565b606091505b50915091508161030357600080fd5b949350505050565b6060600060608473ffffffffffffffffffffffffffffffffffffffff168585604051602401808373ffffffffffffffffffffffffffffffffffffffff1673ffffffffffffffffffffffffffffffffffffffff16815260200180602001828103825283818151815260200191508051906020019080838360005b8381101561039c578181015183820152602001610384565b50505050905090810190601f1680156103c95780820380516001836020036101000a031916815260200191505b5060408051601f198184030181529181526020820180517bffffffffffffffffffffffffffffffffffffffffffffffffffffffff167f23e3b7300000000000000000000000000000000000000000000000000000000017815290518251929650945084935091508083835b602083106104535780518252601f199092019160209182019101610434565b6001836020036101000a038019825116818451168082178552505050505050905001915050600060405180830381855afa9150503d80600081146102ef576040519150601f19603f3d011682016040523d82523d6000602084013e6102f456fea2646970667358221220383b98693c94ee5a02235fc3de6de88fe25b3b9b5dfbbccce6b14c52448f123564736f6c63430006030033",
  "source": "pragma solidity ^0.6.0;\n\ncontract ViewExecutor {\n  function query(address viewLogic, bytes memory payload) public view returns (bytes memory) {\n    (bool success, bytes memory response) = viewLogic.staticcall(abi.encodeWithSignature(\"_executeQuery(address,bytes)\", viewLogic, payload));\n    require(success);\n    return response;\n  }\n  function _executeQuery(address delegateTo, bytes memory callData) public returns (bytes memory) {\n    require(msg.sender == address(this));\n    (bool success, bytes memory retval) = delegateTo.delegatecall(callData);\n    require(success);\n    return retval;\n  }\n}\n",
  "sourcePath": "/home/ray/0confirmation/packages/0confirmation-sol/contracts/utils/ViewExecutor.sol",
  "compiler": {
    "name": "solc",
    "version": "0.6.3+commit.8dda9521.Emscripten.clang"
  },
  "schemaVersion": "3.0.23",
  "updatedAt": "2020-04-03T03:35:12.886Z",
  "devdoc": {
    "methods": {}
  },
  "userdoc": {
    "methods": {}
  }
}