{
  "contractName": "ViewExecutor",
  "abi": [
    {
      "inputs": [
        {
          "internalType": "address",
          "name": "viewLogic",
          "type": "address"
        },
        {
          "internalType": "bytes",
          "name": "payload",
          "type": "bytes"
        }
      ],
      "name": "query",
      "outputs": [
        {
          "internalType": "bytes",
          "name": "",
          "type": "bytes"
        }
      ],
      "stateMutability": "view",
      "type": "function"
    },
    {
      "inputs": [
        {
          "internalType": "address",
          "name": "delegateTo",
          "type": "address"
        },
        {
          "internalType": "bytes",
          "name": "callData",
          "type": "bytes"
        }
      ],
      "name": "_executeQuery",
      "outputs": [
        {
          "internalType": "bytes",
          "name": "",
          "type": "bytes"
        }
      ],
      "stateMutability": "nonpayable",
      "type": "function"
    }
  ],
  "bytecode": "0x608060405234801561001057600080fd5b506103fc806100206000396000f3fe608060405234801561001057600080fd5b50600436106100365760003560e01c806323e3b7301461003b578063fd00430c14610064575b600080fd5b61004e6100493660046101ef565b610077565b60405161005b9190610307565b60405180910390f35b61004e6100723660046101ef565b610114565b60603330146100a15760405162461bcd60e51b815260040161009890610321565b60405180910390fd5b60006060846001600160a01b0316846040516100bd91906102c7565b600060405180830381855af49150503d80600081146100f8576040519150601f19603f3d011682016040523d82523d6000602084013e6100fd565b606091505b50915091508161010c57600080fd5b949350505050565b606060006060846001600160a01b031661012e86866101a9565b60405161013b91906102c7565b600060405180830381855afa9150503d8060008114610176576040519150601f19603f3d011682016040523d82523d6000602084013e61017b565b606091505b50915091508181906101a05760405162461bcd60e51b81526004016100989190610307565b50949350505050565b606082826040516024016101be9291906102e3565b60408051601f198184030181529190526020810180516001600160e01b031663023e3b7360e41b1790529392505050565b60008060408385031215610201578182fd5b82356001600160a01b0381168114610217578283fd5b9150602083013567ffffffffffffffff80821115610233578283fd5b81850186601f820112610244578384fd5b8035925081831115610254578384fd5b610267601f8401601f1916602001610363565b915082825286602084830101111561027d578384fd5b61028e83602084016020840161038a565b5080925050509250929050565b600081518084526102b3816020860160208601610396565b601f01601f19169290920160200192915050565b600082516102d9818460208701610396565b9190910192915050565b6001600160a01b038316815260406020820181905260009061010c9083018461029b565b60006020825261031a602083018461029b565b9392505050565b60208082526022908201527f756e617574686f72697a65642076696577206c617965722064656c656761746960408201526137b760f11b606082015260800190565b60405181810167ffffffffffffffff8111828210171561038257600080fd5b604052919050565b82818337506000910152565b60005b838110156103b1578181015183820152602001610399565b838111156103c0576000848401525b5050505056fea2646970667358221220b1426c060ce708fe8ea6ea14b864757a21a7eb58e95e609b07516c91e1d09c2a64736f6c63430006060033",
  "immutableReferences": {},
  "source": "pragma solidity ^0.6.0;\npragma experimental ABIEncoderV2;\n\ncontract ViewExecutor {\n  function encodeExecuteQuery(address viewLogic, bytes memory payload) internal pure returns (bytes memory retval) {\n    retval = abi.encodeWithSignature(\"_executeQuery(address,bytes)\", viewLogic, payload);\n  }\n  function query(address viewLogic, bytes memory payload) public view returns (bytes memory) {\n    (bool success, bytes memory response) = viewLogic.staticcall(encodeExecuteQuery(viewLogic, payload));\n    require(success, string(response));\n    return response;\n  }\n  function _executeQuery(address delegateTo, bytes memory callData) public returns (bytes memory) {\n    require(msg.sender == address(this), \"unauthorized view layer delegation\");\n    (bool success, bytes memory retval) = delegateTo.delegatecall(callData);\n    require(success);\n    return retval;\n  }\n}\n",
  "sourcePath": "/home/ray/0confirmation/packages/0confirmation-sol/contracts/utils/ViewExecutor.sol",
  "compiler": {
    "name": "solc",
    "version": "0.6.6+commit.6c089d02.Emscripten.clang"
  },
  "schemaVersion": "3.1.0",
  "updatedAt": "2020-04-27T06:46:12.737Z",
  "devdoc": {
    "methods": {}
  },
  "userdoc": {
    "methods": {}
  }
}