{
  "address": "0x1d80315fac6aBd3EfeEbE97dEc44461ba7556160",
  "abi": [
    {
      "inputs": [
        {
          "internalType": "address",
          "name": "_weth",
          "type": "address"
        },
        {
          "internalType": "address",
          "name": "_router",
          "type": "address"
        },
        {
          "internalType": "address payable",
          "name": "shifterPool",
          "type": "address"
        },
        {
          "internalType": "address",
          "name": "underlyingAsset",
          "type": "address"
        },
        {
          "internalType": "string",
          "name": "name",
          "type": "string"
        },
        {
          "internalType": "string",
          "name": "symbol",
          "type": "string"
        },
        {
          "internalType": "uint8",
          "name": "decimals",
          "type": "uint8"
        }
      ],
      "stateMutability": "nonpayable",
      "type": "constructor"
    },
    {
      "anonymous": false,
      "inputs": [
        {
          "indexed": true,
          "internalType": "address",
          "name": "owner",
          "type": "address"
        },
        {
          "indexed": true,
          "internalType": "address",
          "name": "spender",
          "type": "address"
        },
        {
          "indexed": false,
          "internalType": "uint256",
          "name": "value",
          "type": "uint256"
        }
      ],
      "name": "Approval",
      "type": "event"
    },
    {
      "anonymous": false,
      "inputs": [
        {
          "indexed": true,
          "internalType": "address",
          "name": "from",
          "type": "address"
        },
        {
          "indexed": true,
          "internalType": "address",
          "name": "to",
          "type": "address"
        },
        {
          "indexed": false,
          "internalType": "uint256",
          "name": "value",
          "type": "uint256"
        }
      ],
      "name": "Transfer",
      "type": "event"
    },
    {
      "inputs": [
        {
          "internalType": "uint256",
          "name": "value",
          "type": "uint256"
        }
      ],
      "name": "addLiquidity",
      "outputs": [
        {
          "internalType": "uint256",
          "name": "",
          "type": "uint256"
        }
      ],
      "stateMutability": "nonpayable",
      "type": "function"
    },
    {
      "inputs": [
        {
          "internalType": "address",
          "name": "owner",
          "type": "address"
        },
        {
          "internalType": "address",
          "name": "spender",
          "type": "address"
        }
      ],
      "name": "allowance",
      "outputs": [
        {
          "internalType": "uint256",
          "name": "",
          "type": "uint256"
        }
      ],
      "stateMutability": "view",
      "type": "function"
    },
    {
      "inputs": [
        {
          "internalType": "address",
          "name": "spender",
          "type": "address"
        },
        {
          "internalType": "uint256",
          "name": "amount",
          "type": "uint256"
        }
      ],
      "name": "approve",
      "outputs": [
        {
          "internalType": "bool",
          "name": "",
          "type": "bool"
        }
      ],
      "stateMutability": "nonpayable",
      "type": "function"
    },
    {
      "inputs": [],
      "name": "asset",
      "outputs": [
        {
          "internalType": "address",
          "name": "",
          "type": "address"
        }
      ],
      "stateMutability": "view",
      "type": "function"
    },
    {
      "inputs": [
        {
          "internalType": "address",
          "name": "account",
          "type": "address"
        }
      ],
      "name": "balanceOf",
      "outputs": [
        {
          "internalType": "uint256",
          "name": "",
          "type": "uint256"
        }
      ],
      "stateMutability": "view",
      "type": "function"
    },
    {
      "inputs": [
        {
          "internalType": "uint256",
          "name": "amount",
          "type": "uint256"
        }
      ],
      "name": "burn",
      "outputs": [],
      "stateMutability": "nonpayable",
      "type": "function"
    },
    {
      "inputs": [
        {
          "internalType": "address",
          "name": "account",
          "type": "address"
        },
        {
          "internalType": "uint256",
          "name": "amount",
          "type": "uint256"
        }
      ],
      "name": "burnFrom",
      "outputs": [],
      "stateMutability": "nonpayable",
      "type": "function"
    },
    {
      "inputs": [],
      "name": "decimals",
      "outputs": [
        {
          "internalType": "uint8",
          "name": "",
          "type": "uint8"
        }
      ],
      "stateMutability": "view",
      "type": "function"
    },
    {
      "inputs": [
        {
          "internalType": "address",
          "name": "spender",
          "type": "address"
        },
        {
          "internalType": "uint256",
          "name": "subtractedValue",
          "type": "uint256"
        }
      ],
      "name": "decreaseAllowance",
      "outputs": [
        {
          "internalType": "bool",
          "name": "",
          "type": "bool"
        }
      ],
      "stateMutability": "nonpayable",
      "type": "function"
    },
    {
      "inputs": [
        {
          "internalType": "address",
          "name": "spender",
          "type": "address"
        },
        {
          "internalType": "uint256",
          "name": "addedValue",
          "type": "uint256"
        }
      ],
      "name": "increaseAllowance",
      "outputs": [
        {
          "internalType": "bool",
          "name": "",
          "type": "bool"
        }
      ],
      "stateMutability": "nonpayable",
      "type": "function"
    },
    {
      "inputs": [
        {
          "internalType": "address",
          "name": "proxy",
          "type": "address"
        },
        {
          "internalType": "uint256",
          "name": "amount",
          "type": "uint256"
        },
        {
          "internalType": "uint256",
          "name": "getGas",
          "type": "uint256"
        }
      ],
      "name": "loan",
      "outputs": [
        {
          "internalType": "bool",
          "name": "",
          "type": "bool"
        }
      ],
      "stateMutability": "nonpayable",
      "type": "function"
    },
    {
      "inputs": [],
      "name": "name",
      "outputs": [
        {
          "internalType": "string",
          "name": "",
          "type": "string"
        }
      ],
      "stateMutability": "view",
      "type": "function"
    },
    {
      "inputs": [],
      "name": "offset",
      "outputs": [
        {
          "internalType": "uint256",
          "name": "",
          "type": "uint256"
        }
      ],
      "stateMutability": "view",
      "type": "function"
    },
    {
      "inputs": [
        {
          "internalType": "address",
          "name": "",
          "type": "address"
        }
      ],
      "name": "outstandingLoans",
      "outputs": [
        {
          "internalType": "uint256",
          "name": "",
          "type": "uint256"
        }
      ],
      "stateMutability": "view",
      "type": "function"
    },
    {
      "inputs": [],
      "name": "pool",
      "outputs": [
        {
          "internalType": "address payable",
          "name": "",
          "type": "address"
        }
      ],
      "stateMutability": "view",
      "type": "function"
    },
    {
      "inputs": [
        {
          "internalType": "uint256",
          "name": "value",
          "type": "uint256"
        }
      ],
      "name": "removeLiquidity",
      "outputs": [
        {
          "internalType": "uint256",
          "name": "",
          "type": "uint256"
        }
      ],
      "stateMutability": "nonpayable",
      "type": "function"
    },
    {
      "inputs": [
        {
          "internalType": "address",
          "name": "proxy",
          "type": "address"
        }
      ],
      "name": "resolveLoan",
      "outputs": [
        {
          "internalType": "bool",
          "name": "",
          "type": "bool"
        }
      ],
      "stateMutability": "nonpayable",
      "type": "function"
    },
    {
      "inputs": [],
      "name": "router",
      "outputs": [
        {
          "internalType": "address",
          "name": "",
          "type": "address"
        }
      ],
      "stateMutability": "view",
      "type": "function"
    },
    {
      "inputs": [],
      "name": "symbol",
      "outputs": [
        {
          "internalType": "string",
          "name": "",
          "type": "string"
        }
      ],
      "stateMutability": "view",
      "type": "function"
    },
    {
      "inputs": [],
      "name": "totalSupply",
      "outputs": [
        {
          "internalType": "uint256",
          "name": "",
          "type": "uint256"
        }
      ],
      "stateMutability": "view",
      "type": "function"
    },
    {
      "inputs": [
        {
          "internalType": "address",
          "name": "recipient",
          "type": "address"
        },
        {
          "internalType": "uint256",
          "name": "amount",
          "type": "uint256"
        }
      ],
      "name": "transfer",
      "outputs": [
        {
          "internalType": "bool",
          "name": "",
          "type": "bool"
        }
      ],
      "stateMutability": "nonpayable",
      "type": "function"
    },
    {
      "inputs": [
        {
          "internalType": "address",
          "name": "sender",
          "type": "address"
        },
        {
          "internalType": "address",
          "name": "recipient",
          "type": "address"
        },
        {
          "internalType": "uint256",
          "name": "amount",
          "type": "uint256"
        }
      ],
      "name": "transferFrom",
      "outputs": [
        {
          "internalType": "bool",
          "name": "",
          "type": "bool"
        }
      ],
      "stateMutability": "nonpayable",
      "type": "function"
    },
    {
      "inputs": [],
      "name": "weth",
      "outputs": [
        {
          "internalType": "address",
          "name": "",
          "type": "address"
        }
      ],
      "stateMutability": "view",
      "type": "function"
    }
  ],
  "transactionHash": "0x61b1bba5ea3021ac15ddf02cfb1e8aca172f11a5975f8d2de9f239aa5ef8e485",
  "args": [
    "0x3619DbE27d7c1e7E91aA738697Ae7Bc5FC3eACA5",
    "0xc4905364b78a742ccce7B890A89514061E47068D",
    "0x8858eeB3DfffA017D4BCE9801D340D36Cf895CCf",
    "0xC1D9a80d18629bcFFBc1A99979DbcAF98979245E",
    "zeroBTC",
    "zeroBTC",
    8
  ],
  "solcInputHash": "0x4ad71a06889361ed9ee42fc3cc3f9d59e654b4607e98c6d6bba47a63180890ff",
  "bytecode": "0x60806040523480156200001157600080fd5b5060405162001f5b38038062001f5b8339810160408190526200003491620004fc565b8251839083906200004d906003906020850190620003d6565b50805162000063906004906020840190620003d6565b505060058054600880546001600160a01b03199081166001600160a01b038d811691909117928390556007805483168d83161790819055601260ff1990951694909417610100600160a81b0319166101008c8316021790945560068054909116898516179055620000e593508216911662000160602090811b620009c417901c565b801562000117575060075460065462000117916001600160a01b03918216911662000160602090811b620009c417901c565b6200013f5760405162461bcd60e51b815260040162000136906200063e565b60405180910390fd5b62000153816001600160e01b03620001f216565b50505050505050620006cc565b600080620001798430856001600160e01b036200020816565b90506001600160fe1b0381111562000196576001915050620001ec565b8015801590620001ba5750620001b8843060006001600160e01b03620002c616565b155b15620001cb576000915050620001ec565b620001e884846001600160ff1b036001600160e01b03620002c616565b9150505b92915050565b6005805460ff191660ff92909216919091179055565b60008060606001600160a01b0386166200022c86866001600160e01b036200034716565b6040516200023b9190620005ed565b6000604051808303816000865af19150503d80600081146200027a576040519150601f19603f3d011682016040523d82523d6000602084013e6200027f565b606091505b50915091508115806200029457508051602014155b15620002a657600192505050620002bf565b620002ba816001600160e01b036200039f16565b925050505b9392505050565b6000806001600160a01b038516620002e885856001600160e01b03620003b716565b604051620002f79190620005ed565b6000604051808303816000865af19150503d806000811462000336576040519150601f19603f3d011682016040523d82523d6000602084013e6200033b565b606091505b50909695505050505050565b606063dd62ed3e60e01b8383604051602401620003669291906200060b565b60408051601f198184030181529190526020810180516001600160e01b03166001600160e01b0319909316929092179091529392505050565b600081806020019051810190620001ec9190620005d4565b606063095ea7b360e01b83836040516024016200036692919062000625565b828054600181600116156101000203166002900490600052602060002090601f016020900481019282601f106200041957805160ff191683800117855562000449565b8280016001018555821562000449579182015b82811115620004495782518255916020019190600101906200042c565b50620004579291506200045b565b5090565b6200047891905b8082111562000457576000815560010162000462565b90565b600082601f8301126200048c578081fd5b81516001600160401b0380821115620004a3578283fd5b604051601f8301601f191681016020018281118282101715620004c4578485fd5b604052828152925082848301602001861015620004e057600080fd5b620004f383602083016020880162000680565b50505092915050565b600080600080600080600060e0888a03121562000517578283fd5b87516200052481620006b3565b60208901519097506200053781620006b3565b60408901519096506200054a81620006b3565b60608901519095506200055d81620006b3565b60808901519094506001600160401b03808211156200057a578485fd5b620005888b838c016200047b565b945060a08a01519150808211156200059e578384fd5b50620005ad8a828b016200047b565b92505060c088015160ff81168114620005c4578182fd5b8091505092959891949750929550565b600060208284031215620005e6578081fd5b5051919050565b600082516200060181846020870162000680565b9190910192915050565b6001600160a01b0392831681529116602082015260400190565b6001600160a01b03929092168252602082015260400190565b60208082526022908201527f6661696c656420746f20617070726f766520726f7574657220666f7220617373604082015261195d60f21b606082015260800190565b60005b838110156200069d57818101518382015260200162000683565b83811115620006ad576000848401525b50505050565b6001600160a01b0381168114620006c957600080fd5b50565b61187f80620006dc6000396000f3fe608060405234801561001057600080fd5b506004361061014d5760003560e01c806351c6590a116100c3578063a457c2d71161007c578063a457c2d714610294578063a9059cbb146102a7578063c3275c79146102ba578063d5556544146102cd578063dd62ed3e146102d5578063f887ea40146102e85761014d565b806351c6590a1461022d57806370a082311461024057806379cc6790146102535780638ee13af21461026657806395d89b41146102795780639c8f9f23146102815761014d565b806323b872dd1161011557806323b872dd146101cd578063313ce567146101e057806338d52e0f146101f557806339509351146101fd5780633fc8cef31461021057806342966c68146102185761014d565b806306fdde0314610152578063095ea7b31461017057806316f0115b1461019057806318160ddd146101a55780631f9efb20146101ba575b600080fd5b61015a6102f0565b60405161016791906113c2565b60405180910390f35b61018361017e36600461120b565b610386565b60405161016791906113b7565b6101986103a4565b604051610167919061134c565b6101ad6103b8565b604051610167919061167d565b6101836101c8366004611235565b6103be565b6101836101db3660046111cb565b610594565b6101e8610621565b60405161016791906116f6565b61019861062a565b61018361020b36600461120b565b610639565b61019861068d565b61022b610226366004611300565b61069c565b005b6101ad61023b366004611300565b6106b0565b6101ad61024e36600461117c565b610738565b61022b61026136600461120b565b610753565b6101ad61027436600461117c565b6107ae565b61015a6107c0565b6101ad61028f366004611300565b610821565b6101836102a236600461120b565b6108a6565b6101836102b536600461120b565b610914565b6101836102c836600461117c565b610928565b6101ad610984565b6101ad6102e3366004611197565b61098a565b6101986109b5565b60038054604080516020601f600260001961010060018816150201909516949094049384018190048102820181019092528281526060939092909183018282801561037c5780601f106103515761010080835404028352916020019161037c565b820191906000526020600020905b81548152906001019060200180831161035f57829003601f168201915b5050505050905090565b600061039a610393610a26565b8484610a2a565b5060015b92915050565b60055461010090046001600160a01b031681565b60025490565b60055460009061010090046001600160a01b031633146103f95760405162461bcd60e51b81526004016103f090611517565b60405180910390fd5b60098054840190556001600160a01b0384166000908152600a602052604090819020849055805160028082526060828101909352816020016020820280368337505060065482519293506001600160a01b03169183915060009061045957fe5b6001600160a01b03928316602091820292909201015260085482519116908290600190811061048457fe5b6001600160a01b039283166020918202929092010152600754600554604051632512eca560e11b815260609392831692634a25d94a926104db9289928b928992610100909104909116904260010190600401611686565b600060405180830381600087803b1580156104f557600080fd5b505af1158015610509573d6000803e3d6000fd5b505050506040513d6000823e601f3d908101601f191682016040526105319190810190611268565b905061056a868260008151811061054457fe5b60209081029190910101516006546001600160a01b03169190880363ffffffff610ade16565b6105865760405162461bcd60e51b81526004016103f090611618565b6001925050505b9392505050565b60006105a1848484610b50565b610617846105ad610a26565b610612856040518060600160405280602881526020016117d9602891396001600160a01b038a166000908152600160205260408120906105eb610a26565b6001600160a01b03168152602081019190915260400160002054919063ffffffff610c7116565b610a2a565b5060019392505050565b60055460ff1690565b6006546001600160a01b031681565b600061039a610646610a26565b846106128560016000610657610a26565b6001600160a01b03908116825260208083019390935260409182016000908120918c16815292529020549063ffffffff610c9d16565b6008546001600160a01b031681565b6106ad6106a7610a26565b82610cc2565b50565b6000806106bb6103b8565b905060006106c7610db0565b905060006001820183156106db57836106de565b60015b8602816106e757fe5b600654919004915061070a906001600160a01b031633308863ffffffff610e3a16565b6107265760405162461bcd60e51b81526004016103f090611438565b6107303382610eae565b949350505050565b6001600160a01b031660009081526020819052604090205490565b600061078b826040518060600160405280602481526020016118016024913961077e866102e3610a26565b919063ffffffff610c7116565b905061079f83610799610a26565b83610a2a565b6107a98383610cc2565b505050565b600a6020526000908152604090205481565b60048054604080516020601f600260001961010060018816150201909516949094049384018190048102820181019092528281526060939092909183018282801561037c5780601f106103515761010080835404028352916020019161037c565b60008061082c6103b8565b90506000610838610db0565b905060008215610848578261084b565b60015b8260010186028161085857fe5b0490506108653386610cc2565b600654610882906001600160a01b0316338363ffffffff610ade16565b61089e5760405162461bcd60e51b81526004016103f0906114e0565b505050919050565b600061039a6108b3610a26565b846106128560405180606001604052806025815260200161182560259139600160006108dd610a26565b6001600160a01b03908116825260208083019390935260409182016000908120918d1681529252902054919063ffffffff610c7116565b600061039a610921610a26565b8484610b50565b60055460009061010090046001600160a01b0316331461095a5760405162461bcd60e51b81526004016103f090611517565b506001600160a01b03166000908152600a6020526040812080546009805491909103905555600190565b60095481565b6001600160a01b03918216600090815260016020908152604080832093909416825291909152205490565b6007546001600160a01b031681565b6000806109d2843085610f6e565b90506001600160fe1b038111156109ed57600191505061039e565b8015801590610a055750610a038430600061100d565b155b15610a1457600091505061039e565b61073084846001600160ff1b0361100d565b3390565b6001600160a01b038316610a505760405162461bcd60e51b81526004016103f0906115d4565b6001600160a01b038216610a765760405162461bcd60e51b81526004016103f090611467565b6001600160a01b0380841660008181526001602090815260408083209487168084529490915290819020849055517f8c5be1e5ebec7d5bd14f71427d1e84f3dd0314c0f7b2291e5b200ac8c7c3b92590610ad190859061167d565b60405180910390a3505050565b600080846001600160a01b0316610af58585611024565b604051610b029190611330565b6000604051808303816000865af19150503d8060008114610b3f576040519150601f19603f3d011682016040523d82523d6000602084013e610b44565b606091505b50909695505050505050565b6001600160a01b038316610b765760405162461bcd60e51b81526004016103f09061158f565b6001600160a01b038216610b9c5760405162461bcd60e51b81526004016103f0906113f5565b610ba78383836107a9565b610bea816040518060600160405280602681526020016117b3602691396001600160a01b038616600090815260208190526040902054919063ffffffff610c7116565b6001600160a01b038085166000908152602081905260408082209390935590841681522054610c1f908263ffffffff610c9d16565b6001600160a01b0380841660008181526020819052604090819020939093559151908516907fddf252ad1be2c89b69c2b068fc378daa952ba7f163c4a11628f55a4df523b3ef90610ad190859061167d565b60008184841115610c955760405162461bcd60e51b81526004016103f091906113c2565b505050900390565b60008282018381101561058d5760405162461bcd60e51b81526004016103f0906114a9565b6001600160a01b038216610ce85760405162461bcd60e51b81526004016103f09061154e565b610cf4826000836107a9565b610d3781604051806060016040528060228152602001611791602291396001600160a01b038516600090815260208190526040902054919063ffffffff610c7116565b6001600160a01b038316600090815260208190526040902055600254610d63908263ffffffff61107a16565b6002556040516000906001600160a01b038416907fddf252ad1be2c89b69c2b068fc378daa952ba7f163c4a11628f55a4df523b3ef90610da490859061167d565b60405180910390a35050565b6006546040516370a0823160e01b81526000916001600160a01b0316906370a0823190610de190309060040161134c565b60206040518083038186803b158015610df957600080fd5b505afa158015610e0d573d6000803e3d6000fd5b505050506040513d601f19601f82011682018060405250810190610e319190611318565b60095401905090565b600080856001600160a01b0316610e528686866110bc565b604051610e5f9190611330565b6000604051808303816000865af19150503d8060008114610e9c576040519150601f19603f3d011682016040523d82523d6000602084013e610ea1565b606091505b5090979650505050505050565b6001600160a01b038216610ed45760405162461bcd60e51b81526004016103f090611646565b610ee0600083836107a9565b600254610ef3908263ffffffff610c9d16565b6002556001600160a01b038216600090815260208190526040902054610f1f908263ffffffff610c9d16565b6001600160a01b0383166000818152602081905260408082209390935591519091907fddf252ad1be2c89b69c2b068fc378daa952ba7f163c4a11628f55a4df523b3ef90610da490859061167d565b6000806060856001600160a01b0316610f878686611115565b604051610f949190611330565b6000604051808303816000865af19150503d8060008114610fd1576040519150601f19603f3d011682016040523d82523d6000602084013e610fd6565b606091505b5091509150811580610fea57508051602014155b15610ffa5760019250505061058d565b61100381611132565b9695505050505050565b600080846001600160a01b0316610af58585611148565b606063a9059cbb60e01b838360405160240161104192919061139e565b60408051601f198184030181529190526020810180516001600160e01b03166001600160e01b0319909316929092179091529392505050565b600061058d83836040518060400160405280601e81526020017f536166654d6174683a207375627472616374696f6e206f766572666c6f770000815250610c71565b60606323b872dd60e01b8484846040516024016110db9392919061137a565b60408051601f198184030181529190526020810180516001600160e01b03166001600160e01b031990931692909217909152949350505050565b606063dd62ed3e60e01b8383604051602401611041929190611360565b60008180602001905181019061039e9190611318565b606063095ea7b360e01b838360405160240161104192919061139e565b80356001600160a01b038116811461039e57600080fd5b60006020828403121561118d578081fd5b61058d8383611165565b600080604083850312156111a9578081fd5b6111b38484611165565b91506111c28460208501611165565b90509250929050565b6000806000606084860312156111df578081fd5b83356111ea8161177b565b925060208401356111fa8161177b565b929592945050506040919091013590565b6000806040838503121561121d578182fd5b6112278484611165565b946020939093013593505050565b600080600060608486031215611249578283fd5b6112538585611165565b95602085013595506040909401359392505050565b6000602080838503121561127a578182fd5b825167ffffffffffffffff811115611290578283fd5b80840185601f8201126112a1578384fd5b805191506112b66112b18361172b565b611704565b82815283810190828501858502840186018910156112d2578687fd5b8693505b848410156112f45780518352600193909301929185019185016112d6565b50979650505050505050565b600060208284031215611311578081fd5b5035919050565b600060208284031215611329578081fd5b5051919050565b6000825161134281846020870161174b565b9190910192915050565b6001600160a01b0391909116815260200190565b6001600160a01b0392831681529116602082015260400190565b6001600160a01b039384168152919092166020820152604081019190915260600190565b6001600160a01b03929092168252602082015260400190565b901515815260200190565b60006020825282518060208401526113e181604085016020870161174b565b601f01601f19169190910160400192915050565b60208082526023908201527f45524332303a207472616e7366657220746f20746865207a65726f206164647260408201526265737360e81b606082015260800190565b6020808252601590820152741d1c985b9cd9995c881d1bdad95b8819985a5b1959605a1b604082015260600190565b60208082526022908201527f45524332303a20617070726f766520746f20746865207a65726f206164647265604082015261737360f01b606082015260800190565b6020808252601b908201527f536166654d6174683a206164646974696f6e206f766572666c6f770000000000604082015260600190565b60208082526019908201527f6661696c656420746f2073656e64206261636b20746f6b656e00000000000000604082015260600190565b6020808252601e908201527f6d7573742062652063616c6c656420627920706f6f6c206d616e616765720000604082015260600190565b60208082526021908201527f45524332303a206275726e2066726f6d20746865207a65726f206164647265736040820152607360f81b606082015260800190565b60208082526025908201527f45524332303a207472616e736665722066726f6d20746865207a65726f206164604082015264647265737360d81b606082015260800190565b60208082526024908201527f45524332303a20617070726f76652066726f6d20746865207a65726f206164646040820152637265737360e01b606082015260800190565b6020808252601490820152731b1bd85b881d1c985b9cd9995c8819985a5b195960621b604082015260600190565b6020808252601f908201527f45524332303a206d696e7420746f20746865207a65726f206164647265737300604082015260600190565b90815260200190565b600060a082018783526020878185015260a0604085015281875180845260c0860191508289019350845b818110156116d55784516001600160a01b0316835293830193918301916001016116b0565b50506001600160a01b03969096166060850152505050608001529392505050565b60ff91909116815260200190565b60405181810167ffffffffffffffff8111828210171561172357600080fd5b604052919050565b600067ffffffffffffffff821115611741578081fd5b5060209081020190565b60005b8381101561176657818101518382015260200161174e565b83811115611775576000848401525b50505050565b6001600160a01b03811681146106ad57600080fdfe45524332303a206275726e20616d6f756e7420657863656564732062616c616e636545524332303a207472616e7366657220616d6f756e7420657863656564732062616c616e636545524332303a207472616e7366657220616d6f756e74206578636565647320616c6c6f77616e636545524332303a206275726e20616d6f756e74206578636565647320616c6c6f77616e636545524332303a2064656372656173656420616c6c6f77616e63652062656c6f77207a65726fa26469706673582212206e74bbaee5dfa6744339be9c390534c4ac8a0270235c01821d458558c675940e64736f6c634300060a0033",
  "libraries": {},
  "devdoc": {
    "methods": {
      "allowance(address,address)": {
        "details": "See {IERC20-allowance}."
      },
      "approve(address,uint256)": {
        "details": "See {IERC20-approve}. Requirements: - `spender` cannot be the zero address."
      },
      "balanceOf(address)": {
        "details": "See {IERC20-balanceOf}."
      },
      "burn(uint256)": {
        "details": "Destroys `amount` tokens from the caller. See {ERC20-_burn}."
      },
      "burnFrom(address,uint256)": {
        "details": "Destroys `amount` tokens from `account`, deducting from the caller's allowance. See {ERC20-_burn} and {ERC20-allowance}. Requirements: - the caller must have allowance for ``accounts``'s tokens of at least `amount`."
      },
      "decimals()": {
        "details": "Returns the number of decimals used to get its user representation. For example, if `decimals` equals `2`, a balance of `505` tokens should be displayed to a user as `5,05` (`505 / 10 ** 2`). Tokens usually opt for a value of 18, imitating the relationship between Ether and Wei. This is the value {ERC20} uses, unless {_setupDecimals} is called. NOTE: This information is only used for _display_ purposes: it in no way affects any of the arithmetic of the contract, including {IERC20-balanceOf} and {IERC20-transfer}."
      },
      "decreaseAllowance(address,uint256)": {
        "details": "Atomically decreases the allowance granted to `spender` by the caller. This is an alternative to {approve} that can be used as a mitigation for problems described in {IERC20-approve}. Emits an {Approval} event indicating the updated allowance. Requirements: - `spender` cannot be the zero address. - `spender` must have allowance for the caller of at least `subtractedValue`."
      },
      "increaseAllowance(address,uint256)": {
        "details": "Atomically increases the allowance granted to `spender` by the caller. This is an alternative to {approve} that can be used as a mitigation for problems described in {IERC20-approve}. Emits an {Approval} event indicating the updated allowance. Requirements: - `spender` cannot be the zero address."
      },
      "name()": {
        "details": "Returns the name of the token."
      },
      "symbol()": {
        "details": "Returns the symbol of the token, usually a shorter version of the name."
      },
      "totalSupply()": {
        "details": "See {IERC20-totalSupply}."
      },
      "transfer(address,uint256)": {
        "details": "See {IERC20-transfer}. Requirements: - `recipient` cannot be the zero address. - the caller must have a balance of at least `amount`."
      },
      "transferFrom(address,address,uint256)": {
        "details": "See {IERC20-transferFrom}. Emits an {Approval} event indicating the updated allowance. This is not required by the EIP. See the note at the beginning of {ERC20}; Requirements: - `sender` and `recipient` cannot be the zero address. - `sender` must have a balance of at least `amount`. - the caller must have allowance for ``sender``'s tokens of at least `amount`."
      }
    }
  },
  "userdoc": {
    "methods": {}
  },
  "storageLayout": {
    "storage": [
      {
        "astId": 519,
        "contract": "contracts/LiquidityToken.sol:LiquidityToken",
        "label": "_balances",
        "offset": 0,
        "slot": "0",
        "type": "t_mapping(t_address,t_uint256)"
      },
      {
        "astId": 525,
        "contract": "contracts/LiquidityToken.sol:LiquidityToken",
        "label": "_allowances",
        "offset": 0,
        "slot": "1",
        "type": "t_mapping(t_address,t_mapping(t_address,t_uint256))"
      },
      {
        "astId": 527,
        "contract": "contracts/LiquidityToken.sol:LiquidityToken",
        "label": "_totalSupply",
        "offset": 0,
        "slot": "2",
        "type": "t_uint256"
      },
      {
        "astId": 529,
        "contract": "contracts/LiquidityToken.sol:LiquidityToken",
        "label": "_name",
        "offset": 0,
        "slot": "3",
        "type": "t_string_storage"
      },
      {
        "astId": 531,
        "contract": "contracts/LiquidityToken.sol:LiquidityToken",
        "label": "_symbol",
        "offset": 0,
        "slot": "4",
        "type": "t_string_storage"
      },
      {
        "astId": 533,
        "contract": "contracts/LiquidityToken.sol:LiquidityToken",
        "label": "_decimals",
        "offset": 0,
        "slot": "5",
        "type": "t_uint8"
      },
      {
        "astId": 3295,
        "contract": "contracts/LiquidityToken.sol:LiquidityToken",
        "label": "pool",
        "offset": 1,
        "slot": "5",
        "type": "t_address_payable"
      },
      {
        "astId": 3297,
        "contract": "contracts/LiquidityToken.sol:LiquidityToken",
        "label": "asset",
        "offset": 0,
        "slot": "6",
        "type": "t_address"
      },
      {
        "astId": 3299,
        "contract": "contracts/LiquidityToken.sol:LiquidityToken",
        "label": "router",
        "offset": 0,
        "slot": "7",
        "type": "t_address"
      },
      {
        "astId": 3301,
        "contract": "contracts/LiquidityToken.sol:LiquidityToken",
        "label": "weth",
        "offset": 0,
        "slot": "8",
        "type": "t_address"
      },
      {
        "astId": 3303,
        "contract": "contracts/LiquidityToken.sol:LiquidityToken",
        "label": "offset",
        "offset": 0,
        "slot": "9",
        "type": "t_uint256"
      },
      {
        "astId": 3307,
        "contract": "contracts/LiquidityToken.sol:LiquidityToken",
        "label": "outstandingLoans",
        "offset": 0,
        "slot": "10",
        "type": "t_mapping(t_address,t_uint256)"
      }
    ],
    "types": {
      "t_address": {
        "encoding": "inplace",
        "label": "address",
        "numberOfBytes": "20"
      },
      "t_address_payable": {
        "encoding": "inplace",
        "label": "address payable",
        "numberOfBytes": "20"
      },
      "t_mapping(t_address,t_mapping(t_address,t_uint256))": {
        "encoding": "mapping",
        "key": "t_address",
        "label": "mapping(address => mapping(address => uint256))",
        "numberOfBytes": "32",
        "value": "t_mapping(t_address,t_uint256)"
      },
      "t_mapping(t_address,t_uint256)": {
        "encoding": "mapping",
        "key": "t_address",
        "label": "mapping(address => uint256)",
        "numberOfBytes": "32",
        "value": "t_uint256"
      },
      "t_string_storage": {
        "encoding": "bytes",
        "label": "string",
        "numberOfBytes": "32"
      },
      "t_uint256": {
        "encoding": "inplace",
        "label": "uint256",
        "numberOfBytes": "32"
      },
      "t_uint8": {
        "encoding": "inplace",
        "label": "uint8",
        "numberOfBytes": "1"
      }
    }
  },
  "gasEstimates": {
    "creation": {
      "codeDepositCost": "1254200",
      "executionCost": "infinite",
      "totalCost": "infinite"
    },
    "external": {
      "addLiquidity(uint256)": "infinite",
      "allowance(address,address)": "infinite",
      "approve(address,uint256)": "infinite",
      "asset()": "1137",
      "balanceOf(address)": "1323",
      "burn(uint256)": "infinite",
      "burnFrom(address,uint256)": "infinite",
      "decimals()": "1091",
      "decreaseAllowance(address,uint256)": "infinite",
      "increaseAllowance(address,uint256)": "infinite",
      "loan(address,uint256,uint256)": "infinite",
      "name()": "infinite",
      "offset()": "1116",
      "outstandingLoans(address)": "1346",
      "pool()": "1149",
      "removeLiquidity(uint256)": "infinite",
      "resolveLoan(address)": "28033",
      "router()": "1202",
      "symbol()": "infinite",
      "totalSupply()": "1118",
      "transfer(address,uint256)": "infinite",
      "transferFrom(address,address,uint256)": "infinite",
      "weth()": "1181"
    },
    "internal": {
      "getReserve()": "infinite"
    }
  }
}