{
  "address": "0x8858eeB3DfffA017D4BCE9801D340D36Cf895CCf",
  "abi": [
    {
      "inputs": [],
      "stateMutability": "nonpayable",
      "type": "constructor"
    },
    {
      "anonymous": false,
      "inputs": [
        {
          "indexed": true,
          "internalType": "address",
          "name": "previousOwner",
          "type": "address"
        },
        {
          "indexed": true,
          "internalType": "address",
          "name": "newOwner",
          "type": "address"
        }
      ],
      "name": "OwnershipTransferred",
      "type": "event"
    },
    {
      "inputs": [
        {
          "internalType": "bytes",
          "name": "creationCode",
          "type": "bytes"
        },
        {
          "internalType": "bytes",
          "name": "context",
          "type": "bytes"
        }
      ],
      "name": "_executeSafeView",
      "outputs": [],
      "stateMutability": "nonpayable",
      "type": "function"
    },
    {
      "inputs": [
        {
          "internalType": "bytes",
          "name": "consData",
          "type": "bytes"
        }
      ],
      "name": "cloneConstructor",
      "outputs": [],
      "stateMutability": "nonpayable",
      "type": "function"
    },
    {
      "inputs": [
        {
          "internalType": "bytes32",
          "name": "salt",
          "type": "bytes32"
        }
      ],
      "name": "computeProxyAddress",
      "outputs": [
        {
          "internalType": "address",
          "name": "",
          "type": "address"
        }
      ],
      "stateMutability": "view",
      "type": "function"
    },
    {
      "inputs": [
        {
          "internalType": "bytes32",
          "name": "salt",
          "type": "bytes32"
        }
      ],
      "name": "deployAssetForwarderClone",
      "outputs": [
        {
          "internalType": "address",
          "name": "created",
          "type": "address"
        }
      ],
      "stateMutability": "nonpayable",
      "type": "function"
    },
    {
      "inputs": [],
      "name": "deployAssetForwarderImplementation",
      "outputs": [],
      "stateMutability": "nonpayable",
      "type": "function"
    },
    {
      "inputs": [],
      "name": "deployBorrowProxyImplementation",
      "outputs": [],
      "stateMutability": "nonpayable",
      "type": "function"
    },
    {
      "inputs": [
        {
          "components": [
            {
              "components": [
                {
                  "internalType": "address payable",
                  "name": "borrower",
                  "type": "address"
                },
                {
                  "internalType": "address",
                  "name": "token",
                  "type": "address"
                },
                {
                  "internalType": "bytes32",
                  "name": "nonce",
                  "type": "bytes32"
                },
                {
                  "internalType": "uint256",
                  "name": "amount",
                  "type": "uint256"
                },
                {
                  "internalType": "bool",
                  "name": "forbidLoan",
                  "type": "bool"
                },
                {
                  "components": [
                    {
                      "internalType": "address",
                      "name": "to",
                      "type": "address"
                    },
                    {
                      "internalType": "bytes",
                      "name": "txData",
                      "type": "bytes"
                    }
                  ],
                  "internalType": "struct ShifterBorrowProxyLib.InitializationAction[]",
                  "name": "actions",
                  "type": "tuple[]"
                }
              ],
              "internalType": "struct ShifterBorrowProxyLib.LiquidityRequest",
              "name": "request",
              "type": "tuple"
            },
            {
              "internalType": "uint256",
              "name": "gasRequested",
              "type": "uint256"
            },
            {
              "internalType": "bytes",
              "name": "signature",
              "type": "bytes"
            }
          ],
          "internalType": "struct ShifterBorrowProxyLib.LiquidityRequestParcel",
          "name": "liquidityRequestParcel",
          "type": "tuple"
        },
        {
          "internalType": "uint256",
          "name": "bond",
          "type": "uint256"
        },
        {
          "internalType": "uint256",
          "name": "timeoutExpiry",
          "type": "uint256"
        }
      ],
      "name": "executeBorrow",
      "outputs": [],
      "stateMutability": "payable",
      "type": "function"
    },
    {
      "inputs": [
        {
          "components": [
            {
              "components": [
                {
                  "components": [
                    {
                      "internalType": "address payable",
                      "name": "borrower",
                      "type": "address"
                    },
                    {
                      "internalType": "address",
                      "name": "token",
                      "type": "address"
                    },
                    {
                      "internalType": "bytes32",
                      "name": "nonce",
                      "type": "bytes32"
                    },
                    {
                      "internalType": "uint256",
                      "name": "amount",
                      "type": "uint256"
                    },
                    {
                      "internalType": "bool",
                      "name": "forbidLoan",
                      "type": "bool"
                    },
                    {
                      "components": [
                        {
                          "internalType": "address",
                          "name": "to",
                          "type": "address"
                        },
                        {
                          "internalType": "bytes",
                          "name": "txData",
                          "type": "bytes"
                        }
                      ],
                      "internalType": "struct ShifterBorrowProxyLib.InitializationAction[]",
                      "name": "actions",
                      "type": "tuple[]"
                    }
                  ],
                  "internalType": "struct ShifterBorrowProxyLib.LiquidityRequest",
                  "name": "request",
                  "type": "tuple"
                },
                {
                  "internalType": "uint256",
                  "name": "gasRequested",
                  "type": "uint256"
                },
                {
                  "internalType": "bytes",
                  "name": "signature",
                  "type": "bytes"
                }
              ],
              "internalType": "struct ShifterBorrowProxyLib.LiquidityRequestParcel",
              "name": "liquidityRequestParcel",
              "type": "tuple"
            },
            {
              "components": [
                {
                  "internalType": "bytes32",
                  "name": "txhash",
                  "type": "bytes32"
                },
                {
                  "internalType": "uint256",
                  "name": "vout",
                  "type": "uint256"
                },
                {
                  "internalType": "bytes32",
                  "name": "pHash",
                  "type": "bytes32"
                },
                {
                  "internalType": "uint256",
                  "name": "amount",
                  "type": "uint256"
                },
                {
                  "internalType": "bytes",
                  "name": "darknodeSignature",
                  "type": "bytes"
                }
              ],
              "internalType": "struct ShifterBorrowProxyLib.ShiftParameters",
              "name": "shiftParameters",
              "type": "tuple"
            },
            {
              "components": [
                {
                  "internalType": "address",
                  "name": "to",
                  "type": "address"
                },
                {
                  "internalType": "bytes",
                  "name": "txData",
                  "type": "bytes"
                }
              ],
              "internalType": "struct ShifterBorrowProxyLib.InitializationAction[]",
              "name": "actions",
              "type": "tuple[]"
            }
          ],
          "internalType": "struct ShifterBorrowProxyLib.SansBorrowShiftParcel",
          "name": "parcel",
          "type": "tuple"
        }
      ],
      "name": "executeShiftSansBorrow",
      "outputs": [],
      "stateMutability": "payable",
      "type": "function"
    },
    {
      "inputs": [
        {
          "internalType": "address",
          "name": "to",
          "type": "address"
        },
        {
          "internalType": "bytes4",
          "name": "sig",
          "type": "bytes4"
        }
      ],
      "name": "fetchModuleHandler",
      "outputs": [
        {
          "components": [
            {
              "internalType": "bool",
              "name": "isPrecompiled",
              "type": "bool"
            },
            {
              "internalType": "address",
              "name": "assetSubmodule",
              "type": "address"
            },
            {
              "internalType": "address",
              "name": "liquidationSubmodule",
              "type": "address"
            },
            {
              "internalType": "address",
              "name": "repaymentSubmodule",
              "type": "address"
            }
          ],
          "internalType": "struct BorrowProxyLib.Module",
          "name": "",
          "type": "tuple"
        }
      ],
      "stateMutability": "view",
      "type": "function"
    },
    {
      "inputs": [],
      "name": "getAssetForwarderImplementationHandler",
      "outputs": [
        {
          "internalType": "address",
          "name": "implementation",
          "type": "address"
        }
      ],
      "stateMutability": "view",
      "type": "function"
    },
    {
      "inputs": [
        {
          "internalType": "address",
          "name": "proxyAddress",
          "type": "address"
        }
      ],
      "name": "getGasReserved",
      "outputs": [
        {
          "internalType": "uint256",
          "name": "",
          "type": "uint256"
        }
      ],
      "stateMutability": "view",
      "type": "function"
    },
    {
      "inputs": [
        {
          "internalType": "address",
          "name": "token",
          "type": "address"
        }
      ],
      "name": "getLiquidityTokenForTokenHandler",
      "outputs": [
        {
          "internalType": "address",
          "name": "",
          "type": "address"
        }
      ],
      "stateMutability": "view",
      "type": "function"
    },
    {
      "inputs": [
        {
          "internalType": "address",
          "name": "token",
          "type": "address"
        }
      ],
      "name": "getLiquidityTokenHandler",
      "outputs": [
        {
          "internalType": "contract LiquidityToken",
          "name": "",
          "type": "address"
        }
      ],
      "stateMutability": "view",
      "type": "function"
    },
    {
      "inputs": [
        {
          "internalType": "address",
          "name": "user",
          "type": "address"
        }
      ],
      "name": "getProxyOwnerHandler",
      "outputs": [
        {
          "internalType": "address",
          "name": "",
          "type": "address"
        }
      ],
      "stateMutability": "view",
      "type": "function"
    },
    {
      "inputs": [
        {
          "internalType": "address",
          "name": "proxyAddress",
          "type": "address"
        }
      ],
      "name": "getProxyTokenHandler",
      "outputs": [
        {
          "internalType": "address",
          "name": "",
          "type": "address"
        }
      ],
      "stateMutability": "view",
      "type": "function"
    },
    {
      "inputs": [
        {
          "internalType": "address",
          "name": "token",
          "type": "address"
        }
      ],
      "name": "getShifterHandler",
      "outputs": [
        {
          "internalType": "contract IShifter",
          "name": "",
          "type": "address"
        }
      ],
      "stateMutability": "view",
      "type": "function"
    },
    {
      "inputs": [],
      "name": "owner",
      "outputs": [
        {
          "internalType": "address",
          "name": "",
          "type": "address"
        }
      ],
      "stateMutability": "view",
      "type": "function"
    },
    {
      "inputs": [
        {
          "internalType": "address payable",
          "name": "borrower",
          "type": "address"
        },
        {
          "internalType": "uint256",
          "name": "amountBorrower",
          "type": "uint256"
        },
        {
          "internalType": "uint256",
          "name": "amountOrigin",
          "type": "uint256"
        }
      ],
      "name": "payoutCallbackGas",
      "outputs": [],
      "stateMutability": "nonpayable",
      "type": "function"
    },
    {
      "inputs": [
        {
          "internalType": "bytes",
          "name": "creationCode",
          "type": "bytes"
        },
        {
          "internalType": "bytes",
          "name": "context",
          "type": "bytes"
        }
      ],
      "name": "query",
      "outputs": [
        {
          "components": [
            {
              "internalType": "bool",
              "name": "success",
              "type": "bool"
            },
            {
              "internalType": "bytes",
              "name": "data",
              "type": "bytes"
            }
          ],
          "internalType": "struct SafeViewLib.SafeViewResult",
          "name": "",
          "type": "tuple"
        }
      ],
      "stateMutability": "nonpayable",
      "type": "function"
    },
    {
      "inputs": [
        {
          "internalType": "address",
          "name": "token",
          "type": "address"
        },
        {
          "internalType": "address",
          "name": "liquidityToken",
          "type": "address"
        },
        {
          "internalType": "address",
          "name": "keeper",
          "type": "address"
        },
        {
          "internalType": "uint256",
          "name": "bond",
          "type": "uint256"
        },
        {
          "internalType": "uint256",
          "name": "repay",
          "type": "uint256"
        },
        {
          "internalType": "uint256",
          "name": "originalAmount",
          "type": "uint256"
        }
      ],
      "name": "relayResolveLoan",
      "outputs": [
        {
          "internalType": "bool",
          "name": "",
          "type": "bool"
        }
      ],
      "stateMutability": "nonpayable",
      "type": "function"
    },
    {
      "inputs": [],
      "name": "renounceOwnership",
      "outputs": [],
      "stateMutability": "nonpayable",
      "type": "function"
    },
    {
      "inputs": [
        {
          "internalType": "address",
          "name": "user",
          "type": "address"
        },
        {
          "internalType": "bool",
          "name": "isKeeper",
          "type": "bool"
        }
      ],
      "name": "setKeeper",
      "outputs": [],
      "stateMutability": "nonpayable",
      "type": "function"
    },
    {
      "inputs": [
        {
          "components": [
            {
              "internalType": "address",
              "name": "shifterRegistry",
              "type": "address"
            },
            {
              "internalType": "uint256",
              "name": "minTimeout",
              "type": "uint256"
            },
            {
              "internalType": "uint256",
              "name": "poolFee",
              "type": "uint256"
            },
            {
              "internalType": "uint256",
              "name": "daoFee",
              "type": "uint256"
            },
            {
              "internalType": "uint256",
              "name": "maxLoan",
              "type": "uint256"
            },
            {
              "internalType": "uint256",
              "name": "gasEstimate",
              "type": "uint256"
            },
            {
              "internalType": "uint256",
              "name": "maxGasPriceForRefund",
              "type": "uint256"
            }
          ],
          "internalType": "struct ShifterPoolLib.SetupParams",
          "name": "params",
          "type": "tuple"
        },
        {
          "components": [
            {
              "internalType": "enum BorrowProxyLib.ModuleRegistrationType",
              "name": "moduleType",
              "type": "uint8"
            },
            {
              "internalType": "address",
              "name": "target",
              "type": "address"
            },
            {
              "internalType": "bytes4[]",
              "name": "sigs",
              "type": "bytes4[]"
            }
          ],
          "internalType": "struct BorrowProxyLib.ModuleDetails[]",
          "name": "moduleDetails",
          "type": "tuple[]"
        },
        {
          "components": [
            {
              "internalType": "bool",
              "name": "isPrecompiled",
              "type": "bool"
            },
            {
              "internalType": "address",
              "name": "assetSubmodule",
              "type": "address"
            },
            {
              "internalType": "address",
              "name": "liquidationSubmodule",
              "type": "address"
            },
            {
              "internalType": "address",
              "name": "repaymentSubmodule",
              "type": "address"
            }
          ],
          "internalType": "struct BorrowProxyLib.Module[]",
          "name": "modules",
          "type": "tuple[]"
        },
        {
          "components": [
            {
              "internalType": "address",
              "name": "token",
              "type": "address"
            },
            {
              "internalType": "address",
              "name": "liqToken",
              "type": "address"
            },
            {
              "internalType": "uint256",
              "name": "baseFee",
              "type": "uint256"
            }
          ],
          "internalType": "struct ShifterPoolLib.LiquidityTokenLaunch[]",
          "name": "tokenLaunches",
          "type": "tuple[]"
        }
      ],
      "name": "setup",
      "outputs": [],
      "stateMutability": "nonpayable",
      "type": "function"
    },
    {
      "inputs": [
        {
          "internalType": "address",
          "name": "newOwner",
          "type": "address"
        }
      ],
      "name": "transferOwnership",
      "outputs": [],
      "stateMutability": "nonpayable",
      "type": "function"
    },
    {
      "inputs": [
        {
          "internalType": "bytes",
          "name": "proxyRecord",
          "type": "bytes"
        }
      ],
      "name": "validateProxyRecordHandler",
      "outputs": [
        {
          "internalType": "bool",
          "name": "",
          "type": "bool"
        }
      ],
      "stateMutability": "view",
      "type": "function"
    },
    {
      "stateMutability": "payable",
      "type": "receive"
    }
  ],
  "transactionHash": "0x6a5bbf509b30a9034622c132cf085c713a45a401a433a6a88f9171fb98ea0284",
  "args": [],
  "solcInputHash": "0x4ad71a06889361ed9ee42fc3cc3f9d59e654b4607e98c6d6bba47a63180890ff",
  "bytecode": "0x60806040523480156200001157600080fd5b506000620000276001600160e01b036200007b16565b600080546001600160a01b0319166001600160a01b0383169081178255604051929350917f8be0079c531659141344cd1fd0a4f28419497f9722a3daafe3b4186f6b6457e0908290a350436001556200007f565b3390565b61486e806200008f6000396000f3fe60806040526004361061016a5760003560e01c806365ba837a116100d1578063d0a80e311161008a578063dd38f6a811610064578063dd38f6a814610404578063e6c1f07414610431578063f2fde38b14610451578063f7a94ce21461047157610171565b8063d0a80e31146103b1578063d1b9e853146103d1578063dc74245e146103f157610171565b806365ba837a1461032a578063715018a61461033f578063798aada0146103545780638da5cb5b1461037457806393e93abe14610389578063abee1fc91461039e57610171565b80633d21f7f2116101235780633d21f7f214610268578063441123601461028857806352e831dd146102b557806354fd9cd6146102d55780635f7d2b57146102f557806363091aa31461031557610171565b806308f60495146101765780630a2c033b146101ac5780631fbc78dc146101ce5780632593b053146101fb57806329658b021461021b57806334686eaf1461023b57610171565b3661017157005b600080fd5b34801561018257600080fd5b506101966101913660046132a1565b610491565b6040516101a39190613a1b565b60405180910390f35b3480156101b857600080fd5b506101cc6101c736600461353b565b6104ab565b005b3480156101da57600080fd5b506101ee6101e936600461312c565b6106a0565b6040516101a391906138b8565b34801561020757600080fd5b506101ee610216366004613289565b6106b3565b34801561022757600080fd5b506101ee61023636600461312c565b610700565b34801561024757600080fd5b5061025b6102563660046132d3565b610713565b6040516101a391906143a7565b34801561027457600080fd5b506101cc610283366004613164565b610732565b34801561029457600080fd5b506102a86102a3366004613234565b610786565b6040516101a3919061428d565b3480156102c157600080fd5b506101cc6102d03660046132a1565b6107a0565b3480156102e157600080fd5b506101ee6102f0366004613289565b6107a3565b34801561030157600080fd5b506101cc6103103660046132d3565b6107c2565b34801561032157600080fd5b506101cc61080d565b34801561033657600080fd5b506101ee610889565b34801561034b57600080fd5b506101cc610898565b34801561036057600080fd5b506101ee61036f36600461312c565b610917565b34801561038057600080fd5b506101ee61092a565b34801561039557600080fd5b506101cc610939565b6101cc6103ac366004613432565b6109d7565b3480156103bd57600080fd5b506101ee6103cc36600461312c565b610a0a565b3480156103dd57600080fd5b506101cc6103ec3660046131fc565b610a28565b6101cc6103ff366004613333565b610a88565b34801561041057600080fd5b5061042461041f36600461312c565b610bd4565b6040516101a391906138af565b34801561043d57600080fd5b506101ee61044c36600461312c565b610bef565b34801561045d57600080fd5b506101cc61046c36600461312c565b610c02565b34801561047d57600080fd5b5061019661048c366004613198565b610cb8565b60006104a56010338463ffffffff610e8516565b92915050565b6104b3610eab565b6000546001600160a01b039081169116146104e95760405162461bcd60e51b81526004016104e090613fa3565b60405180910390fd5b825182511461050a5760405162461bcd60e51b81526004016104e090614079565b8351600480546001600160a01b0319166001600160a01b03909216919091179055608084015160085560208401516005556040840151600655606084015160075560a084015160095560c0840151600a5560005b825181101561061a5761056f612ac4565b604051806080016040528086848151811061058657fe5b602002602001015160000151600281111561059d57fe5b81526020018684815181106105ae57fe5b6020026020010151602001516001600160a01b031681526020018684815181106105d457fe5b60200260200101516040015181526020018584815181106105f157fe5b60209081029190910101519052905061061160148263ffffffff610eaf16565b5060010161055e565b5060005b81518110156106995761062f612af2565b82828151811061063b57fe5b6020908102919091018101518082015181516001600160a01b039081166000908152600e8552604080822080546001600160a01b031916948416949094179093558284015193519091168152600f909352909120555060010161061e565b5050505050565b60006104a560018363ffffffff610f6916565b6003546000906104a5906001600160a01b03166106ce610fec565b33856040516020016106e293929190613811565b6040516020818303038152906040528051906020012060001c611010565b60006104a560108363ffffffff61106016565b61071b612b12565b61072b838363ffffffff61108316565b9392505050565b801561075557604051329082156108fc029083906000818181858888f150505050505b8115610781576040516001600160a01b0384169083156108fc029084906000818181858888f150505050505b505050565b61078e612b2a565b61072b6014848463ffffffff6110fc16565b50565b6002546000906104a5906001600160a01b03168363ffffffff6111ea16565b60006107d760006107d16111f6565b8561121a565b905060606107fc6107f76001600160a01b0384168563ffffffff61128c16565b611316565b90506108078161133f565b50505050565b6002546001600160a01b0316156108365760405162461bcd60e51b81526004016104e090613abc565b61086760017ffe1e3164ba4910db3c9afd049cd8feb4552390569c846692e6df4ac68aeaa90e63ffffffff61134716565b600280546001600160a01b0319166001600160a01b0392909216919091179055565b6003546001600160a01b031690565b6108a0610eab565b6000546001600160a01b039081169116146108cd5760405162461bcd60e51b81526004016104e090613fa3565b600080546040516001600160a01b03909116907f8be0079c531659141344cd1fd0a4f28419497f9722a3daafe3b4186f6b6457e0908390a3600080546001600160a01b0319169055565b60006104a560018363ffffffff6113af16565b6000546001600160a01b031690565b6003546001600160a01b0316156109625760405162461bcd60e51b81526004016104e090613abc565b61096a6113eb565b600380546001600160a01b0319166001600160a01b03928316179081905560408051637c1e845d60e11b81529051919092169163f83d08ba91600480830192600092919082900301818387803b1580156109c357600080fd5b505af1158015610807573d6000803e3d6000fd5b600060606109e483611443565b915091508051600014610781576107816001600160a01b0383168263ffffffff61175a16565b6001600160a01b039081166000908152600e60205260409020541690565b610a30610eab565b6000546001600160a01b03908116911614610a5d5760405162461bcd60e51b81526004016104e090613fa3565b6001600160a01b03919091166000908152600c60205260409020805460ff1916911515919091179055565b610a90612b51565b60405180606001604052805a8152602001610ab06001600901543a6117bc565b8152600060209182018190526009548383015102604080850191909152338252600c909252205490915060ff16610af95760405162461bcd60e51b81526004016104e090613da3565b835160a00151610b08856117d2565b506000610b17838787876118b4565b86518051602090910151919250610b41916001600160a01b0384169190600063ffffffff611ac016565b610b5a6001600160a01b0382168363ffffffff61175a16565b610b78836040015184602001515a86600001510361219801026117bc565b808452604051329180156108fc02916000818181858888f19350505050158015610ba6573d6000803e3d6000fd5b5082516040938401516001600160a01b039092166000908152600b6020529390932092900390915550505050565b6001600160a01b03166000908152600b602052604090205490565b60006104a560108363ffffffff611b5e16565b610c0a610eab565b6000546001600160a01b03908116911614610c375760405162461bcd60e51b81526004016104e090613fa3565b6001600160a01b038116610c5d5760405162461bcd60e51b81526004016104e090613bc2565b600080546040516001600160a01b03808516939216917f8be0079c531659141344cd1fd0a4f28419497f9722a3daafe3b4186f6b6457e091a3600080546001600160a01b0319166001600160a01b0392909216919091179055565b33600090815260106020526040812054610ce45760405162461bcd60e51b81526004016104e090613dda565b81831015610d0e57818484011015610d03576000939290920191610d0e565b828203840393508192505b8315610d4a57610d2e6001600160a01b038816868663ffffffff611b8116565b610d4a5760405162461bcd60e51b81526004016104e090613ee7565b8215610dde57600080610d6285600160060154611bf3565b9092509050610d816001600160a01b038a16898463ffffffff611b8116565b610d9d5760405162461bcd60e51b81526004016104e090613cb9565b610dbf610da861092a565b6001600160a01b038b16908363ffffffff611b8116565b610ddb5760405162461bcd60e51b81526004016104e090614150565b50505b60405163c3275c7960e01b81526001600160a01b0387169063c3275c7990610e0a9033906004016138b8565b602060405180830381600087803b158015610e2457600080fd5b505af1158015610e38573d6000803e3d6000fd5b505050506040513d601f19601f82011682018060405250810190610e5c919061326d565b610e785760405162461bcd60e51b81526004016104e090614119565b5060019695505050505050565b80516020918201206001600160a01b039290921660009081529290526040909120541490565b3390565b600181516002811115610ebe57fe5b1415610f0d5760005b816040015151811015610f0757610eff83836020015184604001518481518110610eed57fe5b60200260200101518560600151611c3c565b600101610ec7565b50610f65565b600281516002811115610f1c57fe5b1415610f655760005b81604001515181101561078157610f5d83836020015184604001518481518110610f4b57fe5b60200260200101518560600151611cc6565b600101610f25565b5050565b6003820154604051631b95e30560e01b81526000916001600160a01b031690631b95e30590610f9c9085906004016138b8565b60206040518083038186803b158015610fb457600080fd5b505afa158015610fc8573d6000803e3d6000fd5b505050506040513d601f19601f8201168201806040525081019061072b9190613148565b7f6b6f6b75258f8f4cdb6ef275682bc2be3e8b970e5e4417113bd1ea53622d907e90565b6000606061101d84611cd4565b80519091508390602083018282826000f5945050506001600160a01b0383166110585760405162461bcd60e51b81526004016104e090614051565b505092915050565b6001600160a01b0380821660009081526002840160205260409020541692915050565b61108b612b12565b6060306110988585611ce0565b6040516110a59190613862565b6000604051808303816000865af19150503d80600081146110e2576040519150601f19603f3d011682016040523d82523d6000602084013e6110e7565b606091505b509150506110f481611d36565b949350505050565b611104612b2a565b61110c612b2a565b8460006111198686611d52565b815260208082019290925260409081016000208151608081018352815460ff8116151582526001600160a01b036101009091048116948201949094526001820154841692810192909252600201549091166060820152905061117a81611d7a565b6110f45784600061118b8686611d8c565b815260208082019290925260409081016000208151608081018352815460ff81161515825261010090046001600160a01b0390811694820194909452600182015484169281019290925260020154909116606082015295945050505050565b600061072b8383611da7565b7fad53495153c7c363e98a26920ec679e0e687636458f6908c91cf6deadb19080190565b6000808447101561123d5760405162461bcd60e51b81526004016104e09061421a565b825161125b5760405162461bcd60e51b81526004016104e090613b28565b8383516020850187f590506001600160a01b0381166110f45760405162461bcd60e51b81526004016104e090613eb0565b611294612b12565b60006060846001600160a01b03166112ab85611dc2565b6040516112b89190613862565b600060405180830381855af49150503d80600081146112f3576040519150601f19603f3d011682016040523d82523d6000602084013e6112f8565b606091505b50604080518082019091529115158252602082015295945050505050565b60608160405160200161132991906143a7565b6040516020818303038152906040529050919050565b805160208201fd5b60405163dd678a0760e01b815260009073__$63bcb1a864e5f3c83b35ceb0ce459b5367$__9063dd678a0790611383908690869060040161427f565b60206040518083038186803b15801561139b57600080fd5b505af4158015610fc8573d6000803e3d6000fd5b6001600160a01b038082166000908152600d840160205260408120549091168061072b5760405162461bcd60e51b81526004016104e0906140e4565b600061143e60007f6b6f6b75258f8f4cdb6ef275682bc2be3e8b970e5e4417113bd1ea53622d907e60001b6040518060200161142690612b72565b601f1982820381018352601f9091011660405261121a565b905090565b6000606061144f612b7f565b6040805160a08101825285515181830190815282518084019093523383528651516060908101519293849391840191602082019061149690600190600a81046103e8611e15565b905281528751516060908101516020928301529183526040805160a081018252898301805151825280518401518285015280518301519282019290925281518401519381019390935251608090810151908301529190910152845190915061150f9061150190611f09565b85519063ffffffff611f2216565b61152b5760405162461bcd60e51b81526004016104e090613f5f565b83515160009061153a90611f53565b600254909150611559906001600160a01b03168263ffffffff6111ea16565b935061156d846001600160a01b0316611f5e565b1561158a5760405162461bcd60e51b81526004016104e090613ae6565b6115bf8460016040516020016115a091906138af565b60408051601f198184030181529190526010919063ffffffff611f6416565b60208501516060015182516000916115dd919063ffffffff611f8716565b90506115e882611fb4565b508551518051602090910151611610916001600160a01b03881691600163ffffffff611ac016565b855151516001600160a01b03163314801590611630575085516020015134145b156116ea57855151516040516001600160a01b03909116903480156108fc02916000818181858888f1935050505015801561166f573d6000803e3d6000fd5b508551516020015161169f90869061168f9060019063ffffffff610f6916565b8861169987611fcd565b85611fd8565b855151602001516116c0906001600160a01b0316338363ffffffff611b8116565b6116dc5760405162461bcd60e51b81526004016104e090613c08565b85515160a001519350611752565b855151516001600160a01b031633141561173a578551516020015161172e90869061171d9060019063ffffffff610f6916565b8861172787611fcd565b6000611fd8565b85604001519350611752565b60405162461bcd60e51b81526004016104e090613fd8565b505050915091565b604051630bfceb2b60e31b81526001600160a01b03831690635fe759589061178690849060040161399f565b600060405180830381600087803b1580156117a057600080fd5b505af11580156117b4573d6000803e3d6000fd5b505050505050565b60008183106117cb578161072b565b5090919050565b6000808260000151602001516001600160a01b031663313ce5676040518163ffffffff1660e01b815260040160206040518083038186803b15801561181657600080fd5b505afa15801561182a573d6000803e3d6000fd5b505050506040513d601f19601f8201168201806040525081019061184e9190613644565b905060128160ff1611156118745760405162461bcd60e51b81526004016104e0906141bd565b60085483516060015160ff8316601203600a0a908161188f57fe5b0411156118ae5760405162461bcd60e51b81526004016104e090614251565b50919050565b825160800151600090156118da5760405162461bcd60e51b81526004016104e090613e11565b348460200151146118fd5760405162461bcd60e51b81526004016104e090613c6d565b61191661190985611f09565b859063ffffffff611f2216565b6119325760405162461bcd60e51b81526004016104e090613f5f565b61193a612b9f565b508351600061194882611f53565b6040805160008082526020820190925291925061197b565b611968612b12565b8152602001906001900390816119605790505b5060a0830152611989612bd6565b60405180606001604052808481526020016040518060400160405280336001600160a01b031681526020016119d087606001518b8b6001611e15909392919063ffffffff16565b90528152602085810180516001600160a01b03166000908152600f8352604090205490519190920191611a3691611a2a90611a139060019063ffffffff610f6916565b602089015160608a0151919063ffffffff61207a16565b9063ffffffff6120cb16565b90529050611a4382611fb4565b9350611a516001858361210d565b611a79836020015185611a63846121ac565b60408c015160019392919063ffffffff6121e316565b6020830151611a99906001600160a01b031633308963ffffffff61228a16565b611ab55760405162461bcd60e51b81526004016104e090614021565b505050949350505050565b6040516329c8702d60e01b81526001600160a01b038516906329c8702d90611af0908690869086906004016138ed565b602060405180830381600087803b158015611b0a57600080fd5b505af1158015611b1e573d6000803e3d6000fd5b505050506040513d601f19601f82011682018060405250810190611b42919061326d565b6108075760405162461bcd60e51b81526004016104e090613cf0565b6001600160a01b0380821660009081526001840160205260409020541692915050565b600080846001600160a01b0316611b9885856122fe565b604051611ba59190613862565b6000604051808303816000865af19150503d8060008114611be2576040519150601f19603f3d011682016040523d82523d6000602084013e611be7565b606091505b50909695505050505050565b600080611c1e670de0b6b3a7640000611c12868663ffffffff61231b16565b9063ffffffff61235516565b905083811015611c32578084039150611c35565b50825b9250929050565b80846000611c4a8686611d52565b81526020808201929092526040908101600020835181549385015160ff1990941690151517610100600160a81b0319166101006001600160a01b0394851602178155908301516001820180546001600160a01b031990811692851692909217905560609093015160029091018054909316911617905550505050565b80846000611c4a8686611d8c565b60606104a53083612397565b6060635f7d2b5760e01b8383604051602401611cfd929190613a57565b60408051601f198184030181529190526020810180516001600160e01b03166001600160e01b0319909316929092179091529392505050565b611d3e612b12565b818060200190518101906104a5919061337e565b600080611d5e846124f6565b9050611d6a81846124fa565b8051906020012091505092915050565b602001516001600160a01b0316151590565b6000611d988383612526565b80519060200120905092915050565b600061072b82611db685611cd4565b8051906020012061253b565b60606309c5eabe60e01b82604051602401611ddd9190613a44565b60408051601f198184030181529190526020810180516001600160e01b03166001600160e01b03199093169290921790915292915050565b611e1d612c03565b8460040154821015611e415760405162461bcd60e51b81526004016104e090613b5d565b6000611e5c670de0b6b3a7640000606463ffffffff61235516565b9050611e77670de0b6b3a7640000606463ffffffff61235516565b611e9386611c1287670de0b6b3a764000063ffffffff61231b16565b11611eb05760405162461bcd60e51b81526004016104e090614191565b6000848610611ed257611ecd86611c12848863ffffffff61231b16565b611ed4565b815b905060405180608001604052808543018152602001868152602001886005015481526020018281525092505050949350505050565b6000611f1482612548565b805190602001209050919050565b6000611f3a611f3083612568565b8460400151612598565b8351516001600160a01b03908116911614905092915050565b6000611f14826126c6565b3b151590565b80516020918201206001600160a01b039092166000908152929052604090912055565b600061072b670de0b6b3a7640000611c12856020015160200151606001518561231b90919063ffffffff16565b6002546000906104a5906001600160a01b031683611010565b6000611f14826126e2565b8251516020908101519084015160408082015160608301516080909301519151637bf1bc5b60e11b81526001600160a01b038a169463f7e378b694612028948b9492938a91908a90600401613911565b602060405180830381600087803b15801561204257600080fd5b505af1158015612056573d6000803e3d6000fd5b505050506040513d601f19601f820116820180604052508101906117b4919061326d565b60008061208684612709565b90506000612094848761277c565b905060006120ae612710611c12848663ffffffff61231b16565b90506120c0828263ffffffff6120cb16565b979650505050505050565b600061072b83836040518060400160405280601e81526020017f536166654d6174683a207375627472616374696f6e206f766572666c6f7700008152506127fd565b606061211882612829565b82516020015190915061213790600f860190859063ffffffff61283c16565b81515161215090600f860190859063ffffffff61287016565b8151516040516001600160a01b03909116903480156108fc02916000818181858888f19350505050158015612189573d6000803e3d6000fd5b5061219e600f8501848363ffffffff611f6416565b8151516108079084836128a4565b60006104a56121d26121bd846128f4565b6121c685612925565b9063ffffffff61295616565b60408401519063ffffffff6120cb16565b6121ed85856113af565b6001600160a01b0316631f9efb208484846040518463ffffffff1660e01b815260040161221c939291906138cc565b602060405180830381600087803b15801561223657600080fd5b505af115801561224a573d6000803e3d6000fd5b505050506040513d601f19601f8201168201806040525081019061226e919061326d565b6106995760405162461bcd60e51b81526004016104e090613d5f565b600080856001600160a01b03166122a286868661297b565b6040516122af9190613862565b6000604051808303816000865af19150503d80600081146122ec576040519150601f19603f3d011682016040523d82523d6000602084013e6122f1565b606091505b5090979650505050505050565b606063a9059cbb60e01b8383604051602401611cfd929190613986565b60008261232a575060006104a5565b8282028284828161233757fe5b041461072b5760405162461bcd60e51b81526004016104e090613f1e565b600061072b83836040518060400160405280601a81526020017f536166654d6174683a206469766973696f6e206279207a65726f0000000000008152506129d4565b60408051600081526020810190915260609081906123b89060448101613a44565b60408051601f198184030181529190526020810180516001600160e01b03166352e831dd60e01b17905280519091506063016001600160401b03811180156123ff57600080fd5b506040519080825280601f01601f19166020018201604052801561242a576020820181803683370190505b507f3d3d606380380380913d393d73bebebebebebebebebebebebebebebebebebebe6020820152600160601b858102602d8301527f5af4602a57600080fd5b602d8060366000396000f3363d3d373d3d3d363d73be6041830152840260608201526e5af43d82803e903d91602b57fd5bf360881b6074820152915060005b8151811015611058578181815181106124bd57fe5b602001015160f81c60f81b8382606301815181106124d757fe5b60200101906001600160f81b031916908160001a9053506001016124a8565b3f90565b6060828260405160200161250f92919061384a565b604051602081830303815290604052905092915050565b6060828260405160200161250f9291906137b6565b600061072b838330612a0b565b60608061255c836000015160a00151612a4a565b905061072b8382612a5d565b60008160405160200161257b919061387e565b604051602081830303815290604052805190602001209050919050565b600081516041146125bb5760405162461bcd60e51b81526004016104e090613b8b565b60208201516040830151606084015160001a7f7fffffffffffffffffffffffffffffff5d576e7357a4501ddfe92f46681b20a082111561260d5760405162461bcd60e51b81526004016104e090613d1d565b8060ff16601b1415801561262557508060ff16601c14155b156126425760405162461bcd60e51b81526004016104e090613e6e565b6000600187838686604051600081526020016040526040516126679493929190613a26565b6020604051602081039080840390855afa158015612689573d6000803e3d6000fd5b5050604051601f1901519150506001600160a01b0381166126bc5760405162461bcd60e51b81526004016104e090613a85565b9695505050505050565b6060806126d68360a00151612a4a565b905061072b8382612a93565b80515160409081015160208084015180519082015193516060946113299493909101613834565b6000816001600160a01b03166313966db56040518163ffffffff1660e01b815260040160206040518083038186803b15801561274457600080fd5b505afa158015612758573d6000803e3d6000fd5b505050506040513d601f19601f820116820180604052508101906104a5919061362c565b6040516350b9d97b60e11b81526000906001600160a01b0384169063a173b2f6906127ab9085906004016138af565b602060405180830381600087803b1580156127c557600080fd5b505af11580156127d9573d6000803e3d6000fd5b505050506040513d601f19601f8201168201806040525081019061072b919061362c565b600081848411156128215760405162461bcd60e51b81526004016104e09190613a44565b505050900390565b60608160405160200161132991906142cb565b6001600160a01b039182166000908152600290930160205260409092208054919092166001600160a01b0319909116179055565b6001600160a01b039182166000908152600190930160205260409092208054919092166001600160a01b0319909116179055565b816001600160a01b0316836001600160a01b03167f9ae84ac2ad8f721c2e62d211eca0ae34951726f8834913af6c5ebb81610bb1f8836040516128e79190613a44565b60405180910390a3505050565b60006104a5670de0b6b3a7640000611c1284602001516020015160600151856040015161231b90919063ffffffff16565b60006104a5670de0b6b3a7640000611c1284602001516020015160400151856040015161231b90919063ffffffff16565b60008282018381101561072b5760405162461bcd60e51b81526004016104e090613c36565b60606323b872dd60e01b84848460405160240161299a93929190613962565b60408051601f198184030181529190526020810180516001600160e01b03166001600160e01b031990931692909217909152949350505050565b600081836129f55760405162461bcd60e51b81526004016104e09190613a44565b506000838581612a0157fe5b0495945050505050565b60008060ff60f81b838686604051602001612a2994939291906137dd565b60408051808303601f19018152919052805160209091012095945050505050565b606081604051602001611329919061399f565b8151602080820151604080840151606085810151858901516080909701519351919661250f9630969592939192918a910161374f565b6060826000015183602001518460400151856060015186608001518660405160200161250f969594939291906136ef565b604080516080810190915280600081526000602082015260606040820181905201612aed612b2a565b905290565b604080516060810182526000808252602082018190529181019190915290565b60408051808201909152600081526060602082015290565b60408051608081018252600080825260208201819052918101829052606081019190915290565b60405180606001604052806000815260200160008152602001600081525090565b6103b38061448683390190565b6040518060400160405280612b92612bd6565b8152602001612aed612c2b565b6040805160c0810182526000808252602082018190529181018290526060808201839052608082019290925260a081019190915290565b6040518060600160405280612be9612b9f565b8152602001612bf6612c60565b8152602001600081525090565b6040518060800160405280600081526020016000815260200160008152602001600081525090565b6040518060a0016040528060008019168152602001600081526020016000801916815260200160008152602001606081525090565b604051806040016040528060006001600160a01b03168152602001612aed612c03565b80356104a581614462565b600082601f830112612c9e578081fd5b8135612cb1612cac826143f4565b6143ce565b818152915060208083019084810160005b84811015612d3a5781358701604080601f19838c03011215612ce357600080fd5b612cec816143ce565b85830135612cf981614462565b8152828201356001600160401b03811115612d1357600080fd5b612d218c8883870101612fe8565b8288015250865250509282019290820190600101612cc2565b505050505092915050565b600082601f830112612d55578081fd5b8135612d63612cac826143f4565b8181529150602080830190848101606080850287018301881015612d8657600080fd5b6000805b86811015612de15782848b031215612da0578182fd5b612da9836143ce565b612db38b86612c83565b8152612dc18b878701612c83565b818701526040858101359082015286529484019492820192600101612d8a565b5050505050505092915050565b600082601f830112612dfe578081fd5b8135612e0c612cac826143f4565b818152915060208083019084810160005b84811015612d3a5781358701606080601f19838c03011215612e3e57600080fd5b612e47816143ce565b8583013560038110612e5857600080fd5b8152604083810135612e6981614462565b82880152838301356001600160401b03811115612e8557600080fd5b84019250603f83018c13612e9857600080fd5b868301359350612eaa612cac856143f4565b84815287810190848301898702860184018f1015612ec757600080fd5b600095505b86861015612ef257612ede8f82612fd0565b835260019590950194918901918901612ecc565b509183019190915250865250509282019290820190600101612e1d565b600082601f830112612f1f578081fd5b8135612f2d612cac826143f4565b8181529150602080830190848101608080850287018301881015612f5057600080fd5b6000805b86811015612de15782848b031215612f6a578182fd5b612f73836143ce565b612f7d8b86612fc5565b8152612f8b8b878701612c83565b868201526040612f9d8c828801612c83565b908201526060612faf8c878301612c83565b9082015286529484019492820192600101612f54565b80356104a581614477565b80356001600160e01b0319811681146104a557600080fd5b600082601f830112612ff8578081fd5b8135613006612cac82614413565b915080825283602082850101111561301d57600080fd5b8060208401602084013760009082016020015292915050565b600060608284031215613047578081fd5b61305160606143ce565b905081356001600160401b038082111561306a57600080fd5b81840160c0818703121561307d57600080fd5b61308760c06143ce565b92506130938682612c83565b83526130a28660208301612c83565b602084015260408101356040840152606081013560608401526130c88660808301612fc5565b608084015260a0810135828111156130df57600080fd5b6130eb87828401612c8e565b60a0850152505081835260208401356020840152604084013591508082111561311357600080fd5b5061312084828501612fe8565b60408301525092915050565b60006020828403121561313d578081fd5b813561072b81614462565b600060208284031215613159578081fd5b815161072b81614462565b600080600060608486031215613178578182fd5b833561318381614462565b95602085013595506040909401359392505050565b60008060008060008060c087890312156131b0578384fd5b86356131bb81614462565b955060208701356131cb81614462565b945060408701356131db81614462565b959894975094956060810135955060808101359460a0909101359350915050565b6000806040838503121561320e578182fd5b823561321981614462565b9150602083013561322981614477565b809150509250929050565b60008060408385031215613246578182fd5b823561325181614462565b915060208301356001600160e01b031981168114613229578182fd5b60006020828403121561327e578081fd5b815161072b81614477565b60006020828403121561329a578081fd5b5035919050565b6000602082840312156132b2578081fd5b81356001600160401b038111156132c7578182fd5b6110f484828501612fe8565b600080604083850312156132e5578182fd5b82356001600160401b03808211156132fb578384fd5b61330786838701612fe8565b9350602085013591508082111561331c578283fd5b5061332985828601612fe8565b9150509250929050565b600080600060608486031215613347578081fd5b83356001600160401b0381111561335c578182fd5b61336886828701613036565b9660208601359650604090950135949350505050565b60006020808385031215613390578182fd5b82516001600160401b03808211156133a6578384fd5b818501604081880312156133b8578485fd5b6133c260406143ce565b925080516133cf81614477565b835280840151828111156133e1578586fd5b019050601f810186136133f2578384fd5b8051613400612cac82614413565b8181528785838501011115613413578586fd5b61342282868301878601614436565b9383019390935250949350505050565b600060208284031215613443578081fd5b81356001600160401b0380821115613459578283fd5b8184016060818703121561346b578384fd5b61347560606143ce565b9250803582811115613485578485fd5b61349187828401613036565b8452506020810135828111156134a5578485fd5b80820160a081890312156134b7578586fd5b6134c160a06143ce565b9150803582526020810135602083015260408101356040830152606081013560608301526080810135848111156134f6578687fd5b61350289828401612fe8565b60808401525050602084015260408101358281111561351f578485fd5b61352b87828401612c8e565b6040850152509195945050505050565b600080600080848603610140811215613552578283fd5b60e081121561355f578283fd5b5061356a60e06143ce565b6135748787612c83565b81526020860135602082015260408601356040820152606086013560608201526080860135608082015260a086013560a082015260c086013560c08201528094505060e08501356001600160401b03808211156135cf578384fd5b6135db88838901612dee565b94506101008701359150808211156135f1578384fd5b6135fd88838901612f0f565b9350610120870135915080821115613613578283fd5b5061362087828801612d45565b91505092959194509250565b60006020828403121561363d578081fd5b5051919050565b600060208284031215613655578081fd5b815160ff8116811461072b578182fd5b600060018060a01b0382511683526020820151604060208501526110f460408501825b600081518084526136a0816020860160208601614436565b601f01601f19169290920160200192915050565b60018060a01b038151168252602081015180516020840152602081015160408401526040810151606084015260608101516080840152505050565b60006bffffffffffffffffffffffff19808960601b168352808860601b1660148401525085602883015284604883015283151560f81b6068830152825161373d816069850160208701614436565b91909101606901979650505050505050565b60006bffffffffffffffffffffffff19808a60601b168352808960601b1660148401525086602883015285604883015284606883015283151560f81b608883015282516137a3816089850160208701614436565b9190910160890198975050505050505050565b60609290921b6001600160601b03191682526001600160e01b031916601482015260180190565b6001600160f81b031994909416845260609290921b6001600160601b03191660018401526015830152603582015260550190565b92835260609190911b6001600160601b0319166020830152603482015260540190565b9283526020830191909152604082015260600190565b9182526001600160e01b031916602082015260240190565b60008251613874818460208701614436565b9190910192915050565b7f19457468657265756d205369676e6564204d6573736167653a0a3332000000008152601c810191909152603c0190565b90815260200190565b6001600160a01b0391909116815260200190565b6001600160a01b039390931683526020830191909152604082015260600190565b6001600160a01b039384168152919092166020820152901515604082015260600190565b600060018060a01b03808a16835280891660208401525086604083015285606083015284608083015260e060a083015261394e60e0830185613688565b90508260c083015298975050505050505050565b6001600160a01b039384168152919092166020820152604081019190915260600190565b6001600160a01b03929092168252602082015260400190565b60208082528251828201819052600091906040908185019080840286018301878501865b83811015613a0d57888303603f19018552815180516001600160a01b03168452878101518885018890526139f988860182613688565b9689019694505050908601906001016139c3565b509098975050505050505050565b901515815260200190565b93845260ff9290921660208401526040830152606082015260800190565b60006020825261072b6020830184613688565b600060408252613a6a6040830185613688565b8281036020840152613a7c8185613688565b95945050505050565b60208082526018908201527f45434453413a20696e76616c6964207369676e61747572650000000000000000604082015260600190565b60208082526010908201526f185b1c9958591e4819195c1b1bde595960821b604082015260600190565b60208082526022908201527f70726f78792068617320616c7265616479206265656e20696e697469616c697a604082015261195960f21b606082015260800190565b6020808252818101527f437265617465323a2062797465636f6465206c656e677468206973207a65726f604082015260600190565b6020808252601490820152731d1a5b595bdd5d081a5b9cdd59999a58da595b9d60621b604082015260600190565b6020808252601f908201527f45434453413a20696e76616c6964207369676e6174757265206c656e67746800604082015260600190565b60208082526026908201527f4f776e61626c653a206e6577206f776e657220697320746865207a65726f206160408201526564647265737360d01b606082015260800190565b6020808252601490820152731ad9595c195c881c185e5bdd5d0819985a5b195960621b604082015260600190565b6020808252601b908201527f536166654d6174683a206164646974696f6e206f766572666c6f770000000000604082015260600190565b6020808252602c908201527f737570706c696564206574686572206973206e6f7420657175616c20746f206760408201526b185cc81c995c5d595cdd195960a21b606082015260800190565b6020808252601a908201527f6661696c656420746f207265706179206c6f73742066756e6473000000000000604082015260600190565b6020808252601390820152727365747570207068617365206661696c75726560681b604082015260600190565b60208082526022908201527f45434453413a20696e76616c6964207369676e6174757265202773272076616c604082015261756560f01b606082015260800190565b60208082526024908201527f696e73756666696369656e742066756e647320696e206c6971756964697479206040820152631c1bdbdb60e21b606082015260800190565b6020808252601c908201527f6f6e6c792063616e2062652063616c6c6564206279206b656570657200000000604082015260600190565b6020808252601d908201527f6e6f742061207265676973746572656420626f72726f772070726f7879000000604082015260600190565b60208082526037908201527f6973206e6f742061206c6f616e20726571756573742c20747279207573696e6760408201527f2065786563757465536869667453616e73426f72726f77000000000000000000606082015260800190565b60208082526022908201527f45434453413a20696e76616c6964207369676e6174757265202776272076616c604082015261756560f01b606082015260800190565b60208082526019908201527f437265617465323a204661696c6564206f6e206465706c6f7900000000000000604082015260600190565b6020808252601f908201527f6661696c656420746f2072657475726e20626f6e6420746f206b656570657200604082015260600190565b60208082526021908201527f536166654d6174683a206d756c7469706c69636174696f6e206f766572666c6f6040820152607760f81b606082015260800190565b60208082526024908201527f6c69717569646974792072657175657374207369676e61747572652072656a6560408201526318dd195960e21b606082015260800190565b6020808252818101527f4f776e61626c653a2063616c6c6572206973206e6f7420746865206f776e6572604082015260600190565b60208082526029908201527f696e636f72726563742067617320737570706c696564207769746820676173206040820152681c995c5d595cdd195960ba1b606082015260800190565b602080825260169082015275189bdb99081cdd589b5a5cdcda5bdb8819985a5b195960521b604082015260600190565b6020808252600e908201526d18dc99585d194c8819985a5b195960921b604082015260600190565b60208082526045908201527f63616e2774207a6970206d6f64756c65207265676973746174696f6e733a206d60408201527f6f64756c65732e6c656e67746820213d206d6f64756c6544657461696c732e6c6060820152640cadccee8d60db1b608082015260a00190565b6020808252818101527f6e6f7420612072656769737465726564206c697175696469747920746f6b656e604082015260600190565b60208082526017908201527f6c6f616e207265736f6c7574696f6e206661696c757265000000000000000000604082015260600190565b60208082526021908201527f6661696c656420746f2072657061792074686520676f7665726e696e672044416040820152604f60f81b606082015260800190565b602080825260129082015271626f6e642062656c6f77206d696e696d756d60701b604082015260600190565b6020808252603e908201527f74686520746f6b656e20737570706c696564206973206e6f742061207368696660408201527f74657220746f6b656e202d2d20646563696d616c7320746f6f20686967680000606082015260800190565b6020808252601d908201527f437265617465323a20696e73756666696369656e742062616c616e6365000000604082015260600190565b6020808252601490820152736c6f616e2065786365656473206d6178696d756d60601b604082015260600190565b918252602082015260400190565b8151151581526020808301516001600160a01b0390811691830191909152604080840151821690830152606092830151169181019190915260800190565b6020808252825160e08383015280516001600160a01b039081166101008501528183015116610120840152604081015161014084015260608101516101608401526080810151151561018084015260a0015160c06101a08401528051600092916101c085019182919061433e81846138af565b9350839250859181860284019086015b8284101561437a578482038652614366828251613665565b95870195600194909401939150860161434e565b5085890151945061438e60408901866136b4565b604089015160e089015280965050505050505092915050565b60006020825282511515602083015260208301516040808401526110f46060840182613688565b6040518181016001600160401b03811182821017156143ec57600080fd5b604052919050565b60006001600160401b03821115614409578081fd5b5060209081020190565b60006001600160401b03821115614428578081fd5b50601f01601f191660200190565b60005b83811015614451578181015183820152602001614439565b838111156108075750506000910152565b6001600160a01b03811681146107a057600080fd5b80151581146107a057600080fdfe608060405234801561001057600080fd5b50610393806100206000396000f3fe6080604052600436106100345760003560e01c80638e03e6cd14610039578063cf3090121461004e578063f83d08ba14610079575b600080fd5b61004c610047366004610255565b61008e565b005b34801561005a57600080fd5b50610063610175565b604051610070919061030b565b60405180910390f35b34801561008557600080fd5b5061004c61017e565b60005460ff161561009e57600080fd5b6001600160a01b038116156101695761014482826001600160a01b03166370a08231306040518263ffffffff1660e01b81526004016100dd91906102de565b60206040518083038186803b1580156100f557600080fd5b505afa158015610109573d6000803e3d6000fd5b505050506040513d601f19601f8201168201806040525081019061012d919061028d565b6001600160a01b038416919063ffffffff61018d16565b6101695760405162461bcd60e51b815260040161016090610316565b60405180910390fd5b816001600160a01b0316ff5b60005460ff1681565b6000805460ff19166001179055565b600080846001600160a01b03166101a485856101ff565b6040516101b191906102a5565b6000604051808303816000865af19150503d80600081146101ee576040519150601f19603f3d011682016040523d82523d6000602084013e6101f3565b606091505b50909695505050505050565b606063a9059cbb60e01b838360405160240161021c9291906102f2565b60408051601f198184030181529190526020810180516001600160e01b03166001600160e01b0319909316929092179091529392505050565b60008060408385031215610267578182fd5b823561027281610345565b9150602083013561028281610345565b809150509250929050565b60006020828403121561029e578081fd5b5051919050565b60008251815b818110156102c557602081860181015185830152016102ab565b818111156102d35782828501525b509190910192915050565b6001600160a01b0391909116815260200190565b6001600160a01b03929092168252602082015260400190565b901515815260200190565b602080825260159082015274657263323020666f7277617264206661696c75726560581b604082015260600190565b6001600160a01b038116811461035a57600080fd5b5056fea26469706673582212200ae2de389fc4c434ac0aa10c8d91d6fd790f0728e0df3289c86c07ffda762b5564736f6c634300060a0033a2646970667358221220523e52e8cdbde005745fd6c131ad58448e3832257d4a53745cb5282f300873c364736f6c634300060a0033",
  "libraries": {
    "ShifterBorrowProxyFactoryLib": "0x7c2C195CD6D34B8F845992d380aADB2730bB9C6F"
  },
  "devdoc": {
    "methods": {
      "owner()": {
        "details": "Returns the address of the current owner."
      },
      "renounceOwnership()": {
        "details": "Leaves the contract without owner. It will not be possible to call `onlyOwner` functions anymore. Can only be called by the current owner. NOTE: Renouncing ownership will leave the contract without an owner, thereby removing any functionality that is only available to the owner."
      },
      "transferOwnership(address)": {
        "details": "Transfers ownership of the contract to a new account (`newOwner`). Can only be called by the current owner."
      }
    }
  },
  "userdoc": {
    "methods": {}
  },
  "storageLayout": {
    "storage": [
      {
        "astId": 30,
        "contract": "contracts/ShifterPool.sol:ShifterPool",
        "label": "_owner",
        "offset": 0,
        "slot": "0",
        "type": "t_address"
      },
      {
        "astId": 5132,
        "contract": "contracts/ShifterPool.sol:ShifterPool",
        "label": "isolate",
        "offset": 0,
        "slot": "1",
        "type": "t_struct(Isolate)6470_storage"
      }
    ],
    "types": {
      "t_address": {
        "encoding": "inplace",
        "label": "address",
        "numberOfBytes": "20"
      },
      "t_bool": {
        "encoding": "inplace",
        "label": "bool",
        "numberOfBytes": "1"
      },
      "t_bytes32": {
        "encoding": "inplace",
        "label": "bytes32",
        "numberOfBytes": "32"
      },
      "t_mapping(t_address,t_address)": {
        "encoding": "mapping",
        "key": "t_address",
        "label": "mapping(address => address)",
        "numberOfBytes": "32",
        "value": "t_address"
      },
      "t_mapping(t_address,t_bool)": {
        "encoding": "mapping",
        "key": "t_address",
        "label": "mapping(address => bool)",
        "numberOfBytes": "32",
        "value": "t_bool"
      },
      "t_mapping(t_address,t_bytes32)": {
        "encoding": "mapping",
        "key": "t_address",
        "label": "mapping(address => bytes32)",
        "numberOfBytes": "32",
        "value": "t_bytes32"
      },
      "t_mapping(t_address,t_uint256)": {
        "encoding": "mapping",
        "key": "t_address",
        "label": "mapping(address => uint256)",
        "numberOfBytes": "32",
        "value": "t_uint256"
      },
      "t_mapping(t_bytes32,t_bool)": {
        "encoding": "mapping",
        "key": "t_bytes32",
        "label": "mapping(bytes32 => bool)",
        "numberOfBytes": "32",
        "value": "t_bool"
      },
      "t_mapping(t_bytes32,t_struct(Module)2355_storage)": {
        "encoding": "mapping",
        "key": "t_bytes32",
        "label": "mapping(bytes32 => struct BorrowProxyLib.Module)",
        "numberOfBytes": "32",
        "value": "t_struct(Module)2355_storage"
      },
      "t_struct(ControllerIsolate)2346_storage": {
        "encoding": "inplace",
        "label": "struct BorrowProxyLib.ControllerIsolate",
        "members": [
          {
            "astId": 2333,
            "contract": "contracts/ShifterPool.sol:ShifterPool",
            "label": "proxyInitializerRecord",
            "offset": 0,
            "slot": "0",
            "type": "t_mapping(t_address,t_bytes32)"
          },
          {
            "astId": 2337,
            "contract": "contracts/ShifterPool.sol:ShifterPool",
            "label": "ownerByProxy",
            "offset": 0,
            "slot": "1",
            "type": "t_mapping(t_address,t_address)"
          },
          {
            "astId": 2341,
            "contract": "contracts/ShifterPool.sol:ShifterPool",
            "label": "tokenByProxy",
            "offset": 0,
            "slot": "2",
            "type": "t_mapping(t_address,t_address)"
          },
          {
            "astId": 2345,
            "contract": "contracts/ShifterPool.sol:ShifterPool",
            "label": "isKeeper",
            "offset": 0,
            "slot": "3",
            "type": "t_mapping(t_address,t_bool)"
          }
        ],
        "numberOfBytes": "128"
      },
      "t_struct(Isolate)6470_storage": {
        "encoding": "inplace",
        "label": "struct ShifterPoolLib.Isolate",
        "members": [
          {
            "astId": 6427,
            "contract": "contracts/ShifterPool.sol:ShifterPool",
            "label": "genesis",
            "offset": 0,
            "slot": "0",
            "type": "t_uint256"
          },
          {
            "astId": 6429,
            "contract": "contracts/ShifterPool.sol:ShifterPool",
            "label": "borrowProxyImplementation",
            "offset": 0,
            "slot": "1",
            "type": "t_address"
          },
          {
            "astId": 6431,
            "contract": "contracts/ShifterPool.sol:ShifterPool",
            "label": "assetForwarderImplementation",
            "offset": 0,
            "slot": "2",
            "type": "t_address"
          },
          {
            "astId": 6433,
            "contract": "contracts/ShifterPool.sol:ShifterPool",
            "label": "shifterRegistry",
            "offset": 0,
            "slot": "3",
            "type": "t_address"
          },
          {
            "astId": 6435,
            "contract": "contracts/ShifterPool.sol:ShifterPool",
            "label": "minTimeout",
            "offset": 0,
            "slot": "4",
            "type": "t_uint256"
          },
          {
            "astId": 6437,
            "contract": "contracts/ShifterPool.sol:ShifterPool",
            "label": "poolFee",
            "offset": 0,
            "slot": "5",
            "type": "t_uint256"
          },
          {
            "astId": 6439,
            "contract": "contracts/ShifterPool.sol:ShifterPool",
            "label": "daoFee",
            "offset": 0,
            "slot": "6",
            "type": "t_uint256"
          },
          {
            "astId": 6441,
            "contract": "contracts/ShifterPool.sol:ShifterPool",
            "label": "maxLoan",
            "offset": 0,
            "slot": "7",
            "type": "t_uint256"
          },
          {
            "astId": 6443,
            "contract": "contracts/ShifterPool.sol:ShifterPool",
            "label": "gasEstimate",
            "offset": 0,
            "slot": "8",
            "type": "t_uint256"
          },
          {
            "astId": 6445,
            "contract": "contracts/ShifterPool.sol:ShifterPool",
            "label": "maxGasPriceForRefund",
            "offset": 0,
            "slot": "9",
            "type": "t_uint256"
          },
          {
            "astId": 6449,
            "contract": "contracts/ShifterPool.sol:ShifterPool",
            "label": "gasReserved",
            "offset": 0,
            "slot": "10",
            "type": "t_mapping(t_address,t_uint256)"
          },
          {
            "astId": 6453,
            "contract": "contracts/ShifterPool.sol:ShifterPool",
            "label": "isKeeper",
            "offset": 0,
            "slot": "11",
            "type": "t_mapping(t_address,t_bool)"
          },
          {
            "astId": 6457,
            "contract": "contracts/ShifterPool.sol:ShifterPool",
            "label": "provisionExecuted",
            "offset": 0,
            "slot": "12",
            "type": "t_mapping(t_bytes32,t_bool)"
          },
          {
            "astId": 6461,
            "contract": "contracts/ShifterPool.sol:ShifterPool",
            "label": "tokenToLiquidityToken",
            "offset": 0,
            "slot": "13",
            "type": "t_mapping(t_address,t_address)"
          },
          {
            "astId": 6465,
            "contract": "contracts/ShifterPool.sol:ShifterPool",
            "label": "tokenToBaseFee",
            "offset": 0,
            "slot": "14",
            "type": "t_mapping(t_address,t_uint256)"
          },
          {
            "astId": 6467,
            "contract": "contracts/ShifterPool.sol:ShifterPool",
            "label": "borrowProxyController",
            "offset": 0,
            "slot": "15",
            "type": "t_struct(ControllerIsolate)2346_storage"
          },
          {
            "astId": 6469,
            "contract": "contracts/ShifterPool.sol:ShifterPool",
            "label": "registry",
            "offset": 0,
            "slot": "19",
            "type": "t_struct(ModuleRegistry)2729_storage"
          }
        ],
        "numberOfBytes": "640"
      },
      "t_struct(Module)2355_storage": {
        "encoding": "inplace",
        "label": "struct BorrowProxyLib.Module",
        "members": [
          {
            "astId": 2348,
            "contract": "contracts/ShifterPool.sol:ShifterPool",
            "label": "isPrecompiled",
            "offset": 0,
            "slot": "0",
            "type": "t_bool"
          },
          {
            "astId": 2350,
            "contract": "contracts/ShifterPool.sol:ShifterPool",
            "label": "assetSubmodule",
            "offset": 1,
            "slot": "0",
            "type": "t_address"
          },
          {
            "astId": 2352,
            "contract": "contracts/ShifterPool.sol:ShifterPool",
            "label": "liquidationSubmodule",
            "offset": 0,
            "slot": "1",
            "type": "t_address"
          },
          {
            "astId": 2354,
            "contract": "contracts/ShifterPool.sol:ShifterPool",
            "label": "repaymentSubmodule",
            "offset": 0,
            "slot": "2",
            "type": "t_address"
          }
        ],
        "numberOfBytes": "96"
      },
      "t_struct(ModuleRegistry)2729_storage": {
        "encoding": "inplace",
        "label": "struct BorrowProxyLib.ModuleRegistry",
        "members": [
          {
            "astId": 2728,
            "contract": "contracts/ShifterPool.sol:ShifterPool",
            "label": "modules",
            "offset": 0,
            "slot": "0",
            "type": "t_mapping(t_bytes32,t_struct(Module)2355_storage)"
          }
        ],
        "numberOfBytes": "32"
      },
      "t_uint256": {
        "encoding": "inplace",
        "label": "uint256",
        "numberOfBytes": "32"
      }
    }
  },
  "gasEstimates": {
    "creation": {
      "codeDepositCost": "3708400",
      "executionCost": "infinite",
      "totalCost": "infinite"
    },
    "external": {
      "_executeSafeView(bytes,bytes)": "infinite",
      "cloneConstructor(bytes)": "infinite",
      "computeProxyAddress(bytes32)": "infinite",
      "deployAssetForwarderClone(bytes32)": "infinite",
      "deployAssetForwarderImplementation()": "infinite",
      "deployBorrowProxyImplementation()": "infinite",
      "executeBorrow(((address,address,bytes32,uint256,bool,(address,bytes)[]),uint256,bytes),uint256,uint256)": "infinite",
      "executeShiftSansBorrow((((address,address,bytes32,uint256,bool,(address,bytes)[]),uint256,bytes),(bytes32,uint256,bytes32,uint256,bytes),(address,bytes)[]))": "infinite",
      "fetchModuleHandler(address,bytes4)": "infinite",
      "getAssetForwarderImplementationHandler()": "1093",
      "getGasReserved(address)": "1308",
      "getLiquidityTokenForTokenHandler(address)": "1342",
      "getLiquidityTokenHandler(address)": "infinite",
      "getProxyOwnerHandler(address)": "infinite",
      "getProxyTokenHandler(address)": "infinite",
      "getShifterHandler(address)": "infinite",
      "owner()": "1159",
      "payoutCallbackGas(address,uint256,uint256)": "infinite",
      "query(bytes,bytes)": "infinite",
      "relayResolveLoan(address,address,address,uint256,uint256,uint256)": "infinite",
      "renounceOwnership()": "24249",
      "setKeeper(address,bool)": "infinite",
      "setup((address,uint256,uint256,uint256,uint256,uint256,uint256),(uint8,address,bytes4[])[],(bool,address,address,address)[],(address,address,uint256)[])": "infinite",
      "transferOwnership(address)": "24521",
      "validateProxyRecordHandler(bytes)": "infinite"
    },
    "internal": {
      "_executeBorrow(struct ShifterPoolLib.BorrowState memory,struct ShifterBorrowProxyLib.LiquidityRequestParcel memory,uint256,uint256)": "infinite",
      "_executeShiftSansBorrow(struct ShifterBorrowProxyLib.SansBorrowShiftParcel memory)": "infinite",
      "deployBorrowProxyClone(bytes32)": "infinite",
      "validateUnderMaxLoan(struct ShifterBorrowProxyLib.LiquidityRequestParcel memory)": "infinite"
    }
  }
}