{
  "contractName": "ERC20Adapter",
  "abi": [
    {
      "inputs": [],
      "name": "getExternalIsolateHandler",
      "outputs": [
        {
          "components": [
            {
              "components": [
                {
                  "internalType": "address",
                  "name": "recipient",
                  "type": "address"
                },
                {
                  "internalType": "address",
                  "name": "token",
                  "type": "address"
                }
              ],
              "internalType": "struct ERC20AdapterLib.EscrowRecord[]",
              "name": "payments",
              "type": "tuple[]"
            },
            {
              "internalType": "bool",
              "name": "isProcessing",
              "type": "bool"
            },
            {
              "internalType": "uint256",
              "name": "processed",
              "type": "uint256"
            }
          ],
          "internalType": "struct ERC20AdapterLib.Isolate",
          "name": "",
          "type": "tuple"
        }
      ],
      "stateMutability": "pure",
      "type": "function"
    },
    {
      "inputs": [
        {
          "internalType": "address",
          "name": "",
          "type": "address"
        }
      ],
      "name": "repay",
      "outputs": [
        {
          "internalType": "bool",
          "name": "",
          "type": "bool"
        }
      ],
      "stateMutability": "nonpayable",
      "type": "function"
    },
    {
      "inputs": [
        {
          "components": [
            {
              "internalType": "address payable",
              "name": "moduleAddress",
              "type": "address"
            },
            {
              "internalType": "address",
              "name": "liquidationSubmodule",
              "type": "address"
            },
            {
              "internalType": "address",
              "name": "repaymentSubmodule",
              "type": "address"
            },
            {
              "internalType": "address payable",
              "name": "token",
              "type": "address"
            },
            {
              "internalType": "address payable",
              "name": "txOrigin",
              "type": "address"
            },
            {
              "internalType": "address payable",
              "name": "to",
              "type": "address"
            },
            {
              "internalType": "uint256",
              "name": "value",
              "type": "uint256"
            },
            {
              "internalType": "bytes",
              "name": "callData",
              "type": "bytes"
            }
          ],
          "internalType": "struct ModuleLib.AssetSubmodulePayload",
          "name": "payload",
          "type": "tuple"
        }
      ],
      "name": "handle",
      "outputs": [],
      "stateMutability": "payable",
      "type": "function"
    }
  ],
  "bytecode": "0x608060405234801561001057600080fd5b50610fcb806100206000396000f3fe6080604052600436106100345760003560e01c80633c52e5a114610039578063966ff7a81461004e5780639f7c73e914610079575b600080fd5b61004c610047366004610c17565b6100a6565b005b34801561005a57600080fd5b5061006361016f565b6040516100709190610e8e565b60405180910390f35b34801561008557600080fd5b50610099610094366004610bab565b610219565b6040516100709190610dda565b600060606100b78360e0015161022d565b90925090506001600160e01b0319821663a9059cbb60e01b1415610134576100dd610adc565b6100e682610265565b805160a0860151602083015192935061010992600092919063ffffffff6102a916565b61012e5760405162461bcd60e51b815260040161012590610e48565b60405180910390fd5b5061016a565b6001600160e01b0319821663095ea7b360e01b14156101525761016a565b60405162461bcd60e51b815260040161012590610e18565b505050565b610177610af3565b61017f6102f8565b6040805182546080602082028301810190935260608201818152919392849291849160009085015b828210156101f2576000848152602090819020604080518082019091526002850290910180546001600160a01b039081168352600191820154168284015290835290920191016101a7565b50505090825250600182015460ff1615156020820152600290910154604090910152905090565b6000610225600061030f565b90505b919050565b6000606061024661024184600060046103c5565b6103ee565b60e01b915061025e61025984600461040b565b610438565b9050915091565b61026d610adc565b600080838060200190518101906102849190610bea565b604080518082019091526001600160a01b039092168252602082015292505050919050565b6000806102b46102f8565b80549091506000906102c79088906104a8565b90506102d3868661056b565b6102ed6001600160a01b038616828663ffffffff6105dd16565b979650505050505050565b600061030a61030561064f565b61066b565b905090565b60008061031a6102f8565b600181015490915060ff1661033a576001818101805460ff191690911790555b60028101545b81548110156103bb576207a1205a101561036257600290910155506000610228565b6103b38483600001838154811061037557fe5b60009182526020918290206040805180820190915260029092020180546001600160a01b039081168352600190910154169181019190915283610681565b600101610340565b5060019392505050565b6103cd610b16565b6103d7848461077b565b815260208101919091526040810191909152919050565b80516020820151600091906104038282610782565b949350505050565b610413610b16565b818351101561042157825191505b61042f8383848651036103c5565b90505b92915050565b60208101516060908067ffffffffffffffff8111801561045757600080fd5b506040519080825280601f01601f191660200182016040528015610482576020820181803683370190505b50835190925060006104938461079f565b90506104a08183856107a5565b505050919050565b8154604080516332dd41bd60e11b8152905160009261042f926001600160a01b039091169182916365ba837a916004808301926020929190829003018186803b1580156104f457600080fd5b505afa158015610508573d6000803e3d6000fd5b505050506040513d601f19601f8201168201806040525081019061052c9190610bce565b6105346107e3565b3061053e87610807565b60405160200161055093929190610d39565b60405160208183030381529060405280519060200120610837565b60006105756102f8565b604080518082019091526001600160a01b03948516815292841660208085019182528254600181810185556000948552919093209451600290930290940180549286166001600160a01b03199384161781559051930180549390941692169190911790915550565b600080846001600160a01b03166105f48585610854565b6040516106019190610d61565b6000604051808303816000865af19150503d806000811461063e576040519150601f19603f3d011682016040523d82523d6000602084013e610643565b606091505b50909695505050505050565b600060405161065d90610d7d565b604051908190039020905090565b6000610225826106796108aa565b63ffffffff16565b600061069c61068f83610807565b859063ffffffff6108b016565b6040519091506001600160a01b038216907fb8a00d6d8ca1be30bfec34d8f97e55f0f0fd9eeb7fb46e030516363d4cfe1ad690600090a26106dd84836104a8565b6001600160a01b03167fb8a00d6d8ca1be30bfec34d8f97e55f0f0fd9eeb7fb46e030516363d4cfe1ad660405160405180910390a282516020840151604051638e03e6cd60e01b81526001600160a01b03841692638e03e6cd9261074392600401610da7565b600060405180830381600087803b15801561075d57600080fd5b505af1158015610771573d6000803e3d6000fd5b5050505050505050565b0160200190565b6000600180600884021b0380836020038503511691505092915050565b60200190565b5b602081106107c5578151835260209283019290910190601f19016107a6565b600180600883602003021b0380845116811984511617845250505050565b7f6b6f6b75258f8f4cdb6ef275682bc2be3e8b970e5e4417113bd1ea53622d907e90565b60008160405160200161081a9190610d9e565b604051602081830303815290604052805190602001209050919050565b6000610403826108478686610932565b8051906020012086610a9a565b606063a9059cbb60e01b8383604051602401610871929190610dc1565b60408051601f198184030181529190526020810180516001600160e01b03166001600160e01b0319909316929092179091529392505050565b610ad990565b8154604051632593b05360e01b81526000916001600160a01b031690632593b053906108e0908590600401610d9e565b602060405180830381600087803b1580156108fa57600080fd5b505af115801561090e573d6000803e3d6000fd5b505050506040513d601f19601f8201168201806040525081019061042f9190610bce565b60408051600081526020810190915260609081906109539060448101610de5565b60408051601f198184030181529190526020810180516001600160e01b03166352e831dd60e01b179052805190915060630167ffffffffffffffff8111801561099b57600080fd5b506040519080825280601f01601f1916602001820160405280156109c6576020820181803683370190505b507f3d3d606380380380913d393d73bebebebebebebebebebebebebebebebebebebe6020820152600160601b858102602d8301527f5af4602a57600080fd5b602d8060366000396000f3363d3d373d3d3d363d73be6041830152840260608201526e5af43d82803e903d91602b57fd5bf360881b6074820152915060005b8151811015610a9257818181518110610a5957fe5b602001015160f81c60f81b838260630181518110610a7357fe5b60200101906001600160f81b031916908160001a905350600101610a44565b505092915050565b60008060ff60f81b838686604051602001610ab89493929190610d00565b60408051808303601f19018152919052805160209091012095945050505050565b90565b604080518082019091526000808252602082015290565b604051806060016040528060608152602001600015158152602001600081525090565b60405180606001604052806000815260200160008152602001600081525090565b803561043281610f7d565b600082601f830112610b52578081fd5b813567ffffffffffffffff811115610b68578182fd5b610b7b601f8201601f1916602001610f1a565b9150808252836020828501011115610b9257600080fd5b8060208401602084013760009082016020015292915050565b600060208284031215610bbc578081fd5b8135610bc781610f7d565b9392505050565b600060208284031215610bdf578081fd5b8151610bc781610f7d565b60008060408385031215610bfc578081fd5b8251610c0781610f7d565b6020939093015192949293505050565b600060208284031215610c28578081fd5b813567ffffffffffffffff80821115610c3f578283fd5b610100918401808603831315610c53578384fd5b610c5c83610f1a565b610c668783610b37565b8152610c758760208401610b37565b6020820152610c878760408401610b37565b6040820152610c998760608401610b37565b6060820152610cab8760808401610b37565b6080820152610cbd8760a08401610b37565b60a082015260c082013560c082015260e0820135935082841115610cdf578485fd5b610ceb87858401610b42565b60e08201529695505050505050565b15159052565b6001600160f81b031994909416845260609290921b6bffffffffffffffffffffffff191660018401526015830152603582015260550190565b92835260609190911b6bffffffffffffffffffffffff19166020830152603482015260540190565b60008251610d73818460208701610f4d565b9190910192915050565b7434b9b7b630ba329732b931991816b0b230b83a32b960591b815260150190565b90815260200190565b6001600160a01b0392831681529116602082015260400190565b6001600160a01b03929092168252602082015260400190565b901515815260200190565b6000602082528251806020840152610e04816040850160208701610f4d565b601f01601f19169190910160400192915050565b6020808252601690820152751d5b9cdd5c1c1bdc9d1959081d1bdad95b8818d85b1b60521b604082015260600190565b60208082526026908201527f746f6b656e207472616e7366657220746f20657363726f772077616c6c65742060408201526519985a5b195960d21b606082015260800190565b6020808252825160608383015280516080840181905260009291820190839060a08601905b80831015610eef578351610ec78151610f41565b83528501516001600160a01b0316858301529284019260019290920191604090910190610eb3565b50838701519250610f036040870184610cfa565b604087015160608701528094505050505092915050565b60405181810167ffffffffffffffff81118282101715610f3957600080fd5b604052919050565b6001600160a01b031690565b60005b83811015610f68578181015183820152602001610f50565b83811115610f77576000848401525b50505050565b6001600160a01b0381168114610f9257600080fd5b5056fea2646970667358221220470eb8b514b69315783d81880006f8cd6522b19227691606943a8f18cb61a8d864736f6c63430006080033",
  "immutableReferences": {},
  "source": "pragma experimental ABIEncoderV2;\n// SPDX-License-Identifier: MIT\npragma solidity ^0.6.0;\n\nimport { ModuleLib } from \"../../lib/ModuleLib.sol\";\nimport { ERC20 } from \"@openzeppelin/contracts/token/ERC20/ERC20.sol\";\nimport { ERC20AdapterLib } from \"./ERC20AdapterLib.sol\";\nimport { TokenUtils } from \"../../../utils/TokenUtils.sol\";\nimport { BorrowProxyLib } from \"../../../BorrowProxyLib.sol\";\n\ncontract ERC20Adapter {\n  using ERC20AdapterLib for *;\n  using ModuleLib for *;\n  using TokenUtils for *;\n  BorrowProxyLib.ProxyIsolate proxyIsolate;\n  function getExternalIsolateHandler() external pure returns (ERC20AdapterLib.Isolate memory) {\n    return ERC20AdapterLib.getIsolatePointer();\n  }\n  function repay(address /* moduleAddress */)  public returns (bool) {\n    return proxyIsolate.processEscrowForwards();\n  }\n  function handle(ModuleLib.AssetSubmodulePayload memory payload) public payable {\n    (bytes4 sig, bytes memory args) = payload.callData.splitPayload();\n    if (sig == ERC20.transfer.selector) {\n       ERC20AdapterLib.TransferInputs memory inputs = args.decodeTransferInputs();\n       require(proxyIsolate.sendToEscrow(inputs.recipient, payload.to, inputs.amount), \"token transfer to escrow wallet failed\");\n    } else if (sig == ERC20.approve.selector) {\n      // do nothing\n    } else revert(\"unsupported token call\");\n  }\n}\n",
  "sourcePath": "/home/ray/0confirmation/packages/0confirmation-sol-truffle/contracts/adapters/assets/erc20/ERC20Adapter.sol",
  "compiler": {
    "name": "solc",
    "version": "0.6.8+commit.0bbfe453.Emscripten.clang"
  },
  "schemaVersion": "3.2.2",
  "updatedAt": "2020-07-17T18:20:37.330Z",
  "devdoc": {
    "methods": {}
  },
  "userdoc": {
    "methods": {}
  }
}