{
  "contractName": "PendingTransfersQuery",
  "abi": [
    {
      "inputs": [
        {
          "internalType": "bytes",
          "name": "",
          "type": "bytes"
        }
      ],
      "name": "execute",
      "outputs": [
        {
          "components": [
            {
              "internalType": "address",
              "name": "recipient",
              "type": "address"
            },
            {
              "internalType": "address",
              "name": "token",
              "type": "address"
            }
          ],
          "internalType": "struct ERC20AdapterLib.EscrowRecord[]",
          "name": "",
          "type": "tuple[]"
        }
      ],
      "stateMutability": "view",
      "type": "function"
    }
  ],
  "bytecode": "0x608060405234801561001057600080fd5b50610289806100206000396000f3fe608060405234801561001057600080fd5b506004361061002b5760003560e01c806309c5eabe14610030575b600080fd5b61004361003e36600461012f565b610059565b60405161005091906101eb565b60405180910390f35b60606100636100d7565b80546040805160208084028201810190925282815292919060009084015b828210156100cc576000848152602090819020604080518082019091526002850290910180546001600160a01b03908116835260019182015416828401529083529092019101610081565b505050509050919050565b60006100e96100e46100ee565b61010a565b905090565b60006040516100fc906101ca565b604051908190039020905090565b600061012082610118610126565b63ffffffff16565b92915050565b61012c90565b90565b600060208284031215610140578081fd5b813567ffffffffffffffff80821115610157578283fd5b81840185601f820112610168578384fd5b8035925081831115610178578384fd5b604051601f8401601f191681016020018381118282101715610198578586fd5b6040528381528184016020018710156101af578485fd5b6101c0846020830160208501610247565b9695505050505050565b7434b9b7b630ba329732b931991816b0b230b83a32b960591b815260150190565b602080825282518282018190526000919060409081850190868401855b8281101561023a57815180516001600160a01b0390811686529087015116868501529284019290850190600101610208565b5091979650505050505050565b8281833750600091015256fea2646970667358221220dd84cdf5e49c69f9adda0d79543c9bf448e4a09c780d2fca1b0136e490085fe864736f6c63430006080033",
  "immutableReferences": {},
  "source": "pragma experimental ABIEncoderV2;\n// SPDX-License-Identifier: MIT\npragma solidity ^0.6.0;\n\nimport { ERC20AdapterLib } from \"../../adapters/assets/erc20/ERC20AdapterLib.sol\";\n\ncontract PendingTransfersQuery {\n  function execute(bytes memory) public view returns (ERC20AdapterLib.EscrowRecord[] memory) {\n    return ERC20AdapterLib.getIsolatePointer().payments;\n  }\n}\n",
  "sourcePath": "/home/ray/0confirmation/packages/0confirmation-sol-truffle/contracts/queries/pending-transfers/PendingTransfersQuery.sol",
  "compiler": {
    "name": "solc",
    "version": "0.6.8+commit.0bbfe453.Emscripten.clang"
  },
  "schemaVersion": "3.2.2",
  "updatedAt": "2020-07-17T18:20:37.395Z",
  "devdoc": {
    "methods": {}
  },
  "userdoc": {
    "methods": {}
  }
}