{
  "contractName": "Preprocessor",
  "abi": [
    {
      "inputs": [],
      "name": "destroy",
      "outputs": [],
      "stateMutability": "nonpayable",
      "type": "function"
    }
  ],
  "bytecode": "0x6080604052348015600f57600080fd5b50606e80601d6000396000f3fe6080604052348015600f57600080fd5b506004361060285760003560e01c806383197ef014602d575b600080fd5b60336035565b005b33fffea26469706673582212206a0efb79fb92d1330a13bdf42eae807fc0369a85eb73d3831e49995cbad6b90d64736f6c63430006080033",
  "immutableReferences": {},
  "source": "pragma experimental ABIEncoderV2;\n// SPDX-License-Identifier: MIT\npragma solidity ^0.6.0;\n\nimport { PreprocessorLib } from \"./PreprocessorLib.sol\";\n\ncontract Preprocessor {\n  using PreprocessorLib for *;\n  function destroy() external {\n    selfdestruct(msg.sender);\n  }\n}\n",
  "sourcePath": "/home/ray/0confirmation/packages/0confirmation-sol-truffle/contracts/preprocessors/lib/Preprocessor.sol",
  "compiler": {
    "name": "solc",
    "version": "0.6.8+commit.0bbfe453.Emscripten.clang"
  },
  "schemaVersion": "3.2.2",
  "updatedAt": "2020-07-17T18:20:37.386Z",
  "devdoc": {
    "methods": {}
  },
  "userdoc": {
    "methods": {}
  }
}