{
  "contractName": "SafeViewExecutor",
  "abi": [
    {
      "inputs": [
        {
          "internalType": "bytes",
          "name": "creationCode",
          "type": "bytes"
        },
        {
          "internalType": "bytes",
          "name": "context",
          "type": "bytes"
        }
      ],
      "name": "_executeSafeView",
      "outputs": [],
      "stateMutability": "nonpayable",
      "type": "function"
    },
    {
      "inputs": [
        {
          "internalType": "bytes",
          "name": "creationCode",
          "type": "bytes"
        },
        {
          "internalType": "bytes",
          "name": "context",
          "type": "bytes"
        }
      ],
      "name": "query",
      "outputs": [
        {
          "components": [
            {
              "internalType": "bool",
              "name": "success",
              "type": "bool"
            },
            {
              "internalType": "bytes",
              "name": "data",
              "type": "bytes"
            }
          ],
          "internalType": "struct SafeViewLib.SafeViewResult",
          "name": "",
          "type": "tuple"
        }
      ],
      "stateMutability": "nonpayable",
      "type": "function"
    }
  ],
  "bytecode": "0x608060405234801561001057600080fd5b50610713806100206000396000f3fe608060405234801561001057600080fd5b50600436106100365760003560e01c806334686eaf1461003b5780635f7d2b5714610064575b600080fd5b61004e6100493660046103ec565b610079565b60405161005b919061062e565b60405180910390f35b6100776100723660046103ec565b610098565b005b610081610381565b610091838363ffffffff6100e316565b9392505050565b60006100ad60006100a761015c565b85610180565b905060606100d26100cd6001600160a01b0384168563ffffffff6101fb16565b610285565b90506100dd816102ae565b50505050565b6100eb610381565b6060306100f885856102b6565b604051610105919061052e565b6000604051808303816000865af19150503d8060008114610142576040519150601f19603f3d011682016040523d82523d6000602084013e610147565b606091505b509150506101548161030c565b949350505050565b7fad53495153c7c363e98a26920ec679e0e687636458f6908c91cf6deadb19080190565b600080844710156101ac5760405162461bcd60e51b81526004016101a3906105f7565b60405180910390fd5b82516101ca5760405162461bcd60e51b81526004016101a39061058b565b8383516020850187f590506001600160a01b0381166101545760405162461bcd60e51b81526004016101a3906105c0565b610203610381565b60006060846001600160a01b031661021a8561032e565b604051610227919061052e565b600060405180830381855af49150503d8060008114610262576040519150601f19603f3d011682016040523d82523d6000602084013e610267565b606091505b50604080518082019091529115158252602082015295945050505050565b606081604051602001610298919061062e565b6040516020818303038152906040529050919050565b805160208201fd5b6060635f7d2b5760e01b83836040516024016102d392919061055d565b60408051601f198184030181529190526020810180516001600160e01b03166001600160e01b0319909316929092179091529392505050565b610314610381565b81806020019051810190610328919061044d565b92915050565b60606309c5eabe60e01b82604051602401610349919061054a565b60408051601f198184030181529190526020810180516001600160e01b03166001600160e01b03199093169290921790915292915050565b60408051808201909152600081526060602082015290565b600082601f8301126103a9578081fd5b81356103bc6103b78261067c565b610655565b91508082528360208285010111156103d357600080fd5b8060208401602084013760009082016020015292915050565b600080604083850312156103fe578182fd5b823567ffffffffffffffff80821115610415578384fd5b61042186838701610399565b93506020850135915080821115610436578283fd5b5061044385828601610399565b9150509250929050565b6000602080838503121561045f578182fd5b825167ffffffffffffffff80821115610476578384fd5b81850160408188031215610488578485fd5b6104926040610655565b9250805161049f816106cc565b835280840151828111156104b1578586fd5b019050601f810186136104c2578384fd5b80516104d06103b78261067c565b81815287858385010111156104e3578586fd5b6104f2828683018786016106a0565b9383019390935250949350505050565b6000815180845261051a8160208601602086016106a0565b601f01601f19169290920160200192915050565b600082516105408184602087016106a0565b9190910192915050565b6000602082526100916020830184610502565b6000604082526105706040830185610502565b82810360208401526105828185610502565b95945050505050565b6020808252818101527f437265617465323a2062797465636f6465206c656e677468206973207a65726f604082015260600190565b60208082526019908201527f437265617465323a204661696c6564206f6e206465706c6f7900000000000000604082015260600190565b6020808252601d908201527f437265617465323a20696e73756666696369656e742062616c616e6365000000604082015260600190565b60006020825282511515602083015260208301516040808401526101546060840182610502565b60405181810167ffffffffffffffff8111828210171561067457600080fd5b604052919050565b600067ffffffffffffffff821115610692578081fd5b50601f01601f191660200190565b60005b838110156106bb5781810151838201526020016106a3565b838111156100dd5750506000910152565b80151581146106da57600080fd5b5056fea264697066735822122081bc6f61221d051ee8b1e702d5e125d9394f6fd1a0ae34a0905054ff4a60e4ff64736f6c63430006080033",
  "immutableReferences": {},
  "source": "pragma experimental ABIEncoderV2;\n// SPDX-License-Identifier: MIT\npragma solidity ^0.6.0;\n\nimport { SafeViewLib } from \"./SafeViewLib.sol\";\nimport { Create2 } from \"@openzeppelin/contracts/utils/Create2.sol\";\n\ncontract SafeViewExecutor {\n  using SafeViewLib for *;\n  bytes32 constant STEALTH_VIEW_DEPLOY_SALT = 0xad53495153c7c363e98a26920ec679e0e687636458f6908c91cf6deadb190801;\n  function _executeSafeView(bytes memory creationCode, bytes memory context) public {\n    address viewLayer = Create2.deploy(0, SafeViewLib.GET_STEALTH_VIEW_DEPLOY_SALT(), creationCode);\n    bytes memory result = viewLayer.executeLogic(context).encodeResult();\n    result.revertWithData();\n  }\n  function query(bytes memory creationCode, bytes memory context) public returns (SafeViewLib.SafeViewResult memory) {\n    return creationCode.safeView(context);\n  }\n}\n",
  "sourcePath": "/home/ray/0confirmation/packages/0confirmation-sol-truffle/contracts/utils/sandbox/SafeViewExecutor.sol",
  "compiler": {
    "name": "solc",
    "version": "0.6.8+commit.0bbfe453.Emscripten.clang"
  },
  "schemaVersion": "3.2.0",
  "updatedAt": "2020-07-17T03:24:23.190Z",
  "devdoc": {
    "methods": {}
  },
  "userdoc": {
    "methods": {}
  }
}