{
  "contractName": "ShifterPool",
  "abi": [
    {
      "inputs": [],
      "stateMutability": "nonpayable",
      "type": "constructor"
    },
    {
      "anonymous": false,
      "inputs": [
        {
          "indexed": true,
          "internalType": "address",
          "name": "previousOwner",
          "type": "address"
        },
        {
          "indexed": true,
          "internalType": "address",
          "name": "newOwner",
          "type": "address"
        }
      ],
      "name": "OwnershipTransferred",
      "type": "event"
    },
    {
      "inputs": [
        {
          "internalType": "bytes",
          "name": "creationCode",
          "type": "bytes"
        },
        {
          "internalType": "bytes",
          "name": "context",
          "type": "bytes"
        }
      ],
      "name": "_executeSafeView",
      "outputs": [],
      "stateMutability": "nonpayable",
      "type": "function"
    },
    {
      "inputs": [
        {
          "internalType": "bytes",
          "name": "consData",
          "type": "bytes"
        }
      ],
      "name": "cloneConstructor",
      "outputs": [],
      "stateMutability": "nonpayable",
      "type": "function"
    },
    {
      "inputs": [],
      "name": "owner",
      "outputs": [
        {
          "internalType": "address",
          "name": "",
          "type": "address"
        }
      ],
      "stateMutability": "view",
      "type": "function"
    },
    {
      "inputs": [
        {
          "internalType": "bytes",
          "name": "creationCode",
          "type": "bytes"
        },
        {
          "internalType": "bytes",
          "name": "context",
          "type": "bytes"
        }
      ],
      "name": "query",
      "outputs": [
        {
          "components": [
            {
              "internalType": "bool",
              "name": "success",
              "type": "bool"
            },
            {
              "internalType": "bytes",
              "name": "data",
              "type": "bytes"
            }
          ],
          "internalType": "struct SafeViewLib.SafeViewResult",
          "name": "",
          "type": "tuple"
        }
      ],
      "stateMutability": "nonpayable",
      "type": "function"
    },
    {
      "inputs": [],
      "name": "renounceOwnership",
      "outputs": [],
      "stateMutability": "nonpayable",
      "type": "function"
    },
    {
      "inputs": [
        {
          "internalType": "address",
          "name": "newOwner",
          "type": "address"
        }
      ],
      "name": "transferOwnership",
      "outputs": [],
      "stateMutability": "nonpayable",
      "type": "function"
    },
    {
      "inputs": [
        {
          "components": [
            {
              "internalType": "address",
              "name": "shifterRegistry",
              "type": "address"
            },
            {
              "internalType": "uint256",
              "name": "minTimeout",
              "type": "uint256"
            },
            {
              "internalType": "uint256",
              "name": "poolFee",
              "type": "uint256"
            },
            {
              "internalType": "uint256",
              "name": "daoFee",
              "type": "uint256"
            },
            {
              "internalType": "uint256",
              "name": "maxLoan",
              "type": "uint256"
            }
          ],
          "internalType": "struct ShifterPoolLib.SetupParams",
          "name": "params",
          "type": "tuple"
        },
        {
          "components": [
            {
              "internalType": "enum BorrowProxyLib.ModuleRegistrationType",
              "name": "moduleType",
              "type": "uint8"
            },
            {
              "internalType": "address",
              "name": "target",
              "type": "address"
            },
            {
              "internalType": "bytes4[]",
              "name": "sigs",
              "type": "bytes4[]"
            }
          ],
          "internalType": "struct BorrowProxyLib.ModuleDetails[]",
          "name": "moduleDetails",
          "type": "tuple[]"
        },
        {
          "components": [
            {
              "internalType": "bool",
              "name": "isPrecompiled",
              "type": "bool"
            },
            {
              "internalType": "address",
              "name": "assetSubmodule",
              "type": "address"
            },
            {
              "internalType": "address",
              "name": "liquidationSubmodule",
              "type": "address"
            },
            {
              "internalType": "address",
              "name": "repaymentSubmodule",
              "type": "address"
            }
          ],
          "internalType": "struct BorrowProxyLib.Module[]",
          "name": "modules",
          "type": "tuple[]"
        },
        {
          "components": [
            {
              "internalType": "address",
              "name": "token",
              "type": "address"
            },
            {
              "internalType": "address",
              "name": "liqToken",
              "type": "address"
            }
          ],
          "internalType": "struct ShifterPoolLib.LiquidityTokenLaunch[]",
          "name": "tokenLaunches",
          "type": "tuple[]"
        }
      ],
      "name": "setup",
      "outputs": [],
      "stateMutability": "nonpayable",
      "type": "function"
    },
    {
      "inputs": [
        {
          "internalType": "address",
          "name": "token",
          "type": "address"
        }
      ],
      "name": "getLiquidityTokenForTokenHandler",
      "outputs": [
        {
          "internalType": "address",
          "name": "",
          "type": "address"
        }
      ],
      "stateMutability": "view",
      "type": "function"
    },
    {
      "inputs": [],
      "name": "deployBorrowProxyImplementation",
      "outputs": [],
      "stateMutability": "nonpayable",
      "type": "function"
    },
    {
      "inputs": [
        {
          "internalType": "bytes32",
          "name": "salt",
          "type": "bytes32"
        }
      ],
      "name": "computeProxyAddress",
      "outputs": [
        {
          "internalType": "address",
          "name": "",
          "type": "address"
        }
      ],
      "stateMutability": "view",
      "type": "function"
    },
    {
      "inputs": [],
      "name": "deployAssetForwarderImplementation",
      "outputs": [],
      "stateMutability": "nonpayable",
      "type": "function"
    },
    {
      "inputs": [
        {
          "internalType": "bytes32",
          "name": "salt",
          "type": "bytes32"
        }
      ],
      "name": "deployAssetForwarderClone",
      "outputs": [
        {
          "internalType": "address",
          "name": "created",
          "type": "address"
        }
      ],
      "stateMutability": "nonpayable",
      "type": "function"
    },
    {
      "inputs": [],
      "name": "getAssetForwarderImplementationHandler",
      "outputs": [
        {
          "internalType": "address",
          "name": "implementation",
          "type": "address"
        }
      ],
      "stateMutability": "view",
      "type": "function"
    },
    {
      "inputs": [
        {
          "components": [
            {
              "components": [
                {
                  "internalType": "address payable",
                  "name": "borrower",
                  "type": "address"
                },
                {
                  "internalType": "address",
                  "name": "token",
                  "type": "address"
                },
                {
                  "internalType": "bytes32",
                  "name": "nonce",
                  "type": "bytes32"
                },
                {
                  "internalType": "uint256",
                  "name": "amount",
                  "type": "uint256"
                },
                {
                  "internalType": "bool",
                  "name": "forbidLoan",
                  "type": "bool"
                },
                {
                  "components": [
                    {
                      "internalType": "address",
                      "name": "to",
                      "type": "address"
                    },
                    {
                      "internalType": "bytes",
                      "name": "txData",
                      "type": "bytes"
                    }
                  ],
                  "internalType": "struct ShifterBorrowProxyLib.InitializationAction[]",
                  "name": "actions",
                  "type": "tuple[]"
                }
              ],
              "internalType": "struct ShifterBorrowProxyLib.LiquidityRequest",
              "name": "request",
              "type": "tuple"
            },
            {
              "internalType": "uint256",
              "name": "gasRequested",
              "type": "uint256"
            },
            {
              "internalType": "bytes",
              "name": "signature",
              "type": "bytes"
            }
          ],
          "internalType": "struct ShifterBorrowProxyLib.LiquidityRequestParcel",
          "name": "liquidityRequestParcel",
          "type": "tuple"
        },
        {
          "internalType": "uint256",
          "name": "bond",
          "type": "uint256"
        },
        {
          "internalType": "uint256",
          "name": "timeoutExpiry",
          "type": "uint256"
        }
      ],
      "name": "executeBorrow",
      "outputs": [],
      "stateMutability": "payable",
      "type": "function"
    },
    {
      "inputs": [
        {
          "components": [
            {
              "components": [
                {
                  "components": [
                    {
                      "internalType": "address payable",
                      "name": "borrower",
                      "type": "address"
                    },
                    {
                      "internalType": "address",
                      "name": "token",
                      "type": "address"
                    },
                    {
                      "internalType": "bytes32",
                      "name": "nonce",
                      "type": "bytes32"
                    },
                    {
                      "internalType": "uint256",
                      "name": "amount",
                      "type": "uint256"
                    },
                    {
                      "internalType": "bool",
                      "name": "forbidLoan",
                      "type": "bool"
                    },
                    {
                      "components": [
                        {
                          "internalType": "address",
                          "name": "to",
                          "type": "address"
                        },
                        {
                          "internalType": "bytes",
                          "name": "txData",
                          "type": "bytes"
                        }
                      ],
                      "internalType": "struct ShifterBorrowProxyLib.InitializationAction[]",
                      "name": "actions",
                      "type": "tuple[]"
                    }
                  ],
                  "internalType": "struct ShifterBorrowProxyLib.LiquidityRequest",
                  "name": "request",
                  "type": "tuple"
                },
                {
                  "internalType": "uint256",
                  "name": "gasRequested",
                  "type": "uint256"
                },
                {
                  "internalType": "bytes",
                  "name": "signature",
                  "type": "bytes"
                }
              ],
              "internalType": "struct ShifterBorrowProxyLib.LiquidityRequestParcel",
              "name": "liquidityRequestParcel",
              "type": "tuple"
            },
            {
              "components": [
                {
                  "internalType": "bytes32",
                  "name": "txhash",
                  "type": "bytes32"
                },
                {
                  "internalType": "uint256",
                  "name": "vout",
                  "type": "uint256"
                },
                {
                  "internalType": "bytes32",
                  "name": "pHash",
                  "type": "bytes32"
                },
                {
                  "internalType": "uint256",
                  "name": "amount",
                  "type": "uint256"
                },
                {
                  "internalType": "bytes",
                  "name": "darknodeSignature",
                  "type": "bytes"
                }
              ],
              "internalType": "struct ShifterBorrowProxyLib.ShiftParameters",
              "name": "shiftParameters",
              "type": "tuple"
            },
            {
              "components": [
                {
                  "internalType": "address",
                  "name": "to",
                  "type": "address"
                },
                {
                  "internalType": "bytes",
                  "name": "txData",
                  "type": "bytes"
                }
              ],
              "internalType": "struct ShifterBorrowProxyLib.InitializationAction[]",
              "name": "actions",
              "type": "tuple[]"
            }
          ],
          "internalType": "struct ShifterBorrowProxyLib.SansBorrowShiftParcel",
          "name": "parcel",
          "type": "tuple"
        }
      ],
      "name": "executeShiftSansBorrow",
      "outputs": [],
      "stateMutability": "payable",
      "type": "function"
    },
    {
      "inputs": [
        {
          "internalType": "bytes",
          "name": "proxyRecord",
          "type": "bytes"
        }
      ],
      "name": "validateProxyRecordHandler",
      "outputs": [
        {
          "internalType": "bool",
          "name": "",
          "type": "bool"
        }
      ],
      "stateMutability": "view",
      "type": "function"
    },
    {
      "inputs": [
        {
          "internalType": "address",
          "name": "proxyAddress",
          "type": "address"
        }
      ],
      "name": "getProxyTokenHandler",
      "outputs": [
        {
          "internalType": "address",
          "name": "",
          "type": "address"
        }
      ],
      "stateMutability": "view",
      "type": "function"
    },
    {
      "inputs": [
        {
          "internalType": "address",
          "name": "user",
          "type": "address"
        }
      ],
      "name": "getProxyOwnerHandler",
      "outputs": [
        {
          "internalType": "address",
          "name": "",
          "type": "address"
        }
      ],
      "stateMutability": "view",
      "type": "function"
    },
    {
      "inputs": [
        {
          "internalType": "address",
          "name": "token",
          "type": "address"
        }
      ],
      "name": "getShifterHandler",
      "outputs": [
        {
          "internalType": "contract IShifter",
          "name": "",
          "type": "address"
        }
      ],
      "stateMutability": "view",
      "type": "function"
    },
    {
      "inputs": [
        {
          "internalType": "address",
          "name": "token",
          "type": "address"
        }
      ],
      "name": "getLiquidityTokenHandler",
      "outputs": [
        {
          "internalType": "contract LiquidityToken",
          "name": "",
          "type": "address"
        }
      ],
      "stateMutability": "view",
      "type": "function"
    },
    {
      "inputs": [
        {
          "internalType": "address",
          "name": "to",
          "type": "address"
        },
        {
          "internalType": "bytes4",
          "name": "sig",
          "type": "bytes4"
        }
      ],
      "name": "fetchModuleHandler",
      "outputs": [
        {
          "components": [
            {
              "internalType": "bool",
              "name": "isPrecompiled",
              "type": "bool"
            },
            {
              "internalType": "address",
              "name": "assetSubmodule",
              "type": "address"
            },
            {
              "internalType": "address",
              "name": "liquidationSubmodule",
              "type": "address"
            },
            {
              "internalType": "address",
              "name": "repaymentSubmodule",
              "type": "address"
            }
          ],
          "internalType": "struct BorrowProxyLib.Module",
          "name": "",
          "type": "tuple"
        }
      ],
      "stateMutability": "view",
      "type": "function"
    },
    {
      "inputs": [
        {
          "internalType": "address",
          "name": "token",
          "type": "address"
        },
        {
          "internalType": "address",
          "name": "liquidityToken",
          "type": "address"
        },
        {
          "internalType": "address",
          "name": "keeper",
          "type": "address"
        },
        {
          "internalType": "uint256",
          "name": "bond",
          "type": "uint256"
        },
        {
          "internalType": "uint256",
          "name": "repay",
          "type": "uint256"
        },
        {
          "internalType": "uint256",
          "name": "originalAmount",
          "type": "uint256"
        }
      ],
      "name": "relayResolveLoan",
      "outputs": [
        {
          "internalType": "bool",
          "name": "",
          "type": "bool"
        }
      ],
      "stateMutability": "nonpayable",
      "type": "function"
    }
  ],
  "bytecode": "0x60806040523480156200001157600080fd5b506000620000276001600160e01b036200007b16565b600080546001600160a01b0319166001600160a01b0383169081178255604051929350917f8be0079c531659141344cd1fd0a4f28419497f9722a3daafe3b4186f6b6457e0908290a350436001556200007f565b3390565b614393806200008f6000396000f3fe6080604052600436106101355760003560e01c8063715018a6116100ab578063c2006b621161006f578063c2006b6214610335578063d0a80e3114610355578063dc74245e14610375578063e6c1f07414610388578063f2fde38b146103a8578063f7a94ce2146103c857610135565b8063715018a6146102c3578063798aada0146102d85780638da5cb5b146102f857806393e93abe1461030d578063abee1fc91461032257610135565b806344112360116100fd578063441123601461020a57806352e831dd1461023757806354fd9cd6146102595780635f7d2b571461027957806363091aa31461029957806365ba837a146102ae57610135565b806308f604951461013a5780631fbc78dc146101705780632593b0531461019d57806329658b02146101bd57806334686eaf146101dd575b600080fd5b34801561014657600080fd5b5061015a610155366004612f22565b6103e8565b6040516101679190613614565b60405180910390f35b34801561017c57600080fd5b5061019061018b366004612e1a565b610402565b60405161016791906134ee565b3480156101a957600080fd5b506101906101b8366004612f0a565b610415565b3480156101c957600080fd5b506101906101d8366004612e1a565b610462565b3480156101e957600080fd5b506101fd6101f8366004612f54565b610475565b6040516101679190613f3f565b34801561021657600080fd5b5061022a610225366004612eb6565b610494565b6040516101679190613e25565b34801561024357600080fd5b50610257610252366004612f22565b6104ae565b005b34801561026557600080fd5b50610190610274366004612f0a565b6104b1565b34801561028557600080fd5b50610257610294366004612f54565b6104d0565b3480156102a557600080fd5b5061025761051b565b3480156102ba57600080fd5b5061019061056e565b3480156102cf57600080fd5b5061025761057d565b3480156102e457600080fd5b506101906102f3366004612e1a565b610605565b34801561030457600080fd5b50610190610618565b34801561031957600080fd5b50610257610627565b6102576103303660046130b3565b610651565b34801561034157600080fd5b50610257610350366004613165565b610689565b34801561036157600080fd5b50610190610370366004612e1a565b610852565b610257610383366004612fb4565b610870565b34801561039457600080fd5b506101906103a3366004612e1a565b6108d0565b3480156103b457600080fd5b506102576103c3366004612e1a565b6108e3565b3480156103d457600080fd5b5061015a6103e3366004612e52565b610999565b60006103fc600c338463ffffffff610b6616565b92915050565b60006103fc60018363ffffffff610b8c16565b6003546000906103fc906001600160a01b0316610430610c0f565b338560405160200161044493929190613447565b6040516020818303038152906040528051906020012060001c610c33565b60006103fc600c8363ffffffff610c8316565b61047d61277f565b61048d838363ffffffff610ca616565b9392505050565b61049c612797565b61048d6010848463ffffffff610d1f16565b50565b6002546000906103fc906001600160a01b03168363ffffffff610e0d16565b60006104e560006104df610e19565b85610e3d565b9050606061050a6105056001600160a01b0384168563ffffffff610eaf16565b610f39565b905061051581610f62565b50505050565b61054c60017ffe1e3164ba4910db3c9afd049cd8feb4552390569c846692e6df4ac68aeaa90e63ffffffff610f6a16565b600280546001600160a01b0319166001600160a01b0392909216919091179055565b6003546001600160a01b031690565b610585610fd2565b6000546001600160a01b039081169116146105bb5760405162461bcd60e51b81526004016105b290613b3b565b60405180910390fd5b600080546040516001600160a01b03909116907f8be0079c531659141344cd1fd0a4f28419497f9722a3daafe3b4186f6b6457e0908390a3600080546001600160a01b0319169055565b60006103fc60018363ffffffff610fd616565b6000546001600160a01b031690565b61062f611012565b600380546001600160a01b0319166001600160a01b0392909216919091179055565b6000606061065e8361106a565b915091508051600014610684576106846001600160a01b0383168263ffffffff61138116565b505050565b610691610fd2565b6000546001600160a01b039081169116146106be5760405162461bcd60e51b81526004016105b290613b3b565b82518251146106df5760405162461bcd60e51b81526004016105b290613c11565b8351600480546001600160a01b0319166001600160a01b03909216919091179055608084015160085560208401516005556040840151600655606084015160075560005b82518110156107df576107346127be565b604051806080016040528086848151811061074b57fe5b602002602001015160000151600281111561076257fe5b815260200186848151811061077357fe5b6020026020010151602001516001600160a01b0316815260200186848151811061079957fe5b60200260200101516040015181526020018584815181106107b657fe5b6020908102919091010151905290506107d660108263ffffffff6113e316565b50600101610723565b5060005b815181101561084b576107f46127ec565b82828151811061080057fe5b6020908102919091018101518082015190516001600160a01b039081166000908152600b909352604090922080546001600160a01b03191692909116919091179055506001016107e3565b5050505050565b6001600160a01b039081166000908152600b60205260409020541690565b825160a0015161087f8461149d565b50600061088d85858561157f565b855180516020909101519192506108b7916001600160a01b0384169190600063ffffffff61176a16565b61084b6001600160a01b0382168363ffffffff61138116565b60006103fc600c8363ffffffff61180816565b6108eb610fd2565b6000546001600160a01b039081169116146109185760405162461bcd60e51b81526004016105b290613b3b565b6001600160a01b03811661093e5760405162461bcd60e51b81526004016105b290613791565b600080546040516001600160a01b03808516939216917f8be0079c531659141344cd1fd0a4f28419497f9722a3daafe3b4186f6b6457e091a3600080546001600160a01b0319166001600160a01b0392909216919091179055565b336000908152600c60205260408120546109c55760405162461bcd60e51b81526004016105b290613972565b818310156109ef578184840110156109e45760009392909201916109ef565b828203840393508192505b8315610a2b57610a0f6001600160a01b038816868663ffffffff61182b16565b610a2b5760405162461bcd60e51b81526004016105b290613a7f565b8215610abf57600080610a438560016006015461189d565b9092509050610a626001600160a01b038a16898463ffffffff61182b16565b610a7e5760405162461bcd60e51b81526004016105b290613888565b610aa0610a89610618565b6001600160a01b038b16908363ffffffff61182b16565b610abc5760405162461bcd60e51b81526004016105b290613ce8565b50505b60405163c3275c7960e01b81526001600160a01b0387169063c3275c7990610aeb9033906004016134ee565b602060405180830381600087803b158015610b0557600080fd5b505af1158015610b19573d6000803e3d6000fd5b505050506040513d601f19601f82011682018060405250810190610b3d9190612eee565b610b595760405162461bcd60e51b81526004016105b290613cb1565b5060019695505050505050565b80516020918201206001600160a01b039290921660009081529290526040909120541490565b6003820154604051631b95e30560e01b81526000916001600160a01b031690631b95e30590610bbf9085906004016134ee565b60206040518083038186803b158015610bd757600080fd5b505afa158015610beb573d6000803e3d6000fd5b505050506040513d601f19601f8201168201806040525081019061048d9190612e36565b7f6b6f6b75258f8f4cdb6ef275682bc2be3e8b970e5e4417113bd1ea53622d907e90565b60006060610c40846118e6565b80519091508390602083018282826000f5945050506001600160a01b038316610c7b5760405162461bcd60e51b81526004016105b290613be9565b505092915050565b6001600160a01b0380821660009081526002840160205260409020541692915050565b610cae61277f565b606030610cbb85856118f2565b604051610cc89190613498565b6000604051808303816000865af19150503d8060008114610d05576040519150601f19603f3d011682016040523d82523d6000602084013e610d0a565b606091505b50915050610d1781611948565b949350505050565b610d27612797565b610d2f612797565b846000610d3c8686611964565b815260208082019290925260409081016000208151608081018352815460ff8116151582526001600160a01b0361010090910481169482019490945260018201548416928101929092526002015490911660608201529050610d9d8161198c565b610d1757846000610dae868661199e565b815260208082019290925260409081016000208151608081018352815460ff81161515825261010090046001600160a01b0390811694820194909452600182015484169281019290925260020154909116606082015295945050505050565b600061048d83836119b9565b7fad53495153c7c363e98a26920ec679e0e687636458f6908c91cf6deadb19080190565b60008084471015610e605760405162461bcd60e51b81526004016105b290613db2565b8251610e7e5760405162461bcd60e51b81526004016105b2906136f7565b8383516020850187f590506001600160a01b038116610d175760405162461bcd60e51b81526004016105b290613a48565b610eb761277f565b60006060846001600160a01b0316610ece856119d4565b604051610edb9190613498565b600060405180830381855af49150503d8060008114610f16576040519150601f19603f3d011682016040523d82523d6000602084013e610f1b565b606091505b50604080518082019091529115158252602082015295945050505050565b606081604051602001610f4c9190613f3f565b6040516020818303038152906040529050919050565b805160208201fd5b60405163dd678a0760e01b815260009073__ShifterBorrowProxyFactoryLib__________9063dd678a0790610fa69086908690600401613e17565b60206040518083038186803b158015610fbe57600080fd5b505af4158015610beb573d6000803e3d6000fd5b3390565b6001600160a01b038082166000908152600a840160205260408120549091168061048d5760405162461bcd60e51b81526004016105b290613c7c565b600061106560007f6b6f6b75258f8f4cdb6ef275682bc2be3e8b970e5e4417113bd1ea53622d907e60001b6040518060200161104d90612803565b601f1982820381018352601f90910116604052610e3d565b905090565b60006060611076612810565b6040805160a0810182528551518183019081528251808401909352338352865151606090810151929384939184019160208201906110bd90600190600a81046103e8611a27565b905281528751516060908101516020928301529183526040805160a08101825289830180515182528051840151828501528051830151928201929092528151840151938101939093525160809081015190830152919091015284519091506111369061112890611b1b565b85519063ffffffff611b3416565b6111525760405162461bcd60e51b81526004016105b290613af7565b83515160009061116190611b65565b600254909150611180906001600160a01b03168263ffffffff610e0d16565b9350611194846001600160a01b0316611b70565b156111b15760405162461bcd60e51b81526004016105b2906136b5565b6111e68460016040516020016111c791906134e5565b60408051601f19818403018152919052600c919063ffffffff611b7616565b6020850151606001518251600091611204919063ffffffff611b9916565b905061120f82611bc6565b508551518051602090910151611237916001600160a01b03881691600163ffffffff61176a16565b855151516001600160a01b03163314801590611257575085516020015134145b1561131157855151516040516001600160a01b03909116903480156108fc02916000818181858888f19350505050158015611296573d6000803e3d6000fd5b50855151602001516112c69086906112b69060019063ffffffff610b8c16565b886112c087611bdf565b85611bea565b855151602001516112e7906001600160a01b0316338363ffffffff61182b16565b6113035760405162461bcd60e51b81526004016105b2906137d7565b85515160a001519350611379565b855151516001600160a01b031633141561136157855151602001516113559086906113449060019063ffffffff610b8c16565b8861134e87611bdf565b6000611bea565b85604001519350611379565b60405162461bcd60e51b81526004016105b290613b70565b505050915091565b604051630bfceb2b60e31b81526001600160a01b03831690635fe75958906113ad9084906004016135b4565b600060405180830381600087803b1580156113c757600080fd5b505af11580156113db573d6000803e3d6000fd5b505050505050565b6001815160028111156113f257fe5b14156114415760005b81604001515181101561143b576114338383602001518460400151848151811061142157fe5b60200260200101518560600151611c8c565b6001016113fb565b50611499565b60028151600281111561145057fe5b14156114995760005b816040015151811015610684576114918383602001518460400151848151811061147f57fe5b60200260200101518560600151611d16565b600101611459565b5050565b6000808260000151602001516001600160a01b031663313ce5676040518163ffffffff1660e01b815260040160206040518083038186803b1580156114e157600080fd5b505afa1580156114f5573d6000803e3d6000fd5b505050506040513d601f19601f82011682018060405250810190611519919061327a565b905060128160ff16111561153f5760405162461bcd60e51b81526004016105b290613d55565b60085483516060015160ff8316601203600a0a908161155a57fe5b0411156115795760405162461bcd60e51b81526004016105b290613de9565b50919050565b825160800151600090156115a55760405162461bcd60e51b81526004016105b2906139a9565b348460200151146115c85760405162461bcd60e51b81526004016105b29061383c565b6115e16115d485611b1b565b859063ffffffff611b3416565b6115fd5760405162461bcd60e51b81526004016105b290613af7565b611605612830565b508351600061161382611b65565b60408051600080825260208201909252919250611646565b61163361277f565b81526020019060019003908161162b5790505b5060a0830152611654612867565b60405180606001604052808481526020016040518060400160405280336001600160a01b0316815260200161169b87606001518b8b6001611a27909392919063ffffffff16565b81525081526020016116e76188b86116db6116c488602001516001610b8c90919063ffffffff16565b602089015160608a0151919063ffffffff611d2416565b9063ffffffff611d7516565b905290506116f482611bc6565b935061170260018583611db7565b61172483602001518561171484611e56565b600192919063ffffffff611e8d16565b6020830151611744906001600160a01b031633308963ffffffff611f3216565b6117605760405162461bcd60e51b81526004016105b290613bb9565b5050509392505050565b6040516329c8702d60e01b81526001600160a01b038516906329c8702d9061179a9086908690869060040161351b565b602060405180830381600087803b1580156117b457600080fd5b505af11580156117c8573d6000803e3d6000fd5b505050506040513d601f19601f820116820180604052508101906117ec9190612eee565b6105155760405162461bcd60e51b81526004016105b2906138bf565b6001600160a01b0380821660009081526001840160205260409020541692915050565b600080846001600160a01b03166118428585611fa6565b60405161184f9190613498565b6000604051808303816000865af19150503d806000811461188c576040519150601f19603f3d011682016040523d82523d6000602084013e611891565b606091505b50909695505050505050565b6000806118c8670de0b6b3a76400006118bc868663ffffffff611fc316565b9063ffffffff611ffd16565b9050838110156118dc5780840391506118df565b50825b9250929050565b60606103fc308361203f565b6060635f7d2b5760e01b838360405160240161190f929190613650565b60408051601f198184030181529190526020810180516001600160e01b03166001600160e01b0319909316929092179091529392505050565b61195061277f565b818060200190518101906103fc9190612fff565b6000806119708461219e565b905061197c81846121a2565b8051906020012091505092915050565b602001516001600160a01b0316151590565b60006119aa83836121ce565b80519060200120905092915050565b600061048d826119c8856118e6565b805190602001206121e3565b60606309c5eabe60e01b826040516024016119ef919061363d565b60408051601f198184030181529190526020810180516001600160e01b03166001600160e01b03199093169290921790915292915050565b611a2f612894565b8460040154821015611a535760405162461bcd60e51b81526004016105b29061372c565b6000611a6e670de0b6b3a7640000606463ffffffff611ffd16565b9050611a89670de0b6b3a7640000606463ffffffff611ffd16565b611aa5866118bc87670de0b6b3a764000063ffffffff611fc316565b11611ac25760405162461bcd60e51b81526004016105b290613d29565b6000848610611ae457611adf866118bc848863ffffffff611fc316565b611ae6565b815b905060405180608001604052808543018152602001868152602001886005015481526020018281525092505050949350505050565b6000611b26826121f0565b805190602001209050919050565b6000611b4c611b4283612210565b8460400151612240565b8351516001600160a01b03908116911614905092915050565b6000611b268261236e565b3b151590565b80516020918201206001600160a01b039092166000908152929052604090912055565b600061048d670de0b6b3a76400006118bc8560200151602001516060015185611fc390919063ffffffff16565b6002546000906103fc906001600160a01b031683610c33565b6000611b268261238a565b8251516020908101519084015160408082015160608301516080909301519151637bf1bc5b60e11b81526001600160a01b038a169463f7e378b694611c3a948b9492938a91908a9060040161353f565b602060405180830381600087803b158015611c5457600080fd5b505af1158015611c68573d6000803e3d6000fd5b505050506040513d601f19601f820116820180604052508101906113db9190612eee565b80846000611c9a8686611964565b81526020808201929092526040908101600020835181549385015160ff1990941690151517610100600160a81b0319166101006001600160a01b0394851602178155908301516001820180546001600160a01b031990811692851692909217905560609093015160029091018054909316911617905550505050565b80846000611c9a868661199e565b600080611d30846123b1565b90506000611d3e848761242e565b90506000611d586127106118bc848663ffffffff611fc316565b9050611d6a828263ffffffff611d7516565b979650505050505050565b600061048d83836040518060400160405280601e81526020017f536166654d6174683a207375627472616374696f6e206f766572666c6f7700008152506124af565b6060611dc2826124db565b825160200151909150611de190600b860190859063ffffffff6124ee16565b815151611dfa90600b860190859063ffffffff61252216565b8151516040516001600160a01b03909116903480156108fc02916000818181858888f19350505050158015611e33573d6000803e3d6000fd5b50611e48600b8501848363ffffffff611b7616565b815151610515908483612556565b60006103fc611e7c611e67846125a6565b611e70856125d7565b9063ffffffff61260816565b60408401519063ffffffff611d7516565b611e978484610fd6565b6001600160a01b031663185cc75183836040518363ffffffff1660e01b8152600401611ec4929190613502565b602060405180830381600087803b158015611ede57600080fd5b505af1158015611ef2573d6000803e3d6000fd5b505050506040513d601f19601f82011682018060405250810190611f169190612eee565b6105155760405162461bcd60e51b81526004016105b29061392e565b600080856001600160a01b0316611f4a86868661262d565b604051611f579190613498565b6000604051808303816000865af19150503d8060008114611f94576040519150601f19603f3d011682016040523d82523d6000602084013e611f99565b606091505b5090979650505050505050565b606063a9059cbb60e01b838360405160240161190f929190613502565b600082611fd2575060006103fc565b82820282848281611fdf57fe5b041461048d5760405162461bcd60e51b81526004016105b290613ab6565b600061048d83836040518060400160405280601a81526020017f536166654d6174683a206469766973696f6e206279207a65726f000000000000815250612686565b6040805160008152602081019091526060908190612060906044810161363d565b60408051601f198184030181529190526020810180516001600160e01b03166352e831dd60e01b17905280519091506063016001600160401b03811180156120a757600080fd5b506040519080825280601f01601f1916602001820160405280156120d2576020820181803683370190505b507f3d3d606380380380913d393d73bebebebebebebebebebebebebebebebebebebe6020820152600160601b858102602d8301527f5af4602a57600080fd5b602d8060366000396000f3363d3d373d3d3d363d73be6041830152840260608201526e5af43d82803e903d91602b57fd5bf360881b6074820152915060005b8151811015610c7b5781818151811061216557fe5b602001015160f81c60f81b83826063018151811061217f57fe5b60200101906001600160f81b031916908160001a905350600101612150565b3f90565b606082826040516020016121b7929190613480565b604051602081830303815290604052905092915050565b606082826040516020016121b79291906133ec565b600061048d8383306126bd565b606080612204836000015160a00151612705565b905061048d8382612718565b60008160405160200161222391906134b4565b604051602081830303815290604052805190602001209050919050565b600081516041146122635760405162461bcd60e51b81526004016105b29061375a565b60208201516040830151606084015160001a7f7fffffffffffffffffffffffffffffff5d576e7357a4501ddfe92f46681b20a08211156122b55760405162461bcd60e51b81526004016105b2906138ec565b8060ff16601b141580156122cd57508060ff16601c14155b156122ea5760405162461bcd60e51b81526004016105b290613a06565b60006001878386866040516000815260200160405260405161230f949392919061361f565b6020604051602081039080840390855afa158015612331573d6000803e3d6000fd5b5050604051601f1901519150506001600160a01b0381166123645760405162461bcd60e51b81526004016105b29061367e565b9695505050505050565b60608061237e8360a00151612705565b905061048d838261274e565b8051516040908101516020808401518051908201519351606094610f4c949390910161346a565b6000816001600160a01b03166313966db56040518163ffffffff1660e01b815260040160206040518083038186803b1580156123ec57600080fd5b505afa158015612400573d6000803e3d6000fd5b505050506040513d601f19601f820116820180604052508101906124249190613240565b61ffff1692915050565b6040516350b9d97b60e11b81526000906001600160a01b0384169063a173b2f69061245d9085906004016134e5565b602060405180830381600087803b15801561247757600080fd5b505af115801561248b573d6000803e3d6000fd5b505050506040513d601f19601f8201168201806040525081019061048d9190613262565b600081848411156124d35760405162461bcd60e51b81526004016105b2919061363d565b505050900390565b606081604051602001610f4c9190613e63565b6001600160a01b039182166000908152600290930160205260409092208054919092166001600160a01b0319909116179055565b6001600160a01b039182166000908152600190930160205260409092208054919092166001600160a01b0319909116179055565b816001600160a01b0316836001600160a01b03167f9ae84ac2ad8f721c2e62d211eca0ae34951726f8834913af6c5ebb81610bb1f883604051612599919061363d565b60405180910390a3505050565b60006103fc670de0b6b3a76400006118bc846020015160200151606001518560400151611fc390919063ffffffff16565b60006103fc670de0b6b3a76400006118bc846020015160200151604001518560400151611fc390919063ffffffff16565b60008282018381101561048d5760405162461bcd60e51b81526004016105b290613805565b60606323b872dd60e01b84848460405160240161264c93929190613590565b60408051601f198184030181529190526020810180516001600160e01b03166001600160e01b031990931692909217909152949350505050565b600081836126a75760405162461bcd60e51b81526004016105b2919061363d565b5060008385816126b357fe5b0495945050505050565b60008060ff60f81b8386866040516020016126db9493929190613413565b60408051808303601f1901815291905280516020909101206001600160a01b031695945050505050565b606081604051602001610f4c91906135b4565b815160208082015160408084015160608581015185890151608090970151935191966121b79630969592939192918a9101613385565b606082600001518360200151846040015185606001518660800151866040516020016121b796959493929190613325565b60408051808201909152600081526060602082015290565b60408051608081018252600080825260208201819052918101829052606081019190915290565b6040805160808101909152806000815260006020820152606060408201819052016127e7612797565b905290565b604080518082019091526000808252602082015290565b61032a8061403483390190565b6040518060400160405280612823612867565b81526020016127e76128bc565b6040805160c0810182526000808252602082018190529181018290526060808201839052608082019290925260a081019190915290565b604051806060016040528061287a612830565b81526020016128876128f1565b8152602001600081525090565b6040518060800160405280600081526020016000815260200160008152602001600081525090565b6040518060a0016040528060008019168152602001600081526020016000801916815260200160008152602001606081525090565b604051806040016040528060006001600160a01b031681526020016127e7612894565b80356103fc81613ffa565b600082601f83011261292f578081fd5b813561294261293d82613f8c565b613f66565b81815291506020808301908481018184028601820187101561296357600080fd5b60005b8481101561298b5781356129798161401d565b84529282019290820190600101612966565b505050505092915050565b600082601f8301126129a6578081fd5b81356129b461293d82613f8c565b818152915060208083019084810160005b8481101561298b5781358701604080601f19838c030112156129e657600080fd5b6129ef81613f66565b6129fb8b878501612914565b8152818301356001600160401b03811115612a1557600080fd5b612a238c8883870101612c57565b82880152508652505092820192908201906001016129c5565b600082601f830112612a4c578081fd5b8135612a5a61293d82613f8c565b8181529150602080830190848101604080850287018301881015612a7d57600080fd5b6000805b86811015612ace5782848b031215612a97578182fd5b612aa083613f66565b612aaa8b86612914565b8152612ab88b878701612914565b8187015286529484019492820192600101612a81565b5050505050505092915050565b600082601f830112612aeb578081fd5b8135612af961293d82613f8c565b818152915060208083019084810160005b8481101561298b5781358701606080601f19838c03011215612b2b57600080fd5b612b3481613f66565b612b408b878501612ca5565b81526040612b508c828601612914565b87830152828401356001600160401b03811115612b6c57600080fd5b612b7a8d898388010161291f565b9183019190915250865250509282019290820190600101612b0a565b600082601f830112612ba6578081fd5b8135612bb461293d82613f8c565b8181529150602080830190848101608080850287018301881015612bd757600080fd5b6000805b86811015612ace5782848b031215612bf1578182fd5b612bfa83613f66565b612c048b86612c4c565b8152612c128b878701612914565b868201526040612c248c828801612914565b908201526060612c368c878301612914565b9082015286529484019492820192600101612bdb565b80356103fc8161400f565b600082601f830112612c67578081fd5b8135612c7561293d82613fab565b9150808252836020828501011115612c8c57600080fd5b8060208401602084013760009082016020015292915050565b8035600381106103fc57600080fd5b600060608284031215612cc5578081fd5b612ccf6060613f66565b905081356001600160401b0380821115612ce857600080fd5b81840160c08187031215612cfb57600080fd5b612d0560c0613f66565b9250612d118682612914565b8352612d208660208301612914565b60208401526040810135604084015260608101356060840152612d468660808301612c4c565b608084015260a081013582811115612d5d57600080fd5b612d6987828401612996565b60a08501525050818352602084013560208401526040840135915080821115612d9157600080fd5b50612d9e84828501612c57565b60408301525092915050565b600060a08284031215612dbb578081fd5b612dc560a0613f66565b90508135815260208201356020820152604082013560408201526060820135606082015260808201356001600160401b03811115612e0257600080fd5b612e0e84828501612c57565b60808301525092915050565b600060208284031215612e2b578081fd5b813561048d81613ffa565b600060208284031215612e47578081fd5b815161048d81613ffa565b60008060008060008060c08789031215612e6a578182fd5b8635612e7581613ffa565b95506020870135612e8581613ffa565b94506040870135612e9581613ffa565b959894975094956060810135955060808101359460a0909101359350915050565b60008060408385031215612ec8578182fd5b8235612ed381613ffa565b91506020830135612ee38161401d565b809150509250929050565b600060208284031215612eff578081fd5b815161048d8161400f565b600060208284031215612f1b578081fd5b5035919050565b600060208284031215612f33578081fd5b81356001600160401b03811115612f48578182fd5b610d1784828501612c57565b60008060408385031215612f66578182fd5b82356001600160401b0380821115612f7c578384fd5b612f8886838701612c57565b93506020850135915080821115612f9d578283fd5b50612faa85828601612c57565b9150509250929050565b600080600060608486031215612fc8578081fd5b83356001600160401b03811115612fdd578182fd5b612fe986828701612cb4565b9660208601359650604090950135949350505050565b60006020808385031215613011578182fd5b82516001600160401b0380821115613027578384fd5b81850160408188031215613039578485fd5b6130436040613f66565b925080516130508161400f565b83528084015182811115613062578586fd5b019050601f81018613613073578384fd5b805161308161293d82613fab565b8181528785838501011115613094578586fd5b6130a382868301878601613fce565b9383019390935250949350505050565b6000602082840312156130c4578081fd5b81356001600160401b03808211156130da578283fd5b818401606081870312156130ec578384fd5b6130f66060613f66565b9250803582811115613106578485fd5b61311287828401612cb4565b845250602081013582811115613126578485fd5b61313287828401612daa565b602085015250604081013582811115613149578485fd5b61315587828401612996565b6040850152509195945050505050565b60008060008084860361010081121561317c578283fd5b60a0811215613189578283fd5b5061319460a0613f66565b61319e8787612914565b8152602086013560208201526040860135604082015260608601356060820152608086013560808201528094505060a08501356001600160401b03808211156131e5578384fd5b6131f188838901612adb565b945060c0870135915080821115613206578384fd5b61321288838901612b96565b935060e0870135915080821115613227578283fd5b5061323487828801612a3c565b91505092959194509250565b600060208284031215613251578081fd5b815161ffff8116811461048d578182fd5b600060208284031215613273578081fd5b5051919050565b60006020828403121561328b578081fd5b815160ff8116811461048d578182fd5b600060018060a01b038251168352602082015160406020850152610d1760408501825b600081518084526132d6816020860160208601613fce565b601f01601f19169290920160200192915050565b60018060a01b038151168252602081015180516020840152602081015160408401526040810151606084015260608101516080840152505050565b60006bffffffffffffffffffffffff19808960601b168352808860601b1660148401525085602883015284604883015283151560f81b60688301528251613373816069850160208701613fce565b91909101606901979650505050505050565b60006bffffffffffffffffffffffff19808a60601b168352808960601b1660148401525086602883015285604883015284606883015283151560f81b608883015282516133d9816089850160208701613fce565b9190910160890198975050505050505050565b60609290921b6001600160601b03191682526001600160e01b031916601482015260180190565b6001600160f81b031994909416845260609290921b6001600160601b03191660018401526015830152603582015260550190565b92835260609190911b6001600160601b0319166020830152603482015260540190565b9283526020830191909152604082015260600190565b9182526001600160e01b031916602082015260240190565b600082516134aa818460208701613fce565b9190910192915050565b7f19457468657265756d205369676e6564204d6573736167653a0a3332000000008152601c810191909152603c0190565b90815260200190565b6001600160a01b0391909116815260200190565b6001600160a01b03929092168252602082015260400190565b6001600160a01b039384168152919092166020820152901515604082015260600190565b600060018060a01b03808a16835280891660208401525086604083015285606083015284608083015260e060a083015261357c60e08301856132be565b90508260c083015298975050505050505050565b6001600160a01b039384168152919092166020820152604081019190915260600190565b6000602080830181845280855180835260408601915060408482028701019250838701855b8281101561360757603f198886030184526135f585835161329b565b945092850192908501906001016135d9565b5092979650505050505050565b901515815260200190565b93845260ff9290921660208401526040830152606082015260800190565b60006020825261048d60208301846132be565b60006040825261366360408301856132be565b828103602084015261367581856132be565b95945050505050565b60208082526018908201527f45434453413a20696e76616c6964207369676e61747572650000000000000000604082015260600190565b60208082526022908201527f70726f78792068617320616c7265616479206265656e20696e697469616c697a604082015261195960f21b606082015260800190565b6020808252818101527f437265617465323a2062797465636f6465206c656e677468206973207a65726f604082015260600190565b6020808252601490820152731d1a5b595bdd5d081a5b9cdd59999a58da595b9d60621b604082015260600190565b6020808252601f908201527f45434453413a20696e76616c6964207369676e6174757265206c656e67746800604082015260600190565b60208082526026908201527f4f776e61626c653a206e6577206f776e657220697320746865207a65726f206160408201526564647265737360d01b606082015260800190565b6020808252601490820152731ad9595c195c881c185e5bdd5d0819985a5b195960621b604082015260600190565b6020808252601b908201527f536166654d6174683a206164646974696f6e206f766572666c6f770000000000604082015260600190565b6020808252602c908201527f737570706c696564206574686572206973206e6f7420657175616c20746f206760408201526b185cc81c995c5d595cdd195960a21b606082015260800190565b6020808252601a908201527f6661696c656420746f207265706179206c6f73742066756e6473000000000000604082015260600190565b6020808252601390820152727365747570207068617365206661696c75726560681b604082015260600190565b60208082526022908201527f45434453413a20696e76616c6964207369676e6174757265202773272076616c604082015261756560f01b606082015260800190565b60208082526024908201527f696e73756666696369656e742066756e647320696e206c6971756964697479206040820152631c1bdbdb60e21b606082015260800190565b6020808252601d908201527f6e6f742061207265676973746572656420626f72726f772070726f7879000000604082015260600190565b60208082526037908201527f6973206e6f742061206c6f616e20726571756573742c20747279207573696e6760408201527f2065786563757465536869667453616e73426f72726f77000000000000000000606082015260800190565b60208082526022908201527f45434453413a20696e76616c6964207369676e6174757265202776272076616c604082015261756560f01b606082015260800190565b60208082526019908201527f437265617465323a204661696c6564206f6e206465706c6f7900000000000000604082015260600190565b6020808252601f908201527f6661696c656420746f2072657475726e20626f6e6420746f206b656570657200604082015260600190565b60208082526021908201527f536166654d6174683a206d756c7469706c69636174696f6e206f766572666c6f6040820152607760f81b606082015260800190565b60208082526024908201527f6c69717569646974792072657175657374207369676e61747572652072656a6560408201526318dd195960e21b606082015260800190565b6020808252818101527f4f776e61626c653a2063616c6c6572206973206e6f7420746865206f776e6572604082015260600190565b60208082526029908201527f696e636f72726563742067617320737570706c696564207769746820676173206040820152681c995c5d595cdd195960ba1b606082015260800190565b602080825260169082015275189bdb99081cdd589b5a5cdcda5bdb8819985a5b195960521b604082015260600190565b6020808252600e908201526d18dc99585d194c8819985a5b195960921b604082015260600190565b60208082526045908201527f63616e2774207a6970206d6f64756c65207265676973746174696f6e733a206d60408201527f6f64756c65732e6c656e67746820213d206d6f64756c6544657461696c732e6c6060820152640cadccee8d60db1b608082015260a00190565b6020808252818101527f6e6f7420612072656769737465726564206c697175696469747920746f6b656e604082015260600190565b60208082526017908201527f6c6f616e207265736f6c7574696f6e206661696c757265000000000000000000604082015260600190565b60208082526021908201527f6661696c656420746f2072657061792074686520676f7665726e696e672044416040820152604f60f81b606082015260800190565b602080825260129082015271626f6e642062656c6f77206d696e696d756d60701b604082015260600190565b6020808252603e908201527f74686520746f6b656e20737570706c696564206973206e6f742061207368696660408201527f74657220746f6b656e202d2d20646563696d616c7320746f6f20686967680000606082015260800190565b6020808252601d908201527f437265617465323a20696e73756666696369656e742062616c616e6365000000604082015260600190565b6020808252601490820152736c6f616e2065786365656473206d6178696d756d60601b604082015260600190565b918252602082015260400190565b8151151581526020808301516001600160a01b0390811691830191909152604080840151821690830152606092830151169181019190915260800190565b6020808252825160e08383015280516001600160a01b039081166101008501528183015116610120840152604081015161014084015260608101516101608401526080810151151561018084015260a0015160c06101a08401528051600092916101c0850191829190613ed681846134e5565b9350839250859181860284019086015b82841015613f12578482038652613efe82825161329b565b958701956001949094019391508601613ee6565b50858901519450613f2660408901866132ea565b604089015160e089015280965050505050505092915050565b6000602082528251151560208301526020830151604080840152610d1760608401826132be565b6040518181016001600160401b0381118282101715613f8457600080fd5b604052919050565b60006001600160401b03821115613fa1578081fd5b5060209081020190565b60006001600160401b03821115613fc0578081fd5b50601f01601f191660200190565b60005b83811015613fe9578181015183820152602001613fd1565b838111156105155750506000910152565b6001600160a01b03811681146104ae57600080fd5b80151581146104ae57600080fd5b6001600160e01b0319811681146104ae57600080fdfe608060405234801561001057600080fd5b5061030a806100206000396000f3fe60806040526004361061001e5760003560e01c80638e03e6cd14610023575b600080fd5b6100366100313660046101d7565b610038565b005b6001600160a01b03811615610103576100de82826001600160a01b03166370a08231306040518263ffffffff1660e01b81526004016100779190610260565b60206040518083038186803b15801561008f57600080fd5b505afa1580156100a3573d6000803e3d6000fd5b505050506040513d601f19601f820116820180604052508101906100c7919061020f565b6001600160a01b038416919063ffffffff61010f16565b6101035760405162461bcd60e51b81526004016100fa9061028d565b60405180910390fd5b816001600160a01b0316ff5b600080846001600160a01b03166101268585610181565b6040516101339190610227565b6000604051808303816000865af19150503d8060008114610170576040519150601f19603f3d011682016040523d82523d6000602084013e610175565b606091505b50909695505050505050565b606063a9059cbb60e01b838360405160240161019e929190610274565b60408051601f198184030181529190526020810180516001600160e01b03166001600160e01b0319909316929092179091529392505050565b600080604083850312156101e9578182fd5b82356101f4816102bc565b91506020830135610204816102bc565b809150509250929050565b600060208284031215610220578081fd5b5051919050565b60008251815b81811015610247576020818601810151858301520161022d565b818111156102555782828501525b509190910192915050565b6001600160a01b0391909116815260200190565b6001600160a01b03929092168252602082015260400190565b602080825260159082015274657263323020666f7277617264206661696c75726560581b604082015260600190565b6001600160a01b03811681146102d157600080fd5b5056fea26469706673582212207aa4509d2e09eb40f8f468335bdb939d17610a639fae6209424de173c1d20e0864736f6c63430006080033a26469706673582212209cb57340e81ad4b6ec26d811a7c7d137fd32f3f7d04390d1c904e93502095d2664736f6c63430006080033",
  "immutableReferences": {},
  "source": "pragma experimental ABIEncoderV2;\n// SPDX-License-Identifier: MIT\npragma solidity ^0.6.0;\n\nimport { Ownable } from \"@openzeppelin/contracts/access/Ownable.sol\";\nimport { IShifterRegistry } from \"./interfaces/IShifterRegistry.sol\";\nimport { IShifter } from \"./interfaces/IShifter.sol\";\nimport { ShifterPoolLib } from \"./ShifterPoolLib.sol\";\nimport { ShifterBorrowProxyLib } from \"./ShifterBorrowProxyLib.sol\";\nimport { ShifterBorrowProxyFactoryLib } from \"./ShifterBorrowProxyFactoryLib.sol\";\nimport { ShifterBorrowProxy } from \"./ShifterBorrowProxy.sol\";\nimport { BorrowProxy } from \"./BorrowProxy.sol\";\nimport { BorrowProxyLib } from \"./BorrowProxyLib.sol\";\nimport { TokenUtils } from \"./utils/TokenUtils.sol\";\nimport { ViewExecutor } from \"./utils/ViewExecutor.sol\";\nimport { LiquidityToken } from \"./LiquidityToken.sol\";\nimport { SandboxLib } from \"./utils/sandbox/SandboxLib.sol\";\nimport { SafeViewExecutor } from \"./utils/sandbox/SafeViewExecutor.sol\";\nimport { FactoryLib } from \"./FactoryLib.sol\";\nimport { NullCloneConstructor } from \"./NullCloneConstructor.sol\";\nimport { AssetForwarderLib } from \"./adapters/lib/AssetForwarderLib.sol\";\nimport { AssetForwarder } from \"./adapters/lib/AssetForwarder.sol\";\nimport { ERC20 } from \"@openzeppelin/contracts/token/ERC20/ERC20.sol\";\nimport { StringLib } from \"./utils/StringLib.sol\";\nimport { ExtLib } from \"./utils/ExtLib.sol\";\nimport { SafeMath } from \"@openzeppelin/contracts/math/SafeMath.sol\";\n\ncontract ShifterPool is Ownable, SafeViewExecutor, NullCloneConstructor {\n  using SandboxLib for *;\n  using SafeMath for *;\n  using ShifterPoolLib for *;\n  using TokenUtils for *;\n  using StringLib for *;\n  using ExtLib for *;\n  using ShifterBorrowProxyLib for *;\n  using ShifterBorrowProxyFactoryLib for *;\n  using BorrowProxyLib for *;\n  ShifterPoolLib.Isolate isolate;\n  constructor() Ownable() public {\n    isolate.genesis = block.number;\n  }\n  function setup(ShifterPoolLib.SetupParams memory params, BorrowProxyLib.ModuleDetails[] memory moduleDetails, BorrowProxyLib.Module[] memory modules, ShifterPoolLib.LiquidityTokenLaunch[] memory tokenLaunches) public onlyOwner {\n    require(modules.length == moduleDetails.length, \"can't zip module registations: modules.length != moduleDetails.length\");\n    isolate.shifterRegistry = params.shifterRegistry;\n    isolate.maxLoan = params.maxLoan;\n    isolate.minTimeout = params.minTimeout;\n    isolate.poolFee = params.poolFee;\n    isolate.daoFee = params.daoFee;\n    for (uint256 i = 0; i < modules.length; i++) {\n      BorrowProxyLib.ModuleRegistration memory registration = BorrowProxyLib.ModuleRegistration({\n        module: modules[i],\n        target: moduleDetails[i].target,\n        sigs: moduleDetails[i].sigs,\n        moduleType: moduleDetails[i].moduleType\n      });\n      isolate.registry.registryRegisterModule(registration);\n    }\n    for (uint256 i = 0; i < tokenLaunches.length; i++) {\n      ShifterPoolLib.LiquidityTokenLaunch memory launch = tokenLaunches[i];\n      isolate.tokenToLiquidityToken[launch.token] = launch.liqToken;\n    }\n  }\n  function getLiquidityTokenForTokenHandler(address token) public view returns (address) {\n    return isolate.tokenToLiquidityToken[token];\n  }\n  bytes32 constant BORROW_PROXY_IMPLEMENTATION_SALT = 0xfe1e3164ba4910db3c9afd049cd8feb4552390569c846692e6df4ac68aeaa90e;\n  function deployBorrowProxyImplementation() public {\n    isolate.borrowProxyImplementation = isolate.makeBorrowProxy(BORROW_PROXY_IMPLEMENTATION_SALT);\n  }\n  function computeProxyAddress(bytes32 salt) public view returns (address) {\n    return isolate.borrowProxyImplementation.deriveBorrowerAddress(salt);\n  }\n  function deployAssetForwarderImplementation() public {\n    isolate.assetForwarderImplementation = AssetForwarderLib.deployAssetForwarder();\n  }\n\n  function deployAssetForwarderClone(bytes32 salt) public returns (address created) {\n\n    created = FactoryLib.create2Clone(isolate.assetForwarderImplementation, uint256(keccak256(abi.encodePacked(AssetForwarderLib.GET_ASSET_FORWARDER_IMPLEMENTATION_SALT(), msg.sender, salt))));\n\n  }\n  function getAssetForwarderImplementationHandler() public view returns (address implementation) {\n    return isolate.assetForwarderImplementation;\n  }\n  function deployBorrowProxyClone(bytes32 salt) internal returns (address payable created) {\n    created = address(uint160(FactoryLib.create2Clone(isolate.borrowProxyImplementation, uint256(salt))));\n  }\n  function validateUnderMaxLoan(ShifterBorrowProxyLib.LiquidityRequestParcel memory parcel) internal view returns (bool) {\n    uint8 decimals = ERC20(parcel.request.token).decimals();\n    require(decimals <= 18, \"the token supplied is not a shifter token -- decimals too high\");\n    require(parcel.request.amount / 10**(18 - uint256(decimals)) <= isolate.maxLoan, \"loan exceeds maximum\");\n  }\n  function _executeBorrow(ShifterBorrowProxyLib.LiquidityRequestParcel memory liquidityRequestParcel, uint256 bond, uint256 timeoutExpiry) internal returns (address payable proxyAddress) {\n    require(liquidityRequestParcel.request.forbidLoan == false, \"is not a loan request, try using executeShiftSansBorrow\");\n    require(\n      liquidityRequestParcel.gasRequested == msg.value,\n      \"supplied ether is not equal to gas requested\"\n  \n    );\n    require(\n      liquidityRequestParcel.validateSignature(\n        liquidityRequestParcel.computeLiquidityRequestHash()\n      ),\n      \"liquidity request signature rejected\"\n    );\n    ShifterBorrowProxyLib.LiquidityRequest memory liquidityRequest = liquidityRequestParcel.request;\n    bytes32 borrowerSalt = liquidityRequest.computeBorrowerSalt();\n    liquidityRequest.actions = new ShifterBorrowProxyLib.InitializationAction[](0);\n    ShifterBorrowProxyLib.ProxyRecord memory proxyRecord = ShifterBorrowProxyLib.ProxyRecord({\n      request: liquidityRequest,\n      loan: ShifterBorrowProxyLib.LenderRecord(\n        msg.sender,\n        isolate.computeLoanParams(liquidityRequest.amount, bond, timeoutExpiry)\n      ),\n      expected: liquidityRequest.amount.computeExpectedAmount(address(isolate.getShifter(liquidityRequest.token)), liquidityRequest.token).sub(35e3)\n    });\n    proxyAddress = address(uint160(deployBorrowProxyClone(borrowerSalt)));\n    ShifterPoolLib.mapBorrowProxy(isolate, proxyAddress, proxyRecord);\n    isolate.issueLoan(liquidityRequest.token, proxyAddress, proxyRecord.computePostFee());\n    require(liquidityRequest.token.transferTokenFrom(msg.sender, address(this), bond), \"bond submission failed\");\n  }\n  function executeBorrow(ShifterBorrowProxyLib.LiquidityRequestParcel memory liquidityRequestParcel, uint256 bond, uint256 timeoutExpiry) public payable {\n    ShifterBorrowProxyLib.InitializationAction[] memory actions = liquidityRequestParcel.request.actions;\n    validateUnderMaxLoan(liquidityRequestParcel);\n    address payable proxyAddress = _executeBorrow(liquidityRequestParcel, bond, timeoutExpiry);\n    proxyAddress.setupBorrowProxy(liquidityRequestParcel.request.borrower, liquidityRequestParcel.request.token, false);\n    proxyAddress.sendInitializationActions(actions);\n  }\n  function executeShiftSansBorrow(ShifterBorrowProxyLib.SansBorrowShiftParcel memory parcel) public payable {\n    (address payable proxyAddress, ShifterBorrowProxyLib.InitializationAction[] memory actions) = _executeShiftSansBorrow(parcel);\n    if (actions.length != 0) proxyAddress.sendInitializationActions(actions);\n  }\n  function _executeShiftSansBorrow(ShifterBorrowProxyLib.SansBorrowShiftParcel memory parcel) internal returns (address payable proxyAddress, ShifterBorrowProxyLib.InitializationAction[] memory actions) {\n    ShifterBorrowProxyLib.TriggerParcel memory triggerParcel = ShifterBorrowProxyLib.TriggerParcel({\n      record: ShifterBorrowProxyLib.ProxyRecord({\n        expected: parcel.liquidityRequestParcel.request.amount,\n        request: parcel.liquidityRequestParcel.request,\n        loan: ShifterBorrowProxyLib.LenderRecord({\n          keeper: msg.sender,\n          params: isolate.computeLoanParams(parcel.liquidityRequestParcel.request.amount, parcel.liquidityRequestParcel.request.amount / 10, 1000)\n        })\n      }),\n      shiftParameters: ShifterBorrowProxyLib.ShiftParameters({\n        txhash: parcel.shiftParameters.txhash,\n        amount: parcel.shiftParameters.amount,\n        vout: parcel.shiftParameters.vout,\n        pHash: parcel.shiftParameters.pHash,\n        darknodeSignature: parcel.shiftParameters.darknodeSignature\n      })\n    });\n    require(\n      parcel.liquidityRequestParcel.validateSignature(\n        parcel.liquidityRequestParcel.computeLiquidityRequestHash()\n      ),\n      \"liquidity request signature rejected\"\n    );\n    bytes32 borrowerSalt = parcel.liquidityRequestParcel.request.computeBorrowerSalt();\n    proxyAddress = address(uint160(isolate.borrowProxyImplementation.deriveBorrowerAddress(borrowerSalt)));\n    require(!proxyAddress.isContract(), \"proxy has already been initialized\");\n    isolate.borrowProxyController.mapProxyRecord(proxyAddress, abi.encodePacked(uint256(1)));\n    uint256 fee = triggerParcel.record.computeAdjustedKeeperFee(parcel.shiftParameters.amount);\n    deployBorrowProxyClone(borrowerSalt);\n    proxyAddress.setupBorrowProxy(parcel.liquidityRequestParcel.request.borrower, parcel.liquidityRequestParcel.request.token, true);\n    if (parcel.liquidityRequestParcel.request.borrower != msg.sender && msg.value == parcel.liquidityRequestParcel.gasRequested) {\n      parcel.liquidityRequestParcel.request.borrower.transfer(msg.value);\n      ShifterPoolLib.sendMint(proxyAddress, address(isolate.getShifter(parcel.liquidityRequestParcel.request.token)), parcel, triggerParcel.computeNHash(), fee);\n      require(parcel.liquidityRequestParcel.request.token.sendToken(msg.sender, fee), \"keeper payout failed\");\n      actions = parcel.liquidityRequestParcel.request.actions;\n    } else if (parcel.liquidityRequestParcel.request.borrower == msg.sender) {\n      ShifterPoolLib.sendMint(proxyAddress, address(isolate.getShifter(parcel.liquidityRequestParcel.request.token)), parcel, triggerParcel.computeNHash(), 0);\n      actions = parcel.actions;\n    }\n\n    else revert(\"incorrect gas supplied with gas requested\");\n  }\n  function validateProxyRecordHandler(bytes memory proxyRecord) public view returns (bool) {\n    return isolate.borrowProxyController.validateProxyRecord(msg.sender, proxyRecord);\n  }\n  function getProxyTokenHandler(address proxyAddress) public view returns (address) {\n    return isolate.borrowProxyController.getProxyToken(proxyAddress);\n  }\n  function getProxyOwnerHandler(address user) public view returns (address) {\n    return isolate.borrowProxyController.getProxyOwner(user);\n  }\n  function getShifterHandler(address token) public view returns (IShifter) {\n    return isolate.getShifter(token);\n  }\n  function getLiquidityTokenHandler(address token) public view returns (LiquidityToken) {\n    return LiquidityToken(isolate.getLiquidityToken(token));\n  }\n  function fetchModuleHandler(address to, bytes4 sig) public view returns (BorrowProxyLib.Module memory) {\n    return isolate.registry.resolveModule(to, sig);\n  }\n  function relayResolveLoan(address token, address liquidityToken, address keeper, uint256 bond, uint256 repay, uint256 originalAmount) public returns (bool) {\n    require(isolate.borrowProxyController.proxyInitializerRecord[msg.sender] != bytes32(0x0), \"not a registered borrow proxy\");\n    if (repay < originalAmount) {\n      if (repay + bond < originalAmount) {\n        repay = repay + bond;\n        bond = 0;\n      } else {\n        bond -= originalAmount - repay;\n        repay = originalAmount;\n      }\n    }\n    if (bond != 0) require(token.sendToken(keeper, bond), \"failed to return bond to keeper\");\n    if (repay != 0) {\n       (uint256 amount, uint256 daoAmount) = ShifterPoolLib.splitForDAO(repay, isolate.daoFee);\n       require(token.sendToken(liquidityToken, amount), \"failed to repay lost funds\");\n       require(token.sendToken(owner(), daoAmount), \"failed to repay the governing DAO\");\n    }\n    require(LiquidityToken(liquidityToken).resolveLoan(msg.sender), \"loan resolution failure\");\n    return true;\n  }\n}\n",
  "sourcePath": "/home/ray/0confirmation/packages/0confirmation-sol-truffle/contracts/ShifterPool.sol",
  "compiler": {
    "name": "solc",
    "version": "0.6.8+commit.0bbfe453.Emscripten.clang"
  },
  "schemaVersion": "3.2.0",
  "updatedAt": "2020-07-17T03:24:22.888Z",
  "devdoc": {
    "methods": {
      "owner()": {
        "details": "Returns the address of the current owner."
      },
      "renounceOwnership()": {
        "details": "Leaves the contract without owner. It will not be possible to call `onlyOwner` functions anymore. Can only be called by the current owner.     * NOTE: Renouncing ownership will leave the contract without an owner, thereby removing any functionality that is only available to the owner."
      },
      "transferOwnership(address)": {
        "details": "Transfers ownership of the contract to a new account (`newOwner`). Can only be called by the current owner."
      }
    }
  },
  "userdoc": {
    "methods": {}
  }
}