{
  "contractName": "ShifterBorrowProxy",
  "abi": [
    {
      "stateMutability": "payable",
      "type": "fallback"
    },
    {
      "inputs": [
        {
          "internalType": "bytes",
          "name": "creationCode",
          "type": "bytes"
        },
        {
          "internalType": "bytes",
          "name": "context",
          "type": "bytes"
        }
      ],
      "name": "_executeSafeView",
      "outputs": [],
      "stateMutability": "nonpayable",
      "type": "function"
    },
    {
      "inputs": [
        {
          "internalType": "bytes",
          "name": "consData",
          "type": "bytes"
        }
      ],
      "name": "cloneConstructor",
      "outputs": [],
      "stateMutability": "nonpayable",
      "type": "function"
    },
    {
      "inputs": [
        {
          "internalType": "address",
          "name": "to",
          "type": "address"
        },
        {
          "internalType": "uint256",
          "name": "value",
          "type": "uint256"
        },
        {
          "internalType": "bytes",
          "name": "payload",
          "type": "bytes"
        }
      ],
      "name": "proxy",
      "outputs": [],
      "stateMutability": "nonpayable",
      "type": "function"
    },
    {
      "inputs": [
        {
          "internalType": "bytes",
          "name": "creationCode",
          "type": "bytes"
        },
        {
          "internalType": "bytes",
          "name": "context",
          "type": "bytes"
        }
      ],
      "name": "query",
      "outputs": [
        {
          "components": [
            {
              "internalType": "bool",
              "name": "success",
              "type": "bool"
            },
            {
              "internalType": "bytes",
              "name": "data",
              "type": "bytes"
            }
          ],
          "internalType": "struct SafeViewLib.SafeViewResult",
          "name": "",
          "type": "tuple"
        }
      ],
      "stateMutability": "nonpayable",
      "type": "function"
    },
    {
      "inputs": [
        {
          "internalType": "address",
          "name": "owner",
          "type": "address"
        },
        {
          "internalType": "address",
          "name": "token",
          "type": "address"
        },
        {
          "internalType": "bool",
          "name": "unbound",
          "type": "bool"
        }
      ],
      "name": "setup",
      "outputs": [
        {
          "internalType": "bool",
          "name": "",
          "type": "bool"
        }
      ],
      "stateMutability": "nonpayable",
      "type": "function"
    },
    {
      "stateMutability": "payable",
      "type": "receive"
    },
    {
      "inputs": [
        {
          "internalType": "bytes",
          "name": "data",
          "type": "bytes"
        }
      ],
      "name": "repayLoan",
      "outputs": [
        {
          "internalType": "bool",
          "name": "",
          "type": "bool"
        }
      ],
      "stateMutability": "nonpayable",
      "type": "function"
    },
    {
      "inputs": [
        {
          "internalType": "address",
          "name": "shifter",
          "type": "address"
        },
        {
          "internalType": "address",
          "name": "token",
          "type": "address"
        },
        {
          "internalType": "bytes32",
          "name": "pHash",
          "type": "bytes32"
        },
        {
          "internalType": "uint256",
          "name": "amount",
          "type": "uint256"
        },
        {
          "internalType": "bytes32",
          "name": "nHash",
          "type": "bytes32"
        },
        {
          "internalType": "bytes",
          "name": "darknodeSignature",
          "type": "bytes"
        },
        {
          "internalType": "uint256",
          "name": "fee",
          "type": "uint256"
        }
      ],
      "name": "relayMint",
      "outputs": [
        {
          "internalType": "bool",
          "name": "",
          "type": "bool"
        }
      ],
      "stateMutability": "nonpayable",
      "type": "function"
    },
    {
      "inputs": [
        {
          "internalType": "bytes",
          "name": "data",
          "type": "bytes"
        }
      ],
      "name": "defaultLoan",
      "outputs": [],
      "stateMutability": "nonpayable",
      "type": "function"
    },
    {
      "inputs": [
        {
          "components": [
            {
              "internalType": "address",
              "name": "to",
              "type": "address"
            },
            {
              "internalType": "bytes",
              "name": "txData",
              "type": "bytes"
            }
          ],
          "internalType": "struct ShifterBorrowProxyLib.InitializationAction[]",
          "name": "actions",
          "type": "tuple[]"
        }
      ],
      "name": "receiveInitializationActions",
      "outputs": [],
      "stateMutability": "nonpayable",
      "type": "function"
    }
  ],
  "bytecode": "0x608060405234801561001057600080fd5b5061336a806100206000396000f3fe60806040526004361061008a5760003560e01c806356b8e1461161005957806356b8e146146101365780635f7d2b57146101565780635fe7595814610176578063c4ddf36314610196578063f7e378b6146101b657610091565b80632692f25a1461009357806329c8702d146100b357806334686eaf146100e957806352e831dd1461011657610091565b3661009157005b005b34801561009f57600080fd5b506100916100ae3660046125ee565b6101d6565b3480156100bf57600080fd5b506100d36100ce36600461251e565b6103fc565b6040516100e09190612c17565b60405180910390f35b3480156100f557600080fd5b50610109610104366004612796565b610480565b6040516100e0919061320e565b34801561012257600080fd5b50610091610131366004612764565b6104a1565b34801561014257600080fd5b50610091610151366004612764565b6104a4565b34801561016257600080fd5b50610091610171366004612796565b6104d2565b34801561018257600080fd5b50610091610191366004612644565b61051d565b3480156101a257600080fd5b506100d36101b1366004612764565b610554565b3480156101c257600080fd5b506100d36101d1366004612568565b6105ac565b6001546001600160a01b03163314806101f957506000546001600160a01b031633145b8061020357503330145b6102285760405162461bcd60e51b815260040161021f90612de1565b60405180910390fd5b600061024461023f8383600463ffffffff6106b016565b6106d9565b60e01b9050610251612082565b6102636000868463ffffffff6106f616565b6002546001600160a01b03166020820152600054909150600160a01b900460ff1680156102935750604081015151155b156103365760006060866001600160a01b031686866040516102b59190612b45565b60006040518083038185875af1925050503d80600081146102f2576040519150601f19603f3d011682016040523d82523d6000602084013e6102f7565b606091505b5091509150816103235761030a816107a9565b60405162461bcd60e51b815260040161021f9190612c51565b61032d828261089c565b505050506103f7565b61034381604001516108b1565b61035f5760405162461bcd60e51b815260040161021f90612d47565b6000606061037483868863ffffffff6108c316565b91509150816103865761030a816107a9565b60408084015101516001600160a01b0316156103b65760408084015101516103b69060079063ffffffff6109d316565b6040830151606001516001600160a01b0316156103e8576040830151606001516103e89060099063ffffffff6109d316565b6103f2828261089c565b505050505b505050565b6001546000906001600160a01b0316156104285760405162461bcd60e51b815260040161021f90612cbe565b5060008054600180546001600160a01b039687166001600160a01b0319918216178255931515600160a01b0260ff60a01b19928516331792909216919091179091556002805493909416929091169190911790915590565b6104886120a6565b610498838363ffffffff610a2e16565b90505b92915050565b50565b60006104ae6120be565b6000806104ba85610a9f565b93509350935093506104ce84848484610c44565b5033ff5b60006104e760006104e1610d6e565b85610d92565b9050606061050c6105076001600160a01b0384168563ffffffff610e0416565b610e8e565b905061051781610eb7565b50505050565b6000546001600160a01b031633146105475760405162461bcd60e51b815260040161021f90612dac565b61055081610ebf565b5050565b60008061055f6120be565b60008061056b86611149565b935093509350935061057f84848484610c44565b1561059e578251516105919084611390565b60019450505050506105a7565b60009450505050505b919050565b600080546001600160a01b031633146105d75760405162461bcd60e51b815260040161021f90612ecf565b60405163159ab14d60e01b81526001600160a01b0389169063159ab14d90610609908990899089908990600401612c22565b602060405180830381600087803b15801561062357600080fd5b505af1158015610637573d6000803e3d6000fd5b505050506040513d601f19601f8201168201806040525081019061065b9190612a43565b506106766001600160a01b038816338463ffffffff6113d516565b6106925760405162461bcd60e51b815260040161021f90612f86565b6000805460ff60a01b1916600160a01b179055979650505050505050565b6106b86120eb565b6106c28484611447565b815260208101919091526040810191909152919050565b80516020820151600091906106ee828261144e565b949350505050565b6106fe612082565b604080516060810182526001600160a01b03808616825260028701548116602083015286548351630220891b60e51b8152929384019291169063441123609061074d9088908890600401612bae565b608060405180830381600087803b15801561076757600080fd5b505af115801561077b573d6000803e3d6000fd5b505050506040513d601f19601f8201168201806040525081019061079f9190612844565b9052949350505050565b60608151600014156107ef575060408051808201909152601c81527f636170747572656420656d70747920726576657274206275666665720000000060208201526105a7565b6308c379a061080461023f84600060046106b0565b63ffffffff161461082f576040518060600160405280603f81526020016132f6603f913990506105a7565b606061084a61084584600463ffffffff61146b16565b61148f565b905080516000141561089157505060408051808201909152601d81527f636170747572656420656d70747920726576657274206d65737361676500000060208201526105a7565b60606106ee826114fe565b816108a957805181602001fd5b805181602001f35b602001516001600160a01b0316151590565b60006060600060608660400151602001516001600160a01b03165a6109766040518061010001604052808b60400151602001516001600160a01b031681526020018b60400151604001516001600160a01b031681526020018b60400151606001516001600160a01b031681526020018b602001516001600160a01b03168152602001326001600160a01b031681526020018b600001516001600160a01b031681526020018981526020018a815250611514565b6040516109839190612b45565b6000604051808303818686f4925050503d80600081146109bf576040519150601f19603f3d011682016040523d82523d6000602084013e6109c4565b606091505b50909890975095505050505050565b6001600160a01b03811660009081526020839052604090205460ff16156109f957610550565b6001808301805491820181556000908152602090200180546001600160a01b0383166001600160a01b03199091161790555050565b610a366120a6565b606030610a438585611567565b604051610a509190612b45565b6000604051808303816000865af19150503d8060008114610a8d576040519150601f19603f3d011682016040523d82523d6000602084013e610a92565b606091505b509150506106ee816115bd565b6000610aa96120be565b600654600090819060ff1615610ad15760405162461bcd60e51b815260040161021f90612d1c565b600054600160a01b900460ff1615610afb5760405162461bcd60e51b815260040161021f90612e61565b610b04856115d9565b610b205760405162461bcd60e51b815260040161021f90612d7e565b610b298561165c565b6008805460408051602080840282018101909252828152939650606093929190830182828015610b8257602002820191906000526020600020905b81546001600160a01b03168152600190910190602001808311610b64575b50505050509050438460200151602001516000015110610c36576006805461ff0019166101001790556004545b8151811015610c05576207a1205a1080610beb5750610be9828281518110610bd357fe5b60200260200101516001600160a01b0316611678565b155b15610bfd576004555060009350610c3d565b600101610baf565b5080516004556000548451602001516001600160a01b039091169350610c2b90306116f9565b915060019450610c3b565b600094505b505b9193509193565b60008415610d63576000610c6084866000015160200151611778565b855160200151909150610c83906001600160a01b0316858563ffffffff6113d516565b610c9f5760405162461bcd60e51b815260040161021f90612f06565b845160209081015181870151805190830151909201516040808901519051637bd4a67160e11b81526001600160a01b0389169463f7a94ce294610ceb94909388938b9190600401612b75565b602060405180830381600087803b158015610d0557600080fd5b505af1158015610d19573d6000803e3d6000fd5b505050506040513d601f19601f82011682018060405250810190610d3d9190612748565b610d595760405162461bcd60e51b815260040161021f90612fb4565b60019150506106ee565b506000949350505050565b7fad53495153c7c363e98a26920ec679e0e687636458f6908c91cf6deadb19080190565b60008084471015610db55760405162461bcd60e51b815260040161021f90612feb565b8251610dd35760405162461bcd60e51b815260040161021f90612c89565b8383516020850187f590506001600160a01b0381166106ee5760405162461bcd60e51b815260040161021f90612e2a565b610e0c6120a6565b60006060846001600160a01b0316610e23856117f7565b604051610e309190612b45565b600060405180830381855af49150503d8060008114610e6b576040519150601f19603f3d011682016040523d82523d6000602084013e610e70565b606091505b50604080518082019091529115158252602082015295945050505050565b606081604051602001610ea1919061320e565b6040516020818303038152906040529050919050565b805160208201fd5b6060610ec96120a6565b610ed283611812565b905060005b835181101561113457606082602001518281518110610ef257fe5b6020026020010151905060006001600160a01b031681600081518110610f1457fe5b6020026020010151600001516001600160a01b0316141561103957610f5081600081518110610f3f57fe5b60200260200101516020015161197a565b6001600160a01b03168352610f636120a6565b610f8682600081518110610f7357fe5b60200260200101516020015184866119b0565b604080516000808252602082019092529192505082600081518110610fa757fe5b6020908102919091018101510152805115610fe757610fd7846020015184610fd28460200151611a3d565b611a53565b610fe2575050611134565b611037565b806020015182600081518110610ff957fe5b60200260200101516060018190525080600001518260008151811061101a57fe5b60200260200101516040019015159081151581525050505061112c565b505b8260200151828151811061104957fe5b6020026020010151905060008090505b81518110156111295760006060306001600160a01b031661108c85858151811061107f57fe5b6020026020010151611b52565b6040516110999190612b45565b6000604051808303816000865af19150503d80600081146110d6576040519150601f19603f3d011682016040523d82523d6000602084013e6110db565b606091505b5091509150818484815181106110ed57fe5b602002602001015160400190151590811515815250508084848151811061111057fe5b6020908102919091010151606001525050600101611059565b50505b600101610ed7565b506111428160200151611b78565b9392505050565b60006111536120be565b60008061115e61210c565b61116786611c7c565b805160408051600080825260208201909252919650919250906111a0565b61118d6120a6565b8152602001906001900390816111855790505b5081515160a0015280516111bc906111b790611c98565b6115d9565b6111d85760405162461bcd60e51b815260040161021f90612d7e565b600654610100900460ff16156112005760405162461bcd60e51b815260040161021f90612f4f565b805160408101516000916112199163ffffffff611cab16565b600080546006546001600160a01b0390911696509192509060ff1661125a576006805460ff1916600117905561124e83611ce4565b6003819055905061125f565b506003545b600a805460408051602080840282018101909252828152606093909290918301828280156112b657602002820191906000526020600020905b81546001600160a01b03168152600190910190602001808311611298575b50506005549394505050505b815181101561131f576207a1205a10806112fe57506112fc8282815181106112e657fe5b60200260200101516001600160a01b0316611d9a565b155b15611317576005555060009650869350610c3d92505050565b6001016112c2565b506000805460ff60a01b1916600160a01b1790558351602080820151519151015161135c916001600160a01b03909116908563ffffffff6113d516565b6113785760405162461bcd60e51b815260040161021f90612cee565b50855160600181905260019650039150509193509193565b816001600160a01b03167fd4a2c42f515a640658700fb519346fe0aad9eab268df0ec337c57c07c75b0a55826040516113c99190613132565b60405180910390a25050565b600080846001600160a01b03166113ec8585611db2565b6040516113f99190612b45565b6000604051808303816000865af19150503d8060008114611436576040519150601f19603f3d011682016040523d82523d6000602084013e61143b565b606091505b50909695505050505050565b0160200190565b6000600180600884021b0380836020038503511691505092915050565b6114736120eb565b818351101561148157825191505b6104988383848651036106b0565b6020810151606090806001600160401b03811180156114ad57600080fd5b506040519080825280601f01601f1916602001820160405280156114d8576020820181803683370190505b50835190925060006114e984611dcf565b90506114f6818385611dd5565b505050919050565b60608180602001905181019061049b9190612812565b6060633c52e5a160e01b8260405160240161152f9190613022565b60408051601f198184030181529190526020810180516001600160e01b03166001600160e01b03199093169290921790915292915050565b6060635f7d2b5760e01b8383604051602401611584929190612c64565b60408051601f198184030181529190526020810180516001600160e01b03166001600160e01b0319909316929092179091529392505050565b6115c56120a6565b8180602001905181019061049b91906128de565b600080546040516308f6049560e01b81526001600160a01b03909116906308f604959061160a908590600401612c51565b602060405180830381600087803b15801561162457600080fd5b505af1158015611638573d6000803e3d6000fd5b505050506040513d601f19601f8201168201806040525081019061049b9190612748565b6116646120be565b8180602001905181019061049b91906128ac565b6000806060836001600160a01b031661169085611e13565b60405161169d9190612b45565b600060405180830381855af49150503d80600081146116d8576040519150601f19603f3d011682016040523d82523d6000602084013e6116dd565b606091505b5091509150816116f05761030a816107a9565b6106ee81611e56565b6040516370a0823160e01b81526000906001600160a01b038416906370a0823190611728908590600401612b61565b60206040518083038186803b15801561174057600080fd5b505afa158015611754573d6000803e3d6000fd5b505050506040513d601f19601f820116820180604052508101906104989190612a43565b6040516303cc556d60e51b81526000906001600160a01b0384169063798aada0906117a7908590600401612b61565b60206040518083038186803b1580156117bf57600080fd5b505afa1580156117d3573d6000803e3d6000fd5b505050506040513d601f19601f8201168201806040525081019061049891906127f6565b60606309c5eabe60e01b8260405160240161152f9190612c51565b61181a6120a6565b606082516001600160401b038111801561183357600080fd5b5060405190808252806020026020018201604052801561186757816020015b60608152602001906001900390816118525790505b50905060005b835181101561195d5760408051600180825281830190925290816020015b61189361212c565b81526020019060019003908161188b579050508282815181106118b257fe5b60200260200101819052508381815181106118c957fe5b6020026020010151600001518282815181106118e157fe5b60200260200101516000815181106118f557fe5b60209081029190910101516001600160a01b039091169052835184908290811061191b57fe5b60200260200101516020015182828151811061193357fe5b602002602001015160008151811061194757fe5b602090810291909101810151015260010161186d565b506040805180820190915260008152602081019190915292915050565b600061049b7fad53495153c7c363e98a26920ec679e0e687636458f6908c91cf6deadb19080160001b8380519060200120611e6c565b6119b86120a6565b6119c0612152565b82516001600160a01b031660208201528315611a1b576060836020015185815181106119e857fe5b602002602001015190508051600014611a195780600182510381518110611a0b57fe5b602090810291909101015182525b505b611a34611a2782611e79565b869063ffffffff610a2e16565b95945050505050565b60608180602001905181019061049b9190612716565b6000606082516001600160401b0381118015611a6e57600080fd5b50604051908082528060200260200182016040528015611aa857816020015b611a9561212c565b815260200190600190039081611a8d5790505b50905060005b8151811015611b2e57838181518110611ac357fe5b602002602001015160200151828281518110611adb57fe5b602002602001015160200181905250838181518110611af657fe5b602002602001015160000151828281518110611b0e57fe5b60209081029190910101516001600160a01b039091169052600101611aae565b5080858581518110611b3c57fe5b6020908102919091010152511515949350505050565b80516020820151604051606092631349792d60e11b9261152f9260009190602401612bd1565b60606000805b8351811015611bad57838181518110611b9357fe5b602002602001015151820191508080600101915050611b7e565b50806001600160401b0381118015611bc457600080fd5b50604051908082528060200260200182016040528015611bfe57816020015b611beb61212c565b815260200190600190039081611be35790505b5091506000805b84518110156114f65760005b858281518110611c1d57fe5b602002602001015151811015611c7357858281518110611c3957fe5b60200260200101518181518110611c4c57fe5b6020026020010151858481518110611c6057fe5b6020908102919091010152600101611c11565b50600101611c05565b611c8461210c565b8180602001905181019061049b919061295d565b606081604051602001610ea19190613132565b6000610498670de0b6b3a7640000611cd88560200151602001516060015185611e8c90919063ffffffff16565b9063ffffffff611ec616565b80515160200151600090611cf790611f08565b6001600160a01b031663159ab14d836020015160400151846020015160600151611d2086611f89565b8660200151608001516040518563ffffffff1660e01b8152600401611d489493929190612c22565b602060405180830381600087803b158015611d6257600080fd5b505af1158015611d76573d6000803e3d6000fd5b505050506040513d601f19601f8201168201806040525081019061049b9190612a43565b6000806060836001600160a01b031661169085611fa2565b606063a9059cbb60e01b8383604051602401611584929190612bfe565b60200190565b5b60208110611df5578151835260209283019290910190601f1901611dd6565b600180600883602003021b0380845116811984511617845250505050565b606081604051602401611e269190612b61565b60408051601f198184030181529190526020810180516001600160e01b03166305f0caad60e31b17905292915050565b60008180602001905181019061049b9190612748565b6000610498838330611fe5565b606081604051602001610ea191906130b7565b600082611e9b5750600061049b565b82820282848281611ea857fe5b04146104985760405162461bcd60e51b815260040161021f90612e8e565b600061049883836040518060400160405280601a81526020017f536166654d6174683a206469766973696f6e206279207a65726f000000000000815250612024565b600080546040516307ef1e3760e21b81526001600160a01b0390911690631fbc78dc90611f39908590600401612b61565b60206040518083038186803b158015611f5157600080fd5b505afa158015611f65573d6000803e3d6000fd5b505050506040513d601f19601f8201168201806040525081019061049b91906127f6565b6000611f948261205b565b805190602001209050919050565b606081604051602401611fb59190612b61565b60408051601f198184030181529190526020810180516001600160e01b0316639f7c73e960e01b17905292915050565b60008060ff60f81b8386866040516020016120039493929190612af6565b60408051808303601f19018152919052805160209091012095945050505050565b600081836120455760405162461bcd60e51b815260040161021f9190612c51565b50600083858161205157fe5b0495945050505050565b8051516040908101516020808401518051908201519351606094610ea19493909101612b2f565b60408051606081018252600080825260208201529081016120a1612172565b905290565b60408051808201909152600081526060602082015290565b60405180606001604052806120d1612199565b81526020016120de6121d0565b8152602001600081525090565b60405180606001604052806000815260200160008152602001600081525090565b604051806040016040528061211f6120be565b81526020016120a16121f3565b604080516080810182526000808252606060208301819052928201528181019190915290565b604051806040016040528061216561212c565b8152600060209091015290565b60408051608081018252600080825260208201819052918101829052606081019190915290565b6040805160c0810182526000808252602082018190529181018290526060808201839052608082019290925260a081019190915290565b604051806040016040528060006001600160a01b031681526020016120a1612228565b6040518060a0016040528060008019168152602001600081526020016000801916815260200160008152602001606081525090565b6040518060800160405280600081526020016000815260200160008152602001600081525090565b803561049b816132d2565b805161049b816132d2565b600082601f830112612276578081fd5b81516122896122848261325b565b613235565b818152915060208083019084810160005b848110156123125781518701604080601f19838c030112156122bb57600080fd5b6122c481613235565b858301516122d1816132d2565b8152828201516001600160401b038111156122eb57600080fd5b6122f98c8883870101612376565b828801525086525050928201929082019060010161229a565b505050505092915050565b805161049b816132e7565b600082601f830112612338578081fd5b81356123466122848261327a565b915080825283602082850101111561235d57600080fd5b8060208401602084013760009082016020015292915050565b600082601f830112612386578081fd5b81516123946122848261327a565b91508082528360208285010111156123ab57600080fd5b6123bc8160208401602086016132a6565b5092915050565b600081830360a08112156123d5578182fd5b6123df6040613235565b915082516123ec816132d2565b82526080601f198201121561240057600080fd5b5061240b6080613235565b602083015181526040830151602082015260608301516040820152608083015160608201528060208301525092915050565b600060e0828403121561244e578081fd5b6124586060613235565b905081516001600160401b038082111561247157600080fd5b81840160c0818703121561248457600080fd5b61248e60c0613235565b925061249a868261225b565b83526124a9866020830161225b565b602084015260408101516040840152606081015160608401526124cf866080830161231d565b608084015260a0810151828111156124e657600080fd5b6124f287828401612266565b60a0850152505050815261250983602084016123c3565b602082015260c0820151604082015292915050565b600080600060608486031215612532578283fd5b833561253d816132d2565b9250602084013561254d816132d2565b9150604084013561255d816132e7565b809150509250925092565b600080600080600080600060e0888a031215612582578485fd5b873561258d816132d2565b9650602088013561259d816132d2565b955060408801359450606088013593506080880135925060a08801356001600160401b038111156125cc578283fd5b6125d88a828b01612328565b92505060c0880135905092959891949750929550565b600080600060608486031215612602578081fd5b833561260d816132d2565b92506020840135915060408401356001600160401b0381111561262e578182fd5b61263a86828701612328565b9150509250925092565b60006020808385031215612656578182fd5b82356001600160401b038082111561266c578384fd5b81850186601f82011261267d578485fd5b8035925061268d6122848461325b565b83815284810190828601875b868110156127075781358501604080601f19838f030112156126b9578a8bfd5b6126c281613235565b6126ce8e8c8501612250565b815281830135898111156126e0578c8dfd5b6126ee8f8d83870101612328565b828d015250865250509287019290870190600101612699565b50909998505050505050505050565b600060208284031215612727578081fd5b81516001600160401b0381111561273c578182fd5b6106ee84828501612266565b600060208284031215612759578081fd5b8151610498816132e7565b600060208284031215612775578081fd5b81356001600160401b0381111561278a578182fd5b6106ee84828501612328565b600080604083850312156127a8578182fd5b82356001600160401b03808211156127be578384fd5b6127ca86838701612328565b935060208501359150808211156127df578283fd5b506127ec85828601612328565b9150509250929050565b600060208284031215612807578081fd5b8151610498816132d2565b600060208284031215612823578081fd5b81516001600160401b03811115612838578182fd5b6106ee84828501612376565b600060808284031215612855578081fd5b61285f6080613235565b825161286a816132e7565b8152602083015161287a816132d2565b6020820152604083015161288d816132d2565b604082015260608301516128a0816132d2565b60608201529392505050565b6000602082840312156128bd578081fd5b81516001600160401b038111156128d2578182fd5b6106ee8482850161243d565b6000602082840312156128ef578081fd5b81516001600160401b0380821115612905578283fd5b81840160408187031215612917578384fd5b6129216040613235565b9250805161292e816132e7565b8352602081015182811115612941578485fd5b61294d87828401612376565b6020850152509195945050505050565b60006020828403121561296e578081fd5b81516001600160401b0380821115612984578283fd5b81840160408187031215612996578384fd5b6129a06040613235565b92508051828111156129b0578485fd5b6129bc8782840161243d565b8452506020810151828111156129d0578485fd5b80820160a081890312156129e2578586fd5b6129ec60a0613235565b9250805183526020810151602084015260408101516040840152606081015160608401526080810151915083821115612a23578586fd5b612a2f88838301612376565b608084015250506020830152509392505050565b600060208284031215612a54578081fd5b5051919050565b600060018060a01b0382511683526020820151604060208501526106ee6040850182612a8f565b6001600160a01b03169052565b60008151808452612aa78160208601602086016132a6565b601f01601f19169290920160200192915050565b60018060a01b038151168252602081015180516020840152602081015160408401526040810151606084015260608101516080840152505050565b6001600160f81b031994909416845260609290921b6bffffffffffffffffffffffff191660018401526015830152603582015260550190565b9283526020830191909152604082015260600190565b60008251612b578184602087016132a6565b9190910192915050565b6001600160a01b0391909116815260200190565b6001600160a01b03968716815294861660208601529290941660408401526060830152608082019290925260a081019190915260c00190565b6001600160a01b039290921682526001600160e01b031916602082015260400190565b6001600160a01b038416815260ff83166020820152606060408201819052600090611a3490830184612a8f565b6001600160a01b03929092168252602082015260400190565b901515815260200190565b600085825284602083015283604083015260806060830152612c476080830184612a8f565b9695505050505050565b6000602082526104986020830184612a8f565b600060408252612c776040830185612a8f565b8281036020840152611a348185612a8f565b6020808252818101527f437265617465323a2062797465636f6465206c656e677468206973207a65726f604082015260600190565b60208082526016908201527563616e277420696e697469616c697a6520747769636560501b604082015260600190565b6020808252601490820152731ad9595c195c881c185e5bdd5d0819985a5b195960621b604082015260600190565b6020808252601190820152701b1bd85b8818995a5b99c81c995c185a59607a1b604082015260600190565b6020808252601f908201527f66756e6374696f6e2068616e646c6572206e6f74207265676973746572656400604082015260600190565b6020808252601490820152731c1c9bde1e481c9958dbdc99081a5b9d985b1a5960621b604082015260600190565b6020808252818101527f6d7573742062652063616c6c65642066726f6d207368696674657220706f6f6c604082015260600190565b60208082526029908201527f626f72726f772070726f78792063616e206f6e6c792062652075736564206279604082015268103137b93937bbb2b960b91b606082015260800190565b60208082526019908201527f437265617465323a204661696c6564206f6e206465706c6f7900000000000000604082015260600190565b6020808252601390820152721b1bd85b88185b1c9958591e481c995c185a59606a1b604082015260600190565b60208082526021908201527f536166654d6174683a206d756c7469706c69636174696f6e206f766572666c6f6040820152607760f81b606082015260800190565b6020808252601e908201527f6d7573742062652063616c6c6564206279207368696674657220706f6f6c0000604082015260600190565b60208082526029908201527f6661696c656420746f20617070726f766520706f6f6c20666f7220746f6b656e604082015268103a3930b739b332b960b91b606082015260800190565b60208082526019908201527f70726f7879206973206265696e67206c69717569646174656400000000000000604082015260600190565b6020808252601490820152733330b4b632b2103a379039b2b732103a37b5b2b760611b604082015260600190565b60208082526017908201527f6c6f616e207265736f6c7574696f6e206661696c757265000000000000000000604082015260600190565b6020808252601d908201527f437265617465323a20696e73756666696369656e742062616c616e6365000000604082015260600190565b60006020825260018060a01b038084511660208401528060208501511660408401525060408301516130576060840182612a82565b50606083015161306a6080840182612a82565b50608083015161307d60a0840182612a82565b5060a083015161309060c0840182612a82565b5060c083015160e083015260e08301516101008081850152506106ee610120840182612a8f565b60006020825282516040602084015260018060a01b0380825116606085015260208201516080808601526130ee60e0860182612a8f565b6040840151151560a08701526060840151868203605f190160c088015291506131178183612a8f565b93505050806020860151166040850152508091505092915050565b6020808252825160e08383015280516001600160a01b039081166101008501528183015116610120840152604081015161014084015260608101516101608401526080810151151561018084015260a0015160c06101a08401528051600092916101c08501918291906131a5818461329d565b9350839250859181860284019086015b828410156131e15784820386526131cd828251612a5b565b9587019560019490940193915086016131b5565b508589015194506131f56040890186612abb565b604089015160e089015280965050505050505092915050565b60006020825282511515602083015260208301516040808401526106ee6060840182612a8f565b6040518181016001600160401b038111828210171561325357600080fd5b604052919050565b60006001600160401b03821115613270578081fd5b5060209081020190565b60006001600160401b0382111561328f578081fd5b50601f01601f191660200190565b90815260200190565b60005b838110156132c15781810151838201526020016132a9565b838111156105175750506000910152565b6001600160a01b03811681146104a157600080fd5b80151581146104a157600080fdfe6361707475726564206120726576657274206572726f722c2062757420697420646f65736e277420636f6e666f726d20746f20746865207374616e64617264a2646970667358221220d25cf1f49070915e6b6c9ae1bcf68a4125cb865841fd3a280f4be4cb8522c06a64736f6c63430006080033",
  "immutableReferences": {},
  "source": "pragma experimental ABIEncoderV2;\n// SPDX-License-Identifier: MIT\npragma solidity ^0.6.0;\n\nimport { TokenUtils } from \"./utils/TokenUtils.sol\";\nimport { LiquidityToken } from \"./LiquidityToken.sol\";\nimport { IERC20 } from \"@openzeppelin/contracts/token/ERC20/IERC20.sol\";\nimport { SafeViewExecutor } from \"./utils/sandbox/SafeViewExecutor.sol\";\nimport { SandboxLib } from \"./utils/sandbox/SandboxLib.sol\";\nimport { StringLib } from \"./utils/StringLib.sol\";\nimport { NullCloneConstructor } from \"./NullCloneConstructor.sol\";\nimport { BorrowProxy } from \"./BorrowProxy.sol\";\nimport { ShifterBorrowProxyLib } from \"./ShifterBorrowProxyLib.sol\";\nimport { ShifterPool } from \"./ShifterPool.sol\";\nimport { IShifter } from \"./interfaces/IShifter.sol\";\n\ncontract ShifterBorrowProxy is BorrowProxy, SafeViewExecutor, NullCloneConstructor {\n  using ShifterBorrowProxyLib for *;\n  using StringLib for *;\n  using SandboxLib for *;\n  using TokenUtils for *;\n  uint256 constant MINIMUM_GAS_CONTINUE = 5e5;\n  function getShifter(address token) internal view returns (IShifter shifter) {\n    shifter = ShifterPool(isolate.masterAddress).getShifterHandler(token);\n  }\n  function mint(ShifterBorrowProxyLib.TriggerParcel memory parcel) internal returns (uint256 amount) {\n    amount = getShifter(parcel.record.request.token).mint(parcel.shiftParameters.pHash, parcel.shiftParameters.amount, parcel.computeNHash(), parcel.shiftParameters.darknodeSignature);\n  }\n  function repayLoan(bytes memory data) public returns (bool) {\n    (bool success, ShifterBorrowProxyLib.ProxyRecord memory record, address pool, uint256 repayAmount) = _repayLoan(data);\n    if (maybeRelayResolveLoan(success, record, pool, repayAmount)) {\n      ShifterBorrowProxyLib.emitShifterBorrowProxyRepaid(record.request.borrower, record);\n      return true;\n    } else return false;\n  }\n  function _repayLoan(bytes memory data) internal returns (bool success, ShifterBorrowProxyLib.ProxyRecord memory record, address pool, uint256 repayAmount) {\n    (ShifterBorrowProxyLib.TriggerParcel memory parcel) = data.decodeTriggerParcel();\n    record = parcel.record;\n    parcel.record.request.actions = new ShifterBorrowProxyLib.InitializationAction[](0);\n    require(validateProxyRecord(parcel.record.encodeProxyRecord()), \"proxy record invalid\");\n    require(!isolate.isLiquidating, \"proxy is being liquidated\");\n    uint256 fee = parcel.record.computeAdjustedKeeperFee(parcel.record.expected);\n    pool = isolate.masterAddress;\n    uint256 amount;\n    if (!isolate.isRepaying) {\n      isolate.isRepaying = true;\n      isolate.actualizedShift = amount = mint(parcel);\n    } else amount = isolate.actualizedShift;\n    address[] memory set = isolate.repaymentSet.set;\n    for (uint256 i = isolate.repaymentIndex; i < set.length; i++) {\n      if (gasleft() < MINIMUM_GAS_CONTINUE || !set[i].delegateRepay()) {\n        isolate.repaymentIndex = i;\n        return (false, record, pool, 0);\n      }\n    }\n    isolate.unbound = true;\n    require(parcel.record.request.token.sendToken(parcel.record.loan.keeper, fee), \"keeper payout failed\");\n    record.request.amount = amount;\n    repayAmount = amount - fee;\n    success = true;\n  }\n  function relayMint(address shifter, address token, bytes32 pHash, uint256 amount, bytes32 nHash, bytes memory darknodeSignature, uint256 fee) public returns (bool) {\n    require(isolate.masterAddress == msg.sender, \"must be called by shifter pool\");\n    IShifter(shifter).mint(pHash, amount, nHash, darknodeSignature);\n    require(token.sendToken(msg.sender, fee), \"failed to send token\");\n    isolate.unbound = true;\n  }\n  function getBalanceOf(address token, address user) internal view returns (uint256) {\n    return IERC20(token).balanceOf(user);\n  }\n  function getLiquidityToken(address pool, address token) internal view returns (address liqToken) {\n    liqToken = address(ShifterPool(pool).getLiquidityTokenHandler(token));\n  }\n  function maybeRelayResolveLoan(bool success, ShifterBorrowProxyLib.ProxyRecord memory record, address pool, uint256 repayPool) internal returns (bool) {\n    if (success) {\n      address liqToken = getLiquidityToken(pool, record.request.token);\n      require(record.request.token.sendToken(pool, repayPool), \"failed to approve pool for token transfer\");\n      require(ShifterPool(pool).relayResolveLoan(record.request.token, liqToken, record.loan.keeper, record.loan.params.bond, repayPool, record.expected), \"loan resolution failure\");\n      return true;\n    }\n    return false;\n  }\n  function defaultLoan(bytes memory data) public {\n    (bool success, ShifterBorrowProxyLib.ProxyRecord memory record, address pool, uint256 postBalance) = _defaultLoan(data);\n    maybeRelayResolveLoan(success, record, pool, postBalance);\n    selfdestruct(msg.sender);\n  }\n  function _defaultLoan(bytes memory data) internal returns (bool success, ShifterBorrowProxyLib.ProxyRecord memory record, address pool, uint256 postBalance) {\n    require(!isolate.isRepaying, \"loan being repaid\");\n    require(!isolate.unbound, \"loan already repaid\");\n    require(validateProxyRecord(data), \"proxy record invalid\");\n    record = data.decodeProxyRecord();\n    address[] memory set = isolate.liquidationSet.set;\n    if (record.loan.params.timeoutExpiry >= block.number) {\n      isolate.isLiquidating = true;\n      for (uint256 i = isolate.liquidationIndex; i < set.length; i++) {\n        if (gasleft() < MINIMUM_GAS_CONTINUE || !set[i].delegateLiquidate()) {\n          isolate.liquidationIndex = i;\n          return (false, record, pool, postBalance);\n        }\n      }\n      isolate.liquidationIndex = set.length;\n      pool = isolate.masterAddress;\n      postBalance = getBalanceOf(record.request.token, address(this));\n      success = true;\n    } else {\n      success = false;\n    }\n  }\n  function receiveInitializationActions(ShifterBorrowProxyLib.InitializationAction[] memory actions) public {\n    require(msg.sender == address(isolate.masterAddress), \"must be called from shifter pool\");\n    actions.processActions();\n  }\n  fallback() external payable override {}\n  receive() external payable override {}\n}\n",
  "sourcePath": "/home/ray/0confirmation/packages/0confirmation-sol-truffle/contracts/ShifterBorrowProxy.sol",
  "compiler": {
    "name": "solc",
    "version": "0.6.8+commit.0bbfe453.Emscripten.clang"
  },
  "schemaVersion": "3.2.2",
  "updatedAt": "2020-07-17T18:20:37.283Z",
  "devdoc": {
    "methods": {}
  },
  "userdoc": {
    "methods": {}
  }
}