{
  "contractName": "SmartFinalityProxyKeeper",
  "abi": [
    {
      "inputs": [
        {
          "internalType": "address",
          "name": "shifterPool",
          "type": "address"
        },
        {
          "internalType": "uint256",
          "name": "confirmationThreshold",
          "type": "uint256"
        },
        {
          "internalType": "address",
          "name": "link",
          "type": "address"
        }
      ],
      "stateMutability": "nonpayable",
      "type": "constructor"
    },
    {
      "anonymous": false,
      "inputs": [
        {
          "indexed": true,
          "internalType": "bytes32",
          "name": "id",
          "type": "bytes32"
        }
      ],
      "name": "ChainlinkCancelled",
      "type": "event"
    },
    {
      "anonymous": false,
      "inputs": [
        {
          "indexed": true,
          "internalType": "bytes32",
          "name": "id",
          "type": "bytes32"
        }
      ],
      "name": "ChainlinkFulfilled",
      "type": "event"
    },
    {
      "anonymous": false,
      "inputs": [
        {
          "indexed": true,
          "internalType": "bytes32",
          "name": "id",
          "type": "bytes32"
        }
      ],
      "name": "ChainlinkRequested",
      "type": "event"
    },
    {
      "inputs": [],
      "name": "isolate",
      "outputs": [
        {
          "internalType": "address",
          "name": "shifterPool",
          "type": "address"
        },
        {
          "internalType": "uint256",
          "name": "confirmationThreshold",
          "type": "uint256"
        },
        {
          "internalType": "bytes32",
          "name": "reqId",
          "type": "bytes32"
        }
      ],
      "stateMutability": "view",
      "type": "function"
    },
    {
      "inputs": [
        {
          "components": [
            {
              "components": [
                {
                  "internalType": "address payable",
                  "name": "borrower",
                  "type": "address"
                },
                {
                  "internalType": "address",
                  "name": "token",
                  "type": "address"
                },
                {
                  "internalType": "bytes32",
                  "name": "nonce",
                  "type": "bytes32"
                },
                {
                  "internalType": "uint256",
                  "name": "amount",
                  "type": "uint256"
                },
                {
                  "internalType": "bool",
                  "name": "forbidLoan",
                  "type": "bool"
                },
                {
                  "components": [
                    {
                      "internalType": "address",
                      "name": "to",
                      "type": "address"
                    },
                    {
                      "internalType": "bytes",
                      "name": "txData",
                      "type": "bytes"
                    }
                  ],
                  "internalType": "struct ShifterBorrowProxyLib.InitializationAction[]",
                  "name": "actions",
                  "type": "tuple[]"
                }
              ],
              "internalType": "struct ShifterBorrowProxyLib.LiquidityRequest",
              "name": "request",
              "type": "tuple"
            },
            {
              "internalType": "uint256",
              "name": "gasRequested",
              "type": "uint256"
            },
            {
              "internalType": "bytes",
              "name": "signature",
              "type": "bytes"
            }
          ],
          "internalType": "struct ShifterBorrowProxyLib.LiquidityRequestParcel",
          "name": "parcel",
          "type": "tuple"
        },
        {
          "internalType": "address",
          "name": "mpkh",
          "type": "address"
        },
        {
          "internalType": "bool",
          "name": "btcTestnet",
          "type": "bool"
        },
        {
          "internalType": "uint256",
          "name": "",
          "type": "uint256"
        }
      ],
      "name": "queryOracleConfirmations",
      "outputs": [],
      "stateMutability": "nonpayable",
      "type": "function"
    },
    {
      "inputs": [
        {
          "internalType": "bytes32",
          "name": "requestId",
          "type": "bytes32"
        },
        {
          "internalType": "uint256",
          "name": "value",
          "type": "uint256"
        }
      ],
      "name": "fulfillCheckConfirmations",
      "outputs": [],
      "stateMutability": "nonpayable",
      "type": "function"
    },
    {
      "inputs": [
        {
          "internalType": "address",
          "name": "proxyAddress",
          "type": "address"
        }
      ],
      "name": "peekFinalityRecord",
      "outputs": [
        {
          "internalType": "enum SmartFinalityLib.FinalityState",
          "name": "",
          "type": "uint8"
        },
        {
          "internalType": "address",
          "name": "",
          "type": "address"
        },
        {
          "internalType": "uint256",
          "name": "",
          "type": "uint256"
        },
        {
          "internalType": "uint256",
          "name": "",
          "type": "uint256"
        }
      ],
      "stateMutability": "view",
      "type": "function"
    }
  ],
  "bytecode": "0x608060405260016004553480156200001657600080fd5b50604051620019c5380380620019c583398101604081905262000039916200019f565b600680546001600160a01b0319166001600160a01b0385811691909117909155600783905581161562000080576200007a816001600160e01b036200009c16565b62000093565b620000936001600160e01b03620000be16565b505050620001e1565b600280546001600160a01b0319166001600160a01b0392909216919091179055565b6200015a73c89bd4e1632d3a43cb03aaad5262cbe4038bc5716001600160a01b03166338cc48316040518163ffffffff1660e01b815260040160206040518083038186803b1580156200011057600080fd5b505afa15801562000125573d6000803e3d6000fd5b505050506040513d601f19601f820116820180604052508101906200014b91906200017a565b6001600160e01b036200009c16565b565b80516001600160a01b03811681146200017457600080fd5b92915050565b6000602082840312156200018c578081fd5b6200019883836200015c565b9392505050565b600080600060608486031215620001b4578182fd5b620001c085856200015c565b925060208401519150620001d885604086016200015c565b90509250925092565b6117d480620001f16000396000f3fe608060405234801561001057600080fd5b506004361061004c5760003560e01c80631eb01977146100515780635b3f9b7f146100715780635e91541914610086578063689771c3146100a9575b600080fd5b6100596100bc565b60405161006893929190611344565b60405180910390f35b61008461007f366004611033565b6100d4565b005b610099610094366004610fbe565b61031d565b6040516100689493929190611497565b6100846100b7366004611012565b610355565b6006546007546008546001600160a01b039092169183565b60006100e38560000151610424565b90506100ee8561043d565b6101135760405162461bcd60e51b815260040161010a906116f7565b60405180910390fd5b600061012660068363ffffffff61047616565b9050600061013460066104fd565b6001600160a01b0383166000908152600960205260408120919250815460ff16600381111561015f57fe5b148061017a57506003815460ff16600381111561017857fe5b145b6101965760405162461bcd60e51b815260040161010a90611636565b604080516080810182526001808252835461010090046001600160a01b0390811660208085019190915285830154848601528c5160609081015190850152908716600090815260099091529290922081518154929391929091839160ff19169083600381111561020257fe5b0217905550602082015181546001600160a01b0390911661010002610100600160a81b03199091161781556040820151600182015560609091015160029091015561024b610e30565b61025d833063689771c360e01b61051f565b60408051808201909152600381526219d95d60ea1b60208201529091506102d1906102c36102928c8c8c63ffffffff61054a16565b60075461029e90610560565b6040516020016102af9291906112b8565b604051602081830303815290604052610638565b83919063ffffffff61063b16565b60006102e582670de0b6b3a764000061066a565b6000908152600a6020526040902080546001600160a01b0319166001600160a01b039690961695909517909455505050505050505050565b6001600160a01b0390811660009081526009602052604090208054600182015460029092015460ff8216946101009092049093169290565b60008281526005602052604090205482906001600160a01b0316331461038d5760405162461bcd60e51b815260040161010a906116af565b60008181526005602052604080822080546001600160a01b03191690555182917f7cc135e0cebb02c3480ae5d74d377283180a2601f8f644edf7987b009316c63a91a26000838152600a60209081526040808320546001600160a01b031680845260099092529091206002810154841061041157805460ff1916600217815561041d565b805460ff191660031781555b5050505050565b600061042f8261068a565b805190602001209050919050565b600061045d61045361044e846106a6565b6106b1565b83604001516106e1565b8251516001600160a01b0390811691161490505b919050565b8154604051632a7ece6b60e11b81526000916001600160a01b0316906354fd9cd6906104a6908590600401611470565b60206040518083038186803b1580156104be57600080fd5b505afa1580156104d2573d6000803e3d6000fd5b505050506040513d601f19601f820116820180604052508101906104f69190610fda565b9392505050565b600281015461051381600163ffffffff61080f16565b60029092019190915590565b610527610e30565b61052f610e30565b6105418186868663ffffffff61083416565b95945050505050565b5050604080516020810190915260008152919050565b60608161058557506040805180820190915260018152600360fc1b6020820152610471565b8160005b811561059d57600101600a82049150610589565b60608167ffffffffffffffff811180156105b657600080fd5b506040519080825280601f01601f1916602001820160405280156105e1576020820181803683370190505b50905060001982015b851561062f57600a860660300160f81b8282806001900393508151811061060d57fe5b60200101906001600160f81b031916908160001a905350600a860495506105ea565b50949350505050565b90565b6080830151610650908363ffffffff61087116565b6080830151610665908263ffffffff61087116565b505050565b6003546000906104f6906001600160a01b0316848461088e565b92915050565b60608061069a8360a001516109cd565b90506104f683826109f6565b600061042f82610a3e565b6000816040516020016106c49190611287565b604051602081830303815290604052805190602001209050919050565b600081516041146107045760405162461bcd60e51b815260040161010a90611501565b60208201516040830151606084015160001a7f7fffffffffffffffffffffffffffffff5d576e7357a4501ddfe92f46681b20a08211156107565760405162461bcd60e51b815260040161010a906115b2565b8060ff16601b1415801561076e57508060ff16601c14155b1561078b5760405162461bcd60e51b815260040161010a906115f4565b6000600187838686604051600081526020016040526040516107b09493929190611479565b6020604051602081039080840390855afa1580156107d2573d6000803e3d6000fd5b5050604051601f1901519150506001600160a01b0381166108055760405162461bcd60e51b815260040161010a906114ca565b9695505050505050565b6000828201838110156104f65760405162461bcd60e51b815260040161010a90611538565b61083c610e30565b61084c8560800151610100610a5e565b50509183526001600160a01b031660208301526001600160e01b031916604082015290565b61087e8260038351610a98565b610665828263ffffffff610ba816565b6000306004546040516020016108a5929190611265565b60408051808303601f19018152918152815160209283012060045460608701526000818152600590935281832080546001600160a01b0319166001600160a01b038916179055905190925082917fb5e6e01e79f91267dc17b4e6314d5d4d03593d2ceee0fbb452b750bd70ea5af991a26002546001600160a01b0316634000aea0858461093187610bc2565b6040518463ffffffff1660e01b815260040161094f939291906113cd565b602060405180830381600087803b15801561096957600080fd5b505af115801561097d573d6000803e3d6000fd5b505050506040513d601f19601f820116820180604052508101906109a19190610ff6565b6109bd5760405162461bcd60e51b815260040161010a9061156f565b6004805460010190559392505050565b6060816040516020016109e091906113f4565b6040516020818303038152906040529050919050565b60608260000151836020015184604001518560600151866080015186604051602001610a279695949392919061119e565b604051602081830303815290604052905092915050565b606080610a52836000015160a001516109cd565b90506104f68382610c3e565b610a66610e65565b6020820615610a7b5760208206602003820191505b506020828101829052604080518085526000815290920101905290565b60178111610abf57610ab98360e0600585901b16831763ffffffff610c7416565b50610665565b60ff8111610af557610ae2836018611fe0600586901b161763ffffffff610c7416565b50610ab98382600163ffffffff610c8c16565b61ffff8111610b2c57610b19836019611fe0600586901b161763ffffffff610c7416565b50610ab98382600263ffffffff610c8c16565b63ffffffff8111610b6557610b5283601a611fe0600586901b161763ffffffff610c7416565b50610ab98382600463ffffffff610c8c16565b67ffffffffffffffff811161066557610b8f83601b611fe0600586901b161763ffffffff610c7416565b50610ba28382600863ffffffff610c8c16565b50505050565b610bb0610e65565b6104f683846000015151848551610cad565b6060634042994660e01b60008084600001518560200151866040015187606001516001896080015160000151604051602401610c05989796959493929190611365565b60408051601f198184030181529190526020810180516001600160e01b03166001600160e01b0319909316929092179091529050919050565b81516020808201516040808401516060858101518589015160809097015193519196610a279630969592939192918a91016111fe565b610c7c610e65565b6104f68384600001515184610d59565b610c94610e65565b610ca5848560000151518585610da4565b949350505050565b610cb5610e65565b8251821115610cc357600080fd5b84602001518285011115610ced57610ced85610ce58760200151878601610e02565b600202610e19565b600080865180518760208301019350808887011115610d0c5787860182525b505050602084015b60208410610d335780518252601f199093019260209182019101610d14565b51815160001960208690036101000a019081169019919091161790525083949350505050565b610d61610e65565b83602001518310610d7d57610d7d848560200151600202610e19565b835180516020858301018481535080851415610d9a576001810182525b5093949350505050565b610dac610e65565b84602001518483011115610dc957610dc985858401600202610e19565b60006001836101000a039050855183868201018583198251161781525080518487011115610df75783860181525b509495945050505050565b600081831115610e13575081610684565b50919050565b8151610e258383610a5e565b50610ba28382610ba8565b6040805160a081018252600080825260208201819052918101829052606081019190915260808101610e60610e65565b905290565b604051806040016040528060608152602001600081525090565b803561068481611778565b600082601f830112610e9a578081fd5b813567ffffffffffffffff80821115610eb1578283fd5b6020610ec08182850201611725565b838152935080840185820160005b85811015610f3e5781358801604080601f19838d03011215610eef57600080fd5b610ef881611725565b610f048c888501610e7f565b81528183013588811115610f1757600080fd5b610f258d8983870101610f55565b8289015250855250509183019190830190600101610ece565b50505050505092915050565b803561068481611790565b600082601f830112610f65578081fd5b813567ffffffffffffffff811115610f7b578182fd5b610f8e601f8201601f1916602001611725565b9150808252836020828501011115610fa557600080fd5b8060208401602084013760009082016020015292915050565b600060208284031215610fcf578081fd5b81356104f681611778565b600060208284031215610feb578081fd5b81516104f681611778565b600060208284031215611007578081fd5b81516104f681611790565b60008060408385031215611024578081fd5b50508035926020909101359150565b60008060008060808587031215611048578182fd5b843567ffffffffffffffff8082111561105f578384fd5b8187016060818a031215611071578485fd5b61107b6060611725565b925080358281111561108b578586fd5b80820160c0818c03121561109d578687fd5b6110a760c0611725565b91506110b38b82610e7f565b82526110c28b60208301610e7f565b602083015260408101356040830152606081013560608301526110e88b60808301610f4a565b608083015260a0810135848111156110fe578788fd5b61110a8c828401610e8a565b60a0840152505083526020818101359084015260408101358281111561112e578586fd5b61113a8a828401610f55565b6040850152505050809450506111538660208701610e7f565b92506111628660408701610f4a565b9396929550929360600135925050565b6000815180845261118a81602086016020860161174c565b601f01601f19169290920160200192915050565b60006bffffffffffffffffffffffff19808960601b168352808860601b1660148401525085602883015284604883015283151560f81b606883015282516111ec81606985016020870161174c565b91909101606901979650505050505050565b60006bffffffffffffffffffffffff19808a60601b168352808960601b1660148401525086602883015285604883015284606883015283151560f81b6088830152825161125281608985016020870161174c565b9190910160890198975050505050505050565b60609290921b6bffffffffffffffffffffffff19168252601482015260340190565b7f19457468657265756d205369676e6564204d6573736167653a0a3332000000008152601c810191909152603c0190565b60007f68747470733a2f2f626c6f636b636861696e2e696e666f2f712f67657472656382526e65697665646279616464726573732f60881b6020830152835161130881602f85016020880161174c565b8083016e3f636f6e6669726d6174696f6e733d60881b602f8201528451915061133882603e83016020880161174c565b01603e01949350505050565b6001600160a01b039390931683526020830191909152604082015260600190565b6001600160a01b0389811682526020820189905260408201889052861660608201526001600160e01b03198516608082015260a0810184905260c0810183905261010060e082018190526000906113be83820185611172565b9b9a5050505050505050505050565b600060018060a01b0385168252836020830152606060408301526105416060830184611172565b60208082528251828201819052600091906040908185019080840286018301878501865b8381101561146257888303603f19018552815180516001600160a01b031684528781015188850188905261144e88860182611172565b968901969450505090860190600101611418565b509098975050505050505050565b90815260200190565b93845260ff9290921660208401526040830152606082015260800190565b60808101600486106114a557fe5b9481526001600160a01b03939093166020840152604083019190915260609091015290565b60208082526018908201527f45434453413a20696e76616c6964207369676e61747572650000000000000000604082015260600190565b6020808252601f908201527f45434453413a20696e76616c6964207369676e6174757265206c656e67746800604082015260600190565b6020808252601b908201527f536166654d6174683a206164646974696f6e206f766572666c6f770000000000604082015260600190565b60208082526023908201527f756e61626c6520746f207472616e73666572416e6443616c6c20746f206f7261604082015262636c6560e81b606082015260800190565b60208082526022908201527f45434453413a20696e76616c6964207369676e6174757265202773272076616c604082015261756560f01b606082015260800190565b60208082526022908201527f45434453413a20696e76616c6964207369676e6174757265202776272076616c604082015261756560f01b606082015260800190565b60208082526053908201527f6f7261636c652072657175657374207374696c6c20696e2070726f677265737360408201527f2c206f7220616c7265616479207265736f6c76656420776974682073756666696060820152726369656e7420636f6e6669726d6174696f6e7360681b608082015260a00190565b60208082526028908201527f536f75726365206d75737420626520746865206f7261636c65206f6620746865604082015267081c995c5d595cdd60c21b606082015260800190565b6020808252601490820152731cda59db985d1d5c99481a5cc81a5b9d985b1a5960621b604082015260600190565b60405181810167ffffffffffffffff8111828210171561174457600080fd5b604052919050565b60005b8381101561176757818101518382015260200161174f565b83811115610ba25750506000910152565b6001600160a01b038116811461178d57600080fd5b50565b801515811461178d57600080fdfea2646970667358221220a4cb15ccdc4688a99f57223aababf06838be8156c1b61c9a639f156efbfc129a64736f6c63430006080033",
  "immutableReferences": {},
  "source": "pragma experimental ABIEncoderV2;\n// SPDX-License-Identifier: MIT\npragma solidity ^0.6.0;\n\nimport { ChainlinkClient } from \"@chainlink/contracts/src/v0.6/ChainlinkClient.sol\";\nimport { Chainlink } from \"@chainlink/contracts/src/v0.6/Chainlink.sol\";\n\nimport { SmartFinalityLib } from \"./SmartFinalityLib.sol\";\nimport { SmartFinalityProxyKeeperLib } from \"./SmartFinalityProxyKeeperLib.sol\";\nimport { ShifterBorrowProxyLib } from \"../ShifterBorrowProxyLib.sol\";\nimport { StringLib } from \"../utils/StringLib.sol\";\n\ncontract SmartFinalityProxyKeeper is ChainlinkClient {\n  using SmartFinalityProxyKeeperLib for *;\n  using ShifterBorrowProxyLib for *;\n  using StringLib for *;\n  SmartFinalityProxyKeeperLib.Isolate public isolate;\n  constructor(address shifterPool, uint256 confirmationThreshold, address link) public {\n    isolate.shifterPool = shifterPool;\n    isolate.confirmationThreshold = confirmationThreshold;\n    if (link != address(0x0)) setChainlinkToken(link);\n    else setPublicChainlinkToken();\n  }\n  function queryOracleConfirmations(ShifterBorrowProxyLib.LiquidityRequestParcel memory parcel, address mpkh, bool btcTestnet, uint256 /* bond */) public {\n    bytes32 salt = parcel.request.computeBorrowerSalt();\n    require(parcel.validateSignature(), \"signature is invalid\");\n    address proxyAddress = isolate.computeProxyAddress(salt);\n    bytes32 jobId = isolate.getNextId();\n    SmartFinalityLib.FinalityCheckRecord storage record = isolate.finalityCheck[proxyAddress];\n    require(record.state == SmartFinalityLib.FinalityState.UNINITIALIZED || record.state == SmartFinalityLib.FinalityState.INSUFFICIENT_CONFIRMATIONS, \"oracle request still in progress, or already resolved with sufficient confirmations\");\n    isolate.finalityCheck[proxyAddress] = SmartFinalityLib.FinalityCheckRecord({\n      proxiedKeeper: record.proxiedKeeper,\n      bond: record.bond,\n      amount: parcel.request.amount,\n      state: SmartFinalityLib.FinalityState.AWAITING_ORACLE\n    });\n    Chainlink.Request memory req = buildChainlinkRequest(\n      jobId,\n      address(this),\n      this.fulfillCheckConfirmations.selector\n    );\n    req.add(\n      \"get\",\n      abi.encodePacked(\n        \"https://blockchain.info/q/getreceivedbyaddress/\",\n        parcel.computeDepositAddress(mpkh, btcTestnet),\n        \"?confirmations=\",\n        isolate.confirmationThreshold.toString()\n      ).toString()\n    );\n    bytes32 requestId = sendChainlinkRequest(req, 1 * LINK);\n    isolate.reqIdToAddress[requestId] = proxyAddress; \n  }\n  function fulfillCheckConfirmations(bytes32 requestId, uint256 value) public recordChainlinkFulfillment(requestId) {\n    address proxyAddress = isolate.reqIdToAddress[requestId];\n    SmartFinalityLib.FinalityCheckRecord storage record = isolate.finalityCheck[proxyAddress];\n    if (value >= record.amount) record.state = SmartFinalityLib.FinalityState.SUFFICIENT_CONFIRMATIONS;\n    else record.state = SmartFinalityLib.FinalityState.INSUFFICIENT_CONFIRMATIONS;\n  }\n  function peekFinalityRecord(address proxyAddress) public view returns (SmartFinalityLib.FinalityState, address, uint256, uint256) {\n    SmartFinalityLib.FinalityCheckRecord storage record = isolate.finalityCheck[proxyAddress];\n    return (record.state, record.proxiedKeeper, record.bond, record.amount);\n  }\n}\n  \n    \n",
  "sourcePath": "/home/ray/0confirmation/packages/0confirmation-sol-truffle/contracts/proxy-keeper/SmartFinalityProxyKeeper.sol",
  "compiler": {
    "name": "solc",
    "version": "0.6.8+commit.0bbfe453.Emscripten.clang"
  },
  "schemaVersion": "3.2.2",
  "updatedAt": "2020-07-17T18:20:37.390Z",
  "devdoc": {
    "methods": {}
  },
  "userdoc": {
    "methods": {}
  }
}