{
  "contractName": "TransferAll",
  "abi": [
    {
      "inputs": [],
      "name": "target",
      "outputs": [
        {
          "internalType": "address",
          "name": "",
          "type": "address"
        }
      ],
      "stateMutability": "view",
      "type": "function"
    },
    {
      "inputs": [
        {
          "internalType": "bytes",
          "name": "consData",
          "type": "bytes"
        }
      ],
      "name": "setup",
      "outputs": [],
      "stateMutability": "nonpayable",
      "type": "function"
    },
    {
      "inputs": [
        {
          "internalType": "bytes",
          "name": "data",
          "type": "bytes"
        }
      ],
      "name": "execute",
      "outputs": [
        {
          "components": [
            {
              "internalType": "address",
              "name": "to",
              "type": "address"
            },
            {
              "internalType": "bytes",
              "name": "txData",
              "type": "bytes"
            }
          ],
          "internalType": "struct ShifterBorrowProxyLib.InitializationAction[]",
          "name": "",
          "type": "tuple[]"
        }
      ],
      "stateMutability": "view",
      "type": "function"
    }
  ],
  "bytecode": "0x608060405234801561001057600080fd5b50610703806100206000396000f3fe608060405234801561001057600080fd5b50600436106100415760003560e01c806309c5eabe146100465780639ded06df1461006f578063d4b8399214610084575b600080fd5b6100596100543660046103ed565b610099565b60405161006691906105a4565b60405180910390f35b61008261007d3660046103ed565b61021c565b005b61008c610253565b6040516100669190610577565b60606100a3610316565b6100ac83610262565b60025460208083015160408051636a5c1cc960e11b815290519495506001600160a01b03938416946102149463a9059cbb60e01b9493169263d4b839929260048082019391829003018186803b15801561010557600080fd5b505afa158015610119573d6000803e3d6000fd5b505050506040513d601f19601f8201168201806040525081019061013d91906103d1565b6040516370a0823160e01b81526001600160a01b038516906370a0823190610169903090600401610577565b60206040518083038186803b15801561018157600080fd5b505afa158015610195573d6000803e3d6000fd5b505050506040513d601f19601f820116820180604052508101906101b9919061055f565b6040516024016101ca92919061058b565b60408051601f198184030181529190526020810180516001600160e01b03166001600160e01b0319909316929092179091526002546001600160a01b03169063ffffffff61027916565b949350505050565b8080602001905181019061023091906103d1565b600b80546001600160a01b0319166001600160a01b039290921691909117905550565b600b546001600160a01b031681565b61026a610316565b610273826102a8565b92915050565b60606102a16040518060400160405280856001600160a01b03168152602001848152506102c4565b9392505050565b6102b0610316565b818060200190518101906102739190610464565b604080516001808252818301909252606091816020015b6102e3610336565b8152602001906001900390816102db579050509050818160008151811061030657fe5b6020026020010181905250919050565b604051806040016040528061032961034e565b8152600060209091015290565b60408051808201909152600081526060602082015290565b604080516080810182526000808252606060208301819052928201528181019190915290565b8051610273816106b5565b600082601f83011261038f578081fd5b81516103a261039d82610661565b61063a565b91508082528360208285010111156103b957600080fd5b6103ca816020840160208601610685565b5092915050565b6000602082840312156103e2578081fd5b81516102a1816106b5565b6000602082840312156103fe578081fd5b813567ffffffffffffffff811115610414578182fd5b80830184601f820112610425578283fd5b8035915061043561039d83610661565b828152856020848401011115610449578384fd5b82602083016020830137918201602001929092529392505050565b600060208284031215610475578081fd5b815167ffffffffffffffff8082111561048c578283fd5b8184016040818703121561049e578384fd5b6104a8604061063a565b92508051828111156104b8578485fd5b808201608081890312156104ca578586fd5b6104d4608061063a565b915080516104e1816106b5565b82526020810151848111156104f4578687fd5b6105008982840161037f565b60208401525060408101518015158114610518578687fd5b604083015260608101518481111561052e578687fd5b61053a8982840161037f565b6060840152505083526105508660208301610374565b60208401525090949350505050565b600060208284031215610570578081fd5b5051919050565b6001600160a01b0391909116815260200190565b6001600160a01b03929092168252602082015260400190565b60208082528251828201819052600091906040908185019080840286018301878501865b8381101561062c57888303603f19018552815180516001600160a01b03168452870151878401879052805187850181905290606061060b83828801848d01610685565b96890196601f92909201601f191694909401019250908601906001016105c8565b509098975050505050505050565b60405181810167ffffffffffffffff8111828210171561065957600080fd5b604052919050565b600067ffffffffffffffff821115610677578081fd5b50601f01601f191660200190565b60005b838110156106a0578181015183820152602001610688565b838111156106af576000848401525b50505050565b6001600160a01b03811681146106ca57600080fd5b5056fea2646970667358221220b560bbec1077b321a5a64a8f02e390f95ff1ee8546915e19b872fcba6698308264736f6c63430006080033",
  "immutableReferences": {},
  "source": "pragma experimental ABIEncoderV2;\n// SPDX-License-Identifier: MIT\npragma solidity ^0.6.0;\n\nimport { PreprocessorLib } from \"./lib/PreprocessorLib.sol\";\nimport { IERC20 } from \"@openzeppelin/contracts/token/ERC20/IERC20.sol\";\nimport { ShifterBorrowProxyLib } from \"../ShifterBorrowProxyLib.sol\";\nimport { SandboxLib } from \"../utils/sandbox/SandboxLib.sol\";\nimport { BorrowProxyLib } from \"../BorrowProxyLib.sol\";\n\ncontract TransferAll {\n  using PreprocessorLib for *;\n  BorrowProxyLib.ProxyIsolate isolate;\n  address public target;\n  function setup(bytes memory consData) public {\n    (target) = abi.decode(consData, (address));\n  }\n  function execute(bytes memory data) view public returns (ShifterBorrowProxyLib.InitializationAction[] memory) {\n    SandboxLib.ExecutionContext memory context = data.toContext();\n    address token = isolate.token;\n    return isolate.token.sendTransaction(abi.encodeWithSelector(IERC20.transfer.selector, TransferAll(context.preprocessorAddress).target(), IERC20(token).balanceOf(address(this))));\n  }\n}\n",
  "sourcePath": "/home/ray/0confirmation/packages/0confirmation-sol-truffle/contracts/preprocessors/TransferAll.sol",
  "compiler": {
    "name": "solc",
    "version": "0.6.8+commit.0bbfe453.Emscripten.clang"
  },
  "schemaVersion": "3.2.2",
  "updatedAt": "2020-07-17T18:20:37.383Z",
  "devdoc": {
    "methods": {}
  },
  "userdoc": {
    "methods": {}
  }
}