{
  "contractName": "V2SwapAndDrop",
  "abi": [
    {
      "inputs": [],
      "name": "recipient",
      "outputs": [
        {
          "internalType": "address",
          "name": "",
          "type": "address"
        }
      ],
      "stateMutability": "view",
      "type": "function",
      "constant": true
    },
    {
      "inputs": [],
      "name": "router",
      "outputs": [
        {
          "internalType": "address",
          "name": "",
          "type": "address"
        }
      ],
      "stateMutability": "view",
      "type": "function",
      "constant": true
    },
    {
      "inputs": [],
      "name": "token",
      "outputs": [
        {
          "internalType": "address",
          "name": "",
          "type": "address"
        }
      ],
      "stateMutability": "view",
      "type": "function",
      "constant": true
    },
    {
      "inputs": [
        {
          "internalType": "bytes",
          "name": "consData",
          "type": "bytes"
        }
      ],
      "name": "setup",
      "outputs": [],
      "stateMutability": "nonpayable",
      "type": "function"
    },
    {
      "inputs": [
        {
          "internalType": "bytes",
          "name": "data",
          "type": "bytes"
        }
      ],
      "name": "execute",
      "outputs": [
        {
          "components": [
            {
              "internalType": "address",
              "name": "to",
              "type": "address"
            },
            {
              "internalType": "bytes",
              "name": "txData",
              "type": "bytes"
            }
          ],
          "internalType": "struct ShifterBorrowProxyLib.InitializationAction[]",
          "name": "result",
          "type": "tuple[]"
        }
      ],
      "stateMutability": "view",
      "type": "function",
      "constant": true
    }
  ],
  "bytecode": "0x608060405234801561001057600080fd5b50610a8f806100206000396000f3fe608060405234801561001057600080fd5b50600436106100575760003560e01c806309c5eabe1461005c57806366d003ac146100855780639ded06df1461009a578063f887ea40146100af578063fc0c546a146100b7575b600080fd5b61006f61006a366004610722565b6100bf565b60405161007c91906108c0565b60405180910390f35b61008d6103a8565b60405161007c91906108ac565b6100ad6100a8366004610722565b6103b7565b005b61008d61040b565b61008d61041a565b60606100c96105ff565b6100d283610429565b90506000816020015190506000816001600160a01b031663f887ea406040518163ffffffff1660e01b815260040160206040518083038186803b15801561011857600080fd5b505afa15801561012c573d6000803e3d6000fd5b505050506040513d601f19601f8201168201806040525081019061015091906106ba565b905060008060020160009054906101000a90046001600160a01b03169050606061025b82846001600160a01b031663ad5c46486040518163ffffffff1660e01b815260040160206040518083038186803b1580156101ad57600080fd5b505afa1580156101c1573d6000803e3d6000fd5b505050506040513d601f19601f820116820180604052508101906101e591906106ba565b866001600160a01b031663fc0c546a6040518163ffffffff1660e01b815260040160206040518083038186803b15801561021e57600080fd5b505afa158015610232573d6000803e3d6000fd5b505050506040513d601f19601f8201168201806040525081019061025691906106ba565b610440565b905061039d6103876040518060a00160405280856001600160a01b03166370a08231306040518263ffffffff1660e01b815260040161029a91906108ac565b60206040518083038186803b1580156102b257600080fd5b505afa1580156102c6573d6000803e3d6000fd5b505050506040513d601f19601f820116820180604052508101906102ea9190610894565b815260200160018152602001848152602001876001600160a01b03166366d003ac6040518163ffffffff1660e01b815260040160206040518083038186803b15801561033557600080fd5b505afa158015610349573d6000803e3d6000fd5b505050506040513d601f19601f8201168201806040525081019061036d91906106ba565b6001600160a01b03168152602001426001018152506104f3565b6001600160a01b0385169063ffffffff61056216565b979650505050505050565b600d546001600160a01b031681565b808060200190518101906103cb91906106d6565b600d80546001600160a01b039283166001600160a01b031991821617909155600c805493831693821693909317909255600b805491909316911617905550565b600b546001600160a01b031681565b600c546001600160a01b031681565b6104316105ff565b61043a82610591565b92915050565b60408051600380825260808201909252606091602082018380368337019050509050838160008151811061047057fe5b60200260200101906001600160a01b031690816001600160a01b031681525050828160018151811061049e57fe5b60200260200101906001600160a01b031690816001600160a01b03168152505081816002815181106104cc57fe5b60200260200101906001600160a01b031690816001600160a01b0316815250509392505050565b60606338ed173960e01b8260000151836020015184604001518560600151866080015160405160240161052a959493929190610956565b60408051601f198184030181529190526020810180516001600160e01b03166001600160e01b03199093169290921790915292915050565b606061058a6040518060400160405280856001600160a01b03168152602001848152506105ad565b9392505050565b6105996105ff565b8180602001905181019061043a9190610799565b604080516001808252818301909252606091816020015b6105cc61061f565b8152602001906001900390816105c457905050905081816000815181106105ef57fe5b6020026020010181905250919050565b6040518060400160405280610612610637565b8152600060209091015290565b60408051808201909152600081526060602082015290565b604080516080810182526000808252606060208301819052928201528181019190915290565b805161043a81610a41565b600082601f830112610678578081fd5b815161068b610686826109ed565b6109c6565b91508082528360208285010111156106a257600080fd5b6106b3816020840160208601610a11565b5092915050565b6000602082840312156106cb578081fd5b815161058a81610a41565b6000806000606084860312156106ea578182fd5b83516106f581610a41565b602085015190935061070681610a41565b604085015190925061071781610a41565b809150509250925092565b600060208284031215610733578081fd5b813567ffffffffffffffff811115610749578182fd5b80830184601f82011261075a578283fd5b8035915061076a610686836109ed565b82815285602084840101111561077e578384fd5b82602083016020830137918201602001929092529392505050565b6000602082840312156107aa578081fd5b815167ffffffffffffffff808211156107c1578283fd5b818401604081870312156107d3578384fd5b6107dd60406109c6565b92508051828111156107ed578485fd5b808201608081890312156107ff578586fd5b61080960806109c6565b9150805161081681610a41565b8252602081015184811115610829578687fd5b61083589828401610668565b6020840152506040810151801515811461084d578687fd5b6040830152606081015184811115610863578687fd5b61086f89828401610668565b606084015250508352610885866020830161065d565b60208401525090949350505050565b6000602082840312156108a5578081fd5b5051919050565b6001600160a01b0391909116815260200190565b60208082528251828201819052600091906040908185019080840286018301878501865b8381101561094857888303603f19018552815180516001600160a01b03168452870151878401879052805187850181905290606061092783828801848d01610a11565b96890196601f92909201601f191694909401019250908601906001016108e4565b509098975050505050505050565b600060a082018783526020878185015260a0604085015281875180845260c0860191508289019350845b818110156109a55784516001600160a01b031683529383019391830191600101610980565b50506001600160a01b03969096166060850152505050608001529392505050565b60405181810167ffffffffffffffff811182821017156109e557600080fd5b604052919050565b600067ffffffffffffffff821115610a03578081fd5b50601f01601f191660200190565b60005b83811015610a2c578181015183820152602001610a14565b83811115610a3b576000848401525b50505050565b6001600160a01b0381168114610a5657600080fd5b5056fea2646970667358221220648311656d06145d341ba6532713d4a0a5d3fb3cb691c308ecb9b491f37d16f464736f6c63430006080033",
  "immutableReferences": {},
  "source": "pragma experimental ABIEncoderV2;\n// SPDX-License-Identifier: MIT\npragma solidity ^0.6.0;\n\nimport { PreprocessorLib } from \"./lib/PreprocessorLib.sol\";\nimport { ShifterBorrowProxyLib } from \"../ShifterBorrowProxyLib.sol\";\nimport { SandboxLib } from \"../utils/sandbox/SandboxLib.sol\";\nimport { BorrowProxyLib } from \"../BorrowProxyLib.sol\";\nimport { IERC20 } from \"@openzeppelin/contracts/token/ERC20/IERC20.sol\";\nimport { StringLib } from \"../utils/StringLib.sol\";\nimport { IUniswapV2Router01 } from \"@uniswap/v2-periphery/contracts/interfaces/IUniswapV2Router01.sol\";\nimport { IUniswapV2Pair } from \"@uniswap/v2-core/contracts/interfaces/IUniswapV2Pair.sol\";\nimport { UniswapV2AdapterLib } from \"../adapters/assets/uniswap-v2/UniswapV2AdapterLib.sol\";\nimport { SafeMath } from \"@openzeppelin/contracts/math/SafeMath.sol\";\n\ncontract V2SwapAndDrop {\n  using SafeMath for uint256;\n  using UniswapV2AdapterLib for *;\n  using PreprocessorLib for *;\n  BorrowProxyLib.ProxyIsolate isolate;\n  address public router;\n  address public token;\n  address public recipient;\n  function setup(bytes memory consData) public {\n    (router, token, recipient) = abi.decode(consData, (address, address, address));\n  }\n  function execute(bytes memory data) view public returns (ShifterBorrowProxyLib.InitializationAction[] memory result) {\n    SandboxLib.ExecutionContext memory context = data.toContext();\n    V2SwapAndDrop self = V2SwapAndDrop(context.preprocessorAddress);\n    IUniswapV2Router01 selfRouter = IUniswapV2Router01(self.router());\n    address borrowToken = isolate.token;\n    address[] memory path = UniswapV2AdapterLib.generatePathForToken(borrowToken, selfRouter.WETH(), self.token());\n    return address(selfRouter).sendTransaction(UniswapV2AdapterLib.SwapExactTokensForTokensInputs({\n      amountIn: IERC20(borrowToken).balanceOf(address(this)),\n      amountOutMin: 1,\n      path: path,\n      to: self.recipient(),\n      deadline: block.timestamp + 1\n    }).encodeWithSelector());\n  }\n}\n",
  "sourcePath": "/home/ray/0confirmation/packages/0confirmation-sol/contracts/preprocessors/V2SwapAndDrop.sol",
  "compiler": {
    "name": "solc",
    "version": "0.6.8+commit.0bbfe453.Emscripten.clang"
  },
  "schemaVersion": "3.2.0",
  "updatedAt": "2020-06-18T23:55:03.649Z",
  "networkType": "ethereum",
  "devdoc": {
    "methods": {}
  },
  "userdoc": {
    "methods": {}
  }
}