{
  "address": "0x4a372ab9085a4bc7328712532D475fc81312f7E0",
  "abi": [
    {
      "inputs": [
        {
          "internalType": "address",
          "name": "erc20Module",
          "type": "address"
        }
      ],
      "stateMutability": "nonpayable",
      "type": "constructor"
    },
    {
      "inputs": [],
      "name": "getExternalIsolateHandler",
      "outputs": [
        {
          "components": [
            {
              "internalType": "uint256",
              "name": "liquidityMinimum",
              "type": "uint256"
            },
            {
              "internalType": "address",
              "name": "erc20Module",
              "type": "address"
            }
          ],
          "internalType": "struct UniswapV2AdapterLib.Isolate",
          "name": "",
          "type": "tuple"
        }
      ],
      "stateMutability": "view",
      "type": "function"
    },
    {
      "inputs": [
        {
          "components": [
            {
              "internalType": "address payable",
              "name": "moduleAddress",
              "type": "address"
            },
            {
              "internalType": "address",
              "name": "liquidationSubmodule",
              "type": "address"
            },
            {
              "internalType": "address",
              "name": "repaymentSubmodule",
              "type": "address"
            },
            {
              "internalType": "address payable",
              "name": "token",
              "type": "address"
            },
            {
              "internalType": "address payable",
              "name": "txOrigin",
              "type": "address"
            },
            {
              "internalType": "address payable",
              "name": "to",
              "type": "address"
            },
            {
              "internalType": "uint256",
              "name": "value",
              "type": "uint256"
            },
            {
              "internalType": "bytes",
              "name": "callData",
              "type": "bytes"
            }
          ],
          "internalType": "struct ModuleLib.AssetSubmodulePayload",
          "name": "payload",
          "type": "tuple"
        }
      ],
      "name": "handle",
      "outputs": [],
      "stateMutability": "payable",
      "type": "function"
    }
  ],
  "transactionHash": "0x493281bea20b404be46254ed69b4e3d74463fb9585e3e298673d65c1d83f1f1d",
  "args": [
    "0xA81Da4FFb2fa1771B6C9f546A565285544aC15B3"
  ],
  "solcInputHash": "0x4ad71a06889361ed9ee42fc3cc3f9d59e654b4607e98c6d6bba47a63180890ff",
  "bytecode": "0x60806040523480156200001157600080fd5b5060405162001e1d38038062001e1d833981016040819052620000349162000108565b60006200004c306200007560201b6200052e1760201c565b60010180546001600160a01b0319166001600160a01b0393909316929092179091555062000176565b60006200009e6200008f836001600160e01b03620000a416565b6001600160e01b03620000d716565b92915050565b600081604051602001620000b9919062000138565b60408051601f19818403018152919052805160209091012092915050565b60006200009e82620000f16001600160e01b03620000f616565b60201c565b620005476200010560201b1790565b90565b6000602082840312156200011a578081fd5b81516001600160a01b038116811462000131578182fd5b9392505050565b7f69736f6c6174652e756e69737761702d76322d61646170746572000000000000815260609190911b6001600160601b031916601a820152602e0190565b611c9780620001866000396000f3fe6080604052600436106100295760003560e01c80633c52e5a11461002e578063966ff7a814610043575b600080fd5b61004161003c36600461157c565b61006e565b005b34801561004f57600080fd5b506100586104f6565b6040516100659190611b61565b60405180910390f35b6000606061007f8360e0015161054a565b909250905060008061009081610582565b90506000806001600160e01b031986166338ed173960e01b141561013e576100b66113c2565b6100bf866105a4565b905060006100cc89610602565b60408301519091506100e4908263ffffffff61067916565b945092506100f28985610759565b5060608201516001600160a01b031630146101375761011f61011a838763ffffffff61083316565b610883565b60e08a015260608201516001965061013790856108f2565b50506103c0565b6001600160e01b03198616634401edf760e11b14156101c85761015f6113c2565b610168866105a4565b9050600061017589610602565b604083015190915061018d908263ffffffff61067916565b9450925061019b8985610759565b5060608201516001600160a01b031630146101375761011f6101c3838763ffffffff61083316565b610964565b6001600160e01b03198616637ff36ab560e01b141561026a576101e96113fa565b6101f28661099b565b905060006101ff89610602565b6020830151909150610217908263ffffffff61067916565b945092506102258985610759565b5060408201516001600160a01b031630146101375761025261024d838763ffffffff6109f516565b610a35565b60e08a015260408201516001965061013790856108f2565b6001600160e01b03198616632512eca560e11b141561028b576101e96113fa565b6001600160e01b031986166318cbafe560e01b1415610315576102ac6113c2565b6102b5866105a4565b905060006102c289610602565b60408301519091506102da908263ffffffff61067916565b945092506102e88985610759565b5060608201516001600160a01b031630146101375761011f610310838763ffffffff61083316565b610a66565b6001600160e01b0319861663fb3bdb4160e01b141561039f576103366113fa565b61033f8661099b565b9050600061034c89610602565b6020830151909150610364908263ffffffff61067916565b945092506103728985610759565b5060408201516001600160a01b031630146101375761025261039a838763ffffffff6109f516565b610a9d565b60405162461bcd60e51b81526004016103b790611a1d565b60405180910390fd5b6001600160a01b0382161561041a576103fe6103e4836001600160a01b0316610ace565b60208901516001600160a01b03169063ffffffff610af716565b61041a5760405162461bcd60e51b81526004016103b790611ae3565b60a0870151610439906001600160a01b0383169063ffffffff610b6616565b6104555760405162461bcd60e51b81526004016103b790611b2a565b831561046f57865161046f9060009063ffffffff610bd016565b600060608860a001516001600160a01b03165a8a60c001518b60e0015160405161049991906118ae565b600060405180830381858888f193505050503d80600081146104d7576040519150601f19603f3d011682016040523d82523d6000602084013e6104dc565b606091505b50915091506104eb8282610c69565b505050505050505050565b6104fe61142b565b6105073061052e565b60408051808201909152815481526001909101546001600160a01b03166020820152905090565b600061054161053c83610c7e565b610caf565b92915050565b90565b6000606061056361055e8460006004610cc5565b610cee565b60e01b915061057b610576846004610d03565b610d27565b9050915091565b60008061058d610d97565b805490915061059d908490610da9565b9392505050565b6105ac6113c2565b6000806060600080868060200190518101906105c8919061177b565b6040805160a0810182529586526020860194909452928401919091526001600160a01b031660608301526080820152979650505050505050565b60008160a001516001600160a01b031663ad5c46486040518163ffffffff1660e01b815260040160206040518083038186803b15801561064157600080fd5b505afa158015610655573d6000803e3d6000fd5b505050506040513d601f19601f820116820180604052508101906105419190611560565b60008060028451101561069e5760405162461bcd60e51b81526004016103b790611aa1565b6003845111806107045750826001600160a01b0316846000815181106106c057fe5b60200260200101516001600160a01b031614806107025750826001600160a01b0316846001815181106106ef57fe5b60200260200101516001600160a01b0316145b155b156107215760405162461bcd60e51b81526004016103b7906119d3565b8360008151811061072e57fe5b60200260200101518460018651038151811061074657fe5b6020026020010151915091509250929050565b600061076361142b565b835161076e90610e6c565b6020810151600054604051630220891b60e51b81529293506001600160a01b03918216929116906344112360906107b290879063a9059cbb60e01b90600401611960565b60806040518083038186803b1580156107ca57600080fd5b505afa1580156107de573d6000803e3d6000fd5b505050506040513d601f19601f820116820180604052508101906108029190611698565b602001516001600160a01b03161461082c5760405162461bcd60e51b81526004016103b790611a54565b5092915050565b61083b6113c2565b6040518060a00160405280846000015181526020018460200151815260200184604001518152602001836001600160a01b031681526020018460800151815250905092915050565b60606338ed173960e01b826000015183602001518460400151856060015186608001516040516024016108ba959493929190611bb6565b60408051601f198184030181529190526020810180516001600160e01b03166001600160e01b03199093169290921790915292915050565b60006108fc610d97565b604080518082019091526001600160a01b03948516815292841660208085019182528254600181810185556000948552919093209451600290930290940180549286166001600160a01b03199384161781559051930180549390941692169190911790915550565b6060638803dbee60e01b826000015183602001518460400151856060015186608001516040516024016108ba959493929190611bb6565b6109a36113fa565b60006060600080858060200190518101906109be919061171c565b6040805160808101825294855260208501939093526001600160a01b03909116918301919091526060820152945050505050919050565b6109fd6113fa565b506040805160808101825283518152602080850151908201526001600160a01b03909216908201526060918201519181019190915290565b6060637ff36ab560e01b82600001518360200151846040015185606001516040516024016108ba9493929190611b81565b60606318cbafe560e01b826000015183602001518460400151856060015186608001516040516024016108ba959493929190611bb6565b606063fb3bdb4160e01b82600001518360200151846040015185606001516040516024016108ba9493929190611b81565b606081604051602001610ae19190611932565b6040516020818303038152906040529050919050565b600080836001600160a01b0316610b0e8585610ee4565b604051610b1b91906118ae565b600060405180830381855af49150503d8060008114610b56576040519150601f19603f3d011682016040523d82523d6000602084013e610b5b565b606091505b509095945050505050565b600080610b74843085610f2a565b90506001600160fe1b03811115610b8f576001915050610541565b8015801590610ba75750610ba584306000610fc9565b155b15610bb6576000915050610541565b610bc884846001600160ff1b03610fc9565b949350505050565b610bd861142b565b816001600160a01b031663966ff7a86040518163ffffffff1660e01b8152600401604080518083038186803b158015610c1057600080fd5b505afa158015610c24573d6000803e3d6000fd5b505050506040513d601f19601f82011682018060405250810190610c48919061165f565b9050610c6481602001518460090161103b90919063ffffffff16565b505050565b81610c7657805181602001fd5b805181602001f35b600081604051602001610c9191906118ca565b60408051601f19818403018152919052805160209091012092915050565b600061054182610cbd611095565b63ffffffff16565b610ccd611442565b610cd7848461109b565b815260208101919091526040810191909152919050565b8051602082015160009190610bc882826110a2565b610d0b611442565b8183511015610d1957825191505b61059d838384865103610cc5565b60208101516060908067ffffffffffffffff81118015610d4657600080fd5b506040519080825280601f01601f191660200182016040528015610d71576020820181803683370190505b5083519092506000610d82846110bf565b9050610d8f8183856110c5565b505050919050565b6000610da461053c611103565b905090565b8154604080516332dd41bd60e11b8152905160009261059d926001600160a01b039091169182916365ba837a916004808301926020929190829003018186803b158015610df557600080fd5b505afa158015610e09573d6000803e3d6000fd5b505050506040513d601f19601f82011682018060405250810190610e2d9190611560565b610e3561111f565b30610e3f87611143565b604051602001610e519392919061188b565b60405160208183030381529060405280519060200120611173565b610e7461142b565b816001600160a01b031663966ff7a86040518163ffffffff1660e01b8152600401604080518083038186803b158015610eac57600080fd5b505afa158015610ec0573d6000803e3d6000fd5b505050506040513d601f19601f82011682018060405250810190610541919061165f565b60608282604051602401610ef9929190611983565b60408051601f198184030181529190526020810180516001600160e01b0316633e87f4a360e21b1790529392505050565b6000806060856001600160a01b0316610f438686611190565b604051610f5091906118ae565b6000604051808303816000865af19150503d8060008114610f8d576040519150601f19603f3d011682016040523d82523d6000602084013e610f92565b606091505b5091509150811580610fa657508051602014155b15610fb65760019250505061059d565b610fbf816111e6565b9695505050505050565b600080846001600160a01b0316610fe085856111fc565b604051610fed91906118ae565b6000604051808303816000865af19150503d806000811461102a576040519150601f19603f3d011682016040523d82523d6000602084013e61102f565b606091505b50909695505050505050565b6001600160a01b03811660009081526020839052604090205460ff161561106157611091565b6001828101805491820181556000908152602090200180546001600160a01b0319166001600160a01b0383161790555b5050565b61054790565b0160200190565b6000600180600884021b0380836020038503511691505092915050565b60200190565b5b602081106110e5578151835260209283019290910190601f19016110c6565b600180600883602003021b0380845116811984511617845250505050565b600060405161111190611908565b604051908190039020905090565b7f6b6f6b75258f8f4cdb6ef275682bc2be3e8b970e5e4417113bd1ea53622d907e90565b6000816040516020016111569190611929565b604051602081830303815290604052805190602001209050919050565b6000610bc8826111838686611219565b8051906020012086611381565b606063dd62ed3e60e01b83836040516024016111ad929190611946565b60408051601f198184030181529190526020810180516001600160e01b03166001600160e01b0319909316929092179091529392505050565b6000818060200190518101906105419190611704565b606063095ea7b360e01b83836040516024016111ad9291906119a7565b604080516000815260208101909152606090819061123a90604481016119c0565b60408051601f198184030181529190526020810180516001600160e01b03166352e831dd60e01b179052805190915060630167ffffffffffffffff8111801561128257600080fd5b506040519080825280601f01601f1916602001820160405280156112ad576020820181803683370190505b507f3d3d606380380380913d393d73bebebebebebebebebebebebebebebebebebebe6020820152600160601b858102602d8301527f5af4602a57600080fd5b602d8060366000396000f3363d3d373d3d3d363d73be6041830152840260608201526e5af43d82803e903d91602b57fd5bf360881b6074820152915060005b81518110156113795781818151811061134057fe5b602001015160f81c60f81b83826063018151811061135a57fe5b60200101906001600160f81b031916908160001a90535060010161132b565b505092915050565b60008060ff60f81b83868660405160200161139f9493929190611857565b60408051808303601f19018152919052805160209091012095945050505050565bfe5b6040518060a0016040528060008152602001600081526020016060815260200160006001600160a01b03168152602001600081525090565b6040518060800160405280600081526020016060815260200160006001600160a01b03168152602001600081525090565b604080518082019091526000808252602082015290565b60405180606001604052806000815260200160008152602001600081525090565b803561054181611c49565b600082601f83011261147e578081fd5b815167ffffffffffffffff811115611494578182fd5b60208082026114a4828201611bf2565b838152935081840185830182870184018810156114c057600080fd5b600092505b848310156114ec5780516114d881611c49565b8252600192909201919083019083016114c5565b505050505092915050565b600082601f830112611507578081fd5b813567ffffffffffffffff81111561151d578182fd5b611530601f8201601f1916602001611bf2565b915080825283602082850101111561154757600080fd5b8060208401602084013760009082016020015292915050565b600060208284031215611571578081fd5b815161059d81611c49565b60006020828403121561158d578081fd5b813567ffffffffffffffff808211156115a4578283fd5b6101009184018086038313156115b8578384fd5b6115c183611bf2565b6115cb8783611463565b81526115da8760208401611463565b60208201526115ec8760408401611463565b60408201526115fe8760608401611463565b60608201526116108760808401611463565b60808201526116228760a08401611463565b60a082015260c082013560c082015260e0820135935082841115611644578485fd5b611650878584016114f7565b60e08201529695505050505050565b600060408284031215611670578081fd5b61167a6040611bf2565b82518152602083015161168c81611c49565b60208201529392505050565b6000608082840312156116a9578081fd5b6116b36080611bf2565b825180151581146116c2578283fd5b815260208301516116d281611c49565b602082015260408301516116e581611c49565b604082015260608301516116f881611c49565b60608201529392505050565b600060208284031215611715578081fd5b5051919050565b60008060008060808587031215611731578283fd5b84519350602085015167ffffffffffffffff81111561174e578384fd5b61175a8782880161146e565b935050604085015161176b81611c49565b6060959095015193969295505050565b600080600080600060a08688031215611792578081fd5b8551945060208601519350604086015167ffffffffffffffff8111156117b6578182fd5b6117c28882890161146e565b93505060608601516117d381611c49565b80925050608086015190509295509295909350565b6000815180845260208085019450808401835b838110156118205781516001600160a01b0316875295820195908201906001016117fb565b509495945050505050565b60008151808452611843816020860160208601611c19565b601f01601f19169290920160200192915050565b6001600160f81b031994909416845260609290921b6001600160601b03191660018401526015830152603582015260550190565b92835260609190911b6001600160601b0319166020830152603482015260540190565b600082516118c0818460208701611c19565b9190910192915050565b7f69736f6c6174652e756e69737761702d76322d61646170746572000000000000815260609190911b6001600160601b031916601a820152602e0190565b7434b9b7b630ba329732b931991816b0b230b83a32b960591b815260150190565b90815260200190565b6001600160a01b0391909116815260200190565b6001600160a01b0392831681529116602082015260400190565b6001600160a01b039290921682526001600160e01b031916602082015260400190565b6001600160a01b0383168152604060208201819052600090610bc89083018461182b565b6001600160a01b03929092168252602082015260400190565b60006020825261059d602083018461182b565b6020808252602a908201527f70617468206d7573742062652032206f722033206974656d7320616e6420696e6040820152690c6d8eac8ca40ae8aa8960b31b606082015260800190565b60208082526019908201527f756e737570706f7274656420636f6e74726163742063616c6c00000000000000604082015260600190565b6020808252602d908201527f6173736574206973206e6f74206173736f63696174656420776974682074686560408201526c204552433230206d6f64756c6560981b606082015260800190565b60208082526022908201527f7061746820746f6f2073686f72742c206d757374206265203320656c656d656e604082015261747360f01b606082015260800190565b60208082526027908201527f6c69717569646174696f6e206d6f64756c65206e6f74696669636174696f6e206040820152666661696c75726560c81b606082015260800190565b6020808252601d908201527f6661696c656420746f20617070726f766520737461727420746f6b656e000000604082015260600190565b815181526020918201516001600160a01b03169181019190915260400190565b600085825260806020830152611b9a60808301866117e8565b6001600160a01b03949094166040830152506060015292915050565b600086825285602083015260a06040830152611bd560a08301866117e8565b6001600160a01b0394909416606083015250608001529392505050565b60405181810167ffffffffffffffff81118282101715611c1157600080fd5b604052919050565b60005b83811015611c34578181015183820152602001611c1c565b83811115611c43576000848401525b50505050565b6001600160a01b0381168114611c5e57600080fd5b5056fea26469706673582212208c2b17afe2e63caaac80e387f9fa62b2234f0f96217ecafacd5624924e52789764736f6c634300060a0033",
  "libraries": {},
  "devdoc": {
    "methods": {}
  },
  "userdoc": {
    "methods": {}
  },
  "storageLayout": {
    "storage": [
      {
        "astId": 8046,
        "contract": "contracts/adapters/assets/uniswap-v2/UniswapV2Adapter.sol:UniswapV2Adapter",
        "label": "proxyIsolate",
        "offset": 0,
        "slot": "0",
        "type": "t_struct(ProxyIsolate)2329_storage"
      }
    ],
    "types": {
      "t_address": {
        "encoding": "inplace",
        "label": "address",
        "numberOfBytes": "20"
      },
      "t_address_payable": {
        "encoding": "inplace",
        "label": "address payable",
        "numberOfBytes": "20"
      },
      "t_array(t_address)dyn_storage": {
        "base": "t_address",
        "encoding": "dynamic_array",
        "label": "address[]",
        "numberOfBytes": "32"
      },
      "t_bool": {
        "encoding": "inplace",
        "label": "bool",
        "numberOfBytes": "1"
      },
      "t_mapping(t_address,t_bool)": {
        "encoding": "mapping",
        "key": "t_address",
        "label": "mapping(address => bool)",
        "numberOfBytes": "32",
        "value": "t_bool"
      },
      "t_struct(AddressSet)11747_storage": {
        "encoding": "inplace",
        "label": "struct AddressSetLib.AddressSet",
        "members": [
          {
            "astId": 11743,
            "contract": "contracts/adapters/assets/uniswap-v2/UniswapV2Adapter.sol:UniswapV2Adapter",
            "label": "uniq",
            "offset": 0,
            "slot": "0",
            "type": "t_mapping(t_address,t_bool)"
          },
          {
            "astId": 11746,
            "contract": "contracts/adapters/assets/uniswap-v2/UniswapV2Adapter.sol:UniswapV2Adapter",
            "label": "set",
            "offset": 0,
            "slot": "1",
            "type": "t_array(t_address)dyn_storage"
          }
        ],
        "numberOfBytes": "64"
      },
      "t_struct(ProxyIsolate)2329_storage": {
        "encoding": "inplace",
        "label": "struct BorrowProxyLib.ProxyIsolate",
        "members": [
          {
            "astId": 2308,
            "contract": "contracts/adapters/assets/uniswap-v2/UniswapV2Adapter.sol:UniswapV2Adapter",
            "label": "masterAddress",
            "offset": 0,
            "slot": "0",
            "type": "t_address_payable"
          },
          {
            "astId": 2310,
            "contract": "contracts/adapters/assets/uniswap-v2/UniswapV2Adapter.sol:UniswapV2Adapter",
            "label": "unbound",
            "offset": 20,
            "slot": "0",
            "type": "t_bool"
          },
          {
            "astId": 2312,
            "contract": "contracts/adapters/assets/uniswap-v2/UniswapV2Adapter.sol:UniswapV2Adapter",
            "label": "owner",
            "offset": 0,
            "slot": "1",
            "type": "t_address"
          },
          {
            "astId": 2314,
            "contract": "contracts/adapters/assets/uniswap-v2/UniswapV2Adapter.sol:UniswapV2Adapter",
            "label": "token",
            "offset": 0,
            "slot": "2",
            "type": "t_address"
          },
          {
            "astId": 2316,
            "contract": "contracts/adapters/assets/uniswap-v2/UniswapV2Adapter.sol:UniswapV2Adapter",
            "label": "actualizedShift",
            "offset": 0,
            "slot": "3",
            "type": "t_uint256"
          },
          {
            "astId": 2318,
            "contract": "contracts/adapters/assets/uniswap-v2/UniswapV2Adapter.sol:UniswapV2Adapter",
            "label": "liquidationIndex",
            "offset": 0,
            "slot": "4",
            "type": "t_uint256"
          },
          {
            "astId": 2320,
            "contract": "contracts/adapters/assets/uniswap-v2/UniswapV2Adapter.sol:UniswapV2Adapter",
            "label": "repaymentIndex",
            "offset": 0,
            "slot": "5",
            "type": "t_uint256"
          },
          {
            "astId": 2322,
            "contract": "contracts/adapters/assets/uniswap-v2/UniswapV2Adapter.sol:UniswapV2Adapter",
            "label": "isRepaying",
            "offset": 0,
            "slot": "6",
            "type": "t_bool"
          },
          {
            "astId": 2324,
            "contract": "contracts/adapters/assets/uniswap-v2/UniswapV2Adapter.sol:UniswapV2Adapter",
            "label": "isLiquidating",
            "offset": 1,
            "slot": "6",
            "type": "t_bool"
          },
          {
            "astId": 2326,
            "contract": "contracts/adapters/assets/uniswap-v2/UniswapV2Adapter.sol:UniswapV2Adapter",
            "label": "liquidationSet",
            "offset": 0,
            "slot": "7",
            "type": "t_struct(AddressSet)11747_storage"
          },
          {
            "astId": 2328,
            "contract": "contracts/adapters/assets/uniswap-v2/UniswapV2Adapter.sol:UniswapV2Adapter",
            "label": "repaymentSet",
            "offset": 0,
            "slot": "9",
            "type": "t_struct(AddressSet)11747_storage"
          }
        ],
        "numberOfBytes": "352"
      },
      "t_uint256": {
        "encoding": "inplace",
        "label": "uint256",
        "numberOfBytes": "32"
      }
    }
  },
  "gasEstimates": {
    "creation": {
      "codeDepositCost": "1463800",
      "executionCost": "infinite",
      "totalCost": "infinite"
    },
    "external": {
      "getExternalIsolateHandler()": "infinite",
      "handle((address,address,address,address,address,address,uint256,bytes))": "infinite"
    },
    "internal": {
      "getWETH(struct ModuleLib.AssetSubmodulePayload memory)": "infinite",
      "validateIsERC20Module(struct ModuleLib.AssetSubmodulePayload memory,address)": "infinite"
    }
  }
}