{
  "contractName": "Claimable",
  "abi": [
    {
      "anonymous": false,
      "inputs": [
        {
          "indexed": true,
          "internalType": "address",
          "name": "previousOwner",
          "type": "address"
        },
        {
          "indexed": true,
          "internalType": "address",
          "name": "newOwner",
          "type": "address"
        }
      ],
      "name": "OwnershipTransferred",
      "type": "event"
    },
    {
      "constant": true,
      "inputs": [],
      "name": "isOwner",
      "outputs": [
        {
          "internalType": "bool",
          "name": "",
          "type": "bool"
        }
      ],
      "payable": false,
      "stateMutability": "view",
      "type": "function"
    },
    {
      "constant": true,
      "inputs": [],
      "name": "owner",
      "outputs": [
        {
          "internalType": "address",
          "name": "",
          "type": "address"
        }
      ],
      "payable": false,
      "stateMutability": "view",
      "type": "function"
    },
    {
      "constant": true,
      "inputs": [],
      "name": "pendingOwner",
      "outputs": [
        {
          "internalType": "address",
          "name": "",
          "type": "address"
        }
      ],
      "payable": false,
      "stateMutability": "view",
      "type": "function"
    },
    {
      "constant": false,
      "inputs": [],
      "name": "renounceOwnership",
      "outputs": [],
      "payable": false,
      "stateMutability": "nonpayable",
      "type": "function"
    },
    {
      "constant": false,
      "inputs": [
        {
          "internalType": "address",
          "name": "newOwner",
          "type": "address"
        }
      ],
      "name": "transferOwnership",
      "outputs": [],
      "payable": false,
      "stateMutability": "nonpayable",
      "type": "function"
    },
    {
      "constant": false,
      "inputs": [],
      "name": "claimOwnership",
      "outputs": [],
      "payable": false,
      "stateMutability": "nonpayable",
      "type": "function"
    }
  ],
  "bytecode": "0x608060405260006100146100b760201b60201c565b9050806000806101000a81548173ffffffffffffffffffffffffffffffffffffffff021916908373ffffffffffffffffffffffffffffffffffffffff1602179055508073ffffffffffffffffffffffffffffffffffffffff16600073ffffffffffffffffffffffffffffffffffffffff167f8be0079c531659141344cd1fd0a4f28419497f9722a3daafe3b4186f6b6457e060405160405180910390a3506100bf565b600033905090565b6107ec806100ce6000396000f3fe608060405234801561001057600080fd5b50600436106100625760003560e01c80634e71e0c814610067578063715018a6146100715780638da5cb5b1461007b5780638f32d59b146100c5578063e30c3978146100e7578063f2fde38b14610131575b600080fd5b61006f610175565b005b610079610274565b005b6100836103ad565b604051808273ffffffffffffffffffffffffffffffffffffffff1673ffffffffffffffffffffffffffffffffffffffff16815260200191505060405180910390f35b6100cd6103d6565b604051808215151515815260200191505060405180910390f35b6100ef610434565b604051808273ffffffffffffffffffffffffffffffffffffffff1673ffffffffffffffffffffffffffffffffffffffff16815260200191505060405180910390f35b6101736004803603602081101561014757600080fd5b81019080803573ffffffffffffffffffffffffffffffffffffffff16906020019092919050505061045a565b005b600160009054906101000a900473ffffffffffffffffffffffffffffffffffffffff1673ffffffffffffffffffffffffffffffffffffffff166101b661061b565b73ffffffffffffffffffffffffffffffffffffffff1614610222576040517f08c379a000000000000000000000000000000000000000000000000000000000815260040180806020018281038252602a81526020018061078e602a913960400191505060405180910390fd5b61024d600160009054906101000a900473ffffffffffffffffffffffffffffffffffffffff16610623565b600160006101000a81549073ffffffffffffffffffffffffffffffffffffffff0219169055565b61027c6103d6565b6102ee576040517f08c379a00000000000000000000000000000000000000000000000000000000081526004018080602001828103825260208152602001807f4f776e61626c653a2063616c6c6572206973206e6f7420746865206f776e657281525060200191505060405180910390fd5b600073ffffffffffffffffffffffffffffffffffffffff166000809054906101000a900473ffffffffffffffffffffffffffffffffffffffff1673ffffffffffffffffffffffffffffffffffffffff167f8be0079c531659141344cd1fd0a4f28419497f9722a3daafe3b4186f6b6457e060405160405180910390a360008060006101000a81548173ffffffffffffffffffffffffffffffffffffffff021916908373ffffffffffffffffffffffffffffffffffffffff160217905550565b60008060009054906101000a900473ffffffffffffffffffffffffffffffffffffffff16905090565b60008060009054906101000a900473ffffffffffffffffffffffffffffffffffffffff1673ffffffffffffffffffffffffffffffffffffffff1661041861061b565b73ffffffffffffffffffffffffffffffffffffffff1614905090565b600160009054906101000a900473ffffffffffffffffffffffffffffffffffffffff1681565b6104626103d6565b6104d4576040517f08c379a00000000000000000000000000000000000000000000000000000000081526004018080602001828103825260208152602001807f4f776e61626c653a2063616c6c6572206973206e6f7420746865206f776e657281525060200191505060405180910390fd5b6104dc6103ad565b73ffffffffffffffffffffffffffffffffffffffff168173ffffffffffffffffffffffffffffffffffffffff16141580156105655750600160009054906101000a900473ffffffffffffffffffffffffffffffffffffffff1673ffffffffffffffffffffffffffffffffffffffff168173ffffffffffffffffffffffffffffffffffffffff1614155b6105d7576040517f08c379a000000000000000000000000000000000000000000000000000000000815260040180806020018281038252601c8152602001807f436c61696d61626c653a20696e76616c6964206e6577206f776e65720000000081525060200191505060405180910390fd5b80600160006101000a81548173ffffffffffffffffffffffffffffffffffffffff021916908373ffffffffffffffffffffffffffffffffffffffff16021790555050565b600033905090565b600073ffffffffffffffffffffffffffffffffffffffff168173ffffffffffffffffffffffffffffffffffffffff1614156106a9576040517f08c379a00000000000000000000000000000000000000000000000000000000081526004018080602001828103825260268152602001806107686026913960400191505060405180910390fd5b8073ffffffffffffffffffffffffffffffffffffffff166000809054906101000a900473ffffffffffffffffffffffffffffffffffffffff1673ffffffffffffffffffffffffffffffffffffffff167f8be0079c531659141344cd1fd0a4f28419497f9722a3daafe3b4186f6b6457e060405160405180910390a3806000806101000a81548173ffffffffffffffffffffffffffffffffffffffff021916908373ffffffffffffffffffffffffffffffffffffffff1602179055505056fe4f776e61626c653a206e6577206f776e657220697320746865207a65726f2061646472657373436c61696d61626c653a2063616c6c6572206973206e6f74207468652070656e64696e67206f776e6572a265627a7a723158200f8d2399fd34dcda4ce16fbe1e8a2d533d6adb7480d0da2ede3455594089309e64736f6c634300050c0032",
  "source": "pragma solidity 0.5.12;\n\nimport \"openzeppelin-solidity/contracts/ownership/Ownable.sol\";\n\n/**\n * @title Claimable\n * @dev Extension for the Ownable contract, where the ownership needs to be claimed.\n * This allows the new owner to accept the transfer.\n */\ncontract Claimable is Ownable {\n\n    address public pendingOwner;\n\n    modifier onlyPendingOwner() {\n        require(_msgSender() == pendingOwner, \"Claimable: caller is not the pending owner\");\n        _;\n    }\n\n    function transferOwnership(address newOwner) public onlyOwner {\n        require(newOwner != owner() && newOwner != pendingOwner, \"Claimable: invalid new owner\");\n        pendingOwner = newOwner;\n    }\n\n    function claimOwnership() public onlyPendingOwner {\n        _transferOwnership(pendingOwner);\n        delete pendingOwner;\n    }\n}\n",
  "sourcePath": "/home/ray/0confirmation-mono/node_modules/darknode-sol/contracts/libraries/Claimable.sol",
  "compiler": {
    "name": "solc",
    "version": "0.5.12+commit.7709ece9.Linux.g++"
  },
  "schemaVersion": "3.0.23",
  "updatedAt": "2020-02-27T23:36:07.441Z",
  "devdoc": {
    "details": "Extension for the Ownable contract, where the ownership needs to be claimed. This allows the new owner to accept the transfer.",
    "methods": {
      "isOwner()": {
        "details": "Returns true if the caller is the current owner."
      },
      "owner()": {
        "details": "Returns the address of the current owner."
      },
      "renounceOwnership()": {
        "details": "Leaves the contract without owner. It will not be possible to call `onlyOwner` functions anymore. Can only be called by the current owner.     * NOTE: Renouncing ownership will leave the contract without an owner, thereby removing any functionality that is only available to the owner."
      }
    },
    "title": "Claimable"
  },
  "userdoc": {
    "methods": {}
  }
}