{
  "contractName": "CompareTest",
  "abi": [
    {
      "constant": true,
      "inputs": [
        {
          "internalType": "bytes",
          "name": "a",
          "type": "bytes"
        },
        {
          "internalType": "bytes",
          "name": "b",
          "type": "bytes"
        }
      ],
      "name": "bytesEqual",
      "outputs": [
        {
          "internalType": "bool",
          "name": "",
          "type": "bool"
        }
      ],
      "payable": false,
      "stateMutability": "pure",
      "type": "function"
    }
  ],
  "bytecode": "0x608060405234801561001057600080fd5b506102a0806100206000396000f3fe608060405234801561001057600080fd5b506004361061002b5760003560e01c806340bdd3e914610030575b600080fd5b6101806004803603604081101561004657600080fd5b810190808035906020019064010000000081111561006357600080fd5b82018360208201111561007557600080fd5b8035906020019184600183028401116401000000008311171561009757600080fd5b91908080601f016020809104026020016040519081016040528093929190818152602001838380828437600081840152601f19601f820116905080830192505050505050509192919290803590602001906401000000008111156100fa57600080fd5b82018360208201111561010c57600080fd5b8035906020019184600183028401116401000000008311171561012e57600080fd5b91908080601f016020809104026020016040519081016040528093929190818152602001838380828437600081840152601f19601f82011690508083019250505050505050919291929050505061019a565b604051808215151515815260200191505060405180910390f35b60006101a683836101ae565b905092915050565b600081518351146101c25760009050610265565b60008090505b835181101561025f578281815181106101dd57fe5b602001015160f81c60f81b7effffffffffffffffffffffffffffffffffffffffffffffffffffffffffffff191684828151811061021657fe5b602001015160f81c60f81b7effffffffffffffffffffffffffffffffffffffffffffffffffffffffffffff191614610252576000915050610265565b80806001019150506101c8565b50600190505b9291505056fea265627a7a723158203262beb3cbdd9f8502bb7c20ac2d1f682df7896912b18f63ec75c9af350706b764736f6c634300050c0032",
  "source": "pragma solidity 0.5.12;\n\nimport { Compare } from \"../libraries/Compare.sol\";\n\n/// @dev CompareTest exposes the internal functions of Compare.sol\ncontract CompareTest {\n\n    function bytesEqual(bytes memory a, bytes memory b) public pure returns (bool) {\n        return Compare.bytesEqual(a, b);\n    }\n}\n",
  "sourcePath": "/home/ray/0confirmation-mono/node_modules/darknode-sol/contracts/test/CompareTest.sol",
  "compiler": {
    "name": "solc",
    "version": "0.5.12+commit.7709ece9.Linux.g++"
  },
  "schemaVersion": "3.0.23",
  "updatedAt": "2020-02-27T23:36:07.448Z",
  "devdoc": {
    "details": "CompareTest exposes the internal functions of Compare.sol",
    "methods": {}
  },
  "userdoc": {
    "methods": {}
  }
}