{
  "contractName": "CycleChanger",
  "abi": [
    {
      "inputs": [
        {
          "internalType": "contract DarknodePayment",
          "name": "_darknodePayment",
          "type": "address"
        }
      ],
      "payable": false,
      "stateMutability": "nonpayable",
      "type": "constructor"
    },
    {
      "constant": true,
      "inputs": [],
      "name": "darknodePayment",
      "outputs": [
        {
          "internalType": "contract DarknodePayment",
          "name": "",
          "type": "address"
        }
      ],
      "payable": false,
      "stateMutability": "view",
      "type": "function"
    },
    {
      "constant": false,
      "inputs": [],
      "name": "changeCycle",
      "outputs": [],
      "payable": false,
      "stateMutability": "nonpayable",
      "type": "function"
    },
    {
      "constant": true,
      "inputs": [],
      "name": "time",
      "outputs": [
        {
          "internalType": "uint256",
          "name": "",
          "type": "uint256"
        }
      ],
      "payable": false,
      "stateMutability": "view",
      "type": "function"
    }
  ],
  "bytecode": "0x608060405234801561001057600080fd5b506040516102fa3803806102fa8339818101604052602081101561003357600080fd5b8101908080519060200190929190505050806000806101000a81548173ffffffffffffffffffffffffffffffffffffffff021916908373ffffffffffffffffffffffffffffffffffffffff16021790555050610266806100946000396000f3fe608060405234801561001057600080fd5b50600436106100415760003560e01c806316ada54714610046578063b3a2af6914610064578063b6b34c671461006e575b600080fd5b61004e6100b8565b6040518082815260200191505060405180910390f35b61006c6100c0565b005b61007661020c565b604051808273ffffffffffffffffffffffffffffffffffffffff1673ffffffffffffffffffffffffffffffffffffffff16815260200191505060405180910390f35b600042905090565b6000809054906101000a900473ffffffffffffffffffffffffffffffffffffffff1673ffffffffffffffffffffffffffffffffffffffff1663b3a2af696040518163ffffffff1660e01b8152600401602060405180830381600087803b15801561012957600080fd5b505af115801561013d573d6000803e3d6000fd5b505050506040513d602081101561015357600080fd5b8101908080519060200190929190505050506000809054906101000a900473ffffffffffffffffffffffffffffffffffffffff1673ffffffffffffffffffffffffffffffffffffffff1663b3a2af696040518163ffffffff1660e01b8152600401602060405180830381600087803b1580156101ce57600080fd5b505af11580156101e2573d6000803e3d6000fd5b505050506040513d60208110156101f857600080fd5b810190808051906020019092919050505050565b6000809054906101000a900473ffffffffffffffffffffffffffffffffffffffff168156fea265627a7a723158207cc6801fde3089c398cb9f3a0f5b7388305264cf6716677a4e6a75cfe7c21e2564736f6c634300050c0032",
  "source": "pragma solidity 0.5.12;\n\nimport \"../DarknodePayment/DarknodePayment.sol\";\n\n/// @notice CycleChanger attempts to change the cycle twice in the same block.\ncontract CycleChanger {\n\n    DarknodePayment public darknodePayment; // Passed in as a constructor parameter.\n\n    /// @notice The contract constructor.\n    /// @param _darknodePayment The address of the DarknodePaymentStore contract\n    constructor(\n        DarknodePayment _darknodePayment\n    ) public {\n        darknodePayment = _darknodePayment;\n    }\n\n    function changeCycle() public {\n        darknodePayment.changeCycle();\n        darknodePayment.changeCycle();\n    }\n\n    function time() public view returns (uint256) {\n        return block.timestamp;\n    }\n}",
  "sourcePath": "/home/ray/0confirmation-mono/node_modules/darknode-sol/contracts/test/CycleChanger.sol",
  "compiler": {
    "name": "solc",
    "version": "0.5.12+commit.7709ece9.Linux.g++"
  },
  "schemaVersion": "3.0.23",
  "updatedAt": "2020-02-27T23:36:07.448Z",
  "devdoc": {
    "methods": {
      "constructor": {
        "params": {
          "_darknodePayment": "The address of the DarknodePaymentStore contract"
        }
      }
    }
  },
  "userdoc": {
    "methods": {
      "constructor": "The contract constructor."
    },
    "notice": "CycleChanger attempts to change the cycle twice in the same block."
  }
}