{
  "contractName": "DarknodePaymentStore",
  "abi": [
    {
      "inputs": [
        {
          "internalType": "string",
          "name": "_VERSION",
          "type": "string"
        }
      ],
      "payable": false,
      "stateMutability": "nonpayable",
      "type": "constructor"
    },
    {
      "anonymous": false,
      "inputs": [
        {
          "indexed": true,
          "internalType": "address",
          "name": "previousOwner",
          "type": "address"
        },
        {
          "indexed": true,
          "internalType": "address",
          "name": "newOwner",
          "type": "address"
        }
      ],
      "name": "OwnershipTransferred",
      "type": "event"
    },
    {
      "payable": true,
      "stateMutability": "payable",
      "type": "fallback"
    },
    {
      "constant": true,
      "inputs": [],
      "name": "ETHEREUM",
      "outputs": [
        {
          "internalType": "address",
          "name": "",
          "type": "address"
        }
      ],
      "payable": false,
      "stateMutability": "view",
      "type": "function"
    },
    {
      "constant": true,
      "inputs": [],
      "name": "VERSION",
      "outputs": [
        {
          "internalType": "string",
          "name": "",
          "type": "string"
        }
      ],
      "payable": false,
      "stateMutability": "view",
      "type": "function"
    },
    {
      "constant": false,
      "inputs": [],
      "name": "claimOwnership",
      "outputs": [],
      "payable": false,
      "stateMutability": "nonpayable",
      "type": "function"
    },
    {
      "constant": true,
      "inputs": [
        {
          "internalType": "address",
          "name": "",
          "type": "address"
        },
        {
          "internalType": "address",
          "name": "",
          "type": "address"
        }
      ],
      "name": "darknodeBalances",
      "outputs": [
        {
          "internalType": "uint256",
          "name": "",
          "type": "uint256"
        }
      ],
      "payable": false,
      "stateMutability": "view",
      "type": "function"
    },
    {
      "constant": true,
      "inputs": [],
      "name": "isOwner",
      "outputs": [
        {
          "internalType": "bool",
          "name": "",
          "type": "bool"
        }
      ],
      "payable": false,
      "stateMutability": "view",
      "type": "function"
    },
    {
      "constant": true,
      "inputs": [
        {
          "internalType": "address",
          "name": "",
          "type": "address"
        }
      ],
      "name": "lockedBalances",
      "outputs": [
        {
          "internalType": "uint256",
          "name": "",
          "type": "uint256"
        }
      ],
      "payable": false,
      "stateMutability": "view",
      "type": "function"
    },
    {
      "constant": true,
      "inputs": [],
      "name": "owner",
      "outputs": [
        {
          "internalType": "address",
          "name": "",
          "type": "address"
        }
      ],
      "payable": false,
      "stateMutability": "view",
      "type": "function"
    },
    {
      "constant": true,
      "inputs": [],
      "name": "pendingOwner",
      "outputs": [
        {
          "internalType": "address",
          "name": "",
          "type": "address"
        }
      ],
      "payable": false,
      "stateMutability": "view",
      "type": "function"
    },
    {
      "constant": false,
      "inputs": [],
      "name": "renounceOwnership",
      "outputs": [],
      "payable": false,
      "stateMutability": "nonpayable",
      "type": "function"
    },
    {
      "constant": false,
      "inputs": [
        {
          "internalType": "address",
          "name": "newOwner",
          "type": "address"
        }
      ],
      "name": "transferOwnership",
      "outputs": [],
      "payable": false,
      "stateMutability": "nonpayable",
      "type": "function"
    },
    {
      "constant": true,
      "inputs": [
        {
          "internalType": "address",
          "name": "_token",
          "type": "address"
        }
      ],
      "name": "totalBalance",
      "outputs": [
        {
          "internalType": "uint256",
          "name": "",
          "type": "uint256"
        }
      ],
      "payable": false,
      "stateMutability": "view",
      "type": "function"
    },
    {
      "constant": true,
      "inputs": [
        {
          "internalType": "address",
          "name": "_token",
          "type": "address"
        }
      ],
      "name": "availableBalance",
      "outputs": [
        {
          "internalType": "uint256",
          "name": "",
          "type": "uint256"
        }
      ],
      "payable": false,
      "stateMutability": "view",
      "type": "function"
    },
    {
      "constant": false,
      "inputs": [
        {
          "internalType": "address",
          "name": "_darknode",
          "type": "address"
        },
        {
          "internalType": "address",
          "name": "_token",
          "type": "address"
        },
        {
          "internalType": "uint256",
          "name": "_amount",
          "type": "uint256"
        }
      ],
      "name": "incrementDarknodeBalance",
      "outputs": [],
      "payable": false,
      "stateMutability": "nonpayable",
      "type": "function"
    },
    {
      "constant": false,
      "inputs": [
        {
          "internalType": "address",
          "name": "_darknode",
          "type": "address"
        },
        {
          "internalType": "address",
          "name": "_token",
          "type": "address"
        },
        {
          "internalType": "uint256",
          "name": "_amount",
          "type": "uint256"
        },
        {
          "internalType": "address payable",
          "name": "_recipient",
          "type": "address"
        }
      ],
      "name": "transfer",
      "outputs": [],
      "payable": false,
      "stateMutability": "nonpayable",
      "type": "function"
    }
  ],
  "bytecode": "0x60806040523480156200001157600080fd5b5060405162001db438038062001db4833981810160405260208110156200003757600080fd5b81019080805160405193929190846401000000008211156200005857600080fd5b838201915060208201858111156200006f57600080fd5b82518660018202830111640100000000821117156200008d57600080fd5b8083526020830192505050908051906020019080838360005b83811015620000c3578082015181840152602081019050620000a6565b50505050905090810190601f168015620000f15780820380516001836020036101000a031916815260200191505b5060405250505060006200010a620001c860201b60201c565b9050806000806101000a81548173ffffffffffffffffffffffffffffffffffffffff021916908373ffffffffffffffffffffffffffffffffffffffff1602179055508073ffffffffffffffffffffffffffffffffffffffff16600073ffffffffffffffffffffffffffffffffffffffff167f8be0079c531659141344cd1fd0a4f28419497f9722a3daafe3b4186f6b6457e060405160405180910390a3508060029080519060200190620001c0929190620001d0565b50506200027f565b600033905090565b828054600181600116156101000203166002900490600052602060002090601f016020900481019282601f106200021357805160ff191683800117855562000244565b8280016001018555821562000244579182015b828111156200024357825182559160200191906001019062000226565b5b50905062000253919062000257565b5090565b6200027c91905b80821115620002785760008160009055506001016200025e565b5090565b90565b611b25806200028f6000396000f3fe6080604052600436106100dd5760003560e01c8063a0821be31161007f578063f2fde38b11610059578063f2fde38b14610419578063f7cdf47c1461046a578063f9ce7813146104c1578063ffa1ad741461055c576100dd565b8063a0821be3146102e2578063d23b90a514610347578063e30c3978146103c2576100dd565b806370324b77116100bb57806370324b77146101c0578063715018a6146102455780638da5cb5b1461025c5780638f32d59b146102b3576100dd565b80630483a7f6146100df5780634e71e0c8146101445780636eacd3981461015b575b005b3480156100eb57600080fd5b5061012e6004803603602081101561010257600080fd5b81019080803573ffffffffffffffffffffffffffffffffffffffff1690602001909291905050506105ec565b6040518082815260200191505060405180910390f35b34801561015057600080fd5b50610159610604565b005b34801561016757600080fd5b506101aa6004803603602081101561017e57600080fd5b81019080803573ffffffffffffffffffffffffffffffffffffffff169060200190929190505050610703565b6040518082815260200191505060405180910390f35b3480156101cc57600080fd5b5061022f600480360360408110156101e357600080fd5b81019080803573ffffffffffffffffffffffffffffffffffffffff169060200190929190803573ffffffffffffffffffffffffffffffffffffffff16906020019092919050505061082c565b6040518082815260200191505060405180910390f35b34801561025157600080fd5b5061025a610851565b005b34801561026857600080fd5b5061027161098a565b604051808273ffffffffffffffffffffffffffffffffffffffff1673ffffffffffffffffffffffffffffffffffffffff16815260200191505060405180910390f35b3480156102bf57600080fd5b506102c86109b3565b604051808215151515815260200191505060405180910390f35b3480156102ee57600080fd5b506103316004803603602081101561030557600080fd5b81019080803573ffffffffffffffffffffffffffffffffffffffff169060200190929190505050610a11565b6040518082815260200191505060405180910390f35b34801561035357600080fd5b506103c06004803603606081101561036a57600080fd5b81019080803573ffffffffffffffffffffffffffffffffffffffff169060200190929190803573ffffffffffffffffffffffffffffffffffffffff16906020019092919080359060200190929190505050610a74565b005b3480156103ce57600080fd5b506103d7610d51565b604051808273ffffffffffffffffffffffffffffffffffffffff1673ffffffffffffffffffffffffffffffffffffffff16815260200191505060405180910390f35b34801561042557600080fd5b506104686004803603602081101561043c57600080fd5b81019080803573ffffffffffffffffffffffffffffffffffffffff169060200190929190505050610d77565b005b34801561047657600080fd5b5061047f610f38565b604051808273ffffffffffffffffffffffffffffffffffffffff1673ffffffffffffffffffffffffffffffffffffffff16815260200191505060405180910390f35b3480156104cd57600080fd5b5061055a600480360360808110156104e457600080fd5b81019080803573ffffffffffffffffffffffffffffffffffffffff169060200190929190803573ffffffffffffffffffffffffffffffffffffffff16906020019092919080359060200190929190803573ffffffffffffffffffffffffffffffffffffffff169060200190929190505050610f50565b005b34801561056857600080fd5b50610571611309565b6040518080602001828103825283818151815260200191508051906020019080838360005b838110156105b1578082015181840152602081019050610596565b50505050905090810190601f1680156105de5780820380516001836020036101000a031916815260200191505b509250505060405180910390f35b60046020528060005260406000206000915090505481565b600160009054906101000a900473ffffffffffffffffffffffffffffffffffffffff1673ffffffffffffffffffffffffffffffffffffffff166106456113a7565b73ffffffffffffffffffffffffffffffffffffffff16146106b1576040517f08c379a000000000000000000000000000000000000000000000000000000000815260040180806020018281038252602a815260200180611a9d602a913960400191505060405180910390fd5b6106dc600160009054906101000a900473ffffffffffffffffffffffffffffffffffffffff166113af565b600160006101000a81549073ffffffffffffffffffffffffffffffffffffffff0219169055565b600073eeeeeeeeeeeeeeeeeeeeeeeeeeeeeeeeeeeeeeee73ffffffffffffffffffffffffffffffffffffffff168273ffffffffffffffffffffffffffffffffffffffff16141561076c573073ffffffffffffffffffffffffffffffffffffffff16319050610827565b8173ffffffffffffffffffffffffffffffffffffffff166370a08231306040518263ffffffff1660e01b8152600401808273ffffffffffffffffffffffffffffffffffffffff1673ffffffffffffffffffffffffffffffffffffffff16815260200191505060206040518083038186803b1580156107e957600080fd5b505afa1580156107fd573d6000803e3d6000fd5b505050506040513d602081101561081357600080fd5b810190808051906020019092919050505090505b919050565b6003602052816000526040600020602052806000526040600020600091509150505481565b6108596109b3565b6108cb576040517f08c379a00000000000000000000000000000000000000000000000000000000081526004018080602001828103825260208152602001807f4f776e61626c653a2063616c6c6572206973206e6f7420746865206f776e657281525060200191505060405180910390fd5b600073ffffffffffffffffffffffffffffffffffffffff166000809054906101000a900473ffffffffffffffffffffffffffffffffffffffff1673ffffffffffffffffffffffffffffffffffffffff167f8be0079c531659141344cd1fd0a4f28419497f9722a3daafe3b4186f6b6457e060405160405180910390a360008060006101000a81548173ffffffffffffffffffffffffffffffffffffffff021916908373ffffffffffffffffffffffffffffffffffffffff160217905550565b60008060009054906101000a900473ffffffffffffffffffffffffffffffffffffffff16905090565b60008060009054906101000a900473ffffffffffffffffffffffffffffffffffffffff1673ffffffffffffffffffffffffffffffffffffffff166109f56113a7565b73ffffffffffffffffffffffffffffffffffffffff1614905090565b6000610a6d600460008473ffffffffffffffffffffffffffffffffffffffff1673ffffffffffffffffffffffffffffffffffffffff16815260200190815260200160002054610a5f84610703565b6114f390919063ffffffff16565b9050919050565b610a7c6109b3565b610aee576040517f08c379a00000000000000000000000000000000000000000000000000000000081526004018080602001828103825260208152602001807f4f776e61626c653a2063616c6c6572206973206e6f7420746865206f776e657281525060200191505060405180910390fd5b60008111610b47576040517f08c379a0000000000000000000000000000000000000000000000000000000008152600401808060200182810382526024815260200180611a206024913960400191505060405180910390fd5b80610b5183610a11565b1015610ba8576040517f08c379a0000000000000000000000000000000000000000000000000000000008152600401808060200182810382526033815260200180611a6a6033913960400191505060405180910390fd5b610c3781600360008673ffffffffffffffffffffffffffffffffffffffff1673ffffffffffffffffffffffffffffffffffffffff16815260200190815260200160002060008573ffffffffffffffffffffffffffffffffffffffff1673ffffffffffffffffffffffffffffffffffffffff1681526020019081526020016000205461153d90919063ffffffff16565b600360008573ffffffffffffffffffffffffffffffffffffffff1673ffffffffffffffffffffffffffffffffffffffff16815260200190815260200160002060008473ffffffffffffffffffffffffffffffffffffffff1673ffffffffffffffffffffffffffffffffffffffff16815260200190815260200160002081905550610d0981600460008573ffffffffffffffffffffffffffffffffffffffff1673ffffffffffffffffffffffffffffffffffffffff1681526020019081526020016000205461153d90919063ffffffff16565b600460008473ffffffffffffffffffffffffffffffffffffffff1673ffffffffffffffffffffffffffffffffffffffff16815260200190815260200160002081905550505050565b600160009054906101000a900473ffffffffffffffffffffffffffffffffffffffff1681565b610d7f6109b3565b610df1576040517f08c379a00000000000000000000000000000000000000000000000000000000081526004018080602001828103825260208152602001807f4f776e61626c653a2063616c6c6572206973206e6f7420746865206f776e657281525060200191505060405180910390fd5b610df961098a565b73ffffffffffffffffffffffffffffffffffffffff168173ffffffffffffffffffffffffffffffffffffffff1614158015610e825750600160009054906101000a900473ffffffffffffffffffffffffffffffffffffffff1673ffffffffffffffffffffffffffffffffffffffff168173ffffffffffffffffffffffffffffffffffffffff1614155b610ef4576040517f08c379a000000000000000000000000000000000000000000000000000000000815260040180806020018281038252601c8152602001807f436c61696d61626c653a20696e76616c6964206e6577206f776e65720000000081525060200191505060405180910390fd5b80600160006101000a81548173ffffffffffffffffffffffffffffffffffffffff021916908373ffffffffffffffffffffffffffffffffffffffff16021790555050565b73eeeeeeeeeeeeeeeeeeeeeeeeeeeeeeeeeeeeeeee81565b610f586109b3565b610fca576040517f08c379a00000000000000000000000000000000000000000000000000000000081526004018080602001828103825260208152602001807f4f776e61626c653a2063616c6c6572206973206e6f7420746865206f776e657281525060200191505060405180910390fd5b81600360008673ffffffffffffffffffffffffffffffffffffffff1673ffffffffffffffffffffffffffffffffffffffff16815260200190815260200160002060008573ffffffffffffffffffffffffffffffffffffffff1673ffffffffffffffffffffffffffffffffffffffff16815260200190815260200160002054101561109f576040517f08c379a00000000000000000000000000000000000000000000000000000000081526004018080602001828103825260338152602001806119ed6033913960400191505060405180910390fd5b61112e82600360008773ffffffffffffffffffffffffffffffffffffffff1673ffffffffffffffffffffffffffffffffffffffff16815260200190815260200160002060008673ffffffffffffffffffffffffffffffffffffffff1673ffffffffffffffffffffffffffffffffffffffff168152602001908152602001600020546114f390919063ffffffff16565b600360008673ffffffffffffffffffffffffffffffffffffffff1673ffffffffffffffffffffffffffffffffffffffff16815260200190815260200160002060008573ffffffffffffffffffffffffffffffffffffffff1673ffffffffffffffffffffffffffffffffffffffff1681526020019081526020016000208190555061120082600460008673ffffffffffffffffffffffffffffffffffffffff1673ffffffffffffffffffffffffffffffffffffffff168152602001908152602001600020546114f390919063ffffffff16565b600460008573ffffffffffffffffffffffffffffffffffffffff1673ffffffffffffffffffffffffffffffffffffffff1681526020019081526020016000208190555073eeeeeeeeeeeeeeeeeeeeeeeeeeeeeeeeeeeeeeee73ffffffffffffffffffffffffffffffffffffffff168373ffffffffffffffffffffffffffffffffffffffff1614156112d7578073ffffffffffffffffffffffffffffffffffffffff166108fc839081150290604051600060405180830381858888f193505050501580156112d1573d6000803e3d6000fd5b50611303565b61130281838573ffffffffffffffffffffffffffffffffffffffff166115c59092919063ffffffff16565b5b50505050565b60028054600181600116156101000203166002900480601f01602080910402602001604051908101604052809291908181526020018280546001816001161561010002031660029004801561139f5780601f106113745761010080835404028352916020019161139f565b820191906000526020600020905b81548152906001019060200180831161138257829003601f168201915b505050505081565b600033905090565b600073ffffffffffffffffffffffffffffffffffffffff168173ffffffffffffffffffffffffffffffffffffffff161415611435576040517f08c379a0000000000000000000000000000000000000000000000000000000008152600401808060200182810382526026815260200180611a446026913960400191505060405180910390fd5b8073ffffffffffffffffffffffffffffffffffffffff166000809054906101000a900473ffffffffffffffffffffffffffffffffffffffff1673ffffffffffffffffffffffffffffffffffffffff167f8be0079c531659141344cd1fd0a4f28419497f9722a3daafe3b4186f6b6457e060405160405180910390a3806000806101000a81548173ffffffffffffffffffffffffffffffffffffffff021916908373ffffffffffffffffffffffffffffffffffffffff16021790555050565b600061153583836040518060400160405280601e81526020017f536166654d6174683a207375627472616374696f6e206f766572666c6f770000815250611696565b905092915050565b6000808284019050838110156115bb576040517f08c379a000000000000000000000000000000000000000000000000000000000815260040180806020018281038252601b8152602001807f536166654d6174683a206164646974696f6e206f766572666c6f77000000000081525060200191505060405180910390fd5b8091505092915050565b611691838473ffffffffffffffffffffffffffffffffffffffff1663a9059cbb905060e01b8484604051602401808373ffffffffffffffffffffffffffffffffffffffff1673ffffffffffffffffffffffffffffffffffffffff16815260200182815260200192505050604051602081830303815290604052907bffffffffffffffffffffffffffffffffffffffffffffffffffffffff19166020820180517bffffffffffffffffffffffffffffffffffffffffffffffffffffffff8381831617835250505050611756565b505050565b6000838311158290611743576040517f08c379a00000000000000000000000000000000000000000000000000000000081526004018080602001828103825283818151815260200191508051906020019080838360005b838110156117085780820151818401526020810190506116ed565b50505050905090810190601f1680156117355780820380516001836020036101000a031916815260200191505b509250505060405180910390fd5b5060008385039050809150509392505050565b6117758273ffffffffffffffffffffffffffffffffffffffff166119a1565b6117e7576040517f08c379a000000000000000000000000000000000000000000000000000000000815260040180806020018281038252601f8152602001807f5361666545524332303a2063616c6c20746f206e6f6e2d636f6e74726163740081525060200191505060405180910390fd5b600060608373ffffffffffffffffffffffffffffffffffffffff16836040518082805190602001908083835b602083106118365780518252602082019150602081019050602083039250611813565b6001836020036101000a0380198251168184511680821785525050505050509050019150506000604051808303816000865af19150503d8060008114611898576040519150601f19603f3d011682016040523d82523d6000602084013e61189d565b606091505b509150915081611915576040517f08c379a00000000000000000000000000000000000000000000000000000000081526004018080602001828103825260208152602001807f5361666545524332303a206c6f772d6c6576656c2063616c6c206661696c656481525060200191505060405180910390fd5b60008151111561199b5780806020019051602081101561193457600080fd5b810190808051906020019092919050505061199a576040517f08c379a000000000000000000000000000000000000000000000000000000000815260040180806020018281038252602a815260200180611ac7602a913960400191505060405180910390fd5b5b50505050565b60008060007fc5d2460186f7233c927e7db2dcc703c0e500b653ca82273b7bfad8045d85a47060001b9050833f91508082141580156119e357506000801b8214155b9250505091905056fe4461726b6e6f64655061796d656e7453746f72653a20696e73756666696369656e74206461726b6e6f64652062616c616e63654461726b6e6f64655061796d656e7453746f72653a20696e76616c696420616d6f756e744f776e61626c653a206e6577206f776e657220697320746865207a65726f20616464726573734461726b6e6f64655061796d656e7453746f72653a20696e73756666696369656e7420636f6e74726163742062616c616e6365436c61696d61626c653a2063616c6c6572206973206e6f74207468652070656e64696e67206f776e65725361666545524332303a204552433230206f7065726174696f6e20646964206e6f742073756363656564a265627a7a723158203c9af9166d4a93430b4939af8b591632fe603b556b40451e0350ef3192c4f2ea64736f6c634300050c0032",
  "source": "pragma solidity 0.5.12;\n\nimport \"openzeppelin-solidity/contracts/math/SafeMath.sol\";\nimport \"openzeppelin-solidity/contracts/token/ERC20/ERC20.sol\";\nimport \"openzeppelin-solidity/contracts/token/ERC20/SafeERC20.sol\";\n\nimport \"../libraries/Claimable.sol\";\nimport \"../libraries/ERC20WithFees.sol\";\n\n/// @notice DarknodePaymentStore is responsible for tracking balances which have\n///         been allocated to the darknodes. It is also responsible for holding\n///         the tokens to be paid out to darknodes.\ncontract DarknodePaymentStore is Claimable {\n    using SafeMath for uint256;\n    using SafeERC20 for ERC20;\n    using ERC20WithFees for ERC20;\n\n    string public VERSION; // Passed in as a constructor parameter.\n\n    /// @notice The special address for Ether.\n    address constant public ETHEREUM = 0xEeeeeEeeeEeEeeEeEeEeeEEEeeeeEeeeeeeeEEeE;\n\n    /// @notice Mapping of darknode -> token -> balance\n    mapping(address => mapping(address => uint256)) public darknodeBalances;\n\n    /// @notice Mapping of token -> lockedAmount\n    mapping(address => uint256) public lockedBalances;\n\n    /// @notice The contract constructor.\n    ///\n    /// @param _VERSION A string defining the contract version.\n    constructor(\n        string memory _VERSION\n    ) public {\n        VERSION = _VERSION;\n    }\n\n    /// @notice Allow direct ETH payments to be made to the DarknodePaymentStore.\n    function () external payable {\n    }\n\n    /// @notice Get the total balance of the contract for a particular token\n    ///\n    /// @param _token The token to check balance of\n    /// @return The total balance of the contract\n    function totalBalance(address _token) public view returns (uint256) {\n        if (_token == ETHEREUM) {\n            return address(this).balance;\n        } else {\n            return ERC20(_token).balanceOf(address(this));\n        }\n    }\n\n    /// @notice Get the available balance of the contract for a particular token\n    ///         This is the free amount which has not yet been allocated to\n    ///         darknodes.\n    ///\n    /// @param _token The token to check balance of\n    /// @return The available balance of the contract\n    function availableBalance(address _token) public view returns (uint256) {\n        return totalBalance(_token).sub(lockedBalances[_token]);\n    }\n\n    /// @notice Increments the amount of funds allocated to a particular\n    ///         darknode.\n    ///\n    /// @param _darknode The address of the darknode to increase balance of\n    /// @param _token The token which the balance should be incremented\n    /// @param _amount The amount that the balance should be incremented by\n    function incrementDarknodeBalance(address _darknode, address _token, uint256 _amount) external onlyOwner {\n        require(_amount > 0, \"DarknodePaymentStore: invalid amount\");\n        require(availableBalance(_token) >= _amount, \"DarknodePaymentStore: insufficient contract balance\");\n\n        darknodeBalances[_darknode][_token] = darknodeBalances[_darknode][_token].add(_amount);\n        lockedBalances[_token] = lockedBalances[_token].add(_amount);\n    }\n\n    /// @notice Transfers an amount out of balance to a specified address\n    ///\n    /// @param _darknode The address of the darknode\n    /// @param _token Which token to transfer\n    /// @param _amount The amount to transfer\n    /// @param _recipient The address to withdraw it to\n    function transfer(address _darknode, address _token, uint256 _amount, address payable _recipient) external onlyOwner {\n        require(darknodeBalances[_darknode][_token] >= _amount, \"DarknodePaymentStore: insufficient darknode balance\");\n        darknodeBalances[_darknode][_token] = darknodeBalances[_darknode][_token].sub(_amount);\n        lockedBalances[_token] = lockedBalances[_token].sub(_amount);\n\n        if (_token == ETHEREUM) {\n            _recipient.transfer(_amount);\n        } else {\n            ERC20(_token).safeTransfer(_recipient, _amount);\n        }\n    }\n\n}\n",
  "sourcePath": "/home/ray/0confirmation-mono/node_modules/darknode-sol/contracts/DarknodePayment/DarknodePaymentStore.sol",
  "compiler": {
    "name": "solc",
    "version": "0.5.12+commit.7709ece9.Linux.g++"
  },
  "schemaVersion": "3.0.23",
  "updatedAt": "2020-02-27T23:36:07.391Z",
  "devdoc": {
    "methods": {
      "availableBalance(address)": {
        "params": {
          "_token": "The token to check balance of"
        },
        "return": "The available balance of the contract"
      },
      "constructor": {
        "params": {
          "_VERSION": "A string defining the contract version."
        }
      },
      "incrementDarknodeBalance(address,address,uint256)": {
        "params": {
          "_amount": "The amount that the balance should be incremented by",
          "_darknode": "The address of the darknode to increase balance of",
          "_token": "The token which the balance should be incremented"
        }
      },
      "isOwner()": {
        "details": "Returns true if the caller is the current owner."
      },
      "owner()": {
        "details": "Returns the address of the current owner."
      },
      "renounceOwnership()": {
        "details": "Leaves the contract without owner. It will not be possible to call `onlyOwner` functions anymore. Can only be called by the current owner.     * NOTE: Renouncing ownership will leave the contract without an owner, thereby removing any functionality that is only available to the owner."
      },
      "totalBalance(address)": {
        "params": {
          "_token": "The token to check balance of"
        },
        "return": "The total balance of the contract"
      },
      "transfer(address,address,uint256,address)": {
        "params": {
          "_amount": "The amount to transfer",
          "_darknode": "The address of the darknode",
          "_recipient": "The address to withdraw it to",
          "_token": "Which token to transfer"
        }
      }
    }
  },
  "userdoc": {
    "methods": {
      "availableBalance(address)": {
        "notice": "Get the available balance of the contract for a particular token         This is the free amount which has not yet been allocated to         darknodes. "
      },
      "constructor": "The contract constructor. ",
      "incrementDarknodeBalance(address,address,uint256)": {
        "notice": "Increments the amount of funds allocated to a particular         darknode. "
      },
      "totalBalance(address)": {
        "notice": "Get the total balance of the contract for a particular token "
      },
      "transfer(address,address,uint256,address)": {
        "notice": "Transfers an amount out of balance to a specified address "
      }
    },
    "notice": "DarknodePaymentStore is responsible for tracking balances which have         been allocated to the darknodes. It is also responsible for holding         the tokens to be paid out to darknodes."
  }
}