{
  "contractName": "DarknodePayment",
  "abi": [
    {
      "inputs": [
        {
          "internalType": "string",
          "name": "_VERSION",
          "type": "string"
        },
        {
          "internalType": "contract DarknodeRegistry",
          "name": "_darknodeRegistry",
          "type": "address"
        },
        {
          "internalType": "contract DarknodePaymentStore",
          "name": "_darknodePaymentStore",
          "type": "address"
        },
        {
          "internalType": "uint256",
          "name": "_cyclePayoutPercent",
          "type": "uint256"
        }
      ],
      "payable": false,
      "stateMutability": "nonpayable",
      "type": "constructor"
    },
    {
      "anonymous": false,
      "inputs": [
        {
          "indexed": true,
          "internalType": "address",
          "name": "_newCycleChanger",
          "type": "address"
        },
        {
          "indexed": true,
          "internalType": "address",
          "name": "_oldCycleChanger",
          "type": "address"
        }
      ],
      "name": "LogCycleChangerChanged",
      "type": "event"
    },
    {
      "anonymous": false,
      "inputs": [
        {
          "indexed": true,
          "internalType": "address",
          "name": "_darknode",
          "type": "address"
        },
        {
          "indexed": false,
          "internalType": "uint256",
          "name": "_cycle",
          "type": "uint256"
        }
      ],
      "name": "LogDarknodeClaim",
      "type": "event"
    },
    {
      "anonymous": false,
      "inputs": [
        {
          "indexed": true,
          "internalType": "contract DarknodeRegistry",
          "name": "_previousDarknodeRegistry",
          "type": "address"
        },
        {
          "indexed": true,
          "internalType": "contract DarknodeRegistry",
          "name": "_nextDarknodeRegistry",
          "type": "address"
        }
      ],
      "name": "LogDarknodeRegistryUpdated",
      "type": "event"
    },
    {
      "anonymous": false,
      "inputs": [
        {
          "indexed": true,
          "internalType": "address",
          "name": "_payee",
          "type": "address"
        },
        {
          "indexed": false,
          "internalType": "uint256",
          "name": "_value",
          "type": "uint256"
        },
        {
          "indexed": true,
          "internalType": "address",
          "name": "_token",
          "type": "address"
        }
      ],
      "name": "LogDarknodeWithdrew",
      "type": "event"
    },
    {
      "anonymous": false,
      "inputs": [
        {
          "indexed": true,
          "internalType": "address",
          "name": "_payer",
          "type": "address"
        },
        {
          "indexed": false,
          "internalType": "uint256",
          "name": "_amount",
          "type": "uint256"
        },
        {
          "indexed": true,
          "internalType": "address",
          "name": "_token",
          "type": "address"
        }
      ],
      "name": "LogPaymentReceived",
      "type": "event"
    },
    {
      "anonymous": false,
      "inputs": [
        {
          "indexed": false,
          "internalType": "uint256",
          "name": "_newPercent",
          "type": "uint256"
        },
        {
          "indexed": false,
          "internalType": "uint256",
          "name": "_oldPercent",
          "type": "uint256"
        }
      ],
      "name": "LogPayoutPercentChanged",
      "type": "event"
    },
    {
      "anonymous": false,
      "inputs": [
        {
          "indexed": true,
          "internalType": "address",
          "name": "_token",
          "type": "address"
        }
      ],
      "name": "LogTokenDeregistered",
      "type": "event"
    },
    {
      "anonymous": false,
      "inputs": [
        {
          "indexed": true,
          "internalType": "address",
          "name": "_token",
          "type": "address"
        }
      ],
      "name": "LogTokenRegistered",
      "type": "event"
    },
    {
      "anonymous": false,
      "inputs": [
        {
          "indexed": true,
          "internalType": "address",
          "name": "previousOwner",
          "type": "address"
        },
        {
          "indexed": true,
          "internalType": "address",
          "name": "newOwner",
          "type": "address"
        }
      ],
      "name": "OwnershipTransferred",
      "type": "event"
    },
    {
      "payable": true,
      "stateMutability": "payable",
      "type": "fallback"
    },
    {
      "constant": true,
      "inputs": [],
      "name": "ETHEREUM",
      "outputs": [
        {
          "internalType": "address",
          "name": "",
          "type": "address"
        }
      ],
      "payable": false,
      "stateMutability": "view",
      "type": "function"
    },
    {
      "constant": true,
      "inputs": [],
      "name": "VERSION",
      "outputs": [
        {
          "internalType": "string",
          "name": "",
          "type": "string"
        }
      ],
      "payable": false,
      "stateMutability": "view",
      "type": "function"
    },
    {
      "constant": false,
      "inputs": [],
      "name": "claimOwnership",
      "outputs": [],
      "payable": false,
      "stateMutability": "nonpayable",
      "type": "function"
    },
    {
      "constant": true,
      "inputs": [],
      "name": "currentCycle",
      "outputs": [
        {
          "internalType": "uint256",
          "name": "",
          "type": "uint256"
        }
      ],
      "payable": false,
      "stateMutability": "view",
      "type": "function"
    },
    {
      "constant": true,
      "inputs": [],
      "name": "currentCyclePayoutPercent",
      "outputs": [
        {
          "internalType": "uint256",
          "name": "",
          "type": "uint256"
        }
      ],
      "payable": false,
      "stateMutability": "view",
      "type": "function"
    },
    {
      "constant": true,
      "inputs": [],
      "name": "cycleChanger",
      "outputs": [
        {
          "internalType": "address",
          "name": "",
          "type": "address"
        }
      ],
      "payable": false,
      "stateMutability": "view",
      "type": "function"
    },
    {
      "constant": true,
      "inputs": [],
      "name": "cycleStartTime",
      "outputs": [
        {
          "internalType": "uint256",
          "name": "",
          "type": "uint256"
        }
      ],
      "payable": false,
      "stateMutability": "view",
      "type": "function"
    },
    {
      "constant": true,
      "inputs": [],
      "name": "darknodeRegistry",
      "outputs": [
        {
          "internalType": "contract DarknodeRegistry",
          "name": "",
          "type": "address"
        }
      ],
      "payable": false,
      "stateMutability": "view",
      "type": "function"
    },
    {
      "constant": true,
      "inputs": [],
      "name": "isOwner",
      "outputs": [
        {
          "internalType": "bool",
          "name": "",
          "type": "bool"
        }
      ],
      "payable": false,
      "stateMutability": "view",
      "type": "function"
    },
    {
      "constant": true,
      "inputs": [],
      "name": "nextCyclePayoutPercent",
      "outputs": [
        {
          "internalType": "uint256",
          "name": "",
          "type": "uint256"
        }
      ],
      "payable": false,
      "stateMutability": "view",
      "type": "function"
    },
    {
      "constant": true,
      "inputs": [],
      "name": "owner",
      "outputs": [
        {
          "internalType": "address",
          "name": "",
          "type": "address"
        }
      ],
      "payable": false,
      "stateMutability": "view",
      "type": "function"
    },
    {
      "constant": true,
      "inputs": [],
      "name": "pendingOwner",
      "outputs": [
        {
          "internalType": "address",
          "name": "",
          "type": "address"
        }
      ],
      "payable": false,
      "stateMutability": "view",
      "type": "function"
    },
    {
      "constant": true,
      "inputs": [
        {
          "internalType": "uint256",
          "name": "",
          "type": "uint256"
        }
      ],
      "name": "pendingTokens",
      "outputs": [
        {
          "internalType": "address",
          "name": "",
          "type": "address"
        }
      ],
      "payable": false,
      "stateMutability": "view",
      "type": "function"
    },
    {
      "constant": true,
      "inputs": [],
      "name": "previousCycle",
      "outputs": [
        {
          "internalType": "uint256",
          "name": "",
          "type": "uint256"
        }
      ],
      "payable": false,
      "stateMutability": "view",
      "type": "function"
    },
    {
      "constant": true,
      "inputs": [
        {
          "internalType": "address",
          "name": "",
          "type": "address"
        }
      ],
      "name": "previousCycleRewardShare",
      "outputs": [
        {
          "internalType": "uint256",
          "name": "",
          "type": "uint256"
        }
      ],
      "payable": false,
      "stateMutability": "view",
      "type": "function"
    },
    {
      "constant": true,
      "inputs": [
        {
          "internalType": "address",
          "name": "",
          "type": "address"
        }
      ],
      "name": "registeredTokenIndex",
      "outputs": [
        {
          "internalType": "uint256",
          "name": "",
          "type": "uint256"
        }
      ],
      "payable": false,
      "stateMutability": "view",
      "type": "function"
    },
    {
      "constant": true,
      "inputs": [
        {
          "internalType": "uint256",
          "name": "",
          "type": "uint256"
        }
      ],
      "name": "registeredTokens",
      "outputs": [
        {
          "internalType": "address",
          "name": "",
          "type": "address"
        }
      ],
      "payable": false,
      "stateMutability": "view",
      "type": "function"
    },
    {
      "constant": false,
      "inputs": [],
      "name": "renounceOwnership",
      "outputs": [],
      "payable": false,
      "stateMutability": "nonpayable",
      "type": "function"
    },
    {
      "constant": true,
      "inputs": [
        {
          "internalType": "address",
          "name": "",
          "type": "address"
        },
        {
          "internalType": "uint256",
          "name": "",
          "type": "uint256"
        }
      ],
      "name": "rewardClaimed",
      "outputs": [
        {
          "internalType": "bool",
          "name": "",
          "type": "bool"
        }
      ],
      "payable": false,
      "stateMutability": "view",
      "type": "function"
    },
    {
      "constant": true,
      "inputs": [],
      "name": "store",
      "outputs": [
        {
          "internalType": "contract DarknodePaymentStore",
          "name": "",
          "type": "address"
        }
      ],
      "payable": false,
      "stateMutability": "view",
      "type": "function"
    },
    {
      "constant": false,
      "inputs": [
        {
          "internalType": "address",
          "name": "newOwner",
          "type": "address"
        }
      ],
      "name": "transferOwnership",
      "outputs": [],
      "payable": false,
      "stateMutability": "nonpayable",
      "type": "function"
    },
    {
      "constant": true,
      "inputs": [
        {
          "internalType": "address",
          "name": "",
          "type": "address"
        }
      ],
      "name": "unclaimedRewards",
      "outputs": [
        {
          "internalType": "uint256",
          "name": "",
          "type": "uint256"
        }
      ],
      "payable": false,
      "stateMutability": "view",
      "type": "function"
    },
    {
      "constant": false,
      "inputs": [
        {
          "internalType": "contract DarknodeRegistry",
          "name": "_darknodeRegistry",
          "type": "address"
        }
      ],
      "name": "updateDarknodeRegistry",
      "outputs": [],
      "payable": false,
      "stateMutability": "nonpayable",
      "type": "function"
    },
    {
      "constant": false,
      "inputs": [
        {
          "internalType": "address",
          "name": "_darknode",
          "type": "address"
        },
        {
          "internalType": "address",
          "name": "_token",
          "type": "address"
        }
      ],
      "name": "withdraw",
      "outputs": [],
      "payable": false,
      "stateMutability": "nonpayable",
      "type": "function"
    },
    {
      "constant": false,
      "inputs": [
        {
          "internalType": "address",
          "name": "_darknode",
          "type": "address"
        },
        {
          "internalType": "address[]",
          "name": "_tokens",
          "type": "address[]"
        }
      ],
      "name": "withdrawMultiple",
      "outputs": [],
      "payable": false,
      "stateMutability": "nonpayable",
      "type": "function"
    },
    {
      "constant": true,
      "inputs": [
        {
          "internalType": "address",
          "name": "_token",
          "type": "address"
        }
      ],
      "name": "currentCycleRewardPool",
      "outputs": [
        {
          "internalType": "uint256",
          "name": "",
          "type": "uint256"
        }
      ],
      "payable": false,
      "stateMutability": "view",
      "type": "function"
    },
    {
      "constant": true,
      "inputs": [
        {
          "internalType": "address",
          "name": "_darknodeID",
          "type": "address"
        },
        {
          "internalType": "address",
          "name": "_token",
          "type": "address"
        }
      ],
      "name": "darknodeBalances",
      "outputs": [
        {
          "internalType": "uint256",
          "name": "",
          "type": "uint256"
        }
      ],
      "payable": false,
      "stateMutability": "view",
      "type": "function"
    },
    {
      "constant": false,
      "inputs": [],
      "name": "changeCycle",
      "outputs": [
        {
          "internalType": "uint256",
          "name": "",
          "type": "uint256"
        }
      ],
      "payable": false,
      "stateMutability": "nonpayable",
      "type": "function"
    },
    {
      "constant": false,
      "inputs": [
        {
          "internalType": "uint256",
          "name": "_value",
          "type": "uint256"
        },
        {
          "internalType": "address",
          "name": "_token",
          "type": "address"
        }
      ],
      "name": "deposit",
      "outputs": [],
      "payable": true,
      "stateMutability": "payable",
      "type": "function"
    },
    {
      "constant": false,
      "inputs": [
        {
          "internalType": "address",
          "name": "_token",
          "type": "address"
        }
      ],
      "name": "forward",
      "outputs": [],
      "payable": false,
      "stateMutability": "nonpayable",
      "type": "function"
    },
    {
      "constant": false,
      "inputs": [
        {
          "internalType": "address",
          "name": "_darknode",
          "type": "address"
        }
      ],
      "name": "claim",
      "outputs": [],
      "payable": false,
      "stateMutability": "nonpayable",
      "type": "function"
    },
    {
      "constant": false,
      "inputs": [
        {
          "internalType": "address",
          "name": "_token",
          "type": "address"
        }
      ],
      "name": "registerToken",
      "outputs": [],
      "payable": false,
      "stateMutability": "nonpayable",
      "type": "function"
    },
    {
      "constant": true,
      "inputs": [
        {
          "internalType": "address",
          "name": "_token",
          "type": "address"
        }
      ],
      "name": "tokenPendingRegistration",
      "outputs": [
        {
          "internalType": "bool",
          "name": "",
          "type": "bool"
        }
      ],
      "payable": false,
      "stateMutability": "view",
      "type": "function"
    },
    {
      "constant": false,
      "inputs": [
        {
          "internalType": "address",
          "name": "_token",
          "type": "address"
        }
      ],
      "name": "deregisterToken",
      "outputs": [],
      "payable": false,
      "stateMutability": "nonpayable",
      "type": "function"
    },
    {
      "constant": false,
      "inputs": [
        {
          "internalType": "address",
          "name": "_addr",
          "type": "address"
        }
      ],
      "name": "updateCycleChanger",
      "outputs": [],
      "payable": false,
      "stateMutability": "nonpayable",
      "type": "function"
    },
    {
      "constant": false,
      "inputs": [
        {
          "internalType": "uint256",
          "name": "_percent",
          "type": "uint256"
        }
      ],
      "name": "updatePayoutPercentage",
      "outputs": [],
      "payable": false,
      "stateMutability": "nonpayable",
      "type": "function"
    },
    {
      "constant": false,
      "inputs": [
        {
          "internalType": "contract DarknodePayment",
          "name": "_newOwner",
          "type": "address"
        }
      ],
      "name": "transferStoreOwnership",
      "outputs": [],
      "payable": false,
      "stateMutability": "nonpayable",
      "type": "function"
    },
    {
      "constant": false,
      "inputs": [],
      "name": "claimStoreOwnership",
      "outputs": [],
      "payable": false,
      "stateMutability": "nonpayable",
      "type": "function"
    }
  ],
  "bytecode": "0x60806040523480156200001157600080fd5b5060405162004e2338038062004e23833981810160405260808110156200003757600080fd5b81019080805160405193929190846401000000008211156200005857600080fd5b838201915060208201858111156200006f57600080fd5b82518660018202830111640100000000821117156200008d57600080fd5b8083526020830192505050908051906020019080838360005b83811015620000c3578082015181840152602081019050620000a6565b50505050905090810190601f168015620000f15780820380516001836020036101000a031916815260200191505b5060405260200180519060200190929190805190602001909291908051906020019092919050505060006200012b620003e060201b60201c565b9050806000806101000a81548173ffffffffffffffffffffffffffffffffffffffff021916908373ffffffffffffffffffffffffffffffffffffffff1602179055508073ffffffffffffffffffffffffffffffffffffffff16600073ffffffffffffffffffffffffffffffffffffffff167f8be0079c531659141344cd1fd0a4f28419497f9722a3daafe3b4186f6b6457e060405160405180910390a35080606481111562000226576040517f08c379a000000000000000000000000000000000000000000000000000000000815260040180806020018281038252602381526020018062004e006023913960400191505060405180910390fd5b84600290805190602001906200023e929190620003e8565b5083600360006101000a81548173ffffffffffffffffffffffffffffffffffffffff021916908373ffffffffffffffffffffffffffffffffffffffff16021790555082600460006101000a81548173ffffffffffffffffffffffffffffffffffffffff021916908373ffffffffffffffffffffffffffffffffffffffff16021790555081600e8190555033600560006101000a81548173ffffffffffffffffffffffffffffffffffffffff021916908373ffffffffffffffffffffffffffffffffffffffff160217905550600360009054906101000a900473ffffffffffffffffffffffffffffffffffffffff1673ffffffffffffffffffffffffffffffffffffffff1663766718086040518163ffffffff1660e01b8152600401604080518083038186803b1580156200037157600080fd5b505afa15801562000386573d6000803e3d6000fd5b505050506040513d60408110156200039d57600080fd5b81019080805190602001909291908051906020019092919050505060066000600d6000849190505583919050555050600e54600f81905550505050505062000497565b600033905090565b828054600181600116156101000203166002900490600052602060002090601f016020900481019282601f106200042b57805160ff19168380011785556200045c565b828001600101855582156200045c579182015b828111156200045b5782518255916020019190600101906200043e565b5b5090506200046b91906200046f565b5090565b6200049491905b808211156200049057600081600090555060010162000476565b5090565b90565b61495980620004a76000396000f3fe6080604052600436106102255760003560e01c80639a0ba2ea11610123578063d715135d116100ab578063f2fde38b1161006f578063f2fde38b14610cdd578063f75adff814610d2e578063f7cdf47c14610dd4578063f940e38514610e2b578063ffa1ad7414610e9c57610225565b8063d715135d14610b90578063e30c397814610bcb578063e311481514610c22578063e80b2b3d14610c4d578063ebe1c58f14610cb257610225565b8063b3a2af69116100f2578063b3a2af6914610a33578063bab2af1d14610a5e578063bab2f55214610aaf578063bfdce19914610ada578063c2250a9914610b3f57610225565b80639a0ba2ea146108a75780639c78eb8e146109225780639e45e0d01461098b578063aaff096d146109e257610225565b80636e553f65116101b157806385214b721161017557806385214b721461073a5780638da5cb5b146107655780638f32d59b146107bc578063949813b8146107eb578063975057e71461085057610225565b80636e553f65146105c65780636fd689e81461061457806370324b771461062b578063715018a6146106b057806383b78188146106c757610225565b8063335e536c116101f8578063335e536c14610461578063352fc85f1461048c57806349999196146105075780634e71e0c81461055e5780635c03651c1461057557610225565b806305cf47441461030957806309824a801461036e578063101e8952146103bf5780631e83409a14610410575b600460009054906101000a900473ffffffffffffffffffffffffffffffffffffffff1673ffffffffffffffffffffffffffffffffffffffff166108fc349081150290604051600060405180830381858888f1935050505015801561028d573d6000803e3d6000fd5b5073eeeeeeeeeeeeeeeeeeeeeeeeeeeeeeeeeeeeeeee73ffffffffffffffffffffffffffffffffffffffff163373ffffffffffffffffffffffffffffffffffffffff167fea0e59b45b3d900359e312f5e429275ec827a5e4e2430e1610a1c678cd6cd2e2346040518082815260200191505060405180910390a3005b34801561031557600080fd5b506103586004803603602081101561032c57600080fd5b81019080803573ffffffffffffffffffffffffffffffffffffffff169060200190929190505050610f2c565b6040518082815260200191505060405180910390f35b34801561037a57600080fd5b506103bd6004803603602081101561039157600080fd5b81019080803573ffffffffffffffffffffffffffffffffffffffff169060200190929190505050610f44565b005b3480156103cb57600080fd5b5061040e600480360360208110156103e257600080fd5b81019080803573ffffffffffffffffffffffffffffffffffffffff16906020019092919050505061111e565b005b34801561041c57600080fd5b5061045f6004803603602081101561043357600080fd5b81019080803573ffffffffffffffffffffffffffffffffffffffff1690602001909291905050506112f3565b005b34801561046d57600080fd5b506104766115af565b6040518082815260200191505060405180910390f35b34801561049857600080fd5b506104c5600480360360208110156104af57600080fd5b81019080803590602001909291905050506115b5565b604051808273ffffffffffffffffffffffffffffffffffffffff1673ffffffffffffffffffffffffffffffffffffffff16815260200191505060405180910390f35b34801561051357600080fd5b5061051c6115f1565b604051808273ffffffffffffffffffffffffffffffffffffffff1673ffffffffffffffffffffffffffffffffffffffff16815260200191505060405180910390f35b34801561056a57600080fd5b50610573611617565b005b34801561058157600080fd5b506105c46004803603602081101561059857600080fd5b81019080803573ffffffffffffffffffffffffffffffffffffffff169060200190929190505050611716565b005b610612600480360360408110156105dc57600080fd5b8101908080359060200190929190803573ffffffffffffffffffffffffffffffffffffffff1690602001909291905050506118d6565b005b34801561062057600080fd5b50610629611b97565b005b34801561063757600080fd5b5061069a6004803603604081101561064e57600080fd5b81019080803573ffffffffffffffffffffffffffffffffffffffff169060200190929190803573ffffffffffffffffffffffffffffffffffffffff169060200190929190505050611c1b565b6040518082815260200191505060405180910390f35b3480156106bc57600080fd5b506106c5611d33565b005b3480156106d357600080fd5b50610720600480360360408110156106ea57600080fd5b81019080803573ffffffffffffffffffffffffffffffffffffffff16906020019092919080359060200190929190505050611e6c565b604051808215151515815260200191505060405180910390f35b34801561074657600080fd5b5061074f611e9b565b6040518082815260200191505060405180910390f35b34801561077157600080fd5b5061077a611ea1565b604051808273ffffffffffffffffffffffffffffffffffffffff1673ffffffffffffffffffffffffffffffffffffffff16815260200191505060405180910390f35b3480156107c857600080fd5b506107d1611eca565b604051808215151515815260200191505060405180910390f35b3480156107f757600080fd5b5061083a6004803603602081101561080e57600080fd5b81019080803573ffffffffffffffffffffffffffffffffffffffff169060200190929190505050611f28565b6040518082815260200191505060405180910390f35b34801561085c57600080fd5b50610865611f40565b604051808273ffffffffffffffffffffffffffffffffffffffff1673ffffffffffffffffffffffffffffffffffffffff16815260200191505060405180910390f35b3480156108b357600080fd5b506108e0600480360360208110156108ca57600080fd5b8101908080359060200190929190505050611f66565b604051808273ffffffffffffffffffffffffffffffffffffffff1673ffffffffffffffffffffffffffffffffffffffff16815260200191505060405180910390f35b34801561092e57600080fd5b506109716004803603602081101561094557600080fd5b81019080803573ffffffffffffffffffffffffffffffffffffffff169060200190929190505050611fa2565b604051808215151515815260200191505060405180910390f35b34801561099757600080fd5b506109a061204a565b604051808273ffffffffffffffffffffffffffffffffffffffff1673ffffffffffffffffffffffffffffffffffffffff16815260200191505060405180910390f35b3480156109ee57600080fd5b50610a3160048036036020811015610a0557600080fd5b81019080803573ffffffffffffffffffffffffffffffffffffffff169060200190929190505050612070565b005b348015610a3f57600080fd5b50610a48612258565b6040518082815260200191505060405180910390f35b348015610a6a57600080fd5b50610aad60048036036020811015610a8157600080fd5b81019080803573ffffffffffffffffffffffffffffffffffffffff169060200190929190505050612449565b005b348015610abb57600080fd5b50610ac4612567565b6040518082815260200191505060405180910390f35b348015610ae657600080fd5b50610b2960048036036020811015610afd57600080fd5b81019080803573ffffffffffffffffffffffffffffffffffffffff16906020019092919050505061256d565b6040518082815260200191505060405180910390f35b348015610b4b57600080fd5b50610b8e60048036036020811015610b6257600080fd5b81019080803573ffffffffffffffffffffffffffffffffffffffff169060200190929190505050612585565b005b348015610b9c57600080fd5b50610bc960048036036020811015610bb357600080fd5b810190808035906020019092919050505061271b565b005b348015610bd757600080fd5b50610be0612844565b604051808273ffffffffffffffffffffffffffffffffffffffff1673ffffffffffffffffffffffffffffffffffffffff16815260200191505060405180910390f35b348015610c2e57600080fd5b50610c3761286a565b6040518082815260200191505060405180910390f35b348015610c5957600080fd5b50610c9c60048036036020811015610c7057600080fd5b81019080803573ffffffffffffffffffffffffffffffffffffffff169060200190929190505050612870565b6040518082815260200191505060405180910390f35b348015610cbe57600080fd5b50610cc76129d0565b6040518082815260200191505060405180910390f35b348015610ce957600080fd5b50610d2c60048036036020811015610d0057600080fd5b81019080803573ffffffffffffffffffffffffffffffffffffffff1690602001909291905050506129d6565b005b348015610d3a57600080fd5b50610dd260048036036040811015610d5157600080fd5b81019080803573ffffffffffffffffffffffffffffffffffffffff16906020019092919080359060200190640100000000811115610d8e57600080fd5b820183602082011115610da057600080fd5b80359060200191846020830284011164010000000083111715610dc257600080fd5b9091929391929390505050612b97565b005b348015610de057600080fd5b50610de9612bed565b604051808273ffffffffffffffffffffffffffffffffffffffff1673ffffffffffffffffffffffffffffffffffffffff16815260200191505060405180910390f35b348015610e3757600080fd5b50610e9a60048036036040811015610e4e57600080fd5b81019080803573ffffffffffffffffffffffffffffffffffffffff169060200190929190803573ffffffffffffffffffffffffffffffffffffffff169060200190929190505050612c05565b005b348015610ea857600080fd5b50610eb1613068565b6040518080602001828103825283818151815260200191508051906020019080838360005b83811015610ef1578082015181840152602081019050610ed6565b50505050905090810190601f168015610f1e5780820380516001836020036101000a031916815260200191505b509250505060405180910390f35b600c6020528060005260406000206000915090505481565b610f4c611eca565b610fbe576040517f08c379a00000000000000000000000000000000000000000000000000000000081526004018080602001828103825260208152602001807f4f776e61626c653a2063616c6c6572206973206e6f7420746865206f776e657281525060200191505060405180910390fd5b6000600a60008373ffffffffffffffffffffffffffffffffffffffff1673ffffffffffffffffffffffffffffffffffffffff1681526020019081526020016000205414611056576040517f08c379a00000000000000000000000000000000000000000000000000000000081526004018080602001828103825260298152602001806147766029913960400191505060405180910390fd5b61105f81611fa2565b156110b5576040517f08c379a00000000000000000000000000000000000000000000000000000000081526004018080602001828103825260338152602001806146ec6033913960400191505060405180910390fd5b60088190806001815401808255809150509060018203906000526020600020016000909192909190916101000a81548173ffffffffffffffffffffffffffffffffffffffff021916908373ffffffffffffffffffffffffffffffffffffffff1602179055505050565b73eeeeeeeeeeeeeeeeeeeeeeeeeeeeeeeeeeeeeeee73ffffffffffffffffffffffffffffffffffffffff168173ffffffffffffffffffffffffffffffffffffffff1614156111eb57600460009054906101000a900473ffffffffffffffffffffffffffffffffffffffff1673ffffffffffffffffffffffffffffffffffffffff166108fc3073ffffffffffffffffffffffffffffffffffffffff16319081150290604051600060405180830381858888f193505050501580156111e5573d6000803e3d6000fd5b506112f0565b6112ef600460009054906101000a900473ffffffffffffffffffffffffffffffffffffffff168273ffffffffffffffffffffffffffffffffffffffff166370a08231306040518263ffffffff1660e01b8152600401808273ffffffffffffffffffffffffffffffffffffffff1673ffffffffffffffffffffffffffffffffffffffff16815260200191505060206040518083038186803b15801561128e57600080fd5b505afa1580156112a2573d6000803e3d6000fd5b505050506040513d60208110156112b857600080fd5b81019080805190602001909291905050508373ffffffffffffffffffffffffffffffffffffffff166131069092919063ffffffff16565b5b50565b80600360009054906101000a900473ffffffffffffffffffffffffffffffffffffffff1673ffffffffffffffffffffffffffffffffffffffff1663c3c5a547826040518263ffffffff1660e01b8152600401808273ffffffffffffffffffffffffffffffffffffffff1673ffffffffffffffffffffffffffffffffffffffff16815260200191505060206040518083038186803b15801561139357600080fd5b505afa1580156113a7573d6000803e3d6000fd5b505050506040513d60208110156113bd57600080fd5b8101908080519060200190929190505050611423576040517f08c379a000000000000000000000000000000000000000000000000000000000815260040180806020018281038252602b8152602001806148a6602b913960400191505060405180910390fd5b600360009054906101000a900473ffffffffffffffffffffffffffffffffffffffff1673ffffffffffffffffffffffffffffffffffffffff16637be266da836040518263ffffffff1660e01b8152600401808273ffffffffffffffffffffffffffffffffffffffff1673ffffffffffffffffffffffffffffffffffffffff16815260200191505060206040518083038186803b1580156114c257600080fd5b505afa1580156114d6573d6000803e3d6000fd5b505050506040513d60208110156114ec57600080fd5b8101908080519060200190929190505050611552576040517f08c379a000000000000000000000000000000000000000000000000000000000815260040180806020018281038252602c81526020018061482d602c913960400191505060405180910390fd5b61155b826131d7565b8173ffffffffffffffffffffffffffffffffffffffff167f99c5ad5c5f898b30039b8cc54b8c0e6eb423e49bfc965a5999ebad131984e40d6007546040518082815260200191505060405180910390a25050565b600d5481565b600881815481106115c257fe5b906000526020600020016000915054906101000a900473ffffffffffffffffffffffffffffffffffffffff1681565b600560009054906101000a900473ffffffffffffffffffffffffffffffffffffffff1681565b600160009054906101000a900473ffffffffffffffffffffffffffffffffffffffff1673ffffffffffffffffffffffffffffffffffffffff166116586135b0565b73ffffffffffffffffffffffffffffffffffffffff16146116c4576040517f08c379a000000000000000000000000000000000000000000000000000000000815260040180806020018281038252602a815260200180614859602a913960400191505060405180910390fd5b6116ef600160009054906101000a900473ffffffffffffffffffffffffffffffffffffffff166135b8565b600160006101000a81549073ffffffffffffffffffffffffffffffffffffffff0219169055565b61171e611eca565b611790576040517f08c379a00000000000000000000000000000000000000000000000000000000081526004018080602001828103825260208152602001807f4f776e61626c653a2063616c6c6572206973206e6f7420746865206f776e657281525060200191505060405180910390fd5b600073ffffffffffffffffffffffffffffffffffffffff168173ffffffffffffffffffffffffffffffffffffffff161415611816576040517f08c379a000000000000000000000000000000000000000000000000000000000815260040180806020018281038252602981526020018061469d6029913960400191505060405180910390fd5b600560009054906101000a900473ffffffffffffffffffffffffffffffffffffffff1673ffffffffffffffffffffffffffffffffffffffff168173ffffffffffffffffffffffffffffffffffffffff167f9d549c7da0887b9da28aa4897e17429f78345be76b1918673be3430462a4d13060405160405180910390a380600560006101000a81548173ffffffffffffffffffffffffffffffffffffffff021916908373ffffffffffffffffffffffffffffffffffffffff16021790555050565b600073eeeeeeeeeeeeeeeeeeeeeeeeeeeeeeeeeeeeeeee73ffffffffffffffffffffffffffffffffffffffff168273ffffffffffffffffffffffffffffffffffffffff1614156119e957348314611978576040517f08c379a00000000000000000000000000000000000000000000000000000000081526004018080602001828103825260298152602001806146746029913960400191505060405180910390fd5b349050600460009054906101000a900473ffffffffffffffffffffffffffffffffffffffff1673ffffffffffffffffffffffffffffffffffffffff166108fc349081150290604051600060405180830381858888f193505050501580156119e3573d6000803e3d6000fd5b50611b2d565b60003414611a42576040517f08c379a000000000000000000000000000000000000000000000000000000000815260040180806020018281038252602a8152602001806148fb602a913960400191505060405180910390fd5b6000600a60008473ffffffffffffffffffffffffffffffffffffffff1673ffffffffffffffffffffffffffffffffffffffff168152602001908152602001600020541415611adb576040517f08c379a000000000000000000000000000000000000000000000000000000000815260040180806020018281038252602581526020018061471f6025913960400191505060405180910390fd5b611b2a33600460009054906101000a900473ffffffffffffffffffffffffffffffffffffffff16858573ffffffffffffffffffffffffffffffffffffffff166136fc909392919063ffffffff16565b90505b8173ffffffffffffffffffffffffffffffffffffffff163373ffffffffffffffffffffffffffffffffffffffff167fea0e59b45b3d900359e312f5e429275ec827a5e4e2430e1610a1c678cd6cd2e2836040518082815260200191505060405180910390a3505050565b600460009054906101000a900473ffffffffffffffffffffffffffffffffffffffff1673ffffffffffffffffffffffffffffffffffffffff16634e71e0c86040518163ffffffff1660e01b8152600401600060405180830381600087803b158015611c0157600080fd5b505af1158015611c15573d6000803e3d6000fd5b50505050565b6000600460009054906101000a900473ffffffffffffffffffffffffffffffffffffffff1673ffffffffffffffffffffffffffffffffffffffff166370324b7784846040518363ffffffff1660e01b8152600401808373ffffffffffffffffffffffffffffffffffffffff1673ffffffffffffffffffffffffffffffffffffffff1681526020018273ffffffffffffffffffffffffffffffffffffffff1673ffffffffffffffffffffffffffffffffffffffff1681526020019250505060206040518083038186803b158015611cf057600080fd5b505afa158015611d04573d6000803e3d6000fd5b505050506040513d6020811015611d1a57600080fd5b8101908080519060200190929190505050905092915050565b611d3b611eca565b611dad576040517f08c379a00000000000000000000000000000000000000000000000000000000081526004018080602001828103825260208152602001807f4f776e61626c653a2063616c6c6572206973206e6f7420746865206f776e657281525060200191505060405180910390fd5b600073ffffffffffffffffffffffffffffffffffffffff166000809054906101000a900473ffffffffffffffffffffffffffffffffffffffff1673ffffffffffffffffffffffffffffffffffffffff167f8be0079c531659141344cd1fd0a4f28419497f9722a3daafe3b4186f6b6457e060405160405180910390a360008060006101000a81548173ffffffffffffffffffffffffffffffffffffffff021916908373ffffffffffffffffffffffffffffffffffffffff160217905550565b60106020528160005260406000206020528060005260406000206000915091509054906101000a900460ff1681565b600f5481565b60008060009054906101000a900473ffffffffffffffffffffffffffffffffffffffff16905090565b60008060009054906101000a900473ffffffffffffffffffffffffffffffffffffffff1673ffffffffffffffffffffffffffffffffffffffff16611f0c6135b0565b73ffffffffffffffffffffffffffffffffffffffff1614905090565b600b6020528060005260406000206000915090505481565b600460009054906101000a900473ffffffffffffffffffffffffffffffffffffffff1681565b60098181548110611f7357fe5b906000526020600020016000915054906101000a900473ffffffffffffffffffffffffffffffffffffffff1681565b600080600880549050905060008090505b8181101561203e578373ffffffffffffffffffffffffffffffffffffffff1660088281548110611fdf57fe5b9060005260206000200160009054906101000a900473ffffffffffffffffffffffffffffffffffffffff1673ffffffffffffffffffffffffffffffffffffffff16141561203157600192505050612045565b8080600101915050611fb3565b5060009150505b919050565b600360009054906101000a900473ffffffffffffffffffffffffffffffffffffffff1681565b612078611eca565b6120ea576040517f08c379a00000000000000000000000000000000000000000000000000000000081526004018080602001828103825260208152602001807f4f776e61626c653a2063616c6c6572206973206e6f7420746865206f776e657281525060200191505060405180910390fd5b600073ffffffffffffffffffffffffffffffffffffffff168173ffffffffffffffffffffffffffffffffffffffff161415612170576040517f08c379a00000000000000000000000000000000000000000000000000000000081526004018080602001828103825260328152602001806147446032913960400191505060405180910390fd5b6000600360009054906101000a900473ffffffffffffffffffffffffffffffffffffffff16905081600360006101000a81548173ffffffffffffffffffffffffffffffffffffffff021916908373ffffffffffffffffffffffffffffffffffffffff160217905550600360009054906101000a900473ffffffffffffffffffffffffffffffffffffffff1673ffffffffffffffffffffffffffffffffffffffff168173ffffffffffffffffffffffffffffffffffffffff167ff9f6dd5c784f63cc27c1079c73574a73485a6c2e7f7e2181c5eb2be8c693cfb760405160405180910390a35050565b6000600560009054906101000a900473ffffffffffffffffffffffffffffffffffffffff1673ffffffffffffffffffffffffffffffffffffffff163373ffffffffffffffffffffffffffffffffffffffff1614612300576040517f08c379a000000000000000000000000000000000000000000000000000000000815260040180806020018281038252602281526020018061480b6022913960400191505060405180910390fd5b6000600980549050905060008090505b81811015612365576123586009828154811061232857fe5b9060005260206000200160009054906101000a900473ffffffffffffffffffffffffffffffffffffffff166138ca565b8080600101915050612310565b50600654600781905550600360009054906101000a900473ffffffffffffffffffffffffffffffffffffffff1673ffffffffffffffffffffffffffffffffffffffff1663766718086040518163ffffffff1660e01b8152600401604080518083038186803b1580156123d657600080fd5b505afa1580156123ea573d6000803e3d6000fd5b505050506040513d604081101561240057600080fd5b81019080805190602001909291908051906020019092919050505060066000600d6000849190505583919050555050600e54600f81905550612440613bed565b60065491505090565b612451611eca565b6124c3576040517f08c379a00000000000000000000000000000000000000000000000000000000081526004018080602001828103825260208152602001807f4f776e61626c653a2063616c6c6572206973206e6f7420746865206f776e657281525060200191505060405180910390fd5b6000600a60008373ffffffffffffffffffffffffffffffffffffffff1673ffffffffffffffffffffffffffffffffffffffff168152602001908152602001600020541161255b576040517f08c379a000000000000000000000000000000000000000000000000000000000815260040180806020018281038252602581526020018061471f6025913960400191505060405180910390fd5b61256481613d55565b50565b60065481565b600a6020528060005260406000206000915090505481565b61258d611eca565b6125ff576040517f08c379a00000000000000000000000000000000000000000000000000000000081526004018080602001828103825260208152602001807f4f776e61626c653a2063616c6c6572206973206e6f7420746865206f776e657281525060200191505060405180910390fd5b600460009054906101000a900473ffffffffffffffffffffffffffffffffffffffff1673ffffffffffffffffffffffffffffffffffffffff1663f2fde38b826040518263ffffffff1660e01b8152600401808273ffffffffffffffffffffffffffffffffffffffff1673ffffffffffffffffffffffffffffffffffffffff168152602001915050600060405180830381600087803b1580156126a057600080fd5b505af11580156126b4573d6000803e3d6000fd5b505050508073ffffffffffffffffffffffffffffffffffffffff16636fd689e86040518163ffffffff1660e01b8152600401600060405180830381600087803b15801561270057600080fd5b505af1158015612714573d6000803e3d6000fd5b5050505050565b612723611eca565b612795576040517f08c379a00000000000000000000000000000000000000000000000000000000081526004018080602001828103825260208152602001807f4f776e61626c653a2063616c6c6572206973206e6f7420746865206f776e657281525060200191505060405180910390fd5b8060648111156127f0576040517f08c379a00000000000000000000000000000000000000000000000000000000081526004018080602001828103825260238152602001806148836023913960400191505060405180910390fd5b6000600e54905082600e819055507f0855549798088e618c4eccab56d3fa69209935ef7bc4ffe7200dff654d975643600e5482604051808381526020018281526020019250505060405180910390a1505050565b600160009054906101000a900473ffffffffffffffffffffffffffffffffffffffff1681565b60075481565b60008061299e600b60008573ffffffffffffffffffffffffffffffffffffffff1673ffffffffffffffffffffffffffffffffffffffff16815260200190815260200160002054600460009054906101000a900473ffffffffffffffffffffffffffffffffffffffff1673ffffffffffffffffffffffffffffffffffffffff1663a0821be3866040518263ffffffff1660e01b8152600401808273ffffffffffffffffffffffffffffffffffffffff1673ffffffffffffffffffffffffffffffffffffffff16815260200191505060206040518083038186803b15801561295557600080fd5b505afa158015612969573d6000803e3d6000fd5b505050506040513d602081101561297f57600080fd5b8101908080519060200190929190505050613fa690919063ffffffff16565b90506129c8600f546129ba606484613ff090919063ffffffff16565b61403a90919063ffffffff16565b915050919050565b600e5481565b6129de611eca565b612a50576040517f08c379a00000000000000000000000000000000000000000000000000000000081526004018080602001828103825260208152602001807f4f776e61626c653a2063616c6c6572206973206e6f7420746865206f776e657281525060200191505060405180910390fd5b612a58611ea1565b73ffffffffffffffffffffffffffffffffffffffff168173ffffffffffffffffffffffffffffffffffffffff1614158015612ae15750600160009054906101000a900473ffffffffffffffffffffffffffffffffffffffff1673ffffffffffffffffffffffffffffffffffffffff168173ffffffffffffffffffffffffffffffffffffffff1614155b612b53576040517f08c379a000000000000000000000000000000000000000000000000000000000815260040180806020018281038252601c8152602001807f436c61696d61626c653a20696e76616c6964206e6577206f776e65720000000081525060200191505060405180910390fd5b80600160006101000a81548173ffffffffffffffffffffffffffffffffffffffff021916908373ffffffffffffffffffffffffffffffffffffffff16021790555050565b60008090505b82829050811015612be757612bda84848484818110612bb857fe5b9050602002013573ffffffffffffffffffffffffffffffffffffffff16612c05565b8080600101915050612b9d565b50505050565b73eeeeeeeeeeeeeeeeeeeeeeeeeeeeeeeeeeeeeeee81565b6000600360009054906101000a900473ffffffffffffffffffffffffffffffffffffffff1673ffffffffffffffffffffffffffffffffffffffff16631cedf8a3846040518263ffffffff1660e01b8152600401808273ffffffffffffffffffffffffffffffffffffffff1673ffffffffffffffffffffffffffffffffffffffff16815260200191505060206040518083038186803b158015612ca657600080fd5b505afa158015612cba573d6000803e3d6000fd5b505050506040513d6020811015612cd057600080fd5b81019080805190602001909291905050509050600073ffffffffffffffffffffffffffffffffffffffff168173ffffffffffffffffffffffffffffffffffffffff161415612d69576040517f08c379a000000000000000000000000000000000000000000000000000000000815260040180806020018281038252602781526020018061479f6027913960400191505060405180910390fd5b6000600460009054906101000a900473ffffffffffffffffffffffffffffffffffffffff1673ffffffffffffffffffffffffffffffffffffffff166370324b7785856040518363ffffffff1660e01b8152600401808373ffffffffffffffffffffffffffffffffffffffff1673ffffffffffffffffffffffffffffffffffffffff1681526020018273ffffffffffffffffffffffffffffffffffffffff1673ffffffffffffffffffffffffffffffffffffffff1681526020019250505060206040518083038186803b158015612e3e57600080fd5b505afa158015612e52573d6000803e3d6000fd5b505050506040513d6020811015612e6857600080fd5b8101908080519060200190929190505050905060008111612ed4576040517f08c379a00000000000000000000000000000000000000000000000000000000081526004018080602001828103825260248152602001806147c66024913960400191505060405180910390fd5b600460009054906101000a900473ffffffffffffffffffffffffffffffffffffffff1673ffffffffffffffffffffffffffffffffffffffff1663f9ce7813858584866040518563ffffffff1660e01b8152600401808573ffffffffffffffffffffffffffffffffffffffff1673ffffffffffffffffffffffffffffffffffffffff1681526020018473ffffffffffffffffffffffffffffffffffffffff1673ffffffffffffffffffffffffffffffffffffffff1681526020018381526020018273ffffffffffffffffffffffffffffffffffffffff1673ffffffffffffffffffffffffffffffffffffffff168152602001945050505050600060405180830381600087803b158015612fe557600080fd5b505af1158015612ff9573d6000803e3d6000fd5b505050508273ffffffffffffffffffffffffffffffffffffffff168473ffffffffffffffffffffffffffffffffffffffff167fe1f157c0881b2e477dca89772b158029611366b8e7dc8be4f6f308fa7a0aa028836040518082815260200191505060405180910390a350505050565b60028054600181600116156101000203166002900480601f0160208091040260200160405190810160405280929190818152602001828054600181600116156101000203166002900480156130fe5780601f106130d3576101008083540402835291602001916130fe565b820191906000526020600020905b8154815290600101906020018083116130e157829003601f168201915b505050505081565b6131d2838473ffffffffffffffffffffffffffffffffffffffff1663a9059cbb905060e01b8484604051602401808373ffffffffffffffffffffffffffffffffffffffff1673ffffffffffffffffffffffffffffffffffffffff16815260200182815260200192505050604051602081830303815290604052907bffffffffffffffffffffffffffffffffffffffffffffffffffffffff19166020820180517bffffffffffffffffffffffffffffffffffffffffffffffffffffffff83818316178352505050506140c0565b505050565b601060008273ffffffffffffffffffffffffffffffffffffffff1673ffffffffffffffffffffffffffffffffffffffff1681526020019081526020016000206000600754815260200190815260200160002060009054906101000a900460ff161561328d576040517f08c379a000000000000000000000000000000000000000000000000000000000815260040180806020018281038252602781526020018061464d6027913960400191505060405180910390fd5b6001601060008373ffffffffffffffffffffffffffffffffffffffff1673ffffffffffffffffffffffffffffffffffffffff1681526020019081526020016000206000600754815260200190815260200160002060006101000a81548160ff0219169083151502179055506000600980549050905060008090505b818110156135ab5760006009828154811061331f57fe5b9060005260206000200160009054906101000a900473ffffffffffffffffffffffffffffffffffffffff1690506000600c60008373ffffffffffffffffffffffffffffffffffffffff1673ffffffffffffffffffffffffffffffffffffffff16815260200190815260200160002054111561359d57613425600c60008373ffffffffffffffffffffffffffffffffffffffff1673ffffffffffffffffffffffffffffffffffffffff16815260200190815260200160002054600b60008473ffffffffffffffffffffffffffffffffffffffff1673ffffffffffffffffffffffffffffffffffffffff16815260200190815260200160002054613fa690919063ffffffff16565b600b60008373ffffffffffffffffffffffffffffffffffffffff1673ffffffffffffffffffffffffffffffffffffffff16815260200190815260200160002081905550600460009054906101000a900473ffffffffffffffffffffffffffffffffffffffff1673ffffffffffffffffffffffffffffffffffffffff1663d23b90a58583600c60008673ffffffffffffffffffffffffffffffffffffffff1673ffffffffffffffffffffffffffffffffffffffff168152602001908152602001600020546040518463ffffffff1660e01b8152600401808473ffffffffffffffffffffffffffffffffffffffff1673ffffffffffffffffffffffffffffffffffffffff1681526020018373ffffffffffffffffffffffffffffffffffffffff1673ffffffffffffffffffffffffffffffffffffffff1681526020018281526020019350505050600060405180830381600087803b15801561358457600080fd5b505af1158015613598573d6000803e3d6000fd5b505050505b508080600101915050613308565b505050565b600033905090565b600073ffffffffffffffffffffffffffffffffffffffff168173ffffffffffffffffffffffffffffffffffffffff16141561363e576040517f08c379a00000000000000000000000000000000000000000000000000000000081526004018080602001828103825260268152602001806146c66026913960400191505060405180910390fd5b8073ffffffffffffffffffffffffffffffffffffffff166000809054906101000a900473ffffffffffffffffffffffffffffffffffffffff1673ffffffffffffffffffffffffffffffffffffffff167f8be0079c531659141344cd1fd0a4f28419497f9722a3daafe3b4186f6b6457e060405160405180910390a3806000806101000a81548173ffffffffffffffffffffffffffffffffffffffff021916908373ffffffffffffffffffffffffffffffffffffffff16021790555050565b6000808573ffffffffffffffffffffffffffffffffffffffff166370a08231856040518263ffffffff1660e01b8152600401808273ffffffffffffffffffffffffffffffffffffffff1673ffffffffffffffffffffffffffffffffffffffff16815260200191505060206040518083038186803b15801561377c57600080fd5b505afa158015613790573d6000803e3d6000fd5b505050506040513d60208110156137a657600080fd5b810190808051906020019092919050505090506137e68585858973ffffffffffffffffffffffffffffffffffffffff1661430b909392919063ffffffff16565b60008673ffffffffffffffffffffffffffffffffffffffff166370a08231866040518263ffffffff1660e01b8152600401808273ffffffffffffffffffffffffffffffffffffffff1673ffffffffffffffffffffffffffffffffffffffff16815260200191505060206040518083038186803b15801561386557600080fd5b505afa158015613879573d6000803e3d6000fd5b505050506040513d602081101561388f57600080fd5b810190808051906020019092919050505090506138be846138b98484613fa690919063ffffffff16565b614411565b92505050949350505050565b6000600360009054906101000a900473ffffffffffffffffffffffffffffffffffffffff1673ffffffffffffffffffffffffffffffffffffffff166371740d166040518163ffffffff1660e01b815260040160206040518083038186803b15801561393457600080fd5b505afa158015613948573d6000803e3d6000fd5b505050506040513d602081101561395e57600080fd5b810190808051906020019092919050505090506000811415613a09576000600b60008473ffffffffffffffffffffffffffffffffffffffff1673ffffffffffffffffffffffffffffffffffffffff168152602001908152602001600020819055506000600c60008473ffffffffffffffffffffffffffffffffffffffff1673ffffffffffffffffffffffffffffffffffffffff16815260200190815260200160002081905550613be9565b6000600460009054906101000a900473ffffffffffffffffffffffffffffffffffffffff1673ffffffffffffffffffffffffffffffffffffffff1663a0821be3846040518263ffffffff1660e01b8152600401808273ffffffffffffffffffffffffffffffffffffffff1673ffffffffffffffffffffffffffffffffffffffff16815260200191505060206040518083038186803b158015613aaa57600080fd5b505afa158015613abe573d6000803e3d6000fd5b505050506040513d6020811015613ad457600080fd5b81019080805190602001909291905050509050613b0f600f54613b01606484613ff090919063ffffffff16565b61403a90919063ffffffff16565b600b60008573ffffffffffffffffffffffffffffffffffffffff1673ffffffffffffffffffffffffffffffffffffffff16815260200190815260200160002081905550613ba482600b60008673ffffffffffffffffffffffffffffffffffffffff1673ffffffffffffffffffffffffffffffffffffffff16815260200190815260200160002054613ff090919063ffffffff16565b600c60008573ffffffffffffffffffffffffffffffffffffffff1673ffffffffffffffffffffffffffffffffffffffff16815260200190815260200160002081905550505b5050565b6000600880549050905060008090505b81811015613d4157600060088281548110613c1457fe5b9060005260206000200160009054906101000a900473ffffffffffffffffffffffffffffffffffffffff16905060098190806001815401808255809150509060018203906000526020600020016000909192909190916101000a81548173ffffffffffffffffffffffffffffffffffffffff021916908373ffffffffffffffffffffffffffffffffffffffff16021790555050600980549050600a60008373ffffffffffffffffffffffffffffffffffffffff1673ffffffffffffffffffffffffffffffffffffffff168152602001908152602001600020819055508073ffffffffffffffffffffffffffffffffffffffff167fd780ddbc43f0c4efd61c5ca1bc8eeee3368abfb1f97aa7355da9f8bf8431c8ae60405160405180910390a2508080600101915050613bfd565b506000600881613d5191906145fb565b5050565b60006009613d726001600980549050613fa690919063ffffffff16565b81548110613d7c57fe5b9060005260206000200160009054906101000a900473ffffffffffffffffffffffffffffffffffffffff1690506000613dfe6001600a60008673ffffffffffffffffffffffffffffffffffffffff1673ffffffffffffffffffffffffffffffffffffffff16815260200190815260200160002054613fa690919063ffffffff16565b90508160098281548110613e0e57fe5b9060005260206000200160006101000a81548173ffffffffffffffffffffffffffffffffffffffff021916908373ffffffffffffffffffffffffffffffffffffffff160217905550600a60008473ffffffffffffffffffffffffffffffffffffffff1673ffffffffffffffffffffffffffffffffffffffff16815260200190815260200160002054600a60008473ffffffffffffffffffffffffffffffffffffffff1673ffffffffffffffffffffffffffffffffffffffff168152602001908152602001600020819055506009805480613ee457fe5b6001900381819060005260206000200160006101000a81549073ffffffffffffffffffffffffffffffffffffffff021916905590556000600a60008573ffffffffffffffffffffffffffffffffffffffff1673ffffffffffffffffffffffffffffffffffffffff168152602001908152602001600020819055508273ffffffffffffffffffffffffffffffffffffffff167fe46f21bb6906b7d69a6c06d5662a2b6c1c59d134cd7b1235babdb1a70a4b436a60405160405180910390a2505050565b6000613fe883836040518060400160405280601e81526020017f536166654d6174683a207375627472616374696f6e206f766572666c6f77000081525061442a565b905092915050565b600061403283836040518060400160405280601a81526020017f536166654d6174683a206469766973696f6e206279207a65726f0000000000008152506144ea565b905092915050565b60008083141561404d57600090506140ba565b600082840290508284828161405e57fe5b04146140b5576040517f08c379a00000000000000000000000000000000000000000000000000000000081526004018080602001828103825260218152602001806147ea6021913960400191505060405180910390fd5b809150505b92915050565b6140df8273ffffffffffffffffffffffffffffffffffffffff166145b0565b614151576040517f08c379a000000000000000000000000000000000000000000000000000000000815260040180806020018281038252601f8152602001807f5361666545524332303a2063616c6c20746f206e6f6e2d636f6e74726163740081525060200191505060405180910390fd5b600060608373ffffffffffffffffffffffffffffffffffffffff16836040518082805190602001908083835b602083106141a0578051825260208201915060208101905060208303925061417d565b6001836020036101000a0380198251168184511680821785525050505050509050019150506000604051808303816000865af19150503d8060008114614202576040519150601f19603f3d011682016040523d82523d6000602084013e614207565b606091505b50915091508161427f576040517f08c379a00000000000000000000000000000000000000000000000000000000081526004018080602001828103825260208152602001807f5361666545524332303a206c6f772d6c6576656c2063616c6c206661696c656481525060200191505060405180910390fd5b6000815111156143055780806020019051602081101561429e57600080fd5b8101908080519060200190929190505050614304576040517f08c379a000000000000000000000000000000000000000000000000000000000815260040180806020018281038252602a8152602001806148d1602a913960400191505060405180910390fd5b5b50505050565b61440b848573ffffffffffffffffffffffffffffffffffffffff166323b872dd905060e01b858585604051602401808473ffffffffffffffffffffffffffffffffffffffff1673ffffffffffffffffffffffffffffffffffffffff1681526020018373ffffffffffffffffffffffffffffffffffffffff1673ffffffffffffffffffffffffffffffffffffffff1681526020018281526020019350505050604051602081830303815290604052907bffffffffffffffffffffffffffffffffffffffffffffffffffffffff19166020820180517bffffffffffffffffffffffffffffffffffffffffffffffffffffffff83818316178352505050506140c0565b50505050565b60008183106144205781614422565b825b905092915050565b60008383111582906144d7576040517f08c379a00000000000000000000000000000000000000000000000000000000081526004018080602001828103825283818151815260200191508051906020019080838360005b8381101561449c578082015181840152602081019050614481565b50505050905090810190601f1680156144c95780820380516001836020036101000a031916815260200191505b509250505060405180910390fd5b5060008385039050809150509392505050565b60008083118290614596576040517f08c379a00000000000000000000000000000000000000000000000000000000081526004018080602001828103825283818151815260200191508051906020019080838360005b8381101561455b578082015181840152602081019050614540565b50505050905090810190601f1680156145885780820380516001836020036101000a031916815260200191505b509250505060405180910390fd5b5060008385816145a257fe5b049050809150509392505050565b60008060007fc5d2460186f7233c927e7db2dcc703c0e500b653ca82273b7bfad8045d85a47060001b9050833f91508082141580156145f257506000801b8214155b92505050919050565b815481835581811115614622578183600052602060002091820191016146219190614627565b5b505050565b61464991905b8082111561464557600081600090555060010161462d565b5090565b9056fe4461726b6e6f64655061796d656e743a2072657761726420616c726561647920636c61696d65644461726b6e6f64655061796d656e743a206d69736d617463686564206465706f7369742076616c75654461726b6e6f64655061796d656e743a20696e76616c696420636f6e747261637420616464726573734f776e61626c653a206e6577206f776e657220697320746865207a65726f20616464726573734461726b6e6f64655061796d656e743a20746f6b656e20616c72656164792070656e64696e6720726567697374726174696f6e4461726b6e6f64655061796d656e743a20746f6b656e206e6f7420726567697374657265644461726b6e6f64655061796d656e743a20696e76616c6964204461726b6e6f646520526567697374727920616464726573734461726b6e6f64655061796d656e743a20746f6b656e20616c726561647920726567697374657265644461726b6e6f64655061796d656e743a20696e76616c6964206461726b6e6f6465206f776e65724461726b6e6f64655061796d656e743a206e6f7468696e6720746f207769746864726177536166654d6174683a206d756c7469706c69636174696f6e206f766572666c6f774461726b6e6f64655061796d656e743a206e6f74206379636c65206368616e6765724461726b6e6f64655061796d656e743a2063616e6e6f7420636c61696d20666f7220746869732065706f6368436c61696d61626c653a2063616c6c6572206973206e6f74207468652070656e64696e67206f776e65724461726b6e6f64655061796d656e743a20696e76616c69642070657263656e746167654461726b6e6f64655061796d656e743a206461726b6e6f6465206973206e6f7420726567697374657265645361666545524332303a204552433230206f7065726174696f6e20646964206e6f7420737563636565644461726b6e6f64655061796d656e743a20756e6578706563746564206574686572207472616e73666572a265627a7a72315820bc0f6ad9858e5d16b0d5d9f0cc1d4c688012afe7ee95fe499342fb22263a4adb64736f6c634300050c00324461726b6e6f64655061796d656e743a20696e76616c69642070657263656e74616765",
  "source": "pragma solidity 0.5.12;\n\nimport \"openzeppelin-solidity/contracts/ownership/Ownable.sol\";\nimport \"openzeppelin-solidity/contracts/math/SafeMath.sol\";\nimport \"openzeppelin-solidity/contracts/token/ERC20/ERC20.sol\";\nimport \"openzeppelin-solidity/contracts/token/ERC20/SafeERC20.sol\";\n\nimport \"../libraries/ERC20WithFees.sol\";\nimport \"../DarknodeRegistry/DarknodeRegistry.sol\";\nimport \"./DarknodePaymentStore.sol\";\n\n/// @notice DarknodePayment is responsible for paying off darknodes for their\n///         computation.\ncontract DarknodePayment is Claimable {\n    using SafeMath for uint256;\n    using SafeERC20 for ERC20;\n    using ERC20WithFees for ERC20;\n\n    string public VERSION; // Passed in as a constructor parameter.\n\n    /// @notice The special address for Ether.\n    address constant public ETHEREUM = 0xEeeeeEeeeEeEeeEeEeEeeEEEeeeeEeeeeeeeEEeE;\n\n    DarknodeRegistry public darknodeRegistry; // Passed in as a constructor parameter.\n\n    /// @notice DarknodePaymentStore is the storage contract for darknode\n    ///         payments.\n    DarknodePaymentStore public store; // Passed in as a constructor parameter.\n\n    /// @notice The address that can call changeCycle()\n    //          This defaults to the owner but should be changed to the DarknodeRegistry.\n    address public cycleChanger;\n\n    uint256 public currentCycle;\n    uint256 public previousCycle;\n\n    /// @notice The list of tokens that will be registered next cycle.\n    ///         We only update the shareCount at the change of cycle to\n    ///         prevent the number of shares from changing.\n    address[] public pendingTokens;\n\n    /// @notice The list of tokens which are already registered and rewards can\n    ///         be claimed for.\n    address[] public registeredTokens;\n\n    /// @notice Mapping from token -> index. Index starts from 1. 0 means not in\n    ///         list.\n    mapping(address => uint256) public registeredTokenIndex;\n\n    /// @notice Mapping from token -> amount.\n    ///         The amount of rewards allocated for all darknodes to claim into\n    ///         their account.\n    mapping(address => uint256) public unclaimedRewards;\n\n    /// @notice Mapping from token -> amount.\n    ///         The amount of rewards allocated for each darknode.\n    mapping(address => uint256) public previousCycleRewardShare;\n\n    /// @notice The time that the current cycle started.\n    uint256 public cycleStartTime;\n\n    /// @notice The staged payout percentage to the darknodes per cycle\n    uint256 public nextCyclePayoutPercent;\n\n    /// @notice The current cycle payout percentage to the darknodes\n    uint256 public currentCyclePayoutPercent;\n\n    /// @notice Mapping of darknode -> cycle -> already_claimed\n    ///         Used to keep track of which darknodes have already claimed their\n    ///         rewards.\n    mapping(address => mapping(uint256 => bool)) public rewardClaimed;\n\n    /// @notice Emitted when a darknode claims their share of reward\n    /// @param _darknode The darknode which claimed\n    /// @param _cycle The cycle that the darknode claimed for\n    event LogDarknodeClaim(address indexed _darknode, uint256 _cycle);\n\n    /// @notice Emitted when someone pays the DarknodePayment contract\n    /// @param _payer The darknode which claimed\n    /// @param _amount The cycle that the darknode claimed for\n    /// @param _token The address of the token that was transferred\n    event LogPaymentReceived(address indexed _payer, uint256 _amount, address indexed _token);\n\n    /// @notice Emitted when a darknode calls withdraw\n    /// @param _payee The address of the darknode which withdrew\n    /// @param _value The amount of DAI withdrawn\n    /// @param _token The address of the token that was withdrawn\n    event LogDarknodeWithdrew(address indexed _payee, uint256 _value, address indexed _token);\n\n    /// @notice Emitted when the payout percent changes\n    /// @param _newPercent The new percent\n    /// @param _oldPercent The old percent\n    event LogPayoutPercentChanged(uint256 _newPercent, uint256 _oldPercent);\n\n    /// @notice Emitted when the CycleChanger address changes\n    /// @param _newCycleChanger The new CycleChanger\n    /// @param _oldCycleChanger The old CycleChanger\n    event LogCycleChangerChanged(address indexed _newCycleChanger, address indexed _oldCycleChanger);\n\n    /// @notice Emitted when a new token is registered\n    /// @param _token The token that was registered\n    event LogTokenRegistered(address indexed _token);\n\n    /// @notice Emitted when a token is deregistered\n    /// @param _token The token that was deregistered\n    event LogTokenDeregistered(address indexed _token);\n\n    /// @notice Emitted when the DarknodeRegistry is updated.\n    /// @param _previousDarknodeRegistry The address of the old registry.\n    /// @param _nextDarknodeRegistry The address of the new registry.\n    event LogDarknodeRegistryUpdated(DarknodeRegistry indexed _previousDarknodeRegistry, DarknodeRegistry indexed _nextDarknodeRegistry);\n\n    /// @notice Restrict a function registered dark nodes to call a function.\n    modifier onlyDarknode(address _darknode) {\n        require(darknodeRegistry.isRegistered(_darknode), \"DarknodePayment: darknode is not registered\");\n        _;\n    }\n\n    /// @notice Restrict a function to have a valid percentage\n    modifier validPercent(uint256 _percent) {\n        require(_percent <= 100, \"DarknodePayment: invalid percentage\");\n        _;\n    }\n\n    /// @notice Restrict a function to be called by cycleChanger\n    modifier onlyCycleChanger {\n        require(msg.sender == cycleChanger, \"DarknodePayment: not cycle changer\");\n        _;\n    }\n\n    /// @notice The contract constructor. Starts the current cycle using the\n    ///         time of deploy.\n    ///\n    /// @param _VERSION A string defining the contract version.\n    /// @param _darknodeRegistry The address of the DarknodeRegistry contract\n    /// @param _darknodePaymentStore The address of the DarknodePaymentStore\n    ///        contract\n    constructor(\n        string memory _VERSION,\n        DarknodeRegistry _darknodeRegistry,\n        DarknodePaymentStore _darknodePaymentStore,\n        uint256 _cyclePayoutPercent\n    ) public validPercent(_cyclePayoutPercent) {\n        VERSION = _VERSION;\n        darknodeRegistry = _darknodeRegistry;\n        store = _darknodePaymentStore;\n        nextCyclePayoutPercent = _cyclePayoutPercent;\n        // Default the cycleChanger to owner\n        cycleChanger = msg.sender;\n\n        // Start the current cycle\n        (currentCycle, cycleStartTime) = darknodeRegistry.currentEpoch();\n        currentCyclePayoutPercent = nextCyclePayoutPercent;\n    }\n\n    /// @notice Allows the contract owner to update the address of the\n    /// darknode registry contract.\n    /// @param _darknodeRegistry The address of the Darknode Registry\n    /// contract.\n    function updateDarknodeRegistry(DarknodeRegistry _darknodeRegistry) external onlyOwner {\n        require(address(_darknodeRegistry) != address(0x0), \"DarknodePayment: invalid Darknode Registry address\");\n        DarknodeRegistry previousDarknodeRegistry = darknodeRegistry;\n        darknodeRegistry = _darknodeRegistry;\n        emit LogDarknodeRegistryUpdated(previousDarknodeRegistry, darknodeRegistry);\n    }\n\n    /// @notice Transfers the funds allocated to the darknode to the darknode\n    ///         owner.\n    ///\n    /// @param _darknode The address of the darknode\n    /// @param _token Which token to transfer\n    function withdraw(address _darknode, address _token) public {\n        address payable darknodeOwner = darknodeRegistry.getDarknodeOwner(_darknode);\n        require(darknodeOwner != address(0x0), \"DarknodePayment: invalid darknode owner\");\n\n        uint256 amount = store.darknodeBalances(_darknode, _token);\n        require(amount > 0, \"DarknodePayment: nothing to withdraw\");\n\n        store.transfer(_darknode, _token, amount, darknodeOwner);\n        emit LogDarknodeWithdrew(_darknode, amount, _token);\n    }\n\n    function withdrawMultiple(address _darknode, address[] calldata _tokens) external {\n        for (uint i = 0; i < _tokens.length; i++) {\n            withdraw(_darknode, _tokens[i]);\n        }\n    }\n\n    /// @notice Forward all payments to the DarknodePaymentStore.\n    function () external payable {\n        address(store).transfer(msg.value);\n        emit LogPaymentReceived(msg.sender, msg.value, ETHEREUM);\n    }\n\n    /// @notice The current balance of the contract available as reward for the\n    ///         current cycle\n    function currentCycleRewardPool(address _token) external view returns (uint256) {\n        uint256 total = store.availableBalance(_token).sub(unclaimedRewards[_token]);\n        return total.div(100).mul(currentCyclePayoutPercent);\n    }\n\n    function darknodeBalances(address _darknodeID, address _token) external view returns (uint256) {\n        return store.darknodeBalances(_darknodeID, _token);\n    }\n\n    /// @notice Changes the current cycle.\n    function changeCycle() external onlyCycleChanger returns (uint256) {\n\n        // Snapshot balances for the past cycle\n        uint arrayLength = registeredTokens.length;\n        for (uint i = 0; i < arrayLength; i++) {\n            _snapshotBalance(registeredTokens[i]);\n        }\n\n        // Start a new cycle\n        previousCycle = currentCycle;\n        (currentCycle, cycleStartTime) = darknodeRegistry.currentEpoch();\n        currentCyclePayoutPercent = nextCyclePayoutPercent;\n\n        // Update the list of registeredTokens\n        _updateTokenList();\n        return currentCycle;\n    }\n\n    /// @notice Deposits token into the contract to be paid to the Darknodes\n    ///\n    /// @param _value The amount of token deposit in the token's smallest unit.\n    /// @param _token The token address\n    function deposit(uint256 _value, address _token) external payable {\n        uint256 receivedValue;\n        if (_token == ETHEREUM) {\n            require(_value == msg.value, \"DarknodePayment: mismatched deposit value\");\n            receivedValue = msg.value;\n            address(store).transfer(msg.value);\n        } else {\n            require(msg.value == 0, \"DarknodePayment: unexpected ether transfer\");\n            require(registeredTokenIndex[_token] != 0, \"DarknodePayment: token not registered\");\n            // Forward the funds to the store\n            receivedValue = ERC20(_token).safeTransferFromWithFees(msg.sender, address(store), _value);\n        }\n        emit LogPaymentReceived(msg.sender, receivedValue, _token);\n    }\n\n    /// @notice Forwards any tokens that have been sent to the DarknodePayment contract\n    ///         probably by mistake, to the DarknodePaymentStore.\n    ///\n    /// @param _token The token address\n    function forward(address _token) external {\n        if (_token == ETHEREUM) {\n            // Its unlikely that ETH will need to be forwarded, but it is\n            // possible. For example - if ETH had already been sent to the\n            // contract's address before it was deployed, or if funds are sent\n            // to it as part of a contract's self-destruct.\n            address(store).transfer(address(this).balance);\n        } else {\n            ERC20(_token).safeTransfer(address(store), ERC20(_token).balanceOf(address(this)));\n        }\n    }\n\n    /// @notice Claims the rewards allocated to the darknode last epoch.\n    /// @param _darknode The address of the darknode to claim\n    function claim(address _darknode) external onlyDarknode(_darknode) {\n        require(darknodeRegistry.isRegisteredInPreviousEpoch(_darknode), \"DarknodePayment: cannot claim for this epoch\");\n        // Claim share of rewards allocated for last cycle\n        _claimDarknodeReward(_darknode);\n        emit LogDarknodeClaim(_darknode, previousCycle);\n    }\n\n    /// @notice Adds tokens to be payable. Registration is pending until next\n    ///         cycle.\n    ///\n    /// @param _token The address of the token to be registered.\n    function registerToken(address _token) external onlyOwner {\n        require(registeredTokenIndex[_token] == 0, \"DarknodePayment: token already registered\");\n        require(!tokenPendingRegistration(_token), \"DarknodePayment: token already pending registration\");\n        pendingTokens.push(_token);\n    }\n\n    function tokenPendingRegistration(address _token) public view returns (bool) {\n        uint arrayLength = pendingTokens.length;\n        for (uint i = 0; i < arrayLength; i++) {\n            if (pendingTokens[i] == _token) {\n                return true;\n            }\n        }\n        return false;\n    }\n\n    /// @notice Removes a token from the list of supported tokens.\n    ///         Deregistration is pending until next cycle.\n    ///\n    /// @param _token The address of the token to be deregistered.\n    function deregisterToken(address _token) external onlyOwner {\n        require(registeredTokenIndex[_token] > 0, \"DarknodePayment: token not registered\");\n        _deregisterToken(_token);\n    }\n\n    /// @notice Updates the CycleChanger contract address.\n    ///\n    /// @param _addr The new CycleChanger contract address.\n    function updateCycleChanger(address _addr) external onlyOwner {\n        require(_addr != address(0), \"DarknodePayment: invalid contract address\");\n        emit LogCycleChangerChanged(_addr, cycleChanger);\n        cycleChanger = _addr;\n    }\n\n    /// @notice Updates payout percentage\n    ///\n    /// @param _percent The percentage of payout for darknodes.\n    function updatePayoutPercentage(uint256 _percent) external onlyOwner validPercent(_percent) {\n        uint256 oldPayoutPercent = nextCyclePayoutPercent;\n        nextCyclePayoutPercent = _percent;\n        emit LogPayoutPercentChanged(nextCyclePayoutPercent, oldPayoutPercent);\n    }\n\n    /// @notice Allows the contract owner to initiate an ownership transfer of\n    ///         the DarknodePaymentStore.\n    ///\n    /// @param _newOwner The address to transfer the ownership to.\n    function transferStoreOwnership(DarknodePayment _newOwner) external onlyOwner {\n        store.transferOwnership(address(_newOwner));\n        _newOwner.claimStoreOwnership();\n    }\n\n    /// @notice Claims ownership of the store passed in to the constructor.\n    ///         `transferStoreOwnership` must have previously been called when\n    ///         transferring from another DarknodePaymentStore.\n    function claimStoreOwnership() external {\n        store.claimOwnership();\n    }\n\n    /// @notice Claims the darknode reward for all registered tokens into\n    ///         darknodeBalances in the DarknodePaymentStore.\n    ///         Rewards can only be claimed once per cycle.\n    ///\n    /// @param _darknode The address to the darknode to claim rewards for\n    function _claimDarknodeReward(address _darknode) private {\n        require(!rewardClaimed[_darknode][previousCycle], \"DarknodePayment: reward already claimed\");\n        rewardClaimed[_darknode][previousCycle] = true;\n        uint arrayLength = registeredTokens.length;\n        for (uint i = 0; i < arrayLength; i++) {\n            address token = registeredTokens[i];\n\n            // Only increment balance if shares were allocated last cycle\n            if (previousCycleRewardShare[token] > 0) {\n                unclaimedRewards[token] = unclaimedRewards[token].sub(previousCycleRewardShare[token]);\n                store.incrementDarknodeBalance(_darknode, token, previousCycleRewardShare[token]);\n            }\n        }\n    }\n\n    /// @notice Snapshots the current balance of the tokens, for all registered\n    ///         tokens.\n    ///\n    /// @param _token The address the token to snapshot.\n    function _snapshotBalance(address _token) private {\n        uint256 shareCount = darknodeRegistry.numDarknodesPreviousEpoch();\n        if (shareCount == 0) {\n            unclaimedRewards[_token] = 0;\n            previousCycleRewardShare[_token] = 0;\n        } else {\n            // Lock up the current balance for darknode reward allocation\n            uint256 total = store.availableBalance(_token);\n            unclaimedRewards[_token] = total.div(100).mul(currentCyclePayoutPercent);\n            previousCycleRewardShare[_token] = unclaimedRewards[_token].div(shareCount);\n        }\n    }\n\n    /// @notice Deregisters a token, removing it from the list of\n    ///         registeredTokens.\n    ///\n    /// @param _token The address of the token to deregister.\n    function _deregisterToken(address _token) private {\n        address lastToken = registeredTokens[registeredTokens.length.sub(1)];\n        uint256 deletedTokenIndex = registeredTokenIndex[_token].sub(1);\n        // Move the last token to _token's position and update it's index\n        registeredTokens[deletedTokenIndex] = lastToken;\n        registeredTokenIndex[lastToken] = registeredTokenIndex[_token];\n        // Decreasing the length will clean up the storage for us\n        // So we don't need to manually delete the element\n        registeredTokens.pop();\n        registeredTokenIndex[_token] = 0;\n\n        emit LogTokenDeregistered(_token);\n    }\n\n    /// @notice Updates the list of registeredTokens adding tokens that are to be registered.\n    ///         The list of tokens that are pending registration are emptied afterwards.\n    function _updateTokenList() private {\n        // Register tokens\n        uint arrayLength = pendingTokens.length;\n        for (uint i = 0; i < arrayLength; i++) {\n            address token = pendingTokens[i];\n            registeredTokens.push(token);\n            registeredTokenIndex[token] = registeredTokens.length;\n            emit LogTokenRegistered(token);\n        }\n        pendingTokens.length = 0;\n    }\n\n}\n",
  "sourcePath": "/home/ray/0confirmation-mono/node_modules/darknode-sol/contracts/DarknodePayment/DarknodePayment.sol",
  "compiler": {
    "name": "solc",
    "version": "0.5.12+commit.7709ece9.Linux.g++"
  },
  "schemaVersion": "3.0.23",
  "updatedAt": "2020-02-27T23:36:07.385Z",
  "devdoc": {
    "methods": {
      "claim(address)": {
        "params": {
          "_darknode": "The address of the darknode to claim"
        }
      },
      "constructor": {
        "params": {
          "_VERSION": "A string defining the contract version.",
          "_darknodePaymentStore": "The address of the DarknodePaymentStore        contract",
          "_darknodeRegistry": "The address of the DarknodeRegistry contract"
        }
      },
      "deposit(uint256,address)": {
        "params": {
          "_token": "The token address",
          "_value": "The amount of token deposit in the token's smallest unit."
        }
      },
      "deregisterToken(address)": {
        "params": {
          "_token": "The address of the token to be deregistered."
        }
      },
      "forward(address)": {
        "params": {
          "_token": "The token address"
        }
      },
      "isOwner()": {
        "details": "Returns true if the caller is the current owner."
      },
      "owner()": {
        "details": "Returns the address of the current owner."
      },
      "registerToken(address)": {
        "params": {
          "_token": "The address of the token to be registered."
        }
      },
      "renounceOwnership()": {
        "details": "Leaves the contract without owner. It will not be possible to call `onlyOwner` functions anymore. Can only be called by the current owner.     * NOTE: Renouncing ownership will leave the contract without an owner, thereby removing any functionality that is only available to the owner."
      },
      "transferStoreOwnership(address)": {
        "params": {
          "_newOwner": "The address to transfer the ownership to."
        }
      },
      "updateCycleChanger(address)": {
        "params": {
          "_addr": "The new CycleChanger contract address."
        }
      },
      "updateDarknodeRegistry(address)": {
        "params": {
          "_darknodeRegistry": "The address of the Darknode Registry contract."
        }
      },
      "updatePayoutPercentage(uint256)": {
        "params": {
          "_percent": "The percentage of payout for darknodes."
        }
      },
      "withdraw(address,address)": {
        "params": {
          "_darknode": "The address of the darknode",
          "_token": "Which token to transfer"
        }
      }
    }
  },
  "userdoc": {
    "methods": {
      "changeCycle()": {
        "notice": "Changes the current cycle."
      },
      "claim(address)": {
        "notice": "Claims the rewards allocated to the darknode last epoch."
      },
      "claimStoreOwnership()": {
        "notice": "Claims ownership of the store passed in to the constructor.         `transferStoreOwnership` must have previously been called when         transferring from another DarknodePaymentStore."
      },
      "constructor": "The contract constructor. Starts the current cycle using the         time of deploy. ",
      "currentCycleRewardPool(address)": {
        "notice": "The current balance of the contract available as reward for the         current cycle"
      },
      "deposit(uint256,address)": {
        "notice": "Deposits token into the contract to be paid to the Darknodes "
      },
      "deregisterToken(address)": {
        "notice": "Removes a token from the list of supported tokens.         Deregistration is pending until next cycle. "
      },
      "forward(address)": {
        "notice": "Forwards any tokens that have been sent to the DarknodePayment contract         probably by mistake, to the DarknodePaymentStore. "
      },
      "registerToken(address)": {
        "notice": "Adds tokens to be payable. Registration is pending until next         cycle. "
      },
      "transferStoreOwnership(address)": {
        "notice": "Allows the contract owner to initiate an ownership transfer of         the DarknodePaymentStore. "
      },
      "updateCycleChanger(address)": {
        "notice": "Updates the CycleChanger contract address. "
      },
      "updateDarknodeRegistry(address)": {
        "notice": "Allows the contract owner to update the address of the darknode registry contract."
      },
      "updatePayoutPercentage(uint256)": {
        "notice": "Updates payout percentage "
      },
      "withdraw(address,address)": {
        "notice": "Transfers the funds allocated to the darknode to the darknode         owner. "
      }
    },
    "notice": "DarknodePayment is responsible for paying off darknodes for their         computation."
  }
}