{
  "contractName": "LinkedList",
  "abi": [
    {
      "constant": true,
      "inputs": [],
      "name": "NULL",
      "outputs": [
        {
          "internalType": "address",
          "name": "",
          "type": "address"
        }
      ],
      "payable": false,
      "stateMutability": "view",
      "type": "function"
    }
  ],
  "bytecode": "0x60ba610025600b82828239805160001a60731461001857fe5b30600052607381538281f3fe730000000000000000000000000000000000000000301460806040526004361060335760003560e01c8063f26be3fc146038575b600080fd5b603e6080565b604051808273ffffffffffffffffffffffffffffffffffffffff1673ffffffffffffffffffffffffffffffffffffffff16815260200191505060405180910390f35b60008156fea265627a7a72315820ea24dbfae59be8e1b9497665550cbb5582ead9540634df88f627dc2c22ec73a864736f6c634300050c0032",
  "source": "pragma solidity 0.5.12;\n\n/**\n * @notice LinkedList is a library for a circular double linked list.\n */\nlibrary LinkedList {\n\n    /*\n    * @notice A permanent NULL node (0x0) in the circular double linked list.\n    * NULL.next is the head, and NULL.previous is the tail.\n    */\n    address public constant NULL = address(0);\n\n    /**\n    * @notice A node points to the node before it, and the node after it. If\n    * node.previous = NULL, then the node is the head of the list. If\n    * node.next = NULL, then the node is the tail of the list.\n    */\n    struct Node {\n        bool inList;\n        address previous;\n        address next;\n    }\n\n    /**\n    * @notice LinkedList uses a mapping from address to nodes. Each address\n    * uniquely identifies a node, and in this way they are used like pointers.\n    */\n    struct List {\n        mapping (address => Node) list;\n    }\n\n    /**\n    * @notice Insert a new node before an existing node.\n    *\n    * @param self The list being used.\n    * @param target The existing node in the list.\n    * @param newNode The next node to insert before the target.\n    */\n    function insertBefore(List storage self, address target, address newNode) internal {\n        require(newNode != address(0), \"LinkedList: invalid address\");\n        require(!isInList(self, newNode), \"LinkedList: already in list\");\n        require(isInList(self, target) || target == NULL, \"LinkedList: not in list\");\n\n        // It is expected that this value is sometimes NULL.\n        address prev = self.list[target].previous;\n\n        self.list[newNode].next = target;\n        self.list[newNode].previous = prev;\n        self.list[target].previous = newNode;\n        self.list[prev].next = newNode;\n\n        self.list[newNode].inList = true;\n    }\n\n    /**\n    * @notice Insert a new node after an existing node.\n    *\n    * @param self The list being used.\n    * @param target The existing node in the list.\n    * @param newNode The next node to insert after the target.\n    */\n    function insertAfter(List storage self, address target, address newNode) internal {\n        require(newNode != address(0), \"LinkedList: invalid address\");\n        require(!isInList(self, newNode), \"LinkedList: already in list\");\n        require(isInList(self, target) || target == NULL, \"LinkedList: not in list\");\n\n        // It is expected that this value is sometimes NULL.\n        address n = self.list[target].next;\n\n        self.list[newNode].previous = target;\n        self.list[newNode].next = n;\n        self.list[target].next = newNode;\n        self.list[n].previous = newNode;\n\n        self.list[newNode].inList = true;\n    }\n\n    /**\n    * @notice Remove a node from the list, and fix the previous and next\n    * pointers that are pointing to the removed node. Removing anode that is not\n    * in the list will do nothing.\n    *\n    * @param self The list being using.\n    * @param node The node in the list to be removed.\n    */\n    function remove(List storage self, address node) internal {\n        require(isInList(self, node), \"LinkedList: not in list\");\n        \n        address p = self.list[node].previous;\n        address n = self.list[node].next;\n\n        self.list[p].next = n;\n        self.list[n].previous = p;\n\n        // Deleting the node should set this value to false, but we set it here for\n        // explicitness.\n        self.list[node].inList = false;\n        delete self.list[node];\n    }\n\n    /**\n    * @notice Insert a node at the beginning of the list.\n    *\n    * @param self The list being used.\n    * @param node The node to insert at the beginning of the list.\n    */\n    function prepend(List storage self, address node) internal {\n        // isInList(node) is checked in insertBefore\n\n        insertBefore(self, begin(self), node);\n    }\n\n    /**\n    * @notice Insert a node at the end of the list.\n    *\n    * @param self The list being used.\n    * @param node The node to insert at the end of the list.\n    */\n    function append(List storage self, address node) internal {\n        // isInList(node) is checked in insertBefore\n\n        insertAfter(self, end(self), node);\n    }\n\n    function swap(List storage self, address left, address right) internal {\n        // isInList(left) and isInList(right) are checked in remove\n\n        address previousRight = self.list[right].previous;\n        remove(self, right);\n        insertAfter(self, left, right);\n        remove(self, left);\n        insertAfter(self, previousRight, left);\n    }\n\n    function isInList(List storage self, address node) internal view returns (bool) {\n        return self.list[node].inList;\n    }\n\n    /**\n    * @notice Get the node at the beginning of a double linked list.\n    *\n    * @param self The list being used.\n    *\n    * @return A address identifying the node at the beginning of the double\n    * linked list.\n    */\n    function begin(List storage self) internal view returns (address) {\n        return self.list[NULL].next;\n    }\n\n    /**\n    * @notice Get the node at the end of a double linked list.\n    *\n    * @param self The list being used.\n    *\n    * @return A address identifying the node at the end of the double linked\n    * list.\n    */\n    function end(List storage self) internal view returns (address) {\n        return self.list[NULL].previous;\n    }\n\n    function next(List storage self, address node) internal view returns (address) {\n        require(isInList(self, node), \"LinkedList: not in list\");\n        return self.list[node].next;\n    }\n\n    function previous(List storage self, address node) internal view returns (address) {\n        require(isInList(self, node), \"LinkedList: not in list\");\n        return self.list[node].previous;\n    }\n\n    function elements(List storage self, address _start, uint256 _count) internal view returns (address[] memory) {\n        require(_count > 0, \"LinkedList: invalid count\");\n        require(isInList(self, _start) || _start == address(0), \"LinkedList: not in list\");\n        address[] memory elems = new address[](_count);\n\n        // Begin with the first node in the list\n        uint256 n = 0;\n        address nextItem = _start;\n        if (nextItem == address(0)) {\n            nextItem = begin(self);\n        }\n\n        while (n < _count) {\n            if (nextItem == address(0)) {\n                break;\n            }\n            elems[n] = nextItem;\n            nextItem = next(self, nextItem);\n            n += 1;\n        }\n        return elems;\n    }\n}",
  "sourcePath": "/home/ray/0confirmation-mono/node_modules/darknode-sol/contracts/libraries/LinkedList.sol",
  "compiler": {
    "name": "solc",
    "version": "0.5.12+commit.7709ece9.Linux.g++"
  },
  "schemaVersion": "3.0.23",
  "updatedAt": "2020-02-27T23:36:07.442Z",
  "devdoc": {
    "methods": {}
  },
  "userdoc": {
    "methods": {},
    "notice": "LinkedList is a library for a circular double linked list."
  }
}