{
  "contractName": "ShifterRegistry",
  "abi": [
    {
      "anonymous": false,
      "inputs": [
        {
          "indexed": false,
          "internalType": "string",
          "name": "_symbol",
          "type": "string"
        },
        {
          "indexed": true,
          "internalType": "string",
          "name": "_indexedSymbol",
          "type": "string"
        },
        {
          "indexed": true,
          "internalType": "address",
          "name": "_tokenAddress",
          "type": "address"
        },
        {
          "indexed": true,
          "internalType": "address",
          "name": "_shifterAddress",
          "type": "address"
        }
      ],
      "name": "LogShifterDeregistered",
      "type": "event"
    },
    {
      "anonymous": false,
      "inputs": [
        {
          "indexed": false,
          "internalType": "string",
          "name": "_symbol",
          "type": "string"
        },
        {
          "indexed": true,
          "internalType": "string",
          "name": "_indexedSymbol",
          "type": "string"
        },
        {
          "indexed": true,
          "internalType": "address",
          "name": "_tokenAddress",
          "type": "address"
        },
        {
          "indexed": true,
          "internalType": "address",
          "name": "_shifterAddress",
          "type": "address"
        }
      ],
      "name": "LogShifterRegistered",
      "type": "event"
    },
    {
      "anonymous": false,
      "inputs": [
        {
          "indexed": true,
          "internalType": "address",
          "name": "_tokenAddress",
          "type": "address"
        },
        {
          "indexed": true,
          "internalType": "address",
          "name": "_currentShifterAddress",
          "type": "address"
        },
        {
          "indexed": true,
          "internalType": "address",
          "name": "_newShifterAddress",
          "type": "address"
        }
      ],
      "name": "LogShifterUpdated",
      "type": "event"
    },
    {
      "anonymous": false,
      "inputs": [
        {
          "indexed": true,
          "internalType": "address",
          "name": "previousOwner",
          "type": "address"
        },
        {
          "indexed": true,
          "internalType": "address",
          "name": "newOwner",
          "type": "address"
        }
      ],
      "name": "OwnershipTransferred",
      "type": "event"
    },
    {
      "constant": false,
      "inputs": [
        {
          "internalType": "address",
          "name": "_token",
          "type": "address"
        }
      ],
      "name": "blacklistRecoverableToken",
      "outputs": [],
      "payable": false,
      "stateMutability": "nonpayable",
      "type": "function"
    },
    {
      "constant": false,
      "inputs": [],
      "name": "claimOwnership",
      "outputs": [],
      "payable": false,
      "stateMutability": "nonpayable",
      "type": "function"
    },
    {
      "constant": true,
      "inputs": [],
      "name": "isOwner",
      "outputs": [
        {
          "internalType": "bool",
          "name": "",
          "type": "bool"
        }
      ],
      "payable": false,
      "stateMutability": "view",
      "type": "function"
    },
    {
      "constant": true,
      "inputs": [],
      "name": "owner",
      "outputs": [
        {
          "internalType": "address",
          "name": "",
          "type": "address"
        }
      ],
      "payable": false,
      "stateMutability": "view",
      "type": "function"
    },
    {
      "constant": true,
      "inputs": [],
      "name": "pendingOwner",
      "outputs": [
        {
          "internalType": "address",
          "name": "",
          "type": "address"
        }
      ],
      "payable": false,
      "stateMutability": "view",
      "type": "function"
    },
    {
      "constant": false,
      "inputs": [
        {
          "internalType": "address",
          "name": "_token",
          "type": "address"
        }
      ],
      "name": "recoverTokens",
      "outputs": [],
      "payable": false,
      "stateMutability": "nonpayable",
      "type": "function"
    },
    {
      "constant": false,
      "inputs": [],
      "name": "renounceOwnership",
      "outputs": [],
      "payable": false,
      "stateMutability": "nonpayable",
      "type": "function"
    },
    {
      "constant": false,
      "inputs": [
        {
          "internalType": "address",
          "name": "newOwner",
          "type": "address"
        }
      ],
      "name": "transferOwnership",
      "outputs": [],
      "payable": false,
      "stateMutability": "nonpayable",
      "type": "function"
    },
    {
      "constant": false,
      "inputs": [
        {
          "internalType": "address",
          "name": "_tokenAddress",
          "type": "address"
        },
        {
          "internalType": "address",
          "name": "_shifterAddress",
          "type": "address"
        }
      ],
      "name": "setShifter",
      "outputs": [],
      "payable": false,
      "stateMutability": "nonpayable",
      "type": "function"
    },
    {
      "constant": false,
      "inputs": [
        {
          "internalType": "address",
          "name": "_tokenAddress",
          "type": "address"
        },
        {
          "internalType": "address",
          "name": "_newShifterAddress",
          "type": "address"
        }
      ],
      "name": "updateShifter",
      "outputs": [],
      "payable": false,
      "stateMutability": "nonpayable",
      "type": "function"
    },
    {
      "constant": false,
      "inputs": [
        {
          "internalType": "string",
          "name": "_symbol",
          "type": "string"
        }
      ],
      "name": "removeShifter",
      "outputs": [],
      "payable": false,
      "stateMutability": "nonpayable",
      "type": "function"
    },
    {
      "constant": true,
      "inputs": [
        {
          "internalType": "address",
          "name": "_start",
          "type": "address"
        },
        {
          "internalType": "uint256",
          "name": "_count",
          "type": "uint256"
        }
      ],
      "name": "getShifters",
      "outputs": [
        {
          "internalType": "address[]",
          "name": "",
          "type": "address[]"
        }
      ],
      "payable": false,
      "stateMutability": "view",
      "type": "function"
    },
    {
      "constant": true,
      "inputs": [
        {
          "internalType": "address",
          "name": "_start",
          "type": "address"
        },
        {
          "internalType": "uint256",
          "name": "_count",
          "type": "uint256"
        }
      ],
      "name": "getShiftedTokens",
      "outputs": [
        {
          "internalType": "address[]",
          "name": "",
          "type": "address[]"
        }
      ],
      "payable": false,
      "stateMutability": "view",
      "type": "function"
    },
    {
      "constant": true,
      "inputs": [
        {
          "internalType": "address",
          "name": "_tokenAddress",
          "type": "address"
        }
      ],
      "name": "getShifterByToken",
      "outputs": [
        {
          "internalType": "contract IShifter",
          "name": "",
          "type": "address"
        }
      ],
      "payable": false,
      "stateMutability": "view",
      "type": "function"
    },
    {
      "constant": true,
      "inputs": [
        {
          "internalType": "string",
          "name": "_tokenSymbol",
          "type": "string"
        }
      ],
      "name": "getShifterBySymbol",
      "outputs": [
        {
          "internalType": "contract IShifter",
          "name": "",
          "type": "address"
        }
      ],
      "payable": false,
      "stateMutability": "view",
      "type": "function"
    },
    {
      "constant": true,
      "inputs": [
        {
          "internalType": "string",
          "name": "_tokenSymbol",
          "type": "string"
        }
      ],
      "name": "getTokenBySymbol",
      "outputs": [
        {
          "internalType": "address",
          "name": "",
          "type": "address"
        }
      ],
      "payable": false,
      "stateMutability": "view",
      "type": "function"
    }
  ],
  "bytecode": "0x6080604052600060035560006100196100bc60201b60201c565b9050806000806101000a81548173ffffffffffffffffffffffffffffffffffffffff021916908373ffffffffffffffffffffffffffffffffffffffff1602179055508073ffffffffffffffffffffffffffffffffffffffff16600073ffffffffffffffffffffffffffffffffffffffff167f8be0079c531659141344cd1fd0a4f28419497f9722a3daafe3b4186f6b6457e060405160405180910390a3506100c4565b600033905090565b61300b806100d36000396000f3fe608060405234801561001057600080fd5b50600436106101005760003560e01c8063a904d13d11610097578063e30c397811610066578063e30c39781461058d578063efa74f1f146105d7578063f2fde38b14610690578063f65d901c146106d457610100565b8063a904d13d146103a9578063ac5b1ba91461040d578063be1bca1914610486578063deeb2efe146104ea57610100565b80638da5cb5b116100d35780638da5cb5b146101e15780638f32d59b1461022b57806392a29e301461024d578063a47c84bd1461030657610100565b806316114acd1461010557806328c4f410146101495780634e71e0c8146101cd578063715018a6146101d7575b600080fd5b6101476004803603602081101561011b57600080fd5b81019080803573ffffffffffffffffffffffffffffffffffffffff169060200190929190505050610718565b005b61018b6004803603602081101561015f57600080fd5b81019080803573ffffffffffffffffffffffffffffffffffffffff1690602001909291905050506109b3565b604051808273ffffffffffffffffffffffffffffffffffffffff1673ffffffffffffffffffffffffffffffffffffffff16815260200191505060405180910390f35b6101d5610a1c565b005b6101df610b1b565b005b6101e9610c54565b604051808273ffffffffffffffffffffffffffffffffffffffff1673ffffffffffffffffffffffffffffffffffffffff16815260200191505060405180910390f35b610233610c7d565b604051808215151515815260200191505060405180910390f35b6102c46004803603602081101561026357600080fd5b810190808035906020019064010000000081111561028057600080fd5b82018360208201111561029257600080fd5b803590602001918460018302840111640100000000831117156102b457600080fd5b9091929391929390505050610cdb565b604051808273ffffffffffffffffffffffffffffffffffffffff1673ffffffffffffffffffffffffffffffffffffffff16815260200191505060405180910390f35b6103526004803603604081101561031c57600080fd5b81019080803573ffffffffffffffffffffffffffffffffffffffff16906020019092919080359060200190929190505050610d8c565b6040518080602001828103825283818151815260200191508051906020019060200280838360005b8381101561039557808201518184015260208101905061037a565b505050509050019250505060405180910390f35b61040b600480360360408110156103bf57600080fd5b81019080803573ffffffffffffffffffffffffffffffffffffffff169060200190929190803573ffffffffffffffffffffffffffffffffffffffff169060200190929190505050610db3565b005b6104846004803603602081101561042357600080fd5b810190808035906020019064010000000081111561044057600080fd5b82018360208201111561045257600080fd5b8035906020019184600183028401116401000000008311171561047457600080fd5b9091929391929390505050611440565b005b6104e86004803603604081101561049c57600080fd5b81019080803573ffffffffffffffffffffffffffffffffffffffff169060200190929190803573ffffffffffffffffffffffffffffffffffffffff169060200190929190505050611779565b005b6105366004803603604081101561050057600080fd5b81019080803573ffffffffffffffffffffffffffffffffffffffff169060200190929190803590602001909291905050506119e7565b6040518080602001828103825283818151815260200191508051906020019060200280838360005b8381101561057957808201518184015260208101905061055e565b505050509050019250505060405180910390f35b610595611a0e565b604051808273ffffffffffffffffffffffffffffffffffffffff1673ffffffffffffffffffffffffffffffffffffffff16815260200191505060405180910390f35b61064e600480360360208110156105ed57600080fd5b810190808035906020019064010000000081111561060a57600080fd5b82018360208201111561061c57600080fd5b8035906020019184600183028401116401000000008311171561063e57600080fd5b9091929391929390505050611a34565b604051808273ffffffffffffffffffffffffffffffffffffffff1673ffffffffffffffffffffffffffffffffffffffff16815260200191505060405180910390f35b6106d2600480360360208110156106a657600080fd5b81019080803573ffffffffffffffffffffffffffffffffffffffff169060200190929190505050611a86565b005b610716600480360360208110156106ea57600080fd5b81019080803573ffffffffffffffffffffffffffffffffffffffff169060200190929190505050611c47565b005b610720610c7d565b610792576040517f08c379a00000000000000000000000000000000000000000000000000000000081526004018080602001828103825260208152602001807f4f776e61626c653a2063616c6c6572206973206e6f7420746865206f776e657281525060200191505060405180910390fd5b600260008273ffffffffffffffffffffffffffffffffffffffff1673ffffffffffffffffffffffffffffffffffffffff16815260200190815260200160002060009054906101000a900460ff1615610835576040517f08c379a000000000000000000000000000000000000000000000000000000000815260040180806020018281038252602a815260200180612eb9602a913960400191505060405180910390fd5b600073ffffffffffffffffffffffffffffffffffffffff168173ffffffffffffffffffffffffffffffffffffffff1614156108cd573373ffffffffffffffffffffffffffffffffffffffff166108fc3073ffffffffffffffffffffffffffffffffffffffff16319081150290604051600060405180830381858888f193505050501580156108c7573d6000803e3d6000fd5b506109b0565b6109af338273ffffffffffffffffffffffffffffffffffffffff166370a08231306040518263ffffffff1660e01b8152600401808273ffffffffffffffffffffffffffffffffffffffff1673ffffffffffffffffffffffffffffffffffffffff16815260200191505060206040518083038186803b15801561094e57600080fd5b505afa158015610962573d6000803e3d6000fd5b505050506040513d602081101561097857600080fd5b81019080805190602001909291905050508373ffffffffffffffffffffffffffffffffffffffff16611d1c9092919063ffffffff16565b5b50565b6000600660008373ffffffffffffffffffffffffffffffffffffffff1673ffffffffffffffffffffffffffffffffffffffff16815260200190815260200160002060009054906101000a900473ffffffffffffffffffffffffffffffffffffffff169050919050565b600160009054906101000a900473ffffffffffffffffffffffffffffffffffffffff1673ffffffffffffffffffffffffffffffffffffffff16610a5d611ded565b73ffffffffffffffffffffffffffffffffffffffff1614610ac9576040517f08c379a000000000000000000000000000000000000000000000000000000000815260040180806020018281038252602a815260200180612f83602a913960400191505060405180910390fd5b610af4600160009054906101000a900473ffffffffffffffffffffffffffffffffffffffff16611df5565b600160006101000a81549073ffffffffffffffffffffffffffffffffffffffff0219169055565b610b23610c7d565b610b95576040517f08c379a00000000000000000000000000000000000000000000000000000000081526004018080602001828103825260208152602001807f4f776e61626c653a2063616c6c6572206973206e6f7420746865206f776e657281525060200191505060405180910390fd5b600073ffffffffffffffffffffffffffffffffffffffff166000809054906101000a900473ffffffffffffffffffffffffffffffffffffffff1673ffffffffffffffffffffffffffffffffffffffff167f8be0079c531659141344cd1fd0a4f28419497f9722a3daafe3b4186f6b6457e060405160405180910390a360008060006101000a81548173ffffffffffffffffffffffffffffffffffffffff021916908373ffffffffffffffffffffffffffffffffffffffff160217905550565b60008060009054906101000a900473ffffffffffffffffffffffffffffffffffffffff16905090565b60008060009054906101000a900473ffffffffffffffffffffffffffffffffffffffff1673ffffffffffffffffffffffffffffffffffffffff16610cbf611ded565b73ffffffffffffffffffffffffffffffffffffffff1614905090565b60006006600060078585604051808383808284378083019250505092505050908152602001604051809103902060009054906101000a900473ffffffffffffffffffffffffffffffffffffffff1673ffffffffffffffffffffffffffffffffffffffff1673ffffffffffffffffffffffffffffffffffffffff16815260200190815260200160002060009054906101000a900473ffffffffffffffffffffffffffffffffffffffff16905092915050565b6060610dab60058460008514610da25784610da6565b6003545b611f39565b905092915050565b610dbb610c7d565b610e2d576040517f08c379a00000000000000000000000000000000000000000000000000000000081526004018080602001828103825260208152602001807f4f776e61626c653a2063616c6c6572206973206e6f7420746865206f776e657281525060200191505060405180910390fd5b610e38600482612191565b15610e8e576040517f08c379a000000000000000000000000000000000000000000000000000000000815260040180806020018281038252602b815260200180612f58602b913960400191505060405180910390fd5b600073ffffffffffffffffffffffffffffffffffffffff16600660008473ffffffffffffffffffffffffffffffffffffffff1673ffffffffffffffffffffffffffffffffffffffff16815260200190815260200160002060009054906101000a900473ffffffffffffffffffffffffffffffffffffffff1673ffffffffffffffffffffffffffffffffffffffff1614610f72576040517f08c379a0000000000000000000000000000000000000000000000000000000008152600401808060200182810382526029815260200180612e906029913960400191505060405180910390fd5b60608273ffffffffffffffffffffffffffffffffffffffff166395d89b416040518163ffffffff1660e01b815260040160006040518083038186803b158015610fba57600080fd5b505afa158015610fce573d6000803e3d6000fd5b505050506040513d6000823e3d601f19601f820116820180604052506020811015610ff857600080fd5b810190808051604051939291908464010000000082111561101857600080fd5b8382019150602082018581111561102e57600080fd5b825186600182028301116401000000008211171561104b57600080fd5b8083526020830192505050908051906020019080838360005b8381101561107f578082015181840152602081019050611064565b50505050905090810190601f1680156110ac5780820380516001836020036101000a031916815260200191505b506040525050509050600073ffffffffffffffffffffffffffffffffffffffff166007826040518082805190602001908083835b6020831061110357805182526020820191506020810190506020830392506110e0565b6001836020036101000a038019825116818451168082178552505050505050905001915050908152602001604051809103902060009054906101000a900473ffffffffffffffffffffffffffffffffffffffff1673ffffffffffffffffffffffffffffffffffffffff16146111c3576040517f08c379a000000000000000000000000000000000000000000000000000000000815260040180806020018281038252602a815260200180612f08602a913960400191505060405180910390fd5b6111ce6004836121ed565b6111d96005846121ed565b826007826040518082805190602001908083835b6020831061121057805182526020820191506020810190506020830392506111ed565b6001836020036101000a038019825116818451168082178552505050505050905001915050908152602001604051809103902060006101000a81548173ffffffffffffffffffffffffffffffffffffffff021916908373ffffffffffffffffffffffffffffffffffffffff16021790555081600660008573ffffffffffffffffffffffffffffffffffffffff1673ffffffffffffffffffffffffffffffffffffffff16815260200190815260200160002060006101000a81548173ffffffffffffffffffffffffffffffffffffffff021916908373ffffffffffffffffffffffffffffffffffffffff16021790555060016003600082825401925050819055508173ffffffffffffffffffffffffffffffffffffffff168373ffffffffffffffffffffffffffffffffffffffff16826040518082805190602001908083835b60208310611372578051825260208201915060208101905060208303925061134f565b6001836020036101000a03801982511681845116808217855250505050505090500191505060405180910390207fad1b5a1f09ea4cf872d9274b59cccba2c4fb43f92eaf5a54b705449417adce1e846040518080602001828103825283818151815260200191508051906020019080838360005b838110156114015780820151818401526020810190506113e6565b50505050905090810190601f16801561142e5780820380516001836020036101000a031916815260200191505b509250505060405180910390a4505050565b611448610c7d565b6114ba576040517f08c379a00000000000000000000000000000000000000000000000000000000081526004018080602001828103825260208152602001807f4f776e61626c653a2063616c6c6572206973206e6f7420746865206f776e657281525060200191505060405180910390fd5b600060078383604051808383808284378083019250505092505050908152602001604051809103902060009054906101000a900473ffffffffffffffffffffffffffffffffffffffff169050600073ffffffffffffffffffffffffffffffffffffffff168173ffffffffffffffffffffffffffffffffffffffff16141561158c576040517f08c379a0000000000000000000000000000000000000000000000000000000008152600401808060200182810382526026815260200180612f326026913960400191505060405180910390fd5b6000600660008373ffffffffffffffffffffffffffffffffffffffff1673ffffffffffffffffffffffffffffffffffffffff16815260200190815260200160002060009054906101000a900473ffffffffffffffffffffffffffffffffffffffff169050600660008373ffffffffffffffffffffffffffffffffffffffff1673ffffffffffffffffffffffffffffffffffffffff16815260200190815260200160002060006101000a81549073ffffffffffffffffffffffffffffffffffffffff021916905560078484604051808383808284378083019250505092505050908152602001604051809103902060006101000a81549073ffffffffffffffffffffffffffffffffffffffff02191690556116a7600482612204565b6116b2600583612204565b60016003600082825403925050819055508073ffffffffffffffffffffffffffffffffffffffff168273ffffffffffffffffffffffffffffffffffffffff16858560405180838380828437808301925050509250505060405180910390207f7fa2fe506a0201656c1d87a8927899ad716ebd71b23fdabce40b56ae22056963878760405180806020018281038252848482818152602001925080828437600081840152601f19601f820116905080830192505050935050505060405180910390a450505050565b611781610c7d565b6117f3576040517f08c379a00000000000000000000000000000000000000000000000000000000081526004018080602001828103825260208152602001807f4f776e61626c653a2063616c6c6572206973206e6f7420746865206f776e657281525060200191505060405180910390fd5b6000600660008473ffffffffffffffffffffffffffffffffffffffff1673ffffffffffffffffffffffffffffffffffffffff16815260200190815260200160002060009054906101000a900473ffffffffffffffffffffffffffffffffffffffff169050600073ffffffffffffffffffffffffffffffffffffffff168173ffffffffffffffffffffffffffffffffffffffff1614156118dd576040517f08c379a0000000000000000000000000000000000000000000000000000000008152600401808060200182810382526025815260200180612ee36025913960400191505060405180910390fd5b6118e8600482612204565b6118f36004836121ed565b81600660008573ffffffffffffffffffffffffffffffffffffffff1673ffffffffffffffffffffffffffffffffffffffff16815260200190815260200160002060006101000a81548173ffffffffffffffffffffffffffffffffffffffff021916908373ffffffffffffffffffffffffffffffffffffffff1602179055508173ffffffffffffffffffffffffffffffffffffffff168173ffffffffffffffffffffffffffffffffffffffff168473ffffffffffffffffffffffffffffffffffffffff167f78ef5fc29fe65855a5352e3954d6839f596542b47b3aeb40b84596358d06f09a60405160405180910390a4505050565b6060611a06600484600085146119fd5784611a01565b6003545b611f39565b905092915050565b600160009054906101000a900473ffffffffffffffffffffffffffffffffffffffff1681565b600060078383604051808383808284378083019250505092505050908152602001604051809103902060009054906101000a900473ffffffffffffffffffffffffffffffffffffffff16905092915050565b611a8e610c7d565b611b00576040517f08c379a00000000000000000000000000000000000000000000000000000000081526004018080602001828103825260208152602001807f4f776e61626c653a2063616c6c6572206973206e6f7420746865206f776e657281525060200191505060405180910390fd5b611b08610c54565b73ffffffffffffffffffffffffffffffffffffffff168173ffffffffffffffffffffffffffffffffffffffff1614158015611b915750600160009054906101000a900473ffffffffffffffffffffffffffffffffffffffff1673ffffffffffffffffffffffffffffffffffffffff168173ffffffffffffffffffffffffffffffffffffffff1614155b611c03576040517f08c379a000000000000000000000000000000000000000000000000000000000815260040180806020018281038252601c8152602001807f436c61696d61626c653a20696e76616c6964206e6577206f776e65720000000081525060200191505060405180910390fd5b80600160006101000a81548173ffffffffffffffffffffffffffffffffffffffff021916908373ffffffffffffffffffffffffffffffffffffffff16021790555050565b611c4f610c7d565b611cc1576040517f08c379a00000000000000000000000000000000000000000000000000000000081526004018080602001828103825260208152602001807f4f776e61626c653a2063616c6c6572206973206e6f7420746865206f776e657281525060200191505060405180910390fd5b6001600260008373ffffffffffffffffffffffffffffffffffffffff1673ffffffffffffffffffffffffffffffffffffffff16815260200190815260200160002060006101000a81548160ff02191690831515021790555050565b611de8838473ffffffffffffffffffffffffffffffffffffffff1663a9059cbb905060e01b8484604051602401808373ffffffffffffffffffffffffffffffffffffffff1673ffffffffffffffffffffffffffffffffffffffff16815260200182815260200192505050604051602081830303815290604052907bffffffffffffffffffffffffffffffffffffffffffffffffffffffff19166020820180517bffffffffffffffffffffffffffffffffffffffffffffffffffffffff8381831617835250505050612561565b505050565b600033905090565b600073ffffffffffffffffffffffffffffffffffffffff168173ffffffffffffffffffffffffffffffffffffffff161415611e7b576040517f08c379a0000000000000000000000000000000000000000000000000000000008152600401808060200182810382526026815260200180612e6a6026913960400191505060405180910390fd5b8073ffffffffffffffffffffffffffffffffffffffff166000809054906101000a900473ffffffffffffffffffffffffffffffffffffffff1673ffffffffffffffffffffffffffffffffffffffff167f8be0079c531659141344cd1fd0a4f28419497f9722a3daafe3b4186f6b6457e060405160405180910390a3806000806101000a81548173ffffffffffffffffffffffffffffffffffffffff021916908373ffffffffffffffffffffffffffffffffffffffff16021790555050565b606060008211611fb1576040517f08c379a00000000000000000000000000000000000000000000000000000000081526004018080602001828103825260198152602001807f4c696e6b65644c6973743a20696e76616c696420636f756e740000000000000081525060200191505060405180910390fd5b611fbb8484612191565b80611ff25750600073ffffffffffffffffffffffffffffffffffffffff168373ffffffffffffffffffffffffffffffffffffffff16145b612064576040517f08c379a00000000000000000000000000000000000000000000000000000000081526004018080602001828103825260178152602001807f4c696e6b65644c6973743a206e6f7420696e206c69737400000000000000000081525060200191505060405180910390fd5b6060826040519080825280602002602001820160405280156120955781602001602082028038833980820191505090505b50905060008090506000859050600073ffffffffffffffffffffffffffffffffffffffff168173ffffffffffffffffffffffffffffffffffffffff1614156120e3576120e0876127ac565b90505b5b8482101561218457600073ffffffffffffffffffffffffffffffffffffffff168173ffffffffffffffffffffffffffffffffffffffff16141561212657612184565b8083838151811061213357fe5b602002602001019073ffffffffffffffffffffffffffffffffffffffff16908173ffffffffffffffffffffffffffffffffffffffff1681525050612177878261281a565b90506001820191506120e4565b8293505050509392505050565b60008260000160008373ffffffffffffffffffffffffffffffffffffffff1673ffffffffffffffffffffffffffffffffffffffff16815260200190815260200160002060000160009054906101000a900460ff16905092915050565b612200826121fa84612905565b83612973565b5050565b61220e8282612191565b612280576040517f08c379a00000000000000000000000000000000000000000000000000000000081526004018080602001828103825260178152602001807f4c696e6b65644c6973743a206e6f7420696e206c69737400000000000000000081525060200191505060405180910390fd5b60008260000160008373ffffffffffffffffffffffffffffffffffffffff1673ffffffffffffffffffffffffffffffffffffffff16815260200190815260200160002060000160019054906101000a900473ffffffffffffffffffffffffffffffffffffffff16905060008360000160008473ffffffffffffffffffffffffffffffffffffffff1673ffffffffffffffffffffffffffffffffffffffff16815260200190815260200160002060010160009054906101000a900473ffffffffffffffffffffffffffffffffffffffff169050808460000160008473ffffffffffffffffffffffffffffffffffffffff1673ffffffffffffffffffffffffffffffffffffffff16815260200190815260200160002060010160006101000a81548173ffffffffffffffffffffffffffffffffffffffff021916908373ffffffffffffffffffffffffffffffffffffffff160217905550818460000160008373ffffffffffffffffffffffffffffffffffffffff1673ffffffffffffffffffffffffffffffffffffffff16815260200190815260200160002060000160016101000a81548173ffffffffffffffffffffffffffffffffffffffff021916908373ffffffffffffffffffffffffffffffffffffffff16021790555060008460000160008573ffffffffffffffffffffffffffffffffffffffff1673ffffffffffffffffffffffffffffffffffffffff16815260200190815260200160002060000160006101000a81548160ff0219169083151502179055508360000160008473ffffffffffffffffffffffffffffffffffffffff1673ffffffffffffffffffffffffffffffffffffffff168152602001908152602001600020600080820160006101000a81549060ff02191690556000820160016101000a81549073ffffffffffffffffffffffffffffffffffffffff02191690556001820160006101000a81549073ffffffffffffffffffffffffffffffffffffffff0219169055505050505050565b6125808273ffffffffffffffffffffffffffffffffffffffff16612e1e565b6125f2576040517f08c379a000000000000000000000000000000000000000000000000000000000815260040180806020018281038252601f8152602001807f5361666545524332303a2063616c6c20746f206e6f6e2d636f6e74726163740081525060200191505060405180910390fd5b600060608373ffffffffffffffffffffffffffffffffffffffff16836040518082805190602001908083835b60208310612641578051825260208201915060208101905060208303925061261e565b6001836020036101000a0380198251168184511680821785525050505050509050019150506000604051808303816000865af19150503d80600081146126a3576040519150601f19603f3d011682016040523d82523d6000602084013e6126a8565b606091505b509150915081612720576040517f08c379a00000000000000000000000000000000000000000000000000000000081526004018080602001828103825260208152602001807f5361666545524332303a206c6f772d6c6576656c2063616c6c206661696c656481525060200191505060405180910390fd5b6000815111156127a65780806020019051602081101561273f57600080fd5b81019080805190602001909291905050506127a5576040517f08c379a000000000000000000000000000000000000000000000000000000000815260040180806020018281038252602a815260200180612fad602a913960400191505060405180910390fd5b5b50505050565b60008160000160008073ffffffffffffffffffffffffffffffffffffffff1673ffffffffffffffffffffffffffffffffffffffff16815260200190815260200160002060010160009054906101000a900473ffffffffffffffffffffffffffffffffffffffff169050919050565b60006128268383612191565b612898576040517f08c379a00000000000000000000000000000000000000000000000000000000081526004018080602001828103825260178152602001807f4c696e6b65644c6973743a206e6f7420696e206c69737400000000000000000081525060200191505060405180910390fd5b8260000160008373ffffffffffffffffffffffffffffffffffffffff1673ffffffffffffffffffffffffffffffffffffffff16815260200190815260200160002060010160009054906101000a900473ffffffffffffffffffffffffffffffffffffffff16905092915050565b60008160000160008073ffffffffffffffffffffffffffffffffffffffff1673ffffffffffffffffffffffffffffffffffffffff16815260200190815260200160002060000160019054906101000a900473ffffffffffffffffffffffffffffffffffffffff169050919050565b600073ffffffffffffffffffffffffffffffffffffffff168173ffffffffffffffffffffffffffffffffffffffff161415612a16576040517f08c379a000000000000000000000000000000000000000000000000000000000815260040180806020018281038252601b8152602001807f4c696e6b65644c6973743a20696e76616c69642061646472657373000000000081525060200191505060405180910390fd5b612a208382612191565b15612a93576040517f08c379a000000000000000000000000000000000000000000000000000000000815260040180806020018281038252601b8152602001807f4c696e6b65644c6973743a20616c726561647920696e206c697374000000000081525060200191505060405180910390fd5b612a9d8383612191565b80612ad45750600073ffffffffffffffffffffffffffffffffffffffff168273ffffffffffffffffffffffffffffffffffffffff16145b612b46576040517f08c379a00000000000000000000000000000000000000000000000000000000081526004018080602001828103825260178152602001807f4c696e6b65644c6973743a206e6f7420696e206c69737400000000000000000081525060200191505060405180910390fd5b60008360000160008473ffffffffffffffffffffffffffffffffffffffff1673ffffffffffffffffffffffffffffffffffffffff16815260200190815260200160002060010160009054906101000a900473ffffffffffffffffffffffffffffffffffffffff169050828460000160008473ffffffffffffffffffffffffffffffffffffffff1673ffffffffffffffffffffffffffffffffffffffff16815260200190815260200160002060000160016101000a81548173ffffffffffffffffffffffffffffffffffffffff021916908373ffffffffffffffffffffffffffffffffffffffff160217905550808460000160008473ffffffffffffffffffffffffffffffffffffffff1673ffffffffffffffffffffffffffffffffffffffff16815260200190815260200160002060010160006101000a81548173ffffffffffffffffffffffffffffffffffffffff021916908373ffffffffffffffffffffffffffffffffffffffff160217905550818460000160008573ffffffffffffffffffffffffffffffffffffffff1673ffffffffffffffffffffffffffffffffffffffff16815260200190815260200160002060010160006101000a81548173ffffffffffffffffffffffffffffffffffffffff021916908373ffffffffffffffffffffffffffffffffffffffff160217905550818460000160008373ffffffffffffffffffffffffffffffffffffffff1673ffffffffffffffffffffffffffffffffffffffff16815260200190815260200160002060000160016101000a81548173ffffffffffffffffffffffffffffffffffffffff021916908373ffffffffffffffffffffffffffffffffffffffff16021790555060018460000160008473ffffffffffffffffffffffffffffffffffffffff1673ffffffffffffffffffffffffffffffffffffffff16815260200190815260200160002060000160006101000a81548160ff02191690831515021790555050505050565b60008060007fc5d2460186f7233c927e7db2dcc703c0e500b653ca82273b7bfad8045d85a47060001b9050833f9150808214158015612e6057506000801b8214155b9250505091905056fe4f776e61626c653a206e6577206f776e657220697320746865207a65726f20616464726573735368696674657252656769737472793a20746f6b656e20616c7265616479207265676973746572656443616e5265636c61696d546f6b656e733a20746f6b656e206973206e6f74207265636f76657261626c655368696674657252656769737472793a20746f6b656e206e6f7420726567697374657265645368696674657252656769737472793a2073796d626f6c20616c726561647920726567697374657265645368696674657252656769737472793a2073796d626f6c206e6f7420726567697374657265645368696674657252656769737472793a207368696674657220616c72656164792072656769737465726564436c61696d61626c653a2063616c6c6572206973206e6f74207468652070656e64696e67206f776e65725361666545524332303a204552433230206f7065726174696f6e20646964206e6f742073756363656564a265627a7a723158206cfc7ad12ea22e1ef1a15624fb9f8481baa2414852354d187667058cd64c54c564736f6c634300050c0032",
  "source": "pragma solidity 0.5.12;\n\nimport \"../libraries/Claimable.sol\";\nimport \"./ERC20Shifted.sol\";\nimport \"../libraries/LinkedList.sol\";\nimport \"./IShifter.sol\";\nimport \"../libraries/CanReclaimTokens.sol\";\n\n/// @notice ShifterRegistry is a mapping from assets to their associated\n/// ERC20Shifted and Shifter contracts.\ncontract ShifterRegistry is Claimable, CanReclaimTokens {\n\n    /// @dev The symbol is included twice because strings have to be hashed\n    /// first in order to be used as a log index/topic.\n    event LogShifterRegistered(string _symbol, string indexed _indexedSymbol, address indexed _tokenAddress, address indexed _shifterAddress);\n    event LogShifterDeregistered(string _symbol, string indexed _indexedSymbol, address indexed _tokenAddress, address indexed _shifterAddress);\n    event LogShifterUpdated(address indexed _tokenAddress, address indexed _currentShifterAddress, address indexed _newShifterAddress);\n\n    /// @notice The number of shifters registered\n    uint256 numShifters = 0;\n\n    /// @notice A list of shifter contracts\n    LinkedList.List private shifterList;\n\n    /// @notice A list of shifted token contracts\n    LinkedList.List private shiftedTokenList;\n\n    /// @notice A map of token addresses to canonical shifter addresses\n    mapping (address=>address) private shifterByToken;\n\n    /// @notice A map of token symbols to canonical shifter addresses\n    mapping (string=>address) private tokenBySymbol;\n\n    /// @notice Allow the owner to set the shifter address for a given\n    ///         ERC20Shifted token contract.\n    ///\n    /// @param _tokenAddress The address of the ERC20Shifted token contract.\n    /// @param _shifterAddress The address of the Shifter contract.\n    function setShifter(address _tokenAddress, address _shifterAddress) external onlyOwner {\n        // Check that token, shifter and symbol haven't already been registered\n        require(!LinkedList.isInList(shifterList, _shifterAddress), \"ShifterRegistry: shifter already registered\");\n        require(shifterByToken[_tokenAddress] == address(0x0), \"ShifterRegistry: token already registered\");\n        string memory symbol = ERC20Shifted(_tokenAddress).symbol();\n        require(tokenBySymbol[symbol] == address(0x0), \"ShifterRegistry: symbol already registered\");\n\n        // Add to list of shifters\n        LinkedList.append(shifterList, _shifterAddress);\n\n        // Add to list of shifted tokens\n        LinkedList.append(shiftedTokenList, _tokenAddress);\n\n        tokenBySymbol[symbol] = _tokenAddress;\n        shifterByToken[_tokenAddress] = _shifterAddress;\n        numShifters += 1;\n\n        emit LogShifterRegistered(symbol, symbol, _tokenAddress, _shifterAddress);\n    }\n\n    /// @notice Allow the owner to update the shifter address for a given\n    ///         ERC20Shifted token contract.\n    ///\n    /// @param _tokenAddress The address of the ERC20Shifted token contract.\n    /// @param _newShifterAddress The updated address of the Shifter contract.\n    function updateShifter(address _tokenAddress, address _newShifterAddress) external onlyOwner {\n        // Check that token, shifter are registered\n        address currentShifter = shifterByToken[_tokenAddress];\n        require(currentShifter != address(0x0), \"ShifterRegistry: token not registered\");\n\n        // Remove to list of shifters\n        LinkedList.remove(shifterList, currentShifter);\n\n        // Add to list of shifted tokens\n        LinkedList.append(shifterList, _newShifterAddress);\n\n        shifterByToken[_tokenAddress] = _newShifterAddress;\n\n        emit LogShifterUpdated(_tokenAddress, currentShifter, _newShifterAddress);\n    }\n\n    /// @notice Allows the owner to remove the shifter address for a given\n    ///         ERC20shifter token contract.\n    ///\n    /// @param _symbol The symbol of the token to deregister.\n    function removeShifter(string calldata _symbol) external onlyOwner {\n        // Look up token address\n        address tokenAddress = tokenBySymbol[_symbol];\n        require(tokenAddress != address(0x0), \"ShifterRegistry: symbol not registered\");\n\n        // Look up shifter address\n        address shifterAddress = shifterByToken[tokenAddress];\n\n        // Remove token and shifter\n        delete shifterByToken[tokenAddress]; \n        delete tokenBySymbol[_symbol];\n        LinkedList.remove(shifterList, shifterAddress);\n        LinkedList.remove(shiftedTokenList, tokenAddress);\n        numShifters -= 1;\n\n        emit LogShifterDeregistered(_symbol, _symbol, tokenAddress, shifterAddress);\n    }\n\n    /// @dev To get all the registered shifters use count = 0.\n    function getShifters(address _start, uint256 _count) external view returns (address[] memory) {\n        return LinkedList.elements(shifterList, _start, _count == 0 ? numShifters : _count);\n    }\n\n    /// @dev To get all the registered shifted tokens use count = 0.\n    function getShiftedTokens(address _start, uint256 _count) external view returns (address[] memory) {\n        return LinkedList.elements(shiftedTokenList, _start, _count == 0 ? numShifters : _count);\n    }\n\n    /// @notice Returns the Shifter address for the given ERC20Shifted token\n    ///         contract address.\n    ///\n    /// @param _tokenAddress The address of the ERC20Shifted token contract.\n    function getShifterByToken(address _tokenAddress) external view returns (IShifter) {\n        return IShifter(shifterByToken[_tokenAddress]);\n    }\n\n    /// @notice Returns the Shifter address for the given ERC20Shifted token\n    ///         symbol.\n    ///\n    /// @param _tokenSymbol The symbol of the ERC20Shifted token contract.\n    function getShifterBySymbol(string calldata _tokenSymbol) external view returns (IShifter) {\n        return IShifter(shifterByToken[tokenBySymbol[_tokenSymbol]]);\n    }\n\n    /// @notice Returns the ERC20Shifted address for the given token symbol.\n    ///\n    /// @param _tokenSymbol The symbol of the ERC20Shifted token contract to\n    ///        lookup.\n    function getTokenBySymbol(string calldata _tokenSymbol) external view returns (address) {\n        return tokenBySymbol[_tokenSymbol];\n    }\n}",
  "sourcePath": "/home/ray/0confirmation-mono/node_modules/darknode-sol/contracts/Shifter/ShifterRegistry.sol",
  "compiler": {
    "name": "solc",
    "version": "0.5.12+commit.7709ece9.Linux.g++"
  },
  "schemaVersion": "3.0.23",
  "updatedAt": "2020-02-27T23:36:07.437Z",
  "devdoc": {
    "methods": {
      "getShiftedTokens(address,uint256)": {
        "details": "To get all the registered shifted tokens use count = 0."
      },
      "getShifterBySymbol(string)": {
        "params": {
          "_tokenSymbol": "The symbol of the ERC20Shifted token contract."
        }
      },
      "getShifterByToken(address)": {
        "params": {
          "_tokenAddress": "The address of the ERC20Shifted token contract."
        }
      },
      "getShifters(address,uint256)": {
        "details": "To get all the registered shifters use count = 0."
      },
      "getTokenBySymbol(string)": {
        "params": {
          "_tokenSymbol": "The symbol of the ERC20Shifted token contract to        lookup."
        }
      },
      "isOwner()": {
        "details": "Returns true if the caller is the current owner."
      },
      "owner()": {
        "details": "Returns the address of the current owner."
      },
      "removeShifter(string)": {
        "params": {
          "_symbol": "The symbol of the token to deregister."
        }
      },
      "renounceOwnership()": {
        "details": "Leaves the contract without owner. It will not be possible to call `onlyOwner` functions anymore. Can only be called by the current owner.     * NOTE: Renouncing ownership will leave the contract without an owner, thereby removing any functionality that is only available to the owner."
      },
      "setShifter(address,address)": {
        "params": {
          "_shifterAddress": "The address of the Shifter contract.",
          "_tokenAddress": "The address of the ERC20Shifted token contract."
        }
      },
      "updateShifter(address,address)": {
        "params": {
          "_newShifterAddress": "The updated address of the Shifter contract.",
          "_tokenAddress": "The address of the ERC20Shifted token contract."
        }
      }
    }
  },
  "userdoc": {
    "methods": {
      "getShifterBySymbol(string)": {
        "notice": "Returns the Shifter address for the given ERC20Shifted token         symbol. "
      },
      "getShifterByToken(address)": {
        "notice": "Returns the Shifter address for the given ERC20Shifted token         contract address. "
      },
      "getTokenBySymbol(string)": {
        "notice": "Returns the ERC20Shifted address for the given token symbol. "
      },
      "recoverTokens(address)": {
        "notice": "Allow the owner of the contract to recover funds accidentally sent to the contract. To withdraw ETH, the token should be set to `0x0`."
      },
      "removeShifter(string)": {
        "notice": "Allows the owner to remove the shifter address for a given         ERC20shifter token contract. "
      },
      "setShifter(address,address)": {
        "notice": "Allow the owner to set the shifter address for a given         ERC20Shifted token contract. "
      },
      "updateShifter(address,address)": {
        "notice": "Allow the owner to update the shifter address for a given         ERC20Shifted token contract. "
      }
    },
    "notice": "ShifterRegistry is a mapping from assets to their associated ERC20Shifted and Shifter contracts."
  }
}