{
  "contractName": "ValidateTest",
  "abi": [
    {
      "constant": true,
      "inputs": [
        {
          "internalType": "uint256",
          "name": "_height",
          "type": "uint256"
        },
        {
          "internalType": "uint256",
          "name": "_round",
          "type": "uint256"
        },
        {
          "internalType": "bytes",
          "name": "_blockhash1",
          "type": "bytes"
        },
        {
          "internalType": "uint256",
          "name": "_validRound1",
          "type": "uint256"
        },
        {
          "internalType": "bytes",
          "name": "_signature1",
          "type": "bytes"
        },
        {
          "internalType": "bytes",
          "name": "_blockhash2",
          "type": "bytes"
        },
        {
          "internalType": "uint256",
          "name": "_validRound2",
          "type": "uint256"
        },
        {
          "internalType": "bytes",
          "name": "_signature2",
          "type": "bytes"
        }
      ],
      "name": "duplicatePropose",
      "outputs": [
        {
          "internalType": "address",
          "name": "",
          "type": "address"
        }
      ],
      "payable": false,
      "stateMutability": "pure",
      "type": "function"
    },
    {
      "constant": true,
      "inputs": [
        {
          "internalType": "uint256",
          "name": "_height",
          "type": "uint256"
        },
        {
          "internalType": "uint256",
          "name": "_round",
          "type": "uint256"
        },
        {
          "internalType": "bytes",
          "name": "_blockhash",
          "type": "bytes"
        },
        {
          "internalType": "uint256",
          "name": "_validRound",
          "type": "uint256"
        },
        {
          "internalType": "bytes",
          "name": "_signature",
          "type": "bytes"
        }
      ],
      "name": "recoverPropose",
      "outputs": [
        {
          "internalType": "address",
          "name": "",
          "type": "address"
        }
      ],
      "payable": false,
      "stateMutability": "pure",
      "type": "function"
    },
    {
      "constant": true,
      "inputs": [
        {
          "internalType": "uint256",
          "name": "_height",
          "type": "uint256"
        },
        {
          "internalType": "uint256",
          "name": "_round",
          "type": "uint256"
        },
        {
          "internalType": "bytes",
          "name": "_blockhash1",
          "type": "bytes"
        },
        {
          "internalType": "bytes",
          "name": "_signature1",
          "type": "bytes"
        },
        {
          "internalType": "bytes",
          "name": "_blockhash2",
          "type": "bytes"
        },
        {
          "internalType": "bytes",
          "name": "_signature2",
          "type": "bytes"
        }
      ],
      "name": "duplicatePrevote",
      "outputs": [
        {
          "internalType": "address",
          "name": "",
          "type": "address"
        }
      ],
      "payable": false,
      "stateMutability": "pure",
      "type": "function"
    },
    {
      "constant": true,
      "inputs": [
        {
          "internalType": "uint256",
          "name": "_height",
          "type": "uint256"
        },
        {
          "internalType": "uint256",
          "name": "_round",
          "type": "uint256"
        },
        {
          "internalType": "bytes",
          "name": "_blockhash",
          "type": "bytes"
        },
        {
          "internalType": "bytes",
          "name": "_signature",
          "type": "bytes"
        }
      ],
      "name": "recoverPrevote",
      "outputs": [
        {
          "internalType": "address",
          "name": "",
          "type": "address"
        }
      ],
      "payable": false,
      "stateMutability": "pure",
      "type": "function"
    },
    {
      "constant": true,
      "inputs": [
        {
          "internalType": "uint256",
          "name": "_height",
          "type": "uint256"
        },
        {
          "internalType": "uint256",
          "name": "_round",
          "type": "uint256"
        },
        {
          "internalType": "bytes",
          "name": "_blockhash1",
          "type": "bytes"
        },
        {
          "internalType": "bytes",
          "name": "_signature1",
          "type": "bytes"
        },
        {
          "internalType": "bytes",
          "name": "_blockhash2",
          "type": "bytes"
        },
        {
          "internalType": "bytes",
          "name": "_signature2",
          "type": "bytes"
        }
      ],
      "name": "duplicatePrecommit",
      "outputs": [
        {
          "internalType": "address",
          "name": "",
          "type": "address"
        }
      ],
      "payable": false,
      "stateMutability": "pure",
      "type": "function"
    },
    {
      "constant": true,
      "inputs": [
        {
          "internalType": "uint256",
          "name": "_height",
          "type": "uint256"
        },
        {
          "internalType": "uint256",
          "name": "_round",
          "type": "uint256"
        },
        {
          "internalType": "bytes",
          "name": "_blockhash",
          "type": "bytes"
        },
        {
          "internalType": "bytes",
          "name": "_signature",
          "type": "bytes"
        }
      ],
      "name": "recoverPrecommit",
      "outputs": [
        {
          "internalType": "address",
          "name": "",
          "type": "address"
        }
      ],
      "payable": false,
      "stateMutability": "pure",
      "type": "function"
    },
    {
      "constant": true,
      "inputs": [
        {
          "internalType": "uint256",
          "name": "_height",
          "type": "uint256"
        },
        {
          "internalType": "uint256",
          "name": "_round",
          "type": "uint256"
        },
        {
          "internalType": "bytes",
          "name": "_blockhash",
          "type": "bytes"
        },
        {
          "internalType": "uint256",
          "name": "_validRound",
          "type": "uint256"
        }
      ],
      "name": "proposeMessage",
      "outputs": [
        {
          "internalType": "bytes",
          "name": "",
          "type": "bytes"
        }
      ],
      "payable": false,
      "stateMutability": "pure",
      "type": "function"
    },
    {
      "constant": true,
      "inputs": [
        {
          "internalType": "uint256",
          "name": "_height",
          "type": "uint256"
        },
        {
          "internalType": "uint256",
          "name": "_round",
          "type": "uint256"
        },
        {
          "internalType": "bytes",
          "name": "_blockhash",
          "type": "bytes"
        }
      ],
      "name": "prevoteMessage",
      "outputs": [
        {
          "internalType": "bytes",
          "name": "",
          "type": "bytes"
        }
      ],
      "payable": false,
      "stateMutability": "pure",
      "type": "function"
    },
    {
      "constant": true,
      "inputs": [
        {
          "internalType": "uint256",
          "name": "_height",
          "type": "uint256"
        },
        {
          "internalType": "uint256",
          "name": "_round",
          "type": "uint256"
        },
        {
          "internalType": "bytes",
          "name": "_blockhash",
          "type": "bytes"
        }
      ],
      "name": "precommitMessage",
      "outputs": [
        {
          "internalType": "bytes",
          "name": "",
          "type": "bytes"
        }
      ],
      "payable": false,
      "stateMutability": "pure",
      "type": "function"
    },
    {
      "constant": true,
      "inputs": [
        {
          "internalType": "uint256",
          "name": "_a",
          "type": "uint256"
        },
        {
          "internalType": "uint256",
          "name": "_b",
          "type": "uint256"
        },
        {
          "internalType": "uint256",
          "name": "_c",
          "type": "uint256"
        },
        {
          "internalType": "uint256",
          "name": "_d",
          "type": "uint256"
        },
        {
          "internalType": "uint256",
          "name": "_e",
          "type": "uint256"
        },
        {
          "internalType": "uint256",
          "name": "_f",
          "type": "uint256"
        },
        {
          "internalType": "bytes",
          "name": "_signature",
          "type": "bytes"
        }
      ],
      "name": "recoverSecret",
      "outputs": [
        {
          "internalType": "address",
          "name": "",
          "type": "address"
        }
      ],
      "payable": false,
      "stateMutability": "pure",
      "type": "function"
    },
    {
      "constant": true,
      "inputs": [
        {
          "internalType": "uint256",
          "name": "_a",
          "type": "uint256"
        },
        {
          "internalType": "uint256",
          "name": "_b",
          "type": "uint256"
        },
        {
          "internalType": "uint256",
          "name": "_c",
          "type": "uint256"
        },
        {
          "internalType": "uint256",
          "name": "_d",
          "type": "uint256"
        },
        {
          "internalType": "uint256",
          "name": "_e",
          "type": "uint256"
        },
        {
          "internalType": "uint256",
          "name": "_f",
          "type": "uint256"
        }
      ],
      "name": "secretMessage",
      "outputs": [
        {
          "internalType": "bytes",
          "name": "",
          "type": "bytes"
        }
      ],
      "payable": false,
      "stateMutability": "pure",
      "type": "function"
    }
  ],
  "bytecode": "0x608060405234801561001057600080fd5b506129e5806100206000396000f3fe608060405234801561001057600080fd5b50600436106100a95760003560e01c8063494a705311610071578063494a7053146109c357806373086a0c14610b695780638d50ab0014610e3d578063a06a32d214610fed578063c03dc5aa14611135578063c44b69b914611287576100a9565b80631fbb7f65146100ae5780632691a5201461038257806335566ba7146104b95780633e17f938146107a25780634837a89d1461087b575b600080fd5b610340600480360360c08110156100c457600080fd5b810190808035906020019092919080359060200190929190803590602001906401000000008111156100f557600080fd5b82018360208201111561010757600080fd5b8035906020019184600183028401116401000000008311171561012957600080fd5b91908080601f016020809104026020016040519081016040528093929190818152602001838380828437600081840152601f19601f8201169050808301925050505050505091929192908035906020019064010000000081111561018c57600080fd5b82018360208201111561019e57600080fd5b803590602001918460018302840111640100000000831117156101c057600080fd5b91908080601f016020809104026020016040519081016040528093929190818152602001838380828437600081840152601f19601f8201169050808301925050505050505091929192908035906020019064010000000081111561022357600080fd5b82018360208201111561023557600080fd5b8035906020019184600183028401116401000000008311171561025757600080fd5b91908080601f016020809104026020016040519081016040528093929190818152602001838380828437600081840152601f19601f820116905080830192505050505050509192919290803590602001906401000000008111156102ba57600080fd5b8201836020820111156102cc57600080fd5b803590602001918460018302840111640100000000831117156102ee57600080fd5b91908080601f016020809104026020016040519081016040528093929190818152602001838380828437600081840152601f19601f82011690508083019250505050505050919291929050505061142d565b604051808273ffffffffffffffffffffffffffffffffffffffff1673ffffffffffffffffffffffffffffffffffffffff16815260200191505060405180910390f35b610477600480360360e081101561039857600080fd5b81019080803590602001909291908035906020019092919080359060200190929190803590602001909291908035906020019092919080359060200190929190803590602001906401000000008111156103f157600080fd5b82018360208201111561040357600080fd5b8035906020019184600183028401116401000000008311171561042557600080fd5b91908080601f016020809104026020016040519081016040528093929190818152602001838380828437600081840152601f19601f820116905080830192505050505050509192919290505050611449565b604051808273ffffffffffffffffffffffffffffffffffffffff1673ffffffffffffffffffffffffffffffffffffffff16815260200191505060405180910390f35b61076060048036036101008110156104d057600080fd5b8101908080359060200190929190803590602001909291908035906020019064010000000081111561050157600080fd5b82018360208201111561051357600080fd5b8035906020019184600183028401116401000000008311171561053557600080fd5b91908080601f016020809104026020016040519081016040528093929190818152602001838380828437600081840152601f19601f82011690508083019250505050505050919291929080359060200190929190803590602001906401000000008111156105a257600080fd5b8201836020820111156105b457600080fd5b803590602001918460018302840111640100000000831117156105d657600080fd5b91908080601f016020809104026020016040519081016040528093929190818152602001838380828437600081840152601f19601f8201169050808301925050505050505091929192908035906020019064010000000081111561063957600080fd5b82018360208201111561064b57600080fd5b8035906020019184600183028401116401000000008311171561066d57600080fd5b91908080601f016020809104026020016040519081016040528093929190818152602001838380828437600081840152601f19601f82011690508083019250505050505050919291929080359060200190929190803590602001906401000000008111156106da57600080fd5b8201836020820111156106ec57600080fd5b8035906020019184600183028401116401000000008311171561070e57600080fd5b91908080601f016020809104026020016040519081016040528093929190818152602001838380828437600081840152601f19601f820116905080830192505050505050509192919290505050611467565b604051808273ffffffffffffffffffffffffffffffffffffffff1673ffffffffffffffffffffffffffffffffffffffff16815260200191505060405180910390f35b610800600480360360c08110156107b857600080fd5b81019080803590602001909291908035906020019092919080359060200190929190803590602001909291908035906020019092919080359060200190929190505050611487565b6040518080602001828103825283818151815260200191508051906020019080838360005b83811015610840578082015181840152602081019050610825565b50505050905090810190601f16801561086d5780820380516001836020036101000a031916815260200191505b509250505060405180910390f35b6109486004803603606081101561089157600080fd5b810190808035906020019092919080359060200190929190803590602001906401000000008111156108c257600080fd5b8201836020820111156108d457600080fd5b803590602001918460018302840111640100000000831117156108f657600080fd5b91908080601f016020809104026020016040519081016040528093929190818152602001838380828437600081840152601f19601f8201169050808301925050505050505091929192905050506114a3565b6040518080602001828103825283818151815260200191508051906020019080838360005b8381101561098857808201518184015260208101905061096d565b50505050905090810190601f1680156109b55780820380516001836020036101000a031916815260200191505b509250505060405180910390f35b610b27600480360360808110156109d957600080fd5b81019080803590602001909291908035906020019092919080359060200190640100000000811115610a0a57600080fd5b820183602082011115610a1c57600080fd5b80359060200191846001830284011164010000000083111715610a3e57600080fd5b91908080601f016020809104026020016040519081016040528093929190818152602001838380828437600081840152601f19601f82011690508083019250505050505050919291929080359060200190640100000000811115610aa157600080fd5b820183602082011115610ab357600080fd5b80359060200191846001830284011164010000000083111715610ad557600080fd5b91908080601f016020809104026020016040519081016040528093929190818152602001838380828437600081840152601f19601f8201169050808301925050505050505091929192905050506114b9565b604051808273ffffffffffffffffffffffffffffffffffffffff1673ffffffffffffffffffffffffffffffffffffffff16815260200191505060405180910390f35b610dfb600480360360c0811015610b7f57600080fd5b81019080803590602001909291908035906020019092919080359060200190640100000000811115610bb057600080fd5b820183602082011115610bc257600080fd5b80359060200191846001830284011164010000000083111715610be457600080fd5b91908080601f016020809104026020016040519081016040528093929190818152602001838380828437600081840152601f19601f82011690508083019250505050505050919291929080359060200190640100000000811115610c4757600080fd5b820183602082011115610c5957600080fd5b80359060200191846001830284011164010000000083111715610c7b57600080fd5b91908080601f016020809104026020016040519081016040528093929190818152602001838380828437600081840152601f19601f82011690508083019250505050505050919291929080359060200190640100000000811115610cde57600080fd5b820183602082011115610cf057600080fd5b80359060200191846001830284011164010000000083111715610d1257600080fd5b91908080601f016020809104026020016040519081016040528093929190818152602001838380828437600081840152601f19601f82011690508083019250505050505050919291929080359060200190640100000000811115610d7557600080fd5b820183602082011115610d8757600080fd5b80359060200191846001830284011164010000000083111715610da957600080fd5b91908080601f016020809104026020016040519081016040528093929190818152602001838380828437600081840152601f19601f8201169050808301925050505050505091929192905050506114d1565b604051808273ffffffffffffffffffffffffffffffffffffffff1673ffffffffffffffffffffffffffffffffffffffff16815260200191505060405180910390f35b610fab600480360360a0811015610e5357600080fd5b81019080803590602001909291908035906020019092919080359060200190640100000000811115610e8457600080fd5b820183602082011115610e9657600080fd5b80359060200191846001830284011164010000000083111715610eb857600080fd5b91908080601f016020809104026020016040519081016040528093929190818152602001838380828437600081840152601f19601f8201169050808301925050505050505091929192908035906020019092919080359060200190640100000000811115610f2557600080fd5b820183602082011115610f3757600080fd5b80359060200191846001830284011164010000000083111715610f5957600080fd5b91908080601f016020809104026020016040519081016040528093929190818152602001838380828437600081840152601f19601f8201169050808301925050505050505091929192905050506114ed565b604051808273ffffffffffffffffffffffffffffffffffffffff1673ffffffffffffffffffffffffffffffffffffffff16815260200191505060405180910390f35b6110ba6004803603606081101561100357600080fd5b8101908080359060200190929190803590602001909291908035906020019064010000000081111561103457600080fd5b82018360208201111561104657600080fd5b8035906020019184600183028401116401000000008311171561106857600080fd5b91908080601f016020809104026020016040519081016040528093929190818152602001838380828437600081840152601f19601f820116905080830192505050505050509192919290505050611507565b6040518080602001828103825283818151815260200191508051906020019080838360005b838110156110fa5780820151818401526020810190506110df565b50505050905090810190601f1680156111275780820380516001836020036101000a031916815260200191505b509250505060405180910390f35b61120c6004803603608081101561114b57600080fd5b8101908080359060200190929190803590602001909291908035906020019064010000000081111561117c57600080fd5b82018360208201111561118e57600080fd5b803590602001918460018302840111640100000000831117156111b057600080fd5b91908080601f016020809104026020016040519081016040528093929190818152602001838380828437600081840152601f19601f8201169050808301925050505050505091929192908035906020019092919050505061151d565b6040518080602001828103825283818151815260200191508051906020019080838360005b8381101561124c578082015181840152602081019050611231565b50505050905090810190601f1680156112795780820380516001836020036101000a031916815260200191505b509250505060405180910390f35b6113eb6004803603608081101561129d57600080fd5b810190808035906020019092919080359060200190929190803590602001906401000000008111156112ce57600080fd5b8201836020820111156112e057600080fd5b8035906020019184600183028401116401000000008311171561130257600080fd5b91908080601f016020809104026020016040519081016040528093929190818152602001838380828437600081840152601f19601f8201169050808301925050505050505091929192908035906020019064010000000081111561136557600080fd5b82018360208201111561137757600080fd5b8035906020019184600183028401116401000000008311171561139957600080fd5b91908080601f016020809104026020016040519081016040528093929190818152602001838380828437600081840152601f19601f820116905080830192505050505050509192919290505050611535565b604051808273ffffffffffffffffffffffffffffffffffffffff1673ffffffffffffffffffffffffffffffffffffffff16815260200191505060405180910390f35b600061143d87878787878761154d565b90509695505050505050565b600061145a8888888888888861169c565b9050979650505050505050565b6000611479898989898989898961175f565b905098975050505050505050565b60606114978787878787876118b2565b90509695505050505050565b60606114b0848484611d52565b90509392505050565b60006114c785858585611f1e565b9050949350505050565b60006114e1878787878787611fdb565b90509695505050505050565b60006114fc868686868661212a565b905095945050505050565b60606115148484846121e9565b90509392505050565b606061152b858585856123b5565b9050949350505050565b600061154385858585612605565b9050949350505050565b600061155984836126c2565b156115cc576040517f08c379a00000000000000000000000000000000000000000000000000000000081526004018080602001828103825260188152602001807f56616c69646174653a2073616d65207369676e6174757265000000000000000081525060200191505060405180910390fd5b60006115da88888888612605565b905060006115ea89898787612605565b90508073ffffffffffffffffffffffffffffffffffffffff168273ffffffffffffffffffffffffffffffffffffffff161461168d576040517f08c379a000000000000000000000000000000000000000000000000000000000815260040180806020018281038252601a8152602001807f56616c69646174653a20646966666572656e74207369676e657200000000000081525060200191505060405180910390fd5b81925050509695505050505050565b600061175260026116b18a8a8a8a8a8a6118b2565b6040518082805190602001908083835b602083106116e457805182526020820191506020810190506020830392506116c1565b6001836020036101000a038019825116818451168082178552505050505050905001915050602060405180830381855afa158015611726573d6000803e3d6000fd5b5050506040513d602081101561173b57600080fd5b81019080805190602001909291905050508361277f565b9050979650505050505050565b600061176b85836126c2565b156117de576040517f08c379a00000000000000000000000000000000000000000000000000000000081526004018080602001828103825260188152602001807f56616c69646174653a2073616d65207369676e6174757265000000000000000081525060200191505060405180910390fd5b60006117ed8a8a8a8a8a61212a565b905060006117fe8b8b88888861212a565b90508073ffffffffffffffffffffffffffffffffffffffff168273ffffffffffffffffffffffffffffffffffffffff16146118a1576040517f08c379a000000000000000000000000000000000000000000000000000000000815260040180806020018281038252601a8152602001807f56616c69646174653a20646966666572656e74207369676e657200000000000081525060200191505060405180910390fd5b819250505098975050505050505050565b60606118bd87612883565b6118c687612883565b6118cf87612883565b6118d887612883565b6118e187612883565b6118ea87612883565b60405160200180807f5365637265742800000000000000000000000000000000000000000000000000815250600701807f5368616d69725368617265280000000000000000000000000000000000000000815250600c0187805190602001908083835b60208310611970578051825260208201915060208101905060208303925061194d565b6001836020036101000a038019825116818451168082178552505050505050905001807f2c0000000000000000000000000000000000000000000000000000000000000081525060010186805190602001908083835b602083106119e957805182526020820191506020810190506020830392506119c6565b6001836020036101000a038019825116818451168082178552505050505050905001807f2c533235364e280000000000000000000000000000000000000000000000000081525060070185805190602001908083835b60208310611a625780518252602082019150602081019050602083039250611a3f565b6001836020036101000a038019825116818451168082178552505050505050905001807f292c000000000000000000000000000000000000000000000000000000000000815250600201807f53323536507269764b6579280000000000000000000000000000000000000000815250600c01807f533235364e28000000000000000000000000000000000000000000000000000081525060060184805190602001908083835b60208310611b2b5780518252602082019150602081019050602083039250611b08565b6001836020036101000a038019825116818451168082178552505050505050905001807f292c000000000000000000000000000000000000000000000000000000000000815250600201807f533235365028000000000000000000000000000000000000000000000000000081525060060183805190602001908083835b60208310611bcc5780518252602082019150602081019050602083039250611ba9565b6001836020036101000a038019825116818451168082178552505050505050905001807f292c000000000000000000000000000000000000000000000000000000000000815250600201807f533235365028000000000000000000000000000000000000000000000000000081525060060182805190602001908083835b60208310611c6d5780518252602082019150602081019050602083039250611c4a565b6001836020036101000a038019825116818451168082178552505050505050905001807f2900000000000000000000000000000000000000000000000000000000000000815250600101807f2900000000000000000000000000000000000000000000000000000000000000815250600101807f2900000000000000000000000000000000000000000000000000000000000000815250600101807f2900000000000000000000000000000000000000000000000000000000000000815250600101965050505050505060405160208183030381529060405290509695505050505050565b6060611d5d84612883565b611d6684612883565b8360405160200180807f507265636f6d6d6974284865696768743d00000000000000000000000000000081525060110184805190602001908083835b60208310611dc55780518252602082019150602081019050602083039250611da2565b6001836020036101000a038019825116818451168082178552505050505050905001807f2c526f756e643d0000000000000000000000000000000000000000000000000081525060070183805190602001908083835b60208310611e3e5780518252602082019150602081019050602083039250611e1b565b6001836020036101000a038019825116818451168082178552505050505050905001807f2c426c6f636b486173683d000000000000000000000000000000000000000000815250600b0182805190602001908083835b60208310611eb75780518252602082019150602081019050602083039250611e94565b6001836020036101000a038019825116818451168082178552505050505050905001807f2900000000000000000000000000000000000000000000000000000000000000815250600101935050505060405160208183030381529060405290509392505050565b6000611fd16002611f308787876121e9565b6040518082805190602001908083835b60208310611f635780518252602082019150602081019050602083039250611f40565b6001836020036101000a038019825116818451168082178552505050505050905001915050602060405180830381855afa158015611fa5573d6000803e3d6000fd5b5050506040513d6020811015611fba57600080fd5b81019080805190602001909291905050508361277f565b9050949350505050565b6000611fe784836126c2565b1561205a576040517f08c379a00000000000000000000000000000000000000000000000000000000081526004018080602001828103825260188152602001807f56616c69646174653a2073616d65207369676e6174757265000000000000000081525060200191505060405180910390fd5b600061206888888888611f1e565b9050600061207889898787611f1e565b90508073ffffffffffffffffffffffffffffffffffffffff168273ffffffffffffffffffffffffffffffffffffffff161461211b576040517f08c379a000000000000000000000000000000000000000000000000000000000815260040180806020018281038252601a8152602001807f56616c69646174653a20646966666572656e74207369676e657200000000000081525060200191505060405180910390fd5b81925050509695505050505050565b60006121de600261213d888888886123b5565b6040518082805190602001908083835b60208310612170578051825260208201915060208101905060208303925061214d565b6001836020036101000a038019825116818451168082178552505050505050905001915050602060405180830381855afa1580156121b2573d6000803e3d6000fd5b5050506040513d60208110156121c757600080fd5b81019080805190602001909291905050508361277f565b905095945050505050565b60606121f484612883565b6121fd84612883565b8360405160200180807f507265766f7465284865696768743d0000000000000000000000000000000000815250600f0184805190602001908083835b6020831061225c5780518252602082019150602081019050602083039250612239565b6001836020036101000a038019825116818451168082178552505050505050905001807f2c526f756e643d0000000000000000000000000000000000000000000000000081525060070183805190602001908083835b602083106122d557805182526020820191506020810190506020830392506122b2565b6001836020036101000a038019825116818451168082178552505050505050905001807f2c426c6f636b486173683d000000000000000000000000000000000000000000815250600b0182805190602001908083835b6020831061234e578051825260208201915060208101905060208303925061232b565b6001836020036101000a038019825116818451168082178552505050505050905001807f2900000000000000000000000000000000000000000000000000000000000000815250600101935050505060405160208183030381529060405290509392505050565b60606123c085612883565b6123c985612883565b846123d385612883565b60405160200180807f50726f706f7365284865696768743d0000000000000000000000000000000000815250600f0185805190602001908083835b60208310612431578051825260208201915060208101905060208303925061240e565b6001836020036101000a038019825116818451168082178552505050505050905001807f2c526f756e643d0000000000000000000000000000000000000000000000000081525060070184805190602001908083835b602083106124aa5780518252602082019150602081019050602083039250612487565b6001836020036101000a038019825116818451168082178552505050505050905001807f2c426c6f636b486173683d000000000000000000000000000000000000000000815250600b0183805190602001908083835b602083106125235780518252602082019150602081019050602083039250612500565b6001836020036101000a038019825116818451168082178552505050505050905001807f2c56616c6964526f756e643d0000000000000000000000000000000000000000815250600c0182805190602001908083835b6020831061259c5780518252602082019150602081019050602083039250612579565b6001836020036101000a038019825116818451168082178552505050505050905001807f29000000000000000000000000000000000000000000000000000000000000008152506001019450505050506040516020818303038152906040529050949350505050565b60006126b86002612617878787611d52565b6040518082805190602001908083835b6020831061264a5780518252602082019150602081019050602083039250612627565b6001836020036101000a038019825116818451168082178552505050505050905001915050602060405180830381855afa15801561268c573d6000803e3d6000fd5b5050506040513d60208110156126a157600080fd5b81019080805190602001909291905050508361277f565b9050949350505050565b600081518351146126d65760009050612779565b60008090505b8351811015612773578281815181106126f157fe5b602001015160f81c60f81b7effffffffffffffffffffffffffffffffffffffffffffffffffffffffffffff191684828151811061272a57fe5b602001015160f81c60f81b7effffffffffffffffffffffffffffffffffffffffffffffffffffffffffffff191614612766576000915050612779565b80806001019150506126dc565b50600190505b92915050565b60006041825114612793576000905061287d565b60008060006020850151925060408501519150606085015160001a90507f7fffffffffffffffffffffffffffffff5d576e7357a4501ddfe92f46681b20a08260001c11156127e7576000935050505061287d565b601b8160ff16141580156127ff5750601c8160ff1614155b15612810576000935050505061287d565b60018682858560405160008152602001604052604051808581526020018460ff1660ff1681526020018381526020018281526020019450505050506020604051602081039080840390855afa15801561286d573d6000803e3d6000fd5b5050506020604051035193505050505b92915050565b606060008214156128cb576040518060400160405280600181526020017f300000000000000000000000000000000000000000000000000000000000000081525090506129ab565b600082905060005b600082146128f5578080600101915050600a82816128ed57fe5b0491506128d3565b6060816040519080825280601f01601f19166020018201604052801561292a5781602001600182028038833980820191505090505b50905060006001830390505b600086146129a357600a868161294857fe5b0660300160f81b8282806001900393508151811061296257fe5b60200101907effffffffffffffffffffffffffffffffffffffffffffffffffffffffffffff1916908160001a905350600a868161299b57fe5b049550612936565b819450505050505b91905056fea265627a7a72315820e478656201c4887648e3761189fe4fce36b4acf37628e81d48b194bbf69e076864736f6c634300050c0032",
  "source": "pragma solidity 0.5.12;\n\nimport \"../libraries/Validate.sol\";\n\n/// @notice Validate is a library for validating malicious darknode behaviour.\ncontract ValidateTest {\n\n    function duplicatePropose(\n        uint256 _height,\n        uint256 _round,\n        bytes memory _blockhash1,\n        uint256 _validRound1,\n        bytes memory _signature1,\n        bytes memory _blockhash2,\n        uint256 _validRound2,\n        bytes memory _signature2\n    ) public pure returns (address) {\n        return Validate.duplicatePropose(\n            _height,\n            _round,\n            _blockhash1,\n            _validRound1,\n            _signature1,\n            _blockhash2,\n            _validRound2,\n            _signature2\n        );\n    }\n\n    function recoverPropose(\n        uint256 _height,\n        uint256 _round,\n        bytes memory _blockhash,\n        uint256 _validRound,\n        bytes memory _signature\n    ) public pure returns (address) {\n        return Validate.recoverPropose(\n            _height,\n            _round,\n            _blockhash,\n            _validRound,\n            _signature\n        );\n    }\n\n    function duplicatePrevote(\n        uint256 _height,\n        uint256 _round,\n        bytes memory _blockhash1,\n        bytes memory _signature1,\n        bytes memory _blockhash2,\n        bytes memory _signature2\n    ) public pure returns (address) {\n        return Validate.duplicatePrevote(\n            _height,\n            _round,\n            _blockhash1,\n            _signature1,\n            _blockhash2,\n            _signature2\n        );\n    }\n\n    function recoverPrevote(\n        uint256 _height,\n        uint256 _round,\n        bytes memory _blockhash,\n        bytes memory _signature\n    ) public pure returns (address) {\n        return Validate.recoverPrevote(\n            _height,\n            _round,\n            _blockhash,\n            _signature\n        );\n    }\n\n    function duplicatePrecommit(\n        uint256 _height,\n        uint256 _round,\n        bytes memory _blockhash1,\n        bytes memory _signature1,\n        bytes memory _blockhash2,\n        bytes memory _signature2\n    ) public pure returns (address) {\n        return Validate.duplicatePrecommit(\n            _height,\n            _round,\n            _blockhash1,\n            _signature1,\n            _blockhash2,\n            _signature2\n        );\n    }\n\n    function recoverPrecommit(\n        uint256 _height,\n        uint256 _round,\n        bytes memory _blockhash,\n        bytes memory _signature\n    ) public pure returns (address) {\n        return Validate.recoverPrecommit(\n            _height,\n            _round,\n            _blockhash,\n            _signature\n        );\n    }\n\n    function proposeMessage(\n        uint256 _height,\n        uint256 _round,\n        bytes memory _blockhash,\n        uint256 _validRound\n    ) public pure returns (bytes memory) {\n        return Validate.proposeMessage(\n            _height,\n            _round,\n            _blockhash,\n            _validRound\n        );\n    }\n\n    function prevoteMessage(\n        uint256 _height,\n        uint256 _round,\n        bytes memory _blockhash\n    ) public pure returns (bytes memory) {\n        return Validate.prevoteMessage(\n            _height,\n            _round,\n            _blockhash\n        );\n    }\n\n    function precommitMessage(\n        uint256 _height,\n        uint256 _round,\n        bytes memory _blockhash\n    ) public pure returns (bytes memory) {\n        return Validate.precommitMessage(\n            _height,\n            _round,\n            _blockhash\n        );\n    }\n\n    function recoverSecret(\n        uint256 _a,\n        uint256 _b,\n        uint256 _c,\n        uint256 _d,\n        uint256 _e,\n        uint256 _f,\n        bytes memory _signature\n    ) public pure returns (address) {\n        return Validate.recoverSecret(\n            _a,\n            _b,\n            _c,\n            _d,\n            _e,\n            _f,\n            _signature\n        );\n    }\n\n    function secretMessage(\n        uint256 _a,\n        uint256 _b,\n        uint256 _c,\n        uint256 _d,\n        uint256 _e,\n        uint256 _f\n    ) public pure returns (bytes memory) {\n        return Validate.secretMessage(\n            _a,\n            _b,\n            _c,\n            _d,\n            _e,\n            _f\n        );\n    }\n}\n",
  "sourcePath": "/home/ray/0confirmation-mono/node_modules/darknode-sol/contracts/test/ValidateTest.sol",
  "compiler": {
    "name": "solc",
    "version": "0.5.12+commit.7709ece9.Linux.g++"
  },
  "schemaVersion": "3.0.23",
  "updatedAt": "2020-02-27T23:36:07.451Z",
  "devdoc": {
    "methods": {}
  },
  "userdoc": {
    "methods": {},
    "notice": "Validate is a library for validating malicious darknode behaviour."
  }
}