{
  "contractName": "ShifterPool",
  "abi": [
    {
      "inputs": [
        {
          "internalType": "address",
          "name": "shifterRegistry",
          "type": "address"
        },
        {
          "internalType": "uint256",
          "name": "poolFee",
          "type": "uint256"
        }
      ],
      "stateMutability": "nonpayable",
      "type": "constructor"
    },
    {
      "inputs": [
        {
          "internalType": "address",
          "name": "token",
          "type": "address"
        },
        {
          "components": [
            {
              "internalType": "bytes32",
              "name": "pHash",
              "type": "bytes32"
            },
            {
              "internalType": "uint256",
              "name": "amount",
              "type": "uint256"
            },
            {
              "internalType": "bytes32",
              "name": "nHash",
              "type": "bytes32"
            }
          ],
          "internalType": "struct RenVMShiftMessageLib.RenVMShiftMessage",
          "name": "shiftMessage",
          "type": "tuple"
        },
        {
          "components": [
            {
              "internalType": "uint256",
              "name": "amount",
              "type": "uint256"
            },
            {
              "internalType": "uint256",
              "name": "nonce",
              "type": "uint256"
            },
            {
              "internalType": "uint256",
              "name": "keeperFee",
              "type": "uint256"
            },
            {
              "internalType": "uint256",
              "name": "poolFee",
              "type": "uint256"
            },
            {
              "internalType": "uint256",
              "name": "timeoutExpiry",
              "type": "uint256"
            },
            {
              "internalType": "bytes",
              "name": "signature",
              "type": "bytes"
            }
          ],
          "internalType": "struct ShifterPoolLib.LiquidityProvisionMessage",
          "name": "liquidityProvision",
          "type": "tuple"
        }
      ],
      "name": "borrow",
      "outputs": [],
      "stateMutability": "nonpayable",
      "type": "function"
    },
    {
      "inputs": [
        {
          "internalType": "bytes",
          "name": "proxyRecord",
          "type": "bytes"
        }
      ],
      "name": "validateProxyRecordHandler",
      "outputs": [
        {
          "internalType": "bool",
          "name": "",
          "type": "bool"
        }
      ],
      "stateMutability": "view",
      "type": "function"
    },
    {
      "inputs": [],
      "name": "getProxyOwnerHandler",
      "outputs": [
        {
          "internalType": "address",
          "name": "",
          "type": "address"
        }
      ],
      "stateMutability": "view",
      "type": "function"
    },
    {
      "inputs": [
        {
          "internalType": "address",
          "name": "token",
          "type": "address"
        }
      ],
      "name": "getShifterHandler",
      "outputs": [
        {
          "internalType": "contract IShifter",
          "name": "",
          "type": "address"
        }
      ],
      "stateMutability": "view",
      "type": "function"
    },
    {
      "inputs": [
        {
          "internalType": "address",
          "name": "token",
          "type": "address"
        }
      ],
      "name": "getLiquidityTokenHandler",
      "outputs": [
        {
          "internalType": "contract LiquidityToken",
          "name": "",
          "type": "address"
        }
      ],
      "stateMutability": "view",
      "type": "function"
    },
    {
      "inputs": [
        {
          "internalType": "address",
          "name": "liquidityToken",
          "type": "address"
        }
      ],
      "name": "relayResolveLoan",
      "outputs": [
        {
          "internalType": "bool",
          "name": "",
          "type": "bool"
        }
      ],
      "stateMutability": "nonpayable",
      "type": "function"
    }
  ],
  "bytecode": "0x60806040523480156200001157600080fd5b5060405162002f5238038062002f528339818101604052620000379190810190620000ba565b816000800160006101000a81548173ffffffffffffffffffffffffffffffffffffffff021916908373ffffffffffffffffffffffffffffffffffffffff1602179055508060006001018190555050506200016d565b6000815190506200009d8162000139565b92915050565b600081519050620000b48162000153565b92915050565b60008060408385031215620000ce57600080fd5b6000620000de858286016200008c565b9250506020620000f185828601620000a3565b9150509250929050565b600062000108826200010f565b9050919050565b600073ffffffffffffffffffffffffffffffffffffffff82169050919050565b6000819050919050565b6200014481620000fb565b81146200015057600080fd5b50565b6200015e816200012f565b81146200016a57600080fd5b50565b612dd5806200017d6000396000f3fe60806040523480156200001157600080fd5b50600436106200006a5760003560e01c80630290af5d146200006f57806308f6049514620000a55780631fbc78dc14620000db57806332395f341462000111578063798aada014620001315780637b3b00be1462000167575b600080fd5b6200008d60048036036200008791908101906200138a565b62000189565b6040516200009c919062001ab9565b60405180910390f35b620000c36004803603620000bd919081019062001451565b620002bd565b604051620000d2919062001ab9565b60405180910390f35b620000f96004803603620000f391908101906200138a565b620002e1565b60405162000108919062001b47565b60405180910390f35b6200012f6004803603620001299190810190620013b6565b62000300565b005b6200014f60048036036200014991908101906200138a565b6200068f565b6040516200015e919062001b64565b60405180910390f35b62000171620006ae565b60405162000180919062001a52565b60405180910390f35b60008060001b600060050160000160003373ffffffffffffffffffffffffffffffffffffffff1673ffffffffffffffffffffffffffffffffffffffff16815260200190815260200160002054141562000219576040517f08c379a0000000000000000000000000000000000000000000000000000000008152600401620002109062001c0b565b60405180910390fd5b8173ffffffffffffffffffffffffffffffffffffffff1663c3275c79336040518263ffffffff1660e01b815260040162000254919062001a6f565b602060405180830381600087803b1580156200026f57600080fd5b505af115801562000284573d6000803e3d6000fd5b505050506040513d601f19601f82011682018060405250620002aa919081019062001425565b620002b457600080fd5b60019050919050565b6000620002da33836000600501620006ce9092919063ffffffff16565b9050919050565b6000620002f98260006200072490919063ffffffff16565b9050919050565b600062000319843385620007e19092919063ffffffff16565b90506000620003288262000829565b9050620003438160006005016200090b90919063ffffffff16565b1562000386576040517f08c379a00000000000000000000000000000000000000000000000000000000081526004016200037d9062001bc7565b60405180910390fd5b6200039062001033565b6200039a62001071565b60405180608001604052808873ffffffffffffffffffffffffffffffffffffffff168152602001866080015181526020018781526020018381525090506000620003ee85876200095d90919063ffffffff16565b905062000406816000620009a290919063ffffffff16565b62000448576040517f08c379a00000000000000000000000000000000000000000000000000000000081526004016200043f9062001c2d565b60405180910390fd5b6000620004638760a0015183620009cf90919063ffffffff16565b90506040518060800160405280886000015181526020018273ffffffffffffffffffffffffffffffffffffffff168152602001600060010154815260200188604001518152508360600181905250620004c7896000620009e590919063ffffffff16565b73ffffffffffffffffffffffffffffffffffffffff1663185cc75186620004f2866060015162000ac9565b6040518363ffffffff1660e01b81526004016200051192919062001a8c565b602060405180830381600087803b1580156200052c57600080fd5b505af115801562000541573d6000803e3d6000fd5b505050506040513d601f19601f8201168201806040525062000567919081019062001425565b620005a9576040517f08c379a0000000000000000000000000000000000000000000000000000000008152600401620005a09062001be9565b60405180910390fd5b620005bf82600062000b1390919063ffffffff16565b50606083604051602001620005d5919062001c93565b6040516020818303038152906040529050620006018682600060050162000b4d9092919063ffffffff16565b6200061c8633600060050162000b9f9092919063ffffffff16565b8573ffffffffffffffffffffffffffffffffffffffff163373ffffffffffffffffffffffffffffffffffffffff167f9ae84ac2ad8f721c2e62d211eca0ae34951726f8834913af6c5ebb81610bb1f8836040516200067b919062001b23565b60405180910390a350505050505050505050565b6000620006a7826000620009e590919063ffffffff16565b9050919050565b6000620006c933600060050162000c2490919063ffffffff16565b905090565b600081805190602001208460000160008573ffffffffffffffffffffffffffffffffffffffff1673ffffffffffffffffffffffffffffffffffffffff168152602001908152602001600020541490509392505050565b60008260000160009054906101000a900473ffffffffffffffffffffffffffffffffffffffff1673ffffffffffffffffffffffffffffffffffffffff166328c4f410836040518263ffffffff1660e01b815260040162000785919062001a52565b60206040518083038186803b1580156200079e57600080fd5b505afa158015620007b3573d6000803e3d6000fd5b505050506040513d601f19601f82011682018060405250620007d9919081019062001496565b905092915050565b600082828560000151866020015187604001516040516020016200080a95949392919062001993565b6040516020818303038152906040528051906020012090509392505050565b6000606060156040519080825280601f01601f191660200182016040528015620008625781602001600182028036833780820191505090505b5090506060604051806020016200087990620010bf565b6020820181038252601f19601f82011660405250905060008151905060ff60f81b83600081518110620008a857fe5b60200101907effffffffffffffffffffffffffffffffffffffffffffffffffffffffffffff1916908160001a905350606085835230602084035260ff6021840353603583039050603582018152808051906020012060001c945050505050919050565b60008060001b8360000160008473ffffffffffffffffffffffffffffffffffffffff1673ffffffffffffffffffffffffffffffffffffffff168152602001908152602001600020541415905092915050565b600082600001518360800151846020015184604051602001620009849493929190620019fc565b60405160208183030381529060405280519060200120905092915050565b600082600301600083815260200190815260200160002060009054906101000a900460ff16905092915050565b6000620009dd838362000c90565b905092915050565b6000808360040160008473ffffffffffffffffffffffffffffffffffffffff1673ffffffffffffffffffffffffffffffffffffffff16815260200190815260200160002060009054906101000a900473ffffffffffffffffffffffffffffffffffffffff169050600073ffffffffffffffffffffffffffffffffffffffff168173ffffffffffffffffffffffffffffffffffffffff16141562000abf576040517f08c379a000000000000000000000000000000000000000000000000000000000815260040162000ab69062001c71565b60405180910390fd5b8091505092915050565b600062000b0c62000af862000ade8462000d86565b62000ae98562000dc8565b62000e0a90919063ffffffff16565b836000015162000e6290919063ffffffff16565b9050919050565b6000600183600301600084815260200190815260200160002060006101000a81548160ff0219169083151502179055506001905092915050565b80805190602001208360000160008473ffffffffffffffffffffffffffffffffffffffff1673ffffffffffffffffffffffffffffffffffffffff16815260200190815260200160002081905550505050565b808360010160008473ffffffffffffffffffffffffffffffffffffffff1673ffffffffffffffffffffffffffffffffffffffff16815260200190815260200160002060006101000a81548173ffffffffffffffffffffffffffffffffffffffff021916908373ffffffffffffffffffffffffffffffffffffffff160217905550505050565b60008260010160008373ffffffffffffffffffffffffffffffffffffffff1673ffffffffffffffffffffffffffffffffffffffff16815260200190815260200160002060009054906101000a900473ffffffffffffffffffffffffffffffffffffffff16905092915050565b6000604182511462000ca6576000905062000d80565b60008060006020850151925060408501519150606085015160001a90507f7fffffffffffffffffffffffffffffff5d576e7357a4501ddfe92f46681b20a08260001c111562000cfc576000935050505062000d80565b601b8160ff161415801562000d155750601c8160ff1614155b1562000d28576000935050505062000d80565b6001868285856040516000815260200160405260405162000d4d949392919062001ad6565b6020604051602081039080840390855afa15801562000d70573d6000803e3d6000fd5b5050506020604051035193505050505b92915050565b600062000dc1670de0b6b3a764000062000db28460600151856000015162000eae90919063ffffffff16565b62000f2490919063ffffffff16565b9050919050565b600062000e03670de0b6b3a764000062000df48460400151856000015162000eae90919063ffffffff16565b62000f2490919063ffffffff16565b9050919050565b60008082840190508381101562000e58576040517f08c379a000000000000000000000000000000000000000000000000000000000815260040162000e4f9062001ba5565b60405180910390fd5b8091505092915050565b600062000ea683836040518060400160405280601e81526020017f536166654d6174683a207375627472616374696f6e206f766572666c6f77000081525062000f70565b905092915050565b60008083141562000ec3576000905062000f1e565b600082840290508284828162000ed557fe5b041462000f19576040517f08c379a000000000000000000000000000000000000000000000000000000000815260040162000f109062001c4f565b60405180910390fd5b809150505b92915050565b600062000f6883836040518060400160405280601a81526020017f536166654d6174683a206469766973696f6e206279207a65726f00000000000081525062000fce565b905092915050565b600083831115829062000fbb576040517f08c379a000000000000000000000000000000000000000000000000000000000815260040162000fb2919062001b81565b60405180910390fd5b5060008385039050809150509392505050565b6000808311829062001018576040517f08c379a00000000000000000000000000000000000000000000000000000000081526004016200100f919062001b81565b60405180910390fd5b5060008385816200102557fe5b049050809150509392505050565b604051806080016040528060008152602001600073ffffffffffffffffffffffffffffffffffffffff16815260200160008152602001600081525090565b6040518060800160405280600073ffffffffffffffffffffffffffffffffffffffff16815260200160008152602001620010aa620010cd565b8152602001620010b9620010f4565b81525090565b610e0c8062001f9483390190565b60405180606001604052806000801916815260200160008152602001600080191681525090565b604051806080016040528060008152602001600073ffffffffffffffffffffffffffffffffffffffff16815260200160008152602001600081525090565b600081359050620011438162001f11565b92915050565b6000815190506200115a8162001f2b565b92915050565b600081359050620011718162001f45565b92915050565b600082601f8301126200118957600080fd5b8135620011a06200119a8262001cdf565b62001cb1565b91508082526020830160208301858383011115620011bd57600080fd5b620011ca83828462001e72565b50505092915050565b600082601f830112620011e557600080fd5b8135620011fc620011f68262001d0c565b62001cb1565b915080825260208301602083018583830111156200121957600080fd5b6200122683828462001e72565b50505092915050565b600081519050620012408162001f5f565b92915050565b600060c082840312156200125957600080fd5b6200126560c062001cb1565b90506000620012778482850162001373565b60008301525060206200128d8482850162001373565b6020830152506040620012a38482850162001373565b6040830152506060620012b98482850162001373565b6060830152506080620012cf8482850162001373565b60808301525060a082013567ffffffffffffffff811115620012f057600080fd5b620012fe8482850162001177565b60a08301525092915050565b6000606082840312156200131d57600080fd5b62001329606062001cb1565b905060006200133b8482850162001160565b6000830152506020620013518482850162001373565b6020830152506040620013678482850162001160565b60408301525092915050565b600081359050620013848162001f79565b92915050565b6000602082840312156200139d57600080fd5b6000620013ad8482850162001132565b91505092915050565b600080600060a08486031215620013cc57600080fd5b6000620013dc8682870162001132565b9350506020620013ef868287016200130a565b925050608084013567ffffffffffffffff8111156200140d57600080fd5b6200141b8682870162001246565b9150509250925092565b6000602082840312156200143857600080fd5b6000620014488482850162001149565b91505092915050565b6000602082840312156200146457600080fd5b600082013567ffffffffffffffff8111156200147f57600080fd5b6200148d84828501620011d3565b91505092915050565b600060208284031215620014a957600080fd5b6000620014b9848285016200122f565b91505092915050565b620014cd8162001de6565b82525050565b620014de8162001d71565b82525050565b620014ef8162001d71565b82525050565b6200150a620015048262001d71565b62001eb7565b82525050565b6200151b8162001d85565b82525050565b6200152c8162001d91565b82525050565b6200153d8162001d91565b82525050565b62001558620015528262001d91565b62001ecb565b82525050565b60006200156b8262001d39565b62001577818562001d4f565b93506200158981856020860162001e81565b620015948162001ef3565b840191505092915050565b620015aa8162001dfa565b82525050565b620015bb8162001e22565b82525050565b6000620015ce8262001d44565b620015da818562001d60565b9350620015ec81856020860162001e81565b620015f78162001ef3565b840191505092915050565b600062001611601b8362001d60565b91507f536166654d6174683a206164646974696f6e206f766572666c6f7700000000006000830152602082019050919050565b600062001653601a8362001d60565b91507f7368696674206d65737361676520616c726561647920757365640000000000006000830152602082019050919050565b60006200169560248362001d60565b91507f696e73756666696369656e742066756e647320696e206c69717569646974792060008301527f706f6f6c000000000000000000000000000000000000000000000000000000006020830152604082019050919050565b6000620016fd601d8362001d60565b91507f6e6f742061207265676973746572656420626f72726f772070726f78790000006000830152602082019050919050565b60006200173f60288362001d60565b91507f6c69717569646974792070726f766973696f6e206d65737361676520616c726560008301527f61647920757365640000000000000000000000000000000000000000000000006020830152604082019050919050565b6000620017a760218362001d60565b91507f536166654d6174683a206d756c7469706c69636174696f6e206f766572666c6f60008301527f77000000000000000000000000000000000000000000000000000000000000006020830152604082019050919050565b60006200180f60208362001d60565b91507f6e6f7420612072656769737465726564206c697175696469747920746f6b656e6000830152602082019050919050565b6080820160008201516200185a600085018262001945565b5060208201516200186f6020850182620014d3565b50604082015162001884604085018262001945565b50606082015162001899606085018262001945565b50505050565b61012082016000820151620018b86000850182620014d3565b506020820151620018cd602085018262001945565b506040820151620018e26040850182620018fd565b506060820151620018f760a085018262001842565b50505050565b60608201600082015162001915600085018262001521565b5060208201516200192a602085018262001945565b5060408201516200193f604085018262001521565b50505050565b620019508162001dcf565b82525050565b620019618162001dcf565b82525050565b6200197c620019768262001dcf565b62001ee9565b82525050565b6200198d8162001dd9565b82525050565b6000620019a18288620014f5565b601482019150620019b38287620014f5565b601482019150620019c5828662001543565b602082019150620019d7828562001967565b602082019150620019e9828462001543565b6020820191508190509695505050505050565b600062001a0a828762001967565b60208201915062001a1c828662001967565b60208201915062001a2e828562001967565b60208201915062001a40828462001543565b60208201915081905095945050505050565b600060208201905062001a696000830184620014e4565b92915050565b600060208201905062001a866000830184620014c2565b92915050565b600060408201905062001aa36000830185620014e4565b62001ab2602083018462001956565b9392505050565b600060208201905062001ad0600083018462001510565b92915050565b600060808201905062001aed600083018762001532565b62001afc602083018662001982565b62001b0b604083018562001532565b62001b1a606083018462001532565b95945050505050565b6000602082019050818103600083015262001b3f81846200155e565b905092915050565b600060208201905062001b5e60008301846200159f565b92915050565b600060208201905062001b7b6000830184620015b0565b92915050565b6000602082019050818103600083015262001b9d8184620015c1565b905092915050565b6000602082019050818103600083015262001bc08162001602565b9050919050565b6000602082019050818103600083015262001be28162001644565b9050919050565b6000602082019050818103600083015262001c048162001686565b9050919050565b6000602082019050818103600083015262001c2681620016ee565b9050919050565b6000602082019050818103600083015262001c488162001730565b9050919050565b6000602082019050818103600083015262001c6a8162001798565b9050919050565b6000602082019050818103600083015262001c8c8162001800565b9050919050565b60006101208201905062001cab60008301846200189f565b92915050565b6000604051905081810181811067ffffffffffffffff8211171562001cd557600080fd5b8060405250919050565b600067ffffffffffffffff82111562001cf757600080fd5b601f19601f8301169050602081019050919050565b600067ffffffffffffffff82111562001d2457600080fd5b601f19601f8301169050602081019050919050565b600081519050919050565b600081519050919050565b600082825260208201905092915050565b600082825260208201905092915050565b600062001d7e8262001daf565b9050919050565b60008115159050919050565b6000819050919050565b600062001da88262001d71565b9050919050565b600073ffffffffffffffffffffffffffffffffffffffff82169050919050565b6000819050919050565b600060ff82169050919050565b600062001df38262001e4a565b9050919050565b600062001e078262001e0e565b9050919050565b600062001e1b8262001daf565b9050919050565b600062001e2f8262001e36565b9050919050565b600062001e438262001daf565b9050919050565b600062001e578262001e5e565b9050919050565b600062001e6b8262001daf565b9050919050565b82818337600083830152505050565b60005b8381101562001ea157808201518184015260208101905062001e84565b8381111562001eb1576000848401525b50505050565b600062001ec48262001ed5565b9050919050565b6000819050919050565b600062001ee28262001f04565b9050919050565b6000819050919050565b6000601f19601f8301169050919050565b60008160601b9050919050565b62001f1c8162001d71565b811462001f2857600080fd5b50565b62001f368162001d85565b811462001f4257600080fd5b50565b62001f508162001d91565b811462001f5c57600080fd5b50565b62001f6a8162001d9b565b811462001f7657600080fd5b50565b62001f848162001dcf565b811462001f9057600080fd5b5056fe608060405234801561001057600080fd5b50336000800160006101000a81548173ffffffffffffffffffffffffffffffffffffffff021916908373ffffffffffffffffffffffffffffffffffffffff1602179055506000800160009054906101000a900473ffffffffffffffffffffffffffffffffffffffff1673ffffffffffffffffffffffffffffffffffffffff16637b3b00be6040518163ffffffff1660e01b8152600401602060405180830381600087803b1580156100c057600080fd5b505af11580156100d4573d6000803e3d6000fd5b505050506040513d601f19601f820116820180604052506100f89190810190610155565b600060010160006101000a81548173ffffffffffffffffffffffffffffffffffffffff021916908373ffffffffffffffffffffffffffffffffffffffff1602179055506101c7565b60008151905061014f816101b0565b92915050565b60006020828403121561016757600080fd5b600061017584828501610140565b91505092915050565b600061018982610190565b9050919050565b600073ffffffffffffffffffffffffffffffffffffffff82169050919050565b6101b98161017e565b81146101c457600080fd5b50565b610c36806101d66000396000f3fe608060405234801561001057600080fd5b506004361061002b5760003560e01c80632692f25a14610030575b600080fd5b61004a6004803603610045919081019061066a565b61004c565b005b600060010160009054906101000a900473ffffffffffffffffffffffffffffffffffffffff1673ffffffffffffffffffffffffffffffffffffffff163373ffffffffffffffffffffffffffffffffffffffff16146100df576040517f08c379a00000000000000000000000000000000000000000000000000000000081526004016100d690610a06565b60405180910390fd5b6000800160149054906101000a900460ff16156101b357600060608473ffffffffffffffffffffffffffffffffffffffff168484604051610120919061090a565b60006040518083038185875af1925050503d806000811461015d576040519150601f19603f3d011682016040523d82523d6000602084013e610162565b606091505b50915091508181906101aa576040517f08c379a00000000000000000000000000000000000000000000000000000000081526004016101a191906109a4565b60405180910390fd5b50805160208201f35b60006101d46101cf60006004856102dc9092919063ffffffff16565b610314565b60001c60e01b90506101e46104a2565b600073__BorrowProxyLib________________________632f1a48af909187856040518463ffffffff1660e01b815260040161022293929190610a26565b60606040518083038186803b15801561023a57600080fd5b505af415801561024e573d6000803e3d6000fd5b505050506040513d601f19601f8201168201806040525061027291908101906106d1565b90506102818160200151610343565b6102c0576040517f08c379a00000000000000000000000000000000000000000000000000000000081526004016102b7906109e6565b60405180910390fd5b6102d58385836103809092919063ffffffff16565b5050505050565b6102e46104d8565b60006020850184019050808260000181815250508282602001818152505083826040018181525050509392505050565b60008082600001519050600083602001519050600180600883021b038082602003840351169350505050919050565b60008073ffffffffffffffffffffffffffffffffffffffff16826000015173ffffffffffffffffffffffffffffffffffffffff1614159050919050565b600083602001516000015173ffffffffffffffffffffffffffffffffffffffff1684602001516000015185602001516020015132876000015186886040516020016103d096959493929190610921565b6040516020818303038152906040526040516103ec919061090a565b600060405180830381855af49150503d8060008114610427576040519150601f19603f3d011682016040523d82523d6000602084013e61042c565b606091505b505090507fd4d735e6fca37f665167e8c0726859b3dd898e339b366d2367d88b38de12a07c8160405161045f9190610989565b60405180910390a16040517f08c379a0000000000000000000000000000000000000000000000000000000008152600401610499906109c6565b60405180910390fd5b6040518060400160405280600073ffffffffffffffffffffffffffffffffffffffff1681526020016104d26104f9565b81525090565b60405180606001604052806000815260200160008152602001600081525090565b6040518060400160405280600073ffffffffffffffffffffffffffffffffffffffff168152602001600073ffffffffffffffffffffffffffffffffffffffff1681525090565b60008135905061054e81610bd2565b92915050565b60008151905061056381610bd2565b92915050565b600082601f83011261057a57600080fd5b813561058d61058882610a8a565b610a5d565b915080825260208301602083018583830111156105a957600080fd5b6105b4838284610b7f565b50505092915050565b6000606082840312156105cf57600080fd5b6105d96040610a5d565b905060006105e984828501610554565b60008301525060206105fd84828501610609565b60208301525092915050565b60006040828403121561061b57600080fd5b6106256040610a5d565b9050600061063584828501610554565b600083015250602061064984828501610554565b60208301525092915050565b60008135905061066481610be9565b92915050565b60008060006060848603121561067f57600080fd5b600061068d8682870161053f565b935050602061069e86828701610655565b925050604084013567ffffffffffffffff8111156106bb57600080fd5b6106c786828701610569565b9150509250925092565b6000606082840312156106e357600080fd5b60006106f1848285016105bd565b91505092915050565b61070381610b0b565b82525050565b61071281610af9565b82525050565b61072181610af9565b82525050565b61073081610b1d565b82525050565b61073f81610b29565b82525050565b600061075082610ab6565b61075a8185610acc565b935061076a818560208601610b8e565b61077381610bc1565b840191505092915050565b600061078982610ab6565b6107938185610add565b93506107a3818560208601610b8e565b80840191505092915050565b60006107ba82610ac1565b6107c48185610ae8565b93506107d4818560208601610b8e565b6107dd81610bc1565b840191505092915050565b60006107f5602783610ae8565b91507f6d6f64756c6520646964206e6f74207265736f6c766520696e2061207465726d60008301527f696e6174696f6e000000000000000000000000000000000000000000000000006020830152604082019050919050565b600061085b601f83610ae8565b91507f66756e6374696f6e2068616e646c6572206e6f742072656769737465726564006000830152602082019050919050565b600061089b602983610ae8565b91507f626f72726f772070726f78792063616e206f6e6c79206265207573656420627960008301527f20626f72726f77657200000000000000000000000000000000000000000000006020830152604082019050919050565b8082525050565b61090481610b75565b82525050565b6000610916828461077e565b915081905092915050565b600060c0820190506109366000830189610709565b6109436020830188610709565b61095060408301876106fa565b61095d6060830186610709565b61096a60808301856108fb565b81810360a083015261097c8184610745565b9050979650505050505050565b600060208201905061099e6000830184610727565b92915050565b600060208201905081810360008301526109be81846107af565b905092915050565b600060208201905081810360008301526109df816107e8565b9050919050565b600060208201905081810360008301526109ff8161084e565b9050919050565b60006020820190508181036000830152610a1f8161088e565b9050919050565b6000606082019050610a3b60008301866108f4565b610a486020830185610718565b610a556040830184610736565b949350505050565b6000604051905081810181811067ffffffffffffffff82111715610a8057600080fd5b8060405250919050565b600067ffffffffffffffff821115610aa157600080fd5b601f19601f8301169050602081019050919050565b600081519050919050565b600081519050919050565b600082825260208201905092915050565b600081905092915050565b600082825260208201905092915050565b6000610b0482610b55565b9050919050565b6000610b1682610b55565b9050919050565b60008115159050919050565b60007fffffffff0000000000000000000000000000000000000000000000000000000082169050919050565b600073ffffffffffffffffffffffffffffffffffffffff82169050919050565b6000819050919050565b82818337600083830152505050565b60005b83811015610bac578082015181840152602081019050610b91565b83811115610bbb576000848401525b50505050565b6000601f19601f8301169050919050565b610bdb81610af9565b8114610be657600080fd5b50565b610bf281610b75565b8114610bfd57600080fd5b5056fea26469706673582212204f6238981d46cdde2848d0ac24ad38df27877bb1dfbc1f0a3dce80ee1768b4c864736f6c63430006030033a2646970667358221220ebbd977cde1eae76f8579efc8ca00ae8b380e2a878c173b1de37a14fd592ac6764736f6c63430006030033",
  "source": "pragma solidity ^0.6.2;\npragma experimental ABIEncoderV2;\n\nimport { IShifterRegistry } from \"./interfaces/IShifterRegistry.sol\";\nimport { IShifter } from \"./interfaces/IShifter.sol\";\nimport { ShifterPoolLib } from \"./ShifterPoolLib.sol\";\nimport { ShifterBorrowProxyLib } from \"./ShifterBorrowProxyLib.sol\";\nimport { RenVMShiftMessageLib } from \"./RenVMShiftMessageLib.sol\";\nimport { BorrowProxy } from \"./BorrowProxy.sol\";\nimport { BorrowProxyLib } from \"./BorrowProxyLib.sol\";\nimport { TokenUtils } from \"./utils/TokenUtils.sol\";\nimport { LiquidityToken } from \"./LiquidityToken.sol\";\n\ncontract ShifterPool {\n  using ShifterPoolLib for *;\n  using TokenUtils for *;\n  using ShifterBorrowProxyLib for *;\n  using BorrowProxyLib for *;\n  using RenVMShiftMessageLib for *;\n  ShifterPoolLib.Isolate isolate;\n  constructor(address shifterRegistry, uint256 poolFee) public {\n    isolate.shifterRegistry = shifterRegistry;\n    isolate.poolFee = poolFee;\n  }\n  function borrow(address token, RenVMShiftMessageLib.RenVMShiftMessage memory shiftMessage, ShifterPoolLib.LiquidityProvisionMessage memory liquidityProvision) public {\n    bytes32 borrowerSalt = shiftMessage.computeBorrowerSalt(token, msg.sender);\n    address proxyAddress = borrowerSalt.deriveBorrowerAddress();\n    require(!isolate.borrowProxyController.isInitialized(proxyAddress), \"shift message already used\");\n    ShifterBorrowProxyLib.LenderRecord memory loan;\n    ShifterBorrowProxyLib.ProxyRecord memory proxyRecord = ShifterBorrowProxyLib.ProxyRecord({\n      token: token,\n      timeoutExpiry: liquidityProvision.timeoutExpiry,\n      message: shiftMessage,\n      loan: loan\n    });\n    bytes32 provisionHash = liquidityProvision.deriveProvisionHash(borrowerSalt);\n    require(isolate.provisionHashAlreadyUsed(provisionHash), \"liquidity provision message already used\");\n    address keeper = provisionHash.recoverAddressFromHash(liquidityProvision.signature);\n    proxyRecord.loan = ShifterBorrowProxyLib.LenderRecord({\n      keeper: keeper,\n      amount: liquidityProvision.amount,\n      keeperFee: liquidityProvision.keeperFee,\n      poolFee: isolate.poolFee\n    });\n    require(LiquidityToken(isolate.getLiquidityToken(token)).loan(proxyAddress, proxyRecord.loan.computePostFee()), \"insufficient funds in liquidity pool\");\n    isolate.preventProvisionReplay(provisionHash);\n    bytes memory data = abi.encode(proxyRecord);\n    isolate.borrowProxyController.mapProxyRecord(proxyAddress, data);\n    isolate.borrowProxyController.setProxyOwner(proxyAddress, msg.sender);\n    emit BorrowProxyLib.BorrowProxyMade(msg.sender, proxyAddress, data);\n  }\n  function validateProxyRecordHandler(bytes memory proxyRecord) public view returns (bool) {\n    return isolate.borrowProxyController.validateProxyRecord(msg.sender, proxyRecord);\n  }\n  function getProxyOwnerHandler() public view returns (address) {\n    return isolate.borrowProxyController.getProxyOwner(msg.sender);\n  }\n  function getShifterHandler(address token) public view returns (IShifter) {\n    return isolate.getShifter(token);\n  }\n  function getLiquidityTokenHandler(address token) public view returns (LiquidityToken) {\n    return LiquidityToken(isolate.getLiquidityToken(token));\n  }\n  function relayResolveLoan(address liquidityToken) public returns (bool) {\n    require(isolate.borrowProxyController.proxyInitializerRecord[msg.sender] != bytes32(0x0), \"not a registered borrow proxy\");\n    require(LiquidityToken(liquidityToken).resolveLoan(msg.sender));\n    return true;\n  }\n}\n",
  "sourcePath": "/home/ray/0confirmation-mono/packages/0confirmation-contracts/contracts/ShifterPool.sol",
  "compiler": {
    "name": "solc",
    "version": "0.6.3+commit.8dda9521.Linux.g++"
  },
  "schemaVersion": "3.0.23",
  "updatedAt": "2020-02-24T04:42:40.485Z",
  "devdoc": {
    "methods": {}
  },
  "userdoc": {
    "methods": {}
  }
}