{
  "contractName": "ShifterBorrowProxy",
  "abi": [
    {
      "inputs": [],
      "stateMutability": "nonpayable",
      "type": "constructor"
    },
    {
      "inputs": [
        {
          "internalType": "address",
          "name": "to",
          "type": "address"
        },
        {
          "internalType": "uint256",
          "name": "value",
          "type": "uint256"
        },
        {
          "internalType": "bytes",
          "name": "payload",
          "type": "bytes"
        }
      ],
      "name": "proxy",
      "outputs": [],
      "stateMutability": "nonpayable",
      "type": "function"
    },
    {
      "inputs": [
        {
          "internalType": "bytes",
          "name": "data",
          "type": "bytes"
        }
      ],
      "name": "repayLoan",
      "outputs": [
        {
          "internalType": "bool",
          "name": "",
          "type": "bool"
        }
      ],
      "stateMutability": "nonpayable",
      "type": "function"
    },
    {
      "inputs": [
        {
          "internalType": "bytes",
          "name": "data",
          "type": "bytes"
        }
      ],
      "name": "defaultLoan",
      "outputs": [
        {
          "internalType": "bool",
          "name": "",
          "type": "bool"
        }
      ],
      "stateMutability": "nonpayable",
      "type": "function"
    }
  ],
  "bytecode": "0x60806040523480156200001157600080fd5b50336000800160006101000a81548173ffffffffffffffffffffffffffffffffffffffff021916908373ffffffffffffffffffffffffffffffffffffffff1602179055506000800160009054906101000a900473ffffffffffffffffffffffffffffffffffffffff1673ffffffffffffffffffffffffffffffffffffffff16637b3b00be6040518163ffffffff1660e01b8152600401602060405180830381600087803b158015620000c257600080fd5b505af1158015620000d7573d6000803e3d6000fd5b505050506040513d601f19601f82011682018060405250620000fd91908101906200015d565b600060010160006101000a81548173ffffffffffffffffffffffffffffffffffffffff021916908373ffffffffffffffffffffffffffffffffffffffff160217905550620001d7565b6000815190506200015781620001bd565b92915050565b6000602082840312156200017057600080fd5b6000620001808482850162000146565b91505092915050565b600062000196826200019d565b9050919050565b600073ffffffffffffffffffffffffffffffffffffffff82169050919050565b620001c88162000189565b8114620001d457600080fd5b50565b61203e80620001e76000396000f3fe608060405234801561001057600080fd5b50600436106100415760003560e01c80632692f25a1461004657806356b8e14614610062578063c4ddf36314610092575b600080fd5b610060600480360361005b91908101906115ab565b6100c2565b005b61007c6004803603610077919081019061163b565b610352565b6040516100899190611c26565b60405180910390f35b6100ac60048036036100a7919081019061163b565b610626565b6040516100b99190611c26565b60405180910390f35b600060010160009054906101000a900473ffffffffffffffffffffffffffffffffffffffff1673ffffffffffffffffffffffffffffffffffffffff163373ffffffffffffffffffffffffffffffffffffffff1614610155576040517f08c379a000000000000000000000000000000000000000000000000000000000815260040161014c90611d11565b60405180910390fd5b6000800160149054906101000a900460ff161561022957600060608473ffffffffffffffffffffffffffffffffffffffff1684846040516101969190611b63565b60006040518083038185875af1925050503d80600081146101d3576040519150601f19603f3d011682016040523d82523d6000602084013e6101d8565b606091505b5091509150818190610220576040517f08c379a00000000000000000000000000000000000000000000000000000000081526004016102179190611caf565b60405180910390fd5b50805160208201f35b600061024a6102456000600485610a459092919063ffffffff16565b610a7d565b60001c60e01b905061025a61105e565b600073__BorrowProxyLib________________________632f1a48af909187856040518463ffffffff1660e01b815260040161029893929190611d51565b60606040518083038186803b1580156102b057600080fd5b505af41580156102c4573d6000803e3d6000fd5b505050506040513d601f19601f820116820180604052506102e891908101906116ce565b90506102f78160200151610aac565b610336576040517f08c379a000000000000000000000000000000000000000000000000000000000815260040161032d90611cf1565b60405180910390fd5b61034b838583610ae99092919063ffffffff16565b5050505050565b600061035d82610c0b565b61036657600080fd5b61036e611094565b8280602001905161038291908101906116f7565b90506060600060040160010180548060200260200160405190810160405280929190818152602001828054801561040e57602002820191906000526020600020905b8160009054906101000a900473ffffffffffffffffffffffffffffffffffffffff1673ffffffffffffffffffffffffffffffffffffffff16815260200190600101908083116103c4575b505050505090504382602001511061061a576001600060030160006101000a81548160ff0219169083151502179055506000806002015490505b81518110156104b957620493e05a1080610491575061048f82828151811061046c57fe5b602002602001015173ffffffffffffffffffffffffffffffffffffffff16610cc3565b155b156104ac578060006002018190555060009350505050610621565b8080600101915050610448565b50805160006002018190555060008060000160009054906101000a900473ffffffffffffffffffffffffffffffffffffffff1690508073ffffffffffffffffffffffffffffffffffffffff16630290af5d8273ffffffffffffffffffffffffffffffffffffffff1663798aada086600001516040518263ffffffff1660e01b81526004016105479190611b7a565b60206040518083038186803b15801561055f57600080fd5b505afa158015610573573d6000803e3d6000fd5b505050506040513d601f19601f8201168201806040525061059791908101906116a5565b6040518263ffffffff1660e01b81526004016105b39190611b7a565b602060405180830381600087803b1580156105cd57600080fd5b505af11580156105e1573d6000803e3d6000fd5b505050506040513d601f19601f820116820180604052506106059190810190611612565b61060e57600080fd5b60019350505050610621565b6000925050505b919050565b60006106306110de565b828060200190516106449190810190611721565b9050610672816000015160405160200161065e9190611d88565b604051602081830303815290604052610c0b565b61067b57600080fd5b600060030160009054906101000a900460ff161561069857600080fd5b60008060000160009054906101000a900473ffffffffffffffffffffffffffffffffffffffff1673ffffffffffffffffffffffffffffffffffffffff16631fbc78dc8360000151600001516040518263ffffffff1660e01b81526004016106ff9190611b7a565b60206040518083038186803b15801561071757600080fd5b505afa15801561072b573d6000803e3d6000fd5b505050506040513d601f19601f8201168201806040525061074f919081019061167c565b73ffffffffffffffffffffffffffffffffffffffff1663bb4a1d8c83600001516040015160000151846000015160400151602001518560000151604001516040015186602001516040518563ffffffff1660e01b81526004016107b59493929190611c41565b602060405180830381600087803b1580156107cf57600080fd5b505af11580156107e3573d6000803e3d6000fd5b505050506040513d601f19601f820116820180604052506108079190810190611762565b9050600061082682846000015160600151610e0090919063ffffffff16565b905060016000800160146101000a81548160ff02191690831515021790555060008060000160009054906101000a900473ffffffffffffffffffffffffffffffffffffffff1673ffffffffffffffffffffffffffffffffffffffff1663798aada08560000151600001516040518263ffffffff1660e01b81526004016108ac9190611b7a565b60206040518083038186803b1580156108c457600080fd5b505afa1580156108d8573d6000803e3d6000fd5b505050506040513d601f19601f820116820180604052506108fc91908101906116a5565b90506109338183850386600001516000015173ffffffffffffffffffffffffffffffffffffffff16610e3b9092919063ffffffff16565b61093c57600080fd5b61097b846000015160600151602001518386600001516000015173ffffffffffffffffffffffffffffffffffffffff16610e3b9092919063ffffffff16565b61098457600080fd5b6000800160009054906101000a900473ffffffffffffffffffffffffffffffffffffffff1673ffffffffffffffffffffffffffffffffffffffff16630290af5d826040518263ffffffff1660e01b81526004016109e19190611b7a565b602060405180830381600087803b1580156109fb57600080fd5b505af1158015610a0f573d6000803e3d6000fd5b505050506040513d601f19601f82011682018060405250610a339190810190611612565b610a3c57600080fd5b50505050919050565b610a4d6110fe565b60006020850184019050808260000181815250508282602001818152505083826040018181525050509392505050565b60008082600001519050600083602001519050600180600883021b038082602003840351169350505050919050565b60008073ffffffffffffffffffffffffffffffffffffffff16826000015173ffffffffffffffffffffffffffffffffffffffff1614159050919050565b600083602001516000015173ffffffffffffffffffffffffffffffffffffffff168460200151600001518560200151602001513287600001518688604051602001610b3996959493929190611b95565b604051602081830303815290604052604051610b559190611b63565b600060405180830381855af49150503d8060008114610b90576040519150601f19603f3d011682016040523d82523d6000602084013e610b95565b606091505b505090507fd4d735e6fca37f665167e8c0726859b3dd898e339b366d2367d88b38de12a07c81604051610bc89190611c26565b60405180910390a16040517f08c379a0000000000000000000000000000000000000000000000000000000008152600401610c0290611cd1565b60405180910390fd5b60008060000160009054906101000a900473ffffffffffffffffffffffffffffffffffffffff1673ffffffffffffffffffffffffffffffffffffffff166308f60495836040518263ffffffff1660e01b8152600401610c6a9190611c8d565b602060405180830381600087803b158015610c8457600080fd5b505af1158015610c98573d6000803e3d6000fd5b505050506040513d601f19601f82011682018060405250610cbc9190810190611612565b9050919050565b60008060608373ffffffffffffffffffffffffffffffffffffffff1684604051602401610cf09190611b7a565b6040516020818303038152906040527f2f865568000000000000000000000000000000000000000000000000000000007bffffffffffffffffffffffffffffffffffffffffffffffffffffffff19166020820180517bffffffffffffffffffffffffffffffffffffffffffffffffffffffff8381831617835250505050604051610d7a9190611b63565b600060405180830381855af49150503d8060008114610db5576040519150601f19603f3d011682016040523d82523d6000602084013e610dba565b606091505b50915091506020815114610dd357600092505050610dfb565b600081806020019051610de99190810190611612565b9050828015610df55750805b93505050505b919050565b6000610e33670de0b6b3a7640000610e25856060015185610f4390919063ffffffff16565b610fb390919063ffffffff16565b905092915050565b6000808473ffffffffffffffffffffffffffffffffffffffff168484604051602401610e68929190611bfd565b6040516020818303038152906040527fa9059cbb000000000000000000000000000000000000000000000000000000007bffffffffffffffffffffffffffffffffffffffffffffffffffffffff19166020820180517bffffffffffffffffffffffffffffffffffffffffffffffffffffffff8381831617835250505050604051610ef29190611b63565b6000604051808303816000865af19150503d8060008114610f2f576040519150601f19603f3d011682016040523d82523d6000602084013e610f34565b606091505b50509050809150509392505050565b600080831415610f565760009050610fad565b6000828402905082848281610f6757fe5b0414610fa8576040517f08c379a0000000000000000000000000000000000000000000000000000000008152600401610f9f90611d31565b60405180910390fd5b809150505b92915050565b6000610ff583836040518060400160405280601a81526020017f536166654d6174683a206469766973696f6e206279207a65726f000000000000815250610ffd565b905092915050565b60008083118290611044576040517f08c379a000000000000000000000000000000000000000000000000000000000815260040161103b9190611caf565b60405180910390fd5b50600083858161105057fe5b049050809150509392505050565b6040518060400160405280600073ffffffffffffffffffffffffffffffffffffffff16815260200161108e61111f565b81525090565b6040518060800160405280600073ffffffffffffffffffffffffffffffffffffffff168152602001600081526020016110cb611165565b81526020016110d861118c565b81525090565b60405180604001604052806110f16111ca565b8152602001606081525090565b60405180606001604052806000815260200160008152602001600081525090565b6040518060400160405280600073ffffffffffffffffffffffffffffffffffffffff168152602001600073ffffffffffffffffffffffffffffffffffffffff1681525090565b60405180606001604052806000801916815260200160008152602001600080191681525090565b604051806080016040528060008152602001600073ffffffffffffffffffffffffffffffffffffffff16815260200160008152602001600081525090565b6040518060800160405280600073ffffffffffffffffffffffffffffffffffffffff16815260200160008152602001611201611165565b815260200161120e61118c565b81525090565b60008135905061122381611f7e565b92915050565b60008151905061123881611f7e565b92915050565b60008151905061124d81611f95565b92915050565b60008151905061126281611fac565b92915050565b600082601f83011261127957600080fd5b815161128c61128782611dd1565b611da4565b915080825260208301602083018583830111156112a857600080fd5b6112b3838284611f3a565b50505092915050565b600082601f8301126112cd57600080fd5b81356112e06112db82611dfd565b611da4565b915080825260208301602083018583830111156112fc57600080fd5b611307838284611f2b565b50505092915050565b60008151905061131f81611fc3565b92915050565b60008151905061133481611fda565b92915050565b60006080828403121561134c57600080fd5b6113566080611da4565b9050600061136684828501611596565b600083015250602061137a84828501611229565b602083015250604061138e84828501611596565b60408301525060606113a284828501611596565b60608301525092915050565b6000606082840312156113c057600080fd5b6113ca6040611da4565b905060006113da84828501611229565b60008301525060206113ee848285016113fa565b60208301525092915050565b60006040828403121561140c57600080fd5b6114166040611da4565b9050600061142684828501611229565b600083015250602061143a84828501611229565b60208301525092915050565b6000610120828403121561145957600080fd5b6114636080611da4565b9050600061147384828501611229565b600083015250602061148784828501611596565b602083015250604061149b848285016114bb565b60408301525060a06114af8482850161133a565b60608301525092915050565b6000606082840312156114cd57600080fd5b6114d76060611da4565b905060006114e784828501611253565b60008301525060206114fb84828501611596565b602083015250604061150f84828501611253565b60408301525092915050565b6000610140828403121561152e57600080fd5b6115386040611da4565b9050600061154884828501611446565b60008301525061012082015167ffffffffffffffff81111561156957600080fd5b61157584828501611268565b60208301525092915050565b60008135905061159081611ff1565b92915050565b6000815190506115a581611ff1565b92915050565b6000806000606084860312156115c057600080fd5b60006115ce86828701611214565b93505060206115df86828701611581565b925050604084013567ffffffffffffffff8111156115fc57600080fd5b611608868287016112bc565b9150509250925092565b60006020828403121561162457600080fd5b60006116328482850161123e565b91505092915050565b60006020828403121561164d57600080fd5b600082013567ffffffffffffffff81111561166757600080fd5b611673848285016112bc565b91505092915050565b60006020828403121561168e57600080fd5b600061169c84828501611310565b91505092915050565b6000602082840312156116b757600080fd5b60006116c584828501611325565b91505092915050565b6000606082840312156116e057600080fd5b60006116ee848285016113ae565b91505092915050565b6000610120828403121561170a57600080fd5b600061171884828501611446565b91505092915050565b60006020828403121561173357600080fd5b600082015167ffffffffffffffff81111561174d57600080fd5b6117598482850161151b565b91505092915050565b60006020828403121561177457600080fd5b600061178284828501611596565b91505092915050565b61179481611e89565b82525050565b6117a381611e77565b82525050565b6117b281611e77565b82525050565b6117c181611e77565b82525050565b6117d081611e9b565b82525050565b6117df81611ea7565b82525050565b6117ee81611ea7565b82525050565b6117fd81611eb1565b82525050565b600061180e82611e34565b6118188185611e4a565b9350611828818560208601611f3a565b61183181611f6d565b840191505092915050565b600061184782611e34565b6118518185611e5b565b9350611861818560208601611f3a565b80840191505092915050565b600061187882611e29565b6118828185611e4a565b9350611892818560208601611f3a565b61189b81611f6d565b840191505092915050565b60006118b182611e3f565b6118bb8185611e66565b93506118cb818560208601611f3a565b6118d481611f6d565b840191505092915050565b60006118ec602783611e66565b91507f6d6f64756c6520646964206e6f74207265736f6c766520696e2061207465726d60008301527f696e6174696f6e000000000000000000000000000000000000000000000000006020830152604082019050919050565b6000611952601f83611e66565b91507f66756e6374696f6e2068616e646c6572206e6f742072656769737465726564006000830152602082019050919050565b6000611992602983611e66565b91507f626f72726f772070726f78792063616e206f6e6c79206265207573656420627960008301527f20626f72726f77657200000000000000000000000000000000000000000000006020830152604082019050919050565b60006119f8602183611e66565b91507f536166654d6174683a206d756c7469706c69636174696f6e206f766572666c6f60008301527f77000000000000000000000000000000000000000000000000000000000000006020830152604082019050919050565b608082016000820151611a676000850182611b45565b506020820151611a7a602085018261179a565b506040820151611a8d6040850182611b45565b506060820151611aa06060850182611b45565b50505050565b8082525050565b61012082016000820151611ac4600085018261179a565b506020820151611ad76020850182611b45565b506040820151611aea6040850182611b03565b506060820151611afd60a0850182611a51565b50505050565b606082016000820151611b1960008501826117d6565b506020820151611b2c6020850182611b45565b506040820151611b3f60408501826117d6565b50505050565b611b4e81611f21565b82525050565b611b5d81611f21565b82525050565b6000611b6f828461183c565b915081905092915050565b6000602082019050611b8f60008301846117a9565b92915050565b600060c082019050611baa60008301896117a9565b611bb760208301886117a9565b611bc4604083018761178b565b611bd160608301866117a9565b611bde6080830185611b54565b81810360a0830152611bf08184611803565b9050979650505050505050565b6000604082019050611c1260008301856117a9565b611c1f6020830184611b54565b9392505050565b6000602082019050611c3b60008301846117c7565b92915050565b6000608082019050611c5660008301876117e5565b611c636020830186611b54565b611c7060408301856117e5565b8181036060830152611c82818461186d565b905095945050505050565b60006020820190508181036000830152611ca78184611803565b905092915050565b60006020820190508181036000830152611cc981846118a6565b905092915050565b60006020820190508181036000830152611cea816118df565b9050919050565b60006020820190508181036000830152611d0a81611945565b9050919050565b60006020820190508181036000830152611d2a81611985565b9050919050565b60006020820190508181036000830152611d4a816119eb565b9050919050565b6000606082019050611d666000830186611aa6565b611d7360208301856117b8565b611d8060408301846117f4565b949350505050565b600061012082019050611d9e6000830184611aad565b92915050565b6000604051905081810181811067ffffffffffffffff82111715611dc757600080fd5b8060405250919050565b600067ffffffffffffffff821115611de857600080fd5b601f19601f8301169050602081019050919050565b600067ffffffffffffffff821115611e1457600080fd5b601f19601f8301169050602081019050919050565b600081519050919050565b600081519050919050565b600081519050919050565b600082825260208201905092915050565b600081905092915050565b600082825260208201905092915050565b6000611e8282611f01565b9050919050565b6000611e9482611f01565b9050919050565b60008115159050919050565b6000819050919050565b60007fffffffff0000000000000000000000000000000000000000000000000000000082169050919050565b6000611ee882611e77565b9050919050565b6000611efa82611e77565b9050919050565b600073ffffffffffffffffffffffffffffffffffffffff82169050919050565b6000819050919050565b82818337600083830152505050565b60005b83811015611f58578082015181840152602081019050611f3d565b83811115611f67576000848401525b50505050565b6000601f19601f8301169050919050565b611f8781611e77565b8114611f9257600080fd5b50565b611f9e81611e9b565b8114611fa957600080fd5b50565b611fb581611ea7565b8114611fc057600080fd5b50565b611fcc81611edd565b8114611fd757600080fd5b50565b611fe381611eef565b8114611fee57600080fd5b50565b611ffa81611f21565b811461200557600080fd5b5056fea2646970667358221220380bd02fd649ab32d2204780a4574e7a56a87207e87588c2eac9a6b028fbb3e464736f6c63430006030033",
  "source": "pragma solidity ^0.6.2;\npragma experimental ABIEncoderV2;\n\nimport { BorrowProxy } from \"./BorrowProxy.sol\";\nimport { ShifterPool } from \"./ShifterPool.sol\";\nimport { ShifterBorrowProxyLib } from \"./ShifterBorrowProxyLib.sol\";\nimport { ILiquidationModule } from \"./interfaces/ILiquidationModule.sol\";\nimport { TokenUtils } from \"./utils/TokenUtils.sol\";\nimport { LiquidityToken } from \"./LiquidityToken.sol\";\n\ncontract ShifterBorrowProxy is BorrowProxy {\n  using ShifterBorrowProxyLib for *;\n  using TokenUtils for *;\n  constructor() BorrowProxy() public {}\n  function repayLoan(bytes memory data) public returns (bool) {\n    (ShifterBorrowProxyLib.TriggerParcel memory parcel) = abi.decode(data, (ShifterBorrowProxyLib.TriggerParcel));\n    require(validateProxyRecord(abi.encode(parcel.record)));\n    require(!isolate.isLiquidating);\n    uint256 amount = ShifterPool(isolate.masterAddress).getShifterHandler(parcel.record.token).shiftIn(parcel.record.message.pHash, parcel.record.message.amount, parcel.record.message.nHash, parcel.darknodeSignature);\n    uint256 fee = parcel.record.loan.computeAdjustedKeeperFee(amount);\n    isolate.unbound = true;\n    LiquidityToken liquidityToken = ShifterPool(isolate.masterAddress).getLiquidityTokenHandler(parcel.record.token);\n    require(parcel.record.token.sendToken(address(liquidityToken), amount - fee));\n    require(parcel.record.token.sendToken(parcel.record.loan.keeper, fee));\n    require(ShifterPool(isolate.masterAddress).relayResolveLoan(address(liquidityToken)));\n  }\n  function defaultLoan(bytes memory data) public returns (bool) {\n    require(validateProxyRecord(data));\n    (ShifterBorrowProxyLib.ProxyRecord memory record) = abi.decode(data, (ShifterBorrowProxyLib.ProxyRecord));\n    address[] memory set = isolate.liquidationSet.set;\n    if (record.timeoutExpiry >= block.number) {\n      isolate.isLiquidating = true;\n      for (uint256 i = isolate.liquidationIndex; i < set.length; i++) {\n        if (gasleft() < 3e5 || !set[i].delegateLiquidate()) {\n          isolate.liquidationIndex = i;\n          return false;\n        }\n      }\n      isolate.liquidationIndex = set.length;\n      ShifterPool pool = ShifterPool(isolate.masterAddress);\n      require(pool.relayResolveLoan(address(pool.getLiquidityTokenHandler(record.token))));\n      return true;\n    }\n    return false;\n  }\n}\n",
  "sourcePath": "/home/ray/0confirmation-mono/packages/0confirmation-contracts/contracts/ShifterBorrowProxy.sol",
  "compiler": {
    "name": "solc",
    "version": "0.6.3+commit.8dda9521.Linux.g++"
  },
  "schemaVersion": "3.0.23",
  "updatedAt": "2020-02-24T04:42:40.480Z",
  "devdoc": {
    "methods": {}
  },
  "userdoc": {
    "methods": {}
  }
}