{
  "contractName": "SimpleBurnLiquidationModule",
  "abi": [
    {
      "inputs": [
        {
          "internalType": "address",
          "name": "factoryAddress",
          "type": "address"
        }
      ],
      "stateMutability": "nonpayable",
      "type": "constructor"
    },
    {
      "inputs": [
        {
          "internalType": "address",
          "name": "moduleAddress",
          "type": "address"
        },
        {
          "internalType": "bytes",
          "name": "payload",
          "type": "bytes"
        }
      ],
      "name": "notify",
      "outputs": [
        {
          "internalType": "bool",
          "name": "",
          "type": "bool"
        }
      ],
      "stateMutability": "nonpayable",
      "type": "function"
    },
    {
      "inputs": [
        {
          "internalType": "address",
          "name": "moduleAddress",
          "type": "address"
        }
      ],
      "name": "liquidate",
      "outputs": [
        {
          "internalType": "bool",
          "name": "",
          "type": "bool"
        }
      ],
      "stateMutability": "nonpayable",
      "type": "function"
    },
    {
      "inputs": [
        {
          "internalType": "address",
          "name": "instance",
          "type": "address"
        }
      ],
      "name": "computeIsolatePointer",
      "outputs": [
        {
          "internalType": "uint256",
          "name": "",
          "type": "uint256"
        }
      ],
      "stateMutability": "pure",
      "type": "function"
    },
    {
      "inputs": [],
      "name": "getExternalIsolateHandler",
      "outputs": [
        {
          "components": [
            {
              "internalType": "address",
              "name": "factoryAddress",
              "type": "address"
            }
          ],
          "internalType": "struct SimpleBurnLiquidationModule.ExternalIsolate",
          "name": "",
          "type": "tuple"
        }
      ],
      "stateMutability": "nonpayable",
      "type": "function"
    }
  ],
  "bytecode": "0x60806040523480156200001157600080fd5b5060405162000ebe38038062000ebe833981810160405262000037919081019062000158565b60006200004a306200009760201b60201c565b9050818160000160006101000a81548173ffffffffffffffffffffffffffffffffffffffff021916908373ffffffffffffffffffffffffffffffffffffffff160217905550505062000299565b6000620000ba620000ae83620000c160201b60201c565b620000f660201b60201c565b9050919050565b600081604051602001620000d69190620001e1565b6040516020818303038152906040528051906020012060001c9050919050565b60006200013f60201b620006b3176200013f60201b620006b3176200013560201b620006801790508091506200012c848360201c565b92505050919050565b6000819050919050565bfe5b60008151905062000152816200027f565b92915050565b6000602082840312156200016b57600080fd5b60006200017b8482850162000141565b91505092915050565b62000199620001938262000216565b6200024a565b82525050565b6000620001ae6013836200020b565b91507f69736f6c6174652e73696d706c652d6275726e000000000000000000000000006000830152601382019050919050565b6000620001ee826200019f565b9150620001fc828462000184565b60148201915081905092915050565b600081905092915050565b600062000223826200022a565b9050919050565b600073ffffffffffffffffffffffffffffffffffffffff82169050919050565b600062000257826200025e565b9050919050565b60006200026b8262000272565b9050919050565b60008160601b9050919050565b6200028a8162000216565b81146200029657600080fd5b50565b610c1580620002a96000396000f3fe608060405234801561001057600080fd5b506004361061004c5760003560e01c80632f865568146100515780638cb6e19114610081578063966ff7a8146100b1578063fa1fd28c146100cf575b600080fd5b61006b6004803603610066919081019061075d565b6100ff565b60405161007891906109b5565b60405180910390f35b61009b6004803603610096919081019061075d565b6104a4565b6040516100a891906109eb565b60405180910390f35b6100b96104d7565b6040516100c691906109d0565b60405180910390f35b6100e960048036036100e491908101906107af565b610535565b6040516100f691906109b5565b60405180910390f35b60008061010b8361057d565b905060008160000160009054906101000a900473ffffffffffffffffffffffffffffffffffffffff1690506000826001015490505b826002016001018054905081101561048e57620493e05a1015610172578083600101819055506000935050505061049f565b600083600201600101828154811061018657fe5b9060005260206000200160009054906101000a900473ffffffffffffffffffffffffffffffffffffffff16905060008173ffffffffffffffffffffffffffffffffffffffff166370a08231306040518263ffffffff1660e01b81526004016101ee9190610948565b60206040518083038186803b15801561020657600080fd5b505afa15801561021a573d6000803e3d6000fd5b505050506040513d601f19601f8201168201806040525061023e919081019061082c565b905060008473ffffffffffffffffffffffffffffffffffffffff166306f2bf62846040518263ffffffff1660e01b815260040161027b9190610948565b60206040518083038186803b15801561029357600080fd5b505afa1580156102a7573d6000803e3d6000fd5b505050506040513d601f19601f820116820180604052506102cb9190810190610786565b90508273ffffffffffffffffffffffffffffffffffffffff1663095ea7b38260006040518363ffffffff1660e01b8152600401610309929190610963565b602060405180830381600087803b15801561032357600080fd5b505af1158015610337573d6000803e3d6000fd5b505050506040513d601f19601f8201168201806040525061035b9190810190610803565b508273ffffffffffffffffffffffffffffffffffffffff1663095ea7b382846040518363ffffffff1660e01b815260040161039792919061098c565b602060405180830381600087803b1580156103b157600080fd5b505af11580156103c5573d6000803e3d6000fd5b505050506040513d601f19601f820116820180604052506103e99190810190610803565b508073ffffffffffffffffffffffffffffffffffffffff166395e3c50b836000600143016040518463ffffffff1660e01b815260040161042b93929190610a06565b602060405180830381600087803b15801561044557600080fd5b505af1158015610459573d6000803e3d6000fd5b505050506040513d601f19601f8201168201806040525061047d919081019061082c565b505050508080600101915050610140565b808360010181905550600193505050505b919050565b6000816040516020016104b79190610922565b6040516020818303038152906040528051906020012060001c9050919050565b6104df61068a565b60405180602001604052806104f33061057d565b60000160009054906101000a900473ffffffffffffffffffffffffffffffffffffffff1673ffffffffffffffffffffffffffffffffffffffff16815250905090565b6000808280602001905161054c9190810190610786565b905060006105598561057d565b9050610571828260020161059790919063ffffffff16565b60019250505092915050565b600061059061058b836104a4565b61065a565b9050919050565b8160000160008273ffffffffffffffffffffffffffffffffffffffff1673ffffffffffffffffffffffffffffffffffffffff16815260200190815260200160002060009054906101000a900460ff16156105f057610656565b81600101819080600181540180825580915050600190039060005260206000200160009091909190916101000a81548173ffffffffffffffffffffffffffffffffffffffff021916908373ffffffffffffffffffffffffffffffffffffffff1602179055505b5050565b60006106b36106b36106809050809150610677848363ffffffff16565b92505050919050565b6000819050919050565b6040518060200160405280600073ffffffffffffffffffffffffffffffffffffffff1681525090565bfe5b6000813590506106c481610b83565b92915050565b6000815190506106d981610b9a565b92915050565b6000815190506106ee81610bb1565b92915050565b600082601f83011261070557600080fd5b813561071861071382610a6a565b610a3d565b9150808252602083016020830185838301111561073457600080fd5b61073f838284610b43565b50505092915050565b60008151905061075781610bc8565b92915050565b60006020828403121561076f57600080fd5b600061077d848285016106b5565b91505092915050565b60006020828403121561079857600080fd5b60006107a6848285016106ca565b91505092915050565b600080604083850312156107c257600080fd5b60006107d0858286016106b5565b925050602083013567ffffffffffffffff8111156107ed57600080fd5b6107f9858286016106f4565b9150509250929050565b60006020828403121561081557600080fd5b6000610823848285016106df565b91505092915050565b60006020828403121561083e57600080fd5b600061084c84828501610748565b91505092915050565b61085e81610afb565b82525050565b61086d81610aa1565b82525050565b61087c81610aa1565b82525050565b61089361088e82610aa1565b610b52565b82525050565b6108a281610ac5565b82525050565b6108b181610b0d565b82525050565b60006108c4601383610a96565b91507f69736f6c6174652e73696d706c652d6275726e000000000000000000000000006000830152601382019050919050565b60208201600082015161090d6000850182610864565b50505050565b61091c81610af1565b82525050565b600061092d826108b7565b91506109398284610882565b60148201915081905092915050565b600060208201905061095d6000830184610873565b92915050565b60006040820190506109786000830185610855565b61098560208301846108a8565b9392505050565b60006040820190506109a16000830185610855565b6109ae6020830184610913565b9392505050565b60006020820190506109ca6000830184610899565b92915050565b60006020820190506109e560008301846108f7565b92915050565b6000602082019050610a006000830184610913565b92915050565b6000606082019050610a1b6000830186610913565b610a2860208301856108a8565b610a356040830184610913565b949350505050565b6000604051905081810181811067ffffffffffffffff82111715610a6057600080fd5b8060405250919050565b600067ffffffffffffffff821115610a8157600080fd5b601f19601f8301169050602081019050919050565b600081905092915050565b6000610aac82610ad1565b9050919050565b6000610abe82610ad1565b9050919050565b60008115159050919050565b600073ffffffffffffffffffffffffffffffffffffffff82169050919050565b6000819050919050565b6000610b0682610b1f565b9050919050565b6000610b1882610af1565b9050919050565b6000610b2a82610b31565b9050919050565b6000610b3c82610ad1565b9050919050565b82818337600083830152505050565b6000610b5d82610b64565b9050919050565b6000610b6f82610b76565b9050919050565b60008160601b9050919050565b610b8c81610aa1565b8114610b9757600080fd5b50565b610ba381610ab3565b8114610bae57600080fd5b50565b610bba81610ac5565b8114610bc557600080fd5b50565b610bd181610af1565b8114610bdc57600080fd5b5056fea2646970667358221220574d897fa3444d7444b375a25c887379cd70f77e57db4e947ce4a0e67dac753964736f6c63430006030033",
  "source": "pragma solidity ^0.6.2;\npragma experimental ABIEncoderV2;\n\nimport { AddressSetLib } from \"../../utils/AddressSetLib.sol\";\nimport { IUniswapExchange } from \"../../interfaces/IUniswapExchange.sol\";\nimport { IUniswapFactory } from \"../../interfaces/IUniswapFactory.sol\";\nimport { IERC20 } from \"openzeppelin-solidity/contracts/token/ERC20/IERC20.sol\";\n\ncontract SimpleBurnLiquidationModule {\n  using AddressSetLib for *;\n  struct Isolate {\n    address factoryAddress;\n    uint256 liquidated;\n    AddressSetLib.AddressSet toLiquidate;\n  }\n  struct ExternalIsolate {\n    address factoryAddress;\n  }\n  constructor(address factoryAddress) public {\n    Isolate storage isolate = getIsolatePointer(address(this));\n    isolate.factoryAddress = factoryAddress;\n  }\n  function notify(address moduleAddress, bytes memory payload) public returns (bool) {\n    (address token) = abi.decode(payload, (address));\n    Isolate storage isolate = getIsolatePointer(moduleAddress);\n    isolate.toLiquidate.insert(token);\n    return true;\n  }\n  function liquidate(address moduleAddress) public returns (bool) {\n    Isolate storage isolate = getIsolatePointer(moduleAddress);\n    IUniswapFactory factory = IUniswapFactory(isolate.factoryAddress);\n    uint256 i;\n    for (i = isolate.liquidated; i < isolate.toLiquidate.set.length; i++) {\n      if (gasleft() < 3e5) {\n        isolate.liquidated = i;\n        return false;\n      }\n      address tokenAddress = isolate.toLiquidate.set[i];\n      uint256 tokenBalance = IERC20(tokenAddress).balanceOf(address(this));\n      address payable exchangeAddress = factory.getExchange(tokenAddress);\n      IERC20(tokenAddress).approve(exchangeAddress, 0); // needed for many tokens\n      IERC20(tokenAddress).approve(exchangeAddress, tokenBalance);\n      IUniswapExchange(exchangeAddress).tokenToEthSwapInput(tokenBalance, 0, block.number + 1);\n    }\n    isolate.liquidated = i;\n    return true;\n  }\n  function computeIsolatePointer(address instance) public pure returns (uint256) {\n    return uint256(keccak256(abi.encodePacked(\"isolate.simple-burn\", instance)));\n  }\n  function cast(uint256 v) internal pure returns (uint256) {\n    return v;\n  }\n  function toIsolatePointer(uint256 key) internal returns (Isolate storage) {\n    function (uint256) internal returns (Isolate storage) swap;\n    function (uint256) internal returns (uint256) real = cast;\n    assembly {\n      swap := real\n    }\n    return swap(key);\n  }\n  function getIsolatePointer(address moduleAddress) internal returns (Isolate storage) {\n    return toIsolatePointer(computeIsolatePointer(moduleAddress));\n  }\n  function getExternalIsolateHandler() external returns (ExternalIsolate memory) {\n    return ExternalIsolate({\n      factoryAddress: getIsolatePointer(address(this)).factoryAddress\n    });\n  }\n  function getExternalIsolate(address moduleAddress) internal returns (ExternalIsolate memory) {\n    return SimpleBurnLiquidationModule(moduleAddress).getExternalIsolateHandler();\n  }\n}\n",
  "sourcePath": "/home/ray/0confirmation-mono/packages/0confirmation-contracts/contracts/adapters/liquidity/SimpleBurnLiquidationModule.sol",
  "compiler": {
    "name": "solc",
    "version": "0.6.3+commit.8dda9521.Linux.g++"
  },
  "schemaVersion": "3.0.23",
  "updatedAt": "2020-02-24T04:42:40.514Z",
  "devdoc": {
    "methods": {}
  },
  "userdoc": {
    "methods": {}
  }
}