{
  "contractName": "UniswapAdapter",
  "abi": [
    {
      "inputs": [
        {
          "internalType": "address",
          "name": "factoryAddress",
          "type": "address"
        }
      ],
      "stateMutability": "nonpayable",
      "type": "constructor"
    },
    {
      "stateMutability": "payable",
      "type": "receive"
    },
    {
      "inputs": [
        {
          "internalType": "address",
          "name": "instance",
          "type": "address"
        }
      ],
      "name": "computeIsolatePointer",
      "outputs": [
        {
          "internalType": "uint256",
          "name": "",
          "type": "uint256"
        }
      ],
      "stateMutability": "pure",
      "type": "function"
    },
    {
      "inputs": [],
      "name": "getExternalIsolateHandler",
      "outputs": [
        {
          "components": [
            {
              "internalType": "address",
              "name": "factoryAddress",
              "type": "address"
            }
          ],
          "internalType": "struct UniswapAdapter.ExternalIsolate",
          "name": "",
          "type": "tuple"
        }
      ],
      "stateMutability": "payable",
      "type": "function"
    }
  ],
  "bytecode": "0x60806040523480156200001157600080fd5b506040516200214f3803806200214f833981810160405262000037919081019062000158565b60006200004a826200009760201b60201c565b9050818160000160006101000a81548173ffffffffffffffffffffffffffffffffffffffff021916908373ffffffffffffffffffffffffffffffffffffffff160217905550505062000299565b6000620000ba620000ae83620000c160201b60201c565b620000f660201b60201c565b9050919050565b600081604051602001620000d69190620001e1565b6040516020818303038152906040528051906020012060001c9050919050565b60006200013f60201b6200161f176200013f60201b6200161f176200013560201b620015cb1790508091506200012c848360201c565b92505050919050565b6000819050919050565bfe5b60008151905062000152816200027f565b92915050565b6000602082840312156200016b57600080fd5b60006200017b8482850162000141565b91505092915050565b62000199620001938262000216565b6200024a565b82525050565b6000620001ae6017836200020b565b91507f69736f6c6174652e756e69737761702d616461707465720000000000000000006000830152601782019050919050565b6000620001ee826200019f565b9150620001fc828462000184565b60148201915081905092915050565b600081905092915050565b600062000223826200022a565b9050919050565b600073ffffffffffffffffffffffffffffffffffffffff82169050919050565b600062000257826200025e565b9050919050565b60006200026b8262000272565b9050919050565b60008160601b9050919050565b6200028a8162000216565b81146200029657600080fd5b50565b611ea680620002a96000396000f3fe60806040526004361061002d5760003560e01c80638cb6e1911461103b578063966ff7a81461107857611036565b3661103657600080600080606060003661004a919081019061177d565b955095509550509450945060006100618685611096565b91505060006060610071846111b2565b9150915060006389f2a87160e01b7bffffffffffffffffffffffffffffffffffffffffffffffffffffffff1916837bffffffffffffffffffffffffffffffffffffffffffffffffffffffff1916148061010e575063fd11c22360e01b7bffffffffffffffffffffffffffffffffffffffffffffffffffffffff1916837bffffffffffffffffffffffffffffffffffffffffffffffffffffffff1916145b8061015d57506395e3c50b60e01b7bffffffffffffffffffffffffffffffffffffffffffffffffffffffff1916837bffffffffffffffffffffffffffffffffffffffffffffffffffffffff1916145b806101ac575063013efd8b60e01b7bffffffffffffffffffffffffffffffffffffffffffffffffffffffff1916837bffffffffffffffffffffffffffffffffffffffffffffffffffffffff1916145b806101fb575063cd7724c360e01b7bffffffffffffffffffffffffffffffffffffffffffffffffffffffff1916837bffffffffffffffffffffffffffffffffffffffffffffffffffffffff1916145b8061024a57506359e9486260e01b7bffffffffffffffffffffffffffffffffffffffffffffffffffffffff1916837bffffffffffffffffffffffffffffffffffffffffffffffffffffffff1916145b8061029957506395b68fe760e01b7bffffffffffffffffffffffffffffffffffffffffffffffffffffffff1916837bffffffffffffffffffffffffffffffffffffffffffffffffffffffff1916145b806102e85750632640f62c60e01b7bffffffffffffffffffffffffffffffffffffffffffffffffffffffff1916837bffffffffffffffffffffffffffffffffffffffffffffffffffffffff1916145b806103375750639d76ea5860e01b7bffffffffffffffffffffffffffffffffffffffffffffffffffffffff1916837bffffffffffffffffffffffffffffffffffffffffffffffffffffffff1916145b80610386575063422f104360e01b7bffffffffffffffffffffffffffffffffffffffffffffffffffffffff1916837bffffffffffffffffffffffffffffffffffffffffffffffffffffffff1916145b806103d5575063f88bf15a60e01b7bffffffffffffffffffffffffffffffffffffffffffffffffffffffff1916837bffffffffffffffffffffffffffffffffffffffffffffffffffffffff1916145b156103df57610f29565b63f39b5b9b60e01b7bffffffffffffffffffffffffffffffffffffffffffffffffffffffff1916837bffffffffffffffffffffffffffffffffffffffffffffffffffffffff19161415610458576000828060200190516104429190810190611847565b5090506000811115610452578491505b50610f28565b63ad65d76d60e01b7bffffffffffffffffffffffffffffffffffffffffffffffffffffffff1916837bffffffffffffffffffffffffffffffffffffffffffffffffffffffff1916141561050d57600080838060200190516104bc9190810190611883565b92505091503073ffffffffffffffffffffffffffffffffffffffff168173ffffffffffffffffffffffffffffffffffffffff16146104f957600080fd5b6000821115610506578592505b5050610f27565b636b1d4db760e01b7bffffffffffffffffffffffffffffffffffffffffffffffffffffffff1916837bffffffffffffffffffffffffffffffffffffffffffffffffffffffff19161415610586576000828060200190516105709190810190611847565b5090506000811115610580578491505b50610f26565b630b57363860e01b7bffffffffffffffffffffffffffffffffffffffffffffffffffffffff1916837bffffffffffffffffffffffffffffffffffffffffffffffffffffffff1916141561063b57600080838060200190516105ea9190810190611883565b92505091503073ffffffffffffffffffffffffffffffffffffffff168173ffffffffffffffffffffffffffffffffffffffff161461062757600080fd5b6000821115610634578592505b5050610f25565b637237e03160e01b7bffffffffffffffffffffffffffffffffffffffffffffffffffffffff1916837bffffffffffffffffffffffffffffffffffffffffffffffffffffffff191614156106e15760008280602001905161069e91908101906118d2565b93505050503073ffffffffffffffffffffffffffffffffffffffff168173ffffffffffffffffffffffffffffffffffffffff16146106db57600080fd5b50610f24565b63d4e4841d60e01b7bffffffffffffffffffffffffffffffffffffffffffffffffffffffff1916837bffffffffffffffffffffffffffffffffffffffffffffffffffffffff191614156107875760008280602001905161074491908101906118d2565b93505050503073ffffffffffffffffffffffffffffffffffffffff168173ffffffffffffffffffffffffffffffffffffffff161461078157600080fd5b50610f23565b63ddf7e1a760e01b7bffffffffffffffffffffffffffffffffffffffffffffffffffffffff1916837bffffffffffffffffffffffffffffffffffffffffffffffffffffffff1916141561082357600080600080858060200190516107ee9190810190611935565b94505093509350935060008411806108065750600083115b806108115750600082115b1561081a578094505b50505050610f22565b63f552d91b60e01b7bffffffffffffffffffffffffffffffffffffffffffffffffffffffff1916837bffffffffffffffffffffffffffffffffffffffffffffffffffffffff191614156108fc5760008060008060008680602001905161088c91908101906119ac565b955095505094509450945060008511806108a65750600084115b806108b15750600083115b156108ba578095505b3073ffffffffffffffffffffffffffffffffffffffff168273ffffffffffffffffffffffffffffffffffffffff16146108f257600080fd5b5050505050610f21565b63b040d54560e01b7bffffffffffffffffffffffffffffffffffffffffffffffffffffffff1916837bffffffffffffffffffffffffffffffffffffffffffffffffffffffff1916141561099957600080600080858060200190516109639190810190611935565b945050935093509350600084118015610987575060008311806109865750600082115b5b15610990578094505b50505050610f20565b63f3c0efe960e01b7bffffffffffffffffffffffffffffffffffffffffffffffffffffffff1916837bffffffffffffffffffffffffffffffffffffffffffffffffffffffff19161415610a7657600080600080600086806020019051610a0291908101906119ac565b9550955050945094509450600085118015610a2a5750600084141580610a29575060008314155b5b15610a33578095505b3073ffffffffffffffffffffffffffffffffffffffff168273ffffffffffffffffffffffffffffffffffffffff161415610a6c57600080fd5b5050505050610f1f565b63b1cb43bf60e01b7bffffffffffffffffffffffffffffffffffffffffffffffffffffffff1916837bffffffffffffffffffffffffffffffffffffffffffffffffffffffff19161415610b725760008083806020019051610ada9190810190611935565b945050505091506000821115610b6b578073ffffffffffffffffffffffffffffffffffffffff16639d76ea586040518163ffffffff1660e01b815260040160206040518083038186803b158015610b3057600080fd5b505afa158015610b44573d6000803e3d6000fd5b505050506040513d601f19601f82011682018060405250610b689190810190611754565b92505b5050610f1e565b63ec384a3e60e01b7bffffffffffffffffffffffffffffffffffffffffffffffffffffffff1916837bffffffffffffffffffffffffffffffffffffffffffffffffffffffff19161415610cab57600080600084806020019051610bd891908101906119ac565b9550955050505092503073ffffffffffffffffffffffffffffffffffffffff168273ffffffffffffffffffffffffffffffffffffffff1614610c1957600080fd5b6000831115610ca3578073ffffffffffffffffffffffffffffffffffffffff16639d76ea586040518163ffffffff1660e01b815260040160206040518083038186803b158015610c6857600080fd5b505afa158015610c7c573d6000803e3d6000fd5b505050506040513d601f19601f82011682018060405250610ca09190810190611754565b93505b505050610f1d565b63ea650c7d60e01b7bffffffffffffffffffffffffffffffffffffffffffffffffffffffff1916837bffffffffffffffffffffffffffffffffffffffffffffffffffffffff19161415610da75760008083806020019051610d0f9190810190611935565b945050505091506000821115610da0578073ffffffffffffffffffffffffffffffffffffffff16639d76ea586040518163ffffffff1660e01b815260040160206040518083038186803b158015610d6557600080fd5b505afa158015610d79573d6000803e3d6000fd5b505050506040513d601f19601f82011682018060405250610d9d9190810190611754565b92505b5050610f1c565b63981a132760e01b7bffffffffffffffffffffffffffffffffffffffffffffffffffffffff1916837bffffffffffffffffffffffffffffffffffffffffffffffffffffffff19161415610ee057600080600084806020019051610e0d91908101906119ac565b9550955050505092503073ffffffffffffffffffffffffffffffffffffffff168273ffffffffffffffffffffffffffffffffffffffff1614610e4e57600080fd5b6000831115610ed8578073ffffffffffffffffffffffffffffffffffffffff16639d76ea586040518163ffffffff1660e01b815260040160206040518083038186803b158015610e9d57600080fd5b505afa158015610eb1573d6000803e3d6000fd5b505050506040513d601f19601f82011682018060405250610ed59190810190611754565b93505b505050610f1b565b6040517f08c379a0000000000000000000000000000000000000000000000000000000008152600401610f1290611c67565b60405180910390fd5b5b5b5b5b5b5b5b5b5b5b5b5b5b5b600073ffffffffffffffffffffffffffffffffffffffff168173ffffffffffffffffffffffffffffffffffffffff1614610faf57610fa581604051602001610f719190611bfc565b6040516020818303038152906040528973ffffffffffffffffffffffffffffffffffffffff166111fa90919063ffffffff16565b610fae57600080fd5b5b600060608873ffffffffffffffffffffffffffffffffffffffff168888604051610fd99190611bbf565b60006040518083038185875af1925050503d8060008114611016576040519150601f19603f3d011682016040523d82523d6000602084013e61101b565b606091505b5091509150811561102e57805181602001f35b805181602001fd5b600080fd5b34801561104757600080fd5b50611062600480360361105d919081019061172b565b6112ff565b60405161106f9190611ca2565b60405180910390f35b611080611332565b60405161108d9190611c87565b60405180910390f35b60008060006110a4856113a9565b905060008173ffffffffffffffffffffffffffffffffffffffff166359770438866040518263ffffffff1660e01b81526004016110e19190611bfc565b60206040518083038186803b1580156110f957600080fd5b505afa15801561110d573d6000803e3d6000fd5b505050506040513d601f19601f820116820180604052506111319190810190611754565b9050600073ffffffffffffffffffffffffffffffffffffffff168173ffffffffffffffffffffffffffffffffffffffff1614156111a3576040517f08c379a000000000000000000000000000000000000000000000000000000000815260040161119a90611c47565b60405180910390fd5b81819350935050509250929050565b600060606111d56111d060006004866113bf9092919063ffffffff16565b6113f7565b91506111f36111ee60048561142690919063ffffffff16565b611452565b9050915091565b6000808373ffffffffffffffffffffffffffffffffffffffff168484604051602401611227929190611c17565b6040516020818303038152906040527ffa1fd28c000000000000000000000000000000000000000000000000000000007bffffffffffffffffffffffffffffffffffffffffffffffffffffffff19166020820180517bffffffffffffffffffffffffffffffffffffffffffffffffffffffff83818316178352505050506040516112b19190611bbf565b600060405180830381855af49150503d80600081146112ec576040519150601f19603f3d011682016040523d82523d6000602084013e6112f1565b606091505b505090508091505092915050565b6000816040516020016113129190611bd6565b6040516020818303038152906040528051906020012060001c9050919050565b61133a6115d5565b611343306114ba565b6040518060200160405290816000820160009054906101000a900473ffffffffffffffffffffffffffffffffffffffff1673ffffffffffffffffffffffffffffffffffffffff1673ffffffffffffffffffffffffffffffffffffffff1681525050905090565b60006113b4826114d4565b600001519050919050565b6113c76115fe565b60006020850184019050808260000181815250508282602001818152505083826040018181525050509392505050565b60008082600001519050600083602001519050600180600883021b038082602003840351169350505050919050565b61142e6115fe565b818351101561143c57825191505b61144a8383848651036113bf565b905092915050565b6060600082602001519050806040519080825280601f01601f1916602001820160405280156114905781602001600182028036833780820191505090505b5091506000836000015160001b905060006020840190506114b2818385611563565b505050919050565b60006114cd6114c8836112ff565b6115a5565b9050919050565b6114dc6115d5565b8173ffffffffffffffffffffffffffffffffffffffff1663966ff7a86040518163ffffffff1660e01b8152600401602060405180830381600087803b15801561152457600080fd5b505af1158015611538573d6000803e3d6000fd5b505050506040513d601f19601f8201168201806040525061155c919081019061181e565b9050919050565b5b602081106115875781518352602083019250602082019150602081039050611564565b600180600883602003021b0380845116811984511617845250505050565b600061161f61161f6115cb90508091506115c2848363ffffffff16565b92505050919050565b6000819050919050565b6040518060200160405280600073ffffffffffffffffffffffffffffffffffffffff1681525090565b60405180606001604052806000815260200160008152602001600081525090565bfe5b60008135905061163081611e2b565b92915050565b60008151905061164581611e2b565b92915050565b60008135905061165a81611e42565b92915050565b60008151905061166f81611e42565b92915050565b600082601f83011261168657600080fd5b813561169961169482611cea565b611cbd565b915080825260208301602083018583830111156116b557600080fd5b6116c0838284611da7565b50505092915050565b6000602082840312156116db57600080fd5b6116e56020611cbd565b905060006116f584828501611636565b60008301525092915050565b60008135905061171081611e59565b92915050565b60008151905061172581611e59565b92915050565b60006020828403121561173d57600080fd5b600061174b84828501611621565b91505092915050565b60006020828403121561176657600080fd5b600061177484828501611636565b91505092915050565b60008060008060008060c0878903121561179657600080fd5b60006117a489828a0161164b565b96505060206117b589828a0161164b565b95505060406117c689828a0161164b565b94505060606117d789828a0161164b565b93505060806117e889828a01611701565b92505060a087013567ffffffffffffffff81111561180557600080fd5b61181189828a01611675565b9150509295509295509295565b60006020828403121561183057600080fd5b600061183e848285016116c9565b91505092915050565b6000806040838503121561185a57600080fd5b600061186885828601611716565b925050602061187985828601611716565b9150509250929050565b60008060006060848603121561189857600080fd5b60006118a686828701611716565b93505060206118b786828701611716565b92505060406118c886828701611660565b9150509250925092565b600080600080608085870312156118e857600080fd5b60006118f687828801611716565b945050602061190787828801611716565b935050604061191887828801611716565b925050606061192987828801611660565b91505092959194509250565b600080600080600060a0868803121561194d57600080fd5b600061195b88828901611716565b955050602061196c88828901611716565b945050604061197d88828901611716565b935050606061198e88828901611716565b925050608061199f88828901611660565b9150509295509295909350565b60008060008060008060c087890312156119c557600080fd5b60006119d389828a01611716565b96505060206119e489828a01611716565b95505060406119f589828a01611716565b9450506060611a0689828a01611716565b9350506080611a1789828a01611660565b92505060a0611a2889828a01611660565b9150509295509295509295565b611a3e81611d59565b82525050565b611a4d81611d59565b82525050565b611a64611a5f82611d59565b611de9565b82525050565b6000611a7582611d16565b611a7f8185611d21565b9350611a8f818560208601611db6565b611a9881611e0d565b840191505092915050565b6000611aae82611d16565b611ab88185611d32565b9350611ac8818560208601611db6565b80840191505092915050565b6000611ae1601a83611d3d565b91507f6e6f7420612076616c696420756e6973776170206d61726b65740000000000006000830152602082019050919050565b6000611b21601983611d3d565b91507f756e737570706f7274656420636f6e74726163742063616c6c000000000000006000830152602082019050919050565b6000611b61601783611d4e565b91507f69736f6c6174652e756e69737761702d616461707465720000000000000000006000830152601782019050919050565b602082016000820151611baa6000850182611a35565b50505050565b611bb981611d9d565b82525050565b6000611bcb8284611aa3565b915081905092915050565b6000611be182611b54565b9150611bed8284611a53565b60148201915081905092915050565b6000602082019050611c116000830184611a44565b92915050565b6000604082019050611c2c6000830185611a44565b8181036020830152611c3e8184611a6a565b90509392505050565b60006020820190508181036000830152611c6081611ad4565b9050919050565b60006020820190508181036000830152611c8081611b14565b9050919050565b6000602082019050611c9c6000830184611b94565b92915050565b6000602082019050611cb76000830184611bb0565b92915050565b6000604051905081810181811067ffffffffffffffff82111715611ce057600080fd5b8060405250919050565b600067ffffffffffffffff821115611d0157600080fd5b601f19601f8301169050602081019050919050565b600081519050919050565b600082825260208201905092915050565b600081905092915050565b600082825260208201905092915050565b600081905092915050565b6000611d6482611d7d565b9050919050565b6000611d7682611d7d565b9050919050565b600073ffffffffffffffffffffffffffffffffffffffff82169050919050565b6000819050919050565b82818337600083830152505050565b60005b83811015611dd4578082015181840152602081019050611db9565b83811115611de3576000848401525b50505050565b6000611df482611dfb565b9050919050565b6000611e0682611e1e565b9050919050565b6000601f19601f8301169050919050565b60008160601b9050919050565b611e3481611d59565b8114611e3f57600080fd5b50565b611e4b81611d6b565b8114611e5657600080fd5b50565b611e6281611d9d565b8114611e6d57600080fd5b5056fea264697066735822122004701479f6c31d48c36ddbf52babb976a6709759205cb260f1a94e5b4d58e92964736f6c63430006030033",
  "source": "pragma solidity ^0.6.2;\npragma experimental ABIEncoderV2;\n\nimport { ILiquidationModule } from \"../../../interfaces/ILiquidationModule.sol\";\nimport { IUniswapFactory } from \"../../../interfaces/IUniswapFactory.sol\";\nimport { IUniswapExchange } from \"../../../interfaces/IUniswapExchange.sol\";\nimport { SliceLib } from \"../../../utils/SliceLib.sol\";\nimport { BorrowProxyLib } from \"../../../BorrowProxyLib.sol\";\nimport { ShifterBorrowProxyLib } from \"../../../ShifterBorrowProxyLib.sol\";\n\ncontract UniswapAdapter {\n  using SliceLib for *;\n  using BorrowProxyLib for *;\n  using ShifterBorrowProxyLib for *;\n  struct ExternalIsolate {\n    address factoryAddress;\n  }\n  constructor(address factoryAddress) public {\n    ExternalIsolate storage isolate = getIsolatePointer(factoryAddress);\n    isolate.factoryAddress = factoryAddress;\n  }\n  function computeIsolatePointer(address instance) public pure returns (uint256) {\n    return uint256(keccak256(abi.encodePacked(\"isolate.uniswap-adapter\", instance)));\n  }\n  function cast(uint256 v) internal pure returns (uint256) {\n    return v;\n  }\n  function toIsolatePointer(uint256 key) internal returns (ExternalIsolate storage) {\n    function (uint256) internal returns (ExternalIsolate storage) swap;\n    function (uint256) internal returns (uint256) real = cast;\n    assembly {\n      swap := real\n    }\n    return swap(key);\n  }\n  function getIsolatePointer(address instance) internal returns (ExternalIsolate storage) {\n    return toIsolatePointer(computeIsolatePointer(instance));\n  }\n  function getExternalIsolateHandler() external payable returns (ExternalIsolate memory) {\n    return getIsolatePointer(address(this));\n  }\n  function getExternalIsolate(address payable moduleAddress) internal returns (ExternalIsolate memory) {\n    return UniswapAdapter(moduleAddress).getExternalIsolateHandler();\n  }\n  function getFactory(address payable moduleAddress) internal returns (IUniswapFactory) {\n    return IUniswapFactory(getExternalIsolate(moduleAddress).factoryAddress);\n  }\n  function validateExchange(address payable moduleAddress, address to) internal returns (IUniswapFactory, address) {\n    IUniswapFactory factory = getFactory(moduleAddress);\n    address tokenAddress = factory.getToken(to);\n    require(tokenAddress != address(0x0), \"not a valid uniswap market\");\n    return (factory, tokenAddress);\n  }\n  function splitPayload(bytes memory payload) internal pure returns (bytes4 sig, bytes memory args) {\n    sig = bytes4(payload.toSlice(0, 4).asWord());\n    args = payload.toSlice(4).copy();\n  }\n  receive() payable external {\n    (address payable moduleAddress, address liquidationModule, /* address txOrigin */, address to, uint256 value, bytes memory payload) = abi.decode(msg.data, (address, address, address, address, uint256, bytes));\n    (/* IUniswapFactory factory */, address tokenAddress) = validateExchange(moduleAddress, to);\n    (bytes4 sig, bytes memory args) = splitPayload(payload);\n    address newToken;\n    if (\n      sig == IUniswapExchange.getInputPrice.selector ||\n      sig == IUniswapExchange.getOutputPrice.selector ||\n      sig == IUniswapExchange.tokenToEthSwapInput.selector ||\n      sig == IUniswapExchange.tokenToEthSwapOutput.selector ||\n      sig == IUniswapExchange.getEthToTokenInputPrice.selector ||\n      sig == IUniswapExchange.getEthToTokenOutputPrice.selector ||\n      sig == IUniswapExchange.getTokenToEthInputPrice.selector ||\n      sig == IUniswapExchange.getTokenToEthOutputPrice.selector ||\n      sig == IUniswapExchange.tokenAddress.selector ||\n      sig == IUniswapExchange.addLiquidity.selector ||\n      sig == IUniswapExchange.removeLiquidity.selector\n    ) {}\n    else if (sig == IUniswapExchange.ethToTokenSwapInput.selector) {\n      (uint256 min_tokens, /* uint256 deadline */) = abi.decode(args, (uint256,uint256));\n      if (min_tokens > 0) newToken = tokenAddress;\n    } else if (sig == IUniswapExchange.ethToTokenTransferInput.selector) {\n      (uint256 min_tokens, /* uint256 deadline */, address recipient) = abi.decode(args, (uint256,uint256,address));\n      require(recipient == address(this)); // \"this\" is the proxy wallet context\n      if (min_tokens > 0) newToken = tokenAddress;\n    } else if (sig == IUniswapExchange.ethToTokenSwapOutput.selector) {\n      (uint256 tokens_bought, /* uint256 deadline */) = abi.decode(args, (uint256,uint256));\n      if (tokens_bought > 0) newToken = tokenAddress;\n    } else if (sig == IUniswapExchange.ethToTokenTransferOutput.selector) {\n      (uint256 tokens_bought, /* uint256 deadline */, address recipient) = abi.decode(args, (uint256,uint256,address));\n      require(recipient == address(this));\n      if (tokens_bought > 0) newToken = tokenAddress;\n    } else if (sig == IUniswapExchange.tokenToEthTransferInput.selector) {\n      (/* uint256 tokens_sold */, /* uint256 min_eth */, /* uint256 deadline */, address recipient) = abi.decode(args, (uint256,uint256,uint256,address));\n      require(recipient == address(this));\n    } else if (sig == IUniswapExchange.tokenToEthTransferOutput.selector) {\n      (/* uint256 eth_bought */, /* uint256 max_tokens */, /* uint256 deadline */, address recipient) = abi.decode(args, (uint256, uint256, uint256, address));\n      require(recipient == address(this));\n    } else if (sig == IUniswapExchange.tokenToTokenSwapInput.selector) {\n      (uint256 tokens_sold, uint256 min_tokens_bought, uint256 min_eth_bought, /* uint256 deadline */, address payable token_addr) = abi.decode(args, (uint256, uint256, uint256, uint256, address));\n      if (tokens_sold > 0 || min_tokens_bought > 0 || min_eth_bought > 0) newToken = token_addr;\n    } else if (sig == IUniswapExchange.tokenToTokenTransferInput.selector) {\n      (uint256 tokens_sold, uint256 min_tokens_bought, uint256 min_eth_bought, /* uint256 deadline */, address recipient, address payable token_addr) = abi.decode(args, (uint256, uint256, uint256, uint256, address, address));\n      if (tokens_sold > 0 || min_tokens_bought > 0 || min_eth_bought > 0) newToken = token_addr;\n      require(recipient == address(this));\n    } else if (sig == IUniswapExchange.tokenToTokenSwapOutput.selector) {\n      (uint256 tokens_bought, uint256 max_tokens_sold, uint256 max_eth_sold, /* uint256 deadline */, address payable token_addr) = abi.decode(args, (uint256, uint256, uint256, uint256, address));\n      if (tokens_bought > 0 && (max_tokens_sold > 0 || max_eth_sold > 0)) newToken = token_addr;\n    } else if (sig == IUniswapExchange.tokenToTokenTransferOutput.selector) {\n      (uint256 tokens_bought, uint256 max_tokens_sold, uint256 max_eth_sold, /* uint256 deadline */, address recipient, address payable token_addr) = abi.decode(args, (uint256, uint256, uint256, uint256, address, address));\n      if (tokens_bought > 0 && (max_tokens_sold != 0 || max_eth_sold != 0)) newToken = token_addr;\n      require(recipient != address(this));\n    } else if (sig == IUniswapExchange.tokenToExchangeSwapInput.selector) {\n      (uint256 tokens_sold, /* uint256 min_tokens_bought */, /* uint256 min_eth_bought */, /* uint256 deadline */, address payable exchange_addr) = abi.decode(args, (uint256, uint256, uint256, uint256, address));\n      if (tokens_sold > 0) newToken = IUniswapExchange(exchange_addr).tokenAddress();\n    } else if (sig == IUniswapExchange.tokenToExchangeTransferInput.selector) {\n      (uint256 tokens_sold, /* uint256 min_tokens_bought */, /* uint256 min_eth_bought */, /* uint256 deadline */, address recipient, address payable exchange_addr) = abi.decode(args, (uint256, uint256, uint256, uint256, address, address));\n      require(recipient == address(this));\n      if (tokens_sold > 0) newToken = IUniswapExchange(exchange_addr).tokenAddress();\n    } else if (sig == IUniswapExchange.tokenToExchangeSwapOutput.selector) {\n      (uint256 tokens_bought, /* uint256 max_tokens_sold */, /* uint256 max_eth_sold */, /* uint256 deadline */, address payable exchange_addr) = abi.decode(args, (uint256, uint256, uint256, uint256, address));\n      if (tokens_bought > 0) newToken = IUniswapExchange(exchange_addr).tokenAddress();\n    } else if (sig == IUniswapExchange.tokenToExchangeTransferOutput.selector) {\n      (uint256 tokens_bought, /* uint256 max_tokens_sold */, /* uint256 max_eth_sold */, /* uint256 deadline */, address payable recipient, address payable exchange_addr) = abi.decode(args, (uint256, uint256, uint256, uint256, address, address));\n      require(recipient == address(this));\n      if (tokens_bought > 0) newToken = IUniswapExchange(exchange_addr).tokenAddress();\n    } else revert(\"unsupported contract call\");\n    if (newToken != address(0x0)) require(liquidationModule.delegateNotify(abi.encode(newToken)));\n    (bool success, bytes memory retval) = to.call.value(value)(payload);\n    if (success) assembly {\n      return(add(0x20, retval), mload(retval))\n    } else assembly {\n      revert(add(0x20, retval), mload(retval))\n    }\n  }\n}\n",
  "sourcePath": "/home/ray/0confirmation-mono/packages/0confirmation-contracts/contracts/adapters/assets/uniswap/UniswapAdapter.sol",
  "compiler": {
    "name": "solc",
    "version": "0.6.3+commit.8dda9521.Linux.g++"
  },
  "schemaVersion": "3.0.23",
  "updatedAt": "2020-02-24T04:42:40.492Z",
  "devdoc": {
    "methods": {}
  },
  "userdoc": {
    "methods": {}
  }
}